ASSEMBLY LISTING OF SEGMENT >spec>install>1110>access_audit_r1_.alm
ASSEMBLED ON:	11/11/89  0948.4 mst Sat
OPTIONS USED:	-target l68                              list symbols
ASSEMBLED BY:	ALM Version 8.14 March 1989
ASSEMBLER CREATED:	06/09/89  1002.3 mst Fri

                                     1  " ***********************************************************
                                     2  " *                                                         *
                                     3  " * Copyright, (C) Honeywell Bull Inc., 1987                *
                                     4  " *                                                         *
                                     5  " * Copyright, (C) Honeywell Information Systems Inc., 1984 *
                                     6  " *                                                         *
                                     7  " ***********************************************************
                                     8
                                     9  """"""""""""""""""""""""""""""""""""""""""""""""""""""""""""""""""""""
                                    10  "
                                    11  " access_audit_r1_ - transfer vector for auditing from ring1
                                    12  "
                                    13  "	It was planned to have entrypoints in admin_gate_ which had
                                    14  "	the same name as the corresponding entrypoints in access_audit_
                                    15  "	but with a prefix of "access_audit_".  (e.g. a ring 1 program
                                    16  "	would reference admin_gate_$access_audit_log_obj_class)
                                    17  "
                                    18  "	However, the gate macros limit entries to 29 characters.  Thus,
                                    19  "	the admin_gate_ entries were reduced to unreadable entries
                                    20  "	such as "admin_gate_$acc_aud_log_class_range_user" which references
                                    21  "	access_audit_$log_obj_class_range_user.
                                    22  "
                                    23  "	Rather than create another hardcore gate for ring 1, this transfer
                                    24  "	vector was put in place so that calling code is slightly more
                                    25  "	readable.
                                    26  "
                                    27  " Last Modified:
                                    28  " 1984-12-07 by EJ Sharpe - initial coding
                                    29  "
                                    30  """"""""""""""""""""""""""""""""""""""""""""""""""""""""""""""""""""""
                                    31
                                    32  	macro	tv
                              1     33
                              2     34  	segdef	&1
                              3     35  &1:	getlp
                              4     36  	call6	admin_gate_$acc_aud_&2
                              5     37
                              6     38  	&end
                                    39
                                    40  	tv	check_general,ck_general

                        000000          	segdef	check_general
    000000  aa  7 00046 2721 20         check_general:	getlp
    000001  4a  4 00010 7131 20         	call6	admin_gate_$acc_aud_ck_general

                                    41  	tv	check_general_user,ck_general_user

                        000002          	segdef	check_general_user
    000002  aa  7 00046 2721 20         check_general_user:	getlp
    000003  4a  4 00012 7131 20         	call6	admin_gate_$acc_aud_ck_general_user

                                    42
                                    43  	tv	check_obj_class_range,ck_class_range

                        000004          	segdef	check_obj_class_range
    000004  aa  7 00046 2721 20         check_obj_class_range:	getlp
    000005  4a  4 00014 7131 20         	call6	admin_gate_$acc_aud_ck_class_range

                                    44  	tv	check_obj_class_range_user,ck_class_range_user

                        000006          	segdef	check_obj_class_range_user
    000006  aa  7 00046 2721 20         check_obj_class_range_user:	getlp
    000007  4a  4 00016 7131 20         	call6	admin_gate_$acc_aud_ck_class_range_user

                                    45
                                    46  	tv	check_obj_class,ck_class

                        000010          	segdef	check_obj_class
    000010  aa  7 00046 2721 20         check_obj_class:	getlp
    000011  4a  4 00020 7131 20         	call6	admin_gate_$acc_aud_ck_class

                                    47  	tv	check_obj_class_user,ck_class_user

                        000012          	segdef	check_obj_class_user
    000012  aa  7 00046 2721 20         check_obj_class_user:	getlp
    000013  4a  4 00022 7131 20         	call6	admin_gate_$acc_aud_ck_class_user

                                    48
                                    49  	tv	check_obj_path,ck_path

                        000014          	segdef	check_obj_path
    000014  aa  7 00046 2721 20         check_obj_path:	getlp
    000015  4a  4 00024 7131 20         	call6	admin_gate_$acc_aud_ck_path

                                    50  	tv	check_obj_path_user,ck_path_user

                        000016          	segdef	check_obj_path_user
    000016  aa  7 00046 2721 20         check_obj_path_user:	getlp
    000017  4a  4 00026 7131 20         	call6	admin_gate_$acc_aud_ck_path_user

                                    51
                                    52  	tv	check_obj_ptr,ck_ptr

                        000020          	segdef	check_obj_ptr
    000020  aa  7 00046 2721 20         check_obj_ptr:	getlp
    000021  4a  4 00030 7131 20         	call6	admin_gate_$acc_aud_ck_ptr

                                    53  	tv	check_obj_ptr_user,ck_ptr_user

                        000022          	segdef	check_obj_ptr_user
    000022  aa  7 00046 2721 20         check_obj_ptr_user:	getlp
    000023  4a  4 00032 7131 20         	call6	admin_gate_$acc_aud_ck_ptr_user

                                    54
                                    55  	tv	log_general,lg_general

                        000024          	segdef	log_general
    000024  aa  7 00046 2721 20         log_general:	getlp
    000025  4a  4 00034 7131 20         	call6	admin_gate_$acc_aud_lg_general

                                    56  	tv	log_general_user,lg_general_user

                        000026          	segdef	log_general_user
    000026  aa  7 00046 2721 20         log_general_user:	getlp
    000027  4a  4 00036 7131 20         	call6	admin_gate_$acc_aud_lg_general_user

                                    57
                                    58  	tv	log_obj_class_range,lg_class_range

                        000030          	segdef	log_obj_class_range
    000030  aa  7 00046 2721 20         log_obj_class_range:	getlp
    000031  4a  4 00040 7131 20         	call6	admin_gate_$acc_aud_lg_class_range

                                    59  	tv	log_obj_class_range_user,lg_class_range_user

                        000032          	segdef	log_obj_class_range_user
    000032  aa  7 00046 2721 20         log_obj_class_range_user:	getlp
    000033  4a  4 00042 7131 20         	call6	admin_gate_$acc_aud_lg_class_range_user

                                    60
                                    61  	tv	log_obj_class,lg_class

                        000034          	segdef	log_obj_class
    000034  aa  7 00046 2721 20         log_obj_class:	getlp
    000035  4a  4 00044 7131 20         	call6	admin_gate_$acc_aud_lg_class

                                    62  	tv	log_obj_class_user,lg_class_user

                        000036          	segdef	log_obj_class_user
    000036  aa  7 00046 2721 20         log_obj_class_user:	getlp
    000037  4a  4 00046 7131 20         	call6	admin_gate_$acc_aud_lg_class_user

                                    63
                                    64  	tv	log_obj_path,lg_path

                        000040          	segdef	log_obj_path
    000040  aa  7 00046 2721 20         log_obj_path:	getlp
    000041  4a  4 00050 7131 20         	call6	admin_gate_$acc_aud_lg_path

                                    65  	tv	log_obj_path_user,lg_path_user

                        000042          	segdef	log_obj_path_user
    000042  aa  7 00046 2721 20         log_obj_path_user:	getlp
    000043  4a  4 00052 7131 20         	call6	admin_gate_$acc_aud_lg_path_user

                                    66
                                    67  	tv	log_obj_ptr,lg_ptr

                        000044          	segdef	log_obj_ptr
    000044  aa  7 00046 2721 20         log_obj_ptr:	getlp
    000045  4a  4 00054 7131 20         	call6	admin_gate_$acc_aud_lg_ptr

                                    68  	tv	log_obj_ptr_user,lg_ptr_user

                        000046          	segdef	log_obj_ptr_user
    000046  aa  7 00046 2721 20         log_obj_ptr_user:	getlp
    000047  4a  4 00056 7131 20         	call6	admin_gate_$acc_aud_lg_ptr_user

                                    69
                                    70  	tv	log_no_process,lg_no_process

                        000050          	segdef	log_no_process
    000050  aa  7 00046 2721 20         log_no_process:	getlp
    000051  4a  4 00060 7131 20         	call6	admin_gate_$acc_aud_lg_no_process

                                    71
                                    72  	tv	get_audit_flags,get_flags

                        000052          	segdef	get_audit_flags
    000052  aa  7 00046 2721 20         get_audit_flags:	getlp
    000053  4a  4 00062 7131 20         	call6	admin_gate_$acc_aud_get_flags

                                    73
                                    74  	tv	set_audit_flags,set_flags

                        000054          	segdef	set_audit_flags
    000054  aa  7 00046 2721 20         set_audit_flags:	getlp
    000055  4a  4 00064 7131 20         	call6	admin_gate_$acc_aud_set_flags

                                    75
                                    76  " the following are not included in admin_gate_ because they're for ring 0 only
                                    77  "	tv	check_entry_ptr,ck_entry_ptr
                                    78  "	tv	check_entry_ptr_user,ck_entry_ptr_user
                                    79  "	tv	log_entry_ptr,lg_entry_ptr
                                    80  "	tv	log_entry_ptr_user,lg_entry_ptr_user
                                    81
                                    82  " the following is not included in admin_gate_ because it's useless in ring 1
                                    83  "	tv	get_audit_meters,get_meters
                                    84
                                    85  	end

NO LITERALS

NAME DEFINITIONS FOR ENTRY POINTS AND SEGDEFS

    000056  5a   000003 000000
    000057  5a   000303 600000
    000060  aa   000000 000000
    000061  55   000013 000002
    000062  5a   000002 400003
    000063  55   000006 000013
    000064  aa  020 141 143 143
    000065  aa  145 163 163 137
    000066  aa  141 165 144 151
    000067  aa  164 137 162 061
    000070  aa  137 000 000 000
    000071  55   000022 000003
    000072  0a   000054 400000
    000073  55   000016 000003
    000074  aa  017 163 145 164         set_audit_flags
    000075  aa  137 141 165 144
    000076  aa  151 164 137 146
    000077  aa  154 141 147 163
    000100  55   000031 000013
    000101  0a   000052 400000
    000102  55   000025 000003
    000103  aa  017 147 145 164         get_audit_flags
    000104  aa  137 141 165 144
    000105  aa  151 164 137 146
    000106  aa  154 141 147 163
    000107  55   000040 000022
    000110  0a   000050 400000
    000111  55   000034 000003
    000112  aa  016 154 157 147         log_no_process
    000113  aa  137 156 157 137
    000114  aa  160 162 157 143
    000115  aa  145 163 163 000
    000116  55   000050 000031
    000117  0a   000046 400000
    000120  55   000043 000003
    000121  aa  020 154 157 147         log_obj_ptr_user
    000122  aa  137 157 142 152
    000123  aa  137 160 164 162
    000124  aa  137 165 163 145
    000125  aa  162 000 000 000
    000126  55   000056 000040
    000127  0a   000044 400000
    000130  55   000053 000003
    000131  aa  013 154 157 147         log_obj_ptr
    000132  aa  137 157 142 152
    000133  aa  137 160 164 162
    000134  55   000066 000050
    000135  0a   000042 400000
    000136  55   000061 000003
    000137  aa  021 154 157 147         log_obj_path_user
    000140  aa  137 157 142 152
    000141  aa  137 160 141 164
    000142  aa  150 137 165 163
    000143  aa  145 162 000 000
    000144  55   000075 000056
    000145  0a   000040 400000
    000146  55   000071 000003
    000147  aa  014 154 157 147         log_obj_path
    000150  aa  137 157 142 152
    000151  aa  137 160 141 164
    000152  aa  150 000 000 000
    000153  55   000105 000066
    000154  0a   000036 400000
    000155  55   000100 000003
    000156  aa  022 154 157 147         log_obj_class_user
    000157  aa  137 157 142 152
    000160  aa  137 143 154 141
    000161  aa  163 163 137 165
    000162  aa  163 145 162 000
    000163  55   000114 000075
    000164  0a   000034 400000
    000165  55   000110 000003
    000166  aa  015 154 157 147         log_obj_class
    000167  aa  137 157 142 152
    000170  aa  137 143 154 141
    000171  aa  163 163 000 000
    000172  55   000126 000105
    000173  0a   000032 400000
    000174  55   000117 000003
    000175  aa  030 154 157 147         log_obj_class_range_user
    000176  aa  137 157 142 152
    000177  aa  137 143 154 141
    000200  aa  163 163 137 162
    000201  aa  141 156 147 145
    000202  aa  137 165 163 145
    000203  aa  162 000 000 000
    000204  55   000136 000114
    000205  0a   000030 400000
    000206  55   000131 000003
    000207  aa  023 154 157 147         log_obj_class_range
    000210  aa  137 157 142 152
    000211  aa  137 143 154 141
    000212  aa  163 163 137 162
    000213  aa  141 156 147 145
    000214  55   000146 000126
    000215  0a   000026 400000
    000216  55   000141 000003
    000217  aa  020 154 157 147         log_general_user
    000220  aa  137 147 145 156
    000221  aa  145 162 141 154
    000222  aa  137 165 163 145
    000223  aa  162 000 000 000
    000224  55   000154 000136
    000225  0a   000024 400000
    000226  55   000151 000003
    000227  aa  013 154 157 147         log_general
    000230  aa  137 147 145 156
    000231  aa  145 162 141 154
    000232  55   000164 000146
    000233  0a   000022 400000
    000234  55   000157 000003
    000235  aa  022 143 150 145         check_obj_ptr_user
    000236  aa  143 153 137 157
    000237  aa  142 152 137 160
    000240  aa  164 162 137 165
    000241  aa  163 145 162 000
    000242  55   000173 000154
    000243  0a   000020 400000
    000244  55   000167 000003
    000245  aa  015 143 150 145         check_obj_ptr
    000246  aa  143 153 137 157
    000247  aa  142 152 137 160
    000250  aa  164 162 000 000
    000251  55   000203 000164
    000252  0a   000016 400000
    000253  55   000176 000003
    000254  aa  023 143 150 145         check_obj_path_user
    000255  aa  143 153 137 157
    000256  aa  142 152 137 160
    000257  aa  141 164 150 137
    000260  aa  165 163 145 162
    000261  55   000212 000173
    000262  0a   000014 400000
    000263  55   000206 000003
    000264  aa  016 143 150 145         check_obj_path
    000265  aa  143 153 137 157
    000266  aa  142 152 137 160
    000267  aa  141 164 150 000
    000270  55   000223 000203
    000271  0a   000012 400000
    000272  55   000215 000003
    000273  aa  024 143 150 145         check_obj_class_user
    000274  aa  143 153 137 157
    000275  aa  142 152 137 143
    000276  aa  154 141 163 163
    000277  aa  137 165 163 145
    000300  aa  162 000 000 000
    000301  55   000232 000212
    000302  0a   000010 400000
    000303  55   000226 000003
    000304  aa  017 143 150 145         check_obj_class
    000305  aa  143 153 137 157
    000306  aa  142 152 137 143
    000307  aa  154 141 163 163
    000310  55   000244 000223
    000311  0a   000006 400000
    000312  55   000235 000003
    000313  aa  032 143 150 145         check_obj_class_range_user
    000314  aa  143 153 137 157
    000315  aa  142 152 137 143
    000316  aa  154 141 163 163
    000317  aa  137 162 141 156
    000320  aa  147 145 137 165
    000321  aa  163 145 162 000
    000322  55   000255 000232
    000323  0a   000004 400000
    000324  55   000247 000003
    000325  aa  025 143 150 145         check_obj_class_range
    000326  aa  143 153 137 157
    000327  aa  142 152 137 143
    000330  aa  154 141 163 163
    000331  aa  137 162 141 156
    000332  aa  147 145 000 000
    000333  55   000265 000244
    000334  0a   000002 400000
    000335  55   000260 000003
    000336  aa  022 143 150 145         check_general_user
    000337  aa  143 153 137 147
    000340  aa  145 156 145 162
    000341  aa  141 154 137 165
    000342  aa  163 145 162 000
    000343  55   000274 000255
    000344  0a   000000 400000
    000345  55   000270 000003
    000346  aa  015 143 150 145         check_general
    000347  aa  143 153 137 147
    000350  aa  145 156 145 162
    000351  aa  141 154 000 000
    000352  55   000002 000265
    000353  6a   000000 400002
    000354  55   000277 000003
    000355  aa  014 163 171 155         symbol_table
    000356  aa  142 157 154 137
    000357  aa  164 141 142 154
    000360  aa  145 000 000 000

DEFINITIONS HASH TABLE

    000361  aa   000000 000065
    000362  5a   000105 000000
    000363  5a   000066 000000
    000364  5a   000212 000000
    000365  5a   000050 000000
    000366  5a   000146 000000
    000367  5a   000173 000000
    000370  5a   000154 000000
    000371  5a   000244 000000
    000372  5a   000255 000000
    000373  aa   000000 000000
    000374  aa   000000 000000
    000375  aa   000000 000000
    000376  5a   000223 000000
    000377  aa   000000 000000
    000400  5a   000203 000000
    000401  aa   000000 000000
    000402  5a   000164 000000
    000403  5a   000265 000000
    000404  5a   000013 000000
    000405  aa   000000 000000
    000406  aa   000000 000000
    000407  aa   000000 000000
    000410  aa   000000 000000
    000411  aa   000000 000000
    000412  aa   000000 000000
    000413  aa   000000 000000
    000414  aa   000000 000000
    000415  aa   000000 000000
    000416  5a   000274 000000
    000417  aa   000000 000000
    000420  5a   000114 000000
    000421  aa   000000 000000
    000422  aa   000000 000000
    000423  aa   000000 000000
    000424  aa   000000 000000
    000425  aa   000000 000000
    000426  aa   000000 000000
    000427  aa   000000 000000
    000430  aa   000000 000000
    000431  aa   000000 000000
    000432  5a   000126 000000
    000433  aa   000000 000000
    000434  5a   000075 000000
    000435  5a   000232 000000
    000436  5a   000056 000000
    000437  aa   000000 000000
    000440  5a   000040 000000
    000441  5a   000136 000000
    000442  aa   000000 000000
    000443  aa   000000 000000
    000444  5a   000031 000000
    000445  aa   000000 000000
    000446  5a   000022 000000

EXTERNAL NAMES

    000447  aa  021 141 143 143         acc_aud_set_flags
    000450  aa  137 141 165 144
    000451  aa  137 163 145 164
    000452  aa  137 146 154 141
    000453  aa  147 163 000 000
    000454  aa  021 141 143 143         acc_aud_get_flags
    000455  aa  137 141 165 144
    000456  aa  137 147 145 164
    000457  aa  137 146 154 141
    000460  aa  147 163 000 000
    000461  aa  025 141 143 143         acc_aud_lg_no_process
    000462  aa  137 141 165 144
    000463  aa  137 154 147 137
    000464  aa  156 157 137 160
    000465  aa  162 157 143 145
    000466  aa  163 163 000 000
    000467  aa  023 141 143 143         acc_aud_lg_ptr_user
    000470  aa  137 141 165 144
    000471  aa  137 154 147 137
    000472  aa  160 164 162 137
    000473  aa  165 163 145 162
    000474  aa  016 141 143 143         acc_aud_lg_ptr
    000475  aa  137 141 165 144
    000476  aa  137 154 147 137
    000477  aa  160 164 162 000
    000500  aa  024 141 143 143         acc_aud_lg_path_user
    000501  aa  137 141 165 144
    000502  aa  137 154 147 137
    000503  aa  160 141 164 150
    000504  aa  137 165 163 145
    000505  aa  162 000 000 000
    000506  aa  017 141 143 143         acc_aud_lg_path
    000507  aa  137 141 165 144
    000510  aa  137 154 147 137
    000511  aa  160 141 164 150
    000512  aa  025 141 143 143         acc_aud_lg_class_user
    000513  aa  137 141 165 144
    000514  aa  137 154 147 137
    000515  aa  143 154 141 163
    000516  aa  163 137 165 163
    000517  aa  145 162 000 000
    000520  aa  020 141 143 143         acc_aud_lg_class
    000521  aa  137 141 165 144
    000522  aa  137 154 147 137
    000523  aa  143 154 141 163
    000524  aa  163 000 000 000
    000525  aa  033 141 143 143         acc_aud_lg_class_range_user
    000526  aa  137 141 165 144
    000527  aa  137 154 147 137
    000530  aa  143 154 141 163
    000531  aa  163 137 162 141
    000532  aa  156 147 145 137
    000533  aa  165 163 145 162
    000534  aa  026 141 143 143         acc_aud_lg_class_range
    000535  aa  137 141 165 144
    000536  aa  137 154 147 137
    000537  aa  143 154 141 163
    000540  aa  163 137 162 141
    000541  aa  156 147 145 000
    000542  aa  027 141 143 143         acc_aud_lg_general_user
    000543  aa  137 141 165 144
    000544  aa  137 154 147 137
    000545  aa  147 145 156 145
    000546  aa  162 141 154 137
    000547  aa  165 163 145 162
    000550  aa  022 141 143 143         acc_aud_lg_general
    000551  aa  137 141 165 144
    000552  aa  137 154 147 137
    000553  aa  147 145 156 145
    000554  aa  162 141 154 000
    000555  aa  023 141 143 143         acc_aud_ck_ptr_user
    000556  aa  137 141 165 144
    000557  aa  137 143 153 137
    000560  aa  160 164 162 137
    000561  aa  165 163 145 162
    000562  aa  016 141 143 143         acc_aud_ck_ptr
    000563  aa  137 141 165 144
    000564  aa  137 143 153 137
    000565  aa  160 164 162 000
    000566  aa  024 141 143 143         acc_aud_ck_path_user
    000567  aa  137 141 165 144
    000570  aa  137 143 153 137
    000571  aa  160 141 164 150
    000572  aa  137 165 163 145
    000573  aa  162 000 000 000
    000574  aa  017 141 143 143         acc_aud_ck_path
    000575  aa  137 141 165 144
    000576  aa  137 143 153 137
    000577  aa  160 141 164 150
    000600  aa  025 141 143 143         acc_aud_ck_class_user
    000601  aa  137 141 165 144
    000602  aa  137 143 153 137
    000603  aa  143 154 141 163
    000604  aa  163 137 165 163
    000605  aa  145 162 000 000
    000606  aa  020 141 143 143         acc_aud_ck_class
    000607  aa  137 141 165 144
    000610  aa  137 143 153 137
    000611  aa  143 154 141 163
    000612  aa  163 000 000 000
    000613  aa  033 141 143 143         acc_aud_ck_class_range_user
    000614  aa  137 141 165 144
    000615  aa  137 143 153 137
    000616  aa  143 154 141 163
    000617  aa  163 137 162 141
    000620  aa  156 147 145 137
    000621  aa  165 163 145 162
    000622  aa  026 141 143 143         acc_aud_ck_class_range
    000623  aa  137 141 165 144
    000624  aa  137 143 153 137
    000625  aa  143 154 141 163
    000626  aa  163 137 162 141
    000627  aa  156 147 145 000
    000630  aa  027 141 143 143         acc_aud_ck_general_user
    000631  aa  137 141 165 144
    000632  aa  137 143 153 137
    000633  aa  147 145 156 145
    000634  aa  162 141 154 137
    000635  aa  165 163 145 162
    000636  aa  022 141 143 143         acc_aud_ck_general
    000637  aa  137 141 165 144
    000640  aa  137 143 153 137
    000641  aa  147 145 156 145
    000642  aa  162 141 154 000
    000643  aa  013 141 144 155         admin_gate_
    000644  aa  151 156 137 147
    000645  aa  141 164 145 137

NO TRAP POINTER WORDS

TYPE PAIR BLOCKS

    000646  aa   000004 000000
    000647  55   000565 000371
    000650  aa   000004 000000
    000651  55   000565 000376
    000652  aa   000004 000000
    000653  55   000565 000403
    000654  aa   000004 000000
    000655  55   000565 000411
    000656  aa   000004 000000
    000657  55   000565 000416
    000660  aa   000004 000000
    000661  55   000565 000422
    000662  aa   000004 000000
    000663  55   000565 000430
    000664  aa   000004 000000
    000665  55   000565 000434
    000666  aa   000004 000000
    000667  55   000565 000442
    000670  aa   000004 000000
    000671  55   000565 000447
    000672  aa   000004 000000
    000673  55   000565 000456
    000674  aa   000004 000000
    000675  55   000565 000464
    000676  aa   000004 000000
    000677  55   000565 000472
    000700  aa   000004 000000
    000701  55   000565 000477
    000702  aa   000004 000000
    000703  55   000565 000504
    000704  aa   000004 000000
    000705  55   000565 000510
    000706  aa   000004 000000
    000707  55   000565 000516
    000710  aa   000004 000000
    000711  55   000565 000522
    000712  aa   000004 000000
    000713  55   000565 000530
    000714  aa   000004 000000
    000715  55   000565 000535
    000716  aa   000004 000000
    000717  55   000565 000544
    000720  aa   000004 000000
    000721  55   000565 000552
    000722  aa   000004 000000
    000723  55   000565 000560
    000724  aa   000001 000000
    000725  aa   000000 000000

INTERNAL EXPRESSION WORDS

    000726  5a   000570 000000
    000727  5a   000572 000000
    000730  5a   000574 000000
    000731  5a   000576 000000
    000732  5a   000600 000000
    000733  5a   000602 000000
    000734  5a   000604 000000
    000735  5a   000606 000000
    000736  5a   000610 000000
    000737  5a   000612 000000
    000740  5a   000614 000000
    000741  5a   000616 000000
    000742  5a   000620 000000
    000743  5a   000622 000000
    000744  5a   000624 000000
    000745  5a   000626 000000
    000746  5a   000630 000000
    000747  5a   000632 000000
    000750  5a   000634 000000
    000751  5a   000636 000000
    000752  5a   000640 000000
    000753  5a   000642 000000
    000754  5a   000644 000000
    000755  aa   000000 000000
LINKAGE INFORMATION

    000000  aa   000000 000000
    000001  0a   000056 000000
    000002  aa   000000 000000
    000003  aa   000000 000000
    000004  aa   000000 000000
    000005  aa   000000 000000
    000006  22   000010 000066
    000007  a2   000000 000000
    000010  9a   777770 0000 46         admin_gate_|acc_aud_ck_general
    000011  5a   000676 0000 00
    000012  9a   777766 0000 46         admin_gate_|acc_aud_ck_general_user
    000013  5a   000675 0000 00
    000014  9a   777764 0000 46         admin_gate_|acc_aud_ck_class_range
    000015  5a   000674 0000 00
    000016  9a   777762 0000 46         admin_gate_|acc_aud_ck_class_range_user
    000017  5a   000673 0000 00
    000020  9a   777760 0000 46         admin_gate_|acc_aud_ck_class
    000021  5a   000672 0000 00
    000022  9a   777756 0000 46         admin_gate_|acc_aud_ck_class_user
    000023  5a   000671 0000 00
    000024  9a   777754 0000 46         admin_gate_|acc_aud_ck_path
    000025  5a   000670 0000 00
    000026  9a   777752 0000 46         admin_gate_|acc_aud_ck_path_user
    000027  5a   000667 0000 00
    000030  9a   777750 0000 46         admin_gate_|acc_aud_ck_ptr
    000031  5a   000666 0000 00
    000032  9a   777746 0000 46         admin_gate_|acc_aud_ck_ptr_user
    000033  5a   000665 0000 00
    000034  9a   777744 0000 46         admin_gate_|acc_aud_lg_general
    000035  5a   000664 0000 00
    000036  9a   777742 0000 46         admin_gate_|acc_aud_lg_general_user
    000037  5a   000663 0000 00
    000040  9a   777740 0000 46         admin_gate_|acc_aud_lg_class_range
    000041  5a   000662 0000 00
    000042  9a   777736 0000 46         admin_gate_|acc_aud_lg_class_range_user
    000043  5a   000661 0000 00
    000044  9a   777734 0000 46         admin_gate_|acc_aud_lg_class
    000045  5a   000660 0000 00
    000046  9a   777732 0000 46         admin_gate_|acc_aud_lg_class_user
    000047  5a   000657 0000 00
    000050  9a   777730 0000 46         admin_gate_|acc_aud_lg_path
    000051  5a   000656 0000 00
    000052  9a   777726 0000 46         admin_gate_|acc_aud_lg_path_user
    000053  5a   000655 0000 00
    000054  9a   777724 0000 46         admin_gate_|acc_aud_lg_ptr
    000055  5a   000654 0000 00
    000056  9a   777722 0000 46         admin_gate_|acc_aud_lg_ptr_user
    000057  5a   000653 0000 00
    000060  9a   777720 0000 46         admin_gate_|acc_aud_lg_no_process
    000061  5a   000652 0000 00
    000062  9a   777716 0000 46         admin_gate_|acc_aud_get_flags
    000063  5a   000651 0000 00
    000064  9a   777714 0000 46         admin_gate_|acc_aud_set_flags
    000065  5a   000650 0000 00
SYMBOL INFORMATION

SYMBOL TABLE HEADER

    000000  aa   000000 000001
    000001  aa   163171 155142
    000002  aa   164162 145145
    000003  aa   000000 000010
    000004  aa   000000 117244
    000005  aa   361023 525721
    000006  aa   000000 117547
    000007  aa   254771 517056
    000010  aa   141154 155040
    000011  aa   040040 040040
    000012  aa   000024 000040
    000013  aa   000034 000040
    000014  aa   000044 000100
    000015  aa   000002 000002
    000016  aa   000064 000000
    000017  aa   000000 000221
    000020  aa   000000 000104
    000021  aa   000127 000114
    000022  aa   000213 000104
    000023  aa   000064 000000
    000024  aa   101114 115040
    000025  aa   126145 162163
    000026  aa   151157 156040
    000027  aa   070056 061064
    000030  aa   040115 141162
    000031  aa   143150 040061
    000032  aa   071070 071040
    000033  aa   040040 040040
    000034  aa   110151 162156
    000035  aa   145151 163145
    000036  aa   156056 123171
    000037  aa   163115 141151
    000040  aa   156164 056141
    000041  aa   040040 040040
    000042  aa   040040 040040
    000043  aa   040040 040040
    000044  aa   055164 141162
    000045  aa   147145 164040
    000046  aa   154066 070040
    000047  aa   040040 040040
    000050  aa   040040 040040
    000051  aa   040040 040040
    000052  aa   040040 040040
    000053  aa   040040 040040
    000054  aa   040040 040040
    000055  aa   040040 040040
    000056  aa   040154 151163
    000057  aa   164040 163171
    000060  aa   155142 157154
    000061  aa   163040 040040
    000062  aa   040040 040040
    000063  aa   040040 040040
    000064  aa   000000 000001
    000065  aa   000000 000001
    000066  aa   000072 000047
    000067  aa   175453 017734
    000070  aa   000000 117547
    000071  aa   176452 000000
    000072  aa   076163 160145          >spec>install>1110>access_audit_r1_.alm
    000073  aa   143076 151156
    000074  aa   163164 141154
    000075  aa   154076 061061
    000076  aa   061060 076141
    000077  aa   143143 145163
    000100  aa   163137 141165
    000101  aa   144151 164137
    000102  aa   162061 137056
    000103  aa   141154 155040
               MULTICS ASSEMBLY CROSS REFERENCE LISTING

   Value        Symbol                   Source file   Line number

                acc_aud_ck_class         access_audit_r1_:    46.
                acc_aud_ck_class_range   access_audit_r1_:    43.
                acc_aud_ck_class_range_user    access_audit_r1_:    44.
                acc_aud_ck_class_user    access_audit_r1_:    47.
                acc_aud_ck_general       access_audit_r1_:    40.
                acc_aud_ck_general_user  access_audit_r1_:    41.
                acc_aud_ck_path          access_audit_r1_:    49.
                acc_aud_ck_path_user     access_audit_r1_:    50.
                acc_aud_ck_ptr           access_audit_r1_:    52.
                acc_aud_ck_ptr_user      access_audit_r1_:    53.
                acc_aud_get_flags        access_audit_r1_:    72.
                acc_aud_lg_class         access_audit_r1_:    61.
                acc_aud_lg_class_range   access_audit_r1_:    58.
                acc_aud_lg_class_range_user    access_audit_r1_:    59.
                acc_aud_lg_class_user    access_audit_r1_:    62.
                acc_aud_lg_general       access_audit_r1_:    55.
                acc_aud_lg_general_user  access_audit_r1_:    56.
                acc_aud_lg_no_process    access_audit_r1_:    70.
                acc_aud_lg_path          access_audit_r1_:    64.
                acc_aud_lg_path_user     access_audit_r1_:    65.
                acc_aud_lg_ptr           access_audit_r1_:    67.
                acc_aud_lg_ptr_user      access_audit_r1_:    68.
                acc_aud_set_flags        access_audit_r1_:    74.
                admin_gate_              access_audit_r1_:    40,   41,   43,   44,   46,   47,   49,   50,   52,   53,   55,
                                                              56,   58,   59,   61,   62,   64,   65,   67,   68,   70,   72,   74.
           0    check_general            access_audit_r1_:    40.
           2    check_general_user       access_audit_r1_:    41.
          10    check_obj_class          access_audit_r1_:    46.
           4    check_obj_class_range    access_audit_r1_:    43.
           6    check_obj_class_range_user     access_audit_r1_:    44.
          12    check_obj_class_user     access_audit_r1_:    47.
          14    check_obj_path           access_audit_r1_:    49.
          16    check_obj_path_user      access_audit_r1_:    50.
          20    check_obj_ptr            access_audit_r1_:    52.
          22    check_obj_ptr_user       access_audit_r1_:    53.
          52    get_audit_flags          access_audit_r1_:    72.
          24    log_general              access_audit_r1_:    55.
          26    log_general_user         access_audit_r1_:    56.
          50    log_no_process           access_audit_r1_:    70.
          34    log_obj_class            access_audit_r1_:    61.
          30    log_obj_class_range      access_audit_r1_:    58.
          32    log_obj_class_range_user       access_audit_r1_:    59.
          36    log_obj_class_user       access_audit_r1_:    62.
          40    log_obj_path             access_audit_r1_:    64.
          42    log_obj_path_user        access_audit_r1_:    65.
          44    log_obj_ptr              access_audit_r1_:    67.
          46    log_obj_ptr_user         access_audit_r1_:    68.
          54    set_audit_flags          access_audit_r1_:    74.


NO FATAL ERRORS


                                          -----------------------------------------------------------


Historical Background

This edition of the Multics software materials and documentation is provided and donated
to Massachusetts Institute of Technology by Group BULL including BULL HN Information Systems Inc.
as a contribution to computer science knowledge.
This donation is made also to give evidence of the common contributions of Massachusetts Institute of Technology,
Bell Laboratories, General Electric, Honeywell Information Systems Inc., Honeywell BULL Inc., Groupe BULL
and BULL HN Information Systems Inc. to the development of this operating system.
Multics development was initiated by Massachusetts Institute of Technology Project MAC (1963-1970),
renamed the MIT Laboratory for Computer Science and Artificial Intelligence in the mid 1970s, under the leadership
of Professor Fernando Jose Corbato. Users consider that Multics provided the best software architecture
for managing computer hardware properly and for executing programs. Many subsequent operating systems
incorporated Multics principles.
Multics was distributed in 1975 to 2000 by Group Bull in Europe , and in the U.S. by Bull HN Information Systems Inc.,
as successor in interest by change in name only to Honeywell Bull Inc. and Honeywell Information Systems Inc. .

                                          -----------------------------------------------------------

Permission to use, copy, modify, and distribute these programs and their documentation for any purpose and without
fee is hereby granted,provided that the below copyright notice and historical background appear in all copies
and that both the copyright notice and historical background and this permission notice appear in supporting
documentation, and that the names of MIT, HIS, BULL or BULL HN not be used in advertising or publicity pertaining
to distribution of the programs without specific prior written permission.
    Copyright 1972 by Massachusetts Institute of Technology and Honeywell Information Systems Inc.
    Copyright 2006 by BULL HN Information Systems Inc.
    Copyright 2006 by Bull SAS
    All Rights Reserved
