ASSEMBLY LISTING OF SEGMENT >spec>install>1110>access_operations_.alm
ASSEMBLED ON:	11/11/89  0948.9 mst Sat
OPTIONS USED:	-target l68                              list symbols
ASSEMBLED BY:	ALM Version 8.14 March 1989
ASSEMBLER CREATED:	06/09/89  1002.3 mst Fri

                                     1  " ***********************************************************
                                     2  " *                                                         *
                                     3  " * Copyright, (C) Honeywell Bull Inc., 1987                *
                                     4  " *                                                         *
                                     5  " * Copyright, (C) Honeywell Information Systems Inc., 1984 *
                                     6  " *                                                         *
                                     7  " ***********************************************************
                                     8
                                     9  " HISTORY COMMENTS:
                                    10  "  1) change(85-07-10,EJSharpe), approve(86-02-20,MCR7304),
                                    11  "     audit(86-03-27,CLJones), install(86-04-23,MR12.0-1044):
                                    12  "      Add attach_lv and detach_lv.
                                    13  "  2) change(85-07-16,CLJones), approve(86-01-26,MCR7330),
                                    14  "     audit(86-01-15,Tague), install(86-04-23,MR12.0-1044):
                                    15  "      Add DM journal operations.
                                    16  "  3) change(85-07-28,EJSharpe), approve(86-02-20,MCR7303),
                                    17  "     audit(85-11-07,Coren), install(86-04-23,MR12.0-1044):
                                    18  "      Add install_table.
                                    19  "  4) change(86-01-09,Fawcett), approve(86-03-28,MCR7359),
                                    20  "     audit(86-05-05,Lippard), install(86-09-16,MR12.0-1159):
                                    21  "     Add operations lock_mca,unlock_mca.
                                    22  "  5) change(86-03-28,Fawcett), approve(86-03-28,MCR7374),
                                    23  "     audit(86-05-05,Lippard), install(86-09-16,MR12.0-1159):
                                    24  "     Add invalid_mca.
                                    25  "  6) change(86-06-19,Lippard), approve(85-12-30,MCR7326),
                                    26  "     audit(86-10-24,GDixon), install(86-10-28,MR12.0-1200):
                                    27  "      Add abs_command_cancel and abs_command_login.
                                    28  "  7) change(87-06-02,Lippard), approve(87-02-09,MCR7616),
                                    29  "     audit(87-08-06,Fawcett), install(87-08-06,MR12.1-1063):
                                    30  "      Add set_procs_required.
                                    31  "  8) change(87-06-11,GDixon), approve(87-07-15,MCR7741),
                                    32  "     audit(87-07-15,Brunelle), install(87-08-04,MR12.1-1055):
                                    33  "      Add dialin, dialout and dial_system.
                                    34  "  9) change(87-07-15,GDixon), approve(87-07-15,MCR7741),
                                    35  "     audit(87-08-06,Brunelle), install(87-08-06,MR12.1-1063):
                                    36  "      Add process_terminate.
                                    37  " 10) change(87-08-07,Lippard), approve(87-02-09,PBF7616),
                                    38  "     audit(87-08-11,Farley), install(87-08-18,MR12.1-1090):
                                    39  "      Add get_procs_required.
                                    40  "                                                      END HISTORY COMMENTS
                                    41
    000000                          42  name	access_operations_
                        000000      43  	segdef	version
                        000002      44  	segdef	num_codes
                        000003      45  	segdef	code_table
                        000155      46  	segdef	text_offset_table
                        000327      47  	segdef	text_area
                                    48
                                    49  " ----------------------------------------------------------------------
                                    50  " ACCESS_OPERATIONS_
                                    51  "
                                    52  " The access audit codes and textual description for all security related
                                    53  " events.  This table is used by access_audit_, all its callers, and any
                                    54  " audit log message manipulation routines.
                                    55  "
                                    56  " Usage:
                                    57  " 	dcl access_operations_$ENTRY ext bit (36) aligned;
                                    58  " or:	dcl 1 access_operations_$ENTRY ext aligned like encoded_access_op;
                                    59  "	    ("encoded_access_op" defined in access_audit_encoded_op.incl.pl1)
                                    60  "
                                    61  " See Also:
                                    62  "	"access_operations_.incl.pl1" for pl1 definition of this data structure
                                    63  "
                                    64  " NOTES:
                                    65  " 1) THE POSITION OF ENTRIES CANNOT BE CHANGED.  OTHERWISE THE LOG
                                    66  "	MANIPULATION TOOLS WILL FAIL.
                                    67  " 2) ANY CHANGE TO EXISTING MESSAGE TEXT MUST ALSO BE REFLECTED IN THE
                                    68  "	MESSAGE DOCUMENTATION IN THE SOURCE OF ALL REFERENCING MODULES.
                                    69  " 3) THE TEXT SHOULD BE NEUTRAL IN RESPECT TO TENSE AND SUCCESSFULNESS.
                                    70  "	(e.g. "modified the..." should be "modification of the...")
                                    71  " 4) IF YOU MODIFY ANY OF THE ENTRIES WHOSE NAME INCLUDES "mseg_", YOU MUST
                                    72  "	ALSO RECOMPILE mseg_access_operations_.cds IN bound_mseg_.
                                    73  "
                                    74  " Last Modified:
                                    75  " 85-05-01 by BIM and GMP to cleanup message segment operations
                                    76  " 85-04-14 by MM Pozzo to say rcp assign resource instead of assign device
                                    77  " 85-03-15 by Chris Jones to add rcp_list, fix rcp_unload and rcp_unassign
                                    78  " 85-02-27 by C. Marker to io_daemon_set_page_labels.
                                    79  " 85-02-26 by M. Pandolf to add mseg operations.
                                    80  " 85-02-25 by MM Pozzo to add rcp operations
                                    81  " 85-01-28 by Keith Loepere for log_vol_full.
                                    82  " 85-01-25 by EJ Sharpe for ipc_wakeup
                                    83  " 85-01-24 by E. Swenson for pnt operations.
                                    84  " 85-01-23 by E. Swenson for channel and dialid operations.
                                    85  " 85-01-18 by E. Swenson for login and process related operations.
                                    86  " 85-01-09 by Keith Loepere for excessive_seg_state_chg.
                                    87  " 84-12-26, BIM: Added message coordinator operations.
                                    88  " 84-12-06 by EJ Sharpe to add system_privilege_modify and mseg_add_entry
                                    89  " 84-12-05 by EJ Sharpe to add header comments and fs_obj_reclassify
                                    90  " 84-12-04 by EJ Sharpe to add fs_obj_set_soos
                                    91  " 84-11-29 by EJ Sharpe to add system_audit_thresh_modify and process_audit_flags_modify
                                    92  " 84-11-?? by EJ Sharpe to add ipr and acv fault operations
                                    93  " Written Keith Loepere, October 1984. */
                                    94
                                    95
                        000000      96  	set	code_count,0
                                    97  	use	codes
    000003                          98  code_table:
                                    99
                                   100  	use	text_table
    000155                         101  text_offset_table:
                                   102
                                   103  	use	text
    000327                         104  text_area:
                                   105
                                   106  	macro	operation
                              1    107  	maclist	off
                              2    108  	set	code_count,code_count+1
                              3    109  	use	codes
                              4    110  	segdef	&1
                              5    111  	maclist	object
                              6    112  &1:	vfd	4/&2,2/&3,12/code_count,18/0
                              7    113  	maclist	off
                              8    114  	use	text
                              9    115  	maclist	object
                             10    116  &U:	aci	"&4"
                             11    117  	maclist	off
                             12    118  	use	text_table
                             13    119  	maclist	object
                             14    120  	zero	&U-text_area,&l4
                             15    121  	&end
                                   122  "
                                   123  " The format of each of the following lines, whose order cannot change once
                                   124  " they exist, is:
                                   125  "
                                   126  "	operation	operation_name,object_type,object_access,(operation_desc)
                                   127  "
                                   128  " where	object_type = FS_OBJ, FS_OBJ_ATTR, RCP, ADMIN, SPECIAL
                                   129  "	access_type = READ, MODIFY, MODIFY_ACCESS
                                   130  "
                                   131  " (Note that the detailed_operation field within the encoded_op
                                   132  " is substituted by the caller of access_audit_.)
                                   133
                        000000     134  	equ	UNKNOWN,0		" can't know what the operation was
                        000001     135  	equ	MODIFY_ACCESS,1
                        000002     136  	equ	MODIFY,2
                        000003     137  	equ	READ,3
                                   138
                        000000     139  	equ	NONE,0		" no object associated with the event
                        000001     140  	equ	FS_OBJ,1
                        000002     141  	equ	FS_OBJ_ATTR,2
                        000003     142  	equ	RCP,3
                        000004     143  	equ	ADMIN,4
                        000005     144  	equ	SPECIAL,5
                        000006     145  	equ	OTHER,6
                                   146  "
                                   147  	operation	fs_obj_create,FS_OBJ_ATTR,MODIFY,(creation of fs_obj)
    000003  aa   120001 000000
    000327  aa  143 162 145 141
    000330  aa  164 151 157 156
    000331  aa  040 157 146 040
    000332  aa  146 163 137 157
    000333  aa  142 152 000 000
    000155  aa   000000 000022
                                   148  	operation	fs_obj_delete,FS_OBJ_ATTR,MODIFY,(deletion of fs_obj)
    000004  aa   120002 000000
    000334  aa  144 145 154 145
    000335  aa  164 151 157 156
    000336  aa  040 157 146 040
    000337  aa  146 163 137 157
    000340  aa  142 152 000 000
    000156  aa   000005 000022
                                   149  	operation	fs_obj_initiate,FS_OBJ_ATTR,READ,(initiation of fs_obj)
    000005  aa   130003 000000
    000341  aa  151 156 151 164
    000342  aa  151 141 164 151
    000343  aa  157 156 040 157
    000344  aa  146 040 146 163
    000345  aa  137 157 142 152
    000157  aa   000012 000024
                                   150  	operation	fs_obj_terminate,FS_OBJ_ATTR,READ,(termination of fs_obj)
    000006  aa   130004 000000
    000346  aa  164 145 162 155
    000347  aa  151 156 141 164
    000350  aa  151 157 156 040
    000351  aa  157 146 040 146
    000352  aa  163 137 157 142
    000353  aa  152 000 000 000
    000160  aa   000017 000025
                                   151  	operation	fs_obj_contents_read,FS_OBJ,READ,(read of fs_obj)
    000007  aa   070005 000000
    000354  aa  162 145 141 144
    000355  aa  040 157 146 040
    000356  aa  146 163 137 157
    000357  aa  142 152 000 000
    000161  aa   000025 000016
                                   152  	operation	fs_obj_contents_mod,FS_OBJ,MODIFY,(modification of fs_obj)
    000010  aa   060006 000000
    000360  aa  155 157 144 151
    000361  aa  146 151 143 141
    000362  aa  164 151 157 156
    000363  aa  040 157 146 040
    000364  aa  146 163 137 157
    000365  aa  142 152 000 000
    000162  aa   000031 000026
                                   153  	operation	fs_obj_prop_read,FS_OBJ_ATTR,READ,(read of fs_obj prop)
    000011  aa   130007 000000
    000366  aa  162 145 141 144
    000367  aa  040 157 146 040
    000370  aa  146 163 137 157
    000371  aa  142 152 040 160
    000372  aa  162 157 160 000
    000163  aa   000037 000023
                                   154  	operation	fs_obj_attr_mod,FS_OBJ_ATTR,MODIFY,(modification of fs_obj attribute prop)
    000012  aa   120010 000000
    000373  aa  155 157 144 151
    000374  aa  146 151 143 141
    000375  aa  164 151 157 156
    000376  aa  040 157 146 040
    000377  aa  146 163 137 157
    000400  aa  142 152 040 141
    000401  aa  164 164 162 151
    000402  aa  142 165 164 145
    000403  aa  040 160 162 157
    000404  aa  160 000 000 000
    000164  aa   000044 000045
                                   155  	operation	fs_obj_status_mod,FS_OBJ_ATTR,MODIFY,(modification of fs_obj status prop)
    000013  aa   120011 000000
    000405  aa  155 157 144 151
    000406  aa  146 151 143 141
    000407  aa  164 151 157 156
    000410  aa  040 157 146 040
    000411  aa  146 163 137 157
    000412  aa  142 152 040 163
    000413  aa  164 141 164 165
    000414  aa  163 040 160 162
    000415  aa  157 160 000 000
    000165  aa   000056 000042
                                   156  	operation	fs_obj_access_mod,FS_OBJ_ATTR,MODIFY_ACCESS,(modification of fs_obj access)
    000014  aa   110012 000000
    000416  aa  155 157 144 151
    000417  aa  146 151 143 141
    000420  aa  164 151 157 156
    000421  aa  040 157 146 040
    000422  aa  146 163 137 157
    000423  aa  142 152 040 141
    000424  aa  143 143 145 163
    000425  aa  163 000 000 000
    000166  aa   000067 000035
                                   157  	operation	fault_ipr,NONE,UNKNOWN,(illegal procedure fault)
    000015  aa   000013 000000
    000426  aa  151 154 154 145
    000427  aa  147 141 154 040
    000430  aa  160 162 157 143
    000431  aa  145 144 165 162
    000432  aa  145 040 146 141
    000433  aa  165 154 164 000
    000167  aa   000077 000027
                                   158  	operation	fault_acv_ring,FS_OBJ,UNKNOWN,(access violation fault - ring)
    000016  aa   040014 000000
    000434  aa  141 143 143 145
    000435  aa  163 163 040 166
    000436  aa  151 157 154 141
    000437  aa  164 151 157 156
    000440  aa  040 146 141 165
    000441  aa  154 164 040 055
    000442  aa  040 162 151 156
    000443  aa  147 000 000 000
    000170  aa   000105 000035
                                   159  	operation	fault_acv_mode,FS_OBJ,UNKNOWN,(access violation fault - mode)
    000017  aa   040015 000000
    000444  aa  141 143 143 145
    000445  aa  163 163 040 166
    000446  aa  151 157 154 141
    000447  aa  164 151 157 156
    000450  aa  040 146 141 165
    000451  aa  154 164 040 055
    000452  aa  040 155 157 144
    000453  aa  145 000 000 000
    000171  aa   000115 000035
                                   160  	operation system_audit_thresh_modify,NONE,UNKNOWN,(modification of system audit flags and thresholds)
    000020  aa   000016 000000
    000454  aa  155 157 144 151
    000455  aa  146 151 143 141
    000456  aa  164 151 157 156
    000457  aa  040 157 146 040
    000460  aa  163 171 163 164
    000461  aa  145 155 040 141
    000462  aa  165 144 151 164
    000463  aa  040 146 154 141
    000464  aa  147 163 040 141
    000465  aa  156 144 040 164
    000466  aa  150 162 145 163
    000467  aa  150 157 154 144
    000470  aa  163 000 000 000
    000172  aa   000125 000061
                                   161  	operation	process_audit_flags_modify,NONE,UNKNOWN,(modification of process audit flags)
    000021  aa   000017 000000
    000471  aa  155 157 144 151
    000472  aa  146 151 143 141
    000473  aa  164 151 157 156
    000474  aa  040 157 146 040
    000475  aa  160 162 157 143
    000476  aa  145 163 163 040
    000477  aa  141 165 144 151
    000500  aa  164 040 146 154
    000501  aa  141 147 163 000
    000173  aa   000142 000043
                                   162  	operation	fs_obj_set_soos,FS_OBJ_ATTR,MODIFY_ACCESS,(modification of security out-of-service)
    000022  aa   110020 000000
    000502  aa  155 157 144 151
    000503  aa  146 151 143 141
    000504  aa  164 151 157 156
    000505  aa  040 157 146 040
    000506  aa  163 145 143 165
    000507  aa  162 151 164 171
    000510  aa  040 157 165 164
    000511  aa  055 157 146 055
    000512  aa  163 145 162 166
    000513  aa  151 143 145 000
    000174  aa   000153 000047
                                   163  	operation	fs_obj_reclassify,FS_OBJ_ATTR,MODIFY_ACCESS,(modification of fs_obj access class)
    000023  aa   110021 000000
    000514  aa  155 157 144 151
    000515  aa  146 151 143 141
    000516  aa  164 151 157 156
    000517  aa  040 157 146 040
    000520  aa  146 163 137 157
    000521  aa  142 152 040 141
    000522  aa  143 143 145 163
    000523  aa  163 040 143 154
    000524  aa  141 163 163 000
    000175  aa   000165 000043
                                   164  	operation	system_privilege_modify,NONE,UNKNOWN,(modification of system AIM privilege)
    000024  aa   000022 000000
    000525  aa  155 157 144 151
    000526  aa  146 151 143 141
    000527  aa  164 151 157 156
    000530  aa  040 157 146 040
    000531  aa  163 171 163 164
    000532  aa  145 155 040 101
    000533  aa  111 115 040 160
    000534  aa  162 151 166 151
    000535  aa  154 145 147 145
    000176  aa   000176 000044
                                   165  	operation mseg_add_message,OTHER,MODIFY,(addition of a message to a message segment)
    000025  aa   320023 000000
    000536  aa  141 144 144 151
    000537  aa  164 151 157 156
    000540  aa  040 157 146 040
    000541  aa  141 040 155 145
    000542  aa  163 163 141 147
    000543  aa  145 040 164 157
    000544  aa  040 141 040 155
    000545  aa  145 163 163 141
    000546  aa  147 145 040 163
    000547  aa  145 147 155 145
    000550  aa  156 164 000 000
    000177  aa   000207 000052
                                   166
                                   167  	operation daemon_reply,OTHER,MODIFY,(sending a reply to daemon)
    000026  aa   320024 000000
    000551  aa  163 145 156 144
    000552  aa  151 156 147 040
    000553  aa  141 040 162 145
    000554  aa  160 154 171 040
    000555  aa  164 157 040 144
    000556  aa  141 145 155 157
    000557  aa  156 000 000 000
    000200  aa   000222 000031
                                   168  	operation	daemon_quit,OTHER,MODIFY,(sending a quit to a daemon)
    000027  aa   320025 000000
    000560  aa  163 145 156 144
    000561  aa  151 156 147 040
    000562  aa  141 040 161 165
    000563  aa  151 164 040 164
    000564  aa  157 040 141 040
    000565  aa  144 141 145 155
    000566  aa  157 156 000 000
    000201  aa   000231 000032
                                   169  	operation daemon_login,OTHER,MODIFY,(logging in a daemon)
    000030  aa   320026 000000
    000567  aa  154 157 147 147
    000570  aa  151 156 147 040
    000571  aa  151 156 040 141
    000572  aa  040 144 141 145
    000573  aa  155 157 156 000
    000202  aa   000240 000023
                                   170  	operation daemon_logout,OTHER,MODIFY,(logging out a daemon)
    000031  aa   320027 000000
    000574  aa  154 157 147 147
    000575  aa  151 156 147 040
    000576  aa  157 165 164 040
    000577  aa  141 040 144 141
    000600  aa  145 155 157 156
    000203  aa   000245 000024
                                   171  	operation daemon_new_proc,OTHER,MODIFY,(sending a new_proc to a daemon)
    000032  aa   320030 000000
    000601  aa  163 145 156 144
    000602  aa  151 156 147 040
    000603  aa  141 040 156 145
    000604  aa  167 137 160 162
    000605  aa  157 143 040 164
    000606  aa  157 040 141 040
    000607  aa  144 141 145 155
    000610  aa  157 156 000 000
    000204  aa   000252 000036
                                   172  	operation daemon_daemon_login,OTHER,MODIFY,(logging in as a daemon)
    000033  aa   320031 000000
    000611  aa  154 157 147 147
    000612  aa  151 156 147 040
    000613  aa  151 156 040 141
    000614  aa  163 040 141 040
    000615  aa  144 141 145 155
    000616  aa  157 156 000 000
    000205  aa   000262 000026
                                   173  	operation	excessive_seg_state_chg,FS_OBJ_ATTR,UNKNOWN,(excessive segment state changes)
    000034  aa   100032 000000
    000617  aa  145 170 143 145
    000620  aa  163 163 151 166
    000621  aa  145 040 163 145
    000622  aa  147 155 145 156
    000623  aa  164 040 163 164
    000624  aa  141 164 145 040
    000625  aa  143 150 141 156
    000626  aa  147 145 163 000
    000206  aa   000270 000037
                                   174  " Note that page_fault knows the text of excessive_seg_state_chg
                                   175  	operation user_login,SPECIAL,UNKNOWN,(logging in)
    000035  aa   240033 000000
    000627  aa  154 157 147 147
    000630  aa  151 156 147 040
    000631  aa  151 156 000 000
    000207  aa   000300 000012
                                   176  	operation user_logout,SPECIAL,UNKNOWN,(logging out)
    000036  aa   240034 000000
    000632  aa  154 157 147 147
    000633  aa  151 156 147 040
    000634  aa  157 165 164 000
    000210  aa   000303 000013
                                   177  	operation process_create,SPECIAL,UNKNOWN,(creating process)
    000037  aa   240035 000000
    000635  aa  143 162 145 141
    000636  aa  164 151 156 147
    000637  aa  040 160 162 157
    000640  aa  143 145 163 163
    000211  aa   000306 000020
                                   178  	operation process_destroy,SPECIAL,UNKNOWN,(destroying process)
    000040  aa   240036 000000
    000641  aa  144 145 163 164
    000642  aa  162 157 171 151
    000643  aa  156 147 040 160
    000644  aa  162 157 143 145
    000645  aa  163 163 000 000
    000212  aa   000312 000022
                                   179  	operation process_connect,SPECIAL,UNKNOWN,(connecting process)
    000041  aa   240037 000000
    000646  aa  143 157 156 156
    000647  aa  145 143 164 151
    000650  aa  156 147 040 160
    000651  aa  162 157 143 145
    000652  aa  163 163 000 000
    000213  aa   000317 000022
                                   180  	operation process_disconnect,SPECIAL,UNKNOWN,(disconnecting process)
    000042  aa   240040 000000
    000653  aa  144 151 163 143
    000654  aa  157 156 156 145
    000655  aa  143 164 151 156
    000656  aa  147 040 160 162
    000657  aa  157 143 145 163
    000660  aa  163 000 000 000
    000214  aa   000324 000025
                                   181  	operation channel_attach,SPECIAL,MODIFY,(attaching channel)
    000043  aa   260041 000000
    000661  aa  141 164 164 141
    000662  aa  143 150 151 156
    000663  aa  147 040 143 150
    000664  aa  141 156 156 145
    000665  aa  154 000 000 000
    000215  aa   000332 000021
                                   182  	operation channel_detach,SPECIAL,MODIFY,(detaching channel)
    000044  aa   260042 000000
    000666  aa  144 145 164 141
    000667  aa  143 150 151 156
    000670  aa  147 040 143 150
    000671  aa  141 156 156 145
    000672  aa  154 000 000 000
    000216  aa   000337 000021
                                   183  	operation dialid_start,SPECIAL,MODIFY,(dial service begin)
    000045  aa   260043 000000
    000673  aa  144 151 141 154
    000674  aa  040 163 145 162
    000675  aa  166 151 143 145
    000676  aa  040 142 145 147
    000677  aa  151 156 000 000
    000217  aa   000344 000022
                                   184  	operation dialid_stop,SPECIAL,MODIFY,(dial service end)
    000046  aa   260044 000000
    000700  aa  144 151 141 154
    000701  aa  040 163 145 162
    000702  aa  166 151 143 145
    000703  aa  040 145 156 144
    000220  aa   000351 000020
                                   185  	operation pnt_entry_add,ADMIN,MODIFY,(addition of pnt entry)
    000047  aa   220045 000000
    000704  aa  141 144 144 151
    000705  aa  164 151 157 156
    000706  aa  040 157 146 040
    000707  aa  160 156 164 040
    000710  aa  145 156 164 162
    000711  aa  171 000 000 000
    000221  aa   000355 000025
                                   186  	operation pnt_entry_delete,ADMIN,MODIFY,(deletion of pnt entry)
    000050  aa   220046 000000
    000712  aa  144 145 154 145
    000713  aa  164 151 157 156
    000714  aa  040 157 146 040
    000715  aa  160 156 164 040
    000716  aa  145 156 164 162
    000717  aa  171 000 000 000
    000222  aa   000363 000025
                                   187  	operation pnt_entry_modify,ADMIN,MODIFY,(modification of pnt entry)
    000051  aa   220047 000000
    000720  aa  155 157 144 151
    000721  aa  146 151 143 141
    000722  aa  164 151 157 156
    000723  aa  040 157 146 040
    000724  aa  160 156 164 040
    000725  aa  145 156 164 162
    000726  aa  171 000 000 000
    000223  aa   000371 000031
                                   188  	operation ipc_wakeup,SPECIAL,MODIFY,(interprocess wakeup)
    000052  aa   260050 000000
    000727  aa  151 156 164 145
    000730  aa  162 160 162 157
    000731  aa  143 145 163 163
    000732  aa  040 167 141 153
    000733  aa  145 165 160 000
    000224  aa   000400 000023
                                   189  	operation	log_vol_full,NONE,UNKNOWN,(overflow of logical volume)
    000053  aa   000051 000000
    000734  aa  157 166 145 162
    000735  aa  146 154 157 167
    000736  aa  040 157 146 040
    000737  aa  154 157 147 151
    000740  aa  143 141 154 040
    000741  aa  166 157 154 165
    000742  aa  155 145 000 000
    000225  aa   000405 000032
                                   190  	operation pnt_entry_admin_read,ADMIN,READ,(admin read of pnt entry)
    000054  aa   230052 000000
    000743  aa  141 144 155 151
    000744  aa  156 040 162 145
    000745  aa  141 144 040 157
    000746  aa  146 040 160 156
    000747  aa  164 040 145 156
    000750  aa  164 162 171 000
    000226  aa   000414 000027
                                   191  	operation pnt_entry_priv_read,ADMIN,READ,(priv read of pnt entry)
    000055  aa   230053 000000
    000751  aa  160 162 151 166
    000752  aa  040 162 145 141
    000753  aa  144 040 157 146
    000754  aa  040 160 156 164
    000755  aa  040 145 156 164
    000756  aa  162 171 000 000
    000227  aa   000422 000026
                                   192  	operation pnt_entry_network_read,ADMIN,READ,(network read of pnt entry)
    000056  aa   230054 000000
    000757  aa  156 145 164 167
    000760  aa  157 162 153 040
    000761  aa  162 145 141 144
    000762  aa  040 157 146 040
    000763  aa  160 156 164 040
    000764  aa  145 156 164 162
    000765  aa  171 000 000 000
    000230  aa   000430 000031
                                   193  	operation pnt_entry_login_read,ADMIN,READ,(login read of pnt entry)
    000057  aa   230055 000000
    000766  aa  154 157 147 151
    000767  aa  156 040 162 145
    000770  aa  141 144 040 157
    000771  aa  146 040 160 156
    000772  aa  164 040 145 156
    000773  aa  164 162 171 000
    000231  aa   000437 000027
                                   194            operation rcp_register,RCP,MODIFY,(creation of rcp object)
    000060  aa   160056 000000
    000774  aa  143 162 145 141
    000775  aa  164 151 157 156
    000776  aa  040 157 146 040
    000777  aa  162 143 160 040
    001000  aa  157 142 152 145
    001001  aa  143 164 000 000
    000232  aa   000445 000026
                                   195  	operation rcp_deregister,RCP,MODIFY,(deletion of rcp object)
    000061  aa   160057 000000
    001002  aa  144 145 154 145
    001003  aa  164 151 157 156
    001004  aa  040 157 146 040
    001005  aa  162 143 160 040
    001006  aa  157 142 152 145
    001007  aa  143 164 000 000
    000233  aa   000453 000026
                                   196  	operation rcp_register_acquire,RCP,MODIFY_ACCESS,(creation and acquisition of rcp object)
    000062  aa   150060 000000
    001010  aa  143 162 145 141
    001011  aa  164 151 157 156
    001012  aa  040 141 156 144
    001013  aa  040 141 143 161
    001014  aa  165 151 163 151
    001015  aa  164 151 157 156
    001016  aa  040 157 146 040
    001017  aa  162 143 160 040
    001020  aa  157 142 152 145
    001021  aa  143 164 000 000
    000234  aa   000461 000046
                                   197  	operation rcp_acquire,RCP,MODIFY_ACCESS,(acquisition of rcp object)
    000063  aa   150061 000000
    001022  aa  141 143 161 165
    001023  aa  151 163 151 164
    001024  aa  151 157 156 040
    001025  aa  157 146 040 162
    001026  aa  143 160 040 157
    001027  aa  142 152 145 143
    001030  aa  164 000 000 000
    000235  aa   000473 000031
                                   198  	operation rcp_release,RCP,MODIFY_ACCESS,(release rcp object acquisition)
    000064  aa   150062 000000
    001031  aa  162 145 154 145
    001032  aa  141 163 145 040
    001033  aa  162 143 160 040
    001034  aa  157 142 152 145
    001035  aa  143 164 040 141
    001036  aa  143 161 165 151
    001037  aa  163 151 164 151
    001040  aa  157 156 000 000
    000236  aa   000502 000036
                                   199  	operation rcp_reserve,RCP,READ,(reservation of rcp object)
    000065  aa   170063 000000
    001041  aa  162 145 163 145
    001042  aa  162 166 141 164
    001043  aa  151 157 156 040
    001044  aa  157 146 040 162
    001045  aa  143 160 040 157
    001046  aa  142 152 145 143
    001047  aa  164 000 000 000
    000237  aa   000512 000031
                                   200  	operation rcp_cancel,RCP,READ,(cancel rcp object reservation)
    000066  aa   170064 000000
    001050  aa  143 141 156 143
    001051  aa  145 154 040 162
    001052  aa  143 160 040 157
    001053  aa  142 152 145 143
    001054  aa  164 040 162 145
    001055  aa  163 145 162 166
    001056  aa  141 164 151 157
    001057  aa  156 000 000 000
    000240  aa   000521 000035
                                   201  	operation rcp_preload,RCP,READ,(preload of rcp object)
    000067  aa   170065 000000
    001060  aa  160 162 145 154
    001061  aa  157 141 144 040
    001062  aa  157 146 040 162
    001063  aa  143 160 040 157
    001064  aa  142 152 145 143
    001065  aa  164 000 000 000
    000241  aa   000531 000025
                                   202  	operation rcp_unload,RCP,READ,(unload of resource)
    000070  aa   170066 000000
    001066  aa  165 156 154 157
    001067  aa  141 144 040 157
    001070  aa  146 040 162 145
    001071  aa  163 157 165 162
    001072  aa  143 145 000 000
    000242  aa   000537 000022
                                   203  	operation rcp_assign_read,RCP,READ,(assign resource for reading)
    000071  aa   170067 000000
    001073  aa  141 163 163 151
    001074  aa  147 156 040 162
    001075  aa  145 163 157 165
    001076  aa  162 143 145 040
    001077  aa  146 157 162 040
    001100  aa  162 145 141 144
    001101  aa  151 156 147 000
    000243  aa   000544 000033
                                   204  	operation rcp_assign_write,RCP,MODIFY,(assign resource for writing)
    000072  aa   160070 000000
    001102  aa  141 163 163 151
    001103  aa  147 156 040 162
    001104  aa  145 163 157 165
    001105  aa  162 143 145 040
    001106  aa  146 157 162 040
    001107  aa  167 162 151 164
    001110  aa  151 156 147 000
    000244  aa   000553 000033
                                   205  	operation rcp_unassign,RCP,READ,(unassignment of rcp object)
    000073  aa   170071 000000
    001111  aa  165 156 141 163
    001112  aa  163 151 147 156
    001113  aa  155 145 156 164
    001114  aa  040 157 146 040
    001115  aa  162 143 160 040
    001116  aa  157 142 152 145
    001117  aa  143 164 000 000
    000245  aa   000562 000032
                                   206  	operation rcp_status,RCP,READ,(status of rcp object)
    000074  aa   170072 000000
    001120  aa  163 164 141 164
    001121  aa  165 163 040 157
    001122  aa  146 040 162 143
    001123  aa  160 040 157 142
    001124  aa  152 145 143 164
    000246  aa   000571 000024
                                   207  	operation rcp_set,RCP,MODIFY,(modify rcp object atributes)
    000075  aa   160073 000000
    001125  aa  155 157 144 151
    001126  aa  146 171 040 162
    001127  aa  143 160 040 157
    001130  aa  142 152 145 143
    001131  aa  164 040 141 164
    001132  aa  162 151 142 165
    001133  aa  164 145 163 000
    000247  aa   000576 000033
                                   208  	operation rcp_set_access,RCP,MODIFY_ACCESS,(modify rcp object access attributes)
    000076  aa   150074 000000
    001134  aa  155 157 144 151
    001135  aa  146 171 040 162
    001136  aa  143 160 040 157
    001137  aa  142 152 145 143
    001140  aa  164 040 141 143
    001141  aa  143 145 163 163
    001142  aa  040 141 164 164
    001143  aa  162 151 142 165
    001144  aa  164 145 163 000
    000250  aa   000605 000043
                                   209  	operation rcp_clear,RCP,MODIFY,(manual clear rcp object contents)
    000077  aa   160075 000000
    001145  aa  155 141 156 165
    001146  aa  141 154 040 143
    001147  aa  154 145 141 162
    001150  aa  040 162 143 160
    001151  aa  040 157 142 152
    001152  aa  145 143 164 040
    001153  aa  143 157 156 164
    001154  aa  145 156 164 163
    000251  aa   000616 000040
                                   210  	operation rcp_add_device,RCP,MODIFY,(creation of rcp object)
    000100  aa   160076 000000
    001155  aa  143 162 145 141
    001156  aa  164 151 157 156
    001157  aa  040 157 146 040
    001160  aa  162 143 160 040
    001161  aa  157 142 152 145
    001162  aa  143 164 000 000
    000252  aa   000626 000026
                                   211  	operation rcp_delete_device,RCP,MODIFY,(deletion of rcp object)
    000101  aa   160077 000000
    001163  aa  144 145 154 145
    001164  aa  164 151 157 156
    001165  aa  040 157 146 040
    001166  aa  162 143 160 040
    001167  aa  157 142 152 145
    001170  aa  143 164 000 000
    000253  aa   000634 000026
                                   212  	operation rcp_copy_registry,RCP,MODIFY,(creation of rcp registry)
    000102  aa   160100 000000
    001171  aa  143 162 145 141
    001172  aa  164 151 157 156
    001173  aa  040 157 146 040
    001174  aa  162 143 160 040
    001175  aa  162 145 147 151
    001176  aa  163 164 162 171
    000254  aa   000642 000030
                                   213  	operation rcp_delete_registry,RCP,MODIFY,(deletion of registry)
    000103  aa   160101 000000
    001177  aa  144 145 154 145
    001200  aa  164 151 157 156
    001201  aa  040 157 146 040
    001202  aa  162 145 147 151
    001203  aa  163 164 162 171
    000255  aa   000650 000024
                                   214  	operation rcp_reconstruct_registry,RCP,MODIFY,(reconstruction of rcp registry)
    000104  aa   160102 000000
    001204  aa  162 145 143 157
    001205  aa  156 163 164 162
    001206  aa  165 143 164 151
    001207  aa  157 156 040 157
    001210  aa  146 040 162 143
    001211  aa  160 040 162 145
    001212  aa  147 151 163 164
    001213  aa  162 171 000 000
    000256  aa   000655 000036
                                   215  	operation rcp_update_registry_header,RCP,MODIFY,(modification of rcp registry)
    000105  aa   160103 000000
    001214  aa  155 157 144 151
    001215  aa  146 151 143 141
    001216  aa  164 151 157 156
    001217  aa  040 157 146 040
    001220  aa  162 143 160 040
    001221  aa  162 145 147 151
    001222  aa  163 164 162 171
    000257  aa   000665 000034
                                   216  	operation rcp_copy_info,RCP,READ,(copy rcp meters or rcp data)
    000106  aa   170104 000000
    001223  aa  143 157 160 171
    001224  aa  040 162 143 160
    001225  aa  040 155 145 164
    001226  aa  145 162 163 040
    001227  aa  157 162 040 162
    001230  aa  143 160 040 144
    001231  aa  141 164 141 000
    000260  aa   000674 000033
                                   217  	operation rcp_error_count,RCP,READ,(read the rcp error count)
    000107  aa   170105 000000
    001232  aa  162 145 141 144
    001233  aa  040 164 150 145
    001234  aa  040 162 143 160
    001235  aa  040 145 162 162
    001236  aa  157 162 040 143
    001237  aa  157 165 156 164
    000261  aa   000703 000030
                                   218  	operation rcp_account,RCP,READ,(read rcp accounting info)
    000110  aa   170106 000000
    001240  aa  162 145 141 144
    001241  aa  040 162 143 160
    001242  aa  040 141 143 143
    001243  aa  157 165 156 164
    001244  aa  151 156 147 040
    001245  aa  151 156 146 157
    000262  aa   000711 000030
                                   219  	operation	mseg_create,OTHER,MODIFY,(creating a message segment)
    000111  aa   320107 000000
    001246  aa  143 162 145 141
    001247  aa  164 151 156 147
    001250  aa  040 141 040 155
    001251  aa  145 163 163 141
    001252  aa  147 145 040 163
    001253  aa  145 147 155 145
    001254  aa  156 164 000 000
    000263  aa   000717 000032
                                   220  	operation	mseg_delete,OTHER,MODIFY,(deleting a message segment)
    000112  aa   320110 000000
    001255  aa  144 145 154 145
    001256  aa  164 151 156 147
    001257  aa  040 141 040 155
    001260  aa  145 163 163 141
    001261  aa  147 145 040 163
    001262  aa  145 147 155 145
    001263  aa  156 164 000 000
    000264  aa   000726 000032
                                   221  	operation	mseg_open,OTHER,READ,(opening a message segment)
    000113  aa   330111 000000
    001264  aa  157 160 145 156
    001265  aa  151 156 147 040
    001266  aa  141 040 155 145
    001267  aa  163 163 141 147
    001270  aa  145 040 163 145
    001271  aa  147 155 145 156
    001272  aa  164 000 000 000
    000265  aa   000735 000031
                                   222  	operation	mseg_close,OTHER,READ,(closing a message segment)
    000114  aa   330112 000000
    001273  aa  143 154 157 163
    001274  aa  151 156 147 040
    001275  aa  141 040 155 145
    001276  aa  163 163 141 147
    001277  aa  145 040 163 145
    001300  aa  147 155 145 156
    001301  aa  164 000 000 000
    000266  aa   000744 000031
                                   223  	operation	mseg_attr_read,OTHER,READ,(reading message segment attributes)
    000115  aa   330113 000000
    001302  aa  162 145 141 144
    001303  aa  151 156 147 040
    001304  aa  155 145 163 163
    001305  aa  141 147 145 040
    001306  aa  163 145 147 155
    001307  aa  145 156 164 040
    001310  aa  141 164 164 162
    001311  aa  151 142 165 164
    001312  aa  145 163 000 000
    000267  aa   000753 000042
                                   224  	operation	mseg_attr_mod,OTHER,MODIFY,(modifying message segment attributes)
    000116  aa   320114 000000
    001313  aa  155 157 144 151
    001314  aa  146 171 151 156
    001315  aa  147 040 155 145
    001316  aa  163 163 141 147
    001317  aa  145 040 163 145
    001320  aa  147 155 145 156
    001321  aa  164 040 141 164
    001322  aa  164 162 151 142
    001323  aa  165 164 145 163
    000270  aa   000764 000044
                                   225  	operation	mseg_access_read,OTHER,READ,(reading message segment access information)
    000117  aa   330115 000000
    001324  aa  162 145 141 144
    001325  aa  151 156 147 040
    001326  aa  155 145 163 163
    001327  aa  141 147 145 040
    001330  aa  163 145 147 155
    001331  aa  145 156 164 040
    001332  aa  141 143 143 145
    001333  aa  163 163 040 151
    001334  aa  156 146 157 162
    001335  aa  155 141 164 151
    001336  aa  157 156 000 000
    000271  aa   000775 000052
                                   226  	operation	mseg_access_mod,OTHER,MODIFY_ACCESS,(modifying message segment access information)
    000120  aa   310116 000000
    001337  aa  155 157 144 151
    001340  aa  146 171 151 156
    001341  aa  147 040 155 145
    001342  aa  163 163 141 147
    001343  aa  145 040 163 145
    001344  aa  147 155 145 156
    001345  aa  164 040 141 143
    001346  aa  143 145 163 163
    001347  aa  040 151 156 146
    001350  aa  157 162 155 141
    001351  aa  164 151 157 156
    000272  aa   001010 000054
                                   227  	operation	mseg_compact,OTHER,MODIFY,(compacting a message segment)
    000121  aa   320117 000000
    001352  aa  143 157 155 160
    001353  aa  141 143 164 151
    001354  aa  156 147 040 141
    001355  aa  040 155 145 163
    001356  aa  163 141 147 145
    001357  aa  040 163 145 147
    001360  aa  155 145 156 164
    000273  aa   001023 000034
                                   228  	operation	mseg_get_count,OTHER,READ,(counting messages in a message segment)
    000122  aa   330120 000000
    001361  aa  143 157 165 156
    001362  aa  164 151 156 147
    001363  aa  040 155 145 163
    001364  aa  163 141 147 145
    001365  aa  163 040 151 156
    001366  aa  040 141 040 155
    001367  aa  145 163 163 141
    001370  aa  147 145 040 163
    001371  aa  145 147 155 145
    001372  aa  156 164 000 000
    000274  aa   001032 000046
                                   229  	operation	mseg_read_message,OTHER,READ,(reading a message in a message segment)
    000123  aa   330121 000000
    001373  aa  162 145 141 144
    001374  aa  151 156 147 040
    001375  aa  141 040 155 145
    001376  aa  163 163 141 147
    001377  aa  145 040 151 156
    001400  aa  040 141 040 155
    001401  aa  145 163 163 141
    001402  aa  147 145 040 163
    001403  aa  145 147 155 145
    001404  aa  156 164 000 000
    000275  aa   001044 000046
                                   230  	operation	mseg_delete_message,OTHER,MODIFY,(deleting a message from a message segment)
    000124  aa   320122 000000
    001405  aa  144 145 154 145
    001406  aa  164 151 156 147
    001407  aa  040 141 040 155
    001410  aa  145 163 163 141
    001411  aa  147 145 040 146
    001412  aa  162 157 155 040
    001413  aa  141 040 155 145
    001414  aa  163 163 141 147
    001415  aa  145 040 163 145
    001416  aa  147 155 145 156
    001417  aa  164 000 000 000
    000276  aa   001056 000051
                                   231  	operation	mseg_read_delete_message,OTHER,MODIFY,(reading and deleting a message from a message segment)
    000125  aa   320123 000000
    001420  aa  162 145 141 144
    001421  aa  151 156 147 040
    001422  aa  141 156 144 040
    001423  aa  144 145 154 145
    001424  aa  164 151 156 147
    001425  aa  040 141 040 155
    001426  aa  145 163 163 141
    001427  aa  147 145 040 146
    001430  aa  162 157 155 040
    001431  aa  141 040 155 145
    001432  aa  163 163 141 147
    001433  aa  145 040 163 145
    001434  aa  147 155 145 156
    001435  aa  164 000 000 000
    000277  aa   001071 000065
                                   232  	operation	mseg_update_message,OTHER,MODIFY,(updating a message in a message segment)
    000126  aa   320124 000000
    001436  aa  165 160 144 141
    001437  aa  164 151 156 147
    001440  aa  040 141 040 155
    001441  aa  145 163 163 141
    001442  aa  147 145 040 151
    001443  aa  156 040 141 040
    001444  aa  155 145 163 163
    001445  aa  141 147 145 040
    001446  aa  163 145 147 155
    001447  aa  145 156 164 000
    000300  aa   001107 000047
                                   233  	operation	mseg_accept_wakeups,OTHER,MODIFY_ACCESS,(accepting wakeups over a message segment)
    000127  aa   310125 000000
    001450  aa  141 143 143 145
    001451  aa  160 164 151 156
    001452  aa  147 040 167 141
    001453  aa  153 145 165 160
    001454  aa  163 040 157 166
    001455  aa  145 162 040 141
    001456  aa  040 155 145 163
    001457  aa  163 141 147 145
    001460  aa  040 163 145 147
    001461  aa  155 145 156 164
    000301  aa   001121 000050
                                   234  	operation	mseg_wakeup_send,OTHER,MODIFY,(sending a wakeup over a message segment)
    000130  aa   320126 000000
    001462  aa  163 145 156 144
    001463  aa  151 156 147 040
    001464  aa  141 040 167 141
    001465  aa  153 145 165 160
    001466  aa  040 157 166 145
    001467  aa  162 040 141 040
    001470  aa  155 145 163 163
    001471  aa  141 147 145 040
    001472  aa  163 145 147 155
    001473  aa  145 156 164 000
    000302  aa   001133 000047
                                   235  	operation io_daemon_set_page_labels,FS_OBJ_ATTR,MODIFY_ACCESS,(modification of printed access labels)
    000131  aa   110127 000000
    001474  aa  155 157 144 151
    001475  aa  146 151 143 141
    001476  aa  164 151 157 156
    001477  aa  040 157 146 040
    001500  aa  160 162 151 156
    001501  aa  164 145 144 040
    001502  aa  141 143 143 145
    001503  aa  163 163 040 154
    001504  aa  141 142 145 154
    001505  aa  163 000 000 000
    000303  aa   001145 000045
                                   236  	operation rcp_list,RCP,READ,(listing of rcp resources)
    000132  aa   170130 000000
    001506  aa  154 151 163 164
    001507  aa  151 156 147 040
    001510  aa  157 146 040 162
    001511  aa  143 160 040 162
    001512  aa  145 163 157 165
    001513  aa  162 143 145 163
    000304  aa   001157 000030
                                   237  	operation attach_lv,SPECIAL,MODIFY_ACCESS,(attachment of logical volume)
    000133  aa   250131 000000
    001514  aa  141 164 164 141
    001515  aa  143 150 155 145
    001516  aa  156 164 040 157
    001517  aa  146 040 154 157
    001520  aa  147 151 143 141
    001521  aa  154 040 166 157
    001522  aa  154 165 155 145
    000305  aa   001165 000034
                                   238  	operation detach_lv,SPECIAL,MODIFY_ACCESS,(detachment of logical volume)
    000134  aa   250132 000000
    001523  aa  144 145 164 141
    001524  aa  143 150 155 145
    001525  aa  156 164 040 157
    001526  aa  146 040 154 157
    001527  aa  147 151 143 141
    001530  aa  154 040 166 157
    001531  aa  154 165 155 145
    000306  aa   001174 000034
                                   239  	operation dm_journal_allocate,OTHER,MODIFY_ACCESS,(allocation of DM journal)
    000135  aa   310133 000000
    001532  aa  141 154 154 157
    001533  aa  143 141 164 151
    001534  aa  157 156 040 157
    001535  aa  146 040 104 115
    001536  aa  040 152 157 165
    001537  aa  162 156 141 154
    000307  aa   001203 000030
                                   240  	operation dm_journal_free,OTHER,MODIFY_ACCESS,(freeing of DM journal)
    000136  aa   310134 000000
    001540  aa  146 162 145 145
    001541  aa  151 156 147 040
    001542  aa  157 146 040 104
    001543  aa  115 040 152 157
    001544  aa  165 162 156 141
    001545  aa  154 000 000 000
    000310  aa   001211 000025
                                   241  	operation dm_journal_read_attr,OTHER,READ,(reading of DM journal attributes)
    000137  aa   330135 000000
    001546  aa  162 145 141 144
    001547  aa  151 156 147 040
    001550  aa  157 146 040 104
    001551  aa  115 040 152 157
    001552  aa  165 162 156 141
    001553  aa  154 040 141 164
    001554  aa  164 162 151 142
    001555  aa  165 164 145 163
    000311  aa   001217 000040
                                   242  	operation dm_journal_write_attr,OTHER,MODIFY,(writing of DM journal attributes)
    000140  aa   320136 000000
    001556  aa  167 162 151 164
    001557  aa  151 156 147 040
    001560  aa  157 146 040 104
    001561  aa  115 040 152 157
    001562  aa  165 162 156 141
    001563  aa  154 040 141 164
    001564  aa  164 162 151 142
    001565  aa  165 164 145 163
    000312  aa   001227 000040
                                   243  	operation install_table,SPECIAL,MODIFY,(installation of a system table)
    000141  aa   260137 000000
    001566  aa  151 156 163 164
    001567  aa  141 154 154 141
    001570  aa  164 151 157 156
    001571  aa  040 157 146 040
    001572  aa  141 040 163 171
    001573  aa  163 164 145 155
    001574  aa  040 164 141 142
    001575  aa  154 145 000 000
    000313  aa   001237 000036
                                   244  	operation lock_mca,OTHER,MODIFY_ACCESS,(lock of MCAs)
    000142  aa   310140 000000
    001576  aa  154 157 143 153
    001577  aa  040 157 146 040
    001600  aa  115 103 101 163
    000314  aa   001247 000014
                                   245  	operation unlock_mca,OTHER,MODIFY_ACCESS,(unlock of MCA)
    000143  aa   310141 000000
    001601  aa  165 156 154 157
    001602  aa  143 153 040 157
    001603  aa  146 040 115 103
    001604  aa  101 000 000 000
    000315  aa   001252 000015
                                   246  	operation invalid_mca,OTHER,READ,(invalid online MCA request)
    000144  aa   330142 000000
    001605  aa  151 156 166 141
    001606  aa  154 151 144 040
    001607  aa  157 156 154 151
    001610  aa  156 145 040 115
    001611  aa  103 101 040 162
    001612  aa  145 161 165 145
    001613  aa  163 164 000 000
    000316  aa   001256 000032
                                   247  	operation abs_command_cancel,OTHER,MODIFY,(cancellation of absentee job)
    000145  aa   320143 000000
    001614  aa  143 141 156 143
    001615  aa  145 154 154 141
    001616  aa  164 151 157 156
    001617  aa  040 157 146 040
    001620  aa  141 142 163 145
    001621  aa  156 164 145 145
    001622  aa  040 152 157 142
    000317  aa   001265 000034
                                   248  	operation abs_command_login,OTHER,MODIFY,(request of login of absentee job)
    000146  aa   320144 000000
    001623  aa  162 145 161 165
    001624  aa  145 163 164 040
    001625  aa  157 146 040 154
    001626  aa  157 147 151 156
    001627  aa  040 157 146 040
    001630  aa  141 142 163 145
    001631  aa  156 164 145 145
    001632  aa  040 152 157 142
    000320  aa   001274 000040
                                   249  	operation dialin,SPECIAL,MODIFY,(dial channel into process)
    000147  aa   260145 000000
    001633  aa  144 151 141 154
    001634  aa  040 143 150 141
    001635  aa  156 156 145 154
    001636  aa  040 151 156 164
    001637  aa  157 040 160 162
    001640  aa  157 143 145 163
    001641  aa  163 000 000 000
    000321  aa   001304 000031
                                   250  	operation dialout,SPECIAL,MODIFY,(dial out from process through channel)
    000150  aa   260146 000000
    001642  aa  144 151 141 154
    001643  aa  040 157 165 164
    001644  aa  040 146 162 157
    001645  aa  155 040 160 162
    001646  aa  157 143 145 163
    001647  aa  163 040 164 150
    001650  aa  162 157 165 147
    001651  aa  150 040 143 150
    001652  aa  141 156 156 145
    001653  aa  154 000 000 000
    000322  aa   001313 000045
                                   251  	operation dial_system,SPECIAL,MODIFY,(dial channel into Initializer message coordinator)
    000151  aa   260147 000000
    001654  aa  144 151 141 154
    001655  aa  040 143 150 141
    001656  aa  156 156 145 154
    001657  aa  040 151 156 164
    001660  aa  157 040 111 156
    001661  aa  151 164 151 141
    001662  aa  154 151 172 145
    001663  aa  162 040 155 145
    001664  aa  163 163 141 147
    001665  aa  145 040 143 157
    001666  aa  157 162 144 151
    001667  aa  156 141 164 157
    001670  aa  162 000 000 000
    000323  aa   001325 000061
                                   252  	operation process_terminate,SPECIAL,UNKNOWN,(terminating process)
    000152  aa   240150 000000
    001671  aa  164 145 162 155
    001672  aa  151 156 141 164
    001673  aa  151 156 147 040
    001674  aa  160 162 157 143
    001675  aa  145 163 163 000
    000324  aa   001342 000023
                                   253  	operation set_procs_required,OTHER,MODIFY,(set processors required)
    000153  aa   320151 000000
    001676  aa  163 145 164 040
    001677  aa  160 162 157 143
    001700  aa  145 163 163 157
    001701  aa  162 163 040 162
    001702  aa  145 161 165 151
    001703  aa  162 145 144 000
    000325  aa   001347 000027
                                   254  	operation get_procs_required,OTHER,READ,(get processors required)
    000154  aa   330152 000000
    001704  aa  147 145 164 040
    001705  aa  160 162 157 143
    001706  aa  145 163 163 157
    001707  aa  162 163 040 162
    001710  aa  145 161 165 151
    001711  aa  162 145 144 000
    000326  aa   001355 000027
                                   255  "
                                   256  	use	.text
    000000                         257  version:
    000000  aa  141 143 143 137    258  	aci	"acc_op_1",8
    000001  aa  157 160 137 061
    000002                         259  num_codes:
    000002  aa   000000 000152     260  	zero	0,code_count
                                   261
                                   262  	join	/text/codes,text_table,text
                                   263  	end

NO LITERALS

NAME DEFINITIONS FOR ENTRY POINTS AND SEGDEFS

    001712  5a   000003 000000
    001713  5a   001467 600000
    001714  aa   000000 000000
    001715  55   000013 000002
    001716  5a   000002 400003
    001717  55   000006 000013
    001720  aa  022 141 143 143
    001721  aa  145 163 163 137
    001722  aa  157 160 145 162
    001723  aa  141 164 151 157
    001724  aa  156 163 137 000
    001725  55   000023 000003
    001726  0a   000154 400000
    001727  55   000016 000003
    001730  aa  022 147 145 164         get_procs_required
    001731  aa  137 160 162 157
    001732  aa  143 163 137 162
    001733  aa  145 161 165 151
    001734  aa  162 145 144 000
    001735  55   000033 000013
    001736  0a   000153 400000
    001737  55   000026 000003
    001740  aa  022 163 145 164         set_procs_required
    001741  aa  137 160 162 157
    001742  aa  143 163 137 162
    001743  aa  145 161 165 151
    001744  aa  162 145 144 000
    001745  55   000043 000023
    001746  0a   000152 400000
    001747  55   000036 000003
    001750  aa  021 160 162 157         process_terminate
    001751  aa  143 145 163 163
    001752  aa  137 164 145 162
    001753  aa  155 151 156 141
    001754  aa  164 145 000 000
    001755  55   000051 000033
    001756  0a   000151 400000
    001757  55   000046 000003
    001760  aa  013 144 151 141         dial_system
    001761  aa  154 137 163 171
    001762  aa  163 164 145 155
    001763  55   000056 000043
    001764  0a   000150 400000
    001765  55   000054 000003
    001766  aa  007 144 151 141         dialout
    001767  aa  154 157 165 164
    001770  55   000063 000051
    001771  0a   000147 400000
    001772  55   000061 000003
    001773  aa  006 144 151 141         dialin
    001774  aa  154 151 156 000
    001775  55   000073 000056
    001776  0a   000146 400000
    001777  55   000066 000003
    002000  aa  021 141 142 163         abs_command_login
    002001  aa  137 143 157 155
    002002  aa  155 141 156 144
    002003  aa  137 154 157 147
    002004  aa  151 156 000 000
    002005  55   000103 000063
    002006  0a   000145 400000
    002007  55   000076 000003
    002010  aa  022 141 142 163         abs_command_cancel
    002011  aa  137 143 157 155
    002012  aa  155 141 156 144
    002013  aa  137 143 141 156
    002014  aa  143 145 154 000
    002015  55   000111 000073
    002016  0a   000144 400000
    002017  55   000106 000003
    002020  aa  013 151 156 166         invalid_mca
    002021  aa  141 154 151 144
    002022  aa  137 155 143 141
    002023  55   000117 000103
    002024  0a   000143 400000
    002025  55   000114 000003
    002026  aa  012 165 156 154         unlock_mca
    002027  aa  157 143 153 137
    002030  aa  155 143 141 000
    002031  55   000125 000111
    002032  0a   000142 400000
    002033  55   000122 000003
    002034  aa  010 154 157 143         lock_mca
    002035  aa  153 137 155 143
    002036  aa  141 000 000 000
    002037  55   000134 000117
    002040  0a   000141 400000
    002041  55   000130 000003
    002042  aa  015 151 156 163         install_table
    002043  aa  164 141 154 154
    002044  aa  137 164 141 142
    002045  aa  154 145 000 000
    002046  55   000145 000125
    002047  0a   000140 400000
    002050  55   000137 000003
    002051  aa  025 144 155 137         dm_journal_write_attr
    002052  aa  152 157 165 162
    002053  aa  156 141 154 137
    002054  aa  167 162 151 164
    002055  aa  145 137 141 164
    002056  aa  164 162 000 000
    002057  55   000156 000134
    002060  0a   000137 400000
    002061  55   000150 000003
    002062  aa  024 144 155 137         dm_journal_read_attr
    002063  aa  152 157 165 162
    002064  aa  156 141 154 137
    002065  aa  162 145 141 144
    002066  aa  137 141 164 164
    002067  aa  162 000 000 000
    002070  55   000165 000145
    002071  0a   000136 400000
    002072  55   000161 000003
    002073  aa  017 144 155 137         dm_journal_free
    002074  aa  152 157 165 162
    002075  aa  156 141 154 137
    002076  aa  146 162 145 145
    002077  55   000175 000156
    002100  0a   000135 400000
    002101  55   000170 000003
    002102  aa  023 144 155 137         dm_journal_allocate
    002103  aa  152 157 165 162
    002104  aa  156 141 154 137
    002105  aa  141 154 154 157
    002106  aa  143 141 164 145
    002107  55   000203 000165
    002110  0a   000134 400000
    002111  55   000200 000003
    002112  aa  011 144 145 164         detach_lv
    002113  aa  141 143 150 137
    002114  aa  154 166 000 000
    002115  55   000211 000175
    002116  0a   000133 400000
    002117  55   000206 000003
    002120  aa  011 141 164 164         attach_lv
    002121  aa  141 143 150 137
    002122  aa  154 166 000 000
    002123  55   000217 000203
    002124  0a   000132 400000
    002125  55   000214 000003
    002126  aa  010 162 143 160         rcp_list
    002127  aa  137 154 151 163
    002130  aa  164 000 000 000
    002131  55   000231 000211
    002132  0a   000131 400000
    002133  55   000222 000003
    002134  aa  031 151 157 137         io_daemon_set_page_labels
    002135  aa  144 141 145 155
    002136  aa  157 156 137 163
    002137  aa  145 164 137 160
    002140  aa  141 147 145 137
    002141  aa  154 141 142 145
    002142  aa  154 163 000 000
    002143  55   000241 000217
    002144  0a   000130 400000
    002145  55   000234 000003
    002146  aa  020 155 163 145         mseg_wakeup_send
    002147  aa  147 137 167 141
    002150  aa  153 145 165 160
    002151  aa  137 163 145 156
    002152  aa  144 000 000 000
    002153  55   000251 000231
    002154  0a   000127 400000
    002155  55   000244 000003
    002156  aa  023 155 163 145         mseg_accept_wakeups
    002157  aa  147 137 141 143
    002160  aa  143 145 160 164
    002161  aa  137 167 141 153
    002162  aa  145 165 160 163
    002163  55   000261 000241
    002164  0a   000126 400000
    002165  55   000254 000003
    002166  aa  023 155 163 145         mseg_update_message
    002167  aa  147 137 165 160
    002170  aa  144 141 164 145
    002171  aa  137 155 145 163
    002172  aa  163 141 147 145
    002173  55   000273 000251
    002174  0a   000125 400000
    002175  55   000264 000003
    002176  aa  030 155 163 145         mseg_read_delete_message
    002177  aa  147 137 162 145
    002200  aa  141 144 137 144
    002201  aa  145 154 145 164
    002202  aa  145 137 155 145
    002203  aa  163 163 141 147
    002204  aa  145 000 000 000
    002205  55   000303 000261
    002206  0a   000124 400000
    002207  55   000276 000003
    002210  aa  023 155 163 145         mseg_delete_message
    002211  aa  147 137 144 145
    002212  aa  154 145 164 145
    002213  aa  137 155 145 163
    002214  aa  163 141 147 145
    002215  55   000313 000273
    002216  0a   000123 400000
    002217  55   000306 000003
    002220  aa  021 155 163 145         mseg_read_message
    002221  aa  147 137 162 145
    002222  aa  141 144 137 155
    002223  aa  145 163 163 141
    002224  aa  147 145 000 000
    002225  55   000322 000303
    002226  0a   000122 400000
    002227  55   000316 000003
    002230  aa  016 155 163 145         mseg_get_count
    002231  aa  147 137 147 145
    002232  aa  164 137 143 157
    002233  aa  165 156 164 000
    002234  55   000331 000313
    002235  0a   000121 400000
    002236  55   000325 000003
    002237  aa  014 155 163 145         mseg_compact
    002240  aa  147 137 143 157
    002241  aa  155 160 141 143
    002242  aa  164 000 000 000
    002243  55   000340 000322
    002244  0a   000120 400000
    002245  55   000334 000003
    002246  aa  017 155 163 145         mseg_access_mod
    002247  aa  147 137 141 143
    002250  aa  143 145 163 163
    002251  aa  137 155 157 144
    002252  55   000350 000331
    002253  0a   000117 400000
    002254  55   000343 000003
    002255  aa  020 155 163 145         mseg_access_read
    002256  aa  147 137 141 143
    002257  aa  143 145 163 163
    002260  aa  137 162 145 141
    002261  aa  144 000 000 000
    002262  55   000357 000340
    002263  0a   000116 400000
    002264  55   000353 000003
    002265  aa  015 155 163 145         mseg_attr_mod
    002266  aa  147 137 141 164
    002267  aa  164 162 137 155
    002270  aa  157 144 000 000
    002271  55   000366 000350
    002272  0a   000115 400000
    002273  55   000362 000003
    002274  aa  016 155 163 145         mseg_attr_read
    002275  aa  147 137 141 164
    002276  aa  164 162 137 162
    002277  aa  145 141 144 000
    002300  55   000374 000357
    002301  0a   000114 400000
    002302  55   000371 000003
    002303  aa  012 155 163 145         mseg_close
    002304  aa  147 137 143 154
    002305  aa  157 163 145 000
    002306  55   000402 000366
    002307  0a   000113 400000
    002310  55   000377 000003
    002311  aa  011 155 163 145         mseg_open
    002312  aa  147 137 157 160
    002313  aa  145 156 000 000
    002314  55   000410 000374
    002315  0a   000112 400000
    002316  55   000405 000003
    002317  aa  013 155 163 145         mseg_delete
    002320  aa  147 137 144 145
    002321  aa  154 145 164 145
    002322  55   000416 000402
    002323  0a   000111 400000
    002324  55   000413 000003
    002325  aa  013 155 163 145         mseg_create
    002326  aa  147 137 143 162
    002327  aa  145 141 164 145
    002330  55   000424 000410
    002331  0a   000110 400000
    002332  55   000421 000003
    002333  aa  013 162 143 160         rcp_account
    002334  aa  137 141 143 143
    002335  aa  157 165 156 164
    002336  55   000433 000416
    002337  0a   000107 400000
    002340  55   000427 000003
    002341  aa  017 162 143 160         rcp_error_count
    002342  aa  137 145 162 162
    002343  aa  157 162 137 143
    002344  aa  157 165 156 164
    002345  55   000442 000424
    002346  0a   000106 400000
    002347  55   000436 000003
    002350  aa  015 162 143 160         rcp_copy_info
    002351  aa  137 143 157 160
    002352  aa  171 137 151 156
    002353  aa  146 157 000 000
    002354  55   000454 000433
    002355  0a   000105 400000
    002356  55   000445 000003
    002357  aa  032 162 143 160         rcp_update_registry_header
    002360  aa  137 165 160 144
    002361  aa  141 164 145 137
    002362  aa  162 145 147 151
    002363  aa  163 164 162 171
    002364  aa  137 150 145 141
    002365  aa  144 145 162 000
    002366  55   000466 000442
    002367  0a   000104 400000
    002370  55   000457 000003
    002371  aa  030 162 143 160         rcp_reconstruct_registry
    002372  aa  137 162 145 143
    002373  aa  157 156 163 164
    002374  aa  162 165 143 164
    002375  aa  137 162 145 147
    002376  aa  151 163 164 162
    002377  aa  171 000 000 000
    002400  55   000476 000454
    002401  0a   000103 400000
    002402  55   000471 000003
    002403  aa  023 162 143 160         rcp_delete_registry
    002404  aa  137 144 145 154
    002405  aa  145 164 145 137
    002406  aa  162 145 147 151
    002407  aa  163 164 162 171
    002410  55   000506 000466
    002411  0a   000102 400000
    002412  55   000501 000003
    002413  aa  021 162 143 160         rcp_copy_registry
    002414  aa  137 143 157 160
    002415  aa  171 137 162 145
    002416  aa  147 151 163 164
    002417  aa  162 171 000 000
    002420  55   000516 000476
    002421  0a   000101 400000
    002422  55   000511 000003
    002423  aa  021 162 143 160         rcp_delete_device
    002424  aa  137 144 145 154
    002425  aa  145 164 145 137
    002426  aa  144 145 166 151
    002427  aa  143 145 000 000
    002430  55   000525 000506
    002431  0a   000100 400000
    002432  55   000521 000003
    002433  aa  016 162 143 160         rcp_add_device
    002434  aa  137 141 144 144
    002435  aa  137 144 145 166
    002436  aa  151 143 145 000
    002437  55   000533 000516
    002440  0a   000077 400000
    002441  55   000530 000003
    002442  aa  011 162 143 160         rcp_clear
    002443  aa  137 143 154 145
    002444  aa  141 162 000 000
    002445  55   000542 000525
    002446  0a   000076 400000
    002447  55   000536 000003
    002450  aa  016 162 143 160         rcp_set_access
    002451  aa  137 163 145 164
    002452  aa  137 141 143 143
    002453  aa  145 163 163 000
    002454  55   000547 000533
    002455  0a   000075 400000
    002456  55   000545 000003
    002457  aa  007 162 143 160         rcp_set
    002460  aa  137 163 145 164
    002461  55   000555 000542
    002462  0a   000074 400000
    002463  55   000552 000003
    002464  aa  012 162 143 160         rcp_status
    002465  aa  137 163 164 141
    002466  aa  164 165 163 000
    002467  55   000564 000547
    002470  0a   000073 400000
    002471  55   000560 000003
    002472  aa  014 162 143 160         rcp_unassign
    002473  aa  137 165 156 141
    002474  aa  163 163 151 147
    002475  aa  156 000 000 000
    002476  55   000574 000555
    002477  0a   000072 400000
    002500  55   000567 000003
    002501  aa  020 162 143 160         rcp_assign_write
    002502  aa  137 141 163 163
    002503  aa  151 147 156 137
    002504  aa  167 162 151 164
    002505  aa  145 000 000 000
    002506  55   000603 000564
    002507  0a   000071 400000
    002510  55   000577 000003
    002511  aa  017 162 143 160         rcp_assign_read
    002512  aa  137 141 163 163
    002513  aa  151 147 156 137
    002514  aa  162 145 141 144
    002515  55   000611 000574
    002516  0a   000070 400000
    002517  55   000606 000003
    002520  aa  012 162 143 160         rcp_unload
    002521  aa  137 165 156 154
    002522  aa  157 141 144 000
    002523  55   000617 000603
    002524  0a   000067 400000
    002525  55   000614 000003
    002526  aa  013 162 143 160         rcp_preload
    002527  aa  137 160 162 145
    002530  aa  154 157 141 144
    002531  55   000625 000611
    002532  0a   000066 400000
    002533  55   000622 000003
    002534  aa  012 162 143 160         rcp_cancel
    002535  aa  137 143 141 156
    002536  aa  143 145 154 000
    002537  55   000633 000617
    002540  0a   000065 400000
    002541  55   000630 000003
    002542  aa  013 162 143 160         rcp_reserve
    002543  aa  137 162 145 163
    002544  aa  145 162 166 145
    002545  55   000641 000625
    002546  0a   000064 400000
    002547  55   000636 000003
    002550  aa  013 162 143 160         rcp_release
    002551  aa  137 162 145 154
    002552  aa  145 141 163 145
    002553  55   000647 000633
    002554  0a   000063 400000
    002555  55   000644 000003
    002556  aa  013 162 143 160         rcp_acquire
    002557  aa  137 141 143 161
    002560  aa  165 151 162 145
    002561  55   000660 000641
    002562  0a   000062 400000
    002563  55   000652 000003
    002564  aa  024 162 143 160         rcp_register_acquire
    002565  aa  137 162 145 147
    002566  aa  151 163 164 145
    002567  aa  162 137 141 143
    002570  aa  161 165 151 162
    002571  aa  145 000 000 000
    002572  55   000667 000647
    002573  0a   000061 400000
    002574  55   000663 000003
    002575  aa  016 162 143 160         rcp_deregister
    002576  aa  137 144 145 162
    002577  aa  145 147 151 163
    002600  aa  164 145 162 000
    002601  55   000676 000660
    002602  0a   000060 400000
    002603  55   000672 000003
    002604  aa  014 162 143 160         rcp_register
    002605  aa  137 162 145 147
    002606  aa  151 163 164 145
    002607  aa  162 000 000 000
    002610  55   000707 000667
    002611  0a   000057 400000
    002612  55   000701 000003
    002613  aa  024 160 156 164         pnt_entry_login_read
    002614  aa  137 145 156 164
    002615  aa  162 171 137 154
    002616  aa  157 147 151 156
    002617  aa  137 162 145 141
    002620  aa  144 000 000 000
    002621  55   000720 000676
    002622  0a   000056 400000
    002623  55   000712 000003
    002624  aa  026 160 156 164         pnt_entry_network_read
    002625  aa  137 145 156 164
    002626  aa  162 171 137 156
    002627  aa  145 164 167 157
    002630  aa  162 153 137 162
    002631  aa  145 141 144 000
    002632  55   000730 000707
    002633  0a   000055 400000
    002634  55   000723 000003
    002635  aa  023 160 156 164         pnt_entry_priv_read
    002636  aa  137 145 156 164
    002637  aa  162 171 137 160
    002640  aa  162 151 166 137
    002641  aa  162 145 141 144
    002642  55   000741 000720
    002643  0a   000054 400000
    002644  55   000733 000003
    002645  aa  024 160 156 164         pnt_entry_admin_read
    002646  aa  137 145 156 164
    002647  aa  162 171 137 141
    002650  aa  144 155 151 156
    002651  aa  137 162 145 141
    002652  aa  144 000 000 000
    002653  55   000750 000730
    002654  0a   000053 400000
    002655  55   000744 000003
    002656  aa  014 154 157 147         log_vol_full
    002657  aa  137 166 157 154
    002660  aa  137 146 165 154
    002661  aa  154 000 000 000
    002662  55   000756 000741
    002663  0a   000052 400000
    002664  55   000753 000003
    002665  aa  012 151 160 143         ipc_wakeup
    002666  aa  137 167 141 153
    002667  aa  145 165 160 000
    002670  55   000766 000750
    002671  0a   000051 400000
    002672  55   000761 000003
    002673  aa  020 160 156 164         pnt_entry_modify
    002674  aa  137 145 156 164
    002675  aa  162 171 137 155
    002676  aa  157 144 151 146
    002677  aa  171 000 000 000
    002700  55   000776 000756
    002701  0a   000050 400000
    002702  55   000771 000003
    002703  aa  020 160 156 164         pnt_entry_delete
    002704  aa  137 145 156 164
    002705  aa  162 171 137 144
    002706  aa  145 154 145 164
    002707  aa  145 000 000 000
    002710  55   001005 000766
    002711  0a   000047 400000
    002712  55   001001 000003
    002713  aa  015 160 156 164         pnt_entry_add
    002714  aa  137 145 156 164
    002715  aa  162 171 137 141
    002716  aa  144 144 000 000
    002717  55   001013 000776
    002720  0a   000046 400000
    002721  55   001010 000003
    002722  aa  013 144 151 141         dialid_stop
    002723  aa  154 151 144 137
    002724  aa  163 164 157 160
    002725  55   001022 001005
    002726  0a   000045 400000
    002727  55   001016 000003
    002730  aa  014 144 151 141         dialid_start
    002731  aa  154 151 144 137
    002732  aa  163 164 141 162
    002733  aa  164 000 000 000
    002734  55   001031 001013
    002735  0a   000044 400000
    002736  55   001025 000003
    002737  aa  016 143 150 141         channel_detach
    002740  aa  156 156 145 154
    002741  aa  137 144 145 164
    002742  aa  141 143 150 000
    002743  55   001040 001022
    002744  0a   000043 400000
    002745  55   001034 000003
    002746  aa  016 143 150 141         channel_attach
    002747  aa  156 156 145 154
    002750  aa  137 141 164 164
    002751  aa  141 143 150 000
    002752  55   001050 001031
    002753  0a   000042 400000
    002754  55   001043 000003
    002755  aa  022 160 162 157         process_disconnect
    002756  aa  143 145 163 163
    002757  aa  137 144 151 163
    002760  aa  143 157 156 156
    002761  aa  145 143 164 000
    002762  55   001057 001040
    002763  0a   000041 400000
    002764  55   001053 000003
    002765  aa  017 160 162 157         process_connect
    002766  aa  143 145 163 163
    002767  aa  137 143 157 156
    002770  aa  156 145 143 164
    002771  55   001066 001050
    002772  0a   000040 400000
    002773  55   001062 000003
    002774  aa  017 160 162 157         process_destroy
    002775  aa  143 145 163 163
    002776  aa  137 144 145 163
    002777  aa  164 162 157 171
    003000  55   001075 001057
    003001  0a   000037 400000
    003002  55   001071 000003
    003003  aa  016 160 162 157         process_create
    003004  aa  143 145 163 163
    003005  aa  137 143 162 145
    003006  aa  141 164 145 000
    003007  55   001103 001066
    003010  0a   000036 400000
    003011  55   001100 000003
    003012  aa  013 165 163 145         user_logout
    003013  aa  162 137 154 157
    003014  aa  147 157 165 164
    003015  55   001111 001075
    003016  0a   000035 400000
    003017  55   001106 000003
    003020  aa  012 165 163 145         user_login
    003021  aa  162 137 154 157
    003022  aa  147 151 156 000
    003023  55   001122 001103
    003024  0a   000034 400000
    003025  55   001114 000003
    003026  aa  027 145 170 143         excessive_seg_state_chg
    003027  aa  145 163 163 151
    003030  aa  166 145 137 163
    003031  aa  145 147 137 163
    003032  aa  164 141 164 145
    003033  aa  137 143 150 147
    003034  55   001132 001111
    003035  0a   000033 400000
    003036  55   001125 000003
    003037  aa  023 144 141 145         daemon_daemon_login
    003040  aa  155 157 156 137
    003041  aa  144 141 145 155
    003042  aa  157 156 137 154
    003043  aa  157 147 151 156
    003044  55   001141 001122
    003045  0a   000032 400000
    003046  55   001135 000003
    003047  aa  017 144 141 145         daemon_new_proc
    003050  aa  155 157 156 137
    003051  aa  156 145 167 137
    003052  aa  160 162 157 143
    003053  55   001150 001132
    003054  0a   000031 400000
    003055  55   001144 000003
    003056  aa  015 144 141 145         daemon_logout
    003057  aa  155 157 156 137
    003060  aa  154 157 147 157
    003061  aa  165 164 000 000
    003062  55   001157 001141
    003063  0a   000030 400000
    003064  55   001153 000003
    003065  aa  014 144 141 145         daemon_login
    003066  aa  155 157 156 137
    003067  aa  154 157 147 151
    003070  aa  156 000 000 000
    003071  55   001165 001150
    003072  0a   000027 400000
    003073  55   001162 000003
    003074  aa  013 144 141 145         daemon_quit
    003075  aa  155 157 156 137
    003076  aa  161 165 151 164
    003077  55   001174 001157
    003100  0a   000026 400000
    003101  55   001170 000003
    003102  aa  014 144 141 145         daemon_reply
    003103  aa  155 157 156 137
    003104  aa  162 145 160 154
    003105  aa  171 000 000 000
    003106  55   001204 001165
    003107  0a   000025 400000
    003110  55   001177 000003
    003111  aa  020 155 163 145         mseg_add_message
    003112  aa  147 137 141 144
    003113  aa  144 137 155 145
    003114  aa  163 163 141 147
    003115  aa  145 000 000 000
    003116  55   001215 001174
    003117  0a   000024 400000
    003120  55   001207 000003
    003121  aa  027 163 171 163         system_privilege_modify
    003122  aa  164 145 155 137
    003123  aa  160 162 151 166
    003124  aa  151 154 145 147
    003125  aa  145 137 155 157
    003126  aa  144 151 146 171
    003127  55   001225 001204
    003130  0a   000023 400000
    003131  55   001220 000003
    003132  aa  021 146 163 137         fs_obj_reclassify
    003133  aa  157 142 152 137
    003134  aa  162 145 143 154
    003135  aa  141 163 163 151
    003136  aa  146 171 000 000
    003137  55   001234 001215
    003140  0a   000022 400000
    003141  55   001230 000003
    003142  aa  017 146 163 137         fs_obj_set_soos
    003143  aa  157 142 152 137
    003144  aa  163 145 164 137
    003145  aa  163 157 157 163
    003146  55   001246 001225
    003147  0a   000021 400000
    003150  55   001237 000003
    003151  aa  032 160 162 157         process_audit_flags_modify
    003152  aa  143 145 163 163
    003153  aa  137 141 165 144
    003154  aa  151 164 137 146
    003155  aa  154 141 147 163
    003156  aa  137 155 157 144
    003157  aa  151 146 171 000
    003160  55   001260 001234
    003161  0a   000020 400000
    003162  55   001251 000003
    003163  aa  032 163 171 163         system_audit_thresh_modify
    003164  aa  164 145 155 137
    003165  aa  141 165 144 151
    003166  aa  164 137 164 150
    003167  aa  162 145 163 150
    003170  aa  137 155 157 144
    003171  aa  151 146 171 000
    003172  55   001267 001246
    003173  0a   000017 400000
    003174  55   001263 000003
    003175  aa  016 146 141 165         fault_acv_mode
    003176  aa  154 164 137 141
    003177  aa  143 166 137 155
    003200  aa  157 144 145 000
    003201  55   001276 001260
    003202  0a   000016 400000
    003203  55   001272 000003
    003204  aa  016 146 141 165         fault_acv_ring
    003205  aa  154 164 137 141
    003206  aa  143 166 137 162
    003207  aa  151 156 147 000
    003210  55   001304 001267
    003211  0a   000015 400000
    003212  55   001301 000003
    003213  aa  011 146 141 165         fault_ipr
    003214  aa  154 164 137 151
    003215  aa  160 162 000 000
    003216  55   001314 001276
    003217  0a   000014 400000
    003220  55   001307 000003
    003221  aa  021 146 163 137         fs_obj_access_mod
    003222  aa  157 142 152 137
    003223  aa  141 143 143 145
    003224  aa  163 163 137 155
    003225  aa  157 144 000 000
    003226  55   001324 001304
    003227  0a   000013 400000
    003230  55   001317 000003
    003231  aa  021 146 163 137         fs_obj_status_mod
    003232  aa  157 142 152 137
    003233  aa  163 164 141 164
    003234  aa  165 163 137 155
    003235  aa  157 144 000 000
    003236  55   001333 001314
    003237  0a   000012 400000
    003240  55   001327 000003
    003241  aa  017 146 163 137         fs_obj_attr_mod
    003242  aa  157 142 152 137
    003243  aa  141 164 164 162
    003244  aa  137 155 157 144
    003245  55   001343 001324
    003246  0a   000011 400000
    003247  55   001336 000003
    003250  aa  020 146 163 137         fs_obj_prop_read
    003251  aa  157 142 152 137
    003252  aa  160 162 157 160
    003253  aa  137 162 145 141
    003254  aa  144 000 000 000
    003255  55   001353 001333
    003256  0a   000010 400000
    003257  55   001346 000003
    003260  aa  023 146 163 137         fs_obj_contents_mod
    003261  aa  157 142 152 137
    003262  aa  143 157 156 164
    003263  aa  145 156 164 163
    003264  aa  137 155 157 144
    003265  55   001364 001343
    003266  0a   000007 400000
    003267  55   001356 000003
    003270  aa  024 146 163 137         fs_obj_contents_read
    003271  aa  157 142 152 137
    003272  aa  143 157 156 164
    003273  aa  145 156 164 163
    003274  aa  137 162 145 141
    003275  aa  144 000 000 000
    003276  55   001374 001353
    003277  0a   000006 400000
    003300  55   001367 000003
    003301  aa  020 146 163 137         fs_obj_terminate
    003302  aa  157 142 152 137
    003303  aa  164 145 162 155
    003304  aa  151 156 141 164
    003305  aa  145 000 000 000
    003306  55   001403 001364
    003307  0a   000005 400000
    003310  55   001377 000003
    003311  aa  017 146 163 137         fs_obj_initiate
    003312  aa  157 142 152 137
    003313  aa  151 156 151 164
    003314  aa  151 141 164 145
    003315  55   001412 001374
    003316  0a   000004 400000
    003317  55   001406 000003
    003320  aa  015 146 163 137         fs_obj_delete
    003321  aa  157 142 152 137
    003322  aa  144 145 154 145
    003323  aa  164 145 000 000
    003324  55   001421 001403
    003325  0a   000003 400000
    003326  55   001415 000003
    003327  aa  015 146 163 137         fs_obj_create
    003330  aa  157 142 152 137
    003331  aa  143 162 145 141
    003332  aa  164 145 000 000
    003333  55   001427 001412
    003334  0a   000327 400000
    003335  55   001424 000003
    003336  aa  011 164 145 170         text_area
    003337  aa  164 137 141 162
    003340  aa  145 141 000 000
    003341  55   001437 001421
    003342  0a   000155 400000
    003343  55   001432 000003
    003344  aa  021 164 145 170         text_offset_table
    003345  aa  164 137 157 146
    003346  aa  146 163 145 164
    003347  aa  137 164 141 142
    003350  aa  154 145 000 000
    003351  55   001445 001427
    003352  0a   000003 400000
    003353  55   001442 000003
    003354  aa  012 143 157 144         code_table
    003355  aa  145 137 164 141
    003356  aa  142 154 145 000
    003357  55   001453 001437
    003360  0a   000002 400000
    003361  55   001450 000003
    003362  aa  011 156 165 155         num_codes
    003363  aa  137 143 157 144
    003364  aa  145 163 000 000
    003365  55   001460 001445
    003366  0a   000000 400000
    003367  55   001456 000003
    003370  aa  007 166 145 162         version
    003371  aa  163 151 157 156
    003372  55   000002 001453
    003373  6a   000000 400002
    003374  55   001463 000003
    003375  aa  014 163 171 155         symbol_table
    003376  aa  142 157 154 137
    003377  aa  164 141 142 154
    003400  aa  145 000 000 000

DEFINITIONS HASH TABLE

    003401  aa   000000 000235
    003402  5a   000433 000000
    003403  5a   000111 000000
    003404  5a   000555 000000
    003405  5a   000660 000000
    003406  5a   000416 000000
    003407  5a   000611 000000
    003410  5a   000547 000000
    003411  5a   000603 000000
    003412  5a   000525 000000
    003413  5a   000617 000000
    003414  5a   000211 000000
    003415  5a   000625 000000
    003416  5a   000542 000000
    003417  5a   000633 000000
    003420  5a   000641 000000
    003421  5a   000667 000000
    003422  5a   000750 000000
    003423  5a   001111 000000
    003424  5a   001260 000000
    003425  5a   001267 000000
    003426  5a   001276 000000
    003427  5a   001421 000000
    003430  aa   000000 000000
    003431  aa   000000 000000
    003432  aa   000000 000000
    003433  aa   000000 000000
    003434  aa   000000 000000
    003435  aa   000000 000000
    003436  aa   000000 000000
    003437  aa   000000 000000
    003440  5a   000023 000000
    003441  aa   000000 000000
    003442  aa   000000 000000
    003443  aa   000000 000000
    003444  aa   000000 000000
    003445  aa   000000 000000
    003446  aa   000000 000000
    003447  aa   000000 000000
    003450  aa   000000 000000
    003451  aa   000000 000000
    003452  5a   001075 000000
    003453  aa   000000 000000
    003454  5a   001103 000000
    003455  aa   000000 000000
    003456  aa   000000 000000
    003457  aa   000000 000000
    003460  aa   000000 000000
    003461  aa   000000 000000
    003462  5a   001246 000000
    003463  aa   000000 000000
    003464  aa   000000 000000
    003465  aa   000000 000000
    003466  5a   001234 000000
    003467  aa   000000 000000
    003470  5a   001204 000000
    003471  aa   000000 000000
    003472  aa   000000 000000
    003473  aa   000000 000000
    003474  5a   000707 000000
    003475  aa   000000 000000
    003476  aa   000000 000000
    003477  aa   000000 000000
    003500  5a   000676 000000
    003501  5a   000730 000000
    003502  5a   000720 000000
    003503  aa   000000 000000
    003504  aa   000000 000000
    003505  aa   000000 000000
    003506  5a   000261 000000
    003507  5a   001040 000000
    003510  5a   000033 000000
    003511  5a   000756 000000
    003512  5a   000766 000000
    003513  5a   001122 000000
    003514  5a   001050 000000
    003515  5a   001057 000000
    003516  5a   000776 000000
    003517  5a   001066 000000
    003520  5a   000203 000000
    003521  5a   000134 000000
    003522  5a   000217 000000
    003523  5a   000145 000000
    003524  5a   000241 000000
    003525  5a   000125 000000
    003526  5a   000165 000000
    003527  5a   000231 000000
    003530  5a   000251 000000
    003531  5a   000273 000000
    003532  5a   000303 000000
    003533  5a   000313 000000
    003534  5a   000103 000000
    003535  5a   000156 000000
    003536  5a   000322 000000
    003537  5a   000331 000000
    003540  5a   000043 000000
    003541  5a   000340 000000
    003542  5a   000350 000000
    003543  5a   000357 000000
    003544  5a   000366 000000
    003545  5a   000374 000000
    003546  5a   000402 000000
    003547  5a   000410 000000
    003550  5a   000051 000000
    003551  5a   001005 000000
    003552  5a   000056 000000
    003553  5a   001013 000000
    003554  5a   000073 000000
    003555  5a   001022 000000
    003556  5a   000063 000000
    003557  5a   001031 000000
    003560  5a   000175 000000
    003561  5a   000013 000000
    003562  5a   001132 000000
    003563  5a   001141 000000
    003564  5a   001150 000000
    003565  5a   001157 000000
    003566  5a   001165 000000
    003567  5a   001174 000000
    003570  5a   001215 000000
    003571  5a   001225 000000
    003572  5a   001304 000000
    003573  5a   001314 000000
    003574  5a   001324 000000
    003575  5a   001333 000000
    003576  5a   001343 000000
    003577  5a   001353 000000
    003600  5a   001364 000000
    003601  5a   001374 000000
    003602  5a   001403 000000
    003603  5a   001412 000000
    003604  5a   001437 000000
    003605  5a   000442 000000
    003606  5a   001453 000000
    003607  5a   000741 000000
    003610  5a   001460 000000
    003611  5a   000454 000000
    003612  aa   000000 000000
    003613  5a   000117 000000
    003614  aa   000000 000000
    003615  aa   000000 000000
    003616  aa   000000 000000
    003617  aa   000000 000000
    003620  5a   001445 000000
    003621  5a   000647 000000
    003622  aa   000000 000000
    003623  5a   000466 000000
    003624  aa   000000 000000
    003625  5a   001427 000000
    003626  aa   000000 000000
    003627  5a   000476 000000
    003630  5a   000506 000000
    003631  5a   000564 000000
    003632  aa   000000 000000
    003633  5a   000424 000000
    003634  5a   000574 000000
    003635  5a   000516 000000
    003636  5a   000533 000000

NO EXTERNAL NAMES

NO TRAP POINTER WORDS

TYPE PAIR BLOCKS

    003637  aa   000001 000000
    003640  aa   000000 000000

INTERNAL EXPRESSION WORDS

    003641  aa   000000 000000
LINKAGE INFORMATION

    000000  aa   000000 000000
    000001  0a   001712 000000
    000002  aa   000000 000000
    000003  aa   000000 000000
    000004  aa   000000 000000
    000005  aa   000000 000000
    000006  22   000010 000010
    000007  a2   000000 000000
SYMBOL INFORMATION

SYMBOL TABLE HEADER

    000000  aa   000000 000001
    000001  aa   163171 155142
    000002  aa   164162 145145
    000003  aa   000000 000010
    000004  aa   000000 117244
    000005  aa   361023 525721
    000006  aa   000000 117547
    000007  aa   255150 417152
    000010  aa   141154 155040
    000011  aa   040040 040040
    000012  aa   000024 000040
    000013  aa   000034 000040
    000014  aa   000044 000100
    000015  aa   000002 000002
    000016  aa   000064 000000
    000017  aa   000000 000413
    000020  aa   000000 000105
    000021  aa   000200 000175
    000022  aa   000405 000105
    000023  aa   000064 000000
    000024  aa   101114 115040
    000025  aa   126145 162163
    000026  aa   151157 156040
    000027  aa   070056 061064
    000030  aa   040115 141162
    000031  aa   143150 040061
    000032  aa   071070 071040
    000033  aa   040040 040040
    000034  aa   110151 162156
    000035  aa   145151 163145
    000036  aa   156056 123171
    000037  aa   163115 141151
    000040  aa   156164 056141
    000041  aa   040040 040040
    000042  aa   040040 040040
    000043  aa   040040 040040
    000044  aa   055164 141162
    000045  aa   147145 164040
    000046  aa   154066 070040
    000047  aa   040040 040040
    000050  aa   040040 040040
    000051  aa   040040 040040
    000052  aa   040040 040040
    000053  aa   040040 040040
    000054  aa   040040 040040
    000055  aa   040040 040040
    000056  aa   040154 151163
    000057  aa   164040 163171
    000060  aa   155142 157154
    000061  aa   163040 040040
    000062  aa   040040 040040
    000063  aa   040040 040040
    000064  aa   000000 000001
    000065  aa   000000 000001
    000066  aa   000072 000051
    000067  aa   175453 017637
    000070  aa   000000 117547
    000071  aa   176325 600000
    000072  aa   076163 160145          >spec>install>1110>access_operations_.alm
    000073  aa   143076 151156
    000074  aa   163164 141154
    000075  aa   154076 061061
    000076  aa   061060 076141
    000077  aa   143143 145163
    000100  aa   163137 157160
    000101  aa   145162 141164
    000102  aa   151157 156163
    000103  aa   137056 141154
    000104  aa   155040 040040
               MULTICS ASSEMBLY CROSS REFERENCE LISTING

   Value        Symbol                   Source file   Line number

         327    .._00000                 access_operations_:       147.
         334    .._00001                 access_operations_:       148.
         341    .._00002                 access_operations_:       149.
         346    .._00003                 access_operations_:       150.
         354    .._00004                 access_operations_:       151.
         360    .._00005                 access_operations_:       152.
         366    .._00006                 access_operations_:       153.
         373    .._00007                 access_operations_:       154.
         405    .._00010                 access_operations_:       155.
         416    .._00011                 access_operations_:       156.
         426    .._00012                 access_operations_:       157.
         434    .._00013                 access_operations_:       158.
         444    .._00014                 access_operations_:       159.
         454    .._00015                 access_operations_:       160.
         471    .._00016                 access_operations_:       161.
         502    .._00017                 access_operations_:       162.
         514    .._00020                 access_operations_:       163.
         525    .._00021                 access_operations_:       164.
         536    .._00022                 access_operations_:       165.
         551    .._00023                 access_operations_:       167.
         560    .._00024                 access_operations_:       168.
         567    .._00025                 access_operations_:       169.
         574    .._00026                 access_operations_:       170.
         601    .._00027                 access_operations_:       171.
         611    .._00030                 access_operations_:       172.
         617    .._00031                 access_operations_:       173.
         627    .._00032                 access_operations_:       175.
         632    .._00033                 access_operations_:       176.
         635    .._00034                 access_operations_:       177.
         641    .._00035                 access_operations_:       178.
         646    .._00036                 access_operations_:       179.
         653    .._00037                 access_operations_:       180.
         661    .._00040                 access_operations_:       181.
         666    .._00041                 access_operations_:       182.
         673    .._00042                 access_operations_:       183.
         700    .._00043                 access_operations_:       184.
         704    .._00044                 access_operations_:       185.
         712    .._00045                 access_operations_:       186.
         720    .._00046                 access_operations_:       187.
         727    .._00047                 access_operations_:       188.
         734    .._00050                 access_operations_:       189.
         743    .._00051                 access_operations_:       190.
         751    .._00052                 access_operations_:       191.
         757    .._00053                 access_operations_:       192.
         766    .._00054                 access_operations_:       193.
         774    .._00055                 access_operations_:       194.
        1002    .._00056                 access_operations_:       195.
        1010    .._00057                 access_operations_:       196.
        1022    .._00060                 access_operations_:       197.
        1031    .._00061                 access_operations_:       198.
        1041    .._00062                 access_operations_:       199.
        1050    .._00063                 access_operations_:       200.
        1060    .._00064                 access_operations_:       201.
        1066    .._00065                 access_operations_:       202.
        1073    .._00066                 access_operations_:       203.
        1102    .._00067                 access_operations_:       204.
        1111    .._00070                 access_operations_:       205.
        1120    .._00071                 access_operations_:       206.
        1125    .._00072                 access_operations_:       207.
        1134    .._00073                 access_operations_:       208.
        1145    .._00074                 access_operations_:       209.
        1155    .._00075                 access_operations_:       210.
        1163    .._00076                 access_operations_:       211.
        1171    .._00077                 access_operations_:       212.
        1177    .._00100                 access_operations_:       213.
        1204    .._00101                 access_operations_:       214.
        1214    .._00102                 access_operations_:       215.
        1223    .._00103                 access_operations_:       216.
        1232    .._00104                 access_operations_:       217.
        1240    .._00105                 access_operations_:       218.
        1246    .._00106                 access_operations_:       219.
        1255    .._00107                 access_operations_:       220.
        1264    .._00110                 access_operations_:       221.
        1273    .._00111                 access_operations_:       222.
        1302    .._00112                 access_operations_:       223.
        1313    .._00113                 access_operations_:       224.
        1324    .._00114                 access_operations_:       225.
        1337    .._00115                 access_operations_:       226.
        1352    .._00116                 access_operations_:       227.
        1361    .._00117                 access_operations_:       228.
        1373    .._00120                 access_operations_:       229.
        1405    .._00121                 access_operations_:       230.
        1420    .._00122                 access_operations_:       231.
        1436    .._00123                 access_operations_:       232.
        1450    .._00124                 access_operations_:       233.
        1462    .._00125                 access_operations_:       234.
        1474    .._00126                 access_operations_:       235.
        1506    .._00127                 access_operations_:       236.
        1514    .._00130                 access_operations_:       237.
        1523    .._00131                 access_operations_:       238.
        1532    .._00132                 access_operations_:       239.
        1540    .._00133                 access_operations_:       240.
        1546    .._00134                 access_operations_:       241.
        1556    .._00135                 access_operations_:       242.
        1566    .._00136                 access_operations_:       243.
        1576    .._00137                 access_operations_:       244.
        1601    .._00140                 access_operations_:       245.
        1605    .._00141                 access_operations_:       246.
        1614    .._00142                 access_operations_:       247.
        1623    .._00143                 access_operations_:       248.
        1633    .._00144                 access_operations_:       249.
        1642    .._00145                 access_operations_:       250.
        1654    .._00146                 access_operations_:       251.
        1671    .._00147                 access_operations_:       252.
        1676    .._00150                 access_operations_:       253.
        1704    .._00151                 access_operations_:       254.
           0    .text                    access_operations_:       256.
         145    abs_command_cancel       access_operations_:       247.
         146    abs_command_login        access_operations_:       248.
           4    ADMIN                    access_operations_:       143,  185,  186,  187,  190,  191,  192,  193.
         133    attach_lv                access_operations_:       237.
          43    channel_attach           access_operations_:       181.
          44    channel_detach           access_operations_:       182.
           3    codes                    access_operations_:        97,  147,  148,  149,  150,  151,  152,  153,  154,  155,
                                                                   156,  157,  158,  159,  160,  161,  162,  163,  164,  165,
                                                                   167,  168,  169,  170,  171,  172,  173,  175,  176,  177,
                                                                   178,  179,  180,  181,  182,  183,  184,  185,  186,  187,
                                                                   188,  189,  190,  191,  192,  193,  194,  195,  196,  197,
                                                                   198,  199,  200,  201,  202,  203,  204,  205,  206,  207,
                                                                   208,  209,  210,  211,  212,  213,  214,  215,  216,  217,
                                                                   218,  219,  220,  221,  222,  223,  224,  225,  226,  227,
                                                                   228,  229,  230,  231,  232,  233,  234,  235,  236,  237,
                                                                   238,  239,  240,  241,  242,  243,  244,  245,  246,  247,
                                                                   248,  249,  250,  251,  252,  253,  254,  262.
         152    code_count               access_operations_:        96,  147,  148,  149,  150,  151,  152,  153,  154,  155,
                                                                   156,  157,  158,  159,  160,  161,  162,  163,  164,  165,
                                                                   167,  168,  169,  170,  171,  172,  173,  175,  176,  177,
                                                                   178,  179,  180,  181,  182,  183,  184,  185,  186,  187,
                                                                   188,  189,  190,  191,  192,  193,  194,  195,  196,  197,
                                                                   198,  199,  200,  201,  202,  203,  204,  205,  206,  207,
                                                                   208,  209,  210,  211,  212,  213,  214,  215,  216,  217,
                                                                   218,  219,  220,  221,  222,  223,  224,  225,  226,  227,
                                                                   228,  229,  230,  231,  232,  233,  234,  235,  236,  237,
                                                                   238,  239,  240,  241,  242,  243,  244,  245,  246,  247,
                                                                   248,  249,  250,  251,  252,  253,  254,  260.
           3    code_table               access_operations_:        45,   98.
          33    daemon_daemon_login      access_operations_:       172.
          30    daemon_login             access_operations_:       169.
          31    daemon_logout            access_operations_:       170.
          32    daemon_new_proc          access_operations_:       171.
          27    daemon_quit              access_operations_:       168.
          26    daemon_reply             access_operations_:       167.
         134    detach_lv                access_operations_:       238.
          45    dialid_start             access_operations_:       183.
          46    dialid_stop              access_operations_:       184.
         147    dialin                   access_operations_:       249.
         150    dialout                  access_operations_:       250.
         151    dial_system              access_operations_:       251.
         135    dm_journal_allocate      access_operations_:       239.
         136    dm_journal_free          access_operations_:       240.
         137    dm_journal_read_attr     access_operations_:       241.
         140    dm_journal_write_attr    access_operations_:       242.
          34    excessive_seg_state_chg  access_operations_:       173.
          17    fault_acv_mode           access_operations_:       159.
          16    fault_acv_ring           access_operations_:       158.
          15    fault_ipr                access_operations_:       157.
           1    FS_OBJ                   access_operations_:       140,  151,  152,  158,  159.
          14    fs_obj_access_mod        access_operations_:       156.
           2    FS_OBJ_ATTR              access_operations_:       141,  147,  148,  149,  150,  153,  154,  155,  156,  162,
                                                                   163,  173,  235.
          12    fs_obj_attr_mod          access_operations_:       154.
          10    fs_obj_contents_mod      access_operations_:       152.
           7    fs_obj_contents_read     access_operations_:       151.
           3    fs_obj_create            access_operations_:       147.
           4    fs_obj_delete            access_operations_:       148.
           5    fs_obj_initiate          access_operations_:       149.
          11    fs_obj_prop_read         access_operations_:       153.
          23    fs_obj_reclassify        access_operations_:       163.
          22    fs_obj_set_soos          access_operations_:       162.
          13    fs_obj_status_mod        access_operations_:       155.
           6    fs_obj_terminate         access_operations_:       150.
         154    get_procs_required       access_operations_:       254.
         141    install_table            access_operations_:       243.
         144    invalid_mca              access_operations_:       246.
         131    io_daemon_set_page_labels      access_operations_:       235.
          52    ipc_wakeup               access_operations_:       188.
         142    lock_mca                 access_operations_:       244.
          53    log_vol_full             access_operations_:       189.
           2    MODIFY                   access_operations_:       136,  147,  148,  152,  154,  155,  165,  167,  168,  169,
                                                                   170,  171,  172,  181,  182,  183,  184,  185,  186,  187,
                                                                   188,  194,  195,  204,  207,  209,  210,  211,  212,  213,
                                                                   214,  215,  219,  220,  224,  227,  230,  231,  232,  234,
                                                                   242,  243,  247,  248,  249,  250,  251,  253.
           1    MODIFY_ACCESS            access_operations_:       135,  156,  162,  163,  196,  197,  198,  208,  226,  233,
                                                                   235,  237,  238,  239,  240,  244,  245.
         127    mseg_accept_wakeups      access_operations_:       233.
         120    mseg_access_mod          access_operations_:       226.
         117    mseg_access_read         access_operations_:       225.
          25    mseg_add_message         access_operations_:       165.
         116    mseg_attr_mod            access_operations_:       224.
         115    mseg_attr_read           access_operations_:       223.
         114    mseg_close               access_operations_:       222.
         121    mseg_compact             access_operations_:       227.
         111    mseg_create              access_operations_:       219.
         112    mseg_delete              access_operations_:       220.
         124    mseg_delete_message      access_operations_:       230.
         122    mseg_get_count           access_operations_:       228.
         113    mseg_open                access_operations_:       221.
         125    mseg_read_delete_message       access_operations_:       231.
         123    mseg_read_message        access_operations_:       229.
         126    mseg_update_message      access_operations_:       232.
         130    mseg_wakeup_send         access_operations_:       234.
           0    NONE                     access_operations_:       139,  157,  160,  161,  164,  189.
           2    num_codes                access_operations_:        44,  259.
           6    OTHER                    access_operations_:       145,  165,  167,  168,  169,  170,  171,  172,  219,  220,
                                                                   221,  222,  223,  224,  225,  226,  227,  228,  229,  230,
                                                                   231,  232,  233,  234,  239,  240,  241,  242,  244,  245,
                                                                   246,  247,  248,  253,  254.
          47    pnt_entry_add            access_operations_:       185.
          54    pnt_entry_admin_read     access_operations_:       190.
          50    pnt_entry_delete         access_operations_:       186.
          57    pnt_entry_login_read     access_operations_:       193.
          51    pnt_entry_modify         access_operations_:       187.
          56    pnt_entry_network_read   access_operations_:       192.
          55    pnt_entry_priv_read      access_operations_:       191.
          21    process_audit_flags_modify     access_operations_:       161.
          41    process_connect          access_operations_:       179.
          37    process_create           access_operations_:       177.
          40    process_destroy          access_operations_:       178.
          42    process_disconnect       access_operations_:       180.
         152    process_terminate        access_operations_:       252.
           3    RCP                      access_operations_:       142,  194,  195,  196,  197,  198,  199,  200,  201,  202,
                                                                   203,  204,  205,  206,  207,  208,  209,  210,  211,  212,
                                                                   213,  214,  215,  216,  217,  218,  236.
         110    rcp_account              access_operations_:       218.
          63    rcp_acquire              access_operations_:       197.
         100    rcp_add_device           access_operations_:       210.
          71    rcp_assign_read          access_operations_:       203.
          72    rcp_assign_write         access_operations_:       204.
          66    rcp_cancel               access_operations_:       200.
          77    rcp_clear                access_operations_:       209.
         106    rcp_copy_info            access_operations_:       216.
         102    rcp_copy_registry        access_operations_:       212.
         101    rcp_delete_device        access_operations_:       211.
         103    rcp_delete_registry      access_operations_:       213.
          61    rcp_deregister           access_operations_:       195.
         107    rcp_error_count          access_operations_:       217.
         132    rcp_list                 access_operations_:       236.
          67    rcp_preload              access_operations_:       201.
         104    rcp_reconstruct_registry       access_operations_:       214.
          60    rcp_register             access_operations_:       194.
          62    rcp_register_acquire     access_operations_:       196.
          64    rcp_release              access_operations_:       198.
          65    rcp_reserve              access_operations_:       199.
          75    rcp_set                  access_operations_:       207.
          76    rcp_set_access           access_operations_:       208.
          74    rcp_status               access_operations_:       206.
          73    rcp_unassign             access_operations_:       205.
          70    rcp_unload               access_operations_:       202.
         105    rcp_update_registry_header     access_operations_:       215.
           3    READ                     access_operations_:       137,  149,  150,  151,  153,  190,  191,  192,  193,  199,
                                                                   200,  201,  202,  203,  205,  206,  216,  217,  218,  221,
                                                                   222,  223,  225,  228,  229,  236,  241,  246,  254.
         153    set_procs_required       access_operations_:       253.
           5    SPECIAL                  access_operations_:       144,  175,  176,  177,  178,  179,  180,  181,  182,  183,
                                                                   184,  188,  237,  238,  243,  249,  250,  251,  252.
          20    system_audit_thresh_modify     access_operations_:       160.
          24    system_privilege_modify  access_operations_:       164.
         327    text                     access_operations_:       103,  147,  148,  149,  150,  151,  152,  153,  154,  155,
                                                                   156,  157,  158,  159,  160,  161,  162,  163,  164,  165,
                                                                   167,  168,  169,  170,  171,  172,  173,  175,  176,  177,
                                                                   178,  179,  180,  181,  182,  183,  184,  185,  186,  187,
                                                                   188,  189,  190,  191,  192,  193,  194,  195,  196,  197,
                                                                   198,  199,  200,  201,  202,  203,  204,  205,  206,  207,
                                                                   208,  209,  210,  211,  212,  213,  214,  215,  216,  217,
                                                                   218,  219,  220,  221,  222,  223,  224,  225,  226,  227,
                                                                   228,  229,  230,  231,  232,  233,  234,  235,  236,  237,
                                                                   238,  239,  240,  241,  242,  243,  244,  245,  246,  247,
                                                                   248,  249,  250,  251,  252,  253,  254,  262.
         327    text_area                access_operations_:        47,  104,  147,  148,  149,  150,  151,  152,  153,  154,
                                                                   155,  156,  157,  158,  159,  160,  161,  162,  163,  164,
                                                                   165,  167,  168,  169,  170,  171,  172,  173,  175,  176,
                                                                   177,  178,  179,  180,  181,  182,  183,  184,  185,  186,
                                                                   187,  188,  189,  190,  191,  192,  193,  194,  195,  196,
                                                                   197,  198,  199,  200,  201,  202,  203,  204,  205,  206,
                                                                   207,  208,  209,  210,  211,  212,  213,  214,  215,  216,
                                                                   217,  218,  219,  220,  221,  222,  223,  224,  225,  226,
                                                                   227,  228,  229,  230,  231,  232,  233,  234,  235,  236,
                                                                   237,  238,  239,  240,  241,  242,  243,  244,  245,  246,
                                                                   247,  248,  249,  250,  251,  252,  253,  254.
         155    text_offset_table        access_operations_:        46,  101.
         155    text_table               access_operations_:       100,  147,  148,  149,  150,  151,  152,  153,  154,  155,
                                                                   156,  157,  158,  159,  160,  161,  162,  163,  164,  165,
                                                                   167,  168,  169,  170,  171,  172,  173,  175,  176,  177,
                                                                   178,  179,  180,  181,  182,  183,  184,  185,  186,  187,
                                                                   188,  189,  190,  191,  192,  193,  194,  195,  196,  197,
                                                                   198,  199,  200,  201,  202,  203,  204,  205,  206,  207,
                                                                   208,  209,  210,  211,  212,  213,  214,  215,  216,  217,
                                                                   218,  219,  220,  221,  222,  223,  224,  225,  226,  227,
                                                                   228,  229,  230,  231,  232,  233,  234,  235,  236,  237,
                                                                   238,  239,  240,  241,  242,  243,  244,  245,  246,  247,
                                                                   248,  249,  250,  251,  252,  253,  254,  262.
           0    UNKNOWN                  access_operations_:       134,  157,  158,  159,  160,  161,  164,  173,  175,  176,
                                                                   177,  178,  179,  180,  189,  252.
         143    unlock_mca               access_operations_:       245.
          35    user_login               access_operations_:       175.
          36    user_logout              access_operations_:       176.
           0    version                  access_operations_:        43,  257.


NO FATAL ERRORS


                                          -----------------------------------------------------------


Historical Background

This edition of the Multics software materials and documentation is provided and donated
to Massachusetts Institute of Technology by Group BULL including BULL HN Information Systems Inc.
as a contribution to computer science knowledge.
This donation is made also to give evidence of the common contributions of Massachusetts Institute of Technology,
Bell Laboratories, General Electric, Honeywell Information Systems Inc., Honeywell BULL Inc., Groupe BULL
and BULL HN Information Systems Inc. to the development of this operating system.
Multics development was initiated by Massachusetts Institute of Technology Project MAC (1963-1970),
renamed the MIT Laboratory for Computer Science and Artificial Intelligence in the mid 1970s, under the leadership
of Professor Fernando Jose Corbato. Users consider that Multics provided the best software architecture
for managing computer hardware properly and for executing programs. Many subsequent operating systems
incorporated Multics principles.
Multics was distributed in 1975 to 2000 by Group Bull in Europe , and in the U.S. by Bull HN Information Systems Inc.,
as successor in interest by change in name only to Honeywell Bull Inc. and Honeywell Information Systems Inc. .

                                          -----------------------------------------------------------

Permission to use, copy, modify, and distribute these programs and their documentation for any purpose and without
fee is hereby granted,provided that the below copyright notice and historical background appear in all copies
and that both the copyright notice and historical background and this permission notice appear in supporting
documentation, and that the names of MIT, HIS, BULL or BULL HN not be used in advertising or publicity pertaining
to distribution of the programs without specific prior written permission.
    Copyright 1972 by Massachusetts Institute of Technology and Honeywell Information Systems Inc.
    Copyright 2006 by BULL HN Information Systems Inc.
    Copyright 2006 by Bull SAS
    All Rights Reserved
