ASSEMBLY LISTING OF SEGMENT >spec>install>1110>active_fnc_err_.alm
ASSEMBLED ON:	11/11/89  0950.8 mst Sat
OPTIONS USED:	-target l68                              list symbols
ASSEMBLED BY:	ALM Version 8.14 March 1989
ASSEMBLER CREATED:	06/09/89  1002.3 mst Fri

                                     1  " ***********************************************************
                                     2  " *                                                         *
                                     3  " * Copyright, (C) Honeywell Bull Inc., 1987                *
                                     4  " *                                                         *
                                     5  " * Copyright, (C) Honeywell Information Systems Inc., 1982 *
                                     6  " *                                                         *
                                     7  " * Copyright (c) 1972 by Massachusetts Institute of        *
                                     8  " * Technology and Honeywell Information Systems, Inc.      *
                                     9  " *                                                         *
                                    10  " ***********************************************************
                                    11
                                    12  " Transfer vector to appropriate entrypoints in com_err_: Required to allow the entry
                                    13  "    active_fnc_err_$suppress_name to exist
                                    14
                                    15  " Note:  This transfer vector must be bound with com_err_
                                    16
                                    17  " Created:  15 December 1981 by G. Palter
                                    18
                                    19
    000000                          20  	name	active_fnc_err_
                                    21
                        000000      22  	segdef	active_fnc_err_
                        000002      23  	segdef	suppress_name
                        000002      24  	segdef	af_suppress_name		" compatability
                                    25
                                    26
    000000                          27  active_fnc_err_:
    000000  aa  7 00046 2721 20     28  	getlp
    000001  4a  4 00010 7101 20     29  	tra	com_err_$active_fnc_err_
                                    30
    000002                          31  suppress_name:
    000002                          32  af_suppress_name:
    000002  aa  7 00046 2721 20     33  	getlp
    000003  4a  4 00012 7101 20     34  	tra	com_err_$af_suppress_name
                                    35
                                    36  	end

NO LITERALS

NAME DEFINITIONS FOR ENTRY POINTS AND SEGDEFS

    000004  5a   000003 000000
    000005  5a   000047 600000
    000006  aa   000000 000000
    000007  55   000012 000002
    000010  5a   000002 400003
    000011  55   000006 000012
    000012  aa  017 141 143 164
    000013  aa  151 166 145 137
    000014  aa  146 156 143 137
    000015  aa  145 162 162 137
    000016  55   000022 000003
    000017  0a   000002 400000
    000020  55   000015 000003
    000021  aa  020 141 146 137         af_suppress_name
    000022  aa  163 165 160 160
    000023  aa  162 145 163 163
    000024  aa  137 156 141 155
    000025  aa  145 000 000 000
    000026  55   000031 000012
    000027  0a   000002 400000
    000030  55   000025 000003
    000031  aa  015 163 165 160         suppress_name
    000032  aa  160 162 145 163
    000033  aa  163 137 156 141
    000034  aa  155 145 000 000
    000035  55   000040 000022
    000036  0a   000000 400000
    000037  55   000034 000003
    000040  aa  017 141 143 164         active_fnc_err_
    000041  aa  151 166 145 137
    000042  aa  146 156 143 137
    000043  aa  145 162 162 137
    000044  55   000002 000031
    000045  6a   000000 400002
    000046  55   000043 000003
    000047  aa  014 163 171 155         symbol_table
    000050  aa  142 157 154 137
    000051  aa  164 141 142 154
    000052  aa  145 000 000 000

DEFINITIONS HASH TABLE

    000053  aa   000000 000015
    000054  aa   000000 000000
    000055  aa   000000 000000
    000056  aa   000000 000000
    000057  aa   000000 000000
    000060  aa   000000 000000
    000061  aa   000000 000000
    000062  5a   000040 000000
    000063  aa   000000 000000
    000064  aa   000000 000000
    000065  aa   000000 000000
    000066  5a   000022 000000
    000067  5a   000031 000000
    000070  5a   000012 000000

EXTERNAL NAMES

    000071  aa  010 143 157 155         com_err_
    000072  aa  137 145 162 162
    000073  aa  137 000 000 000

NO TRAP POINTER WORDS

TYPE PAIR BLOCKS

    000074  aa   000004 000000
    000075  55   000065 000015
    000076  aa   000004 000000
    000077  55   000065 000034
    000100  aa   000001 000000
    000101  aa   000000 000000

INTERNAL EXPRESSION WORDS

    000102  5a   000070 000000
    000103  5a   000072 000000
LINKAGE INFORMATION

    000000  aa   000000 000000
    000001  0a   000004 000000
    000002  aa   000000 000000
    000003  aa   000000 000000
    000004  aa   000000 000000
    000005  aa   000000 000000
    000006  22   000010 000014
    000007  a2   000000 000000
    000010  9a   777770 0000 46         com_err_|active_fnc_err_
    000011  5a   000077 0000 00
    000012  9a   777766 0000 46         com_err_|af_suppress_name
    000013  5a   000076 0000 00
SYMBOL INFORMATION

SYMBOL TABLE HEADER

    000000  aa   000000 000001
    000001  aa   163171 155142
    000002  aa   164162 145145
    000003  aa   000000 000010
    000004  aa   000000 117244
    000005  aa   361023 525721
    000006  aa   000000 117547
    000007  aa   256057 050413
    000010  aa   141154 155040
    000011  aa   040040 040040
    000012  aa   000024 000040
    000013  aa   000034 000040
    000014  aa   000044 000100
    000015  aa   000002 000002
    000016  aa   000064 000000
    000017  aa   000000 000133
    000020  aa   000000 000104
    000021  aa   000113 000107
    000022  aa   000125 000104
    000023  aa   000064 000000
    000024  aa   101114 115040
    000025  aa   126145 162163
    000026  aa   151157 156040
    000027  aa   070056 061064
    000030  aa   040115 141162
    000031  aa   143150 040061
    000032  aa   071070 071040
    000033  aa   040040 040040
    000034  aa   110151 162156
    000035  aa   145151 163145
    000036  aa   156056 123171
    000037  aa   163115 141151
    000040  aa   156164 056141
    000041  aa   040040 040040
    000042  aa   040040 040040
    000043  aa   040040 040040
    000044  aa   055164 141162
    000045  aa   147145 164040
    000046  aa   154066 070040
    000047  aa   040040 040040
    000050  aa   040040 040040
    000051  aa   040040 040040
    000052  aa   040040 040040
    000053  aa   040040 040040
    000054  aa   040040 040040
    000055  aa   040040 040040
    000056  aa   040154 151163
    000057  aa   164040 163171
    000060  aa   155142 157154
    000061  aa   163040 040040
    000062  aa   040040 040040
    000063  aa   040040 040040
    000064  aa   000000 000001
    000065  aa   000000 000001
    000066  aa   000072 000046
    000067  aa   175453 017526
    000070  aa   000000 117547
    000071  aa   176214 200000
    000072  aa   076163 160145          >spec>install>1110>active_fnc_err_.alm
    000073  aa   143076 151156
    000074  aa   163164 141154
    000075  aa   154076 061061
    000076  aa   061060 076141
    000077  aa   143164 151166
    000100  aa   145137 146156
    000101  aa   143137 145162
    000102  aa   162137 056141
    000103  aa   154155 040040
               MULTICS ASSEMBLY CROSS REFERENCE LISTING

   Value        Symbol                   Source file   Line number

           0    active_fnc_err_          active_fnc_err_:     22,   27,   29.
           2    af_suppress_name         active_fnc_err_:     24,   32,   34.
                com_err_                 active_fnc_err_:     29,   34.
           2    suppress_name            active_fnc_err_:     23,   31.


NO FATAL ERRORS


                                          -----------------------------------------------------------


Historical Background

This edition of the Multics software materials and documentation is provided and donated
to Massachusetts Institute of Technology by Group BULL including BULL HN Information Systems Inc.
as a contribution to computer science knowledge.
This donation is made also to give evidence of the common contributions of Massachusetts Institute of Technology,
Bell Laboratories, General Electric, Honeywell Information Systems Inc., Honeywell BULL Inc., Groupe BULL
and BULL HN Information Systems Inc. to the development of this operating system.
Multics development was initiated by Massachusetts Institute of Technology Project MAC (1963-1970),
renamed the MIT Laboratory for Computer Science and Artificial Intelligence in the mid 1970s, under the leadership
of Professor Fernando Jose Corbato. Users consider that Multics provided the best software architecture
for managing computer hardware properly and for executing programs. Many subsequent operating systems
incorporated Multics principles.
Multics was distributed in 1975 to 2000 by Group Bull in Europe , and in the U.S. by Bull HN Information Systems Inc.,
as successor in interest by change in name only to Honeywell Bull Inc. and Honeywell Information Systems Inc. .

                                          -----------------------------------------------------------

Permission to use, copy, modify, and distribute these programs and their documentation for any purpose and without
fee is hereby granted,provided that the below copyright notice and historical background appear in all copies
and that both the copyright notice and historical background and this permission notice appear in supporting
documentation, and that the names of MIT, HIS, BULL or BULL HN not be used in advertising or publicity pertaining
to distribution of the programs without specific prior written permission.
    Copyright 1972 by Massachusetts Institute of Technology and Honeywell Information Systems Inc.
    Copyright 2006 by BULL HN Information Systems Inc.
    Copyright 2006 by Bull SAS
    All Rights Reserved
