ASSEMBLY LISTING OF SEGMENT >special_ldd>install>MR12.3-1114>bce_alm_die.alm
ASSEMBLED ON:	11/11/89  0954.0 mst Sat
OPTIONS USED:	-target l68                              list symbols
ASSEMBLED BY:	ALM Version 8.14 March 1989
ASSEMBLER CREATED:	06/09/89  1002.3 mst Fri

                                     1  " ***********************************************************
                                     2  " *                                                         *
                                     3  " * Copyright, (C) Honeywell Bull Inc., 1987                *
                                     4  " *                                                         *
                                     5  " * Copyright, (C) Honeywell Information Systems Inc., 1984 *
                                     6  " *                                                         *
                                     7  " ***********************************************************
                        000000       8  	segdef	bce_alm_die
                                     9
                                    10  " Kill ourselves (bce) off, irretrievably.  Keith Loepere, Jan 84.
                                    11  " Made a better die, Keith Loepere, Jan 85.
                                    12
    000000                          13  bce_alm_die:
    000000                          14  	inhibit	on
    000000  aa   020000 2352 07     15  	lda	2048*4,dl		" clobber toehold
    000001  4a  4 00010 3523 20     16  	epp	bp,toehold$0	" prevents exceuting switches
    000002  aa   000140 1006 00     17  	mlr	(),(pr,rl)
    000003  aa   000000 000000      18  	desc9a	0,0
    000004  aa   200000 000005      19  	desc9a	bp|0,al
                                    20
    000005  aa   001000 2352 07     21  	lda	128*4,dl		" clobber fault_vector
    000006  4a  4 00012 3523 20     22  	epp	bp,fault_vector$0	" prevents future faults from
    000007  aa   000140 1006 00     23  	mlr	(),(pr,rl)	" reentering bce
    000010  aa   000000 000000      24  	desc9a	0,0
    000011  aa   200000 000005      25  	desc9a	bp|0,al
                                    26
    000012  aa   000000 6162 00     27  	dis
    000013  aa   777777 7102 04     28  	tra	-1,ic		" DIE!!!
                                    29  	end

NO LITERALS

NAME DEFINITIONS FOR ENTRY POINTS AND SEGDEFS

    000014  5a   000003 000000
    000015  5a   000026 600000
    000016  aa   000000 000000
    000017  55   000011 000002
    000020  5a   000002 400003
    000021  55   000006 000011
    000022  aa  013 142 143 145
    000023  aa  137 141 154 155
    000024  aa  137 144 151 145
    000025  55   000017 000003
    000026  0a   000000 400000
    000027  55   000014 000003
    000030  aa  013 142 143 145         bce_alm_die
    000031  aa  137 141 154 155
    000032  aa  137 144 151 145
    000033  55   000002 000011
    000034  6a   000000 400002
    000035  55   000022 000003
    000036  aa  014 163 171 155         symbol_table
    000037  aa  142 157 154 137
    000040  aa  164 141 142 154
    000041  aa  145 000 000 000

DEFINITIONS HASH TABLE

    000042  aa   000000 000015
    000043  aa   000000 000000
    000044  5a   000011 000000
    000045  aa   000000 000000
    000046  aa   000000 000000
    000047  aa   000000 000000
    000050  aa   000000 000000
    000051  5a   000017 000000
    000052  aa   000000 000000
    000053  aa   000000 000000
    000054  aa   000000 000000
    000055  aa   000000 000000
    000056  aa   000000 000000
    000057  aa   000000 000000

EXTERNAL NAMES

    000060  aa  014 146 141 165         fault_vector
    000061  aa  154 164 137 166
    000062  aa  145 143 164 157
    000063  aa  162 000 000 000
    000064  aa  007 164 157 145         toehold
    000065  aa  150 157 154 144

NO TRAP POINTER WORDS

TYPE PAIR BLOCKS

    000066  aa   000003 000000
    000067  5a   000044 000000
    000070  aa   000003 000000
    000071  5a   000050 000000
    000072  aa   000001 000000
    000073  aa   000000 000000

INTERNAL EXPRESSION WORDS

    000074  5a   000052 000000
    000075  5a   000054 000000
LINKAGE INFORMATION

    000000  aa   000000 000000
    000001  0a   000014 000000
    000002  aa   000000 000000
    000003  aa   000000 000000
    000004  aa   000000 000000
    000005  aa   000000 000000
    000006  22   000010 000014
    000007  a2   000000 000000
    000010  9a   777770 0000 46         toehold|
    000011  5a   000061 0000 00
    000012  9a   777766 0000 46         fault_vector|
    000013  5a   000060 0000 00
SYMBOL INFORMATION

SYMBOL TABLE HEADER

    000000  aa   000000 000001
    000001  aa   163171 155142
    000002  aa   164162 145145
    000003  aa   000000 000010
    000004  aa   000000 117244
    000005  aa   361023 525721
    000006  aa   000000 117547
    000007  aa   257404 706360
    000010  aa   141154 155040
    000011  aa   040040 040040
    000012  aa   000024 000040
    000013  aa   000034 000040
    000014  aa   000044 000100
    000015  aa   000002 000002
    000016  aa   000064 000000
    000017  aa   000000 000133
    000020  aa   000000 000106
    000021  aa   000115 000111
    000022  aa   000125 000106
    000023  aa   000064 000000
    000024  aa   101114 115040
    000025  aa   126145 162163
    000026  aa   151157 156040
    000027  aa   070056 061064
    000030  aa   040115 141162
    000031  aa   143150 040061
    000032  aa   071070 071040
    000033  aa   040040 040040
    000034  aa   110151 162156
    000035  aa   145151 163145
    000036  aa   156056 123171
    000037  aa   163115 141151
    000040  aa   156164 056141
    000041  aa   040040 040040
    000042  aa   040040 040040
    000043  aa   040040 040040
    000044  aa   055164 141162
    000045  aa   147145 164040
    000046  aa   154066 070040
    000047  aa   040040 040040
    000050  aa   040040 040040
    000051  aa   040040 040040
    000052  aa   040040 040040
    000053  aa   040040 040040
    000054  aa   040040 040040
    000055  aa   040040 040040
    000056  aa   040154 151163
    000057  aa   164040 163171
    000060  aa   155142 157154
    000061  aa   163040 040040
    000062  aa   040040 040040
    000063  aa   040040 040040
    000064  aa   000000 000001
    000065  aa   000000 000001
    000066  aa   000072 000060
    000067  aa   175453 021607
    000070  aa   000000 117547
    000071  aa   215074 200000
    000072  aa   076163 160145          >special_ldd>install>MR12.3-1114>bce_alm_die.alm
    000073  aa   143151 141154
    000074  aa   137154 144144
    000075  aa   076151 156163
    000076  aa   164141 154154
    000077  aa   076115 122061
    000100  aa   062056 063055
    000101  aa   061061 061064
    000102  aa   076142 143145
    000103  aa   137141 154155
    000104  aa   137144 151145
    000105  aa   056141 154155
               MULTICS ASSEMBLY CROSS REFERENCE LISTING

   Value        Symbol                   Source file   Line number

           0    bce_alm_die              bce_alm_die:    8,   13.
                fault_vector             bce_alm_die:   22.
                toehold                  bce_alm_die:   16.


NO FATAL ERRORS


                                          -----------------------------------------------------------


Historical Background

This edition of the Multics software materials and documentation is provided and donated
to Massachusetts Institute of Technology by Group BULL including BULL HN Information Systems Inc.
as a contribution to computer science knowledge.
This donation is made also to give evidence of the common contributions of Massachusetts Institute of Technology,
Bell Laboratories, General Electric, Honeywell Information Systems Inc., Honeywell BULL Inc., Groupe BULL
and BULL HN Information Systems Inc. to the development of this operating system.
Multics development was initiated by Massachusetts Institute of Technology Project MAC (1963-1970),
renamed the MIT Laboratory for Computer Science and Artificial Intelligence in the mid 1970s, under the leadership
of Professor Fernando Jose Corbato. Users consider that Multics provided the best software architecture
for managing computer hardware properly and for executing programs. Many subsequent operating systems
incorporated Multics principles.
Multics was distributed in 1975 to 2000 by Group Bull in Europe , and in the U.S. by Bull HN Information Systems Inc.,
as successor in interest by change in name only to Honeywell Bull Inc. and Honeywell Information Systems Inc. .

                                          -----------------------------------------------------------

Permission to use, copy, modify, and distribute these programs and their documentation for any purpose and without
fee is hereby granted,provided that the below copyright notice and historical background appear in all copies
and that both the copyright notice and historical background and this permission notice appear in supporting
documentation, and that the names of MIT, HIS, BULL or BULL HN not be used in advertising or publicity pertaining
to distribution of the programs without specific prior written permission.
    Copyright 1972 by Massachusetts Institute of Technology and Honeywell Information Systems Inc.
    Copyright 2006 by BULL HN Information Systems Inc.
    Copyright 2006 by Bull SAS
    All Rights Reserved
