ASSEMBLY LISTING OF SEGMENT >spec>install>1111>check_trailer.alm
ASSEMBLED ON:	11/11/89  0921.8 mst Sat
OPTIONS USED:	-target l68                              list symbols
ASSEMBLED BY:	ALM Version 8.14 March 1989
ASSEMBLER CREATED:	06/09/89  1002.3 mst Fri

                                     1  " ***********************************************************
                                     2  " *                                                         *
                                     3  " * Copyright, (C) Honeywell Bull Inc., 1987                *
                                     4  " *                                                         *
                                     5  " * Copyright, (C) Honeywell Information Systems Inc., 1982 *
                                     6  " *                                                         *
                                     7  " * Copyright (c) 1972 by Massachusetts Institute of        *
                                     8  " * Technology and Honeywell Information Systems, Inc.      *
                                     9  " *                                                         *
                                    10  " ***********************************************************
                                    11
                                    12  "
                                    13  "	check_trailer
                                    14  "
                                    15  "	This program loops through the entire trailer segment searching
                                    16  "	for any trailers which belong to a process which has been (is being)
                                    17  "	destroyed.  It is a debugging temporary program only.
                                    18  "
                                    19  " Modified 04/16/81, W. Olin Sibert, to get count of trailers from sst$n_trailers
                                    20  "
                                    21
    000000                          22  	name	check_trailer
                        000000      23  	entry	check_trailer
                                    24
    000000                          25  check_trailer:
                                    26
                                    27  "
                                    28  "	Call is:
                                    29  "
                                    30  "	error = check_trailer(rel_dstep)
                                    31  "
                                    32  "	dcl error bit (1) aligned, rel_dstep dixed bin (18)
                                    33  "
    000000  aa  0 00002 2351 20     34  	lda	pr0|2,*		pick up the pointer to the DST entry
    000001  aa  0 00004 4501 20     35  	stz	pr0|4,*		zero out return error code
                                    36
    000002  4a  4 00010 2361 20     37  	ldq	sst$n_trailers	get count of trailers in system
    000003  aa   000001 7360 00     38  	qls	1		multiply by two (size of a trailer)
    000004  aa   000000 6200 06     39  	eax0	0,ql		and move to X0
                                    40
    000005  aa   777777 2360 03     41  	ldq	-1,du		use mask for right half of word 1 of trailer entry
    000006  4a  4 00012 3521 20     42  	epp2	str_seg$+0	get pointer to trailer segment itself
                                    43
    000007  aa   777776 6200 10     44  loop:	eax0	-2,x0		go to next trailer
    000010  0a   000014 6040 00     45  	tmi	ok		if haven't found bad one by now we're OK
    000011  aa  2 00001 2111 10     46  	cmk	pr2|1,x0		compare a with rel(dstep) in trailer
    000012  0a   000015 6000 00     47  	tze	trouble		the same, trouble. return "1"b
    000013  0a   000007 7100 00     48  	tra	loop
                                    49
    000014  aa  7 00044 7101 20     50  ok:	short_return
                                    51
    000015  aa   400000 2350 03     52  trouble:	lda	=o400000,du	return "1"b if error
    000016  aa  0 00004 7551 20     53  	sta	pr0|4,*
    000017  aa  7 00044 7101 20     54  	short_return
                                    55
                                    56  	end
ENTRY SEQUENCES

    000020  5a   000012 0000 00
    000021  aa  7 00046 2721 20
    000022  0a   000000 7100 00

NO LITERALS

NAME DEFINITIONS FOR ENTRY POINTS AND SEGDEFS

    000024  5a   000003 000000
    000025  5a   000030 600000
    000026  aa   000000 000000
    000027  55   000012 000002
    000030  5a   000002 400003
    000031  55   000006 000012
    000032  aa  015 143 150 145
    000033  aa  143 153 137 164
    000034  aa  162 141 151 154
    000035  aa  145 162 000 000
    000036  55   000021 000003
    000037  0a   000021 500000
    000040  55   000015 000003
    000041  aa  015 143 150 145         check_trailer
    000042  aa  143 153 137 164
    000043  aa  162 141 151 154
    000044  aa  145 162 000 000
    000045  55   000002 000012
    000046  6a   000000 400002
    000047  55   000024 000003
    000050  aa  014 163 171 155         symbol_table
    000051  aa  142 157 154 137
    000052  aa  164 141 142 154
    000053  aa  145 000 000 000

DEFINITIONS HASH TABLE

    000054  aa   000000 000015
    000055  aa   000000 000000
    000056  aa   000000 000000
    000057  5a   000012 000000
    000060  aa   000000 000000
    000061  aa   000000 000000
    000062  aa   000000 000000
    000063  5a   000021 000000
    000064  aa   000000 000000
    000065  aa   000000 000000
    000066  aa   000000 000000
    000067  aa   000000 000000
    000070  aa   000000 000000
    000071  aa   000000 000000

EXTERNAL NAMES

    000072  aa  007 163 164 162         str_seg
    000073  aa  137 163 145 147
    000074  aa  012 156 137 164         n_trailers
    000075  aa  162 141 151 154
    000076  aa  145 162 163 000
    000077  aa  003 163 163 164         sst

NO TRAP POINTER WORDS

TYPE PAIR BLOCKS

    000100  aa   000003 000000
    000101  5a   000046 000000
    000102  aa   000004 000000
    000103  55   000053 000050
    000104  aa   000001 000000
    000105  aa   000000 000000

INTERNAL EXPRESSION WORDS

    000106  5a   000054 000000
    000107  5a   000056 000000
LINKAGE INFORMATION

    000000  aa   000000 000000
    000001  0a   000024 000000
    000002  aa   000000 000000
    000003  aa   000000 000000
    000004  aa   000000 000000
    000005  aa   000000 000000
    000006  22   000010 000014
    000007  a2   000000 000000
    000010  9a   777770 0000 46         sst|n_trailers
    000011  5a   000063 0000 00
    000012  9a   777766 0000 46         str_seg|
    000013  5a   000062 0000 00
SYMBOL INFORMATION

SYMBOL TABLE HEADER

    000000  aa   000000 000001
    000001  aa   163171 155142
    000002  aa   164162 145145
    000003  aa   000000 000010
    000004  aa   000000 117244
    000005  aa   361023 525721
    000006  aa   000000 117547
    000007  aa   241061 512045
    000010  aa   141154 155040
    000011  aa   040040 040040
    000012  aa   000024 000040
    000013  aa   000034 000040
    000014  aa   000044 000100
    000015  aa   000002 000002
    000016  aa   000064 000000
    000017  aa   000000 000131
    000020  aa   000000 000103
    000021  aa   000113 000107
    000022  aa   000123 000103
    000023  aa   000064 000000
    000024  aa   101114 115040
    000025  aa   126145 162163
    000026  aa   151157 156040
    000027  aa   070056 061064
    000030  aa   040115 141162
    000031  aa   143150 040061
    000032  aa   071070 071040
    000033  aa   040040 040040
    000034  aa   110151 162156
    000035  aa   145151 163145
    000036  aa   156056 123171
    000037  aa   163115 141151
    000040  aa   156164 056141
    000041  aa   040040 040040
    000042  aa   040040 040040
    000043  aa   040040 040040
    000044  aa   055164 141162
    000045  aa   147145 164040
    000046  aa   154066 070040
    000047  aa   040040 040040
    000050  aa   040040 040040
    000051  aa   040040 040040
    000052  aa   040040 040040
    000053  aa   040040 040040
    000054  aa   040040 040040
    000055  aa   040040 040040
    000056  aa   040154 151163
    000057  aa   164040 163171
    000060  aa   155142 157154
    000061  aa   163040 040040
    000062  aa   040040 040040
    000063  aa   040040 040040
    000064  aa   000000 000001
    000065  aa   000000 000001
    000066  aa   000072 000044
    000067  aa   175453 017750
    000070  aa   000000 117547
    000071  aa   176334 400000
    000072  aa   076163 160145          >spec>install>1111>check_trailer.alm
    000073  aa   143076 151156
    000074  aa   163164 141154
    000075  aa   154076 061061
    000076  aa   061061 076143
    000077  aa   150145 143153
    000100  aa   137164 162141
    000101  aa   151154 145162
    000102  aa   056141 154155
               MULTICS ASSEMBLY CROSS REFERENCE LISTING

   Value        Symbol                   Source file   Line number

           0    check_trailer            check_trailer:       23,   25.
           7    loop                     check_trailer:       44,   48.
                n_trailers               check_trailer:       37.
          14    ok                       check_trailer:       45,   50.
                sst                      check_trailer:       37.
                str_seg                  check_trailer:       42.
          15    trouble                  check_trailer:       47,   52.


NO FATAL ERRORS


                                          -----------------------------------------------------------


Historical Background

This edition of the Multics software materials and documentation is provided and donated
to Massachusetts Institute of Technology by Group BULL including BULL HN Information Systems Inc.
as a contribution to computer science knowledge.
This donation is made also to give evidence of the common contributions of Massachusetts Institute of Technology,
Bell Laboratories, General Electric, Honeywell Information Systems Inc., Honeywell BULL Inc., Groupe BULL
and BULL HN Information Systems Inc. to the development of this operating system.
Multics development was initiated by Massachusetts Institute of Technology Project MAC (1963-1970),
renamed the MIT Laboratory for Computer Science and Artificial Intelligence in the mid 1970s, under the leadership
of Professor Fernando Jose Corbato. Users consider that Multics provided the best software architecture
for managing computer hardware properly and for executing programs. Many subsequent operating systems
incorporated Multics principles.
Multics was distributed in 1975 to 2000 by Group Bull in Europe , and in the U.S. by Bull HN Information Systems Inc.,
as successor in interest by change in name only to Honeywell Bull Inc. and Honeywell Information Systems Inc. .

                                          -----------------------------------------------------------

Permission to use, copy, modify, and distribute these programs and their documentation for any purpose and without
fee is hereby granted,provided that the below copyright notice and historical background appear in all copies
and that both the copyright notice and historical background and this permission notice appear in supporting
documentation, and that the names of MIT, HIS, BULL or BULL HN not be used in advertising or publicity pertaining
to distribution of the programs without specific prior written permission.
    Copyright 1972 by Massachusetts Institute of Technology and Honeywell Information Systems Inc.
    Copyright 2006 by BULL HN Information Systems Inc.
    Copyright 2006 by Bull SAS
    All Rights Reserved
