	COMPILATION LISTING OF SEGMENT cv_fsdisk_error_
	Compiled by: Multics PL/I Compiler, Release 32f, of October 9, 1989
	Compiled at: Bull HN, Phoenix AZ, System-M
	Compiled on: 11/11/89  1007.3 mst Sat
	    Options: optimize map

        1 /****^  ***********************************************************
        2*        *                                                         *
        3*        * Copyright, (C) Honeywell Bull Inc., 1987                *
        4*        *                                                         *
        5*        * Copyright, (C) Honeywell Information Systems Inc., 1983 *
        6*        *                                                         *
        7*        *********************************************************** */
        8 /* CV_FSDISK_ERROR_ -- converts fsdisk_error_message to error_table_ */
        9 /* format: style2 */
       10
       11 cv_fsdisk_error_:
       12      procedure (Code);
       13
       14 	declare Code		 fixed binary (35);
       15
       16 /* format: off */
       17 	declare et_codes		 (1:9) fixed bin (35)
       18                   init (		 error_table_$fsdisk_pvtx_oob,
       19 				 error_table_$fsdisk_drive_in_use,
       20 				 error_table_$fsdisk_not_salv,
       21 				 error_table_$fsdisk_old_label,
       22 				 error_table_$fsdisk_old_vtoc,
       23 				 0,
       24 				 error_table_$fsdisk_phydev_err,
       25 				 error_table_$fsdisk_not_storage,
       26 				 error_table_$fsdisk_not_ready);
       27 /* format: on */
       28
       29 	declare (
       30 	        error_table_$fsdisk_pvtx_oob,
       31 	        error_table_$fsdisk_drive_in_use,
       32 	        error_table_$fsdisk_not_salv,
       33 	        error_table_$fsdisk_old_label,
       34 	        error_table_$fsdisk_old_vtoc,
       35 	        error_table_$fsdisk_phydev_err,
       36 	        error_table_$fsdisk_not_storage,
       37 	        error_table_$fsdisk_not_ready
       38 	        )			 fixed bin (35) external static;
       39 	if Code < 10 & Code > 0
       40 	then Code = et_codes (Code);
       41 	return;
       42      end cv_fsdisk_error_;
       43
       44
	SOURCE FILES USED IN THIS COMPILATION.

LINE      NUMBER  DATE MODIFIED     NAME			PATHNAME
             0    11/11/89  0803.9  cv_fsdisk_error_.pl1              >spec>install>1110>cv_fsdisk_error_.pl1
	NAMES DECLARED IN THIS COMPILATION.

IDENTIFIER	     OFFSET    LOC STORAGE CLASS   DATA TYPE		ATTRIBUTES AND REFERENCES
								(* indicates a set context)

NAMES DECLARED BY DECLARE STATEMENT.
Code                                   parameter       fixed bin(35,0)          dcl 14 set ref 11 39 39 39* 39
error_table_$fsdisk_drive_in_use
                                000012 external static fixed bin(35,0)          dcl 29 ref 17
error_table_$fsdisk_not_ready   000026 external static fixed bin(35,0)          dcl 29 ref 17
error_table_$fsdisk_not_salv    000014 external static fixed bin(35,0)          dcl 29 ref 17
error_table_$fsdisk_not_storage 000024 external static fixed bin(35,0)          dcl 29 ref 17
error_table_$fsdisk_old_label   000016 external static fixed bin(35,0)          dcl 29 ref 17
error_table_$fsdisk_old_vtoc    000020 external static fixed bin(35,0)          dcl 29 ref 17
error_table_$fsdisk_phydev_err  000022 external static fixed bin(35,0)          dcl 29 ref 17
error_table_$fsdisk_pvtx_oob    000010 external static fixed bin(35,0)          dcl 29 ref 17
et_codes                        000100 automatic       fixed bin(35,0)          initial array dcl 17 set ref 17* 17* 17* 17* 17* 17*
                                                                                  17* 17* 17* 39

NAME DECLARED BY EXPLICIT CONTEXT.
cv_fsdisk_error_                000004 constant        entry                    external dcl 11

THERE WERE NO NAMES DECLARED BY CONTEXT OR IMPLICATION.

STORAGE REQUIREMENTS FOR THIS PROGRAM.

	Object	Text	Link	Symbol	Defs	Static
Start          0       0       216         246      66         226
Length       424      66        30         141     127           0

BLOCK NAME	         STACK SIZE     TYPE		WHY NONQUICK/WHO SHARES STACK FRAME
cv_fsdisk_error_                     74 external procedure  is an external procedure.

STORAGE FOR AUTOMATIC VARIABLES.

STACK FRAME                 LOC IDENTIFIER                  BLOCK NAME
cv_fsdisk_error_         000100 et_codes                    cv_fsdisk_error_

THE FOLLOWING EXTERNAL OPERATORS ARE USED BY THIS PROGRAM.
return_mac          ext_entry

NO EXTERNAL ENTRIES ARE CALLED BY THIS PROGRAM.

THE FOLLOWING EXTERNAL VARIABLES ARE USED BY THIS PROGRAM.
error_table_$fsdisk_drive_in_use                            error_table_$fsdisk_not_ready error_table_$fsdisk_not_salv
error_table_$fsdisk_not_storage                             error_table_$fsdisk_old_label error_table_$fsdisk_old_vtoc
error_table_$fsdisk_phydev_err                              error_table_$fsdisk_pvtx_oob


   LINE    LOC      LINE    LOC      LINE    LOC      LINE    LOC      LINE    LOC      LINE    LOC      LINE    LOC
     11 000001        17 000011        39 000055        41 000065


                                          -----------------------------------------------------------


Historical Background

This edition of the Multics software materials and documentation is provided and donated
to Massachusetts Institute of Technology by Group BULL including BULL HN Information Systems Inc.
as a contribution to computer science knowledge.
This donation is made also to give evidence of the common contributions of Massachusetts Institute of Technology,
Bell Laboratories, General Electric, Honeywell Information Systems Inc., Honeywell BULL Inc., Groupe BULL
and BULL HN Information Systems Inc. to the development of this operating system.
Multics development was initiated by Massachusetts Institute of Technology Project MAC (1963-1970),
renamed the MIT Laboratory for Computer Science and Artificial Intelligence in the mid 1970s, under the leadership
of Professor Fernando Jose Corbato. Users consider that Multics provided the best software architecture
for managing computer hardware properly and for executing programs. Many subsequent operating systems
incorporated Multics principles.
Multics was distributed in 1975 to 2000 by Group Bull in Europe , and in the U.S. by Bull HN Information Systems Inc.,
as successor in interest by change in name only to Honeywell Bull Inc. and Honeywell Information Systems Inc. .

                                          -----------------------------------------------------------

Permission to use, copy, modify, and distribute these programs and their documentation for any purpose and without
fee is hereby granted,provided that the below copyright notice and historical background appear in all copies
and that both the copyright notice and historical background and this permission notice appear in supporting
documentation, and that the names of MIT, HIS, BULL or BULL HN not be used in advertising or publicity pertaining
to distribution of the programs without specific prior written permission.
    Copyright 1972 by Massachusetts Institute of Technology and Honeywell Information Systems Inc.
    Copyright 2006 by BULL HN Information Systems Inc.
    Copyright 2006 by Bull SAS
    All Rights Reserved
