ASSEMBLY LISTING OF SEGMENT >special_ldd>install>MR12.3-1114>cv_fstime_.alm
ASSEMBLED ON:	11/11/89  0933.9 mst Sat
OPTIONS USED:	-target l68                              list symbols
ASSEMBLED BY:	ALM Version 8.14 March 1989
ASSEMBLER CREATED:	06/09/89  1002.3 mst Fri

                                     1  " ***********************************************************
                                     2  " *                                                         *
                                     3  " * Copyright, (C) Honeywell Bull Inc., 1987                *
                                     4  " *                                                         *
                                     5  " * Copyright, (C) Honeywell Information Systems Inc., 1984 *
                                     6  " *                                                         *
                                     7  " ***********************************************************
                        000000       8  	segdef	cv_fstime_
                                     9  " convert a file-system form of 36-bit date into fixed bin (71)
                                    10  " Aug 1984 JAF	new
                                    11
    000000                          12  cv_fstime_:
    000000  aa   000000 2360 07     13  	ldq	0,dl
    000001  aa  0 00002 2351 20     14  	lda  	ap|2,*		"fstime
    000002  aa   000024 7730 00     15  	lrl  	20
    000003  aa  0 00004 7571 20     16  	staq 	ap|4,*
    000004  aa  7 00044 7101 20     17  	short_return
                                    18
                                    19  	end

NO LITERALS

NAME DEFINITIONS FOR ENTRY POINTS AND SEGDEFS

    000006  5a   000003 000000
    000007  5a   000026 600000
    000010  aa   000000 000000
    000011  55   000011 000002
    000012  5a   000002 400003
    000013  55   000006 000011
    000014  aa  012 143 166 137
    000015  aa  146 163 164 151
    000016  aa  155 145 137 000
    000017  55   000017 000003
    000020  0a   000000 400000
    000021  55   000014 000003
    000022  aa  012 143 166 137         cv_fstime_
    000023  aa  146 163 164 151
    000024  aa  155 145 137 000
    000025  55   000002 000011
    000026  6a   000000 400002
    000027  55   000022 000003
    000030  aa  014 163 171 155         symbol_table
    000031  aa  142 157 154 137
    000032  aa  164 141 142 154
    000033  aa  145 000 000 000

DEFINITIONS HASH TABLE

    000034  aa   000000 000015
    000035  aa   000000 000000
    000036  aa   000000 000000
    000037  aa   000000 000000
    000040  5a   000011 000000
    000041  aa   000000 000000
    000042  aa   000000 000000
    000043  5a   000017 000000
    000044  aa   000000 000000
    000045  aa   000000 000000
    000046  aa   000000 000000
    000047  aa   000000 000000
    000050  aa   000000 000000
    000051  aa   000000 000000

NO EXTERNAL NAMES

NO TRAP POINTER WORDS

TYPE PAIR BLOCKS

    000052  aa   000001 000000
    000053  aa   000000 000000

INTERNAL EXPRESSION WORDS

LINKAGE INFORMATION

    000000  aa   000000 000000
    000001  0a   000006 000000
    000002  aa   000000 000000
    000003  aa   000000 000000
    000004  aa   000000 000000
    000005  aa   000000 000000
    000006  22   000010 000010
    000007  a2   000000 000000
SYMBOL INFORMATION

SYMBOL TABLE HEADER

    000000  aa   000000 000001
    000001  aa   163171 155142
    000002  aa   164162 145145
    000003  aa   000000 000010
    000004  aa   000000 117244
    000005  aa   361023 525721
    000006  aa   000000 117547
    000007  aa   246401 312253
    000010  aa   141154 155040
    000011  aa   040040 040040
    000012  aa   000024 000040
    000013  aa   000034 000040
    000014  aa   000044 000100
    000015  aa   000002 000002
    000016  aa   000064 000000
    000017  aa   000000 000131
    000020  aa   000000 000106
    000021  aa   000114 000111
    000022  aa   000123 000106
    000023  aa   000064 000000
    000024  aa   101114 115040
    000025  aa   126145 162163
    000026  aa   151157 156040
    000027  aa   070056 061064
    000030  aa   040115 141162
    000031  aa   143150 040061
    000032  aa   071070 071040
    000033  aa   040040 040040
    000034  aa   110151 162156
    000035  aa   145151 163145
    000036  aa   156056 123171
    000037  aa   163115 141151
    000040  aa   156164 056141
    000041  aa   040040 040040
    000042  aa   040040 040040
    000043  aa   040040 040040
    000044  aa   055164 141162
    000045  aa   147145 164040
    000046  aa   154066 070040
    000047  aa   040040 040040
    000050  aa   040040 040040
    000051  aa   040040 040040
    000052  aa   040040 040040
    000053  aa   040040 040040
    000054  aa   040040 040040
    000055  aa   040040 040040
    000056  aa   040154 151163
    000057  aa   164040 163171
    000060  aa   155142 157154
    000061  aa   163040 040040
    000062  aa   040040 040040
    000063  aa   040040 040040
    000064  aa   000000 000001
    000065  aa   000000 000001
    000066  aa   000072 000057
    000067  aa   175453 021774
    000070  aa   000000 117547
    000071  aa   215321 600000
    000072  aa   076163 160145          >special_ldd>install>MR12.3-1114>cv_fstime_.alm
    000073  aa   143151 141154
    000074  aa   137154 144144
    000075  aa   076151 156163
    000076  aa   164141 154154
    000077  aa   076115 122061
    000100  aa   062056 063055
    000101  aa   061061 061064
    000102  aa   076143 166137
    000103  aa   146163 164151
    000104  aa   155145 137056
    000105  aa   141154 155040
               MULTICS ASSEMBLY CROSS REFERENCE LISTING

   Value        Symbol                   Source file   Line number

           0    cv_fstime_               cv_fstime_:     8,   12.


NO FATAL ERRORS


                                          -----------------------------------------------------------


Historical Background

This edition of the Multics software materials and documentation is provided and donated
to Massachusetts Institute of Technology by Group BULL including BULL HN Information Systems Inc.
as a contribution to computer science knowledge.
This donation is made also to give evidence of the common contributions of Massachusetts Institute of Technology,
Bell Laboratories, General Electric, Honeywell Information Systems Inc., Honeywell BULL Inc., Groupe BULL
and BULL HN Information Systems Inc. to the development of this operating system.
Multics development was initiated by Massachusetts Institute of Technology Project MAC (1963-1970),
renamed the MIT Laboratory for Computer Science and Artificial Intelligence in the mid 1970s, under the leadership
of Professor Fernando Jose Corbato. Users consider that Multics provided the best software architecture
for managing computer hardware properly and for executing programs. Many subsequent operating systems
incorporated Multics principles.
Multics was distributed in 1975 to 2000 by Group Bull in Europe , and in the U.S. by Bull HN Information Systems Inc.,
as successor in interest by change in name only to Honeywell Bull Inc. and Honeywell Information Systems Inc. .

                                          -----------------------------------------------------------

Permission to use, copy, modify, and distribute these programs and their documentation for any purpose and without
fee is hereby granted,provided that the below copyright notice and historical background appear in all copies
and that both the copyright notice and historical background and this permission notice appear in supporting
documentation, and that the names of MIT, HIS, BULL or BULL HN not be used in advertising or publicity pertaining
to distribution of the programs without specific prior written permission.
    Copyright 1972 by Massachusetts Institute of Technology and Honeywell Information Systems Inc.
    Copyright 2006 by BULL HN Information Systems Inc.
    Copyright 2006 by Bull SAS
    All Rights Reserved
