ASSEMBLY LISTING OF SEGMENT >special_ldd>install>MR12.3-1114>dn355_messages.alm
ASSEMBLED ON:	11/11/89  0954.6 mst Sat
OPTIONS USED:	-target l68                              list symbols
ASSEMBLED BY:	ALM Version 8.14 March 1989
ASSEMBLER CREATED:	06/09/89  1002.3 mst Fri

                                     1  " ***********************************************************
                                     2  " *                                                         *
                                     3  " * Copyright, (C) Honeywell Bull Inc., 1987                *
                                     4  " *                                                         *
                                     5  " * Copyright, (C) Honeywell Information Systems Inc., 1982 *
                                     6  " *                                                         *
                                     7  " * Copyright (c) 1972 by Massachusetts Institute of        *
                                     8  " * Technology and Honeywell Information Systems, Inc.      *
                                     9  " *                                                         *
                                    10  " ***********************************************************
    000000                          11  	name	dn355_messages
                        001345      12  	segdef	fault_names
                        000000      13  	segdef	per_module
                        001421      14  	segdef	error_messages
                        001573      15  	segdef	boot_messages
                        001664      16  	segdef	config_messages
                                    17
                                    18
                                    19  "
                                    20  "			a comment 'h' after a message means it may indicate
                                    21  "			a hardware error
                                    22
    000000                          23  per_module:
    000000  aa  163 143 150 145     24  	aci	'scheduler   '
    000001  aa  144 165 154 145
    000002  aa  162 040 040 040
    000003  a0   000000 000044      25  	zero	0,sked_messages
                                    26
    000004  aa  144 151 141 137     27  	aci	'dia_man     '
    000005  aa  155 141 156 040
    000006  aa  040 040 040 040
    000007  a0   000000 000046      28  	zero	0,dia_messages
                                    29
    000010  aa  151 156 164 145     30  	aci	'interpreter '
    000011  aa  162 160 162 145
    000012  aa  164 145 162 040
    000013  a0   000000 000074      31  	zero	0,intp_messages
                                    32
    000014  aa  165 164 151 154     33  	aci	'utilities   '
    000015  aa  151 164 151 145
    000016  aa  163 040 040 040
    000017  a0   000000 000116      34  	zero	0,util_messages
                                    35
    000020  aa  154 163 154 141     36  	aci	'lsla_man    '
    000021  aa  137 155 141 156
    000022  aa  040 040 040 040
    000023  a0   000000 000134      37  	zero	0,lsla_messages
                                    38
    000024  aa  150 163 154 141     39  	aci	'hsla_man    '
    000025  aa  137 155 141 156
    000026  aa  040 040 040 040
    000027  a0   000000 000147      40  	zero	0,hsla_messages
                                    41
    000030  aa  143 157 156 163     42  	aci	'console_man '
    000031  aa  157 154 145 137
    000032  aa  155 141 156 040
    000033  a0   000000 000164      43  	zero	0,cons_messages
                                    44
    000034  aa  164 162 141 143     45  	aci	'trace       '
    000035  aa  145 040 040 040
    000036  aa  040 040 040 040
    000037  a0   000000 000165      46  	zero	0,trac_messages
                                    47
    000040  aa  151 156 151 164     48  	aci	'init        '
    000041  aa  040 040 040 040
    000042  aa  040 040 040 040
    000043  a0   000000 000166      49  	zero	0,init_messages
                                    50
                                    51
                                    52
    000044                          53  sked_messages:
    000044  a0   000000 000205      54  	zero	0,sked_1
    000045  a0   000000 000214      55  	zero	0,sked_2
                                    56
    000046                          57  dia_messages:
    000046  a0   000000 000224      58  	zero	0,dia_1
    000047  a0   000000 000234      59  	zero	0,dia_2
    000050  a0   000000 000242      60  	zero	0,dia_3
    000051  a0   000000 000253      61  	zero	0,dia_4
    000052  a0   000000 000261      62  	zero	0,dia_5
    000053  a0   000000 000267      63  	zero	0,dia_6
    000054  a0   000000 000302      64  	zero	0,dia_7
    000055  a0   000000 000314      65  	zero	0,dia_8
    000056  a0   000000 000325      66  	zero	0,dia_9
    000057  a0   000000 000336      67  	zero	0,dia_10
    000060  a0   000000 000345      68  	zero	0,dia_11
    000061  a0   000000 000361      69  	zero	0,dia_12
    000062  a0   000000 000367      70  	zero	0,dia_13
    000063  a0   000000 000375      71  	zero	0,dia_14
    000064  a0   000000 000406      72  	zero	0,dia_15
    000065  a0   000000 000420      73  	zero	0,dia_16
    000066  a0   000000 000435      74  	zero	0,dia_17
    000067  a0   000000 000444      75  	zero	0,dia_18
    000070  a0   000000 000451      76  	zero	0,dia_19
    000071  a0   000000 000462      77  	zero	0,dia_20
    000072  a0   000000 000475      78  	zero	0,dia_21
    000073  a0   000000 000504      79  	zero	0,dia_22
                                    80
                                    81
    000074                          82  intp_messages:
    000074  a0   000000 000514      83  	zero	0,intp_1
    000075  a0   000000 000520      84  	zero	0,intp_2
    000076  a0   000000 000525      85  	zero	0,intp_3
    000077  a0   000000 000535      86  	zero	0,intp_4
    000100  a0   000000 000543      87  	zero	0,intp_5
    000101  a0   000000 000553      88  	zero	0,intp_6
    000102  a0   000000 000563      89  	zero	0,intp_7
    000103  a0   000000 000574      90  	zero	0,intp_8
    000104  a0   000000 000602      91  	zero	0,intp_9
    000105  a0   000000 000615      92  	zero	0,intp_10
    000106  a0   000000 000631      93  	zero	0,intp_11
    000107  a0   000000 000637      94  	zero	0,intp_12
    000110  a0   000000 000642      95  	zero	0,intp_13
    000111  a0   000000 000655      96  	zero	0,intp_14
    000112  a0   000000 000670      97  	zero	0,intp_15
    000113  a0   000000 000700      98  	zero	0,intp_16
    000114  a0   000000 000711      99  	zero	0,intp_17
    000115  a0   000000 000336     100  	zero	0,dia_10
                                   101
                                   102
    000116                         103  util_messages:
    000116  a0   000000 000724     104  	zero	0,util_1
    000117  a0   000000 000734     105  	zero	0,util_2
    000120  a0   000000 000746     106  	zero	0,util_3
    000121  a0   000000 000761     107  	zero	0,util_4
    000122  a0   000000 000772     108  	zero	0,util_5
    000123  a0   000000 001003     109  	zero	0,util_6
    000124  a0   000000 000563     110  	zero	0,intp_7
    000125  a0   000000 001012     111  	zero	0,util_8
    000126  a0   000000 001024     112  	zero	0,util_9
    000127  a0   000000 001035     113  	zero	0,util_10
    000130  a0   000000 001047     114  	zero	0,util_11
    000131  a0   000000 001061     115  	zero	0,util_12
    000132  a0   000000 001070     116  	zero	0,util_13
    000133  a0   000000 001105     117  	zero	0,util_14
                                   118
                                   119
    000134                         120  lsla_messages:
    000134  a0   000000 001246     121  	zero	0,lsla_1
    000135  a0   000000 001012     122  	zero	0,util_8
    000136  a0   000000 001024     123  	zero	0,util_9
    000137  a0   000000 001260     124  	zero	0,lsla_4
    000140  a0   000000 001273     125  	zero	0,lsla_5
    000141  a0   000000 000553     126  	zero	0,intp_6
    000142  a0   000000 000563     127  	zero	0,intp_7
    000143  a0   000000 001302     128  	zero	0,lsla_8
    000144  a0   000000 001311     129  	zero	0,lsla_9
    000145  a0   000000 000336     130  	zero	0,dia_10
    000146  a0   000000 001324     131  	zero	0,lsla_11
                                   132
                                   133
    000147                         134  hsla_messages:
    000147  a0   000000 001121     135  	zero	0,hsla_1
    000150  a0   000000 001131     136  	zero	0,hsla_2
    000151  a0   000000 001142     137  	zero	0,hsla_3
    000152  a0   000000 001155     138  	zero	0,hsla_4
    000153  a0   000000 001165     139  	zero	0,hsla_5
    000154  a0   000000 001172     140  	zero	0,hsla_6
    000155  a0   000000 001204     141  	zero	0,hsla_7
    000156  a0   000000 001213     142  	zero	0,hsla_8
    000157  a0   000000 000336     143  	zero	0,dia_10
    000160  a0   000000 001223     144  	zero	0,hsla_10
    000161  a0   000000 001337     145  	zero	0,no_message
    000162  a0   000000 001231     146  	zero	0,hsla_12
    000163  a0   000000 001241     147  	zero	0,hsla_13
                                   148
                                   149
    000164                         150  cons_messages:
    000164  a0   000000 001337     151  	zero	0,no_message
                                   152
                                   153
    000165                         154  trac_messages:
    000165  a0   000000 000336     155  	zero	0,dia_10
                                   156
                                   157
    000166                         158  init_messages:
    000166  a0   000000 000336     159  	zero	0,dia_10
    000167  a0   000000 001704     160  	zero	0,init_2
    000170  a0   000000 001713     161  	zero	0,init_3
    000171  a0   000000 001723     162  	zero	0,init_4
    000172  a0   000000 001730     163  	zero	0,init_5
    000173  a0   000000 001735     164  	zero	0,init_6
    000174  a0   000000 001337     165  	zero	0,no_message
    000175  a0   000000 001744     166  	zero	0,init_8
    000176  a0   000000 001763     167  	zero	0,init_9
    000177  a0   000000 001772     168  	zero	0,init_10
    000200  a0   000000 002003     169  	zero	0,init_11
    000201  a0   000000 002015     170  	zero	0,init_12
    000202  a0   000000 002025     171  	zero	0,init_13
    000203  a0   000000 002040     172  	zero	0,init_14
    000204  a0   000000 002051     173  	zero	0,init_15
                                   174
                                   175
    000205  aa  032 156 157 040    176  sked_1:	acc	'no buffers for delay queue'
    000206  aa  142 165 146 146
    000207  aa  145 162 163 040
    000210  aa  146 157 162 040
    000211  aa  144 145 154 141
    000212  aa  171 040 161 165
    000213  aa  145 165 145 000
    000214  aa  036 141 164 164    177  sked_2:	acc	'attempt to run missing routine'
    000215  aa  145 155 160 164
    000216  aa  040 164 157 040
    000217  aa  162 165 156 040
    000220  aa  155 151 163 163
    000221  aa  151 156 147 040
    000222  aa  162 157 165 164
    000223  aa  151 156 145 000
                                   178
                                   179
    000224  aa  035 155 141 151    180  dia_1:	acc	'mailbox wraparound queue full'
    000225  aa  154 142 157 170
    000226  aa  040 167 162 141
    000227  aa  160 141 162 157
    000230  aa  165 156 144 040
    000231  aa  161 165 145 165
    000232  aa  145 040 146 165
    000233  aa  154 154 000 000
    000234  aa  027 165 156 162    181  dia_2:	acc	'unrecoverable i/o error'	h
    000235  aa  145 143 157 166
    000236  aa  145 162 141 142
    000237  aa  154 145 040 151
    000240  aa  057 157 040 145
    000241  aa  162 162 157 162
    000242  aa  042 155 157 162    182  dia_3:	acc	'more than 5 consecutive i/o errors'	h
    000243  aa  145 040 164 150
    000244  aa  141 156 040 065
    000245  aa  040 143 157 156
    000246  aa  163 145 143 165
    000247  aa  164 151 166 145
    000250  aa  040 151 057 157
    000251  aa  040 145 162 162
    000252  aa  157 162 163 000
    000253  aa  025 151 156 166    183  dia_4:	acc	'invalid value for tcw'
    000254  aa  141 154 151 144
    000255  aa  040 166 141 154
    000256  aa  165 145 040 146
    000257  aa  157 162 040 164
    000260  aa  143 167 000 000
    000261  aa  027 155 141 151    184  dia_5:	acc	'mailbox queue count < 0'
    000262  aa  154 142 157 170
    000263  aa  040 161 165 145
    000264  aa  165 145 040 143
    000265  aa  157 165 156 164
    000266  aa  040 074 040 060
    000267  aa  052 151 156 166    185  dia_6:	acc	'invalid mailbox number in wraparound queue'
    000270  aa  141 154 151 144
    000271  aa  040 155 141 151
    000272  aa  154 142 157 170
    000273  aa  040 156 165 155
    000274  aa  142 145 162 040
    000275  aa  151 156 040 167
    000276  aa  162 141 160 141
    000277  aa  162 157 165 156
    000300  aa  144 040 161 165
    000301  aa  145 165 145 000
    000302  aa  045 063 040 143    186  dia_7:	acc	'3 consecutive mailbox checksum errors'	h
    000303  aa  157 156 163 145
    000304  aa  143 165 164 151
    000305  aa  166 145 040 155
    000306  aa  141 151 154 142
    000307  aa  157 170 040 143
    000310  aa  150 145 143 153
    000311  aa  163 165 155 040
    000312  aa  145 162 162 157
    000313  aa  162 163 000 000
    000314  aa  041 157 160 055    187  dia_8:	acc	'op-code not valid for i/o command'
    000315  aa  143 157 144 145
    000316  aa  040 156 157 164
    000317  aa  040 166 141 154
    000320  aa  151 144 040 146
    000321  aa  157 162 040 151
    000322  aa  057 157 040 143
    000323  aa  157 155 155 141
    000324  aa  156 144 000 000
    000325  aa  043 162 143 144    188  dia_9:	acc	'rcd processed with no queue entries'
    000326  aa  040 160 162 157
    000327  aa  143 145 163 163
    000330  aa  145 144 040 167
    000331  aa  151 164 150 040
    000332  aa  156 157 040 161
    000333  aa  165 145 165 145
    000334  aa  040 145 156 164
    000335  aa  162 151 145 163
    000336  aa  030 142 165 146    189  dia_10:	acc	'buffer allocation failed'
    000337  aa  146 145 162 040
    000340  aa  141 154 154 157
    000341  aa  143 141 164 151
    000342  aa  157 156 040 146
    000343  aa  141 151 154 145
    000344  aa  144 000 000 000
    000345  aa  054 154 141 163    190  dia_11:	acc	'last buffer in input chain lacks "last" flag'
    000346  aa  164 040 142 165
    000347  aa  146 146 145 162
    000350  aa  040 151 156 040
    000351  aa  151 156 160 165
    000352  aa  164 040 143 150
    000353  aa  141 151 156 040
    000354  aa  154 141 143 153
    000355  aa  163 040 042 154
    000356  aa  141 163 164 042
    000357  aa  040 146 154 141
    000360  aa  147 000 000 000
    000361  aa  027 164 141 154    191  dia_12:	acc	'tally for rtx too small'
    000362  aa  154 171 040 146
    000363  aa  157 162 040 162
    000364  aa  164 170 040 164
    000365  aa  157 157 040 163
    000366  aa  155 141 154 154
    000367  aa  027 164 141 154    192  dia_13:	acc	'tally for rtx too large'
    000370  aa  154 171 040 146
    000371  aa  157 162 040 162
    000372  aa  164 170 040 164
    000373  aa  157 157 040 154
    000374  aa  141 162 147 145
    000375  aa  042 141 164 164    193  dia_14:	acc	'attempt to lock already locked dia'
    000376  aa  145 155 160 164
    000377  aa  040 164 157 040
    000400  aa  154 157 143 153
    000401  aa  040 141 154 162
    000402  aa  145 141 144 171
    000403  aa  040 154 157 143
    000404  aa  153 145 144 040
    000405  aa  144 151 141 000
    000406  aa  046 141 164 164    194  dia_15:	acc	'attempt to unlock already unlocked dia'
    000407  aa  145 155 160 164
    000410  aa  040 164 157 040
    000411  aa  165 156 154 157
    000412  aa  143 153 040 141
    000413  aa  154 162 145 141
    000414  aa  144 171 040 165
    000415  aa  156 154 157 143
    000416  aa  153 145 144 040
    000417  aa  144 151 141 000
    000420  aa  063 162 164 170    195  dia_16:	acc	'rtx in mailbox, next queue element not accept input'
    000421  aa  040 151 156 040
    000422  aa  155 141 151 154
    000423  aa  142 157 170 054
    000424  aa  040 156 145 170
    000425  aa  164 040 161 165
    000426  aa  145 165 145 040
    000427  aa  145 154 145 155
    000430  aa  145 156 164 040
    000431  aa  156 157 164 040
    000432  aa  141 143 143 145
    000433  aa  160 164 040 151
    000434  aa  156 160 165 164
    000435  aa  030 165 156 162    196  dia_17:	acc	'unrecognized i/o command'
    000436  aa  145 143 157 147
    000437  aa  156 151 172 145
    000440  aa  144 040 151 057
    000441  aa  157 040 143 157
    000442  aa  155 155 141 156
    000443  aa  144 000 000 000
    000444  aa  021 156 157 040    197  dia_18:	acc	'no dia configured'
    000445  aa  144 151 141 040
    000446  aa  143 157 156 146
    000447  aa  151 147 165 162
    000450  aa  145 144 000 000
    000451  aa  040 141 143 143    198  dia_19:	acc	'accept input when no input chain'
    000452  aa  145 160 164 040
    000453  aa  151 156 160 165
    000454  aa  164 040 167 150
    000455  aa  145 156 040 156
    000456  aa  157 040 151 156
    000457  aa  160 165 164 040
    000460  aa  143 150 141 151
    000461  aa  156 000 000 000
    000462  aa  050 141 164 164    199  dia_20:	acc	'attempt to chain to invalid output chain'
    000463  aa  145 155 160 164
    000464  aa  040 164 157 040
    000465  aa  143 150 141 151
    000466  aa  156 040 164 157
    000467  aa  040 151 156 166
    000470  aa  141 154 151 144
    000471  aa  040 157 165 164
    000472  aa  160 165 164 040
    000473  aa  143 150 141 151
    000474  aa  156 000 000 000
    000475  aa  033 151 156 160    200  dia_21:	acc	'input buffer had zero tally'
    000476  aa  165 164 040 142
    000477  aa  165 146 146 145
    000500  aa  162 040 150 141
    000501  aa  144 040 172 145
    000502  aa  162 157 040 164
    000503  aa  141 154 154 171
    000504  aa  035 156 157 040    201  dia_22:	acc	'no entry for line in tib list'
    000505  aa  145 156 164 162
    000506  aa  171 040 146 157
    000507  aa  162 040 154 151
    000510  aa  156 145 040 151
    000511  aa  156 040 164 151
    000512  aa  142 040 154 151
    000513  aa  163 164 000 000
                                   202
                                   203
    000514  aa  017 170 061 040    204  intp_1:	acc	'x1 = 0 at entry'
    000515  aa  075 040 060 040
    000516  aa  141 164 040 145
    000517  aa  156 164 162 171
    000520  aa  022 164 056 143    205  intp_2:	acc	't.cur = 0 at entry'
    000521  aa  165 162 040 075
    000522  aa  040 060 040 141
    000523  aa  164 040 145 156
    000524  aa  164 162 171 000
    000525  aa  035 143 141 154    206  intp_3:	acc	'called when not at wait block'
    000526  aa  154 145 144 040
    000527  aa  167 150 145 156
    000530  aa  040 156 157 164
    000531  aa  040 141 164 040
    000532  aa  167 141 151 164
    000533  aa  040 142 154 157
    000534  aa  143 153 000 000
    000535  aa  027 164 171 160    207  intp_4:	acc	'type not of form 777xxx'
    000536  aa  145 040 156 157
    000537  aa  164 040 157 146
    000540  aa  040 146 157 162
    000541  aa  155 040 067 067
    000542  aa  067 170 170 170
    000543  aa  035 164 162 151    208  intp_5:	acc	'tried to execute status block'
    000544  aa  145 144 040 164
    000545  aa  157 040 145 170
    000546  aa  145 143 165 164
    000547  aa  145 040 163 164
    000550  aa  141 164 165 163
    000551  aa  040 142 154 157
    000552  aa  143 153 000 000
    000553  aa  037 165 156 162    209  intp_6:	acc	'unrecognized sub-op in dcw list'
    000554  aa  145 143 157 147
    000555  aa  156 151 172 145
    000556  aa  144 040 163 165
    000557  aa  142 055 157 160
    000560  aa  040 151 156 040
    000561  aa  144 143 167 040
    000562  aa  154 151 163 164
    000563  aa  041 157 165 164    210  intp_7:	acc	'outmsg not followed by output_end'
    000564  aa  155 163 147 040
    000565  aa  156 157 164 040
    000566  aa  146 157 154 154
    000567  aa  157 167 145 144
    000570  aa  040 142 171 040
    000571  aa  157 165 164 160
    000572  aa  165 164 137 145
    000573  aa  156 144 000 000
    000574  aa  025 165 156 162    211  intp_8:	acc	'unrecognized op block'
    000575  aa  145 143 157 147
    000576  aa  156 151 172 145
    000577  aa  144 040 157 160
    000600  aa  040 142 154 157
    000601  aa  143 153 000 000
    000602  aa  053 163 164 141    212  intp_9:	acc	'started block check while check in progress'
    000603  aa  162 164 145 144
    000604  aa  040 142 154 157
    000605  aa  143 153 040 143
    000606  aa  150 145 143 153
    000607  aa  040 167 150 151
    000610  aa  154 145 040 143
    000611  aa  150 145 143 153
    000612  aa  040 151 156 040
    000613  aa  160 162 157 147
    000614  aa  162 145 163 163
    000615  aa  055 143 157 155    213  intp_10:	acc	'compare block check without start block check'
    000616  aa  160 141 162 145
    000617  aa  040 142 154 157
    000620  aa  143 153 040 143
    000621  aa  150 145 143 153
    000622  aa  040 167 151 164
    000623  aa  150 157 165 164
    000624  aa  040 163 164 141
    000625  aa  162 164 040 142
    000626  aa  154 157 143 153
    000627  aa  040 143 150 145
    000630  aa  143 153 000 000
    000631  aa  026 165 156 162    214  intp_11:	acc	'unrecognized scan type'
    000632  aa  145 143 157 147
    000633  aa  156 151 172 145
    000634  aa  144 040 163 143
    000635  aa  141 156 040 164
    000636  aa  171 160 145 000
    000637  aa  013 164 056 164    215  intp_12:	acc	't.type <= 0'
    000640  aa  171 160 145 040
    000641  aa  074 075 040 060
    000642  aa  050 145 162 162    216  intp_13:	acc	'error in use of calsub, retsub op blocks'
    000643  aa  157 162 040 151
    000644  aa  156 040 165 163
    000645  aa  145 040 157 146
    000646  aa  040 143 141 154
    000647  aa  163 165 142 054
    000650  aa  040 162 145 164
    000651  aa  163 165 142 040
    000652  aa  157 160 040 142
    000653  aa  154 157 143 153
    000654  aa  163 000 000 000
    000655  aa  050 145 162 162    217  intp_14:	acc	'error in use of getext, retext op blocks'
    000656  aa  157 162 040 151
    000657  aa  156 040 165 163
    000660  aa  145 040 157 146
    000661  aa  040 147 145 164
    000662  aa  145 170 164 054
    000663  aa  040 162 145 164
    000664  aa  145 170 164 040
    000665  aa  157 160 040 142
    000666  aa  154 157 143 153
    000667  aa  163 000 000 000
    000670  aa  034 145 162 162    218  intp_15:	acc	'error in scan control string'
    000671  aa  157 162 040 151
    000672  aa  156 040 163 143
    000673  aa  141 156 040 143
    000674  aa  157 156 164 162
    000675  aa  157 154 040 163
    000676  aa  164 162 151 156
    000677  aa  147 000 000 000
    000700  aa  040 151 156 166    219  intp_16:	acc	'invalid sub-op list to config op'
    000701  aa  141 154 151 144
    000702  aa  040 163 165 142
    000703  aa  055 157 160 040
    000704  aa  154 151 163 164
    000705  aa  040 164 157 040
    000706  aa  143 157 156 146
    000707  aa  151 147 040 157
    000710  aa  160 000 000 000
    000711  aa  051 162 145 160    220  intp_17:	acc	'replay attempted with active output chain'
    000712  aa  154 141 171 040
    000713  aa  141 164 164 145
    000714  aa  155 160 164 145
    000715  aa  144 040 167 151
    000716  aa  164 150 040 141
    000717  aa  143 164 151 166
    000720  aa  145 040 157 165
    000721  aa  164 160 165 164
    000722  aa  040 143 150 141
    000723  aa  151 156 000 000
                                   221
                                   222
    000724  aa  035 142 165 146    223  util_1:	acc	'buffer of size <= 0 requested'
    000725  aa  146 145 162 040
    000726  aa  157 146 040 163
    000727  aa  151 172 145 040
    000730  aa  074 075 040 060
    000731  aa  040 162 145 161
    000732  aa  165 145 163 164
    000733  aa  145 144 000 000
    000734  aa  046 142 165 146    224  util_2:	acc	'buffer of more than max size requested'
    000735  aa  146 145 162 040
    000736  aa  157 146 040 155
    000737  aa  157 162 145 040
    000740  aa  164 150 141 156
    000741  aa  040 155 141 170
    000742  aa  040 163 151 172
    000743  aa  145 040 162 145
    000744  aa  161 165 145 163
    000745  aa  164 145 144 000
    000746  aa  052 164 162 151    225  util_3:	acc	'tried to free buffer with address < .crbuf'
    000747  aa  145 144 040 164
    000750  aa  157 040 146 162
    000751  aa  145 145 040 142
    000752  aa  165 146 146 145
    000753  aa  162 040 167 151
    000754  aa  164 150 040 141
    000755  aa  144 144 162 145
    000756  aa  163 163 040 074
    000757  aa  040 056 143 162
    000760  aa  142 165 146 000
    000761  aa  040 164 162 151    226  util_4:	acc	'tried to free space already free'
    000762  aa  145 144 040 164
    000763  aa  157 040 146 162
    000764  aa  145 145 040 163
    000765  aa  160 141 143 145
    000766  aa  040 141 154 162
    000767  aa  145 141 144 171
    000770  aa  040 146 162 145
    000771  aa  145 000 000 000
    000772  aa  042 141 144 144    227  util_5:	acc	'address in block pointer too large'
    000773  aa  162 145 163 163
    000774  aa  040 151 156 040
    000775  aa  142 154 157 143
    000776  aa  153 040 160 157
    000777  aa  151 156 164 145
    001000  aa  162 040 164 157
    001001  aa  157 040 154 141
    001002  aa  162 147 145 000
    001003  aa  030 151 156 166    228  util_6:	acc	'invalid interrupt vector'
    001004  aa  141 154 151 144
    001005  aa  040 151 156 164
    001006  aa  145 162 162 165
    001007  aa  160 164 040 166
    001010  aa  145 143 164 157
    001011  aa  162 000 000 000
    001012  aa  045 153 171 142    229  util_8:	acc	'kybd/prtr addressing with control set'
    001013  aa  144 057 160 162
    001014  aa  164 162 040 141
    001015  aa  144 144 162 145
    001016  aa  163 163 151 156
    001017  aa  147 040 167 151
    001020  aa  164 150 040 143
    001021  aa  157 156 164 162
    001022  aa  157 154 040 163
    001023  aa  145 164 000 000
    001024  aa  042 165 156 162    230  util_9:	acc	'unrecognized type in output sub-op'
    001025  aa  145 143 157 147
    001026  aa  156 151 172 145
    001027  aa  144 040 164 171
    001030  aa  160 145 040 151
    001031  aa  156 040 157 165
    001032  aa  164 160 165 164
    001033  aa  040 163 165 142
    001034  aa  055 157 160 000
    001035  aa  044 143 157 165    231  util_10:	acc	'could not allocate buffer for output'
    001036  aa  154 144 040 156
    001037  aa  157 164 040 141
    001040  aa  154 154 157 143
    001041  aa  141 164 145 040
    001042  aa  142 165 146 146
    001043  aa  145 162 040 146
    001044  aa  157 162 040 157
    001045  aa  165 164 160 165
    001046  aa  164 000 000 000
    001047  aa  044 164 056 157    232  util_11:	acc	't.olst -> buffer has forward pointer'
    001050  aa  154 163 164 040
    001051  aa  055 076 040 142
    001052  aa  165 146 146 145
    001053  aa  162 040 150 141
    001054  aa  163 040 146 157
    001055  aa  162 167 141 162
    001056  aa  144 040 160 157
    001057  aa  151 156 164 145
    001060  aa  162 000 000 000
    001061  aa  031 146 162 145    233  util_12:	acc	'free block size too large'
    001062  aa  145 040 142 154
    001063  aa  157 143 153 040
    001064  aa  163 151 172 145
    001065  aa  040 164 157 157
    001066  aa  040 154 141 162
    001067  aa  147 145 000 000
    001070  aa  060 141 164 164    234  util_13:	acc	'attempt to append output to single-message chain'
    001071  aa  145 155 160 164
    001072  aa  040 164 157 040
    001073  aa  141 160 160 145
    001074  aa  156 144 040 157
    001075  aa  165 164 160 165
    001076  aa  164 040 164 157
    001077  aa  040 163 151 156
    001100  aa  147 154 145 055
    001101  aa  155 145 163 163
    001102  aa  141 147 145 040
    001103  aa  143 150 141 151
    001104  aa  156 000 000 000
    001105  aa  054 141 164 164    235  util_14:	acc	'attempt to move data with an invalid address'
    001106  aa  145 155 160 164
    001107  aa  040 164 157 040
    001110  aa  155 157 166 145
    001111  aa  040 144 141 164
    001112  aa  141 040 167 151
    001113  aa  164 150 040 141
    001114  aa  156 040 151 156
    001115  aa  166 141 154 151
    001116  aa  144 040 141 144
    001117  aa  144 162 145 163
    001120  aa  163 000 000 000
                                   236
                                   237
    001121  aa  037 141 164 164    238  hsla_1:	acc	'attempt to modify loc < 1000(8)'
    001122  aa  145 155 160 164
    001123  aa  040 164 157 040
    001124  aa  155 157 144 151
    001125  aa  146 171 040 154
    001126  aa  157 143 040 074
    001127  aa  040 061 060 060
    001130  aa  060 050 070 051
    001131  aa  040 143 157 156    239  hsla_2:	acc	'config op is invalid for channel'
    001132  aa  146 151 147 040
    001133  aa  157 160 040 151
    001134  aa  163 040 151 156
    001135  aa  166 141 154 151
    001136  aa  144 040 146 157
    001137  aa  162 040 143 150
    001140  aa  141 156 156 145
    001141  aa  154 000 000 000
    001142  aa  052 162 145 141    240  hsla_3:	acc	'read tally started with active input chain'
    001143  aa  144 040 164 141
    001144  aa  154 154 171 040
    001145  aa  163 164 141 162
    001146  aa  164 145 144 040
    001147  aa  167 151 164 150
    001150  aa  040 141 143 164
    001151  aa  151 166 145 040
    001152  aa  151 156 160 165
    001153  aa  164 040 143 150
    001154  aa  141 151 156 000
    001155  aa  035 162 145 143    241  hsla_4:	acc	'receive transfer timing error'	h
    001156  aa  145 151 166 145
    001157  aa  040 164 162 141
    001160  aa  156 163 146 145
    001161  aa  162 040 164 151
    001162  aa  155 151 156 147
    001163  aa  040 145 162 162
    001164  aa  157 162 000 000
    001165  aa  022 151 156 160    242  hsla_5:	acc	'input tally runout'
    001166  aa  165 164 040 164
    001167  aa  141 154 154 171
    001170  aa  040 162 165 156
    001171  aa  157 165 164 000
    001172  aa  046 165 156 141    243  hsla_6:	acc	'unable to find cct for modes requested'
    001173  aa  142 154 145 040
    001174  aa  164 157 040 146
    001175  aa  151 156 144 040
    001176  aa  143 143 164 040
    001177  aa  146 157 162 040
    001200  aa  155 157 144 145
    001201  aa  163 040 162 145
    001202  aa  161 165 145 163
    001203  aa  164 145 144 000
    001204  aa  032 170 155 151    244  hsla_7:	acc	'xmit transfer timing error'	h
    001205  aa  164 040 164 162
    001206  aa  141 156 163 146
    001207  aa  145 162 040 164
    001210  aa  151 155 151 156
    001211  aa  147 040 145 162
    001212  aa  162 157 162 000
    001213  aa  034 150 144 143    245  hsla_8:	acc	'hdcw called with no dcw list'
    001214  aa  167 040 143 141
    001215  aa  154 154 145 144
    001216  aa  040 167 151 164
    001217  aa  150 040 156 157
    001220  aa  040 144 143 167
    001221  aa  040 154 151 163
    001222  aa  164 000 000 000
    001223  aa  025 156 157 040    246  hsla_10:	acc	'no sfcm addr for line'
    001224  aa  163 146 143 155
    001225  aa  040 141 144 144
    001226  aa  162 040 146 157
    001227  aa  162 040 154 151
    001230  aa  156 145 000 000
    001231  aa  034 150 157 165    247  hsla_12:	acc	'houtav called with bad chain'
    001232  aa  164 141 166 040
    001233  aa  143 141 154 154
    001234  aa  145 144 040 167
    001235  aa  151 164 150 040
    001236  aa  142 141 144 040
    001237  aa  143 150 141 151
    001240  aa  156 000 000 000
    001241  aa  023 151 156 166    248  hsla_13:	acc	'invalid hsla status'
    001242  aa  141 154 151 144
    001243  aa  040 150 163 154
    001244  aa  141 040 163 164
    001245  aa  141 164 165 163
                                   249
                                   250
    001246  aa  044 156 157 164    251  lsla_1:	acc	'not in xmit mode after output sub-op'
    001247  aa  040 151 156 040
    001250  aa  170 155 151 164
    001251  aa  040 155 157 144
    001252  aa  145 040 141 146
    001253  aa  164 145 162 040
    001254  aa  157 165 164 160
    001255  aa  165 164 040 163
    001256  aa  165 142 055 157
    001257  aa  160 000 000 000
    001260  aa  050 155 157 162    252  lsla_4:	acc	'more than 10 successive re-sync attempts'
    001261  aa  145 040 164 150
    001262  aa  141 156 040 061
    001263  aa  060 040 163 165
    001264  aa  143 143 145 163
    001265  aa  163 151 166 145
    001266  aa  040 162 145 055
    001267  aa  163 171 156 143
    001270  aa  040 141 164 164
    001271  aa  145 155 160 164
    001272  aa  163 000 000 000
    001273  aa  032 163 145 156    253  lsla_5:	acc	'send transfer timing error'	h
    001274  aa  144 040 164 162
    001275  aa  141 156 163 146
    001276  aa  145 162 040 164
    001277  aa  151 155 151 156
    001300  aa  147 040 145 162
    001301  aa  162 157 162 000
    001302  aa  033 165 156 162    254  lsla_8:	acc	'unrecognized receive status'
    001303  aa  145 143 157 147
    001304  aa  156 151 172 145
    001305  aa  144 040 162 145
    001306  aa  143 145 151 166
    001307  aa  145 040 163 164
    001310  aa  141 164 165 163
    001311  aa  051 151 156 160    255  lsla_9:	acc	'input icw status does not agree with flag'
    001312  aa  165 164 040 151
    001313  aa  143 167 040 163
    001314  aa  164 141 164 165
    001315  aa  163 040 144 157
    001316  aa  145 163 040 156
    001317  aa  157 164 040 141
    001320  aa  147 162 145 145
    001321  aa  040 167 151 164
    001322  aa  150 040 146 154
    001323  aa  141 147 000 000
    001324  aa  052 157 165 164    256  lsla_11:	acc	'output icw status does not agree with flag'
    001325  aa  160 165 164 040
    001326  aa  151 143 167 040
    001327  aa  163 164 141 164
    001330  aa  165 163 040 144
    001331  aa  157 145 163 040
    001332  aa  156 157 164 040
    001333  aa  141 147 162 145
    001334  aa  145 040 167 151
    001335  aa  164 150 040 146
    001336  aa  154 141 147 000
                                   257
                                   258
    001337                         259  no_message:
    001337  aa  027 165 156 162    260  	acc	'unrecognized error code'
    001340  aa  145 143 157 147
    001341  aa  156 151 172 145
    001342  aa  144 040 145 162
    001343  aa  162 157 162 040
    001344  aa  143 157 144 145
                                   261
                                   262
                                   263
    001345                         264  fault_names:
    001345  aa  156 157 156 145    265  	aci	'none            '
    001346  aa  040 040 040 040
    001347  aa  040 040 040 040
    001350  aa  040 040 040 040
    001351  aa  160 157 167 145    266  	aci	'power on        '
    001352  aa  162 040 157 156
    001353  aa  040 040 040 040
    001354  aa  040 040 040 040
    001355  aa  155 145 155 157    267  	aci	'memory parity   '
    001356  aa  162 171 040 160
    001357  aa  141 162 151 164
    001360  aa  171 040 040 040
    001361  aa  151 154 154 145    268  	aci	'illegal opcode  '
    001362  aa  147 141 154 040
    001363  aa  157 160 143 157
    001364  aa  144 145 040 040
    001365  aa  157 166 145 162    269  	aci	'overflow        '
    001366  aa  146 154 157 167
    001367  aa  040 040 040 040
    001370  aa  040 040 040 040
    001371  aa  163 164 157 162    270  	aci	'store fault     '
    001372  aa  145 040 146 141
    001373  aa  165 154 164 040
    001374  aa  040 040 040 040
    001375  aa  144 151 166 151    271  	aci	'divide check    '
    001376  aa  144 145 040 143
    001377  aa  150 145 143 153
    001400  aa  040 040 040 040
    001401  aa  151 154 154 145    272  	aci	'illegal int     '
    001402  aa  147 141 154 040
    001403  aa  151 156 164 040
    001404  aa  040 040 040 040
    001405  aa  145 170 164 162    273  	aci	'extraneous int  '
    001406  aa  141 156 145 157
    001407  aa  165 163 040 151
    001410  aa  156 164 040 040
    001411  aa  151 157 155 040    274  	aci	'iom chan fault  '
    001412  aa  143 150 141 156
    001413  aa  040 146 141 165
    001414  aa  154 164 040 040
    001415  aa  143 157 156 163    275  	aci	'console abort   '
    001416  aa  157 154 145 040
    001417  aa  141 142 157 162
    001420  aa  164 040 040 040
                                   276
                                   277
    001421                         278  error_messages:
    001421  a0   000000 001433     279  	zero	0,msg1
    001422  a0   000000 001450     280  	zero	0,msg2
    001423  a0   000000 001460     281  	zero	0,msg3
    001424  a0   000000 001470     282  	zero	0,msg4
    001425  a0   000000 001506     283  	zero	0,msg5
    001426  a0   000000 001525     284  	zero	0,msg6
    001427  a0   000000 001543     285  	zero	0,msg7
    001430  a0   000000 001551     286  	zero	0,msg8
    001431  a0   000000 001557     287  	zero	0,msg9
    001432  a0   000000 001565     288  	zero	0,msg10
                                   289
    001433  aa  063 106 116 120    290  msg1:	acc	'FNP iom channel fault, channel ^o, fault status ^6w'	h
    001434  aa  040 151 157 155
    001435  aa  040 143 150 141
    001436  aa  156 156 145 154
    001437  aa  040 146 141 165
    001440  aa  154 164 054 040
    001441  aa  143 150 141 156
    001442  aa  156 145 154 040
    001443  aa  136 157 054 040
    001444  aa  146 141 165 154
    001445  aa  164 040 163 164
    001446  aa  141 164 165 163
    001447  aa  040 136 066 167
    001450  aa  035 144 151 141    291  msg2:	acc	'dia i/o error, status ^6w ^6w'	h
    001451  aa  040 151 057 157
    001452  aa  040 145 162 162
    001453  aa  157 162 054 040
    001454  aa  163 164 141 164
    001455  aa  165 163 040 136
    001456  aa  066 167 040 136
    001457  aa  066 167 000 000
    001460  aa  034 141 142 156    292  msg3:	acc	'abnormal lsla status ^6w ^6w'	h
    001461  aa  157 162 155 141
    001462  aa  154 040 154 163
    001463  aa  154 141 040 163
    001464  aa  164 141 164 165
    001465  aa  163 040 136 066
    001466  aa  167 040 136 066
    001467  aa  167 000 000 000
    001470  aa  067 145 170 143    293  msg4:	acc	'excessive hsla interrupts, line ^o, attempting recovery'	h
    001471  aa  145 163 163 151
    001472  aa  166 145 040 150
    001473  aa  163 154 141 040
    001474  aa  151 156 164 145
    001475  aa  162 162 165 160
    001476  aa  164 163 054 040
    001477  aa  154 151 156 145
    001500  aa  040 136 157 054
    001501  aa  040 141 164 164
    001502  aa  145 155 160 164
    001503  aa  151 156 147 040
    001504  aa  162 145 143 157
    001505  aa  166 145 162 171
    001506  aa  070 164 162 157    294  msg5:	acc	'trouble synchronizing lsla ^o, some lines may not answer'	h
    001507  aa  165 142 154 145
    001510  aa  040 163 171 156
    001511  aa  143 150 162 157
    001512  aa  156 151 172 151
    001513  aa  156 147 040 154
    001514  aa  163 154 141 040
    001515  aa  136 157 054 040
    001516  aa  163 157 155 145
    001517  aa  040 154 151 156
    001520  aa  145 163 040 155
    001521  aa  141 171 040 156
    001522  aa  157 164 040 141
    001523  aa  156 163 167 145
    001524  aa  162 000 000 000
    001525  aa  064 162 165 156    295  msg6:	acc	'runaway hsla subchannel, line ^o, masking subchannel'	h
    001526  aa  141 167 141 171
    001527  aa  040 150 163 154
    001530  aa  141 040 163 165
    001531  aa  142 143 150 141
    001532  aa  156 156 145 154
    001533  aa  054 040 154 151
    001534  aa  156 145 040 136
    001535  aa  157 054 040 155
    001536  aa  141 163 153 151
    001537  aa  156 147 040 163
    001540  aa  165 142 143 150
    001541  aa  141 156 156 145
    001542  aa  154 000 000 000
    001543  aa  027 165 156 162    296  msg7:	acc	'unrecognized error code'
    001544  aa  145 143 157 147
    001545  aa  156 151 172 145
    001546  aa  144 040 145 162
    001547  aa  162 157 162 040
    001550  aa  143 157 144 145
    001551  aa  027 165 156 162    297  msg8:	acc	'unrecognized error code'
    001552  aa  145 143 157 147
    001553  aa  156 151 172 145
    001554  aa  144 040 145 162
    001555  aa  162 157 162 040
    001556  aa  143 157 144 145
    001557  aa  027 165 156 162    298  msg9:	acc	'unrecognized error code'
    001560  aa  145 143 157 147
    001561  aa  156 151 172 145
    001562  aa  144 040 145 162
    001563  aa  162 157 162 040
    001564  aa  143 157 144 145
    001565  aa  027 165 156 162    299  msg10:	acc	'unrecognized error code'
    001566  aa  145 143 157 147
    001567  aa  156 151 172 145
    001570  aa  144 040 145 162
    001571  aa  162 157 162 040
    001572  aa  143 157 144 145
                                   300
                                   301
    001573                         302  boot_messages:
    001573  a0   000000 001600     303  	zero	0,boot_ok
    001574  a0   000000 001607     304  	zero	0,boot_checksum
    001575  a0   000000 001621     305  	zero	0,boot_read_err
    001576  a0   000000 001632     306  	zero	0,boot_gicb_err
    001577  a0   000000 001652     307  	zero	0,boot_config_err
                                   308
    001600  aa  032 106 116 120    309  boot_ok:	acc	'FNP ^a loaded successfully'
    001601  aa  040 136 141 040
    001602  aa  154 157 141 144
    001603  aa  145 144 040 163
    001604  aa  165 143 143 145
    001605  aa  163 163 146 165
    001606  aa  154 154 171 000
    001607                         310  boot_checksum:
    001607  aa  047 143 150 145    311  	acc	'checksum error in core image for FNP ^a'
    001610  aa  143 153 163 165
    001611  aa  155 040 145 162
    001612  aa  162 157 162 040
    001613  aa  151 156 040 143
    001614  aa  157 162 145 040
    001615  aa  151 155 141 147
    001616  aa  145 040 146 157
    001617  aa  162 040 106 116
    001620  aa  120 040 136 141
    001621                         312  boot_read_err:
    001621  aa  043 145 162 162    313  	acc	'error reading core image for FNP ^a'
    001622  aa  157 162 040 162
    001623  aa  145 141 144 151
    001624  aa  156 147 040 143
    001625  aa  157 162 145 040
    001626  aa  151 155 141 147
    001627  aa  145 040 146 157
    001630  aa  162 040 106 116
    001631  aa  120 040 136 141
    001632                         314  boot_gicb_err:
    001632  aa  076 143 157 156    315  	acc	'configuration error reported by bootloading program for FNP ^a'
    001633  aa  146 151 147 165
    001634  aa  162 141 164 151
    001635  aa  157 156 040 145
    001636  aa  162 162 157 162
    001637  aa  040 162 145 160
    001640  aa  157 162 164 145
    001641  aa  144 040 142 171
    001642  aa  040 142 157 157
    001643  aa  164 154 157 141
    001644  aa  144 151 156 147
    001645  aa  040 160 162 157
    001646  aa  147 162 141 155
    001647  aa  040 146 157 162
    001650  aa  040 106 116 120
    001651  aa  040 136 141 000
    001652                         316  boot_config_err:
    001652  aa  047 143 157 156    317  	acc	'configuration error reported by FNP ^a:'
    001653  aa  146 151 147 165
    001654  aa  162 141 164 151
    001655  aa  157 156 040 145
    001656  aa  162 162 157 162
    001657  aa  040 162 145 160
    001660  aa  157 162 164 145
    001661  aa  144 040 142 171
    001662  aa  040 106 116 120
    001663  aa  040 136 141 072
                                   318
                                   319
    001664                         320  config_messages:
    001664  a0   000000 002061     321  	zero	0,bad_init
    001665  a0   000000 002061     322  	zero	0,bad_init
    001666  a0   000000 001704     323  	zero	0,init_2
    001667  a0   000000 001713     324  	zero	0,init_3
    001670  a0   000000 001723     325  	zero	0,init_4
    001671  a0   000000 001730     326  	zero	0,init_5
    001672  a0   000000 002061     327  	zero	0,bad_init
    001673  a0   000000 002061     328  	zero	0,bad_init
    001674  a0   000000 001744     329  	zero	0,init_8
    001675  a0   000000 001763     330  	zero	0,init_9
    001676  a0   000000 001772     331  	zero	0,init_10
    001677  a0   000000 002003     332  	zero	0,init_11
    001700  a0   000000 002015     333  	zero	0,init_12
    001701  a0   000000 002025     334  	zero	0,init_13
    001702  a0   000000 002040     335  	zero	0,init_14
    001703  a0   000000 002051     336  	zero	0,init_15
                                   337
    001704  aa  031 164 151 155    338  init_2:	acc	'timer channel not enabled'
    001705  aa  145 162 040 143
    001706  aa  150 141 156 156
    001707  aa  145 154 040 156
    001710  aa  157 164 040 145
    001711  aa  156 141 142 154
    001712  aa  145 144 000 000
    001713  aa  034 155 157 162    339  init_3:	acc	'more than one dia configured'
    001714  aa  145 040 164 150
    001715  aa  141 156 040 157
    001716  aa  156 145 040 144
    001717  aa  151 141 040 143
    001720  aa  157 156 146 151
    001721  aa  147 165 162 145
    001722  aa  144 000 000 000
    001723  aa  022 144 151 141    340  init_4:	acc	'dia does not exist'
    001724  aa  040 144 157 145
    001725  aa  163 040 156 157
    001726  aa  164 040 145 170
    001727  aa  151 163 164 000
    001730  aa  023 144 151 141    341  init_5:	acc	'dia did not respond'
    001731  aa  040 144 151 144
    001732  aa  040 156 157 164
    001733  aa  040 162 145 163
    001734  aa  160 157 156 144
    001735  aa  033 151 156 166    342  init_6:	acc	'invalid baud rate specified'
    001736  aa  141 154 151 144
    001737  aa  040 142 141 165
    001740  aa  144 040 162 141
    001741  aa  164 145 040 163
    001742  aa  160 145 143 151
    001743  aa  146 151 145 144
    001744  aa  070 143 157 162    343  init_8:	acc	'core image specifies more memory than physically present'
    001745  aa  145 040 151 155
    001746  aa  141 147 145 040
    001747  aa  163 160 145 143
    001750  aa  151 146 151 145
    001751  aa  163 040 155 157
    001752  aa  162 145 040 155
    001753  aa  145 155 157 162
    001754  aa  171 040 164 150
    001755  aa  141 156 040 160
    001756  aa  150 171 163 151
    001757  aa  143 141 154 154
    001760  aa  171 040 160 162
    001761  aa  145 163 145 156
    001762  aa  164 000 000 000
    001763  aa  032 154 163 154    344  init_9:	acc	'lsla ^o illegal sync speed'
    001764  aa  141 040 136 157
    001765  aa  040 151 154 154
    001766  aa  145 147 141 154
    001767  aa  040 163 171 156
    001770  aa  143 040 163 160
    001771  aa  145 145 144 000
    001772  aa  040 154 163 154    345  init_10:	acc	'lsla ^o failed ten times to init'
    001773  aa  141 040 136 157
    001774  aa  040 146 141 151
    001775  aa  154 145 144 040
    001776  aa  164 145 156 040
    001777  aa  164 151 155 145
    002000  aa  163 040 164 157
    002001  aa  040 151 156 151
    002002  aa  164 000 000 000
    002003  aa  045 154 163 154    346  init_11:	acc	'lsla ^o speed not equal desired speed'
    002004  aa  141 040 136 157
    002005  aa  040 163 160 145
    002006  aa  145 144 040 156
    002007  aa  157 164 040 145
    002010  aa  161 165 141 154
    002011  aa  040 144 145 163
    002012  aa  151 162 145 144
    002013  aa  040 163 160 145
    002014  aa  145 144 000 000
    002015  aa  034 164 151 155    347  init_12:	acc	'timer switch incorrectly set'
    002016  aa  145 162 040 163
    002017  aa  167 151 164 143
    002020  aa  150 040 151 156
    002021  aa  143 157 162 162
    002022  aa  145 143 164 154
    002023  aa  171 040 163 145
    002024  aa  164 000 000 000
    002025  aa  051 154 163 154    348  init_13:	acc	'lsla ^o, actual config does not match CDT'
    002026  aa  141 040 136 157
    002027  aa  054 040 141 143
    002030  aa  164 165 141 154
    002031  aa  040 143 157 156
    002032  aa  146 151 147 040
    002033  aa  144 157 145 163
    002034  aa  040 156 157 164
    002035  aa  040 155 141 164
    002036  aa  143 150 040 103
    002037  aa  104 124 000 000
    002040  aa  040 160 141 147    349  init_14:	acc	'pager is disabled or inoperative'
    002041  aa  145 162 040 151
    002042  aa  163 040 144 151
    002043  aa  163 141 142 154
    002044  aa  145 144 040 157
    002045  aa  162 040 151 156
    002046  aa  157 160 145 162
    002047  aa  141 164 151 166
    002050  aa  145 000 000 000
    002051  aa  037 165 156 141    350  init_15:	acc	'unable to allocate trace buffer'
    002052  aa  142 154 145 040
    002053  aa  164 157 040 141
    002054  aa  154 154 157 143
    002055  aa  141 164 145 040
    002056  aa  164 162 141 143
    002057  aa  145 040 142 165
    002060  aa  146 146 145 162
    002061  aa  037 165 156 162    351  bad_init:	acc	'unrecognized config status ^s^w'
    002062  aa  145 143 157 147
    002063  aa  156 151 172 145
    002064  aa  144 040 143 157
    002065  aa  156 146 151 147
    002066  aa  040 163 164 141
    002067  aa  164 165 163 040
    002070  aa  136 163 136 167
                                   352
                                   353  	end

NO LITERALS

NAME DEFINITIONS FOR ENTRY POINTS AND SEGDEFS

    002072  5a   000003 000000
    002073  5a   000062 600000
    002074  aa   000000 000000
    002075  55   000012 000002
    002076  5a   000002 400003
    002077  55   000006 000012
    002100  aa  016 144 156 063
    002101  aa  065 065 137 155
    002102  aa  145 163 163 141
    002103  aa  147 145 163 000
    002104  55   000021 000003
    002105  0a   001664 400000
    002106  55   000015 000003
    002107  aa  017 143 157 156         config_messages
    002110  aa  146 151 147 137
    002111  aa  155 145 163 163
    002112  aa  141 147 145 163
    002113  55   000030 000012
    002114  0a   001573 400000
    002115  55   000024 000003
    002116  aa  015 142 157 157         boot_messages
    002117  aa  164 137 155 145
    002120  aa  163 163 141 147
    002121  aa  145 163 000 000
    002122  55   000037 000021
    002123  0a   001421 400000
    002124  55   000033 000003
    002125  aa  016 145 162 162         error_messages
    002126  aa  157 162 137 155
    002127  aa  145 163 163 141
    002130  aa  147 145 163 000
    002131  55   000045 000030
    002132  0a   000000 400000
    002133  55   000042 000003
    002134  aa  012 160 145 162         per_module
    002135  aa  137 155 157 144
    002136  aa  165 154 145 000
    002137  55   000053 000037
    002140  0a   001345 400000
    002141  55   000050 000003
    002142  aa  013 146 141 165         fault_names
    002143  aa  154 164 137 156
    002144  aa  141 155 145 163
    002145  55   000002 000045
    002146  6a   000000 400002
    002147  55   000056 000003
    002150  aa  014 163 171 155         symbol_table
    002151  aa  142 157 154 137
    002152  aa  164 141 142 154
    002153  aa  145 000 000 000

DEFINITIONS HASH TABLE

    002154  aa   000000 000015
    002155  aa   000000 000000
    002156  aa   000000 000000
    002157  5a   000037 000000
    002160  5a   000045 000000
    002161  aa   000000 000000
    002162  aa   000000 000000
    002163  5a   000030 000000
    002164  5a   000053 000000
    002165  aa   000000 000000
    002166  5a   000021 000000
    002167  5a   000012 000000
    002170  aa   000000 000000
    002171  aa   000000 000000

NO EXTERNAL NAMES

NO TRAP POINTER WORDS

TYPE PAIR BLOCKS

    002172  aa   000001 000000
    002173  aa   000000 000000

INTERNAL EXPRESSION WORDS

LINKAGE INFORMATION

    000000  aa   000000 000000
    000001  0a   002072 000000
    000002  aa   000000 000000
    000003  aa   000000 000000
    000004  aa   000000 000000
    000005  aa   000000 000000
    000006  22   000010 000010
    000007  a2   000000 000000
SYMBOL INFORMATION

SYMBOL TABLE HEADER

    000000  aa   000000 000001
    000001  aa   163171 155142
    000002  aa   164162 145145
    000003  aa   000000 000010
    000004  aa   000000 117244
    000005  aa   361023 525721
    000006  aa   000000 117547
    000007  aa   257613 117310
    000010  aa   141154 155040
    000011  aa   040040 040040
    000012  aa   000024 000040
    000013  aa   000034 000040
    000014  aa   000044 000100
    000015  aa   000002 000002
    000016  aa   000064 000000
    000017  aa   000000 000251
    000020  aa   000000 000107
    000021  aa   000230 000225
    000022  aa   000243 000107
    000023  aa   000064 000000
    000024  aa   101114 115040
    000025  aa   126145 162163
    000026  aa   151157 156040
    000027  aa   070056 061064
    000030  aa   040115 141162
    000031  aa   143150 040061
    000032  aa   071070 071040
    000033  aa   040040 040040
    000034  aa   110151 162156
    000035  aa   145151 163145
    000036  aa   156056 123171
    000037  aa   163115 141151
    000040  aa   156164 056141
    000041  aa   040040 040040
    000042  aa   040040 040040
    000043  aa   040040 040040
    000044  aa   055164 141162
    000045  aa   147145 164040
    000046  aa   154066 070040
    000047  aa   040040 040040
    000050  aa   040040 040040
    000051  aa   040040 040040
    000052  aa   040040 040040
    000053  aa   040040 040040
    000054  aa   040040 040040
    000055  aa   040040 040040
    000056  aa   040154 151163
    000057  aa   164040 163171
    000060  aa   155142 157154
    000061  aa   163040 040040
    000062  aa   040040 040040
    000063  aa   040040 040040
    000064  aa   000000 000001
    000065  aa   000000 000001
    000066  aa   000072 000063
    000067  aa   175453 021003
    000070  aa   000000 117547
    000071  aa   207704 400000
    000072  aa   076163 160145          >special_ldd>install>MR12.3-1114>dn355_messages.alm
    000073  aa   143151 141154
    000074  aa   137154 144144
    000075  aa   076151 156163
    000076  aa   164141 154154
    000077  aa   076115 122061
    000100  aa   062056 063055
    000101  aa   061061 061064
    000102  aa   076144 156063
    000103  aa   065065 137155
    000104  aa   145163 163141
    000105  aa   147145 163056
    000106  aa   141154 155040
               MULTICS ASSEMBLY CROSS REFERENCE LISTING

   Value        Symbol                   Source file   Line number

        2061    bad_init                 dn355_messages:     321,  322,  327,  328,  351.
        1607    boot_checksum            dn355_messages:     304,  310.
        1652    boot_config_err          dn355_messages:     307,  316.
        1632    boot_gicb_err            dn355_messages:     306,  314.
        1573    boot_messages            dn355_messages:      15,  302.
        1600    boot_ok                  dn355_messages:     303,  309.
        1621    boot_read_err            dn355_messages:     305,  312.
        1664    config_messages          dn355_messages:      16,  320.
         164    cons_messages            dn355_messages:      43,  150.
         224    dia_1                    dn355_messages:      58,  180.
         336    dia_10                   dn355_messages:      67,  100,  130,  143,  155,  159,  189.
         345    dia_11                   dn355_messages:      68,  190.
         361    dia_12                   dn355_messages:      69,  191.
         367    dia_13                   dn355_messages:      70,  192.
         375    dia_14                   dn355_messages:      71,  193.
         406    dia_15                   dn355_messages:      72,  194.
         420    dia_16                   dn355_messages:      73,  195.
         435    dia_17                   dn355_messages:      74,  196.
         444    dia_18                   dn355_messages:      75,  197.
         451    dia_19                   dn355_messages:      76,  198.
         234    dia_2                    dn355_messages:      59,  181.
         462    dia_20                   dn355_messages:      77,  199.
         475    dia_21                   dn355_messages:      78,  200.
         504    dia_22                   dn355_messages:      79,  201.
         242    dia_3                    dn355_messages:      60,  182.
         253    dia_4                    dn355_messages:      61,  183.
         261    dia_5                    dn355_messages:      62,  184.
         267    dia_6                    dn355_messages:      63,  185.
         302    dia_7                    dn355_messages:      64,  186.
         314    dia_8                    dn355_messages:      65,  187.
         325    dia_9                    dn355_messages:      66,  188.
          46    dia_messages             dn355_messages:      28,   57.
        1421    error_messages           dn355_messages:      14,  278.
        1345    fault_names              dn355_messages:      12,  264.
        1121    hsla_1                   dn355_messages:     135,  238.
        1223    hsla_10                  dn355_messages:     144,  246.
        1231    hsla_12                  dn355_messages:     146,  247.
        1241    hsla_13                  dn355_messages:     147,  248.
        1131    hsla_2                   dn355_messages:     136,  239.
        1142    hsla_3                   dn355_messages:     137,  240.
        1155    hsla_4                   dn355_messages:     138,  241.
        1165    hsla_5                   dn355_messages:     139,  242.
        1172    hsla_6                   dn355_messages:     140,  243.
        1204    hsla_7                   dn355_messages:     141,  244.
        1213    hsla_8                   dn355_messages:     142,  245.
         147    hsla_messages            dn355_messages:      40,  134.
        1772    init_10                  dn355_messages:     168,  331,  345.
        2003    init_11                  dn355_messages:     169,  332,  346.
        2015    init_12                  dn355_messages:     170,  333,  347.
        2025    init_13                  dn355_messages:     171,  334,  348.
        2040    init_14                  dn355_messages:     172,  335,  349.
        2051    init_15                  dn355_messages:     173,  336,  350.
        1704    init_2                   dn355_messages:     160,  323,  338.
        1713    init_3                   dn355_messages:     161,  324,  339.
        1723    init_4                   dn355_messages:     162,  325,  340.
        1730    init_5                   dn355_messages:     163,  326,  341.
        1735    init_6                   dn355_messages:     164,  342.
        1744    init_8                   dn355_messages:     166,  329,  343.
        1763    init_9                   dn355_messages:     167,  330,  344.
         166    init_messages            dn355_messages:      49,  158.
         514    intp_1                   dn355_messages:      83,  204.
         615    intp_10                  dn355_messages:      92,  213.
         631    intp_11                  dn355_messages:      93,  214.
         637    intp_12                  dn355_messages:      94,  215.
         642    intp_13                  dn355_messages:      95,  216.
         655    intp_14                  dn355_messages:      96,  217.
         670    intp_15                  dn355_messages:      97,  218.
         700    intp_16                  dn355_messages:      98,  219.
         711    intp_17                  dn355_messages:      99,  220.
         520    intp_2                   dn355_messages:      84,  205.
         525    intp_3                   dn355_messages:      85,  206.
         535    intp_4                   dn355_messages:      86,  207.
         543    intp_5                   dn355_messages:      87,  208.
         553    intp_6                   dn355_messages:      88,  126,  209.
         563    intp_7                   dn355_messages:      89,  110,  127,  210.
         574    intp_8                   dn355_messages:      90,  211.
         602    intp_9                   dn355_messages:      91,  212.
          74    intp_messages            dn355_messages:      31,   82.
        1246    lsla_1                   dn355_messages:     121,  251.
        1324    lsla_11                  dn355_messages:     131,  256.
        1260    lsla_4                   dn355_messages:     124,  252.
        1273    lsla_5                   dn355_messages:     125,  253.
        1302    lsla_8                   dn355_messages:     128,  254.
        1311    lsla_9                   dn355_messages:     129,  255.
         134    lsla_messages            dn355_messages:      37,  120.
        1433    msg1                     dn355_messages:     279,  290.
        1565    msg10                    dn355_messages:     288,  299.
        1450    msg2                     dn355_messages:     280,  291.
        1460    msg3                     dn355_messages:     281,  292.
        1470    msg4                     dn355_messages:     282,  293.
        1506    msg5                     dn355_messages:     283,  294.
        1525    msg6                     dn355_messages:     284,  295.
        1543    msg7                     dn355_messages:     285,  296.
        1551    msg8                     dn355_messages:     286,  297.
        1557    msg9                     dn355_messages:     287,  298.
        1337    no_message               dn355_messages:     145,  151,  165,  259.
           0    per_module               dn355_messages:      13,   23.
         205    sked_1                   dn355_messages:      54,  176.
         214    sked_2                   dn355_messages:      55,  177.
          44    sked_messages            dn355_messages:      25,   53.
         165    trac_messages            dn355_messages:      46,  154.
         724    util_1                   dn355_messages:     104,  223.
        1035    util_10                  dn355_messages:     113,  231.
        1047    util_11                  dn355_messages:     114,  232.
        1061    util_12                  dn355_messages:     115,  233.
        1070    util_13                  dn355_messages:     116,  234.
        1105    util_14                  dn355_messages:     117,  235.
         734    util_2                   dn355_messages:     105,  224.
         746    util_3                   dn355_messages:     106,  225.
         761    util_4                   dn355_messages:     107,  226.
         772    util_5                   dn355_messages:     108,  227.
        1003    util_6                   dn355_messages:     109,  228.
        1012    util_8                   dn355_messages:     111,  122,  229.
        1024    util_9                   dn355_messages:     112,  123,  230.
         116    util_messages            dn355_messages:      34,  103.


NO FATAL ERRORS


                                          -----------------------------------------------------------


Historical Background

This edition of the Multics software materials and documentation is provided and donated
to Massachusetts Institute of Technology by Group BULL including BULL HN Information Systems Inc.
as a contribution to computer science knowledge.
This donation is made also to give evidence of the common contributions of Massachusetts Institute of Technology,
Bell Laboratories, General Electric, Honeywell Information Systems Inc., Honeywell BULL Inc., Groupe BULL
and BULL HN Information Systems Inc. to the development of this operating system.
Multics development was initiated by Massachusetts Institute of Technology Project MAC (1963-1970),
renamed the MIT Laboratory for Computer Science and Artificial Intelligence in the mid 1970s, under the leadership
of Professor Fernando Jose Corbato. Users consider that Multics provided the best software architecture
for managing computer hardware properly and for executing programs. Many subsequent operating systems
incorporated Multics principles.
Multics was distributed in 1975 to 2000 by Group Bull in Europe , and in the U.S. by Bull HN Information Systems Inc.,
as successor in interest by change in name only to Honeywell Bull Inc. and Honeywell Information Systems Inc. .

                                          -----------------------------------------------------------

Permission to use, copy, modify, and distribute these programs and their documentation for any purpose and without
fee is hereby granted,provided that the below copyright notice and historical background appear in all copies
and that both the copyright notice and historical background and this permission notice appear in supporting
documentation, and that the names of MIT, HIS, BULL or BULL HN not be used in advertising or publicity pertaining
to distribution of the programs without specific prior written permission.
    Copyright 1972 by Massachusetts Institute of Technology and Honeywell Information Systems Inc.
    Copyright 2006 by BULL HN Information Systems Inc.
    Copyright 2006 by Bull SAS
    All Rights Reserved
