ASSEMBLY LISTING OF SEGMENT >dumps>old>h>dstint.alm
ASSEMBLED ON:	07/02/84  1145.4 mst Mon
OPTIONS USED:	list
ASSEMBLED BY:	ALM Version  6.6  November 1982
ASSEMBLER CREATED:	09/21/83  1227.3 mst Wed

                                     1  " ***********************************************************
                                     2  " *                                                         *
                                     3  " * Copyright, (C) Honeywell Information Systems Inc., 1982 *
                                     4  " *                                                         *
                                     5  " * Copyright (c) 1972 by Massachusetts Institute of        *
                                     6  " * Technology and Honeywell Information Systems, Inc.      *
                                     7  " *                                                         *
                                     8  " ***********************************************************
                                     9
                                    10
                                    11  " DSTINT - Assign Device Indices for the GIM and DST.
                                    12  "	12/68 - Noel I. Morris
                                    13  "         5/75  - D. M. Wells to make use stacq so can be called at
                                    14  "                   other than initialization time
                                    15
                                    16
    000000                          17  	name	dstint
                                    18
                                    19
                                    20  " Calling Sequence:
                                    21  "	index = dstint$assign_dev_index ()
                                    22  "
                                    23  " Where:
                                    24  "	index	= device index (returned)
                                    25  "
                                    26
                        000000      27  	entry	assign_dev_index
                                    28
    000000                          29  assign_dev_index:
    000000  9a  4 00010 2361 00     30            ldq       lp|index            pick up internal static variable in Q
    000001  9a  4 00010 2351 00     31            lda       lp|index            pick up in A (possibly different)
    000002  aa   000001 0750 07     32            ada       1,dl                increment the newest value
    000003  9a  4 00010 6541 00     33            stacq     lp|index            attempt to put it back
    000004  0a   000000 6010 00     34            tnz       assign_dev_index    if Q wasn't the same as when we picked it
                                    35                                          " up, then we gotta go back and do it all
                                    36                                          " over again
    000005  aa  0 00002 7551 20     37            sta       ap|2,*              give the incremented value to the caller
                                    38
    000006  aa  7 00044 7101 20     39  	short_return
                                    40
                                    41  	use	internal_static
                                    42
    000010                          43  index:
    000010  aa   000000 000000      44  	dec	0
                                    45
                                    46  	join	/link/internal_static
                                    47
                                    48
                                    49
                                    50  	end	dstint		
ENTRY SEQUENCES

    000007  5a   000010 0000 00
    000010  aa  7 00046 2721 20
    000011  0a   000000 7100 00

NO LITERALS

NAME DEFINITIONS FOR ENTRY POINTS AND SEGDEFS

    000012  5a   000003 000000
    000013  5a   000027 600000
    000014  aa   000000 000000
    000015  55   000010 000002
    000016  5a   000002 400003
    000017  55   000006 000010
    000020  aa  006 144 163 164
    000021  aa  151 156 164 000
    000022  55   000020 000003
    000023  0a   000010 500000
    000024  55   000013 000003
    000025  aa  020 141 163 163         assign_dev_index
    000026  aa  151 147 156 137
    000027  aa  144 145 166 137
    000030  aa  151 156 144 145
    000031  aa  170 000 000 000
    000032  55   000002 000010
    000033  6a   000000 400002
    000034  55   000023 000003
    000035  aa  014 163 171 155         symbol_table
    000036  aa  142 157 154 137
    000037  aa  164 141 142 154
    000040  aa  145 000 000 000

DEFINITIONS HASH TABLE

    000041  aa   000000 000015
    000042  aa   000000 000000
    000043  aa   000000 000000
    000044  aa   000000 000000
    000045  aa   000000 000000
    000046  aa   000000 000000
    000047  aa   000000 000000
    000050  5a   000010 000000
    000051  5a   000020 000000
    000052  aa   000000 000000
    000053  aa   000000 000000
    000054  aa   000000 000000
    000055  aa   000000 000000
    000056  aa   000000 000000

NO EXTERNAL NAMES

NO TRAP POINTER WORDS

TYPE PAIR BLOCKS

    000057  aa   000001 000000
    000060  aa   000000 000000

INTERNAL EXPRESSION WORDS

    000061  aa   000000 000000
LINKAGE INFORMATION

    000000  aa   000000 000000
    000001  0a   000012 000000
    000002  aa   000000 000000
    000003  aa   000000 000000
    000004  aa   000000 000000
    000005  aa   000000 000000
    000006  22   000012 000012
    000007  a2   000000 000002
SYMBOL INFORMATION

SYMBOL TABLE HEADER

    000000  aa   000000 000001
    000001  aa   163171 155142
    000002  aa   164162 145145
    000003  aa   000000 000004
    000004  aa   000000 112143
    000005  aa   305203 523135
    000006  aa   000000 112711
    000007  aa   531506 361722
    000010  aa   141154 155040
    000011  aa   040040 040040
    000012  aa   000024 000040
    000013  aa   000034 000040
    000014  aa   000044 000100
    000015  aa   000002 000002
    000016  aa   000064 000000
    000017  aa   000000 000115
    000020  aa   000000 000100
    000021  aa   000000 000104
    000022  aa   000107 000100
    000023  aa   000064 000000
    000024  aa   101114 115040
    000025  aa   126145 162163
    000026  aa   151157 156040
    000027  aa   040066 056066
    000030  aa   040040 116157
    000031  aa   166145 155142
    000032  aa   145162 040061
    000033  aa   071070 062040
    000034  aa   107112 157150
    000035  aa   156163 157156
    000036  aa   056123 171163
    000037  aa   115141 151156
    000040  aa   164056 141040
    000041  aa   040040 040040
    000042  aa   040040 040040
    000043  aa   040040 040040
    000044  aa   154151 163164
    000045  aa   040040 040040
    000046  aa   040040 040040
    000047  aa   040040 040040
    000050  aa   040040 040040
    000051  aa   040040 040040
    000052  aa   040040 040040
    000053  aa   040040 040040
    000054  aa   040040 040040
    000055  aa   040040 040040
    000056  aa   040040 040040
    000057  aa   040040 040040
    000060  aa   040040 040040
    000061  aa   040040 040040
    000062  aa   040040 040040
    000063  aa   040040 040040
    000064  aa   000000 000001
    000065  aa   000000 000001
    000066  aa   000072 000027
    000067  aa   127065 644755
    000070  aa   000000 112711
    000071  aa   522371 000000
    000072  aa   076144 165155          >dumps>old>h>dstint.alm
    000073  aa   160163 076157
    000074  aa   154144 076150
    000075  aa   076144 163164
    000076  aa   151156 164056
    000077  aa   141154 155040
               MULTICS ASSEMBLY CROSS REFERENCE LISTING

   Value        Symbol                   Source file   Line number

           0    assign_dev_index         dstint:        27,   29,   34.
          10    index                    dstint:        30,   31,   33,   43.
          10    internal_static          dstint:        41,   46.


NO FATAL ERRORS


                                          -----------------------------------------------------------


Historical Background

This edition of the Multics software materials and documentation is provided and donated
to Massachusetts Institute of Technology by Group BULL including BULL HN Information Systems Inc.
as a contribution to computer science knowledge.
This donation is made also to give evidence of the common contributions of Massachusetts Institute of Technology,
Bell Laboratories, General Electric, Honeywell Information Systems Inc., Honeywell BULL Inc., Groupe BULL
and BULL HN Information Systems Inc. to the development of this operating system.
Multics development was initiated by Massachusetts Institute of Technology Project MAC (1963-1970),
renamed the MIT Laboratory for Computer Science and Artificial Intelligence in the mid 1970s, under the leadership
of Professor Fernando Jose Corbato. Users consider that Multics provided the best software architecture
for managing computer hardware properly and for executing programs. Many subsequent operating systems
incorporated Multics principles.
Multics was distributed in 1975 to 2000 by Group Bull in Europe , and in the U.S. by Bull HN Information Systems Inc.,
as successor in interest by change in name only to Honeywell Bull Inc. and Honeywell Information Systems Inc. .

                                          -----------------------------------------------------------

Permission to use, copy, modify, and distribute these programs and their documentation for any purpose and without
fee is hereby granted,provided that the below copyright notice and historical background appear in all copies
and that both the copyright notice and historical background and this permission notice appear in supporting
documentation, and that the names of MIT, HIS, BULL or BULL HN not be used in advertising or publicity pertaining
to distribution of the programs without specific prior written permission.
    Copyright 1972 by Massachusetts Institute of Technology and Honeywell Information Systems Inc.
    Copyright 2006 by BULL HN Information Systems Inc.
    Copyright 2006 by Bull SAS
    All Rights Reserved
