ASSEMBLY LISTING OF SEGMENT >spec>install>1115>error_table_.alm
ASSEMBLED ON:	11/11/89  0936.7 mst Sat
OPTIONS USED:	-target l68                              list symbols
ASSEMBLED BY:	ALM Version 8.14 March 1989
ASSEMBLER CREATED:	06/09/89  1002.3 mst Fri

                                     1  " ***********************************************************
                                     2  " *                                                         *
                                     3  " * Copyright, (C) Honeywell Bull Inc., 1987                *
                                     4  " *                                                         *
                                     5  " * Copyright, (C) Honeywell Information Systems Inc., 1984 *
                                     6  " *                                                         *
                                     7  " * Copyright (c) 1972 by Massachusetts Institute of        *
                                     8  " * Technology and Honeywell Information Systems, Inc.      *
                                     9  " *                                                         *
                                    10  " ***********************************************************
                                    11
                                    12  " HISTORY COMMENTS:
                                    13  "  1) change(85-07-23,Palter), approve(86-02-20,MCR7345),
                                    14  "     audit(86-02-21,MSharpe), install(86-07-11,MR12.0-1091):
                                    15  "      Added not_own_message.
                                    16  "  2) change(85-12-30,Coren), approve(86-07-02,MCR7415),
                                    17  "     audit(86-07-02,Margolin), install(86-07-11,MR12.0-1091):
                                    18  "     added listen_stopped, no_disconnected_processes,
                                    19  "     user_requested_hangup,   user_requested_logout
                                    20  "  3) change(86-01-15,Fawcett), approve(86-04-11,MCR7383),
                                    21  "     audit(86-05-01,Coppola), install(86-07-17,MR12.0-1097):
                                    22  "     Add error codes Incorrect authentication,  Unknown authentication,
                                    23  "     Subvolume needed, for Subvolume support.
                                    24  "  4) change(86-05-02,Elhard), approve(86-05-02,MCR7391),
                                    25  "     audit(86-07-28,DGHowe), install(86-11-20,MR12.0-1222):
                                    26  "     Added inconsistent_object_msf, bad_deferred_init, and bad_indirect_def
                                    27  "     error codes.
                                    28  "  5) change(86-05-15,DGHowe), approve(86-05-15,MCR7375),
                                    29  "     audit(86-07-30,Schroth), install(86-08-01,MR12.0-1108):
                                    30  "     added error_table_$command_name_not_available (comnotav).
                                    31  "  6) change(86-06-09,Lippard), approve(86-06-23,MCR7438),
                                    32  "     audit(86-08-04,Hartogs), install(86-08-19,MR12.0-1120):
                                    33  "     Added no_odd_areas.
                                    34  "  7) change(86-06-24,DGHowe), approve(86-06-24,MCR7396),
                                    35  "     audit(86-11-18,GDixon), install(86-11-20,MR12.0-1222):
                                    36  "     added invalid_heap_var_size,no_heap_defined and no_heap_sym.
                                    37  "  8) change(86-06-24,DGHowe), approve(86-06-24,MCR7395),
                                    38  "     audit(86-11-18,GDixon), install(86-11-20,MR12.0-1222):
                                    39  "     added invalid_heap
                                    40  "  9) change(86-06-24,DGHowe), approve(86-06-24,MCR7420),
                                    41  "     audit(86-11-18,GDixon), install(86-11-20,MR12.0-1222):
                                    42  "     added invalid_ptr_target.
                                    43  " 10) change(86-08-14,GDixon), approve(86-09-04,MCR7532),
                                    44  "     audit(86-09-05,Martinson), install(86-09-16,MR12.0-1159):
                                    45  "     Properly capitalize the error message associated with
                                    46  "     error_table_$dt_time_conversion_error (phx17750).
                                    47  " 11) change(86-08-18,JSLove), approve(86-08-18,MCR7518),
                                    48  "     audit(86-09-14,Parisek), install(86-10-02,MR12.0-1174):
                                    49  "     Changed message of badstar to be specific to starnames, and added
                                    50  "     bad_file_name and null_name_component which are returned by
                                    51  "     check_star_name_.
                                    52  " 12) change(86-08-28,Margolin), approve(86-08-28,MCR7474),
                                    53  "     audit(86-08-28,Coren), install(86-09-30,MR12.0-1169):
                                    54  "     Added synonyms badarg and bad_opt to bad_arg and badopt, respectively.
                                    55  " 13) change(87-04-06,Parisek), approve(87-06-10,MCR7690),
                                    56  "     audit(87-06-10,GDixon), install(87-08-04,MR12.1-1055):
                                    57  "     Added the bad_vchannel, vchn_active, and vchn_not_found entries to
                                    58  "     support MNA MC interface.
                                    59  " 14) change(87-05-13,Brunelle), approve(87-06-10,MCR7681),
                                    60  "     audit(87-06-10,GDixon), install(87-08-04,MR12.1-1055):
                                    61  "     Added the not_initialized entry to support anything not initialized
                                    62  "     properly.  Used in connection_list_manager_ initially.
                                    63  " 15) change(87-06-12,Lippard), approve(87-06-29,MCR7729),
                                    64  "     audit(87-07-17,Farley), install(87-08-06,MR12.1-1063):
                                    65  "     Added not_base_channel.
                                    66  " 16) change(87-07-06,Rauschelbach), approve(87-07-06,MCR7736),
                                    67  "     audit(87-07-21,Farley), install(87-08-06,MR12.1-1063):
                                    68  "     Added no_appropriate_device, noappdev.
                                    69  " 17) change(87-09-08,GWMay), approve(87-09-08,MCR7730),
                                    70  "     audit(87-09-10,GDixon), install(87-09-10,MR12.1-1104):
                                    71  "     added bad_pipe_syntax, pipesyn as part of command processor pipes.
                                    72  " 18) change(88-03-09,Lippard), approve(88-03-28,MCR7869),
                                    73  "     audit(88-04-26,Parisek), install(88-05-03,MR12.2-1044):
                                    74  "     Added bad_mbx_acl_rs and bad_mbx_acl_awu.
                                    75  " 19) change(88-09-15,Brunelle), approve(88-09-15,MCR7911),
                                    76  "     audit(88-09-30,Wallman), install(88-10-28,MR12.2-1199):
                                    77  "     Added no_forms_table_defined & bad_forms_option for eor forms processing.
                                    78  "                                                      END HISTORY COMMENTS
                                    79
                                    80  "
                                    81  " ERROR_TABLE_ - Standard Multics Status Codes.
                                    82  "	recoded in ALM - 6/21/77 by Noel I. Morris
                                    83  "
                                    84  " Modified:
                                    85  " 09/22/84 by R. Michael Tague:  Added as_request_sender_missing and
                                    86  "          as_request_invalid_request.
                                    87  " 10/02/84 by R. Michael Tague:  Added as_bump_user_not_found.
                                    88  " 10/01/84 by Jim Lippard:  Changed messages_deferred and messages_off
                                    89  "          to not refer to User.
                                    90  " 84-10-04, WOS: Added codes for new logging software
                                    91  " 1984-10-15 BIM: added as_sac_command_read
                                    92  " 1984.11.02 MAP: added codes for IOM reconfiguration
                                    93  " 84-11-05 by EJ Sharpe - added mdc_illegal_owner
                                    94  " 84-12-05 by M. Weaver: added malformed_list_template_entry
                                    95  " 84-12-05 EJ Sharpe - added ai_son_less, ai_parent_greater
                                    96  " 84-12-06 EJ Sharpe - added ai_entry_vtoce_mismatch
                                    97  " 85-01-16 MM Pozzo - added resource_awaiting_clear
                                    98  " 85-02-18 MM Pozzo - added rcp_missing_registry_component
                                    99  " 85-03-29 MM Pozzo - added unsupported_multi_class_volume
                                   100  " 85-04-02 MM Pozzo - added incomplete_access_name
                                   101  """"""""""""""""""""""""""""""""""""""""""""""""""""""""""""""
                                   102
                                   103  	include	et_macros
                                   1-1  " Begin include file ...... et_macros.incl.alm
                                   1-2  "	Written 6/15/77 by Noel I. Morris
                                   1-3  "	Modified '82 so error code entries are in first page of segment.
                                   1-4
                                   1-5  " This include file contains macros for generating error tables
                                   1-6  " for both system and non-system use.
                                   1-7
                                   1-8  " ET MACRO
                                   1-9  "
                                  1-10  " This macro is used to initialize the error table for either
                                  1-11  " system or non-system use.  It is invoked at the beginning of
                                  1-12  " the error table as follows:
                                  1-13  "
                                  1-14  "	et	table_name{,system}
                                  1-15  "
                                  1-16
                                  1-17  macro	et
                              1   1-18  	maclist	on
                              2   1-19
                              3   1-20  	name	&1
                              4   1-21
                              5   1-22  &^=&2,system&[
                              6   1-23
                              7   1-24  	include	stack_header
                              8   1-25
                              9   1-26  
                             10   1-27
                             11   1-28  	use	codes
                             12   1-29  .code_start:
                             13   1-30
                             14   1-31  	use	past_codes
                             15   1-32  .code_end:
                             16   1-33
                             17   1-34  	join	/link/codes,past_codes
                             18   1-35
                             19   1-36  	use	messages
                             20   1-37
                             21   1-38  .trapproc:
                             22   1-39  	epaq	0,ic
                             23   1-40  	eax0	0,au
                             24   1-41  	epbpsb	sp|0
                             25   1-42  	lprplp	sb|stack_header.lot_ptr,*au
                             26   1-43  	eax1	.code_start
                             27   1-44  .loop:	stx0	lp|0,x1
                             28   1-45  	eax1	1,x1
                             29   1-46  	cmpx1	.code_end,du
                             30   1-47  	tmi	.loop-*,ic
                             31   1-48  	short_return
                             32   1-49
                             33   1-50  	firstref	<*text>|.trapproc
                             34   1-51
                             35   1-52  &;	use	codes
                             36   1-53  	use	messages
                             37   1-54
                             38   1-55  	join	/text/codes,messages
                             39   1-56
                             40   1-57  &]
                             41   1-58
                             42   1-59  	bool	.segno,77777
                             43   1-60
                             44   1-61  	maclist	off
                             45   1-62
                             46   1-63  	&end
                                  1-64
                                  1-65  
                                  1-66
                                  1-67  " EC MACRO
                                  1-68  "
                                  1-69  " This macro is used to define an error code as shown:
                                  1-70  "
                                  1-71  "	ec	name,{short_mess},(long_mess)
                                  1-72  "
                                  1-73  " If more than a single name is to be defined for a given message,
                                  1-74  " a list of names separated by commas and enclosed in parentheses
                                  1-75  " must be given.   short_mess must be 8 or less characters.  If omitted,
                                  1-76  " the short_mess will be set to the name.  long_mess is enclosed
                                  1-77  " in parentheses in order to cause ALM to ignore embedded blanks.  Please
                                  1-78  " note that double quote characters in either short_mess or long_mess
                                  1-79  " must be doubled in order to make the ALM assembly work properly.
                                  1-80  " Note that a macro invocation line terminated by a comma will cause that
                                  1-81  " statement to be continued on the next line.
                                  1-82
                                  1-83  macro	ec
                              1   1-84  	use	codes
                              2   1-85
                              3   1-86  	maclist	on,save
                              4   1-87  &(1	segdef  &i
                              5   1-88  &)	maclist	restore
                              6   1-89  &(1&i:
                              7   1-90  &)	maclist	object,save
                              8   1-91  	zero	.segno,&U
                              9   1-92  	maclist	restore
                             10   1-93  	use	messages
                             11   1-94  &^=&l2,0&[	shortname    &2
                             12   1-95  &;	shortname    &1
                             13   1-96  &]
                             14   1-97  &U:
                             15   1-98  	maclist	on,save
                             16   1-99  	acc  "&3"
                             17  1-100
                             18  1-101  	maclist	restore
                             19  1-102  	&end
                                 1-103
                                 1-104  macro	shortname
                              1  1-105  	maclist	on,save
                              2  1-106  	aci  "&1",8
                              3  1-107  	maclist	restore
                              4  1-108  	&end
                                 1-109
                                 1-110  
                                 1-111
                                 1-112  " A typical error table source program might have the following format:
                                 1-113  "
                                 1-114  "	include	et_macros
                                 1-115  "
                                 1-116  "	et	name_of_error_table
                                 1-117  "
                                 1-118  "	ec	error_code_1,ecode1,(This is error code 1.)
                                 1-119  "
                                 1-120  "	ec	error_code_2,ecode2,(This is error code 2.)
                                 1-121  "
                                 1-122  "	:	     :	      :		:
                                 1-123  "
                                 1-124  "	ec	error_code_n,ecoden,(This is the nth error code.)
                                 1-125  "
                                 1-126  "	end
                                 1-127  "
                                 1-128
                                 1-129  " End of include file ...... et_macros.incl.alm
                                 1-130
                                   104
                                   105  
                                   106
                                   107  	et	error_table_,system

    000000                              	name	error_table_

                                        	use	codes
                                        	use	messages

                                        	join	/text/codes,messages


                        077777          	bool	.segno,77777

                                   108
                                   109  
                                   110
                                   111  ec  abs_reenter,absrentr,
                                   112  	(absentee: Attempt to reenter user environment via a call to cu_$cl.  Job terminated.)
                        000000          	segdef  abs_reenter
    000000  a0   077777 001246
    001244  aa  141 142 163 162         	aci  "absrentr",8
    001245  aa  145 156 164 162
    001246  aa  124 141 142 163         	acc  "absentee: Attempt to reenter user environment via a call to cu_$cl.  Job terminated."
    001247  aa  145 156 164 145
    001250  aa  145 072 040 101
    001251  aa  164 164 145 155
    001252  aa  160 164 040 164
    001253  aa  157 040 162 145
    001254  aa  145 156 164 145
    001255  aa  162 040 165 163
    001256  aa  145 162 040 145
    001257  aa  156 166 151 162
    001260  aa  157 156 155 145
    001261  aa  156 164 040 166
    001262  aa  151 141 040 141
    001263  aa  040 143 141 154
    001264  aa  154 040 164 157
    001265  aa  040 143 165 137
    001266  aa  044 143 154 056
    001267  aa  040 040 112 157
    001270  aa  142 040 164 145
    001271  aa  162 155 151 156
    001272  aa  141 164 145 144
    001273  aa  056 000 000 000

                                   113  ec  abs_timer_runout,abstimer,
                                   114  	(absentee: CPU time limit exceeded.  Job terminated.)
                        000001          	segdef  abs_timer_runout
    000001  a0   077777 001276
    001274  aa  141 142 163 164         	aci  "abstimer",8
    001275  aa  151 155 145 162
    001276  aa  063 141 142 163         	acc  "absentee: CPU time limit exceeded.  Job terminated."
    001277  aa  145 156 164 145
    001300  aa  145 072 040 103
    001301  aa  120 125 040 164
    001302  aa  151 155 145 040
    001303  aa  154 151 155 151
    001304  aa  164 040 145 170
    001305  aa  143 145 145 144
    001306  aa  145 144 056 040
    001307  aa  040 112 157 142
    001310  aa  040 164 145 162
    001311  aa  155 151 156 141
    001312  aa  164 145 144 056

                                   115  ec  abs_wired_memory,abswired,
                                   116  	(One or more memory frames are abs-wired.)
                        000002          	segdef  abs_wired_memory
    000002  a0   077777 001315
    001313  aa  141 142 163 167         	aci  "abswired",8
    001314  aa  151 162 145 144
    001315  aa  050 117 156 145         	acc  "One or more memory frames are abs-wired."
    001316  aa  040 157 162 040
    001317  aa  155 157 162 145
    001320  aa  040 155 145 155
    001321  aa  157 162 171 040
    001322  aa  146 162 141 155
    001323  aa  145 163 040 141
    001324  aa  162 145 040 141
    001325  aa  142 163 055 167
    001326  aa  151 162 145 144
    001327  aa  056 000 000 000

                                   117  ec  action_not_performed,notacted,
                                   118  	(The requested action was not performed.)
                        000003          	segdef  action_not_performed
    000003  a0   077777 001332
    001330  aa  156 157 164 141         	aci  "notacted",8
    001331  aa  143 164 145 144
    001332  aa  047 124 150 145         	acc  "The requested action was not performed."
    001333  aa  040 162 145 161
    001334  aa  165 145 163 164
    001335  aa  145 144 040 141
    001336  aa  143 164 151 157
    001337  aa  156 040 167 141
    001340  aa  163 040 156 157
    001341  aa  164 040 160 145
    001342  aa  162 146 157 162
    001343  aa  155 145 144 056

                                   119  ec  active_function,not_cmd,
                                   120  	(This command cannot be invoked as an active function.)
                        000004          	segdef  active_function
    000004  a0   077777 001346
    001344  aa  156 157 164 137         	aci  "not_cmd",8
    001345  aa  143 155 144 040
    001346  aa  065 124 150 151         	acc  "This command cannot be invoked as an active function."
    001347  aa  163 040 143 157
    001350  aa  155 155 141 156
    001351  aa  144 040 143 141
    001352  aa  156 156 157 164
    001353  aa  040 142 145 040
    001354  aa  151 156 166 157
    001355  aa  153 145 144 040
    001356  aa  141 163 040 141
    001357  aa  156 040 141 143
    001360  aa  164 151 166 145
    001361  aa  040 146 165 156
    001362  aa  143 164 151 157
    001363  aa  156 056 000 000

                                   121  ec  ai_above_allowed_max,ai_max,
                                   122  	(Specified access class/authorization is greater than allowed maximum.)
                        000005          	segdef  ai_above_allowed_max
    000005  a0   077777 001366
    001364  aa  141 151 137 155         	aci  "ai_max",8
    001365  aa  141 170 040 040
    001366  aa  105 123 160 145         	acc  "Specified access class/authorization is greater than allowed maximum."
    001367  aa  143 151 146 151
    001370  aa  145 144 040 141
    001371  aa  143 143 145 163
    001372  aa  163 040 143 154
    001373  aa  141 163 163 057
    001374  aa  141 165 164 150
    001375  aa  157 162 151 172
    001376  aa  141 164 151 157
    001377  aa  156 040 151 163
    001400  aa  040 147 162 145
    001401  aa  141 164 145 162
    001402  aa  040 164 150 141
    001403  aa  156 040 141 154
    001404  aa  154 157 167 145
    001405  aa  144 040 155 141
    001406  aa  170 151 155 165
    001407  aa  155 056 000 000

                                   123  ec  ai_already_set,aialrdy,
                                   124  	(The channel already has a required access class.)
                        000006          	segdef  ai_already_set
    000006  a0   077777 001412
    001410  aa  141 151 141 154         	aci  "aialrdy",8
    001411  aa  162 144 171 040
    001412  aa  060 124 150 145         	acc  "The channel already has a required access class."
    001413  aa  040 143 150 141
    001414  aa  156 156 145 154
    001415  aa  040 141 154 162
    001416  aa  145 141 144 171
    001417  aa  040 150 141 163
    001420  aa  040 141 040 162
    001421  aa  145 161 165 151
    001422  aa  162 145 144 040
    001423  aa  141 143 143 145
    001424  aa  163 163 040 143
    001425  aa  154 141 163 163
    001426  aa  056 000 000 000

                                   125  ec  ai_entry_vtoce_mismatch,aibdvtce,
                                   126  	(Branch and VTOCE access class mismatch.)
                        000007          	segdef  ai_entry_vtoce_mismatch
    000007  a0   077777 001431
    001427  aa  141 151 142 144         	aci  "aibdvtce",8
    001430  aa  166 164 143 145
    001431  aa  047 102 162 141         	acc  "Branch and VTOCE access class mismatch."
    001432  aa  156 143 150 040
    001433  aa  141 156 144 040
    001434  aa  126 124 117 103
    001435  aa  105 040 141 143
    001436  aa  143 145 163 163
    001437  aa  040 143 154 141
    001440  aa  163 163 040 155
    001441  aa  151 163 155 141
    001442  aa  164 143 150 056

                                   127  ec  ai_invalid_binary,aibadbin,
                                   128  	(Unable to convert binary access class/authorization to string.)
                        000010          	segdef  ai_invalid_binary
    000010  a0   077777 001445
    001443  aa  141 151 142 141         	aci  "aibadbin",8
    001444  aa  144 142 151 156
    001445  aa  076 125 156 141         	acc  "Unable to convert binary access class/authorization to string."
    001446  aa  142 154 145 040
    001447  aa  164 157 040 143
    001450  aa  157 156 166 145
    001451  aa  162 164 040 142
    001452  aa  151 156 141 162
    001453  aa  171 040 141 143
    001454  aa  143 145 163 163
    001455  aa  040 143 154 141
    001456  aa  163 163 057 141
    001457  aa  165 164 150 157
    001460  aa  162 151 172 141
    001461  aa  164 151 157 156
    001462  aa  040 164 157 040
    001463  aa  163 164 162 151
    001464  aa  156 147 056 000

                                   129  ec  ai_invalid_range,aibadrng,
                                   130  	(The specified access classes/authorizations are not a valid range.)
                        000011          	segdef  ai_invalid_range
    000011  a0   077777 001467
    001465  aa  141 151 142 141         	aci  "aibadrng",8
    001466  aa  144 162 156 147
    001467  aa  102 124 150 145         	acc  "The specified access classes/authorizations are not a valid range."
    001470  aa  040 163 160 145
    001471  aa  143 151 146 151
    001472  aa  145 144 040 141
    001473  aa  143 143 145 163
    001474  aa  163 040 143 154
    001475  aa  141 163 163 145
    001476  aa  163 057 141 165
    001477  aa  164 150 157 162
    001500  aa  151 172 141 164
    001501  aa  151 157 156 163
    001502  aa  040 141 162 145
    001503  aa  040 156 157 164
    001504  aa  040 141 040 166
    001505  aa  141 154 151 144
    001506  aa  040 162 141 156
    001507  aa  147 145 056 000

                                   131  ec  ai_invalid_string,aibadstr,
                                   132  	(Unable to convert access class/authorization to binary.)
                        000012          	segdef  ai_invalid_string
    000012  a0   077777 001512
    001510  aa  141 151 142 141         	aci  "aibadstr",8
    001511  aa  144 163 164 162
    001512  aa  067 125 156 141         	acc  "Unable to convert access class/authorization to binary."
    001513  aa  142 154 145 040
    001514  aa  164 157 040 143
    001515  aa  157 156 166 145
    001516  aa  162 164 040 141
    001517  aa  143 143 145 163
    001520  aa  163 040 143 154
    001521  aa  141 163 163 057
    001522  aa  141 165 164 150
    001523  aa  157 162 151 172
    001524  aa  141 164 151 157
    001525  aa  156 040 164 157
    001526  aa  040 142 151 156
    001527  aa  141 162 171 056

                                   133  ec  ai_no_common_max,aincmax,
                                   134  	(There are no access classes/authorizations in common between the two systems.)
                        000013          	segdef  ai_no_common_max
    000013  a0   077777 001532
    001530  aa  141 151 156 143         	aci  "aincmax",8
    001531  aa  155 141 170 040
    001532  aa  115 124 150 145         	acc  "There are no access classes/authorizations in common between the two systems."
    001533  aa  162 145 040 141
    001534  aa  162 145 040 156
    001535  aa  157 040 141 143
    001536  aa  143 145 163 163
    001537  aa  040 143 154 141
    001540  aa  163 163 145 163
    001541  aa  057 141 165 164
    001542  aa  150 157 162 151
    001543  aa  172 141 164 151
    001544  aa  157 156 163 040
    001545  aa  151 156 040 143
    001546  aa  157 155 155 157
    001547  aa  156 040 142 145
    001550  aa  164 167 145 145
    001551  aa  156 040 164 150
    001552  aa  145 040 164 167
    001553  aa  157 040 163 171
    001554  aa  163 164 145 155
    001555  aa  163 056 000 000

                                   135  ec  ai_out_range,aioutrng,
                                   136  	(The specified access class/authorization is not within the permitted range.)
                        000014          	segdef  ai_out_range
    000014  a0   077777 001560
    001556  aa  141 151 157 165         	aci  "aioutrng",8
    001557  aa  164 162 156 147
    001560  aa  113 124 150 145         	acc  "The specified access class/authorization is not within the permitted range."
    001561  aa  040 163 160 145
    001562  aa  143 151 146 151
    001563  aa  145 144 040 141
    001564  aa  143 143 145 163
    001565  aa  163 040 143 154
    001566  aa  141 163 163 057
    001567  aa  141 165 164 150
    001570  aa  157 162 151 172
    001571  aa  141 164 151 157
    001572  aa  156 040 151 163
    001573  aa  040 156 157 164
    001574  aa  040 167 151 164
    001575  aa  150 151 156 040
    001576  aa  164 150 145 040
    001577  aa  160 145 162 155
    001600  aa  151 164 164 145
    001601  aa  144 040 162 141
    001602  aa  156 147 145 056

                                   137  ec  ai_outside_common_range,aiocr,
                                   138  	(The access class/authorization is not within the range in common between the two systems.)
                        000015          	segdef  ai_outside_common_range
    000015  a0   077777 001605
    001603  aa  141 151 157 143         	aci  "aiocr",8
    001604  aa  162 040 040 040
    001605  aa  131 124 150 145         	acc  "The access class/authorization is not within the range in common between the two systems."
    001606  aa  040 141 143 143
    001607  aa  145 163 163 040
    001610  aa  143 154 141 163
    001611  aa  163 057 141 165
    001612  aa  164 150 157 162
    001613  aa  151 172 141 164
    001614  aa  151 157 156 040
    001615  aa  151 163 040 156
    001616  aa  157 164 040 167
    001617  aa  151 164 150 151
    001620  aa  156 040 164 150
    001621  aa  145 040 162 141
    001622  aa  156 147 145 040
    001623  aa  151 156 040 143
    001624  aa  157 155 155 157
    001625  aa  156 040 142 145
    001626  aa  164 167 145 145
    001627  aa  156 040 164 150
    001630  aa  145 040 164 167
    001631  aa  157 040 163 171
    001632  aa  163 164 145 155
    001633  aa  163 056 000 000

                                   139  ec  ai_parent_greater,aiparbig,
                                   140  	(Parent access class is greater than its son.)
                        000016          	segdef  ai_parent_greater
    000016  a0   077777 001636
    001634  aa  141 151 160 141         	aci  "aiparbig",8
    001635  aa  162 142 151 147
    001636  aa  054 120 141 162         	acc  "Parent access class is greater than its son."
    001637  aa  145 156 164 040
    001640  aa  141 143 143 145
    001641  aa  163 163 040 143
    001642  aa  154 141 163 163
    001643  aa  040 151 163 040
    001644  aa  147 162 145 141
    001645  aa  164 145 162 040
    001646  aa  164 150 141 156
    001647  aa  040 151 164 163
    001650  aa  040 163 157 156
    001651  aa  056 000 000 000

                                   141  ec  ai_restricted,ai_stop,
                                   142  	(Improper access class/authorization to perform operation.)
                        000017          	segdef  ai_restricted
    000017  a0   077777 001654
    001652  aa  141 151 137 163         	aci  "ai_stop",8
    001653  aa  164 157 160 040
    001654  aa  071 111 155 160         	acc  "Improper access class/authorization to perform operation."
    001655  aa  162 157 160 145
    001656  aa  162 040 141 143
    001657  aa  143 145 163 163
    001660  aa  040 143 154 141
    001661  aa  163 163 057 141
    001662  aa  165 164 150 157
    001663  aa  162 151 172 141
    001664  aa  164 151 157 156
    001665  aa  040 164 157 040
    001666  aa  160 145 162 146
    001667  aa  157 162 155 040
    001670  aa  157 160 145 162
    001671  aa  141 164 151 157
    001672  aa  156 056 000 000

                                   143  ec  ai_son_less,aisonles,
                                   144  	(Entry access class is less than its parent.)
                        000020          	segdef  ai_son_less
    000020  a0   077777 001675
    001673  aa  141 151 163 157         	aci  "aisonles",8
    001674  aa  156 154 145 163
    001675  aa  053 105 156 164         	acc  "Entry access class is less than its parent."
    001676  aa  162 171 040 141
    001677  aa  143 143 145 163
    001700  aa  163 040 143 154
    001701  aa  141 163 163 040
    001702  aa  151 163 040 154
    001703  aa  145 163 163 040
    001704  aa  164 150 141 156
    001705  aa  040 151 164 163
    001706  aa  040 160 141 162
    001707  aa  145 156 164 056

                                   145  ec  already_assigned,assigned,
                                   146  	(Indicated device assigned to another process.)
                        000021          	segdef  already_assigned
    000021  a0   077777 001712
    001710  aa  141 163 163 151         	aci  "assigned",8
    001711  aa  147 156 145 144
    001712  aa  055 111 156 144         	acc  "Indicated device assigned to another process."
    001713  aa  151 143 141 164
    001714  aa  145 144 040 144
    001715  aa  145 166 151 143
    001716  aa  145 040 141 163
    001717  aa  163 151 147 156
    001720  aa  145 144 040 164
    001721  aa  157 040 141 156
    001722  aa  157 164 150 145
    001723  aa  162 040 160 162
    001724  aa  157 143 145 163
    001725  aa  163 056 000 000

                                   147  ec  already_initialized,noreinit,
                                   148  	(Initialization has already been completed and will not be re-done.)
                        000022          	segdef  already_initialized
    000022  a0   077777 001730
    001726  aa  156 157 162 145         	aci  "noreinit",8
    001727  aa  151 156 151 164
    001730  aa  102 111 156 151         	acc  "Initialization has already been completed and will not be re-done."
    001731  aa  164 151 141 154
    001732  aa  151 172 141 164
    001733  aa  151 157 156 040
    001734  aa  150 141 163 040
    001735  aa  141 154 162 145
    001736  aa  141 144 171 040
    001737  aa  142 145 145 156
    001740  aa  040 143 157 155
    001741  aa  160 154 145 164
    001742  aa  145 144 040 141
    001743  aa  156 144 040 167
    001744  aa  151 154 154 040
    001745  aa  156 157 164 040
    001746  aa  142 145 040 162
    001747  aa  145 055 144 157
    001750  aa  156 145 056 000

                                   149  ec  apt_full,aptfull,
                                   150  	(Active process table is full.  Could not create process.)
                        000023          	segdef  apt_full
    000023  a0   077777 001753
    001751  aa  141 160 164 146         	aci  "aptfull",8
    001752  aa  165 154 154 040
    001753  aa  070 101 143 164         	acc  "Active process table is full.  Could not create process."
    001754  aa  151 166 145 040
    001755  aa  160 162 157 143
    001756  aa  145 163 163 040
    001757  aa  164 141 142 154
    001760  aa  145 040 151 163
    001761  aa  040 146 165 154
    001762  aa  154 056 040 040
    001763  aa  103 157 165 154
    001764  aa  144 040 156 157
    001765  aa  164 040 143 162
    001766  aa  145 141 164 145
    001767  aa  040 160 162 157
    001770  aa  143 145 163 163
    001771  aa  056 000 000 000

                                   151  ec  archive_component_modification,compmod,
                                   152  	(This procedure may not modify archive components.)
                        000024          	segdef  archive_component_modification
    000024  a0   077777 001774
    001772  aa  143 157 155 160         	aci  "compmod",8
    001773  aa  155 157 144 040
    001774  aa  061 124 150 151         	acc  "This procedure may not modify archive components."
    001775  aa  163 040 160 162
    001776  aa  157 143 145 144
    001777  aa  165 162 145 040
    002000  aa  155 141 171 040
    002001  aa  156 157 164 040
    002002  aa  155 157 144 151
    002003  aa  146 171 040 141
    002004  aa  162 143 150 151
    002005  aa  166 145 040 143
    002006  aa  157 155 160 157
    002007  aa  156 145 156 164
    002010  aa  163 056 000 000

                                   153  ec  archive_fmt_err,acfmterr,
                                   154  	(Format error encountered in archive segment.)
                        000025          	segdef  archive_fmt_err
    000025  a0   077777 002013
    002011  aa  141 143 146 155         	aci  "acfmterr",8
    002012  aa  164 145 162 162
    002013  aa  054 106 157 162         	acc  "Format error encountered in archive segment."
    002014  aa  155 141 164 040
    002015  aa  145 162 162 157
    002016  aa  162 040 145 156
    002017  aa  143 157 165 156
    002020  aa  164 145 162 145
    002021  aa  144 040 151 156
    002022  aa  040 141 162 143
    002023  aa  150 151 166 145
    002024  aa  040 163 145 147
    002025  aa  155 145 156 164
    002026  aa  056 000 000 000

                                   155  ec  archive_pathname,ac_path,
                                   156  	(Archive component pathname not permitted.)
                        000026          	segdef  archive_pathname
    000026  a0   077777 002031
    002027  aa  141 143 137 160         	aci  "ac_path",8
    002030  aa  141 164 150 040
    002031  aa  051 101 162 143         	acc  "Archive component pathname not permitted."
    002032  aa  150 151 166 145
    002033  aa  040 143 157 155
    002034  aa  160 157 156 145
    002035  aa  156 164 040 160
    002036  aa  141 164 150 156
    002037  aa  141 155 145 040
    002040  aa  156 157 164 040
    002041  aa  160 145 162 155
    002042  aa  151 164 164 145
    002043  aa  144 056 000 000

                                   157  ec  area_too_small,areasmal,
                                   158  	(Supplied area too small for this request.)
                        000027          	segdef  area_too_small
    000027  a0   077777 002046
    002044  aa  141 162 145 141         	aci  "areasmal",8
    002045  aa  163 155 141 154
    002046  aa  051 123 165 160         	acc  "Supplied area too small for this request."
    002047  aa  160 154 151 145
    002050  aa  144 040 141 162
    002051  aa  145 141 040 164
    002052  aa  157 157 040 163
    002053  aa  155 141 154 154
    002054  aa  040 146 157 162
    002055  aa  040 164 150 151
    002056  aa  163 040 162 145
    002057  aa  161 165 145 163
    002060  aa  164 056 000 000

                                   159  ec  arg_ignored,arg_ign,
                                   160  	(Argument ignored.)
                        000030          	segdef  arg_ignored
    000030  a0   077777 002063
    002061  aa  141 162 147 137         	aci  "arg_ign",8
    002062  aa  151 147 156 040
    002063  aa  021 101 162 147         	acc  "Argument ignored."
    002064  aa  165 155 145 156
    002065  aa  164 040 151 147
    002066  aa  156 157 162 145
    002067  aa  144 056 000 000

                                   161  ec  argerr,,
                                   162  	(There is an inconsistency in arguments to the storage system.)
                        000031          	segdef  argerr
    000031  a0   077777 002072
    002070  aa  141 162 147 145         	aci  "argerr",8
    002071  aa  162 162 040 040
    002072  aa  075 124 150 145         	acc  "There is an inconsistency in arguments to the storage system."
    002073  aa  162 145 040 151
    002074  aa  163 040 141 156
    002075  aa  040 151 156 143
    002076  aa  157 156 163 151
    002077  aa  163 164 145 156
    002100  aa  143 171 040 151
    002101  aa  156 040 141 162
    002102  aa  147 165 155 145
    002103  aa  156 164 163 040
    002104  aa  164 157 040 164
    002105  aa  150 145 040 163
    002106  aa  164 157 162 141
    002107  aa  147 145 040 163
    002110  aa  171 163 164 145
    002111  aa  155 056 000 000

                                   163  ec  as_bump_user_not_found,asbmpusr,
                                   164  	(The process to be bumped was not found.)
                        000032          	segdef  as_bump_user_not_found
    000032  a0   077777 002114
    002112  aa  141 163 142 155         	aci  "asbmpusr",8
    002113  aa  160 165 163 162
    002114  aa  047 124 150 145         	acc  "The process to be bumped was not found."
    002115  aa  040 160 162 157
    002116  aa  143 145 163 163
    002117  aa  040 164 157 040
    002120  aa  142 145 040 142
    002121  aa  165 155 160 145
    002122  aa  144 040 167 141
    002123  aa  163 040 156 157
    002124  aa  164 040 146 157
    002125  aa  165 156 144 056

                                   165  ec  as_request_sender_missing,assender,
                                   166            (The sender of an AS request has logged out before being validated)
                        000033          	segdef  as_request_sender_missing
    000033  a0   077777 002130
    002126  aa  141 163 163 145         	aci  "assender",8
    002127  aa  156 144 145 162
    002130  aa  101 124 150 145         	acc  "The sender of an AS request has logged out before being validated"
    002131  aa  040 163 145 156
    002132  aa  144 145 162 040
    002133  aa  157 146 040 141
    002134  aa  156 040 101 123
    002135  aa  040 162 145 161
    002136  aa  165 145 163 164
    002137  aa  040 150 141 163
    002140  aa  040 154 157 147
    002141  aa  147 145 144 040
    002142  aa  157 165 164 040
    002143  aa  142 145 146 157
    002144  aa  162 145 040 142
    002145  aa  145 151 156 147
    002146  aa  040 166 141 154
    002147  aa  151 144 141 164
    002150  aa  145 144 000 000

                                   167  ec  as_request_invalid_request,asinval,
                                   168            (The AS request message was too short or had a bad request type)
                        000034          	segdef  as_request_invalid_request
    000034  a0   077777 002153
    002151  aa  141 163 151 156         	aci  "asinval",8
    002152  aa  166 141 154 040
    002153  aa  076 124 150 145         	acc  "The AS request message was too short or had a bad request type"
    002154  aa  040 101 123 040
    002155  aa  162 145 161 165
    002156  aa  145 163 164 040
    002157  aa  155 145 163 163
    002160  aa  141 147 145 040
    002161  aa  167 141 163 040
    002162  aa  164 157 157 040
    002163  aa  163 150 157 162
    002164  aa  164 040 157 162
    002165  aa  040 150 141 144
    002166  aa  040 141 040 142
    002167  aa  141 144 040 162
    002170  aa  145 161 165 145
    002171  aa  163 164 040 164
    002172  aa  171 160 145 000

                                   169  ec  as_sac_command_read,assacrd,
                                   170  	(A send_admin_command line attempted to read from user_i/o.)
                        000035          	segdef  as_sac_command_read
    000035  a0   077777 002175
    002173  aa  141 163 163 141         	aci  "assacrd",8
    002174  aa  143 162 144 040
    002175  aa  072 101 040 163         	acc  "A send_admin_command line attempted to read from user_i/o."
    002176  aa  145 156 144 137
    002177  aa  141 144 155 151
    002200  aa  156 137 143 157
    002201  aa  155 155 141 156
    002202  aa  144 040 154 151
    002203  aa  156 145 040 141
    002204  aa  164 164 145 155
    002205  aa  160 164 145 144
    002206  aa  040 164 157 040
    002207  aa  162 145 141 144
    002210  aa  040 146 162 157
    002211  aa  155 040 165 163
    002212  aa  145 162 137 151
    002213  aa  057 157 056 000

                                   171  ec  asynch_change,asyncchg,
                                   172  	(A previously referenced item has been changed by another opening.)
                        000036          	segdef  asynch_change
    000036  a0   077777 002216
    002214  aa  141 163 171 156         	aci  "asyncchg",8
    002215  aa  143 143 150 147
    002216  aa  101 101 040 160         	acc  "A previously referenced item has been changed by another opening."
    002217  aa  162 145 166 151
    002220  aa  157 165 163 154
    002221  aa  171 040 162 145
    002222  aa  146 145 162 145
    002223  aa  156 143 145 144
    002224  aa  040 151 164 145
    002225  aa  155 040 150 141
    002226  aa  163 040 142 145
    002227  aa  145 156 040 143
    002230  aa  150 141 156 147
    002231  aa  145 144 040 142
    002232  aa  171 040 141 156
    002233  aa  157 164 150 145
    002234  aa  162 040 157 160
    002235  aa  145 156 151 156
    002236  aa  147 056 000 000

                                   173  ec  asynch_deletion,asyncdel,
                                   174  	(Record located by seek_key has been deleted by another opening.)
                        000037          	segdef  asynch_deletion
    000037  a0   077777 002241
    002237  aa  141 163 171 156         	aci  "asyncdel",8
    002240  aa  143 144 145 154
    002241  aa  077 122 145 143         	acc  "Record located by seek_key has been deleted by another opening."
    002242  aa  157 162 144 040
    002243  aa  154 157 143 141
    002244  aa  164 145 144 040
    002245  aa  142 171 040 163
    002246  aa  145 145 153 137
    002247  aa  153 145 171 040
    002250  aa  150 141 163 040
    002251  aa  142 145 145 156
    002252  aa  040 144 145 154
    002253  aa  145 164 145 144
    002254  aa  040 142 171 040
    002255  aa  141 156 157 164
    002256  aa  150 145 162 040
    002257  aa  157 160 145 156
    002260  aa  151 156 147 056

                                   175  ec  asynch_insertion,as_ins,
                                   176  	(Record with key for insertion has been added by another opening.)
                        000040          	segdef  asynch_insertion
    000040  a0   077777 002263
    002261  aa  141 163 137 151         	aci  "as_ins",8
    002262  aa  156 163 040 040
    002263  aa  100 122 145 143         	acc  "Record with key for insertion has been added by another opening."
    002264  aa  157 162 144 040
    002265  aa  167 151 164 150
    002266  aa  040 153 145 171
    002267  aa  040 146 157 162
    002270  aa  040 151 156 163
    002271  aa  145 162 164 151
    002272  aa  157 156 040 150
    002273  aa  141 163 040 142
    002274  aa  145 145 156 040
    002275  aa  141 144 144 145
    002276  aa  144 040 142 171
    002277  aa  040 141 156 157
    002300  aa  164 150 145 162
    002301  aa  040 157 160 145
    002302  aa  156 151 156 147
    002303  aa  056 000 000 000

                                   177  ec  att_loop,,
                                   178  	(Attachment loop.)
                        000041          	segdef  att_loop
    000041  a0   077777 002306
    002304  aa  141 164 164 137         	aci  "att_loop",8
    002305  aa  154 157 157 160
    002306  aa  020 101 164 164         	acc  "Attachment loop."
    002307  aa  141 143 150 155
    002310  aa  145 156 164 040
    002311  aa  154 157 157 160
    002312  aa  056 000 000 000

                                   179  ec  auth_incorrect,authinc,
                                   180  	(Incorrect authentication code.)
                        000042          	segdef  auth_incorrect
    000042  a0   077777 002315
    002313  aa  141 165 164 150         	aci  "authinc",8
    002314  aa  151 156 143 040
    002315  aa  036 111 156 143         	acc  "Incorrect authentication code."
    002316  aa  157 162 162 145
    002317  aa  143 164 040 141
    002320  aa  165 164 150 145
    002321  aa  156 164 151 143
    002322  aa  141 164 151 157
    002323  aa  156 040 143 157
    002324  aa  144 145 056 000

                                   181  ec  auth_unknown,authun,
                                   182  	(Unknown authentication code.)
                        000043          	segdef  auth_unknown
    000043  a0   077777 002327
    002325  aa  141 165 164 150         	aci  "authun",8
    002326  aa  165 156 040 040
    002327  aa  034 125 156 153         	acc  "Unknown authentication code."
    002330  aa  156 157 167 156
    002331  aa  040 141 165 164
    002332  aa  150 145 156 164
    002333  aa  151 143 141 164
    002334  aa  151 157 156 040
    002335  aa  143 157 144 145
    002336  aa  056 000 000 000

                                   183  ec  bad_acl_mode,badacmod,
                                   184  	(Bad mode specification for ACL.)
                        000044          	segdef  bad_acl_mode
    000044  a0   077777 002341
    002337  aa  142 141 144 141         	aci  "badacmod",8
    002340  aa  143 155 157 144
    002341  aa  037 102 141 144         	acc  "Bad mode specification for ACL."
    002342  aa  040 155 157 144
    002343  aa  145 040 163 160
    002344  aa  145 143 151 146
    002345  aa  151 143 141 164
    002346  aa  151 157 156 040
    002347  aa  146 157 162 040
    002350  aa  101 103 114 056

                                   185  ec (bad_arg,badarg),bad_arg,
                                   186  	(Invalid argument.)
                        000045          	segdef  bad_arg
                        000045          	segdef  badarg
    000045  a0   077777 002353
    002351  aa  142 141 144 137         	aci  "bad_arg",8
    002352  aa  141 162 147 040
    002353  aa  021 111 156 166         	acc  "Invalid argument."
    002354  aa  141 154 151 144
    002355  aa  040 141 162 147
    002356  aa  165 155 145 156
    002357  aa  164 056 000 000

                                   187  ec  bad_arg_acc,badargac,
                                   188  	(Improper access to given argument.)
                        000046          	segdef  bad_arg_acc
    000046  a0   077777 002362
    002360  aa  142 141 144 141         	aci  "badargac",8
    002361  aa  162 147 141 143
    002362  aa  042 111 155 160         	acc  "Improper access to given argument."
    002363  aa  162 157 160 145
    002364  aa  162 040 141 143
    002365  aa  143 145 163 163
    002366  aa  040 164 157 040
    002367  aa  147 151 166 145
    002370  aa  156 040 141 162
    002371  aa  147 165 155 145
    002372  aa  156 164 056 000

                                   189  ec  bad_bar_sp,badbarsp,
                                   190  	(The signaller could not use the saved sp in the stack base for bar mode.)
                        000047          	segdef  bad_bar_sp
    000047  a0   077777 002375
    002373  aa  142 141 144 142         	aci  "badbarsp",8
    002374  aa  141 162 163 160
    002375  aa  110 124 150 145         	acc  "The signaller could not use the saved sp in the stack base for bar mode."
    002376  aa  040 163 151 147
    002377  aa  156 141 154 154
    002400  aa  145 162 040 143
    002401  aa  157 165 154 144
    002402  aa  040 156 157 164
    002403  aa  040 165 163 145
    002404  aa  040 164 150 145
    002405  aa  040 163 141 166
    002406  aa  145 144 040 163
    002407  aa  160 040 151 156
    002410  aa  040 164 150 145
    002411  aa  040 163 164 141
    002412  aa  143 153 040 142
    002413  aa  141 163 145 040
    002414  aa  146 157 162 040
    002415  aa  142 141 162 040
    002416  aa  155 157 144 145
    002417  aa  056 000 000 000

                                   191  ec  bad_channel,badchnnl,
                                   192  	(Incorrect IO channel specification.)
                        000050          	segdef  bad_channel
    000050  a0   077777 002422
    002420  aa  142 141 144 143         	aci  "badchnnl",8
    002421  aa  150 156 156 154
    002422  aa  043 111 156 143         	acc  "Incorrect IO channel specification."
    002423  aa  157 162 162 145
    002424  aa  143 164 040 111
    002425  aa  117 040 143 150
    002426  aa  141 156 156 145
    002427  aa  154 040 163 160
    002430  aa  145 143 151 146
    002431  aa  151 143 141 164
    002432  aa  151 157 156 056

                                   193  ec  bad_class_def,badclass,
                                   194  	(Bad class code in definition.)
                        000051          	segdef  bad_class_def
    000051  a0   077777 002435
    002433  aa  142 141 144 143         	aci  "badclass",8
    002434  aa  154 141 163 163
    002435  aa  035 102 141 144         	acc  "Bad class code in definition."
    002436  aa  040 143 154 141
    002437  aa  163 163 040 143
    002440  aa  157 144 145 040
    002441  aa  151 156 040 144
    002442  aa  145 146 151 156
    002443  aa  151 164 151 157
    002444  aa  156 056 000 000

                                   195  ec  bad_command_name,badcomnm,
                                   196  	(Improper syntax in command name.)
                        000052          	segdef  bad_command_name
    000052  a0   077777 002447
    002445  aa  142 141 144 143         	aci  "badcomnm",8
    002446  aa  157 155 156 155
    002447  aa  040 111 155 160         	acc  "Improper syntax in command name."
    002450  aa  162 157 160 145
    002451  aa  162 040 163 171
    002452  aa  156 164 141 170
    002453  aa  040 151 156 040
    002454  aa  143 157 155 155
    002455  aa  141 156 144 040
    002456  aa  156 141 155 145
    002457  aa  056 000 000 000

                                   197  ec  bad_conversion,bad_conv,
                                   198  	(Error in conversion.)
                        000053          	segdef  bad_conversion
    000053  a0   077777 002462
    002460  aa  142 141 144 137         	aci  "bad_conv",8
    002461  aa  143 157 156 166
    002462  aa  024 105 162 162         	acc  "Error in conversion."
    002463  aa  157 162 040 151
    002464  aa  156 040 143 157
    002465  aa  156 166 145 162
    002466  aa  163 151 157 156
    002467  aa  056 000 000 000

                                   199  "   a conversion condition occurred while trying to convert
                                   200  "   a value.
                                   201
                                   202  ec  bad_date,bad_date,
                                   203  	(The date is incorrect.)
                        000054          	segdef  bad_date
    000054  a0   077777 002472
    002470  aa  142 141 144 137         	aci  "bad_date",8
    002471  aa  144 141 164 145
    002472  aa  026 124 150 145         	acc  "The date is incorrect."
    002473  aa  040 144 141 164
    002474  aa  145 040 151 163
    002475  aa  040 151 156 143
    002476  aa  157 162 162 145
    002477  aa  143 164 056 000

                                   204  ec  bad_day_of_week,bad_dow,
                                   205  	(The day-of-the-week is incorrect.)
                        000055          	segdef  bad_day_of_week
    000055  a0   077777 002502
    002500  aa  142 141 144 137         	aci  "bad_dow",8
    002501  aa  144 157 167 040
    002502  aa  041 124 150 145         	acc  "The day-of-the-week is incorrect."
    002503  aa  040 144 141 171
    002504  aa  055 157 146 055
    002505  aa  164 150 145 055
    002506  aa  167 145 145 153
    002507  aa  040 151 163 040
    002510  aa  151 156 143 157
    002511  aa  162 162 145 143
    002512  aa  164 056 000 000

                                   206  ec  bad_deferred_init,baddefin,
                                   207  	(Invalid link reference found in deferred initialiation structure.)
                        000056          	segdef  bad_deferred_init
    000056  a0   077777 002515
    002513  aa  142 141 144 144         	aci  "baddefin",8
    002514  aa  145 146 151 156
    002515  aa  101 111 156 166         	acc  "Invalid link reference found in deferred initialiation structure."
    002516  aa  141 154 151 144
    002517  aa  040 154 151 156
    002520  aa  153 040 162 145
    002521  aa  146 145 162 145
    002522  aa  156 143 145 040
    002523  aa  146 157 165 156
    002524  aa  144 040 151 156
    002525  aa  040 144 145 146
    002526  aa  145 162 162 145
    002527  aa  144 040 151 156
    002530  aa  151 164 151 141
    002531  aa  154 151 141 164
    002532  aa  151 157 156 040
    002533  aa  163 164 162 165
    002534  aa  143 164 165 162
    002535  aa  145 056 000 000

                                   208  "   the target_relp value in a deferred init structure did not refer to a
                                   209  "   snapped link or the link_relp offset did not point to an unsnapped link.
                                   210
                                   211  ec  bad_density,bad_dens,
                                   212  	(Incorrect recording media density.)
                        000057          	segdef  bad_density
    000057  a0   077777 002540
    002536  aa  142 141 144 137         	aci  "bad_dens",8
    002537  aa  144 145 156 163
    002540  aa  042 111 156 143         	acc  "Incorrect recording media density."
    002541  aa  157 162 162 145
    002542  aa  143 164 040 162
    002543  aa  145 143 157 162
    002544  aa  144 151 156 147
    002545  aa  040 155 145 144
    002546  aa  151 141 040 144
    002547  aa  145 156 163 151
    002550  aa  164 171 056 000

                                   213  ec  bad_dir,,
                                   214  	(There is an inconsistency in this directory.)
                        000060          	segdef  bad_dir
    000060  a0   077777 002553
    002551  aa  142 141 144 137         	aci  "bad_dir",8
    002552  aa  144 151 162 040
    002553  aa  054 124 150 145         	acc  "There is an inconsistency in this directory."
    002554  aa  162 145 040 151
    002555  aa  163 040 141 156
    002556  aa  040 151 156 143
    002557  aa  157 156 163 151
    002560  aa  163 164 145 156
    002561  aa  143 171 040 151
    002562  aa  156 040 164 150
    002563  aa  151 163 040 144
    002564  aa  151 162 145 143
    002565  aa  164 157 162 171
    002566  aa  056 000 000 000

                                   215  ec  bad_entry_point_name,badename,
                                   216  	(Illegal entry point name in make_ptr call.)
                        000061          	segdef  bad_entry_point_name
    000061  a0   077777 002571
    002567  aa  142 141 144 145         	aci  "badename",8
    002570  aa  156 141 155 145
    002571  aa  052 111 154 154         	acc  "Illegal entry point name in make_ptr call."
    002572  aa  145 147 141 154
    002573  aa  040 145 156 164
    002574  aa  162 171 040 160
    002575  aa  157 151 156 164
    002576  aa  040 156 141 155
    002577  aa  145 040 151 156
    002600  aa  040 155 141 153
    002601  aa  145 137 160 164
    002602  aa  162 040 143 141
    002603  aa  154 154 056 000

                                   217  ec  bad_equal_name,bdeqlnam,
                                   218  	(Illegal syntax in equal name.)
                        000062          	segdef  bad_equal_name
    000062  a0   077777 002606
    002604  aa  142 144 145 161         	aci  "bdeqlnam",8
    002605  aa  154 156 141 155
    002606  aa  035 111 154 154         	acc  "Illegal syntax in equal name."
    002607  aa  145 147 141 154
    002610  aa  040 163 171 156
    002611  aa  164 141 170 040
    002612  aa  151 156 040 145
    002613  aa  161 165 141 154
    002614  aa  040 156 141 155
    002615  aa  145 056 000 000

                                   219  ec  bad_file,bad_file,
                                   220  	(File is not a structured file or is inconsistent.)
                        000063          	segdef  bad_file
    000063  a0   077777 002620
    002616  aa  142 141 144 137         	aci  "bad_file",8
    002617  aa  146 151 154 145
    002620  aa  061 106 151 154         	acc  "File is not a structured file or is inconsistent."
    002621  aa  145 040 151 163
    002622  aa  040 156 157 164
    002623  aa  040 141 040 163
    002624  aa  164 162 165 143
    002625  aa  164 165 162 145
    002626  aa  144 040 146 151
    002627  aa  154 145 040 157
    002630  aa  162 040 151 163
    002631  aa  040 151 156 143
    002632  aa  157 156 163 151
    002633  aa  163 164 145 156
    002634  aa  164 056 000 000

                                   221  ec  bad_file_name,badentry,
                                   222  	(Invalid syntax in entryname.)
                        000064          	segdef  bad_file_name
    000064  a0   077777 002637
    002635  aa  142 141 144 145         	aci  "badentry",8
    002636  aa  156 164 162 171
    002637  aa  034 111 156 166         	acc  "Invalid syntax in entryname."
    002640  aa  141 154 151 144
    002641  aa  040 163 171 156
    002642  aa  164 141 170 040
    002643  aa  151 156 040 145
    002644  aa  156 164 162 171
    002645  aa  156 141 155 145
    002646  aa  056 000 000 000

                                   223  ec  bad_first_ref_trap,bdfrtrap,
                                   224  	(Illegal structure provided for trap at first reference.)
                        000065          	segdef  bad_first_ref_trap
    000065  a0   077777 002651
    002647  aa  142 144 146 162         	aci  "bdfrtrap",8
    002650  aa  164 162 141 160
    002651  aa  067 111 154 154         	acc  "Illegal structure provided for trap at first reference."
    002652  aa  145 147 141 154
    002653  aa  040 163 164 162
    002654  aa  165 143 164 165
    002655  aa  162 145 040 160
    002656  aa  162 157 166 151
    002657  aa  144 145 144 040
    002660  aa  146 157 162 040
    002661  aa  164 162 141 160
    002662  aa  040 141 164 040
    002663  aa  146 151 162 163
    002664  aa  164 040 162 145
    002665  aa  146 145 162 145
    002666  aa  156 143 145 056

                                   225  ec  bad_handler_access,noacchd,
                                   226  	(Improper access on handler for this signal.)
                        000066          	segdef  bad_handler_access
    000066  a0   077777 002671
    002667  aa  156 157 141 143         	aci  "noacchd",8
    002670  aa  143 150 144 040
    002671  aa  053 111 155 160         	acc  "Improper access on handler for this signal."
    002672  aa  162 157 160 145
    002673  aa  162 040 141 143
    002674  aa  143 145 163 163
    002675  aa  040 157 156 040
    002676  aa  150 141 156 144
    002677  aa  154 145 162 040
    002700  aa  146 157 162 040
    002701  aa  164 150 151 163
    002702  aa  040 163 151 147
    002703  aa  156 141 154 056

                                   227  ec  bad_index,badindex,
                                   228  	(Internal index out of bounds.)
                        000067          	segdef  bad_index
    000067  a0   077777 002706
    002704  aa  142 141 144 151         	aci  "badindex",8
    002705  aa  156 144 145 170
    002706  aa  035 111 156 164         	acc  "Internal index out of bounds."
    002707  aa  145 162 156 141
    002710  aa  154 040 151 156
    002711  aa  144 145 170 040
    002712  aa  157 165 164 040
    002713  aa  157 146 040 142
    002714  aa  157 165 156 144
    002715  aa  163 056 000 000

                                   229  ec  bad_indirect_def,bdinddef,
                                   230  	(Improper target of indirect definition.)
                        000070          	segdef  bad_indirect_def
    000070  a0   077777 002720
    002716  aa  142 144 151 156         	aci  "bdinddef",8
    002717  aa  144 144 145 146
    002720  aa  047 111 155 160         	acc  "Improper target of indirect definition."
    002721  aa  162 157 160 145
    002722  aa  162 040 164 141
    002723  aa  162 147 145 164
    002724  aa  040 157 146 040
    002725  aa  151 156 144 151
    002726  aa  162 145 143 164
    002727  aa  040 144 145 146
    002730  aa  151 156 151 164
    002731  aa  151 157 156 056

                                   231  "   A definition flagged as indirect either does not reference the linkage
                                   232  "   section, or points to something other than an ITS pointer (snapped link)
                                   233  "   or an unsnapped partial link.
                                   234
                                   235  ec  bad_label,badlabel,
                                   236  	(Incorrect detachable medium label.)
                        000071          	segdef  bad_label
    000071  a0   077777 002734
    002732  aa  142 141 144 154         	aci  "badlabel",8
    002733  aa  141 142 145 154
    002734  aa  042 111 156 143         	acc  "Incorrect detachable medium label."
    002735  aa  157 162 162 145
    002736  aa  143 164 040 144
    002737  aa  145 164 141 143
    002740  aa  150 141 142 154
    002741  aa  145 040 155 145
    002742  aa  144 151 165 155
    002743  aa  040 154 141 142
    002744  aa  145 154 056 000

                                   237  ec  bad_link_target_init_info,bdlkinit,
                                   238  	(Illegal initialization info passed with create-if-not-found link.)
                        000072          	segdef  bad_link_target_init_info
    000072  a0   077777 002747
    002745  aa  142 144 154 153         	aci  "bdlkinit",8
    002746  aa  151 156 151 164
    002747  aa  101 111 154 154         	acc  "Illegal initialization info passed with create-if-not-found link."
    002750  aa  145 147 141 154
    002751  aa  040 151 156 151
    002752  aa  164 151 141 154
    002753  aa  151 172 141 164
    002754  aa  151 157 156 040
    002755  aa  151 156 146 157
    002756  aa  040 160 141 163
    002757  aa  163 145 144 040
    002760  aa  167 151 164 150
    002761  aa  040 143 162 145
    002762  aa  141 164 145 055
    002763  aa  151 146 055 156
    002764  aa  157 164 055 146
    002765  aa  157 165 156 144
    002766  aa  040 154 151 156
    002767  aa  153 056 000 000

                                   239  ec  bad_link_type,badlktyp,
                                   240  	(Illegal type code in type pair block.)
                        000073          	segdef  bad_link_type
    000073  a0   077777 002772
    002770  aa  142 141 144 154         	aci  "badlktyp",8
    002771  aa  153 164 171 160
    002772  aa  045 111 154 154         	acc  "Illegal type code in type pair block."
    002773  aa  145 147 141 154
    002774  aa  040 164 171 160
    002775  aa  145 040 143 157
    002776  aa  144 145 040 151
    002777  aa  156 040 164 171
    003000  aa  160 145 040 160
    003001  aa  141 151 162 040
    003002  aa  142 154 157 143
    003003  aa  153 056 000 000

                                   241  ec  bad_linkage_access,bdlnkac,
                                   242  	(Improper access on user's linkage segment.)
                        000074          	segdef  bad_linkage_access
    000074  a0   077777 003006
    003004  aa  142 144 154 156         	aci  "bdlnkac",8
    003005  aa  153 141 143 040
    003006  aa  052 111 155 160         	acc  "Improper access on user's linkage segment."
    003007  aa  162 157 160 145
    003010  aa  162 040 141 143
    003011  aa  143 145 163 163
    003012  aa  040 157 156 040
    003013  aa  165 163 145 162
    003014  aa  047 163 040 154
    003015  aa  151 156 153 141
    003016  aa  147 145 040 163
    003017  aa  145 147 155 145
    003020  aa  156 164 056 000

                                   243  ec  bad_mbx_acl_awu,bdmacawu,
                                   244  	(The a mode is required whenever the w or u mode is used.  Please type ""help mailbox_acls"".)
                        000075          	segdef  bad_mbx_acl_awu
    000075  a0   077777 003023
    003021  aa  142 144 155 141         	aci  "bdmacawu",8
    003022  aa  143 141 167 165
    003023  aa  132 124 150 145         	acc  "The a mode is required whenever the w or u mode is used.  Please type ""help mailbox_acls""."
    003024  aa  040 141 040 155
    003025  aa  157 144 145 040
    003026  aa  151 163 040 162
    003027  aa  145 161 165 151
    003030  aa  162 145 144 040
    003031  aa  167 150 145 156
    003032  aa  145 166 145 162
    003033  aa  040 164 150 145
    003034  aa  040 167 040 157
    003035  aa  162 040 165 040
    003036  aa  155 157 144 145
    003037  aa  040 151 163 040
    003040  aa  165 163 145 144
    003041  aa  056 040 040 120
    003042  aa  154 145 141 163
    003043  aa  145 040 164 171
    003044  aa  160 145 040 042
    003045  aa  150 145 154 160
    003046  aa  040 155 141 151
    003047  aa  154 142 157 170
    003050  aa  137 141 143 154
    003051  aa  163 042 056 000

                                   245  ec  bad_mbx_acl_rs,bdmacrs,
                                   246  	(The s mode is required whenever the r mode is used.  Please type ""help mailbox_acls"".)
                        000076          	segdef  bad_mbx_acl_rs
    000076  a0   077777 003054
    003052  aa  142 144 155 141         	aci  "bdmacrs",8
    003053  aa  143 162 163 040
    003054  aa  125 124 150 145         	acc  "The s mode is required whenever the r mode is used.  Please type ""help mailbox_acls""."
    003055  aa  040 163 040 155
    003056  aa  157 144 145 040
    003057  aa  151 163 040 162
    003060  aa  145 161 165 151
    003061  aa  162 145 144 040
    003062  aa  167 150 145 156
    003063  aa  145 166 145 162
    003064  aa  040 164 150 145
    003065  aa  040 162 040 155
    003066  aa  157 144 145 040
    003067  aa  151 163 040 165
    003070  aa  163 145 144 056
    003071  aa  040 040 120 154
    003072  aa  145 141 163 145
    003073  aa  040 164 171 160
    003074  aa  145 040 042 150
    003075  aa  145 154 160 040
    003076  aa  155 141 151 154
    003077  aa  142 157 170 137
    003100  aa  141 143 154 163
    003101  aa  042 056 000 000

                                   247  ec  bad_mode,badmode,
                                   248  	(Improper mode specification for this device.)
                        000077          	segdef  bad_mode
    000077  a0   077777 003104
    003102  aa  142 141 144 155         	aci  "badmode",8
    003103  aa  157 144 145 040
    003104  aa  054 111 155 160         	acc  "Improper mode specification for this device."
    003105  aa  162 157 160 145
    003106  aa  162 040 155 157
    003107  aa  144 145 040 163
    003110  aa  160 145 143 151
    003111  aa  146 151 143 141
    003112  aa  164 151 157 156
    003113  aa  040 146 157 162
    003114  aa  040 164 150 151
    003115  aa  163 040 144 145
    003116  aa  166 151 143 145
    003117  aa  056 000 000 000

                                   249  ec  bad_mode_syntax,bdmdsynt,
                                   250  	(Invalid syntax in mode string.)
                        000100          	segdef  bad_mode_syntax
    000100  a0   077777 003122
    003120  aa  142 144 155 144         	aci  "bdmdsynt",8
    003121  aa  163 171 156 164
    003122  aa  036 111 156 166         	acc  "Invalid syntax in mode string."
    003123  aa  141 154 151 144
    003124  aa  040 163 171 156
    003125  aa  164 141 170 040
    003126  aa  151 156 040 155
    003127  aa  157 144 145 040
    003130  aa  163 164 162 151
    003131  aa  156 147 056 000

                                   251  ec  bad_mode_value,badmdval,
                                   252  	(Invalid value for specified mode.)
                        000101          	segdef  bad_mode_value
    000101  a0   077777 003134
    003132  aa  142 141 144 155         	aci  "badmdval",8
    003133  aa  144 166 141 154
    003134  aa  041 111 156 166         	acc  "Invalid value for specified mode."
    003135  aa  141 154 151 144
    003136  aa  040 166 141 154
    003137  aa  165 145 040 146
    003140  aa  157 162 040 163
    003141  aa  160 145 143 151
    003142  aa  146 151 145 144
    003143  aa  040 155 157 144
    003144  aa  145 056 000 000

                                   253  ec  bad_mount_request,badmount,
                                   254  	(Mount request could not be honored.)
                        000102          	segdef  bad_mount_request
    000102  a0   077777 003147
    003145  aa  142 141 144 155         	aci  "badmount",8
    003146  aa  157 165 156 164
    003147  aa  043 115 157 165         	acc  "Mount request could not be honored."
    003150  aa  156 164 040 162
    003151  aa  145 161 165 145
    003152  aa  163 164 040 143
    003153  aa  157 165 154 144
    003154  aa  040 156 157 164
    003155  aa  040 142 145 040
    003156  aa  150 157 156 157
    003157  aa  162 145 144 056

                                   255  ec  bad_mpx_load_data,badload,
                                   256  	(Inconsistent multiplexer bootload data supplied.)
                        000103          	segdef  bad_mpx_load_data
    000103  a0   077777 003162
    003160  aa  142 141 144 154         	aci  "badload",8
    003161  aa  157 141 144 040
    003162  aa  060 111 156 143         	acc  "Inconsistent multiplexer bootload data supplied."
    003163  aa  157 156 163 151
    003164  aa  163 164 145 156
    003165  aa  164 040 155 165
    003166  aa  154 164 151 160
    003167  aa  154 145 170 145
    003170  aa  162 040 142 157
    003171  aa  157 164 154 157
    003172  aa  141 144 040 144
    003173  aa  141 164 141 040
    003174  aa  163 165 160 160
    003175  aa  154 151 145 144
    003176  aa  056 000 000 000

                                   257  ec  bad_ms_file,badmsfil,
                                   258  	(Directory or link found in multisegment file.)
                        000104          	segdef  bad_ms_file
    000104  a0   077777 003201
    003177  aa  142 141 144 155         	aci  "badmsfil",8
    003200  aa  163 146 151 154
    003201  aa  055 104 151 162         	acc  "Directory or link found in multisegment file."
    003202  aa  145 143 164 157
    003203  aa  162 171 040 157
    003204  aa  162 040 154 151
    003205  aa  156 153 040 146
    003206  aa  157 165 156 144
    003207  aa  040 151 156 040
    003210  aa  155 165 154 164
    003211  aa  151 163 145 147
    003212  aa  155 145 156 164
    003213  aa  040 146 151 154
    003214  aa  145 056 000 000

                                   259  ec  bad_name,,
                                   260  	(The access name specified has an illegal syntax.)
                        000105          	segdef  bad_name
    000105  a0   077777 003217
    003215  aa  142 141 144 137         	aci  "bad_name",8
    003216  aa  156 141 155 145
    003217  aa  060 124 150 145         	acc  "The access name specified has an illegal syntax."
    003220  aa  040 141 143 143
    003221  aa  145 163 163 040
    003222  aa  156 141 155 145
    003223  aa  040 163 160 145
    003224  aa  143 151 146 151
    003225  aa  145 144 040 150
    003226  aa  141 163 040 141
    003227  aa  156 040 151 154
    003230  aa  154 145 147 141
    003231  aa  154 040 163 171
    003232  aa  156 164 141 170
    003233  aa  056 000 000 000

                                   261  ec  bad_new_key,x_newkey,
                                   262  	(Bad argument to specify the new key of a record.)
                        000106          	segdef  bad_new_key
    000106  a0   077777 003236
    003234  aa  170 137 156 145         	aci  "x_newkey",8
    003235  aa  167 153 145 171
    003236  aa  060 102 141 144         	acc  "Bad argument to specify the new key of a record."
    003237  aa  040 141 162 147
    003240  aa  165 155 145 156
    003241  aa  164 040 164 157
    003242  aa  040 163 160 145
    003243  aa  143 151 146 171
    003244  aa  040 164 150 145
    003245  aa  040 156 145 167
    003246  aa  040 153 145 171
    003247  aa  040 157 146 040
    003250  aa  141 040 162 145
    003251  aa  143 157 162 144
    003252  aa  056 000 000 000

                                   263  ec  bad_password,badpass,
                                   264  	(Incorrect password.)
                        000107          	segdef  bad_password
    000107  a0   077777 003255
    003253  aa  142 141 144 160         	aci  "badpass",8
    003254  aa  141 163 163 040
    003255  aa  023 111 156 143         	acc  "Incorrect password."
    003256  aa  157 162 162 145
    003257  aa  143 164 040 160
    003260  aa  141 163 163 167
    003261  aa  157 162 144 056

                                   265  ec  bad_pipe_syntax,pipesyn,
                                   266            (Illegal syntax in command line pipe.)
                        000110          	segdef  bad_pipe_syntax
    000110  a0   077777 003264
    003262  aa  160 151 160 145         	aci  "pipesyn",8
    003263  aa  163 171 156 040
    003264  aa  044 111 154 154         	acc  "Illegal syntax in command line pipe."
    003265  aa  145 147 141 154
    003266  aa  040 163 171 156
    003267  aa  164 141 170 040
    003270  aa  151 156 040 143
    003271  aa  157 155 155 141
    003272  aa  156 144 040 154
    003273  aa  151 156 145 040
    003274  aa  160 151 160 145
    003275  aa  056 000 000 000

                                   267  ec  bad_process_type,badproct,
                                   268  	(Invalid process type.)
                        000111          	segdef  bad_process_type
    000111  a0   077777 003300
    003276  aa  142 141 144 160         	aci  "badproct",8
    003277  aa  162 157 143 164
    003300  aa  025 111 156 166         	acc  "Invalid process type."
    003301  aa  141 154 151 144
    003302  aa  040 160 162 157
    003303  aa  143 145 163 163
    003304  aa  040 164 171 160
    003305  aa  145 056 000 000

                                   269  ec  bad_processid,badproci,
                                   270  	(Current processid does not match stored value.)
                        000112          	segdef  bad_processid
    000112  a0   077777 003310
    003306  aa  142 141 144 160         	aci  "badproci",8
    003307  aa  162 157 143 151
    003310  aa  056 103 165 162         	acc  "Current processid does not match stored value."
    003311  aa  162 145 156 164
    003312  aa  040 160 162 157
    003313  aa  143 145 163 163
    003314  aa  151 144 040 144
    003315  aa  157 145 163 040
    003316  aa  156 157 164 040
    003317  aa  155 141 164 143
    003320  aa  150 040 163 164
    003321  aa  157 162 145 144
    003322  aa  040 166 141 154
    003323  aa  165 145 056 000

                                   271  ec  bad_ptr,badptr,
                                   272  	(Argument is not an ITS pointer.)
                        000113          	segdef  bad_ptr
    000113  a0   077777 003326
    003324  aa  142 141 144 160         	aci  "badptr",8
    003325  aa  164 162 040 040
    003326  aa  037 101 162 147         	acc  "Argument is not an ITS pointer."
    003327  aa  165 155 145 156
    003330  aa  164 040 151 163
    003331  aa  040 156 157 164
    003332  aa  040 141 156 040
    003333  aa  111 124 123 040
    003334  aa  160 157 151 156
    003335  aa  164 145 162 056

                                   273  ec  bad_resource_spec,bad_rsc,
                                   274  	(Resource specification is invalid.)
                        000114          	segdef  bad_resource_spec
    000114  a0   077777 003340
    003336  aa  142 141 144 137         	aci  "bad_rsc",8
    003337  aa  162 163 143 040
    003340  aa  042 122 145 163         	acc  "Resource specification is invalid."
    003341  aa  157 165 162 143
    003342  aa  145 040 163 160
    003343  aa  145 143 151 146
    003344  aa  151 143 141 164
    003345  aa  151 157 156 040
    003346  aa  151 163 040 151
    003347  aa  156 166 141 154
    003350  aa  151 144 056 000

                                   275  ec  bad_segment,badseg,
                                   276  	(There is an internal inconsistency in the segment.)
                        000115          	segdef  bad_segment
    000115  a0   077777 003353
    003351  aa  142 141 144 163         	aci  "badseg",8
    003352  aa  145 147 040 040
    003353  aa  062 124 150 145         	acc  "There is an internal inconsistency in the segment."
    003354  aa  162 145 040 151
    003355  aa  163 040 141 156
    003356  aa  040 151 156 164
    003357  aa  145 162 156 141
    003360  aa  154 040 151 156
    003361  aa  143 157 156 163
    003362  aa  151 163 164 145
    003363  aa  156 143 171 040
    003364  aa  151 156 040 164
    003365  aa  150 145 040 163
    003366  aa  145 147 155 145
    003367  aa  156 164 056 000

                                   277  ec  bad_self_ref,badslfrf,
                                   278  	(Illegal self reference type.)
                        000116          	segdef  bad_self_ref
    000116  a0   077777 003372
    003370  aa  142 141 144 163         	aci  "badslfrf",8
    003371  aa  154 146 162 146
    003372  aa  034 111 154 154         	acc  "Illegal self reference type."
    003373  aa  145 147 141 154
    003374  aa  040 163 145 154
    003375  aa  146 040 162 145
    003376  aa  146 145 162 145
    003377  aa  156 143 145 040
    003400  aa  164 171 160 145
    003401  aa  056 000 000 000

                                   279  ec  bad_stack_access,noaccsp,
                                   280  	(Improper access on user's stack.)
                        000117          	segdef  bad_stack_access
    000117  a0   077777 003404
    003402  aa  156 157 141 143         	aci  "noaccsp",8
    003403  aa  143 163 160 040
    003404  aa  040 111 155 160         	acc  "Improper access on user's stack."
    003405  aa  162 157 160 145
    003406  aa  162 040 141 143
    003407  aa  143 145 163 163
    003410  aa  040 157 156 040
    003411  aa  165 163 145 162
    003412  aa  047 163 040 163
    003413  aa  164 141 143 153
    003414  aa  056 000 000 000

                                   281  ec  bad_string,badstrng,
                                   282  	(Unable to process a search rule string.)
                        000120          	segdef  bad_string
    000120  a0   077777 003417
    003415  aa  142 141 144 163         	aci  "badstrng",8
    003416  aa  164 162 156 147
    003417  aa  047 125 156 141         	acc  "Unable to process a search rule string."
    003420  aa  142 154 145 040
    003421  aa  164 157 040 160
    003422  aa  162 157 143 145
    003423  aa  163 163 040 141
    003424  aa  040 163 145 141
    003425  aa  162 143 150 040
    003426  aa  162 165 154 145
    003427  aa  040 163 164 162
    003430  aa  151 156 147 056

                                   283  ec  bad_subr_arg,badsbarg,
                                   284  	(Invalid argument to subroutine.)
                        000121          	segdef  bad_subr_arg
    000121  a0   077777 003433
    003431  aa  142 141 144 163         	aci  "badsbarg",8
    003432  aa  142 141 162 147
    003433  aa  037 111 156 166         	acc  "Invalid argument to subroutine."
    003434  aa  141 154 151 144
    003435  aa  040 141 162 147
    003436  aa  165 155 145 156
    003437  aa  164 040 164 157
    003440  aa  040 163 165 142
    003441  aa  162 157 165 164
    003442  aa  151 156 145 056

                                   285  ec  bad_tapeid,badtpid,
                                   286  	(Invalid volume name.)
                        000122          	segdef  bad_tapeid
    000122  a0   077777 003445
    003443  aa  142 141 144 164         	aci  "badtpid",8
    003444  aa  160 151 144 040
    003445  aa  024 111 156 166         	acc  "Invalid volume name."
    003446  aa  141 154 151 144
    003447  aa  040 166 157 154
    003450  aa  165 155 145 040
    003451  aa  156 141 155 145
    003452  aa  056 000 000 000

                                   287  ec  bad_time,bad_time,
                                   288  	(The time is incorrect.)
                        000123          	segdef  bad_time
    000123  a0   077777 003455
    003453  aa  142 141 144 137         	aci  "bad_time",8
    003454  aa  164 151 155 145
    003455  aa  026 124 150 145         	acc  "The time is incorrect."
    003456  aa  040 164 151 155
    003457  aa  145 040 151 163
    003460  aa  040 151 156 143
    003461  aa  157 162 162 145
    003462  aa  143 164 056 000

                                   289  "   the time represented by hour, minute and second is
                                   290  "   invalid, e.g. 23:60 or negative time values
                                   291
                                   292  ec  bad_trap_before_link,bdtrb4lk,
                                   293  	(Trap-before-link procedure was unable to snap link.)
                        000124          	segdef  bad_trap_before_link
    000124  a0   077777 003465
    003463  aa  142 144 164 162         	aci  "bdtrb4lk",8
    003464  aa  142 064 154 153
    003465  aa  063 124 162 141         	acc  "Trap-before-link procedure was unable to snap link."
    003466  aa  160 055 142 145
    003467  aa  146 157 162 145
    003470  aa  055 154 151 156
    003471  aa  153 040 160 162
    003472  aa  157 143 145 144
    003473  aa  165 162 145 040
    003474  aa  167 141 163 040
    003475  aa  165 156 141 142
    003476  aa  154 145 040 164
    003477  aa  157 040 163 156
    003500  aa  141 160 040 154
    003501  aa  151 156 153 056

                                   294  ec  bad_uidpath,baduidpn,
                                   295  	(UID path cannot be converted to a pathname.)
                        000125          	segdef  bad_uidpath
    000125  a0   077777 003504
    003502  aa  142 141 144 165         	aci  "baduidpn",8
    003503  aa  151 144 160 156
    003504  aa  053 125 111 104         	acc  "UID path cannot be converted to a pathname."
    003505  aa  040 160 141 164
    003506  aa  150 040 143 141
    003507  aa  156 156 157 164
    003510  aa  040 142 145 040
    003511  aa  143 157 156 166
    003512  aa  145 162 164 145
    003513  aa  144 040 164 157
    003514  aa  040 141 040 160
    003515  aa  141 164 150 156
    003516  aa  141 155 145 056

                                   296  ec  bad_vchannel,badvchn,
                                   297  	(Incorrect virtual channel specification.)
                        000126          	segdef  bad_vchannel
    000126  a0   077777 003521
    003517  aa  142 141 144 166         	aci  "badvchn",8
    003520  aa  143 150 156 040
    003521  aa  050 111 156 143         	acc  "Incorrect virtual channel specification."
    003522  aa  157 162 162 145
    003523  aa  143 164 040 166
    003524  aa  151 162 164 165
    003525  aa  141 154 040 143
    003526  aa  150 141 156 156
    003527  aa  145 154 040 163
    003530  aa  160 145 143 151
    003531  aa  146 151 143 141
    003532  aa  164 151 157 156
    003533  aa  056 000 000 000

                                   298  ec  bad_volid,badvolid,
                                   299  	(Invalid volume identifier.)
                        000127          	segdef  bad_volid
    000127  a0   077777 003536
    003534  aa  142 141 144 166         	aci  "badvolid",8
    003535  aa  157 154 151 144
    003536  aa  032 111 156 166         	acc  "Invalid volume identifier."
    003537  aa  141 154 151 144
    003540  aa  040 166 157 154
    003541  aa  165 155 145 040
    003542  aa  151 144 145 156
    003543  aa  164 151 146 151
    003544  aa  145 162 056 000

                                   300  ec  bad_work_class,badwc,
                                   301  	(Specified work class is not currently defined.)
                        000130          	segdef  bad_work_class
    000130  a0   077777 003547
    003545  aa  142 141 144 167         	aci  "badwc",8
    003546  aa  143 040 040 040
    003547  aa  056 123 160 145         	acc  "Specified work class is not currently defined."
    003550  aa  143 151 146 151
    003551  aa  145 144 040 167
    003552  aa  157 162 153 040
    003553  aa  143 154 141 163
    003554  aa  163 040 151 163
    003555  aa  040 156 157 164
    003556  aa  040 143 165 162
    003557  aa  162 145 156 164
    003560  aa  154 171 040 144
    003561  aa  145 146 151 156
    003562  aa  145 144 056 000

                                   302  ec  bad_year,bad_year,
                                   303  	(The year is not part of the 20th Century (1901 through 1999).)
                        000131          	segdef  bad_year
    000131  a0   077777 003565
    003563  aa  142 141 144 137         	aci  "bad_year",8
    003564  aa  171 145 141 162
    003565  aa  075 124 150 145         	acc  "The year is not part of the 20th Century (1901 through 1999)."
    003566  aa  040 171 145 141
    003567  aa  162 040 151 163
    003570  aa  040 156 157 164
    003571  aa  040 160 141 162
    003572  aa  164 040 157 146
    003573  aa  040 164 150 145
    003574  aa  040 062 060 164
    003575  aa  150 040 103 145
    003576  aa  156 164 165 162
    003577  aa  171 040 050 061
    003600  aa  071 060 061 040
    003601  aa  164 150 162 157
    003602  aa  165 147 150 040
    003603  aa  061 071 071 071
    003604  aa  051 056 000 000

                                   304  ec  badcall,,
                                   305  	(Procedure called improperly.)
                        000132          	segdef  badcall
    000132  a0   077777 003607
    003605  aa  142 141 144 143         	aci  "badcall",8
    003606  aa  141 154 154 040
    003607  aa  034 120 162 157         	acc  "Procedure called improperly."
    003610  aa  143 145 144 165
    003611  aa  162 145 040 143
    003612  aa  141 154 154 145
    003613  aa  144 040 151 155
    003614  aa  160 162 157 160
    003615  aa  145 162 154 171
    003616  aa  056 000 000 000

                                   306  "   the environment was not set up properly before calling
                                   307  "   this procedure.
                                   308
                                   309  ec  badequal,,
                                   310  	(Illegal use of equals convention.)
                        000133          	segdef  badequal
    000133  a0   077777 003621
    003617  aa  142 141 144 145         	aci  "badequal",8
    003620  aa  161 165 141 154
    003621  aa  041 111 154 154         	acc  "Illegal use of equals convention."
    003622  aa  145 147 141 154
    003623  aa  040 165 163 145
    003624  aa  040 157 146 040
    003625  aa  145 161 165 141
    003626  aa  154 163 040 143
    003627  aa  157 156 166 145
    003630  aa  156 164 151 157
    003631  aa  156 056 000 000

                                   311  ec (badopt,bad_opt),,
                                   312  	(Specified control argument is not accepted.)
                        000134          	segdef  badopt
                        000134          	segdef  bad_opt
    000134  a0   077777 003634
    003632  aa  142 141 144 157         	aci  "badopt",8
    003633  aa  160 164 040 040
    003634  aa  053 123 160 145         	acc  "Specified control argument is not accepted."
    003635  aa  143 151 146 151
    003636  aa  145 144 040 143
    003637  aa  157 156 164 162
    003640  aa  157 154 040 141
    003641  aa  162 147 165 155
    003642  aa  145 156 164 040
    003643  aa  151 163 040 156
    003644  aa  157 164 040 141
    003645  aa  143 143 145 160
    003646  aa  164 145 144 056

                                   313  ec  badpath,,
                                   314  	(Bad syntax in pathname.)
                        000135          	segdef  badpath
    000135  a0   077777 003651
    003647  aa  142 141 144 160         	aci  "badpath",8
    003650  aa  141 164 150 040
    003651  aa  027 102 141 144         	acc  "Bad syntax in pathname."
    003652  aa  040 163 171 156
    003653  aa  164 141 170 040
    003654  aa  151 156 040 160
    003655  aa  141 164 150 156
    003656  aa  141 155 145 056

                                   315  ec  badringno,badrngno,
                                   316  	(Input ring number invalid.)
                        000136          	segdef  badringno
    000136  a0   077777 003661
    003657  aa  142 141 144 162         	aci  "badrngno",8
    003660  aa  156 147 156 157
    003661  aa  032 111 156 160         	acc  "Input ring number invalid."
    003662  aa  165 164 040 162
    003663  aa  151 156 147 040
    003664  aa  156 165 155 142
    003665  aa  145 162 040 151
    003666  aa  156 166 141 154
    003667  aa  151 144 056 000

                                   317  ec  badstar,,
                                   318  	(Invalid syntax in starname.)
                        000137          	segdef  badstar
    000137  a0   077777 003672
    003670  aa  142 141 144 163         	aci  "badstar",8
    003671  aa  164 141 162 040
    003672  aa  033 111 156 166         	acc  "Invalid syntax in starname."
    003673  aa  141 154 151 144
    003674  aa  040 163 171 156
    003675  aa  164 141 170 040
    003676  aa  151 156 040 163
    003677  aa  164 141 162 156
    003700  aa  141 155 145 056

                                   319  ec  badsyntax,badsyntx,
                                   320  	(Syntax error in ascii segment.)
                        000140          	segdef  badsyntax
    000140  a0   077777 003703
    003701  aa  142 141 144 163         	aci  "badsyntx",8
    003702  aa  171 156 164 170
    003703  aa  036 123 171 156         	acc  "Syntax error in ascii segment."
    003704  aa  164 141 170 040
    003705  aa  145 162 162 157
    003706  aa  162 040 151 156
    003707  aa  040 141 163 143
    003710  aa  151 151 040 163
    003711  aa  145 147 155 145
    003712  aa  156 164 056 000

                                   321  ec  bdprtdmp,,
                                   322  	(Bad part dump card in config deck.)
                        000141          	segdef  bdprtdmp
    000141  a0   077777 003715
    003713  aa  142 144 160 162         	aci  "bdprtdmp",8
    003714  aa  164 144 155 160
    003715  aa  042 102 141 144         	acc  "Bad part dump card in config deck."
    003716  aa  040 160 141 162
    003717  aa  164 040 144 165
    003720  aa  155 160 040 143
    003721  aa  141 162 144 040
    003722  aa  151 156 040 143
    003723  aa  157 156 146 151
    003724  aa  147 040 144 145
    003725  aa  143 153 056 000

                                   323  ec  begin_block,beginent,
                                   324  	(Entry is for a begin block.)
                        000142          	segdef  begin_block
    000142  a0   077777 003730
    003726  aa  142 145 147 151         	aci  "beginent",8
    003727  aa  156 145 156 164
    003730  aa  033 105 156 164         	acc  "Entry is for a begin block."
    003731  aa  162 171 040 151
    003732  aa  163 040 146 157
    003733  aa  162 040 141 040
    003734  aa  142 145 147 151
    003735  aa  156 040 142 154
    003736  aa  157 143 153 056

                                   325  ec  big_seg,bigseg,
                                   326  	(Segment is too large.  Please type ""help 256K_segments.gi"".)
                        000143          	segdef  big_seg
    000143  a0   077777 003741
    003737  aa  142 151 147 163         	aci  "bigseg",8
    003740  aa  145 147 040 040
    003741  aa  073 123 145 147         	acc  "Segment is too large.  Please type ""help 256K_segments.gi""."
    003742  aa  155 145 156 164
    003743  aa  040 151 163 040
    003744  aa  164 157 157 040
    003745  aa  154 141 162 147
    003746  aa  145 056 040 040
    003747  aa  120 154 145 141
    003750  aa  163 145 040 164
    003751  aa  171 160 145 040
    003752  aa  042 150 145 154
    003753  aa  160 040 062 065
    003754  aa  066 113 137 163
    003755  aa  145 147 155 145
    003756  aa  156 164 163 056
    003757  aa  147 151 042 056

                                   327  ec  big_ws_req,bigwsreq,
                                   328  	(Insufficient access to use specified block size.)
                        000144          	segdef  big_ws_req
    000144  a0   077777 003762
    003760  aa  142 151 147 167         	aci  "bigwsreq",8
    003761  aa  163 162 145 161
    003762  aa  060 111 156 163         	acc  "Insufficient access to use specified block size."
    003763  aa  165 146 146 151
    003764  aa  143 151 145 156
    003765  aa  164 040 141 143
    003766  aa  143 145 163 163
    003767  aa  040 164 157 040
    003770  aa  165 163 145 040
    003771  aa  163 160 145 143
    003772  aa  151 146 151 145
    003773  aa  144 040 142 154
    003774  aa  157 143 153 040
    003775  aa  163 151 172 145
    003776  aa  056 000 000 000

                                   329  ec  bigarg,,
                                   330  	(Argument too long.)
                        000145          	segdef  bigarg
    000145  a0   077777 004001
    003777  aa  142 151 147 141         	aci  "bigarg",8
    004000  aa  162 147 040 040
    004001  aa  022 101 162 147         	acc  "Argument too long."
    004002  aa  165 155 145 156
    004003  aa  164 040 164 157
    004004  aa  157 040 154 157
    004005  aa  156 147 056 000

                                   331  ec  bigger_ext_variable,bigexvar,
                                   332  	(External variable or common block is not the same size as other uses of the same name.)
                        000146          	segdef  bigger_ext_variable
    000146  a0   077777 004010
    004006  aa  142 151 147 145         	aci  "bigexvar",8
    004007  aa  170 166 141 162
    004010  aa  126 105 170 164         	acc  "External variable or common block is not the same size as other uses of the same name."
    004011  aa  145 162 156 141
    004012  aa  154 040 166 141
    004013  aa  162 151 141 142
    004014  aa  154 145 040 157
    004015  aa  162 040 143 157
    004016  aa  155 155 157 156
    004017  aa  040 142 154 157
    004020  aa  143 153 040 151
    004021  aa  163 040 156 157
    004022  aa  164 040 164 150
    004023  aa  145 040 163 141
    004024  aa  155 145 040 163
    004025  aa  151 172 145 040
    004026  aa  141 163 040 157
    004027  aa  164 150 145 162
    004030  aa  040 165 163 145
    004031  aa  163 040 157 146
    004032  aa  040 164 150 145
    004033  aa  040 163 141 155
    004034  aa  145 040 156 141
    004035  aa  155 145 056 000

                                   333  ec  bisync_bid_fail,bscbidf,
                                   334  	(Bisync line did not respond to line bid sequence.)
                        000147          	segdef  bisync_bid_fail
    000147  a0   077777 004040
    004036  aa  142 163 143 142         	aci  "bscbidf",8
    004037  aa  151 144 146 040
    004040  aa  061 102 151 163         	acc  "Bisync line did not respond to line bid sequence."
    004041  aa  171 156 143 040
    004042  aa  154 151 156 145
    004043  aa  040 144 151 144
    004044  aa  040 156 157 164
    004045  aa  040 162 145 163
    004046  aa  160 157 156 144
    004047  aa  040 164 157 040
    004050  aa  154 151 156 145
    004051  aa  040 142 151 144
    004052  aa  040 163 145 161
    004053  aa  165 145 156 143
    004054  aa  145 056 000 000

                                   335  ec  bisync_block_bad,bscblkbd,
                                   336  	(Attempt to write improperly formated bisync block.)
                        000150          	segdef  bisync_block_bad
    000150  a0   077777 004057
    004055  aa  142 163 143 142         	aci  "bscblkbd",8
    004056  aa  154 153 142 144
    004057  aa  062 101 164 164         	acc  "Attempt to write improperly formated bisync block."
    004060  aa  145 155 160 164
    004061  aa  040 164 157 040
    004062  aa  167 162 151 164
    004063  aa  145 040 151 155
    004064  aa  160 162 157 160
    004065  aa  145 162 154 171
    004066  aa  040 146 157 162
    004067  aa  155 141 164 145
    004070  aa  144 040 142 151
    004071  aa  163 171 156 143
    004072  aa  040 142 154 157
    004073  aa  143 153 056 000

                                   337  ec  bisync_reverse_interrupt,bscrvi,
                                   338  	(Reverse interrupt detected on bisync line.)
                        000151          	segdef  bisync_reverse_interrupt
    000151  a0   077777 004076
    004074  aa  142 163 143 162         	aci  "bscrvi",8
    004075  aa  166 151 040 040
    004076  aa  052 122 145 166         	acc  "Reverse interrupt detected on bisync line."
    004077  aa  145 162 163 145
    004100  aa  040 151 156 164
    004101  aa  145 162 162 165
    004102  aa  160 164 040 144
    004103  aa  145 164 145 143
    004104  aa  164 145 144 040
    004105  aa  157 156 040 142
    004106  aa  151 163 171 156
    004107  aa  143 040 154 151
    004110  aa  156 145 056 000

                                   339  ec  blank_tape,blanktap,
                                   340  	(The rest of the tape is blank.)
                        000152          	segdef  blank_tape
    000152  a0   077777 004113
    004111  aa  142 154 141 156         	aci  "blanktap",8
    004112  aa  153 164 141 160
    004113  aa  036 124 150 145         	acc  "The rest of the tape is blank."
    004114  aa  040 162 145 163
    004115  aa  164 040 157 146
    004116  aa  040 164 150 145
    004117  aa  040 164 141 160
    004120  aa  145 040 151 163
    004121  aa  040 142 154 141
    004122  aa  156 153 056 000

                                   341  ec  boundviol,outbnd,
                                   342  	(Attempt to access beyond end of segment.)
                        000153          	segdef  boundviol
    000153  a0   077777 004125
    004123  aa  157 165 164 142         	aci  "outbnd",8
    004124  aa  156 144 040 040
    004125  aa  050 101 164 164         	acc  "Attempt to access beyond end of segment."
    004126  aa  145 155 160 164
    004127  aa  040 164 157 040
    004130  aa  141 143 143 145
    004131  aa  163 163 040 142
    004132  aa  145 171 157 156
    004133  aa  144 040 145 156
    004134  aa  144 040 157 146
    004135  aa  040 163 145 147
    004136  aa  155 145 156 164
    004137  aa  056 000 000 000

                                   343  ec  buffer_big,buffbig,
                                   344  	(Specified buffer size too large.)
                        000154          	segdef  buffer_big
    000154  a0   077777 004142
    004140  aa  142 165 146 146         	aci  "buffbig",8
    004141  aa  142 151 147 040
    004142  aa  040 123 160 145         	acc  "Specified buffer size too large."
    004143  aa  143 151 146 151
    004144  aa  145 144 040 142
    004145  aa  165 146 146 145
    004146  aa  162 040 163 151
    004147  aa  172 145 040 164
    004150  aa  157 157 040 154
    004151  aa  141 162 147 145
    004152  aa  056 000 000 000

                                   345  ec  buffer_invalid_state,bufstate,
                                   346  	(The buffer is in an invalid state.)
                        000155          	segdef  buffer_invalid_state
    000155  a0   077777 004155
    004153  aa  142 165 146 163         	aci  "bufstate",8
    004154  aa  164 141 164 145
    004155  aa  042 124 150 145         	acc  "The buffer is in an invalid state."
    004156  aa  040 142 165 146
    004157  aa  146 145 162 040
    004160  aa  151 163 040 151
    004161  aa  156 040 141 156
    004162  aa  040 151 156 166
    004163  aa  141 154 151 144
    004164  aa  040 163 164 141
    004165  aa  164 145 056 000

                                   347  ec  cannot_trace,notrace,
                                   348  	(This entry cannot be traced.)
                        000156          	segdef  cannot_trace
    000156  a0   077777 004170
    004166  aa  156 157 164 162         	aci  "notrace",8
    004167  aa  141 143 145 040
    004170  aa  034 124 150 151         	acc  "This entry cannot be traced."
    004171  aa  163 040 145 156
    004172  aa  164 162 171 040
    004173  aa  143 141 156 156
    004174  aa  157 164 040 142
    004175  aa  145 040 164 162
    004176  aa  141 143 145 144
    004177  aa  056 000 000 000

                                   349  ec  change_first,chfirst,
                                   350  	(Attempt to change first pointer.)
                        000157          	segdef  change_first
    000157  a0   077777 004202
    004200  aa  143 150 146 151         	aci  "chfirst",8
    004201  aa  162 163 164 040
    004202  aa  040 101 164 164         	acc  "Attempt to change first pointer."
    004203  aa  145 155 160 164
    004204  aa  040 164 157 040
    004205  aa  143 150 141 156
    004206  aa  147 145 040 146
    004207  aa  151 162 163 164
    004210  aa  040 160 157 151
    004211  aa  156 164 145 162
    004212  aa  056 000 000 000

                                   351  ec  chars_after_delim,undelch,
                                   352  	(Segment contains characters after final delimiter.)
                        000160          	segdef  chars_after_delim
    000160  a0   077777 004215
    004213  aa  165 156 144 145         	aci  "undelch",8
    004214  aa  154 143 150 040
    004215  aa  062 123 145 147         	acc  "Segment contains characters after final delimiter."
    004216  aa  155 145 156 164
    004217  aa  040 143 157 156
    004220  aa  164 141 151 156
    004221  aa  163 040 143 150
    004222  aa  141 162 141 143
    004223  aa  164 145 162 163
    004224  aa  040 141 146 164
    004225  aa  145 162 040 146
    004226  aa  151 156 141 154
    004227  aa  040 144 145 154
    004230  aa  151 155 151 164
    004231  aa  145 162 056 000

                                   353  ec  checksum_failure,^chksum,
                                   354  	(Checksum error in data.)
                        000161          	segdef  checksum_failure
    000161  a0   077777 004234
    004232  aa  136 143 150 153         	aci  "^chksum",8
    004233  aa  163 165 155 040
    004234  aa  027 103 150 145         	acc  "Checksum error in data."
    004235  aa  143 153 163 165
    004236  aa  155 040 145 162
    004237  aa  162 157 162 040
    004240  aa  151 156 040 144
    004241  aa  141 164 141 056

                                   355  ec  chnl_already_added,chnadded,
                                   356            (Channel is already added.)
                        000162          	segdef  chnl_already_added
    000162  a0   077777 004244
    004242  aa  143 150 156 141         	aci  "chnadded",8
    004243  aa  144 144 145 144
    004244  aa  031 103 150 141         	acc  "Channel is already added."
    004245  aa  156 156 145 154
    004246  aa  040 151 163 040
    004247  aa  141 154 162 145
    004250  aa  141 144 171 040
    004251  aa  141 144 144 145
    004252  aa  144 056 000 000

                                   357  ec  chnl_already_deleted,chndltd,
                                   358            (Channel is already deleted.)
                        000163          	segdef  chnl_already_deleted
    000163  a0   077777 004255
    004253  aa  143 150 156 144         	aci  "chndltd",8
    004254  aa  154 164 144 040
    004255  aa  033 103 150 141         	acc  "Channel is already deleted."
    004256  aa  156 156 145 154
    004257  aa  040 151 163 040
    004260  aa  141 154 162 145
    004261  aa  141 144 171 040
    004262  aa  144 145 154 145
    004263  aa  164 145 144 056

                                   359  ec  chnl_being_deleted,chndltg,
                                   360            (Channel is in the process of being deleted.)
                        000164          	segdef  chnl_being_deleted
    000164  a0   077777 004266
    004264  aa  143 150 156 144         	aci  "chndltg",8
    004265  aa  154 164 147 040
    004266  aa  053 103 150 141         	acc  "Channel is in the process of being deleted."
    004267  aa  156 156 145 154
    004270  aa  040 151 163 040
    004271  aa  151 156 040 164
    004272  aa  150 145 040 160
    004273  aa  162 157 143 145
    004274  aa  163 163 040 157
    004275  aa  146 040 142 145
    004276  aa  151 156 147 040
    004277  aa  144 145 154 145
    004300  aa  164 145 144 056

                                   361  ec  chnl_iom_active,chnlioma,
                                   362  	(Cannot delete IOM with active channels.)
                        000165          	segdef  chnl_iom_active
    000165  a0   077777 004303
    004301  aa  143 150 156 154         	aci  "chnlioma",8
    004302  aa  151 157 155 141
    004303  aa  047 103 141 156         	acc  "Cannot delete IOM with active channels."
    004304  aa  156 157 164 040
    004305  aa  144 145 154 145
    004306  aa  164 145 040 111
    004307  aa  117 115 040 167
    004310  aa  151 164 150 040
    004311  aa  141 143 164 151
    004312  aa  166 145 040 143
    004313  aa  150 141 156 156
    004314  aa  145 154 163 056

                                   363  ec  chnl_iom_inactive,chnnoiom,
                                   364            (Cannot add channel while its IOM is inactive.)
                        000166          	segdef  chnl_iom_inactive
    000166  a0   077777 004317
    004315  aa  143 150 156 156         	aci  "chnnoiom",8
    004316  aa  157 151 157 155
    004317  aa  055 103 141 156         	acc  "Cannot add channel while its IOM is inactive."
    004320  aa  156 157 164 040
    004321  aa  141 144 144 040
    004322  aa  143 150 141 156
    004323  aa  156 145 154 040
    004324  aa  167 150 151 154
    004325  aa  145 040 151 164
    004326  aa  163 040 111 117
    004327  aa  115 040 151 163
    004330  aa  040 151 156 141
    004331  aa  143 164 151 166
    004332  aa  145 056 000 000

                                   365  ec  clnzero,nonzero,
                                   366  	(There was an attempt to move segment to non-zero length entry.)
                        000167          	segdef  clnzero
    000167  a0   077777 004335
    004333  aa  156 157 156 172         	aci  "nonzero",8
    004334  aa  145 162 157 040
    004335  aa  076 124 150 145         	acc  "There was an attempt to move segment to non-zero length entry."
    004336  aa  162 145 040 167
    004337  aa  141 163 040 141
    004340  aa  156 040 141 164
    004341  aa  164 145 155 160
    004342  aa  164 040 164 157
    004343  aa  040 155 157 166
    004344  aa  145 040 163 145
    004345  aa  147 155 145 156
    004346  aa  164 040 164 157
    004347  aa  040 156 157 156
    004350  aa  055 172 145 162
    004351  aa  157 040 154 145
    004352  aa  156 147 164 150
    004353  aa  040 145 156 164
    004354  aa  162 171 056 000

                                   367  ec  command_line_overflow,clnovrfl,
                                   368  	(Expanded command line is too large.)
                        000170          	segdef  command_line_overflow
    000170  a0   077777 004357
    004355  aa  143 154 156 157         	aci  "clnovrfl",8
    004356  aa  166 162 146 154
    004357  aa  043 105 170 160         	acc  "Expanded command line is too large."
    004360  aa  141 156 144 145
    004361  aa  144 040 143 157
    004362  aa  155 155 141 156
    004363  aa  144 040 154 151
    004364  aa  156 145 040 151
    004365  aa  163 040 164 157
    004366  aa  157 040 154 141
    004367  aa  162 147 145 056

                                   369  ec  command_name_not_available,comnotav,
                                   370  	(The command name is unavailable from the argument list.)
                        000171          	segdef  command_name_not_available
    000171  a0   077777 004372
    004370  aa  143 157 155 156         	aci  "comnotav",8
    004371  aa  157 164 141 166
    004372  aa  067 124 150 145         	acc  "The command name is unavailable from the argument list."
    004373  aa  040 143 157 155
    004374  aa  155 141 156 144
    004375  aa  040 156 141 155
    004376  aa  145 040 151 163
    004377  aa  040 165 156 141
    004400  aa  166 141 151 154
    004401  aa  141 142 154 145
    004402  aa  040 146 162 157
    004403  aa  155 040 164 150
    004404  aa  145 040 141 162
    004405  aa  147 165 155 145
    004406  aa  156 164 040 154
    004407  aa  151 163 164 056

                                   371  ec  copy_sw_on,copyswon,
                                   372  	(There was an attempt to delete a segment whose copy switch was set.)
                        000172          	segdef  copy_sw_on
    000172  a0   077777 004412
    004410  aa  143 157 160 171         	aci  "copyswon",8
    004411  aa  163 167 157 156
    004412  aa  103 124 150 145         	acc  "There was an attempt to delete a segment whose copy switch was set."
    004413  aa  162 145 040 167
    004414  aa  141 163 040 141
    004415  aa  156 040 141 164
    004416  aa  164 145 155 160
    004417  aa  164 040 164 157
    004420  aa  040 144 145 154
    004421  aa  145 164 145 040
    004422  aa  141 040 163 145
    004423  aa  147 155 145 156
    004424  aa  164 040 167 150
    004425  aa  157 163 145 040
    004426  aa  143 157 160 171
    004427  aa  040 163 167 151
    004430  aa  164 143 150 040
    004431  aa  167 141 163 040
    004432  aa  163 145 164 056

                                   373  ec  cp_reserved_syntax,cpresv,
                                   374            (The command line contained syntax characters not supported in this environment.)
                        000173          	segdef  cp_reserved_syntax
    000173  a0   077777 004435
    004433  aa  143 160 162 145         	aci  "cpresv",8
    004434  aa  163 166 040 040
    004435  aa  117 124 150 145         	acc  "The command line contained syntax characters not supported in this environment."
    004436  aa  040 143 157 155
    004437  aa  155 141 156 144
    004440  aa  040 154 151 156
    004441  aa  145 040 143 157
    004442  aa  156 164 141 151
    004443  aa  156 145 144 040
    004444  aa  163 171 156 164
    004445  aa  141 170 040 143
    004446  aa  150 141 162 141
    004447  aa  143 164 145 162
    004450  aa  163 040 156 157
    004451  aa  164 040 163 165
    004452  aa  160 160 157 162
    004453  aa  164 145 144 040
    004454  aa  151 156 040 164
    004455  aa  150 151 163 040
    004456  aa  145 156 166 151
    004457  aa  162 157 156 155
    004460  aa  145 156 164 056

                                   375  ec  cyclic_syn,cyc_syn,
                                   376  	(Cyclic synonyms.)
                        000174          	segdef  cyclic_syn
    000174  a0   077777 004463
    004461  aa  143 171 143 137         	aci  "cyc_syn",8
    004462  aa  163 171 156 040
    004463  aa  020 103 171 143         	acc  "Cyclic synonyms."
    004464  aa  154 151 143 040
    004465  aa  163 171 156 157
    004466  aa  156 171 155 163
    004467  aa  056 000 000 000

                                   377  ec  data_gain,datagain,
                                   378  	(Data has been gained.)
                        000175          	segdef  data_gain
    000175  a0   077777 004472
    004470  aa  144 141 164 141         	aci  "datagain",8
    004471  aa  147 141 151 156
    004472  aa  025 104 141 164         	acc  "Data has been gained."
    004473  aa  141 040 150 141
    004474  aa  163 040 142 145
    004475  aa  145 156 040 147
    004476  aa  141 151 156 145
    004477  aa  144 056 000 000

                                   379  ec  data_improperly_terminated,dtnoterm,
                                   380  	(Relevant data terminated improperly.)
                        000176          	segdef  data_improperly_terminated
    000176  a0   077777 004502
    004500  aa  144 164 156 157         	aci  "dtnoterm",8
    004501  aa  164 145 162 155
    004502  aa  044 122 145 154         	acc  "Relevant data terminated improperly."
    004503  aa  145 166 141 156
    004504  aa  164 040 144 141
    004505  aa  164 141 040 164
    004506  aa  145 162 155 151
    004507  aa  156 141 164 145
    004510  aa  144 040 151 155
    004511  aa  160 162 157 160
    004512  aa  145 162 154 171
    004513  aa  056 000 000 000

                                   381  ec  data_loss,dataloss,
                                   382  	(Data has been lost.)
                        000177          	segdef  data_loss
    000177  a0   077777 004516
    004514  aa  144 141 164 141         	aci  "dataloss",8
    004515  aa  154 157 163 163
    004516  aa  023 104 141 164         	acc  "Data has been lost."
    004517  aa  141 040 150 141
    004520  aa  163 040 142 145
    004521  aa  145 156 040 154
    004522  aa  157 163 164 056

                                   383  ec  data_seq_error,datasqer,
                                   384  	(Data sequence error.)
                        000200          	segdef  data_seq_error
    000200  a0   077777 004525
    004523  aa  144 141 164 141         	aci  "datasqer",8
    004524  aa  163 161 145 162
    004525  aa  024 104 141 164         	acc  "Data sequence error."
    004526  aa  141 040 163 145
    004527  aa  161 165 145 156
    004530  aa  143 145 040 145
    004531  aa  162 162 157 162
    004532  aa  056 000 000 000

                                   385  ec  date_conversion_error,daterr,
                                   386  	(Unable to convert character date/time to binary.)
                        000201          	segdef  date_conversion_error
    000201  a0   077777 004535
    004533  aa  144 141 164 145         	aci  "daterr",8
    004534  aa  162 162 040 040
    004535  aa  060 125 156 141         	acc  "Unable to convert character date/time to binary."
    004536  aa  142 154 145 040
    004537  aa  164 157 040 143
    004540  aa  157 156 166 145
    004541  aa  162 164 040 143
    004542  aa  150 141 162 141
    004543  aa  143 164 145 162
    004544  aa  040 144 141 164
    004545  aa  145 057 164 151
    004546  aa  155 145 040 164
    004547  aa  157 040 142 151
    004550  aa  156 141 162 171
    004551  aa  056 000 000 000

                                   387  ec  deact_in_mem,deactmem,
                                   388  	(Attempt to deactivate a segment with pages in memory.)
                        000202          	segdef  deact_in_mem
    000202  a0   077777 004554
    004552  aa  144 145 141 143         	aci  "deactmem",8
    004553  aa  164 155 145 155
    004554  aa  065 101 164 164         	acc  "Attempt to deactivate a segment with pages in memory."
    004555  aa  145 155 160 164
    004556  aa  040 164 157 040
    004557  aa  144 145 141 143
    004560  aa  164 151 166 141
    004561  aa  164 145 040 141
    004562  aa  040 163 145 147
    004563  aa  155 145 156 164
    004564  aa  040 167 151 164
    004565  aa  150 040 160 141
    004566  aa  147 145 163 040
    004567  aa  151 156 040 155
    004570  aa  145 155 157 162
    004571  aa  171 056 000 000

                                   389  ec  defs_loop,defsloop,
                                   390  	(Looping searching definitions.)
                        000203          	segdef  defs_loop
    000203  a0   077777 004574
    004572  aa  144 145 146 163         	aci  "defsloop",8
    004573  aa  154 157 157 160
    004574  aa  036 114 157 157         	acc  "Looping searching definitions."
    004575  aa  160 151 156 147
    004576  aa  040 163 145 141
    004577  aa  162 143 150 151
    004600  aa  156 147 040 144
    004601  aa  145 146 151 156
    004602  aa  151 164 151 157
    004603  aa  156 163 056 000

                                   391  ec  dev_nt_assnd,notassnd,
                                   392  	(IO device not currently assigned.)
                        000204          	segdef  dev_nt_assnd
    000204  a0   077777 004606
    004604  aa  156 157 164 141         	aci  "notassnd",8
    004605  aa  163 163 156 144
    004606  aa  041 111 117 040         	acc  "IO device not currently assigned."
    004607  aa  144 145 166 151
    004610  aa  143 145 040 156
    004611  aa  157 164 040 143
    004612  aa  165 162 162 145
    004613  aa  156 164 154 171
    004614  aa  040 141 163 163
    004615  aa  151 147 156 145
    004616  aa  144 056 000 000

                                   393  ec  dev_offset_out_of_bounds,dvoffoob,
                                   394  	(Specified offset out of bounds for this device.)
                        000205          	segdef  dev_offset_out_of_bounds
    000205  a0   077777 004621
    004617  aa  144 166 157 146         	aci  "dvoffoob",8
    004620  aa  146 157 157 142
    004621  aa  057 123 160 145         	acc  "Specified offset out of bounds for this device."
    004622  aa  143 151 146 151
    004623  aa  145 144 040 157
    004624  aa  146 146 163 145
    004625  aa  164 040 157 165
    004626  aa  164 040 157 146
    004627  aa  040 142 157 165
    004630  aa  156 144 163 040
    004631  aa  146 157 162 040
    004632  aa  164 150 151 163
    004633  aa  040 144 145 166
    004634  aa  151 143 145 056

                                   395  ec  device_active,devactiv,
                                   396  	(I/O in progress on device.)
                        000206          	segdef  device_active
    000206  a0   077777 004637
    004635  aa  144 145 166 141         	aci  "devactiv",8
    004636  aa  143 164 151 166
    004637  aa  032 111 057 117         	acc  "I/O in progress on device."
    004640  aa  040 151 156 040
    004641  aa  160 162 157 147
    004642  aa  162 145 163 163
    004643  aa  040 157 156 040
    004644  aa  144 145 166 151
    004645  aa  143 145 056 000

                                   397  ec  device_attention,dvceattn,
                                   398  	(Condition requiring manual intervention with handler.)
                        000207          	segdef  device_attention
    000207  a0   077777 004650
    004646  aa  144 166 143 145         	aci  "dvceattn",8
    004647  aa  141 164 164 156
    004650  aa  065 103 157 156         	acc  "Condition requiring manual intervention with handler."
    004651  aa  144 151 164 151
    004652  aa  157 156 040 162
    004653  aa  145 161 165 151
    004654  aa  162 151 156 147
    004655  aa  040 155 141 156
    004656  aa  165 141 154 040
    004657  aa  151 156 164 145
    004660  aa  162 166 145 156
    004661  aa  164 151 157 156
    004662  aa  040 167 151 164
    004663  aa  150 040 150 141
    004664  aa  156 144 154 145
    004665  aa  162 056 000 000

                                   399  ec  device_attention_during_tm,dadwtm,
                                   400  	(Device attention condition during eof record write.)
                        000210          	segdef  device_attention_during_tm
    000210  a0   077777 004670
    004666  aa  144 141 144 167         	aci  "dadwtm",8
    004667  aa  164 155 040 040
    004670  aa  063 104 145 166         	acc  "Device attention condition during eof record write."
    004671  aa  151 143 145 040
    004672  aa  141 164 164 145
    004673  aa  156 164 151 157
    004674  aa  156 040 143 157
    004675  aa  156 144 151 164
    004676  aa  151 157 156 040
    004677  aa  144 165 162 151
    004700  aa  156 147 040 145
    004701  aa  157 146 040 162
    004702  aa  145 143 157 162
    004703  aa  144 040 167 162
    004704  aa  151 164 145 056

                                   401  ec  device_busy,devbusy,
                                   402  	(The requested device is not available.)
                        000211          	segdef  device_busy
    000211  a0   077777 004707
    004705  aa  144 145 166 142         	aci  "devbusy",8
    004706  aa  165 163 171 040
    004707  aa  046 124 150 145         	acc  "The requested device is not available."
    004710  aa  040 162 145 161
    004711  aa  165 145 163 164
    004712  aa  145 144 040 144
    004713  aa  145 166 151 143
    004714  aa  145 040 151 163
    004715  aa  040 156 157 164
    004716  aa  040 141 166 141
    004717  aa  151 154 141 142
    004720  aa  154 145 056 000

                                   403  ec  device_code_alert,devcdalt,
                                   404  	(Unrecognized character for this code translation.)
                        000212          	segdef  device_code_alert
    000212  a0   077777 004723
    004721  aa  144 145 166 143         	aci  "devcdalt",8
    004722  aa  144 141 154 164
    004723  aa  061 125 156 162         	acc  "Unrecognized character for this code translation."
    004724  aa  145 143 157 147
    004725  aa  156 151 172 145
    004726  aa  144 040 143 150
    004727  aa  141 162 141 143
    004730  aa  164 145 162 040
    004731  aa  146 157 162 040
    004732  aa  164 150 151 163
    004733  aa  040 143 157 144
    004734  aa  145 040 164 162
    004735  aa  141 156 163 154
    004736  aa  141 164 151 157
    004737  aa  156 056 000 000

                                   405  ec  device_deletion_deferred,dvdldef,			" CLJ, 2/1/85
                                   406  	(The device is in use.  It will be deleted when it is unassigned.)
                        000213          	segdef  device_deletion_deferred
    000213  a0   077777 004742
    004740  aa  144 166 144 154         	aci  "dvdldef",8
    004741  aa  144 145 146 040
    004742  aa  100 124 150 145         	acc  "The device is in use.  It will be deleted when it is unassigned."
    004743  aa  040 144 145 166
    004744  aa  151 143 145 040
    004745  aa  151 163 040 151
    004746  aa  156 040 165 163
    004747  aa  145 056 040 040
    004750  aa  111 164 040 167
    004751  aa  151 154 154 040
    004752  aa  142 145 040 144
    004753  aa  145 154 145 164
    004754  aa  145 144 040 167
    004755  aa  150 145 156 040
    004756  aa  151 164 040 151
    004757  aa  163 040 165 156
    004760  aa  141 163 163 151
    004761  aa  147 156 145 144
    004762  aa  056 000 000 000

                                   407  ec  device_end,devend,
                                   408  	(Physical end of device encountered.)
                        000214          	segdef  device_end
    000214  a0   077777 004765
    004763  aa  144 145 166 145         	aci  "devend",8
    004764  aa  156 144 040 040
    004765  aa  043 120 150 171         	acc  "Physical end of device encountered."
    004766  aa  163 151 143 141
    004767  aa  154 040 145 156
    004770  aa  144 040 157 146
    004771  aa  040 144 145 166
    004772  aa  151 143 145 040
    004773  aa  145 156 143 157
    004774  aa  165 156 164 145
    004775  aa  162 145 144 056

                                   409  ec  device_limit_exceeded,devlimex,
                                   410  	(The process's limit for this device type is exceeded.)
                        000215          	segdef  device_limit_exceeded
    000215  a0   077777 005000
    004776  aa  144 145 166 154         	aci  "devlimex",8
    004777  aa  151 155 145 170
    005000  aa  065 124 150 145         	acc  "The process's limit for this device type is exceeded."
    005001  aa  040 160 162 157
    005002  aa  143 145 163 163
    005003  aa  047 163 040 154
    005004  aa  151 155 151 164
    005005  aa  040 146 157 162
    005006  aa  040 164 150 151
    005007  aa  163 040 144 145
    005010  aa  166 151 143 145
    005011  aa  040 164 171 160
    005012  aa  145 040 151 163
    005013  aa  040 145 170 143
    005014  aa  145 145 144 145
    005015  aa  144 056 000 000

                                   411  ec  device_not_active,devntact,
                                   412  	(The device is not currently active.)
                        000216          	segdef  device_not_active
    000216  a0   077777 005020
    005016  aa  144 145 166 156         	aci  "devntact",8
    005017  aa  164 141 143 164
    005020  aa  043 124 150 145         	acc  "The device is not currently active."
    005021  aa  040 144 145 166
    005022  aa  151 143 145 040
    005023  aa  151 163 040 156
    005024  aa  157 164 040 143
    005025  aa  165 162 162 145
    005026  aa  156 164 154 171
    005027  aa  040 141 143 164
    005030  aa  151 166 145 056

                                   413  ec  device_not_usable,devntuse,
                                   414  	(Device is not currently usable.)
                        000217          	segdef  device_not_usable
    000217  a0   077777 005033
    005031  aa  144 145 166 156         	aci  "devntuse",8
    005032  aa  164 165 163 145
    005033  aa  037 104 145 166         	acc  "Device is not currently usable."
    005034  aa  151 143 145 040
    005035  aa  151 163 040 156
    005036  aa  157 164 040 143
    005037  aa  165 162 162 145
    005040  aa  156 164 154 171
    005041  aa  040 165 163 141
    005042  aa  142 154 145 056

                                   415  ec  device_parity,xmiterr,
                                   416  	(Unrecoverable data-transmission error on physical device.)
                        000220          	segdef  device_parity
    000220  a0   077777 005045
    005043  aa  170 155 151 164         	aci  "xmiterr",8
    005044  aa  145 162 162 040
    005045  aa  071 125 156 162         	acc  "Unrecoverable data-transmission error on physical device."
    005046  aa  145 143 157 166
    005047  aa  145 162 141 142
    005050  aa  154 145 040 144
    005051  aa  141 164 141 055
    005052  aa  164 162 141 156
    005053  aa  163 155 151 163
    005054  aa  163 151 157 156
    005055  aa  040 145 162 162
    005056  aa  157 162 040 157
    005057  aa  156 040 160 150
    005060  aa  171 163 151 143
    005061  aa  141 154 040 144
    005062  aa  145 166 151 143
    005063  aa  145 056 000 000

                                   417  ec  device_type_unknown,dt^known,
                                   418  	(Device type unknown to the system.)
                        000221          	segdef  device_type_unknown
    000221  a0   077777 005066
    005064  aa  144 164 136 153         	aci  "dt^known",8
    005065  aa  156 157 167 156
    005066  aa  042 104 145 166         	acc  "Device type unknown to the system."
    005067  aa  151 143 145 040
    005070  aa  164 171 160 145
    005071  aa  040 165 156 153
    005072  aa  156 157 167 156
    005073  aa  040 164 157 040
    005074  aa  164 150 145 040
    005075  aa  163 171 163 164
    005076  aa  145 155 056 000

                                   419  ec  dial_active,dialactv,
                                   420  	(The process is already serving a dial qualifier.);
                        000222          	segdef  dial_active
    000222  a0   077777 005101
    005077  aa  144 151 141 154         	aci  "dialactv",8
    005100  aa  141 143 164 166
    005101  aa  060 124 150 145         	acc  "The process is already serving a dial qualifier."
    005102  aa  040 160 162 157
    005103  aa  143 145 163 163
    005104  aa  040 151 163 040
    005105  aa  141 154 162 145
    005106  aa  141 144 171 040
    005107  aa  163 145 162 166
    005110  aa  151 156 147 040
    005111  aa  141 040 144 151
    005112  aa  141 154 040 161
    005113  aa  165 141 154 151
    005114  aa  146 151 145 162
    005115  aa  056 000 000 000

                                   421  ec  dial_id_busy,dialbusy,
                                   422  	(The dial identifier is already in use.)
                        000223          	segdef  dial_id_busy
    000223  a0   077777 005120
    005116  aa  144 151 141 154         	aci  "dialbusy",8
    005117  aa  142 165 163 171
    005120  aa  046 124 150 145         	acc  "The dial identifier is already in use."
    005121  aa  040 144 151 141
    005122  aa  154 040 151 144
    005123  aa  145 156 164 151
    005124  aa  146 151 145 162
    005125  aa  040 151 163 040
    005126  aa  141 154 162 145
    005127  aa  141 144 171 040
    005130  aa  151 156 040 165
    005131  aa  163 145 056 000

                                   423  ec  dir_damage,dirdamag,
                                   424  	(Directory irreparably damaged.)
                        000224          	segdef  dir_damage
    000224  a0   077777 005134
    005132  aa  144 151 162 144         	aci  "dirdamag",8
    005133  aa  141 155 141 147
    005134  aa  036 104 151 162         	acc  "Directory irreparably damaged."
    005135  aa  145 143 164 157
    005136  aa  162 171 040 151
    005137  aa  162 162 145 160
    005140  aa  141 162 141 142
    005141  aa  154 171 040 144
    005142  aa  141 155 141 147
    005143  aa  145 144 056 000

                                   425  ec  dirlong,,
                                   426  	(Directory pathname too long.)
                        000225          	segdef  dirlong
    000225  a0   077777 005146
    005144  aa  144 151 162 154         	aci  "dirlong",8
    005145  aa  157 156 147 040
    005146  aa  034 104 151 162         	acc  "Directory pathname too long."
    005147  aa  145 143 164 157
    005150  aa  162 171 040 160
    005151  aa  141 164 150 156
    005152  aa  141 155 145 040
    005153  aa  164 157 157 040
    005154  aa  154 157 156 147
    005155  aa  056 000 000 000

                                   427  ec  dirseg,,
                                   428  	(This operation is not allowed for a directory.)
                        000226          	segdef  dirseg
    000226  a0   077777 005160
    005156  aa  144 151 162 163         	aci  "dirseg",8
    005157  aa  145 147 040 040
    005160  aa  056 124 150 151         	acc  "This operation is not allowed for a directory."
    005161  aa  163 040 157 160
    005162  aa  145 162 141 164
    005163  aa  151 157 156 040
    005164  aa  151 163 040 156
    005165  aa  157 164 040 141
    005166  aa  154 154 157 167
    005167  aa  145 144 040 146
    005170  aa  157 162 040 141
    005171  aa  040 144 151 162
    005172  aa  145 143 164 157
    005173  aa  162 171 056 000

                                   429  ec  discrepant_block_count,dsblkcnt,
                                   430  	(Number of blocks read does not agree with recorded block count.)
                        000227          	segdef  discrepant_block_count
    000227  a0   077777 005176
    005174  aa  144 163 142 154         	aci  "dsblkcnt",8
    005175  aa  153 143 156 164
    005176  aa  077 116 165 155         	acc  "Number of blocks read does not agree with recorded block count."
    005177  aa  142 145 162 040
    005200  aa  157 146 040 142
    005201  aa  154 157 143 153
    005202  aa  163 040 162 145
    005203  aa  141 144 040 144
    005204  aa  157 145 163 040
    005205  aa  156 157 164 040
    005206  aa  141 147 162 145
    005207  aa  145 040 167 151
    005210  aa  164 150 040 162
    005211  aa  145 143 157 162
    005212  aa  144 145 144 040
    005213  aa  142 154 157 143
    005214  aa  153 040 143 157
    005215  aa  165 156 164 056

                                   431  ec  dm_journal_pages_held,dmpghld,
                                   432  	(Pages are held in memory for the journal.)
                        000230          	segdef  dm_journal_pages_held
    000230  a0   077777 005220
    005216  aa  144 155 160 147         	aci  "dmpghld",8
    005217  aa  150 154 144 040
    005220  aa  051 120 141 147         	acc  "Pages are held in memory for the journal."
    005221  aa  145 163 040 141
    005222  aa  162 145 040 150
    005223  aa  145 154 144 040
    005224  aa  151 156 040 155
    005225  aa  145 155 157 162
    005226  aa  171 040 146 157
    005227  aa  162 040 164 150
    005230  aa  145 040 152 157
    005231  aa  165 162 156 141
    005232  aa  154 056 000 000

                                   433  ec  dm_not_enabled,dmnten,
                                   434  	(Data Management has not been enabled on the system.)
                        000231          	segdef  dm_not_enabled
    000231  a0   077777 005235
    005233  aa  144 155 156 164         	aci  "dmnten",8
    005234  aa  145 156 040 040
    005235  aa  063 104 141 164         	acc  "Data Management has not been enabled on the system."
    005236  aa  141 040 115 141
    005237  aa  156 141 147 145
    005240  aa  155 145 156 164
    005241  aa  040 150 141 163
    005242  aa  040 156 157 164
    005243  aa  040 142 145 145
    005244  aa  156 040 145 156
    005245  aa  141 142 154 145
    005246  aa  144 040 157 156
    005247  aa  040 164 150 145
    005250  aa  040 163 171 163
    005251  aa  164 145 155 056

                                   435  ec  dmpinvld,,
                                   436  	(Attempt to re-copy an invalid dump.)
                        000232          	segdef  dmpinvld
    000232  a0   077777 005254
    005252  aa  144 155 160 151         	aci  "dmpinvld",8
    005253  aa  156 166 154 144
    005254  aa  043 101 164 164         	acc  "Attempt to re-copy an invalid dump."
    005255  aa  145 155 160 164
    005256  aa  040 164 157 040
    005257  aa  162 145 055 143
    005260  aa  157 160 171 040
    005261  aa  141 156 040 151
    005262  aa  156 166 141 154
    005263  aa  151 144 040 144
    005264  aa  165 155 160 056

                                   437  ec  dmpr_in_use,dmpinuse,
                                   438  	(The resource is presently in use by a system dumper.)
                        000233          	segdef  dmpr_in_use
    000233  a0   077777 005267
    005265  aa  144 155 160 151         	aci  "dmpinuse",8
    005266  aa  156 165 163 145
    005267  aa  064 124 150 145         	acc  "The resource is presently in use by a system dumper."
    005270  aa  040 162 145 163
    005271  aa  157 165 162 143
    005272  aa  145 040 151 163
    005273  aa  040 160 162 145
    005274  aa  163 145 156 164
    005275  aa  154 171 040 151
    005276  aa  156 040 165 163
    005277  aa  145 040 142 171
    005300  aa  040 141 040 163
    005301  aa  171 163 164 145
    005302  aa  155 040 144 165
    005303  aa  155 160 145 162
    005304  aa  056 000 000 000

                                   439  ec  dmpvalid,,
                                   440  	(Attempt to modify a valid dump.)
                        000234          	segdef  dmpvalid
    000234  a0   077777 005307
    005305  aa  144 155 160 166         	aci  "dmpvalid",8
    005306  aa  141 154 151 144
    005307  aa  037 101 164 164         	acc  "Attempt to modify a valid dump."
    005310  aa  145 155 160 164
    005311  aa  040 164 157 040
    005312  aa  155 157 144 151
    005313  aa  146 171 040 141
    005314  aa  040 166 141 154
    005315  aa  151 144 040 144
    005316  aa  165 155 160 056

                                   441  ec  dt_ambiguous_time,ambigtim,
                                   442     (All words in a time string must be in the same language.)
                        000235          	segdef  dt_ambiguous_time
    000235  a0   077777 005321
    005317  aa  141 155 142 151         	aci  "ambigtim",8
    005320  aa  147 164 151 155
    005321  aa  070 101 154 154         	acc  "All words in a time string must be in the same language."
    005322  aa  040 167 157 162
    005323  aa  144 163 040 151
    005324  aa  156 040 141 040
    005325  aa  164 151 155 145
    005326  aa  040 163 164 162
    005327  aa  151 156 147 040
    005330  aa  155 165 163 164
    005331  aa  040 142 145 040
    005332  aa  151 156 040 164
    005333  aa  150 145 040 163
    005334  aa  141 155 145 040
    005335  aa  154 141 156 147
    005336  aa  165 141 147 145
    005337  aa  056 000 000 000

                                   443  "   there is no language common to all words in the time
                                   444  "   string.
                                   445
                                   446  ec  dt_bad_day_of_week,baddow,
                                   447     (The date given is not on the indicated day of the week.)
                        000236          	segdef  dt_bad_day_of_week
    000236  a0   077777 005342
    005340  aa  142 141 144 144         	aci  "baddow",8
    005341  aa  157 167 040 040
    005342  aa  067 124 150 145         	acc  "The date given is not on the indicated day of the week."
    005343  aa  040 144 141 164
    005344  aa  145 040 147 151
    005345  aa  166 145 156 040
    005346  aa  151 163 040 156
    005347  aa  157 164 040 157
    005350  aa  156 040 164 150
    005351  aa  145 040 151 156
    005352  aa  144 151 143 141
    005353  aa  164 145 144 040
    005354  aa  144 141 171 040
    005355  aa  157 146 040 164
    005356  aa  150 145 040 167
    005357  aa  145 145 153 056

                                   448  "   the returned clock reading does not fall on the given
                                   449  "   day of the week.
                                   450
                                   451  ec  dt_bad_dm,bad_dm,
                                   452     (The day of the month is invalid.)
                        000237          	segdef  dt_bad_dm
    000237  a0   077777 005362
    005360  aa  142 141 144 137         	aci  "bad_dm",8
    005361  aa  144 155 040 040
    005362  aa  040 124 150 145         	acc  "The day of the month is invalid."
    005363  aa  040 144 141 171
    005364  aa  040 157 146 040
    005365  aa  164 150 145 040
    005366  aa  155 157 156 164
    005367  aa  150 040 151 163
    005370  aa  040 151 156 166
    005371  aa  141 154 151 144
    005372  aa  056 000 000 000

                                   453  "   day_in_month<1 or day_in_month>month_size.
                                   454
                                   455  ec  dt_bad_dy,bad_dy,
                                   456     (The day of the year is invalid.)
                        000240          	segdef  dt_bad_dy
    000240  a0   077777 005375
    005373  aa  142 141 144 137         	aci  "bad_dy",8
    005374  aa  144 171 040 040
    005375  aa  037 124 150 145         	acc  "The day of the year is invalid."
    005376  aa  040 144 141 171
    005377  aa  040 157 146 040
    005400  aa  164 150 145 040
    005401  aa  171 145 141 162
    005402  aa  040 151 163 040
    005403  aa  151 156 166 141
    005404  aa  154 151 144 056

                                   457  "   day_in_year < 0 or day_in_year > year_size (which is
                                   458  "   355 for 1582).
                                   459
                                   460  ec  dt_bad_format_selector,badfsel,
                                   461     (The format string contains a selector which is not defined.)
                        000241          	segdef  dt_bad_format_selector
    000241  a0   077777 005407
    005405  aa  142 141 144 146         	aci  "badfsel",8
    005406  aa  163 145 154 040
    005407  aa  073 124 150 145         	acc  "The format string contains a selector which is not defined."
    005410  aa  040 146 157 162
    005411  aa  155 141 164 040
    005412  aa  163 164 162 151
    005413  aa  156 147 040 143
    005414  aa  157 156 164 141
    005415  aa  151 156 163 040
    005416  aa  141 040 163 145
    005417  aa  154 145 143 164
    005420  aa  157 162 040 167
    005421  aa  150 151 143 150
    005422  aa  040 151 163 040
    005423  aa  156 157 164 040
    005424  aa  144 145 146 151
    005425  aa  156 145 144 056

                                   462  "   unrecognized selector in format string.
                                   463
                                   464  ec  dt_bad_fw,bad_fw,
                                   465     (The fiscal week number is invalid.)
                        000242          	segdef  dt_bad_fw
    000242  a0   077777 005430
    005426  aa  142 141 144 137         	aci  "bad_fw",8
    005427  aa  146 167 040 040
    005430  aa  042 124 150 145         	acc  "The fiscal week number is invalid."
    005431  aa  040 146 151 163
    005432  aa  143 141 154 040
    005433  aa  167 145 145 153
    005434  aa  040 156 165 155
    005435  aa  142 145 162 040
    005436  aa  151 163 040 151
    005437  aa  156 166 141 154
    005440  aa  151 144 056 000

                                   466  "   fiscal_week < 1 or fiscal_week > year_max (which is 52
                                   467  "   or 53).
                                   468
                                   469  ec  dt_bad_my,bad_my,
                                   470     (The month number is invalid.)
                        000243          	segdef  dt_bad_my
    000243  a0   077777 005443
    005441  aa  142 141 144 137         	aci  "bad_my",8
    005442  aa  155 171 040 040
    005443  aa  034 124 150 145         	acc  "The month number is invalid."
    005444  aa  040 155 157 156
    005445  aa  164 150 040 156
    005446  aa  165 155 142 145
    005447  aa  162 040 151 163
    005450  aa  040 151 156 166
    005451  aa  141 154 151 144
    005452  aa  056 000 000 000

                                   471  "   month_in_year<1 or month_in_year>12.
                                   472
                                   473  ec  dt_conflict,datemess,
                                   474     (There is a conflict in the day specifications.)
                        000244          	segdef  dt_conflict
    000244  a0   077777 005455
    005453  aa  144 141 164 145         	aci  "datemess",8
    005454  aa  155 145 163 163
    005455  aa  056 124 150 145         	acc  "There is a conflict in the day specifications."
    005456  aa  162 145 040 151
    005457  aa  163 040 141 040
    005460  aa  143 157 156 146
    005461  aa  154 151 143 164
    005462  aa  040 151 156 040
    005463  aa  164 150 145 040
    005464  aa  144 141 171 040
    005465  aa  163 160 145 143
    005466  aa  151 146 151 143
    005467  aa  141 164 151 157
    005470  aa  156 163 056 000

                                   475  "   there is a conflicting combination of day-in-calendar,
                                   476  "   day-in-year, month-in-year, day-in-month and
                                   477  "   fiscal-week.
                                   478
                                   479  ec  dt_date_not_exist,dategone,
                                   480     (The time period 1582-10-05 through 1582-10-14 does not exist.)
                        000245          	segdef  dt_date_not_exist
    000245  a0   077777 005473
    005471  aa  144 141 164 145         	aci  "dategone",8
    005472  aa  147 157 156 145
    005473  aa  075 124 150 145         	acc  "The time period 1582-10-05 through 1582-10-14 does not exist."
    005474  aa  040 164 151 155
    005475  aa  145 040 160 145
    005476  aa  162 151 157 144
    005477  aa  040 061 065 070
    005500  aa  062 055 061 060
    005501  aa  055 060 065 040
    005502  aa  164 150 162 157
    005503  aa  165 147 150 040
    005504  aa  061 065 070 062
    005505  aa  055 061 060 055
    005506  aa  061 064 040 144
    005507  aa  157 145 163 040
    005510  aa  156 157 164 040
    005511  aa  145 170 151 163
    005512  aa  164 056 000 000

                                   481  "   the date given is in the non-existant range of
                                   482  "   1582-10-05 through 1582-10-14
                                   483
                                   484  ec  dt_date_too_big,datebig,
                                   485     (The date is after 9999-12-31 GMT.)
                        000246          	segdef  dt_date_too_big
    000246  a0   077777 005515
    005513  aa  144 141 164 145         	aci  "datebig",8
    005514  aa  142 151 147 040
    005515  aa  041 124 150 145         	acc  "The date is after 9999-12-31 GMT."
    005516  aa  040 144 141 164
    005517  aa  145 040 151 163
    005520  aa  040 141 146 164
    005521  aa  145 162 040 071
    005522  aa  071 071 071 055
    005523  aa  061 062 055 063
    005524  aa  061 040 107 115
    005525  aa  124 056 000 000

                                   486  "   the date given is after 9999-12-31_23:59:59.999999_GMT.
                                   487
                                   488  ec  dt_date_too_small,datesmal,
                                   489     (The date is before 0001-01-01 GMT.)
                        000247          	segdef  dt_date_too_small
    000247  a0   077777 005530
    005526  aa  144 141 164 145         	aci  "datesmal",8
    005527  aa  163 155 141 154
    005530  aa  042 124 150 145         	acc  "The date is before 0001-01-01 GMT."
    005531  aa  040 144 141 164
    005532  aa  145 040 151 163
    005533  aa  040 142 145 146
    005534  aa  157 162 145 040
    005535  aa  060 060 060 061
    005536  aa  055 060 061 055
    005537  aa  060 061 040 107
    005540  aa  115 124 056 000

                                   490  "   the date given is before 0001-01-01_00:00:00.000000_GMT.
                                   491
                                   492  ec  dt_hour_gt_twelve,hrlarge,
                                   493     (The hour value exceeds 12.)
                        000250          	segdef  dt_hour_gt_twelve
    000250  a0   077777 005543
    005541  aa  150 162 154 141         	aci  "hrlarge",8
    005542  aa  162 147 145 040
    005543  aa  032 124 150 145         	acc  "The hour value exceeds 12."
    005544  aa  040 150 157 165
    005545  aa  162 040 166 141
    005546  aa  154 165 145 040
    005547  aa  145 170 143 145
    005550  aa  145 144 163 040
    005551  aa  061 062 056 000

                                   494  "   the hour given exceeds 12.
                                   495
                                   496  ec  dt_multiple_date_spec,multdate,
                                   497     (A date value has been given more than once.)
                        000251          	segdef  dt_multiple_date_spec
    000251  a0   077777 005554
    005552  aa  155 165 154 164         	aci  "multdate",8
    005553  aa  144 141 164 145
    005554  aa  053 101 040 144         	acc  "A date value has been given more than once."
    005555  aa  141 164 145 040
    005556  aa  166 141 154 165
    005557  aa  145 040 150 141
    005560  aa  163 040 142 145
    005561  aa  145 156 040 147
    005562  aa  151 166 145 156
    005563  aa  040 155 157 162
    005564  aa  145 040 164 150
    005565  aa  141 156 040 157
    005566  aa  156 143 145 056

                                   498  "   more than one instance of a date has been given.
                                   499
                                   500  ec  dt_multiple_diw_spec,multdiw,
                                   501     (A day of the week value has been given more than once.)
                        000252          	segdef  dt_multiple_diw_spec
    000252  a0   077777 005571
    005567  aa  155 165 154 164         	aci  "multdiw",8
    005570  aa  144 151 167 040
    005571  aa  066 101 040 144         	acc  "A day of the week value has been given more than once."
    005572  aa  141 171 040 157
    005573  aa  146 040 164 150
    005574  aa  145 040 167 145
    005575  aa  145 153 040 166
    005576  aa  141 154 165 145
    005577  aa  040 150 141 163
    005600  aa  040 142 145 145
    005601  aa  156 040 147 151
    005602  aa  166 145 156 040
    005603  aa  155 157 162 145
    005604  aa  040 164 150 141
    005605  aa  156 040 157 156
    005606  aa  143 145 056 000

                                   502  "   day of the week specified more than once.
                                   503
                                   504  ec  dt_multiple_meaning,multmean,
                                   505     (The time string does not have the same meaning in all languages.)
                        000253          	segdef  dt_multiple_meaning
    000253  a0   077777 005611
    005607  aa  155 165 154 164         	aci  "multmean",8
    005610  aa  155 145 141 156
    005611  aa  100 124 150 145         	acc  "The time string does not have the same meaning in all languages."
    005612  aa  040 164 151 155
    005613  aa  145 040 163 164
    005614  aa  162 151 156 147
    005615  aa  040 144 157 145
    005616  aa  163 040 156 157
    005617  aa  164 040 150 141
    005620  aa  166 145 040 164
    005621  aa  150 145 040 163
    005622  aa  141 155 145 040
    005623  aa  155 145 141 156
    005624  aa  151 156 147 040
    005625  aa  151 156 040 141
    005626  aa  154 154 040 154
    005627  aa  141 156 147 165
    005630  aa  141 147 145 163
    005631  aa  056 000 000 000

                                   506  "   the time string does not have the same meaning in all
                                   507  "   potential languages, these being the intersection of
                                   508  "   all the languages possible for all words present.
                                   509
                                   510  ec  dt_multiple_time_spec,multtime,
                                   511     (A time value has been given more than once.)
                        000254          	segdef  dt_multiple_time_spec
    000254  a0   077777 005634
    005632  aa  155 165 154 164         	aci  "multtime",8
    005633  aa  164 151 155 145
    005634  aa  053 101 040 164         	acc  "A time value has been given more than once."
    005635  aa  151 155 145 040
    005636  aa  166 141 154 165
    005637  aa  145 040 150 141
    005640  aa  163 040 142 145
    005641  aa  145 156 040 147
    005642  aa  151 166 145 156
    005643  aa  040 155 157 162
    005644  aa  145 040 164 150
    005645  aa  141 156 040 157
    005646  aa  156 143 145 056

                                   512  "   more than one instance of a time has been given.
                                   513
                                   514  ec  dt_multiple_zone_spec,multzone,
                                   515     (A time zone value has been given more than once.)
                        000255          	segdef  dt_multiple_zone_spec
    000255  a0   077777 005651
    005647  aa  155 165 154 164         	aci  "multzone",8
    005650  aa  172 157 156 145
    005651  aa  060 101 040 164         	acc  "A time zone value has been given more than once."
    005652  aa  151 155 145 040
    005653  aa  172 157 156 145
    005654  aa  040 166 141 154
    005655  aa  165 145 040 150
    005656  aa  141 163 040 142
    005657  aa  145 145 156 040
    005660  aa  147 151 166 145
    005661  aa  156 040 155 157
    005662  aa  162 145 040 164
    005663  aa  150 141 156 040
    005664  aa  157 156 143 145
    005665  aa  056 000 000 000

                                   516  "   the zone may only be specified once.
                                   517
                                   518  ec  dt_no_format_selector,nofsel,
                                   519     (The format string contains no selectors.)
                        000256          	segdef  dt_no_format_selector
    000256  a0   077777 005670
    005666  aa  156 157 146 163         	aci  "nofsel",8
    005667  aa  145 154 040 040
    005670  aa  050 124 150 145         	acc  "The format string contains no selectors."
    005671  aa  040 146 157 162
    005672  aa  155 141 164 040
    005673  aa  163 164 162 151
    005674  aa  156 147 040 143
    005675  aa  157 156 164 141
    005676  aa  151 156 163 040
    005677  aa  156 157 040 163
    005700  aa  145 154 145 143
    005701  aa  164 157 162 163
    005702  aa  056 000 000 000

                                   520  "   the format string contains no selectors and is not a
                                   521  "   known keyword.
                                   522
                                   523  ec  dt_no_interval_units,noiunit,
                                   524     (No units were given in which to express the interval.)
                        000257          	segdef  dt_no_interval_units
    000257  a0   077777 005705
    005703  aa  156 157 151 165         	aci  "noiunit",8
    005704  aa  156 151 164 040
    005705  aa  065 116 157 040         	acc  "No units were given in which to express the interval."
    005706  aa  165 156 151 164
    005707  aa  163 040 167 145
    005710  aa  162 145 040 147
    005711  aa  151 166 145 156
    005712  aa  040 151 156 040
    005713  aa  167 150 151 143
    005714  aa  150 040 164 157
    005715  aa  040 145 170 160
    005716  aa  162 145 163 163
    005717  aa  040 164 150 145
    005720  aa  040 151 156 164
    005721  aa  145 162 166 141
    005722  aa  154 056 000 000

                                   525  "   no units given in which to express the interval.
                                   526
                                   527  ec  dt_offset_too_big_negative,offbign,
                                   528     (Applying an offset gives a date before 0001-01-01 GMT.)
                        000260          	segdef  dt_offset_too_big_negative
    000260  a0   077777 005725
    005723  aa  157 146 146 142         	aci  "offbign",8
    005724  aa  151 147 156 040
    005725  aa  066 101 160 160         	acc  "Applying an offset gives a date before 0001-01-01 GMT."
    005726  aa  154 171 151 156
    005727  aa  147 040 141 156
    005730  aa  040 157 146 146
    005731  aa  163 145 164 040
    005732  aa  147 151 166 145
    005733  aa  163 040 141 040
    005734  aa  144 141 164 145
    005735  aa  040 142 145 146
    005736  aa  157 162 145 040
    005737  aa  060 060 060 061
    005740  aa  055 060 061 055
    005741  aa  060 061 040 107
    005742  aa  115 124 056 000

                                   529  "   an offset is so big that when it is applied, it
                                   530  "   yields a date before 0001-01-01_00:00:00.000000_GMT.
                                   531
                                   532  ec  dt_offset_too_big_positive,offbigp,
                                   533     (Applying an offset gives a date after 9999-12-31 GMT.)
                        000261          	segdef  dt_offset_too_big_positive
    000261  a0   077777 005745
    005743  aa  157 146 146 142         	aci  "offbigp",8
    005744  aa  151 147 160 040
    005745  aa  065 101 160 160         	acc  "Applying an offset gives a date after 9999-12-31 GMT."
    005746  aa  154 171 151 156
    005747  aa  147 040 141 156
    005750  aa  040 157 146 146
    005751  aa  163 145 164 040
    005752  aa  147 151 166 145
    005753  aa  163 040 141 040
    005754  aa  144 141 164 145
    005755  aa  040 141 146 164
    005756  aa  145 162 040 071
    005757  aa  071 071 071 055
    005760  aa  061 062 055 063
    005761  aa  061 040 107 115
    005762  aa  124 056 000 000

                                   534  "   a negative offset is so big that when it is applied,
                                   535  "   it yields a date after 9999-12-31_23:59:59.999999_GMT.
                                   536
                                   537  ec  dt_size_error,dtsizerr,
                                   538     (The size condition occurred while converting the time string.)
                        000262          	segdef  dt_size_error
    000262  a0   077777 005765
    005763  aa  144 164 163 151         	aci  "dtsizerr",8
    005764  aa  172 145 162 162
    005765  aa  075 124 150 145         	acc  "The size condition occurred while converting the time string."
    005766  aa  040 163 151 172
    005767  aa  145 040 143 157
    005770  aa  156 144 151 164
    005771  aa  151 157 156 040
    005772  aa  157 143 143 165
    005773  aa  162 162 145 144
    005774  aa  040 167 150 151
    005775  aa  154 145 040 143
    005776  aa  157 156 166 145
    005777  aa  162 164 151 156
    006000  aa  147 040 164 150
    006001  aa  145 040 164 151
    006002  aa  155 145 040 163
    006003  aa  164 162 151 156
    006004  aa  147 056 000 000

                                   539  "   the size condition occurred while converting the time string.
                                   540
                                   541  ec  dt_time_conversion_error,ticverr,
                                   542     (An error has been found while converting a time string.)
                        000263          	segdef  dt_time_conversion_error
    000263  a0   077777 006007
    006005  aa  164 151 143 166         	aci  "ticverr",8
    006006  aa  145 162 162 040
    006007  aa  067 101 156 040         	acc  "An error has been found while converting a time string."
    006010  aa  145 162 162 157
    006011  aa  162 040 150 141
    006012  aa  163 040 142 145
    006013  aa  145 156 040 146
    006014  aa  157 165 156 144
    006015  aa  040 167 150 151
    006016  aa  154 145 040 143
    006017  aa  157 156 166 145
    006020  aa  162 164 151 156
    006021  aa  147 040 141 040
    006022  aa  164 151 155 145
    006023  aa  040 163 164 162
    006024  aa  151 156 147 056

                                   543  "   For any of the following reasons:
                                   544  "    a. General syntax error
                                   545  "    b. Month without a day number.
                                   546  "    c. Midnight or noon preceded by an hour other than 12.
                                   547  "    d. Improper use of comma or period.
                                   548  "    e. Improper use of offset.
                                   549
                                   550  ec  dt_unknown_time_language,badtlang,
                                   551     (The language given is not known to the system.)
                        000264          	segdef  dt_unknown_time_language
    000264  a0   077777 006027
    006025  aa  142 141 144 164         	aci  "badtlang",8
    006026  aa  154 141 156 147
    006027  aa  056 124 150 145         	acc  "The language given is not known to the system."
    006030  aa  040 154 141 156
    006031  aa  147 165 141 147
    006032  aa  145 040 147 151
    006033  aa  166 145 156 040
    006034  aa  151 163 040 156
    006035  aa  157 164 040 153
    006036  aa  156 157 167 156
    006037  aa  040 164 157 040
    006040  aa  164 150 145 040
    006041  aa  163 171 163 164
    006042  aa  145 155 056 000

                                   552  "   the language specified by the caller was not found in
                                   553  "   time_info_.
                                   554
                                   555  ec  dt_unknown_word,badword,
                                   556     (An unknown word was found in the time string.)
                        000265          	segdef  dt_unknown_word
    000265  a0   077777 006045
    006043  aa  142 141 144 167         	aci  "badword",8
    006044  aa  157 162 144 040
    006045  aa  055 101 156 040         	acc  "An unknown word was found in the time string."
    006046  aa  165 156 153 156
    006047  aa  157 167 156 040
    006050  aa  167 157 162 144
    006051  aa  040 167 141 163
    006052  aa  040 146 157 165
    006053  aa  156 144 040 151
    006054  aa  156 040 164 150
    006055  aa  145 040 164 151
    006056  aa  155 145 040 163
    006057  aa  164 162 151 156
    006060  aa  147 056 000 000

                                   557  "   a word in a time string is not found in the time_info_
                                   558  "   token list.
                                   559
                                   560  ec  dt_year_too_big,yearbig,
                                   561     (In the specified time zone, the clock value is after the year 9999.)
                        000266          	segdef  dt_year_too_big
    000266  a0   077777 006063
    006061  aa  171 145 141 162         	aci  "yearbig",8
    006062  aa  142 151 147 040
    006063  aa  103 111 156 040         	acc  "In the specified time zone, the clock value is after the year 9999."
    006064  aa  164 150 145 040
    006065  aa  163 160 145 143
    006066  aa  151 146 151 145
    006067  aa  144 040 164 151
    006070  aa  155 145 040 172
    006071  aa  157 156 145 054
    006072  aa  040 164 150 145
    006073  aa  040 143 154 157
    006074  aa  143 153 040 166
    006075  aa  141 154 165 145
    006076  aa  040 151 163 040
    006077  aa  141 146 164 145
    006100  aa  162 040 164 150
    006101  aa  145 040 171 145
    006102  aa  141 162 040 071
    006103  aa  071 071 071 056

                                   562  "   the clock value given, when converted to the specified
                                   563  "   time zone, is after the year 9999.
                                   564
                                   565  ec  dt_year_too_small,yearsmal,
                                   566     (In the specified time zone, the clock value is before the year 0001.)
                        000267          	segdef  dt_year_too_small
    000267  a0   077777 006106
    006104  aa  171 145 141 162         	aci  "yearsmal",8
    006105  aa  163 155 141 154
    006106  aa  104 111 156 040         	acc  "In the specified time zone, the clock value is before the year 0001."
    006107  aa  164 150 145 040
    006110  aa  163 160 145 143
    006111  aa  151 146 151 145
    006112  aa  144 040 164 151
    006113  aa  155 145 040 172
    006114  aa  157 156 145 054
    006115  aa  040 164 150 145
    006116  aa  040 143 154 157
    006117  aa  143 153 040 166
    006120  aa  141 154 165 145
    006121  aa  040 151 163 040
    006122  aa  142 145 146 157
    006123  aa  162 145 040 164
    006124  aa  150 145 040 171
    006125  aa  145 141 162 040
    006126  aa  060 060 060 061
    006127  aa  056 000 000 000

                                   567  "   the clock value given, when converted to the specified
                                   568  "   time zone, is before the year 0001.
                                   569  ec  dup_ent_name,dupename,
                                   570  	(Duplicate entry name in bound segment.)
                        000270          	segdef  dup_ent_name
    000270  a0   077777 006132
    006130  aa  144 165 160 145         	aci  "dupename",8
    006131  aa  156 141 155 145
    006132  aa  046 104 165 160         	acc  "Duplicate entry name in bound segment."
    006133  aa  154 151 143 141
    006134  aa  164 145 040 145
    006135  aa  156 164 162 171
    006136  aa  040 156 141 155
    006137  aa  145 040 151 156
    006140  aa  040 142 157 165
    006141  aa  156 144 040 163
    006142  aa  145 147 155 145
    006143  aa  156 164 056 000

                                   571  ec  duplicate_file_id,dupfid,
                                   572  	(File identifier already appears in file set.)
                        000271          	segdef  duplicate_file_id
    000271  a0   077777 006146
    006144  aa  144 165 160 146         	aci  "dupfid",8
    006145  aa  151 144 040 040
    006146  aa  054 106 151 154         	acc  "File identifier already appears in file set."
    006147  aa  145 040 151 144
    006150  aa  145 156 164 151
    006151  aa  146 151 145 162
    006152  aa  040 141 154 162
    006153  aa  145 141 144 171
    006154  aa  040 141 160 160
    006155  aa  145 141 162 163
    006156  aa  040 151 156 040
    006157  aa  146 151 154 145
    006160  aa  040 163 145 164
    006161  aa  056 000 000 000

                                   573  ec  duplicate_request,dup_req,
                                   574  	(A duplicate request was encountered.)
                        000272          	segdef  duplicate_request
    000272  a0   077777 006164
    006162  aa  144 165 160 137         	aci  "dup_req",8
    006163  aa  162 145 161 040
    006164  aa  044 101 040 144         	acc  "A duplicate request was encountered."
    006165  aa  165 160 154 151
    006166  aa  143 141 164 145
    006167  aa  040 162 145 161
    006170  aa  165 145 163 164
    006171  aa  040 167 141 163
    006172  aa  040 145 156 143
    006173  aa  157 165 156 164
    006174  aa  145 162 145 144
    006175  aa  056 000 000 000

                                   575  ec  echnego_awaiting_stop_sync,echostop,
                                   576  	(Echo negotiation race occurred.  Report this as a bug.)
                        000273          	segdef  echnego_awaiting_stop_sync
    000273  a0   077777 006200
    006176  aa  145 143 150 157         	aci  "echostop",8
    006177  aa  163 164 157 160
    006200  aa  066 105 143 150         	acc  "Echo negotiation race occurred.  Report this as a bug."
    006201  aa  157 040 156 145
    006202  aa  147 157 164 151
    006203  aa  141 164 151 157
    006204  aa  156 040 162 141
    006205  aa  143 145 040 157
    006206  aa  143 143 165 162
    006207  aa  162 145 144 056
    006210  aa  040 040 122 145
    006211  aa  160 157 162 164
    006212  aa  040 164 150 151
    006213  aa  163 040 141 163
    006214  aa  040 141 040 142
    006215  aa  165 147 056 000

                                   577  ec  ect_already_initialized,ectinit,
                                   578  	(The event channel table has already been initialized.)
                        000274          	segdef  ect_already_initialized
    000274  a0   077777 006220
    006216  aa  145 143 164 151         	aci  "ectinit",8
    006217  aa  156 151 164 040
    006220  aa  065 124 150 145         	acc  "The event channel table has already been initialized."
    006221  aa  040 145 166 145
    006222  aa  156 164 040 143
    006223  aa  150 141 156 156
    006224  aa  145 154 040 164
    006225  aa  141 142 154 145
    006226  aa  040 150 141 163
    006227  aa  040 141 154 162
    006230  aa  145 141 144 171
    006231  aa  040 142 145 145
    006232  aa  156 040 151 156
    006233  aa  151 164 151 141
    006234  aa  154 151 172 145
    006235  aa  144 056 000 000

                                   579  ec  ect_full,ectfull,
                                   580  	(The event channel table was full.)
                        000275          	segdef  ect_full
    000275  a0   077777 006240
    006236  aa  145 143 164 146         	aci  "ectfull",8
    006237  aa  165 154 154 040
    006240  aa  041 124 150 145         	acc  "The event channel table was full."
    006241  aa  040 145 166 145
    006242  aa  156 164 040 143
    006243  aa  150 141 156 156
    006244  aa  145 154 040 164
    006245  aa  141 142 154 145
    006246  aa  040 167 141 163
    006247  aa  040 146 165 154
    006250  aa  154 056 000 000

                                   581  ec  eight_unaligned,not8alin,
                                   582  	(A pointer that must be eight word aligned was not so aligned.)
                        000276          	segdef  eight_unaligned
    000276  a0   077777 006253
    006251  aa  156 157 164 070         	aci  "not8alin",8
    006252  aa  141 154 151 156
    006253  aa  075 101 040 160         	acc  "A pointer that must be eight word aligned was not so aligned."
    006254  aa  157 151 156 164
    006255  aa  145 162 040 164
    006256  aa  150 141 164 040
    006257  aa  155 165 163 164
    006260  aa  040 142 145 040
    006261  aa  145 151 147 150
    006262  aa  164 040 167 157
    006263  aa  162 144 040 141
    006264  aa  154 151 147 156
    006265  aa  145 144 040 167
    006266  aa  141 163 040 156
    006267  aa  157 164 040 163
    006270  aa  157 040 141 154
    006271  aa  151 147 156 145
    006272  aa  144 056 000 000

                                   583  ec  empty_acl,emptyacl,
                                   584  	(ACL is empty.)
                        000277          	segdef  empty_acl
    000277  a0   077777 006275
    006273  aa  145 155 160 164         	aci  "emptyacl",8
    006274  aa  171 141 143 154
    006275  aa  015 101 103 114         	acc  "ACL is empty."
    006276  aa  040 151 163 040
    006277  aa  145 155 160 164
    006300  aa  171 056 000 000

                                   585  ec  empty_archive,empty_ac,
                                   586  	(Archive is empty.)
                        000300          	segdef  empty_archive
    000300  a0   077777 006303
    006301  aa  145 155 160 164         	aci  "empty_ac",8
    006302  aa  171 137 141 143
    006303  aa  021 101 162 143         	acc  "Archive is empty."
    006304  aa  150 151 166 145
    006305  aa  040 151 163 040
    006306  aa  145 155 160 164
    006307  aa  171 056 000 000

                                   587  ec  empty_file,mt_file,
                                   588  	(File is empty.)
                        000301          	segdef  empty_file
    000301  a0   077777 006312
    006310  aa  155 164 137 146         	aci  "mt_file",8
    006311  aa  151 154 145 040
    006312  aa  016 106 151 154         	acc  "File is empty."
    006313  aa  145 040 151 163
    006314  aa  040 145 155 160
    006315  aa  164 171 056 000

                                   589  ec  empty_search_list,empsrls,
                                   590  	(Search list is empty.)
                        000302          	segdef  empty_search_list
    000302  a0   077777 006320
    006316  aa  145 155 160 163         	aci  "empsrls",8
    006317  aa  162 154 163 040
    006320  aa  025 123 145 141         	acc  "Search list is empty."
    006321  aa  162 143 150 040
    006322  aa  154 151 163 164
    006323  aa  040 151 163 040
    006324  aa  145 155 160 164
    006325  aa  171 056 000 000

                                   591  ec  end_of_info,eoi,
                                   592  	(End of information reached.)
                        000303          	segdef  end_of_info
    000303  a0   077777 006330
    006326  aa  145 157 151 040         	aci  "eoi",8
    006327  aa  040 040 040 040
    006330  aa  033 105 156 144         	acc  "End of information reached."
    006331  aa  040 157 146 040
    006332  aa  151 156 146 157
    006333  aa  162 155 141 164
    006334  aa  151 157 156 040
    006335  aa  162 145 141 143
    006336  aa  150 145 144 056

                                   593  ec  entlong,,
                                   594  	(Entry name too long.)
                        000304          	segdef  entlong
    000304  a0   077777 006341
    006337  aa  145 156 164 154         	aci  "entlong",8
    006340  aa  157 156 147 040
    006341  aa  024 105 156 164         	acc  "Entry name too long."
    006342  aa  162 171 040 156
    006343  aa  141 155 145 040
    006344  aa  164 157 157 040
    006345  aa  154 157 156 147
    006346  aa  056 000 000 000

                                   595  ec  eof_record,eofr,
                                   596  	(End-of-file record encountered.)
                        000305          	segdef  eof_record
    000305  a0   077777 006351
    006347  aa  145 157 146 162         	aci  "eofr",8
    006350  aa  040 040 040 040
    006351  aa  037 105 156 144         	acc  "End-of-file record encountered."
    006352  aa  055 157 146 055
    006353  aa  146 151 154 145
    006354  aa  040 162 145 143
    006355  aa  157 162 144 040
    006356  aa  145 156 143 157
    006357  aa  165 156 164 145
    006360  aa  162 145 144 056

                                   597  ec  eov_on_write,eovonw,
                                   598  	(Encountered end-of-volume on write.)
                        000306          	segdef  eov_on_write
    000306  a0   077777 006363
    006361  aa  145 157 166 157         	aci  "eovonw",8
    006362  aa  156 167 040 040
    006363  aa  043 105 156 143         	acc  "Encountered end-of-volume on write."
    006364  aa  157 165 156 164
    006365  aa  145 162 145 144
    006366  aa  040 145 156 144
    006367  aa  055 157 146 055
    006370  aa  166 157 154 165
    006371  aa  155 145 040 157
    006372  aa  156 040 167 162
    006373  aa  151 164 145 056

                                   599  ec  event_calls_not_masked,callnmsk,
                                   600  	(Event calls are not in masked state.)
                        000307          	segdef  event_calls_not_masked
    000307  a0   077777 006376
    006374  aa  143 141 154 154         	aci  "callnmsk",8
    006375  aa  156 155 163 153
    006376  aa  044 105 166 145         	acc  "Event calls are not in masked state."
    006377  aa  156 164 040 143
    006400  aa  141 154 154 163
    006401  aa  040 141 162 145
    006402  aa  040 156 157 164
    006403  aa  040 151 156 040
    006404  aa  155 141 163 153
    006405  aa  145 144 040 163
    006406  aa  164 141 164 145
    006407  aa  056 000 000 000

                                   601  ec  event_channel_cutoff,chnout,
                                   602  	(Event channels in cutoff state.)
                        000310          	segdef  event_channel_cutoff
    000310  a0   077777 006412
    006410  aa  143 150 156 157         	aci  "chnout",8
    006411  aa  165 164 040 040
    006412  aa  037 105 166 145         	acc  "Event channels in cutoff state."
    006413  aa  156 164 040 143
    006414  aa  150 141 156 156
    006415  aa  145 154 163 040
    006416  aa  151 156 040 143
    006417  aa  165 164 157 146
    006420  aa  146 040 163 164
    006421  aa  141 164 145 056

                                   603  ec  event_channel_not_cutoff,chnnout,
                                   604  	(Event channels not in cutoff state.)
                        000311          	segdef  event_channel_not_cutoff
    000311  a0   077777 006424
    006422  aa  143 150 156 156         	aci  "chnnout",8
    006423  aa  157 165 164 040
    006424  aa  043 105 166 145         	acc  "Event channels not in cutoff state."
    006425  aa  156 164 040 143
    006426  aa  150 141 156 156
    006427  aa  145 154 163 040
    006430  aa  156 157 164 040
    006431  aa  151 156 040 143
    006432  aa  165 164 157 146
    006433  aa  146 040 163 164
    006434  aa  141 164 145 056

                                   605  ec  fatal_error,fatalerr,
                                   606  	(A fatal error has occurred.)
                        000312          	segdef  fatal_error
    000312  a0   077777 006437
    006435  aa  146 141 164 141         	aci  "fatalerr",8
    006436  aa  154 145 162 162
    006437  aa  033 101 040 146         	acc  "A fatal error has occurred."
    006440  aa  141 164 141 154
    006441  aa  040 145 162 162
    006442  aa  157 162 040 150
    006443  aa  141 163 040 157
    006444  aa  143 143 165 162
    006445  aa  162 145 144 056

                                   607  ec  file_aborted,flabort,
                                   608  	(Defective file section deleted from file set.)
                        000313          	segdef  file_aborted
    000313  a0   077777 006450
    006446  aa  146 154 141 142         	aci  "flabort",8
    006447  aa  157 162 164 040
    006450  aa  055 104 145 146         	acc  "Defective file section deleted from file set."
    006451  aa  145 143 164 151
    006452  aa  166 145 040 146
    006453  aa  151 154 145 040
    006454  aa  163 145 143 164
    006455  aa  151 157 156 040
    006456  aa  144 145 154 145
    006457  aa  164 145 144 040
    006460  aa  146 162 157 155
    006461  aa  040 146 151 154
    006462  aa  145 040 163 145
    006463  aa  164 056 000 000

                                   609  ec  file_already_opened,fileopen,
                                   610  	(File is already opened.)
                        000314          	segdef  file_already_opened
    000314  a0   077777 006466
    006464  aa  146 151 154 145         	aci  "fileopen",8
    006465  aa  157 160 145 156
    006466  aa  027 106 151 154         	acc  "File is already opened."
    006467  aa  145 040 151 163
    006470  aa  040 141 154 162
    006471  aa  145 141 144 171
    006472  aa  040 157 160 145
    006473  aa  156 145 144 056

                                   611  ec  file_busy,filebusy,
                                   612  	(File already busy for other I/O activity.)
                        000315          	segdef  file_busy
    000315  a0   077777 006476
    006474  aa  146 151 154 145         	aci  "filebusy",8
    006475  aa  142 165 163 171
    006476  aa  051 106 151 154         	acc  "File already busy for other I/O activity."
    006477  aa  145 040 141 154
    006500  aa  162 145 141 144
    006501  aa  171 040 142 165
    006502  aa  163 171 040 146
    006503  aa  157 162 040 157
    006504  aa  164 150 145 162
    006505  aa  040 111 057 117
    006506  aa  040 141 143 164
    006507  aa  151 166 151 164
    006510  aa  171 056 000 000

                                   613  ec  file_is_full,filefull,
                                   614  	(There is no more room in the file.)
                        000316          	segdef  file_is_full
    000316  a0   077777 006513
    006511  aa  146 151 154 145         	aci  "filefull",8
    006512  aa  146 165 154 154
    006513  aa  042 124 150 145         	acc  "There is no more room in the file."
    006514  aa  162 145 040 151
    006515  aa  163 040 156 157
    006516  aa  040 155 157 162
    006517  aa  145 040 162 157
    006520  aa  157 155 040 151
    006521  aa  156 040 164 150
    006522  aa  145 040 146 151
    006523  aa  154 145 056 000

                                   615  ec  file_not_opened,not_open,
                                   616  	(No file is open under this reference name.)
                        000317          	segdef  file_not_opened
    000317  a0   077777 006526
    006524  aa  156 157 164 137         	aci  "not_open",8
    006525  aa  157 160 145 156
    006526  aa  052 116 157 040         	acc  "No file is open under this reference name."
    006527  aa  146 151 154 145
    006530  aa  040 151 163 040
    006531  aa  157 160 145 156
    006532  aa  040 165 156 144
    006533  aa  145 162 040 164
    006534  aa  150 151 163 040
    006535  aa  162 145 146 145
    006536  aa  162 145 156 143
    006537  aa  145 040 156 141
    006540  aa  155 145 056 000

                                   617  ec  fim_fault,fimflt,
                                   618  	(Illegal procedure fault in FIM by user's process.)
                        000320          	segdef  fim_fault
    000320  a0   077777 006543
    006541  aa  146 151 155 146         	aci  "fimflt",8
    006542  aa  154 164 040 040
    006543  aa  061 111 154 154         	acc  "Illegal procedure fault in FIM by user's process."
    006544  aa  145 147 141 154
    006545  aa  040 160 162 157
    006546  aa  143 145 144 165
    006547  aa  162 145 040 146
    006550  aa  141 165 154 164
    006551  aa  040 151 156 040
    006552  aa  106 111 115 040
    006553  aa  142 171 040 165
    006554  aa  163 145 162 047
    006555  aa  163 040 160 162
    006556  aa  157 143 145 163
    006557  aa  163 056 000 000

                                   619  ec  first_reference_trap,firstref,
                                   620  	(A first reference trap was found on the link target segment.)
                        000321          	segdef  first_reference_trap
    000321  a0   077777 006562
    006560  aa  146 151 162 163         	aci  "firstref",8
    006561  aa  164 162 145 146
    006562  aa  074 101 040 146         	acc  "A first reference trap was found on the link target segment."
    006563  aa  151 162 163 164
    006564  aa  040 162 145 146
    006565  aa  145 162 145 156
    006566  aa  143 145 040 164
    006567  aa  162 141 160 040
    006570  aa  167 141 163 040
    006571  aa  146 157 165 156
    006572  aa  144 040 157 156
    006573  aa  040 164 150 145
    006574  aa  040 154 151 156
    006575  aa  153 040 164 141
    006576  aa  162 147 145 164
    006577  aa  040 163 145 147
    006600  aa  155 145 156 164
    006601  aa  056 000 000 000

                                   621  ec  fnp_down,,
                                   622  	(The FNP is not running.)
                        000322          	segdef  fnp_down
    000322  a0   077777 006604
    006602  aa  146 156 160 137         	aci  "fnp_down",8
    006603  aa  144 157 167 156
    006604  aa  027 124 150 145         	acc  "The FNP is not running."
    006605  aa  040 106 116 120
    006606  aa  040 151 163 040
    006607  aa  156 157 164 040
    006610  aa  162 165 156 156
    006611  aa  151 156 147 056

                                   623  ec  force_unassign,forcunas,
                                   624  	(The Operator refused to honor the mount request.)
                        000323          	segdef  force_unassign
    000323  a0   077777 006614
    006612  aa  146 157 162 143         	aci  "forcunas",8
    006613  aa  165 156 141 163
    006614  aa  060 124 150 145         	acc  "The Operator refused to honor the mount request."
    006615  aa  040 117 160 145
    006616  aa  162 141 164 157
    006617  aa  162 040 162 145
    006620  aa  146 165 163 145
    006621  aa  144 040 164 157
    006622  aa  040 150 157 156
    006623  aa  157 162 040 164
    006624  aa  150 145 040 155
    006625  aa  157 165 156 164
    006626  aa  040 162 145 161
    006627  aa  165 145 163 164
    006630  aa  056 000 000 000

                                   625  ec  frame_scope_err,fscoperr,
                                   626  	(Attempt to reference temporary storage outside the scope of this frame.)
                        000324          	segdef  frame_scope_err
    000324  a0   077777 006633
    006631  aa  146 163 143 157         	aci  "fscoperr",8
    006632  aa  160 145 162 162
    006633  aa  107 101 164 164         	acc  "Attempt to reference temporary storage outside the scope of this frame."
    006634  aa  145 155 160 164
    006635  aa  040 164 157 040
    006636  aa  162 145 146 145
    006637  aa  162 145 156 143
    006640  aa  145 040 164 145
    006641  aa  155 160 157 162
    006642  aa  141 162 171 040
    006643  aa  163 164 157 162
    006644  aa  141 147 145 040
    006645  aa  157 165 164 163
    006646  aa  151 144 145 040
    006647  aa  164 150 145 040
    006650  aa  163 143 157 160
    006651  aa  145 040 157 146
    006652  aa  040 164 150 151
    006653  aa  163 040 146 162
    006654  aa  141 155 145 056

                                   627  ec  fsdisk_bad_label,fsbdlb,
                                   628      (Invalid storage system volume label.)
                        000325          	segdef  fsdisk_bad_label
    000325  a0   077777 006657
    006655  aa  146 163 142 144         	aci  "fsbdlb",8
    006656  aa  154 142 040 040
    006657  aa  044 111 156 166         	acc  "Invalid storage system volume label."
    006660  aa  141 154 151 144
    006661  aa  040 163 164 157
    006662  aa  162 141 147 145
    006663  aa  040 163 171 163
    006664  aa  164 145 155 040
    006665  aa  166 157 154 165
    006666  aa  155 145 040 154
    006667  aa  141 142 145 154
    006670  aa  056 000 000 000

                                   629  ec  fsdisk_drive_in_use,fsdinuse,
                                   630  	(Drive in use already.)
                        000326          	segdef  fsdisk_drive_in_use
    000326  a0   077777 006673
    006671  aa  146 163 144 151         	aci  "fsdinuse",8
    006672  aa  156 165 163 145
    006673  aa  025 104 162 151         	acc  "Drive in use already."
    006674  aa  166 145 040 151
    006675  aa  156 040 165 163
    006676  aa  145 040 141 154
    006677  aa  162 145 141 144
    006700  aa  171 056 000 000

                                   631  ec  fsdisk_not_ready,fs^rdy,
                                   632  	(Drive not ready.)
                        000327          	segdef  fsdisk_not_ready
    000327  a0   077777 006703
    006701  aa  146 163 136 162         	aci  "fs^rdy",8
    006702  aa  144 171 040 040
    006703  aa  020 104 162 151         	acc  "Drive not ready."
    006704  aa  166 145 040 156
    006705  aa  157 164 040 162
    006706  aa  145 141 144 171
    006707  aa  056 000 000 000

                                   633  ec  fsdisk_not_salv,fs^salv,
                                   634  	(Volume not salvaged.)
                        000330          	segdef  fsdisk_not_salv
    000330  a0   077777 006712
    006710  aa  146 163 136 163         	aci  "fs^salv",8
    006711  aa  141 154 166 040
    006712  aa  024 126 157 154         	acc  "Volume not salvaged."
    006713  aa  165 155 145 040
    006714  aa  156 157 164 040
    006715  aa  163 141 154 166
    006716  aa  141 147 145 144
    006717  aa  056 000 000 000

                                   635  ec  fsdisk_not_storage,fs^stor,
                                   636  	(Not a storage system drive.)
                        000331          	segdef  fsdisk_not_storage
    000331  a0   077777 006722
    006720  aa  146 163 136 163         	aci  "fs^stor",8
    006721  aa  164 157 162 040
    006722  aa  033 116 157 164         	acc  "Not a storage system drive."
    006723  aa  040 141 040 163
    006724  aa  164 157 162 141
    006725  aa  147 145 040 163
    006726  aa  171 163 164 145
    006727  aa  155 040 144 162
    006730  aa  151 166 145 056

                                   637  ec  fsdisk_old_label,fsoldlb,
                                   638  	(Unsupported label version.)
                        000332          	segdef  fsdisk_old_label
    000332  a0   077777 006733
    006731  aa  146 163 157 154         	aci  "fsoldlb",8
    006732  aa  144 154 142 040
    006733  aa  032 125 156 163         	acc  "Unsupported label version."
    006734  aa  165 160 160 157
    006735  aa  162 164 145 144
    006736  aa  040 154 141 142
    006737  aa  145 154 040 166
    006740  aa  145 162 163 151
    006741  aa  157 156 056 000

                                   639  ec  fsdisk_old_vtoc,fsoldvt,
                                   640  	(Unsupported VTOC header version.)
                        000333          	segdef  fsdisk_old_vtoc
    000333  a0   077777 006744
    006742  aa  146 163 157 154         	aci  "fsoldvt",8
    006743  aa  144 166 164 040
    006744  aa  040 125 156 163         	acc  "Unsupported VTOC header version."
    006745  aa  165 160 160 157
    006746  aa  162 164 145 144
    006747  aa  040 126 124 117
    006750  aa  103 040 150 145
    006751  aa  141 144 145 162
    006752  aa  040 166 145 162
    006753  aa  163 151 157 156
    006754  aa  056 000 000 000

                                   641  ec  fsdisk_phydev_err,fsdeverr,
                                   642  	(Physical device error.)
                        000334          	segdef  fsdisk_phydev_err
    000334  a0   077777 006757
    006755  aa  146 163 144 145         	aci  "fsdeverr",8
    006756  aa  166 145 162 162
    006757  aa  026 120 150 171         	acc  "Physical device error."
    006760  aa  163 151 143 141
    006761  aa  154 040 144 145
    006762  aa  166 151 143 145
    006763  aa  040 145 162 162
    006764  aa  157 162 056 000

                                   643  ec  fsdisk_pvtx_oob,fspvxoob,
                                   644  	(PVT index out of range.)
                        000335          	segdef  fsdisk_pvtx_oob
    000335  a0   077777 006767
    006765  aa  146 163 160 166         	aci  "fspvxoob",8
    006766  aa  170 157 157 142
    006767  aa  027 120 126 124         	acc  "PVT index out of range."
    006770  aa  040 151 156 144
    006771  aa  145 170 040 157
    006772  aa  165 164 040 157
    006773  aa  146 040 162 141
    006774  aa  156 147 145 056

                                   645  ec  full_hashtbl,fullhash,
                                   646  	(The directory hash table is full.)
                        000336          	segdef  full_hashtbl
    000336  a0   077777 006777
    006775  aa  146 165 154 154         	aci  "fullhash",8
    006776  aa  150 141 163 150
    006777  aa  041 124 150 145         	acc  "The directory hash table is full."
    007000  aa  040 144 151 162
    007001  aa  145 143 164 157
    007002  aa  162 171 040 150
    007003  aa  141 163 150 040
    007004  aa  164 141 142 154
    007005  aa  145 040 151 163
    007006  aa  040 146 165 154
    007007  aa  154 056 000 000

                                   647  ec  fulldir,,
                                   648  	(There was an attempt to delete a non-empty directory.)
                        000337          	segdef  fulldir
    000337  a0   077777 007012
    007010  aa  146 165 154 154         	aci  "fulldir",8
    007011  aa  144 151 162 040
    007012  aa  065 124 150 145         	acc  "There was an attempt to delete a non-empty directory."
    007013  aa  162 145 040 167
    007014  aa  141 163 040 141
    007015  aa  156 040 141 164
    007016  aa  164 145 155 160
    007017  aa  164 040 164 157
    007020  aa  040 144 145 154
    007021  aa  145 164 145 040
    007022  aa  141 040 156 157
    007023  aa  156 055 145 155
    007024  aa  160 164 171 040
    007025  aa  144 151 162 145
    007026  aa  143 164 157 162
    007027  aa  171 056 000 000

                                   649  ec  hardcore_sdw,hcsdw,
                                   650  	(Attempt to perform an illegal action on a hardcore segment.)
                        000340          	segdef  hardcore_sdw
    000340  a0   077777 007032
    007030  aa  150 143 163 144         	aci  "hcsdw",8
    007031  aa  167 040 040 040
    007032  aa  073 101 164 164         	acc  "Attempt to perform an illegal action on a hardcore segment."
    007033  aa  145 155 160 164
    007034  aa  040 164 157 040
    007035  aa  160 145 162 146
    007036  aa  157 162 155 040
    007037  aa  141 156 040 151
    007040  aa  154 154 145 147
    007041  aa  141 154 040 141
    007042  aa  143 164 151 157
    007043  aa  156 040 157 156
    007044  aa  040 141 040 150
    007045  aa  141 162 144 143
    007046  aa  157 162 145 040
    007047  aa  163 145 147 155
    007050  aa  145 156 164 056

                                   651  ec  higher_inconsistency,hi_incon,
                                   652  	(The lock was set on behalf of an operation which must be adjusted.)
                        000341          	segdef  higher_inconsistency
    000341  a0   077777 007053
    007051  aa  150 151 137 151         	aci  "hi_incon",8
    007052  aa  156 143 157 156
    007053  aa  102 124 150 145         	acc  "The lock was set on behalf of an operation which must be adjusted."
    007054  aa  040 154 157 143
    007055  aa  153 040 167 141
    007056  aa  163 040 163 145
    007057  aa  164 040 157 156
    007060  aa  040 142 145 150
    007061  aa  141 154 146 040
    007062  aa  157 146 040 141
    007063  aa  156 040 157 160
    007064  aa  145 162 141 164
    007065  aa  151 157 156 040
    007066  aa  167 150 151 143
    007067  aa  150 040 155 165
    007070  aa  163 164 040 142
    007071  aa  145 040 141 144
    007072  aa  152 165 163 164
    007073  aa  145 144 056 000

                                   653  ec  id_already_exists,idexists,
                                   654  	(Supplied identifier already exists in data base.)
                        000342          	segdef  id_already_exists
    000342  a0   077777 007076
    007074  aa  151 144 145 170         	aci  "idexists",8
    007075  aa  151 163 164 163
    007076  aa  060 123 165 160         	acc  "Supplied identifier already exists in data base."
    007077  aa  160 154 151 145
    007100  aa  144 040 151 144
    007101  aa  145 156 164 151
    007102  aa  146 151 145 162
    007103  aa  040 141 154 162
    007104  aa  145 141 144 171
    007105  aa  040 145 170 151
    007106  aa  163 164 163 040
    007107  aa  151 156 040 144
    007110  aa  141 164 141 040
    007111  aa  142 141 163 145
    007112  aa  056 000 000 000

                                   655  ec  id_not_found,idnotfnd,
                                   656  	(Supplied identifier not found in data base.)
                        000343          	segdef  id_not_found
    000343  a0   077777 007115
    007113  aa  151 144 156 157         	aci  "idnotfnd",8
    007114  aa  164 146 156 144
    007115  aa  053 123 165 160         	acc  "Supplied identifier not found in data base."
    007116  aa  160 154 151 145
    007117  aa  144 040 151 144
    007120  aa  145 156 164 151
    007121  aa  146 151 145 162
    007122  aa  040 156 157 164
    007123  aa  040 146 157 165
    007124  aa  156 144 040 151
    007125  aa  156 040 144 141
    007126  aa  164 141 040 142
    007127  aa  141 163 145 056

                                   657  ec  illegal_activation,bad_act,
                                   658  	(There was an illegal attempt to activate a segment.)
                        000344          	segdef  illegal_activation
    000344  a0   077777 007132
    007130  aa  142 141 144 137         	aci  "bad_act",8
    007131  aa  141 143 164 040
    007132  aa  063 124 150 145         	acc  "There was an illegal attempt to activate a segment."
    007133  aa  162 145 040 167
    007134  aa  141 163 040 141
    007135  aa  156 040 151 154
    007136  aa  154 145 147 141
    007137  aa  154 040 141 164
    007140  aa  164 145 155 160
    007141  aa  164 040 164 157
    007142  aa  040 141 143 164
    007143  aa  151 166 141 164
    007144  aa  145 040 141 040
    007145  aa  163 145 147 155
    007146  aa  145 156 164 056

                                   659  ec  illegal_deactivation,deactive,
                                   660  	(There was an illegal attempt to delete an AST entry.)
                        000345          	segdef  illegal_deactivation
    000345  a0   077777 007151
    007147  aa  144 145 141 143         	aci  "deactive",8
    007150  aa  164 151 166 145
    007151  aa  064 124 150 145         	acc  "There was an illegal attempt to delete an AST entry."
    007152  aa  162 145 040 167
    007153  aa  141 163 040 141
    007154  aa  156 040 151 154
    007155  aa  154 145 147 141
    007156  aa  154 040 141 164
    007157  aa  164 145 155 160
    007160  aa  164 040 164 157
    007161  aa  040 144 145 154
    007162  aa  145 164 145 040
    007163  aa  141 156 040 101
    007164  aa  123 124 040 145
    007165  aa  156 164 162 171
    007166  aa  056 000 000 000

                                   661  ec  illegal_ft2,bad_ft2,
                                   662  	(Attempt to indirect through word pair containing a fault tag 2 in the odd word.)
                        000346          	segdef  illegal_ft2
    000346  a0   077777 007171
    007167  aa  142 141 144 137         	aci  "bad_ft2",8
    007170  aa  146 164 062 040
    007171  aa  117 101 164 164         	acc  "Attempt to indirect through word pair containing a fault tag 2 in the odd word."
    007172  aa  145 155 160 164
    007173  aa  040 164 157 040
    007174  aa  151 156 144 151
    007175  aa  162 145 143 164
    007176  aa  040 164 150 162
    007177  aa  157 165 147 150
    007200  aa  040 167 157 162
    007201  aa  144 040 160 141
    007202  aa  151 162 040 143
    007203  aa  157 156 164 141
    007204  aa  151 156 151 156
    007205  aa  147 040 141 040
    007206  aa  146 141 165 154
    007207  aa  164 040 164 141
    007210  aa  147 040 062 040
    007211  aa  151 156 040 164
    007212  aa  150 145 040 157
    007213  aa  144 144 040 167
    007214  aa  157 162 144 056

                                   663  ec  illegal_record_size,rec_size,
                                   664  	(Record size must be positive and smaller than a segment)
                        000347          	segdef  illegal_record_size
    000347  a0   077777 007217
    007215  aa  162 145 143 137         	aci  "rec_size",8
    007216  aa  163 151 172 145
    007217  aa  067 122 145 143         	acc  "Record size must be positive and smaller than a segment"
    007220  aa  157 162 144 040
    007221  aa  163 151 172 145
    007222  aa  040 155 165 163
    007223  aa  164 040 142 145
    007224  aa  040 160 157 163
    007225  aa  151 164 151 166
    007226  aa  145 040 141 156
    007227  aa  144 040 163 155
    007230  aa  141 154 154 145
    007231  aa  162 040 164 150
    007232  aa  141 156 040 141
    007233  aa  040 163 145 147
    007234  aa  155 145 156 164

                                   665  ec  imp_bad_format,impbdfmt,
                                   666  	(Format of IMP message was incorrect.)
                        000350          	segdef  imp_bad_format
    000350  a0   077777 007237
    007235  aa  151 155 160 142         	aci  "impbdfmt",8
    007236  aa  144 146 155 164
    007237  aa  044 106 157 162         	acc  "Format of IMP message was incorrect."
    007240  aa  155 141 164 040
    007241  aa  157 146 040 111
    007242  aa  115 120 040 155
    007243  aa  145 163 163 141
    007244  aa  147 145 040 167
    007245  aa  141 163 040 151
    007246  aa  156 143 157 162
    007247  aa  162 145 143 164
    007250  aa  056 000 000 000

                                   667  ec  imp_bad_status,impbadst,
                                   668  	(Bad status received from IMP.)
                        000351          	segdef  imp_bad_status
    000351  a0   077777 007253
    007251  aa  151 155 160 142         	aci  "impbadst",8
    007252  aa  141 144 163 164
    007253  aa  035 102 141 144         	acc  "Bad status received from IMP."
    007254  aa  040 163 164 141
    007255  aa  164 165 163 040
    007256  aa  162 145 143 145
    007257  aa  151 166 145 144
    007260  aa  040 146 162 157
    007261  aa  155 040 111 115
    007262  aa  120 056 000 000

                                   669  ec  imp_down,impdown,
                                   670  	(Multics IMP is down.)
                        000352          	segdef  imp_down
    000352  a0   077777 007265
    007263  aa  151 155 160 144         	aci  "impdown",8
    007264  aa  157 167 156 040
    007265  aa  024 115 165 154         	acc  "Multics IMP is down."
    007266  aa  164 151 143 163
    007267  aa  040 111 115 120
    007270  aa  040 151 163 040
    007271  aa  144 157 167 156
    007272  aa  056 000 000 000

                                   671  ec  imp_rfnm_pending,imprfnm,
                                   672  	(A RFNM is pending on this IMP link.)
                        000353          	segdef  imp_rfnm_pending
    000353  a0   077777 007275
    007273  aa  151 155 160 162         	aci  "imprfnm",8
    007274  aa  146 156 155 040
    007275  aa  043 101 040 122         	acc  "A RFNM is pending on this IMP link."
    007276  aa  106 116 115 040
    007277  aa  151 163 040 160
    007300  aa  145 156 144 151
    007301  aa  156 147 040 157
    007302  aa  156 040 164 150
    007303  aa  151 163 040 111
    007304  aa  115 120 040 154
    007305  aa  151 156 153 056

                                   673  ec  improper_data_format,baddtfmt,
                                   674  	(Data not in expected format.)
                        000354          	segdef  improper_data_format
    000354  a0   077777 007310
    007306  aa  142 141 144 144         	aci  "baddtfmt",8
    007307  aa  164 146 155 164
    007310  aa  034 104 141 164         	acc  "Data not in expected format."
    007311  aa  141 040 156 157
    007312  aa  164 040 151 156
    007313  aa  040 145 170 160
    007314  aa  145 143 164 145
    007315  aa  144 040 146 157
    007316  aa  162 155 141 164
    007317  aa  056 000 000 000

                                   675  ec  improper_termination,badterm,
                                   676  	(An improper attempt was made to terminate the process.)
                        000355          	segdef  improper_termination
    000355  a0   077777 007322
    007320  aa  142 141 144 164         	aci  "badterm",8
    007321  aa  145 162 155 040
    007322  aa  066 101 156 040         	acc  "An improper attempt was made to terminate the process."
    007323  aa  151 155 160 162
    007324  aa  157 160 145 162
    007325  aa  040 141 164 164
    007326  aa  145 155 160 164
    007327  aa  040 167 141 163
    007330  aa  040 155 141 144
    007331  aa  145 040 164 157
    007332  aa  040 164 145 162
    007333  aa  155 151 156 141
    007334  aa  164 145 040 164
    007335  aa  150 145 040 160
    007336  aa  162 157 143 145
    007337  aa  163 163 056 000

                                   677  ec  incompatible_attach,att^=opn,
                                   678  	(Attach and open are incompatible.)
                        000356          	segdef  incompatible_attach
    000356  a0   077777 007342
    007340  aa  141 164 164 136         	aci  "att^=opn",8
    007341  aa  075 157 160 156
    007342  aa  041 101 164 164         	acc  "Attach and open are incompatible."
    007343  aa  141 143 150 040
    007344  aa  141 156 144 040
    007345  aa  157 160 145 156
    007346  aa  040 141 162 145
    007347  aa  040 151 156 143
    007350  aa  157 155 160 141
    007351  aa  164 151 142 154
    007352  aa  145 056 000 000

                                   679  ec  incompatible_encoding_mode,incencmd,
                                   680  	(Incompatible character encoding mode.)
                        000357          	segdef  incompatible_encoding_mode
    000357  a0   077777 007355
    007353  aa  151 156 143 145         	aci  "incencmd",8
    007354  aa  156 143 155 144
    007355  aa  045 111 156 143         	acc  "Incompatible character encoding mode."
    007356  aa  157 155 160 141
    007357  aa  164 151 142 154
    007360  aa  145 040 143 150
    007361  aa  141 162 141 143
    007362  aa  164 145 162 040
    007363  aa  145 156 143 157
    007364  aa  144 151 156 147
    007365  aa  040 155 157 144
    007366  aa  145 056 000 000

                                   681  ec  incompatible_file_attribute,incflatt,
                                   682  	(Specified attribute incompatible with file structure.)
                        000360          	segdef  incompatible_file_attribute
    000360  a0   077777 007371
    007367  aa  151 156 143 146         	aci  "incflatt",8
    007370  aa  154 141 164 164
    007371  aa  065 123 160 145         	acc  "Specified attribute incompatible with file structure."
    007372  aa  143 151 146 151
    007373  aa  145 144 040 141
    007374  aa  164 164 162 151
    007375  aa  142 165 164 145
    007376  aa  040 151 156 143
    007377  aa  157 155 160 141
    007400  aa  164 151 142 154
    007401  aa  145 040 167 151
    007402  aa  164 150 040 146
    007403  aa  151 154 145 040
    007404  aa  163 164 162 165
    007405  aa  143 164 165 162
    007406  aa  145 056 000 000

                                   683  ec  incompatible_term_type,intrmtyp,
                                   684  	(The specified terminal type is incompatible with the line type.)
                        000361          	segdef  incompatible_term_type
    000361  a0   077777 007411
    007407  aa  151 156 164 162         	aci  "intrmtyp",8
    007410  aa  155 164 171 160
    007411  aa  077 124 150 145         	acc  "The specified terminal type is incompatible with the line type."
    007412  aa  040 163 160 145
    007413  aa  143 151 146 151
    007414  aa  145 144 040 164
    007415  aa  145 162 155 151
    007416  aa  156 141 154 040
    007417  aa  164 171 160 145
    007420  aa  040 151 163 040
    007421  aa  151 156 143 157
    007422  aa  155 160 141 164
    007423  aa  151 142 154 145
    007424  aa  040 167 151 164
    007425  aa  150 040 164 150
    007426  aa  145 040 154 151
    007427  aa  156 145 040 164
    007430  aa  171 160 145 056

                                   685  ec  incomplete_access_name,incomnam,
                                   686            (Missing components in access name.)
                        000362          	segdef  incomplete_access_name
    000362  a0   077777 007433
    007431  aa  151 156 143 157         	aci  "incomnam",8
    007432  aa  155 156 141 155
    007433  aa  042 115 151 163         	acc  "Missing components in access name."
    007434  aa  163 151 156 147
    007435  aa  040 143 157 155
    007436  aa  160 157 156 145
    007437  aa  156 164 163 040
    007440  aa  151 156 040 141
    007441  aa  143 143 145 163
    007442  aa  163 040 156 141
    007443  aa  155 145 056 000

                                   687  ec  inconsistent,incnstnt,
                                   688  	(Inconsistent combination of control arguments.)
                        000363          	segdef  inconsistent
    000363  a0   077777 007446
    007444  aa  151 156 143 156         	aci  "incnstnt",8
    007445  aa  163 164 156 164
    007446  aa  056 111 156 143         	acc  "Inconsistent combination of control arguments."
    007447  aa  157 156 163 151
    007450  aa  163 164 145 156
    007451  aa  164 040 143 157
    007452  aa  155 142 151 156
    007453  aa  141 164 151 157
    007454  aa  156 040 157 146
    007455  aa  040 143 157 156
    007456  aa  164 162 157 154
    007457  aa  040 141 162 147
    007460  aa  165 155 145 156
    007461  aa  164 163 056 000

                                   689  ec  inconsistent_ect,badect,
                                   690  	(The event channel table was in an inconsistent state.)
                        000364          	segdef  inconsistent_ect
    000364  a0   077777 007464
    007462  aa  142 141 144 145         	aci  "badect",8
    007463  aa  143 164 040 040
    007464  aa  065 124 150 145         	acc  "The event channel table was in an inconsistent state."
    007465  aa  040 145 166 145
    007466  aa  156 164 040 143
    007467  aa  150 141 156 156
    007470  aa  145 154 040 164
    007471  aa  141 142 154 145
    007472  aa  040 167 141 163
    007473  aa  040 151 156 040
    007474  aa  141 156 040 151
    007475  aa  156 143 157 156
    007476  aa  163 151 163 164
    007477  aa  145 156 164 040
    007500  aa  163 164 141 164
    007501  aa  145 056 000 000

                                   691  ec  inconsistent_msf,incnsmsf,
                                   692  	(Multisegment file is inconsistent.)
                        000365          	segdef  inconsistent_msf
    000365  a0   077777 007504
    007502  aa  151 156 143 156         	aci  "incnsmsf",8
    007503  aa  163 155 163 146
    007504  aa  042 115 165 154         	acc  "Multisegment file is inconsistent."
    007505  aa  164 151 163 145
    007506  aa  147 155 145 156
    007507  aa  164 040 146 151
    007510  aa  154 145 040 151
    007511  aa  163 040 151 156
    007512  aa  143 157 156 163
    007513  aa  151 163 164 145
    007514  aa  156 164 056 000

                                   693  ec  inconsistent_rnt,badrnt,
                                   694  	(The reference name table is in an inconsistent state.)
                        000366          	segdef  inconsistent_rnt
    000366  a0   077777 007517
    007515  aa  142 141 144 162         	aci  "badrnt",8
    007516  aa  156 164 040 040
    007517  aa  065 124 150 145         	acc  "The reference name table is in an inconsistent state."
    007520  aa  040 162 145 146
    007521  aa  145 162 145 156
    007522  aa  143 145 040 156
    007523  aa  141 155 145 040
    007524  aa  164 141 142 154
    007525  aa  145 040 151 163
    007526  aa  040 151 156 040
    007527  aa  141 156 040 151
    007530  aa  156 143 157 156
    007531  aa  163 151 163 164
    007532  aa  145 156 164 040
    007533  aa  163 164 141 164
    007534  aa  145 056 000 000

                                   695  ec  inconsistent_sst,badsst,
                                   696  	(Active Segment Table threads in the SST are inconsistent.)
                        000367          	segdef  inconsistent_sst
    000367  a0   077777 007537
    007535  aa  142 141 144 163         	aci  "badsst",8
    007536  aa  163 164 040 040
    007537  aa  071 101 143 164         	acc  "Active Segment Table threads in the SST are inconsistent."
    007540  aa  151 166 145 040
    007541  aa  123 145 147 155
    007542  aa  145 156 164 040
    007543  aa  124 141 142 154
    007544  aa  145 040 164 150
    007545  aa  162 145 141 144
    007546  aa  163 040 151 156
    007547  aa  040 164 150 145
    007550  aa  040 123 123 124
    007551  aa  040 141 162 145
    007552  aa  040 151 156 143
    007553  aa  157 156 163 151
    007554  aa  163 164 145 156
    007555  aa  164 056 000 000

                                   697
                                   698  ec  inconsistent_object_msf,incobmsf,
                                   699  	(Object MSF is inconsistent.)
                        000370          	segdef  inconsistent_object_msf
    000370  a0   077777 007560
    007556  aa  151 156 143 157         	aci  "incobmsf",8
    007557  aa  142 155 163 146
    007560  aa  033 117 142 152         	acc  "Object MSF is inconsistent."
    007561  aa  145 143 164 040
    007562  aa  115 123 106 040
    007563  aa  151 163 040 151
    007564  aa  156 143 157 156
    007565  aa  163 151 163 164
    007566  aa  145 156 164 056

                                   700  " disagreement between msf_map size indication and directory bit count,
                                   701  " references to msf components outside the msf, etc.
                                   702
                                   703  ec  incorrect_access,incacc,
                                   704  	(Incorrect access to directory containing entry.)
                        000371          	segdef  incorrect_access
    000371  a0   077777 007571
    007567  aa  151 156 143 141         	aci  "incacc",8
    007570  aa  143 143 040 040
    007571  aa  057 111 156 143         	acc  "Incorrect access to directory containing entry."
    007572  aa  157 162 162 145
    007573  aa  143 164 040 141
    007574  aa  143 143 145 163
    007575  aa  163 040 164 157
    007576  aa  040 144 151 162
    007577  aa  145 143 164 157
    007600  aa  162 171 040 143
    007601  aa  157 156 164 141
    007602  aa  151 156 151 156
    007603  aa  147 040 145 156
    007604  aa  164 162 171 056

                                   705  ec  incorrect_device_type,incdevt,
                                   706  	(Device type is inappropriate for this request.)
                        000372          	segdef  incorrect_device_type
    000372  a0   077777 007607
    007605  aa  151 156 143 144         	aci  "incdevt",8
    007606  aa  145 166 164 040
    007607  aa  056 104 145 166         	acc  "Device type is inappropriate for this request."
    007610  aa  151 143 145 040
    007611  aa  164 171 160 145
    007612  aa  040 151 163 040
    007613  aa  151 156 141 160
    007614  aa  160 162 157 160
    007615  aa  162 151 141 164
    007616  aa  145 040 146 157
    007617  aa  162 040 164 150
    007620  aa  151 163 040 162
    007621  aa  145 161 165 145
    007622  aa  163 164 056 000

                                   707  ec  incorrect_volume_type,incvolt,
                                   708  	(Volume type is inappropriate for this request.)
                        000373          	segdef  incorrect_volume_type
    000373  a0   077777 007625
    007623  aa  151 156 143 166         	aci  "incvolt",8
    007624  aa  157 154 164 040
    007625  aa  056 126 157 154         	acc  "Volume type is inappropriate for this request."
    007626  aa  165 155 145 040
    007627  aa  164 171 160 145
    007630  aa  040 151 163 040
    007631  aa  151 156 141 160
    007632  aa  160 162 157 160
    007633  aa  162 151 141 164
    007634  aa  145 040 146 157
    007635  aa  162 040 164 150
    007636  aa  151 163 040 162
    007637  aa  145 161 165 145
    007640  aa  163 164 056 000

                                   709  ec  infcnt_non_zero,makunk,
                                   710  	(There was an attempt to make a directory unknown that has inferior segments.)
                        000374          	segdef  infcnt_non_zero
    000374  a0   077777 007643
    007641  aa  155 141 153 165         	aci  "makunk",8
    007642  aa  156 153 040 040
    007643  aa  114 124 150 145         	acc  "There was an attempt to make a directory unknown that has inferior segments."
    007644  aa  162 145 040 167
    007645  aa  141 163 040 141
    007646  aa  156 040 141 164
    007647  aa  164 145 155 160
    007650  aa  164 040 164 157
    007651  aa  040 155 141 153
    007652  aa  145 040 141 040
    007653  aa  144 151 162 145
    007654  aa  143 164 157 162
    007655  aa  171 040 165 156
    007656  aa  153 156 157 167
    007657  aa  156 040 164 150
    007660  aa  141 164 040 150
    007661  aa  141 163 040 151
    007662  aa  156 146 145 162
    007663  aa  151 157 162 040
    007664  aa  163 145 147 155
    007665  aa  145 156 164 163
    007666  aa  056 000 000 000

                                   711  ec (insufficient_access,mdc_no_access),insufacc,
                                   712  	(Process lacks sufficient access to perform this operation.)
                        000375          	segdef  insufficient_access
                        000375          	segdef  mdc_no_access
    000375  a0   077777 007671
    007667  aa  151 156 163 165         	aci  "insufacc",8
    007670  aa  146 141 143 143
    007671  aa  072 120 162 157         	acc  "Process lacks sufficient access to perform this operation."
    007672  aa  143 145 163 163
    007673  aa  040 154 141 143
    007674  aa  153 163 040 163
    007675  aa  165 146 146 151
    007676  aa  143 151 145 156
    007677  aa  164 040 141 143
    007700  aa  143 145 163 163
    007701  aa  040 164 157 040
    007702  aa  160 145 162 146
    007703  aa  157 162 155 040
    007704  aa  164 150 151 163
    007705  aa  040 157 160 145
    007706  aa  162 141 164 151
    007707  aa  157 156 056 000

                                   713  ec  insufficient_open,insufopn,
                                   714  	(Insufficient information to open file.)
                        000376          	segdef  insufficient_open
    000376  a0   077777 007712
    007710  aa  151 156 163 165         	aci  "insufopn",8
    007711  aa  146 157 160 156
    007712  aa  046 111 156 163         	acc  "Insufficient information to open file."
    007713  aa  165 146 146 151
    007714  aa  143 151 145 156
    007715  aa  164 040 151 156
    007716  aa  146 157 162 155
    007717  aa  141 164 151 157
    007720  aa  156 040 164 157
    007721  aa  040 157 160 145
    007722  aa  156 040 146 151
    007723  aa  154 145 056 000

                                   715  ec  invalid_array_size,invarsz,
                                   716  	(The size of an array passed as an argument is invalid.)
                        000377          	segdef  invalid_array_size
    000377  a0   077777 007726
    007724  aa  151 156 166 141         	aci  "invarsz",8
    007725  aa  162 163 172 040
    007726  aa  066 124 150 145         	acc  "The size of an array passed as an argument is invalid."
    007727  aa  040 163 151 172
    007730  aa  145 040 157 146
    007731  aa  040 141 156 040
    007732  aa  141 162 162 141
    007733  aa  171 040 160 141
    007734  aa  163 163 145 144
    007735  aa  040 141 163 040
    007736  aa  141 156 040 141
    007737  aa  162 147 165 155
    007740  aa  145 156 164 040
    007741  aa  151 163 040 151
    007742  aa  156 166 141 154
    007743  aa  151 144 056 000

                                   717  ec  invalid_ascii,invascii,
                                   718  	(The name specified contains non-ascii characters.)
                        000400          	segdef  invalid_ascii
    000400  a0   077777 007746
    007744  aa  151 156 166 141         	aci  "invascii",8
    007745  aa  163 143 151 151
    007746  aa  061 124 150 145         	acc  "The name specified contains non-ascii characters."
    007747  aa  040 156 141 155
    007750  aa  145 040 163 160
    007751  aa  145 143 151 146
    007752  aa  151 145 144 040
    007753  aa  143 157 156 164
    007754  aa  141 151 156 163
    007755  aa  040 156 157 156
    007756  aa  055 141 163 143
    007757  aa  151 151 040 143
    007760  aa  150 141 162 141
    007761  aa  143 164 145 162
    007762  aa  163 056 000 000

                                   719  ec  invalid_backspace_read,invbsr,
                                   720  	(Invalid backspace_read order call.)
                        000401          	segdef  invalid_backspace_read
    000401  a0   077777 007765
    007763  aa  151 156 166 142         	aci  "invbsr",8
    007764  aa  163 162 040 040
    007765  aa  042 111 156 166         	acc  "Invalid backspace_read order call."
    007766  aa  141 154 151 144
    007767  aa  040 142 141 143
    007770  aa  153 163 160 141
    007771  aa  143 145 137 162
    007772  aa  145 141 144 040
    007773  aa  157 162 144 145
    007774  aa  162 040 143 141
    007775  aa  154 154 056 000

                                   721  ec  invalid_block_length,invblk,
                                   722  	(Invalid physical block length.)
                        000402          	segdef  invalid_block_length
    000402  a0   077777 010000
    007776  aa  151 156 166 142         	aci  "invblk",8
    007777  aa  154 153 040 040
    010000  aa  036 111 156 166         	acc  "Invalid physical block length."
    010001  aa  141 154 151 144
    010002  aa  040 160 150 171
    010003  aa  163 151 143 141
    010004  aa  154 040 142 154
    010005  aa  157 143 153 040
    010006  aa  154 145 156 147
    010007  aa  164 150 056 000

                                   723  ec  invalid_channel,invalchn,
                                   724  	(The event channel specified is not a valid channel.)
                        000403          	segdef  invalid_channel
    000403  a0   077777 010012
    010010  aa  151 156 166 141         	aci  "invalchn",8
    010011  aa  154 143 150 156
    010012  aa  063 124 150 145         	acc  "The event channel specified is not a valid channel."
    010013  aa  040 145 166 145
    010014  aa  156 164 040 143
    010015  aa  150 141 156 156
    010016  aa  145 154 040 163
    010017  aa  160 145 143 151
    010020  aa  146 151 145 144
    010021  aa  040 151 163 040
    010022  aa  156 157 164 040
    010023  aa  141 040 166 141
    010024  aa  154 151 144 040
    010025  aa  143 150 141 156
    010026  aa  156 145 154 056

                                   725  ec  invalid_copy,invalcpy,
                                   726  	(There was an attempt to create a copy without correct access.)
                        000404          	segdef  invalid_copy
    000404  a0   077777 010031
    010027  aa  151 156 166 141         	aci  "invalcpy",8
    010030  aa  154 143 160 171
    010031  aa  075 124 150 145         	acc  "There was an attempt to create a copy without correct access."
    010032  aa  162 145 040 167
    010033  aa  141 163 040 141
    010034  aa  156 040 141 164
    010035  aa  164 145 155 160
    010036  aa  164 040 164 157
    010037  aa  040 143 162 145
    010040  aa  141 164 145 040
    010041  aa  141 040 143 157
    010042  aa  160 171 040 167
    010043  aa  151 164 150 157
    010044  aa  165 164 040 143
    010045  aa  157 162 162 145
    010046  aa  143 164 040 141
    010047  aa  143 143 145 163
    010050  aa  163 056 000 000

                                   727  ec  invalid_cseg,invcseg,
                                   728  	(Internal inconsistency in control segment.)
                        000405          	segdef  invalid_cseg
    000405  a0   077777 010053
    010051  aa  151 156 166 143         	aci  "invcseg",8
    010052  aa  163 145 147 040
    010053  aa  052 111 156 164         	acc  "Internal inconsistency in control segment."
    010054  aa  145 162 156 141
    010055  aa  154 040 151 156
    010056  aa  143 157 156 163
    010057  aa  151 163 164 145
    010060  aa  156 143 171 040
    010061  aa  151 156 040 143
    010062  aa  157 156 164 162
    010063  aa  157 154 040 163
    010064  aa  145 147 155 145
    010065  aa  156 164 056 000

                                   729  ec  invalid_delay_value,invdelay,
                                   730  	(Invalid delay value specified.)
                        000406          	segdef  invalid_delay_value
    000406  a0   077777 010070
    010066  aa  151 156 166 144         	aci  "invdelay",8
    010067  aa  145 154 141 171
    010070  aa  036 111 156 166         	acc  "Invalid delay value specified."
    010071  aa  141 154 151 144
    010072  aa  040 144 145 154
    010073  aa  141 171 040 166
    010074  aa  141 154 165 145
    010075  aa  040 163 160 145
    010076  aa  143 151 146 151
    010077  aa  145 144 056 000

                                   731  ec  invalid_device,invdev,
                                   732  	(Attempt to attach to an invalid device.)
                        000407          	segdef  invalid_device
    000407  a0   077777 010102
    010100  aa  151 156 166 144         	aci  "invdev",8
    010101  aa  145 166 040 040
    010102  aa  047 101 164 164         	acc  "Attempt to attach to an invalid device."
    010103  aa  145 155 160 164
    010104  aa  040 164 157 040
    010105  aa  141 164 164 141
    010106  aa  143 150 040 164
    010107  aa  157 040 141 156
    010110  aa  040 151 156 166
    010111  aa  141 154 151 144
    010112  aa  040 144 145 166
    010113  aa  151 143 145 056

                                   733  ec  invalid_dm_journal_index,invjx,
                                   734  	(Invalid data management journal index.)
                        000410          	segdef  invalid_dm_journal_index
    000410  a0   077777 010116
    010114  aa  151 156 166 152         	aci  "invjx",8
    010115  aa  170 040 040 040
    010116  aa  046 111 156 166         	acc  "Invalid data management journal index."
    010117  aa  141 154 151 144
    010120  aa  040 144 141 164
    010121  aa  141 040 155 141
    010122  aa  156 141 147 145
    010123  aa  155 145 156 164
    010124  aa  040 152 157 165
    010125  aa  162 156 141 154
    010126  aa  040 151 156 144
    010127  aa  145 170 056 000

                                   735  ec  invalid_elsize,invelsiz,
                                   736  	(Invalid element size.)
                        000411          	segdef  invalid_elsize
    000411  a0   077777 010132
    010130  aa  151 156 166 145         	aci  "invelsiz",8
    010131  aa  154 163 151 172
    010132  aa  025 111 156 166         	acc  "Invalid element size."
    010133  aa  141 154 151 144
    010134  aa  040 145 154 145
    010135  aa  155 145 156 164
    010136  aa  040 163 151 172
    010137  aa  145 056 000 000

                                   737  ec  invalid_expiration,invexp,
                                   738  	(File expiration date exceeds that of previous file.)
                        000412          	segdef  invalid_expiration
    000412  a0   077777 010142
    010140  aa  151 156 166 145         	aci  "invexp",8
    010141  aa  170 160 040 040
    010142  aa  063 106 151 154         	acc  "File expiration date exceeds that of previous file."
    010143  aa  145 040 145 170
    010144  aa  160 151 162 141
    010145  aa  164 151 157 156
    010146  aa  040 144 141 164
    010147  aa  145 040 145 170
    010150  aa  143 145 145 144
    010151  aa  163 040 164 150
    010152  aa  141 164 040 157
    010153  aa  146 040 160 162
    010154  aa  145 166 151 157
    010155  aa  165 163 040 146
    010156  aa  151 154 145 056

                                   739  ec  invalid_file_set_format,infsfmt,
                                   740  	(File set structure is invalid.)
                        000413          	segdef  invalid_file_set_format
    000413  a0   077777 010161
    010157  aa  151 156 146 163         	aci  "infsfmt",8
    010160  aa  146 155 164 040
    010161  aa  036 106 151 154         	acc  "File set structure is invalid."
    010162  aa  145 040 163 145
    010163  aa  164 040 163 164
    010164  aa  162 165 143 164
    010165  aa  165 162 145 040
    010166  aa  151 163 040 151
    010167  aa  156 166 141 154
    010170  aa  151 144 056 000

                                   741  ec  invalid_heap,bad_heap,
                                   742  	(An invalid heap header has been found.  This is likely due to the stack being overwritten.)
                        000414          	segdef  invalid_heap
    000414  a0   077777 010173
    010171  aa  142 141 144 137         	aci  "bad_heap",8
    010172  aa  150 145 141 160
    010173  aa  132 101 156 040         	acc  "An invalid heap header has been found.  This is likely due to the stack being overwritten."
    010174  aa  151 156 166 141
    010175  aa  154 151 144 040
    010176  aa  150 145 141 160
    010177  aa  040 150 145 141
    010200  aa  144 145 162 040
    010201  aa  150 141 163 040
    010202  aa  142 145 145 156
    010203  aa  040 146 157 165
    010204  aa  156 144 056 040
    010205  aa  040 124 150 151
    010206  aa  163 040 151 163
    010207  aa  040 154 151 153
    010210  aa  145 154 171 040
    010211  aa  144 165 145 040
    010212  aa  164 157 040 164
    010213  aa  150 145 040 163
    010214  aa  164 141 143 153
    010215  aa  040 142 145 151
    010216  aa  156 147 040 157
    010217  aa  166 145 162 167
    010220  aa  162 151 164 164
    010221  aa  145 156 056 000

                                   743  ec  invalid_heap_var_size,inhpvsiz,
                                   744  	(An invalid size has been found for a heap variable.)
                        000415          	segdef  invalid_heap_var_size
    000415  a0   077777 010224
    010222  aa  151 156 150 160         	aci  "inhpvsiz",8
    010223  aa  166 163 151 172
    010224  aa  063 101 156 040         	acc  "An invalid size has been found for a heap variable."
    010225  aa  151 156 166 141
    010226  aa  154 151 144 040
    010227  aa  163 151 172 145
    010230  aa  040 150 141 163
    010231  aa  040 142 145 145
    010232  aa  156 040 146 157
    010233  aa  165 156 144 040
    010234  aa  146 157 162 040
    010235  aa  141 040 150 145
    010236  aa  141 160 040 166
    010237  aa  141 162 151 141
    010240  aa  142 154 145 056

                                   745  ec  invalid_label_format,invlbfmt,
                                   746  	(File set contains invalid labels.)
                        000416          	segdef  invalid_label_format
    000416  a0   077777 010243
    010241  aa  151 156 166 154         	aci  "invlbfmt",8
    010242  aa  142 146 155 164
    010243  aa  041 106 151 154         	acc  "File set contains invalid labels."
    010244  aa  145 040 163 145
    010245  aa  164 040 143 157
    010246  aa  156 164 141 151
    010247  aa  156 163 040 151
    010250  aa  156 166 141 154
    010251  aa  151 144 040 154
    010252  aa  141 142 145 154
    010253  aa  163 056 000 000

                                   747  ec  invalid_line_type,invlntyp,
                                   748  	(Line type number exceeds maximum permitted value.)
                        000417          	segdef  invalid_line_type
    000417  a0   077777 010256
    010254  aa  151 156 166 154         	aci  "invlntyp",8
    010255  aa  156 164 171 160
    010256  aa  061 114 151 156         	acc  "Line type number exceeds maximum permitted value."
    010257  aa  145 040 164 171
    010260  aa  160 145 040 156
    010261  aa  165 155 142 145
    010262  aa  162 040 145 170
    010263  aa  143 145 145 144
    010264  aa  163 040 155 141
    010265  aa  170 151 155 165
    010266  aa  155 040 160 145
    010267  aa  162 155 151 164
    010270  aa  164 145 144 040
    010271  aa  166 141 154 165
    010272  aa  145 056 000 000

                                   749  ec  invalid_lock_reset,invalock,
                                   750  	(The lock was locked by a process that no longer exists.  Therefore the lock was reset.)
                        000420          	segdef  invalid_lock_reset
    000420  a0   077777 010275
    010273  aa  151 156 166 141         	aci  "invalock",8
    010274  aa  154 157 143 153
    010275  aa  126 124 150 145         	acc  "The lock was locked by a process that no longer exists.  Therefore the lock was reset."
    010276  aa  040 154 157 143
    010277  aa  153 040 167 141
    010300  aa  163 040 154 157
    010301  aa  143 153 145 144
    010302  aa  040 142 171 040
    010303  aa  141 040 160 162
    010304  aa  157 143 145 163
    010305  aa  163 040 164 150
    010306  aa  141 164 040 156
    010307  aa  157 040 154 157
    010310  aa  156 147 145 162
    010311  aa  040 145 170 151
    010312  aa  163 164 163 056
    010313  aa  040 040 124 150
    010314  aa  145 162 145 146
    010315  aa  157 162 145 040
    010316  aa  164 150 145 040
    010317  aa  154 157 143 153
    010320  aa  040 167 141 163
    010321  aa  040 162 145 163
    010322  aa  145 164 056 000

                                   751  ec  invalid_max_length,ml<cl,
                                   752  	(Attempt to set max length of a segment less than its current length.)
                        000421          	segdef  invalid_max_length
    000421  a0   077777 010325
    010323  aa  155 154 074 143         	aci  "ml<cl",8
    010324  aa  154 040 040 040
    010325  aa  104 101 164 164         	acc  "Attempt to set max length of a segment less than its current length."
    010326  aa  145 155 160 164
    010327  aa  040 164 157 040
    010330  aa  163 145 164 040
    010331  aa  155 141 170 040
    010332  aa  154 145 156 147
    010333  aa  164 150 040 157
    010334  aa  146 040 141 040
    010335  aa  163 145 147 155
    010336  aa  145 156 164 040
    010337  aa  154 145 163 163
    010340  aa  040 164 150 141
    010341  aa  156 040 151 164
    010342  aa  163 040 143 165
    010343  aa  162 162 145 156
    010344  aa  164 040 154 145
    010345  aa  156 147 164 150
    010346  aa  056 000 000 000

                                   753  ec  invalid_mode,invmode,
                                   754  	(Invalid mode specified for ACL.)
                        000422          	segdef  invalid_mode
    000422  a0   077777 010351
    010347  aa  151 156 166 155         	aci  "invmode",8
    010350  aa  157 144 145 040
    010351  aa  037 111 156 166         	acc  "Invalid mode specified for ACL."
    010352  aa  141 154 151 144
    010353  aa  040 155 157 144
    010354  aa  145 040 163 160
    010355  aa  145 143 151 146
    010356  aa  151 145 144 040
    010357  aa  146 157 162 040
    010360  aa  101 103 114 056

                                   755  ec  invalid_move_qmax,nomvqmax,
                                   756            (Attempt to move more than maximum amount of quota.)
                        000423          	segdef  invalid_move_qmax
    000423  a0   077777 010363
    010361  aa  156 157 155 166         	aci  "nomvqmax",8
    010362  aa  161 155 141 170
    010363  aa  062 101 164 164         	acc  "Attempt to move more than maximum amount of quota."
    010364  aa  145 155 160 164
    010365  aa  040 164 157 040
    010366  aa  155 157 166 145
    010367  aa  040 155 157 162
    010370  aa  145 040 164 150
    010371  aa  141 156 040 155
    010372  aa  141 170 151 155
    010373  aa  165 155 040 141
    010374  aa  155 157 165 156
    010375  aa  164 040 157 146
    010376  aa  040 161 165 157
    010377  aa  164 141 056 000

                                   757  ec  invalid_move_quota,nomvquot,
                                   758  	(Invalid move of quota would change terminal quota to non terminal.)
                        000424          	segdef  invalid_move_quota
    000424  a0   077777 010402
    010400  aa  156 157 155 166         	aci  "nomvquot",8
    010401  aa  161 165 157 164
    010402  aa  102 111 156 166         	acc  "Invalid move of quota would change terminal quota to non terminal."
    010403  aa  141 154 151 144
    010404  aa  040 155 157 166
    010405  aa  145 040 157 146
    010406  aa  040 161 165 157
    010407  aa  164 141 040 167
    010410  aa  157 165 154 144
    010411  aa  040 143 150 141
    010412  aa  156 147 145 040
    010413  aa  164 145 162 155
    010414  aa  151 156 141 154
    010415  aa  040 161 165 157
    010416  aa  164 141 040 164
    010417  aa  157 040 156 157
    010420  aa  156 040 164 145
    010421  aa  162 155 151 156
    010422  aa  141 154 056 000

                                   759  ec  invalid_mpx_type,invmpx,
                                   760  	(Invalid multiplexer type specified.)
                        000425          	segdef  invalid_mpx_type
    000425  a0   077777 010425
    010423  aa  151 156 166 155         	aci  "invmpx",8
    010424  aa  160 170 040 040
    010425  aa  043 111 156 166         	acc  "Invalid multiplexer type specified."
    010426  aa  141 154 151 144
    010427  aa  040 155 165 154
    010430  aa  164 151 160 154
    010431  aa  145 170 145 162
    010432  aa  040 164 171 160
    010433  aa  145 040 163 160
    010434  aa  145 143 151 146
    010435  aa  151 145 144 056

                                   761  ec  invalid_preaccess_command,inprecom,
                                   762  	(Undefined preaccess command.)
                        000426          	segdef  invalid_preaccess_command
    000426  a0   077777 010440
    010436  aa  151 156 160 162         	aci  "inprecom",8
    010437  aa  145 143 157 155
    010440  aa  034 125 156 144         	acc  "Undefined preaccess command."
    010441  aa  145 146 151 156
    010442  aa  145 144 040 160
    010443  aa  162 145 141 143
    010444  aa  143 145 163 163
    010445  aa  040 143 157 155
    010446  aa  155 141 156 144
    010447  aa  056 000 000 000

                                   763  ec  invalid_project_for_gate,invprjgt,
                                   764  	(Invalid project for gate access control list.)
                        000427          	segdef  invalid_project_for_gate
    000427  a0   077777 010452
    010450  aa  151 156 166 160         	aci  "invprjgt",8
    010451  aa  162 152 147 164
    010452  aa  055 111 156 166         	acc  "Invalid project for gate access control list."
    010453  aa  141 154 151 144
    010454  aa  040 160 162 157
    010455  aa  152 145 143 164
    010456  aa  040 146 157 162
    010457  aa  040 147 141 164
    010460  aa  145 040 141 143
    010461  aa  143 145 163 163
    010462  aa  040 143 157 156
    010463  aa  164 162 157 154
    010464  aa  040 154 151 163
    010465  aa  164 056 000 000

                                   765  ec  invalid_ptr_target,invprtar,
                                   766  	(Unable to initialize a pointer used as the initial value of an external variable.)
                        000430          	segdef  invalid_ptr_target
    000430  a0   077777 010470
    010466  aa  151 156 166 160         	aci  "invprtar",8
    010467  aa  162 164 141 162
    010470  aa  121 125 156 141         	acc  "Unable to initialize a pointer used as the initial value of an external variable."
    010471  aa  142 154 145 040
    010472  aa  164 157 040 151
    010473  aa  156 151 164 151
    010474  aa  141 154 151 172
    010475  aa  145 040 141 040
    010476  aa  160 157 151 156
    010477  aa  164 145 162 040
    010500  aa  165 163 145 144
    010501  aa  040 141 163 040
    010502  aa  164 150 145 040
    010503  aa  151 156 151 164
    010504  aa  151 141 154 040
    010505  aa  166 141 154 165
    010506  aa  145 040 157 146
    010507  aa  040 141 156 040
    010510  aa  145 170 164 145
    010511  aa  162 156 141 154
    010512  aa  040 166 141 162
    010513  aa  151 141 142 154
    010514  aa  145 056 000 000

                                   767  ec  invalid_pvtx,invpvtx,
                                   768  	(Invalid Physical Volume Table Entry index specified.)
                        000431          	segdef  invalid_pvtx
    000431  a0   077777 010517
    010515  aa  151 156 166 160         	aci  "invpvtx",8
    010516  aa  166 164 170 040
    010517  aa  064 111 156 166         	acc  "Invalid Physical Volume Table Entry index specified."
    010520  aa  141 154 151 144
    010521  aa  040 120 150 171
    010522  aa  163 151 143 141
    010523  aa  154 040 126 157
    010524  aa  154 165 155 145
    010525  aa  040 124 141 142
    010526  aa  154 145 040 105
    010527  aa  156 164 162 171
    010530  aa  040 151 156 144
    010531  aa  145 170 040 163
    010532  aa  160 145 143 151
    010533  aa  146 151 145 144
    010534  aa  056 000 000 000

                                   769  ec  invalid_read,invread,
                                   770  	(Attempt to read or move read pointer on device which was not attached as readable.)
                        000432          	segdef  invalid_read
    000432  a0   077777 010537
    010535  aa  151 156 166 162         	aci  "invread",8
    010536  aa  145 141 144 040
    010537  aa  122 101 164 164         	acc  "Attempt to read or move read pointer on device which was not attached as readable."
    010540  aa  145 155 160 164
    010541  aa  040 164 157 040
    010542  aa  162 145 141 144
    010543  aa  040 157 162 040
    010544  aa  155 157 166 145
    010545  aa  040 162 145 141
    010546  aa  144 040 160 157
    010547  aa  151 156 164 145
    010550  aa  162 040 157 156
    010551  aa  040 144 145 166
    010552  aa  151 143 145 040
    010553  aa  167 150 151 143
    010554  aa  150 040 167 141
    010555  aa  163 040 156 157
    010556  aa  164 040 141 164
    010557  aa  164 141 143 150
    010560  aa  145 144 040 141
    010561  aa  163 040 162 145
    010562  aa  141 144 141 142
    010563  aa  154 145 056 000

                                   771  ec  invalid_record_desc,invrdes,
                                   772  	(Invalid variable-length record descriptor.)
                        000433          	segdef  invalid_record_desc
    000433  a0   077777 010566
    010564  aa  151 156 166 162         	aci  "invrdes",8
    010565  aa  144 145 163 040
    010566  aa  052 111 156 166         	acc  "Invalid variable-length record descriptor."
    010567  aa  141 154 151 144
    010570  aa  040 166 141 162
    010571  aa  151 141 142 154
    010572  aa  145 055 154 145
    010573  aa  156 147 164 150
    010574  aa  040 162 145 143
    010575  aa  157 162 144 040
    010576  aa  144 145 163 143
    010577  aa  162 151 160 164
    010600  aa  157 162 056 000

                                   773  ec  invalid_record_length,invrec,
                                   774  	(Invalid logical record length.)
                        000434          	segdef  invalid_record_length
    000434  a0   077777 010603
    010601  aa  151 156 166 162         	aci  "invrec",8
    010602  aa  145 143 040 040
    010603  aa  036 111 156 166         	acc  "Invalid logical record length."
    010604  aa  141 154 151 144
    010605  aa  040 154 157 147
    010606  aa  151 143 141 154
    010607  aa  040 162 145 143
    010610  aa  157 162 144 040
    010611  aa  154 145 156 147
    010612  aa  164 150 056 000

                                   775  ec  invalid_resource_state,invrscst,
                                   776  	(The request is inconsistent with the current state of the resource(s).)
                        000435          	segdef  invalid_resource_state
    000435  a0   077777 010615
    010613  aa  151 156 166 162         	aci  "invrscst",8
    010614  aa  163 143 163 164
    010615  aa  106 124 150 145         	acc  "The request is inconsistent with the current state of the resource(s)."
    010616  aa  040 162 145 161
    010617  aa  165 145 163 164
    010620  aa  040 151 163 040
    010621  aa  151 156 143 157
    010622  aa  156 163 151 163
    010623  aa  164 145 156 164
    010624  aa  040 167 151 164
    010625  aa  150 040 164 150
    010626  aa  145 040 143 165
    010627  aa  162 162 145 156
    010630  aa  164 040 163 164
    010631  aa  141 164 145 040
    010632  aa  157 146 040 164
    010633  aa  150 145 040 162
    010634  aa  145 163 157 165
    010635  aa  162 143 145 050
    010636  aa  163 051 056 000

                                   777  ec  invalid_ring_brackets,badringb,
                                   778  	(The ring brackets specified are invalid.)
                        000436          	segdef  invalid_ring_brackets
    000436  a0   077777 010641
    010637  aa  142 141 144 162         	aci  "badringb",8
    010640  aa  151 156 147 142
    010641  aa  050 124 150 145         	acc  "The ring brackets specified are invalid."
    010642  aa  040 162 151 156
    010643  aa  147 040 142 162
    010644  aa  141 143 153 145
    010645  aa  164 163 040 163
    010646  aa  160 145 143 151
    010647  aa  146 151 145 144
    010650  aa  040 141 162 145
    010651  aa  040 151 156 166
    010652  aa  141 154 151 144
    010653  aa  056 000 000 000

                                   779  ec  invalid_seek_last_bound,invseek,
                                   780  	(Attempt to manipulate last or bound pointers for device that was not attached as writeable.)
                        000437          	segdef  invalid_seek_last_bound
    000437  a0   077777 010656
    010654  aa  151 156 166 163         	aci  "invseek",8
    010655  aa  145 145 153 040
    010656  aa  133 101 164 164         	acc  "Attempt to manipulate last or bound pointers for device that was not attached as writeable."
    010657  aa  145 155 160 164
    010660  aa  040 164 157 040
    010661  aa  155 141 156 151
    010662  aa  160 165 154 141
    010663  aa  164 145 040 154
    010664  aa  141 163 164 040
    010665  aa  157 162 040 142
    010666  aa  157 165 156 144
    010667  aa  040 160 157 151
    010670  aa  156 164 145 162
    010671  aa  163 040 146 157
    010672  aa  162 040 144 145
    010673  aa  166 151 143 145
    010674  aa  040 164 150 141
    010675  aa  164 040 167 141
    010676  aa  163 040 156 157
    010677  aa  164 040 141 164
    010700  aa  164 141 143 150
    010701  aa  145 144 040 141
    010702  aa  163 040 167 162
    010703  aa  151 164 145 141
    010704  aa  142 154 145 056

                                   781  ec  invalid_setdelim,invsetdl,
                                   782  	(Attempt to set delimiters for device while element size is too large to support search.)
                        000440          	segdef  invalid_setdelim
    000440  a0   077777 010707
    010705  aa  151 156 166 163         	aci  "invsetdl",8
    010706  aa  145 164 144 154
    010707  aa  127 101 164 164         	acc  "Attempt to set delimiters for device while element size is too large to support search."
    010710  aa  145 155 160 164
    010711  aa  040 164 157 040
    010712  aa  163 145 164 040
    010713  aa  144 145 154 151
    010714  aa  155 151 164 145
    010715  aa  162 163 040 146
    010716  aa  157 162 040 144
    010717  aa  145 166 151 143
    010720  aa  145 040 167 150
    010721  aa  151 154 145 040
    010722  aa  145 154 145 155
    010723  aa  145 156 164 040
    010724  aa  163 151 172 145
    010725  aa  040 151 163 040
    010726  aa  164 157 157 040
    010727  aa  154 141 162 147
    010730  aa  145 040 164 157
    010731  aa  040 163 165 160
    010732  aa  160 157 162 164
    010733  aa  040 163 145 141
    010734  aa  162 143 150 056

                                   783  ec  invalid_stack_creation,badstkcr,
                                   784  	(Attempt to create a stack which exists or which is known to process.)
                        000441          	segdef  invalid_stack_creation
    000441  a0   077777 010737
    010735  aa  142 141 144 163         	aci  "badstkcr",8
    010736  aa  164 153 143 162
    010737  aa  104 101 164 164         	acc  "Attempt to create a stack which exists or which is known to process."
    010740  aa  145 155 160 164
    010741  aa  040 164 157 040
    010742  aa  143 162 145 141
    010743  aa  164 145 040 141
    010744  aa  040 163 164 141
    010745  aa  143 153 040 167
    010746  aa  150 151 143 150
    010747  aa  040 145 170 151
    010750  aa  163 164 163 040
    010751  aa  157 162 040 167
    010752  aa  150 151 143 150
    010753  aa  040 151 163 040
    010754  aa  153 156 157 167
    010755  aa  156 040 164 157
    010756  aa  040 160 162 157
    010757  aa  143 145 163 163
    010760  aa  056 000 000 000

                                   785  ec  invalid_state,invalst,
                                   786  	(Request is inconsistent with current state of device.)
                        000442          	segdef  invalid_state
    000442  a0   077777 010763
    010761  aa  151 156 166 141         	aci  "invalst",8
    010762  aa  154 163 164 040
    010763  aa  065 122 145 161         	acc  "Request is inconsistent with current state of device."
    010764  aa  165 145 163 164
    010765  aa  040 151 163 040
    010766  aa  151 156 143 157
    010767  aa  156 163 151 163
    010770  aa  164 145 156 164
    010771  aa  040 167 151 164
    010772  aa  150 040 143 165
    010773  aa  162 162 145 156
    010774  aa  164 040 163 164
    010775  aa  141 164 145 040
    010776  aa  157 146 040 144
    010777  aa  145 166 151 143
    011000  aa  145 056 000 000

                                   787  ec  invalid_subsystem,invsbsys,
                                   788  	(The specified subsystem either does not exist or is inconsistent.)
                        000443          	segdef  invalid_subsystem
    000443  a0   077777 011003
    011001  aa  151 156 166 163         	aci  "invsbsys",8
    011002  aa  142 163 171 163
    011003  aa  101 124 150 145         	acc  "The specified subsystem either does not exist or is inconsistent."
    011004  aa  040 163 160 145
    011005  aa  143 151 146 151
    011006  aa  145 144 040 163
    011007  aa  165 142 163 171
    011010  aa  163 164 145 155
    011011  aa  040 145 151 164
    011012  aa  150 145 162 040
    011013  aa  144 157 145 163
    011014  aa  040 156 157 164
    011015  aa  040 145 170 151
    011016  aa  163 164 040 157
    011017  aa  162 040 151 163
    011020  aa  040 151 156 143
    011021  aa  157 156 163 151
    011022  aa  163 164 145 156
    011023  aa  164 056 000 000

                                   789  ec  invalid_system_type,badsystp,
                                   790  	(The specified system type does not exist.)
                        000444          	segdef  invalid_system_type
    000444  a0   077777 011026
    011024  aa  142 141 144 163         	aci  "badsystp",8
    011025  aa  171 163 164 160
    011026  aa  051 124 150 145         	acc  "The specified system type does not exist."
    011027  aa  040 163 160 145
    011030  aa  143 151 146 151
    011031  aa  145 144 040 163
    011032  aa  171 163 164 145
    011033  aa  155 040 164 171
    011034  aa  160 145 040 144
    011035  aa  157 145 163 040
    011036  aa  156 157 164 040
    011037  aa  145 170 151 163
    011040  aa  164 056 000 000

                                   791  ec  invalid_tape_record_length,badtaprl,
                                   792  	(The record length is not an integral number of words.)
                        000445          	segdef  invalid_tape_record_length
    000445  a0   077777 011043
    011041  aa  142 141 144 164         	aci  "badtaprl",8
    011042  aa  141 160 162 154
    011043  aa  065 124 150 145         	acc  "The record length is not an integral number of words."
    011044  aa  040 162 145 143
    011045  aa  157 162 144 040
    011046  aa  154 145 156 147
    011047  aa  164 150 040 151
    011050  aa  163 040 156 157
    011051  aa  164 040 141 156
    011052  aa  040 151 156 164
    011053  aa  145 147 162 141
    011054  aa  154 040 156 165
    011055  aa  155 142 145 162
    011056  aa  040 157 146 040
    011057  aa  167 157 162 144
    011060  aa  163 056 000 000

                                   793  ec  invalid_tp_value,badtpval,
                                   794  	(The supplied value is not acceptable for this tuning parameter.)
                        000446          	segdef  invalid_tp_value
    000446  a0   077777 011063
    011061  aa  142 141 144 164         	aci  "badtpval",8
    011062  aa  160 166 141 154
    011063  aa  077 124 150 145         	acc  "The supplied value is not acceptable for this tuning parameter."
    011064  aa  040 163 165 160
    011065  aa  160 154 151 145
    011066  aa  144 040 166 141
    011067  aa  154 165 145 040
    011070  aa  151 163 040 156
    011071  aa  157 164 040 141
    011072  aa  143 143 145 160
    011073  aa  164 141 142 154
    011074  aa  145 040 146 157
    011075  aa  162 040 164 150
    011076  aa  151 163 040 164
    011077  aa  165 156 151 156
    011100  aa  147 040 160 141
    011101  aa  162 141 155 145
    011102  aa  164 145 162 056

                                   795  ec  invalid_volume_sequence,involseg,
                                   796  	(Specified volumes do not comprise a valid volume set.)
                        000447          	segdef  invalid_volume_sequence
    000447  a0   077777 011105
    011103  aa  151 156 166 157         	aci  "involseg",8
    011104  aa  154 163 145 147
    011105  aa  065 123 160 145         	acc  "Specified volumes do not comprise a valid volume set."
    011106  aa  143 151 146 151
    011107  aa  145 144 040 166
    011110  aa  157 154 165 155
    011111  aa  145 163 040 144
    011112  aa  157 040 156 157
    011113  aa  164 040 143 157
    011114  aa  155 160 162 151
    011115  aa  163 145 040 141
    011116  aa  040 166 141 154
    011117  aa  151 144 040 166
    011120  aa  157 154 165 155
    011121  aa  145 040 163 145
    011122  aa  164 056 000 000

                                   797  ec  invalid_vtoce,invvtoce,
                                   798  	(There was an attempt to use a VTOCE with invalid fields.)
                        000450          	segdef  invalid_vtoce
    000450  a0   077777 011125
    011123  aa  151 156 166 166         	aci  "invvtoce",8
    011124  aa  164 157 143 145
    011125  aa  070 124 150 145         	acc  "There was an attempt to use a VTOCE with invalid fields."
    011126  aa  162 145 040 167
    011127  aa  141 163 040 141
    011130  aa  156 040 141 164
    011131  aa  164 145 155 160
    011132  aa  164 040 164 157
    011133  aa  040 165 163 145
    011134  aa  040 141 040 126
    011135  aa  124 117 103 105
    011136  aa  040 167 151 164
    011137  aa  150 040 151 156
    011140  aa  166 141 154 151
    011141  aa  144 040 146 151
    011142  aa  145 154 144 163
    011143  aa  056 000 000 000

                                   799  ec  invalid_vtocx,invvtocx,
                                   800  	(The VTOCE index specified is not within the range of valid indices for the device.)
                        000451          	segdef  invalid_vtocx
    000451  a0   077777 011146
    011144  aa  151 156 166 166         	aci  "invvtocx",8
    011145  aa  164 157 143 170
    011146  aa  122 124 150 145         	acc  "The VTOCE index specified is not within the range of valid indices for the device."
    011147  aa  040 126 124 117
    011150  aa  103 105 040 151
    011151  aa  156 144 145 170
    011152  aa  040 163 160 145
    011153  aa  143 151 146 151
    011154  aa  145 144 040 151
    011155  aa  163 040 156 157
    011156  aa  164 040 167 151
    011157  aa  164 150 151 156
    011160  aa  040 164 150 145
    011161  aa  040 162 141 156
    011162  aa  147 145 040 157
    011163  aa  146 040 166 141
    011164  aa  154 151 144 040
    011165  aa  151 156 144 151
    011166  aa  143 145 163 040
    011167  aa  146 157 162 040
    011170  aa  164 150 145 040
    011171  aa  144 145 166 151
    011172  aa  143 145 056 000

                                   801  ec  invalid_write,invwrite,
                                   802  	(Attempt to write or move write pointer on device which was not attached as writeable.)
                        000452          	segdef  invalid_write
    000452  a0   077777 011175
    011173  aa  151 156 166 167         	aci  "invwrite",8
    011174  aa  162 151 164 145
    011175  aa  125 101 164 164         	acc  "Attempt to write or move write pointer on device which was not attached as writeable."
    011176  aa  145 155 160 164
    011177  aa  040 164 157 040
    011200  aa  167 162 151 164
    011201  aa  145 040 157 162
    011202  aa  040 155 157 166
    011203  aa  145 040 167 162
    011204  aa  151 164 145 040
    011205  aa  160 157 151 156
    011206  aa  164 145 162 040
    011207  aa  157 156 040 144
    011210  aa  145 166 151 143
    011211  aa  145 040 167 150
    011212  aa  151 143 150 040
    011213  aa  167 141 163 040
    011214  aa  156 157 164 040
    011215  aa  141 164 164 141
    011216  aa  143 150 145 144
    011217  aa  040 141 163 040
    011220  aa  167 162 151 164
    011221  aa  145 141 142 154
    011222  aa  145 056 000 000

                                   803  ec  invalidsegno,badsegno,
                                   804  	(There was an attempt to use an invalid segment number.)
                        000453          	segdef  invalidsegno
    000453  a0   077777 011225
    011223  aa  142 141 144 163         	aci  "badsegno",8
    011224  aa  145 147 156 157
    011225  aa  066 124 150 145         	acc  "There was an attempt to use an invalid segment number."
    011226  aa  162 145 040 167
    011227  aa  141 163 040 141
    011230  aa  156 040 141 164
    011231  aa  164 145 155 160
    011232  aa  164 040 164 157
    011233  aa  040 165 163 145
    011234  aa  040 141 156 040
    011235  aa  151 156 166 141
    011236  aa  154 151 144 040
    011237  aa  163 145 147 155
    011240  aa  145 156 164 040
    011241  aa  156 165 155 142
    011242  aa  145 162 056 000

                                   805  ec  io_assigned,ioassgn,
                                   806  	(Specified IO resource already assigned.)
                        000454          	segdef  io_assigned
    000454  a0   077777 011245
    011243  aa  151 157 141 163         	aci  "ioassgn",8
    011244  aa  163 147 156 040
    011245  aa  047 123 160 145         	acc  "Specified IO resource already assigned."
    011246  aa  143 151 146 151
    011247  aa  145 144 040 111
    011250  aa  117 040 162 145
    011251  aa  163 157 165 162
    011252  aa  143 145 040 141
    011253  aa  154 162 145 141
    011254  aa  144 171 040 141
    011255  aa  163 163 151 147
    011256  aa  156 145 144 056

                                   807  ec  io_configured,ioconf,
                                   808            (Specified IO resource already configured.)
                        000455          	segdef  io_configured
    000455  a0   077777 011261
    011257  aa  151 157 143 157         	aci  "ioconf",8
    011260  aa  156 146 040 040
    011261  aa  051 123 160 145         	acc  "Specified IO resource already configured."
    011262  aa  143 151 146 151
    011263  aa  145 144 040 111
    011264  aa  117 040 162 145
    011265  aa  163 157 165 162
    011266  aa  143 145 040 141
    011267  aa  154 162 145 141
    011270  aa  144 171 040 143
    011271  aa  157 156 146 151
    011272  aa  147 165 162 145
    011273  aa  144 056 000 000

                                   809  ec  io_no_path,ionopath,
                                   810  	(There is no available path to the specified IO resource.)
                        000456          	segdef  io_no_path
    000456  a0   077777 011276
    011274  aa  151 157 156 157         	aci  "ionopath",8
    011275  aa  160 141 164 150
    011276  aa  070 124 150 145         	acc  "There is no available path to the specified IO resource."
    011277  aa  162 145 040 151
    011300  aa  163 040 156 157
    011301  aa  040 141 166 141
    011302  aa  151 154 141 142
    011303  aa  154 145 040 160
    011304  aa  141 164 150 040
    011305  aa  164 157 040 164
    011306  aa  150 145 040 163
    011307  aa  160 145 143 151
    011310  aa  146 151 145 144
    011311  aa  040 111 117 040
    011312  aa  162 145 163 157
    011313  aa  165 162 143 145
    011314  aa  056 000 000 000

                                   811  ec  io_no_permission,nopermit,
                                   812  	(Process lacks permission to alter device status.)
                        000457          	segdef  io_no_permission
    000457  a0   077777 011317
    011315  aa  156 157 160 145         	aci  "nopermit",8
    011316  aa  162 155 151 164
    011317  aa  060 120 162 157         	acc  "Process lacks permission to alter device status."
    011320  aa  143 145 163 163
    011321  aa  040 154 141 143
    011322  aa  153 163 040 160
    011323  aa  145 162 155 151
    011324  aa  163 163 151 157
    011325  aa  156 040 164 157
    011326  aa  040 141 154 164
    011327  aa  145 162 040 144
    011330  aa  145 166 151 143
    011331  aa  145 040 163 164
    011332  aa  141 164 165 163
    011333  aa  056 000 000 000

                                   813  ec  io_not_assigned,io^assgn,
                                   814  	(Specified IO resource not assigned.)
                        000460          	segdef  io_not_assigned
    000460  a0   077777 011336
    011334  aa  151 157 136 141         	aci  "io^assgn",8
    011335  aa  163 163 147 156
    011336  aa  043 123 160 145         	acc  "Specified IO resource not assigned."
    011337  aa  143 151 146 151
    011340  aa  145 144 040 111
    011341  aa  117 040 162 145
    011342  aa  163 157 165 162
    011343  aa  143 145 040 156
    011344  aa  157 164 040 141
    011345  aa  163 163 151 147
    011346  aa  156 145 144 056

                                   815  ec  io_not_available,io^avail,
                                   816  	(Specified IO resource is is use by another process.)
                        000461          	segdef  io_not_available
    000461  a0   077777 011351
    011347  aa  151 157 136 141         	aci  "io^avail",8
    011350  aa  166 141 151 154
    011351  aa  063 123 160 145         	acc  "Specified IO resource is is use by another process."
    011352  aa  143 151 146 151
    011353  aa  145 144 040 111
    011354  aa  117 040 162 145
    011355  aa  163 157 165 162
    011356  aa  143 145 040 151
    011357  aa  163 040 151 163
    011360  aa  040 165 163 145
    011361  aa  040 142 171 040
    011362  aa  141 156 157 164
    011363  aa  150 145 162 040
    011364  aa  160 162 157 143
    011365  aa  145 163 163 056

                                   817  ec  io_not_configured,io^conf,
                                   818            (Specified IO resource not configured.)
                        000462          	segdef  io_not_configured
    000462  a0   077777 011370
    011366  aa  151 157 136 143         	aci  "io^conf",8
    011367  aa  157 156 146 040
    011370  aa  045 123 160 145         	acc  "Specified IO resource not configured."
    011371  aa  143 151 146 151
    011372  aa  145 144 040 111
    011373  aa  117 040 162 145
    011374  aa  163 157 165 162
    011375  aa  143 145 040 156
    011376  aa  157 164 040 143
    011377  aa  157 156 146 151
    011400  aa  147 165 162 145
    011401  aa  144 056 000 000

                                   819  ec  io_not_defined,io^def,
                                   820  	(Specified IO resource not defined in configuration.)
                        000463          	segdef  io_not_defined
    000463  a0   077777 011404
    011402  aa  151 157 136 144         	aci  "io^def",8
    011403  aa  145 146 040 040
    011404  aa  063 123 160 145         	acc  "Specified IO resource not defined in configuration."
    011405  aa  143 151 146 151
    011406  aa  145 144 040 111
    011407  aa  117 040 162 145
    011410  aa  163 157 165 162
    011411  aa  143 145 040 156
    011412  aa  157 164 040 144
    011413  aa  145 146 151 156
    011414  aa  145 144 040 151
    011415  aa  156 040 143 157
    011416  aa  156 146 151 147
    011417  aa  165 162 141 164
    011420  aa  151 157 156 056

                                   821  ec  io_still_assnd,stilasnd,
                                   822  	(IO device failed to become unassigned.)
                        000464          	segdef  io_still_assnd
    000464  a0   077777 011423
    011421  aa  163 164 151 154         	aci  "stilasnd",8
    011422  aa  141 163 156 144
    011423  aa  046 111 117 040         	acc  "IO device failed to become unassigned."
    011424  aa  144 145 166 151
    011425  aa  143 145 040 146
    011426  aa  141 151 154 145
    011427  aa  144 040 164 157
    011430  aa  040 142 145 143
    011431  aa  157 155 145 040
    011432  aa  165 156 141 163
    011433  aa  163 151 147 156
    011434  aa  145 144 056 000

                                   823  ec  ioat_err,ioaterr,
                                   824  	(Error in internal ioat information.)
                        000465          	segdef  ioat_err
    000465  a0   077777 011437
    011435  aa  151 157 141 164         	aci  "ioaterr",8
    011436  aa  145 162 162 040
    011437  aa  043 105 162 162         	acc  "Error in internal ioat information."
    011440  aa  157 162 040 151
    011441  aa  156 040 151 156
    011442  aa  164 145 162 156
    011443  aa  141 154 040 151
    011444  aa  157 141 164 040
    011445  aa  151 156 146 157
    011446  aa  162 155 141 164
    011447  aa  151 157 156 056

                                   825  ec  iom_already_added,iomaadd,
                                   826  	(IOM is already active.)
                        000466          	segdef  iom_already_added
    000466  a0   077777 011452
    011450  aa  151 157 155 141         	aci  "iomaadd",8
    011451  aa  141 144 144 040
    011452  aa  026 111 117 115         	acc  "IOM is already active."
    011453  aa  040 151 163 040
    011454  aa  141 154 162 145
    011455  aa  141 144 171 040
    011456  aa  141 143 164 151
    011457  aa  166 145 056 000

                                   827  ec  iom_already_deleted,iomadel,
                                   828  	(IOM is already deleted.)
                        000467          	segdef  iom_already_deleted
    000467  a0   077777 011462
    011460  aa  151 157 155 141         	aci  "iomadel",8
    011461  aa  144 145 154 040
    011462  aa  027 111 117 115         	acc  "IOM is already deleted."
    011463  aa  040 151 163 040
    011464  aa  141 154 162 145
    011465  aa  141 144 171 040
    011466  aa  144 145 154 145
    011467  aa  164 145 144 056

                                   829  ec  iom_connect_fatal,iomfatal,
                                   830  	(A connect to an IOM has left main memory in an unusable state.)
                        000470          	segdef  iom_connect_fatal
    000470  a0   077777 011472
    011470  aa  151 157 155 146         	aci  "iomfatal",8
    011471  aa  141 164 141 154
    011472  aa  076 101 040 143         	acc  "A connect to an IOM has left main memory in an unusable state."
    011473  aa  157 156 156 145
    011474  aa  143 164 040 164
    011475  aa  157 040 141 156
    011476  aa  040 111 117 115
    011477  aa  040 150 141 163
    011500  aa  040 154 145 146
    011501  aa  164 040 155 141
    011502  aa  151 156 040 155
    011503  aa  145 155 157 162
    011504  aa  171 040 151 156
    011505  aa  040 141 156 040
    011506  aa  165 156 165 163
    011507  aa  141 142 154 145
    011510  aa  040 163 164 141
    011511  aa  164 145 056 000

                                   831  ec  iom_wrong_mailbox,iombadmb,
                                   832  	(The IOM has its mailbox address switches set incorrectly.)
                        000471          	segdef  iom_wrong_mailbox
    000471  a0   077777 011514
    011512  aa  151 157 155 142         	aci  "iombadmb",8
    011513  aa  141 144 155 142
    011514  aa  071 124 150 145         	acc  "The IOM has its mailbox address switches set incorrectly."
    011515  aa  040 111 117 115
    011516  aa  040 150 141 163
    011517  aa  040 151 164 163
    011520  aa  040 155 141 151
    011521  aa  154 142 157 170
    011522  aa  040 141 144 144
    011523  aa  162 145 163 163
    011524  aa  040 163 167 151
    011525  aa  164 143 150 145
    011526  aa  163 040 163 145
    011527  aa  164 040 151 156
    011530  aa  143 157 162 162
    011531  aa  145 143 164 154
    011532  aa  171 056 000 000

                                   833  ec  iom_wrong_number,iombadnm,
                                   834  	(The IOM has its number set incorrectly.)
                        000472          	segdef  iom_wrong_number
    000472  a0   077777 011535
    011533  aa  151 157 155 142         	aci  "iombadnm",8
    011534  aa  141 144 156 155
    011535  aa  047 124 150 145         	acc  "The IOM has its number set incorrectly."
    011536  aa  040 111 117 115
    011537  aa  040 150 141 163
    011540  aa  040 151 164 163
    011541  aa  040 156 165 155
    011542  aa  142 145 162 040
    011543  aa  163 145 164 040
    011544  aa  151 156 143 157
    011545  aa  162 162 145 143
    011546  aa  164 154 171 056

                                   835  ec  ioname_not_active,ionmnact,
                                   836  	(Ioname not active.)
                        000473          	segdef  ioname_not_active
    000473  a0   077777 011551
    011547  aa  151 157 156 155         	aci  "ionmnact",8
    011550  aa  156 141 143 164
    011551  aa  022 111 157 156         	acc  "Ioname not active."
    011552  aa  141 155 145 040
    011553  aa  156 157 164 040
    011554  aa  141 143 164 151
    011555  aa  166 145 056 000

                                   837  ec  ioname_not_found,ionmnfnd,
                                   838  	(Ioname not found.)
                        000474          	segdef  ioname_not_found
    000474  a0   077777 011560
    011556  aa  151 157 156 155         	aci  "ionmnfnd",8
    011557  aa  156 146 156 144
    011560  aa  021 111 157 156         	acc  "Ioname not found."
    011561  aa  141 155 145 040
    011562  aa  156 157 164 040
    011563  aa  146 157 165 156
    011564  aa  144 056 000 000

                                   839  ec  ionmat,,
                                   840  	(Ioname already attached and active.)
                        000475          	segdef  ionmat
    000475  a0   077777 011567
    011565  aa  151 157 156 155         	aci  "ionmat",8
    011566  aa  141 164 040 040
    011567  aa  043 111 157 156         	acc  "Ioname already attached and active."
    011570  aa  141 155 145 040
    011571  aa  141 154 162 145
    011572  aa  141 144 171 040
    011573  aa  141 164 164 141
    011574  aa  143 150 145 144
    011575  aa  040 141 156 144
    011576  aa  040 141 143 164
    011577  aa  151 166 145 056

                                   841  ec  ips_has_occurred,ipsoccur,
                                   842  	(An interprocess signal has occurred.)
                        000476          	segdef  ips_has_occurred
    000476  a0   077777 011602
    011600  aa  151 160 163 157         	aci  "ipsoccur",8
    011601  aa  143 143 165 162
    011602  aa  044 101 156 040         	acc  "An interprocess signal has occurred."
    011603  aa  151 156 164 145
    011604  aa  162 160 162 157
    011605  aa  143 145 163 163
    011606  aa  040 163 151 147
    011607  aa  156 141 154 040
    011610  aa  150 141 163 040
    011611  aa  157 143 143 165
    011612  aa  162 162 145 144
    011613  aa  056 000 000 000

                                   843  ec  item_too_big,ittoobig,
                                   844  	(The item specified is over the legal size.)
                        000477          	segdef  item_too_big
    000477  a0   077777 011616
    011614  aa  151 164 164 157         	aci  "ittoobig",8
    011615  aa  157 142 151 147
    011616  aa  052 124 150 145         	acc  "The item specified is over the legal size."
    011617  aa  040 151 164 145
    011620  aa  155 040 163 160
    011621  aa  145 143 151 146
    011622  aa  151 145 144 040
    011623  aa  151 163 040 157
    011624  aa  166 145 162 040
    011625  aa  164 150 145 040
    011626  aa  154 145 147 141
    011627  aa  154 040 163 151
    011630  aa  172 145 056 000

                                   845  ec  itt_overflow,ittfull,
                                   846  	(Not enough room in ITT for wakeup.)
                        000500          	segdef  itt_overflow
    000500  a0   077777 011633
    011631  aa  151 164 164 146         	aci  "ittfull",8
    011632  aa  165 154 154 040
    011633  aa  042 116 157 164         	acc  "Not enough room in ITT for wakeup."
    011634  aa  040 145 156 157
    011635  aa  165 147 150 040
    011636  aa  162 157 157 155
    011637  aa  040 151 156 040
    011640  aa  111 124 124 040
    011641  aa  146 157 162 040
    011642  aa  167 141 153 145
    011643  aa  165 160 056 000

                                   847  ec  key_duplication,key_dup,
                                   848  	(There is already a record with the same key.)
                        000501          	segdef  key_duplication
    000501  a0   077777 011646
    011644  aa  153 145 171 137         	aci  "key_dup",8
    011645  aa  144 165 160 040
    011646  aa  054 124 150 145         	acc  "There is already a record with the same key."
    011647  aa  162 145 040 151
    011650  aa  163 040 141 154
    011651  aa  162 145 141 144
    011652  aa  171 040 141 040
    011653  aa  162 145 143 157
    011654  aa  162 144 040 167
    011655  aa  151 164 150 040
    011656  aa  164 150 145 040
    011657  aa  163 141 155 145
    011660  aa  040 153 145 171
    011661  aa  056 000 000 000

                                   849  ec  key_order,keyorder,
                                   850  	(Key out of order.)
                        000502          	segdef  key_order
    000502  a0   077777 011664
    011662  aa  153 145 171 157         	aci  "keyorder",8
    011663  aa  162 144 145 162
    011664  aa  021 113 145 171         	acc  "Key out of order."
    011665  aa  040 157 165 164
    011666  aa  040 157 146 040
    011667  aa  157 162 144 145
    011670  aa  162 056 000 000

                                   851  ec  known_in_other_rings,kothrngs,
                                   852  	(There was an attempt to terminate a segment which was known in other rings.)
                        000503          	segdef  known_in_other_rings
    000503  a0   077777 011673
    011671  aa  153 157 164 150         	aci  "kothrngs",8
    011672  aa  162 156 147 163
    011673  aa  113 124 150 145         	acc  "There was an attempt to terminate a segment which was known in other rings."
    011674  aa  162 145 040 167
    011675  aa  141 163 040 141
    011676  aa  156 040 141 164
    011677  aa  164 145 155 160
    011700  aa  164 040 164 157
    011701  aa  040 164 145 162
    011702  aa  155 151 156 141
    011703  aa  164 145 040 141
    011704  aa  040 163 145 147
    011705  aa  155 145 156 164
    011706  aa  040 167 150 151
    011707  aa  143 150 040 167
    011710  aa  141 163 040 153
    011711  aa  156 157 167 156
    011712  aa  040 151 156 040
    011713  aa  157 164 150 145
    011714  aa  162 040 162 151
    011715  aa  156 147 163 056

                                   853  ec  last_reference,last_ref,
                                   854  	(This operation would cause a reference count to vanish.)
                        000504          	segdef  last_reference
    000504  a0   077777 011720
    011716  aa  154 141 163 164         	aci  "last_ref",8
    011717  aa  137 162 145 146
    011720  aa  067 124 150 151         	acc  "This operation would cause a reference count to vanish."
    011721  aa  163 040 157 160
    011722  aa  145 162 141 164
    011723  aa  151 157 156 040
    011724  aa  167 157 165 154
    011725  aa  144 040 143 141
    011726  aa  165 163 145 040
    011727  aa  141 040 162 145
    011730  aa  146 145 162 145
    011731  aa  156 143 145 040
    011732  aa  143 157 165 156
    011733  aa  164 040 164 157
    011734  aa  040 166 141 156
    011735  aa  151 163 150 056

                                   855  ec  lesserr,,
                                   856  	(Too many ""<"" 's in pathname.)
                        000505          	segdef  lesserr
    000505  a0   077777 011740
    011736  aa  154 145 163 163         	aci  "lesserr",8
    011737  aa  145 162 162 040
    011740  aa  034 124 157 157         	acc  "Too many ""<"" 's in pathname."
    011741  aa  040 155 141 156
    011742  aa  171 040 042 074
    011743  aa  042 040 047 163
    011744  aa  040 151 156 040
    011745  aa  160 141 164 150
    011746  aa  156 141 155 145
    011747  aa  056 000 000 000

                                   857  ec  line_status_pending,lnstatp,
                                   858  	(Operation not performed because of outstanding line_status information.)
                        000506          	segdef  line_status_pending
    000506  a0   077777 011752
    011750  aa  154 156 163 164         	aci  "lnstatp",8
    011751  aa  141 164 160 040
    011752  aa  107 117 160 145         	acc  "Operation not performed because of outstanding line_status information."
    011753  aa  162 141 164 151
    011754  aa  157 156 040 156
    011755  aa  157 164 040 160
    011756  aa  145 162 146 157
    011757  aa  162 155 145 144
    011760  aa  040 142 145 143
    011761  aa  141 165 163 145
    011762  aa  040 157 146 040
    011763  aa  157 165 164 163
    011764  aa  164 141 156 144
    011765  aa  151 156 147 040
    011766  aa  154 151 156 145
    011767  aa  137 163 164 141
    011770  aa  164 165 163 040
    011771  aa  151 156 146 157
    011772  aa  162 155 141 164
    011773  aa  151 157 156 056

                                   859  ec  link,link,
                                   860  	(This operation is not allowed for a link entry.)
                        000507          	segdef  link
    000507  a0   077777 011776
    011774  aa  154 151 156 153         	aci  "link",8
    011775  aa  040 040 040 040
    011776  aa  057 124 150 151         	acc  "This operation is not allowed for a link entry."
    011777  aa  163 040 157 160
    012000  aa  145 162 141 164
    012001  aa  151 157 156 040
    012002  aa  151 163 040 156
    012003  aa  157 164 040 141
    012004  aa  154 154 157 167
    012005  aa  145 144 040 146
    012006  aa  157 162 040 141
    012007  aa  040 154 151 156
    012010  aa  153 040 145 156
    012011  aa  164 162 171 056

                                   861  ec  linkmoderr,linkmode,
                                   862  	(The execute access is needed to directory containing the link.)
                        000510          	segdef  linkmoderr
    000510  a0   077777 012014
    012012  aa  154 151 156 153         	aci  "linkmode",8
    012013  aa  155 157 144 145
    012014  aa  076 124 150 145         	acc  "The execute access is needed to directory containing the link."
    012015  aa  040 145 170 145
    012016  aa  143 165 164 145
    012017  aa  040 141 143 143
    012020  aa  145 163 163 040
    012021  aa  151 163 040 156
    012022  aa  145 145 144 145
    012023  aa  144 040 164 157
    012024  aa  040 144 151 162
    012025  aa  145 143 164 157
    012026  aa  162 171 040 143
    012027  aa  157 156 164 141
    012030  aa  151 156 151 156
    012031  aa  147 040 164 150
    012032  aa  145 040 154 151
    012033  aa  156 153 056 000

                                   863  ec  listen_stopped,lstnstop,
                                   864  	(The listen operation has been aborted by a stop_listen request.)
                        000511          	segdef  listen_stopped
    000511  a0   077777 012036
    012034  aa  154 163 164 156         	aci  "lstnstop",8
    012035  aa  163 164 157 160
    012036  aa  077 124 150 145         	acc  "The listen operation has been aborted by a stop_listen request."
    012037  aa  040 154 151 163
    012040  aa  164 145 156 040
    012041  aa  157 160 145 162
    012042  aa  141 164 151 157
    012043  aa  156 040 150 141
    012044  aa  163 040 142 145
    012045  aa  145 156 040 141
    012046  aa  142 157 162 164
    012047  aa  145 144 040 142
    012050  aa  171 040 141 040
    012051  aa  163 164 157 160
    012052  aa  137 154 151 163
    012053  aa  164 145 156 040
    012054  aa  162 145 161 165
    012055  aa  145 163 164 056

                                   865  ec  lock_is_invalid,lockinv,
                                   866  	(The lock does not belong to an existing process.)
                        000512          	segdef  lock_is_invalid
    000512  a0   077777 012060
    012056  aa  154 157 143 153         	aci  "lockinv",8
    012057  aa  151 156 166 040
    012060  aa  060 124 150 145         	acc  "The lock does not belong to an existing process."
    012061  aa  040 154 157 143
    012062  aa  153 040 144 157
    012063  aa  145 163 040 156
    012064  aa  157 164 040 142
    012065  aa  145 154 157 156
    012066  aa  147 040 164 157
    012067  aa  040 141 156 040
    012070  aa  145 170 151 163
    012071  aa  164 151 156 147
    012072  aa  040 160 162 157
    012073  aa  143 145 163 163
    012074  aa  056 000 000 000

                                   867  ec  lock_not_locked,unlocked,
                                   868  	(Attempt to unlock a lock that was not locked.)
                        000513          	segdef  lock_not_locked
    000513  a0   077777 012077
    012075  aa  165 156 154 157         	aci  "unlocked",8
    012076  aa  143 153 145 144
    012077  aa  055 101 164 164         	acc  "Attempt to unlock a lock that was not locked."
    012100  aa  145 155 160 164
    012101  aa  040 164 157 040
    012102  aa  165 156 154 157
    012103  aa  143 153 040 141
    012104  aa  040 154 157 143
    012105  aa  153 040 164 150
    012106  aa  141 164 040 167
    012107  aa  141 163 040 156
    012110  aa  157 164 040 154
    012111  aa  157 143 153 145
    012112  aa  144 056 000 000

                                   869  ec  lock_wait_time_exceeded,loctimex,
                                   870  	(The lock could not be set in the given time.)
                        000514          	segdef  lock_wait_time_exceeded
    000514  a0   077777 012115
    012113  aa  154 157 143 164         	aci  "loctimex",8
    012114  aa  151 155 145 170
    012115  aa  054 124 150 145         	acc  "The lock could not be set in the given time."
    012116  aa  040 154 157 143
    012117  aa  153 040 143 157
    012120  aa  165 154 144 040
    012121  aa  156 157 164 040
    012122  aa  142 145 040 163
    012123  aa  145 164 040 151
    012124  aa  156 040 164 150
    012125  aa  145 040 147 151
    012126  aa  166 145 156 040
    012127  aa  164 151 155 145
    012130  aa  056 000 000 000

                                   871  ec  locked_by_other_process,hislock,
                                   872  	(Attempt to unlock a lock which was locked by another process.)
                        000515          	segdef  locked_by_other_process
    000515  a0   077777 012133
    012131  aa  150 151 163 154         	aci  "hislock",8
    012132  aa  157 143 153 040
    012133  aa  075 101 164 164         	acc  "Attempt to unlock a lock which was locked by another process."
    012134  aa  145 155 160 164
    012135  aa  040 164 157 040
    012136  aa  165 156 154 157
    012137  aa  143 153 040 141
    012140  aa  040 154 157 143
    012141  aa  153 040 167 150
    012142  aa  151 143 150 040
    012143  aa  167 141 163 040
    012144  aa  154 157 143 153
    012145  aa  145 144 040 142
    012146  aa  171 040 141 156
    012147  aa  157 164 150 145
    012150  aa  162 040 160 162
    012151  aa  157 143 145 163
    012152  aa  163 056 000 000

                                   873  ec  locked_by_this_process,mylock,
                                   874  	(The lock was already locked by this process.)
                        000516          	segdef  locked_by_this_process
    000516  a0   077777 012155
    012153  aa  155 171 154 157         	aci  "mylock",8
    012154  aa  143 153 040 040
    012155  aa  054 124 150 145         	acc  "The lock was already locked by this process."
    012156  aa  040 154 157 143
    012157  aa  153 040 167 141
    012160  aa  163 040 141 154
    012161  aa  162 145 141 144
    012162  aa  171 040 154 157
    012163  aa  143 153 145 144
    012164  aa  040 142 171 040
    012165  aa  164 150 151 163
    012166  aa  040 160 162 157
    012167  aa  143 145 163 163
    012170  aa  056 000 000 000

                                   875  ec  log_message_invalid_type,log^type,
                                   876            (The specified log message type is invalid.)
                        000517          	segdef  log_message_invalid_type
    000517  a0   077777 012173
    012171  aa  154 157 147 136         	aci  "log^type",8
    012172  aa  164 171 160 145
    012173  aa  052 124 150 145         	acc  "The specified log message type is invalid."
    012174  aa  040 163 160 145
    012175  aa  143 151 146 151
    012176  aa  145 144 040 154
    012177  aa  157 147 040 155
    012200  aa  145 163 163 141
    012201  aa  147 145 040 164
    012202  aa  171 160 145 040
    012203  aa  151 163 040 151
    012204  aa  156 166 141 154
    012205  aa  151 144 056 000

                                   877  ec  log_out_of_service,loginop,
                                   878            (The specified log segment is not in service at this time.)
                        000520          	segdef  log_out_of_service
    000520  a0   077777 012210
    012206  aa  154 157 147 151         	aci  "loginop",8
    012207  aa  156 157 160 040
    012210  aa  071 124 150 145         	acc  "The specified log segment is not in service at this time."
    012211  aa  040 163 160 145
    012212  aa  143 151 146 151
    012213  aa  145 144 040 154
    012214  aa  157 147 040 163
    012215  aa  145 147 155 145
    012216  aa  156 164 040 151
    012217  aa  163 040 156 157
    012220  aa  164 040 151 156
    012221  aa  040 163 145 162
    012222  aa  166 151 143 145
    012223  aa  040 141 164 040
    012224  aa  164 150 151 163
    012225  aa  040 164 151 155
    012226  aa  145 056 000 000

                                   879  ec  log_segment_damaged,logbust,
                                   880            (The log segment is damaged.)
                        000521          	segdef  log_segment_damaged
    000521  a0   077777 012231
    012227  aa  154 157 147 142         	aci  "logbust",8
    012230  aa  165 163 164 040
    012231  aa  033 124 150 145         	acc  "The log segment is damaged."
    012232  aa  040 154 157 147
    012233  aa  040 163 145 147
    012234  aa  155 145 156 164
    012235  aa  040 151 163 040
    012236  aa  144 141 155 141
    012237  aa  147 145 144 056

                                   881  ec  log_segment_empty,logempty,
                                   882  	(The log segment is empty.)
                        000522          	segdef  log_segment_empty
    000522  a0   077777 012242
    012240  aa  154 157 147 145         	aci  "logempty",8
    012241  aa  155 160 164 171
    012242  aa  031 124 150 145         	acc  "The log segment is empty."
    012243  aa  040 154 157 147
    012244  aa  040 163 145 147
    012245  aa  155 145 156 164
    012246  aa  040 151 163 040
    012247  aa  145 155 160 164
    012250  aa  171 056 000 000

                                   883  ec  log_segment_full,logfull,
                                   884            (The log segment is full.)
                        000523          	segdef  log_segment_full
    000523  a0   077777 012253
    012251  aa  154 157 147 146         	aci  "logfull",8
    012252  aa  165 154 154 040
    012253  aa  030 124 150 145         	acc  "The log segment is full."
    012254  aa  040 154 157 147
    012255  aa  040 163 145 147
    012256  aa  155 145 156 164
    012257  aa  040 151 163 040
    012260  aa  146 165 154 154
    012261  aa  056 000 000 000

                                   885  ec  log_segment_invalid,log^val,
                                   886  	(The specified segment is not a valid log segment.)
                        000524          	segdef  log_segment_invalid
    000524  a0   077777 012264
    012262  aa  154 157 147 136         	aci  "log^val",8
    012263  aa  166 141 154 040
    012264  aa  061 124 150 145         	acc  "The specified segment is not a valid log segment."
    012265  aa  040 163 160 145
    012266  aa  143 151 146 151
    012267  aa  145 144 040 163
    012270  aa  145 147 155 145
    012271  aa  156 164 040 151
    012272  aa  163 040 156 157
    012273  aa  164 040 141 040
    012274  aa  166 141 154 151
    012275  aa  144 040 154 157
    012276  aa  147 040 163 145
    012277  aa  147 155 145 156
    012300  aa  164 056 000 000

                                   887  ec  log_uninitialized,log^init,
                                   888            (The log segment has not yet been initialized.)
                        000525          	segdef  log_uninitialized
    000525  a0   077777 012303
    012301  aa  154 157 147 136         	aci  "log^init",8
    012302  aa  151 156 151 164
    012303  aa  055 124 150 145         	acc  "The log segment has not yet been initialized."
    012304  aa  040 154 157 147
    012305  aa  040 163 145 147
    012306  aa  155 145 156 164
    012307  aa  040 150 141 163
    012310  aa  040 156 157 164
    012311  aa  040 171 145 164
    012312  aa  040 142 145 145
    012313  aa  156 040 151 156
    012314  aa  151 164 151 141
    012315  aa  154 151 172 145
    012316  aa  144 056 000 000

                                   889  ec  log_vol_full,logvolfl,
                                   890  	(The logical volume is full.)
                        000526          	segdef  log_vol_full
    000526  a0   077777 012321
    012317  aa  154 157 147 166         	aci  "logvolfl",8
    012320  aa  157 154 146 154
    012321  aa  033 124 150 145         	acc  "The logical volume is full."
    012322  aa  040 154 157 147
    012323  aa  151 143 141 154
    012324  aa  040 166 157 154
    012325  aa  165 155 145 040
    012326  aa  151 163 040 146
    012327  aa  165 154 154 056

                                   891  ec  log_wakeup_table_full,log>lstn,
                                   892            (No more listener entries are cuurrently available for this log.)
                        000527          	segdef  log_wakeup_table_full
    000527  a0   077777 012332
    012330  aa  154 157 147 076         	aci  "log>lstn",8
    012331  aa  154 163 164 156
    012332  aa  077 116 157 040         	acc  "No more listener entries are cuurrently available for this log."
    012333  aa  155 157 162 145
    012334  aa  040 154 151 163
    012335  aa  164 145 156 145
    012336  aa  162 040 145 156
    012337  aa  164 162 151 145
    012340  aa  163 040 141 162
    012341  aa  145 040 143 165
    012342  aa  165 162 162 145
    012343  aa  156 164 154 171
    012344  aa  040 141 166 141
    012345  aa  151 154 141 142
    012346  aa  154 145 040 146
    012347  aa  157 162 040 164
    012350  aa  150 151 163 040
    012351  aa  154 157 147 056

                                   893  ec  logical_volume_is_connected,LViscon,
                                   894  	(The logical volume is already attached.)
                        000530          	segdef  logical_volume_is_connected
    000530  a0   077777 012354
    012352  aa  114 126 151 163         	aci  "LViscon",8
    012353  aa  143 157 156 040
    012354  aa  047 124 150 145         	acc  "The logical volume is already attached."
    012355  aa  040 154 157 147
    012356  aa  151 143 141 154
    012357  aa  040 166 157 154
    012360  aa  165 155 145 040
    012361  aa  151 163 040 141
    012362  aa  154 162 145 141
    012363  aa  144 171 040 141
    012364  aa  164 164 141 143
    012365  aa  150 145 144 056

                                   895  ec  logical_volume_is_defined,LVisdef,
                                   896  	(The logical volume is already mounted.)
                        000531          	segdef  logical_volume_is_defined
    000531  a0   077777 012370
    012366  aa  114 126 151 163         	aci  "LVisdef",8
    012367  aa  144 145 146 040
    012370  aa  046 124 150 145         	acc  "The logical volume is already mounted."
    012371  aa  040 154 157 147
    012372  aa  151 143 141 154
    012373  aa  040 166 157 154
    012374  aa  165 155 145 040
    012375  aa  151 163 040 141
    012376  aa  154 162 145 141
    012377  aa  144 171 040 155
    012400  aa  157 165 156 164
    012401  aa  145 144 056 000

                                   897  ec  logical_volume_not_connected,LVnotcon,
                                   898  	(The logical volume is not attached.)
                        000532          	segdef  logical_volume_not_connected
    000532  a0   077777 012404
    012402  aa  114 126 156 157         	aci  "LVnotcon",8
    012403  aa  164 143 157 156
    012404  aa  043 124 150 145         	acc  "The logical volume is not attached."
    012405  aa  040 154 157 147
    012406  aa  151 143 141 154
    012407  aa  040 166 157 154
    012410  aa  165 155 145 040
    012411  aa  151 163 040 156
    012412  aa  157 164 040 141
    012413  aa  164 164 141 143
    012414  aa  150 145 144 056

                                   899  ec  logical_volume_not_defined,LVnotdef,
                                   900  	(The logical volume is not mounted.)
                        000533          	segdef  logical_volume_not_defined
    000533  a0   077777 012417
    012415  aa  114 126 156 157         	aci  "LVnotdef",8
    012416  aa  164 144 145 146
    012417  aa  042 124 150 145         	acc  "The logical volume is not mounted."
    012420  aa  040 154 157 147
    012421  aa  151 143 141 154
    012422  aa  040 166 157 154
    012423  aa  165 155 145 040
    012424  aa  151 163 040 156
    012425  aa  157 164 040 155
    012426  aa  157 165 156 164
    012427  aa  145 144 056 000

                                   901  ec  logical_volume_table_full,LVT_full,
                                   902  	(The logical volume table is full.)
                        000534          	segdef  logical_volume_table_full
    000534  a0   077777 012432
    012430  aa  114 126 124 137         	aci  "LVT_full",8
    012431  aa  146 165 154 154
    012432  aa  041 124 150 145         	acc  "The logical volume table is full."
    012433  aa  040 154 157 147
    012434  aa  151 143 141 154
    012435  aa  040 166 157 154
    012436  aa  165 155 145 040
    012437  aa  164 141 142 154
    012440  aa  145 040 151 163
    012441  aa  040 146 165 154
    012442  aa  154 056 000 000

                                   903  ec  long_record,long_rec,
                                   904  	(Record is too long.)
                        000535          	segdef  long_record
    000535  a0   077777 012445
    012443  aa  154 157 156 147         	aci  "long_rec",8
    012444  aa  137 162 145 143
    012445  aa  023 122 145 143         	acc  "Record is too long."
    012446  aa  157 162 144 040
    012447  aa  151 163 040 164
    012450  aa  157 157 040 154
    012451  aa  157 156 147 056

                                   905  ec  longeql,,
                                   906  	(Equals convention makes entry name too long.)
                        000536          	segdef  longeql
    000536  a0   077777 012454
    012452  aa  154 157 156 147         	aci  "longeql",8
    012453  aa  145 161 154 040
    012454  aa  054 105 161 165         	acc  "Equals convention makes entry name too long."
    012455  aa  141 154 163 040
    012456  aa  143 157 156 166
    012457  aa  145 156 164 151
    012460  aa  157 156 040 155
    012461  aa  141 153 145 163
    012462  aa  040 145 156 164
    012463  aa  162 171 040 156
    012464  aa  141 155 145 040
    012465  aa  164 157 157 040
    012466  aa  154 157 156 147
    012467  aa  056 000 000 000

                                   907  ec  lost_device_position,lstdevps,
                                   908  	(The sequential position on the device is unknown.)
                        000537          	segdef  lost_device_position
    000537  a0   077777 012472
    012470  aa  154 163 164 144         	aci  "lstdevps",8
    012471  aa  145 166 160 163
    012472  aa  061 124 150 145         	acc  "The sequential position on the device is unknown."
    012473  aa  040 163 145 161
    012474  aa  165 145 156 164
    012475  aa  151 141 154 040
    012476  aa  160 157 163 151
    012477  aa  164 151 157 156
    012500  aa  040 157 156 040
    012501  aa  164 150 145 040
    012502  aa  144 145 166 151
    012503  aa  143 145 040 151
    012504  aa  163 040 165 156
    012505  aa  153 156 157 167
    012506  aa  156 056 000 000

                                   909  ec (lower_ring,bad_ring_brackets),low_ring,
                                   910  	(Validation level not in ring bracket.)
                        000540          	segdef  lower_ring
                        000540          	segdef  bad_ring_brackets
    000540  a0   077777 012511
    012507  aa  154 157 167 137         	aci  "low_ring",8
    012510  aa  162 151 156 147
    012511  aa  045 126 141 154         	acc  "Validation level not in ring bracket."
    012512  aa  151 144 141 164
    012513  aa  151 157 156 040
    012514  aa  154 145 166 145
    012515  aa  154 040 156 157
    012516  aa  164 040 151 156
    012517  aa  040 162 151 156
    012520  aa  147 040 142 162
    012521  aa  141 143 153 145
    012522  aa  164 056 000 000

                                   911  ec  malformed_list_template_entry,badlstmp,
                                   912  	(A compiler has generated incorrect list template initialization for an array or external variable.)
                        000541          	segdef  malformed_list_template_entry
    000541  a0   077777 012525
    012523  aa  142 141 144 154         	aci  "badlstmp",8
    012524  aa  163 164 155 160
    012525  aa  142 101 040 143         	acc  "A compiler has generated incorrect list template initialization for an array or external variable."
    012526  aa  157 155 160 151
    012527  aa  154 145 162 040
    012530  aa  150 141 163 040
    012531  aa  147 145 156 145
    012532  aa  162 141 164 145
    012533  aa  144 040 151 156
    012534  aa  143 157 162 162
    012535  aa  145 143 164 040
    012536  aa  154 151 163 164
    012537  aa  040 164 145 155
    012540  aa  160 154 141 164
    012541  aa  145 040 151 156
    012542  aa  151 164 151 141
    012543  aa  154 151 172 141
    012544  aa  164 151 157 156
    012545  aa  040 146 157 162
    012546  aa  040 141 156 040
    012547  aa  141 162 162 141
    012550  aa  171 040 157 162
    012551  aa  040 145 170 164
    012552  aa  145 162 156 141
    012553  aa  154 040 166 141
    012554  aa  162 151 141 142
    012555  aa  154 145 056 000

                                   913  ec  masked_channel,maskchan,
                                   914  	(The channel is masked.)
                        000542          	segdef  masked_channel
    000542  a0   077777 012560
    012556  aa  155 141 163 153         	aci  "maskchan",8
    012557  aa  143 150 141 156
    012560  aa  026 124 150 145         	acc  "The channel is masked."
    012561  aa  040 143 150 141
    012562  aa  156 156 145 154
    012563  aa  040 151 163 040
    012564  aa  155 141 163 153
    012565  aa  145 144 056 000

                                   915  ec  master_dir,mastrdir,
                                   916  	(This operation is not allowed for a master directory.)
                        000543          	segdef  master_dir
    000543  a0   077777 012570
    012566  aa  155 141 163 164         	aci  "mastrdir",8
    012567  aa  162 144 151 162
    012570  aa  065 124 150 151         	acc  "This operation is not allowed for a master directory."
    012571  aa  163 040 157 160
    012572  aa  145 162 141 164
    012573  aa  151 157 156 040
    012574  aa  151 163 040 156
    012575  aa  157 164 040 141
    012576  aa  154 154 157 167
    012577  aa  145 144 040 146
    012600  aa  157 162 040 141
    012601  aa  040 155 141 163
    012602  aa  164 145 162 040
    012603  aa  144 151 162 145
    012604  aa  143 164 157 162
    012605  aa  171 056 000 000

                                   917  ec  max_depth_exceeded,>levels,
                                   918  	(The maximum depth in the storage system hierarchy has been exceeded.)
                        000544          	segdef  max_depth_exceeded
    000544  a0   077777 012610
    012606  aa  076 154 145 166         	aci  ">levels",8
    012607  aa  145 154 163 040
    012610  aa  104 124 150 145         	acc  "The maximum depth in the storage system hierarchy has been exceeded."
    012611  aa  040 155 141 170
    012612  aa  151 155 165 155
    012613  aa  040 144 145 160
    012614  aa  164 150 040 151
    012615  aa  156 040 164 150
    012616  aa  145 040 163 164
    012617  aa  157 162 141 147
    012620  aa  145 040 163 171
    012621  aa  163 164 145 155
    012622  aa  040 150 151 145
    012623  aa  162 141 162 143
    012624  aa  150 171 040 150
    012625  aa  141 163 040 142
    012626  aa  145 145 156 040
    012627  aa  145 170 143 145
    012630  aa  145 144 145 144
    012631  aa  056 000 000 000

                                   919  ec  mc_no_c_permission,mc^m,
                                   920  	(Control permission missing on message coordinator source.)
                        000545          	segdef  mc_no_c_permission
    000545  a0   077777 012634
    012632  aa  155 143 136 155         	aci  "mc^m",8
    012633  aa  040 040 040 040
    012634  aa  071 103 157 156         	acc  "Control permission missing on message coordinator source."
    012635  aa  164 162 157 154
    012636  aa  040 160 145 162
    012637  aa  155 151 163 163
    012640  aa  151 157 156 040
    012641  aa  155 151 163 163
    012642  aa  151 156 147 040
    012643  aa  157 156 040 155
    012644  aa  145 163 163 141
    012645  aa  147 145 040 143
    012646  aa  157 157 162 144
    012647  aa  151 156 141 164
    012650  aa  157 162 040 163
    012651  aa  157 165 162 143
    012652  aa  145 056 000 000

                                   921  ec  mc_no_d_permission,mc^d,
                                   922  	(Daemon permission missing on message coordinator source.)
                        000546          	segdef  mc_no_d_permission
    000546  a0   077777 012655
    012653  aa  155 143 136 144         	aci  "mc^d",8
    012654  aa  040 040 040 040
    012655  aa  070 104 141 145         	acc  "Daemon permission missing on message coordinator source."
    012656  aa  155 157 156 040
    012657  aa  160 145 162 155
    012660  aa  151 163 163 151
    012661  aa  157 156 040 155
    012662  aa  151 163 163 151
    012663  aa  156 147 040 157
    012664  aa  156 040 155 145
    012665  aa  163 163 141 147
    012666  aa  145 040 143 157
    012667  aa  157 162 144 151
    012670  aa  156 141 164 157
    012671  aa  162 040 163 157
    012672  aa  165 162 143 145
    012673  aa  056 000 000 000

                                   923  ec  mc_no_q_permission,mc^q,
                                   924  	(Quit permission missing on message coordinator source.)
                        000547          	segdef  mc_no_q_permission
    000547  a0   077777 012676
    012674  aa  155 143 136 161         	aci  "mc^q",8
    012675  aa  040 040 040 040
    012676  aa  066 121 165 151         	acc  "Quit permission missing on message coordinator source."
    012677  aa  164 040 160 145
    012700  aa  162 155 151 163
    012701  aa  163 151 157 156
    012702  aa  040 155 151 163
    012703  aa  163 151 156 147
    012704  aa  040 157 156 040
    012705  aa  155 145 163 163
    012706  aa  141 147 145 040
    012707  aa  143 157 157 162
    012710  aa  144 151 156 141
    012711  aa  164 157 162 040
    012712  aa  163 157 165 162
    012713  aa  143 145 056 000

                                   925  ec  mc_no_r_permission,mc^r,
                                   926  	(Reply permission missing on message coordinator source.)
                        000550          	segdef  mc_no_r_permission
    000550  a0   077777 012716
    012714  aa  155 143 136 162         	aci  "mc^r",8
    012715  aa  040 040 040 040
    012716  aa  067 122 145 160         	acc  "Reply permission missing on message coordinator source."
    012717  aa  154 171 040 160
    012720  aa  145 162 155 151
    012721  aa  163 163 151 157
    012722  aa  156 040 155 151
    012723  aa  163 163 151 156
    012724  aa  147 040 157 156
    012725  aa  040 155 145 163
    012726  aa  163 141 147 145
    012727  aa  040 143 157 157
    012730  aa  162 144 151 156
    012731  aa  141 164 157 162
    012732  aa  040 163 157 165
    012733  aa  162 143 145 056

                                   927  ec  mdc_bad_quota,mdcbadq,
                                   928  	(Master directory quota must be greater than 0.)
                        000551          	segdef  mdc_bad_quota
    000551  a0   077777 012736
    012734  aa  155 144 143 142         	aci  "mdcbadq",8
    012735  aa  141 144 161 040
    012736  aa  056 115 141 163         	acc  "Master directory quota must be greater than 0."
    012737  aa  164 145 162 040
    012740  aa  144 151 162 145
    012741  aa  143 164 157 162
    012742  aa  171 040 161 165
    012743  aa  157 164 141 040
    012744  aa  155 165 163 164
    012745  aa  040 142 145 040
    012746  aa  147 162 145 141
    012747  aa  164 145 162 040
    012750  aa  164 150 141 156
    012751  aa  040 060 056 000

                                   929  ec  mdc_exec_access,mdcnoex,
                                   930  	(Executive access to logical volume required to perform operation.)
                        000552          	segdef  mdc_exec_access
    000552  a0   077777 012754
    012752  aa  155 144 143 156         	aci  "mdcnoex",8
    012753  aa  157 145 170 040
    012754  aa  101 105 170 145         	acc  "Executive access to logical volume required to perform operation."
    012755  aa  143 165 164 151
    012756  aa  166 145 040 141
    012757  aa  143 143 145 163
    012760  aa  163 040 164 157
    012761  aa  040 154 157 147
    012762  aa  151 143 141 154
    012763  aa  040 166 157 154
    012764  aa  165 155 145 040
    012765  aa  162 145 161 165
    012766  aa  151 162 145 144
    012767  aa  040 164 157 040
    012770  aa  160 145 162 146
    012771  aa  157 162 155 040
    012772  aa  157 160 145 162
    012773  aa  141 164 151 157
    012774  aa  156 056 000 000

                                   931  ec  mdc_illegal_account,mdcilacc,
                                   932  	(Illegal format of quota account name.)
                        000553          	segdef  mdc_illegal_account
    000553  a0   077777 012777
    012775  aa  155 144 143 151         	aci  "mdcilacc",8
    012776  aa  154 141 143 143
    012777  aa  045 111 154 154         	acc  "Illegal format of quota account name."
    013000  aa  145 147 141 154
    013001  aa  040 146 157 162
    013002  aa  155 141 164 040
    013003  aa  157 146 040 161
    013004  aa  165 157 164 141
    013005  aa  040 141 143 143
    013006  aa  157 165 156 164
    013007  aa  040 156 141 155
    013010  aa  145 056 000 000

                                   933  ec  mdc_illegal_owner,mdcilown,
                                   934       	(Illegal format of master directory owner name.)
                        000554          	segdef  mdc_illegal_owner
    000554  a0   077777 013013
    013011  aa  155 144 143 151         	aci  "mdcilown",8
    013012  aa  154 157 167 156
    013013  aa  056 111 154 154         	acc  "Illegal format of master directory owner name."
    013014  aa  145 147 141 154
    013015  aa  040 146 157 162
    013016  aa  155 141 164 040
    013017  aa  157 146 040 155
    013020  aa  141 163 164 145
    013021  aa  162 040 144 151
    013022  aa  162 145 143 164
    013023  aa  157 162 171 040
    013024  aa  157 167 156 145
    013025  aa  162 040 156 141
    013026  aa  155 145 056 000

                                   935  ec  mdc_mdir_registered,mdcmdirg,
                                   936  	(Quota account has master directories charged against it.)
                        000555          	segdef  mdc_mdir_registered
    000555  a0   077777 013031
    013027  aa  155 144 143 155         	aci  "mdcmdirg",8
    013030  aa  144 151 162 147
    013031  aa  070 121 165 157         	acc  "Quota account has master directories charged against it."
    013032  aa  164 141 040 141
    013033  aa  143 143 157 165
    013034  aa  156 164 040 150
    013035  aa  141 163 040 155
    013036  aa  141 163 164 145
    013037  aa  162 040 144 151
    013040  aa  162 145 143 164
    013041  aa  157 162 151 145
    013042  aa  163 040 143 150
    013043  aa  141 162 147 145
    013044  aa  144 040 141 147
    013045  aa  141 151 156 163
    013046  aa  164 040 151 164
    013047  aa  056 000 000 000

                                   937  ec  mdc_mdirs_registered,mdcmdreg,
                                   938  	(Volume cannot be deleted because it contains master directories.)
                        000556          	segdef  mdc_mdirs_registered
    000556  a0   077777 013052
    013050  aa  155 144 143 155         	aci  "mdcmdreg",8
    013051  aa  144 162 145 147
    013052  aa  100 126 157 154         	acc  "Volume cannot be deleted because it contains master directories."
    013053  aa  165 155 145 040
    013054  aa  143 141 156 156
    013055  aa  157 164 040 142
    013056  aa  145 040 144 145
    013057  aa  154 145 164 145
    013060  aa  144 040 142 145
    013061  aa  143 141 165 163
    013062  aa  145 040 151 164
    013063  aa  040 143 157 156
    013064  aa  164 141 151 156
    013065  aa  163 040 155 141
    013066  aa  163 164 145 162
    013067  aa  040 144 151 162
    013070  aa  145 143 164 157
    013071  aa  162 151 145 163
    013072  aa  056 000 000 000

                                   939  ec  mdc_no_account,mdcnoact,
                                   940  	(Specified quota account not found.)
                        000557          	segdef  mdc_no_account
    000557  a0   077777 013075
    013073  aa  155 144 143 156         	aci  "mdcnoact",8
    013074  aa  157 141 143 164
    013075  aa  042 123 160 145         	acc  "Specified quota account not found."
    013076  aa  143 151 146 151
    013077  aa  145 144 040 161
    013100  aa  165 157 164 141
    013101  aa  040 141 143 143
    013102  aa  157 165 156 164
    013103  aa  040 156 157 164
    013104  aa  040 146 157 165
    013105  aa  156 144 056 000

                                   941  ec  mdc_no_quota,mdcnoq,
                                   942  	(Insufficient quota on logical volume.)
                        000560          	segdef  mdc_no_quota
    000560  a0   077777 013110
    013106  aa  155 144 143 156         	aci  "mdcnoq",8
    013107  aa  157 161 040 040
    013110  aa  045 111 156 163         	acc  "Insufficient quota on logical volume."
    013111  aa  165 146 146 151
    013112  aa  143 151 145 156
    013113  aa  164 040 161 165
    013114  aa  157 164 141 040
    013115  aa  157 156 040 154
    013116  aa  157 147 151 143
    013117  aa  141 154 040 166
    013120  aa  157 154 165 155
    013121  aa  145 056 000 000

                                   943  ec  mdc_no_quota_account,mdcnoqa,
                                   944  	(No quota account for the logical volume.)
                        000561          	segdef  mdc_no_quota_account
    000561  a0   077777 013124
    013122  aa  155 144 143 156         	aci  "mdcnoqa",8
    013123  aa  157 161 141 040
    013124  aa  050 116 157 040         	acc  "No quota account for the logical volume."
    013125  aa  161 165 157 164
    013126  aa  141 040 141 143
    013127  aa  143 157 165 156
    013130  aa  164 040 146 157
    013131  aa  162 040 164 150
    013132  aa  145 040 154 157
    013133  aa  147 151 143 141
    013134  aa  154 040 166 157
    013135  aa  154 165 155 145
    013136  aa  056 000 000 000

                                   945  ec  mdc_not_mdir,mdcnotmd,
                                   946  	(This operation allowed only on master directories.)
                        000562          	segdef  mdc_not_mdir
    000562  a0   077777 013141
    013137  aa  155 144 143 156         	aci  "mdcnotmd",8
    013140  aa  157 164 155 144
    013141  aa  062 124 150 151         	acc  "This operation allowed only on master directories."
    013142  aa  163 040 157 160
    013143  aa  145 162 141 164
    013144  aa  151 157 156 040
    013145  aa  141 154 154 157
    013146  aa  167 145 144 040
    013147  aa  157 156 154 171
    013150  aa  040 157 156 040
    013151  aa  155 141 163 164
    013152  aa  145 162 040 144
    013153  aa  151 162 145 143
    013154  aa  164 157 162 151
    013155  aa  145 163 056 000

                                   947  ec  mdc_path_dup,mdcpathd,
                                   948  	(Pathname already listed.)
                        000563          	segdef  mdc_path_dup
    000563  a0   077777 013160
    013156  aa  155 144 143 160         	aci  "mdcpathd",8
    013157  aa  141 164 150 144
    013160  aa  030 120 141 164         	acc  "Pathname already listed."
    013161  aa  150 156 141 155
    013162  aa  145 040 141 154
    013163  aa  162 145 141 144
    013164  aa  171 040 154 151
    013165  aa  163 164 145 144
    013166  aa  056 000 000 000

                                   949  ec  mdc_path_dup_args,mdcdparg,
                                   950  	(Pathname appears more than once in the list.)
                        000564          	segdef  mdc_path_dup_args
    000564  a0   077777 013171
    013167  aa  155 144 143 144         	aci  "mdcdparg",8
    013170  aa  160 141 162 147
    013171  aa  054 120 141 164         	acc  "Pathname appears more than once in the list."
    013172  aa  150 156 141 155
    013173  aa  145 040 141 160
    013174  aa  160 145 141 162
    013175  aa  163 040 155 157
    013176  aa  162 145 040 164
    013177  aa  150 141 156 040
    013200  aa  157 156 143 145
    013201  aa  040 151 156 040
    013202  aa  164 150 145 040
    013203  aa  154 151 163 164
    013204  aa  056 000 000 000

                                   951  ec  mdc_path_not_found,mdcpathn,
                                   952  	(Pathname not found.)
                        000565          	segdef  mdc_path_not_found
    000565  a0   077777 013207
    013205  aa  155 144 143 160         	aci  "mdcpathn",8
    013206  aa  141 164 150 156
    013207  aa  023 120 141 164         	acc  "Pathname not found."
    013210  aa  150 156 141 155
    013211  aa  145 040 156 157
    013212  aa  164 040 146 157
    013213  aa  165 156 144 056

                                   953  ec  mdc_path_restrict,mdcpathr,
                                   954  	(Path violates volume or account pathname restriction.)
                        000566          	segdef  mdc_path_restrict
    000566  a0   077777 013216
    013214  aa  155 144 143 160         	aci  "mdcpathr",8
    013215  aa  141 164 150 162
    013216  aa  065 120 141 164         	acc  "Path violates volume or account pathname restriction."
    013217  aa  150 040 166 151
    013220  aa  157 154 141 164
    013221  aa  145 163 040 166
    013222  aa  157 154 165 155
    013223  aa  145 040 157 162
    013224  aa  040 141 143 143
    013225  aa  157 165 156 164
    013226  aa  040 160 141 164
    013227  aa  150 156 141 155
    013230  aa  145 040 162 145
    013231  aa  163 164 162 151
    013232  aa  143 164 151 157
    013233  aa  156 056 000 000

                                   955  ec  mdc_some_error,mdcsome,
                                   956  	(One or more of the paths given are in error.)
                        000567          	segdef  mdc_some_error
    000567  a0   077777 013236
    013234  aa  155 144 143 163         	aci  "mdcsome",8
    013235  aa  157 155 145 040
    013236  aa  054 117 156 145         	acc  "One or more of the paths given are in error."
    013237  aa  040 157 162 040
    013240  aa  155 157 162 145
    013241  aa  040 157 146 040
    013242  aa  164 150 145 040
    013243  aa  160 141 164 150
    013244  aa  163 040 147 151
    013245  aa  166 145 156 040
    013246  aa  141 162 145 040
    013247  aa  151 156 040 145
    013250  aa  162 162 157 162
    013251  aa  056 000 000 000

                                   957  ec  mdc_unregistered_mdir,mdcunreg,
                                   958  	(Master directory missing from MDCS.)
                        000570          	segdef  mdc_unregistered_mdir
    000570  a0   077777 013254
    013252  aa  155 144 143 165         	aci  "mdcunreg",8
    013253  aa  156 162 145 147
    013254  aa  043 115 141 163         	acc  "Master directory missing from MDCS."
    013255  aa  164 145 162 040
    013256  aa  144 151 162 145
    013257  aa  143 164 157 162
    013260  aa  171 040 155 151
    013261  aa  163 163 151 156
    013262  aa  147 040 146 162
    013263  aa  157 155 040 115
    013264  aa  104 103 123 056

                                   959  ec  media_not_removable,mdntrmvb,
                                   960  	(The specified volume cannot be unloaded from its device.)
                        000571          	segdef  media_not_removable
    000571  a0   077777 013267
    013265  aa  155 144 156 164         	aci  "mdntrmvb",8
    013266  aa  162 155 166 142
    013267  aa  070 124 150 145         	acc  "The specified volume cannot be unloaded from its device."
    013270  aa  040 163 160 145
    013271  aa  143 151 146 151
    013272  aa  145 144 040 166
    013273  aa  157 154 165 155
    013274  aa  145 040 143 141
    013275  aa  156 156 157 164
    013276  aa  040 142 145 040
    013277  aa  165 156 154 157
    013300  aa  141 144 145 144
    013301  aa  040 146 162 157
    013302  aa  155 040 151 164
    013303  aa  163 040 144 145
    013304  aa  166 151 143 145
    013305  aa  056 000 000 000

                                   961  ec  messages_deferred,msgdefer,
                                   962  	(Messages are deferred.)
                        000572          	segdef  messages_deferred
    000572  a0   077777 013310
    013306  aa  155 163 147 144         	aci  "msgdefer",8
    013307  aa  145 146 145 162
    013310  aa  026 115 145 163         	acc  "Messages are deferred."
    013311  aa  163 141 147 145
    013312  aa  163 040 141 162
    013313  aa  145 040 144 145
    013314  aa  146 145 162 162
    013315  aa  145 144 056 000

                                   963  ec  messages_off,msgs_off,
                                   964  	(Messages are not being accepted.)
                        000573          	segdef  messages_off
    000573  a0   077777 013320
    013316  aa  155 163 147 163         	aci  "msgs_off",8
    013317  aa  137 157 146 146
    013320  aa  040 115 145 163         	acc  "Messages are not being accepted."
    013321  aa  163 141 147 145
    013322  aa  163 040 141 162
    013323  aa  145 040 156 157
    013324  aa  164 040 142 145
    013325  aa  151 156 147 040
    013326  aa  141 143 143 145
    013327  aa  160 164 145 144
    013330  aa  056 000 000 000

                                   965  ec  mismatched_iter,mismatit,
                                   966  	(Mismatched iteration sets.)
                        000574          	segdef  mismatched_iter
    000574  a0   077777 013333
    013331  aa  155 151 163 155         	aci  "mismatit",8
    013332  aa  141 164 151 164
    013333  aa  032 115 151 163         	acc  "Mismatched iteration sets."
    013334  aa  155 141 164 143
    013335  aa  150 145 144 040
    013336  aa  151 164 145 162
    013337  aa  141 164 151 157
    013340  aa  156 040 163 145
    013341  aa  164 163 056 000

                                   967  ec  missent,,
                                   968  	(Missing entry in outer module.)
                        000575          	segdef  missent
    000575  a0   077777 013344
    013342  aa  155 151 163 163         	aci  "missent",8
    013343  aa  145 156 164 040
    013344  aa  036 115 151 163         	acc  "Missing entry in outer module."
    013345  aa  163 151 156 147
    013346  aa  040 145 156 164
    013347  aa  162 171 040 151
    013350  aa  156 040 157 165
    013351  aa  164 145 162 040
    013352  aa  155 157 144 165
    013353  aa  154 145 056 000

                                   969  ec  mode_string_truncated,mdetrunc,
                                   970  	(Mode string has been truncated.)
                        000576          	segdef  mode_string_truncated
    000576  a0   077777 013356
    013354  aa  155 144 145 164         	aci  "mdetrunc",8
    013355  aa  162 165 156 143
    013356  aa  037 115 157 144         	acc  "Mode string has been truncated."
    013357  aa  145 040 163 164
    013360  aa  162 151 156 147
    013361  aa  040 150 141 163
    013362  aa  040 142 145 145
    013363  aa  156 040 164 162
    013364  aa  165 156 143 141
    013365  aa  164 145 144 056

                                   971  ec  moderr,,
                                   972  	(Incorrect access on entry.)
                        000577          	segdef  moderr
    000577  a0   077777 013370
    013366  aa  155 157 144 145         	aci  "moderr",8
    013367  aa  162 162 040 040
    013370  aa  032 111 156 143         	acc  "Incorrect access on entry."
    013371  aa  157 162 162 145
    013372  aa  143 164 040 141
    013373  aa  143 143 145 163
    013374  aa  163 040 157 156
    013375  aa  040 145 156 164
    013376  aa  162 171 056 000

                                   973  ec  mount_not_ready,mtnotrdy,
                                   974  	(Requested volume not yet mounted.)
                        000600          	segdef  mount_not_ready
    000600  a0   077777 013401
    013377  aa  155 164 156 157         	aci  "mtnotrdy",8
    013400  aa  164 162 144 171
    013401  aa  041 122 145 161         	acc  "Requested volume not yet mounted."
    013402  aa  165 145 163 164
    013403  aa  145 144 040 166
    013404  aa  157 154 165 155
    013405  aa  145 040 156 157
    013406  aa  164 040 171 145
    013407  aa  164 040 155 157
    013410  aa  165 156 164 145
    013411  aa  144 056 000 000

                                   975  ec  mount_pending,mtpend,
                                   976  	(Mount request pending.)
                        000601          	segdef  mount_pending
    000601  a0   077777 013414
    013412  aa  155 164 160 145         	aci  "mtpend",8
    013413  aa  156 144 040 040
    013414  aa  026 115 157 165         	acc  "Mount request pending."
    013415  aa  156 164 040 162
    013416  aa  145 161 165 145
    013417  aa  163 164 040 160
    013420  aa  145 156 144 151
    013421  aa  156 147 056 000

                                   977  ec  mpx_down,mpx_down,
                                   978  	(The multiplexer is not running.)
                        000602          	segdef  mpx_down
    000602  a0   077777 013424
    013422  aa  155 160 170 137         	aci  "mpx_down",8
    013423  aa  144 157 167 156
    013424  aa  037 124 150 145         	acc  "The multiplexer is not running."
    013425  aa  040 155 165 154
    013426  aa  164 151 160 154
    013427  aa  145 170 145 162
    013430  aa  040 151 163 040
    013431  aa  156 157 164 040
    013432  aa  162 165 156 156
    013433  aa  151 156 147 056

                                   979  ec  msf,msf,
                                   980  	(This operation is not allowed for a multisegment file.)
                        000603          	segdef  msf
    000603  a0   077777 013436
    013434  aa  155 163 146 040         	aci  "msf",8
    013435  aa  040 040 040 040
    013436  aa  066 124 150 151         	acc  "This operation is not allowed for a multisegment file."
    013437  aa  163 040 157 160
    013440  aa  145 162 141 164
    013441  aa  151 157 156 040
    013442  aa  151 163 040 156
    013443  aa  157 164 040 141
    013444  aa  154 154 157 167
    013445  aa  145 144 040 146
    013446  aa  157 162 040 141
    013447  aa  040 155 165 154
    013450  aa  164 151 163 145
    013451  aa  147 155 145 156
    013452  aa  164 040 146 151
    013453  aa  154 145 056 000

                                   981  ec  multiple_io_attachment,multioat,
                                   982  	(The stream is attached to more than one device.)
                        000604          	segdef  multiple_io_attachment
    000604  a0   077777 013456
    013454  aa  155 165 154 164         	aci  "multioat",8
    013455  aa  151 157 141 164
    013456  aa  057 124 150 145         	acc  "The stream is attached to more than one device."
    013457  aa  040 163 164 162
    013460  aa  145 141 155 040
    013461  aa  151 163 040 141
    013462  aa  164 164 141 143
    013463  aa  150 145 144 040
    013464  aa  164 157 040 155
    013465  aa  157 162 145 040
    013466  aa  164 150 141 156
    013467  aa  040 157 156 145
    013470  aa  040 144 145 166
    013471  aa  151 143 145 056

                                   983  ec  mylock,mylock,
                                   984  	(There was an attempt to lock a directory already locked to this process.)
                        000605          	segdef  mylock
    000605  a0   077777 013474
    013472  aa  155 171 154 157         	aci  "mylock",8
    013473  aa  143 153 040 040
    013474  aa  110 124 150 145         	acc  "There was an attempt to lock a directory already locked to this process."
    013475  aa  162 145 040 167
    013476  aa  141 163 040 141
    013477  aa  156 040 141 164
    013500  aa  164 145 155 160
    013501  aa  164 040 164 157
    013502  aa  040 154 157 143
    013503  aa  153 040 141 040
    013504  aa  144 151 162 145
    013505  aa  143 164 157 162
    013506  aa  171 040 141 154
    013507  aa  162 145 141 144
    013510  aa  171 040 154 157
    013511  aa  143 153 145 144
    013512  aa  040 164 157 040
    013513  aa  164 150 151 163
    013514  aa  040 160 162 157
    013515  aa  143 145 163 163
    013516  aa  056 000 000 000

                                   985  ec  name_not_found,namenfd,
                                   986  	(The name was not found.)
                        000606          	segdef  name_not_found
    000606  a0   077777 013521
    013517  aa  156 141 155 145         	aci  "namenfd",8
    013520  aa  156 146 144 040
    013521  aa  027 124 150 145         	acc  "The name was not found."
    013522  aa  040 156 141 155
    013523  aa  145 040 167 141
    013524  aa  163 040 156 157
    013525  aa  164 040 146 157
    013526  aa  165 156 144 056

                                   987  ec  namedup,,
                                   988  	(Name duplication.)
                        000607          	segdef  namedup
    000607  a0   077777 013531
    013527  aa  156 141 155 145         	aci  "namedup",8
    013530  aa  144 165 160 040
    013531  aa  021 116 141 155         	acc  "Name duplication."
    013532  aa  145 040 144 165
    013533  aa  160 154 151 143
    013534  aa  141 164 151 157
    013535  aa  156 056 000 000

                                   989  ec  ncp_error,ncperror,
                                   990  	(Network Control Program encountered a software error.)
                        000610          	segdef  ncp_error
    000610  a0   077777 013540
    013536  aa  156 143 160 145         	aci  "ncperror",8
    013537  aa  162 162 157 162
    013540  aa  065 116 145 164         	acc  "Network Control Program encountered a software error."
    013541  aa  167 157 162 153
    013542  aa  040 103 157 156
    013543  aa  164 162 157 154
    013544  aa  040 120 162 157
    013545  aa  147 162 141 155
    013546  aa  040 145 156 143
    013547  aa  157 165 156 164
    013550  aa  145 162 145 144
    013551  aa  040 141 040 163
    013552  aa  157 146 164 167
    013553  aa  141 162 145 040
    013554  aa  145 162 162 157
    013555  aa  162 056 000 000

                                   991  ec  negative_nelem,negnelem,
                                   992  	(Negative number of elements supplied to data transmission entry.)
                        000611          	segdef  negative_nelem
    000611  a0   077777 013560
    013556  aa  156 145 147 156         	aci  "negnelem",8
    013557  aa  145 154 145 155
    013560  aa  100 116 145 147         	acc  "Negative number of elements supplied to data transmission entry."
    013561  aa  141 164 151 166
    013562  aa  145 040 156 165
    013563  aa  155 142 145 162
    013564  aa  040 157 146 040
    013565  aa  145 154 145 155
    013566  aa  145 156 164 163
    013567  aa  040 163 165 160
    013570  aa  160 154 151 145
    013571  aa  144 040 164 157
    013572  aa  040 144 141 164
    013573  aa  141 040 164 162
    013574  aa  141 156 163 155
    013575  aa  151 163 163 151
    013576  aa  157 156 040 145
    013577  aa  156 164 162 171
    013600  aa  056 000 000 000

                                   993  ec  negative_offset,negofset,
                                   994  	(Negative offset supplied to data transmission entry.)
                        000612          	segdef  negative_offset
    000612  a0   077777 013603
    013601  aa  156 145 147 157         	aci  "negofset",8
    013602  aa  146 163 145 164
    013603  aa  064 116 145 147         	acc  "Negative offset supplied to data transmission entry."
    013604  aa  141 164 151 166
    013605  aa  145 040 157 146
    013606  aa  146 163 145 164
    013607  aa  040 163 165 160
    013610  aa  160 154 151 145
    013611  aa  144 040 164 157
    013612  aa  040 144 141 164
    013613  aa  141 040 164 162
    013614  aa  141 156 163 155
    013615  aa  151 163 163 151
    013616  aa  157 156 040 145
    013617  aa  156 164 162 171
    013620  aa  056 000 000 000

                                   995  ec  net_already_icp,sock_icp,
                                   996  	(An initial connection is already in progress from this socket.)
                        000613          	segdef  net_already_icp
    000613  a0   077777 013623
    013621  aa  163 157 143 153         	aci  "sock_icp",8
    013622  aa  137 151 143 160
    013623  aa  076 101 156 040         	acc  "An initial connection is already in progress from this socket."
    013624  aa  151 156 151 164
    013625  aa  151 141 154 040
    013626  aa  143 157 156 156
    013627  aa  145 143 164 151
    013630  aa  157 156 040 151
    013631  aa  163 040 141 154
    013632  aa  162 145 141 144
    013633  aa  171 040 151 156
    013634  aa  040 160 162 157
    013635  aa  147 162 145 163
    013636  aa  163 040 146 162
    013637  aa  157 155 040 164
    013640  aa  150 151 163 040
    013641  aa  163 157 143 153
    013642  aa  145 164 056 000

                                   997  ec  net_bad_gender,netbgend,
                                   998  	(Bad socket gender involved in this request.)
                        000614          	segdef  net_bad_gender
    000614  a0   077777 013645
    013643  aa  156 145 164 142         	aci  "netbgend",8
    013644  aa  147 145 156 144
    013645  aa  053 102 141 144         	acc  "Bad socket gender involved in this request."
    013646  aa  040 163 157 143
    013647  aa  153 145 164 040
    013650  aa  147 145 156 144
    013651  aa  145 162 040 151
    013652  aa  156 166 157 154
    013653  aa  166 145 144 040
    013654  aa  151 156 040 164
    013655  aa  150 151 163 040
    013656  aa  162 145 161 165
    013657  aa  145 163 164 056

                                   999  ec  net_fhost_down,fhostdwn,
                                  1000  	(Foreign host is down.)
                        000615          	segdef  net_fhost_down
    000615  a0   077777 013662
    013660  aa  146 150 157 163         	aci  "fhostdwn",8
    013661  aa  164 144 167 156
    013662  aa  025 106 157 162         	acc  "Foreign host is down."
    013663  aa  145 151 147 156
    013664  aa  040 150 157 163
    013665  aa  164 040 151 163
    013666  aa  040 144 157 167
    013667  aa  156 056 000 000

                                  1001  ec  net_fhost_inactive,netfhost,
                                  1002  	(Communications with this foreign host not enabled.)
                        000616          	segdef  net_fhost_inactive
    000616  a0   077777 013672
    013670  aa  156 145 164 146         	aci  "netfhost",8
    013671  aa  150 157 163 164
    013672  aa  062 103 157 155         	acc  "Communications with this foreign host not enabled."
    013673  aa  155 165 156 151
    013674  aa  143 141 164 151
    013675  aa  157 156 163 040
    013676  aa  167 151 164 150
    013677  aa  040 164 150 151
    013700  aa  163 040 146 157
    013701  aa  162 145 151 147
    013702  aa  156 040 150 157
    013703  aa  163 164 040 156
    013704  aa  157 164 040 145
    013705  aa  156 141 142 154
    013706  aa  145 144 056 000

                                  1003  ec  net_fimp_down,fimpdwn,
                                  1004  	(Foreign IMP is down.)
                        000617          	segdef  net_fimp_down
    000617  a0   077777 013711
    013707  aa  146 151 155 160         	aci  "fimpdwn",8
    013710  aa  144 167 156 040
    013711  aa  024 106 157 162         	acc  "Foreign IMP is down."
    013712  aa  145 151 147 156
    013713  aa  040 111 115 120
    013714  aa  040 151 163 040
    013715  aa  144 157 167 156
    013716  aa  056 000 000 000

                                  1005  ec  net_icp_bad_state,bad_icp,
                                  1006  	(Initial connection socket is in an improper state.)
                        000620          	segdef  net_icp_bad_state
    000620  a0   077777 013721
    013717  aa  142 141 144 137         	aci  "bad_icp",8
    013720  aa  151 143 160 040
    013721  aa  062 111 156 151         	acc  "Initial connection socket is in an improper state."
    013722  aa  164 151 141 154
    013723  aa  040 143 157 156
    013724  aa  156 145 143 164
    013725  aa  151 157 156 040
    013726  aa  163 157 143 153
    013727  aa  145 164 040 151
    013730  aa  163 040 151 156
    013731  aa  040 141 156 040
    013732  aa  151 155 160 162
    013733  aa  157 160 145 162
    013734  aa  040 163 164 141
    013735  aa  164 145 056 000

                                  1007  ec  net_icp_error,icp_err,
                                  1008  	(A logical error has occurred in initial connection.)
                        000621          	segdef  net_icp_error
    000621  a0   077777 013740
    013736  aa  151 143 160 137         	aci  "icp_err",8
    013737  aa  145 162 162 040
    013740  aa  063 101 040 154         	acc  "A logical error has occurred in initial connection."
    013741  aa  157 147 151 143
    013742  aa  141 154 040 145
    013743  aa  162 162 157 162
    013744  aa  040 150 141 163
    013745  aa  040 157 143 143
    013746  aa  165 162 162 145
    013747  aa  144 040 151 156
    013750  aa  040 151 156 151
    013751  aa  164 151 141 154
    013752  aa  040 143 157 156
    013753  aa  156 145 143 164
    013754  aa  151 157 156 056

                                  1009  ec  net_icp_not_concluded,stillicp,
                                  1010  	(The initial connection has not yet been completed.)
                        000622          	segdef  net_icp_not_concluded
    000622  a0   077777 013757
    013755  aa  163 164 151 154         	aci  "stillicp",8
    013756  aa  154 151 143 160
    013757  aa  062 124 150 145         	acc  "The initial connection has not yet been completed."
    013760  aa  040 151 156 151
    013761  aa  164 151 141 154
    013762  aa  040 143 157 156
    013763  aa  156 145 143 164
    013764  aa  151 157 156 040
    013765  aa  150 141 163 040
    013766  aa  156 157 164 040
    013767  aa  171 145 164 040
    013770  aa  142 145 145 156
    013771  aa  040 143 157 155
    013772  aa  160 154 145 164
    013773  aa  145 144 056 000

                                  1011  ec  net_invalid_state,netstate,
                                  1012  	(Request is inconsistent with state of socket.)
                        000623          	segdef  net_invalid_state
    000623  a0   077777 013776
    013774  aa  156 145 164 163         	aci  "netstate",8
    013775  aa  164 141 164 145
    013776  aa  055 122 145 161         	acc  "Request is inconsistent with state of socket."
    013777  aa  165 145 163 164
    014000  aa  040 151 163 040
    014001  aa  151 156 143 157
    014002  aa  156 163 151 163
    014003  aa  164 145 156 164
    014004  aa  040 167 151 164
    014005  aa  150 040 163 164
    014006  aa  141 164 145 040
    014007  aa  157 146 040 163
    014010  aa  157 143 153 145
    014011  aa  164 056 000 000

                                  1013  ec  net_no_connect_permission,noconect,
                                  1014  	(Process lacks permission to initiate Network connections.)
                        000624          	segdef  net_no_connect_permission
    000624  a0   077777 014014
    014012  aa  156 157 143 157         	aci  "noconect",8
    014013  aa  156 145 143 164
    014014  aa  071 120 162 157         	acc  "Process lacks permission to initiate Network connections."
    014015  aa  143 145 163 163
    014016  aa  040 154 141 143
    014017  aa  153 163 040 160
    014020  aa  145 162 155 151
    014021  aa  163 163 151 157
    014022  aa  156 040 164 157
    014023  aa  040 151 156 151
    014024  aa  164 151 141 164
    014025  aa  145 040 116 145
    014026  aa  164 167 157 162
    014027  aa  153 040 143 157
    014030  aa  156 156 145 143
    014031  aa  164 151 157 156
    014032  aa  163 056 000 000

                                  1015  ec  net_no_icp,no_icp,
                                  1016  	(There is no initial connection in progress from this socket.)
                        000625          	segdef  net_no_icp
    000625  a0   077777 014035
    014033  aa  156 157 137 151         	aci  "no_icp",8
    014034  aa  143 160 040 040
    014035  aa  074 124 150 145         	acc  "There is no initial connection in progress from this socket."
    014036  aa  162 145 040 151
    014037  aa  163 040 156 157
    014040  aa  040 151 156 151
    014041  aa  164 151 141 154
    014042  aa  040 143 157 156
    014043  aa  156 145 143 164
    014044  aa  151 157 156 040
    014045  aa  151 156 040 160
    014046  aa  162 157 147 162
    014047  aa  145 163 163 040
    014050  aa  146 162 157 155
    014051  aa  040 164 150 151
    014052  aa  163 040 163 157
    014053  aa  143 153 145 164
    014054  aa  056 000 000 000

                                  1017  ec  net_not_up,netnotup,
                                  1018  	(Network Control Program not in operation.)
                        000626          	segdef  net_not_up
    000626  a0   077777 014057
    014055  aa  156 145 164 156         	aci  "netnotup",8
    014056  aa  157 164 165 160
    014057  aa  051 116 145 164         	acc  "Network Control Program not in operation."
    014060  aa  167 157 162 153
    014061  aa  040 103 157 156
    014062  aa  164 162 157 154
    014063  aa  040 120 162 157
    014064  aa  147 162 141 155
    014065  aa  040 156 157 164
    014066  aa  040 151 156 040
    014067  aa  157 160 145 162
    014070  aa  141 164 151 157
    014071  aa  156 056 000 000

                                  1019  ec  net_rfc_refused,refused,
                                  1020  	(Request for connection refused by foreign host.)
                        000627          	segdef  net_rfc_refused
    000627  a0   077777 014074
    014072  aa  162 145 146 165         	aci  "refused",8
    014073  aa  163 145 144 040
    014074  aa  057 122 145 161         	acc  "Request for connection refused by foreign host."
    014075  aa  165 145 163 164
    014076  aa  040 146 157 162
    014077  aa  040 143 157 156
    014100  aa  156 145 143 164
    014101  aa  151 157 156 040
    014102  aa  162 145 146 165
    014103  aa  163 145 144 040
    014104  aa  142 171 040 146
    014105  aa  157 162 145 151
    014106  aa  147 156 040 150
    014107  aa  157 163 164 056

                                  1021  ec  net_socket_closed,netclose,
                                  1022  	(Network connection closed by foreign host.)
                        000630          	segdef  net_socket_closed
    000630  a0   077777 014112
    014110  aa  156 145 164 143         	aci  "netclose",8
    014111  aa  154 157 163 145
    014112  aa  052 116 145 164         	acc  "Network connection closed by foreign host."
    014113  aa  167 157 162 153
    014114  aa  040 143 157 156
    014115  aa  156 145 143 164
    014116  aa  151 157 156 040
    014117  aa  143 154 157 163
    014120  aa  145 144 040 142
    014121  aa  171 040 146 157
    014122  aa  162 145 151 147
    014123  aa  156 040 150 157
    014124  aa  163 164 056 000

                                  1023  ec  net_socket_not_found,netsockf,
                                  1024  	(Specified socket not found in network data base.)
                        000631          	segdef  net_socket_not_found
    000631  a0   077777 014127
    014125  aa  156 145 164 163         	aci  "netsockf",8
    014126  aa  157 143 153 146
    014127  aa  060 123 160 145         	acc  "Specified socket not found in network data base."
    014130  aa  143 151 146 151
    014131  aa  145 144 040 163
    014132  aa  157 143 153 145
    014133  aa  164 040 156 157
    014134  aa  164 040 146 157
    014135  aa  165 156 144 040
    014136  aa  151 156 040 156
    014137  aa  145 164 167 157
    014140  aa  162 153 040 144
    014141  aa  141 164 141 040
    014142  aa  142 141 163 145
    014143  aa  056 000 000 000

                                  1025  ec  net_table_space,nettblsp,
                                  1026  	(The NCP could not find a free table entry for this request.)
                        000632          	segdef  net_table_space
    000632  a0   077777 014146
    014144  aa  156 145 164 164         	aci  "nettblsp",8
    014145  aa  142 154 163 160
    014146  aa  073 124 150 145         	acc  "The NCP could not find a free table entry for this request."
    014147  aa  040 116 103 120
    014150  aa  040 143 157 165
    014151  aa  154 144 040 156
    014152  aa  157 164 040 146
    014153  aa  151 156 144 040
    014154  aa  141 040 146 162
    014155  aa  145 145 040 164
    014156  aa  141 142 154 145
    014157  aa  040 145 156 164
    014160  aa  162 171 040 146
    014161  aa  157 162 040 164
    014162  aa  150 151 163 040
    014163  aa  162 145 161 165
    014164  aa  145 163 164 056

                                  1027  ec  net_timeout,nettime,
                                  1028  	(Connection not completed within specified time interval.)
                        000633          	segdef  net_timeout
    000633  a0   077777 014167
    014165  aa  156 145 164 164         	aci  "nettime",8
    014166  aa  151 155 145 040
    014167  aa  070 103 157 156         	acc  "Connection not completed within specified time interval."
    014170  aa  156 145 143 164
    014171  aa  151 157 156 040
    014172  aa  156 157 164 040
    014173  aa  143 157 155 160
    014174  aa  154 145 164 145
    014175  aa  144 040 167 151
    014176  aa  164 150 151 156
    014177  aa  040 163 160 145
    014200  aa  143 151 146 151
    014201  aa  145 144 040 164
    014202  aa  151 155 145 040
    014203  aa  151 156 164 145
    014204  aa  162 166 141 154
    014205  aa  056 000 000 000

                                  1029  ec  new_offset_negative,newofneg,
                                  1030  	(New offset for pointer computed by seek entry is negative.)
                        000634          	segdef  new_offset_negative
    000634  a0   077777 014210
    014206  aa  156 145 167 157         	aci  "newofneg",8
    014207  aa  146 156 145 147
    014210  aa  072 116 145 167         	acc  "New offset for pointer computed by seek entry is negative."
    014211  aa  040 157 146 146
    014212  aa  163 145 164 040
    014213  aa  146 157 162 040
    014214  aa  160 157 151 156
    014215  aa  164 145 162 040
    014216  aa  143 157 155 160
    014217  aa  165 164 145 144
    014220  aa  040 142 171 040
    014221  aa  163 145 145 153
    014222  aa  040 145 156 164
    014223  aa  162 171 040 151
    014224  aa  163 040 156 145
    014225  aa  147 141 164 151
    014226  aa  166 145 056 000

                                  1031  ec  new_search_list,new_sl,
                                  1032  	(A new search list was created.)
                        000635          	segdef  new_search_list
    000635  a0   077777 014231
    014227  aa  156 145 167 137         	aci  "new_sl",8
    014230  aa  163 154 040 040
    014231  aa  036 101 040 156         	acc  "A new search list was created."
    014232  aa  145 167 040 163
    014233  aa  145 141 162 143
    014234  aa  150 040 154 151
    014235  aa  163 164 040 167
    014236  aa  141 163 040 143
    014237  aa  162 145 141 164
    014240  aa  145 144 056 000

                                  1033  ec  newnamerr,newname,
                                  1034  	(User name to be added to acl not acceptable to storage system.)
                        000636          	segdef  newnamerr
    000636  a0   077777 014243
    014241  aa  156 145 167 156         	aci  "newname",8
    014242  aa  141 155 145 040
    014243  aa  076 125 163 145         	acc  "User name to be added to acl not acceptable to storage system."
    014244  aa  162 040 156 141
    014245  aa  155 145 040 164
    014246  aa  157 040 142 145
    014247  aa  040 141 144 144
    014250  aa  145 144 040 164
    014251  aa  157 040 141 143
    014252  aa  154 040 156 157
    014253  aa  164 040 141 143
    014254  aa  143 145 160 164
    014255  aa  141 142 154 145
    014256  aa  040 164 157 040
    014257  aa  163 164 157 162
    014260  aa  141 147 145 040
    014261  aa  163 171 163 164
    014262  aa  145 155 056 000

                                  1035  ec  nine_mode_parity,par9md,
                                  1036  	(Attempt to write invalid data in 9 mode.)
                        000637          	segdef  nine_mode_parity
    000637  a0   077777 014265
    014263  aa  160 141 162 071         	aci  "par9md",8
    014264  aa  155 144 040 040
    014265  aa  050 101 164 164         	acc  "Attempt to write invalid data in 9 mode."
    014266  aa  145 155 160 164
    014267  aa  040 164 157 040
    014270  aa  167 162 151 164
    014271  aa  145 040 151 156
    014272  aa  166 141 154 151
    014273  aa  144 040 144 141
    014274  aa  164 141 040 151
    014275  aa  156 040 071 040
    014276  aa  155 157 144 145
    014277  aa  056 000 000 000

                                  1037  ec  no_a_permission,no_a,
                                  1038  	(Append permission missing on directory.)
                        000640          	segdef  no_a_permission
    000640  a0   077777 014302
    014300  aa  156 157 137 141         	aci  "no_a",8
    014301  aa  040 040 040 040
    014302  aa  047 101 160 160         	acc  "Append permission missing on directory."
    014303  aa  145 156 144 040
    014304  aa  160 145 162 155
    014305  aa  151 163 163 151
    014306  aa  157 156 040 155
    014307  aa  151 163 163 151
    014310  aa  156 147 040 157
    014311  aa  156 040 144 151
    014312  aa  162 145 143 164
    014313  aa  157 162 171 056

                                  1039  ec  no_append,noappend,
                                  1040  	(Append permission missing.)
                        000641          	segdef  no_append
    000641  a0   077777 014316
    014314  aa  156 157 141 160         	aci  "noappend",8
    014315  aa  160 145 156 144
    014316  aa  032 101 160 160         	acc  "Append permission missing."
    014317  aa  145 156 144 040
    014320  aa  160 145 162 155
    014321  aa  151 163 163 151
    014322  aa  157 156 040 155
    014323  aa  151 163 163 151
    014324  aa  156 147 056 000

                                  1041  ec  no_appropriate_device,noappdev,
                                  1042  	(No appropriate device is available.)
                        000642          	segdef  no_appropriate_device
    000642  a0   077777 014327
    014325  aa  156 157 141 160         	aci  "noappdev",8
    014326  aa  160 144 145 166
    014327  aa  043 116 157 040         	acc  "No appropriate device is available."
    014330  aa  141 160 160 162
    014331  aa  157 160 162 151
    014332  aa  141 164 145 040
    014333  aa  144 145 166 151
    014334  aa  143 145 040 151
    014335  aa  163 040 141 166
    014336  aa  141 151 154 141
    014337  aa  142 154 145 056

                                  1043  ec  no_archive_for_equal,noaceql,
                                  1044  	(No archive name in original pathname corresponding to equal name.)
                        000643          	segdef  no_archive_for_equal
    000643  a0   077777 014342
    014340  aa  156 157 141 143         	aci  "noaceql",8
    014341  aa  145 161 154 040
    014342  aa  101 116 157 040         	acc  "No archive name in original pathname corresponding to equal name."
    014343  aa  141 162 143 150
    014344  aa  151 166 145 040
    014345  aa  156 141 155 145
    014346  aa  040 151 156 040
    014347  aa  157 162 151 147
    014350  aa  151 156 141 154
    014351  aa  040 160 141 164
    014352  aa  150 156 141 155
    014353  aa  145 040 143 157
    014354  aa  162 162 145 163
    014355  aa  160 157 156 144
    014356  aa  151 156 147 040
    014357  aa  164 157 040 145
    014360  aa  161 165 141 154
    014361  aa  040 156 141 155
    014362  aa  145 056 000 000

                                  1045  ec  no_backspace,nobacksp,
                                  1046  	(Requested tape backspace unsuccessful.)
                        000644          	segdef  no_backspace
    000644  a0   077777 014365
    014363  aa  156 157 142 141         	aci  "nobacksp",8
    014364  aa  143 153 163 160
    014365  aa  046 122 145 161         	acc  "Requested tape backspace unsuccessful."
    014366  aa  165 145 163 164
    014367  aa  145 144 040 164
    014370  aa  141 160 145 040
    014371  aa  142 141 143 153
    014372  aa  163 160 141 143
    014373  aa  145 040 165 156
    014374  aa  163 165 143 143
    014375  aa  145 163 163 146
    014376  aa  165 154 056 000

                                  1047  ec  no_base_chnl_active,nobaschn,
                                  1048            (Cannot add channel with its associated base channel inactive.)
                        000645          	segdef  no_base_chnl_active
    000645  a0   077777 014401
    014377  aa  156 157 142 141         	aci  "nobaschn",8
    014400  aa  163 143 150 156
    014401  aa  075 103 141 156         	acc  "Cannot add channel with its associated base channel inactive."
    014402  aa  156 157 164 040
    014403  aa  141 144 144 040
    014404  aa  143 150 141 156
    014405  aa  156 145 154 040
    014406  aa  167 151 164 150
    014407  aa  040 151 164 163
    014410  aa  040 141 163 163
    014411  aa  157 143 151 141
    014412  aa  164 145 144 040
    014413  aa  142 141 163 145
    014414  aa  040 143 150 141
    014415  aa  156 156 145 154
    014416  aa  040 151 156 141
    014417  aa  143 164 151 166
    014420  aa  145 056 000 000

                                  1049  ec  no_channel_meters,nochanm,
                                  1050  	(No meters available for the specified channel.)
                        000646          	segdef  no_channel_meters
    000646  a0   077777 014423
    014421  aa  156 157 143 150         	aci  "nochanm",8
    014422  aa  141 156 155 040
    014423  aa  056 116 157 040         	acc  "No meters available for the specified channel."
    014424  aa  155 145 164 145
    014425  aa  162 163 040 141
    014426  aa  166 141 151 154
    014427  aa  141 142 154 145
    014430  aa  040 146 157 162
    014431  aa  040 164 150 145
    014432  aa  040 163 160 145
    014433  aa  143 151 146 151
    014434  aa  145 144 040 143
    014435  aa  150 141 156 156
    014436  aa  145 154 056 000

                                  1051  ec  no_component,no_comp,
                                  1052  	(Component not found in archive.)
                        000647          	segdef  no_component
    000647  a0   077777 014441
    014437  aa  156 157 137 143         	aci  "no_comp",8
    014440  aa  157 155 160 040
    014441  aa  037 103 157 155         	acc  "Component not found in archive."
    014442  aa  160 157 156 145
    014443  aa  156 164 040 156
    014444  aa  157 164 040 146
    014445  aa  157 165 156 144
    014446  aa  040 151 156 040
    014447  aa  141 162 143 150
    014450  aa  151 166 145 056

                                  1053  ec  no_connection,noconect,
                                  1054  	(Unable to complete connection to external device.)
                        000650          	segdef  no_connection
    000650  a0   077777 014453
    014451  aa  156 157 143 157         	aci  "noconect",8
    014452  aa  156 145 143 164
    014453  aa  061 125 156 141         	acc  "Unable to complete connection to external device."
    014454  aa  142 154 145 040
    014455  aa  164 157 040 143
    014456  aa  157 155 160 154
    014457  aa  145 164 145 040
    014460  aa  143 157 156 156
    014461  aa  145 143 164 151
    014462  aa  157 156 040 164
    014463  aa  157 040 145 170
    014464  aa  164 145 162 156
    014465  aa  141 154 040 144
    014466  aa  145 166 151 143
    014467  aa  145 056 000 000

                                  1055  ec  no_cpus_online,nocpus,
                                  1056  	(The requested group of CPUs contains none which are online.)
                        000651          	segdef  no_cpus_online
    000651  a0   077777 014472
    014470  aa  156 157 143 160         	aci  "nocpus",8
    014471  aa  165 163 040 040
    014472  aa  073 124 150 145         	acc  "The requested group of CPUs contains none which are online."
    014473  aa  040 162 145 161
    014474  aa  165 145 163 164
    014475  aa  145 144 040 147
    014476  aa  162 157 165 160
    014477  aa  040 157 146 040
    014500  aa  103 120 125 163
    014501  aa  040 143 157 156
    014502  aa  164 141 151 156
    014503  aa  163 040 156 157
    014504  aa  156 145 040 167
    014505  aa  150 151 143 150
    014506  aa  040 141 162 145
    014507  aa  040 157 156 154
    014510  aa  151 156 145 056

                                  1057  ec  no_create_copy,nocreate,
                                  1058  	(Unable to create a copy.)
                        000652          	segdef  no_create_copy
    000652  a0   077777 014513
    014511  aa  156 157 143 162         	aci  "nocreate",8
    014512  aa  145 141 164 145
    014513  aa  030 125 156 141         	acc  "Unable to create a copy."
    014514  aa  142 154 145 040
    014515  aa  164 157 040 143
    014516  aa  162 145 141 164
    014517  aa  145 040 141 040
    014520  aa  143 157 160 171
    014521  aa  056 000 000 000

                                  1059  ec  no_current_record,nocurrec,
                                  1060  	(There is no current record.)
                        000653          	segdef  no_current_record
    000653  a0   077777 014524
    014522  aa  156 157 143 165         	aci  "nocurrec",8
    014523  aa  162 162 145 143
    014524  aa  033 124 150 145         	acc  "There is no current record."
    014525  aa  162 145 040 151
    014526  aa  163 040 156 157
    014527  aa  040 143 165 162
    014530  aa  162 145 156 164
    014531  aa  040 162 145 143
    014532  aa  157 162 144 056

                                  1061  ec  no_defs,nolkdefs,
                                  1062  	(Bad definitions pointer in linkage.)
                        000654          	segdef  no_defs
    000654  a0   077777 014535
    014533  aa  156 157 154 153         	aci  "nolkdefs",8
    014534  aa  144 145 146 163
    014535  aa  043 102 141 144         	acc  "Bad definitions pointer in linkage."
    014536  aa  040 144 145 146
    014537  aa  151 156 151 164
    014540  aa  151 157 156 163
    014541  aa  040 160 157 151
    014542  aa  156 164 145 162
    014543  aa  040 151 156 040
    014544  aa  154 151 156 153
    014545  aa  141 147 145 056

                                  1063  ec  no_delimiter,nodelim,
                                  1064  	(No delimiters found in segment to be sorted.)
                        000655          	segdef  no_delimiter
    000655  a0   077777 014550
    014546  aa  156 157 144 145         	aci  "nodelim",8
    014547  aa  154 151 155 040
    014550  aa  054 116 157 040         	acc  "No delimiters found in segment to be sorted."
    014551  aa  144 145 154 151
    014552  aa  155 151 164 145
    014553  aa  162 163 040 146
    014554  aa  157 165 156 144
    014555  aa  040 151 156 040
    014556  aa  163 145 147 155
    014557  aa  145 156 164 040
    014560  aa  164 157 040 142
    014561  aa  145 040 163 157
    014562  aa  162 164 145 144
    014563  aa  056 000 000 000

                                  1065  ec  no_device,nodevice,
                                  1066  	(No device currently available for attachment.)
                        000656          	segdef  no_device
    000656  a0   077777 014566
    014564  aa  156 157 144 145         	aci  "nodevice",8
    014565  aa  166 151 143 145
    014566  aa  055 116 157 040         	acc  "No device currently available for attachment."
    014567  aa  144 145 166 151
    014570  aa  143 145 040 143
    014571  aa  165 162 162 145
    014572  aa  156 164 154 171
    014573  aa  040 141 166 141
    014574  aa  151 154 141 142
    014575  aa  154 145 040 146
    014576  aa  157 162 040 141
    014577  aa  164 164 141 143
    014600  aa  150 155 145 156
    014601  aa  164 056 000 000

                                  1067  ec  no_dialok,^dialok,
                                  1068  	(The process does not have permission to make dial requests.)
                        000657          	segdef  no_dialok
    000657  a0   077777 014604
    014602  aa  136 144 151 141         	aci  "^dialok",8
    014603  aa  154 157 153 040
    014604  aa  073 124 150 145         	acc  "The process does not have permission to make dial requests."
    014605  aa  040 160 162 157
    014606  aa  143 145 163 163
    014607  aa  040 144 157 145
    014610  aa  163 040 156 157
    014611  aa  164 040 150 141
    014612  aa  166 145 040 160
    014613  aa  145 162 155 151
    014614  aa  163 163 151 157
    014615  aa  156 040 164 157
    014616  aa  040 155 141 153
    014617  aa  145 040 144 151
    014620  aa  141 154 040 162
    014621  aa  145 161 165 145
    014622  aa  163 164 163 056

                                  1069  ec (no_dir,noaccess),nodir,
                                  1070  	(Some directory in path specified does not exist.)
                        000660          	segdef  no_dir
                        000660          	segdef  noaccess
    000660  a0   077777 014625
    014623  aa  156 157 144 151         	aci  "nodir",8
    014624  aa  162 040 040 040
    014625  aa  060 123 157 155         	acc  "Some directory in path specified does not exist."
    014626  aa  145 040 144 151
    014627  aa  162 145 143 164
    014630  aa  157 162 171 040
    014631  aa  151 156 040 160
    014632  aa  141 164 150 040
    014633  aa  163 160 145 143
    014634  aa  151 146 151 145
    014635  aa  144 040 144 157
    014636  aa  145 163 040 156
    014637  aa  157 164 040 145
    014640  aa  170 151 163 164
    014641  aa  056 000 000 000

                                  1071  ec  no_disconnected_processes,nodiscpr,
                                  1072  	(You have no disconnected processes.)
                        000661          	segdef  no_disconnected_processes
    000661  a0   077777 014644
    014642  aa  156 157 144 151         	aci  "nodiscpr",8
    014643  aa  163 143 160 162
    014644  aa  043 131 157 165         	acc  "You have no disconnected processes."
    014645  aa  040 150 141 166
    014646  aa  145 040 156 157
    014647  aa  040 144 151 163
    014650  aa  143 157 156 156
    014651  aa  145 143 164 145
    014652  aa  144 040 160 162
    014653  aa  157 143 145 163
    014654  aa  163 145 163 056

                                  1073  ec  no_e_permission,no_e,
                                  1074  	(No execute permission on entry.)
                        000662          	segdef  no_e_permission
    000662  a0   077777 014657
    014655  aa  156 157 137 145         	aci  "no_e",8
    014656  aa  040 040 040 040
    014657  aa  037 116 157 040         	acc  "No execute permission on entry."
    014660  aa  145 170 145 143
    014661  aa  165 164 145 040
    014662  aa  160 145 162 155
    014663  aa  151 163 163 151
    014664  aa  157 156 040 157
    014665  aa  156 040 145 156
    014666  aa  164 162 171 056

                                  1075  ec  no_ext_sym,noextsym,
                                  1076  	(External symbol not found.)
                        000663          	segdef  no_ext_sym
    000663  a0   077777 014671
    014667  aa  156 157 145 170         	aci  "noextsym",8
    014670  aa  164 163 171 155
    014671  aa  032 105 170 164         	acc  "External symbol not found."
    014672  aa  145 162 156 141
    014673  aa  154 040 163 171
    014674  aa  155 142 157 154
    014675  aa  040 156 157 164
    014676  aa  040 146 157 165
    014677  aa  156 144 056 000

                                  1077  ec  no_file,no_file,
                                  1078  	(File does not exist.)
                        000664          	segdef  no_file
    000664  a0   077777 014702
    014700  aa  156 157 137 146         	aci  "no_file",8
    014701  aa  151 154 145 040
    014702  aa  024 106 151 154         	acc  "File does not exist."
    014703  aa  145 040 144 157
    014704  aa  145 163 040 156
    014705  aa  157 164 040 145
    014706  aa  170 151 163 164
    014707  aa  056 000 000 000

                                  1079  ec  no_fim_flag,nofmflg,
                                  1080  	(The FIM flag was not set in the preceding stack frame.)
                        000665          	segdef  no_fim_flag
    000665  a0   077777 014712
    014710  aa  156 157 146 155         	aci  "nofmflg",8
    014711  aa  146 154 147 040
    014712  aa  066 124 150 145         	acc  "The FIM flag was not set in the preceding stack frame."
    014713  aa  040 106 111 115
    014714  aa  040 146 154 141
    014715  aa  147 040 167 141
    014716  aa  163 040 156 157
    014717  aa  164 040 163 145
    014720  aa  164 040 151 156
    014721  aa  040 164 150 145
    014722  aa  040 160 162 145
    014723  aa  143 145 144 151
    014724  aa  156 147 040 163
    014725  aa  164 141 143 153
    014726  aa  040 146 162 141
    014727  aa  155 145 056 000

                                  1081  ec  no_handler,nohand,
                                  1082  	(No unclaimed signal handler specified for this process.)
                        000666          	segdef  no_handler
    000666  a0   077777 014732
    014730  aa  156 157 150 141         	aci  "nohand",8
    014731  aa  156 144 040 040
    014732  aa  067 116 157 040         	acc  "No unclaimed signal handler specified for this process."
    014733  aa  165 156 143 154
    014734  aa  141 151 155 145
    014735  aa  144 040 163 151
    014736  aa  147 156 141 154
    014737  aa  040 150 141 156
    014740  aa  144 154 145 162
    014741  aa  040 163 160 145
    014742  aa  143 151 146 151
    014743  aa  145 144 040 146
    014744  aa  157 162 040 164
    014745  aa  150 151 163 040
    014746  aa  160 162 157 143
    014747  aa  145 163 163 056

                                  1083  ec  no_heap_defined,nohpdef,
                                  1084  	(The heap has not been defined at this execution level.)
                        000667          	segdef  no_heap_defined
    000667  a0   077777 014752
    014750  aa  156 157 150 160         	aci  "nohpdef",8
    014751  aa  144 145 146 040
    014752  aa  066 124 150 145         	acc  "The heap has not been defined at this execution level."
    014753  aa  040 150 145 141
    014754  aa  160 040 150 141
    014755  aa  163 040 156 157
    014756  aa  164 040 142 145
    014757  aa  145 156 040 144
    014760  aa  145 146 151 156
    014761  aa  145 144 040 141
    014762  aa  164 040 164 150
    014763  aa  151 163 040 145
    014764  aa  170 145 143 165
    014765  aa  164 151 157 156
    014766  aa  040 154 145 166
    014767  aa  145 154 056 000

                                  1085  ec  no_heap_sym,nohpsym,
                                  1086  	(Heap symbol not found.)
                        000670          	segdef  no_heap_sym
    000670  a0   077777 014772
    014770  aa  156 157 150 160         	aci  "nohpsym",8
    014771  aa  163 171 155 040
    014772  aa  026 110 145 141         	acc  "Heap symbol not found."
    014773  aa  160 040 163 171
    014774  aa  155 142 157 154
    014775  aa  040 156 157 164
    014776  aa  040 146 157 165
    014777  aa  156 144 056 000

                                  1087  ec  no_info,noinfo,
                                  1088  	(Insufficient access to return any information.)
                        000671          	segdef  no_info
    000671  a0   077777 015002
    015000  aa  156 157 151 156         	aci  "noinfo",8
    015001  aa  146 157 040 040
    015002  aa  056 111 156 163         	acc  "Insufficient access to return any information."
    015003  aa  165 146 146 151
    015004  aa  143 151 145 156
    015005  aa  164 040 141 143
    015006  aa  143 145 163 163
    015007  aa  040 164 157 040
    015010  aa  162 145 164 165
    015011  aa  162 156 040 141
    015012  aa  156 171 040 151
    015013  aa  156 146 157 162
    015014  aa  155 141 164 151
    015015  aa  157 156 056 000

                                  1089  ec  no_initial_string,no_istr,
                                  1090  	(No initial string defined for terminal type.)
                        000672          	segdef  no_initial_string
    000672  a0   077777 015020
    015016  aa  156 157 137 151         	aci  "no_istr",8
    015017  aa  163 164 162 040
    015020  aa  054 116 157 040         	acc  "No initial string defined for terminal type."
    015021  aa  151 156 151 164
    015022  aa  151 141 154 040
    015023  aa  163 164 162 151
    015024  aa  156 147 040 144
    015025  aa  145 146 151 156
    015026  aa  145 144 040 146
    015027  aa  157 162 040 164
    015030  aa  145 162 155 151
    015031  aa  156 141 154 040
    015032  aa  164 171 160 145
    015033  aa  056 000 000 000

                                  1091  ec  no_io_interrupt,noiointr,
                                  1092  	(No interrupt was received on the designated IO channel.)
                        000673          	segdef  no_io_interrupt
    000673  a0   077777 015036
    015034  aa  156 157 151 157         	aci  "noiointr",8
    015035  aa  151 156 164 162
    015036  aa  067 116 157 040         	acc  "No interrupt was received on the designated IO channel."
    015037  aa  151 156 164 145
    015040  aa  162 162 165 160
    015041  aa  164 040 167 141
    015042  aa  163 040 162 145
    015043  aa  143 145 151 166
    015044  aa  145 144 040 157
    015045  aa  156 040 164 150
    015046  aa  145 040 144 145
    015047  aa  163 151 147 156
    015050  aa  141 164 145 144
    015051  aa  040 111 117 040
    015052  aa  143 150 141 156
    015053  aa  156 145 154 056

                                  1093  ec  no_io_page_tables,noiopts,
                                  1094  	(Unable to allocate an I/O page table.)
                        000674          	segdef  no_io_page_tables
    000674  a0   077777 015056
    015054  aa  156 157 151 157         	aci  "noiopts",8
    015055  aa  160 164 163 040
    015056  aa  045 125 156 141         	acc  "Unable to allocate an I/O page table."
    015057  aa  142 154 145 040
    015060  aa  164 157 040 141
    015061  aa  154 154 157 143
    015062  aa  141 164 145 040
    015063  aa  141 156 040 111
    015064  aa  057 117 040 160
    015065  aa  141 147 145 040
    015066  aa  164 141 142 154
    015067  aa  145 056 000 000

                                  1095  ec  no_iocb,no_iocb,
                                  1096  	(No I/O switch.)
                        000675          	segdef  no_iocb
    000675  a0   077777 015072
    015070  aa  156 157 137 151         	aci  "no_iocb",8
    015071  aa  157 143 142 040
    015072  aa  016 116 157 040         	acc  "No I/O switch."
    015073  aa  111 057 117 040
    015074  aa  163 167 151 164
    015075  aa  143 150 056 000

                                  1097  ec  no_journals_free,nojrfree,
                                  1098  	(There are no free Data Management journals indices.)
                        000676          	segdef  no_journals_free
    000676  a0   077777 015100
    015076  aa  156 157 152 162         	aci  "nojrfree",8
    015077  aa  146 162 145 145
    015100  aa  063 124 150 145         	acc  "There are no free Data Management journals indices."
    015101  aa  162 145 040 141
    015102  aa  162 145 040 156
    015103  aa  157 040 146 162
    015104  aa  145 145 040 104
    015105  aa  141 164 141 040
    015106  aa  115 141 156 141
    015107  aa  147 145 155 145
    015110  aa  156 164 040 152
    015111  aa  157 165 162 156
    015112  aa  141 154 163 040
    015113  aa  151 156 144 151
    015114  aa  143 145 163 056

                                  1099  ec  no_key,no_key,
                                  1100  	(No key defined for this operation.)
                        000677          	segdef  no_key
    000677  a0   077777 015117
    015115  aa  156 157 137 153         	aci  "no_key",8
    015116  aa  145 171 040 040
    015117  aa  042 116 157 040         	acc  "No key defined for this operation."
    015120  aa  153 145 171 040
    015121  aa  144 145 146 151
    015122  aa  156 145 144 040
    015123  aa  146 157 162 040
    015124  aa  164 150 151 163
    015125  aa  040 157 160 145
    015126  aa  162 141 164 151
    015127  aa  157 156 056 000

                                  1101  ec  no_label,no_label,
                                  1102  	(Specified detachable volume has no label.)
                        000700          	segdef  no_label
    000700  a0   077777 015132
    015130  aa  156 157 137 154         	aci  "no_label",8
    015131  aa  141 142 145 154
    015132  aa  051 123 160 145         	acc  "Specified detachable volume has no label."
    015133  aa  143 151 146 151
    015134  aa  145 144 040 144
    015135  aa  145 164 141 143
    015136  aa  150 141 142 154
    015137  aa  145 040 166 157
    015140  aa  154 165 155 145
    015141  aa  040 150 141 163
    015142  aa  040 156 157 040
    015143  aa  154 141 142 145
    015144  aa  154 056 000 000

                                  1103  ec  no_line_status,nolinstt,
                                  1104  	(No line_status information available.)
                        000701          	segdef  no_line_status
    000701  a0   077777 015147
    015145  aa  156 157 154 151         	aci  "nolinstt",8
    015146  aa  156 163 164 164
    015147  aa  045 116 157 040         	acc  "No line_status information available."
    015150  aa  154 151 156 145
    015151  aa  137 163 164 141
    015152  aa  164 165 163 040
    015153  aa  151 156 146 157
    015154  aa  162 155 141 164
    015155  aa  151 157 156 040
    015156  aa  141 166 141 151
    015157  aa  154 141 142 154
    015160  aa  145 056 000 000

                                  1105  ec  no_linkage,nolksect,
                                  1106  	(Linkage section not found.)
                        000702          	segdef  no_linkage
    000702  a0   077777 015163
    015161  aa  156 157 154 153         	aci  "nolksect",8
    015162  aa  163 145 143 164
    015163  aa  032 114 151 156         	acc  "Linkage section not found."
    015164  aa  153 141 147 145
    015165  aa  040 163 145 143
    015166  aa  164 151 157 156
    015167  aa  040 156 157 164
    015170  aa  040 146 157 165
    015171  aa  156 144 056 000

                                  1107  ec  no_log_message,lognomsg,
                                  1108            (The requested log message cannot be located.)
                        000703          	segdef  no_log_message
    000703  a0   077777 015174
    015172  aa  154 157 147 156         	aci  "lognomsg",8
    015173  aa  157 155 163 147
    015174  aa  054 124 150 145         	acc  "The requested log message cannot be located."
    015175  aa  040 162 145 161
    015176  aa  165 145 163 164
    015177  aa  145 144 040 154
    015200  aa  157 147 040 155
    015201  aa  145 163 163 141
    015202  aa  147 145 040 143
    015203  aa  141 156 156 157
    015204  aa  164 040 142 145
    015205  aa  040 154 157 143
    015206  aa  141 164 145 144
    015207  aa  056 000 000 000

                                  1109  ec  no_m_permission,no_m,
                                  1110  	(Modify permission missing on entry.)
                        000704          	segdef  no_m_permission
    000704  a0   077777 015212
    015210  aa  156 157 137 155         	aci  "no_m",8
    015211  aa  040 040 040 040
    015212  aa  043 115 157 144         	acc  "Modify permission missing on entry."
    015213  aa  151 146 171 040
    015214  aa  160 145 162 155
    015215  aa  151 163 163 151
    015216  aa  157 156 040 155
    015217  aa  151 163 163 151
    015220  aa  156 147 040 157
    015221  aa  156 040 145 156
    015222  aa  164 162 171 056

                                  1111  ec  no_makeknown,nomkknwn,
                                  1112  	(Unable to make original segment known.)
                        000705          	segdef  no_makeknown
    000705  a0   077777 015225
    015223  aa  156 157 155 153         	aci  "nomkknwn",8
    015224  aa  153 156 167 156
    015225  aa  046 125 156 141         	acc  "Unable to make original segment known."
    015226  aa  142 154 145 040
    015227  aa  164 157 040 155
    015230  aa  141 153 145 040
    015231  aa  157 162 151 147
    015232  aa  151 156 141 154
    015233  aa  040 163 145 147
    015234  aa  155 145 156 164
    015235  aa  040 153 156 157
    015236  aa  167 156 056 000

                                  1113  ec  no_memory_for_scavenge,nomemsc,
                                  1114  	(Insufficient memory for volume scavenge.)
                        000706          	segdef  no_memory_for_scavenge
    000706  a0   077777 015241
    015237  aa  156 157 155 145         	aci  "nomemsc",8
    015240  aa  155 163 143 040
    015241  aa  050 111 156 163         	acc  "Insufficient memory for volume scavenge."
    015242  aa  165 146 146 151
    015243  aa  143 151 145 156
    015244  aa  164 040 155 145
    015245  aa  155 157 162 171
    015246  aa  040 146 157 162
    015247  aa  040 166 157 154
    015250  aa  165 155 145 040
    015251  aa  163 143 141 166
    015252  aa  145 156 147 145
    015253  aa  056 000 000 000

                                  1115  ec  no_message,nomsg,
                                  1116  	(Message not found.)
                        000707          	segdef  no_message
    000707  a0   077777 015256
    015254  aa  156 157 155 163         	aci  "nomsg",8
    015255  aa  147 040 040 040
    015256  aa  022 115 145 163         	acc  "Message not found."
    015257  aa  163 141 147 145
    015260  aa  040 156 157 164
    015261  aa  040 146 157 165
    015262  aa  156 144 056 000

                                  1117  ec  no_move,no_move,
                                  1118  	(Unable to move segment because of type, access or quota.)
                        000710          	segdef  no_move
    000710  a0   077777 015265
    015263  aa  156 157 137 155         	aci  "no_move",8
    015264  aa  157 166 145 040
    015265  aa  070 125 156 141         	acc  "Unable to move segment because of type, access or quota."
    015266  aa  142 154 145 040
    015267  aa  164 157 040 155
    015270  aa  157 166 145 040
    015271  aa  163 145 147 155
    015272  aa  145 156 164 040
    015273  aa  142 145 143 141
    015274  aa  165 163 145 040
    015275  aa  157 146 040 164
    015276  aa  171 160 145 054
    015277  aa  040 141 143 143
    015300  aa  145 163 163 040
    015301  aa  157 162 040 161
    015302  aa  165 157 164 141
    015303  aa  056 000 000 000

                                  1119  ec  no_next_volume,nonxtvol,
                                  1120  	(Unable to continue processing on next volume.)
                        000711          	segdef  no_next_volume
    000711  a0   077777 015306
    015304  aa  156 157 156 170         	aci  "nonxtvol",8
    015305  aa  164 166 157 154
    015306  aa  055 125 156 141         	acc  "Unable to continue processing on next volume."
    015307  aa  142 154 145 040
    015310  aa  164 157 040 143
    015311  aa  157 156 164 151
    015312  aa  156 165 145 040
    015313  aa  160 162 157 143
    015314  aa  145 163 163 151
    015315  aa  156 147 040 157
    015316  aa  156 040 156 145
    015317  aa  170 164 040 166
    015320  aa  157 154 165 155
    015321  aa  145 056 000 000

                                  1121  ec  no_null_refnames,nonullrf,
                                  1122            (The segment was not initiated with any null reference names.)
                        000712          	segdef  no_null_refnames
    000712  a0   077777 015324
    015322  aa  156 157 156 165         	aci  "nonullrf",8
    015323  aa  154 154 162 146
    015324  aa  074 124 150 145         	acc  "The segment was not initiated with any null reference names."
    015325  aa  040 163 145 147
    015326  aa  155 145 156 164
    015327  aa  040 167 141 163
    015330  aa  040 156 157 164
    015331  aa  040 151 156 151
    015332  aa  164 151 141 164
    015333  aa  145 144 040 167
    015334  aa  151 164 150 040
    015335  aa  141 156 171 040
    015336  aa  156 165 154 154
    015337  aa  040 162 145 146
    015340  aa  145 162 145 156
    015341  aa  143 145 040 156
    015342  aa  141 155 145 163
    015343  aa  056 000 000 000

                                  1123  ec  no_odd_areas,no_odd,
                                  1124  	(An area may not begin at an odd address.)
                        000713          	segdef  no_odd_areas
    000713  a0   077777 015346
    015344  aa  156 157 137 157         	aci  "no_odd",8
    015345  aa  144 144 040 040
    015346  aa  050 101 156 040         	acc  "An area may not begin at an odd address."
    015347  aa  141 162 145 141
    015350  aa  040 155 141 171
    015351  aa  040 156 157 164
    015352  aa  040 142 145 147
    015353  aa  151 156 040 141
    015354  aa  164 040 141 156
    015355  aa  040 157 144 144
    015356  aa  040 141 144 144
    015357  aa  162 145 163 163
    015360  aa  056 000 000 000

                                  1125  ec  no_operation,no_oper,
                                  1126  	(Invalid I/O operation.)
                        000714          	segdef  no_operation
    000714  a0   077777 015363
    015361  aa  156 157 137 157         	aci  "no_oper",8
    015362  aa  160 145 162 040
    015363  aa  026 111 156 166         	acc  "Invalid I/O operation."
    015364  aa  141 154 151 144
    015365  aa  040 111 057 117
    015366  aa  040 157 160 145
    015367  aa  162 141 164 151
    015370  aa  157 156 056 000

                                  1127  ec  no_r_permission,no_r,
                                  1128  	(No read permission on entry.)
                        000715          	segdef  no_r_permission
    000715  a0   077777 015373
    015371  aa  156 157 137 162         	aci  "no_r",8
    015372  aa  040 040 040 040
    015373  aa  034 116 157 040         	acc  "No read permission on entry."
    015374  aa  162 145 141 144
    015375  aa  040 160 145 162
    015376  aa  155 151 163 163
    015377  aa  151 157 156 040
    015400  aa  157 156 040 145
    015401  aa  156 164 162 171
    015402  aa  056 000 000 000

                                  1129  ec  no_record,no_rec,
                                  1130  	(Record not located.)
                        000716          	segdef  no_record
    000716  a0   077777 015405
    015403  aa  156 157 137 162         	aci  "no_rec",8
    015404  aa  145 143 040 040
    015405  aa  023 122 145 143         	acc  "Record not located."
    015406  aa  157 162 144 040
    015407  aa  156 157 164 040
    015410  aa  154 157 143 141
    015411  aa  164 145 144 056

                                  1131  ec  no_restart,norestrt,
                                  1132  	(Supplied machine conditions are not restartable.)
                        000717          	segdef  no_restart
    000717  a0   077777 015414
    015412  aa  156 157 162 145         	aci  "norestrt",8
    015413  aa  163 164 162 164
    015414  aa  060 123 165 160         	acc  "Supplied machine conditions are not restartable."
    015415  aa  160 154 151 145
    015416  aa  144 040 155 141
    015417  aa  143 150 151 156
    015420  aa  145 040 143 157
    015421  aa  156 144 151 164
    015422  aa  151 157 156 163
    015423  aa  040 141 162 145
    015424  aa  040 156 157 164
    015425  aa  040 162 145 163
    015426  aa  164 141 162 164
    015427  aa  141 142 154 145
    015430  aa  056 000 000 000

                                  1133  ec  no_room_for_dsb,nrmdsb,
                                  1134  	(No room available for device status block.)
                        000720          	segdef  no_room_for_dsb
    000720  a0   077777 015433
    015431  aa  156 162 155 144         	aci  "nrmdsb",8
    015432  aa  163 142 040 040
    015433  aa  052 116 157 040         	acc  "No room available for device status block."
    015434  aa  162 157 157 155
    015435  aa  040 141 166 141
    015436  aa  151 154 141 142
    015437  aa  154 145 040 146
    015440  aa  157 162 040 144
    015441  aa  145 166 151 143
    015442  aa  145 040 163 164
    015443  aa  141 164 165 163
    015444  aa  040 142 154 157
    015445  aa  143 153 056 000

                                  1135  ec  no_room_for_lock,cantlock,
                                  1136  	(The record block is too small to contain a lock.)
                        000721          	segdef  no_room_for_lock
    000721  a0   077777 015450
    015446  aa  143 141 156 164         	aci  "cantlock",8
    015447  aa  154 157 143 153
    015450  aa  060 124 150 145         	acc  "The record block is too small to contain a lock."
    015451  aa  040 162 145 143
    015452  aa  157 162 144 040
    015453  aa  142 154 157 143
    015454  aa  153 040 151 163
    015455  aa  040 164 157 157
    015456  aa  040 163 155 141
    015457  aa  154 154 040 164
    015460  aa  157 040 143 157
    015461  aa  156 164 141 151
    015462  aa  156 040 141 040
    015463  aa  154 157 143 153
    015464  aa  056 000 000 000

                                  1137  ec  no_s_permission,no_s,
                                  1138  	(Status permission missing on directory containing entry.)
                        000722          	segdef  no_s_permission
    000722  a0   077777 015467
    015465  aa  156 157 137 163         	aci  "no_s",8
    015466  aa  040 040 040 040
    015467  aa  070 123 164 141         	acc  "Status permission missing on directory containing entry."
    015470  aa  164 165 163 040
    015471  aa  160 145 162 155
    015472  aa  151 163 163 151
    015473  aa  157 156 040 155
    015474  aa  151 163 163 151
    015475  aa  156 147 040 157
    015476  aa  156 040 144 151
    015477  aa  162 145 143 164
    015500  aa  157 162 171 040
    015501  aa  143 157 156 164
    015502  aa  141 151 156 151
    015503  aa  156 147 040 145
    015504  aa  156 164 162 171
    015505  aa  056 000 000 000

                                  1139  ec  no_search_list,nosrls,
                                  1140  	(Search list is not in search segment.)
                        000723          	segdef  no_search_list
    000723  a0   077777 015510
    015506  aa  156 157 163 162         	aci  "nosrls",8
    015507  aa  154 163 040 040
    015510  aa  045 123 145 141         	acc  "Search list is not in search segment."
    015511  aa  162 143 150 040
    015512  aa  154 151 163 164
    015513  aa  040 151 163 040
    015514  aa  156 157 164 040
    015515  aa  151 156 040 163
    015516  aa  145 141 162 143
    015517  aa  150 040 163 145
    015520  aa  147 155 145 156
    015521  aa  164 056 000 000

                                  1141  ec  no_search_list_default,no_sldef,
                                  1142  	(Search list has no default.)
                        000724          	segdef  no_search_list_default
    000724  a0   077777 015524
    015522  aa  156 157 137 163         	aci  "no_sldef",8
    015523  aa  154 144 145 146
    015524  aa  033 123 145 141         	acc  "Search list has no default."
    015525  aa  162 143 150 040
    015526  aa  154 151 163 164
    015527  aa  040 150 141 163
    015530  aa  040 156 157 040
    015531  aa  144 145 146 141
    015532  aa  165 154 164 056

                                  1143  ec  no_set_btcnt,nosetbc,
                                  1144  	(Unable to set the bit count on the copy.)
                        000725          	segdef  no_set_btcnt
    000725  a0   077777 015535
    015533  aa  156 157 163 145         	aci  "nosetbc",8
    015534  aa  164 142 143 040
    015535  aa  050 125 156 141         	acc  "Unable to set the bit count on the copy."
    015536  aa  142 154 145 040
    015537  aa  164 157 040 163
    015540  aa  145 164 040 164
    015541  aa  150 145 040 142
    015542  aa  151 164 040 143
    015543  aa  157 165 156 164
    015544  aa  040 157 156 040
    015545  aa  164 150 145 040
    015546  aa  143 157 160 171
    015547  aa  056 000 000 000

                                  1145  ec  no_stmt_delim,no_delim,
                                  1146  	(A statement delimiter is missing.)
                        000726          	segdef  no_stmt_delim
    000726  a0   077777 015552
    015550  aa  156 157 137 144         	aci  "no_delim",8
    015551  aa  145 154 151 155
    015552  aa  041 101 040 163         	acc  "A statement delimiter is missing."
    015553  aa  164 141 164 145
    015554  aa  155 145 156 164
    015555  aa  040 144 145 154
    015556  aa  151 155 151 164
    015557  aa  145 162 040 151
    015560  aa  163 040 155 151
    015561  aa  163 163 151 156
    015562  aa  147 056 000 000

                                  1147  ec  no_table,no_table,
                                  1148  	(The specified table does not exist.)
                        000727          	segdef  no_table
    000727  a0   077777 015565
    015563  aa  156 157 137 164         	aci  "no_table",8
    015564  aa  141 142 154 145
    015565  aa  043 124 150 145         	acc  "The specified table does not exist."
    015566  aa  040 163 160 145
    015567  aa  143 151 146 151
    015570  aa  145 144 040 164
    015571  aa  141 142 154 145
    015572  aa  040 144 157 145
    015573  aa  163 040 156 157
    015574  aa  164 040 145 170
    015575  aa  151 163 164 056

                                  1149  ec  no_term_type,notrmtyp,
                                  1150  	(Unknown terminal type.)
                        000730          	segdef  no_term_type
    000730  a0   077777 015600
    015576  aa  156 157 164 162         	aci  "notrmtyp",8
    015577  aa  155 164 171 160
    015600  aa  026 125 156 153         	acc  "Unknown terminal type."
    015601  aa  156 157 167 156
    015602  aa  040 164 145 162
    015603  aa  155 151 156 141
    015604  aa  154 040 164 171
    015605  aa  160 145 056 000

                                  1151  ec  no_terminal_quota,notrmq,
                                  1152            (An upgraded directory must have terminal quota.)
                        000731          	segdef  no_terminal_quota
    000731  a0   077777 015610
    015606  aa  156 157 164 162         	aci  "notrmq",8
    015607  aa  155 161 040 040
    015610  aa  057 101 156 040         	acc  "An upgraded directory must have terminal quota."
    015611  aa  165 160 147 162
    015612  aa  141 144 145 144
    015613  aa  040 144 151 162
    015614  aa  145 143 164 157
    015615  aa  162 171 040 155
    015616  aa  165 163 164 040
    015617  aa  150 141 166 145
    015620  aa  040 164 145 162
    015621  aa  155 151 156 141
    015622  aa  154 040 161 165
    015623  aa  157 164 141 056

                                  1153  ec  no_trap_proc,notrproc,
                                  1154  	(Cannot find procedure to call link trap procedure.)
                        000732          	segdef  no_trap_proc
    000732  a0   077777 015626
    015624  aa  156 157 164 162         	aci  "notrproc",8
    015625  aa  160 162 157 143
    015626  aa  062 103 141 156         	acc  "Cannot find procedure to call link trap procedure."
    015627  aa  156 157 164 040
    015630  aa  146 151 156 144
    015631  aa  040 160 162 157
    015632  aa  143 145 144 165
    015633  aa  162 145 040 164
    015634  aa  157 040 143 141
    015635  aa  154 154 040 154
    015636  aa  151 156 153 040
    015637  aa  164 162 141 160
    015640  aa  040 160 162 157
    015641  aa  143 145 144 165
    015642  aa  162 145 056 000

                                  1155  ec  no_vla_support,novlasup,
                                  1156  	(The system does not currently support very large array common.)
                        000733          	segdef  no_vla_support
    000733  a0   077777 015645
    015643  aa  156 157 166 154         	aci  "novlasup",8
    015644  aa  141 163 165 160
    015645  aa  076 124 150 145         	acc  "The system does not currently support very large array common."
    015646  aa  040 163 171 163
    015647  aa  164 145 155 040
    015650  aa  144 157 145 163
    015651  aa  040 156 157 164
    015652  aa  040 143 165 162
    015653  aa  162 145 156 164
    015654  aa  154 171 040 163
    015655  aa  165 160 160 157
    015656  aa  162 164 040 166
    015657  aa  145 162 171 040
    015660  aa  154 141 162 147
    015661  aa  145 040 141 162
    015662  aa  162 141 171 040
    015663  aa  143 157 155 155
    015664  aa  157 156 056 000

                                  1157  ec  no_w_permission,no_w,
                                  1158  	(No write permission on entry.)
                        000734          	segdef  no_w_permission
    000734  a0   077777 015667
    015665  aa  156 157 137 167         	aci  "no_w",8
    015666  aa  040 040 040 040
    015667  aa  035 116 157 040         	acc  "No write permission on entry."
    015670  aa  167 162 151 164
    015671  aa  145 040 160 145
    015672  aa  162 155 151 163
    015673  aa  163 151 157 156
    015674  aa  040 157 156 040
    015675  aa  145 156 164 162
    015676  aa  171 056 000 000

                                  1159  ec  no_wdir,no_wdir,
                                  1160  	(No working directory set for this process.)
                        000735          	segdef  no_wdir
    000735  a0   077777 015701
    015677  aa  156 157 137 167         	aci  "no_wdir",8
    015700  aa  144 151 162 040
    015701  aa  052 116 157 040         	acc  "No working directory set for this process."
    015702  aa  167 157 162 153
    015703  aa  151 156 147 040
    015704  aa  144 151 162 145
    015705  aa  143 164 157 162
    015706  aa  171 040 163 145
    015707  aa  164 040 146 157
    015710  aa  162 040 164 150
    015711  aa  151 163 040 160
    015712  aa  162 157 143 145
    015713  aa  163 163 056 000

                                  1161  ec  no_wired_structure,nowirebf,
                                  1162  	(No wired structure could be allocated for this device request.)
                        000736          	segdef  no_wired_structure
    000736  a0   077777 015716
    015714  aa  156 157 167 151         	aci  "nowirebf",8
    015715  aa  162 145 142 146
    015716  aa  076 116 157 040         	acc  "No wired structure could be allocated for this device request."
    015717  aa  167 151 162 145
    015720  aa  144 040 163 164
    015721  aa  162 165 143 164
    015722  aa  165 162 145 040
    015723  aa  143 157 165 154
    015724  aa  144 040 142 145
    015725  aa  040 141 154 154
    015726  aa  157 143 141 164
    015727  aa  145 144 040 146
    015730  aa  157 162 040 164
    015731  aa  150 151 163 040
    015732  aa  144 145 166 151
    015733  aa  143 145 040 162
    015734  aa  145 161 165 145
    015735  aa  163 164 056 000

                                  1163  ec  noalloc,,
                                  1164  	(There is no room to make requested allocations.)
                        000737          	segdef  noalloc
    000737  a0   077777 015740
    015736  aa  156 157 141 154         	aci  "noalloc",8
    015737  aa  154 157 143 040
    015740  aa  057 124 150 145         	acc  "There is no room to make requested allocations."
    015741  aa  162 145 040 151
    015742  aa  163 040 156 157
    015743  aa  040 162 157 157
    015744  aa  155 040 164 157
    015745  aa  040 155 141 153
    015746  aa  145 040 162 145
    015747  aa  161 165 145 163
    015750  aa  164 145 144 040
    015751  aa  141 154 154 157
    015752  aa  143 141 164 151
    015753  aa  157 156 163 056

                                  1165  ec  noarg,,
                                  1166  	(Expected argument missing.)
                        000740          	segdef  noarg
    000740  a0   077777 015756
    015754  aa  156 157 141 162         	aci  "noarg",8
    015755  aa  147 040 040 040
    015756  aa  032 105 170 160         	acc  "Expected argument missing."
    015757  aa  145 143 164 145
    015760  aa  144 040 141 162
    015761  aa  147 165 155 145
    015762  aa  156 164 040 155
    015763  aa  151 163 163 151
    015764  aa  156 147 056 000

                                  1167  ec  nodescr,,
                                  1168  	(Expected argument descriptor missing.)
                        000741          	segdef  nodescr
    000741  a0   077777 015767
    015765  aa  156 157 144 145         	aci  "nodescr",8
    015766  aa  163 143 162 040
    015767  aa  045 105 170 160         	acc  "Expected argument descriptor missing."
    015770  aa  145 143 164 145
    015771  aa  144 040 141 162
    015772  aa  147 165 155 145
    015773  aa  156 164 040 144
    015774  aa  145 163 143 162
    015775  aa  151 160 164 157
    015776  aa  162 040 155 151
    015777  aa  163 163 151 156
    016000  aa  147 056 000 000

                                  1169  ec  noentry,,
                                  1170  	(Entry not found.)
                        000742          	segdef  noentry
    000742  a0   077777 016003
    016001  aa  156 157 145 156         	aci  "noentry",8
    016002  aa  164 162 171 040
    016003  aa  020 105 156 164         	acc  "Entry not found."
    016004  aa  162 171 040 156
    016005  aa  157 164 040 146
    016006  aa  157 165 156 144
    016007  aa  056 000 000 000

                                  1171  ec  nolinkag,,
                                  1172  	(No/bad linkage info in the lot for this segment.)
                        000743          	segdef  nolinkag
    000743  a0   077777 016012
    016010  aa  156 157 154 151         	aci  "nolinkag",8
    016011  aa  156 153 141 147
    016012  aa  060 116 157 057         	acc  "No/bad linkage info in the lot for this segment."
    016013  aa  142 141 144 040
    016014  aa  154 151 156 153
    016015  aa  141 147 145 040
    016016  aa  151 156 146 157
    016017  aa  040 151 156 040
    016020  aa  164 150 145 040
    016021  aa  154 157 164 040
    016022  aa  146 157 162 040
    016023  aa  164 150 151 163
    016024  aa  040 163 145 147
    016025  aa  155 145 156 164
    016026  aa  056 000 000 000

                                  1173  ec  nolot,,
                                  1174  	(No linkage offset table in this ring.)
                        000744          	segdef  nolot
    000744  a0   077777 016031
    016027  aa  156 157 154 157         	aci  "nolot",8
    016030  aa  164 040 040 040
    016031  aa  045 116 157 040         	acc  "No linkage offset table in this ring."
    016032  aa  154 151 156 153
    016033  aa  141 147 145 040
    016034  aa  157 146 146 163
    016035  aa  145 164 040 164
    016036  aa  141 142 154 145
    016037  aa  040 151 156 040
    016040  aa  164 150 151 163
    016041  aa  040 162 151 156
    016042  aa  147 056 000 000

                                  1175  ec  nomatch,,
                                  1176  	(Use of star convention resulted in no match.)
                        000745          	segdef  nomatch
    000745  a0   077777 016045
    016043  aa  156 157 155 141         	aci  "nomatch",8
    016044  aa  164 143 150 040
    016045  aa  054 125 163 145         	acc  "Use of star convention resulted in no match."
    016046  aa  040 157 146 040
    016047  aa  163 164 141 162
    016050  aa  040 143 157 156
    016051  aa  166 145 156 164
    016052  aa  151 157 156 040
    016053  aa  162 145 163 165
    016054  aa  154 164 145 144
    016055  aa  040 151 156 040
    016056  aa  156 157 040 155
    016057  aa  141 164 143 150
    016060  aa  056 000 000 000

                                  1177  ec  non_matching_uid,bad_uid,
                                  1178  	(Unique id of segment does not match unique id argument.)
                        000746          	segdef  non_matching_uid
    000746  a0   077777 016063
    016061  aa  142 141 144 137         	aci  "bad_uid",8
    016062  aa  165 151 144 040
    016063  aa  067 125 156 151         	acc  "Unique id of segment does not match unique id argument."
    016064  aa  161 165 145 040
    016065  aa  151 144 040 157
    016066  aa  146 040 163 145
    016067  aa  147 155 145 156
    016070  aa  164 040 144 157
    016071  aa  145 163 040 156
    016072  aa  157 164 040 155
    016073  aa  141 164 143 150
    016074  aa  040 165 156 151
    016075  aa  161 165 145 040
    016076  aa  151 144 040 141
    016077  aa  162 147 165 155
    016100  aa  145 156 164 056

                                  1179  ec  nonamerr,noname,
                                  1180  	(The operation would leave no names on entry.)
                        000747          	segdef  nonamerr
    000747  a0   077777 016103
    016101  aa  156 157 156 141         	aci  "noname",8
    016102  aa  155 145 040 040
    016103  aa  054 124 150 145         	acc  "The operation would leave no names on entry."
    016104  aa  040 157 160 145
    016105  aa  162 141 164 151
    016106  aa  157 156 040 167
    016107  aa  157 165 154 144
    016110  aa  040 154 145 141
    016111  aa  166 145 040 156
    016112  aa  157 040 156 141
    016113  aa  155 145 163 040
    016114  aa  157 156 040 145
    016115  aa  156 164 162 171
    016116  aa  056 000 000 000

                                  1181  ec  nondirseg,ndirseg,
                                  1182  	(This operation is not allowed for a segment.)
                        000750          	segdef  nondirseg
    000750  a0   077777 016121
    016117  aa  156 144 151 162         	aci  "ndirseg",8
    016120  aa  163 145 147 040
    016121  aa  054 124 150 151         	acc  "This operation is not allowed for a segment."
    016122  aa  163 040 157 160
    016123  aa  145 162 141 164
    016124  aa  151 157 156 040
    016125  aa  151 163 040 156
    016126  aa  157 164 040 141
    016127  aa  154 154 157 167
    016130  aa  145 144 040 146
    016131  aa  157 162 040 141
    016132  aa  040 163 145 147
    016133  aa  155 145 156 164
    016134  aa  056 000 000 000

                                  1183  ec  nopart,nopart,
                                  1184  	(The partition was not found.)
                        000751          	segdef  nopart
    000751  a0   077777 016137
    016135  aa  156 157 160 141         	aci  "nopart",8
    016136  aa  162 164 040 040
    016137  aa  034 124 150 145         	acc  "The partition was not found."
    016140  aa  040 160 141 162
    016141  aa  164 151 164 151
    016142  aa  157 156 040 167
    016143  aa  141 163 040 156
    016144  aa  157 164 040 146
    016145  aa  157 165 156 144
    016146  aa  056 000 000 000

                                  1185  ec  noprtdmp,,
                                  1186  	(No part dump card in config deck.)
                        000752          	segdef  noprtdmp
    000752  a0   077777 016151
    016147  aa  156 157 160 162         	aci  "noprtdmp",8
    016150  aa  164 144 155 160
    016151  aa  041 116 157 040         	acc  "No part dump card in config deck."
    016152  aa  160 141 162 164
    016153  aa  040 144 165 155
    016154  aa  160 040 143 141
    016155  aa  162 144 040 151
    016156  aa  156 040 143 157
    016157  aa  156 146 151 147
    016160  aa  040 144 145 143
    016161  aa  153 056 000 000

                                  1187  ec  nostars,nostars,
                                  1188  	(Star convention is not allowed.)
                        000753          	segdef  nostars
    000753  a0   077777 016164
    016162  aa  156 157 163 164         	aci  "nostars",8
    016163  aa  141 162 163 040
    016164  aa  037 123 164 141         	acc  "Star convention is not allowed."
    016165  aa  162 040 143 157
    016166  aa  156 166 145 156
    016167  aa  164 151 157 156
    016170  aa  040 151 163 040
    016171  aa  156 157 164 040
    016172  aa  141 154 154 157
    016173  aa  167 145 144 056

                                  1189  ec  not_a_branch,notbrnch,
                                  1190  	(Entry is not a branch.)
                        000754          	segdef  not_a_branch
    000754  a0   077777 016176
    016174  aa  156 157 164 142         	aci  "notbrnch",8
    016175  aa  162 156 143 150
    016176  aa  026 105 156 164         	acc  "Entry is not a branch."
    016177  aa  162 171 040 151
    016200  aa  163 040 156 157
    016201  aa  164 040 141 040
    016202  aa  142 162 141 156
    016203  aa  143 150 056 000

                                  1191  ec  not_a_valid_iocb,badiocb,
                                  1192  	(The supplied pointer does not point to a valid IOCB.)
                        000755          	segdef  not_a_valid_iocb
    000755  a0   077777 016206
    016204  aa  142 141 144 151         	aci  "badiocb",8
    016205  aa  157 143 142 040
    016206  aa  064 124 150 145         	acc  "The supplied pointer does not point to a valid IOCB."
    016207  aa  040 163 165 160
    016210  aa  160 154 151 145
    016211  aa  144 040 160 157
    016212  aa  151 156 164 145
    016213  aa  162 040 144 157
    016214  aa  145 163 040 156
    016215  aa  157 164 040 160
    016216  aa  157 151 156 164
    016217  aa  040 164 157 040
    016220  aa  141 040 166 141
    016221  aa  154 151 144 040
    016222  aa  111 117 103 102
    016223  aa  056 000 000 000

                                  1193  ec  not_a_wait_channel,notwait,
                                  1194  	(Event channel is not a wait channel.)
                        000756          	segdef  not_a_wait_channel
    000756  a0   077777 016226
    016224  aa  156 157 164 167         	aci  "notwait",8
    016225  aa  141 151 164 040
    016226  aa  044 105 166 145         	acc  "Event channel is not a wait channel."
    016227  aa  156 164 040 143
    016230  aa  150 141 156 156
    016231  aa  145 154 040 151
    016232  aa  163 040 156 157
    016233  aa  164 040 141 040
    016234  aa  167 141 151 164
    016235  aa  040 143 150 141
    016236  aa  156 156 145 154
    016237  aa  056 000 000 000

                                  1195  ec  not_abs_path,^abspath,
                                  1196  	(Pathname supplied is not an absolute pathname.)
                        000757          	segdef  not_abs_path
    000757  a0   077777 016242
    016240  aa  136 141 142 163         	aci  "^abspath",8
    016241  aa  160 141 164 150
    016242  aa  056 120 141 164         	acc  "Pathname supplied is not an absolute pathname."
    016243  aa  150 156 141 155
    016244  aa  145 040 163 165
    016245  aa  160 160 154 151
    016246  aa  145 144 040 151
    016247  aa  163 040 156 157
    016250  aa  164 040 141 156
    016251  aa  040 141 142 163
    016252  aa  157 154 165 164
    016253  aa  145 040 160 141
    016254  aa  164 150 156 141
    016255  aa  155 145 056 000

                                  1197  ec  not_act_fnc,not_af,
                                  1198  	(This active function cannot be invoked as a command.)
                        000760          	segdef  not_act_fnc
    000760  a0   077777 016260
    016256  aa  156 157 164 137         	aci  "not_af",8
    016257  aa  141 146 040 040
    016260  aa  064 124 150 151         	acc  "This active function cannot be invoked as a command."
    016261  aa  163 040 141 143
    016262  aa  164 151 166 145
    016263  aa  040 146 165 156
    016264  aa  143 164 151 157
    016265  aa  156 040 143 141
    016266  aa  156 156 157 164
    016267  aa  040 142 145 040
    016270  aa  151 156 166 157
    016271  aa  153 145 144 040
    016272  aa  141 163 040 141
    016273  aa  040 143 157 155
    016274  aa  155 141 156 144
    016275  aa  056 000 000 000

                                  1199  ec  not_archive,not_arch,
                                  1200  	(Segment is not an archive.)
                        000761          	segdef  not_archive
    000761  a0   077777 016300
    016276  aa  156 157 164 137         	aci  "not_arch",8
    016277  aa  141 162 143 150
    016300  aa  032 123 145 147         	acc  "Segment is not an archive."
    016301  aa  155 145 156 164
    016302  aa  040 151 163 040
    016303  aa  156 157 164 040
    016304  aa  141 156 040 141
    016305  aa  162 143 150 151
    016306  aa  166 145 056 000

                                  1201  ec  not_attached,notattch,
                                  1202  	(I/O switch (or device) is not attached.)
                        000762          	segdef  not_attached
    000762  a0   077777 016311
    016307  aa  156 157 164 141         	aci  "notattch",8
    016310  aa  164 164 143 150
    016311  aa  047 111 057 117         	acc  "I/O switch (or device) is not attached."
    016312  aa  040 163 167 151
    016313  aa  164 143 150 040
    016314  aa  050 157 162 040
    016315  aa  144 145 166 151
    016316  aa  143 145 051 040
    016317  aa  151 163 040 156
    016320  aa  157 164 040 141
    016321  aa  164 164 141 143
    016322  aa  150 145 144 056

                                  1203  ec  not_base_channel,not_base,
                                  1204  	(Specified channel is not a base channel.)
                        000763          	segdef  not_base_channel
    000763  a0   077777 016325
    016323  aa  156 157 164 137         	aci  "not_base",8
    016324  aa  142 141 163 145
    016325  aa  050 123 160 145         	acc  "Specified channel is not a base channel."
    016326  aa  143 151 146 151
    016327  aa  145 144 040 143
    016330  aa  150 141 156 156
    016331  aa  145 154 040 151
    016332  aa  163 040 156 157
    016333  aa  164 040 141 040
    016334  aa  142 141 163 145
    016335  aa  040 143 150 141
    016336  aa  156 156 145 154
    016337  aa  056 000 000 000

                                  1205  ec  not_bound,notbound,
                                  1206  	(Segment is not bound.)
                        000764          	segdef  not_bound
    000764  a0   077777 016342
    016340  aa  156 157 164 142         	aci  "notbound",8
    016341  aa  157 165 156 144
    016342  aa  025 123 145 147         	acc  "Segment is not bound."
    016343  aa  155 145 156 164
    016344  aa  040 151 163 040
    016345  aa  156 157 164 040
    016346  aa  142 157 165 156
    016347  aa  144 056 000 000

                                  1207  ec  not_closed,not_clsd,
                                  1208  	(I/O switch is not closed.)
                        000765          	segdef  not_closed
    000765  a0   077777 016352
    016350  aa  156 157 164 137         	aci  "not_clsd",8
    016351  aa  143 154 163 144
    016352  aa  031 111 057 117         	acc  "I/O switch is not closed."
    016353  aa  040 163 167 151
    016354  aa  164 143 150 040
    016355  aa  151 163 040 156
    016356  aa  157 164 040 143
    016357  aa  154 157 163 145
    016360  aa  144 056 000 000

                                  1209  ec  not_detached,not_det,
                                  1210  	(I/O switch is not detached.)
                        000766          	segdef  not_detached
    000766  a0   077777 016363
    016361  aa  156 157 164 137         	aci  "not_det",8
    016362  aa  144 145 164 040
    016363  aa  033 111 057 117         	acc  "I/O switch is not detached."
    016364  aa  040 163 167 151
    016365  aa  164 143 150 040
    016366  aa  151 163 040 156
    016367  aa  157 164 040 144
    016370  aa  145 164 141 143
    016371  aa  150 145 144 056

                                  1211  ec  not_dm_ring,notdmrg,
                                  1212  	(The validation level is higher than the Data Management ring.)
                        000767          	segdef  not_dm_ring
    000767  a0   077777 016374
    016372  aa  156 157 164 144         	aci  "notdmrg",8
    016373  aa  155 162 147 040
    016374  aa  075 124 150 145         	acc  "The validation level is higher than the Data Management ring."
    016375  aa  040 166 141 154
    016376  aa  151 144 141 164
    016377  aa  151 157 156 040
    016400  aa  154 145 166 145
    016401  aa  154 040 151 163
    016402  aa  040 150 151 147
    016403  aa  150 145 162 040
    016404  aa  164 150 141 156
    016405  aa  040 164 150 145
    016406  aa  040 104 141 164
    016407  aa  141 040 115 141
    016410  aa  156 141 147 145
    016411  aa  155 145 156 164
    016412  aa  040 162 151 156
    016413  aa  147 056 000 000

                                  1213  ec  not_done,not_done,
                                  1214  	(Not processed.)
                        000770          	segdef  not_done
    000770  a0   077777 016416
    016414  aa  156 157 164 137         	aci  "not_done",8
    016415  aa  144 157 156 145
    016416  aa  016 116 157 164         	acc  "Not processed."
    016417  aa  040 160 162 157
    016420  aa  143 145 163 163
    016421  aa  145 144 056 000

                                  1215  ec  not_in_trace_table,notintbl,
                                  1216  	(Entry not found in trace table.)
                        000771          	segdef  not_in_trace_table
    000771  a0   077777 016424
    016422  aa  156 157 164 151         	aci  "notintbl",8
    016423  aa  156 164 142 154
    016424  aa  037 105 156 164         	acc  "Entry not found in trace table."
    016425  aa  162 171 040 156
    016426  aa  157 164 040 146
    016427  aa  157 165 156 144
    016430  aa  040 151 156 040
    016431  aa  164 162 141 143
    016432  aa  145 040 164 141
    016433  aa  142 154 145 056

                                  1217  ec  not_initialized,notinit,
                                  1218  	(Initialization has not been performed.)
                        000772          	segdef  not_initialized
    000772  a0   077777 016436
    016434  aa  156 157 164 151         	aci  "notinit",8
    016435  aa  156 151 164 040
    016436  aa  046 111 156 151         	acc  "Initialization has not been performed."
    016437  aa  164 151 141 154
    016440  aa  151 172 141 164
    016441  aa  151 157 156 040
    016442  aa  150 141 163 040
    016443  aa  156 157 164 040
    016444  aa  142 145 145 156
    016445  aa  040 160 145 162
    016446  aa  146 157 162 155
    016447  aa  145 144 056 000

                                  1219  ec  not_link,^link,
                                  1220  	(This operation may only be performed on a link entry.)
                        000773          	segdef  not_link
    000773  a0   077777 016452
    016450  aa  136 154 151 156         	aci  "^link",8
    016451  aa  153 040 040 040
    016452  aa  065 124 150 151         	acc  "This operation may only be performed on a link entry."
    016453  aa  163 040 157 160
    016454  aa  145 162 141 164
    016455  aa  151 157 156 040
    016456  aa  155 141 171 040
    016457  aa  157 156 154 171
    016460  aa  040 142 145 040
    016461  aa  160 145 162 146
    016462  aa  157 162 155 145
    016463  aa  144 040 157 156
    016464  aa  040 141 040 154
    016465  aa  151 156 153 040
    016466  aa  145 156 164 162
    016467  aa  171 056 000 000

                                  1221  ec  not_open,not_open,
                                  1222  	(I/O switch is not open.)
                        000774          	segdef  not_open
    000774  a0   077777 016472
    016470  aa  156 157 164 137         	aci  "not_open",8
    016471  aa  157 160 145 156
    016472  aa  027 111 057 117         	acc  "I/O switch is not open."
    016473  aa  040 163 167 151
    016474  aa  164 143 150 040
    016475  aa  151 163 040 156
    016476  aa  157 164 040 157
    016477  aa  160 145 156 056

                                  1223  ec  not_own_message,^ownmsg,
                                  1224  	(The specified message was not added by this user.)
                        000775          	segdef  not_own_message
    000775  a0   077777 016502
    016500  aa  136 157 167 156         	aci  "^ownmsg",8
    016501  aa  155 163 147 040
    016502  aa  061 124 150 145         	acc  "The specified message was not added by this user."
    016503  aa  040 163 160 145
    016504  aa  143 151 146 151
    016505  aa  145 144 040 155
    016506  aa  145 163 163 141
    016507  aa  147 145 040 167
    016510  aa  141 163 040 156
    016511  aa  157 164 040 141
    016512  aa  144 144 145 144
    016513  aa  040 142 171 040
    016514  aa  164 150 151 163
    016515  aa  040 165 163 145
    016516  aa  162 056 000 000

                                  1225  ec  not_privileged,not_priv,
                                  1226  	(This operation requires privileged access not given to this process.)
                        000776          	segdef  not_privileged
    000776  a0   077777 016521
    016517  aa  156 157 164 137         	aci  "not_priv",8
    016520  aa  160 162 151 166
    016521  aa  104 124 150 151         	acc  "This operation requires privileged access not given to this process."
    016522  aa  163 040 157 160
    016523  aa  145 162 141 164
    016524  aa  151 157 156 040
    016525  aa  162 145 161 165
    016526  aa  151 162 145 163
    016527  aa  040 160 162 151
    016530  aa  166 151 154 145
    016531  aa  147 145 144 040
    016532  aa  141 143 143 145
    016533  aa  163 163 040 156
    016534  aa  157 164 040 147
    016535  aa  151 166 145 156
    016536  aa  040 164 157 040
    016537  aa  164 150 151 163
    016540  aa  040 160 162 157
    016541  aa  143 145 163 163
    016542  aa  056 000 000 000

                                  1227  ec  not_ring_0,norng0,
                                  1228  	(Signaller called while not in ring 0.)
                        000777          	segdef  not_ring_0
    000777  a0   077777 016545
    016543  aa  156 157 162 156         	aci  "norng0",8
    016544  aa  147 060 040 040
    016545  aa  045 123 151 147         	acc  "Signaller called while not in ring 0."
    016546  aa  156 141 154 154
    016547  aa  145 162 040 143
    016550  aa  141 154 154 145
    016551  aa  144 040 167 150
    016552  aa  151 154 145 040
    016553  aa  156 157 164 040
    016554  aa  151 156 040 162
    016555  aa  151 156 147 040
    016556  aa  060 056 000 000

                                  1229  ec  not_seg_type,notsegt,
                                  1230  	(Segment not of type specified.)
                        001000          	segdef  not_seg_type
    001000  a0   077777 016561
    016557  aa  156 157 164 163         	aci  "notsegt",8
    016560  aa  145 147 164 040
    016561  aa  036 123 145 147         	acc  "Segment not of type specified."
    016562  aa  155 145 156 164
    016563  aa  040 156 157 164
    016564  aa  040 157 146 040
    016565  aa  164 171 160 145
    016566  aa  040 163 160 145
    016567  aa  143 151 146 151
    016570  aa  145 144 056 000

                                  1231  ec  notadir,,
                                  1232  	(Entry is not a directory.)
                        001001          	segdef  notadir
    001001  a0   077777 016573
    016571  aa  156 157 164 141         	aci  "notadir",8
    016572  aa  144 151 162 040
    016573  aa  031 105 156 164         	acc  "Entry is not a directory."
    016574  aa  162 171 040 151
    016575  aa  163 040 156 157
    016576  aa  164 040 141 040
    016577  aa  144 151 162 145
    016600  aa  143 164 157 162
    016601  aa  171 056 000 000

                                  1233  ec  notalloc,,
                                  1234  	(Allocation could not be performed.)
                        001002          	segdef  notalloc
    001002  a0   077777 016604
    016602  aa  156 157 164 141         	aci  "notalloc",8
    016603  aa  154 154 157 143
    016604  aa  042 101 154 154         	acc  "Allocation could not be performed."
    016605  aa  157 143 141 164
    016606  aa  151 157 156 040
    016607  aa  143 157 165 154
    016610  aa  144 040 156 157
    016611  aa  164 040 142 145
    016612  aa  040 160 145 162
    016613  aa  146 157 162 155
    016614  aa  145 144 056 000

                                  1235  ec  nrmkst,,
                                  1236  	(There is no more room in the KST.)
                        001003          	segdef  nrmkst
    001003  a0   077777 016617
    016615  aa  156 162 155 153         	aci  "nrmkst",8
    016616  aa  163 164 040 040
    016617  aa  041 124 150 145         	acc  "There is no more room in the KST."
    016620  aa  162 145 040 151
    016621  aa  163 040 156 157
    016622  aa  040 155 157 162
    016623  aa  145 040 162 157
    016624  aa  157 155 040 151
    016625  aa  156 040 164 150
    016626  aa  145 040 113 123
    016627  aa  124 056 000 000

                                  1237  ec  null_brackets,nulbrack,
                                  1238  	(Null bracket set encountered.)
                        001004          	segdef  null_brackets
    001004  a0   077777 016632
    016630  aa  156 165 154 142         	aci  "nulbrack",8
    016631  aa  162 141 143 153
    016632  aa  035 116 165 154         	acc  "Null bracket set encountered."
    016633  aa  154 040 142 162
    016634  aa  141 143 153 145
    016635  aa  164 040 163 145
    016636  aa  164 040 145 156
    016637  aa  143 157 165 156
    016640  aa  164 145 162 145
    016641  aa  144 056 000 000

                                  1239  ec  null_dir,nulldir,
                                  1240  	(The directory specified has no branches.)
                        001005          	segdef  null_dir
    001005  a0   077777 016644
    016642  aa  156 165 154 154         	aci  "nulldir",8
    016643  aa  144 151 162 040
    016644  aa  050 124 150 145         	acc  "The directory specified has no branches."
    016645  aa  040 144 151 162
    016646  aa  145 143 164 157
    016647  aa  162 171 040 163
    016650  aa  160 145 143 151
    016651  aa  146 151 145 144
    016652  aa  040 150 141 163
    016653  aa  040 156 157 040
    016654  aa  142 162 141 156
    016655  aa  143 150 145 163
    016656  aa  056 000 000 000

                                  1241  ec  null_info_ptr,noinfopt,
                                  1242  	(Pointer to required information is null.)
                        001006          	segdef  null_info_ptr
    001006  a0   077777 016661
    016657  aa  156 157 151 156         	aci  "noinfopt",8
    016660  aa  146 157 160 164
    016661  aa  050 120 157 151         	acc  "Pointer to required information is null."
    016662  aa  156 164 145 162
    016663  aa  040 164 157 040
    016664  aa  162 145 161 165
    016665  aa  151 162 145 144
    016666  aa  040 151 156 146
    016667  aa  157 162 155 141
    016670  aa  164 151 157 156
    016671  aa  040 151 163 040
    016672  aa  156 165 154 154
    016673  aa  056 000 000 000

                                  1243  ec  null_name_component,nullcomp,
                                  1244  	(The name contains a null component.)
                        001007          	segdef  null_name_component
    001007  a0   077777 016676
    016674  aa  156 165 154 154         	aci  "nullcomp",8
    016675  aa  143 157 155 160
    016676  aa  043 124 150 145         	acc  "The name contains a null component."
    016677  aa  040 156 141 155
    016700  aa  145 040 143 157
    016701  aa  156 164 141 151
    016702  aa  156 163 040 141
    016703  aa  040 156 165 154
    016704  aa  154 040 143 157
    016705  aa  155 160 157 156
    016706  aa  145 156 164 056

                                  1245  ec  obsolete_function,obsfnc,
                                  1246  	(Attempt to perform an operation which is obsolete.)
                        001010          	segdef  obsolete_function
    001010  a0   077777 016711
    016707  aa  157 142 163 146         	aci  "obsfnc",8
    016710  aa  156 143 040 040
    016711  aa  062 101 164 164         	acc  "Attempt to perform an operation which is obsolete."
    016712  aa  145 155 160 164
    016713  aa  040 164 157 040
    016714  aa  160 145 162 146
    016715  aa  157 162 155 040
    016716  aa  141 156 040 157
    016717  aa  160 145 162 141
    016720  aa  164 151 157 156
    016721  aa  040 167 150 151
    016722  aa  143 150 040 151
    016723  aa  163 040 157 142
    016724  aa  163 157 154 145
    016725  aa  164 145 056 000

                                  1247  ec  odd_no_of_args,odd_arg,
                                  1248  	(Odd number of arguments.)
                        001011          	segdef  odd_no_of_args
    001011  a0   077777 016730
    016726  aa  157 144 144 137         	aci  "odd_arg",8
    016727  aa  141 162 147 040
    016730  aa  030 117 144 144         	acc  "Odd number of arguments."
    016731  aa  040 156 165 155
    016732  aa  142 145 162 040
    016733  aa  157 146 040 141
    016734  aa  162 147 165 155
    016735  aa  145 156 164 163
    016736  aa  056 000 000 000

                                  1249  ec  old_dim,old_dim,
                                  1250  	(Old DIM cannot accept new I/O call.)
                        001012          	segdef  old_dim
    001012  a0   077777 016741
    016737  aa  157 154 144 137         	aci  "old_dim",8
    016740  aa  144 151 155 040
    016741  aa  043 117 154 144         	acc  "Old DIM cannot accept new I/O call."
    016742  aa  040 104 111 115
    016743  aa  040 143 141 156
    016744  aa  156 157 164 040
    016745  aa  141 143 143 145
    016746  aa  160 164 040 156
    016747  aa  145 167 040 111
    016750  aa  057 117 040 143
    016751  aa  141 154 154 056

                                  1251  ec  oldnamerr,oldname,
                                  1252  	(Name not found.)
                        001013          	segdef  oldnamerr
    001013  a0   077777 016754
    016752  aa  157 154 144 156         	aci  "oldname",8
    016753  aa  141 155 145 040
    016754  aa  017 116 141 155         	acc  "Name not found."
    016755  aa  145 040 156 157
    016756  aa  164 040 146 157
    016757  aa  165 156 144 056

                                  1253  ec  oldobj,,
                                  1254  	(Obsolete object segment format.)
                        001014          	segdef  oldobj
    001014  a0   077777 016762
    016760  aa  157 154 144 157         	aci  "oldobj",8
    016761  aa  142 152 040 040
    016762  aa  037 117 142 163         	acc  "Obsolete object segment format."
    016763  aa  157 154 145 164
    016764  aa  145 040 157 142
    016765  aa  152 145 143 164
    016766  aa  040 163 145 147
    016767  aa  155 145 156 164
    016770  aa  040 146 157 162
    016771  aa  155 141 164 056

                                  1255  ec  oob_stack,oobstk,
                                  1256  	(User stack space exhausted.)
                        001015          	segdef  oob_stack
    001015  a0   077777 016774
    016772  aa  157 157 142 163         	aci  "oobstk",8
    016773  aa  164 153 040 040
    016774  aa  033 125 163 145         	acc  "User stack space exhausted."
    016775  aa  162 040 163 164
    016776  aa  141 143 153 040
    016777  aa  163 160 141 143
    017000  aa  145 040 145 170
    017001  aa  150 141 165 163
    017002  aa  164 145 144 056

                                  1257  ec  oob_stack_ref,oobstkrf,
                                  1258  	(Attempt to reference beyond end of stack.)
                        001016          	segdef  oob_stack_ref
    001016  a0   077777 017005
    017003  aa  157 157 142 163         	aci  "oobstkrf",8
    017004  aa  164 153 162 146
    017005  aa  051 101 164 164         	acc  "Attempt to reference beyond end of stack."
    017006  aa  145 155 160 164
    017007  aa  040 164 157 040
    017010  aa  162 145 146 145
    017011  aa  162 145 156 143
    017012  aa  145 040 142 145
    017013  aa  171 157 156 144
    017014  aa  040 145 156 144
    017015  aa  040 157 146 040
    017016  aa  163 164 141 143
    017017  aa  153 056 000 000

                                  1259  ec  oosw,oosrv,
                                  1260  	(There was an attempt to reference a directory which is out of service.)
                        001017          	segdef  oosw
    001017  a0   077777 017022
    017020  aa  157 157 163 162         	aci  "oosrv",8
    017021  aa  166 040 040 040
    017022  aa  106 124 150 145         	acc  "There was an attempt to reference a directory which is out of service."
    017023  aa  162 145 040 167
    017024  aa  141 163 040 141
    017025  aa  156 040 141 164
    017026  aa  164 145 155 160
    017027  aa  164 040 164 157
    017030  aa  040 162 145 146
    017031  aa  145 162 145 156
    017032  aa  143 145 040 141
    017033  aa  040 144 151 162
    017034  aa  145 143 164 157
    017035  aa  162 171 040 167
    017036  aa  150 151 143 150
    017037  aa  040 151 163 040
    017040  aa  157 165 164 040
    017041  aa  157 146 040 163
    017042  aa  145 162 166 151
    017043  aa  143 145 056 000

                                  1261  ec  order_error,ordererr,
                                  1262  	(An error occurred while processing the order request.)
                        001020          	segdef  order_error
    001020  a0   077777 017046
    017044  aa  157 162 144 145         	aci  "ordererr",8
    017045  aa  162 145 162 162
    017046  aa  065 101 156 040         	acc  "An error occurred while processing the order request."
    017047  aa  145 162 162 157
    017050  aa  162 040 157 143
    017051  aa  143 165 162 162
    017052  aa  145 144 040 167
    017053  aa  150 151 154 145
    017054  aa  040 160 162 157
    017055  aa  143 145 163 163
    017056  aa  151 156 147 040
    017057  aa  164 150 145 040
    017060  aa  157 162 144 145
    017061  aa  162 040 162 145
    017062  aa  161 165 145 163
    017063  aa  164 056 000 000

                                  1263  ec  out_of_bounds,oob,
                                  1264  	(Reference is outside allowable bounds.)
                        001021          	segdef  out_of_bounds
    001021  a0   077777 017066
    017064  aa  157 157 142 040         	aci  "oob",8
    017065  aa  040 040 040 040
    017066  aa  046 122 145 146         	acc  "Reference is outside allowable bounds."
    017067  aa  145 162 145 156
    017070  aa  143 145 040 151
    017071  aa  163 040 157 165
    017072  aa  164 163 151 144
    017073  aa  145 040 141 154
    017074  aa  154 157 167 141
    017075  aa  142 154 145 040
    017076  aa  142 157 165 156
    017077  aa  144 163 056 000

                                  1265  ec  out_of_main_memory,outofmem,
                                  1266  	(There is insufficient memory to wire the requested I/O buffer.)
                        001022          	segdef  out_of_main_memory
    001022  a0   077777 017102
    017100  aa  157 165 164 157         	aci  "outofmem",8
    017101  aa  146 155 145 155
    017102  aa  076 124 150 145         	acc  "There is insufficient memory to wire the requested I/O buffer."
    017103  aa  162 145 040 151
    017104  aa  163 040 151 156
    017105  aa  163 165 146 146
    017106  aa  151 143 151 145
    017107  aa  156 164 040 155
    017110  aa  145 155 157 162
    017111  aa  171 040 164 157
    017112  aa  040 167 151 162
    017113  aa  145 040 164 150
    017114  aa  145 040 162 145
    017115  aa  161 165 145 163
    017116  aa  164 145 144 040
    017117  aa  111 057 117 040
    017120  aa  142 165 146 146
    017121  aa  145 162 056 000

                                  1267  ec  out_of_sequence,outofseq,
                                  1268  	(A call that must be in a sequence of calls was out of sequence.)
                        001023          	segdef  out_of_sequence
    001023  a0   077777 017124
    017122  aa  157 165 164 157         	aci  "outofseq",8
    017123  aa  146 163 145 161
    017124  aa  077 101 040 143         	acc  "A call that must be in a sequence of calls was out of sequence."
    017125  aa  141 154 154 040
    017126  aa  164 150 141 164
    017127  aa  040 155 165 163
    017130  aa  164 040 142 145
    017131  aa  040 151 156 040
    017132  aa  141 040 163 145
    017133  aa  161 165 145 156
    017134  aa  143 145 040 157
    017135  aa  146 040 143 141
    017136  aa  154 154 163 040
    017137  aa  167 141 163 040
    017140  aa  157 165 164 040
    017141  aa  157 146 040 163
    017142  aa  145 161 165 145
    017143  aa  156 143 145 056

                                  1269  ec  out_of_window,oowndow,
                                  1270  	(The point or region specified lies outside the window.)
                        001024          	segdef  out_of_window
    001024  a0   077777 017146
    017144  aa  157 157 167 156         	aci  "oowndow",8
    017145  aa  144 157 167 040
    017146  aa  066 124 150 145         	acc  "The point or region specified lies outside the window."
    017147  aa  040 160 157 151
    017150  aa  156 164 040 157
    017151  aa  162 040 162 145
    017152  aa  147 151 157 156
    017153  aa  040 163 160 145
    017154  aa  143 151 146 151
    017155  aa  145 144 040 154
    017156  aa  151 145 163 040
    017157  aa  157 165 164 163
    017160  aa  151 144 145 040
    017161  aa  164 150 145 040
    017162  aa  167 151 156 144
    017163  aa  157 167 056 000

                                  1271  ec  outward_call_failed,^outcall,
                                  1272  	(Error making outward call after stack history destroyed.)
                        001025          	segdef  outward_call_failed
    001025  a0   077777 017166
    017164  aa  136 157 165 164         	aci  "^outcall",8
    017165  aa  143 141 154 154
    017166  aa  070 105 162 162         	acc  "Error making outward call after stack history destroyed."
    017167  aa  157 162 040 155
    017170  aa  141 153 151 156
    017171  aa  147 040 157 165
    017172  aa  164 167 141 162
    017173  aa  144 040 143 141
    017174  aa  154 154 040 141
    017175  aa  146 164 145 162
    017176  aa  040 163 164 141
    017177  aa  143 153 040 150
    017200  aa  151 163 164 157
    017201  aa  162 171 040 144
    017202  aa  145 163 164 162
    017203  aa  157 171 145 144
    017204  aa  056 000 000 000

                                  1273  ec  overlapping_more_responses,badmore,
                                  1274  	(The yes and no response characters are not distinct.)
                        001026          	segdef  overlapping_more_responses
    001026  a0   077777 017207
    017205  aa  142 141 144 155         	aci  "badmore",8
    017206  aa  157 162 145 040
    017207  aa  064 124 150 145         	acc  "The yes and no response characters are not distinct."
    017210  aa  040 171 145 163
    017211  aa  040 141 156 144
    017212  aa  040 156 157 040
    017213  aa  162 145 163 160
    017214  aa  157 156 163 145
    017215  aa  040 143 150 141
    017216  aa  162 141 143 164
    017217  aa  145 162 163 040
    017220  aa  141 162 145 040
    017221  aa  156 157 164 040
    017222  aa  144 151 163 164
    017223  aa  151 156 143 164
    017224  aa  056 000 000 000

                                  1275  ec  pathlong,,
                                  1276  	(Pathname too long.)
                        001027          	segdef  pathlong
    001027  a0   077777 017227
    017225  aa  160 141 164 150         	aci  "pathlong",8
    017226  aa  154 157 156 147
    017227  aa  022 120 141 164         	acc  "Pathname too long."
    017230  aa  150 156 141 155
    017231  aa  145 040 164 157
    017232  aa  157 040 154 157
    017233  aa  156 147 056 000

                                  1277  ec  picture_bad,picbad,
                                  1278     (The picture contains a syntax error.)
                        001030          	segdef  picture_bad
    001030  a0   077777 017236
    017234  aa  160 151 143 142         	aci  "picbad",8
    017235  aa  141 144 040 040
    017236  aa  044 124 150 145         	acc  "The picture contains a syntax error."
    017237  aa  040 160 151 143
    017240  aa  164 165 162 145
    017241  aa  040 143 157 156
    017242  aa  164 141 151 156
    017243  aa  163 040 141 040
    017244  aa  163 171 156 164
    017245  aa  141 170 040 145
    017246  aa  162 162 157 162
    017247  aa  056 000 000 000

                                  1279  "   the picture supplied is in error.
                                  1280
                                  1281  ec  picture_scale,picscl,
                                  1282     (The picture scale factor not in the range -128:+127.)
                        001031          	segdef  picture_scale
    001031  a0   077777 017252
    017250  aa  160 151 143 163         	aci  "picscl",8
    017251  aa  143 154 040 040
    017252  aa  064 124 150 145         	acc  "The picture scale factor not in the range -128:+127."
    017253  aa  040 160 151 143
    017254  aa  164 165 162 145
    017255  aa  040 163 143 141
    017256  aa  154 145 040 146
    017257  aa  141 143 164 157
    017260  aa  162 040 156 157
    017261  aa  164 040 151 156
    017262  aa  040 164 150 145
    017263  aa  040 162 141 156
    017264  aa  147 145 040 055
    017265  aa  061 062 070 072
    017266  aa  053 061 062 067
    017267  aa  056 000 000 000

                                  1283  "   the picture scale factor not in the range -128:+127.
                                  1284
                                  1285  ec  picture_too_big,picbig,
                                  1286     (The normalized picture exceeds 64 characters.)
                        001032          	segdef  picture_too_big
    001032  a0   077777 017272
    017270  aa  160 151 143 142         	aci  "picbig",8
    017271  aa  151 147 040 040
    017272  aa  055 124 150 145         	acc  "The normalized picture exceeds 64 characters."
    017273  aa  040 156 157 162
    017274  aa  155 141 154 151
    017275  aa  172 145 144 040
    017276  aa  160 151 143 164
    017277  aa  165 162 145 040
    017300  aa  145 170 143 145
    017301  aa  145 144 163 040
    017302  aa  066 064 040 143
    017303  aa  150 141 162 141
    017304  aa  143 164 145 162
    017305  aa  163 056 000 000

                                  1287  "   the normalized picture exceeds 64 characters.
                                  1288
                                  1289  ec  positioned_on_bot,ponbot,
                                  1290  	(Tape positioned on leader.)
                        001033          	segdef  positioned_on_bot
    001033  a0   077777 017310
    017306  aa  160 157 156 142         	aci  "ponbot",8
    017307  aa  157 164 040 040
    017310  aa  032 124 141 160         	acc  "Tape positioned on leader."
    017311  aa  145 040 160 157
    017312  aa  163 151 164 151
    017313  aa  157 156 145 144
    017314  aa  040 157 156 040
    017315  aa  154 145 141 144
    017316  aa  145 162 056 000

                                  1291  ec  private_volume,lvprivat,
                                  1292  	(The logical volume is private.)
                        001034          	segdef  private_volume
    001034  a0   077777 017321
    017317  aa  154 166 160 162         	aci  "lvprivat",8
    017320  aa  151 166 141 164
    017321  aa  036 124 150 145         	acc  "The logical volume is private."
    017322  aa  040 154 157 147
    017323  aa  151 143 141 154
    017324  aa  040 166 157 154
    017325  aa  165 155 145 040
    017326  aa  151 163 040 160
    017327  aa  162 151 166 141
    017330  aa  164 145 056 000

                                  1293  ec  process_stopped,procstop,
                                  1294  	(Target process in stopped state.)
                        001035          	segdef  process_stopped
    001035  a0   077777 017333
    017331  aa  160 162 157 143         	aci  "procstop",8
    017332  aa  163 164 157 160
    017333  aa  040 124 141 162         	acc  "Target process in stopped state."
    017334  aa  147 145 164 040
    017335  aa  160 162 157 143
    017336  aa  145 163 163 040
    017337  aa  151 156 040 163
    017340  aa  164 157 160 160
    017341  aa  145 144 040 163
    017342  aa  164 141 164 145
    017343  aa  056 000 000 000

                                  1295  ec  process_unknown,procunkn,
                                  1296  	(Target process unknown or in deactivated state.)
                        001036          	segdef  process_unknown
    001036  a0   077777 017346
    017344  aa  160 162 157 143         	aci  "procunkn",8
    017345  aa  165 156 153 156
    017346  aa  057 124 141 162         	acc  "Target process unknown or in deactivated state."
    017347  aa  147 145 164 040
    017350  aa  160 162 157 143
    017351  aa  145 163 163 040
    017352  aa  165 156 153 156
    017353  aa  157 167 156 040
    017354  aa  157 162 040 151
    017355  aa  156 040 144 145
    017356  aa  141 143 164 151
    017357  aa  166 141 164 145
    017360  aa  144 040 163 164
    017361  aa  141 164 145 056

                                  1297  ec  proj_not_found,no_proj,
                                  1298  	(Specified project not found.)
                        001037          	segdef  proj_not_found
    001037  a0   077777 017364
    017362  aa  156 157 137 160         	aci  "no_proj",8
    017363  aa  162 157 152 040
    017364  aa  034 123 160 145         	acc  "Specified project not found."
    017365  aa  143 151 146 151
    017366  aa  145 144 040 160
    017367  aa  162 157 152 145
    017370  aa  143 164 040 156
    017371  aa  157 164 040 146
    017372  aa  157 165 156 144
    017373  aa  056 000 000 000

                                  1299  ec  pv_is_in_lv,PV_in_LV,
                                  1300  	(The physical volume is already in the logical volume.)
                        001040          	segdef  pv_is_in_lv
    001040  a0   077777 017376
    017374  aa  120 126 137 151         	aci  "PV_in_LV",8
    017375  aa  156 137 114 126
    017376  aa  065 124 150 145         	acc  "The physical volume is already in the logical volume."
    017377  aa  040 160 150 171
    017400  aa  163 151 143 141
    017401  aa  154 040 166 157
    017402  aa  154 165 155 145
    017403  aa  040 151 163 040
    017404  aa  141 154 162 145
    017405  aa  141 144 171 040
    017406  aa  151 156 040 164
    017407  aa  150 145 040 154
    017410  aa  157 147 151 143
    017411  aa  141 154 040 166
    017412  aa  157 154 165 155
    017413  aa  145 056 000 000

                                  1301  ec  pv_no_scavenge,pvnosc,
                                  1302  	(The physical volume cannot be scavenged.)
                        001041          	segdef  pv_no_scavenge
    001041  a0   077777 017416
    017414  aa  160 166 156 157         	aci  "pvnosc",8
    017415  aa  163 143 040 040
    017416  aa  050 124 150 145         	acc  "The physical volume cannot be scavenged."
    017417  aa  040 160 150 171
    017420  aa  163 151 143 141
    017421  aa  154 040 166 157
    017422  aa  154 165 155 145
    017423  aa  040 143 141 156
    017424  aa  156 157 164 040
    017425  aa  142 145 040 163
    017426  aa  143 141 166 145
    017427  aa  156 147 145 144
    017430  aa  056 000 000 000

                                  1303  ec  pvid_not_found,pvntfnd,
                                  1304  	(The physical volume is not mounted.)
                        001042          	segdef  pvid_not_found
    001042  a0   077777 017433
    017431  aa  160 166 156 164         	aci  "pvntfnd",8
    017432  aa  146 156 144 040
    017433  aa  043 124 150 145         	acc  "The physical volume is not mounted."
    017434  aa  040 160 150 171
    017435  aa  163 151 143 141
    017436  aa  154 040 166 157
    017437  aa  154 165 155 145
    017440  aa  040 151 163 040
    017441  aa  156 157 164 040
    017442  aa  155 157 165 156
    017443  aa  164 145 144 056

                                  1305  ec  quit_term_abort,qtabt,
                                  1306  	(Aborted by quit or term.)
                        001043          	segdef  quit_term_abort
    001043  a0   077777 017446
    017444  aa  161 164 141 142         	aci  "qtabt",8
    017445  aa  164 040 040 040
    017446  aa  030 101 142 157         	acc  "Aborted by quit or term."
    017447  aa  162 164 145 144
    017450  aa  040 142 171 040
    017451  aa  161 165 151 164
    017452  aa  040 157 162 040
    017453  aa  164 145 162 155
    017454  aa  056 000 000 000

                                  1307  ec  r0_refname,r0refnam,
                                  1308  	(Attempt to use reference names in ring 0.)
                        001044          	segdef  r0_refname
    001044  a0   077777 017457
    017455  aa  162 060 162 145         	aci  "r0refnam",8
    017456  aa  146 156 141 155
    017457  aa  051 101 164 164         	acc  "Attempt to use reference names in ring 0."
    017460  aa  145 155 160 164
    017461  aa  040 164 157 040
    017462  aa  165 163 145 040
    017463  aa  162 145 146 145
    017464  aa  162 145 156 143
    017465  aa  145 040 156 141
    017466  aa  155 145 163 040
    017467  aa  151 156 040 162
    017470  aa  151 156 147 040
    017471  aa  060 056 000 000

                                  1309  ec  rcp_attr_not_permitted,attr^pmt,
                                  1310  	(Some attribute specified is not permitted for this resource.)
                        001045          	segdef  rcp_attr_not_permitted
    001045  a0   077777 017474
    017472  aa  141 164 164 162         	aci  "attr^pmt",8
    017473  aa  136 160 155 164
    017474  aa  074 123 157 155         	acc  "Some attribute specified is not permitted for this resource."
    017475  aa  145 040 141 164
    017476  aa  164 162 151 142
    017477  aa  165 164 145 040
    017500  aa  163 160 145 143
    017501  aa  151 146 151 145
    017502  aa  144 040 151 163
    017503  aa  040 156 157 164
    017504  aa  040 160 145 162
    017505  aa  155 151 164 164
    017506  aa  145 144 040 146
    017507  aa  157 162 040 164
    017510  aa  150 151 163 040
    017511  aa  162 145 163 157
    017512  aa  165 162 143 145
    017513  aa  056 000 000 000

                                  1311  ec  rcp_attr_protected,prot_att,
                                  1312  	(Some attribute specified is protected.)
                        001046          	segdef  rcp_attr_protected
    001046  a0   077777 017516
    017514  aa  160 162 157 164         	aci  "prot_att",8
    017515  aa  137 141 164 164
    017516  aa  046 123 157 155         	acc  "Some attribute specified is protected."
    017517  aa  145 040 141 164
    017520  aa  164 162 151 142
    017521  aa  165 164 145 040
    017522  aa  163 160 145 143
    017523  aa  151 146 151 145
    017524  aa  144 040 151 163
    017525  aa  040 160 162 157
    017526  aa  164 145 143 164
    017527  aa  145 144 056 000

                                  1313  ec  rcp_bad_attributes,rcpxatts,
                                  1314  	(Resource attribute specification is invalid.)
                        001047          	segdef  rcp_bad_attributes
    001047  a0   077777 017532
    017530  aa  162 143 160 170         	aci  "rcpxatts",8
    017531  aa  141 164 164 163
    017532  aa  054 122 145 163         	acc  "Resource attribute specification is invalid."
    017533  aa  157 165 162 143
    017534  aa  145 040 141 164
    017535  aa  164 162 151 142
    017536  aa  165 164 145 040
    017537  aa  163 160 145 143
    017540  aa  151 146 151 143
    017541  aa  141 164 151 157
    017542  aa  156 040 151 163
    017543  aa  040 151 156 166
    017544  aa  141 154 151 144
    017545  aa  056 000 000 000

                                  1315  ec  rcp_missing_registry_component,rcprgcmp,
                                  1316  	(Missing rcp registry component.)
                        001050          	segdef  rcp_missing_registry_component
    001050  a0   077777 017550
    017546  aa  162 143 160 162         	aci  "rcprgcmp",8
    017547  aa  147 143 155 160
    017550  aa  037 115 151 163         	acc  "Missing rcp registry component."
    017551  aa  163 151 156 147
    017552  aa  040 162 143 160
    017553  aa  040 162 145 147
    017554  aa  151 163 164 162
    017555  aa  171 040 143 157
    017556  aa  155 160 157 156
    017557  aa  145 156 164 056

                                  1317  ec  rcp_no_auto_reg,^autoreg,
                                  1318  	(The resource cannot be automatically registered.)
                        001051          	segdef  rcp_no_auto_reg
    001051  a0   077777 017562
    017560  aa  136 141 165 164         	aci  "^autoreg",8
    017561  aa  157 162 145 147
    017562  aa  060 124 150 145         	acc  "The resource cannot be automatically registered."
    017563  aa  040 162 145 163
    017564  aa  157 165 162 143
    017565  aa  145 040 143 141
    017566  aa  156 156 157 164
    017567  aa  040 142 145 040
    017570  aa  141 165 164 157
    017571  aa  155 141 164 151
    017572  aa  143 141 154 154
    017573  aa  171 040 162 145
    017574  aa  147 151 163 164
    017575  aa  145 162 145 144
    017576  aa  056 000 000 000

                                  1319  ec  rcp_no_registry,norgstry,
                                  1320  	(The registry was not found.)
                        001052          	segdef  rcp_no_registry
    001052  a0   077777 017601
    017577  aa  156 157 162 147         	aci  "norgstry",8
    017600  aa  163 164 162 171
    017601  aa  033 124 150 145         	acc  "The registry was not found."
    017602  aa  040 162 145 147
    017603  aa  151 163 164 162
    017604  aa  171 040 167 141
    017605  aa  163 040 156 157
    017606  aa  164 040 146 157
    017607  aa  165 156 144 056

                                  1321  ec  record_busy,recbusy,
                                  1322  	(Record locked by another process.)
                        001053          	segdef  record_busy
    001053  a0   077777 017612
    017610  aa  162 145 143 142         	aci  "recbusy",8
    017611  aa  165 163 171 040
    017612  aa  041 122 145 143         	acc  "Record locked by another process."
    017613  aa  157 162 144 040
    017614  aa  154 157 143 153
    017615  aa  145 144 040 142
    017616  aa  171 040 141 156
    017617  aa  157 164 150 145
    017620  aa  162 040 160 162
    017621  aa  157 143 145 163
    017622  aa  163 056 000 000

                                  1323  ec  recoverable_error,recoverr,
                                  1324  	(Requested operation completed but non-fatal errors or inconsistencies were encountered.)
                        001054          	segdef  recoverable_error
    001054  a0   077777 017625
    017623  aa  162 145 143 157         	aci  "recoverr",8
    017624  aa  166 145 162 162
    017625  aa  127 122 145 161         	acc  "Requested operation completed but non-fatal errors or inconsistencies were encountered."
    017626  aa  165 145 163 164
    017627  aa  145 144 040 157
    017630  aa  160 145 162 141
    017631  aa  164 151 157 156
    017632  aa  040 143 157 155
    017633  aa  160 154 145 164
    017634  aa  145 144 040 142
    017635  aa  165 164 040 156
    017636  aa  157 156 055 146
    017637  aa  141 164 141 154
    017640  aa  040 145 162 162
    017641  aa  157 162 163 040
    017642  aa  157 162 040 151
    017643  aa  156 143 157 156
    017644  aa  163 151 163 164
    017645  aa  145 156 143 151
    017646  aa  145 163 040 167
    017647  aa  145 162 145 040
    017650  aa  145 156 143 157
    017651  aa  165 156 164 145
    017652  aa  162 145 144 056

                                  1325  ec  recursion_error,recurerr,
                                  1326  	(Infinite recursion.)
                        001055          	segdef  recursion_error
    001055  a0   077777 017655
    017653  aa  162 145 143 165         	aci  "recurerr",8
    017654  aa  162 145 162 162
    017655  aa  023 111 156 146         	acc  "Infinite recursion."
    017656  aa  151 156 151 164
    017657  aa  145 040 162 145
    017660  aa  143 165 162 163
    017661  aa  151 157 156 056

                                  1327  ec  refname_count_too_big,rcnt_big,
                                  1328  	(The reference name count is greater than the number of reference names.)
                        001056          	segdef  refname_count_too_big
    001056  a0   077777 017664
    017662  aa  162 143 156 164         	aci  "rcnt_big",8
    017663  aa  137 142 151 147
    017664  aa  107 124 150 145         	acc  "The reference name count is greater than the number of reference names."
    017665  aa  040 162 145 146
    017666  aa  145 162 145 156
    017667  aa  143 145 040 156
    017670  aa  141 155 145 040
    017671  aa  143 157 165 156
    017672  aa  164 040 151 163
    017673  aa  040 147 162 145
    017674  aa  141 164 145 162
    017675  aa  040 164 150 141
    017676  aa  156 040 164 150
    017677  aa  145 040 156 165
    017700  aa  155 142 145 162
    017701  aa  040 157 146 040
    017702  aa  162 145 146 145
    017703  aa  162 145 156 143
    017704  aa  145 040 156 141
    017705  aa  155 145 163 056

                                  1329  ec  regexp_invalid_star,rgxpinvs,
                                  1330  	(Invalid use of * in regular expression.)
                        001057          	segdef  regexp_invalid_star
    001057  a0   077777 017710
    017706  aa  162 147 170 160         	aci  "rgxpinvs",8
    017707  aa  151 156 166 163
    017710  aa  047 111 156 166         	acc  "Invalid use of * in regular expression."
    017711  aa  141 154 151 144
    017712  aa  040 165 163 145
    017713  aa  040 157 146 040
    017714  aa  052 040 151 156
    017715  aa  040 162 145 147
    017716  aa  165 154 141 162
    017717  aa  040 145 170 160
    017720  aa  162 145 163 163
    017721  aa  151 157 156 056

                                  1331  ec  regexp_too_complex,rgxpcplx,
                                  1332  	(Regular expression is too complex.)
                        001060          	segdef  regexp_too_complex
    001060  a0   077777 017724
    017722  aa  162 147 170 160         	aci  "rgxpcplx",8
    017723  aa  143 160 154 170
    017724  aa  042 122 145 147         	acc  "Regular expression is too complex."
    017725  aa  165 154 141 162
    017726  aa  040 145 170 160
    017727  aa  162 145 163 163
    017730  aa  151 157 156 040
    017731  aa  151 163 040 164
    017732  aa  157 157 040 143
    017733  aa  157 155 160 154
    017734  aa  145 170 056 000

                                  1333  ec  regexp_too_long,rgxplong,
                                  1334  	(Regular expression is too long.)
                        001061          	segdef  regexp_too_long
    001061  a0   077777 017737
    017735  aa  162 147 170 160         	aci  "rgxplong",8
    017736  aa  154 157 156 147
    017737  aa  037 122 145 147         	acc  "Regular expression is too long."
    017740  aa  165 154 141 162
    017741  aa  040 145 170 160
    017742  aa  162 145 163 163
    017743  aa  151 157 156 040
    017744  aa  151 163 040 164
    017745  aa  157 157 040 154
    017746  aa  157 156 147 056

                                  1335  ec  regexp_undefined,rgxpundf,
                                  1336  	(Regular expression // is undefined.)
                        001062          	segdef  regexp_undefined
    001062  a0   077777 017751
    017747  aa  162 147 170 160         	aci  "rgxpundf",8
    017750  aa  165 156 144 146
    017751  aa  043 122 145 147         	acc  "Regular expression // is undefined."
    017752  aa  165 154 141 162
    017753  aa  040 145 170 160
    017754  aa  162 145 163 163
    017755  aa  151 157 156 040
    017756  aa  057 057 040 151
    017757  aa  163 040 165 156
    017760  aa  144 145 146 151
    017761  aa  156 145 144 056

                                  1337  ec  rel_chnl_active,rchnact,
                                  1338            (Cannot delete a base channel with related logical channels still active.)
                        001063          	segdef  rel_chnl_active
    001063  a0   077777 017764
    017762  aa  162 143 150 156         	aci  "rchnact",8
    017763  aa  141 143 164 040
    017764  aa  110 103 141 156         	acc  "Cannot delete a base channel with related logical channels still active."
    017765  aa  156 157 164 040
    017766  aa  144 145 154 145
    017767  aa  164 145 040 141
    017770  aa  040 142 141 163
    017771  aa  145 040 143 150
    017772  aa  141 156 156 145
    017773  aa  154 040 167 151
    017774  aa  164 150 040 162
    017775  aa  145 154 141 164
    017776  aa  145 144 040 154
    017777  aa  157 147 151 143
    020000  aa  141 154 040 143
    020001  aa  150 141 156 156
    020002  aa  145 154 163 040
    020003  aa  163 164 151 154
    020004  aa  154 040 141 143
    020005  aa  164 151 166 145
    020006  aa  056 000 000 000

                                  1339  ec  request_id_ambiguous,reqidamb,
                                  1340  	(The specified request id matches multiple requests.)
                        001064          	segdef  request_id_ambiguous
    001064  a0   077777 020011
    020007  aa  162 145 161 151         	aci  "reqidamb",8
    020010  aa  144 141 155 142
    020011  aa  063 124 150 145         	acc  "The specified request id matches multiple requests."
    020012  aa  040 163 160 145
    020013  aa  143 151 146 151
    020014  aa  145 144 040 162
    020015  aa  145 161 165 145
    020016  aa  163 164 040 151
    020017  aa  144 040 155 141
    020020  aa  164 143 150 145
    020021  aa  163 040 155 165
    020022  aa  154 164 151 160
    020023  aa  154 145 040 162
    020024  aa  145 161 165 145
    020025  aa  163 164 163 056

                                  1341  ec  request_not_recognized,reqnorec,
                                  1342  	(Request not recognized.)
                        001065          	segdef  request_not_recognized
    001065  a0   077777 020030
    020026  aa  162 145 161 156         	aci  "reqnorec",8
    020027  aa  157 162 145 143
    020030  aa  027 122 145 161         	acc  "Request not recognized."
    020031  aa  165 145 163 164
    020032  aa  040 156 157 164
    020033  aa  040 162 145 143
    020034  aa  157 147 156 151
    020035  aa  172 145 144 056

                                  1343  ec  request_pending,reqpend,
                                  1344  	(Processing of request has not been completed.)
                        001066          	segdef  request_pending
    001066  a0   077777 020040
    020036  aa  162 145 161 160         	aci  "reqpend",8
    020037  aa  145 156 144 040
    020040  aa  055 120 162 157         	acc  "Processing of request has not been completed."
    020041  aa  143 145 163 163
    020042  aa  151 156 147 040
    020043  aa  157 146 040 162
    020044  aa  145 161 165 145
    020045  aa  163 164 040 150
    020046  aa  141 163 040 156
    020047  aa  157 164 040 142
    020050  aa  145 145 156 040
    020051  aa  143 157 155 160
    020052  aa  154 145 164 145
    020053  aa  144 056 000 000

                                  1345  ec  reservation_failed,resbad,
                                  1346  	(The resource reservation request has failed.)
                        001067          	segdef  reservation_failed
    001067  a0   077777 020056
    020054  aa  162 145 163 142         	aci  "resbad",8
    020055  aa  141 144 040 040
    020056  aa  054 124 150 145         	acc  "The resource reservation request has failed."
    020057  aa  040 162 145 163
    020060  aa  157 165 162 143
    020061  aa  145 040 162 145
    020062  aa  163 145 162 166
    020063  aa  141 164 151 157
    020064  aa  156 040 162 145
    020065  aa  161 165 145 163
    020066  aa  164 040 150 141
    020067  aa  163 040 146 141
    020070  aa  151 154 145 144
    020071  aa  056 000 000 000

                                  1347  ec  resource_assigned,rassnd,
                                  1348  	(Resource already assigned to requesting process.)
                        001070          	segdef  resource_assigned
    001070  a0   077777 020074
    020072  aa  162 141 163 163         	aci  "rassnd",8
    020073  aa  156 144 040 040
    020074  aa  060 122 145 163         	acc  "Resource already assigned to requesting process."
    020075  aa  157 165 162 143
    020076  aa  145 040 141 154
    020077  aa  162 145 141 144
    020100  aa  171 040 141 163
    020101  aa  163 151 147 156
    020102  aa  145 144 040 164
    020103  aa  157 040 162 145
    020104  aa  161 165 145 163
    020105  aa  164 151 156 147
    020106  aa  040 160 162 157
    020107  aa  143 145 163 163
    020110  aa  056 000 000 000

                                  1349  ec  resource_attached,rattchd,
                                  1350  	(Resource already attached to the requesting process.)
                        001071          	segdef  resource_attached
    001071  a0   077777 020113
    020111  aa  162 141 164 164         	aci  "rattchd",8
    020112  aa  143 150 144 040
    020113  aa  064 122 145 163         	acc  "Resource already attached to the requesting process."
    020114  aa  157 165 162 143
    020115  aa  145 040 141 154
    020116  aa  162 145 141 144
    020117  aa  171 040 141 164
    020120  aa  164 141 143 150
    020121  aa  145 144 040 164
    020122  aa  157 040 164 150
    020123  aa  145 040 162 145
    020124  aa  161 165 145 163
    020125  aa  164 151 156 147
    020126  aa  040 160 162 157
    020127  aa  143 145 163 163
    020130  aa  056 000 000 000

                                  1351  ec  resource_awaiting_clear,rsawclr,
                                  1352            (Resource is awaiting clear.)
                        001072          	segdef  resource_awaiting_clear
    001072  a0   077777 020133
    020131  aa  162 163 141 167         	aci  "rsawclr",8
    020132  aa  143 154 162 040
    020133  aa  033 122 145 163         	acc  "Resource is awaiting clear."
    020134  aa  157 165 162 143
    020135  aa  145 040 151 163
    020136  aa  040 141 167 141
    020137  aa  151 164 151 156
    020140  aa  147 040 143 154
    020141  aa  145 141 162 056

                                  1353  ec  resource_bad_access,rbadacc,
                                  1354  	(Resource not accessible to the requesting process.)
                        001073          	segdef  resource_bad_access
    001073  a0   077777 020144
    020142  aa  162 142 141 144         	aci  "rbadacc",8
    020143  aa  141 143 143 040
    020144  aa  062 122 145 163         	acc  "Resource not accessible to the requesting process."
    020145  aa  157 165 162 143
    020146  aa  145 040 156 157
    020147  aa  164 040 141 143
    020150  aa  143 145 163 163
    020151  aa  151 142 154 145
    020152  aa  040 164 157 040
    020153  aa  164 150 145 040
    020154  aa  162 145 161 165
    020155  aa  145 163 164 151
    020156  aa  156 147 040 160
    020157  aa  162 157 143 145
    020160  aa  163 163 056 000

                                  1355  ec  resource_free,rsc_free,
                                  1356  	(This operation not allowed for a free resource.)
                        001074          	segdef  resource_free
    001074  a0   077777 020163
    020161  aa  162 163 143 137         	aci  "rsc_free",8
    020162  aa  146 162 145 145
    020163  aa  057 124 150 151         	acc  "This operation not allowed for a free resource."
    020164  aa  163 040 157 160
    020165  aa  145 162 141 164
    020166  aa  151 157 156 040
    020167  aa  156 157 164 040
    020170  aa  141 154 154 157
    020171  aa  167 145 144 040
    020172  aa  146 157 162 040
    020173  aa  141 040 146 162
    020174  aa  145 145 040 162
    020175  aa  145 163 157 165
    020176  aa  162 143 145 056

                                  1357  ec  resource_locked,rsc_lock,
                                  1358  	(The resource is locked.)
                        001075          	segdef  resource_locked
    001075  a0   077777 020201
    020177  aa  162 163 143 137         	aci  "rsc_lock",8
    020200  aa  154 157 143 153
    020201  aa  027 124 150 145         	acc  "The resource is locked."
    020202  aa  040 162 145 163
    020203  aa  157 165 162 143
    020204  aa  145 040 151 163
    020205  aa  040 154 157 143
    020206  aa  153 145 144 056

                                  1359  ec  resource_not_free,not_free,
                                  1360  	(The resource is not free.)
                        001076          	segdef  resource_not_free
    001076  a0   077777 020211
    020207  aa  156 157 164 137         	aci  "not_free",8
    020210  aa  146 162 145 145
    020211  aa  031 124 150 145         	acc  "The resource is not free."
    020212  aa  040 162 145 163
    020213  aa  157 165 162 143
    020214  aa  145 040 151 163
    020215  aa  040 156 157 164
    020216  aa  040 146 162 145
    020217  aa  145 056 000 000

                                  1361  ec  resource_not_modified,rsc^modf,
                                  1362  	(Specified resource property may not be modified in this manner.)
                        001077          	segdef  resource_not_modified
    001077  a0   077777 020222
    020220  aa  162 163 143 136         	aci  "rsc^modf",8
    020221  aa  155 157 144 146
    020222  aa  077 123 160 145         	acc  "Specified resource property may not be modified in this manner."
    020223  aa  143 151 146 151
    020224  aa  145 144 040 162
    020225  aa  145 163 157 165
    020226  aa  162 143 145 040
    020227  aa  160 162 157 160
    020230  aa  145 162 164 171
    020231  aa  040 155 141 171
    020232  aa  040 156 157 164
    020233  aa  040 142 145 040
    020234  aa  155 157 144 151
    020235  aa  146 151 145 144
    020236  aa  040 151 156 040
    020237  aa  164 150 151 163
    020240  aa  040 155 141 156
    020241  aa  156 145 162 056

                                  1363  ec  resource_reserved,rresvd,
                                  1364  	(The resource is otherwise reserved.)
                        001100          	segdef  resource_reserved
    001100  a0   077777 020244
    020242  aa  162 162 145 163         	aci  "rresvd",8
    020243  aa  166 144 040 040
    020244  aa  043 124 150 145         	acc  "The resource is otherwise reserved."
    020245  aa  040 162 145 163
    020246  aa  157 165 162 143
    020247  aa  145 040 151 163
    020250  aa  040 157 164 150
    020251  aa  145 162 167 151
    020252  aa  163 145 040 162
    020253  aa  145 163 145 162
    020254  aa  166 145 144 056

                                  1365  ec  resource_spec_ambiguous,rscambig,
                                  1366  	(Resource specification supplied is incomplete.)
                        001101          	segdef  resource_spec_ambiguous
    001101  a0   077777 020257
    020255  aa  162 163 143 141         	aci  "rscambig",8
    020256  aa  155 142 151 147
    020257  aa  056 122 145 163         	acc  "Resource specification supplied is incomplete."
    020260  aa  157 165 162 143
    020261  aa  145 040 163 160
    020262  aa  145 143 151 146
    020263  aa  151 143 141 164
    020264  aa  151 157 156 040
    020265  aa  163 165 160 160
    020266  aa  154 151 145 144
    020267  aa  040 151 163 040
    020270  aa  151 156 143 157
    020271  aa  155 160 154 145
    020272  aa  164 145 056 000

                                  1367  ec  resource_type_inappropriate,rcpinapp,
                                  1368  	(Resource type is inappropriate for this request.)
                        001102          	segdef  resource_type_inappropriate
    001102  a0   077777 020275
    020273  aa  162 143 160 151         	aci  "rcpinapp",8
    020274  aa  156 141 160 160
    020275  aa  060 122 145 163         	acc  "Resource type is inappropriate for this request."
    020276  aa  157 165 162 143
    020277  aa  145 040 164 171
    020300  aa  160 145 040 151
    020301  aa  163 040 151 156
    020302  aa  141 160 160 162
    020303  aa  157 160 162 151
    020304  aa  141 164 145 040
    020305  aa  146 157 162 040
    020306  aa  164 150 151 163
    020307  aa  040 162 145 161
    020310  aa  165 145 163 164
    020311  aa  056 000 000 000

                                  1369  ec  resource_type_unknown,unkrsctp,
                                  1370  	(Resource type unknown to the system.)
                        001103          	segdef  resource_type_unknown
    001103  a0   077777 020314
    020312  aa  165 156 153 162         	aci  "unkrsctp",8
    020313  aa  163 143 164 160
    020314  aa  044 122 145 163         	acc  "Resource type unknown to the system."
    020315  aa  157 165 162 143
    020316  aa  145 040 164 171
    020317  aa  160 145 040 165
    020320  aa  156 153 156 157
    020321  aa  167 156 040 164
    020322  aa  157 040 164 150
    020323  aa  145 040 163 171
    020324  aa  163 164 145 155
    020325  aa  056 000 000 000

                                  1371  ec  resource_unassigned,runasnd,
                                  1372  	(Resource not assigned to requesting process.)
                        001104          	segdef  resource_unassigned
    001104  a0   077777 020330
    020326  aa  162 165 156 141         	aci  "runasnd",8
    020327  aa  163 156 144 040
    020330  aa  054 122 145 163         	acc  "Resource not assigned to requesting process."
    020331  aa  157 165 162 143
    020332  aa  145 040 156 157
    020333  aa  164 040 141 163
    020334  aa  163 151 147 156
    020335  aa  145 144 040 164
    020336  aa  157 040 162 145
    020337  aa  161 165 145 163
    020340  aa  164 151 156 147
    020341  aa  040 160 162 157
    020342  aa  143 145 163 163
    020343  aa  056 000 000 000

                                  1373  ec  resource_unavailable,runavail,
                                  1374  	(No appropriate resource available.)
                        001105          	segdef  resource_unavailable
    001105  a0   077777 020346
    020344  aa  162 165 156 141         	aci  "runavail",8
    020345  aa  166 141 151 154
    020346  aa  042 116 157 040         	acc  "No appropriate resource available."
    020347  aa  141 160 160 162
    020350  aa  157 160 162 151
    020351  aa  141 164 145 040
    020352  aa  162 145 163 157
    020353  aa  165 162 143 145
    020354  aa  040 141 166 141
    020355  aa  151 154 141 142
    020356  aa  154 145 056 000

                                  1375  ec  resource_unknown,runknown,
                                  1376  	(Resource not known to the system.)
                        001106          	segdef  resource_unknown
    001106  a0   077777 020361
    020357  aa  162 165 156 153         	aci  "runknown",8
    020360  aa  156 157 167 156
    020361  aa  041 122 145 163         	acc  "Resource not known to the system."
    020362  aa  157 165 162 143
    020363  aa  145 040 156 157
    020364  aa  164 040 153 156
    020365  aa  157 167 156 040
    020366  aa  164 157 040 164
    020367  aa  150 145 040 163
    020370  aa  171 163 164 145
    020371  aa  155 056 000 000

                                  1377  ec  retrieval_trap_on,retrap,
                                  1378  	(Retrieval trap on for file special user is trying to access.)
                        001107          	segdef  retrieval_trap_on
    001107  a0   077777 020374
    020372  aa  162 145 164 162         	aci  "retrap",8
    020373  aa  141 160 040 040
    020374  aa  074 122 145 164         	acc  "Retrieval trap on for file special user is trying to access."
    020375  aa  162 151 145 166
    020376  aa  141 154 040 164
    020377  aa  162 141 160 040
    020400  aa  157 156 040 146
    020401  aa  157 162 040 146
    020402  aa  151 154 145 040
    020403  aa  163 160 145 143
    020404  aa  151 141 154 040
    020405  aa  165 163 145 162
    020406  aa  040 151 163 040
    020407  aa  164 162 171 151
    020410  aa  156 147 040 164
    020411  aa  157 040 141 143
    020412  aa  143 145 163 163
    020413  aa  056 000 000 000

                                  1379  ec  root,,
                                  1380  	(The directory is the ROOT.)
                        001110          	segdef  root
    001110  a0   077777 020416
    020414  aa  162 157 157 164         	aci  "root",8
    020415  aa  040 040 040 040
    020416  aa  032 124 150 145         	acc  "The directory is the ROOT."
    020417  aa  040 144 151 162
    020420  aa  145 143 164 157
    020421  aa  162 171 040 151
    020422  aa  163 040 164 150
    020423  aa  145 040 122 117
    020424  aa  117 124 056 000

                                  1381  ec  rqover,,
                                  1382  	(Record quota overflow.)
                        001111          	segdef  rqover
    001111  a0   077777 020427
    020425  aa  162 161 157 166         	aci  "rqover",8
    020426  aa  145 162 040 040
    020427  aa  026 122 145 143         	acc  "Record quota overflow."
    020430  aa  157 162 144 040
    020431  aa  161 165 157 164
    020432  aa  141 040 157 166
    020433  aa  145 162 146 154
    020434  aa  157 167 056 000

                                  1383  ec  run_unit_not_recursive,norunrec,
                                  1384  	(There can be only one run unit at a time.)
                        001112          	segdef  run_unit_not_recursive
    001112  a0   077777 020437
    020435  aa  156 157 162 165         	aci  "norunrec",8
    020436  aa  156 162 145 143
    020437  aa  051 124 150 145         	acc  "There can be only one run unit at a time."
    020440  aa  162 145 040 143
    020441  aa  141 156 040 142
    020442  aa  145 040 157 156
    020443  aa  154 171 040 157
    020444  aa  156 145 040 162
    020445  aa  165 156 040 165
    020446  aa  156 151 164 040
    020447  aa  141 164 040 141
    020450  aa  040 164 151 155
    020451  aa  145 056 000 000

                                  1385  ec  safety_sw_on,sson,
                                  1386  	(Attempt to delete segment whose safety switch is on.)
                        001113          	segdef  safety_sw_on
    001113  a0   077777 020454
    020452  aa  163 163 157 156         	aci  "sson",8
    020453  aa  040 040 040 040
    020454  aa  064 101 164 164         	acc  "Attempt to delete segment whose safety switch is on."
    020455  aa  145 155 160 164
    020456  aa  040 164 157 040
    020457  aa  144 145 154 145
    020460  aa  164 145 040 163
    020461  aa  145 147 155 145
    020462  aa  156 164 040 167
    020463  aa  150 157 163 145
    020464  aa  040 163 141 146
    020465  aa  145 164 171 040
    020466  aa  163 167 151 164
    020467  aa  143 150 040 151
    020470  aa  163 040 157 156
    020471  aa  056 000 000 000

                                  1387  ec  salv_pdir_procterm,salvptrm,
                                  1388  	(Fatal salvaging of process directory.)
                        001114          	segdef  salv_pdir_procterm
    001114  a0   077777 020474
    020472  aa  163 141 154 166         	aci  "salvptrm",8
    020473  aa  160 164 162 155
    020474  aa  045 106 141 164         	acc  "Fatal salvaging of process directory."
    020475  aa  141 154 040 163
    020476  aa  141 154 166 141
    020477  aa  147 151 156 147
    020500  aa  040 157 146 040
    020501  aa  160 162 157 143
    020502  aa  145 163 163 040
    020503  aa  144 151 162 145
    020504  aa  143 164 157 162
    020505  aa  171 056 000 000

                                  1389  ec  sameseg,,
                                  1390  	(Attempt to specify the same segment as both old and new.)
                        001115          	segdef  sameseg
    001115  a0   077777 020510
    020506  aa  163 141 155 145         	aci  "sameseg",8
    020507  aa  163 145 147 040
    020510  aa  070 101 164 164         	acc  "Attempt to specify the same segment as both old and new."
    020511  aa  145 155 160 164
    020512  aa  040 164 157 040
    020513  aa  163 160 145 143
    020514  aa  151 146 171 040
    020515  aa  164 150 145 040
    020516  aa  163 141 155 145
    020517  aa  040 163 145 147
    020520  aa  155 145 156 164
    020521  aa  040 141 163 040
    020522  aa  142 157 164 150
    020523  aa  040 157 154 144
    020524  aa  040 141 156 144
    020525  aa  040 156 145 167
    020526  aa  056 000 000 000

                                  1391  ec  scavenge_aborted,scabrt,
                                  1392  	(The volume scavenge has been terminated abnormally.)
                        001116          	segdef  scavenge_aborted
    001116  a0   077777 020531
    020527  aa  163 143 141 142         	aci  "scabrt",8
    020530  aa  162 164 040 040
    020531  aa  063 124 150 145         	acc  "The volume scavenge has been terminated abnormally."
    020532  aa  040 166 157 154
    020533  aa  165 155 145 040
    020534  aa  163 143 141 166
    020535  aa  145 156 147 145
    020536  aa  040 150 141 163
    020537  aa  040 142 145 145
    020540  aa  156 040 164 145
    020541  aa  162 155 151 156
    020542  aa  141 164 145 144
    020543  aa  040 141 142 156
    020544  aa  157 162 155 141
    020545  aa  154 154 171 056

                                  1393  ec  scavenge_in_progress,scinprg,
                                  1394  	(The volume is being scavenged.)
                        001117          	segdef  scavenge_in_progress
    001117  a0   077777 020550
    020546  aa  163 143 151 156         	aci  "scinprg",8
    020547  aa  160 162 147 040
    020550  aa  036 124 150 145         	acc  "The volume is being scavenged."
    020551  aa  040 166 157 154
    020552  aa  165 155 145 040
    020553  aa  151 163 040 142
    020554  aa  145 151 156 147
    020555  aa  040 163 143 141
    020556  aa  166 145 156 147
    020557  aa  145 144 056 000

                                  1395  ec  scavenge_process_limit,scprlmt,
                                  1396  	(Maximum number of simultaneous scavenges exceeded.)
                        001120          	segdef  scavenge_process_limit
    001120  a0   077777 020562
    020560  aa  163 143 160 162         	aci  "scprlmt",8
    020561  aa  154 155 164 040
    020562  aa  062 115 141 170         	acc  "Maximum number of simultaneous scavenges exceeded."
    020563  aa  151 155 165 155
    020564  aa  040 156 165 155
    020565  aa  142 145 162 040
    020566  aa  157 146 040 163
    020567  aa  151 155 165 154
    020570  aa  164 141 156 145
    020571  aa  157 165 163 040
    020572  aa  163 143 141 166
    020573  aa  145 156 147 145
    020574  aa  163 040 145 170
    020575  aa  143 145 145 144
    020576  aa  145 144 056 000

                                  1397  ec  seg_busted,segbust,
                                  1398  	(Entry has been damaged.  Please type ""help damaged_segments.gi"".)
                        001121          	segdef  seg_busted
    001121  a0   077777 020601
    020577  aa  163 145 147 142         	aci  "segbust",8
    020600  aa  165 163 164 040
    020601  aa  100 105 156 164         	acc  "Entry has been damaged.  Please type ""help damaged_segments.gi""."
    020602  aa  162 171 040 150
    020603  aa  141 163 040 142
    020604  aa  145 145 156 040
    020605  aa  144 141 155 141
    020606  aa  147 145 144 056
    020607  aa  040 040 120 154
    020610  aa  145 141 163 145
    020611  aa  040 164 171 160
    020612  aa  145 040 042 150
    020613  aa  145 154 160 040
    020614  aa  144 141 155 141
    020615  aa  147 145 144 137
    020616  aa  163 145 147 155
    020617  aa  145 156 164 163
    020620  aa  056 147 151 042
    020621  aa  056 000 000 000

                                  1399  ec  seg_deleted,segdel,
                                  1400  	(The segment has been deleted.)
                        001122          	segdef  seg_deleted
    001122  a0   077777 020624
    020622  aa  163 145 147 144         	aci  "segdel",8
    020623  aa  145 154 040 040
    020624  aa  035 124 150 145         	acc  "The segment has been deleted."
    020625  aa  040 163 145 147
    020626  aa  155 145 156 164
    020627  aa  040 150 141 163
    020630  aa  040 142 145 145
    020631  aa  156 040 144 145
    020632  aa  154 145 164 145
    020633  aa  144 056 000 000

                                  1401  ec  seg_not_found,segntfnd,
                                  1402  	(Segment not found.)
                        001123          	segdef  seg_not_found
    001123  a0   077777 020636
    020634  aa  163 145 147 156         	aci  "segntfnd",8
    020635  aa  164 146 156 144
    020636  aa  022 123 145 147         	acc  "Segment not found."
    020637  aa  155 145 156 164
    020640  aa  040 156 157 164
    020641  aa  040 146 157 165
    020642  aa  156 144 056 000

                                  1403  ec  seg_unknown,notknown,
                                  1404  	(Segment not known to process.)
                        001124          	segdef  seg_unknown
    001124  a0   077777 020645
    020643  aa  156 157 164 153         	aci  "notknown",8
    020644  aa  156 157 167 156
    020645  aa  035 123 145 147         	acc  "Segment not known to process."
    020646  aa  155 145 156 164
    020647  aa  040 156 157 164
    020650  aa  040 153 156 157
    020651  aa  167 156 040 164
    020652  aa  157 040 160 162
    020653  aa  157 143 145 163
    020654  aa  163 056 000 000

                                  1405  ec  segfault,,
                                  1406  	(Segment fault occurred accessing segment.)
                        001125          	segdef  segfault
    001125  a0   077777 020657
    020655  aa  163 145 147 146         	aci  "segfault",8
    020656  aa  141 165 154 164
    020657  aa  051 123 145 147         	acc  "Segment fault occurred accessing segment."
    020660  aa  155 145 156 164
    020661  aa  040 146 141 165
    020662  aa  154 164 040 157
    020663  aa  143 143 165 162
    020664  aa  162 145 144 040
    020665  aa  141 143 143 145
    020666  aa  163 163 151 156
    020667  aa  147 040 163 145
    020670  aa  147 155 145 156
    020671  aa  164 056 000 000

                                  1407  ec  segknown,,
                                  1408  	(Segment already known to process.)
                        001126          	segdef  segknown
    001126  a0   077777 020674
    020672  aa  163 145 147 153         	aci  "segknown",8
    020673  aa  156 157 167 156
    020674  aa  041 123 145 147         	acc  "Segment already known to process."
    020675  aa  155 145 156 164
    020676  aa  040 141 154 162
    020677  aa  145 141 144 171
    020700  aa  040 153 156 157
    020701  aa  167 156 040 164
    020702  aa  157 040 160 162
    020703  aa  157 143 145 163
    020704  aa  163 056 000 000

                                  1409  ec  seglock,,
                                  1410  	(The segment is already locked.)
                        001127          	segdef  seglock
    001127  a0   077777 020707
    020705  aa  163 145 147 154         	aci  "seglock",8
    020706  aa  157 143 153 040
    020707  aa  036 124 150 145         	acc  "The segment is already locked."
    020710  aa  040 163 145 147
    020711  aa  155 145 156 164
    020712  aa  040 151 163 040
    020713  aa  141 154 162 145
    020714  aa  141 144 171 040
    020715  aa  154 157 143 153
    020716  aa  145 144 056 000

                                  1411  ec  segnamedup,segnamdp,
                                  1412  	(Name already on entry.)
                        001130          	segdef  segnamedup
    001130  a0   077777 020721
    020717  aa  163 145 147 156         	aci  "segnamdp",8
    020720  aa  141 155 144 160
    020721  aa  026 116 141 155         	acc  "Name already on entry."
    020722  aa  145 040 141 154
    020723  aa  162 145 141 144
    020724  aa  171 040 157 156
    020725  aa  040 145 156 164
    020726  aa  162 171 056 000

                                  1413  ec  segno_in_use,seginuse,
                                  1414  	(The segment number is in use.)
                        001131          	segdef  segno_in_use
    001131  a0   077777 020731
    020727  aa  163 145 147 151         	aci  "seginuse",8
    020730  aa  156 165 163 145
    020731  aa  035 124 150 145         	acc  "The segment number is in use."
    020732  aa  040 163 145 147
    020733  aa  155 145 156 164
    020734  aa  040 156 165 155
    020735  aa  142 145 162 040
    020736  aa  151 163 040 151
    020737  aa  156 040 165 163
    020740  aa  145 056 000 000

                                  1415  ec  short_record,shortrec,
                                  1416  	(Record is too short.)
                        001132          	segdef  short_record
    001132  a0   077777 020743
    020741  aa  163 150 157 162         	aci  "shortrec",8
    020742  aa  164 162 145 143
    020743  aa  024 122 145 143         	acc  "Record is too short."
    020744  aa  157 162 144 040
    020745  aa  151 163 040 164
    020746  aa  157 157 040 163
    020747  aa  150 157 162 164
    020750  aa  056 000 000 000

                                  1417  ec  signaller_fault,sigflt,
                                  1418  	(Fault in signaller by user's process.)
                        001133          	segdef  signaller_fault
    001133  a0   077777 020753
    020751  aa  163 151 147 146         	aci  "sigflt",8
    020752  aa  154 164 040 040
    020753  aa  045 106 141 165         	acc  "Fault in signaller by user's process."
    020754  aa  154 164 040 151
    020755  aa  156 040 163 151
    020756  aa  147 156 141 154
    020757  aa  154 145 162 040
    020760  aa  142 171 040 165
    020761  aa  163 145 162 047
    020762  aa  163 040 160 162
    020763  aa  157 143 145 163
    020764  aa  163 056 000 000

                                  1419  ec  size_error,sizeerr,
                                  1420     (The size condition has occurred.)
                        001134          	segdef  size_error
    001134  a0   077777 020767
    020765  aa  163 151 172 145         	aci  "sizeerr",8
    020766  aa  145 162 162 040
    020767  aa  040 124 150 145         	acc  "The size condition has occurred."
    020770  aa  040 163 151 172
    020771  aa  145 040 143 157
    020772  aa  156 144 151 164
    020773  aa  151 157 156 040
    020774  aa  150 141 163 040
    020775  aa  157 143 143 165
    020776  aa  162 162 145 144
    020777  aa  056 000 000 000

                                  1421  "   the size condition occurred during processing.
                                  1422
                                  1423  ec  smallarg,,
                                  1424  	(Argument size too small.)
                        001135          	segdef  smallarg
    001135  a0   077777 021002
    021000  aa  163 155 141 154         	aci  "smallarg",8
    021001  aa  154 141 162 147
    021002  aa  030 101 162 147         	acc  "Argument size too small."
    021003  aa  165 155 145 156
    021004  aa  164 040 163 151
    021005  aa  172 145 040 164
    021006  aa  157 157 040 163
    021007  aa  155 141 154 154
    021010  aa  056 000 000 000

                                  1425  ec  soos_set,,
                                  1426            (Security-out-of-service has been set on some branches due to AIM inconsistency.)
                        001136          	segdef  soos_set
    001136  a0   077777 021013
    021011  aa  163 157 157 163         	aci  "soos_set",8
    021012  aa  137 163 145 164
    021013  aa  117 123 145 143         	acc  "Security-out-of-service has been set on some branches due to AIM inconsistency."
    021014  aa  165 162 151 164
    021015  aa  171 055 157 165
    021016  aa  164 055 157 146
    021017  aa  055 163 145 162
    021020  aa  166 151 143 145
    021021  aa  040 150 141 163
    021022  aa  040 142 145 145
    021023  aa  156 040 163 145
    021024  aa  164 040 157 156
    021025  aa  040 163 157 155
    021026  aa  145 040 142 162
    021027  aa  141 156 143 150
    021030  aa  145 163 040 144
    021031  aa  165 145 040 164
    021032  aa  157 040 101 111
    021033  aa  115 040 151 156
    021034  aa  143 157 156 163
    021035  aa  151 163 164 145
    021036  aa  156 143 171 056

                                  1427  ec  special_channel,spechan,
                                  1428  	(The event channel specified is a special channel.)
                        001137          	segdef  special_channel
    001137  a0   077777 021041
    021037  aa  163 160 145 143         	aci  "spechan",8
    021040  aa  150 141 156 040
    021041  aa  061 124 150 145         	acc  "The event channel specified is a special channel."
    021042  aa  040 145 166 145
    021043  aa  156 164 040 143
    021044  aa  150 141 156 156
    021045  aa  145 154 040 163
    021046  aa  160 145 143 151
    021047  aa  146 151 145 144
    021050  aa  040 151 163 040
    021051  aa  141 040 163 160
    021052  aa  145 143 151 141
    021053  aa  154 040 143 150
    021054  aa  141 156 156 145
    021055  aa  154 056 000 000

                                  1429  ec  special_channels_full,chnsfull,
                                  1430  	(All available special channels have been allocated.)
                        001140          	segdef  special_channels_full
    001140  a0   077777 021060
    021056  aa  143 150 156 163         	aci  "chnsfull",8
    021057  aa  146 165 154 154
    021060  aa  063 101 154 154         	acc  "All available special channels have been allocated."
    021061  aa  040 141 166 141
    021062  aa  151 154 141 142
    021063  aa  154 145 040 163
    021064  aa  160 145 143 151
    021065  aa  141 154 040 143
    021066  aa  150 141 156 156
    021067  aa  145 154 163 040
    021070  aa  150 141 166 145
    021071  aa  040 142 145 145
    021072  aa  156 040 141 154
    021073  aa  154 157 143 141
    021074  aa  164 145 144 056

                                  1431  ec  stack_not_active,stkinact,
                                  1432  	(The requested ring-0 stack is not active.)
                        001141          	segdef  stack_not_active
    001141  a0   077777 021077
    021075  aa  163 164 153 151         	aci  "stkinact",8
    021076  aa  156 141 143 164
    021077  aa  051 124 150 145         	acc  "The requested ring-0 stack is not active."
    021100  aa  040 162 145 161
    021101  aa  165 145 163 164
    021102  aa  145 144 040 162
    021103  aa  151 156 147 055
    021104  aa  060 040 163 164
    021105  aa  141 143 153 040
    021106  aa  151 163 040 156
    021107  aa  157 164 040 141
    021110  aa  143 164 151 166
    021111  aa  145 056 000 000

                                  1433  ec  stack_overflow,stkovrfl,
                                  1434  	(Not enough room in stack to complete processing.)
                        001142          	segdef  stack_overflow
    001142  a0   077777 021114
    021112  aa  163 164 153 157         	aci  "stkovrfl",8
    021113  aa  166 162 146 154
    021114  aa  060 116 157 164         	acc  "Not enough room in stack to complete processing."
    021115  aa  040 145 156 157
    021116  aa  165 147 150 040
    021117  aa  162 157 157 155
    021120  aa  040 151 156 040
    021121  aa  163 164 141 143
    021122  aa  153 040 164 157
    021123  aa  040 143 157 155
    021124  aa  160 154 145 164
    021125  aa  145 040 160 162
    021126  aa  157 143 145 163
    021127  aa  163 151 156 147
    021130  aa  056 000 000 000

                                  1435  ec  strings_not_equal,string^=,
                                  1436  	(Strings are not equal.)
                        001143          	segdef  strings_not_equal
    001143  a0   077777 021133
    021131  aa  163 164 162 151         	aci  "string^=",8
    021132  aa  156 147 136 075
    021133  aa  026 123 164 162         	acc  "Strings are not equal."
    021134  aa  151 156 147 163
    021135  aa  040 141 162 145
    021136  aa  040 156 157 164
    021137  aa  040 145 161 165
    021140  aa  141 154 056 000

                                  1437  ec  subvol_needed,subvn,
                                  1438  	(Subvolume needed for this type device.)
                        001144          	segdef  subvol_needed
    001144  a0   077777 021143
    021141  aa  163 165 142 166         	aci  "subvn",8
    021142  aa  156 040 040 040
    021143  aa  046 123 165 142         	acc  "Subvolume needed for this type device."
    021144  aa  166 157 154 165
    021145  aa  155 145 040 156
    021146  aa  145 145 144 145
    021147  aa  144 040 146 157
    021150  aa  162 040 164 150
    021151  aa  151 163 040 164
    021152  aa  171 160 145 040
    021153  aa  144 145 166 151
    021154  aa  143 145 056 000

                                  1439  ec  subvol_invalid,subinv,
                                  1440  	(Subvolume is invalid for this device.)
                        001145          	segdef  subvol_invalid
    001145  a0   077777 021157
    021155  aa  163 165 142 151         	aci  "subinv",8
    021156  aa  156 166 040 040
    021157  aa  045 123 165 142         	acc  "Subvolume is invalid for this device."
    021160  aa  166 157 154 165
    021161  aa  155 145 040 151
    021162  aa  163 040 151 156
    021163  aa  166 141 154 151
    021164  aa  144 040 146 157
    021165  aa  162 040 164 150
    021166  aa  151 163 040 144
    021167  aa  145 166 151 143
    021170  aa  145 056 000 000

                                  1441  ec  synch_seg_limit,synchlim,
                                  1442  	(Too many synchronized segments are active.)
                        001146          	segdef  synch_seg_limit
    001146  a0   077777 021173
    021171  aa  163 171 156 143         	aci  "synchlim",8
    021172  aa  150 154 151 155
    021173  aa  052 124 157 157         	acc  "Too many synchronized segments are active."
    021174  aa  040 155 141 156
    021175  aa  171 040 163 171
    021176  aa  156 143 150 162
    021177  aa  157 156 151 172
    021200  aa  145 144 040 163
    021201  aa  145 147 155 145
    021202  aa  156 164 163 040
    021203  aa  141 162 145 040
    021204  aa  141 143 164 151
    021205  aa  166 145 056 000

                                  1443  ec  synch_seg_segmove,synchsgm,
                                  1444  	(Attempt to segment move synchronized segment with held pages.)
                        001147          	segdef  synch_seg_segmove
    001147  a0   077777 021210
    021206  aa  163 171 156 143         	aci  "synchsgm",8
    021207  aa  150 163 147 155
    021210  aa  075 101 164 164         	acc  "Attempt to segment move synchronized segment with held pages."
    021211  aa  145 155 160 164
    021212  aa  040 164 157 040
    021213  aa  163 145 147 155
    021214  aa  145 156 164 040
    021215  aa  155 157 166 145
    021216  aa  040 163 171 156
    021217  aa  143 150 162 157
    021220  aa  156 151 172 145
    021221  aa  144 040 163 145
    021222  aa  147 155 145 156
    021223  aa  164 040 167 151
    021224  aa  164 150 040 150
    021225  aa  145 154 144 040
    021226  aa  160 141 147 145
    021227  aa  163 056 000 000

                                  1445  ec  tape_error,tape_err,
                                  1446  	(Tape error.)
                        001150          	segdef  tape_error
    001150  a0   077777 021232
    021230  aa  164 141 160 145         	aci  "tape_err",8
    021231  aa  137 145 162 162
    021232  aa  013 124 141 160         	acc  "Tape error."
    021233  aa  145 040 145 162
    021234  aa  162 157 162 056

                                  1447  ec  termination_requested,termrqu,
                                  1448  	(Process terminated because of system defined error condition.)
                        001151          	segdef  termination_requested
    001151  a0   077777 021237
    021235  aa  164 145 162 155         	aci  "termrqu",8
    021236  aa  162 161 165 040
    021237  aa  075 120 162 157         	acc  "Process terminated because of system defined error condition."
    021240  aa  143 145 163 163
    021241  aa  040 164 145 162
    021242  aa  155 151 156 141
    021243  aa  164 145 144 040
    021244  aa  142 145 143 141
    021245  aa  165 163 145 040
    021246  aa  157 146 040 163
    021247  aa  171 163 164 145
    021250  aa  155 040 144 145
    021251  aa  146 151 156 145
    021252  aa  144 040 145 162
    021253  aa  162 157 162 040
    021254  aa  143 157 156 144
    021255  aa  151 164 151 157
    021256  aa  156 056 000 000

                                  1449  ec  time_too_long,timelong,
                                  1450  	(Specified time limit is too long.)
                        001152          	segdef  time_too_long
    001152  a0   077777 021261
    021257  aa  164 151 155 145         	aci  "timelong",8
    021260  aa  154 157 156 147
    021261  aa  041 123 160 145         	acc  "Specified time limit is too long."
    021262  aa  143 151 146 151
    021263  aa  145 144 040 164
    021264  aa  151 155 145 040
    021265  aa  154 151 155 151
    021266  aa  164 040 151 163
    021267  aa  040 164 157 157
    021270  aa  040 154 157 156
    021271  aa  147 056 000 000

                                  1451  ec  timeout,,
                                  1452  	(The operation was not completed within the required time.)
                        001153          	segdef  timeout
    001153  a0   077777 021274
    021272  aa  164 151 155 145         	aci  "timeout",8
    021273  aa  157 165 164 040
    021274  aa  071 124 150 145         	acc  "The operation was not completed within the required time."
    021275  aa  040 157 160 145
    021276  aa  162 141 164 151
    021277  aa  157 156 040 167
    021300  aa  141 163 040 156
    021301  aa  157 164 040 143
    021302  aa  157 155 160 154
    021303  aa  145 164 145 144
    021304  aa  040 167 151 164
    021305  aa  150 151 156 040
    021306  aa  164 150 145 040
    021307  aa  162 145 161 165
    021310  aa  151 162 145 144
    021311  aa  040 164 151 155
    021312  aa  145 056 000 000

                                  1453  ec  too_many_acl_entries,manyacle,
                                  1454  	(Access control list exceeds maximum size.)
                        001154          	segdef  too_many_acl_entries
    001154  a0   077777 021315
    021313  aa  155 141 156 171         	aci  "manyacle",8
    021314  aa  141 143 154 145
    021315  aa  051 101 143 143         	acc  "Access control list exceeds maximum size."
    021316  aa  145 163 163 040
    021317  aa  143 157 156 164
    021320  aa  162 157 154 040
    021321  aa  154 151 163 164
    021322  aa  040 145 170 143
    021323  aa  145 145 144 163
    021324  aa  040 155 141 170
    021325  aa  151 155 165 155
    021326  aa  040 163 151 172
    021327  aa  145 056 000 000

                                  1455  ec  too_many_args,t_m_args,
                                  1456  	(Maximum number of arguments for this command exceeded.)
                        001155          	segdef  too_many_args
    001155  a0   077777 021332
    021330  aa  164 137 155 137         	aci  "t_m_args",8
    021331  aa  141 162 147 163
    021332  aa  066 115 141 170         	acc  "Maximum number of arguments for this command exceeded."
    021333  aa  151 155 165 155
    021334  aa  040 156 165 155
    021335  aa  142 145 162 040
    021336  aa  157 146 040 141
    021337  aa  162 147 165 155
    021340  aa  145 156 164 163
    021341  aa  040 146 157 162
    021342  aa  040 164 150 151
    021343  aa  163 040 143 157
    021344  aa  155 155 141 156
    021345  aa  144 040 145 170
    021346  aa  143 145 145 144
    021347  aa  145 144 056 000

                                  1457  ec  too_many_buffers,manybufs,
                                  1458  	(Too many buffers specified.)
                        001156          	segdef  too_many_buffers
    001156  a0   077777 021352
    021350  aa  155 141 156 171         	aci  "manybufs",8
    021351  aa  142 165 146 163
    021352  aa  033 124 157 157         	acc  "Too many buffers specified."
    021353  aa  040 155 141 156
    021354  aa  171 040 142 165
    021355  aa  146 146 145 162
    021356  aa  163 040 163 160
    021357  aa  145 143 151 146
    021360  aa  151 145 144 056

                                  1459  ec  too_many_names,>names,
                                  1460  	(Name list exceeds maximum size.)
                        001157          	segdef  too_many_names
    001157  a0   077777 021363
    021361  aa  076 156 141 155         	aci  ">names",8
    021362  aa  145 163 040 040
    021363  aa  037 116 141 155         	acc  "Name list exceeds maximum size."
    021364  aa  145 040 154 151
    021365  aa  163 164 040 145
    021366  aa  170 143 145 145
    021367  aa  144 163 040 155
    021370  aa  141 170 151 155
    021371  aa  165 155 040 163
    021372  aa  151 172 145 056

                                  1461  ec  too_many_read_delimiters,tmrdelim,
                                  1462  	(Too many read delimiters specified.)
                        001160          	segdef  too_many_read_delimiters
    001160  a0   077777 021375
    021373  aa  164 155 162 144         	aci  "tmrdelim",8
    021374  aa  145 154 151 155
    021375  aa  043 124 157 157         	acc  "Too many read delimiters specified."
    021376  aa  040 155 141 156
    021377  aa  171 040 162 145
    021400  aa  141 144 040 144
    021401  aa  145 154 151 155
    021402  aa  151 164 145 162
    021403  aa  163 040 163 160
    021404  aa  145 143 151 146
    021405  aa  151 145 144 056

                                  1463  ec  too_many_refs,manyrefs,
                                  1464  	(Unable to increment the reference count because of upper bound limit.)
                        001161          	segdef  too_many_refs
    001161  a0   077777 021410
    021406  aa  155 141 156 171         	aci  "manyrefs",8
    021407  aa  162 145 146 163
    021410  aa  105 125 156 141         	acc  "Unable to increment the reference count because of upper bound limit."
    021411  aa  142 154 145 040
    021412  aa  164 157 040 151
    021413  aa  156 143 162 145
    021414  aa  155 145 156 164
    021415  aa  040 164 150 145
    021416  aa  040 162 145 146
    021417  aa  145 162 145 156
    021420  aa  143 145 040 143
    021421  aa  157 165 156 164
    021422  aa  040 142 145 143
    021423  aa  141 165 163 145
    021424  aa  040 157 146 040
    021425  aa  165 160 160 145
    021426  aa  162 040 142 157
    021427  aa  165 156 144 040
    021430  aa  154 151 155 151
    021431  aa  164 056 000 000

                                  1465  ec  too_many_sr,toomnysr,
                                  1466  	(Too many search rules.)
                        001162          	segdef  too_many_sr
    001162  a0   077777 021434
    021432  aa  164 157 157 155         	aci  "toomnysr",8
    021433  aa  156 171 163 162
    021434  aa  026 124 157 157         	acc  "Too many search rules."
    021435  aa  040 155 141 156
    021436  aa  171 040 163 145
    021437  aa  141 162 143 150
    021440  aa  040 162 165 154
    021441  aa  145 163 056 000

                                  1467  ec  too_many_tokens,numtoken,
                                  1468     (The string contains more tokens than can be processed.)
                        001163          	segdef  too_many_tokens
    001163  a0   077777 021444
    021442  aa  156 165 155 164         	aci  "numtoken",8
    021443  aa  157 153 145 156
    021444  aa  066 124 150 145         	acc  "The string contains more tokens than can be processed."
    021445  aa  040 163 164 162
    021446  aa  151 156 147 040
    021447  aa  143 157 156 164
    021450  aa  141 151 156 163
    021451  aa  040 155 157 162
    021452  aa  145 040 164 157
    021453  aa  153 145 156 163
    021454  aa  040 164 150 141
    021455  aa  156 040 143 141
    021456  aa  156 040 142 145
    021457  aa  040 160 162 157
    021460  aa  143 145 163 163
    021461  aa  145 144 056 000

                                  1469  "   the time string contains more tokens than the
                                  1470  "   routine is prepared to handle.
                                  1471
                                  1472  ec  toomanylinks,>links,
                                  1473  	(There are too many links to get to a branch.)
                        001164          	segdef  toomanylinks
    001164  a0   077777 021464
    021462  aa  076 154 151 156         	aci  ">links",8
    021463  aa  153 163 040 040
    021464  aa  054 124 150 145         	acc  "There are too many links to get to a branch."
    021465  aa  162 145 040 141
    021466  aa  162 145 040 164
    021467  aa  157 157 040 155
    021470  aa  141 156 171 040
    021471  aa  154 151 156 153
    021472  aa  163 040 164 157
    021473  aa  040 147 145 164
    021474  aa  040 164 157 040
    021475  aa  141 040 142 162
    021476  aa  141 156 143 150
    021477  aa  056 000 000 000

                                  1474  ec  trace_table_empty,emptytbl,
                                  1475  	(Trace table is empty.)
                        001165          	segdef  trace_table_empty
    001165  a0   077777 021502
    021500  aa  145 155 160 164         	aci  "emptytbl",8
    021501  aa  171 164 142 154
    021502  aa  025 124 162 141         	acc  "Trace table is empty."
    021503  aa  143 145 040 164
    021504  aa  141 142 154 145
    021505  aa  040 151 163 040
    021506  aa  145 155 160 164
    021507  aa  171 056 000 000

                                  1476  ec  trace_table_full,fulltbl,
                                  1477  	(Trace table is full.)
                        001166          	segdef  trace_table_full
    001166  a0   077777 021512
    021510  aa  146 165 154 154         	aci  "fulltbl",8
    021511  aa  164 142 154 040
    021512  aa  024 124 162 141         	acc  "Trace table is full."
    021513  aa  143 145 040 164
    021514  aa  141 142 154 145
    021515  aa  040 151 163 040
    021516  aa  146 165 154 154
    021517  aa  056 000 000 000

                                  1478  ec  translation_aborted,tranabor,
                                  1479  	(Fatal error.  Translation aborted.)
                        001167          	segdef  translation_aborted
    001167  a0   077777 021522
    021520  aa  164 162 141 156         	aci  "tranabor",8
    021521  aa  141 142 157 162
    021522  aa  042 106 141 164         	acc  "Fatal error.  Translation aborted."
    021523  aa  141 154 040 145
    021524  aa  162 162 157 162
    021525  aa  056 040 040 124
    021526  aa  162 141 156 163
    021527  aa  154 141 164 151
    021530  aa  157 156 040 141
    021531  aa  142 157 162 164
    021532  aa  145 144 056 000

                                  1480  ec  translation_failed,tranfail,
                                  1481  	(Translation failed.)
                        001170          	segdef  translation_failed
    001170  a0   077777 021535
    021533  aa  164 162 141 156         	aci  "tranfail",8
    021534  aa  146 141 151 154
    021535  aa  023 124 162 141         	acc  "Translation failed."
    021536  aa  156 163 154 141
    021537  aa  164 151 157 156
    021540  aa  040 146 141 151
    021541  aa  154 145 144 056

                                  1482  ec  typename_not_found,typenfnd,
                                  1483  	(Typename not found.)
                        001171          	segdef  typename_not_found
    001171  a0   077777 021544
    021542  aa  164 171 160 145         	aci  "typenfnd",8
    021543  aa  156 146 156 144
    021544  aa  023 124 171 160         	acc  "Typename not found."
    021545  aa  145 156 141 155
    021546  aa  145 040 156 157
    021547  aa  164 040 146 157
    021550  aa  165 156 144 056

                                  1484  ec  unable_to_check_access,cantchk,
                                  1485  	(It was not possible to complete access checking - access denied.)
                        001172          	segdef  unable_to_check_access
    001172  a0   077777 021553
    021551  aa  143 141 156 164         	aci  "cantchk",8
    021552  aa  143 150 153 040
    021553  aa  100 111 164 040         	acc  "It was not possible to complete access checking - access denied."
    021554  aa  167 141 163 040
    021555  aa  156 157 164 040
    021556  aa  160 157 163 163
    021557  aa  151 142 154 145
    021560  aa  040 164 157 040
    021561  aa  143 157 155 160
    021562  aa  154 145 164 145
    021563  aa  040 141 143 143
    021564  aa  145 163 163 040
    021565  aa  143 150 145 143
    021566  aa  153 151 156 147
    021567  aa  040 055 040 141
    021570  aa  143 143 145 163
    021571  aa  163 040 144 145
    021572  aa  156 151 145 144
    021573  aa  056 000 000 000

                                  1486  ec  unable_to_do_io,no_io,
                                  1487  	(Unable to perform critical I/O.)
                        001173          	segdef  unable_to_do_io
    001173  a0   077777 021576
    021574  aa  156 157 137 151         	aci  "no_io",8
    021575  aa  157 040 040 040
    021576  aa  037 125 156 141         	acc  "Unable to perform critical I/O."
    021577  aa  142 154 145 040
    021600  aa  164 157 040 160
    021601  aa  145 162 146 157
    021602  aa  162 155 040 143
    021603  aa  162 151 164 151
    021604  aa  143 141 154 040
    021605  aa  111 057 117 056

                                  1488  ec  unbalanced_brackets,unbalbra,
                                  1489  	(Brackets do not balance.)
                        001174          	segdef  unbalanced_brackets
    001174  a0   077777 021610
    021606  aa  165 156 142 141         	aci  "unbalbra",8
    021607  aa  154 142 162 141
    021610  aa  030 102 162 141         	acc  "Brackets do not balance."
    021611  aa  143 153 145 164
    021612  aa  163 040 144 157
    021613  aa  040 156 157 164
    021614  aa  040 142 141 154
    021615  aa  141 156 143 145
    021616  aa  056 000 000 000

                                  1490  ec  unbalanced_parentheses,unbalpar,
                                  1491  	(Parentheses do not balance.)
                        001175          	segdef  unbalanced_parentheses
    001175  a0   077777 021621
    021617  aa  165 156 142 141         	aci  "unbalpar",8
    021620  aa  154 160 141 162
    021621  aa  033 120 141 162         	acc  "Parentheses do not balance."
    021622  aa  145 156 164 150
    021623  aa  145 163 145 163
    021624  aa  040 144 157 040
    021625  aa  156 157 164 040
    021626  aa  142 141 154 141
    021627  aa  156 143 145 056

                                  1492  ec  unbalanced_quotes,unbalquo,
                                  1493  	(Quotes do not balance.)
                        001176          	segdef  unbalanced_quotes
    001176  a0   077777 021632
    021630  aa  165 156 142 141         	aci  "unbalquo",8
    021631  aa  154 161 165 157
    021632  aa  026 121 165 157         	acc  "Quotes do not balance."
    021633  aa  164 145 163 040
    021634  aa  144 157 040 156
    021635  aa  157 164 040 142
    021636  aa  141 154 141 156
    021637  aa  143 145 056 000

                                  1494  ec  undefined_mode,undefmod,
                                  1495  	(Mode not defined.)
                        001177          	segdef  undefined_mode
    001177  a0   077777 021642
    021640  aa  165 156 144 145         	aci  "undefmod",8
    021641  aa  146 155 157 144
    021642  aa  021 115 157 144         	acc  "Mode not defined."
    021643  aa  145 040 156 157
    021644  aa  164 040 144 145
    021645  aa  146 151 156 145
    021646  aa  144 056 000 000

                                  1496  ec  undefined_order_request,undorder,
                                  1497  	(Undefined order request.)
                        001200          	segdef  undefined_order_request
    001200  a0   077777 021651
    021647  aa  165 156 144 157         	aci  "undorder",8
    021650  aa  162 144 145 162
    021651  aa  030 125 156 144         	acc  "Undefined order request."
    021652  aa  145 146 151 156
    021653  aa  145 144 040 157
    021654  aa  162 144 145 162
    021655  aa  040 162 145 161
    021656  aa  165 145 163 164
    021657  aa  056 000 000 000

                                  1498  ec  undefined_ptrname,undptnam,
                                  1499  	(Unrecognizable ptrname on seek or tell call.)
                        001201          	segdef  undefined_ptrname
    001201  a0   077777 021662
    021660  aa  165 156 144 160         	aci  "undptnam",8
    021661  aa  164 156 141 155
    021662  aa  054 125 156 162         	acc  "Unrecognizable ptrname on seek or tell call."
    021663  aa  145 143 157 147
    021664  aa  156 151 172 141
    021665  aa  142 154 145 040
    021666  aa  160 164 162 156
    021667  aa  141 155 145 040
    021670  aa  157 156 040 163
    021671  aa  145 145 153 040
    021672  aa  157 162 040 164
    021673  aa  145 154 154 040
    021674  aa  143 141 154 154
    021675  aa  056 000 000 000

                                  1500  ec  undeleted_device,undeldev,
                                  1501            (Cannot delete the only channel leading to an undeleted device.)
                        001202          	segdef  undeleted_device
    001202  a0   077777 021700
    021676  aa  165 156 144 145         	aci  "undeldev",8
    021677  aa  154 144 145 166
    021700  aa  076 103 141 156         	acc  "Cannot delete the only channel leading to an undeleted device."
    021701  aa  156 157 164 040
    021702  aa  144 145 154 145
    021703  aa  164 145 040 164
    021704  aa  150 145 040 157
    021705  aa  156 154 171 040
    021706  aa  143 150 141 156
    021707  aa  156 145 154 040
    021710  aa  154 145 141 144
    021711  aa  151 156 147 040
    021712  aa  164 157 040 141
    021713  aa  156 040 165 156
    021714  aa  144 145 154 145
    021715  aa  164 145 144 040
    021716  aa  144 145 166 151
    021717  aa  143 145 056 000

                                  1502  ec  unexpected_condition,exexpcon,
                                  1503  	(An unexpected condition was signalled during the operation.)
                        001203          	segdef  unexpected_condition
    001203  a0   077777 021722
    021720  aa  145 170 145 170         	aci  "exexpcon",8
    021721  aa  160 143 157 156
    021722  aa  073 101 156 040         	acc  "An unexpected condition was signalled during the operation."
    021723  aa  165 156 145 170
    021724  aa  160 145 143 164
    021725  aa  145 144 040 143
    021726  aa  157 156 144 151
    021727  aa  164 151 157 156
    021730  aa  040 167 141 163
    021731  aa  040 163 151 147
    021732  aa  156 141 154 154
    021733  aa  145 144 040 144
    021734  aa  165 162 151 156
    021735  aa  147 040 164 150
    021736  aa  145 040 157 160
    021737  aa  145 162 141 164
    021740  aa  151 157 156 056

                                  1504  ec  unexpected_device_status,unxpstat,
                                  1505  	(Unexpected or inexplicable status received from device.)
                        001204          	segdef  unexpected_device_status
    001204  a0   077777 021743
    021741  aa  165 156 170 160         	aci  "unxpstat",8
    021742  aa  163 164 141 164
    021743  aa  067 125 156 145         	acc  "Unexpected or inexplicable status received from device."
    021744  aa  170 160 145 143
    021745  aa  164 145 144 040
    021746  aa  157 162 040 151
    021747  aa  156 145 170 160
    021750  aa  154 151 143 141
    021751  aa  142 154 145 040
    021752  aa  163 164 141 164
    021753  aa  165 163 040 162
    021754  aa  145 143 145 151
    021755  aa  166 145 144 040
    021756  aa  146 162 157 155
    021757  aa  040 144 145 166
    021760  aa  151 143 145 056

                                  1506  ec  unexpected_ft2,unexpft2,
                                  1507  	(Attempt to execute instruction containing a fault tag 2.)
                        001205          	segdef  unexpected_ft2
    001205  a0   077777 021763
    021761  aa  165 156 145 170         	aci  "unexpft2",8
    021762  aa  160 146 164 062
    021763  aa  070 101 164 164         	acc  "Attempt to execute instruction containing a fault tag 2."
    021764  aa  145 155 160 164
    021765  aa  040 164 157 040
    021766  aa  145 170 145 143
    021767  aa  165 164 145 040
    021770  aa  151 156 163 164
    021771  aa  162 165 143 164
    021772  aa  151 157 156 040
    021773  aa  143 157 156 164
    021774  aa  141 151 156 151
    021775  aa  156 147 040 141
    021776  aa  040 146 141 165
    021777  aa  154 164 040 164
    022000  aa  141 147 040 062
    022001  aa  056 000 000 000

                                  1508  ec  unexpired_file,unexpfl,
                                  1509  	(Unable to overwrite an unexpired file.)
                        001206          	segdef  unexpired_file
    001206  a0   077777 022004
    022002  aa  165 156 145 170         	aci  "unexpfl",8
    022003  aa  160 146 154 040
    022004  aa  046 125 156 141         	acc  "Unable to overwrite an unexpired file."
    022005  aa  142 154 145 040
    022006  aa  164 157 040 157
    022007  aa  166 145 162 167
    022010  aa  162 151 164 145
    022011  aa  040 141 156 040
    022012  aa  165 156 145 170
    022013  aa  160 151 162 145
    022014  aa  144 040 146 151
    022015  aa  154 145 056 000

                                  1510  ec  unexpired_volume,unexpvl,
                                  1511  	(Unable to continue processing on unexpired volume.)
                        001207          	segdef  unexpired_volume
    001207  a0   077777 022020
    022016  aa  165 156 145 170         	aci  "unexpvl",8
    022017  aa  160 166 154 040
    022020  aa  062 125 156 141         	acc  "Unable to continue processing on unexpired volume."
    022021  aa  142 154 145 040
    022022  aa  164 157 040 143
    022023  aa  157 156 164 151
    022024  aa  156 165 145 040
    022025  aa  160 162 157 143
    022026  aa  145 163 163 151
    022027  aa  156 147 040 157
    022030  aa  156 040 165 156
    022031  aa  145 170 160 151
    022032  aa  162 145 144 040
    022033  aa  166 157 154 165
    022034  aa  155 145 056 000

                                  1512  ec  unimplemented_ptrname,unimptnm,
                                  1513  	(Pointer name passed to seek or tell not currently implemented by it.)
                        001210          	segdef  unimplemented_ptrname
    001210  a0   077777 022037
    022035  aa  165 156 151 155         	aci  "unimptnm",8
    022036  aa  160 164 156 155
    022037  aa  104 120 157 151         	acc  "Pointer name passed to seek or tell not currently implemented by it."
    022040  aa  156 164 145 162
    022041  aa  040 156 141 155
    022042  aa  145 040 160 141
    022043  aa  163 163 145 144
    022044  aa  040 164 157 040
    022045  aa  163 145 145 153
    022046  aa  040 157 162 040
    022047  aa  164 145 154 154
    022050  aa  040 156 157 164
    022051  aa  040 143 165 162
    022052  aa  162 145 156 164
    022053  aa  154 171 040 151
    022054  aa  155 160 154 145
    022055  aa  155 145 156 164
    022056  aa  145 144 040 142
    022057  aa  171 040 151 164
    022060  aa  056 000 000 000

                                  1514  ec  unimplemented_version,not_imp,
                                  1515  	(This procedure does not implement the requested version.)
                        001211          	segdef  unimplemented_version
    001211  a0   077777 022063
    022061  aa  156 157 164 137         	aci  "not_imp",8
    022062  aa  151 155 160 040
    022063  aa  070 124 150 151         	acc  "This procedure does not implement the requested version."
    022064  aa  163 040 160 162
    022065  aa  157 143 145 144
    022066  aa  165 162 145 040
    022067  aa  144 157 145 163
    022070  aa  040 156 157 164
    022071  aa  040 151 155 160
    022072  aa  154 145 155 145
    022073  aa  156 164 040 164
    022074  aa  150 145 040 162
    022075  aa  145 161 165 145
    022076  aa  163 164 145 144
    022077  aa  040 166 145 162
    022100  aa  163 151 157 156
    022101  aa  056 000 000 000

                                  1516  "   a structure is not a version this procedure can handle.
                                  1517
                                  1518  ec  uninitialized_volume,uninitvl,
                                  1519  	(Unable to continue processing on uninitialized volume.)
                        001212          	segdef  uninitialized_volume
    001212  a0   077777 022104
    022102  aa  165 156 151 156         	aci  "uninitvl",8
    022103  aa  151 164 166 154
    022104  aa  066 125 156 141         	acc  "Unable to continue processing on uninitialized volume."
    022105  aa  142 154 145 040
    022106  aa  164 157 040 143
    022107  aa  157 156 164 151
    022110  aa  156 165 145 040
    022111  aa  160 162 157 143
    022112  aa  145 163 163 151
    022113  aa  156 147 040 157
    022114  aa  156 040 165 156
    022115  aa  151 156 151 164
    022116  aa  151 141 154 151
    022117  aa  172 145 144 040
    022120  aa  166 157 154 165
    022121  aa  155 145 056 000

                                  1520  ec  unknown_tp,bad_tp,
                                  1521  	(The specified tuning parameter does not exist.)
                        001213          	segdef  unknown_tp
    001213  a0   077777 022124
    022122  aa  142 141 144 137         	aci  "bad_tp",8
    022123  aa  164 160 040 040
    022124  aa  056 124 150 145         	acc  "The specified tuning parameter does not exist."
    022125  aa  040 163 160 145
    022126  aa  143 151 146 151
    022127  aa  145 144 040 164
    022130  aa  165 156 151 156
    022131  aa  147 040 160 141
    022132  aa  162 141 155 145
    022133  aa  164 145 162 040
    022134  aa  144 157 145 163
    022135  aa  040 156 157 164
    022136  aa  040 145 170 151
    022137  aa  163 164 056 000

                                  1522  ec  unknown_zone,bad_zone,
                                  1523  	(The time zone is not acceptable.)
                        001214          	segdef  unknown_zone
    001214  a0   077777 022142
    022140  aa  142 141 144 137         	aci  "bad_zone",8
    022141  aa  172 157 156 145
    022142  aa  040 124 150 145         	acc  "The time zone is not acceptable."
    022143  aa  040 164 151 155
    022144  aa  145 040 172 157
    022145  aa  156 145 040 151
    022146  aa  163 040 156 157
    022147  aa  164 040 141 143
    022150  aa  143 145 160 164
    022151  aa  141 142 154 145
    022152  aa  056 000 000 000

                                  1524  "   the time zone specified by the caller was not found in
                                  1525  "   time_info_.
                                  1526
                                  1527  ec  unrecognized_char_code,urecgcc,
                                  1528  	(Volume recorded in unrecognized character code.)
                        001215          	segdef  unrecognized_char_code
    001215  a0   077777 022155
    022153  aa  165 162 145 143         	aci  "urecgcc",8
    022154  aa  147 143 143 040
    022155  aa  057 126 157 154         	acc  "Volume recorded in unrecognized character code."
    022156  aa  165 155 145 040
    022157  aa  162 145 143 157
    022160  aa  162 144 145 144
    022161  aa  040 151 156 040
    022162  aa  165 156 162 145
    022163  aa  143 157 147 156
    022164  aa  151 172 145 144
    022165  aa  040 143 150 141
    022166  aa  162 141 143 164
    022167  aa  145 162 040 143
    022170  aa  157 144 145 056

                                  1529  ec  unregistered_volume,unregvol,
                                  1530  	(The specified detachable volume has not been registered.)
                        001216          	segdef  unregistered_volume
    001216  a0   077777 022173
    022171  aa  165 156 162 145         	aci  "unregvol",8
    022172  aa  147 166 157 154
    022173  aa  070 124 150 145         	acc  "The specified detachable volume has not been registered."
    022174  aa  040 163 160 145
    022175  aa  143 151 146 151
    022176  aa  145 144 040 144
    022177  aa  145 164 141 143
    022200  aa  150 141 142 154
    022201  aa  145 040 166 157
    022202  aa  154 165 155 145
    022203  aa  040 150 141 163
    022204  aa  040 156 157 164
    022205  aa  040 142 145 145
    022206  aa  156 040 162 145
    022207  aa  147 151 163 164
    022210  aa  145 162 145 144
    022211  aa  056 000 000 000

                                  1531  ec  unsupported_multi_class_volume,unsupvol,
                                  1532            (Multi-class volumes are not supported.)
                        001217          	segdef  unsupported_multi_class_volume
    001217  a0   077777 022214
    022212  aa  165 156 163 165         	aci  "unsupvol",8
    022213  aa  160 166 157 154
    022214  aa  046 115 165 154         	acc  "Multi-class volumes are not supported."
    022215  aa  164 151 055 143
    022216  aa  154 141 163 163
    022217  aa  040 166 157 154
    022220  aa  165 155 145 163
    022221  aa  040 141 162 145
    022222  aa  040 156 157 164
    022223  aa  040 163 165 160
    022224  aa  160 157 162 164
    022225  aa  145 144 056 000

                                  1533  ec  unsupported_operation,unsupop,
                                  1534  	(The requested operation is not supported.)
                        001220          	segdef  unsupported_operation
    001220  a0   077777 022230
    022226  aa  165 156 163 165         	aci  "unsupop",8
    022227  aa  160 157 160 040
    022230  aa  051 124 150 145         	acc  "The requested operation is not supported."
    022231  aa  040 162 145 161
    022232  aa  165 145 163 164
    022233  aa  145 144 040 157
    022234  aa  160 145 162 141
    022235  aa  164 151 157 156
    022236  aa  040 151 163 040
    022237  aa  156 157 164 040
    022240  aa  163 165 160 160
    022241  aa  157 162 164 145
    022242  aa  144 056 000 000

                                  1535  ec  unsupported_terminal,bad_term,
                                  1536  	(The specified terminal is not supported by the video system.)
                        001221          	segdef  unsupported_terminal
    001221  a0   077777 022245
    022243  aa  142 141 144 137         	aci  "bad_term",8
    022244  aa  164 145 162 155
    022245  aa  074 124 150 145         	acc  "The specified terminal is not supported by the video system."
    022246  aa  040 163 160 145
    022247  aa  143 151 146 151
    022250  aa  145 144 040 164
    022251  aa  145 162 155 151
    022252  aa  156 141 154 040
    022253  aa  151 163 040 156
    022254  aa  157 164 040 163
    022255  aa  165 160 160 157
    022256  aa  162 164 145 144
    022257  aa  040 142 171 040
    022260  aa  164 150 145 040
    022261  aa  166 151 144 145
    022262  aa  157 040 163 171
    022263  aa  163 164 145 155
    022264  aa  056 000 000 000

                                  1537  ec  user_not_found,usernfd,
                                  1538  	(User-name not on access control list for branch.)
                        001222          	segdef  user_not_found
    001222  a0   077777 022267
    022265  aa  165 163 145 162         	aci  "usernfd",8
    022266  aa  156 146 144 040
    022267  aa  060 125 163 145         	acc  "User-name not on access control list for branch."
    022270  aa  162 055 156 141
    022271  aa  155 145 040 156
    022272  aa  157 164 040 157
    022273  aa  156 040 141 143
    022274  aa  143 145 163 163
    022275  aa  040 143 157 156
    022276  aa  164 162 157 154
    022277  aa  040 154 151 163
    022300  aa  164 040 146 157
    022301  aa  162 040 142 162
    022302  aa  141 156 143 150
    022303  aa  056 000 000 000

                                  1539  ec  user_requested_logout,userlogo,
                                  1540  	(The user voluntarily logged out.)
                        001223          	segdef  user_requested_logout
    001223  a0   077777 022306
    022304  aa  165 163 145 162         	aci  "userlogo",8
    022305  aa  154 157 147 157
    022306  aa  040 124 150 145         	acc  "The user voluntarily logged out."
    022307  aa  040 165 163 145
    022310  aa  162 040 166 157
    022311  aa  154 165 156 164
    022312  aa  141 162 151 154
    022313  aa  171 040 154 157
    022314  aa  147 147 145 144
    022315  aa  040 157 165 164
    022316  aa  056 000 000 000

                                  1541  ec  user_requested_hangup,userhngp,
                                  1542  	(The user requested the connection to close.)
                        001224          	segdef  user_requested_hangup
    001224  a0   077777 022321
    022317  aa  165 163 145 162         	aci  "userhngp",8
    022320  aa  150 156 147 160
    022321  aa  053 124 150 145         	acc  "The user requested the connection to close."
    022322  aa  040 165 163 145
    022323  aa  162 040 162 145
    022324  aa  161 165 145 163
    022325  aa  164 145 144 040
    022326  aa  164 150 145 040
    022327  aa  143 157 156 156
    022330  aa  145 143 164 151
    022331  aa  157 156 040 164
    022332  aa  157 040 143 154
    022333  aa  157 163 145 056

                                  1543  ec  vchn_active,vchnact,
                                  1544  	(virtual channel is currently in use.)
                        001225          	segdef  vchn_active
    001225  a0   077777 022336
    022334  aa  166 143 150 156         	aci  "vchnact",8
    022335  aa  141 143 164 040
    022336  aa  044 166 151 162         	acc  "virtual channel is currently in use."
    022337  aa  164 165 141 154
    022340  aa  040 143 150 141
    022341  aa  156 156 145 154
    022342  aa  040 151 163 040
    022343  aa  143 165 162 162
    022344  aa  145 156 164 154
    022345  aa  171 040 151 156
    022346  aa  040 165 163 145
    022347  aa  056 000 000 000

                                  1545  ec  vchn_not_found,vchnnfnd,
                                  1546  	(virtual channel not defined.)
                        001226          	segdef  vchn_not_found
    001226  a0   077777 022352
    022350  aa  166 143 150 156         	aci  "vchnnfnd",8
    022351  aa  156 146 156 144
    022352  aa  034 166 151 162         	acc  "virtual channel not defined."
    022353  aa  164 165 141 154
    022354  aa  040 143 150 141
    022355  aa  156 156 145 154
    022356  aa  040 156 157 164
    022357  aa  040 144 145 146
    022360  aa  151 156 145 144
    022361  aa  056 000 000 000

                                  1547  ec  vol_in_use,volinuse,
                                  1548  	(The volume is in use by another process.)
                        001227          	segdef  vol_in_use
    001227  a0   077777 022364
    022362  aa  166 157 154 151         	aci  "volinuse",8
    022363  aa  156 165 163 145
    022364  aa  050 124 150 145         	acc  "The volume is in use by another process."
    022365  aa  040 166 157 154
    022366  aa  165 155 145 040
    022367  aa  151 163 040 151
    022370  aa  156 040 165 163
    022371  aa  145 040 142 171
    022372  aa  040 141 156 157
    022373  aa  164 150 145 162
    022374  aa  040 160 162 157
    022375  aa  143 145 163 163
    022376  aa  056 000 000 000

                                  1549  ec  volume_busy,volbusy,
                                  1550  	(The requested volume is not available.)
                        001230          	segdef  volume_busy
    001230  a0   077777 022401
    022377  aa  166 157 154 142         	aci  "volbusy",8
    022400  aa  165 163 171 040
    022401  aa  046 124 150 145         	acc  "The requested volume is not available."
    022402  aa  040 162 145 161
    022403  aa  165 145 163 164
    022404  aa  145 144 040 166
    022405  aa  157 154 165 155
    022406  aa  145 040 151 163
    022407  aa  040 156 157 164
    022410  aa  040 141 166 141
    022411  aa  151 154 141 142
    022412  aa  154 145 056 000

                                  1551  ec  volume_not_loaded,volntld,
                                  1552  	(The requested volume is not loaded.)
                        001231          	segdef  volume_not_loaded
    001231  a0   077777 022415
    022413  aa  166 157 154 156         	aci  "volntld",8
    022414  aa  164 154 144 040
    022415  aa  043 124 150 145         	acc  "The requested volume is not loaded."
    022416  aa  040 162 145 161
    022417  aa  165 145 163 164
    022420  aa  145 144 040 166
    022421  aa  157 154 165 155
    022422  aa  145 040 151 163
    022423  aa  040 156 157 164
    022424  aa  040 154 157 141
    022425  aa  144 145 144 056

                                  1553  ec  volume_type_unknown,vt^known,
                                  1554  	(Volume type unknown to the system.)
                        001232          	segdef  volume_type_unknown
    001232  a0   077777 022430
    022426  aa  166 164 136 153         	aci  "vt^known",8
    022427  aa  156 157 167 156
    022430  aa  042 126 157 154         	acc  "Volume type unknown to the system."
    022431  aa  165 155 145 040
    022432  aa  164 171 160 145
    022433  aa  040 165 156 153
    022434  aa  156 157 167 156
    022435  aa  040 164 157 040
    022436  aa  164 150 145 040
    022437  aa  163 171 163 164
    022440  aa  145 155 056 000

                                  1555  ec  vtoc_io_err,vtocioer,
                                  1556  	(Unrecoverable data-transmission error on VTOC.)
                        001233          	segdef  vtoc_io_err
    001233  a0   077777 022443
    022441  aa  166 164 157 143         	aci  "vtocioer",8
    022442  aa  151 157 145 162
    022443  aa  056 125 156 162         	acc  "Unrecoverable data-transmission error on VTOC."
    022444  aa  145 143 157 166
    022445  aa  145 162 141 142
    022446  aa  154 145 040 144
    022447  aa  141 164 141 055
    022450  aa  164 162 141 156
    022451  aa  163 155 151 163
    022452  aa  163 151 157 156
    022453  aa  040 145 162 162
    022454  aa  157 162 040 157
    022455  aa  156 040 126 124
    022456  aa  117 103 056 000

                                  1557  ec  vtoce_connection_fail,vtocecnf,
                                  1558  	(Some directory or segment in the pathname is not listed in the VTOC.)
                        001234          	segdef  vtoce_connection_fail
    001234  a0   077777 022461
    022457  aa  166 164 157 143         	aci  "vtocecnf",8
    022460  aa  145 143 156 146
    022461  aa  104 123 157 155         	acc  "Some directory or segment in the pathname is not listed in the VTOC."
    022462  aa  145 040 144 151
    022463  aa  162 145 143 164
    022464  aa  157 162 171 040
    022465  aa  157 162 040 163
    022466  aa  145 147 155 145
    022467  aa  156 164 040 151
    022470  aa  156 040 164 150
    022471  aa  145 040 160 141
    022472  aa  164 150 156 141
    022473  aa  155 145 040 151
    022474  aa  163 040 156 157
    022475  aa  164 040 154 151
    022476  aa  163 164 145 144
    022477  aa  040 151 156 040
    022500  aa  164 150 145 040
    022501  aa  126 124 117 103
    022502  aa  056 000 000 000

                                  1559  ec  vtoce_free,vtocefr,
                                  1560  	(The VTOCE is already free.)
                        001235          	segdef  vtoce_free
    001235  a0   077777 022505
    022503  aa  166 164 157 143         	aci  "vtocefr",8
    022504  aa  145 146 162 040
    022505  aa  032 124 150 145         	acc  "The VTOCE is already free."
    022506  aa  040 126 124 117
    022507  aa  103 105 040 151
    022510  aa  163 040 141 154
    022511  aa  162 145 141 144
    022512  aa  171 040 146 162
    022513  aa  145 145 056 000

                                  1561  ec  wakeup_denied,nowakeup,
                                  1562  	(Insufficient access to send wakeup.)
                        001236          	segdef  wakeup_denied
    001236  a0   077777 022516
    022514  aa  156 157 167 141         	aci  "nowakeup",8
    022515  aa  153 145 165 160
    022516  aa  043 111 156 163         	acc  "Insufficient access to send wakeup."
    022517  aa  165 146 146 151
    022520  aa  143 151 145 156
    022521  aa  164 040 141 143
    022522  aa  143 145 163 163
    022523  aa  040 164 157 040
    022524  aa  163 145 156 144
    022525  aa  040 167 141 153
    022526  aa  145 165 160 056

                                  1563  ec  wrong_channel_ring,wrchring,
                                  1564  	(An event channel is being used in an incorrect ring.)
                        001237          	segdef  wrong_channel_ring
    001237  a0   077777 022531
    022527  aa  167 162 143 150         	aci  "wrchring",8
    022530  aa  162 151 156 147
    022531  aa  064 101 156 040         	acc  "An event channel is being used in an incorrect ring."
    022532  aa  145 166 145 156
    022533  aa  164 040 143 150
    022534  aa  141 156 156 145
    022535  aa  154 040 151 163
    022536  aa  040 142 145 151
    022537  aa  156 147 040 165
    022540  aa  163 145 144 040
    022541  aa  151 156 040 141
    022542  aa  156 040 151 156
    022543  aa  143 157 162 162
    022544  aa  145 143 164 040
    022545  aa  162 151 156 147
    022546  aa  056 000 000 000

                                  1565  ec  wrong_no_of_args,badargno,
                                  1566  	(Wrong number of arguments supplied.)
                        001240          	segdef  wrong_no_of_args
    001240  a0   077777 022551
    022547  aa  142 141 144 141         	aci  "badargno",8
    022550  aa  162 147 156 157
    022551  aa  043 127 162 157         	acc  "Wrong number of arguments supplied."
    022552  aa  156 147 040 156
    022553  aa  165 155 142 145
    022554  aa  162 040 157 146
    022555  aa  040 141 162 147
    022556  aa  165 155 145 156
    022557  aa  164 163 040 163
    022560  aa  165 160 160 154
    022561  aa  151 145 144 056

                                  1567  ec  zero_length_seg,zerosegl,
                                  1568  	(Zero length segment.)
                        001241          	segdef  zero_length_seg
    001241  a0   077777 022564
    022562  aa  172 145 162 157         	aci  "zerosegl",8
    022563  aa  163 145 147 154
    022564  aa  024 132 145 162         	acc  "Zero length segment."
    022565  aa  157 040 154 145
    022566  aa  156 147 164 150
    022567  aa  040 163 145 147
    022570  aa  155 145 156 164
    022571  aa  056 000 000 000

                                  1569  ec  no_forms_table_defined,notabdef,
                                  1570  	(No forms table defined for this request_type or device.)
                        001242          	segdef  no_forms_table_defined
    001242  a0   077777 022574
    022572  aa  156 157 164 141         	aci  "notabdef",8
    022573  aa  142 144 145 146
    022574  aa  067 116 157 040         	acc  "No forms table defined for this request_type or device."
    022575  aa  146 157 162 155
    022576  aa  163 040 164 141
    022577  aa  142 154 145 040
    022600  aa  144 145 146 151
    022601  aa  156 145 144 040
    022602  aa  146 157 162 040
    022603  aa  164 150 151 163
    022604  aa  040 162 145 161
    022605  aa  165 145 163 164
    022606  aa  137 164 171 160
    022607  aa  145 040 157 162
    022610  aa  040 144 145 166
    022611  aa  151 143 145 056

                                  1571  ec  bad_forms_option,badfrmop,
                                  1572  	(Undefined forms option.)
                        001243          	segdef  bad_forms_option
    001243  a0   077777 022614
    022612  aa  142 141 144 146         	aci  "badfrmop",8
    022613  aa  162 155 157 160
    022614  aa  027 125 156 144         	acc  "Undefined forms option."
    022615  aa  145 146 151 156
    022616  aa  145 144 040 146
    022617  aa  157 162 155 163
    022620  aa  040 157 160 164
    022621  aa  151 157 156 056

                                  1573
                                  1574  	end

NO LITERALS

NAME DEFINITIONS FOR ENTRY POINTS AND SEGDEFS

    022622  5a   000003 000000
    022623  5a   011637 600000
    022624  aa   000000 000000
    022625  55   000012 000002
    022626  5a   000002 400003
    022627  55   000006 000012
    022630  aa  014 145 162 162
    022631  aa  157 162 137 164
    022632  aa  141 142 154 145
    022633  aa  137 000 000 000
    022634  55   000022 000003
    022635  0a   001243 400000
    022636  55   000015 000003
    022637  aa  020 142 141 144         bad_forms_option
    022640  aa  137 146 157 162
    022641  aa  155 163 137 157
    022642  aa  160 164 151 157
    022643  aa  156 000 000 000
    022644  55   000033 000012
    022645  0a   001242 400000
    022646  55   000025 000003
    022647  aa  026 156 157 137         no_forms_table_defined
    022650  aa  146 157 162 155
    022651  aa  163 137 164 141
    022652  aa  142 154 145 137
    022653  aa  144 145 146 151
    022654  aa  156 145 144 000
    022655  55   000042 000022
    022656  0a   001241 400000
    022657  55   000036 000003
    022660  aa  017 172 145 162         zero_length_seg
    022661  aa  157 137 154 145
    022662  aa  156 147 164 150
    022663  aa  137 163 145 147
    022664  55   000052 000033
    022665  0a   001240 400000
    022666  55   000045 000003
    022667  aa  020 167 162 157         wrong_no_of_args
    022670  aa  156 147 137 156
    022671  aa  157 137 157 146
    022672  aa  137 141 162 147
    022673  aa  163 000 000 000
    022674  55   000062 000042
    022675  0a   001237 400000
    022676  55   000055 000003
    022677  aa  022 167 162 157         wrong_channel_ring
    022700  aa  156 147 137 143
    022701  aa  150 141 156 156
    022702  aa  145 154 137 162
    022703  aa  151 156 147 000
    022704  55   000071 000052
    022705  0a   001236 400000
    022706  55   000065 000003
    022707  aa  015 167 141 153         wakeup_denied
    022710  aa  145 165 160 137
    022711  aa  144 145 156 151
    022712  aa  145 144 000 000
    022713  55   000077 000062
    022714  0a   001235 400000
    022715  55   000074 000003
    022716  aa  012 166 164 157         vtoce_free
    022717  aa  143 145 137 146
    022720  aa  162 145 145 000
    022721  55   000110 000071
    022722  0a   001234 400000
    022723  55   000102 000003
    022724  aa  025 166 164 157         vtoce_connection_fail
    022725  aa  143 145 137 143
    022726  aa  157 156 156 145
    022727  aa  143 164 151 157
    022730  aa  156 137 146 141
    022731  aa  151 154 000 000
    022732  55   000116 000077
    022733  0a   001233 400000
    022734  55   000113 000003
    022735  aa  013 166 164 157         vtoc_io_err
    022736  aa  143 137 151 157
    022737  aa  137 145 162 162
    022740  55   000126 000110
    022741  0a   001232 400000
    022742  55   000121 000003
    022743  aa  023 166 157 154         volume_type_unknown
    022744  aa  165 155 145 137
    022745  aa  164 171 160 145
    022746  aa  137 165 156 153
    022747  aa  156 157 167 156
    022750  55   000136 000116
    022751  0a   001231 400000
    022752  55   000131 000003
    022753  aa  021 166 157 154         volume_not_loaded
    022754  aa  165 155 145 137
    022755  aa  156 157 164 137
    022756  aa  154 157 141 144
    022757  aa  145 144 000 000
    022760  55   000144 000126
    022761  0a   001230 400000
    022762  55   000141 000003
    022763  aa  013 166 157 154         volume_busy
    022764  aa  165 155 145 137
    022765  aa  142 165 163 171
    022766  55   000152 000136
    022767  0a   001227 400000
    022770  55   000147 000003
    022771  aa  012 166 157 154         vol_in_use
    022772  aa  137 151 156 137
    022773  aa  165 163 145 000
    022774  55   000161 000144
    022775  0a   001226 400000
    022776  55   000155 000003
    022777  aa  016 166 143 150         vchn_not_found
    023000  aa  156 137 156 157
    023001  aa  164 137 146 157
    023002  aa  165 156 144 000
    023003  55   000167 000152
    023004  0a   001225 400000
    023005  55   000164 000003
    023006  aa  013 166 143 150         vchn_active
    023007  aa  156 137 141 143
    023010  aa  164 151 166 145
    023011  55   000200 000161
    023012  0a   001224 400000
    023013  55   000172 000003
    023014  aa  025 165 163 145         user_requested_hangup
    023015  aa  162 137 162 145
    023016  aa  161 165 145 163
    023017  aa  164 145 144 137
    023020  aa  150 141 156 147
    023021  aa  165 160 000 000
    023022  55   000211 000167
    023023  0a   001223 400000
    023024  55   000203 000003
    023025  aa  025 165 163 145         user_requested_logout
    023026  aa  162 137 162 145
    023027  aa  161 165 145 163
    023030  aa  164 145 144 137
    023031  aa  154 157 147 157
    023032  aa  165 164 000 000
    023033  55   000220 000200
    023034  0a   001222 400000
    023035  55   000214 000003
    023036  aa  016 165 163 145         user_not_found
    023037  aa  162 137 156 157
    023040  aa  164 137 146 157
    023041  aa  165 156 144 000
    023042  55   000231 000211
    023043  0a   001221 400000
    023044  55   000223 000003
    023045  aa  024 165 156 163         unsupported_terminal
    023046  aa  165 160 160 157
    023047  aa  162 164 145 144
    023050  aa  137 164 145 162
    023051  aa  155 151 156 141
    023052  aa  154 000 000 000
    023053  55   000242 000220
    023054  0a   001220 400000
    023055  55   000234 000003
    023056  aa  025 165 156 163         unsupported_operation
    023057  aa  165 160 160 157
    023060  aa  162 164 145 144
    023061  aa  137 157 160 145
    023062  aa  162 141 164 151
    023063  aa  157 156 000 000
    023064  55   000255 000231
    023065  0a   001217 400000
    023066  55   000245 000003
    023067  aa  036 165 156 163         unsupported_multi_class_volume
    023070  aa  165 160 160 157
    023071  aa  162 164 145 144
    023072  aa  137 155 165 154
    023073  aa  164 151 137 143
    023074  aa  154 141 163 163
    023075  aa  137 166 157 154
    023076  aa  165 155 145 000
    023077  55   000265 000242
    023100  0a   001216 400000
    023101  55   000260 000003
    023102  aa  023 165 156 162         unregistered_volume
    023103  aa  145 147 151 163
    023104  aa  164 145 162 145
    023105  aa  144 137 166 157
    023106  aa  154 165 155 145
    023107  55   000276 000255
    023110  0a   001215 400000
    023111  55   000270 000003
    023112  aa  026 165 156 162         unrecognized_char_code
    023113  aa  145 143 157 147
    023114  aa  156 151 172 145
    023115  aa  144 137 143 150
    023116  aa  141 162 137 143
    023117  aa  157 144 145 000
    023120  55   000305 000265
    023121  0a   001214 400000
    023122  55   000301 000003
    023123  aa  014 165 156 153         unknown_zone
    023124  aa  156 157 167 156
    023125  aa  137 172 157 156
    023126  aa  145 000 000 000
    023127  55   000313 000276
    023130  0a   001213 400000
    023131  55   000310 000003
    023132  aa  012 165 156 153         unknown_tp
    023133  aa  156 157 167 156
    023134  aa  137 164 160 000
    023135  55   000324 000305
    023136  0a   001212 400000
    023137  55   000316 000003
    023140  aa  024 165 156 151         uninitialized_volume
    023141  aa  156 151 164 151
    023142  aa  141 154 151 172
    023143  aa  145 144 137 166
    023144  aa  157 154 165 155
    023145  aa  145 000 000 000
    023146  55   000335 000313
    023147  0a   001211 400000
    023150  55   000327 000003
    023151  aa  025 165 156 151         unimplemented_version
    023152  aa  155 160 154 145
    023153  aa  155 145 156 164
    023154  aa  145 144 137 166
    023155  aa  145 162 163 151
    023156  aa  157 156 000 000
    023157  55   000346 000324
    023160  0a   001210 400000
    023161  55   000340 000003
    023162  aa  025 165 156 151         unimplemented_ptrname
    023163  aa  155 160 154 145
    023164  aa  155 145 156 164
    023165  aa  145 144 137 160
    023166  aa  164 162 156 141
    023167  aa  155 145 000 000
    023170  55   000356 000335
    023171  0a   001207 400000
    023172  55   000351 000003
    023173  aa  020 165 156 145         unexpired_volume
    023174  aa  170 160 151 162
    023175  aa  145 144 137 166
    023176  aa  157 154 165 155
    023177  aa  145 000 000 000
    023200  55   000365 000346
    023201  0a   001206 400000
    023202  55   000361 000003
    023203  aa  016 165 156 145         unexpired_file
    023204  aa  170 160 151 162
    023205  aa  145 144 137 146
    023206  aa  151 154 145 000
    023207  55   000374 000356
    023210  0a   001205 400000
    023211  55   000370 000003
    023212  aa  016 165 156 145         unexpected_ft2
    023213  aa  170 160 145 143
    023214  aa  164 145 144 137
    023215  aa  146 164 062 000
    023216  55   000406 000365
    023217  0a   001204 400000
    023220  55   000377 000003
    023221  aa  030 165 156 145         unexpected_device_status
    023222  aa  170 160 145 143
    023223  aa  164 145 144 137
    023224  aa  144 145 166 151
    023225  aa  143 145 137 163
    023226  aa  164 141 164 165
    023227  aa  163 000 000 000
    023230  55   000417 000374
    023231  0a   001203 400000
    023232  55   000411 000003
    023233  aa  024 165 156 145         unexpected_condition
    023234  aa  170 160 145 143
    023235  aa  164 145 144 137
    023236  aa  143 157 156 144
    023237  aa  151 164 151 157
    023240  aa  156 000 000 000
    023241  55   000427 000406
    023242  0a   001202 400000
    023243  55   000422 000003
    023244  aa  020 165 156 144         undeleted_device
    023245  aa  145 154 145 164
    023246  aa  145 144 137 144
    023247  aa  145 166 151 143
    023250  aa  145 000 000 000
    023251  55   000437 000417
    023252  0a   001201 400000
    023253  55   000432 000003
    023254  aa  021 165 156 144         undefined_ptrname
    023255  aa  145 146 151 156
    023256  aa  145 144 137 160
    023257  aa  164 162 156 141
    023260  aa  155 145 000 000
    023261  55   000450 000427
    023262  0a   001200 400000
    023263  55   000442 000003
    023264  aa  027 165 156 144         undefined_order_request
    023265  aa  145 146 151 156
    023266  aa  145 144 137 157
    023267  aa  162 144 145 162
    023270  aa  137 162 145 161
    023271  aa  165 145 163 164
    023272  55   000457 000437
    023273  0a   001177 400000
    023274  55   000453 000003
    023275  aa  016 165 156 144         undefined_mode
    023276  aa  145 146 151 156
    023277  aa  145 144 137 155
    023300  aa  157 144 145 000
    023301  55   000467 000450
    023302  0a   001176 400000
    023303  55   000462 000003
    023304  aa  021 165 156 142         unbalanced_quotes
    023305  aa  141 154 141 156
    023306  aa  143 145 144 137
    023307  aa  161 165 157 164
    023310  aa  145 163 000 000
    023311  55   000500 000457
    023312  0a   001175 400000
    023313  55   000472 000003
    023314  aa  026 165 156 142         unbalanced_parentheses
    023315  aa  141 154 141 156
    023316  aa  143 145 144 137
    023317  aa  160 141 162 145
    023320  aa  156 164 150 145
    023321  aa  163 145 163 000
    023322  55   000510 000467
    023323  0a   001174 400000
    023324  55   000503 000003
    023325  aa  023 165 156 142         unbalanced_brackets
    023326  aa  141 154 141 156
    023327  aa  143 145 144 137
    023330  aa  142 162 141 143
    023331  aa  153 145 164 163
    023332  55   000517 000500
    023333  0a   001173 400000
    023334  55   000513 000003
    023335  aa  017 165 156 141         unable_to_do_io
    023336  aa  142 154 145 137
    023337  aa  164 157 137 144
    023340  aa  157 137 151 157
    023341  55   000530 000510
    023342  0a   001172 400000
    023343  55   000522 000003
    023344  aa  026 165 156 141         unable_to_check_access
    023345  aa  142 154 145 137
    023346  aa  164 157 137 143
    023347  aa  150 145 143 153
    023350  aa  137 141 143 143
    023351  aa  145 163 163 000
    023352  55   000540 000517
    023353  0a   001171 400000
    023354  55   000533 000003
    023355  aa  022 164 171 160         typename_not_found
    023356  aa  145 156 141 155
    023357  aa  145 137 156 157
    023360  aa  164 137 146 157
    023361  aa  165 156 144 000
    023362  55   000550 000530
    023363  0a   001170 400000
    023364  55   000543 000003
    023365  aa  022 164 162 141         translation_failed
    023366  aa  156 163 154 141
    023367  aa  164 151 157 156
    023370  aa  137 146 141 151
    023371  aa  154 145 144 000
    023372  55   000560 000540
    023373  0a   001167 400000
    023374  55   000553 000003
    023375  aa  023 164 162 141         translation_aborted
    023376  aa  156 163 154 141
    023377  aa  164 151 157 156
    023400  aa  137 141 142 157
    023401  aa  162 164 145 144
    023402  55   000570 000550
    023403  0a   001166 400000
    023404  55   000563 000003
    023405  aa  020 164 162 141         trace_table_full
    023406  aa  143 145 137 164
    023407  aa  141 142 154 145
    023410  aa  137 146 165 154
    023411  aa  154 000 000 000
    023412  55   000600 000560
    023413  0a   001165 400000
    023414  55   000573 000003
    023415  aa  021 164 162 141         trace_table_empty
    023416  aa  143 145 137 164
    023417  aa  141 142 154 145
    023420  aa  137 145 155 160
    023421  aa  164 171 000 000
    023422  55   000607 000570
    023423  0a   001164 400000
    023424  55   000603 000003
    023425  aa  014 164 157 157         toomanylinks
    023426  aa  155 141 156 171
    023427  aa  154 151 156 153
    023430  aa  163 000 000 000
    023431  55   000616 000600
    023432  0a   001163 400000
    023433  55   000612 000003
    023434  aa  017 164 157 157         too_many_tokens
    023435  aa  137 155 141 156
    023436  aa  171 137 164 157
    023437  aa  153 145 156 163
    023440  55   000624 000607
    023441  0a   001162 400000
    023442  55   000621 000003
    023443  aa  013 164 157 157         too_many_sr
    023444  aa  137 155 141 156
    023445  aa  171 137 163 162
    023446  55   000633 000616
    023447  0a   001161 400000
    023450  55   000627 000003
    023451  aa  015 164 157 157         too_many_refs
    023452  aa  137 155 141 156
    023453  aa  171 137 162 145
    023454  aa  146 163 000 000
    023455  55   000645 000624
    023456  0a   001160 400000
    023457  55   000636 000003
    023460  aa  030 164 157 157         too_many_read_delimiters
    023461  aa  137 155 141 156
    023462  aa  171 137 162 145
    023463  aa  141 144 137 144
    023464  aa  145 154 151 155
    023465  aa  151 164 145 162
    023466  aa  163 000 000 000
    023467  55   000654 000633
    023470  0a   001157 400000
    023471  55   000650 000003
    023472  aa  016 164 157 157         too_many_names
    023473  aa  137 155 141 156
    023474  aa  171 137 156 141
    023475  aa  155 145 163 000
    023476  55   000664 000645
    023477  0a   001156 400000
    023500  55   000657 000003
    023501  aa  020 164 157 157         too_many_buffers
    023502  aa  137 155 141 156
    023503  aa  171 137 142 165
    023504  aa  146 146 145 162
    023505  aa  163 000 000 000
    023506  55   000673 000654
    023507  0a   001155 400000
    023510  55   000667 000003
    023511  aa  015 164 157 157         too_many_args
    023512  aa  137 155 141 156
    023513  aa  171 137 141 162
    023514  aa  147 163 000 000
    023515  55   000704 000664
    023516  0a   001154 400000
    023517  55   000676 000003
    023520  aa  024 164 157 157         too_many_acl_entries
    023521  aa  137 155 141 156
    023522  aa  171 137 141 143
    023523  aa  154 137 145 156
    023524  aa  164 162 151 145
    023525  aa  163 000 000 000
    023526  55   000711 000673
    023527  0a   001153 400000
    023530  55   000707 000003
    023531  aa  007 164 151 155         timeout
    023532  aa  145 157 165 164
    023533  55   000720 000704
    023534  0a   001152 400000
    023535  55   000714 000003
    023536  aa  015 164 151 155         time_too_long
    023537  aa  145 137 164 157
    023540  aa  157 137 154 157
    023541  aa  156 147 000 000
    023542  55   000731 000711
    023543  0a   001151 400000
    023544  55   000723 000003
    023545  aa  025 164 145 162         termination_requested
    023546  aa  155 151 156 141
    023547  aa  164 151 157 156
    023550  aa  137 162 145 161
    023551  aa  165 145 163 164
    023552  aa  145 144 000 000
    023553  55   000737 000720
    023554  0a   001150 400000
    023555  55   000734 000003
    023556  aa  012 164 141 160         tape_error
    023557  aa  145 137 145 162
    023560  aa  162 157 162 000
    023561  55   000747 000731
    023562  0a   001147 400000
    023563  55   000742 000003
    023564  aa  021 163 171 156         synch_seg_segmove
    023565  aa  143 150 137 163
    023566  aa  145 147 137 163
    023567  aa  145 147 155 157
    023570  aa  166 145 000 000
    023571  55   000756 000737
    023572  0a   001146 400000
    023573  55   000752 000003
    023574  aa  017 163 171 156         synch_seg_limit
    023575  aa  143 150 137 163
    023576  aa  145 147 137 154
    023577  aa  151 155 151 164
    023600  55   000765 000747
    023601  0a   001145 400000
    023602  55   000761 000003
    023603  aa  016 163 165 142         subvol_invalid
    023604  aa  166 157 154 137
    023605  aa  151 156 166 141
    023606  aa  154 151 144 000
    023607  55   000774 000756
    023610  0a   001144 400000
    023611  55   000770 000003
    023612  aa  015 163 165 142         subvol_needed
    023613  aa  166 157 154 137
    023614  aa  156 145 145 144
    023615  aa  145 144 000 000
    023616  55   001004 000765
    023617  0a   001143 400000
    023620  55   000777 000003
    023621  aa  021 163 164 162         strings_not_equal
    023622  aa  151 156 147 163
    023623  aa  137 156 157 164
    023624  aa  137 145 161 165
    023625  aa  141 154 000 000
    023626  55   001013 000774
    023627  0a   001142 400000
    023630  55   001007 000003
    023631  aa  016 163 164 141         stack_overflow
    023632  aa  143 153 137 157
    023633  aa  166 145 162 146
    023634  aa  154 157 167 000
    023635  55   001023 001004
    023636  0a   001141 400000
    023637  55   001016 000003
    023640  aa  020 163 164 141         stack_not_active
    023641  aa  143 153 137 156
    023642  aa  157 164 137 141
    023643  aa  143 164 151 166
    023644  aa  145 000 000 000
    023645  55   001034 001013
    023646  0a   001140 400000
    023647  55   001026 000003
    023650  aa  025 163 160 145         special_channels_full
    023651  aa  143 151 141 154
    023652  aa  137 143 150 141
    023653  aa  156 156 145 154
    023654  aa  163 137 146 165
    023655  aa  154 154 000 000
    023656  55   001043 001023
    023657  0a   001137 400000
    023660  55   001037 000003
    023661  aa  017 163 160 145         special_channel
    023662  aa  143 151 141 154
    023663  aa  137 143 150 141
    023664  aa  156 156 145 154
    023665  55   001051 001034
    023666  0a   001136 400000
    023667  55   001046 000003
    023670  aa  010 163 157 157         soos_set
    023671  aa  163 137 163 145
    023672  aa  164 000 000 000
    023673  55   001057 001043
    023674  0a   001135 400000
    023675  55   001054 000003
    023676  aa  010 163 155 141         smallarg
    023677  aa  154 154 141 162
    023700  aa  147 000 000 000
    023701  55   001065 001051
    023702  0a   001134 400000
    023703  55   001062 000003
    023704  aa  012 163 151 172         size_error
    023705  aa  145 137 145 162
    023706  aa  162 157 162 000
    023707  55   001074 001057
    023710  0a   001133 400000
    023711  55   001070 000003
    023712  aa  017 163 151 147         signaller_fault
    023713  aa  156 141 154 154
    023714  aa  145 162 137 146
    023715  aa  141 165 154 164
    023716  55   001103 001065
    023717  0a   001132 400000
    023720  55   001077 000003
    023721  aa  014 163 150 157         short_record
    023722  aa  162 164 137 162
    023723  aa  145 143 157 162
    023724  aa  144 000 000 000
    023725  55   001112 001074
    023726  0a   001131 400000
    023727  55   001106 000003
    023730  aa  014 163 145 147         segno_in_use
    023731  aa  156 157 137 151
    023732  aa  156 137 165 163
    023733  aa  145 000 000 000
    023734  55   001120 001103
    023735  0a   001130 400000
    023736  55   001115 000003
    023737  aa  012 163 145 147         segnamedup
    023740  aa  156 141 155 145
    023741  aa  144 165 160 000
    023742  55   001125 001112
    023743  0a   001127 400000
    023744  55   001123 000003
    023745  aa  007 163 145 147         seglock
    023746  aa  154 157 143 153
    023747  55   001133 001120
    023750  0a   001126 400000
    023751  55   001130 000003
    023752  aa  010 163 145 147         segknown
    023753  aa  153 156 157 167
    023754  aa  156 000 000 000
    023755  55   001141 001125
    023756  0a   001125 400000
    023757  55   001136 000003
    023760  aa  010 163 145 147         segfault
    023761  aa  146 141 165 154
    023762  aa  164 000 000 000
    023763  55   001147 001133
    023764  0a   001124 400000
    023765  55   001144 000003
    023766  aa  013 163 145 147         seg_unknown
    023767  aa  137 165 156 153
    023770  aa  156 157 167 156
    023771  55   001156 001141
    023772  0a   001123 400000
    023773  55   001152 000003
    023774  aa  015 163 145 147         seg_not_found
    023775  aa  137 156 157 164
    023776  aa  137 146 157 165
    023777  aa  156 144 000 000
    024000  55   001164 001147
    024001  0a   001122 400000
    024002  55   001161 000003
    024003  aa  013 163 145 147         seg_deleted
    024004  aa  137 144 145 154
    024005  aa  145 164 145 144
    024006  55   001172 001156
    024007  0a   001121 400000
    024010  55   001167 000003
    024011  aa  012 163 145 147         seg_busted
    024012  aa  137 142 165 163
    024013  aa  164 145 144 000
    024014  55   001203 001164
    024015  0a   001120 400000
    024016  55   001175 000003
    024017  aa  026 163 143 141         scavenge_process_limit
    024020  aa  166 145 156 147
    024021  aa  145 137 160 162
    024022  aa  157 143 145 163
    024023  aa  163 137 154 151
    024024  aa  155 151 164 000
    024025  55   001214 001172
    024026  0a   001117 400000
    024027  55   001206 000003
    024030  aa  024 163 143 141         scavenge_in_progress
    024031  aa  166 145 156 147
    024032  aa  145 137 151 156
    024033  aa  137 160 162 157
    024034  aa  147 162 145 163
    024035  aa  163 000 000 000
    024036  55   001224 001203
    024037  0a   001116 400000
    024040  55   001217 000003
    024041  aa  020 163 143 141         scavenge_aborted
    024042  aa  166 145 156 147
    024043  aa  145 137 141 142
    024044  aa  157 162 164 145
    024045  aa  144 000 000 000
    024046  55   001231 001214
    024047  0a   001115 400000
    024050  55   001227 000003
    024051  aa  007 163 141 155         sameseg
    024052  aa  145 163 145 147
    024053  55   001241 001224
    024054  0a   001114 400000
    024055  55   001234 000003
    024056  aa  022 163 141 154         salv_pdir_procterm
    024057  aa  166 137 160 144
    024060  aa  151 162 137 160
    024061  aa  162 157 143 164
    024062  aa  145 162 155 000
    024063  55   001250 001231
    024064  0a   001113 400000
    024065  55   001244 000003
    024066  aa  014 163 141 146         safety_sw_on
    024067  aa  145 164 171 137
    024070  aa  163 167 137 157
    024071  aa  156 000 000 000
    024072  55   001261 001241
    024073  0a   001112 400000
    024074  55   001253 000003
    024075  aa  026 162 165 156         run_unit_not_recursive
    024076  aa  137 165 156 151
    024077  aa  164 137 156 157
    024100  aa  164 137 162 145
    024101  aa  143 165 162 163
    024102  aa  151 166 145 000
    024103  55   001266 001250
    024104  0a   001111 400000
    024105  55   001264 000003
    024106  aa  006 162 161 157         rqover
    024107  aa  166 145 162 000
    024110  55   001273 001261
    024111  0a   001110 400000
    024112  55   001271 000003
    024113  aa  004 162 157 157         root
    024114  aa  164 000 000 000
    024115  55   001303 001266
    024116  0a   001107 400000
    024117  55   001276 000003
    024120  aa  021 162 145 164         retrieval_trap_on
    024121  aa  162 151 145 166
    024122  aa  141 154 137 164
    024123  aa  162 141 160 137
    024124  aa  157 156 000 000
    024125  55   001313 001273
    024126  0a   001106 400000
    024127  55   001306 000003
    024130  aa  020 162 145 163         resource_unknown
    024131  aa  157 165 162 143
    024132  aa  145 137 165 156
    024133  aa  153 156 157 167
    024134  aa  156 000 000 000
    024135  55   001324 001303
    024136  0a   001105 400000
    024137  55   001316 000003
    024140  aa  024 162 145 163         resource_unavailable
    024141  aa  157 165 162 143
    024142  aa  145 137 165 156
    024143  aa  141 166 141 151
    024144  aa  154 141 142 154
    024145  aa  145 000 000 000
    024146  55   001334 001313
    024147  0a   001104 400000
    024150  55   001327 000003
    024151  aa  023 162 145 163         resource_unassigned
    024152  aa  157 165 162 143
    024153  aa  145 137 165 156
    024154  aa  141 163 163 151
    024155  aa  147 156 145 144
    024156  55   001345 001324
    024157  0a   001103 400000
    024160  55   001337 000003
    024161  aa  025 162 145 163         resource_type_unknown
    024162  aa  157 165 162 143
    024163  aa  145 137 164 171
    024164  aa  160 145 137 165
    024165  aa  156 153 156 157
    024166  aa  167 156 000 000
    024167  55   001357 001334
    024170  0a   001102 400000
    024171  55   001350 000003
    024172  aa  033 162 145 163         resource_type_inappropriate
    024173  aa  157 165 162 143
    024174  aa  145 137 164 171
    024175  aa  160 145 137 151
    024176  aa  156 141 160 160
    024177  aa  162 157 160 162
    024200  aa  151 141 164 145
    024201  55   001370 001345
    024202  0a   001101 400000
    024203  55   001362 000003
    024204  aa  027 162 145 163         resource_spec_ambiguous
    024205  aa  157 165 162 143
    024206  aa  145 137 163 160
    024207  aa  145 143 137 141
    024210  aa  155 142 151 147
    024211  aa  165 157 165 163
    024212  55   001400 001357
    024213  0a   001100 400000
    024214  55   001373 000003
    024215  aa  021 162 145 163         resource_reserved
    024216  aa  157 165 162 143
    024217  aa  145 137 162 145
    024220  aa  163 145 162 166
    024221  aa  145 144 000 000
    024222  55   001411 001370
    024223  0a   001077 400000
    024224  55   001403 000003
    024225  aa  025 162 145 163         resource_not_modified
    024226  aa  157 165 162 143
    024227  aa  145 137 156 157
    024230  aa  164 137 155 157
    024231  aa  144 151 146 151
    024232  aa  145 144 000 000
    024233  55   001421 001400
    024234  0a   001076 400000
    024235  55   001414 000003
    024236  aa  021 162 145 163         resource_not_free
    024237  aa  157 165 162 143
    024240  aa  145 137 156 157
    024241  aa  164 137 146 162
    024242  aa  145 145 000 000
    024243  55   001430 001411
    024244  0a   001075 400000
    024245  55   001424 000003
    024246  aa  017 162 145 163         resource_locked
    024247  aa  157 165 162 143
    024250  aa  145 137 154 157
    024251  aa  143 153 145 144
    024252  55   001437 001421
    024253  0a   001074 400000
    024254  55   001433 000003
    024255  aa  015 162 145 163         resource_free
    024256  aa  157 165 162 143
    024257  aa  145 137 146 162
    024260  aa  145 145 000 000
    024261  55   001447 001430
    024262  0a   001073 400000
    024263  55   001442 000003
    024264  aa  023 162 145 163         resource_bad_access
    024265  aa  157 165 162 143
    024266  aa  145 137 142 141
    024267  aa  144 137 141 143
    024270  aa  143 145 163 163
    024271  55   001460 001437
    024272  0a   001072 400000
    024273  55   001452 000003
    024274  aa  027 162 145 163         resource_awaiting_clear
    024275  aa  157 165 162 143
    024276  aa  145 137 141 167
    024277  aa  141 151 164 151
    024300  aa  156 147 137 143
    024301  aa  154 145 141 162
    024302  55   001470 001447
    024303  0a   001071 400000
    024304  55   001463 000003
    024305  aa  021 162 145 163         resource_attached
    024306  aa  157 165 162 143
    024307  aa  145 137 141 164
    024310  aa  164 141 143 150
    024311  aa  145 144 000 000
    024312  55   001500 001460
    024313  0a   001070 400000
    024314  55   001473 000003
    024315  aa  021 162 145 163         resource_assigned
    024316  aa  157 165 162 143
    024317  aa  145 137 141 163
    024320  aa  163 151 147 156
    024321  aa  145 144 000 000
    024322  55   001510 001470
    024323  0a   001067 400000
    024324  55   001503 000003
    024325  aa  022 162 145 163         reservation_failed
    024326  aa  145 162 166 141
    024327  aa  164 151 157 156
    024330  aa  137 146 141 151
    024331  aa  154 145 144 000
    024332  55   001517 001500
    024333  0a   001066 400000
    024334  55   001513 000003
    024335  aa  017 162 145 161         request_pending
    024336  aa  165 145 163 164
    024337  aa  137 160 145 156
    024340  aa  144 151 156 147
    024341  55   001530 001510
    024342  0a   001065 400000
    024343  55   001522 000003
    024344  aa  026 162 145 161         request_not_recognized
    024345  aa  165 145 163 164
    024346  aa  137 156 157 164
    024347  aa  137 162 145 143
    024350  aa  157 147 156 151
    024351  aa  172 145 144 000
    024352  55   001541 001517
    024353  0a   001064 400000
    024354  55   001533 000003
    024355  aa  024 162 145 161         request_id_ambiguous
    024356  aa  165 145 163 164
    024357  aa  137 151 144 137
    024360  aa  141 155 142 151
    024361  aa  147 165 157 165
    024362  aa  163 000 000 000
    024363  55   001550 001530
    024364  0a   001063 400000
    024365  55   001544 000003
    024366  aa  017 162 145 154         rel_chnl_active
    024367  aa  137 143 150 156
    024370  aa  154 137 141 143
    024371  aa  164 151 166 145
    024372  55   001560 001541
    024373  0a   001062 400000
    024374  55   001553 000003
    024375  aa  020 162 145 147         regexp_undefined
    024376  aa  145 170 160 137
    024377  aa  165 156 144 145
    024400  aa  146 151 156 145
    024401  aa  144 000 000 000
    024402  55   001567 001550
    024403  0a   001061 400000
    024404  55   001563 000003
    024405  aa  017 162 145 147         regexp_too_long
    024406  aa  145 170 160 137
    024407  aa  164 157 157 137
    024410  aa  154 157 156 147
    024411  55   001577 001560
    024412  0a   001060 400000
    024413  55   001572 000003
    024414  aa  022 162 145 147         regexp_too_complex
    024415  aa  145 170 160 137
    024416  aa  164 157 157 137
    024417  aa  143 157 155 160
    024420  aa  154 145 170 000
    024421  55   001607 001567
    024422  0a   001057 400000
    024423  55   001602 000003
    024424  aa  023 162 145 147         regexp_invalid_star
    024425  aa  145 170 160 137
    024426  aa  151 156 166 141
    024427  aa  154 151 144 137
    024430  aa  163 164 141 162
    024431  55   001620 001577
    024432  0a   001056 400000
    024433  55   001612 000003
    024434  aa  025 162 145 146         refname_count_too_big
    024435  aa  156 141 155 145
    024436  aa  137 143 157 165
    024437  aa  156 164 137 164
    024440  aa  157 157 137 142
    024441  aa  151 147 000 000
    024442  55   001627 001607
    024443  0a   001055 400000
    024444  55   001623 000003
    024445  aa  017 162 145 143         recursion_error
    024446  aa  165 162 163 151
    024447  aa  157 156 137 145
    024450  aa  162 162 157 162
    024451  55   001637 001620
    024452  0a   001054 400000
    024453  55   001632 000003
    024454  aa  021 162 145 143         recoverable_error
    024455  aa  157 166 145 162
    024456  aa  141 142 154 145
    024457  aa  137 145 162 162
    024460  aa  157 162 000 000
    024461  55   001645 001627
    024462  0a   001053 400000
    024463  55   001642 000003
    024464  aa  013 162 145 143         record_busy
    024465  aa  157 162 144 137
    024466  aa  142 165 163 171
    024467  55   001654 001637
    024470  0a   001052 400000
    024471  55   001650 000003
    024472  aa  017 162 143 160         rcp_no_registry
    024473  aa  137 156 157 137
    024474  aa  162 145 147 151
    024475  aa  163 164 162 171
    024476  55   001663 001645
    024477  0a   001051 400000
    024500  55   001657 000003
    024501  aa  017 162 143 160         rcp_no_auto_reg
    024502  aa  137 156 157 137
    024503  aa  141 165 164 157
    024504  aa  137 162 145 147
    024505  55   001676 001654
    024506  0a   001050 400000
    024507  55   001666 000003
    024510  aa  036 162 143 160         rcp_missing_registry_component
    024511  aa  137 155 151 163
    024512  aa  163 151 156 147
    024513  aa  137 162 145 147
    024514  aa  151 163 164 162
    024515  aa  171 137 143 157
    024516  aa  155 160 157 156
    024517  aa  145 156 164 000
    024520  55   001706 001663
    024521  0a   001047 400000
    024522  55   001701 000003
    024523  aa  022 162 143 160         rcp_bad_attributes
    024524  aa  137 142 141 144
    024525  aa  137 141 164 164
    024526  aa  162 151 142 165
    024527  aa  164 145 163 000
    024530  55   001716 001676
    024531  0a   001046 400000
    024532  55   001711 000003
    024533  aa  022 162 143 160         rcp_attr_protected
    024534  aa  137 141 164 164
    024535  aa  162 137 160 162
    024536  aa  157 164 145 143
    024537  aa  164 145 144 000
    024540  55   001727 001706
    024541  0a   001045 400000
    024542  55   001721 000003
    024543  aa  026 162 143 160         rcp_attr_not_permitted
    024544  aa  137 141 164 164
    024545  aa  162 137 156 157
    024546  aa  164 137 160 145
    024547  aa  162 155 151 164
    024550  aa  164 145 144 000
    024551  55   001735 001716
    024552  0a   001044 400000
    024553  55   001732 000003
    024554  aa  012 162 060 137         r0_refname
    024555  aa  162 145 146 156
    024556  aa  141 155 145 000
    024557  55   001744 001727
    024560  0a   001043 400000
    024561  55   001740 000003
    024562  aa  017 161 165 151         quit_term_abort
    024563  aa  164 137 164 145
    024564  aa  162 155 137 141
    024565  aa  142 157 162 164
    024566  55   001753 001735
    024567  0a   001042 400000
    024570  55   001747 000003
    024571  aa  016 160 166 151         pvid_not_found
    024572  aa  144 137 156 157
    024573  aa  164 137 146 157
    024574  aa  165 156 144 000
    024575  55   001762 001744
    024576  0a   001041 400000
    024577  55   001756 000003
    024600  aa  016 160 166 137         pv_no_scavenge
    024601  aa  156 157 137 163
    024602  aa  143 141 166 145
    024603  aa  156 147 145 000
    024604  55   001770 001753
    024605  0a   001040 400000
    024606  55   001765 000003
    024607  aa  013 160 166 137         pv_is_in_lv
    024610  aa  151 163 137 151
    024611  aa  156 137 154 166
    024612  55   001777 001762
    024613  0a   001037 400000
    024614  55   001773 000003
    024615  aa  016 160 162 157         proj_not_found
    024616  aa  152 137 156 157
    024617  aa  164 137 146 157
    024620  aa  165 156 144 000
    024621  55   002006 001770
    024622  0a   001036 400000
    024623  55   002002 000003
    024624  aa  017 160 162 157         process_unknown
    024625  aa  143 145 163 163
    024626  aa  137 165 156 153
    024627  aa  156 157 167 156
    024630  55   002015 001777
    024631  0a   001035 400000
    024632  55   002011 000003
    024633  aa  017 160 162 157         process_stopped
    024634  aa  143 145 163 163
    024635  aa  137 163 164 157
    024636  aa  160 160 145 144
    024637  55   002024 002006
    024640  0a   001034 400000
    024641  55   002020 000003
    024642  aa  016 160 162 151         private_volume
    024643  aa  166 141 164 145
    024644  aa  137 166 157 154
    024645  aa  165 155 145 000
    024646  55   002034 002015
    024647  0a   001033 400000
    024650  55   002027 000003
    024651  aa  021 160 157 163         positioned_on_bot
    024652  aa  151 164 151 157
    024653  aa  156 145 144 137
    024654  aa  157 156 137 142
    024655  aa  157 164 000 000
    024656  55   002043 002024
    024657  0a   001032 400000
    024660  55   002037 000003
    024661  aa  017 160 151 143         picture_too_big
    024662  aa  164 165 162 145
    024663  aa  137 164 157 157
    024664  aa  137 142 151 147
    024665  55   002052 002034
    024666  0a   001031 400000
    024667  55   002046 000003
    024670  aa  015 160 151 143         picture_scale
    024671  aa  164 165 162 145
    024672  aa  137 163 143 141
    024673  aa  154 145 000 000
    024674  55   002060 002043
    024675  0a   001030 400000
    024676  55   002055 000003
    024677  aa  013 160 151 143         picture_bad
    024700  aa  164 165 162 145
    024701  aa  137 142 141 144
    024702  55   002066 002052
    024703  0a   001027 400000
    024704  55   002063 000003
    024705  aa  010 160 141 164         pathlong
    024706  aa  150 154 157 156
    024707  aa  147 000 000 000
    024710  55   002100 002060
    024711  0a   001026 400000
    024712  55   002071 000003
    024713  aa  032 157 166 145         overlapping_more_responses
    024714  aa  162 154 141 160
    024715  aa  160 151 156 147
    024716  aa  137 155 157 162
    024717  aa  145 137 162 145
    024720  aa  163 160 157 156
    024721  aa  163 145 163 000
    024722  55   002110 002066
    024723  0a   001025 400000
    024724  55   002103 000003
    024725  aa  023 157 165 164         outward_call_failed
    024726  aa  167 141 162 144
    024727  aa  137 143 141 154
    024730  aa  154 137 146 141
    024731  aa  151 154 145 144
    024732  55   002117 002100
    024733  0a   001024 400000
    024734  55   002113 000003
    024735  aa  015 157 165 164         out_of_window
    024736  aa  137 157 146 137
    024737  aa  167 151 156 144
    024740  aa  157 167 000 000
    024741  55   002126 002110
    024742  0a   001023 400000
    024743  55   002122 000003
    024744  aa  017 157 165 164         out_of_sequence
    024745  aa  137 157 146 137
    024746  aa  163 145 161 165
    024747  aa  145 156 143 145
    024750  55   002136 002117
    024751  0a   001022 400000
    024752  55   002131 000003
    024753  aa  022 157 165 164         out_of_main_memory
    024754  aa  137 157 146 137
    024755  aa  155 141 151 156
    024756  aa  137 155 145 155
    024757  aa  157 162 171 000
    024760  55   002145 002126
    024761  0a   001021 400000
    024762  55   002141 000003
    024763  aa  015 157 165 164         out_of_bounds
    024764  aa  137 157 146 137
    024765  aa  142 157 165 156
    024766  aa  144 163 000 000
    024767  55   002153 002136
    024770  0a   001020 400000
    024771  55   002150 000003
    024772  aa  013 157 162 144         order_error
    024773  aa  145 162 137 145
    024774  aa  162 162 157 162
    024775  55   002160 002145
    024776  0a   001017 400000
    024777  55   002156 000003
    025000  aa  004 157 157 163         oosw
    025001  aa  167 000 000 000
    025002  55   002167 002153
    025003  0a   001016 400000
    025004  55   002163 000003
    025005  aa  015 157 157 142         oob_stack_ref
    025006  aa  137 163 164 141
    025007  aa  143 153 137 162
    025010  aa  145 146 000 000
    025011  55   002175 002160
    025012  0a   001015 400000
    025013  55   002172 000003
    025014  aa  011 157 157 142         oob_stack
    025015  aa  137 163 164 141
    025016  aa  143 153 000 000
    025017  55   002202 002167
    025020  0a   001014 400000
    025021  55   002200 000003
    025022  aa  006 157 154 144         oldobj
    025023  aa  157 142 152 000
    025024  55   002210 002175
    025025  0a   001013 400000
    025026  55   002205 000003
    025027  aa  011 157 154 144         oldnamerr
    025030  aa  156 141 155 145
    025031  aa  162 162 000 000
    025032  55   002215 002202
    025033  0a   001012 400000
    025034  55   002213 000003
    025035  aa  007 157 154 144         old_dim
    025036  aa  137 144 151 155
    025037  55   002224 002210
    025040  0a   001011 400000
    025041  55   002220 000003
    025042  aa  016 157 144 144         odd_no_of_args
    025043  aa  137 156 157 137
    025044  aa  157 146 137 141
    025045  aa  162 147 163 000
    025046  55   002234 002215
    025047  0a   001010 400000
    025050  55   002227 000003
    025051  aa  021 157 142 163         obsolete_function
    025052  aa  157 154 145 164
    025053  aa  145 137 146 165
    025054  aa  156 143 164 151
    025055  aa  157 156 000 000
    025056  55   002244 002224
    025057  0a   001007 400000
    025060  55   002237 000003
    025061  aa  023 156 165 154         null_name_component
    025062  aa  154 137 156 141
    025063  aa  155 145 137 143
    025064  aa  157 155 160 157
    025065  aa  156 145 156 164
    025066  55   002253 002234
    025067  0a   001006 400000
    025070  55   002247 000003
    025071  aa  015 156 165 154         null_info_ptr
    025072  aa  154 137 151 156
    025073  aa  146 157 137 160
    025074  aa  164 162 000 000
    025075  55   002261 002244
    025076  0a   001005 400000
    025077  55   002256 000003
    025100  aa  010 156 165 154         null_dir
    025101  aa  154 137 144 151
    025102  aa  162 000 000 000
    025103  55   002270 002253
    025104  0a   001004 400000
    025105  55   002264 000003
    025106  aa  015 156 165 154         null_brackets
    025107  aa  154 137 142 162
    025110  aa  141 143 153 145
    025111  aa  164 163 000 000
    025112  55   002275 002261
    025113  0a   001003 400000
    025114  55   002273 000003
    025115  aa  006 156 162 155         nrmkst
    025116  aa  153 163 164 000
    025117  55   002303 002270
    025120  0a   001002 400000
    025121  55   002300 000003
    025122  aa  010 156 157 164         notalloc
    025123  aa  141 154 154 157
    025124  aa  143 000 000 000
    025125  55   002310 002275
    025126  0a   001001 400000
    025127  55   002306 000003
    025130  aa  007 156 157 164         notadir
    025131  aa  141 144 151 162
    025132  55   002317 002303
    025133  0a   001000 400000
    025134  55   002313 000003
    025135  aa  014 156 157 164         not_seg_type
    025136  aa  137 163 145 147
    025137  aa  137 164 171 160
    025140  aa  145 000 000 000
    025141  55   002325 002310
    025142  0a   000777 400000
    025143  55   002322 000003
    025144  aa  012 156 157 164         not_ring_0
    025145  aa  137 162 151 156
    025146  aa  147 137 060 000
    025147  55   002334 002317
    025150  0a   000776 400000
    025151  55   002330 000003
    025152  aa  016 156 157 164         not_privileged
    025153  aa  137 160 162 151
    025154  aa  166 151 154 145
    025155  aa  147 145 144 000
    025156  55   002343 002325
    025157  0a   000775 400000
    025160  55   002337 000003
    025161  aa  017 156 157 164         not_own_message
    025162  aa  137 157 167 156
    025163  aa  137 155 145 163
    025164  aa  163 141 147 145
    025165  55   002351 002334
    025166  0a   000774 400000
    025167  55   002346 000003
    025170  aa  010 156 157 164         not_open
    025171  aa  137 157 160 145
    025172  aa  156 000 000 000
    025173  55   002357 002343
    025174  0a   000773 400000
    025175  55   002354 000003
    025176  aa  010 156 157 164         not_link
    025177  aa  137 154 151 156
    025200  aa  153 000 000 000
    025201  55   002366 002351
    025202  0a   000772 400000
    025203  55   002362 000003
    025204  aa  017 156 157 164         not_initialized
    025205  aa  137 151 156 151
    025206  aa  164 151 141 154
    025207  aa  151 172 145 144
    025210  55   002376 002357
    025211  0a   000771 400000
    025212  55   002371 000003
    025213  aa  022 156 157 164         not_in_trace_table
    025214  aa  137 151 156 137
    025215  aa  164 162 141 143
    025216  aa  145 137 164 141
    025217  aa  142 154 145 000
    025220  55   002404 002366
    025221  0a   000770 400000
    025222  55   002401 000003
    025223  aa  010 156 157 164         not_done
    025224  aa  137 144 157 156
    025225  aa  145 000 000 000
    025226  55   002412 002376
    025227  0a   000767 400000
    025230  55   002407 000003
    025231  aa  013 156 157 164         not_dm_ring
    025232  aa  137 144 155 137
    025233  aa  162 151 156 147
    025234  55   002421 002404
    025235  0a   000766 400000
    025236  55   002415 000003
    025237  aa  014 156 157 164         not_detached
    025240  aa  137 144 145 164
    025241  aa  141 143 150 145
    025242  aa  144 000 000 000
    025243  55   002427 002412
    025244  0a   000765 400000
    025245  55   002424 000003
    025246  aa  012 156 157 164         not_closed
    025247  aa  137 143 154 157
    025250  aa  163 145 144 000
    025251  55   002435 002421
    025252  0a   000764 400000
    025253  55   002432 000003
    025254  aa  011 156 157 164         not_bound
    025255  aa  137 142 157 165
    025256  aa  156 144 000 000
    025257  55   002445 002427
    025260  0a   000763 400000
    025261  55   002440 000003
    025262  aa  020 156 157 164         not_base_channel
    025263  aa  137 142 141 163
    025264  aa  145 137 143 150
    025265  aa  141 156 156 145
    025266  aa  154 000 000 000
    025267  55   002454 002435
    025270  0a   000762 400000
    025271  55   002450 000003
    025272  aa  014 156 157 164         not_attached
    025273  aa  137 141 164 164
    025274  aa  141 143 150 145
    025275  aa  144 000 000 000
    025276  55   002462 002445
    025277  0a   000761 400000
    025300  55   002457 000003
    025301  aa  013 156 157 164         not_archive
    025302  aa  137 141 162 143
    025303  aa  150 151 166 145
    025304  55   002470 002454
    025305  0a   000760 400000
    025306  55   002465 000003
    025307  aa  013 156 157 164         not_act_fnc
    025310  aa  137 141 143 164
    025311  aa  137 146 156 143
    025312  55   002477 002462
    025313  0a   000757 400000
    025314  55   002473 000003
    025315  aa  014 156 157 164         not_abs_path
    025316  aa  137 141 142 163
    025317  aa  137 160 141 164
    025320  aa  150 000 000 000
    025321  55   002507 002470
    025322  0a   000756 400000
    025323  55   002502 000003
    025324  aa  022 156 157 164         not_a_wait_channel
    025325  aa  137 141 137 167
    025326  aa  141 151 164 137
    025327  aa  143 150 141 156
    025330  aa  156 145 154 000
    025331  55   002517 002477
    025332  0a   000755 400000
    025333  55   002512 000003
    025334  aa  020 156 157 164         not_a_valid_iocb
    025335  aa  137 141 137 166
    025336  aa  141 154 151 144
    025337  aa  137 151 157 143
    025340  aa  142 000 000 000
    025341  55   002526 002507
    025342  0a   000754 400000
    025343  55   002522 000003
    025344  aa  014 156 157 164         not_a_branch
    025345  aa  137 141 137 142
    025346  aa  162 141 156 143
    025347  aa  150 000 000 000
    025350  55   002533 002517
    025351  0a   000753 400000
    025352  55   002531 000003
    025353  aa  007 156 157 163         nostars
    025354  aa  164 141 162 163
    025355  55   002541 002526
    025356  0a   000752 400000
    025357  55   002536 000003
    025360  aa  010 156 157 160         noprtdmp
    025361  aa  162 164 144 155
    025362  aa  160 000 000 000
    025363  55   002546 002533
    025364  0a   000751 400000
    025365  55   002544 000003
    025366  aa  006 156 157 160         nopart
    025367  aa  141 162 164 000
    025370  55   002554 002541
    025371  0a   000750 400000
    025372  55   002551 000003
    025373  aa  011 156 157 156         nondirseg
    025374  aa  144 151 162 163
    025375  aa  145 147 000 000
    025376  55   002562 002546
    025377  0a   000747 400000
    025400  55   002557 000003
    025401  aa  010 156 157 156         nonamerr
    025402  aa  141 155 145 162
    025403  aa  162 000 000 000
    025404  55   002572 002554
    025405  0a   000746 400000
    025406  55   002565 000003
    025407  aa  020 156 157 156         non_matching_uid
    025410  aa  137 155 141 164
    025411  aa  143 150 151 156
    025412  aa  147 137 165 151
    025413  aa  144 000 000 000
    025414  55   002577 002562
    025415  0a   000745 400000
    025416  55   002575 000003
    025417  aa  007 156 157 155         nomatch
    025420  aa  141 164 143 150
    025421  55   002604 002572
    025422  0a   000744 400000
    025423  55   002602 000003
    025424  aa  005 156 157 154         nolot
    025425  aa  157 164 000 000
    025426  55   002612 002577
    025427  0a   000743 400000
    025430  55   002607 000003
    025431  aa  010 156 157 154         nolinkag
    025432  aa  151 156 153 141
    025433  aa  147 000 000 000
    025434  55   002617 002604
    025435  0a   000742 400000
    025436  55   002615 000003
    025437  aa  007 156 157 145         noentry
    025440  aa  156 164 162 171
    025441  55   002624 002612
    025442  0a   000741 400000
    025443  55   002622 000003
    025444  aa  007 156 157 144         nodescr
    025445  aa  145 163 143 162
    025446  55   002631 002617
    025447  0a   000740 400000
    025450  55   002627 000003
    025451  aa  005 156 157 141         noarg
    025452  aa  162 147 000 000
    025453  55   002636 002624
    025454  0a   000737 400000
    025455  55   002634 000003
    025456  aa  007 156 157 141         noalloc
    025457  aa  154 154 157 143
    025460  55   002646 002631
    025461  0a   000736 400000
    025462  55   002641 000003
    025463  aa  022 156 157 137         no_wired_structure
    025464  aa  167 151 162 145
    025465  aa  144 137 163 164
    025466  aa  162 165 143 164
    025467  aa  165 162 145 000
    025470  55   002653 002636
    025471  0a   000735 400000
    025472  55   002651 000003
    025473  aa  007 156 157 137         no_wdir
    025474  aa  167 144 151 162
    025475  55   002662 002646
    025476  0a   000734 400000
    025477  55   002656 000003
    025500  aa  017 156 157 137         no_w_permission
    025501  aa  167 137 160 145
    025502  aa  162 155 151 163
    025503  aa  163 151 157 156
    025504  55   002671 002653
    025505  0a   000733 400000
    025506  55   002665 000003
    025507  aa  016 156 157 137         no_vla_support
    025510  aa  166 154 141 137
    025511  aa  163 165 160 160
    025512  aa  157 162 164 000
    025513  55   002700 002662
    025514  0a   000732 400000
    025515  55   002674 000003
    025516  aa  014 156 157 137         no_trap_proc
    025517  aa  164 162 141 160
    025520  aa  137 160 162 157
    025521  aa  143 000 000 000
    025522  55   002710 002671
    025523  0a   000731 400000
    025524  55   002703 000003
    025525  aa  021 156 157 137         no_terminal_quota
    025526  aa  164 145 162 155
    025527  aa  151 156 141 154
    025530  aa  137 161 165 157
    025531  aa  164 141 000 000
    025532  55   002717 002700
    025533  0a   000730 400000
    025534  55   002713 000003
    025535  aa  014 156 157 137         no_term_type
    025536  aa  164 145 162 155
    025537  aa  137 164 171 160
    025540  aa  145 000 000 000
    025541  55   002725 002710
    025542  0a   000727 400000
    025543  55   002722 000003
    025544  aa  010 156 157 137         no_table
    025545  aa  164 141 142 154
    025546  aa  145 000 000 000
    025547  55   002734 002717
    025550  0a   000726 400000
    025551  55   002730 000003
    025552  aa  015 156 157 137         no_stmt_delim
    025553  aa  163 164 155 164
    025554  aa  137 144 145 154
    025555  aa  151 155 000 000
    025556  55   002743 002725
    025557  0a   000725 400000
    025560  55   002737 000003
    025561  aa  014 156 157 137         no_set_btcnt
    025562  aa  163 145 164 137
    025563  aa  142 164 143 156
    025564  aa  164 000 000 000
    025565  55   002754 002734
    025566  0a   000724 400000
    025567  55   002746 000003
    025570  aa  026 156 157 137         no_search_list_default
    025571  aa  163 145 141 162
    025572  aa  143 150 137 154
    025573  aa  151 163 164 137
    025574  aa  144 145 146 141
    025575  aa  165 154 164 000
    025576  55   002763 002743
    025577  0a   000723 400000
    025600  55   002757 000003
    025601  aa  016 156 157 137         no_search_list
    025602  aa  163 145 141 162
    025603  aa  143 150 137 154
    025604  aa  151 163 164 000
    025605  55   002772 002754
    025606  0a   000722 400000
    025607  55   002766 000003
    025610  aa  017 156 157 137         no_s_permission
    025611  aa  163 137 160 145
    025612  aa  162 155 151 163
    025613  aa  163 151 157 156
    025614  55   003002 002763
    025615  0a   000721 400000
    025616  55   002775 000003
    025617  aa  020 156 157 137         no_room_for_lock
    025620  aa  162 157 157 155
    025621  aa  137 146 157 162
    025622  aa  137 154 157 143
    025623  aa  153 000 000 000
    025624  55   003011 002772
    025625  0a   000720 400000
    025626  55   003005 000003
    025627  aa  017 156 157 137         no_room_for_dsb
    025630  aa  162 157 157 155
    025631  aa  137 146 157 162
    025632  aa  137 144 163 142
    025633  55   003017 003002
    025634  0a   000717 400000
    025635  55   003014 000003
    025636  aa  012 156 157 137         no_restart
    025637  aa  162 145 163 164
    025640  aa  141 162 164 000
    025641  55   003025 003011
    025642  0a   000716 400000
    025643  55   003022 000003
    025644  aa  011 156 157 137         no_record
    025645  aa  162 145 143 157
    025646  aa  162 144 000 000
    025647  55   003034 003017
    025650  0a   000715 400000
    025651  55   003030 000003
    025652  aa  017 156 157 137         no_r_permission
    025653  aa  162 137 160 145
    025654  aa  162 155 151 163
    025655  aa  163 151 157 156
    025656  55   003043 003025
    025657  0a   000714 400000
    025660  55   003037 000003
    025661  aa  014 156 157 137         no_operation
    025662  aa  157 160 145 162
    025663  aa  141 164 151 157
    025664  aa  156 000 000 000
    025665  55   003052 003034
    025666  0a   000713 400000
    025667  55   003046 000003
    025670  aa  014 156 157 137         no_odd_areas
    025671  aa  157 144 144 137
    025672  aa  141 162 145 141
    025673  aa  163 000 000 000
    025674  55   003062 003043
    025675  0a   000712 400000
    025676  55   003055 000003
    025677  aa  020 156 157 137         no_null_refnames
    025700  aa  156 165 154 154
    025701  aa  137 162 145 146
    025702  aa  156 141 155 145
    025703  aa  163 000 000 000
    025704  55   003071 003052
    025705  0a   000711 400000
    025706  55   003065 000003
    025707  aa  016 156 157 137         no_next_volume
    025710  aa  156 145 170 164
    025711  aa  137 166 157 154
    025712  aa  165 155 145 000
    025713  55   003076 003062
    025714  0a   000710 400000
    025715  55   003074 000003
    025716  aa  007 156 157 137         no_move
    025717  aa  155 157 166 145
    025720  55   003104 003071
    025721  0a   000707 400000
    025722  55   003101 000003
    025723  aa  012 156 157 137         no_message
    025724  aa  155 145 163 163
    025725  aa  141 147 145 000
    025726  55   003115 003076
    025727  0a   000706 400000
    025730  55   003107 000003
    025731  aa  026 156 157 137         no_memory_for_scavenge
    025732  aa  155 145 155 157
    025733  aa  162 171 137 146
    025734  aa  157 162 137 163
    025735  aa  143 141 166 145
    025736  aa  156 147 145 000
    025737  55   003124 003104
    025740  0a   000705 400000
    025741  55   003120 000003
    025742  aa  014 156 157 137         no_makeknown
    025743  aa  155 141 153 145
    025744  aa  153 156 157 167
    025745  aa  156 000 000 000
    025746  55   003133 003115
    025747  0a   000704 400000
    025750  55   003127 000003
    025751  aa  017 156 157 137         no_m_permission
    025752  aa  155 137 160 145
    025753  aa  162 155 151 163
    025754  aa  163 151 157 156
    025755  55   003142 003124
    025756  0a   000703 400000
    025757  55   003136 000003
    025760  aa  016 156 157 137         no_log_message
    025761  aa  154 157 147 137
    025762  aa  155 145 163 163
    025763  aa  141 147 145 000
    025764  55   003150 003133
    025765  0a   000702 400000
    025766  55   003145 000003
    025767  aa  012 156 157 137         no_linkage
    025770  aa  154 151 156 153
    025771  aa  141 147 145 000
    025772  55   003157 003142
    025773  0a   000701 400000
    025774  55   003153 000003
    025775  aa  016 156 157 137         no_line_status
    025776  aa  154 151 156 145
    025777  aa  137 163 164 141
    026000  aa  164 165 163 000
    026001  55   003165 003150
    026002  0a   000700 400000
    026003  55   003162 000003
    026004  aa  010 156 157 137         no_label
    026005  aa  154 141 142 145
    026006  aa  154 000 000 000
    026007  55   003172 003157
    026010  0a   000677 400000
    026011  55   003170 000003
    026012  aa  006 156 157 137         no_key
    026013  aa  153 145 171 000
    026014  55   003202 003165
    026015  0a   000676 400000
    026016  55   003175 000003
    026017  aa  020 156 157 137         no_journals_free
    026020  aa  152 157 165 162
    026021  aa  156 141 154 163
    026022  aa  137 146 162 145
    026023  aa  145 000 000 000
    026024  55   003207 003172
    026025  0a   000675 400000
    026026  55   003205 000003
    026027  aa  007 156 157 137         no_iocb
    026030  aa  151 157 143 142
    026031  55   003217 003202
    026032  0a   000674 400000
    026033  55   003212 000003
    026034  aa  021 156 157 137         no_io_page_tables
    026035  aa  151 157 137 160
    026036  aa  141 147 145 137
    026037  aa  164 141 142 154
    026040  aa  145 163 000 000
    026041  55   003226 003207
    026042  0a   000673 400000
    026043  55   003222 000003
    026044  aa  017 156 157 137         no_io_interrupt
    026045  aa  151 157 137 151
    026046  aa  156 164 145 162
    026047  aa  162 165 160 164
    026050  55   003236 003217
    026051  0a   000672 400000
    026052  55   003231 000003
    026053  aa  021 156 157 137         no_initial_string
    026054  aa  151 156 151 164
    026055  aa  151 141 154 137
    026056  aa  163 164 162 151
    026057  aa  156 147 000 000
    026060  55   003243 003226
    026061  0a   000671 400000
    026062  55   003241 000003
    026063  aa  007 156 157 137         no_info
    026064  aa  151 156 146 157
    026065  55   003251 003236
    026066  0a   000670 400000
    026067  55   003246 000003
    026070  aa  013 156 157 137         no_heap_sym
    026071  aa  150 145 141 160
    026072  aa  137 163 171 155
    026073  55   003260 003243
    026074  0a   000667 400000
    026075  55   003254 000003
    026076  aa  017 156 157 137         no_heap_defined
    026077  aa  150 145 141 160
    026100  aa  137 144 145 146
    026101  aa  151 156 145 144
    026102  55   003266 003251
    026103  0a   000666 400000
    026104  55   003263 000003
    026105  aa  012 156 157 137         no_handler
    026106  aa  150 141 156 144
    026107  aa  154 145 162 000
    026110  55   003274 003260
    026111  0a   000665 400000
    026112  55   003271 000003
    026113  aa  013 156 157 137         no_fim_flag
    026114  aa  146 151 155 137
    026115  aa  146 154 141 147
    026116  55   003301 003266
    026117  0a   000664 400000
    026120  55   003277 000003
    026121  aa  007 156 157 137         no_file
    026122  aa  146 151 154 145
    026123  55   003307 003274
    026124  0a   000663 400000
    026125  55   003304 000003
    026126  aa  012 156 157 137         no_ext_sym
    026127  aa  145 170 164 137
    026130  aa  163 171 155 000
    026131  55   003316 003301
    026132  0a   000662 400000
    026133  55   003312 000003
    026134  aa  017 156 157 137         no_e_permission
    026135  aa  145 137 160 145
    026136  aa  162 155 151 163
    026137  aa  163 151 157 156
    026140  55   003330 003307
    026141  0a   000661 400000
    026142  55   003321 000003
    026143  aa  031 156 157 137         no_disconnected_processes
    026144  aa  144 151 163 143
    026145  aa  157 156 156 145
    026146  aa  143 164 145 144
    026147  aa  137 160 162 157
    026150  aa  143 145 163 163
    026151  aa  145 163 000 000
    026152  55   003336 003316
    026153  0a   000660 400000
    026154  55   003333 000003
    026155  aa  010 156 157 141         noaccess
    026156  aa  143 143 145 163
    026157  aa  163 000 000 000
    026160  55   003343 003330
    026161  0a   000660 400000
    026162  55   003341 000003
    026163  aa  006 156 157 137         no_dir
    026164  aa  144 151 162 000
    026165  55   003351 003336
    026166  0a   000657 400000
    026167  55   003346 000003
    026170  aa  011 156 157 137         no_dialok
    026171  aa  144 151 141 154
    026172  aa  157 153 000 000
    026173  55   003357 003343
    026174  0a   000656 400000
    026175  55   003354 000003
    026176  aa  011 156 157 137         no_device
    026177  aa  144 145 166 151
    026200  aa  143 145 000 000
    026201  55   003366 003351
    026202  0a   000655 400000
    026203  55   003362 000003
    026204  aa  014 156 157 137         no_delimiter
    026205  aa  144 145 154 151
    026206  aa  155 151 164 145
    026207  aa  162 000 000 000
    026210  55   003373 003357
    026211  0a   000654 400000
    026212  55   003371 000003
    026213  aa  007 156 157 137         no_defs
    026214  aa  144 145 146 163
    026215  55   003403 003366
    026216  0a   000653 400000
    026217  55   003376 000003
    026220  aa  021 156 157 137         no_current_record
    026221  aa  143 165 162 162
    026222  aa  145 156 164 137
    026223  aa  162 145 143 157
    026224  aa  162 144 000 000
    026225  55   003412 003373
    026226  0a   000652 400000
    026227  55   003406 000003
    026230  aa  016 156 157 137         no_create_copy
    026231  aa  143 162 145 141
    026232  aa  164 145 137 143
    026233  aa  157 160 171 000
    026234  55   003421 003403
    026235  0a   000651 400000
    026236  55   003415 000003
    026237  aa  016 156 157 137         no_cpus_online
    026240  aa  143 160 165 163
    026241  aa  137 157 156 154
    026242  aa  151 156 145 000
    026243  55   003430 003412
    026244  0a   000650 400000
    026245  55   003424 000003
    026246  aa  015 156 157 137         no_connection
    026247  aa  143 157 156 156
    026250  aa  145 143 164 151
    026251  aa  157 156 000 000
    026252  55   003437 003421
    026253  0a   000647 400000
    026254  55   003433 000003
    026255  aa  014 156 157 137         no_component
    026256  aa  143 157 155 160
    026257  aa  157 156 145 156
    026260  aa  164 000 000 000
    026261  55   003447 003430
    026262  0a   000646 400000
    026263  55   003442 000003
    026264  aa  021 156 157 137         no_channel_meters
    026265  aa  143 150 141 156
    026266  aa  156 145 154 137
    026267  aa  155 145 164 145
    026270  aa  162 163 000 000
    026271  55   003457 003437
    026272  0a   000645 400000
    026273  55   003452 000003
    026274  aa  023 156 157 137         no_base_chnl_active
    026275  aa  142 141 163 145
    026276  aa  137 143 150 156
    026277  aa  154 137 141 143
    026300  aa  164 151 166 145
    026301  55   003466 003447
    026302  0a   000644 400000
    026303  55   003462 000003
    026304  aa  014 156 157 137         no_backspace
    026305  aa  142 141 143 153
    026306  aa  163 160 141 143
    026307  aa  145 000 000 000
    026310  55   003477 003457
    026311  0a   000643 400000
    026312  55   003471 000003
    026313  aa  024 156 157 137         no_archive_for_equal
    026314  aa  141 162 143 150
    026315  aa  151 166 145 137
    026316  aa  146 157 162 137
    026317  aa  145 161 165 141
    026320  aa  154 000 000 000
    026321  55   003510 003466
    026322  0a   000642 400000
    026323  55   003502 000003
    026324  aa  025 156 157 137         no_appropriate_device
    026325  aa  141 160 160 162
    026326  aa  157 160 162 151
    026327  aa  141 164 145 137
    026330  aa  144 145 166 151
    026331  aa  143 145 000 000
    026332  55   003516 003477
    026333  0a   000641 400000
    026334  55   003513 000003
    026335  aa  011 156 157 137         no_append
    026336  aa  141 160 160 145
    026337  aa  156 144 000 000
    026340  55   003525 003510
    026341  0a   000640 400000
    026342  55   003521 000003
    026343  aa  017 156 157 137         no_a_permission
    026344  aa  141 137 160 145
    026345  aa  162 155 151 163
    026346  aa  163 151 157 156
    026347  55   003535 003516
    026350  0a   000637 400000
    026351  55   003530 000003
    026352  aa  020 156 151 156         nine_mode_parity
    026353  aa  145 137 155 157
    026354  aa  144 145 137 160
    026355  aa  141 162 151 164
    026356  aa  171 000 000 000
    026357  55   003543 003525
    026360  0a   000636 400000
    026361  55   003540 000003
    026362  aa  011 156 145 167         newnamerr
    026363  aa  156 141 155 145
    026364  aa  162 162 000 000
    026365  55   003552 003535
    026366  0a   000635 400000
    026367  55   003546 000003
    026370  aa  017 156 145 167         new_search_list
    026371  aa  137 163 145 141
    026372  aa  162 143 150 137
    026373  aa  154 151 163 164
    026374  55   003562 003543
    026375  0a   000634 400000
    026376  55   003555 000003
    026377  aa  023 156 145 167         new_offset_negative
    026400  aa  137 157 146 146
    026401  aa  163 145 164 137
    026402  aa  156 145 147 141
    026403  aa  164 151 166 145
    026404  55   003570 003552
    026405  0a   000633 400000
    026406  55   003565 000003
    026407  aa  013 156 145 164         net_timeout
    026410  aa  137 164 151 155
    026411  aa  145 157 165 164
    026412  55   003577 003562
    026413  0a   000632 400000
    026414  55   003573 000003
    026415  aa  017 156 145 164         net_table_space
    026416  aa  137 164 141 142
    026417  aa  154 145 137 163
    026420  aa  160 141 143 145
    026421  55   003610 003570
    026422  0a   000631 400000
    026423  55   003602 000003
    026424  aa  024 156 145 164         net_socket_not_found
    026425  aa  137 163 157 143
    026426  aa  153 145 164 137
    026427  aa  156 157 164 137
    026430  aa  146 157 165 156
    026431  aa  144 000 000 000
    026432  55   003620 003577
    026433  0a   000630 400000
    026434  55   003613 000003
    026435  aa  021 156 145 164         net_socket_closed
    026436  aa  137 163 157 143
    026437  aa  153 145 164 137
    026440  aa  143 154 157 163
    026441  aa  145 144 000 000
    026442  55   003627 003610
    026443  0a   000627 400000
    026444  55   003623 000003
    026445  aa  017 156 145 164         net_rfc_refused
    026446  aa  137 162 146 143
    026447  aa  137 162 145 146
    026450  aa  165 163 145 144
    026451  55   003635 003620
    026452  0a   000626 400000
    026453  55   003632 000003
    026454  aa  012 156 145 164         net_not_up
    026455  aa  137 156 157 164
    026456  aa  137 165 160 000
    026457  55   003643 003627
    026460  0a   000625 400000
    026461  55   003640 000003
    026462  aa  012 156 145 164         net_no_icp
    026463  aa  137 156 157 137
    026464  aa  151 143 160 000
    026465  55   003655 003635
    026466  0a   000624 400000
    026467  55   003646 000003
    026470  aa  031 156 145 164         net_no_connect_permission
    026471  aa  137 156 157 137
    026472  aa  143 157 156 156
    026473  aa  145 143 164 137
    026474  aa  160 145 162 155
    026475  aa  151 163 163 151
    026476  aa  157 156 000 000
    026477  55   003665 003643
    026500  0a   000623 400000
    026501  55   003660 000003
    026502  aa  021 156 145 164         net_invalid_state
    026503  aa  137 151 156 166
    026504  aa  141 154 151 144
    026505  aa  137 163 164 141
    026506  aa  164 145 000 000
    026507  55   003676 003655
    026510  0a   000622 400000
    026511  55   003670 000003
    026512  aa  025 156 145 164         net_icp_not_concluded
    026513  aa  137 151 143 160
    026514  aa  137 156 157 164
    026515  aa  137 143 157 156
    026516  aa  143 154 165 144
    026517  aa  145 144 000 000
    026520  55   003705 003665
    026521  0a   000621 400000
    026522  55   003701 000003
    026523  aa  015 156 145 164         net_icp_error
    026524  aa  137 151 143 160
    026525  aa  137 145 162 162
    026526  aa  157 162 000 000
    026527  55   003715 003676
    026530  0a   000620 400000
    026531  55   003710 000003
    026532  aa  021 156 145 164         net_icp_bad_state
    026533  aa  137 151 143 160
    026534  aa  137 142 141 144
    026535  aa  137 163 164 141
    026536  aa  164 145 000 000
    026537  55   003724 003705
    026540  0a   000617 400000
    026541  55   003720 000003
    026542  aa  015 156 145 164         net_fimp_down
    026543  aa  137 146 151 155
    026544  aa  160 137 144 157
    026545  aa  167 156 000 000
    026546  55   003734 003715
    026547  0a   000616 400000
    026550  55   003727 000003
    026551  aa  022 156 145 164         net_fhost_inactive
    026552  aa  137 146 150 157
    026553  aa  163 164 137 151
    026554  aa  156 141 143 164
    026555  aa  151 166 145 000
    026556  55   003743 003724
    026557  0a   000615 400000
    026560  55   003737 000003
    026561  aa  016 156 145 164         net_fhost_down
    026562  aa  137 146 150 157
    026563  aa  163 164 137 144
    026564  aa  157 167 156 000
    026565  55   003752 003734
    026566  0a   000614 400000
    026567  55   003746 000003
    026570  aa  016 156 145 164         net_bad_gender
    026571  aa  137 142 141 144
    026572  aa  137 147 145 156
    026573  aa  144 145 162 000
    026574  55   003761 003743
    026575  0a   000613 400000
    026576  55   003755 000003
    026577  aa  017 156 145 164         net_already_icp
    026600  aa  137 141 154 162
    026601  aa  145 141 144 171
    026602  aa  137 151 143 160
    026603  55   003770 003752
    026604  0a   000612 400000
    026605  55   003764 000003
    026606  aa  017 156 145 147         negative_offset
    026607  aa  141 164 151 166
    026610  aa  145 137 157 146
    026611  aa  146 163 145 164
    026612  55   003777 003761
    026613  0a   000611 400000
    026614  55   003773 000003
    026615  aa  016 156 145 147         negative_nelem
    026616  aa  141 164 151 166
    026617  aa  145 137 156 145
    026620  aa  154 145 155 000
    026621  55   004005 003770
    026622  0a   000610 400000
    026623  55   004002 000003
    026624  aa  011 156 143 160         ncp_error
    026625  aa  137 145 162 162
    026626  aa  157 162 000 000
    026627  55   004012 003777
    026630  0a   000607 400000
    026631  55   004010 000003
    026632  aa  007 156 141 155         namedup
    026633  aa  145 144 165 160
    026634  55   004021 004005
    026635  0a   000606 400000
    026636  55   004015 000003
    026637  aa  016 156 141 155         name_not_found
    026640  aa  145 137 156 157
    026641  aa  164 137 146 157
    026642  aa  165 156 144 000
    026643  55   004026 004012
    026644  0a   000605 400000
    026645  55   004024 000003
    026646  aa  006 155 171 154         mylock
    026647  aa  157 143 153 000
    026650  55   004037 004021
    026651  0a   000604 400000
    026652  55   004031 000003
    026653  aa  026 155 165 154         multiple_io_attachment
    026654  aa  164 151 160 154
    026655  aa  145 137 151 157
    026656  aa  137 141 164 164
    026657  aa  141 143 150 155
    026660  aa  145 156 164 000
    026661  55   004043 004026
    026662  0a   000603 400000
    026663  55   004042 000003
    026664  aa  003 155 163 146         msf
    026665  55   004051 004037
    026666  0a   000602 400000
    026667  55   004046 000003
    026670  aa  010 155 160 170         mpx_down
    026671  aa  137 144 157 167
    026672  aa  156 000 000 000
    026673  55   004060 004043
    026674  0a   000601 400000
    026675  55   004054 000003
    026676  aa  015 155 157 165         mount_pending
    026677  aa  156 164 137 160
    026700  aa  145 156 144 151
    026701  aa  156 147 000 000
    026702  55   004067 004051
    026703  0a   000600 400000
    026704  55   004063 000003
    026705  aa  017 155 157 165         mount_not_ready
    026706  aa  156 164 137 156
    026707  aa  157 164 137 162
    026710  aa  145 141 144 171
    026711  55   004074 004060
    026712  0a   000577 400000
    026713  55   004072 000003
    026714  aa  006 155 157 144         moderr
    026715  aa  145 162 162 000
    026716  55   004105 004067
    026717  0a   000576 400000
    026720  55   004077 000003
    026721  aa  025 155 157 144         mode_string_truncated
    026722  aa  145 137 163 164
    026723  aa  162 151 156 147
    026724  aa  137 164 162 165
    026725  aa  156 143 141 164
    026726  aa  145 144 000 000
    026727  55   004112 004074
    026730  0a   000575 400000
    026731  55   004110 000003
    026732  aa  007 155 151 163         missent
    026733  aa  163 145 156 164
    026734  55   004121 004105
    026735  0a   000574 400000
    026736  55   004115 000003
    026737  aa  017 155 151 163         mismatched_iter
    026740  aa  155 141 164 143
    026741  aa  150 145 144 137
    026742  aa  151 164 145 162
    026743  55   004130 004112
    026744  0a   000573 400000
    026745  55   004124 000003
    026746  aa  014 155 145 163         messages_off
    026747  aa  163 141 147 145
    026750  aa  163 137 157 146
    026751  aa  146 000 000 000
    026752  55   004140 004121
    026753  0a   000572 400000
    026754  55   004133 000003
    026755  aa  021 155 145 163         messages_deferred
    026756  aa  163 141 147 145
    026757  aa  163 137 144 145
    026760  aa  146 145 162 162
    026761  aa  145 144 000 000
    026762  55   004150 004130
    026763  0a   000571 400000
    026764  55   004143 000003
    026765  aa  023 155 145 144         media_not_removable
    026766  aa  151 141 137 156
    026767  aa  157 164 137 162
    026770  aa  145 155 157 166
    026771  aa  141 142 154 145
    026772  55   004161 004140
    026773  0a   000570 400000
    026774  55   004153 000003
    026775  aa  025 155 144 143         mdc_unregistered_mdir
    026776  aa  137 165 156 162
    026777  aa  145 147 151 163
    027000  aa  164 145 162 145
    027001  aa  144 137 155 144
    027002  aa  151 162 000 000
    027003  55   004170 004150
    027004  0a   000567 400000
    027005  55   004164 000003
    027006  aa  016 155 144 143         mdc_some_error
    027007  aa  137 163 157 155
    027010  aa  145 137 145 162
    027011  aa  162 157 162 000
    027012  55   004200 004161
    027013  0a   000566 400000
    027014  55   004173 000003
    027015  aa  021 155 144 143         mdc_path_restrict
    027016  aa  137 160 141 164
    027017  aa  150 137 162 145
    027020  aa  163 164 162 151
    027021  aa  143 164 000 000
    027022  55   004210 004170
    027023  0a   000565 400000
    027024  55   004203 000003
    027025  aa  022 155 144 143         mdc_path_not_found
    027026  aa  137 160 141 164
    027027  aa  150 137 156 157
    027030  aa  164 137 146 157
    027031  aa  165 156 144 000
    027032  55   004220 004200
    027033  0a   000564 400000
    027034  55   004213 000003
    027035  aa  021 155 144 143         mdc_path_dup_args
    027036  aa  137 160 141 164
    027037  aa  150 137 144 165
    027040  aa  160 137 141 162
    027041  aa  147 163 000 000
    027042  55   004227 004210
    027043  0a   000563 400000
    027044  55   004223 000003
    027045  aa  014 155 144 143         mdc_path_dup
    027046  aa  137 160 141 164
    027047  aa  150 137 144 165
    027050  aa  160 000 000 000
    027051  55   004236 004220
    027052  0a   000562 400000
    027053  55   004232 000003
    027054  aa  014 155 144 143         mdc_not_mdir
    027055  aa  137 156 157 164
    027056  aa  137 155 144 151
    027057  aa  162 000 000 000
    027060  55   004247 004227
    027061  0a   000561 400000
    027062  55   004241 000003
    027063  aa  024 155 144 143         mdc_no_quota_account
    027064  aa  137 156 157 137
    027065  aa  161 165 157 164
    027066  aa  141 137 141 143
    027067  aa  143 157 165 156
    027070  aa  164 000 000 000
    027071  55   004256 004236
    027072  0a   000560 400000
    027073  55   004252 000003
    027074  aa  014 155 144 143         mdc_no_quota
    027075  aa  137 156 157 137
    027076  aa  161 165 157 164
    027077  aa  141 000 000 000
    027100  55   004265 004247
    027101  0a   000557 400000
    027102  55   004261 000003
    027103  aa  016 155 144 143         mdc_no_account
    027104  aa  137 156 157 137
    027105  aa  141 143 143 157
    027106  aa  165 156 164 000
    027107  55   004276 004256
    027110  0a   000556 400000
    027111  55   004270 000003
    027112  aa  024 155 144 143         mdc_mdirs_registered
    027113  aa  137 155 144 151
    027114  aa  162 163 137 162
    027115  aa  145 147 151 163
    027116  aa  164 145 162 145
    027117  aa  144 000 000 000
    027120  55   004306 004265
    027121  0a   000555 400000
    027122  55   004301 000003
    027123  aa  023 155 144 143         mdc_mdir_registered
    027124  aa  137 155 144 151
    027125  aa  162 137 162 145
    027126  aa  147 151 163 164
    027127  aa  145 162 145 144
    027130  55   004316 004276
    027131  0a   000554 400000
    027132  55   004311 000003
    027133  aa  021 155 144 143         mdc_illegal_owner
    027134  aa  137 151 154 154
    027135  aa  145 147 141 154
    027136  aa  137 157 167 156
    027137  aa  145 162 000 000
    027140  55   004326 004306
    027141  0a   000553 400000
    027142  55   004321 000003
    027143  aa  023 155 144 143         mdc_illegal_account
    027144  aa  137 151 154 154
    027145  aa  145 147 141 154
    027146  aa  137 141 143 143
    027147  aa  157 165 156 164
    027150  55   004335 004316
    027151  0a   000552 400000
    027152  55   004331 000003
    027153  aa  017 155 144 143         mdc_exec_access
    027154  aa  137 145 170 145
    027155  aa  143 137 141 143
    027156  aa  143 145 163 163
    027157  55   004344 004326
    027160  0a   000551 400000
    027161  55   004340 000003
    027162  aa  015 155 144 143         mdc_bad_quota
    027163  aa  137 142 141 144
    027164  aa  137 161 165 157
    027165  aa  164 141 000 000
    027166  55   004354 004335
    027167  0a   000550 400000
    027170  55   004347 000003
    027171  aa  022 155 143 137         mc_no_r_permission
    027172  aa  156 157 137 162
    027173  aa  137 160 145 162
    027174  aa  155 151 163 163
    027175  aa  151 157 156 000
    027176  55   004364 004344
    027177  0a   000547 400000
    027200  55   004357 000003
    027201  aa  022 155 143 137         mc_no_q_permission
    027202  aa  156 157 137 161
    027203  aa  137 160 145 162
    027204  aa  155 151 163 163
    027205  aa  151 157 156 000
    027206  55   004374 004354
    027207  0a   000546 400000
    027210  55   004367 000003
    027211  aa  022 155 143 137         mc_no_d_permission
    027212  aa  156 157 137 144
    027213  aa  137 160 145 162
    027214  aa  155 151 163 163
    027215  aa  151 157 156 000
    027216  55   004404 004364
    027217  0a   000545 400000
    027220  55   004377 000003
    027221  aa  022 155 143 137         mc_no_c_permission
    027222  aa  156 157 137 143
    027223  aa  137 160 145 162
    027224  aa  155 151 163 163
    027225  aa  151 157 156 000
    027226  55   004414 004374
    027227  0a   000544 400000
    027230  55   004407 000003
    027231  aa  022 155 141 170         max_depth_exceeded
    027232  aa  137 144 145 160
    027233  aa  164 150 137 145
    027234  aa  170 143 145 145
    027235  aa  144 145 144 000
    027236  55   004422 004404
    027237  0a   000543 400000
    027240  55   004417 000003
    027241  aa  012 155 141 163         master_dir
    027242  aa  164 145 162 137
    027243  aa  144 151 162 000
    027244  55   004431 004414
    027245  0a   000542 400000
    027246  55   004425 000003
    027247  aa  016 155 141 163         masked_channel
    027250  aa  153 145 144 137
    027251  aa  143 150 141 156
    027252  aa  156 145 154 000
    027253  55   004444 004422
    027254  0a   000541 400000
    027255  55   004434 000003
    027256  aa  035 155 141 154         malformed_list_template_entry
    027257  aa  146 157 162 155
    027260  aa  145 144 137 154
    027261  aa  151 163 164 137
    027262  aa  164 145 155 160
    027263  aa  154 141 164 145
    027264  aa  137 145 156 164
    027265  aa  162 171 000 000
    027266  55   004454 004431
    027267  0a   000540 400000
    027270  55   004447 000003
    027271  aa  021 142 141 144         bad_ring_brackets
    027272  aa  137 162 151 156
    027273  aa  147 137 142 162
    027274  aa  141 143 153 145
    027275  aa  164 163 000 000
    027276  55   004462 004444
    027277  0a   000540 400000
    027300  55   004457 000003
    027301  aa  012 154 157 167         lower_ring
    027302  aa  145 162 137 162
    027303  aa  151 156 147 000
    027304  55   004473 004454
    027305  0a   000537 400000
    027306  55   004465 000003
    027307  aa  024 154 157 163         lost_device_position
    027310  aa  164 137 144 145
    027311  aa  166 151 143 145
    027312  aa  137 160 157 163
    027313  aa  151 164 151 157
    027314  aa  156 000 000 000
    027315  55   004500 004462
    027316  0a   000536 400000
    027317  55   004476 000003
    027320  aa  007 154 157 156         longeql
    027321  aa  147 145 161 154
    027322  55   004506 004473
    027323  0a   000535 400000
    027324  55   004503 000003
    027325  aa  013 154 157 156         long_record
    027326  aa  147 137 162 145
    027327  aa  143 157 162 144
    027330  55   004520 004500
    027331  0a   000534 400000
    027332  55   004511 000003
    027333  aa  031 154 157 147         logical_volume_table_full
    027334  aa  151 143 141 154
    027335  aa  137 166 157 154
    027336  aa  165 155 145 137
    027337  aa  164 141 142 154
    027340  aa  145 137 146 165
    027341  aa  154 154 000 000
    027342  55   004532 004506
    027343  0a   000533 400000
    027344  55   004523 000003
    027345  aa  032 154 157 147         logical_volume_not_defined
    027346  aa  151 143 141 154
    027347  aa  137 166 157 154
    027350  aa  165 155 145 137
    027351  aa  156 157 164 137
    027352  aa  144 145 146 151
    027353  aa  156 145 144 000
    027354  55   004545 004520
    027355  0a   000532 400000
    027356  55   004535 000003
    027357  aa  034 154 157 147         logical_volume_not_connected
    027360  aa  151 143 141 154
    027361  aa  137 166 157 154
    027362  aa  165 155 145 137
    027363  aa  156 157 164 137
    027364  aa  143 157 156 156
    027365  aa  145 143 164 145
    027366  aa  144 000 000 000
    027367  55   004557 004532
    027370  0a   000531 400000
    027371  55   004550 000003
    027372  aa  031 154 157 147         logical_volume_is_defined
    027373  aa  151 143 141 154
    027374  aa  137 166 157 154
    027375  aa  165 155 145 137
    027376  aa  151 163 137 144
    027377  aa  145 146 151 156
    027400  aa  145 144 000 000
    027401  55   004571 004545
    027402  0a   000530 400000
    027403  55   004562 000003
    027404  aa  033 154 157 147         logical_volume_is_connected
    027405  aa  151 143 141 154
    027406  aa  137 166 157 154
    027407  aa  165 155 145 137
    027410  aa  151 163 137 143
    027411  aa  157 156 156 145
    027412  aa  143 164 145 144
    027413  55   004602 004557
    027414  0a   000527 400000
    027415  55   004574 000003
    027416  aa  025 154 157 147         log_wakeup_table_full
    027417  aa  137 167 141 153
    027420  aa  145 165 160 137
    027421  aa  164 141 142 154
    027422  aa  145 137 146 165
    027423  aa  154 154 000 000
    027424  55   004611 004571
    027425  0a   000526 400000
    027426  55   004605 000003
    027427  aa  014 154 157 147         log_vol_full
    027430  aa  137 166 157 154
    027431  aa  137 146 165 154
    027432  aa  154 000 000 000
    027433  55   004621 004602
    027434  0a   000525 400000
    027435  55   004614 000003
    027436  aa  021 154 157 147         log_uninitialized
    027437  aa  137 165 156 151
    027440  aa  156 151 164 151
    027441  aa  141 154 151 172
    027442  aa  145 144 000 000
    027443  55   004631 004611
    027444  0a   000524 400000
    027445  55   004624 000003
    027446  aa  023 154 157 147         log_segment_invalid
    027447  aa  137 163 145 147
    027450  aa  155 145 156 164
    027451  aa  137 151 156 166
    027452  aa  141 154 151 144
    027453  55   004641 004621
    027454  0a   000523 400000
    027455  55   004634 000003
    027456  aa  020 154 157 147         log_segment_full
    027457  aa  137 163 145 147
    027460  aa  155 145 156 164
    027461  aa  137 146 165 154
    027462  aa  154 000 000 000
    027463  55   004651 004631
    027464  0a   000522 400000
    027465  55   004644 000003
    027466  aa  021 154 157 147         log_segment_empty
    027467  aa  137 163 145 147
    027470  aa  155 145 156 164
    027471  aa  137 145 155 160
    027472  aa  164 171 000 000
    027473  55   004661 004641
    027474  0a   000521 400000
    027475  55   004654 000003
    027476  aa  023 154 157 147         log_segment_damaged
    027477  aa  137 163 145 147
    027500  aa  155 145 156 164
    027501  aa  137 144 141 155
    027502  aa  141 147 145 144
    027503  55   004671 004651
    027504  0a   000520 400000
    027505  55   004664 000003
    027506  aa  022 154 157 147         log_out_of_service
    027507  aa  137 157 165 164
    027510  aa  137 157 146 137
    027511  aa  163 145 162 166
    027512  aa  151 143 145 000
    027513  55   004703 004661
    027514  0a   000517 400000
    027515  55   004674 000003
    027516  aa  030 154 157 147         log_message_invalid_type
    027517  aa  137 155 145 163
    027520  aa  163 141 147 145
    027521  aa  137 151 156 166
    027522  aa  141 154 151 144
    027523  aa  137 164 171 160
    027524  aa  145 000 000 000
    027525  55   004714 004671
    027526  0a   000516 400000
    027527  55   004706 000003
    027530  aa  026 154 157 143         locked_by_this_process
    027531  aa  153 145 144 137
    027532  aa  142 171 137 164
    027533  aa  150 151 163 137
    027534  aa  160 162 157 143
    027535  aa  145 163 163 000
    027536  55   004725 004703
    027537  0a   000515 400000
    027540  55   004717 000003
    027541  aa  027 154 157 143         locked_by_other_process
    027542  aa  153 145 144 137
    027543  aa  142 171 137 157
    027544  aa  164 150 145 162
    027545  aa  137 160 162 157
    027546  aa  143 145 163 163
    027547  55   004736 004714
    027550  0a   000514 400000
    027551  55   004730 000003
    027552  aa  027 154 157 143         lock_wait_time_exceeded
    027553  aa  153 137 167 141
    027554  aa  151 164 137 164
    027555  aa  151 155 145 137
    027556  aa  145 170 143 145
    027557  aa  145 144 145 144
    027560  55   004745 004725
    027561  0a   000513 400000
    027562  55   004741 000003
    027563  aa  017 154 157 143         lock_not_locked
    027564  aa  153 137 156 157
    027565  aa  164 137 154 157
    027566  aa  143 153 145 144
    027567  55   004754 004736
    027570  0a   000512 400000
    027571  55   004750 000003
    027572  aa  017 154 157 143         lock_is_invalid
    027573  aa  153 137 151 163
    027574  aa  137 151 156 166
    027575  aa  141 154 151 144
    027576  55   004763 004745
    027577  0a   000511 400000
    027600  55   004757 000003
    027601  aa  016 154 151 163         listen_stopped
    027602  aa  164 145 156 137
    027603  aa  163 164 157 160
    027604  aa  160 145 144 000
    027605  55   004771 004754
    027606  0a   000510 400000
    027607  55   004766 000003
    027610  aa  012 154 151 156         linkmoderr
    027611  aa  153 155 157 144
    027612  aa  145 162 162 000
    027613  55   004776 004763
    027614  0a   000507 400000
    027615  55   004774 000003
    027616  aa  004 154 151 156         link
    027617  aa  153 000 000 000
    027620  55   005006 004771
    027621  0a   000506 400000
    027622  55   005001 000003
    027623  aa  023 154 151 156         line_status_pending
    027624  aa  145 137 163 164
    027625  aa  141 164 165 163
    027626  aa  137 160 145 156
    027627  aa  144 151 156 147
    027630  55   005013 004776
    027631  0a   000505 400000
    027632  55   005011 000003
    027633  aa  007 154 145 163         lesserr
    027634  aa  163 145 162 162
    027635  55   005022 005006
    027636  0a   000504 400000
    027637  55   005016 000003
    027640  aa  016 154 141 163         last_reference
    027641  aa  164 137 162 145
    027642  aa  146 145 162 145
    027643  aa  156 143 145 000
    027644  55   005033 005013
    027645  0a   000503 400000
    027646  55   005025 000003
    027647  aa  024 153 156 157         known_in_other_rings
    027650  aa  167 156 137 151
    027651  aa  156 137 157 164
    027652  aa  150 145 162 137
    027653  aa  162 151 156 147
    027654  aa  163 000 000 000
    027655  55   005041 005022
    027656  0a   000502 400000
    027657  55   005036 000003
    027660  aa  011 153 145 171         key_order
    027661  aa  137 157 162 144
    027662  aa  145 162 000 000
    027663  55   005050 005033
    027664  0a   000501 400000
    027665  55   005044 000003
    027666  aa  017 153 145 171         key_duplication
    027667  aa  137 144 165 160
    027670  aa  154 151 143 141
    027671  aa  164 151 157 156
    027672  55   005057 005041
    027673  0a   000500 400000
    027674  55   005053 000003
    027675  aa  014 151 164 164         itt_overflow
    027676  aa  137 157 166 145
    027677  aa  162 146 154 157
    027700  aa  167 000 000 000
    027701  55   005066 005050
    027702  0a   000477 400000
    027703  55   005062 000003
    027704  aa  014 151 164 145         item_too_big
    027705  aa  155 137 164 157
    027706  aa  157 137 142 151
    027707  aa  147 000 000 000
    027710  55   005076 005057
    027711  0a   000476 400000
    027712  55   005071 000003
    027713  aa  020 151 160 163         ips_has_occurred
    027714  aa  137 150 141 163
    027715  aa  137 157 143 143
    027716  aa  165 162 162 145
    027717  aa  144 000 000 000
    027720  55   005103 005066
    027721  0a   000475 400000
    027722  55   005101 000003
    027723  aa  006 151 157 156         ionmat
    027724  aa  155 141 164 000
    027725  55   005113 005076
    027726  0a   000474 400000
    027727  55   005106 000003
    027730  aa  020 151 157 156         ioname_not_found
    027731  aa  141 155 145 137
    027732  aa  156 157 164 137
    027733  aa  146 157 165 156
    027734  aa  144 000 000 000
    027735  55   005123 005103
    027736  0a   000473 400000
    027737  55   005116 000003
    027740  aa  021 151 157 156         ioname_not_active
    027741  aa  141 155 145 137
    027742  aa  156 157 164 137
    027743  aa  141 143 164 151
    027744  aa  166 145 000 000
    027745  55   005133 005113
    027746  0a   000472 400000
    027747  55   005126 000003
    027750  aa  020 151 157 155         iom_wrong_number
    027751  aa  137 167 162 157
    027752  aa  156 147 137 156
    027753  aa  165 155 142 145
    027754  aa  162 000 000 000
    027755  55   005143 005123
    027756  0a   000471 400000
    027757  55   005136 000003
    027760  aa  021 151 157 155         iom_wrong_mailbox
    027761  aa  137 167 162 157
    027762  aa  156 147 137 155
    027763  aa  141 151 154 142
    027764  aa  157 170 000 000
    027765  55   005153 005133
    027766  0a   000470 400000
    027767  55   005146 000003
    027770  aa  021 151 157 155         iom_connect_fatal
    027771  aa  137 143 157 156
    027772  aa  156 145 143 164
    027773  aa  137 146 141 164
    027774  aa  141 154 000 000
    027775  55   005163 005143
    027776  0a   000467 400000
    027777  55   005156 000003
    030000  aa  023 151 157 155         iom_already_deleted
    030001  aa  137 141 154 162
    030002  aa  145 141 144 171
    030003  aa  137 144 145 154
    030004  aa  145 164 145 144
    030005  55   005173 005153
    030006  0a   000466 400000
    030007  55   005166 000003
    030010  aa  021 151 157 155         iom_already_added
    030011  aa  137 141 154 162
    030012  aa  145 141 144 171
    030013  aa  137 141 144 144
    030014  aa  145 144 000 000
    030015  55   005201 005163
    030016  0a   000465 400000
    030017  55   005176 000003
    030020  aa  010 151 157 141         ioat_err
    030021  aa  164 137 145 162
    030022  aa  162 000 000 000
    030023  55   005210 005173
    030024  0a   000464 400000
    030025  55   005204 000003
    030026  aa  016 151 157 137         io_still_assnd
    030027  aa  163 164 151 154
    030030  aa  154 137 141 163
    030031  aa  163 156 144 000
    030032  55   005217 005201
    030033  0a   000463 400000
    030034  55   005213 000003
    030035  aa  016 151 157 137         io_not_defined
    030036  aa  156 157 164 137
    030037  aa  144 145 146 151
    030040  aa  156 145 144 000
    030041  55   005227 005210
    030042  0a   000462 400000
    030043  55   005222 000003
    030044  aa  021 151 157 137         io_not_configured
    030045  aa  156 157 164 137
    030046  aa  143 157 156 146
    030047  aa  151 147 165 162
    030050  aa  145 144 000 000
    030051  55   005237 005217
    030052  0a   000461 400000
    030053  55   005232 000003
    030054  aa  020 151 157 137         io_not_available
    030055  aa  156 157 164 137
    030056  aa  141 166 141 151
    030057  aa  154 141 142 154
    030060  aa  145 000 000 000
    030061  55   005246 005227
    030062  0a   000460 400000
    030063  55   005242 000003
    030064  aa  017 151 157 137         io_not_assigned
    030065  aa  156 157 164 137
    030066  aa  141 163 163 151
    030067  aa  147 156 145 144
    030070  55   005256 005237
    030071  0a   000457 400000
    030072  55   005251 000003
    030073  aa  020 151 157 137         io_no_permission
    030074  aa  156 157 137 160
    030075  aa  145 162 155 151
    030076  aa  163 163 151 157
    030077  aa  156 000 000 000
    030100  55   005264 005246
    030101  0a   000456 400000
    030102  55   005261 000003
    030103  aa  012 151 157 137         io_no_path
    030104  aa  156 157 137 160
    030105  aa  141 164 150 000
    030106  55   005273 005256
    030107  0a   000455 400000
    030110  55   005267 000003
    030111  aa  015 151 157 137         io_configured
    030112  aa  143 157 156 146
    030113  aa  151 147 165 162
    030114  aa  145 144 000 000
    030115  55   005301 005264
    030116  0a   000454 400000
    030117  55   005276 000003
    030120  aa  013 151 157 137         io_assigned
    030121  aa  141 163 163 151
    030122  aa  147 156 145 144
    030123  55   005310 005273
    030124  0a   000453 400000
    030125  55   005304 000003
    030126  aa  014 151 156 166         invalidsegno
    030127  aa  141 154 151 144
    030130  aa  163 145 147 156
    030131  aa  157 000 000 000
    030132  55   005317 005301
    030133  0a   000452 400000
    030134  55   005313 000003
    030135  aa  015 151 156 166         invalid_write
    030136  aa  141 154 151 144
    030137  aa  137 167 162 151
    030140  aa  164 145 000 000
    030141  55   005326 005310
    030142  0a   000451 400000
    030143  55   005322 000003
    030144  aa  015 151 156 166         invalid_vtocx
    030145  aa  141 154 151 144
    030146  aa  137 166 164 157
    030147  aa  143 170 000 000
    030150  55   005335 005317
    030151  0a   000450 400000
    030152  55   005331 000003
    030153  aa  015 151 156 166         invalid_vtoce
    030154  aa  141 154 151 144
    030155  aa  137 166 164 157
    030156  aa  143 145 000 000
    030157  55   005346 005326
    030160  0a   000447 400000
    030161  55   005340 000003
    030162  aa  027 151 156 166         invalid_volume_sequence
    030163  aa  141 154 151 144
    030164  aa  137 166 157 154
    030165  aa  165 155 145 137
    030166  aa  163 145 161 165
    030167  aa  145 156 143 145
    030170  55   005356 005335
    030171  0a   000446 400000
    030172  55   005351 000003
    030173  aa  020 151 156 166         invalid_tp_value
    030174  aa  141 154 151 144
    030175  aa  137 164 160 137
    030176  aa  166 141 154 165
    030177  aa  145 000 000 000
    030200  55   005370 005346
    030201  0a   000445 400000
    030202  55   005361 000003
    030203  aa  032 151 156 166         invalid_tape_record_length
    030204  aa  141 154 151 144
    030205  aa  137 164 141 160
    030206  aa  145 137 162 145
    030207  aa  143 157 162 144
    030210  aa  137 154 145 156
    030211  aa  147 164 150 000
    030212  55   005400 005356
    030213  0a   000444 400000
    030214  55   005373 000003
    030215  aa  023 151 156 166         invalid_system_type
    030216  aa  141 154 151 144
    030217  aa  137 163 171 163
    030220  aa  164 145 155 137
    030221  aa  164 171 160 145
    030222  55   005410 005370
    030223  0a   000443 400000
    030224  55   005403 000003
    030225  aa  021 151 156 166         invalid_subsystem
    030226  aa  141 154 151 144
    030227  aa  137 163 165 142
    030230  aa  163 171 163 164
    030231  aa  145 155 000 000
    030232  55   005417 005400
    030233  0a   000442 400000
    030234  55   005413 000003
    030235  aa  015 151 156 166         invalid_state
    030236  aa  141 154 151 144
    030237  aa  137 163 164 141
    030240  aa  164 145 000 000
    030241  55   005430 005410
    030242  0a   000441 400000
    030243  55   005422 000003
    030244  aa  026 151 156 166         invalid_stack_creation
    030245  aa  141 154 151 144
    030246  aa  137 163 164 141
    030247  aa  143 153 137 143
    030250  aa  162 145 141 164
    030251  aa  151 157 156 000
    030252  55   005440 005417
    030253  0a   000440 400000
    030254  55   005433 000003
    030255  aa  020 151 156 166         invalid_setdelim
    030256  aa  141 154 151 144
    030257  aa  137 163 145 164
    030260  aa  144 145 154 151
    030261  aa  155 000 000 000
    030262  55   005451 005430
    030263  0a   000437 400000
    030264  55   005443 000003
    030265  aa  027 151 156 166         invalid_seek_last_bound
    030266  aa  141 154 151 144
    030267  aa  137 163 145 145
    030270  aa  153 137 154 141
    030271  aa  163 164 137 142
    030272  aa  157 165 156 144
    030273  55   005462 005440
    030274  0a   000436 400000
    030275  55   005454 000003
    030276  aa  025 151 156 166         invalid_ring_brackets
    030277  aa  141 154 151 144
    030300  aa  137 162 151 156
    030301  aa  147 137 142 162
    030302  aa  141 143 153 145
    030303  aa  164 163 000 000
    030304  55   005473 005451
    030305  0a   000435 400000
    030306  55   005465 000003
    030307  aa  026 151 156 166         invalid_resource_state
    030310  aa  141 154 151 144
    030311  aa  137 162 145 163
    030312  aa  157 165 162 143
    030313  aa  145 137 163 164
    030314  aa  141 164 145 000
    030315  55   005504 005462
    030316  0a   000434 400000
    030317  55   005476 000003
    030320  aa  025 151 156 166         invalid_record_length
    030321  aa  141 154 151 144
    030322  aa  137 162 145 143
    030323  aa  157 162 144 137
    030324  aa  154 145 156 147
    030325  aa  164 150 000 000
    030326  55   005514 005473
    030327  0a   000433 400000
    030330  55   005507 000003
    030331  aa  023 151 156 166         invalid_record_desc
    030332  aa  141 154 151 144
    030333  aa  137 162 145 143
    030334  aa  157 162 144 137
    030335  aa  144 145 163 143
    030336  55   005523 005504
    030337  0a   000432 400000
    030340  55   005517 000003
    030341  aa  014 151 156 166         invalid_read
    030342  aa  141 154 151 144
    030343  aa  137 162 145 141
    030344  aa  144 000 000 000
    030345  55   005532 005514
    030346  0a   000431 400000
    030347  55   005526 000003
    030350  aa  014 151 156 166         invalid_pvtx
    030351  aa  141 154 151 144
    030352  aa  137 160 166 164
    030353  aa  170 000 000 000
    030354  55   005542 005523
    030355  0a   000430 400000
    030356  55   005535 000003
    030357  aa  022 151 156 166         invalid_ptr_target
    030360  aa  141 154 151 144
    030361  aa  137 160 164 162
    030362  aa  137 164 141 162
    030363  aa  147 145 164 000
    030364  55   005554 005532
    030365  0a   000427 400000
    030366  55   005545 000003
    030367  aa  030 151 156 166         invalid_project_for_gate
    030370  aa  141 154 151 144
    030371  aa  137 160 162 157
    030372  aa  152 145 143 164
    030373  aa  137 146 157 162
    030374  aa  137 147 141 164
    030375  aa  145 000 000 000
    030376  55   005566 005542
    030377  0a   000426 400000
    030400  55   005557 000003
    030401  aa  031 151 156 166         invalid_preaccess_command
    030402  aa  141 154 151 144
    030403  aa  137 160 162 145
    030404  aa  141 143 143 145
    030405  aa  163 163 137 143
    030406  aa  157 155 155 141
    030407  aa  156 144 000 000
    030410  55   005576 005554
    030411  0a   000425 400000
    030412  55   005571 000003
    030413  aa  020 151 156 166         invalid_mpx_type
    030414  aa  141 154 151 144
    030415  aa  137 155 160 170
    030416  aa  137 164 171 160
    030417  aa  145 000 000 000
    030420  55   005606 005566
    030421  0a   000424 400000
    030422  55   005601 000003
    030423  aa  022 151 156 166         invalid_move_quota
    030424  aa  141 154 151 144
    030425  aa  137 155 157 166
    030426  aa  145 137 161 165
    030427  aa  157 164 141 000
    030430  55   005616 005576
    030431  0a   000423 400000
    030432  55   005611 000003
    030433  aa  021 151 156 166         invalid_move_qmax
    030434  aa  141 154 151 144
    030435  aa  137 155 157 166
    030436  aa  145 137 161 155
    030437  aa  141 170 000 000
    030440  55   005625 005606
    030441  0a   000422 400000
    030442  55   005621 000003
    030443  aa  014 151 156 166         invalid_mode
    030444  aa  141 154 151 144
    030445  aa  137 155 157 144
    030446  aa  145 000 000 000
    030447  55   005635 005616
    030450  0a   000421 400000
    030451  55   005630 000003
    030452  aa  022 151 156 166         invalid_max_length
    030453  aa  141 154 151 144
    030454  aa  137 155 141 170
    030455  aa  137 154 145 156
    030456  aa  147 164 150 000
    030457  55   005645 005625
    030460  0a   000420 400000
    030461  55   005640 000003
    030462  aa  022 151 156 166         invalid_lock_reset
    030463  aa  141 154 151 144
    030464  aa  137 154 157 143
    030465  aa  153 137 162 145
    030466  aa  163 145 164 000
    030467  55   005655 005635
    030470  0a   000417 400000
    030471  55   005650 000003
    030472  aa  021 151 156 166         invalid_line_type
    030473  aa  141 154 151 144
    030474  aa  137 154 151 156
    030475  aa  145 137 164 171
    030476  aa  160 145 000 000
    030477  55   005666 005645
    030500  0a   000416 400000
    030501  55   005660 000003
    030502  aa  024 151 156 166         invalid_label_format
    030503  aa  141 154 151 144
    030504  aa  137 154 141 142
    030505  aa  145 154 137 146
    030506  aa  157 162 155 141
    030507  aa  164 000 000 000
    030510  55   005677 005655
    030511  0a   000415 400000
    030512  55   005671 000003
    030513  aa  025 151 156 166         invalid_heap_var_size
    030514  aa  141 154 151 144
    030515  aa  137 150 145 141
    030516  aa  160 137 166 141
    030517  aa  162 137 163 151
    030520  aa  172 145 000 000
    030521  55   005706 005666
    030522  0a   000414 400000
    030523  55   005702 000003
    030524  aa  014 151 156 166         invalid_heap
    030525  aa  141 154 151 144
    030526  aa  137 150 145 141
    030527  aa  160 000 000 000
    030530  55   005717 005677
    030531  0a   000413 400000
    030532  55   005711 000003
    030533  aa  027 151 156 166         invalid_file_set_format
    030534  aa  141 154 151 144
    030535  aa  137 146 151 154
    030536  aa  145 137 163 145
    030537  aa  164 137 146 157
    030540  aa  162 155 141 164
    030541  55   005727 005706
    030542  0a   000412 400000
    030543  55   005722 000003
    030544  aa  022 151 156 166         invalid_expiration
    030545  aa  141 154 151 144
    030546  aa  137 145 170 160
    030547  aa  151 162 141 164
    030550  aa  151 157 156 000
    030551  55   005736 005717
    030552  0a   000411 400000
    030553  55   005732 000003
    030554  aa  016 151 156 166         invalid_elsize
    030555  aa  141 154 151 144
    030556  aa  137 145 154 163
    030557  aa  151 172 145 000
    030560  55   005750 005727
    030561  0a   000410 400000
    030562  55   005741 000003
    030563  aa  030 151 156 166         invalid_dm_journal_index
    030564  aa  141 154 151 144
    030565  aa  137 144 155 137
    030566  aa  152 157 165 162
    030567  aa  156 141 154 137
    030570  aa  151 156 144 145
    030571  aa  170 000 000 000
    030572  55   005757 005736
    030573  0a   000407 400000
    030574  55   005753 000003
    030575  aa  016 151 156 166         invalid_device
    030576  aa  141 154 151 144
    030577  aa  137 144 145 166
    030600  aa  151 143 145 000
    030601  55   005767 005750
    030602  0a   000406 400000
    030603  55   005762 000003
    030604  aa  023 151 156 166         invalid_delay_value
    030605  aa  141 154 151 144
    030606  aa  137 144 145 154
    030607  aa  141 171 137 166
    030610  aa  141 154 165 145
    030611  55   005776 005757
    030612  0a   000405 400000
    030613  55   005772 000003
    030614  aa  014 151 156 166         invalid_cseg
    030615  aa  141 154 151 144
    030616  aa  137 143 163 145
    030617  aa  147 000 000 000
    030620  55   006005 005767
    030621  0a   000404 400000
    030622  55   006001 000003
    030623  aa  014 151 156 166         invalid_copy
    030624  aa  141 154 151 144
    030625  aa  137 143 157 160
    030626  aa  171 000 000 000
    030627  55   006014 005776
    030630  0a   000403 400000
    030631  55   006010 000003
    030632  aa  017 151 156 166         invalid_channel
    030633  aa  141 154 151 144
    030634  aa  137 143 150 141
    030635  aa  156 156 145 154
    030636  55   006025 006005
    030637  0a   000402 400000
    030640  55   006017 000003
    030641  aa  024 151 156 166         invalid_block_length
    030642  aa  141 154 151 144
    030643  aa  137 142 154 157
    030644  aa  143 153 137 154
    030645  aa  145 156 147 164
    030646  aa  150 000 000 000
    030647  55   006036 006014
    030650  0a   000401 400000
    030651  55   006030 000003
    030652  aa  026 151 156 166         invalid_backspace_read
    030653  aa  141 154 151 144
    030654  aa  137 142 141 143
    030655  aa  153 163 160 141
    030656  aa  143 145 137 162
    030657  aa  145 141 144 000
    030660  55   006045 006025
    030661  0a   000400 400000
    030662  55   006041 000003
    030663  aa  015 151 156 166         invalid_ascii
    030664  aa  141 154 151 144
    030665  aa  137 141 163 143
    030666  aa  151 151 000 000
    030667  55   006055 006036
    030670  0a   000377 400000
    030671  55   006050 000003
    030672  aa  022 151 156 166         invalid_array_size
    030673  aa  141 154 151 144
    030674  aa  137 141 162 162
    030675  aa  141 171 137 163
    030676  aa  151 172 145 000
    030677  55   006065 006045
    030700  0a   000376 400000
    030701  55   006060 000003
    030702  aa  021 151 156 163         insufficient_open
    030703  aa  165 146 146 151
    030704  aa  143 151 145 156
    030705  aa  164 137 157 160
    030706  aa  145 156 000 000
    030707  55   006074 006055
    030710  0a   000375 400000
    030711  55   006070 000003
    030712  aa  015 155 144 143         mdc_no_access
    030713  aa  137 156 157 137
    030714  aa  141 143 143 145
    030715  aa  163 163 000 000
    030716  55   006104 006065
    030717  0a   000375 400000
    030720  55   006077 000003
    030721  aa  023 151 156 163         insufficient_access
    030722  aa  165 146 146 151
    030723  aa  143 151 145 156
    030724  aa  164 137 141 143
    030725  aa  143 145 163 163
    030726  55   006113 006074
    030727  0a   000374 400000
    030730  55   006107 000003
    030731  aa  017 151 156 146         infcnt_non_zero
    030732  aa  143 156 164 137
    030733  aa  156 157 156 137
    030734  aa  172 145 162 157
    030735  55   006124 006104
    030736  0a   000373 400000
    030737  55   006116 000003
    030740  aa  025 151 156 143         incorrect_volume_type
    030741  aa  157 162 162 145
    030742  aa  143 164 137 166
    030743  aa  157 154 165 155
    030744  aa  145 137 164 171
    030745  aa  160 145 000 000
    030746  55   006135 006113
    030747  0a   000372 400000
    030750  55   006127 000003
    030751  aa  025 151 156 143         incorrect_device_type
    030752  aa  157 162 162 145
    030753  aa  143 164 137 144
    030754  aa  145 166 151 143
    030755  aa  145 137 164 171
    030756  aa  160 145 000 000
    030757  55   006145 006124
    030760  0a   000371 400000
    030761  55   006140 000003
    030762  aa  020 151 156 143         incorrect_access
    030763  aa  157 162 162 145
    030764  aa  143 164 137 141
    030765  aa  143 143 145 163
    030766  aa  163 000 000 000
    030767  55   006156 006135
    030770  0a   000370 400000
    030771  55   006150 000003
    030772  aa  027 151 156 143         inconsistent_object_msf
    030773  aa  157 156 163 151
    030774  aa  163 164 145 156
    030775  aa  164 137 157 142
    030776  aa  152 145 143 164
    030777  aa  137 155 163 146
    031000  55   006166 006145
    031001  0a   000367 400000
    031002  55   006161 000003
    031003  aa  020 151 156 143         inconsistent_sst
    031004  aa  157 156 163 151
    031005  aa  163 164 145 156
    031006  aa  164 137 163 163
    031007  aa  164 000 000 000
    031010  55   006176 006156
    031011  0a   000366 400000
    031012  55   006171 000003
    031013  aa  020 151 156 143         inconsistent_rnt
    031014  aa  157 156 163 151
    031015  aa  163 164 145 156
    031016  aa  164 137 162 156
    031017  aa  164 000 000 000
    031020  55   006206 006166
    031021  0a   000365 400000
    031022  55   006201 000003
    031023  aa  020 151 156 143         inconsistent_msf
    031024  aa  157 156 163 151
    031025  aa  163 164 145 156
    031026  aa  164 137 155 163
    031027  aa  146 000 000 000
    031030  55   006216 006176
    031031  0a   000364 400000
    031032  55   006211 000003
    031033  aa  020 151 156 143         inconsistent_ect
    031034  aa  157 156 163 151
    031035  aa  163 164 145 156
    031036  aa  164 137 145 143
    031037  aa  164 000 000 000
    031040  55   006225 006206
    031041  0a   000363 400000
    031042  55   006221 000003
    031043  aa  014 151 156 143         inconsistent
    031044  aa  157 156 163 151
    031045  aa  163 164 145 156
    031046  aa  164 000 000 000
    031047  55   006236 006216
    031050  0a   000362 400000
    031051  55   006230 000003
    031052  aa  026 151 156 143         incomplete_access_name
    031053  aa  157 155 160 154
    031054  aa  145 164 145 137
    031055  aa  141 143 143 145
    031056  aa  163 163 137 156
    031057  aa  141 155 145 000
    031060  55   006247 006225
    031061  0a   000361 400000
    031062  55   006241 000003
    031063  aa  026 151 156 143         incompatible_term_type
    031064  aa  157 155 160 141
    031065  aa  164 151 142 154
    031066  aa  145 137 164 145
    031067  aa  162 155 137 164
    031070  aa  171 160 145 000
    031071  55   006261 006236
    031072  0a   000360 400000
    031073  55   006252 000003
    031074  aa  033 151 156 143         incompatible_file_attribute
    031075  aa  157 155 160 141
    031076  aa  164 151 142 154
    031077  aa  145 137 146 151
    031100  aa  154 145 137 141
    031101  aa  164 164 162 151
    031102  aa  142 165 164 145
    031103  55   006273 006247
    031104  0a   000357 400000
    031105  55   006264 000003
    031106  aa  032 151 156 143         incompatible_encoding_mode
    031107  aa  157 155 160 141
    031110  aa  164 151 142 154
    031111  aa  145 137 145 156
    031112  aa  143 157 144 151
    031113  aa  156 147 137 155
    031114  aa  157 144 145 000
    031115  55   006303 006261
    031116  0a   000356 400000
    031117  55   006276 000003
    031120  aa  023 151 156 143         incompatible_attach
    031121  aa  157 155 160 141
    031122  aa  164 151 142 154
    031123  aa  145 137 141 164
    031124  aa  164 141 143 150
    031125  55   006314 006273
    031126  0a   000355 400000
    031127  55   006306 000003
    031130  aa  024 151 155 160         improper_termination
    031131  aa  162 157 160 145
    031132  aa  162 137 164 145
    031133  aa  162 155 151 156
    031134  aa  141 164 151 157
    031135  aa  156 000 000 000
    031136  55   006325 006303
    031137  0a   000354 400000
    031140  55   006317 000003
    031141  aa  024 151 155 160         improper_data_format
    031142  aa  162 157 160 145
    031143  aa  162 137 144 141
    031144  aa  164 141 137 146
    031145  aa  157 162 155 141
    031146  aa  164 000 000 000
    031147  55   006335 006314
    031150  0a   000353 400000
    031151  55   006330 000003
    031152  aa  020 151 155 160         imp_rfnm_pending
    031153  aa  137 162 146 156
    031154  aa  155 137 160 145
    031155  aa  156 144 151 156
    031156  aa  147 000 000 000
    031157  55   006343 006325
    031160  0a   000352 400000
    031161  55   006340 000003
    031162  aa  010 151 155 160         imp_down
    031163  aa  137 144 157 167
    031164  aa  156 000 000 000
    031165  55   006352 006335
    031166  0a   000351 400000
    031167  55   006346 000003
    031170  aa  016 151 155 160         imp_bad_status
    031171  aa  137 142 141 144
    031172  aa  137 163 164 141
    031173  aa  164 165 163 000
    031174  55   006361 006343
    031175  0a   000350 400000
    031176  55   006355 000003
    031177  aa  016 151 155 160         imp_bad_format
    031200  aa  137 142 141 144
    031201  aa  137 146 157 162
    031202  aa  155 141 164 000
    031203  55   006371 006352
    031204  0a   000347 400000
    031205  55   006364 000003
    031206  aa  023 151 154 154         illegal_record_size
    031207  aa  145 147 141 154
    031210  aa  137 162 145 143
    031211  aa  157 162 144 137
    031212  aa  163 151 172 145
    031213  55   006377 006361
    031214  0a   000346 400000
    031215  55   006374 000003
    031216  aa  013 151 154 154         illegal_ft2
    031217  aa  145 147 141 154
    031220  aa  137 146 164 062
    031221  55   006410 006371
    031222  0a   000345 400000
    031223  55   006402 000003
    031224  aa  024 151 154 154         illegal_deactivation
    031225  aa  145 147 141 154
    031226  aa  137 144 145 141
    031227  aa  143 164 151 166
    031230  aa  141 164 151 157
    031231  aa  156 000 000 000
    031232  55   006420 006377
    031233  0a   000344 400000
    031234  55   006413 000003
    031235  aa  022 151 154 154         illegal_activation
    031236  aa  145 147 141 154
    031237  aa  137 141 143 164
    031240  aa  151 166 141 164
    031241  aa  151 157 156 000
    031242  55   006427 006410
    031243  0a   000343 400000
    031244  55   006423 000003
    031245  aa  014 151 144 137         id_not_found
    031246  aa  156 157 164 137
    031247  aa  146 157 165 156
    031250  aa  144 000 000 000
    031251  55   006437 006420
    031252  0a   000342 400000
    031253  55   006432 000003
    031254  aa  021 151 144 137         id_already_exists
    031255  aa  141 154 162 145
    031256  aa  141 144 171 137
    031257  aa  145 170 151 163
    031260  aa  164 163 000 000
    031261  55   006450 006427
    031262  0a   000341 400000
    031263  55   006442 000003
    031264  aa  024 150 151 147         higher_inconsistency
    031265  aa  150 145 162 137
    031266  aa  151 156 143 157
    031267  aa  156 163 151 163
    031270  aa  164 145 156 143
    031271  aa  171 000 000 000
    031272  55   006457 006437
    031273  0a   000340 400000
    031274  55   006453 000003
    031275  aa  014 150 141 162         hardcore_sdw
    031276  aa  144 143 157 162
    031277  aa  145 137 163 144
    031300  aa  167 000 000 000
    031301  55   006464 006450
    031302  0a   000337 400000
    031303  55   006462 000003
    031304  aa  007 146 165 154         fulldir
    031305  aa  154 144 151 162
    031306  55   006473 006457
    031307  0a   000336 400000
    031310  55   006467 000003
    031311  aa  014 146 165 154         full_hashtbl
    031312  aa  154 137 150 141
    031313  aa  163 150 164 142
    031314  aa  154 000 000 000
    031315  55   006502 006464
    031316  0a   000335 400000
    031317  55   006476 000003
    031320  aa  017 146 163 144         fsdisk_pvtx_oob
    031321  aa  151 163 153 137
    031322  aa  160 166 164 170
    031323  aa  137 157 157 142
    031324  55   006512 006473
    031325  0a   000334 400000
    031326  55   006505 000003
    031327  aa  021 146 163 144         fsdisk_phydev_err
    031330  aa  151 163 153 137
    031331  aa  160 150 171 144
    031332  aa  145 166 137 145
    031333  aa  162 162 000 000
    031334  55   006521 006502
    031335  0a   000333 400000
    031336  55   006515 000003
    031337  aa  017 146 163 144         fsdisk_old_vtoc
    031340  aa  151 163 153 137
    031341  aa  157 154 144 137
    031342  aa  166 164 157 143
    031343  55   006531 006512
    031344  0a   000332 400000
    031345  55   006524 000003
    031346  aa  020 146 163 144         fsdisk_old_label
    031347  aa  151 163 153 137
    031350  aa  157 154 144 137
    031351  aa  154 141 142 145
    031352  aa  154 000 000 000
    031353  55   006541 006521
    031354  0a   000331 400000
    031355  55   006534 000003
    031356  aa  022 146 163 144         fsdisk_not_storage
    031357  aa  151 163 153 137
    031360  aa  156 157 164 137
    031361  aa  163 164 157 162
    031362  aa  141 147 145 000
    031363  55   006550 006531
    031364  0a   000330 400000
    031365  55   006544 000003
    031366  aa  017 146 163 144         fsdisk_not_salv
    031367  aa  151 163 153 137
    031370  aa  156 157 164 137
    031371  aa  163 141 154 166
    031372  55   006560 006541
    031373  0a   000327 400000
    031374  55   006553 000003
    031375  aa  020 146 163 144         fsdisk_not_ready
    031376  aa  151 163 153 137
    031377  aa  156 157 164 137
    031400  aa  162 145 141 144
    031401  aa  171 000 000 000
    031402  55   006570 006550
    031403  0a   000326 400000
    031404  55   006563 000003
    031405  aa  023 146 163 144         fsdisk_drive_in_use
    031406  aa  151 163 153 137
    031407  aa  144 162 151 166
    031410  aa  145 137 151 156
    031411  aa  137 165 163 145
    031412  55   006600 006560
    031413  0a   000325 400000
    031414  55   006573 000003
    031415  aa  020 146 163 144         fsdisk_bad_label
    031416  aa  151 163 153 137
    031417  aa  142 141 144 137
    031420  aa  154 141 142 145
    031421  aa  154 000 000 000
    031422  55   006607 006570
    031423  0a   000324 400000
    031424  55   006603 000003
    031425  aa  017 146 162 141         frame_scope_err
    031426  aa  155 145 137 163
    031427  aa  143 157 160 145
    031430  aa  137 145 162 162
    031431  55   006616 006600
    031432  0a   000323 400000
    031433  55   006612 000003
    031434  aa  016 146 157 162         force_unassign
    031435  aa  143 145 137 165
    031436  aa  156 141 163 163
    031437  aa  151 147 156 000
    031440  55   006624 006607
    031441  0a   000322 400000
    031442  55   006621 000003
    031443  aa  010 146 156 160         fnp_down
    031444  aa  137 144 157 167
    031445  aa  156 000 000 000
    031446  55   006635 006616
    031447  0a   000321 400000
    031450  55   006627 000003
    031451  aa  024 146 151 162         first_reference_trap
    031452  aa  163 164 137 162
    031453  aa  145 146 145 162
    031454  aa  145 156 143 145
    031455  aa  137 164 162 141
    031456  aa  160 000 000 000
    031457  55   006643 006624
    031460  0a   000320 400000
    031461  55   006640 000003
    031462  aa  011 146 151 155         fim_fault
    031463  aa  137 146 141 165
    031464  aa  154 164 000 000
    031465  55   006652 006635
    031466  0a   000317 400000
    031467  55   006646 000003
    031470  aa  017 146 151 154         file_not_opened
    031471  aa  145 137 156 157
    031472  aa  164 137 157 160
    031473  aa  145 156 145 144
    031474  55   006661 006643
    031475  0a   000316 400000
    031476  55   006655 000003
    031477  aa  014 146 151 154         file_is_full
    031500  aa  145 137 151 163
    031501  aa  137 146 165 154
    031502  aa  154 000 000 000
    031503  55   006667 006652
    031504  0a   000315 400000
    031505  55   006664 000003
    031506  aa  011 146 151 154         file_busy
    031507  aa  145 137 142 165
    031510  aa  163 171 000 000
    031511  55   006677 006661
    031512  0a   000314 400000
    031513  55   006672 000003
    031514  aa  023 146 151 154         file_already_opened
    031515  aa  145 137 141 154
    031516  aa  162 145 141 144
    031517  aa  171 137 157 160
    031520  aa  145 156 145 144
    031521  55   006706 006667
    031522  0a   000313 400000
    031523  55   006702 000003
    031524  aa  014 146 151 154         file_aborted
    031525  aa  145 137 141 142
    031526  aa  157 162 164 145
    031527  aa  144 000 000 000
    031530  55   006714 006677
    031531  0a   000312 400000
    031532  55   006711 000003
    031533  aa  013 146 141 164         fatal_error
    031534  aa  141 154 137 145
    031535  aa  162 162 157 162
    031536  55   006726 006706
    031537  0a   000311 400000
    031540  55   006717 000003
    031541  aa  030 145 166 145         event_channel_not_cutoff
    031542  aa  156 164 137 143
    031543  aa  150 141 156 156
    031544  aa  145 154 137 156
    031545  aa  157 164 137 143
    031546  aa  165 164 157 146
    031547  aa  146 000 000 000
    031550  55   006737 006714
    031551  0a   000310 400000
    031552  55   006731 000003
    031553  aa  024 145 166 145         event_channel_cutoff
    031554  aa  156 164 137 143
    031555  aa  150 141 156 156
    031556  aa  145 154 137 143
    031557  aa  165 164 157 146
    031560  aa  146 000 000 000
    031561  55   006750 006726
    031562  0a   000307 400000
    031563  55   006742 000003
    031564  aa  026 145 166 145         event_calls_not_masked
    031565  aa  156 164 137 143
    031566  aa  141 154 154 163
    031567  aa  137 156 157 164
    031570  aa  137 155 141 163
    031571  aa  153 145 144 000
    031572  55   006757 006737
    031573  0a   000306 400000
    031574  55   006753 000003
    031575  aa  014 145 157 166         eov_on_write
    031576  aa  137 157 156 137
    031577  aa  167 162 151 164
    031600  aa  145 000 000 000
    031601  55   006765 006750
    031602  0a   000305 400000
    031603  55   006762 000003
    031604  aa  012 145 157 146         eof_record
    031605  aa  137 162 145 143
    031606  aa  157 162 144 000
    031607  55   006772 006757
    031610  0a   000304 400000
    031611  55   006770 000003
    031612  aa  007 145 156 164         entlong
    031613  aa  154 157 156 147
    031614  55   007000 006765
    031615  0a   000303 400000
    031616  55   006775 000003
    031617  aa  013 145 156 144         end_of_info
    031620  aa  137 157 146 137
    031621  aa  151 156 146 157
    031622  55   007010 006772
    031623  0a   000302 400000
    031624  55   007003 000003
    031625  aa  021 145 155 160         empty_search_list
    031626  aa  164 171 137 163
    031627  aa  145 141 162 143
    031630  aa  150 137 154 151
    031631  aa  163 164 000 000
    031632  55   007016 007000
    031633  0a   000301 400000
    031634  55   007013 000003
    031635  aa  012 145 155 160         empty_file
    031636  aa  164 171 137 146
    031637  aa  151 154 145 000
    031640  55   007025 007010
    031641  0a   000300 400000
    031642  55   007021 000003
    031643  aa  015 145 155 160         empty_archive
    031644  aa  164 171 137 141
    031645  aa  162 143 150 151
    031646  aa  166 145 000 000
    031647  55   007033 007016
    031650  0a   000277 400000
    031651  55   007030 000003
    031652  aa  011 145 155 160         empty_acl
    031653  aa  164 171 137 141
    031654  aa  143 154 000 000
    031655  55   007042 007025
    031656  0a   000276 400000
    031657  55   007036 000003
    031660  aa  017 145 151 147         eight_unaligned
    031661  aa  150 164 137 165
    031662  aa  156 141 154 151
    031663  aa  147 156 145 144
    031664  55   007050 007033
    031665  0a   000275 400000
    031666  55   007045 000003
    031667  aa  010 145 143 164         ect_full
    031670  aa  137 146 165 154
    031671  aa  154 000 000 000
    031672  55   007061 007042
    031673  0a   000274 400000
    031674  55   007053 000003
    031675  aa  027 145 143 164         ect_already_initialized
    031676  aa  137 141 154 162
    031677  aa  145 141 144 171
    031700  aa  137 151 156 151
    031701  aa  164 151 141 154
    031702  aa  151 172 145 144
    031703  55   007073 007050
    031704  0a   000273 400000
    031705  55   007064 000003
    031706  aa  032 145 143 150         echnego_awaiting_stop_sync
    031707  aa  156 145 147 157
    031710  aa  137 141 167 141
    031711  aa  151 164 151 156
    031712  aa  147 137 163 164
    031713  aa  157 160 137 163
    031714  aa  171 156 143 000
    031715  55   007103 007061
    031716  0a   000272 400000
    031717  55   007076 000003
    031720  aa  021 144 165 160         duplicate_request
    031721  aa  154 151 143 141
    031722  aa  164 145 137 162
    031723  aa  145 161 165 145
    031724  aa  163 164 000 000
    031725  55   007113 007073
    031726  0a   000271 400000
    031727  55   007106 000003
    031730  aa  021 144 165 160         duplicate_file_id
    031731  aa  154 151 143 141
    031732  aa  164 145 137 146
    031733  aa  151 154 145 137
    031734  aa  151 144 000 000
    031735  55   007122 007103
    031736  0a   000270 400000
    031737  55   007116 000003
    031740  aa  014 144 165 160         dup_ent_name
    031741  aa  137 145 156 164
    031742  aa  137 156 141 155
    031743  aa  145 000 000 000
    031744  55   007132 007113
    031745  0a   000267 400000
    031746  55   007125 000003
    031747  aa  021 144 164 137         dt_year_too_small
    031750  aa  171 145 141 162
    031751  aa  137 164 157 157
    031752  aa  137 163 155 141
    031753  aa  154 154 000 000
    031754  55   007141 007122
    031755  0a   000266 400000
    031756  55   007135 000003
    031757  aa  017 144 164 137         dt_year_too_big
    031760  aa  171 145 141 162
    031761  aa  137 164 157 157
    031762  aa  137 142 151 147
    031763  55   007150 007132
    031764  0a   000265 400000
    031765  55   007144 000003
    031766  aa  017 144 164 137         dt_unknown_word
    031767  aa  165 156 153 156
    031770  aa  157 167 156 137
    031771  aa  167 157 162 144
    031772  55   007162 007141
    031773  0a   000264 400000
    031774  55   007153 000003
    031775  aa  030 144 164 137         dt_unknown_time_language
    031776  aa  165 156 153 156
    031777  aa  157 167 156 137
    032000  aa  164 151 155 145
    032001  aa  137 154 141 156
    032002  aa  147 165 141 147
    032003  aa  145 000 000 000
    032004  55   007174 007150
    032005  0a   000263 400000
    032006  55   007165 000003
    032007  aa  030 144 164 137         dt_time_conversion_error
    032010  aa  164 151 155 145
    032011  aa  137 143 157 156
    032012  aa  166 145 162 163
    032013  aa  151 157 156 137
    032014  aa  145 162 162 157
    032015  aa  162 000 000 000
    032016  55   007203 007162
    032017  0a   000262 400000
    032020  55   007177 000003
    032021  aa  015 144 164 137         dt_size_error
    032022  aa  163 151 172 145
    032023  aa  137 145 162 162
    032024  aa  157 162 000 000
    032025  55   007215 007174
    032026  0a   000261 400000
    032027  55   007206 000003
    032030  aa  032 144 164 137         dt_offset_too_big_positive
    032031  aa  157 146 146 163
    032032  aa  145 164 137 164
    032033  aa  157 157 137 142
    032034  aa  151 147 137 160
    032035  aa  157 163 151 164
    032036  aa  151 166 145 000
    032037  55   007227 007203
    032040  0a   000260 400000
    032041  55   007220 000003
    032042  aa  032 144 164 137         dt_offset_too_big_negative
    032043  aa  157 146 146 163
    032044  aa  145 164 137 164
    032045  aa  157 157 137 142
    032046  aa  151 147 137 156
    032047  aa  145 147 141 164
    032050  aa  151 166 145 000
    032051  55   007240 007215
    032052  0a   000257 400000
    032053  55   007232 000003
    032054  aa  024 144 164 137         dt_no_interval_units
    032055  aa  156 157 137 151
    032056  aa  156 164 145 162
    032057  aa  166 141 154 137
    032060  aa  165 156 151 164
    032061  aa  163 000 000 000
    032062  55   007251 007227
    032063  0a   000256 400000
    032064  55   007243 000003
    032065  aa  025 144 164 137         dt_no_format_selector
    032066  aa  156 157 137 146
    032067  aa  157 162 155 141
    032070  aa  164 137 163 145
    032071  aa  154 145 143 164
    032072  aa  157 162 000 000
    032073  55   007262 007240
    032074  0a   000255 400000
    032075  55   007254 000003
    032076  aa  025 144 164 137         dt_multiple_zone_spec
    032077  aa  155 165 154 164
    032100  aa  151 160 154 145
    032101  aa  137 172 157 156
    032102  aa  145 137 163 160
    032103  aa  145 143 000 000
    032104  55   007273 007251
    032105  0a   000254 400000
    032106  55   007265 000003
    032107  aa  025 144 164 137         dt_multiple_time_spec
    032110  aa  155 165 154 164
    032111  aa  151 160 154 145
    032112  aa  137 164 151 155
    032113  aa  145 137 163 160
    032114  aa  145 143 000 000
    032115  55   007303 007262
    032116  0a   000253 400000
    032117  55   007276 000003
    032120  aa  023 144 164 137         dt_multiple_meaning
    032121  aa  155 165 154 164
    032122  aa  151 160 154 145
    032123  aa  137 155 145 141
    032124  aa  156 151 156 147
    032125  55   007314 007273
    032126  0a   000252 400000
    032127  55   007306 000003
    032130  aa  024 144 164 137         dt_multiple_diw_spec
    032131  aa  155 165 154 164
    032132  aa  151 160 154 145
    032133  aa  137 144 151 167
    032134  aa  137 163 160 145
    032135  aa  143 000 000 000
    032136  55   007325 007303
    032137  0a   000251 400000
    032140  55   007317 000003
    032141  aa  025 144 164 137         dt_multiple_date_spec
    032142  aa  155 165 154 164
    032143  aa  151 160 154 145
    032144  aa  137 144 141 164
    032145  aa  145 137 163 160
    032146  aa  145 143 000 000
    032147  55   007335 007314
    032150  0a   000250 400000
    032151  55   007330 000003
    032152  aa  021 144 164 137         dt_hour_gt_twelve
    032153  aa  150 157 165 162
    032154  aa  137 147 164 137
    032155  aa  164 167 145 154
    032156  aa  166 145 000 000
    032157  55   007345 007325
    032160  0a   000247 400000
    032161  55   007340 000003
    032162  aa  021 144 164 137         dt_date_too_small
    032163  aa  144 141 164 145
    032164  aa  137 164 157 157
    032165  aa  137 163 155 141
    032166  aa  154 154 000 000
    032167  55   007354 007335
    032170  0a   000246 400000
    032171  55   007350 000003
    032172  aa  017 144 164 137         dt_date_too_big
    032173  aa  144 141 164 145
    032174  aa  137 164 157 157
    032175  aa  137 142 151 147
    032176  55   007364 007345
    032177  0a   000245 400000
    032200  55   007357 000003
    032201  aa  021 144 164 137         dt_date_not_exist
    032202  aa  144 141 164 145
    032203  aa  137 156 157 164
    032204  aa  137 145 170 151
    032205  aa  163 164 000 000
    032206  55   007372 007354
    032207  0a   000244 400000
    032210  55   007367 000003
    032211  aa  013 144 164 137         dt_conflict
    032212  aa  143 157 156 146
    032213  aa  154 151 143 164
    032214  55   007400 007364
    032215  0a   000243 400000
    032216  55   007375 000003
    032217  aa  011 144 164 137         dt_bad_my
    032220  aa  142 141 144 137
    032221  aa  155 171 000 000
    032222  55   007406 007372
    032223  0a   000242 400000
    032224  55   007403 000003
    032225  aa  011 144 164 137         dt_bad_fw
    032226  aa  142 141 144 137
    032227  aa  146 167 000 000
    032230  55   007417 007400
    032231  0a   000241 400000
    032232  55   007411 000003
    032233  aa  026 144 164 137         dt_bad_format_selector
    032234  aa  142 141 144 137
    032235  aa  146 157 162 155
    032236  aa  141 164 137 163
    032237  aa  145 154 145 143
    032240  aa  164 157 162 000
    032241  55   007425 007406
    032242  0a   000240 400000
    032243  55   007422 000003
    032244  aa  011 144 164 137         dt_bad_dy
    032245  aa  142 141 144 137
    032246  aa  144 171 000 000
    032247  55   007433 007417
    032250  0a   000237 400000
    032251  55   007430 000003
    032252  aa  011 144 164 137         dt_bad_dm
    032253  aa  142 141 144 137
    032254  aa  144 155 000 000
    032255  55   007443 007425
    032256  0a   000236 400000
    032257  55   007436 000003
    032260  aa  022 144 164 137         dt_bad_day_of_week
    032261  aa  142 141 144 137
    032262  aa  144 141 171 137
    032263  aa  157 146 137 167
    032264  aa  145 145 153 000
    032265  55   007453 007433
    032266  0a   000235 400000
    032267  55   007446 000003
    032270  aa  021 144 164 137         dt_ambiguous_time
    032271  aa  141 155 142 151
    032272  aa  147 165 157 165
    032273  aa  163 137 164 151
    032274  aa  155 145 000 000
    032275  55   007461 007443
    032276  0a   000234 400000
    032277  55   007456 000003
    032300  aa  010 144 155 160         dmpvalid
    032301  aa  166 141 154 151
    032302  aa  144 000 000 000
    032303  55   007467 007453
    032304  0a   000233 400000
    032305  55   007464 000003
    032306  aa  013 144 155 160         dmpr_in_use
    032307  aa  162 137 151 156
    032310  aa  137 165 163 145
    032311  55   007475 007461
    032312  0a   000232 400000
    032313  55   007472 000003
    032314  aa  010 144 155 160         dmpinvld
    032315  aa  151 156 166 154
    032316  aa  144 000 000 000
    032317  55   007504 007467
    032320  0a   000231 400000
    032321  55   007500 000003
    032322  aa  016 144 155 137         dm_not_enabled
    032323  aa  156 157 164 137
    032324  aa  145 156 141 142
    032325  aa  154 145 144 000
    032326  55   007515 007475
    032327  0a   000230 400000
    032330  55   007507 000003
    032331  aa  025 144 155 137         dm_journal_pages_held
    032332  aa  152 157 165 162
    032333  aa  156 141 154 137
    032334  aa  160 141 147 145
    032335  aa  163 137 150 145
    032336  aa  154 144 000 000
    032337  55   007526 007504
    032340  0a   000227 400000
    032341  55   007520 000003
    032342  aa  026 144 151 163         discrepant_block_count
    032343  aa  143 162 145 160
    032344  aa  141 156 164 137
    032345  aa  142 154 157 143
    032346  aa  153 137 143 157
    032347  aa  165 156 164 000
    032350  55   007533 007515
    032351  0a   000226 400000
    032352  55   007531 000003
    032353  aa  006 144 151 162         dirseg
    032354  aa  163 145 147 000
    032355  55   007540 007526
    032356  0a   000225 400000
    032357  55   007536 000003
    032360  aa  007 144 151 162         dirlong
    032361  aa  154 157 156 147
    032362  55   007546 007533
    032363  0a   000224 400000
    032364  55   007543 000003
    032365  aa  012 144 151 162         dir_damage
    032366  aa  137 144 141 155
    032367  aa  141 147 145 000
    032370  55   007555 007540
    032371  0a   000223 400000
    032372  55   007551 000003
    032373  aa  014 144 151 141         dial_id_busy
    032374  aa  154 137 151 144
    032375  aa  137 142 165 163
    032376  aa  171 000 000 000
    032377  55   007563 007546
    032400  0a   000222 400000
    032401  55   007560 000003
    032402  aa  013 144 151 141         dial_active
    032403  aa  154 137 141 143
    032404  aa  164 151 166 145
    032405  55   007573 007555
    032406  0a   000221 400000
    032407  55   007566 000003
    032410  aa  023 144 145 166         device_type_unknown
    032411  aa  151 143 145 137
    032412  aa  164 171 160 145
    032413  aa  137 165 156 153
    032414  aa  156 157 167 156
    032415  55   007602 007563
    032416  0a   000220 400000
    032417  55   007576 000003
    032420  aa  015 144 145 166         device_parity
    032421  aa  151 143 145 137
    032422  aa  160 141 162 151
    032423  aa  164 171 000 000
    032424  55   007612 007573
    032425  0a   000217 400000
    032426  55   007605 000003
    032427  aa  021 144 145 166         device_not_usable
    032430  aa  151 143 145 137
    032431  aa  156 157 164 137
    032432  aa  165 163 141 142
    032433  aa  154 145 000 000
    032434  55   007622 007602
    032435  0a   000216 400000
    032436  55   007615 000003
    032437  aa  021 144 145 166         device_not_active
    032440  aa  151 143 145 137
    032441  aa  156 157 164 137
    032442  aa  141 143 164 151
    032443  aa  166 145 000 000
    032444  55   007633 007612
    032445  0a   000215 400000
    032446  55   007625 000003
    032447  aa  025 144 145 166         device_limit_exceeded
    032450  aa  151 143 145 137
    032451  aa  154 151 155 151
    032452  aa  164 137 145 170
    032453  aa  143 145 145 144
    032454  aa  145 144 000 000
    032455  55   007641 007622
    032456  0a   000214 400000
    032457  55   007636 000003
    032460  aa  012 144 145 166         device_end
    032461  aa  151 143 145 137
    032462  aa  145 156 144 000
    032463  55   007653 007633
    032464  0a   000213 400000
    032465  55   007644 000003
    032466  aa  030 144 145 166         device_deletion_deferred
    032467  aa  151 143 145 137
    032470  aa  144 145 154 145
    032471  aa  164 151 157 156
    032472  aa  137 144 145 146
    032473  aa  145 162 162 145
    032474  aa  144 000 000 000
    032475  55   007663 007641
    032476  0a   000212 400000
    032477  55   007656 000003
    032500  aa  021 144 145 166         device_code_alert
    032501  aa  151 143 145 137
    032502  aa  143 157 144 145
    032503  aa  137 141 154 145
    032504  aa  162 164 000 000
    032505  55   007671 007653
    032506  0a   000211 400000
    032507  55   007666 000003
    032510  aa  013 144 145 166         device_busy
    032511  aa  151 143 145 137
    032512  aa  142 165 163 171
    032513  55   007703 007663
    032514  0a   000210 400000
    032515  55   007674 000003
    032516  aa  032 144 145 166         device_attention_during_tm
    032517  aa  151 143 145 137
    032520  aa  141 164 164 145
    032521  aa  156 164 151 157
    032522  aa  156 137 144 165
    032523  aa  162 151 156 147
    032524  aa  137 164 155 000
    032525  55   007713 007671
    032526  0a   000207 400000
    032527  55   007706 000003
    032530  aa  020 144 145 166         device_attention
    032531  aa  151 143 145 137
    032532  aa  141 164 164 145
    032533  aa  156 164 151 157
    032534  aa  156 000 000 000
    032535  55   007722 007703
    032536  0a   000206 400000
    032537  55   007716 000003
    032540  aa  015 144 145 166         device_active
    032541  aa  151 143 145 137
    032542  aa  141 143 164 151
    032543  aa  166 145 000 000
    032544  55   007734 007713
    032545  0a   000205 400000
    032546  55   007725 000003
    032547  aa  030 144 145 166         dev_offset_out_of_bounds
    032550  aa  137 157 146 146
    032551  aa  163 145 164 137
    032552  aa  157 165 164 137
    032553  aa  157 146 137 142
    032554  aa  157 165 156 144
    032555  aa  163 000 000 000
    032556  55   007743 007722
    032557  0a   000204 400000
    032560  55   007737 000003
    032561  aa  014 144 145 166         dev_nt_assnd
    032562  aa  137 156 164 137
    032563  aa  141 163 163 156
    032564  aa  144 000 000 000
    032565  55   007751 007734
    032566  0a   000203 400000
    032567  55   007746 000003
    032570  aa  011 144 145 146         defs_loop
    032571  aa  163 137 154 157
    032572  aa  157 160 000 000
    032573  55   007760 007743
    032574  0a   000202 400000
    032575  55   007754 000003
    032576  aa  014 144 145 141         deact_in_mem
    032577  aa  143 164 137 151
    032600  aa  156 137 155 145
    032601  aa  155 000 000 000
    032602  55   007771 007751
    032603  0a   000201 400000
    032604  55   007763 000003
    032605  aa  025 144 141 164         date_conversion_error
    032606  aa  145 137 143 157
    032607  aa  156 166 145 162
    032610  aa  163 151 157 156
    032611  aa  137 145 162 162
    032612  aa  157 162 000 000
    032613  55   010000 007760
    032614  0a   000200 400000
    032615  55   007774 000003
    032616  aa  016 144 141 164         data_seq_error
    032617  aa  141 137 163 145
    032620  aa  161 137 145 162
    032621  aa  162 157 162 000
    032622  55   010006 007771
    032623  0a   000177 400000
    032624  55   010003 000003
    032625  aa  011 144 141 164         data_loss
    032626  aa  141 137 154 157
    032627  aa  163 163 000 000
    032630  55   010020 010000
    032631  0a   000176 400000
    032632  55   010011 000003
    032633  aa  032 144 141 164         data_improperly_terminated
    032634  aa  141 137 151 155
    032635  aa  160 162 157 160
    032636  aa  145 162 154 171
    032637  aa  137 164 145 162
    032640  aa  155 151 156 141
    032641  aa  164 145 144 000
    032642  55   010026 010006
    032643  0a   000175 400000
    032644  55   010023 000003
    032645  aa  011 144 141 164         data_gain
    032646  aa  141 137 147 141
    032647  aa  151 156 000 000
    032650  55   010034 010020
    032651  0a   000174 400000
    032652  55   010031 000003
    032653  aa  012 143 171 143         cyclic_syn
    032654  aa  154 151 143 137
    032655  aa  163 171 156 000
    032656  55   010044 010026
    032657  0a   000173 400000
    032660  55   010037 000003
    032661  aa  022 143 160 137         cp_reserved_syntax
    032662  aa  162 145 163 145
    032663  aa  162 166 145 144
    032664  aa  137 163 171 156
    032665  aa  164 141 170 000
    032666  55   010052 010034
    032667  0a   000172 400000
    032670  55   010047 000003
    032671  aa  012 143 157 160         copy_sw_on
    032672  aa  171 137 163 167
    032673  aa  137 157 156 000
    032674  55   010064 010044
    032675  0a   000171 400000
    032676  55   010055 000003
    032677  aa  032 143 157 155         command_name_not_available
    032700  aa  155 141 156 144
    032701  aa  137 156 141 155
    032702  aa  145 137 156 157
    032703  aa  164 137 141 166
    032704  aa  141 151 154 141
    032705  aa  142 154 145 000
    032706  55   010075 010052
    032707  0a   000170 400000
    032710  55   010067 000003
    032711  aa  025 143 157 155         command_line_overflow
    032712  aa  155 141 156 144
    032713  aa  137 154 151 156
    032714  aa  145 137 157 166
    032715  aa  145 162 146 154
    032716  aa  157 167 000 000
    032717  55   010102 010064
    032720  0a   000167 400000
    032721  55   010100 000003
    032722  aa  007 143 154 156         clnzero
    032723  aa  172 145 162 157
    032724  55   010112 010075
    032725  0a   000166 400000
    032726  55   010105 000003
    032727  aa  021 143 150 156         chnl_iom_inactive
    032730  aa  154 137 151 157
    032731  aa  155 137 151 156
    032732  aa  141 143 164 151
    032733  aa  166 145 000 000
    032734  55   010121 010102
    032735  0a   000165 400000
    032736  55   010115 000003
    032737  aa  017 143 150 156         chnl_iom_active
    032740  aa  154 137 151 157
    032741  aa  155 137 141 143
    032742  aa  164 151 166 145
    032743  55   010131 010112
    032744  0a   000164 400000
    032745  55   010124 000003
    032746  aa  022 143 150 156         chnl_being_deleted
    032747  aa  154 137 142 145
    032750  aa  151 156 147 137
    032751  aa  144 145 154 145
    032752  aa  164 145 144 000
    032753  55   010142 010121
    032754  0a   000163 400000
    032755  55   010134 000003
    032756  aa  024 143 150 156         chnl_already_deleted
    032757  aa  154 137 141 154
    032760  aa  162 145 141 144
    032761  aa  171 137 144 145
    032762  aa  154 145 164 145
    032763  aa  144 000 000 000
    032764  55   010152 010131
    032765  0a   000162 400000
    032766  55   010145 000003
    032767  aa  022 143 150 156         chnl_already_added
    032770  aa  154 137 141 154
    032771  aa  162 145 141 144
    032772  aa  171 137 141 144
    032773  aa  144 145 144 000
    032774  55   010162 010142
    032775  0a   000161 400000
    032776  55   010155 000003
    032777  aa  020 143 150 145         checksum_failure
    033000  aa  143 153 163 165
    033001  aa  155 137 146 141
    033002  aa  151 154 165 162
    033003  aa  145 000 000 000
    033004  55   010172 010152
    033005  0a   000160 400000
    033006  55   010165 000003
    033007  aa  021 143 150 141         chars_after_delim
    033010  aa  162 163 137 141
    033011  aa  146 164 145 162
    033012  aa  137 144 145 154
    033013  aa  151 155 000 000
    033014  55   010201 010162
    033015  0a   000157 400000
    033016  55   010175 000003
    033017  aa  014 143 150 141         change_first
    033020  aa  156 147 145 137
    033021  aa  146 151 162 163
    033022  aa  164 000 000 000
    033023  55   010210 010172
    033024  0a   000156 400000
    033025  55   010204 000003
    033026  aa  014 143 141 156         cannot_trace
    033027  aa  156 157 164 137
    033030  aa  164 162 141 143
    033031  aa  145 000 000 000
    033032  55   010221 010201
    033033  0a   000155 400000
    033034  55   010213 000003
    033035  aa  024 142 165 146         buffer_invalid_state
    033036  aa  146 145 162 137
    033037  aa  151 156 166 141
    033040  aa  154 151 144 137
    033041  aa  163 164 141 164
    033042  aa  145 000 000 000
    033043  55   010227 010210
    033044  0a   000154 400000
    033045  55   010224 000003
    033046  aa  012 142 165 146         buffer_big
    033047  aa  146 145 162 137
    033050  aa  142 151 147 000
    033051  55   010235 010221
    033052  0a   000153 400000
    033053  55   010232 000003
    033054  aa  011 142 157 165         boundviol
    033055  aa  156 144 166 151
    033056  aa  157 154 000 000
    033057  55   010243 010227
    033060  0a   000152 400000
    033061  55   010240 000003
    033062  aa  012 142 154 141         blank_tape
    033063  aa  156 153 137 164
    033064  aa  141 160 145 000
    033065  55   010255 010235
    033066  0a   000151 400000
    033067  55   010246 000003
    033070  aa  030 142 151 163         bisync_reverse_interrupt
    033071  aa  171 156 143 137
    033072  aa  162 145 166 145
    033073  aa  162 163 145 137
    033074  aa  151 156 164 145
    033075  aa  162 162 165 160
    033076  aa  164 000 000 000
    033077  55   010265 010243
    033100  0a   000150 400000
    033101  55   010260 000003
    033102  aa  020 142 151 163         bisync_block_bad
    033103  aa  171 156 143 137
    033104  aa  142 154 157 143
    033105  aa  153 137 142 141
    033106  aa  144 000 000 000
    033107  55   010274 010255
    033110  0a   000147 400000
    033111  55   010270 000003
    033112  aa  017 142 151 163         bisync_bid_fail
    033113  aa  171 156 143 137
    033114  aa  142 151 144 137
    033115  aa  146 141 151 154
    033116  55   010304 010265
    033117  0a   000146 400000
    033120  55   010277 000003
    033121  aa  023 142 151 147         bigger_ext_variable
    033122  aa  147 145 162 137
    033123  aa  145 170 164 137
    033124  aa  166 141 162 151
    033125  aa  141 142 154 145
    033126  55   010311 010274
    033127  0a   000145 400000
    033130  55   010307 000003
    033131  aa  006 142 151 147         bigarg
    033132  aa  141 162 147 000
    033133  55   010317 010304
    033134  0a   000144 400000
    033135  55   010314 000003
    033136  aa  012 142 151 147         big_ws_req
    033137  aa  137 167 163 137
    033140  aa  162 145 161 000
    033141  55   010324 010311
    033142  0a   000143 400000
    033143  55   010322 000003
    033144  aa  007 142 151 147         big_seg
    033145  aa  137 163 145 147
    033146  55   010332 010317
    033147  0a   000142 400000
    033150  55   010327 000003
    033151  aa  013 142 145 147         begin_block
    033152  aa  151 156 137 142
    033153  aa  154 157 143 153
    033154  55   010340 010324
    033155  0a   000141 400000
    033156  55   010335 000003
    033157  aa  010 142 144 160         bdprtdmp
    033160  aa  162 164 144 155
    033161  aa  160 000 000 000
    033162  55   010346 010332
    033163  0a   000140 400000
    033164  55   010343 000003
    033165  aa  011 142 141 144         badsyntax
    033166  aa  163 171 156 164
    033167  aa  141 170 000 000
    033170  55   010353 010340
    033171  0a   000137 400000
    033172  55   010351 000003
    033173  aa  007 142 141 144         badstar
    033174  aa  163 164 141 162
    033175  55   010361 010346
    033176  0a   000136 400000
    033177  55   010356 000003
    033200  aa  011 142 141 144         badringno
    033201  aa  162 151 156 147
    033202  aa  156 157 000 000
    033203  55   010366 010353
    033204  0a   000135 400000
    033205  55   010364 000003
    033206  aa  007 142 141 144         badpath
    033207  aa  160 141 164 150
    033210  55   010373 010361
    033211  0a   000134 400000
    033212  55   010371 000003
    033213  aa  007 142 141 144         bad_opt
    033214  aa  137 157 160 164
    033215  55   010400 010366
    033216  0a   000134 400000
    033217  55   010376 000003
    033220  aa  006 142 141 144         badopt
    033221  aa  157 160 164 000
    033222  55   010406 010373
    033223  0a   000133 400000
    033224  55   010403 000003
    033225  aa  010 142 141 144         badequal
    033226  aa  145 161 165 141
    033227  aa  154 000 000 000
    033230  55   010413 010400
    033231  0a   000132 400000
    033232  55   010411 000003
    033233  aa  007 142 141 144         badcall
    033234  aa  143 141 154 154
    033235  55   010421 010406
    033236  0a   000131 400000
    033237  55   010416 000003
    033240  aa  010 142 141 144         bad_year
    033241  aa  137 171 145 141
    033242  aa  162 000 000 000
    033243  55   010430 010413
    033244  0a   000130 400000
    033245  55   010424 000003
    033246  aa  016 142 141 144         bad_work_class
    033247  aa  137 167 157 162
    033250  aa  153 137 143 154
    033251  aa  141 163 163 000
    033252  55   010436 010421
    033253  0a   000127 400000
    033254  55   010433 000003
    033255  aa  011 142 141 144         bad_volid
    033256  aa  137 166 157 154
    033257  aa  151 144 000 000
    033260  55   010445 010430
    033261  0a   000126 400000
    033262  55   010441 000003
    033263  aa  014 142 141 144         bad_vchannel
    033264  aa  137 166 143 150
    033265  aa  141 156 156 145
    033266  aa  154 000 000 000
    033267  55   010453 010436
    033270  0a   000125 400000
    033271  55   010450 000003
    033272  aa  013 142 141 144         bad_uidpath
    033273  aa  137 165 151 144
    033274  aa  160 141 164 150
    033275  55   010464 010445
    033276  0a   000124 400000
    033277  55   010456 000003
    033300  aa  024 142 141 144         bad_trap_before_link
    033301  aa  137 164 162 141
    033302  aa  160 137 142 145
    033303  aa  146 157 162 145
    033304  aa  137 154 151 156
    033305  aa  153 000 000 000
    033306  55   010472 010453
    033307  0a   000123 400000
    033310  55   010467 000003
    033311  aa  010 142 141 144         bad_time
    033312  aa  137 164 151 155
    033313  aa  145 000 000 000
    033314  55   010500 010464
    033315  0a   000122 400000
    033316  55   010475 000003
    033317  aa  012 142 141 144         bad_tapeid
    033320  aa  137 164 141 160
    033321  aa  145 151 144 000
    033322  55   010507 010472
    033323  0a   000121 400000
    033324  55   010503 000003
    033325  aa  014 142 141 144         bad_subr_arg
    033326  aa  137 163 165 142
    033327  aa  162 137 141 162
    033330  aa  147 000 000 000
    033331  55   010515 010500
    033332  0a   000120 400000
    033333  55   010512 000003
    033334  aa  012 142 141 144         bad_string
    033335  aa  137 163 164 162
    033336  aa  151 156 147 000
    033337  55   010525 010507
    033340  0a   000117 400000
    033341  55   010520 000003
    033342  aa  020 142 141 144         bad_stack_access
    033343  aa  137 163 164 141
    033344  aa  143 153 137 141
    033345  aa  143 143 145 163
    033346  aa  163 000 000 000
    033347  55   010534 010515
    033350  0a   000116 400000
    033351  55   010530 000003
    033352  aa  014 142 141 144         bad_self_ref
    033353  aa  137 163 145 154
    033354  aa  146 137 162 145
    033355  aa  146 000 000 000
    033356  55   010542 010525
    033357  0a   000115 400000
    033360  55   010537 000003
    033361  aa  013 142 141 144         bad_segment
    033362  aa  137 163 145 147
    033363  aa  155 145 156 164
    033364  55   010552 010534
    033365  0a   000114 400000
    033366  55   010545 000003
    033367  aa  021 142 141 144         bad_resource_spec
    033370  aa  137 162 145 163
    033371  aa  157 165 162 143
    033372  aa  145 137 163 160
    033373  aa  145 143 000 000
    033374  55   010557 010542
    033375  0a   000113 400000
    033376  55   010555 000003
    033377  aa  007 142 141 144         bad_ptr
    033400  aa  137 160 164 162
    033401  55   010566 010552
    033402  0a   000112 400000
    033403  55   010562 000003
    033404  aa  015 142 141 144         bad_processid
    033405  aa  137 160 162 157
    033406  aa  143 145 163 163
    033407  aa  151 144 000 000
    033410  55   010576 010557
    033411  0a   000111 400000
    033412  55   010571 000003
    033413  aa  020 142 141 144         bad_process_type
    033414  aa  137 160 162 157
    033415  aa  143 145 163 163
    033416  aa  137 164 171 160
    033417  aa  145 000 000 000
    033420  55   010605 010566
    033421  0a   000110 400000
    033422  55   010601 000003
    033423  aa  017 142 141 144         bad_pipe_syntax
    033424  aa  137 160 151 160
    033425  aa  145 137 163 171
    033426  aa  156 164 141 170
    033427  55   010614 010576
    033430  0a   000107 400000
    033431  55   010610 000003
    033432  aa  014 142 141 144         bad_password
    033433  aa  137 160 141 163
    033434  aa  163 167 157 162
    033435  aa  144 000 000 000
    033436  55   010622 010605
    033437  0a   000106 400000
    033440  55   010617 000003
    033441  aa  013 142 141 144         bad_new_key
    033442  aa  137 156 145 167
    033443  aa  137 153 145 171
    033444  55   010630 010614
    033445  0a   000105 400000
    033446  55   010625 000003
    033447  aa  010 142 141 144         bad_name
    033450  aa  137 156 141 155
    033451  aa  145 000 000 000
    033452  55   010636 010622
    033453  0a   000104 400000
    033454  55   010633 000003
    033455  aa  013 142 141 144         bad_ms_file
    033456  aa  137 155 163 137
    033457  aa  146 151 154 145
    033460  55   010646 010630
    033461  0a   000103 400000
    033462  55   010641 000003
    033463  aa  021 142 141 144         bad_mpx_load_data
    033464  aa  137 155 160 170
    033465  aa  137 154 157 141
    033466  aa  144 137 144 141
    033467  aa  164 141 000 000
    033470  55   010656 010636
    033471  0a   000102 400000
    033472  55   010651 000003
    033473  aa  021 142 141 144         bad_mount_request
    033474  aa  137 155 157 165
    033475  aa  156 164 137 162
    033476  aa  145 161 165 145
    033477  aa  163 164 000 000
    033500  55   010665 010646
    033501  0a   000101 400000
    033502  55   010661 000003
    033503  aa  016 142 141 144         bad_mode_value
    033504  aa  137 155 157 144
    033505  aa  145 137 166 141
    033506  aa  154 165 145 000
    033507  55   010674 010656
    033510  0a   000100 400000
    033511  55   010670 000003
    033512  aa  017 142 141 144         bad_mode_syntax
    033513  aa  137 155 157 144
    033514  aa  145 137 163 171
    033515  aa  156 164 141 170
    033516  55   010702 010665
    033517  0a   000077 400000
    033520  55   010677 000003
    033521  aa  010 142 141 144         bad_mode
    033522  aa  137 155 157 144
    033523  aa  145 000 000 000
    033524  55   010711 010674
    033525  0a   000076 400000
    033526  55   010705 000003
    033527  aa  016 142 141 144         bad_mbx_acl_rs
    033530  aa  137 155 142 170
    033531  aa  137 141 143 154
    033532  aa  137 162 163 000
    033533  55   010720 010702
    033534  0a   000075 400000
    033535  55   010714 000003
    033536  aa  017 142 141 144         bad_mbx_acl_awu
    033537  aa  137 155 142 170
    033540  aa  137 141 143 154
    033541  aa  137 141 167 165
    033542  55   010730 010711
    033543  0a   000074 400000
    033544  55   010723 000003
    033545  aa  022 142 141 144         bad_linkage_access
    033546  aa  137 154 151 156
    033547  aa  153 141 147 145
    033550  aa  137 141 143 143
    033551  aa  145 163 163 000
    033552  55   010737 010720
    033553  0a   000073 400000
    033554  55   010733 000003
    033555  aa  015 142 141 144         bad_link_type
    033556  aa  137 154 151 156
    033557  aa  153 137 164 171
    033560  aa  160 145 000 000
    033561  55   010751 010730
    033562  0a   000072 400000
    033563  55   010742 000003
    033564  aa  031 142 141 144         bad_link_target_init_info
    033565  aa  137 154 151 156
    033566  aa  153 137 164 141
    033567  aa  162 147 145 164
    033570  aa  137 151 156 151
    033571  aa  164 137 151 156
    033572  aa  146 157 000 000
    033573  55   010757 010737
    033574  0a   000071 400000
    033575  55   010754 000003
    033576  aa  011 142 141 144         bad_label
    033577  aa  137 154 141 142
    033600  aa  145 154 000 000
    033601  55   010767 010751
    033602  0a   000070 400000
    033603  55   010762 000003
    033604  aa  020 142 141 144         bad_indirect_def
    033605  aa  137 151 156 144
    033606  aa  151 162 145 143
    033607  aa  164 137 144 145
    033610  aa  146 000 000 000
    033611  55   010775 010757
    033612  0a   000067 400000
    033613  55   010772 000003
    033614  aa  011 142 141 144         bad_index
    033615  aa  137 151 156 144
    033616  aa  145 170 000 000
    033617  55   011005 010767
    033620  0a   000066 400000
    033621  55   011000 000003
    033622  aa  022 142 141 144         bad_handler_access
    033623  aa  137 150 141 156
    033624  aa  144 154 145 162
    033625  aa  137 141 143 143
    033626  aa  145 163 163 000
    033627  55   011015 010775
    033630  0a   000065 400000
    033631  55   011010 000003
    033632  aa  022 142 141 144         bad_first_ref_trap
    033633  aa  137 146 151 162
    033634  aa  163 164 137 162
    033635  aa  145 146 137 164
    033636  aa  162 141 160 000
    033637  55   011024 011005
    033640  0a   000064 400000
    033641  55   011020 000003
    033642  aa  015 142 141 144         bad_file_name
    033643  aa  137 146 151 154
    033644  aa  145 137 156 141
    033645  aa  155 145 000 000
    033646  55   011032 011015
    033647  0a   000063 400000
    033650  55   011027 000003
    033651  aa  010 142 141 144         bad_file
    033652  aa  137 146 151 154
    033653  aa  145 000 000 000
    033654  55   011041 011024
    033655  0a   000062 400000
    033656  55   011035 000003
    033657  aa  016 142 141 144         bad_equal_name
    033660  aa  137 145 161 165
    033661  aa  141 154 137 156
    033662  aa  141 155 145 000
    033663  55   011052 011032
    033664  0a   000061 400000
    033665  55   011044 000003
    033666  aa  024 142 141 144         bad_entry_point_name
    033667  aa  137 145 156 164
    033670  aa  162 171 137 160
    033671  aa  157 151 156 164
    033672  aa  137 156 141 155
    033673  aa  145 000 000 000
    033674  55   011057 011041
    033675  0a   000060 400000
    033676  55   011055 000003
    033677  aa  007 142 141 144         bad_dir
    033700  aa  137 144 151 162
    033701  55   011065 011052
    033702  0a   000057 400000
    033703  55   011062 000003
    033704  aa  013 142 141 144         bad_density
    033705  aa  137 144 145 156
    033706  aa  163 151 164 171
    033707  55   011075 011057
    033710  0a   000056 400000
    033711  55   011070 000003
    033712  aa  021 142 141 144         bad_deferred_init
    033713  aa  137 144 145 146
    033714  aa  145 162 162 145
    033715  aa  144 137 151 156
    033716  aa  151 164 000 000
    033717  55   011104 011065
    033720  0a   000055 400000
    033721  55   011100 000003
    033722  aa  017 142 141 144         bad_day_of_week
    033723  aa  137 144 141 171
    033724  aa  137 157 146 137
    033725  aa  167 145 145 153
    033726  55   011112 011075
    033727  0a   000054 400000
    033730  55   011107 000003
    033731  aa  010 142 141 144         bad_date
    033732  aa  137 144 141 164
    033733  aa  145 000 000 000
    033734  55   011121 011104
    033735  0a   000053 400000
    033736  55   011115 000003
    033737  aa  016 142 141 144         bad_conversion
    033740  aa  137 143 157 156
    033741  aa  166 145 162 163
    033742  aa  151 157 156 000
    033743  55   011131 011112
    033744  0a   000052 400000
    033745  55   011124 000003
    033746  aa  020 142 141 144         bad_command_name
    033747  aa  137 143 157 155
    033750  aa  155 141 156 144
    033751  aa  137 156 141 155
    033752  aa  145 000 000 000
    033753  55   011140 011121
    033754  0a   000051 400000
    033755  55   011134 000003
    033756  aa  015 142 141 144         bad_class_def
    033757  aa  137 143 154 141
    033760  aa  163 163 137 144
    033761  aa  145 146 000 000
    033762  55   011146 011131
    033763  0a   000050 400000
    033764  55   011143 000003
    033765  aa  013 142 141 144         bad_channel
    033766  aa  137 143 150 141
    033767  aa  156 156 145 154
    033770  55   011154 011140
    033771  0a   000047 400000
    033772  55   011151 000003
    033773  aa  012 142 141 144         bad_bar_sp
    033774  aa  137 142 141 162
    033775  aa  137 163 160 000
    033776  55   011162 011146
    033777  0a   000046 400000
    034000  55   011157 000003
    034001  aa  013 142 141 144         bad_arg_acc
    034002  aa  137 141 162 147
    034003  aa  137 141 143 143
    034004  55   011167 011154
    034005  0a   000045 400000
    034006  55   011165 000003
    034007  aa  006 142 141 144         badarg
    034010  aa  141 162 147 000
    034011  55   011174 011162
    034012  0a   000045 400000
    034013  55   011172 000003
    034014  aa  007 142 141 144         bad_arg
    034015  aa  137 141 162 147
    034016  55   011203 011167
    034017  0a   000044 400000
    034020  55   011177 000003
    034021  aa  014 142 141 144         bad_acl_mode
    034022  aa  137 141 143 154
    034023  aa  137 155 157 144
    034024  aa  145 000 000 000
    034025  55   011212 011174
    034026  0a   000043 400000
    034027  55   011206 000003
    034030  aa  014 141 165 164         auth_unknown
    034031  aa  150 137 165 156
    034032  aa  153 156 157 167
    034033  aa  156 000 000 000
    034034  55   011221 011203
    034035  0a   000042 400000
    034036  55   011215 000003
    034037  aa  016 141 165 164         auth_incorrect
    034040  aa  150 137 151 156
    034041  aa  143 157 162 162
    034042  aa  145 143 164 000
    034043  55   011227 011212
    034044  0a   000041 400000
    034045  55   011224 000003
    034046  aa  010 141 164 164         att_loop
    034047  aa  137 154 157 157
    034050  aa  160 000 000 000
    034051  55   011237 011221
    034052  0a   000040 400000
    034053  55   011232 000003
    034054  aa  020 141 163 171         asynch_insertion
    034055  aa  156 143 150 137
    034056  aa  151 156 163 145
    034057  aa  162 164 151 157
    034060  aa  156 000 000 000
    034061  55   011246 011227
    034062  0a   000037 400000
    034063  55   011242 000003
    034064  aa  017 141 163 171         asynch_deletion
    034065  aa  156 143 150 137
    034066  aa  144 145 154 145
    034067  aa  164 151 157 156
    034070  55   011255 011237
    034071  0a   000036 400000
    034072  55   011251 000003
    034073  aa  015 141 163 171         asynch_change
    034074  aa  156 143 150 137
    034075  aa  143 150 141 156
    034076  aa  147 145 000 000
    034077  55   011265 011246
    034100  0a   000035 400000
    034101  55   011260 000003
    034102  aa  023 141 163 137         as_sac_command_read
    034103  aa  163 141 143 137
    034104  aa  143 157 155 155
    034105  aa  141 156 144 137
    034106  aa  162 145 141 144
    034107  55   011277 011255
    034110  0a   000034 400000
    034111  55   011270 000003
    034112  aa  032 141 163 137         as_request_invalid_request
    034113  aa  162 145 161 165
    034114  aa  145 163 164 137
    034115  aa  151 156 166 141
    034116  aa  154 151 144 137
    034117  aa  162 145 161 165
    034120  aa  145 163 164 000
    034121  55   011311 011265
    034122  0a   000033 400000
    034123  55   011302 000003
    034124  aa  031 141 163 137         as_request_sender_missing
    034125  aa  162 145 161 165
    034126  aa  145 163 164 137
    034127  aa  163 145 156 144
    034130  aa  145 162 137 155
    034131  aa  151 163 163 151
    034132  aa  156 147 000 000
    034133  55   011322 011277
    034134  0a   000032 400000
    034135  55   011314 000003
    034136  aa  026 141 163 137         as_bump_user_not_found
    034137  aa  142 165 155 160
    034140  aa  137 165 163 145
    034141  aa  162 137 156 157
    034142  aa  164 137 146 157
    034143  aa  165 156 144 000
    034144  55   011327 011311
    034145  0a   000031 400000
    034146  55   011325 000003
    034147  aa  006 141 162 147         argerr
    034150  aa  145 162 162 000
    034151  55   011335 011322
    034152  0a   000030 400000
    034153  55   011332 000003
    034154  aa  013 141 162 147         arg_ignored
    034155  aa  137 151 147 156
    034156  aa  157 162 145 144
    034157  55   011344 011327
    034160  0a   000027 400000
    034161  55   011340 000003
    034162  aa  016 141 162 145         area_too_small
    034163  aa  141 137 164 157
    034164  aa  157 137 163 155
    034165  aa  141 154 154 000
    034166  55   011354 011335
    034167  0a   000026 400000
    034170  55   011347 000003
    034171  aa  020 141 162 143         archive_pathname
    034172  aa  150 151 166 145
    034173  aa  137 160 141 164
    034174  aa  150 156 141 155
    034175  aa  145 000 000 000
    034176  55   011363 011344
    034177  0a   000025 400000
    034200  55   011357 000003
    034201  aa  017 141 162 143         archive_fmt_err
    034202  aa  150 151 166 145
    034203  aa  137 146 155 164
    034204  aa  137 145 162 162
    034205  55   011376 011354
    034206  0a   000024 400000
    034207  55   011366 000003
    034210  aa  036 141 162 143         archive_component_modification
    034211  aa  150 151 166 145
    034212  aa  137 143 157 155
    034213  aa  160 157 156 145
    034214  aa  156 164 137 155
    034215  aa  157 144 151 146
    034216  aa  151 143 141 164
    034217  aa  151 157 156 000
    034220  55   011404 011363
    034221  0a   000023 400000
    034222  55   011401 000003
    034223  aa  010 141 160 164         apt_full
    034224  aa  137 146 165 154
    034225  aa  154 000 000 000
    034226  55   011414 011376
    034227  0a   000022 400000
    034230  55   011407 000003
    034231  aa  023 141 154 162         already_initialized
    034232  aa  145 141 144 171
    034233  aa  137 151 156 151
    034234  aa  164 151 141 154
    034235  aa  151 172 145 144
    034236  55   011424 011404
    034237  0a   000021 400000
    034240  55   011417 000003
    034241  aa  020 141 154 162         already_assigned
    034242  aa  145 141 144 171
    034243  aa  137 141 163 163
    034244  aa  151 147 156 145
    034245  aa  144 000 000 000
    034246  55   011432 011414
    034247  0a   000020 400000
    034250  55   011427 000003
    034251  aa  013 141 151 137         ai_son_less
    034252  aa  163 157 156 137
    034253  aa  154 145 163 163
    034254  55   011441 011424
    034255  0a   000017 400000
    034256  55   011435 000003
    034257  aa  015 141 151 137         ai_restricted
    034260  aa  162 145 163 164
    034261  aa  162 151 143 164
    034262  aa  145 144 000 000
    034263  55   011451 011432
    034264  0a   000016 400000
    034265  55   011444 000003
    034266  aa  021 141 151 137         ai_parent_greater
    034267  aa  160 141 162 145
    034270  aa  156 164 137 147
    034271  aa  162 145 141 164
    034272  aa  145 162 000 000
    034273  55   011462 011441
    034274  0a   000015 400000
    034275  55   011454 000003
    034276  aa  027 141 151 137         ai_outside_common_range
    034277  aa  157 165 164 163
    034300  aa  151 144 145 137
    034301  aa  143 157 155 155
    034302  aa  157 156 137 162
    034303  aa  141 156 147 145
    034304  55   011471 011451
    034305  0a   000014 400000
    034306  55   011465 000003
    034307  aa  014 141 151 137         ai_out_range
    034310  aa  157 165 164 137
    034311  aa  162 141 156 147
    034312  aa  145 000 000 000
    034313  55   011501 011462
    034314  0a   000013 400000
    034315  55   011474 000003
    034316  aa  020 141 151 137         ai_no_common_max
    034317  aa  156 157 137 143
    034320  aa  157 155 155 157
    034321  aa  156 137 155 141
    034322  aa  170 000 000 000
    034323  55   011511 011471
    034324  0a   000012 400000
    034325  55   011504 000003
    034326  aa  021 141 151 137         ai_invalid_string
    034327  aa  151 156 166 141
    034330  aa  154 151 144 137
    034331  aa  163 164 162 151
    034332  aa  156 147 000 000
    034333  55   011521 011501
    034334  0a   000011 400000
    034335  55   011514 000003
    034336  aa  020 141 151 137         ai_invalid_range
    034337  aa  151 156 166 141
    034340  aa  154 151 144 137
    034341  aa  162 141 156 147
    034342  aa  145 000 000 000
    034343  55   011531 011511
    034344  0a   000010 400000
    034345  55   011524 000003
    034346  aa  021 141 151 137         ai_invalid_binary
    034347  aa  151 156 166 141
    034350  aa  154 151 144 137
    034351  aa  142 151 156 141
    034352  aa  162 171 000 000
    034353  55   011542 011521
    034354  0a   000007 400000
    034355  55   011534 000003
    034356  aa  027 141 151 137         ai_entry_vtoce_mismatch
    034357  aa  145 156 164 162
    034360  aa  171 137 166 164
    034361  aa  157 143 145 137
    034362  aa  155 151 163 155
    034363  aa  141 164 143 150
    034364  55   011551 011531
    034365  0a   000006 400000
    034366  55   011545 000003
    034367  aa  016 141 151 137         ai_already_set
    034370  aa  141 154 162 145
    034371  aa  141 144 171 137
    034372  aa  163 145 164 000
    034373  55   011562 011542
    034374  0a   000005 400000
    034375  55   011554 000003
    034376  aa  024 141 151 137         ai_above_allowed_max
    034377  aa  141 142 157 166
    034400  aa  145 137 141 154
    034401  aa  154 157 167 145
    034402  aa  144 137 155 141
    034403  aa  170 000 000 000
    034404  55   011571 011551
    034405  0a   000004 400000
    034406  55   011565 000003
    034407  aa  017 141 143 164         active_function
    034410  aa  151 166 145 137
    034411  aa  146 165 156 143
    034412  aa  164 151 157 156
    034413  55   011602 011562
    034414  0a   000003 400000
    034415  55   011574 000003
    034416  aa  024 141 143 164         action_not_performed
    034417  aa  151 157 156 137
    034420  aa  156 157 164 137
    034421  aa  160 145 162 146
    034422  aa  157 162 155 145
    034423  aa  144 000 000 000
    034424  55   011612 011571
    034425  0a   000002 400000
    034426  55   011605 000003
    034427  aa  020 141 142 163         abs_wired_memory
    034430  aa  137 167 151 162
    034431  aa  145 144 137 155
    034432  aa  145 155 157 162
    034433  aa  171 000 000 000
    034434  55   011622 011602
    034435  0a   000001 400000
    034436  55   011615 000003
    034437  aa  020 141 142 163         abs_timer_runout
    034440  aa  137 164 151 155
    034441  aa  145 162 137 162
    034442  aa  165 156 157 165
    034443  aa  164 000 000 000
    034444  55   011630 011612
    034445  0a   000000 400000
    034446  55   011625 000003
    034447  aa  013 141 142 163         abs_reenter
    034450  aa  137 162 145 145
    034451  aa  156 164 145 162
    034452  55   000002 011622
    034453  6a   000000 400002
    034454  55   011633 000003
    034455  aa  014 163 171 155         symbol_table
    034456  aa  142 157 154 137
    034457  aa  164 141 142 154
    034460  aa  145 000 000 000

DEFINITIONS HASH TABLE

    034461  aa   000000 001761
    034462  5a   000022 000000
    034463  5a   002743 000000
    034464  5a   003104 000000
    034465  5a   007573 000000
    034466  5a   007713 000000
    034467  5a   005022 000000
    034470  aa   000000 000000
    034471  aa   000000 000000
    034472  aa   000000 000000
    034473  aa   000000 000000
    034474  aa   000000 000000
    034475  5a   006145 000000
    034476  aa   000000 000000
    034477  aa   000000 000000
    034500  aa   000000 000000
    034501  aa   000000 000000
    034502  aa   000000 000000
    034503  aa   000000 000000
    034504  aa   000000 000000
    034505  5a   004754 000000
    034506  aa   000000 000000
    034507  5a   000152 000000
    034510  aa   000000 000000
    034511  5a   004105 000000
    034512  5a   011451 000000
    034513  5a   000110 000000
    034514  5a   003243 000000
    034515  5a   003266 000000
    034516  5a   004506 000000
    034517  5a   004545 000000
    034520  5a   005335 000000
    034521  5a   005440 000000
    034522  5a   005706 000000
    034523  5a   010006 000000
    034524  5a   011531 000000
    034525  5a   007000 000000
    034526  aa   000000 000000
    034527  5a   006216 000000
    034530  aa   000000 000000
    034531  aa   000000 000000
    034532  aa   000000 000000
    034533  aa   000000 000000
    034534  aa   000000 000000
    034535  5a   006437 000000
    034536  aa   000000 000000
    034537  aa   000000 000000
    034540  aa   000000 000000
    034541  5a   002404 000000
    034542  5a   002454 000000
    034543  5a   000607 000000
    034544  5a   002153 000000
    034545  5a   002462 000000
    034546  5a   010255 000000
    034547  5a   000406 000000
    034550  5a   011462 000000
    034551  aa   000000 000000
    034552  5a   005301 000000
    034553  5a   000313 000000
    034554  5a   005514 000000
    034555  5a   003676 000000
    034556  5a   003715 000000
    034557  5a   005523 000000
    034560  5a   001074 000000
    034561  5a   005616 000000
    034562  5a   005677 000000
    034563  5a   005767 000000
    034564  5a   005776 000000
    034565  5a   000220 000000
    034566  5a   007671 000000
    034567  5a   010720 000000
    034570  5a   002117 000000
    034571  5a   010775 000000
    034572  5a   011005 000000
    034573  aa   000000 000000
    034574  5a   004150 000000
    034575  5a   001147 000000
    034576  aa   000000 000000
    034577  5a   007042 000000
    034600  aa   000000 000000
    034601  aa   000000 000000
    034602  aa   000000 000000
    034603  5a   001530 000000
    034604  5a   011327 000000
    034605  5a   001313 000000
    034606  5a   005057 000000
    034607  5a   005264 000000
    034610  5a   010346 000000
    034611  5a   010361 000000
    034612  5a   010366 000000
    034613  5a   010406 000000
    034614  5a   010552 000000
    034615  5a   011052 000000
    034616  5a   006652 000000
    034617  5a   006677 000000
    034620  5a   011167 000000
    034621  aa   000000 000000
    034622  aa   000000 000000
    034623  aa   000000 000000
    034624  aa   000000 000000
    034625  5a   005050 000000
    034626  aa   000000 000000
    034627  5a   000560 000000
    034630  aa   000000 000000
    034631  aa   000000 000000
    034632  aa   000000 000000
    034633  aa   000000 000000
    034634  aa   000000 000000
    034635  aa   000000 000000
    034636  aa   000000 000000
    034637  aa   000000 000000
    034640  aa   000000 000000
    034641  aa   000000 000000
    034642  aa   000000 000000
    034643  5a   002725 000000
    034644  5a   003421 000000
    034645  5a   004557 000000
    034646  5a   006765 000000
    034647  5a   005554 000000
    034650  aa   000000 000000
    034651  aa   000000 000000
    034652  aa   000000 000000
    034653  aa   000000 000000
    034654  aa   000000 000000
    034655  aa   000000 000000
    034656  5a   004043 000000
    034657  aa   000000 000000
    034660  aa   000000 000000
    034661  aa   000000 000000
    034662  aa   000000 000000
    034663  aa   000000 000000
    034664  aa   000000 000000
    034665  aa   000000 000000
    034666  aa   000000 000000
    034667  5a   003761 000000
    034670  5a   000167 000000
    034671  5a   000200 000000
    034672  5a   000517 000000
    034673  5a   000467 000000
    034674  5a   011542 000000
    034675  5a   004631 000000
    034676  aa   000000 000000
    034677  aa   000000 000000
    034700  aa   000000 000000
    034701  5a   002210 000000
    034702  5a   005727 000000
    034703  5a   005750 000000
    034704  5a   003570 000000
    034705  5a   003620 000000
    034706  5a   003752 000000
    034707  5a   003543 000000
    034710  5a   010317 000000
    034711  5a   010453 000000
    034712  5a   001716 000000
    034713  5a   000265 000000
    034714  5a   011041 000000
    034715  aa   000000 000000
    034716  aa   000000 000000
    034717  5a   010172 000000
    034720  aa   000000 000000
    034721  aa   000000 000000
    034722  aa   000000 000000
    034723  5a   011203 000000
    034724  aa   000000 000000
    034725  aa   000000 000000
    034726  5a   010332 000000
    034727  aa   000000 000000
    034730  aa   000000 000000
    034731  aa   000000 000000
    034732  5a   001517 000000
    034733  aa   000000 000000
    034734  aa   000000 000000
    034735  5a   002244 000000
    034736  5a   002261 000000
    034737  5a   005237 000000
    034740  5a   010340 000000
    034741  5a   010353 000000
    034742  5a   010430 000000
    034743  5a   007602 000000
    034744  5a   007612 000000
    034745  5a   007653 000000
    034746  5a   001637 000000
    034747  5a   010751 000000
    034750  5a   006464 000000
    034751  5a   010767 000000
    034752  aa   000000 000000
    034753  5a   006247 000000
    034754  5a   011277 000000
    034755  5a   004220 000000
    034756  5a   000540 000000
    034757  5a   004227 000000
    034760  5a   000765 000000
    034761  5a   001762 000000
    034762  5a   001065 000000
    034763  5a   004247 000000
    034764  5a   005006 000000
    034765  aa   000000 000000
    034766  aa   000000 000000
    034767  aa   000000 000000
    034770  aa   000000 000000
    034771  aa   000000 000000
    034772  5a   002653 000000
    034773  5a   002763 000000
    034774  5a   003002 000000
    034775  5a   003025 000000
    034776  5a   003124 000000
    034777  5a   003217 000000
    035000  5a   003251 000000
    035001  5a   003307 000000
    035002  5a   003516 000000
    035003  aa   000000 000000
    035004  aa   000000 000000
    035005  5a   006135 000000
    035006  5a   006156 000000
    035007  5a   006166 000000
    035010  5a   006176 000000
    035011  5a   006206 000000
    035012  aa   000000 000000
    035013  aa   000000 000000
    035014  aa   000000 000000
    035015  aa   000000 000000
    035016  aa   000000 000000
    035017  5a   002334 000000
    035020  5a   002357 000000
    035021  5a   006726 000000
    035022  5a   011471 000000
    035023  5a   001004 000000
    035024  5a   004661 000000
    035025  5a   000374 000000
    035026  5a   007050 000000
    035027  5a   007526 000000
    035030  5a   002202 000000
    035031  5a   005346 000000
    035032  5a   000731 000000
    035033  5a   003610 000000
    035034  5a   003655 000000
    035035  5a   003705 000000
    035036  5a   005430 000000
    035037  5a   005566 000000
    035040  5a   000720 000000
    035041  5a   006607 000000
    035042  5a   006757 000000
    035043  5a   007010 000000
    035044  5a   005066 000000
    035045  5a   011511 000000
    035046  5a   002100 000000
    035047  aa   000000 000000
    035050  aa   000000 000000
    035051  aa   000000 000000
    035052  5a   011212 000000
    035053  aa   000000 000000
    035054  aa   000000 000000
    035055  aa   000000 000000
    035056  5a   011354 000000
    035057  aa   000000 000000
    035060  5a   004026 000000
    035061  aa   000000 000000
    035062  aa   000000 000000
    035063  aa   000000 000000
    035064  5a   005217 000000
    035065  5a   004473 000000
    035066  5a   010445 000000
    035067  5a   010534 000000
    035070  5a   010614 000000
    035071  5a   010630 000000
    035072  5a   007563 000000
    035073  5a   011057 000000
    035074  5a   011140 000000
    035075  5a   011154 000000
    035076  aa   000000 000000
    035077  aa   000000 000000
    035100  aa   000000 000000
    035101  aa   000000 000000
    035102  5a   005133 000000
    035103  5a   005113 000000
    035104  5a   000062 000000
    035105  5a   004161 000000
    035106  5a   004256 000000
    035107  5a   005143 000000
    035110  5a   005163 000000
    035111  5a   006600 000000
    035112  5a   006772 000000
    035113  aa   000000 000000
    035114  aa   000000 000000
    035115  5a   001430 000000
    035116  aa   000000 000000
    035117  5a   001250 000000
    035120  aa   000000 000000
    035121  5a   002700 000000
    035122  5a   003207 000000
    035123  5a   003226 000000
    035124  5a   003373 000000
    035125  5a   003437 000000
    035126  5a   006410 000000
    035127  5a   007073 000000
    035130  5a   007103 000000
    035131  5a   010227 000000
    035132  5a   010235 000000
    035133  5a   010324 000000
    035134  aa   000000 000000
    035135  5a   005076 000000
    035136  5a   010210 000000
    035137  aa   000000 000000
    035140  aa   000000 000000
    035141  aa   000000 000000
    035142  aa   000000 000000
    035143  aa   000000 000000
    035144  aa   000000 000000
    035145  aa   000000 000000
    035146  aa   000000 000000
    035147  5a   006737 000000
    035150  5a   007433 000000
    035151  aa   000000 000000
    035152  5a   001013 000000
    035153  5a   003165 000000
    035154  5a   003336 000000
    035155  aa   000000 000000
    035156  aa   000000 000000
    035157  5a   005532 000000
    035160  5a   005576 000000
    035161  5a   000747 000000
    035162  5a   005625 000000
    035163  5a   005635 000000
    035164  5a   005717 000000
    035165  5a   003552 000000
    035166  5a   006045 000000
    035167  5a   004462 000000
    035170  5a   007760 000000
    035171  5a   010052 000000
    035172  5a   011227 000000
    035173  aa   000000 000000
    035174  5a   002541 000000
    035175  5a   004051 000000
    035176  aa   000000 000000
    035177  5a   006521 000000
    035200  5a   000211 000000
    035201  5a   006550 000000
    035202  5a   000510 000000
    035203  5a   006570 000000
    035204  5a   010152 000000
    035205  aa   000000 000000
    035206  aa   000000 000000
    035207  aa   000000 000000
    035210  aa   000000 000000
    035211  5a   006750 000000
    035212  5a   007453 000000
    035213  5a   007467 000000
    035214  aa   000000 000000
    035215  5a   010557 000000
    035216  5a   010730 000000
    035217  5a   011015 000000
    035220  5a   011131 000000
    035221  5a   001777 000000
    035222  5a   001645 000000
    035223  5a   001654 000000
    035224  5a   001620 000000
    035225  5a   002006 000000
    035226  5a   007622 000000
    035227  aa   000000 000000
    035230  5a   001560 000000
    035231  5a   005153 000000
    035232  aa   000000 000000
    035233  aa   000000 000000
    035234  5a   001125 000000
    035235  5a   001133 000000
    035236  5a   001541 000000
    035237  5a   002145 000000
    035240  aa   000000 000000
    035241  aa   000000 000000
    035242  5a   001510 000000
    035243  5a   011322 000000
    035244  5a   001421 000000
    035245  5a   004112 000000
    035246  aa   000000 000000
    035247  5a   005173 000000
    035250  5a   003447 000000
    035251  5a   006335 000000
    035252  5a   011571 000000
    035253  5a   007633 000000
    035254  aa   000000 000000
    035255  5a   006377 000000
    035256  aa   000000 000000
    035257  aa   000000 000000
    035260  aa   000000 000000
    035261  aa   000000 000000
    035262  aa   000000 000000
    035263  aa   000000 000000
    035264  aa   000000 000000
    035265  aa   000000 000000
    035266  5a   007504 000000
    035267  aa   000000 000000
    035270  aa   000000 000000
    035271  aa   000000 000000
    035272  aa   000000 000000
    035273  aa   000000 000000
    035274  aa   000000 000000
    035275  5a   000161 000000
    035276  5a   004703 000000
    035277  5a   006714 000000
    035300  5a   007227 000000
    035301  5a   007303 000000
    035302  5a   002717 000000
    035303  5a   003157 000000
    035304  5a   003330 000000
    035305  5a   007540 000000
    035306  5a   005655 000000
    035307  5a   006014 000000
    035310  5a   000737 000000
    035311  5a   003665 000000
    035312  5a   010243 000000
    035313  5a   011363 000000
    035314  5a   011404 000000
    035315  5a   011551 000000
    035316  aa   000000 000000
    035317  5a   002604 000000
    035320  aa   000000 000000
    035321  5a   002554 000000
    035322  5a   001051 000000
    035323  5a   002533 000000
    035324  5a   004060 000000
    035325  aa   000000 000000
    035326  5a   006531 000000
    035327  5a   002275 000000
    035330  5a   002343 000000
    035331  5a   000600 000000
    035332  5a   000457 000000
    035333  5a   002351 000000
    035334  5a   000427 000000
    035335  5a   002376 000000
    035336  5a   004130 000000
    035337  5a   007372 000000
    035340  5a   007400 000000
    035341  5a   007417 000000
    035342  5a   002234 000000
    035343  5a   003627 000000
    035344  5a   003635 000000
    035345  5a   004500 000000
    035346  5a   007425 000000
    035347  5a   010121 000000
    035350  5a   010142 000000
    035351  5a   010576 000000
    035352  5a   010665 000000
    035353  5a   001627 000000
    035354  5a   010711 000000
    035355  5a   007751 000000
    035356  5a   011075 000000
    035357  5a   001043 000000
    035360  5a   006624 000000
    035361  aa   000000 000000
    035362  5a   004200 000000
    035363  5a   001112 000000
    035364  5a   001164 000000
    035365  aa   000000 000000
    035366  aa   000000 000000
    035367  aa   000000 000000
    035370  5a   011376 000000
    035371  aa   000000 000000
    035372  aa   000000 000000
    035373  5a   001370 000000
    035374  5a   001273 000000
    035375  5a   001411 000000
    035376  5a   000077 000000
    035377  5a   001460 000000
    035400  5a   001470 000000
    035401  5a   002253 000000
    035402  5a   003477 000000
    035403  5a   005256 000000
    035404  5a   006616 000000
    035405  5a   001266 000000
    035406  5a   006635 000000
    035407  5a   006457 000000
    035410  5a   006661 000000
    035411  5a   007734 000000
    035412  5a   006225 000000
    035413  5a   006236 000000
    035414  5a   007546 000000
    035415  aa   000000 000000
    035416  5a   010034 000000
    035417  aa   000000 000000
    035420  5a   005033 000000
    035421  aa   000000 000000
    035422  aa   000000 000000
    035423  aa   000000 000000
    035424  aa   000000 000000
    035425  aa   000000 000000
    035426  5a   007406 000000
    035427  5a   011221 000000
    035430  5a   000071 000000
    035431  5a   003011 000000
    035432  5a   003076 000000
    035433  5a   000136 000000
    035434  5a   003142 000000
    035435  5a   003260 000000
    035436  5a   003301 000000
    035437  5a   004671 000000
    035440  5a   005417 000000
    035441  5a   005462 000000
    035442  5a   006025 000000
    035443  5a   006371 000000
    035444  5a   001057 000000
    035445  5a   010075 000000
    035446  5a   001663 000000
    035447  5a   004140 000000
    035450  5a   000242 000000
    035451  5a   006706 000000
    035452  aa   000000 000000
    035453  5a   001241 000000
    035454  aa   000000 000000
    035455  aa   000000 000000
    035456  5a   002317 000000
    035457  5a   002421 000000
    035460  5a   000645 000000
    035461  5a   000500 000000
    035462  5a   007364 000000
    035463  5a   010265 000000
    035464  5a   004067 000000
    035465  5a   011424 000000
    035466  aa   000000 000000
    035467  aa   000000 000000
    035470  5a   002224 000000
    035471  5a   007771 000000
    035472  5a   010131 000000
    035473  5a   004444 000000
    035474  5a   010542 000000
    035475  5a   010636 000000
    035476  5a   010646 000000
    035477  5a   011065 000000
    035500  aa   000000 000000
    035501  5a   000255 000000
    035502  aa   000000 000000
    035503  aa   000000 000000
    035504  aa   000000 000000
    035505  aa   000000 000000
    035506  5a   001577 000000
    035507  aa   000000 000000
    035510  aa   000000 000000
    035511  5a   004236 000000
    035512  5a   000042 000000
    035513  5a   001103 000000
    035514  5a   004265 000000
    035515  aa   000000 000000
    035516  aa   000000 000000
    035517  5a   002066 000000
    035520  aa   000000 000000
    035521  aa   000000 000000
    035522  5a   001324 000000
    035523  5a   001437 000000
    035524  aa   000000 000000
    035525  5a   010373 000000
    035526  5a   011162 000000
    035527  aa   000000 000000
    035530  aa   000000 000000
    035531  aa   000000 000000
    035532  aa   000000 000000
    035533  aa   000000 000000
    035534  aa   000000 000000
    035535  aa   000000 000000
    035536  aa   000000 000000
    035537  aa   000000 000000
    035540  aa   000000 000000
    035541  aa   000000 000000
    035542  5a   011311 000000
    035543  aa   000000 000000
    035544  aa   000000 000000
    035545  aa   000000 000000
    035546  aa   000000 000000
    035547  aa   000000 000000
    035550  aa   000000 000000
    035551  aa   000000 000000
    035552  aa   000000 000000
    035553  5a   001261 000000
    035554  5a   004012 000000
    035555  5a   007150 000000
    035556  5a   007162 000000
    035557  aa   000000 000000
    035560  5a   002671 000000
    035561  5a   002710 000000
    035562  5a   002734 000000
    035563  5a   003034 000000
    035564  5a   003043 000000
    035565  5a   003115 000000
    035566  5a   003357 000000
    035567  5a   003430 000000
    035570  5a   003457 000000
    035571  5a   003643 000000
    035572  5a   004520 000000
    035573  5a   005542 000000
    035574  5a   005736 000000
    035575  5a   007113 000000
    035576  5a   004771 000000
    035577  5a   007475 000000
    035600  aa   000000 000000
    035601  aa   000000 000000
    035602  aa   000000 000000
    035603  aa   000000 000000
    035604  5a   003770 000000
    035605  5a   002310 000000
    035606  5a   002412 000000
    035607  5a   000654 000000
    035610  5a   002445 000000
    035611  5a   002470 000000
    035612  5a   002517 000000
    035613  5a   004021 000000
    035614  5a   002052 000000
    035615  5a   004414 000000
    035616  5a   002175 000000
    035617  5a   000324 000000
    035620  5a   000335 000000
    035621  5a   003734 000000
    035622  5a   003743 000000
    035623  5a   004736 000000
    035624  5a   004745 000000
    035625  5a   005310 000000
    035626  5a   005317 000000
    035627  5a   005326 000000
    035630  5a   005410 000000
    035631  5a   000231 000000
    035632  5a   006036 000000
    035633  5a   007174 000000
    035634  5a   001607 000000
    035635  5a   010064 000000
    035636  5a   010304 000000
    035637  5a   011432 000000
    035640  5a   010201 000000
    035641  5a   000052 000000
    035642  aa   000000 000000
    035643  aa   000000 000000
    035644  aa   000000 000000
    035645  aa   000000 000000
    035646  aa   000000 000000
    035647  aa   000000 000000
    035650  aa   000000 000000
    035651  5a   001334 000000
    035652  5a   001400 000000
    035653  5a   000305 000000
    035654  5a   005201 000000
    035655  5a   003316 000000
    035656  5a   005210 000000
    035657  5a   006343 000000
    035660  5a   006352 000000
    035661  5a   007703 000000
    035662  5a   010400 000000
    035663  5a   010413 000000
    035664  5a   010044 000000
    035665  5a   010464 000000
    035666  5a   010622 000000
    035667  5a   010674 000000
    035670  5a   006261 000000
    035671  5a   011024 000000
    035672  5a   011104 000000
    035673  5a   000570 000000
    035674  aa   000000 000000
    035675  aa   000000 000000
    035676  aa   000000 000000
    035677  aa   000000 000000
    035700  aa   000000 000000
    035701  5a   006450 000000
    035702  aa   000000 000000
    035703  aa   000000 000000
    035704  5a   007203 000000
    035705  5a   007215 000000
    035706  aa   000000 000000
    035707  5a   002662 000000
    035710  5a   002754 000000
    035711  5a   000704 000000
    035712  5a   003062 000000
    035713  5a   003133 000000
    035714  5a   003150 000000
    035715  5a   003403 000000
    035716  5a   003412 000000
    035717  5a   004074 000000
    035720  5a   004532 000000
    035721  5a   005356 000000
    035722  5a   010274 000000
    035723  5a   011562 000000
    035724  aa   000000 000000
    035725  5a   006104 000000
    035726  5a   001735 000000
    035727  aa   000000 000000
    035730  aa   000000 000000
    035731  aa   000000 000000
    035732  5a   006427 000000
    035733  aa   000000 000000
    035734  5a   002325 000000
    035735  aa   000000 000000
    035736  5a   007132 000000
    035737  5a   007141 000000
    035740  5a   007345 000000
    035741  5a   000437 000000
    035742  5a   004611 000000
    035743  5a   001214 000000
    035744  5a   002043 000000
    035745  5a   004641 000000
    035746  5a   006005 000000
    035747  5a   011630 000000
    035750  aa   000000 000000
    035751  aa   000000 000000
    035752  5a   007025 000000
    035753  5a   011602 000000
    035754  5a   011612 000000
    035755  5a   011246 000000
    035756  aa   000000 000000
    035757  aa   000000 000000
    035760  aa   000000 000000
    035761  aa   000000 000000
    035762  5a   010026 000000
    035763  5a   002126 000000
    035764  aa   000000 000000
    035765  aa   000000 000000
    035766  aa   000000 000000
    035767  aa   000000 000000
    035770  aa   000000 000000
    035771  aa   000000 000000
    035772  aa   000000 000000
    035773  aa   000000 000000
    035774  aa   000000 000000
    035775  5a   004121 000000
    035776  5a   011335 000000
    035777  aa   000000 000000
    036000  5a   001357 000000
    036001  5a   001447 000000
    036002  5a   000276 000000
    036003  5a   003525 000000
    036004  5a   005227 000000
    036005  5a   005246 000000
    036006  5a   006325 000000
    036007  5a   010472 000000
    036010  5a   010507 000000
    036011  5a   006643 000000
    036012  5a   011146 000000
    036013  aa   000000 000000
    036014  aa   000000 000000
    036015  aa   000000 000000
    036016  aa   000000 000000
    036017  5a   005123 000000
    036020  5a   005103 000000
    036021  5a   004335 000000
    036022  5a   000550 000000
    036023  5a   004776 000000
    036024  5a   000756 000000
    036025  5a   005041 000000
    036026  5a   006065 000000
    036027  5a   011265 000000
    036030  aa   000000 000000
    036031  aa   000000 000000
    036032  5a   001727 000000
    036033  aa   000000 000000
    036034  aa   000000 000000
    036035  5a   001034 000000
    036036  5a   002772 000000
    036037  5a   003052 000000
    036040  5a   000126 000000
    036041  5a   003172 000000
    036042  aa   000000 000000
    036043  aa   000000 000000
    036044  aa   000000 000000
    036045  5a   002167 000000
    036046  aa   000000 000000
    036047  aa   000000 000000
    036050  aa   000000 000000
    036051  aa   000000 000000
    036052  5a   000530 000000
    036053  aa   000000 000000
    036054  aa   000000 000000
    036055  5a   002562 000000
    036056  aa   000000 000000
    036057  aa   000000 000000
    036060  aa   000000 000000
    036061  aa   000000 000000
    036062  aa   000000 000000
    036063  5a   002435 000000
    036064  5a   002507 000000
    036065  5a   000673 000000
    036066  5a   001231 000000
    036067  5a   004005 000000
    036070  5a   004422 000000
    036071  5a   004621 000000
    036072  5a   002034 000000
    036073  5a   002624 000000
    036074  5a   004651 000000
    036075  5a   005400 000000
    036076  5a   005606 000000
    036077  5a   003724 000000
    036100  5a   005645 000000
    036101  5a   006055 000000
    036102  5a   007122 000000
    036103  5a   007325 000000
    036104  5a   007335 000000
    036105  5a   002577 000000
    036106  5a   007354 000000
    036107  5a   007443 000000
    036110  5a   007533 000000
    036111  5a   010311 000000
    036112  5a   011237 000000
    036113  5a   011414 000000
    036114  5a   006473 000000
    036115  5a   006512 000000
    036116  5a   006541 000000
    036117  5a   011441 000000
    036120  5a   011501 000000
    036121  5a   001224 000000
    036122  5a   000450 000000
    036123  5a   000356 000000
    036124  5a   000365 000000
    036125  5a   011344 000000
    036126  5a   011521 000000
    036127  5a   010112 000000
    036130  5a   002015 000000
    036131  5a   010000 000000
    036132  5a   010020 000000
    036133  5a   010436 000000
    036134  5a   010500 000000
    036135  5a   010525 000000
    036136  5a   001770 000000
    036137  5a   010605 000000
    036140  5a   011174 000000
    036141  aa   000000 000000
    036142  aa   000000 000000
    036143  aa   000000 000000
    036144  aa   000000 000000
    036145  5a   000033 000000
    036146  aa   000000 000000
    036147  aa   000000 000000
    036150  5a   004326 000000
    036151  5a   001120 000000
    036152  5a   007743 000000
    036153  aa   000000 000000
    036154  5a   001753 000000
    036155  aa   000000 000000
    036156  aa   000000 000000
    036157  aa   000000 000000
    036160  aa   000000 000000
    036161  aa   000000 000000
    036162  aa   000000 000000
    036163  aa   000000 000000
    036164  aa   000000 000000
    036165  5a   002636 000000
    036166  5a   001744 000000
    036167  5a   000116 000000
    036170  aa   000000 000000
    036171  aa   000000 000000
    036172  5a   006361 000000
    036173  aa   000000 000000
    036174  aa   000000 000000
    036175  aa   000000 000000
    036176  aa   000000 000000
    036177  aa   000000 000000
    036200  5a   006273 000000
    036201  aa   000000 000000
    036202  5a   007061 000000
    036203  5a   004763 000000
    036204  aa   000000 000000
    036205  aa   000000 000000
    036206  aa   000000 000000
    036207  aa   000000 000000
    036210  5a   002270 000000
    036211  aa   000000 000000
    036212  5a   002366 000000
    036213  5a   002477 000000
    036214  5a   007273 000000
    036215  aa   000000 000000
    036216  aa   000000 000000
    036217  5a   002646 000000
    036220  5a   003071 000000
    036221  5a   001203 000000
    036222  5a   002631 000000
    036223  5a   003202 000000
    036224  5a   002617 000000
    036225  5a   002612 000000
    036226  5a   003236 000000
    036227  5a   003274 000000
    036230  5a   003366 000000
    036231  5a   003577 000000
    036232  5a   004571 000000
    036233  5a   005370 000000
    036234  5a   005504 000000
    036235  5a   002572 000000
    036236  5a   003777 000000
    036237  5a   000774 000000
    036240  5a   005757 000000
    036241  5a   006074 000000
    036242  5a   007016 000000
    036243  5a   002526 000000
    036244  5a   002303 000000
    036245  5a   006502 000000
    036246  5a   000616 000000
    036247  5a   010162 000000
    036250  5a   010221 000000
    036251  5a   000417 000000
    036252  5a   000346 000000
    036253  5a   010737 000000
    036254  aa   000000 000000
    036255  aa   000000 000000
    036256  5a   001345 000000
    036257  5a   002215 000000
    036260  5a   010102 000000
    036261  5a   006303 000000
    036262  5a   006314 000000
    036263  5a   003535 000000
    036264  5a   010421 000000
    036265  5a   010656 000000
    036266  5a   010702 000000
    036267  5a   006667 000000
    036270  5a   011032 000000
    036271  5a   004454 000000
    036272  5a   011112 000000
    036273  aa   000000 000000
    036274  5a   001550 000000
    036275  aa   000000 000000
    036276  aa   000000 000000
    036277  5a   004170 000000
    036300  5a   004210 000000
    036301  5a   004306 000000
    036302  aa   000000 000000
    036303  5a   004431 000000
    036304  aa   000000 000000
    036305  aa   000000 000000
    036306  aa   000000 000000
    036307  aa   000000 000000
    036310  5a   001303 000000
    036311  5a   007033 000000
    036312  5a   004037 000000
    036313  aa   000000 000000
    036314  5a   003466 000000
    036315  aa   000000 000000
    036316  5a   000711 000000
    036317  5a   002024 000000
    036320  5a   007515 000000
    036321  5a   007663 000000
    036322  aa   000000 000000
    036323  5a   002160 000000
    036324  aa   000000 000000
    036325  aa   000000 000000
    036326  aa   000000 000000
    036327  5a   002060 000000
    036330  5a   006113 000000
    036331  5a   006124 000000
    036332  5a   007555 000000
    036333  5a   011255 000000
    036334  aa   000000 000000
    036335  aa   000000 000000
    036336  aa   000000 000000
    036337  5a   004344 000000
    036340  5a   004354 000000
    036341  5a   004364 000000
    036342  5a   004374 000000
    036343  5a   000633 000000
    036344  5a   004714 000000
    036345  5a   004725 000000
    036346  5a   003017 000000
    036347  5a   003343 000000
    036350  5a   000144 000000
    036351  5a   001172 000000
    036352  5a   003351 000000
    036353  5a   003510 000000
    036354  5a   004404 000000
    036355  5a   005451 000000
    036356  5a   005473 000000
    036357  5a   005666 000000
    036360  5a   007240 000000
    036361  5a   007251 000000
    036362  5a   007262 000000
    036363  5a   007314 000000
    036364  aa   000000 000000
    036365  5a   002546 000000
    036366  aa   000000 000000
    036367  aa   000000 000000
    036370  aa   000000 000000
    036371  5a   006420 000000
    036372  5a   005013 000000
    036373  5a   002427 000000
    036374  5a   006560 000000
    036375  5a   000624 000000
    036376  5a   000664 000000
    036377  aa   000000 000000
    036400  5a   004602 000000
    036401  aa   000000 000000
    036402  aa   000000 000000
    036403  aa   000000 000000
    036404  aa   000000 000000
    036405  5a   007461 000000
    036406  aa   000000 000000
    036407  5a   003562 000000
    036410  5a   000012 000000
    036411  5a   010515 000000
    036412  5a   010566 000000
    036413  5a   010757 000000
    036414  5a   007641 000000
    036415  5a   001676 000000
    036416  5a   001706 000000
    036417  5a   007722 000000
    036420  5a   011121 000000
    036421  5a   011622 000000
    036422  5a   002110 000000
    036423  5a   001567 000000
    036424  5a   002136 000000
    036425  aa   000000 000000
    036426  5a   004276 000000
    036427  5a   001141 000000
    036430  5a   001156 000000
    036431  5a   004316 000000
    036432  aa   000000 000000
    036433  aa   000000 000000
    036434  aa   000000 000000
    036435  aa   000000 000000
    036436  aa   000000 000000
    036437  5a   001500 000000
    036440  5a   005273 000000
    036441  aa   000000 000000
    036442  5a   001023 000000

NO EXTERNAL NAMES

NO TRAP POINTER WORDS

TYPE PAIR BLOCKS

    036443  aa   000001 000000
    036444  aa   000000 000000

INTERNAL EXPRESSION WORDS

    036445  aa   000000 000000
LINKAGE INFORMATION

    000000  aa   000000 000000
    000001  0a   022622 000000
    000002  aa   000000 000000
    000003  aa   000000 000000
    000004  aa   000000 000000
    000005  aa   000000 000000
    000006  22   000010 000010
    000007  a2   000000 000000
SYMBOL INFORMATION

SYMBOL TABLE HEADER

    000000  aa   000000 000001
    000001  aa   163171 155142
    000002  aa   164162 145145
    000003  aa   000000 000010
    000004  aa   000000 117244
    000005  aa   361023 525721
    000006  aa   000000 117547
    000007  aa   247620 710446
    000010  aa   141154 155040
    000011  aa   040040 040040
    000012  aa   000024 000040
    000013  aa   000034 000040
    000014  aa   000044 000100
    000015  aa   000002 000002
    000016  aa   000064 000000
    000017  aa   000000 002726
    000020  aa   000000 000117
    000021  aa   001266 001263
    000022  aa   002717 000117
    000023  aa   000064 000000
    000024  aa   101114 115040
    000025  aa   126145 162163
    000026  aa   151157 156040
    000027  aa   070056 061064
    000030  aa   040115 141162
    000031  aa   143150 040061
    000032  aa   071070 071040
    000033  aa   040040 040040
    000034  aa   110151 162156
    000035  aa   145151 163145
    000036  aa   156056 123171
    000037  aa   163115 141151
    000040  aa   156164 056141
    000041  aa   040040 040040
    000042  aa   040040 040040
    000043  aa   040040 040040
    000044  aa   055164 141162
    000045  aa   147145 164040
    000046  aa   154066 070040
    000047  aa   040040 040040
    000050  aa   040040 040040
    000051  aa   040040 040040
    000052  aa   040040 040040
    000053  aa   040040 040040
    000054  aa   040040 040040
    000055  aa   040040 040040
    000056  aa   040154 151163
    000057  aa   164040 163171
    000060  aa   155142 157154
    000061  aa   163040 040040
    000062  aa   040040 040040
    000063  aa   040040 040040
    000064  aa   000000 000001
    000065  aa   000000 000002
    000066  aa   000076 000043
    000067  aa   175453 027501
    000070  aa   000000 117547
    000071  aa   224225 400000
    000072  aa   000107 000037
    000073  aa   120665 316464
    000074  aa   000000 112067
    000075  aa   253504 600000
    000076  aa   076163 160145          >spec>install>1115>error_table_.alm
    000077  aa   143076 151156
    000100  aa   163164 141154
    000101  aa   154076 061061
    000102  aa   061065 076145
    000103  aa   162162 157162
    000104  aa   137164 141142
    000105  aa   154145 137056
    000106  aa   141154 155040
    000107  aa   076154 144144          >ldd>include>et_macros.incl.alm
    000110  aa   076151 156143
    000111  aa   154165 144145
    000112  aa   076145 164137
    000113  aa   155141 143162
    000114  aa   157163 056151
    000115  aa   156143 154056
    000116  aa   141154 155040
               MULTICS ASSEMBLY CROSS REFERENCE LISTING

   Value        Symbol                   Source file   Line number

        1246    .._00000                 error_table_:       112.
        1276    .._00001                 error_table_:       114.
        1315    .._00002                 error_table_:       116.
        1332    .._00003                 error_table_:       118.
        1346    .._00004                 error_table_:       120.
        1366    .._00005                 error_table_:       122.
        1412    .._00006                 error_table_:       124.
        1431    .._00007                 error_table_:       126.
        1445    .._00010                 error_table_:       128.
        1467    .._00011                 error_table_:       130.
        1512    .._00012                 error_table_:       132.
        1532    .._00013                 error_table_:       134.
        1560    .._00014                 error_table_:       136.
        1605    .._00015                 error_table_:       138.
        1636    .._00016                 error_table_:       140.
        1654    .._00017                 error_table_:       142.
        1675    .._00020                 error_table_:       144.
        1712    .._00021                 error_table_:       146.
        1730    .._00022                 error_table_:       148.
        1753    .._00023                 error_table_:       150.
        1774    .._00024                 error_table_:       152.
        2013    .._00025                 error_table_:       154.
        2031    .._00026                 error_table_:       156.
        2046    .._00027                 error_table_:       158.
        2063    .._00030                 error_table_:       160.
        2072    .._00031                 error_table_:       162.
        2114    .._00032                 error_table_:       164.
        2130    .._00033                 error_table_:       166.
        2153    .._00034                 error_table_:       168.
        2175    .._00035                 error_table_:       170.
        2216    .._00036                 error_table_:       172.
        2241    .._00037                 error_table_:       174.
        2263    .._00040                 error_table_:       176.
        2306    .._00041                 error_table_:       178.
        2315    .._00042                 error_table_:       180.
        2327    .._00043                 error_table_:       182.
        2341    .._00044                 error_table_:       184.
        2353    .._00045                 error_table_:       186.
        2362    .._00046                 error_table_:       188.
        2375    .._00047                 error_table_:       190.
        2422    .._00050                 error_table_:       192.
        2435    .._00051                 error_table_:       194.
        2447    .._00052                 error_table_:       196.
        2462    .._00053                 error_table_:       198.
        2472    .._00054                 error_table_:       203.
        2502    .._00055                 error_table_:       205.
        2515    .._00056                 error_table_:       207.
        2540    .._00057                 error_table_:       212.
        2553    .._00060                 error_table_:       214.
        2571    .._00061                 error_table_:       216.
        2606    .._00062                 error_table_:       218.
        2620    .._00063                 error_table_:       220.
        2637    .._00064                 error_table_:       222.
        2651    .._00065                 error_table_:       224.
        2671    .._00066                 error_table_:       226.
        2706    .._00067                 error_table_:       228.
        2720    .._00070                 error_table_:       230.
        2734    .._00071                 error_table_:       236.
        2747    .._00072                 error_table_:       238.
        2772    .._00073                 error_table_:       240.
        3006    .._00074                 error_table_:       242.
        3023    .._00075                 error_table_:       244.
        3054    .._00076                 error_table_:       246.
        3104    .._00077                 error_table_:       248.
        3122    .._00100                 error_table_:       250.
        3134    .._00101                 error_table_:       252.
        3147    .._00102                 error_table_:       254.
        3162    .._00103                 error_table_:       256.
        3201    .._00104                 error_table_:       258.
        3217    .._00105                 error_table_:       260.
        3236    .._00106                 error_table_:       262.
        3255    .._00107                 error_table_:       264.
        3264    .._00110                 error_table_:       266.
        3300    .._00111                 error_table_:       268.
        3310    .._00112                 error_table_:       270.
        3326    .._00113                 error_table_:       272.
        3340    .._00114                 error_table_:       274.
        3353    .._00115                 error_table_:       276.
        3372    .._00116                 error_table_:       278.
        3404    .._00117                 error_table_:       280.
        3417    .._00120                 error_table_:       282.
        3433    .._00121                 error_table_:       284.
        3445    .._00122                 error_table_:       286.
        3455    .._00123                 error_table_:       288.
        3465    .._00124                 error_table_:       293.
        3504    .._00125                 error_table_:       295.
        3521    .._00126                 error_table_:       297.
        3536    .._00127                 error_table_:       299.
        3547    .._00130                 error_table_:       301.
        3565    .._00131                 error_table_:       303.
        3607    .._00132                 error_table_:       305.
        3621    .._00133                 error_table_:       310.
        3634    .._00134                 error_table_:       312.
        3651    .._00135                 error_table_:       314.
        3661    .._00136                 error_table_:       316.
        3672    .._00137                 error_table_:       318.
        3703    .._00140                 error_table_:       320.
        3715    .._00141                 error_table_:       322.
        3730    .._00142                 error_table_:       324.
        3741    .._00143                 error_table_:       326.
        3762    .._00144                 error_table_:       328.
        4001    .._00145                 error_table_:       330.
        4010    .._00146                 error_table_:       332.
        4040    .._00147                 error_table_:       334.
        4057    .._00150                 error_table_:       336.
        4076    .._00151                 error_table_:       338.
        4113    .._00152                 error_table_:       340.
        4125    .._00153                 error_table_:       342.
        4142    .._00154                 error_table_:       344.
        4155    .._00155                 error_table_:       346.
        4170    .._00156                 error_table_:       348.
        4202    .._00157                 error_table_:       350.
        4215    .._00160                 error_table_:       352.
        4234    .._00161                 error_table_:       354.
        4244    .._00162                 error_table_:       356.
        4255    .._00163                 error_table_:       358.
        4266    .._00164                 error_table_:       360.
        4303    .._00165                 error_table_:       362.
        4317    .._00166                 error_table_:       364.
        4335    .._00167                 error_table_:       366.
        4357    .._00170                 error_table_:       368.
        4372    .._00171                 error_table_:       370.
        4412    .._00172                 error_table_:       372.
        4435    .._00173                 error_table_:       374.
        4463    .._00174                 error_table_:       376.
        4472    .._00175                 error_table_:       378.
        4502    .._00176                 error_table_:       380.
        4516    .._00177                 error_table_:       382.
        4525    .._00200                 error_table_:       384.
        4535    .._00201                 error_table_:       386.
        4554    .._00202                 error_table_:       388.
        4574    .._00203                 error_table_:       390.
        4606    .._00204                 error_table_:       392.
        4621    .._00205                 error_table_:       394.
        4637    .._00206                 error_table_:       396.
        4650    .._00207                 error_table_:       398.
        4670    .._00210                 error_table_:       400.
        4707    .._00211                 error_table_:       402.
        4723    .._00212                 error_table_:       404.
        4742    .._00213                 error_table_:       406.
        4765    .._00214                 error_table_:       408.
        5000    .._00215                 error_table_:       410.
        5020    .._00216                 error_table_:       412.
        5033    .._00217                 error_table_:       414.
        5045    .._00220                 error_table_:       416.
        5066    .._00221                 error_table_:       418.
        5101    .._00222                 error_table_:       419.
        5120    .._00223                 error_table_:       422.
        5134    .._00224                 error_table_:       424.
        5146    .._00225                 error_table_:       426.
        5160    .._00226                 error_table_:       428.
        5176    .._00227                 error_table_:       430.
        5220    .._00230                 error_table_:       432.
        5235    .._00231                 error_table_:       434.
        5254    .._00232                 error_table_:       436.
        5267    .._00233                 error_table_:       438.
        5307    .._00234                 error_table_:       440.
        5321    .._00235                 error_table_:       442.
        5342    .._00236                 error_table_:       447.
        5362    .._00237                 error_table_:       452.
        5375    .._00240                 error_table_:       456.
        5407    .._00241                 error_table_:       461.
        5430    .._00242                 error_table_:       465.
        5443    .._00243                 error_table_:       470.
        5455    .._00244                 error_table_:       474.
        5473    .._00245                 error_table_:       480.
        5515    .._00246                 error_table_:       485.
        5530    .._00247                 error_table_:       489.
        5543    .._00250                 error_table_:       493.
        5554    .._00251                 error_table_:       497.
        5571    .._00252                 error_table_:       501.
        5611    .._00253                 error_table_:       505.
        5634    .._00254                 error_table_:       511.
        5651    .._00255                 error_table_:       515.
        5670    .._00256                 error_table_:       519.
        5705    .._00257                 error_table_:       524.
        5725    .._00260                 error_table_:       528.
        5745    .._00261                 error_table_:       533.
        5765    .._00262                 error_table_:       538.
        6007    .._00263                 error_table_:       542.
        6027    .._00264                 error_table_:       551.
        6045    .._00265                 error_table_:       556.
        6063    .._00266                 error_table_:       561.
        6106    .._00267                 error_table_:       566.
        6132    .._00270                 error_table_:       570.
        6146    .._00271                 error_table_:       572.
        6164    .._00272                 error_table_:       574.
        6200    .._00273                 error_table_:       576.
        6220    .._00274                 error_table_:       578.
        6240    .._00275                 error_table_:       580.
        6253    .._00276                 error_table_:       582.
        6275    .._00277                 error_table_:       584.
        6303    .._00300                 error_table_:       586.
        6312    .._00301                 error_table_:       588.
        6320    .._00302                 error_table_:       590.
        6330    .._00303                 error_table_:       592.
        6341    .._00304                 error_table_:       594.
        6351    .._00305                 error_table_:       596.
        6363    .._00306                 error_table_:       598.
        6376    .._00307                 error_table_:       600.
        6412    .._00310                 error_table_:       602.
        6424    .._00311                 error_table_:       604.
        6437    .._00312                 error_table_:       606.
        6450    .._00313                 error_table_:       608.
        6466    .._00314                 error_table_:       610.
        6476    .._00315                 error_table_:       612.
        6513    .._00316                 error_table_:       614.
        6526    .._00317                 error_table_:       616.
        6543    .._00320                 error_table_:       618.
        6562    .._00321                 error_table_:       620.
        6604    .._00322                 error_table_:       622.
        6614    .._00323                 error_table_:       624.
        6633    .._00324                 error_table_:       626.
        6657    .._00325                 error_table_:       628.
        6673    .._00326                 error_table_:       630.
        6703    .._00327                 error_table_:       632.
        6712    .._00330                 error_table_:       634.
        6722    .._00331                 error_table_:       636.
        6733    .._00332                 error_table_:       638.
        6744    .._00333                 error_table_:       640.
        6757    .._00334                 error_table_:       642.
        6767    .._00335                 error_table_:       644.
        6777    .._00336                 error_table_:       646.
        7012    .._00337                 error_table_:       648.
        7032    .._00340                 error_table_:       650.
        7053    .._00341                 error_table_:       652.
        7076    .._00342                 error_table_:       654.
        7115    .._00343                 error_table_:       656.
        7132    .._00344                 error_table_:       658.
        7151    .._00345                 error_table_:       660.
        7171    .._00346                 error_table_:       662.
        7217    .._00347                 error_table_:       664.
        7237    .._00350                 error_table_:       666.
        7253    .._00351                 error_table_:       668.
        7265    .._00352                 error_table_:       670.
        7275    .._00353                 error_table_:       672.
        7310    .._00354                 error_table_:       674.
        7322    .._00355                 error_table_:       676.
        7342    .._00356                 error_table_:       678.
        7355    .._00357                 error_table_:       680.
        7371    .._00360                 error_table_:       682.
        7411    .._00361                 error_table_:       684.
        7433    .._00362                 error_table_:       686.
        7446    .._00363                 error_table_:       688.
        7464    .._00364                 error_table_:       690.
        7504    .._00365                 error_table_:       692.
        7517    .._00366                 error_table_:       694.
        7537    .._00367                 error_table_:       696.
        7560    .._00370                 error_table_:       699.
        7571    .._00371                 error_table_:       704.
        7607    .._00372                 error_table_:       706.
        7625    .._00373                 error_table_:       708.
        7643    .._00374                 error_table_:       710.
        7671    .._00375                 error_table_:       712.
        7712    .._00376                 error_table_:       714.
        7726    .._00377                 error_table_:       716.
        7746    .._00400                 error_table_:       718.
        7765    .._00401                 error_table_:       720.
       10000    .._00402                 error_table_:       722.
       10012    .._00403                 error_table_:       724.
       10031    .._00404                 error_table_:       726.
       10053    .._00405                 error_table_:       728.
       10070    .._00406                 error_table_:       730.
       10102    .._00407                 error_table_:       732.
       10116    .._00410                 error_table_:       734.
       10132    .._00411                 error_table_:       736.
       10142    .._00412                 error_table_:       738.
       10161    .._00413                 error_table_:       740.
       10173    .._00414                 error_table_:       742.
       10224    .._00415                 error_table_:       744.
       10243    .._00416                 error_table_:       746.
       10256    .._00417                 error_table_:       748.
       10275    .._00420                 error_table_:       750.
       10325    .._00421                 error_table_:       752.
       10351    .._00422                 error_table_:       754.
       10363    .._00423                 error_table_:       756.
       10402    .._00424                 error_table_:       758.
       10425    .._00425                 error_table_:       760.
       10440    .._00426                 error_table_:       762.
       10452    .._00427                 error_table_:       764.
       10470    .._00430                 error_table_:       766.
       10517    .._00431                 error_table_:       768.
       10537    .._00432                 error_table_:       770.
       10566    .._00433                 error_table_:       772.
       10603    .._00434                 error_table_:       774.
       10615    .._00435                 error_table_:       776.
       10641    .._00436                 error_table_:       778.
       10656    .._00437                 error_table_:       780.
       10707    .._00440                 error_table_:       782.
       10737    .._00441                 error_table_:       784.
       10763    .._00442                 error_table_:       786.
       11003    .._00443                 error_table_:       788.
       11026    .._00444                 error_table_:       790.
       11043    .._00445                 error_table_:       792.
       11063    .._00446                 error_table_:       794.
       11105    .._00447                 error_table_:       796.
       11125    .._00450                 error_table_:       798.
       11146    .._00451                 error_table_:       800.
       11175    .._00452                 error_table_:       802.
       11225    .._00453                 error_table_:       804.
       11245    .._00454                 error_table_:       806.
       11261    .._00455                 error_table_:       808.
       11276    .._00456                 error_table_:       810.
       11317    .._00457                 error_table_:       812.
       11336    .._00460                 error_table_:       814.
       11351    .._00461                 error_table_:       816.
       11370    .._00462                 error_table_:       818.
       11404    .._00463                 error_table_:       820.
       11423    .._00464                 error_table_:       822.
       11437    .._00465                 error_table_:       824.
       11452    .._00466                 error_table_:       826.
       11462    .._00467                 error_table_:       828.
       11472    .._00470                 error_table_:       830.
       11514    .._00471                 error_table_:       832.
       11535    .._00472                 error_table_:       834.
       11551    .._00473                 error_table_:       836.
       11560    .._00474                 error_table_:       838.
       11567    .._00475                 error_table_:       840.
       11602    .._00476                 error_table_:       842.
       11616    .._00477                 error_table_:       844.
       11633    .._00500                 error_table_:       846.
       11646    .._00501                 error_table_:       848.
       11664    .._00502                 error_table_:       850.
       11673    .._00503                 error_table_:       852.
       11720    .._00504                 error_table_:       854.
       11740    .._00505                 error_table_:       856.
       11752    .._00506                 error_table_:       858.
       11776    .._00507                 error_table_:       860.
       12014    .._00510                 error_table_:       862.
       12036    .._00511                 error_table_:       864.
       12060    .._00512                 error_table_:       866.
       12077    .._00513                 error_table_:       868.
       12115    .._00514                 error_table_:       870.
       12133    .._00515                 error_table_:       872.
       12155    .._00516                 error_table_:       874.
       12173    .._00517                 error_table_:       876.
       12210    .._00520                 error_table_:       878.
       12231    .._00521                 error_table_:       880.
       12242    .._00522                 error_table_:       882.
       12253    .._00523                 error_table_:       884.
       12264    .._00524                 error_table_:       886.
       12303    .._00525                 error_table_:       888.
       12321    .._00526                 error_table_:       890.
       12332    .._00527                 error_table_:       892.
       12354    .._00530                 error_table_:       894.
       12370    .._00531                 error_table_:       896.
       12404    .._00532                 error_table_:       898.
       12417    .._00533                 error_table_:       900.
       12432    .._00534                 error_table_:       902.
       12445    .._00535                 error_table_:       904.
       12454    .._00536                 error_table_:       906.
       12472    .._00537                 error_table_:       908.
       12511    .._00540                 error_table_:       910.
       12525    .._00541                 error_table_:       912.
       12560    .._00542                 error_table_:       914.
       12570    .._00543                 error_table_:       916.
       12610    .._00544                 error_table_:       918.
       12634    .._00545                 error_table_:       920.
       12655    .._00546                 error_table_:       922.
       12676    .._00547                 error_table_:       924.
       12716    .._00550                 error_table_:       926.
       12736    .._00551                 error_table_:       928.
       12754    .._00552                 error_table_:       930.
       12777    .._00553                 error_table_:       932.
       13013    .._00554                 error_table_:       934.
       13031    .._00555                 error_table_:       936.
       13052    .._00556                 error_table_:       938.
       13075    .._00557                 error_table_:       940.
       13110    .._00560                 error_table_:       942.
       13124    .._00561                 error_table_:       944.
       13141    .._00562                 error_table_:       946.
       13160    .._00563                 error_table_:       948.
       13171    .._00564                 error_table_:       950.
       13207    .._00565                 error_table_:       952.
       13216    .._00566                 error_table_:       954.
       13236    .._00567                 error_table_:       956.
       13254    .._00570                 error_table_:       958.
       13267    .._00571                 error_table_:       960.
       13310    .._00572                 error_table_:       962.
       13320    .._00573                 error_table_:       964.
       13333    .._00574                 error_table_:       966.
       13344    .._00575                 error_table_:       968.
       13356    .._00576                 error_table_:       970.
       13370    .._00577                 error_table_:       972.
       13401    .._00600                 error_table_:       974.
       13414    .._00601                 error_table_:       976.
       13424    .._00602                 error_table_:       978.
       13436    .._00603                 error_table_:       980.
       13456    .._00604                 error_table_:       982.
       13474    .._00605                 error_table_:       984.
       13521    .._00606                 error_table_:       986.
       13531    .._00607                 error_table_:       988.
       13540    .._00610                 error_table_:       990.
       13560    .._00611                 error_table_:       992.
       13603    .._00612                 error_table_:       994.
       13623    .._00613                 error_table_:       996.
       13645    .._00614                 error_table_:       998.
       13662    .._00615                 error_table_:      1000.
       13672    .._00616                 error_table_:      1002.
       13711    .._00617                 error_table_:      1004.
       13721    .._00620                 error_table_:      1006.
       13740    .._00621                 error_table_:      1008.
       13757    .._00622                 error_table_:      1010.
       13776    .._00623                 error_table_:      1012.
       14014    .._00624                 error_table_:      1014.
       14035    .._00625                 error_table_:      1016.
       14057    .._00626                 error_table_:      1018.
       14074    .._00627                 error_table_:      1020.
       14112    .._00630                 error_table_:      1022.
       14127    .._00631                 error_table_:      1024.
       14146    .._00632                 error_table_:      1026.
       14167    .._00633                 error_table_:      1028.
       14210    .._00634                 error_table_:      1030.
       14231    .._00635                 error_table_:      1032.
       14243    .._00636                 error_table_:      1034.
       14265    .._00637                 error_table_:      1036.
       14302    .._00640                 error_table_:      1038.
       14316    .._00641                 error_table_:      1040.
       14327    .._00642                 error_table_:      1042.
       14342    .._00643                 error_table_:      1044.
       14365    .._00644                 error_table_:      1046.
       14401    .._00645                 error_table_:      1048.
       14423    .._00646                 error_table_:      1050.
       14441    .._00647                 error_table_:      1052.
       14453    .._00650                 error_table_:      1054.
       14472    .._00651                 error_table_:      1056.
       14513    .._00652                 error_table_:      1058.
       14524    .._00653                 error_table_:      1060.
       14535    .._00654                 error_table_:      1062.
       14550    .._00655                 error_table_:      1064.
       14566    .._00656                 error_table_:      1066.
       14604    .._00657                 error_table_:      1068.
       14625    .._00660                 error_table_:      1070.
       14644    .._00661                 error_table_:      1072.
       14657    .._00662                 error_table_:      1074.
       14671    .._00663                 error_table_:      1076.
       14702    .._00664                 error_table_:      1078.
       14712    .._00665                 error_table_:      1080.
       14732    .._00666                 error_table_:      1082.
       14752    .._00667                 error_table_:      1084.
       14772    .._00670                 error_table_:      1086.
       15002    .._00671                 error_table_:      1088.
       15020    .._00672                 error_table_:      1090.
       15036    .._00673                 error_table_:      1092.
       15056    .._00674                 error_table_:      1094.
       15072    .._00675                 error_table_:      1096.
       15100    .._00676                 error_table_:      1098.
       15117    .._00677                 error_table_:      1100.
       15132    .._00700                 error_table_:      1102.
       15147    .._00701                 error_table_:      1104.
       15163    .._00702                 error_table_:      1106.
       15174    .._00703                 error_table_:      1108.
       15212    .._00704                 error_table_:      1110.
       15225    .._00705                 error_table_:      1112.
       15241    .._00706                 error_table_:      1114.
       15256    .._00707                 error_table_:      1116.
       15265    .._00710                 error_table_:      1118.
       15306    .._00711                 error_table_:      1120.
       15324    .._00712                 error_table_:      1122.
       15346    .._00713                 error_table_:      1124.
       15363    .._00714                 error_table_:      1126.
       15373    .._00715                 error_table_:      1128.
       15405    .._00716                 error_table_:      1130.
       15414    .._00717                 error_table_:      1132.
       15433    .._00720                 error_table_:      1134.
       15450    .._00721                 error_table_:      1136.
       15467    .._00722                 error_table_:      1138.
       15510    .._00723                 error_table_:      1140.
       15524    .._00724                 error_table_:      1142.
       15535    .._00725                 error_table_:      1144.
       15552    .._00726                 error_table_:      1146.
       15565    .._00727                 error_table_:      1148.
       15600    .._00730                 error_table_:      1150.
       15610    .._00731                 error_table_:      1152.
       15626    .._00732                 error_table_:      1154.
       15645    .._00733                 error_table_:      1156.
       15667    .._00734                 error_table_:      1158.
       15701    .._00735                 error_table_:      1160.
       15716    .._00736                 error_table_:      1162.
       15740    .._00737                 error_table_:      1164.
       15756    .._00740                 error_table_:      1166.
       15767    .._00741                 error_table_:      1168.
       16003    .._00742                 error_table_:      1170.
       16012    .._00743                 error_table_:      1172.
       16031    .._00744                 error_table_:      1174.
       16045    .._00745                 error_table_:      1176.
       16063    .._00746                 error_table_:      1178.
       16103    .._00747                 error_table_:      1180.
       16121    .._00750                 error_table_:      1182.
       16137    .._00751                 error_table_:      1184.
       16151    .._00752                 error_table_:      1186.
       16164    .._00753                 error_table_:      1188.
       16176    .._00754                 error_table_:      1190.
       16206    .._00755                 error_table_:      1192.
       16226    .._00756                 error_table_:      1194.
       16242    .._00757                 error_table_:      1196.
       16260    .._00760                 error_table_:      1198.
       16300    .._00761                 error_table_:      1200.
       16311    .._00762                 error_table_:      1202.
       16325    .._00763                 error_table_:      1204.
       16342    .._00764                 error_table_:      1206.
       16352    .._00765                 error_table_:      1208.
       16363    .._00766                 error_table_:      1210.
       16374    .._00767                 error_table_:      1212.
       16416    .._00770                 error_table_:      1214.
       16424    .._00771                 error_table_:      1216.
       16436    .._00772                 error_table_:      1218.
       16452    .._00773                 error_table_:      1220.
       16472    .._00774                 error_table_:      1222.
       16502    .._00775                 error_table_:      1224.
       16521    .._00776                 error_table_:      1226.
       16545    .._00777                 error_table_:      1228.
       16561    .._01000                 error_table_:      1230.
       16573    .._01001                 error_table_:      1232.
       16604    .._01002                 error_table_:      1234.
       16617    .._01003                 error_table_:      1236.
       16632    .._01004                 error_table_:      1238.
       16644    .._01005                 error_table_:      1240.
       16661    .._01006                 error_table_:      1242.
       16676    .._01007                 error_table_:      1244.
       16711    .._01010                 error_table_:      1246.
       16730    .._01011                 error_table_:      1248.
       16741    .._01012                 error_table_:      1250.
       16754    .._01013                 error_table_:      1252.
       16762    .._01014                 error_table_:      1254.
       16774    .._01015                 error_table_:      1256.
       17005    .._01016                 error_table_:      1258.
       17022    .._01017                 error_table_:      1260.
       17046    .._01020                 error_table_:      1262.
       17066    .._01021                 error_table_:      1264.
       17102    .._01022                 error_table_:      1266.
       17124    .._01023                 error_table_:      1268.
       17146    .._01024                 error_table_:      1270.
       17166    .._01025                 error_table_:      1272.
       17207    .._01026                 error_table_:      1274.
       17227    .._01027                 error_table_:      1276.
       17236    .._01030                 error_table_:      1278.
       17252    .._01031                 error_table_:      1282.
       17272    .._01032                 error_table_:      1286.
       17310    .._01033                 error_table_:      1290.
       17321    .._01034                 error_table_:      1292.
       17333    .._01035                 error_table_:      1294.
       17346    .._01036                 error_table_:      1296.
       17364    .._01037                 error_table_:      1298.
       17376    .._01040                 error_table_:      1300.
       17416    .._01041                 error_table_:      1302.
       17433    .._01042                 error_table_:      1304.
       17446    .._01043                 error_table_:      1306.
       17457    .._01044                 error_table_:      1308.
       17474    .._01045                 error_table_:      1310.
       17516    .._01046                 error_table_:      1312.
       17532    .._01047                 error_table_:      1314.
       17550    .._01050                 error_table_:      1316.
       17562    .._01051                 error_table_:      1318.
       17601    .._01052                 error_table_:      1320.
       17612    .._01053                 error_table_:      1322.
       17625    .._01054                 error_table_:      1324.
       17655    .._01055                 error_table_:      1326.
       17664    .._01056                 error_table_:      1328.
       17710    .._01057                 error_table_:      1330.
       17724    .._01060                 error_table_:      1332.
       17737    .._01061                 error_table_:      1334.
       17751    .._01062                 error_table_:      1336.
       17764    .._01063                 error_table_:      1338.
       20011    .._01064                 error_table_:      1340.
       20030    .._01065                 error_table_:      1342.
       20040    .._01066                 error_table_:      1344.
       20056    .._01067                 error_table_:      1346.
       20074    .._01070                 error_table_:      1348.
       20113    .._01071                 error_table_:      1350.
       20133    .._01072                 error_table_:      1352.
       20144    .._01073                 error_table_:      1354.
       20163    .._01074                 error_table_:      1356.
       20201    .._01075                 error_table_:      1358.
       20211    .._01076                 error_table_:      1360.
       20222    .._01077                 error_table_:      1362.
       20244    .._01100                 error_table_:      1364.
       20257    .._01101                 error_table_:      1366.
       20275    .._01102                 error_table_:      1368.
       20314    .._01103                 error_table_:      1370.
       20330    .._01104                 error_table_:      1372.
       20346    .._01105                 error_table_:      1374.
       20361    .._01106                 error_table_:      1376.
       20374    .._01107                 error_table_:      1378.
       20416    .._01110                 error_table_:      1380.
       20427    .._01111                 error_table_:      1382.
       20437    .._01112                 error_table_:      1384.
       20454    .._01113                 error_table_:      1386.
       20474    .._01114                 error_table_:      1388.
       20510    .._01115                 error_table_:      1390.
       20531    .._01116                 error_table_:      1392.
       20550    .._01117                 error_table_:      1394.
       20562    .._01120                 error_table_:      1396.
       20601    .._01121                 error_table_:      1398.
       20624    .._01122                 error_table_:      1400.
       20636    .._01123                 error_table_:      1402.
       20645    .._01124                 error_table_:      1404.
       20657    .._01125                 error_table_:      1406.
       20674    .._01126                 error_table_:      1408.
       20707    .._01127                 error_table_:      1410.
       20721    .._01130                 error_table_:      1412.
       20731    .._01131                 error_table_:      1414.
       20743    .._01132                 error_table_:      1416.
       20753    .._01133                 error_table_:      1418.
       20767    .._01134                 error_table_:      1420.
       21002    .._01135                 error_table_:      1424.
       21013    .._01136                 error_table_:      1426.
       21041    .._01137                 error_table_:      1428.
       21060    .._01140                 error_table_:      1430.
       21077    .._01141                 error_table_:      1432.
       21114    .._01142                 error_table_:      1434.
       21133    .._01143                 error_table_:      1436.
       21143    .._01144                 error_table_:      1438.
       21157    .._01145                 error_table_:      1440.
       21173    .._01146                 error_table_:      1442.
       21210    .._01147                 error_table_:      1444.
       21232    .._01150                 error_table_:      1446.
       21237    .._01151                 error_table_:      1448.
       21261    .._01152                 error_table_:      1450.
       21274    .._01153                 error_table_:      1452.
       21315    .._01154                 error_table_:      1454.
       21332    .._01155                 error_table_:      1456.
       21352    .._01156                 error_table_:      1458.
       21363    .._01157                 error_table_:      1460.
       21375    .._01160                 error_table_:      1462.
       21410    .._01161                 error_table_:      1464.
       21434    .._01162                 error_table_:      1466.
       21444    .._01163                 error_table_:      1468.
       21464    .._01164                 error_table_:      1473.
       21502    .._01165                 error_table_:      1475.
       21512    .._01166                 error_table_:      1477.
       21522    .._01167                 error_table_:      1479.
       21535    .._01170                 error_table_:      1481.
       21544    .._01171                 error_table_:      1483.
       21553    .._01172                 error_table_:      1485.
       21576    .._01173                 error_table_:      1487.
       21610    .._01174                 error_table_:      1489.
       21621    .._01175                 error_table_:      1491.
       21632    .._01176                 error_table_:      1493.
       21642    .._01177                 error_table_:      1495.
       21651    .._01200                 error_table_:      1497.
       21662    .._01201                 error_table_:      1499.
       21700    .._01202                 error_table_:      1501.
       21722    .._01203                 error_table_:      1503.
       21743    .._01204                 error_table_:      1505.
       21763    .._01205                 error_table_:      1507.
       22004    .._01206                 error_table_:      1509.
       22020    .._01207                 error_table_:      1511.
       22037    .._01210                 error_table_:      1513.
       22063    .._01211                 error_table_:      1515.
       22104    .._01212                 error_table_:      1519.
       22124    .._01213                 error_table_:      1521.
       22142    .._01214                 error_table_:      1523.
       22155    .._01215                 error_table_:      1528.
       22173    .._01216                 error_table_:      1530.
       22214    .._01217                 error_table_:      1532.
       22230    .._01220                 error_table_:      1534.
       22245    .._01221                 error_table_:      1536.
       22267    .._01222                 error_table_:      1538.
       22306    .._01223                 error_table_:      1540.
       22321    .._01224                 error_table_:      1542.
       22336    .._01225                 error_table_:      1544.
       22352    .._01226                 error_table_:      1546.
       22364    .._01227                 error_table_:      1548.
       22401    .._01230                 error_table_:      1550.
       22415    .._01231                 error_table_:      1552.
       22430    .._01232                 error_table_:      1554.
       22443    .._01233                 error_table_:      1556.
       22461    .._01234                 error_table_:      1558.
       22505    .._01235                 error_table_:      1560.
       22516    .._01236                 error_table_:      1562.
       22531    .._01237                 error_table_:      1564.
       22551    .._01240                 error_table_:      1566.
       22564    .._01241                 error_table_:      1568.
       22574    .._01242                 error_table_:      1570.
       22614    .._01243                 error_table_:      1572.
       77777    .segno                   error_table_:       107,  112,  114,  116,  118,  120,  122,  124,  126,  128,  130,
                                                             132,  134,  136,  138,  140,  142,  144,  146,  148,  150,  152,
                                                             154,  156,  158,  160,  162,  164,  166,  168,  170,  172,  174,
                                                             176,  178,  180,  182,  184,  186,  188,  190,  192,  194,  196,
                                                             198,  203,  205,  207,  212,  214,  216,  218,  220,  222,  224,
                                                             226,  228,  230,  236,  238,  240,  242,  244,  246,  248,  250,
                                                             252,  254,  256,  258,  260,  262,  264,  266,  268,  270,  272,
                                                             274,  276,  278,  280,  282,  284,  286,  288,  293,  295,  297,
                                                             299,  301,  303,  305,  310,  312,  314,  316,  318,  320,  322,
                                                             324,  326,  328,  330,  332,  334,  336,  338,  340,  342,  344,
                                                             346,  348,  350,  352,  354,  356,  358,  360,  362,  364,  366,
                                                             368,  370,  372,  374,  376,  378,  380,  382,  384,  386,  388,
                                                             390,  392,  394,  396,  398,  400,  402,  404,  406,  408,  410,
                                                             412,  414,  416,  418,  419,  422,  424,  426,  428,  430,  432,
                                                             434,  436,  438,  440,  442,  447,  452,  456,  461,  465,  470,
                                                             474,  480,  485,  489,  493,  497,  501,  505,  511,  515,  519,
                                                             524,  528,  533,  538,  542,  551,  556,  561,  566,  570,  572,
                                                             574,  576,  578,  580,  582,  584,  586,  588,  590,  592,  594,
                                                             596,  598,  600,  602,  604,  606,  608,  610,  612,  614,  616,
                                                             618,  620,  622,  624,  626,  628,  630,  632,  634,  636,  638,
                                                             640,  642,  644,  646,  648,  650,  652,  654,  656,  658,  660,
                                                             662,  664,  666,  668,  670,  672,  674,  676,  678,  680,  682,
                                                             684,  686,  688,  690,  692,  694,  696,  699,  704,  706,  708,
                                                             710,  712,  714,  716,  718,  720,  722,  724,  726,  728,  730,
                                                             732,  734,  736,  738,  740,  742,  744,  746,  748,  750,  752,
                                                             754,  756,  758,  760,  762,  764,  766,  768,  770,  772,  774,
                                                             776,  778,  780,  782,  784,  786,  788,  790,  792,  794,  796,
                                                             798,  800,  802,  804,  806,  808,  810,  812,  814,  816,  818,
                                                             820,  822,  824,  826,  828,  830,  832,  834,  836,  838,  840,
                                                             842,  844,  846,  848,  850,  852,  854,  856,  858,  860,  862,
                                                             864,  866,  868,  870,  872,  874,  876,  878,  880,  882,  884,
                                                             886,  888,  890,  892,  894,  896,  898,  900,  902,  904,  906,
                                                             908,  910,  912,  914,  916,  918,  920,  922,  924,  926,  928,
                                                             930,  932,  934,  936,  938,  940,  942,  944,  946,  948,  950,
                                                             952,  954,  956,  958,  960,  962,  964,  966,  968,  970,  972,
                                                             974,  976,  978,  980,  982,  984,  986,  988,  990,  992,  994,
                                                             996,  998, 1000, 1002, 1004, 1006, 1008, 1010, 1012, 1014, 1016,
                                                            1018, 1020, 1022, 1024, 1026, 1028, 1030, 1032, 1034, 1036, 1038,
                                                            1040, 1042, 1044, 1046, 1048, 1050, 1052, 1054, 1056, 1058, 1060,
                                                            1062, 1064, 1066, 1068, 1070, 1072, 1074, 1076, 1078, 1080, 1082,
                                                            1084, 1086, 1088, 1090, 1092, 1094, 1096, 1098, 1100, 1102, 1104,
                                                            1106, 1108, 1110, 1112, 1114, 1116, 1118, 1120, 1122, 1124, 1126,
                                                            1128, 1130, 1132, 1134, 1136, 1138, 1140, 1142, 1144, 1146, 1148,
                                                            1150, 1152, 1154, 1156, 1158, 1160, 1162, 1164, 1166, 1168, 1170,
                                                            1172, 1174, 1176, 1178, 1180, 1182, 1184, 1186, 1188, 1190, 1192,
                                                            1194, 1196, 1198, 1200, 1202, 1204, 1206, 1208, 1210, 1212, 1214,
                                                            1216, 1218, 1220, 1222, 1224, 1226, 1228, 1230, 1232, 1234, 1236,
                                                            1238, 1240, 1242, 1244, 1246, 1248, 1250, 1252, 1254, 1256, 1258,
                                                            1260, 1262, 1264, 1266, 1268, 1270, 1272, 1274, 1276, 1278, 1282,
                                                            1286, 1290, 1292, 1294, 1296, 1298, 1300, 1302, 1304, 1306, 1308,
                                                            1310, 1312, 1314, 1316, 1318, 1320, 1322, 1324, 1326, 1328, 1330,
                                                            1332, 1334, 1336, 1338, 1340, 1342, 1344, 1346, 1348, 1350, 1352,
                                                            1354, 1356, 1358, 1360, 1362, 1364, 1366, 1368, 1370, 1372, 1374,
                                                            1376, 1378, 1380, 1382, 1384, 1386, 1388, 1390, 1392, 1394, 1396,
                                                            1398, 1400, 1402, 1404, 1406, 1408, 1410, 1412, 1414, 1416, 1418,
                                                            1420, 1424, 1426, 1428, 1430, 1432, 1434, 1436, 1438, 1440, 1442,
                                                            1444, 1446, 1448, 1450, 1452, 1454, 1456, 1458, 1460, 1462, 1464,
                                                            1466, 1468, 1473, 1475, 1477, 1479, 1481, 1483, 1485, 1487, 1489,
                                                            1491, 1493, 1495, 1497, 1499, 1501, 1503, 1505, 1507, 1509, 1511,
                                                            1513, 1515, 1519, 1521, 1523, 1528, 1530, 1532, 1534, 1536, 1538,
                                                            1540, 1542, 1544, 1546, 1548, 1550, 1552, 1554, 1556, 1558, 1560,
                                                            1562, 1564, 1566, 1568, 1570, 1572.
           0    abs_reenter              error_table_:       112.
           1    abs_timer_runout         error_table_:       114.
           2    abs_wired_memory         error_table_:       116.
           3    action_not_performed     error_table_:       118.
           4    active_function          error_table_:       120.
           5    ai_above_allowed_max     error_table_:       122.
           6    ai_already_set           error_table_:       124.
           7    ai_entry_vtoce_mismatch  error_table_:       126.
          10    ai_invalid_binary        error_table_:       128.
          11    ai_invalid_range         error_table_:       130.
          12    ai_invalid_string        error_table_:       132.
          13    ai_no_common_max         error_table_:       134.
          15    ai_outside_common_range  error_table_:       138.
          14    ai_out_range             error_table_:       136.
          16    ai_parent_greater        error_table_:       140.
          17    ai_restricted            error_table_:       142.
          20    ai_son_less              error_table_:       144.
          21    already_assigned         error_table_:       146.
          22    already_initialized      error_table_:       148.
          23    apt_full                 error_table_:       150.
          24    archive_component_modification       error_table_:       152.
          25    archive_fmt_err          error_table_:       154.
          26    archive_pathname         error_table_:       156.
          27    area_too_small           error_table_:       158.
          31    argerr                   error_table_:       162.
          30    arg_ignored              error_table_:       160.
          36    asynch_change            error_table_:       172.
          37    asynch_deletion          error_table_:       174.
          40    asynch_insertion         error_table_:       176.
          32    as_bump_user_not_found   error_table_:       164.
          34    as_request_invalid_request     error_table_:       168.
          33    as_request_sender_missing      error_table_:       166.
          35    as_sac_command_read      error_table_:       170.
          41    att_loop                 error_table_:       178.
          42    auth_incorrect           error_table_:       180.
          43    auth_unknown             error_table_:       182.
          45    badarg                   error_table_:       186.
         132    badcall                  error_table_:       305.
         133    badequal                 error_table_:       310.
         134    badopt                   error_table_:       312.
         135    badpath                  error_table_:       314.
         136    badringno                error_table_:       316.
         137    badstar                  error_table_:       318.
         140    badsyntax                error_table_:       320.
          44    bad_acl_mode             error_table_:       184.
          45    bad_arg                  error_table_:       186.
          46    bad_arg_acc              error_table_:       188.
          47    bad_bar_sp               error_table_:       190.
          50    bad_channel              error_table_:       192.
          51    bad_class_def            error_table_:       194.
          52    bad_command_name         error_table_:       196.
          53    bad_conversion           error_table_:       198.
          54    bad_date                 error_table_:       203.
          55    bad_day_of_week          error_table_:       205.
          56    bad_deferred_init        error_table_:       207.
          57    bad_density              error_table_:       212.
          60    bad_dir                  error_table_:       214.
          61    bad_entry_point_name     error_table_:       216.
          62    bad_equal_name           error_table_:       218.
          63    bad_file                 error_table_:       220.
          64    bad_file_name            error_table_:       222.
          65    bad_first_ref_trap       error_table_:       224.
        1243    bad_forms_option         error_table_:      1572.
          66    bad_handler_access       error_table_:       226.
          67    bad_index                error_table_:       228.
          70    bad_indirect_def         error_table_:       230.
          71    bad_label                error_table_:       236.
          74    bad_linkage_access       error_table_:       242.
          72    bad_link_target_init_info      error_table_:       238.
          73    bad_link_type            error_table_:       240.
          75    bad_mbx_acl_awu          error_table_:       244.
          76    bad_mbx_acl_rs           error_table_:       246.
          77    bad_mode                 error_table_:       248.
         100    bad_mode_syntax          error_table_:       250.
         101    bad_mode_value           error_table_:       252.
         102    bad_mount_request        error_table_:       254.
         103    bad_mpx_load_data        error_table_:       256.
         104    bad_ms_file              error_table_:       258.
         105    bad_name                 error_table_:       260.
         106    bad_new_key              error_table_:       262.
         134    bad_opt                  error_table_:       312.
         107    bad_password             error_table_:       264.
         110    bad_pipe_syntax          error_table_:       266.
         112    bad_processid            error_table_:       270.
         111    bad_process_type         error_table_:       268.
         113    bad_ptr                  error_table_:       272.
         114    bad_resource_spec        error_table_:       274.
         540    bad_ring_brackets        error_table_:       910.
         115    bad_segment              error_table_:       276.
         116    bad_self_ref             error_table_:       278.
         117    bad_stack_access         error_table_:       280.
         120    bad_string               error_table_:       282.
         121    bad_subr_arg             error_table_:       284.
         122    bad_tapeid               error_table_:       286.
         123    bad_time                 error_table_:       288.
         124    bad_trap_before_link     error_table_:       293.
         125    bad_uidpath              error_table_:       295.
         126    bad_vchannel             error_table_:       297.
         127    bad_volid                error_table_:       299.
         130    bad_work_class           error_table_:       301.
         131    bad_year                 error_table_:       303.
         141    bdprtdmp                 error_table_:       322.
         142    begin_block              error_table_:       324.
         145    bigarg                   error_table_:       330.
         146    bigger_ext_variable      error_table_:       332.
         143    big_seg                  error_table_:       326.
         144    big_ws_req               error_table_:       328.
         147    bisync_bid_fail          error_table_:       334.
         150    bisync_block_bad         error_table_:       336.
         151    bisync_reverse_interrupt       error_table_:       338.
         152    blank_tape               error_table_:       340.
         153    boundviol                error_table_:       342.
         154    buffer_big               error_table_:       344.
         155    buffer_invalid_state     error_table_:       346.
         156    cannot_trace             error_table_:       348.
         157    change_first             error_table_:       350.
         160    chars_after_delim        error_table_:       352.
         161    checksum_failure         error_table_:       354.
         162    chnl_already_added       error_table_:       356.
         163    chnl_already_deleted     error_table_:       358.
         164    chnl_being_deleted       error_table_:       360.
         165    chnl_iom_active          error_table_:       362.
         166    chnl_iom_inactive        error_table_:       364.
         167    clnzero                  error_table_:       366.
           0    codes                    error_table_:       107,  112,  114,  116,  118,  120,  122,  124,  126,  128,  130,
                                                             132,  134,  136,  138,  140,  142,  144,  146,  148,  150,  152,
                                                             154,  156,  158,  160,  162,  164,  166,  168,  170,  172,  174,
                                                             176,  178,  180,  182,  184,  186,  188,  190,  192,  194,  196,
                                                             198,  203,  205,  207,  212,  214,  216,  218,  220,  222,  224,
                                                             226,  228,  230,  236,  238,  240,  242,  244,  246,  248,  250,
                                                             252,  254,  256,  258,  260,  262,  264,  266,  268,  270,  272,
                                                             274,  276,  278,  280,  282,  284,  286,  288,  293,  295,  297,
                                                             299,  301,  303,  305,  310,  312,  314,  316,  318,  320,  322,
                                                             324,  326,  328,  330,  332,  334,  336,  338,  340,  342,  344,
                                                             346,  348,  350,  352,  354,  356,  358,  360,  362,  364,  366,
                                                             368,  370,  372,  374,  376,  378,  380,  382,  384,  386,  388,
                                                             390,  392,  394,  396,  398,  400,  402,  404,  406,  408,  410,
                                                             412,  414,  416,  418,  419,  422,  424,  426,  428,  430,  432,
                                                             434,  436,  438,  440,  442,  447,  452,  456,  461,  465,  470,
                                                             474,  480,  485,  489,  493,  497,  501,  505,  511,  515,  519,
                                                             524,  528,  533,  538,  542,  551,  556,  561,  566,  570,  572,
                                                             574,  576,  578,  580,  582,  584,  586,  588,  590,  592,  594,
                                                             596,  598,  600,  602,  604,  606,  608,  610,  612,  614,  616,
                                                             618,  620,  622,  624,  626,  628,  630,  632,  634,  636,  638,
                                                             640,  642,  644,  646,  648,  650,  652,  654,  656,  658,  660,
                                                             662,  664,  666,  668,  670,  672,  674,  676,  678,  680,  682,
                                                             684,  686,  688,  690,  692,  694,  696,  699,  704,  706,  708,
                                                             710,  712,  714,  716,  718,  720,  722,  724,  726,  728,  730,
                                                             732,  734,  736,  738,  740,  742,  744,  746,  748,  750,  752,
                                                             754,  756,  758,  760,  762,  764,  766,  768,  770,  772,  774,
                                                             776,  778,  780,  782,  784,  786,  788,  790,  792,  794,  796,
                                                             798,  800,  802,  804,  806,  808,  810,  812,  814,  816,  818,
                                                             820,  822,  824,  826,  828,  830,  832,  834,  836,  838,  840,
                                                             842,  844,  846,  848,  850,  852,  854,  856,  858,  860,  862,
                                                             864,  866,  868,  870,  872,  874,  876,  878,  880,  882,  884,
                                                             886,  888,  890,  892,  894,  896,  898,  900,  902,  904,  906,
                                                             908,  910,  912,  914,  916,  918,  920,  922,  924,  926,  928,
                                                             930,  932,  934,  936,  938,  940,  942,  944,  946,  948,  950,
                                                             952,  954,  956,  958,  960,  962,  964,  966,  968,  970,  972,
                                                             974,  976,  978,  980,  982,  984,  986,  988,  990,  992,  994,
                                                             996,  998, 1000, 1002, 1004, 1006, 1008, 1010, 1012, 1014, 1016,
                                                            1018, 1020, 1022, 1024, 1026, 1028, 1030, 1032, 1034, 1036, 1038,
                                                            1040, 1042, 1044, 1046, 1048, 1050, 1052, 1054, 1056, 1058, 1060,
                                                            1062, 1064, 1066, 1068, 1070, 1072, 1074, 1076, 1078, 1080, 1082,
                                                            1084, 1086, 1088, 1090, 1092, 1094, 1096, 1098, 1100, 1102, 1104,
                                                            1106, 1108, 1110, 1112, 1114, 1116, 1118, 1120, 1122, 1124, 1126,
                                                            1128, 1130, 1132, 1134, 1136, 1138, 1140, 1142, 1144, 1146, 1148,
                                                            1150, 1152, 1154, 1156, 1158, 1160, 1162, 1164, 1166, 1168, 1170,
                                                            1172, 1174, 1176, 1178, 1180, 1182, 1184, 1186, 1188, 1190, 1192,
                                                            1194, 1196, 1198, 1200, 1202, 1204, 1206, 1208, 1210, 1212, 1214,
                                                            1216, 1218, 1220, 1222, 1224, 1226, 1228, 1230, 1232, 1234, 1236,
                                                            1238, 1240, 1242, 1244, 1246, 1248, 1250, 1252, 1254, 1256, 1258,
                                                            1260, 1262, 1264, 1266, 1268, 1270, 1272, 1274, 1276, 1278, 1282,
                                                            1286, 1290, 1292, 1294, 1296, 1298, 1300, 1302, 1304, 1306, 1308,
                                                            1310, 1312, 1314, 1316, 1318, 1320, 1322, 1324, 1326, 1328, 1330,
                                                            1332, 1334, 1336, 1338, 1340, 1342, 1344, 1346, 1348, 1350, 1352,
                                                            1354, 1356, 1358, 1360, 1362, 1364, 1366, 1368, 1370, 1372, 1374,
                                                            1376, 1378, 1380, 1382, 1384, 1386, 1388, 1390, 1392, 1394, 1396,
                                                            1398, 1400, 1402, 1404, 1406, 1408, 1410, 1412, 1414, 1416, 1418,
                                                            1420, 1424, 1426, 1428, 1430, 1432, 1434, 1436, 1438, 1440, 1442,
                                                            1444, 1446, 1448, 1450, 1452, 1454, 1456, 1458, 1460, 1462, 1464,
                                                            1466, 1468, 1473, 1475, 1477, 1479, 1481, 1483, 1485, 1487, 1489,
                                                            1491, 1493, 1495, 1497, 1499, 1501, 1503, 1505, 1507, 1509, 1511,
                                                            1513, 1515, 1519, 1521, 1523, 1528, 1530, 1532, 1534, 1536, 1538,
                                                            1540, 1542, 1544, 1546, 1548, 1550, 1552, 1554, 1556, 1558, 1560,
                                                            1562, 1564, 1566, 1568, 1570, 1572.
         170    command_line_overflow    error_table_:       368.
         171    command_name_not_available     error_table_:       370.
         172    copy_sw_on               error_table_:       372.
         173    cp_reserved_syntax       error_table_:       374.
         174    cyclic_syn               error_table_:       376.
         175    data_gain                error_table_:       378.
         176    data_improperly_terminated     error_table_:       380.
         177    data_loss                error_table_:       382.
         200    data_seq_error           error_table_:       384.
         201    date_conversion_error    error_table_:       386.
         202    deact_in_mem             error_table_:       388.
         203    defs_loop                error_table_:       390.
         206    device_active            error_table_:       396.
         207    device_attention         error_table_:       398.
         210    device_attention_during_tm     error_table_:       400.
         211    device_busy              error_table_:       402.
         212    device_code_alert        error_table_:       404.
         213    device_deletion_deferred       error_table_:       406.
         214    device_end               error_table_:       408.
         215    device_limit_exceeded    error_table_:       410.
         216    device_not_active        error_table_:       412.
         217    device_not_usable        error_table_:       414.
         220    device_parity            error_table_:       416.
         221    device_type_unknown      error_table_:       418.
         204    dev_nt_assnd             error_table_:       392.
         205    dev_offset_out_of_bounds       error_table_:       394.
         222    dial_active              error_table_:       419.
         223    dial_id_busy             error_table_:       422.
         225    dirlong                  error_table_:       426.
         226    dirseg                   error_table_:       428.
         224    dir_damage               error_table_:       424.
         227    discrepant_block_count   error_table_:       430.
         232    dmpinvld                 error_table_:       436.
         233    dmpr_in_use              error_table_:       438.
         234    dmpvalid                 error_table_:       440.
         230    dm_journal_pages_held    error_table_:       432.
         231    dm_not_enabled           error_table_:       434.
         235    dt_ambiguous_time        error_table_:       442.
         236    dt_bad_day_of_week       error_table_:       447.
         237    dt_bad_dm                error_table_:       452.
         240    dt_bad_dy                error_table_:       456.
         241    dt_bad_format_selector   error_table_:       461.
         242    dt_bad_fw                error_table_:       465.
         243    dt_bad_my                error_table_:       470.
         244    dt_conflict              error_table_:       474.
         245    dt_date_not_exist        error_table_:       480.
         246    dt_date_too_big          error_table_:       485.
         247    dt_date_too_small        error_table_:       489.
         250    dt_hour_gt_twelve        error_table_:       493.
         251    dt_multiple_date_spec    error_table_:       497.
         252    dt_multiple_diw_spec     error_table_:       501.
         253    dt_multiple_meaning      error_table_:       505.
         254    dt_multiple_time_spec    error_table_:       511.
         255    dt_multiple_zone_spec    error_table_:       515.
         256    dt_no_format_selector    error_table_:       519.
         257    dt_no_interval_units     error_table_:       524.
         260    dt_offset_too_big_negative     error_table_:       528.
         261    dt_offset_too_big_positive     error_table_:       533.
         262    dt_size_error            error_table_:       538.
         263    dt_time_conversion_error       error_table_:       542.
         264    dt_unknown_time_language       error_table_:       551.
         265    dt_unknown_word          error_table_:       556.
         266    dt_year_too_big          error_table_:       561.
         267    dt_year_too_small        error_table_:       566.
         271    duplicate_file_id        error_table_:       572.
         272    duplicate_request        error_table_:       574.
         270    dup_ent_name             error_table_:       570.
         273    echnego_awaiting_stop_sync     error_table_:       576.
         274    ect_already_initialized  error_table_:       578.
         275    ect_full                 error_table_:       580.
         276    eight_unaligned          error_table_:       582.
         277    empty_acl                error_table_:       584.
         300    empty_archive            error_table_:       586.
         301    empty_file               error_table_:       588.
         302    empty_search_list        error_table_:       590.
         303    end_of_info              error_table_:       592.
         304    entlong                  error_table_:       594.
         305    eof_record               error_table_:       596.
         306    eov_on_write             error_table_:       598.
         307    event_calls_not_masked   error_table_:       600.
         310    event_channel_cutoff     error_table_:       602.
         311    event_channel_not_cutoff       error_table_:       604.
         312    fatal_error              error_table_:       606.
         313    file_aborted             error_table_:       608.
         314    file_already_opened      error_table_:       610.
         315    file_busy                error_table_:       612.
         316    file_is_full             error_table_:       614.
         317    file_not_opened          error_table_:       616.
         320    fim_fault                error_table_:       618.
         321    first_reference_trap     error_table_:       620.
         322    fnp_down                 error_table_:       622.
         323    force_unassign           error_table_:       624.
         324    frame_scope_err          error_table_:       626.
         325    fsdisk_bad_label         error_table_:       628.
         326    fsdisk_drive_in_use      error_table_:       630.
         327    fsdisk_not_ready         error_table_:       632.
         330    fsdisk_not_salv          error_table_:       634.
         331    fsdisk_not_storage       error_table_:       636.
         332    fsdisk_old_label         error_table_:       638.
         333    fsdisk_old_vtoc          error_table_:       640.
         334    fsdisk_phydev_err        error_table_:       642.
         335    fsdisk_pvtx_oob          error_table_:       644.
         337    fulldir                  error_table_:       648.
         336    full_hashtbl             error_table_:       646.
         340    hardcore_sdw             error_table_:       650.
         341    higher_inconsistency     error_table_:       652.
         342    id_already_exists        error_table_:       654.
         343    id_not_found             error_table_:       656.
         344    illegal_activation       error_table_:       658.
         345    illegal_deactivation     error_table_:       660.
         346    illegal_ft2              error_table_:       662.
         347    illegal_record_size      error_table_:       664.
         354    improper_data_format     error_table_:       674.
         355    improper_termination     error_table_:       676.
         350    imp_bad_format           error_table_:       666.
         351    imp_bad_status           error_table_:       668.
         352    imp_down                 error_table_:       670.
         353    imp_rfnm_pending         error_table_:       672.
         356    incompatible_attach      error_table_:       678.
         357    incompatible_encoding_mode     error_table_:       680.
         360    incompatible_file_attribute    error_table_:       682.
         361    incompatible_term_type   error_table_:       684.
         362    incomplete_access_name   error_table_:       686.
         363    inconsistent             error_table_:       688.
         364    inconsistent_ect         error_table_:       690.
         365    inconsistent_msf         error_table_:       692.
         370    inconsistent_object_msf  error_table_:       699.
         366    inconsistent_rnt         error_table_:       694.
         367    inconsistent_sst         error_table_:       696.
         371    incorrect_access         error_table_:       704.
         372    incorrect_device_type    error_table_:       706.
         373    incorrect_volume_type    error_table_:       708.
         374    infcnt_non_zero          error_table_:       710.
         375    insufficient_access      error_table_:       712.
         376    insufficient_open        error_table_:       714.
         453    invalidsegno             error_table_:       804.
         377    invalid_array_size       error_table_:       716.
         400    invalid_ascii            error_table_:       718.
         401    invalid_backspace_read   error_table_:       720.
         402    invalid_block_length     error_table_:       722.
         403    invalid_channel          error_table_:       724.
         404    invalid_copy             error_table_:       726.
         405    invalid_cseg             error_table_:       728.
         406    invalid_delay_value      error_table_:       730.
         407    invalid_device           error_table_:       732.
         410    invalid_dm_journal_index       error_table_:       734.
         411    invalid_elsize           error_table_:       736.
         412    invalid_expiration       error_table_:       738.
         413    invalid_file_set_format  error_table_:       740.
         414    invalid_heap             error_table_:       742.
         415    invalid_heap_var_size    error_table_:       744.
         416    invalid_label_format     error_table_:       746.
         417    invalid_line_type        error_table_:       748.
         420    invalid_lock_reset       error_table_:       750.
         421    invalid_max_length       error_table_:       752.
         422    invalid_mode             error_table_:       754.
         423    invalid_move_qmax        error_table_:       756.
         424    invalid_move_quota       error_table_:       758.
         425    invalid_mpx_type         error_table_:       760.
         426    invalid_preaccess_command      error_table_:       762.
         427    invalid_project_for_gate       error_table_:       764.
         430    invalid_ptr_target       error_table_:       766.
         431    invalid_pvtx             error_table_:       768.
         432    invalid_read             error_table_:       770.
         433    invalid_record_desc      error_table_:       772.
         434    invalid_record_length    error_table_:       774.
         435    invalid_resource_state   error_table_:       776.
         436    invalid_ring_brackets    error_table_:       778.
         437    invalid_seek_last_bound  error_table_:       780.
         440    invalid_setdelim         error_table_:       782.
         441    invalid_stack_creation   error_table_:       784.
         442    invalid_state            error_table_:       786.
         443    invalid_subsystem        error_table_:       788.
         444    invalid_system_type      error_table_:       790.
         445    invalid_tape_record_length     error_table_:       792.
         446    invalid_tp_value         error_table_:       794.
         447    invalid_volume_sequence  error_table_:       796.
         450    invalid_vtoce            error_table_:       798.
         451    invalid_vtocx            error_table_:       800.
         452    invalid_write            error_table_:       802.
         465    ioat_err                 error_table_:       824.
         466    iom_already_added        error_table_:       826.
         467    iom_already_deleted      error_table_:       828.
         470    iom_connect_fatal        error_table_:       830.
         471    iom_wrong_mailbox        error_table_:       832.
         472    iom_wrong_number         error_table_:       834.
         473    ioname_not_active        error_table_:       836.
         474    ioname_not_found         error_table_:       838.
         475    ionmat                   error_table_:       840.
         454    io_assigned              error_table_:       806.
         455    io_configured            error_table_:       808.
         460    io_not_assigned          error_table_:       814.
         461    io_not_available         error_table_:       816.
         462    io_not_configured        error_table_:       818.
         463    io_not_defined           error_table_:       820.
         456    io_no_path               error_table_:       810.
         457    io_no_permission         error_table_:       812.
         464    io_still_assnd           error_table_:       822.
         476    ips_has_occurred         error_table_:       842.
         477    item_too_big             error_table_:       844.
         500    itt_overflow             error_table_:       846.
         501    key_duplication          error_table_:       848.
         502    key_order                error_table_:       850.
         503    known_in_other_rings     error_table_:       852.
         504    last_reference           error_table_:       854.
         505    lesserr                  error_table_:       856.
         506    line_status_pending      error_table_:       858.
         507    link                     error_table_:       860.
         510    linkmoderr               error_table_:       862.
         511    listen_stopped           error_table_:       864.
         515    locked_by_other_process  error_table_:       872.
         516    locked_by_this_process   error_table_:       874.
         512    lock_is_invalid          error_table_:       866.
         513    lock_not_locked          error_table_:       868.
         514    lock_wait_time_exceeded  error_table_:       870.
         530    logical_volume_is_connected    error_table_:       894.
         531    logical_volume_is_defined      error_table_:       896.
         532    logical_volume_not_connected   error_table_:       898.
         533    logical_volume_not_defined     error_table_:       900.
         534    logical_volume_table_full      error_table_:       902.
         517    log_message_invalid_type       error_table_:       876.
         520    log_out_of_service       error_table_:       878.
         521    log_segment_damaged      error_table_:       880.
         522    log_segment_empty        error_table_:       882.
         523    log_segment_full         error_table_:       884.
         524    log_segment_invalid      error_table_:       886.
         525    log_uninitialized        error_table_:       888.
         526    log_vol_full             error_table_:       890.
         527    log_wakeup_table_full    error_table_:       892.
         536    longeql                  error_table_:       906.
         535    long_record              error_table_:       904.
         537    lost_device_position     error_table_:       908.
         540    lower_ring               error_table_:       910.
         541    malformed_list_template_entry  error_table_:       912.
         542    masked_channel           error_table_:       914.
         543    master_dir               error_table_:       916.
         544    max_depth_exceeded       error_table_:       918.
         545    mc_no_c_permission       error_table_:       920.
         546    mc_no_d_permission       error_table_:       922.
         547    mc_no_q_permission       error_table_:       924.
         550    mc_no_r_permission       error_table_:       926.
         551    mdc_bad_quota            error_table_:       928.
         552    mdc_exec_access          error_table_:       930.
         553    mdc_illegal_account      error_table_:       932.
         554    mdc_illegal_owner        error_table_:       934.
         556    mdc_mdirs_registered     error_table_:       938.
         555    mdc_mdir_registered      error_table_:       936.
         562    mdc_not_mdir             error_table_:       946.
         375    mdc_no_access            error_table_:       712.
         557    mdc_no_account           error_table_:       940.
         560    mdc_no_quota             error_table_:       942.
         561    mdc_no_quota_account     error_table_:       944.
         563    mdc_path_dup             error_table_:       948.
         564    mdc_path_dup_args        error_table_:       950.
         565    mdc_path_not_found       error_table_:       952.
         566    mdc_path_restrict        error_table_:       954.
         567    mdc_some_error           error_table_:       956.
         570    mdc_unregistered_mdir    error_table_:       958.
         571    media_not_removable      error_table_:       960.
        1244    messages                 error_table_:       107,  112,  114,  116,  118,  120,  122,  124,  126,  128,  130,
                                                             132,  134,  136,  138,  140,  142,  144,  146,  148,  150,  152,
                                                             154,  156,  158,  160,  162,  164,  166,  168,  170,  172,  174,
                                                             176,  178,  180,  182,  184,  186,  188,  190,  192,  194,  196,
                                                             198,  203,  205,  207,  212,  214,  216,  218,  220,  222,  224,
                                                             226,  228,  230,  236,  238,  240,  242,  244,  246,  248,  250,
                                                             252,  254,  256,  258,  260,  262,  264,  266,  268,  270,  272,
                                                             274,  276,  278,  280,  282,  284,  286,  288,  293,  295,  297,
                                                             299,  301,  303,  305,  310,  312,  314,  316,  318,  320,  322,
                                                             324,  326,  328,  330,  332,  334,  336,  338,  340,  342,  344,
                                                             346,  348,  350,  352,  354,  356,  358,  360,  362,  364,  366,
                                                             368,  370,  372,  374,  376,  378,  380,  382,  384,  386,  388,
                                                             390,  392,  394,  396,  398,  400,  402,  404,  406,  408,  410,
                                                             412,  414,  416,  418,  419,  422,  424,  426,  428,  430,  432,
                                                             434,  436,  438,  440,  442,  447,  452,  456,  461,  465,  470,
                                                             474,  480,  485,  489,  493,  497,  501,  505,  511,  515,  519,
                                                             524,  528,  533,  538,  542,  551,  556,  561,  566,  570,  572,
                                                             574,  576,  578,  580,  582,  584,  586,  588,  590,  592,  594,
                                                             596,  598,  600,  602,  604,  606,  608,  610,  612,  614,  616,
                                                             618,  620,  622,  624,  626,  628,  630,  632,  634,  636,  638,
                                                             640,  642,  644,  646,  648,  650,  652,  654,  656,  658,  660,
                                                             662,  664,  666,  668,  670,  672,  674,  676,  678,  680,  682,
                                                             684,  686,  688,  690,  692,  694,  696,  699,  704,  706,  708,
                                                             710,  712,  714,  716,  718,  720,  722,  724,  726,  728,  730,
                                                             732,  734,  736,  738,  740,  742,  744,  746,  748,  750,  752,
                                                             754,  756,  758,  760,  762,  764,  766,  768,  770,  772,  774,
                                                             776,  778,  780,  782,  784,  786,  788,  790,  792,  794,  796,
                                                             798,  800,  802,  804,  806,  808,  810,  812,  814,  816,  818,
                                                             820,  822,  824,  826,  828,  830,  832,  834,  836,  838,  840,
                                                             842,  844,  846,  848,  850,  852,  854,  856,  858,  860,  862,
                                                             864,  866,  868,  870,  872,  874,  876,  878,  880,  882,  884,
                                                             886,  888,  890,  892,  894,  896,  898,  900,  902,  904,  906,
                                                             908,  910,  912,  914,  916,  918,  920,  922,  924,  926,  928,
                                                             930,  932,  934,  936,  938,  940,  942,  944,  946,  948,  950,
                                                             952,  954,  956,  958,  960,  962,  964,  966,  968,  970,  972,
                                                             974,  976,  978,  980,  982,  984,  986,  988,  990,  992,  994,
                                                             996,  998, 1000, 1002, 1004, 1006, 1008, 1010, 1012, 1014, 1016,
                                                            1018, 1020, 1022, 1024, 1026, 1028, 1030, 1032, 1034, 1036, 1038,
                                                            1040, 1042, 1044, 1046, 1048, 1050, 1052, 1054, 1056, 1058, 1060,
                                                            1062, 1064, 1066, 1068, 1070, 1072, 1074, 1076, 1078, 1080, 1082,
                                                            1084, 1086, 1088, 1090, 1092, 1094, 1096, 1098, 1100, 1102, 1104,
                                                            1106, 1108, 1110, 1112, 1114, 1116, 1118, 1120, 1122, 1124, 1126,
                                                            1128, 1130, 1132, 1134, 1136, 1138, 1140, 1142, 1144, 1146, 1148,
                                                            1150, 1152, 1154, 1156, 1158, 1160, 1162, 1164, 1166, 1168, 1170,
                                                            1172, 1174, 1176, 1178, 1180, 1182, 1184, 1186, 1188, 1190, 1192,
                                                            1194, 1196, 1198, 1200, 1202, 1204, 1206, 1208, 1210, 1212, 1214,
                                                            1216, 1218, 1220, 1222, 1224, 1226, 1228, 1230, 1232, 1234, 1236,
                                                            1238, 1240, 1242, 1244, 1246, 1248, 1250, 1252, 1254, 1256, 1258,
                                                            1260, 1262, 1264, 1266, 1268, 1270, 1272, 1274, 1276, 1278, 1282,
                                                            1286, 1290, 1292, 1294, 1296, 1298, 1300, 1302, 1304, 1306, 1308,
                                                            1310, 1312, 1314, 1316, 1318, 1320, 1322, 1324, 1326, 1328, 1330,
                                                            1332, 1334, 1336, 1338, 1340, 1342, 1344, 1346, 1348, 1350, 1352,
                                                            1354, 1356, 1358, 1360, 1362, 1364, 1366, 1368, 1370, 1372, 1374,
                                                            1376, 1378, 1380, 1382, 1384, 1386, 1388, 1390, 1392, 1394, 1396,
                                                            1398, 1400, 1402, 1404, 1406, 1408, 1410, 1412, 1414, 1416, 1418,
                                                            1420, 1424, 1426, 1428, 1430, 1432, 1434, 1436, 1438, 1440, 1442,
                                                            1444, 1446, 1448, 1450, 1452, 1454, 1456, 1458, 1460, 1462, 1464,
                                                            1466, 1468, 1473, 1475, 1477, 1479, 1481, 1483, 1485, 1487, 1489,
                                                            1491, 1493, 1495, 1497, 1499, 1501, 1503, 1505, 1507, 1509, 1511,
                                                            1513, 1515, 1519, 1521, 1523, 1528, 1530, 1532, 1534, 1536, 1538,
                                                            1540, 1542, 1544, 1546, 1548, 1550, 1552, 1554, 1556, 1558, 1560,
                                                            1562, 1564, 1566, 1568, 1570, 1572.
         572    messages_deferred        error_table_:       962.
         573    messages_off             error_table_:       964.
         574    mismatched_iter          error_table_:       966.
         575    missent                  error_table_:       968.
         577    moderr                   error_table_:       972.
         576    mode_string_truncated    error_table_:       970.
         600    mount_not_ready          error_table_:       974.
         601    mount_pending            error_table_:       976.
         602    mpx_down                 error_table_:       978.
         603    msf                      error_table_:       980.
         604    multiple_io_attachment   error_table_:       982.
         605    mylock                   error_table_:       984.
         607    namedup                  error_table_:       988.
         606    name_not_found           error_table_:       986.
         610    ncp_error                error_table_:       990.
         611    negative_nelem           error_table_:       992.
         612    negative_offset          error_table_:       994.
         613    net_already_icp          error_table_:       996.
         614    net_bad_gender           error_table_:       998.
         615    net_fhost_down           error_table_:      1000.
         616    net_fhost_inactive       error_table_:      1002.
         617    net_fimp_down            error_table_:      1004.
         620    net_icp_bad_state        error_table_:      1006.
         621    net_icp_error            error_table_:      1008.
         622    net_icp_not_concluded    error_table_:      1010.
         623    net_invalid_state        error_table_:      1012.
         626    net_not_up               error_table_:      1018.
         624    net_no_connect_permission      error_table_:      1014.
         625    net_no_icp               error_table_:      1016.
         627    net_rfc_refused          error_table_:      1020.
         630    net_socket_closed        error_table_:      1022.
         631    net_socket_not_found     error_table_:      1024.
         632    net_table_space          error_table_:      1026.
         633    net_timeout              error_table_:      1028.
         636    newnamerr                error_table_:      1034.
         634    new_offset_negative      error_table_:      1030.
         635    new_search_list          error_table_:      1032.
         637    nine_mode_parity         error_table_:      1036.
         660    noaccess                 error_table_:      1070.
         737    noalloc                  error_table_:      1164.
         740    noarg                    error_table_:      1166.
         741    nodescr                  error_table_:      1168.
         742    noentry                  error_table_:      1170.
         743    nolinkag                 error_table_:      1172.
         744    nolot                    error_table_:      1174.
         745    nomatch                  error_table_:      1176.
         747    nonamerr                 error_table_:      1180.
         750    nondirseg                error_table_:      1182.
         746    non_matching_uid         error_table_:      1178.
         751    nopart                   error_table_:      1184.
         752    noprtdmp                 error_table_:      1186.
         753    nostars                  error_table_:      1188.
        1001    notadir                  error_table_:      1232.
        1002    notalloc                 error_table_:      1234.
         757    not_abs_path             error_table_:      1196.
         760    not_act_fnc              error_table_:      1198.
         761    not_archive              error_table_:      1200.
         762    not_attached             error_table_:      1202.
         754    not_a_branch             error_table_:      1190.
         755    not_a_valid_iocb         error_table_:      1192.
         756    not_a_wait_channel       error_table_:      1194.
         763    not_base_channel         error_table_:      1204.
         764    not_bound                error_table_:      1206.
         765    not_closed               error_table_:      1208.
         766    not_detached             error_table_:      1210.
         767    not_dm_ring              error_table_:      1212.
         770    not_done                 error_table_:      1214.
         772    not_initialized          error_table_:      1218.
         771    not_in_trace_table       error_table_:      1216.
         773    not_link                 error_table_:      1220.
         774    not_open                 error_table_:      1222.
         775    not_own_message          error_table_:      1224.
         776    not_privileged           error_table_:      1226.
         777    not_ring_0               error_table_:      1228.
        1000    not_seg_type             error_table_:      1230.
         641    no_append                error_table_:      1040.
         642    no_appropriate_device    error_table_:      1042.
         643    no_archive_for_equal     error_table_:      1044.
         640    no_a_permission          error_table_:      1038.
         644    no_backspace             error_table_:      1046.
         645    no_base_chnl_active      error_table_:      1048.
         646    no_channel_meters        error_table_:      1050.
         647    no_component             error_table_:      1052.
         650    no_connection            error_table_:      1054.
         651    no_cpus_online           error_table_:      1056.
         652    no_create_copy           error_table_:      1058.
         653    no_current_record        error_table_:      1060.
         654    no_defs                  error_table_:      1062.
         655    no_delimiter             error_table_:      1064.
         656    no_device                error_table_:      1066.
         657    no_dialok                error_table_:      1068.
         660    no_dir                   error_table_:      1070.
         661    no_disconnected_processes      error_table_:      1072.
         663    no_ext_sym               error_table_:      1076.
         662    no_e_permission          error_table_:      1074.
         664    no_file                  error_table_:      1078.
         665    no_fim_flag              error_table_:      1080.
        1242    no_forms_table_defined   error_table_:      1570.
         666    no_handler               error_table_:      1082.
         667    no_heap_defined          error_table_:      1084.
         670    no_heap_sym              error_table_:      1086.
         671    no_info                  error_table_:      1088.
         672    no_initial_string        error_table_:      1090.
         675    no_iocb                  error_table_:      1096.
         673    no_io_interrupt          error_table_:      1092.
         674    no_io_page_tables        error_table_:      1094.
         676    no_journals_free         error_table_:      1098.
         677    no_key                   error_table_:      1100.
         700    no_label                 error_table_:      1102.
         701    no_line_status           error_table_:      1104.
         702    no_linkage               error_table_:      1106.
         703    no_log_message           error_table_:      1108.
         705    no_makeknown             error_table_:      1112.
         706    no_memory_for_scavenge   error_table_:      1114.
         707    no_message               error_table_:      1116.
         710    no_move                  error_table_:      1118.
         704    no_m_permission          error_table_:      1110.
         711    no_next_volume           error_table_:      1120.
         712    no_null_refnames         error_table_:      1122.
         713    no_odd_areas             error_table_:      1124.
         714    no_operation             error_table_:      1126.
         716    no_record                error_table_:      1130.
         717    no_restart               error_table_:      1132.
         720    no_room_for_dsb          error_table_:      1134.
         721    no_room_for_lock         error_table_:      1136.
         715    no_r_permission          error_table_:      1128.
         723    no_search_list           error_table_:      1140.
         724    no_search_list_default   error_table_:      1142.
         725    no_set_btcnt             error_table_:      1144.
         726    no_stmt_delim            error_table_:      1146.
         722    no_s_permission          error_table_:      1138.
         727    no_table                 error_table_:      1148.
         731    no_terminal_quota        error_table_:      1152.
         730    no_term_type             error_table_:      1150.
         732    no_trap_proc             error_table_:      1154.
         733    no_vla_support           error_table_:      1156.
         735    no_wdir                  error_table_:      1160.
         736    no_wired_structure       error_table_:      1162.
         734    no_w_permission          error_table_:      1158.
        1003    nrmkst                   error_table_:      1236.
        1004    null_brackets            error_table_:      1238.
        1005    null_dir                 error_table_:      1240.
        1006    null_info_ptr            error_table_:      1242.
        1007    null_name_component      error_table_:      1244.
        1010    obsolete_function        error_table_:      1246.
        1011    odd_no_of_args           error_table_:      1248.
        1013    oldnamerr                error_table_:      1252.
        1014    oldobj                   error_table_:      1254.
        1012    old_dim                  error_table_:      1250.
        1015    oob_stack                error_table_:      1256.
        1016    oob_stack_ref            error_table_:      1258.
        1017    oosw                     error_table_:      1260.
        1020    order_error              error_table_:      1262.
        1025    outward_call_failed      error_table_:      1272.
        1021    out_of_bounds            error_table_:      1264.
        1022    out_of_main_memory       error_table_:      1266.
        1023    out_of_sequence          error_table_:      1268.
        1024    out_of_window            error_table_:      1270.
        1026    overlapping_more_responses     error_table_:      1274.
        1027    pathlong                 error_table_:      1276.
        1030    picture_bad              error_table_:      1278.
        1031    picture_scale            error_table_:      1282.
        1032    picture_too_big          error_table_:      1286.
        1033    positioned_on_bot        error_table_:      1290.
        1034    private_volume           error_table_:      1292.
        1035    process_stopped          error_table_:      1294.
        1036    process_unknown          error_table_:      1296.
        1037    proj_not_found           error_table_:      1298.
        1042    pvid_not_found           error_table_:      1304.
        1040    pv_is_in_lv              error_table_:      1300.
        1041    pv_no_scavenge           error_table_:      1302.
        1043    quit_term_abort          error_table_:      1306.
        1044    r0_refname               error_table_:      1308.
        1045    rcp_attr_not_permitted   error_table_:      1310.
        1046    rcp_attr_protected       error_table_:      1312.
        1047    rcp_bad_attributes       error_table_:      1314.
        1050    rcp_missing_registry_component       error_table_:      1316.
        1051    rcp_no_auto_reg          error_table_:      1318.
        1052    rcp_no_registry          error_table_:      1320.
        1053    record_busy              error_table_:      1322.
        1054    recoverable_error        error_table_:      1324.
        1055    recursion_error          error_table_:      1326.
        1056    refname_count_too_big    error_table_:      1328.
        1057    regexp_invalid_star      error_table_:      1330.
        1060    regexp_too_complex       error_table_:      1332.
        1061    regexp_too_long          error_table_:      1334.
        1062    regexp_undefined         error_table_:      1336.
        1063    rel_chnl_active          error_table_:      1338.
        1064    request_id_ambiguous     error_table_:      1340.
        1065    request_not_recognized   error_table_:      1342.
        1066    request_pending          error_table_:      1344.
        1067    reservation_failed       error_table_:      1346.
        1070    resource_assigned        error_table_:      1348.
        1071    resource_attached        error_table_:      1350.
        1072    resource_awaiting_clear  error_table_:      1352.
        1073    resource_bad_access      error_table_:      1354.
        1074    resource_free            error_table_:      1356.
        1075    resource_locked          error_table_:      1358.
        1076    resource_not_free        error_table_:      1360.
        1077    resource_not_modified    error_table_:      1362.
        1100    resource_reserved        error_table_:      1364.
        1101    resource_spec_ambiguous  error_table_:      1366.
        1102    resource_type_inappropriate    error_table_:      1368.
        1103    resource_type_unknown    error_table_:      1370.
        1104    resource_unassigned      error_table_:      1372.
        1105    resource_unavailable     error_table_:      1374.
        1106    resource_unknown         error_table_:      1376.
        1107    retrieval_trap_on        error_table_:      1378.
        1110    root                     error_table_:      1380.
        1111    rqover                   error_table_:      1382.
        1112    run_unit_not_recursive   error_table_:      1384.
        1113    safety_sw_on             error_table_:      1386.
        1114    salv_pdir_procterm       error_table_:      1388.
        1115    sameseg                  error_table_:      1390.
        1116    scavenge_aborted         error_table_:      1392.
        1117    scavenge_in_progress     error_table_:      1394.
        1120    scavenge_process_limit   error_table_:      1396.
        1125    segfault                 error_table_:      1406.
        1126    segknown                 error_table_:      1408.
        1127    seglock                  error_table_:      1410.
        1130    segnamedup               error_table_:      1412.
        1131    segno_in_use             error_table_:      1414.
        1121    seg_busted               error_table_:      1398.
        1122    seg_deleted              error_table_:      1400.
        1123    seg_not_found            error_table_:      1402.
        1124    seg_unknown              error_table_:      1404.
        1132    short_record             error_table_:      1416.
        1133    signaller_fault          error_table_:      1418.
        1134    size_error               error_table_:      1420.
        1135    smallarg                 error_table_:      1424.
        1136    soos_set                 error_table_:      1426.
        1137    special_channel          error_table_:      1428.
        1140    special_channels_full    error_table_:      1430.
        1141    stack_not_active         error_table_:      1432.
        1142    stack_overflow           error_table_:      1434.
        1143    strings_not_equal        error_table_:      1436.
        1145    subvol_invalid           error_table_:      1440.
        1144    subvol_needed            error_table_:      1438.
        1146    synch_seg_limit          error_table_:      1442.
        1147    synch_seg_segmove        error_table_:      1444.
        1150    tape_error               error_table_:      1446.
        1151    termination_requested    error_table_:      1448.
        1153    timeout                  error_table_:      1452.
        1152    time_too_long            error_table_:      1450.
        1164    toomanylinks             error_table_:      1473.
        1154    too_many_acl_entries     error_table_:      1454.
        1155    too_many_args            error_table_:      1456.
        1156    too_many_buffers         error_table_:      1458.
        1157    too_many_names           error_table_:      1460.
        1160    too_many_read_delimiters       error_table_:      1462.
        1161    too_many_refs            error_table_:      1464.
        1162    too_many_sr              error_table_:      1466.
        1163    too_many_tokens          error_table_:      1468.
        1165    trace_table_empty        error_table_:      1475.
        1166    trace_table_full         error_table_:      1477.
        1167    translation_aborted      error_table_:      1479.
        1170    translation_failed       error_table_:      1481.
        1171    typename_not_found       error_table_:      1483.
        1172    unable_to_check_access   error_table_:      1485.
        1173    unable_to_do_io          error_table_:      1487.
        1174    unbalanced_brackets      error_table_:      1489.
        1175    unbalanced_parentheses   error_table_:      1491.
        1176    unbalanced_quotes        error_table_:      1493.
        1177    undefined_mode           error_table_:      1495.
        1200    undefined_order_request  error_table_:      1497.
        1201    undefined_ptrname        error_table_:      1499.
        1202    undeleted_device         error_table_:      1501.
        1203    unexpected_condition     error_table_:      1503.
        1204    unexpected_device_status       error_table_:      1505.
        1205    unexpected_ft2           error_table_:      1507.
        1206    unexpired_file           error_table_:      1509.
        1207    unexpired_volume         error_table_:      1511.
        1210    unimplemented_ptrname    error_table_:      1513.
        1211    unimplemented_version    error_table_:      1515.
        1212    uninitialized_volume     error_table_:      1519.
        1213    unknown_tp               error_table_:      1521.
        1214    unknown_zone             error_table_:      1523.
        1215    unrecognized_char_code   error_table_:      1528.
        1216    unregistered_volume      error_table_:      1530.
        1217    unsupported_multi_class_volume       error_table_:      1532.
        1220    unsupported_operation    error_table_:      1534.
        1221    unsupported_terminal     error_table_:      1536.
        1222    user_not_found           error_table_:      1538.
        1224    user_requested_hangup    error_table_:      1542.
        1223    user_requested_logout    error_table_:      1540.
        1225    vchn_active              error_table_:      1544.
        1226    vchn_not_found           error_table_:      1546.
        1230    volume_busy              error_table_:      1550.
        1231    volume_not_loaded        error_table_:      1552.
        1232    volume_type_unknown      error_table_:      1554.
        1227    vol_in_use               error_table_:      1548.
        1234    vtoce_connection_fail    error_table_:      1558.
        1235    vtoce_free               error_table_:      1560.
        1233    vtoc_io_err              error_table_:      1556.
        1236    wakeup_denied            error_table_:      1562.
        1237    wrong_channel_ring       error_table_:      1564.
        1240    wrong_no_of_args         error_table_:      1566.
        1241    zero_length_seg          error_table_:      1568.


NO FATAL ERRORS


                                          -----------------------------------------------------------


Historical Background

This edition of the Multics software materials and documentation is provided and donated
to Massachusetts Institute of Technology by Group BULL including BULL HN Information Systems Inc.
as a contribution to computer science knowledge.
This donation is made also to give evidence of the common contributions of Massachusetts Institute of Technology,
Bell Laboratories, General Electric, Honeywell Information Systems Inc., Honeywell BULL Inc., Groupe BULL
and BULL HN Information Systems Inc. to the development of this operating system.
Multics development was initiated by Massachusetts Institute of Technology Project MAC (1963-1970),
renamed the MIT Laboratory for Computer Science and Artificial Intelligence in the mid 1970s, under the leadership
of Professor Fernando Jose Corbato. Users consider that Multics provided the best software architecture
for managing computer hardware properly and for executing programs. Many subsequent operating systems
incorporated Multics principles.
Multics was distributed in 1975 to 2000 by Group Bull in Europe , and in the U.S. by Bull HN Information Systems Inc.,
as successor in interest by change in name only to Honeywell Bull Inc. and Honeywell Information Systems Inc. .

                                          -----------------------------------------------------------

Permission to use, copy, modify, and distribute these programs and their documentation for any purpose and without
fee is hereby granted,provided that the below copyright notice and historical background appear in all copies
and that both the copyright notice and historical background and this permission notice appear in supporting
documentation, and that the names of MIT, HIS, BULL or BULL HN not be used in advertising or publicity pertaining
to distribution of the programs without specific prior written permission.
    Copyright 1972 by Massachusetts Institute of Technology and Honeywell Information Systems Inc.
    Copyright 2006 by BULL HN Information Systems Inc.
    Copyright 2006 by Bull SAS
    All Rights Reserved
