ASSEMBLY LISTING OF SEGMENT >spec>on>091681>et_instr_data.alm
ASSEMBLED ON:	09/16/81  1546.5 mst Wed
OPTIONS USED:	list
ASSEMBLED BY:	ALM Version  6.4  April 1981
ASSEMBLER CREATED:	07/17/81  1819.2 mst Fri

                                     1  "  ******************************************************
                                     2  "  *                                                    *
                                     3  "  *                                                    *
                                     4  "  * Copyright (c) 1972 by Massachusetts Institute of   *
                                     5  "  * Technology and Honeywell Information Systems, Inc. *
                                     6  "  *                                                    *
                                     7  "  *                                                    *
                                     8  "  ******************************************************
                                     9
                                    10  "	This segment contains a data table with information about   "eis"  instructions.
                                    11  "	It is used by the  eis_tester  ",3/0T"  programs.
                                    12  "
                                    13  "	Created  Jan, 73  by   Bill Silver
                                    14  "
                                    15  "	This table is referenced via the PL/I structure found in the include file -
                                    16  "	et_instr_data_map.incl.pl1
                                    17
                                    18
                        000000      19  	segdef	num_instructions
                                    20
                        000001      21  	segdef	instructions
                                    22
                                    23
                                    24
    000000                          25  num_instructions:
                                    26
    000000  aa   000000 000035      27  	dec	29		"Number of real entries in the table below.
                                    28  				"The first entry is entry zero and is a dummy.
                                    29
                                    30
                                    31
                                    32
    000001                          33  instructions:
                                    34
    000001  aa   124111 117116      35  	vfd	a36/erro		"DUMMY INSTRUNTION
    000002  aa   162040 000000      36  	vfd	a18/r ,18/0
                                    37
    000003  aa   155154 162040      38  	vfd	a36/mlr
    000004  aa   100401 117422      39  	vfd	o9/100,1/1,o8/1,3/1,3/1,3/7,1/1,1/0,1/0,3/2,3/2
                                    40
    000005  aa   155162 154040      41  	vfd	a36/mrl
    000006  aa   101401 117422      42  	vfd	o9/101,1/1,o8/1,3/1,3/1,3/7,1/1,1/0,1/0,3/2,3/2
                                    43
    000007  aa   155166 164040      44  	vfd	a36/mvt
    000010  aa   160401 110522      45  	vfd	o9/160,1/1,o8/1,3/1,3/1,3/0,1/1,1/0,1/1,3/2,3/2
                                    46
    000011  aa   155166 145040      47  	vfd	a36/mve
    000012  aa   020401 111733      48  	vfd	o9/020,1/1,o8/1,3/1,3/1,3/1,1/1,1/1,1/1,3/3,3/3
                                    49
    000013  aa   143155 160143      50  	vfd	a36/cmpc
    000014  aa   106401 137400      51  	vfd	o9/106,1/1,o8/1,3/1,3/3,3/7,1/1,1/0,1/0,3/0,3/0
                                    52
    000015  aa   163143 144040      53  	vfd	a36/scd
    000016  aa   120401 130533      54  	vfd	o9/120,1/1,o8/1,3/1,3/3,3/0,1/1,1/0,1/1,3/3,3/3
                                    55
    000017  aa   163143 144162      56  	vfd	a36/scdr
    000020  aa   121401 130533      57  	vfd	o9/121,1/1,o8/1,3/1,3/3,3/0,1/1,1/0,1/1,3/3,3/3
                                    58
    000021  aa   164143 164040      59  	vfd	a36/tct
    000022  aa   164401 100133      60  	vfd	o9/164,1/1,o8/1,3/1,3/0,3/0,1/0,1/0,1/1,3/3,3/3
                                    61
    000023  aa   164143 164162      62  	vfd	a36/tctr
    000024  aa   165401 100133      63  	vfd	o9/165,1/1,o8/1,3/1,3/0,3/0,1/0,1/0,1/1,3/3,3/3
                                    64
    000025  aa   163143 155040      65  	vfd	a36/scm
    000026  aa   124401 130533      66  	vfd	o9/124,1/1,o8/1,3/1,3/3,3/0,1/1,1/0,1/1,3/3,3/3
                                    67
    000027  aa   163143 155162      68  	vfd	a36/scmr
    000030  aa   125401 130533      69  	vfd	o9/125,1/1,o8/1,3/1,3/3,3/0,1/1,1/0,1/1,3/3,3/3
                                    70
    000031  aa   155166 156040      71  	vfd	a36/mvn
    000032  aa   300402 117422      72  	vfd	o9/300,1/1,o8/2,3/1,3/1,3/7,1/1,1/0,1/0,3/2,3/2
                                    73
    000033  aa   143155 160156      74  	vfd	a36/cmpn
    000034  aa   303402 117400      75  	vfd	o9/303,1/1,o8/2,3/1,3/1,3/7,1/1,1/0,1/0,3/0,3/0
                                    76
    000035  aa   155166 156145      77  	vfd	a36/mvne
    000036  aa   024402 111733      78  	vfd	o9/024,1/1,o8/2,3/1,3/1,3/1,1/1,1/1,1/1,3/3,3/3
                                    79
    000037  aa   141144 063144      80  	vfd	a36/ad3d
    000040  aa   222402 111733      81  	vfd	o9/222,1/1,o8/2,3/1,3/1,3/1,1/1,1/1,1/1,3/3,3/3
                                    82
    000041  aa   141144 062144      83  	vfd	a36/ad2d
    000042  aa   202402 117432      84  	vfd	o9/202,1/1,o8/2,3/1,3/1,3/7,1/1,1/0,1/0,3/3,3/2
                                    85
    000043  aa   163142 063144      86  	vfd	a36/sb3d
    000044  aa   223402 111733      87  	vfd	o9/223,1/1,o8/2,3/1,3/1,3/1,1/1,1/1,1/1,3/3,3/3
                                    88
    000045  aa   163142 062144      89  	vfd	a36/sb2d
    000046  aa   203402 117432      90  	vfd	o9/203,1/1,o8/2,3/1,3/1,3/7,1/1,1/0,1/0,3/3,3/2
                                    91
    000047  aa   155160 063144      92  	vfd	a36/mp3d
    000050  aa   226402 111733      93  	vfd	o9/226,1/1,o8/2,3/1,3/1,3/1,1/1,1/1,1/1,3/3,3/3
                                    94
    000051  aa   155160 062144      95  	vfd	a36/mp2d
    000052  aa   206402 117432      96  	vfd	o9/206,1/1,o8/2,3/1,3/1,3/7,1/1,1/0,1/0,3/3,3/2
                                    97
    000053  aa   144166 063144      98  	vfd	a36/dv3d
    000054  aa   227402 111733      99  	vfd	o9/227,1/1,o8/2,3/1,3/1,3/1,1/1,1/1,1/1,3/3,3/3
                                   100
    000055  aa   144166 062144     101  	vfd	a36/dv2d
    000056  aa   207402 117432     102  	vfd	o9/207,1/1,o8/2,3/1,3/1,3/7,1/1,1/0,1/0,3/3,3/2
                                   103
    000057  aa   143163 154040     104  	vfd	a36/csl
    000060  aa   060403 227432     105  	vfd	o9/060,1/1,o8/3,3/2,3/2,3/7,1/1,1/0,1/0,3/3,3/2
                                   106
    000061  aa   143163 162040     107  	vfd	a36/csr
    000062  aa   061403 227432     108  	vfd	o9/061,1/1,o8/3,3/2,3/2,3/7,1/1,1/0,1/0,3/3,3/2
                                   109
    000063  aa   163172 164154     110  	vfd	a36/sztl
    000064  aa   064403 227400     111  	vfd	o9/064,1/1,o8/3,3/2,3/2,3/7,1/1,1/0,1/0,3/0,3/0
                                   112
    000065  aa   163172 164162     113  	vfd	a36/sztr
    000066  aa   065403 227400     114  	vfd	o9/065,1/1,o8/3,3/2,3/2,3/7,1/1,1/0,1/0,3/0,3/0
                                   115
    000067  aa   143155 160142     116  	vfd	a36/cmpb
    000070  aa   066403 227400     117  	vfd	o9/066,1/1,o8/3,3/2,3/2,3/7,1/1,1/0,1/0,3/0,3/0
                                   118
    000071  aa   144164 142040     119  	vfd	a36/dtb
    000072  aa   305404 117422     120  	vfd	o9/305,1/1,o8/4,3/1,3/1,3/7,1/1,1/0,1/0,3/2,3/2
                                   121
    000073  aa   142164 144040     122  	vfd	a36/btd
    000074  aa   301404 117422     123  	vfd	o9/301,1/1,o8/4,3/1,3/1,3/7,1/1,1/0,1/0,3/2,3/2
                                   124
                                   125
                                   126  	end

NO LITERALS

NAME DEFINITIONS FOR ENTRY POINTS AND SEGDEFS

    000076  5a   000003 000000
    000077  5a   000040 600000
    000100  aa   000000 000000
    000101  55   000012 000002
    000102  5a   000002 400003
    000103  55   000006 000012
    000104  aa  015 145 164 137
    000105  aa  151 156 163 164
    000106  aa  162 137 144 141
    000107  aa  164 141 000 000
    000110  55   000021 000003
    000111  0a   000001 400000
    000112  55   000015 000003
    000113  aa  014 151 156 163         instructions
    000114  aa  164 162 165 143
    000115  aa  164 151 157 156
    000116  aa  163 000 000 000
    000117  55   000031 000012
    000120  0a   000000 400000
    000121  55   000024 000003
    000122  aa  020 156 165 155         num_instructions
    000123  aa  137 151 156 163
    000124  aa  164 162 165 143
    000125  aa  164 151 157 156
    000126  aa  163 000 000 000
    000127  55   000002 000021
    000130  6a   000000 400002
    000131  55   000034 000003
    000132  aa  014 163 171 155         symbol_table
    000133  aa  142 157 154 137
    000134  aa  164 141 142 154
    000135  aa  145 000 000 000

DEFINITIONS HASH TABLE

    000136  aa   000000 000015
    000137  aa   000000 000000
    000140  aa   000000 000000
    000141  aa   000000 000000
    000142  aa   000000 000000
    000143  aa   000000 000000
    000144  aa   000000 000000
    000145  5a   000012 000000
    000146  5a   000031 000000
    000147  aa   000000 000000
    000150  aa   000000 000000
    000151  5a   000021 000000
    000152  aa   000000 000000
    000153  aa   000000 000000

NO EXTERNAL NAMES

NO TRAP POINTER WORDS

TYPE PAIR BLOCKS

    000154  aa   000001 000000
    000155  aa   000000 000000

INTERNAL EXPRESSION WORDS

LINKAGE INFORMATION

    000000  aa   000000 000000
    000001  0a   000076 000000
    000002  aa   000000 000000
    000003  aa   000000 000000
    000004  aa   000000 000000
    000005  aa   000000 000000
    000006  22   000010 000010
    000007  a2   000000 000000
SYMBOL INFORMATION

SYMBOL TABLE HEADER

    000000  aa   000000 000001
    000001  aa   163171 155142
    000002  aa   164162 145145
    000003  aa   000000 000004
    000004  aa   000000 110172
    000005  aa   711315 365225
    000006  aa   000000 110307
    000007  aa   350527 242502
    000010  aa   141154 155040
    000011  aa   040040 040040
    000012  aa   000024 000040
    000013  aa   000034 000040
    000014  aa   000044 000100
    000015  aa   000002 000002
    000016  aa   000064 000000
    000017  aa   000000 000122
    000020  aa   000000 000103
    000021  aa   000000 000111
    000022  aa   000114 000103
    000023  aa   000064 000000
    000024  aa   101114 115040
    000025  aa   126145 162163
    000026  aa   151157 156040
    000027  aa   040066 056064
    000030  aa   040040 101160
    000031  aa   162151 154040
    000032  aa   061071 070061
    000033  aa   040040 040040
    000034  aa   110157 154155
    000035  aa   163164 145144
    000036  aa   164056 123171
    000037  aa   163115 141151
    000040  aa   156164 056155
    000041  aa   040040 040040
    000042  aa   040040 040040
    000043  aa   040040 040040
    000044  aa   154151 163164
    000045  aa   040040 040040
    000046  aa   040040 040040
    000047  aa   040040 040040
    000050  aa   040040 040040
    000051  aa   040040 040040
    000052  aa   040040 040040
    000053  aa   040040 040040
    000054  aa   040040 040040
    000055  aa   040040 040040
    000056  aa   040040 040040
    000057  aa   040040 040040
    000060  aa   040040 040040
    000061  aa   040040 040040
    000062  aa   040040 040040
    000063  aa   040040 040040
    000064  aa   000000 000001
    000065  aa   000000 000001
    000066  aa   000072 000041
    000067  aa   103073 266723
    000070  aa   000000 110307
    000071  aa   343660 000000
    000072  aa   076163 160145          >spec>on>091681>et_instr_data.alm
    000073  aa   143076 157156
    000074  aa   076060 071061
    000075  aa   066070 061076
    000076  aa   145164 137151
    000077  aa   156163 164162
    000100  aa   137144 141164
    000101  aa   141056 141154
    000102  aa   155040 040040
               MULTICS ASSEMBLY CROSS REFERENCE LISTING

   Value        Symbol                   Source file   Line number

           1    instructions             et_instr_data:       21,   33.
           0    num_instructions         et_instr_data:       19,   25.


NO FATAL ERRORS


                                          -----------------------------------------------------------


Historical Background

This edition of the Multics software materials and documentation is provided and donated
to Massachusetts Institute of Technology by Group BULL including BULL HN Information Systems Inc.
as a contribution to computer science knowledge.
This donation is made also to give evidence of the common contributions of Massachusetts Institute of Technology,
Bell Laboratories, General Electric, Honeywell Information Systems Inc., Honeywell BULL Inc., Groupe BULL
and BULL HN Information Systems Inc. to the development of this operating system.
Multics development was initiated by Massachusetts Institute of Technology Project MAC (1963-1970),
renamed the MIT Laboratory for Computer Science and Artificial Intelligence in the mid 1970s, under the leadership
of Professor Fernando Jose Corbato. Users consider that Multics provided the best software architecture
for managing computer hardware properly and for executing programs. Many subsequent operating systems
incorporated Multics principles.
Multics was distributed in 1975 to 2000 by Group Bull in Europe , and in the U.S. by Bull HN Information Systems Inc.,
as successor in interest by change in name only to Honeywell Bull Inc. and Honeywell Information Systems Inc. .

                                          -----------------------------------------------------------

Permission to use, copy, modify, and distribute these programs and their documentation for any purpose and without
fee is hereby granted,provided that the below copyright notice and historical background appear in all copies
and that both the copyright notice and historical background and this permission notice appear in supporting
documentation, and that the names of MIT, HIS, BULL or BULL HN not be used in advertising or publicity pertaining
to distribution of the programs without specific prior written permission.
    Copyright 1972 by Massachusetts Institute of Technology and Honeywell Information Systems Inc.
    Copyright 2006 by BULL HN Information Systems Inc.
    Copyright 2006 by Bull SAS
    All Rights Reserved
