	COMPILATION LISTING OF SEGMENT flush_ast_pool
	Compiled by: Multics PL/I Compiler, Release 32f, of October 9, 1989
	Compiled at: Bull HN, Phoenix AZ, System-M
	Compiled on: 11/11/89  1023.4 mst Sat
	    Options: optimize map

        1 /****^  ***********************************************************
        2*        *                                                         *
        3*        * Copyright, (C) Honeywell Bull Inc., 1987                *
        4*        *                                                         *
        5*        * Copyright, (C) Honeywell Information Systems Inc., 1982 *
        6*        *                                                         *
        7*        * Copyright (c) 1972 by Massachusetts Institute of        *
        8*        * Technology and Honeywell Information Systems, Inc.      *
        9*        *                                                         *
       10*        *********************************************************** */
       11
       12
       13 flush_ast_pool:
       14      procedure (a_ptsi);
       15
       16 /* Entry to hedge the AST against fatal crash. */
       17
       18 dcl a_ptsi fixed bin;
       19
       20 dcl fastep ptr;
       21 dcl first bit (1) aligned;
       22 dcl ptsi fixed bin;
       23
       24 dcl lock$lock_ast entry;
       25 dcl lock$unlock_ast entry;
       26 dcl update_vtoce entry (ptr);
       27
       28 dcl (addr, hbound, lbound, pointer, ptr) builtin;
       29
       30
       31 /* * * * * * * * * * FLUSH_AST_POOL * * * * * * * * * */
       32
       33 	ptsi = a_ptsi;				/* copy magic to stack. */
       34
       35 	sstp = addr (sst_seg$);
       36 	if (ptsi < lbound (sst.ausedp, 1)) | (ptsi > hbound (sst.ausedp, 1)) then return;
       37
       38 	call lock$lock_ast;				/* pull the shades */
       39
       40 	fastep = ptr (sstp, sst.ausedp (ptsi));
       41 	first = "1"b;				/* until x3j1 gives in on until... */
       42 	do astep = fastep repeat (pointer (astep, aste.fp)) while ((astep ^= fastep) | first);
       43 						/* Scan whole loop. */
       44 	     first = "0"b;
       45
       46 	     aste.deact_error = "0"b;			/* retry bad I/O's */
       47
       48 	     if aste.usedf & aste.fmchanged & ^aste.per_process then do;
       49 		call update_vtoce (astep);
       50 		sst.hedge_updatevs = sst.hedge_updatevs + 1;
       51 		end;
       52 	end;
       53
       54 	call lock$unlock_ast;
       55 	return;
       56
  1     1 /*	BEGIN INCLUDE FILE ...aste.incl.pl1 ... */
  1     2
  1     3 /* Template for an AST entry. Length = 12 words. */
  1     4
  1     5 /* Words 0 to 7, and 11 are read by PC; they are read and modified by SC.
  1     6*   Words 8, 9 and 10 are modified by PC; they should never be modified without locking the PC lock */
  1     7 /* Modified January 1985 by Keith Loepere for multi_class. */
  1     8
  1     9 dcl  astep ptr;
  1    10
  1    11 dcl 1 aste based (astep) aligned,
  1    12
  1    13     (2 fp bit (18),					/* forward  used list rel pointer */
  1    14     2 bp bit (18),					/* backward used list rel pointer */
  1    15
  1    16     2 infl bit (18),				/* ptr to NEXT  in list of ASTE's of my brothers */
  1    17     2 infp bit (18),				/* ptr to FIRST in list of ASTE's of my children */
  1    18
  1    19     2 strp bit (18),				/* rel pointer to process trailer */
  1    20     2 par_astep bit (18),				/* rel pointer to parent aste */
  1    21
  1    22     2 uid bit (36),					/* segment unique id */
  1    23
  1    24     2 msl bit (9),					/* maximum segment length in 1024 word units */
  1    25     2 pvtx fixed bin (8),				/* physical volume table index */
  1    26     2 vtocx fixed bin (17),				/* vtoc entry index */
  1    27
  1    28     2 usedf bit (1),				/* ast entry is being used if non-zero */
  1    29     2 init bit (1),					/* used bit - insure 1 lap */
  1    30     2 gtus bit (1),					/* global transparent usage switch */
  1    31     2 gtms bit (1),					/* global transparent modified switch */
  1    32     2 hc bit (1),					/* hard core segment */
  1    33     2 hc_sdw bit (1),				/* aste with sdw for hardcore seg if non-zero */
  1    34     2 any_access_on bit (1),				/* any sdw allows access, unless write_access_on */
  1    35     2 write_access_on bit (1),			/* any sdw allows write access */
  1    36     2 inhibit_cache bit (1),				/* flag not to reset above bits */
  1    37     2 explicit_deact_ok bit (1),			/* set if user can deactivate seg */
  1    38     2 deact_error bit (1),				/* set if error occurred while deactivating */
  1    39     2 hc_part bit (1),				/* set if pages are in a hardcore partition */
  1    40     2 fm_damaged bit (1),				/* set if filemap checksum was ever bad */
  1    41     2 multi_class bit (1),				/* set if page_control should watch state changes to this segment */
  1    42     2 pad1 bit (2),					/* OO */
  1    43     2 dius bit (1),					/* dumper in use switch */
  1    44     2 nid bit (1),					/* if on prevents addtion to incremental dump map */
  1    45     2 dmpr_pad bit (1),
  1    46     2 ehs bit (1),					/* entry hold switch */
  1    47     2 nqsw bit (1),					/* no quota switch - no checking for pages of this seg */
  1    48     2 dirsw bit (1),				/* directory switch */
  1    49     2 master_dir bit (1),				/* master dir - a root for the log volume */
  1    50     2 volmap_seg bit (1),				/* volmap_seg for some volume */
  1    51     2 tqsw (0:1) bit (1),				/* terminal quota switch - (0) for non dir pages */
  1    52     2 pad_ic bit (10),				/* Used to be aste.ic */
  1    53
  1    54     2 dtu bit (36),					/* date and time segment last used */
  1    55
  1    56     2 dtm bit (36),					/* date and time segment last modified */
  1    57
  1    58
  1    59     2 quota (0:1) fixed bin (18) unsigned,		/* sec storage quota - (0) for non dir pages */
  1    60
  1    61     2 used (0:1) fixed bin (18) unsigned,		/* sec storage used  - (0) for non dir pages */
  1    62
  1    63     2 csl bit (9),					/* current segment length in 1024 words units */
  1    64     2 fmchanged bit (1),				/* turned on by page if file map changed */
  1    65     2 fms bit (1),					/* file modified switch */
  1    66     2 npfs bit (1),					/* no page fault switch */
  1    67     2 gtpd bit (1),					/* global transparent paging device switch */
  1    68     2 dnzp bit (1),					/* don't null out if zero page switch */
  1    69     2 per_process bit (1),				/* use master quota for this entry */
  1    70     2 ddnp bit (1),					/* don't deposit nulled pages */
  1    71     2 pad2 bit (2),
  1    72     2 records bit (9),				/* number of records used by the seg in sec storage */
  1    73     2 np bit (9),					/* number of pages in core */
  1    74
  1    75
  1    76     2 ht_fp bit (18),				/* hash table forward rel pointer */
  1    77     2 fmchanged1 bit (1),				/* value of "fmchanged" saved by pc$get_file_map */
  1    78     2 damaged bit (1),				/* PC declared segment unusable */
  1    79     2 pack_ovfl bit (1),				/* page fault on seg would cause pack overflow */
  1    80     2 synchronized bit (1),				/* Data Management synchronized segment */
  1    81     2 pad3 bit (6),					/* OOOOOOOOO */
  1    82     2 ptsi bit (2),					/* page table size index */
  1    83     2 marker bit (6)) unaligned;			/* marker to indicate last word of ASTE */
  1    84
  1    85
  1    86 dcl  asta (0 : 8000) bit (36*12 /* sst-> sst.astsize */) based aligned;
  1    87
  1    88
  1    89 dcl 1 aste_part aligned based (astep),
  1    90
  1    91     2 one bit (36) unaligned,				/* fp and bp */
  1    92     2 two bit (36*11 - 8) unaligned,			/* part that has to be zeroed when ASTE is freed */
  1    93     2 three bit (8) unaligned;			/* ptsi and marker */
  1    94
  1    95
  1    96 dcl 1 seg_aste based (astep) aligned,			/* Overlay because quota is only for dirs */
  1    97     2 pad1 bit (8*36),
  1    98     2 usage fixed bin (35),				/* page fault count: overlays quota */
  1    99     2 pad2 bit (3*36);
  1   100
  1   101 /*	END INCLUDE FILE ... aste.incl.pl1 */
       57
  2     1 /*   BEGIN INCLUDE FILE ... sst.incl.pl1 ... January 1971 */
  2     2 /* Note: This include file has an ALM counterpart made with cif. Keep it up to date */
  2     3 /* Deleted paging device info and added pc segmove info, Benson Margulies 84-01-03 */
  2     4 /* Added covert channel meters, Keith Loepere 85-01-08. */
  2     5
  2     6 dcl  sst_seg$ external;
  2     7 dcl  sstp ptr;
  2     8
  2     9 dcl 1 sst based (sstp) aligned,
  2    10     2 space (8) fixed bin,				/* empty space to watch for bugs */
  2    11
  2    12 /* SST HEADER */
  2    13
  2    14     2 pre_page_time fixed bin (71),			/* total time spent pre-paging */
  2    15     2 post_purge_time fixed bin (71),			/* total time spent post-purging */
  2    16     2 post_in_core fixed bin,				/* total pages in core (and in list) at purge time */
  2    17     2 thrashing fixed bin,				/* meter of thrashing being done on system */
  2    18     2 npfs_misses fixed bin,				/* meter of times npfs was on when pre-paging */
  2    19     2 salv fixed bin,				/* flag which is ^=0 if and only if salvaging */
  2    20
  2    21     2 ptl bit (36),					/* global page table loop lock */
  2    22     2 astl bit (36),				/* global ast allocation block lock */
  2    23     2 astl_event bit (36),				/* event used when waiting for AST lock */
  2    24     2 astl_notify_requested bit (1) aligned,		/* flag to notify AST lock */
  2    25     2 nused fixed bin,				/* number of pages on used list */
  2    26     2 ptwbase fixed bin (24),				/* absolute address of page table array */
  2    27     2 tfreep ptr,					/* pointer to first trailer on free list */
  2    28
  2    29     2 astap ptr,					/* aste array pointer */
  2    30     2 ptl_wait_ct fixed bin,				/* pxss: number is >= # of processes waiting to ptl */
  2    31     2 astsize fixed bin,				/* size of an AST entry */
  2    32     2 cmesize fixed bin,				/* size of a CME entry */
  2    33     2 root_astep ptr,				/* pointer to the root AST entry */
  2    34
  2    35     2 pts (0: 3) fixed bin,				/* array of page table sizes */
  2    36     2 level (0:3),					/* per-list information about ASTE's */
  2    37       3 (ausedp, no_aste) bit (18) unaligned,		/* used list and count of number of entries */
  2    38
  2    39     2 (atempp, atempp1) bit (18) unal,			/* temp seg list pointer */
  2    40     2 dm_enabled bit (1) aligned,			/* ON => journal seg exists */
  2    41     2 (ainitp, ainitp1) bit (18) unal,			/* init seg list pointer */
  2    42     2 strsize fixed bin,				/* Trailer size in words. */
  2    43
  2    44 /* CORE MAP HEADER */
  2    45
  2    46     2 cmp ptr,					/* pointer to start of core map */
  2    47     2 usedp bit (18),				/* pointer to first used core block */
  2    48     2 wtct fixed bin,				/* count of pages being written */
  2    49
  2    50     2 startp bit (18),				/* pointer to solid page for lap counting (fsdct) */
  2    51     2 removep bit (18),				/* pointer to list of pages being removed from use */
  2    52 						/* MISC */
  2    53
  2    54     2 double_write fixed bin,				/* trigger for store through scheme */
  2    55 						/* 0 = no double writes,
  2    56*						   1 = all non-pd pages get written,
  2    57*						   2 = all directories get written */
  2    58     2 temp_w_event bit (36) aligned,			/* wait event for temp wiring lock */
  2    59     2 root_pvtx fixed bin,				/* pvtx or rpv */
  2    60     2 nolock bit (1) aligned,				/* if on, don't lock ptl on interrupts */
  2    61
  2    62     2 fc_skips_pinned fixed bin (35),			/* number of skips over pinned page in find_core */
  2    63     2 cl_skips_pinned fixed bin (35),			/* number of skips over pinned page in claim_mod_core */
  2    64     2 ast_ht_ptr ptr,				/* AST hast table pointer */
  2    65     2 ast_ht_n_buckets fixed bin,			/* number of buckets in AST hash table */
  2    66     2 ast_ht_uid_mask bit (36) aligned,			/* mask to strip out low-order bits of uid */
  2    67     2 meter_ast_locking fixed bin,			/* non-zero enables AST lock meters */
  2    68     2 checksum_filemap fixed bin,			/* non-zero enables filemap checksumming */
  2    69
  2    70     2 page_read_errors fixed bin,			/* read errors posted to page control */
  2    71     2 page_write_errors fixed bin,			/* write errors posted to page control */
  2    72
  2    73     2 cycle_pv_allocation fixed bin,			/* flag to cycle VTOCE allocation among PVs */
  2    74
  2    75     2 n_trailers fixed bin,				/* Number of trailer entries in str_seg */
  2    76     2 synch_activations fixed bin (35),			/* Activation attempts for synchronized segs */
  2    77     2 synch_skips fixed bin (35),			/* get_aste skips because not synchronized */
  2    78
  2    79     2 lock_waits fixed bin,				/* Number of times we had to wait for a lock */
  2    80     2 total_locks_set fixed bin,			/* Total number of block locks set */
  2    81     2 pdir_page_faults fixed bin,			/* total page faults off >pdd */
  2    82     2 level_1_page_faults fixed bin,			/* total page faults in sys libes */
  2    83     2 dir_page_faults fixed bin,			/* Total page faults on directories */
  2    84     2 ring_0_page_faults fixed bin,			/* page faults in ring 0 */
  2    85     2 rqover fixed bin (35),				/* errcode for record quota overflow */
  2    86     2 pc_io_waits fixed bin,				/* Number of times pc had to wait on io */
  2    87
  2    88
  2    89 /*  The following (until pdmap) used to be the 'cnt' in cnt.incl.pl1 */
  2    90
  2    91     2 steps fixed bin,				/* number of steps taken around used list */
  2    92     2 needc fixed bin,				/* number of times core page needed */
  2    93     2 ceiling fixed bin,				/* number of times ceiling hit */
  2    94     2 ctwait fixed bin,				/* number of times write counter was full */
  2    95     2 wired fixed bin,				/* number of pages wired by pc */
  2    96     2 laps fixed bin,				/* number of times around used list */
  2    97     2 skipw fixed bin,				/* number of pages skiped because they were wired */
  2    98     2 skipu fixed bin,				/* because of being used */
  2    99
  2   100     2 skipm fixed bin,				/* because of being modified */
  2   101     2 skipos fixed bin,				/* because out of service */
  2   102     2 aused fixed bin,				/* number of AST entries on used list */
  2   103     2 damaged_ct fixed bin,				/* count of segments that system damaged */
  2   104     2 deact_count fixed bin,				/* count of deactivations */
  2   105     2 demand_deact_attempts fixed bin,			/* user requested deactivations */
  2   106     2 demand_deactivations fixed bin,			/* user instigated deactivations */
  2   107
  2   108     2 reads (8) fixed bin,				/* number of reads for each did */
  2   109     2 writes (8) fixed bin,				/* number of writes for each did */
  2   110
  2   111     2 short_pf_count fixed bin,			/* count of page faults on out of service pages */
  2   112     2 loop_locks fixed bin,				/* count of times locked PTL */
  2   113     2 loop_lock_time fixed bin (71),			/* time spent looping on PTL */
  2   114     2 cpu_sf_time fixed bin (71),			/* cpu time spent in seg_fault */
  2   115     2 total_sf_pf fixed bin,				/* total page faults while in seg_fault */
  2   116     2 total_sf fixed bin,				/* total number of seg_faults */
  2   117     2 pre_page_size fixed bin,			/* total pre-pagings expected */
  2   118     2 post_list_size fixed bin,
  2   119     2 post_purgings fixed bin,			/* total number of post-purgings */
  2   120     2 post_purge_calls fixed bin,			/* total number of calls to post-purge */
  2   121     2 pre_page_calls fixed bin,			/* total number of calls tp pre-page */
  2   122     2 pre_page_list_size fixed bin,
  2   123     2 pre_page_misses fixed bin,			/* total number of misses in pre-page list */
  2   124     2 pre_pagings fixed bin,				/* total number of pre-pagings */
  2   125
  2   126 /*  TEMPORARY WIRED PROCEDURE INFO  */
  2   127
  2   128     2 wire_proc_data (8) fixed bin (71),		/* data for wire_proc */
  2   129
  2   130 /* MAIN MEMORY USAGE INFORMATION */
  2   131
  2   132     2 abs_wired_count fixed bin,			/* count of abs-wired pages */
  2   133     2 system_type fixed bin,				/* ADP_SYSTEM or L68_SYSTEM */
  2   134     2 wired_copies fixed bin,				/* number of times a wired page was copied */
  2   135     2 recopies fixed bin,				/* number of times recopied because modified */
  2   136     2 first_core_block fixed bin,			/* core map index for first block of core */
  2   137     2 last_core_block fixed bin,			/* core map index for last block of core */
  2   138     2 fw_retries fixed bin (35),			/* force_write retries due to ASTE move */
  2   139     2 pvhtp ptr unaligned,				/* ptr to PV hold table for debugging */
  2   140
  2   141 /*  AST METERS  */
  2   142
  2   143     2 askipsize (0: 3) fixed bin,			/* array of skips because wrong AST size */
  2   144     2 aneedsize (0: 3) fixed bin,			/* array of times needed each size */
  2   145
  2   146     2 stepsa fixed bin,				/* count of steps taken looking for an AST entry */
  2   147     2 askipsehs fixed bin,				/* count of skips because EHS was ON */
  2   148     2 asearches fixed bin,				/* count of full searches made */
  2   149     2 askipslevel fixed bin,				/* count of skips because pages were in core */
  2   150     2 askipsinit fixed bin,				/* count of times turned OFF init switch */
  2   151     2 acost fixed bin,				/* cumulative cost of deactivations */
  2   152     2 askipslock fixed bin,				/* count of skips because couldn't lock parent */
  2   153     2 askipdius fixed bin,				/* count of skips because DIUS was on */
  2   154
  2   155     2 alaps fixed bin,				/* lap counter for AST list */
  2   156     2 updates fixed bin,				/* calls to updateb */
  2   157     2 setfaults_all fixed bin,			/* setfaults done to the entire SDW */
  2   158     2 setfaults_acc fixed bin,			/* setfaults done to the access field */
  2   159     2 total_bf fixed bin,				/* count of bound faults */
  2   160     2 total_bf_pf fixed bin,				/* page faults during bound faults */
  2   161     2 cpu_bf_time fixed bin (71),			/* cpu time spent in bound fault */
  2   162
  2   163     2 asteps (0: 3) fixed bin,			/* per-size AST step counters */
  2   164
  2   165     2 ast_locked_at_time fixed bin (71),		/* clock reading when ast last locked */
  2   166     2 ast_locked_total_time fixed bin (71),		/* total real time the ast lock was locked */
  2   167     2 ast_lock_wait_time fixed bin (71),		/* total real time of all waiting on ast lock */
  2   168     2 ast_locking_count fixed bin (35),			/* number of times ast was locked */
  2   169     2 cleanup_count fixed bin,			/* calls to pc$cleanup */
  2   170     2 cleanup_real_time fixed bin (71),			/* total real time in pc$cleanup */
  2   171
  2   172 /* PRE-PAGE METERS */
  2   173
  2   174     2 tree_count (0: 63) fixed bin,			/* counters for pre-page decisions */
  2   175
  2   176     2 pp_meters (0: 63) fixed bin,			/* counters for measuring pre-page success */
  2   177
  2   178
  2   179     2 wusedp bit (18) aligned,			/* Relative cmep to next cme for writing */
  2   180     2 write_hunts fixed bin,				/* Times claim_mod_core invoked */
  2   181     2 claim_skip_cme fixed bin,			/* Times unacceptable cme found by c_m_c */
  2   182     2 claim_skip_free fixed bin,			/* Times free cme passed by c_m_c */
  2   183     2 claim_notmod fixed bin,				/* Times c_m_c passed pure page */
  2   184     2 claim_passed_used fixed bin,			/* Times used page seen */
  2   185     2 claim_skip_ptw fixed bin,			/* Times c_m_c saw unacceptable ptw */
  2   186     2 claim_writes fixed bin,				/* Writes queued by c_m_c */
  2   187     2 claim_steps fixed bin,				/* Steps passed in core claiming */
  2   188     2 pre_seeks_failed fixed bin,			/* counter of times quick find_core_ failed */
  2   189     2 resurrections fixed bin,			/* nulled addresses reinstated */
  2   190     2 volmap_seg_page_faults fixed bin (35),		/* Pseudo-page faults on volmap_seg */
  2   191     2 oopv fixed bin,				/* out-of-physical-volume page faults */
  2   192     2 dblw_resurrections fixed bin,			/* addresses resurrected by double-writing */
  2   193     2 sgm_time fixed bin (71),			/* Time (VCPU) in seg mover */
  2   194     2 sgm_pf fixed bin,				/* Page faults in seg moving */
  2   195     2 bad_sgms fixed bin,				/* Seg moves that failed */
  2   196     2 sgm_sgft fixed bin,				/* Seg faults in seg moves */
  2   197     2 good_sgms fixed bin,				/* Seg moves that completed */
  2   198     2 claim_runs fixed bin,				/* Times claim_mod_core had to run */
  2   199     2 activations fixed bin,				/* total count of activations */
  2   200     2 dir_activations fixed bin,			/* count of directory activations */
  2   201     2 hedge_updatevs fixed bin,			/* call-in updatevs */
  2   202     2 hedge_writes fixed bin,				/* call in core flush writes */
  2   203     2 evict_recover_data,				/* see evict_page.alm */
  2   204      3 evict_ptp bit (18) unal,			/* ptp of page being moved */
  2   205      3 evict_phmbit bit (18) unal,			/* N/Z if page was mod */
  2   206
  2   207 /* Data for metering force_write facility 08/19/78 */
  2   208
  2   209     2 force_swrites fixed bin,			/* Calls on segments to force write */
  2   210     2 force_pwrites fixed bin,			/* Mod pages so written */
  2   211     2 fw_none fixed bin,				/* Force write wrote none */
  2   212     2 force_updatevs fixed bin,			/* Updatev's so forced */
  2   213
  2   214     2 pf_unlock_ptl_time fixed bin (71),		/* Time unlocking ptln page faults */
  2   215     2 pf_unlock_ptl_meterings fixed bin,
  2   216
  2   217     2 makeknown_activations fixed bin (35),		/* activations at makeknown time */
  2   218     2 backup_activations fixed bin (35),		/* activations for backup */
  2   219     2 metering_flags aligned,				/* small chunks of misc. information */
  2   220       3 activate_activated bit (1) unal,		/* ON => last call to activate entry actually activated something */
  2   221       3 pad bit (35) unal,
  2   222     2 seg_fault_calls fixed bin (35),			/* number calls to seg_fault for explicit activation */
  2   223
  2   224 /* METERS FOR STACK TRUNCATION */
  2   225
  2   226     2 (stk_truncate_should_didnt,			/* counts */
  2   227        stk_truncate_should_did,
  2   228        stk_truncate_shouldnt_didnt,
  2   229        stk_truncate_shouldnt_did) fixed bin (35),
  2   230     2 stk_pages_truncated fixed bin (35),
  2   231     2 stk_pages_truncated_in_core fixed bin (35),
  2   232
  2   233 /* SUPPORT FOR PC SEGMOVES */
  2   234
  2   235     2 segmove_lock aligned,
  2   236       3 pid bit (36) aligned,
  2   237       3 event bit (36) aligned,
  2   238       3 notify bit (1) aligned,
  2   239     2 segmove_io_limit fixed bin, /* max read aheads */
  2   240     2 segmove_found_synch fixed bin (35), /* cme.synch_held */
  2   241     2 segmove_synch_disappeared fixed bin (35), /* page$check_synch fixed */
  2   242     2 segmove_n_reads fixed bin (35), /* total IO's queued. */
  2   243     2 segmove_max_tries fixed bin (35), /* max times through the read loop */
  2   244
  2   245     2 segmove_astep ptr unal,				/* if non-null, addresses to be rescued from old_addr_astep */
  2   246     2 segmove_pvtx fixed bin,				/* if segmove_astep nonnull, valid */
  2   247     2 segmove_vtocx fixed bin,			/* ditto */
  2   248     2 segmove_old_addr_astep ptr unaligned,		/* ditto */
  2   249     2 segmove_new_addr_astep ptr unaligned,		/* if non-null, the addresses must be deposited. */
  2   250
  2   251     2 mod_during_write fixed bin,			/* times a page was modified while it was being written */
  2   252     2 zero_pages fixed bin,				/* count of pages truncated because all zero */
  2   253     2 trace_sw aligned,				/* tracing control flags */
  2   254       3 pad_trace bit (32) unaligned,
  2   255       3 pc_trace_pf bit (1) unaligned,			/* tracing for page faults, done, etc. */
  2   256       3 tty_trace bit (1) unaligned,
  2   257       3 pc_trace bit (1) unaligned,			/* flag used by page control primitives */
  2   258       3 sc_trace bit (1) unaligned,			/* flag used by segment control primitives */
  2   259     2 new_pages fixed bin,				/* newly created pages */
  2   260     2 ast_track bit (1) aligned,			/* "1"b => keep SST name table */
  2   261     2 dirlock_writebehind fixed bin,			/* =1 to flush modified dir pages in lock$unlock */
  2   262     2 write_limit fixed bin,				/* Max # of outstanding writes by page control */
  2   263     2 crash_test_segmove bit (1) aligned,		/* crash in mid-segmove */
  2   264     2 delayed_seg_state_chg fixed bin (35),		/* count of times a process was delayed in affecting a seg state */
  2   265     2 audit_seg_state_chg fixed bin (35),		/* count of times a process was audited for excessive seg state changes */
  2   266     2 seg_state_chg_delay fixed bin (52),		/* total times processes were delayed for covert channels */
  2   267     2 seg_state_change_limit fixed bin,			/* number of events over which we determine covert channel bandwidth */
  2   268     2 max_seg_state_change_bw fixed bin,		/* maximum bps for covert channel before we delay */
  2   269     2 audit_seg_state_change_bw fixed bin,		/* maximum bps for covert channel before we audit */
  2   270     2 seg_state_chg_operation bit (36) aligned,		/* access_operation_ value for excessive_seg_state_chg */
  2   271     2 pad4 (126) bit (36) aligned;			/* padding to 512 words (1000)8 */
  2   272
  2   273 /* END INCLUDE FILE sst.incl.pl1 */
       58
       59
       60      end flush_ast_pool;
	SOURCE FILES USED IN THIS COMPILATION.

LINE      NUMBER  DATE MODIFIED     NAME			PATHNAME
             0    11/11/89  0808.5  flush_ast_pool.pl1                >spec>install>1112>flush_ast_pool.pl1
57           1    01/30/85  1523.9  aste.incl.pl1                     >ldd>include>aste.incl.pl1
58           2    01/30/85  1523.9  sst.incl.pl1                      >ldd>include>sst.incl.pl1
	NAMES DECLARED IN THIS COMPILATION.

IDENTIFIER	     OFFSET    LOC STORAGE CLASS   DATA TYPE		ATTRIBUTES AND REFERENCES
								(* indicates a set context)

NAMES DECLARED BY DECLARE STATEMENT.
a_ptsi                                 parameter       fixed bin(17,0)          dcl 18 ref 13 33
addr                                                   builtin function         dcl 28 ref 35
aste                                   based           structure                level 1 dcl 1-11
astep                           000104 automatic       pointer                  dcl 1-9 set ref 42* 42* 46 48 48 48 49* 52 52
ausedp                   44            based           bit(18)                  array level 3 packed packed unaligned dcl 2-9 ref 36
                                                                                  36 40
deact_error               5(10)        based           bit(1)                   level 2 packed packed unaligned dcl 1-11 set ref 46*
fastep                          000100 automatic       pointer                  dcl 20 set ref 40* 42 42
first                           000102 automatic       bit(1)                   dcl 21 set ref 41* 42 44*
fmchanged                12(09)        based           bit(1)                   level 2 packed packed unaligned dcl 1-11 ref 48
fp                                     based           bit(18)                  level 2 packed packed unaligned dcl 1-11 ref 52
hbound                                                 builtin function         dcl 28 ref 36
hedge_updatevs          521            based           fixed bin(17,0)          level 2 dcl 2-9 set ref 50* 50
lbound                                                 builtin function         dcl 28 ref 36
level                    44            based           structure                array level 2 dcl 2-9
lock$lock_ast                   000010 constant        entry                    external dcl 24 ref 38
lock$unlock_ast                 000012 constant        entry                    external dcl 25 ref 54
per_process              12(14)        based           bit(1)                   level 2 packed packed unaligned dcl 1-11 ref 48
pointer                                                builtin function         dcl 28 ref 52
ptr                                                    builtin function         dcl 28 ref 40
ptsi                            000103 automatic       fixed bin(17,0)          dcl 22 set ref 33* 36 36 40
sst                                    based           structure                level 1 dcl 2-9
sst_seg$                        000016 external static fixed bin(17,0)          dcl 2-6 set ref 35
sstp                            000106 automatic       pointer                  dcl 2-7 set ref 35* 36 36 40 40 50 50
update_vtoce                    000014 constant        entry                    external dcl 26 ref 49
usedf                     5            based           bit(1)                   level 2 packed packed unaligned dcl 1-11 ref 48

NAMES DECLARED BY DECLARE STATEMENT AND NEVER REFERENCED.
asta                                   based           bit(432)                 array dcl 1-86
aste_part                              based           structure                level 1 dcl 1-89
seg_aste                               based           structure                level 1 dcl 1-96

NAME DECLARED BY EXPLICIT CONTEXT.
flush_ast_pool                  000004 constant        entry                    external dcl 13

THERE WERE NO NAMES DECLARED BY CONTEXT OR IMPLICATION.

STORAGE REQUIREMENTS FOR THIS PROGRAM.

	Object	Text	Link	Symbol	Defs	Static
Start          0       0       170         210     111         200
Length       404     111        20         160      57           0

BLOCK NAME	         STACK SIZE     TYPE		WHY NONQUICK/WHO SHARES STACK FRAME
flush_ast_pool                       76 external procedure  is an external procedure.

STORAGE FOR AUTOMATIC VARIABLES.

STACK FRAME                 LOC IDENTIFIER                  BLOCK NAME
flush_ast_pool           000100 fastep                      flush_ast_pool
                         000102 first                       flush_ast_pool
                         000103 ptsi                        flush_ast_pool
                         000104 astep                       flush_ast_pool
                         000106 sstp                        flush_ast_pool

THE FOLLOWING EXTERNAL OPERATORS ARE USED BY THIS PROGRAM.
call_ext_out        return_mac          ext_entry

THE FOLLOWING EXTERNAL ENTRIES ARE CALLED BY THIS PROGRAM.
lock$lock_ast                 lock$unlock_ast               update_vtoce

THE FOLLOWING EXTERNAL VARIABLES ARE USED BY THIS PROGRAM.
sst_seg$


   LINE    LOC      LINE    LOC      LINE    LOC      LINE    LOC      LINE    LOC      LINE    LOC      LINE    LOC
     13 000001        33 000011        35 000014        36 000016        38 000021        40 000025        41 000034
     42 000036        44 000046        46 000047        48 000052        49 000063        50 000072        52 000074
     54 000102        55 000107


                                          -----------------------------------------------------------


Historical Background

This edition of the Multics software materials and documentation is provided and donated
to Massachusetts Institute of Technology by Group BULL including BULL HN Information Systems Inc.
as a contribution to computer science knowledge.
This donation is made also to give evidence of the common contributions of Massachusetts Institute of Technology,
Bell Laboratories, General Electric, Honeywell Information Systems Inc., Honeywell BULL Inc., Groupe BULL
and BULL HN Information Systems Inc. to the development of this operating system.
Multics development was initiated by Massachusetts Institute of Technology Project MAC (1963-1970),
renamed the MIT Laboratory for Computer Science and Artificial Intelligence in the mid 1970s, under the leadership
of Professor Fernando Jose Corbato. Users consider that Multics provided the best software architecture
for managing computer hardware properly and for executing programs. Many subsequent operating systems
incorporated Multics principles.
Multics was distributed in 1975 to 2000 by Group Bull in Europe , and in the U.S. by Bull HN Information Systems Inc.,
as successor in interest by change in name only to Honeywell Bull Inc. and Honeywell Information Systems Inc. .

                                          -----------------------------------------------------------

Permission to use, copy, modify, and distribute these programs and their documentation for any purpose and without
fee is hereby granted,provided that the below copyright notice and historical background appear in all copies
and that both the copyright notice and historical background and this permission notice appear in supporting
documentation, and that the names of MIT, HIS, BULL or BULL HN not be used in advertising or publicity pertaining
to distribution of the programs without specific prior written permission.
    Copyright 1972 by Massachusetts Institute of Technology and Honeywell Information Systems Inc.
    Copyright 2006 by BULL HN Information Systems Inc.
    Copyright 2006 by Bull SAS
    All Rights Reserved
