ASSEMBLY LISTING OF SEGMENT >spec>install>1110>fv_iv_template.alm
ASSEMBLED ON:	11/11/89  0953.0 mst Sat
OPTIONS USED:	-target l68                              list symbols
ASSEMBLED BY:	ALM Version 8.14 March 1989
ASSEMBLER CREATED:	06/09/89  1002.3 mst Fri

                                     1  " ***********************************************************
                                     2  " *                                                         *
                                     3  " * Copyright, (C) Honeywell Bull Inc., 1987                *
                                     4  " *                                                         *
                                     5  " * Copyright, (C) Honeywell Information Systems Inc., 1982 *
                                     6  " *                                                         *
                                     7  " * Copyright (c) 1972 by Massachusetts Institute of        *
                                     8  " * Technology and Honeywell Information Systems, Inc.      *
                                     9  " *                                                         *
                                    10  " ***********************************************************
                                    11
                                    12  " FV_IV_TEMPLATE - Catch Unexpected Faults when Starting a Processor.
                                    13  "	coded 2/76 by S. H. Webber
                                    14  "	last modified 4/7/76 by Noel I. Morris
                                    15  "	Converted to ALM macros (this was the last mexp program
                                    16  "	  in all of hardcore!), 04/20/80 W. Olin Sibert
                                    17
                                    18
    000000                          19  	name	fv_iv_template
                                    20
                        000000      21  	segdef	fv_iv_template
                        003740      22  	segdef	rsw_data
                                    23
                                    24
                                    25  "	This 2K segment is placed at the base of every system controller.
                                    26  "	It will catch attempts to start up a processor with incorrect
                                    27  "	address assignment switch settings.
                                    28  "
                                    29
                                    30
                                    31
                                    32  	macro	fv_iv
                              1     33  	dup	992		"992=32*(15+16)
                              2     34  	tra	start-fv_iv_template
                              3     35  	nop
                              4     36  	dupend
                              5     37  	&end
                                    38
                                    39
                                    40  " 
                                    41
    000000                          42  	inhibit	on	<+><+><+><+><+><+><+><+><+><+><+><+>
                                    43
    000000                          44  fv_iv_template:
                                    45  	fv_iv
                        001740          	dup	992		"992=32*(15+16)
    000000  aa   003700 7102 00         	tra	start-fv_iv_template
    000001  aa   000000 0112 00         	nop
                                        	dupend
    000002  aa   003700 7102 00         	tra	start-fv_iv_template
    000003  aa   000000 0112 00         	nop
    000004  aa   003700 7102 00         	tra	start-fv_iv_template
    000005  aa   000000 0112 00         	nop
    000006  aa   003700 7102 00         	tra	start-fv_iv_template
    000007  aa   000000 0112 00         	nop
    000010  aa   003700 7102 00         	tra	start-fv_iv_template
    000011  aa   000000 0112 00         	nop
    000012  aa   003700 7102 00         	tra	start-fv_iv_template
    000013  aa   000000 0112 00         	nop
    000014  aa   003700 7102 00         	tra	start-fv_iv_template
    000015  aa   000000 0112 00         	nop
    000016  aa   003700 7102 00         	tra	start-fv_iv_template
    000017  aa   000000 0112 00         	nop
    000020  aa   003700 7102 00         	tra	start-fv_iv_template
    000021  aa   000000 0112 00         	nop
    000022  aa   003700 7102 00         	tra	start-fv_iv_template
    000023  aa   000000 0112 00         	nop
    000024  aa   003700 7102 00         	tra	start-fv_iv_template
    000025  aa   000000 0112 00         	nop
    000026  aa   003700 7102 00         	tra	start-fv_iv_template
    000027  aa   000000 0112 00         	nop
    000030  aa   003700 7102 00         	tra	start-fv_iv_template
    000031  aa   000000 0112 00         	nop
    000032  aa   003700 7102 00         	tra	start-fv_iv_template
    000033  aa   000000 0112 00         	nop
    000034  aa   003700 7102 00         	tra	start-fv_iv_template
    000035  aa   000000 0112 00         	nop
    000036  aa   003700 7102 00         	tra	start-fv_iv_template
    000037  aa   000000 0112 00         	nop
    000040  aa   003700 7102 00         	tra	start-fv_iv_template
    000041  aa   000000 0112 00         	nop
    000042  aa   003700 7102 00         	tra	start-fv_iv_template
    000043  aa   000000 0112 00         	nop
    000044  aa   003700 7102 00         	tra	start-fv_iv_template
    000045  aa   000000 0112 00         	nop
    000046  aa   003700 7102 00         	tra	start-fv_iv_template
    000047  aa   000000 0112 00         	nop
    000050  aa   003700 7102 00         	tra	start-fv_iv_template
    000051  aa   000000 0112 00         	nop
    000052  aa   003700 7102 00         	tra	start-fv_iv_template
    000053  aa   000000 0112 00         	nop
    000054  aa   003700 7102 00         	tra	start-fv_iv_template
    000055  aa   000000 0112 00         	nop
    000056  aa   003700 7102 00         	tra	start-fv_iv_template
    000057  aa   000000 0112 00         	nop
    000060  aa   003700 7102 00         	tra	start-fv_iv_template
    000061  aa   000000 0112 00         	nop
    000062  aa   003700 7102 00         	tra	start-fv_iv_template
    000063  aa   000000 0112 00         	nop
    000064  aa   003700 7102 00         	tra	start-fv_iv_template
    000065  aa   000000 0112 00         	nop
    000066  aa   003700 7102 00         	tra	start-fv_iv_template
    000067  aa   000000 0112 00         	nop
    000070  aa   003700 7102 00         	tra	start-fv_iv_template
    000071  aa   000000 0112 00         	nop
    000072  aa   003700 7102 00         	tra	start-fv_iv_template
    000073  aa   000000 0112 00         	nop
    000074  aa   003700 7102 00         	tra	start-fv_iv_template
    000075  aa   000000 0112 00         	nop
    000076  aa   003700 7102 00         	tra	start-fv_iv_template
    000077  aa   000000 0112 00         	nop
    000100  aa   003700 7102 00         	tra	start-fv_iv_template
    000101  aa   000000 0112 00         	nop
    000102  aa   003700 7102 00         	tra	start-fv_iv_template
    000103  aa   000000 0112 00         	nop
    000104  aa   003700 7102 00         	tra	start-fv_iv_template
    000105  aa   000000 0112 00         	nop
    000106  aa   003700 7102 00         	tra	start-fv_iv_template
    000107  aa   000000 0112 00         	nop
    000110  aa   003700 7102 00         	tra	start-fv_iv_template
    000111  aa   000000 0112 00         	nop
    000112  aa   003700 7102 00         	tra	start-fv_iv_template
    000113  aa   000000 0112 00         	nop
    000114  aa   003700 7102 00         	tra	start-fv_iv_template
    000115  aa   000000 0112 00         	nop
    000116  aa   003700 7102 00         	tra	start-fv_iv_template
    000117  aa   000000 0112 00         	nop
    000120  aa   003700 7102 00         	tra	start-fv_iv_template
    000121  aa   000000 0112 00         	nop
    000122  aa   003700 7102 00         	tra	start-fv_iv_template
    000123  aa   000000 0112 00         	nop
    000124  aa   003700 7102 00         	tra	start-fv_iv_template
    000125  aa   000000 0112 00         	nop
    000126  aa   003700 7102 00         	tra	start-fv_iv_template
    000127  aa   000000 0112 00         	nop
    000130  aa   003700 7102 00         	tra	start-fv_iv_template
    000131  aa   000000 0112 00         	nop
    000132  aa   003700 7102 00         	tra	start-fv_iv_template
    000133  aa   000000 0112 00         	nop
    000134  aa   003700 7102 00         	tra	start-fv_iv_template
    000135  aa   000000 0112 00         	nop
    000136  aa   003700 7102 00         	tra	start-fv_iv_template
    000137  aa   000000 0112 00         	nop
    000140  aa   003700 7102 00         	tra	start-fv_iv_template
    000141  aa   000000 0112 00         	nop
    000142  aa   003700 7102 00         	tra	start-fv_iv_template
    000143  aa   000000 0112 00         	nop
    000144  aa   003700 7102 00         	tra	start-fv_iv_template
    000145  aa   000000 0112 00         	nop
    000146  aa   003700 7102 00         	tra	start-fv_iv_template
    000147  aa   000000 0112 00         	nop
    000150  aa   003700 7102 00         	tra	start-fv_iv_template
    000151  aa   000000 0112 00         	nop
    000152  aa   003700 7102 00         	tra	start-fv_iv_template
    000153  aa   000000 0112 00         	nop
    000154  aa   003700 7102 00         	tra	start-fv_iv_template
    000155  aa   000000 0112 00         	nop
    000156  aa   003700 7102 00         	tra	start-fv_iv_template
    000157  aa   000000 0112 00         	nop
    000160  aa   003700 7102 00         	tra	start-fv_iv_template
    000161  aa   000000 0112 00         	nop
    000162  aa   003700 7102 00         	tra	start-fv_iv_template
    000163  aa   000000 0112 00         	nop
    000164  aa   003700 7102 00         	tra	start-fv_iv_template
    000165  aa   000000 0112 00         	nop
    000166  aa   003700 7102 00         	tra	start-fv_iv_template
    000167  aa   000000 0112 00         	nop
    000170  aa   003700 7102 00         	tra	start-fv_iv_template
    000171  aa   000000 0112 00         	nop
    000172  aa   003700 7102 00         	tra	start-fv_iv_template
    000173  aa   000000 0112 00         	nop
    000174  aa   003700 7102 00         	tra	start-fv_iv_template
    000175  aa   000000 0112 00         	nop
    000176  aa   003700 7102 00         	tra	start-fv_iv_template
    000177  aa   000000 0112 00         	nop
    000200  aa   003700 7102 00         	tra	start-fv_iv_template
    000201  aa   000000 0112 00         	nop
    000202  aa   003700 7102 00         	tra	start-fv_iv_template
    000203  aa   000000 0112 00         	nop
    000204  aa   003700 7102 00         	tra	start-fv_iv_template
    000205  aa   000000 0112 00         	nop
    000206  aa   003700 7102 00         	tra	start-fv_iv_template
    000207  aa   000000 0112 00         	nop
    000210  aa   003700 7102 00         	tra	start-fv_iv_template
    000211  aa   000000 0112 00         	nop
    000212  aa   003700 7102 00         	tra	start-fv_iv_template
    000213  aa   000000 0112 00         	nop
    000214  aa   003700 7102 00         	tra	start-fv_iv_template
    000215  aa   000000 0112 00         	nop
    000216  aa   003700 7102 00         	tra	start-fv_iv_template
    000217  aa   000000 0112 00         	nop
    000220  aa   003700 7102 00         	tra	start-fv_iv_template
    000221  aa   000000 0112 00         	nop
    000222  aa   003700 7102 00         	tra	start-fv_iv_template
    000223  aa   000000 0112 00         	nop
    000224  aa   003700 7102 00         	tra	start-fv_iv_template
    000225  aa   000000 0112 00         	nop
    000226  aa   003700 7102 00         	tra	start-fv_iv_template
    000227  aa   000000 0112 00         	nop
    000230  aa   003700 7102 00         	tra	start-fv_iv_template
    000231  aa   000000 0112 00         	nop
    000232  aa   003700 7102 00         	tra	start-fv_iv_template
    000233  aa   000000 0112 00         	nop
    000234  aa   003700 7102 00         	tra	start-fv_iv_template
    000235  aa   000000 0112 00         	nop
    000236  aa   003700 7102 00         	tra	start-fv_iv_template
    000237  aa   000000 0112 00         	nop
    000240  aa   003700 7102 00         	tra	start-fv_iv_template
    000241  aa   000000 0112 00         	nop
    000242  aa   003700 7102 00         	tra	start-fv_iv_template
    000243  aa   000000 0112 00         	nop
    000244  aa   003700 7102 00         	tra	start-fv_iv_template
    000245  aa   000000 0112 00         	nop
    000246  aa   003700 7102 00         	tra	start-fv_iv_template
    000247  aa   000000 0112 00         	nop
    000250  aa   003700 7102 00         	tra	start-fv_iv_template
    000251  aa   000000 0112 00         	nop
    000252  aa   003700 7102 00         	tra	start-fv_iv_template
    000253  aa   000000 0112 00         	nop
    000254  aa   003700 7102 00         	tra	start-fv_iv_template
    000255  aa   000000 0112 00         	nop
    000256  aa   003700 7102 00         	tra	start-fv_iv_template
    000257  aa   000000 0112 00         	nop
    000260  aa   003700 7102 00         	tra	start-fv_iv_template
    000261  aa   000000 0112 00         	nop
    000262  aa   003700 7102 00         	tra	start-fv_iv_template
    000263  aa   000000 0112 00         	nop
    000264  aa   003700 7102 00         	tra	start-fv_iv_template
    000265  aa   000000 0112 00         	nop
    000266  aa   003700 7102 00         	tra	start-fv_iv_template
    000267  aa   000000 0112 00         	nop
    000270  aa   003700 7102 00         	tra	start-fv_iv_template
    000271  aa   000000 0112 00         	nop
    000272  aa   003700 7102 00         	tra	start-fv_iv_template
    000273  aa   000000 0112 00         	nop
    000274  aa   003700 7102 00         	tra	start-fv_iv_template
    000275  aa   000000 0112 00         	nop
    000276  aa   003700 7102 00         	tra	start-fv_iv_template
    000277  aa   000000 0112 00         	nop
    000300  aa   003700 7102 00         	tra	start-fv_iv_template
    000301  aa   000000 0112 00         	nop
    000302  aa   003700 7102 00         	tra	start-fv_iv_template
    000303  aa   000000 0112 00         	nop
    000304  aa   003700 7102 00         	tra	start-fv_iv_template
    000305  aa   000000 0112 00         	nop
    000306  aa   003700 7102 00         	tra	start-fv_iv_template
    000307  aa   000000 0112 00         	nop
    000310  aa   003700 7102 00         	tra	start-fv_iv_template
    000311  aa   000000 0112 00         	nop
    000312  aa   003700 7102 00         	tra	start-fv_iv_template
    000313  aa   000000 0112 00         	nop
    000314  aa   003700 7102 00         	tra	start-fv_iv_template
    000315  aa   000000 0112 00         	nop
    000316  aa   003700 7102 00         	tra	start-fv_iv_template
    000317  aa   000000 0112 00         	nop
    000320  aa   003700 7102 00         	tra	start-fv_iv_template
    000321  aa   000000 0112 00         	nop
    000322  aa   003700 7102 00         	tra	start-fv_iv_template
    000323  aa   000000 0112 00         	nop
    000324  aa   003700 7102 00         	tra	start-fv_iv_template
    000325  aa   000000 0112 00         	nop
    000326  aa   003700 7102 00         	tra	start-fv_iv_template
    000327  aa   000000 0112 00         	nop
    000330  aa   003700 7102 00         	tra	start-fv_iv_template
    000331  aa   000000 0112 00         	nop
    000332  aa   003700 7102 00         	tra	start-fv_iv_template
    000333  aa   000000 0112 00         	nop
    000334  aa   003700 7102 00         	tra	start-fv_iv_template
    000335  aa   000000 0112 00         	nop
    000336  aa   003700 7102 00         	tra	start-fv_iv_template
    000337  aa   000000 0112 00         	nop
    000340  aa   003700 7102 00         	tra	start-fv_iv_template
    000341  aa   000000 0112 00         	nop
    000342  aa   003700 7102 00         	tra	start-fv_iv_template
    000343  aa   000000 0112 00         	nop
    000344  aa   003700 7102 00         	tra	start-fv_iv_template
    000345  aa   000000 0112 00         	nop
    000346  aa   003700 7102 00         	tra	start-fv_iv_template
    000347  aa   000000 0112 00         	nop
    000350  aa   003700 7102 00         	tra	start-fv_iv_template
    000351  aa   000000 0112 00         	nop
    000352  aa   003700 7102 00         	tra	start-fv_iv_template
    000353  aa   000000 0112 00         	nop
    000354  aa   003700 7102 00         	tra	start-fv_iv_template
    000355  aa   000000 0112 00         	nop
    000356  aa   003700 7102 00         	tra	start-fv_iv_template
    000357  aa   000000 0112 00         	nop
    000360  aa   003700 7102 00         	tra	start-fv_iv_template
    000361  aa   000000 0112 00         	nop
    000362  aa   003700 7102 00         	tra	start-fv_iv_template
    000363  aa   000000 0112 00         	nop
    000364  aa   003700 7102 00         	tra	start-fv_iv_template
    000365  aa   000000 0112 00         	nop
    000366  aa   003700 7102 00         	tra	start-fv_iv_template
    000367  aa   000000 0112 00         	nop
    000370  aa   003700 7102 00         	tra	start-fv_iv_template
    000371  aa   000000 0112 00         	nop
    000372  aa   003700 7102 00         	tra	start-fv_iv_template
    000373  aa   000000 0112 00         	nop
    000374  aa   003700 7102 00         	tra	start-fv_iv_template
    000375  aa   000000 0112 00         	nop
    000376  aa   003700 7102 00         	tra	start-fv_iv_template
    000377  aa   000000 0112 00         	nop
    000400  aa   003700 7102 00         	tra	start-fv_iv_template
    000401  aa   000000 0112 00         	nop
    000402  aa   003700 7102 00         	tra	start-fv_iv_template
    000403  aa   000000 0112 00         	nop
    000404  aa   003700 7102 00         	tra	start-fv_iv_template
    000405  aa   000000 0112 00         	nop
    000406  aa   003700 7102 00         	tra	start-fv_iv_template
    000407  aa   000000 0112 00         	nop
    000410  aa   003700 7102 00         	tra	start-fv_iv_template
    000411  aa   000000 0112 00         	nop
    000412  aa   003700 7102 00         	tra	start-fv_iv_template
    000413  aa   000000 0112 00         	nop
    000414  aa   003700 7102 00         	tra	start-fv_iv_template
    000415  aa   000000 0112 00         	nop
    000416  aa   003700 7102 00         	tra	start-fv_iv_template
    000417  aa   000000 0112 00         	nop
    000420  aa   003700 7102 00         	tra	start-fv_iv_template
    000421  aa   000000 0112 00         	nop
    000422  aa   003700 7102 00         	tra	start-fv_iv_template
    000423  aa   000000 0112 00         	nop
    000424  aa   003700 7102 00         	tra	start-fv_iv_template
    000425  aa   000000 0112 00         	nop
    000426  aa   003700 7102 00         	tra	start-fv_iv_template
    000427  aa   000000 0112 00         	nop
    000430  aa   003700 7102 00         	tra	start-fv_iv_template
    000431  aa   000000 0112 00         	nop
    000432  aa   003700 7102 00         	tra	start-fv_iv_template
    000433  aa   000000 0112 00         	nop
    000434  aa   003700 7102 00         	tra	start-fv_iv_template
    000435  aa   000000 0112 00         	nop
    000436  aa   003700 7102 00         	tra	start-fv_iv_template
    000437  aa   000000 0112 00         	nop
    000440  aa   003700 7102 00         	tra	start-fv_iv_template
    000441  aa   000000 0112 00         	nop
    000442  aa   003700 7102 00         	tra	start-fv_iv_template
    000443  aa   000000 0112 00         	nop
    000444  aa   003700 7102 00         	tra	start-fv_iv_template
    000445  aa   000000 0112 00         	nop
    000446  aa   003700 7102 00         	tra	start-fv_iv_template
    000447  aa   000000 0112 00         	nop
    000450  aa   003700 7102 00         	tra	start-fv_iv_template
    000451  aa   000000 0112 00         	nop
    000452  aa   003700 7102 00         	tra	start-fv_iv_template
    000453  aa   000000 0112 00         	nop
    000454  aa   003700 7102 00         	tra	start-fv_iv_template
    000455  aa   000000 0112 00         	nop
    000456  aa   003700 7102 00         	tra	start-fv_iv_template
    000457  aa   000000 0112 00         	nop
    000460  aa   003700 7102 00         	tra	start-fv_iv_template
    000461  aa   000000 0112 00         	nop
    000462  aa   003700 7102 00         	tra	start-fv_iv_template
    000463  aa   000000 0112 00         	nop
    000464  aa   003700 7102 00         	tra	start-fv_iv_template
    000465  aa   000000 0112 00         	nop
    000466  aa   003700 7102 00         	tra	start-fv_iv_template
    000467  aa   000000 0112 00         	nop
    000470  aa   003700 7102 00         	tra	start-fv_iv_template
    000471  aa   000000 0112 00         	nop
    000472  aa   003700 7102 00         	tra	start-fv_iv_template
    000473  aa   000000 0112 00         	nop
    000474  aa   003700 7102 00         	tra	start-fv_iv_template
    000475  aa   000000 0112 00         	nop
    000476  aa   003700 7102 00         	tra	start-fv_iv_template
    000477  aa   000000 0112 00         	nop
    000500  aa   003700 7102 00         	tra	start-fv_iv_template
    000501  aa   000000 0112 00         	nop
    000502  aa   003700 7102 00         	tra	start-fv_iv_template
    000503  aa   000000 0112 00         	nop
    000504  aa   003700 7102 00         	tra	start-fv_iv_template
    000505  aa   000000 0112 00         	nop
    000506  aa   003700 7102 00         	tra	start-fv_iv_template
    000507  aa   000000 0112 00         	nop
    000510  aa   003700 7102 00         	tra	start-fv_iv_template
    000511  aa   000000 0112 00         	nop
    000512  aa   003700 7102 00         	tra	start-fv_iv_template
    000513  aa   000000 0112 00         	nop
    000514  aa   003700 7102 00         	tra	start-fv_iv_template
    000515  aa   000000 0112 00         	nop
    000516  aa   003700 7102 00         	tra	start-fv_iv_template
    000517  aa   000000 0112 00         	nop
    000520  aa   003700 7102 00         	tra	start-fv_iv_template
    000521  aa   000000 0112 00         	nop
    000522  aa   003700 7102 00         	tra	start-fv_iv_template
    000523  aa   000000 0112 00         	nop
    000524  aa   003700 7102 00         	tra	start-fv_iv_template
    000525  aa   000000 0112 00         	nop
    000526  aa   003700 7102 00         	tra	start-fv_iv_template
    000527  aa   000000 0112 00         	nop
    000530  aa   003700 7102 00         	tra	start-fv_iv_template
    000531  aa   000000 0112 00         	nop
    000532  aa   003700 7102 00         	tra	start-fv_iv_template
    000533  aa   000000 0112 00         	nop
    000534  aa   003700 7102 00         	tra	start-fv_iv_template
    000535  aa   000000 0112 00         	nop
    000536  aa   003700 7102 00         	tra	start-fv_iv_template
    000537  aa   000000 0112 00         	nop
    000540  aa   003700 7102 00         	tra	start-fv_iv_template
    000541  aa   000000 0112 00         	nop
    000542  aa   003700 7102 00         	tra	start-fv_iv_template
    000543  aa   000000 0112 00         	nop
    000544  aa   003700 7102 00         	tra	start-fv_iv_template
    000545  aa   000000 0112 00         	nop
    000546  aa   003700 7102 00         	tra	start-fv_iv_template
    000547  aa   000000 0112 00         	nop
    000550  aa   003700 7102 00         	tra	start-fv_iv_template
    000551  aa   000000 0112 00         	nop
    000552  aa   003700 7102 00         	tra	start-fv_iv_template
    000553  aa   000000 0112 00         	nop
    000554  aa   003700 7102 00         	tra	start-fv_iv_template
    000555  aa   000000 0112 00         	nop
    000556  aa   003700 7102 00         	tra	start-fv_iv_template
    000557  aa   000000 0112 00         	nop
    000560  aa   003700 7102 00         	tra	start-fv_iv_template
    000561  aa   000000 0112 00         	nop
    000562  aa   003700 7102 00         	tra	start-fv_iv_template
    000563  aa   000000 0112 00         	nop
    000564  aa   003700 7102 00         	tra	start-fv_iv_template
    000565  aa   000000 0112 00         	nop
    000566  aa   003700 7102 00         	tra	start-fv_iv_template
    000567  aa   000000 0112 00         	nop
    000570  aa   003700 7102 00         	tra	start-fv_iv_template
    000571  aa   000000 0112 00         	nop
    000572  aa   003700 7102 00         	tra	start-fv_iv_template
    000573  aa   000000 0112 00         	nop
    000574  aa   003700 7102 00         	tra	start-fv_iv_template
    000575  aa   000000 0112 00         	nop
    000576  aa   003700 7102 00         	tra	start-fv_iv_template
    000577  aa   000000 0112 00         	nop
    000600  aa   003700 7102 00         	tra	start-fv_iv_template
    000601  aa   000000 0112 00         	nop
    000602  aa   003700 7102 00         	tra	start-fv_iv_template
    000603  aa   000000 0112 00         	nop
    000604  aa   003700 7102 00         	tra	start-fv_iv_template
    000605  aa   000000 0112 00         	nop
    000606  aa   003700 7102 00         	tra	start-fv_iv_template
    000607  aa   000000 0112 00         	nop
    000610  aa   003700 7102 00         	tra	start-fv_iv_template
    000611  aa   000000 0112 00         	nop
    000612  aa   003700 7102 00         	tra	start-fv_iv_template
    000613  aa   000000 0112 00         	nop
    000614  aa   003700 7102 00         	tra	start-fv_iv_template
    000615  aa   000000 0112 00         	nop
    000616  aa   003700 7102 00         	tra	start-fv_iv_template
    000617  aa   000000 0112 00         	nop
    000620  aa   003700 7102 00         	tra	start-fv_iv_template
    000621  aa   000000 0112 00         	nop
    000622  aa   003700 7102 00         	tra	start-fv_iv_template
    000623  aa   000000 0112 00         	nop
    000624  aa   003700 7102 00         	tra	start-fv_iv_template
    000625  aa   000000 0112 00         	nop
    000626  aa   003700 7102 00         	tra	start-fv_iv_template
    000627  aa   000000 0112 00         	nop
    000630  aa   003700 7102 00         	tra	start-fv_iv_template
    000631  aa   000000 0112 00         	nop
    000632  aa   003700 7102 00         	tra	start-fv_iv_template
    000633  aa   000000 0112 00         	nop
    000634  aa   003700 7102 00         	tra	start-fv_iv_template
    000635  aa   000000 0112 00         	nop
    000636  aa   003700 7102 00         	tra	start-fv_iv_template
    000637  aa   000000 0112 00         	nop
    000640  aa   003700 7102 00         	tra	start-fv_iv_template
    000641  aa   000000 0112 00         	nop
    000642  aa   003700 7102 00         	tra	start-fv_iv_template
    000643  aa   000000 0112 00         	nop
    000644  aa   003700 7102 00         	tra	start-fv_iv_template
    000645  aa   000000 0112 00         	nop
    000646  aa   003700 7102 00         	tra	start-fv_iv_template
    000647  aa   000000 0112 00         	nop
    000650  aa   003700 7102 00         	tra	start-fv_iv_template
    000651  aa   000000 0112 00         	nop
    000652  aa   003700 7102 00         	tra	start-fv_iv_template
    000653  aa   000000 0112 00         	nop
    000654  aa   003700 7102 00         	tra	start-fv_iv_template
    000655  aa   000000 0112 00         	nop
    000656  aa   003700 7102 00         	tra	start-fv_iv_template
    000657  aa   000000 0112 00         	nop
    000660  aa   003700 7102 00         	tra	start-fv_iv_template
    000661  aa   000000 0112 00         	nop
    000662  aa   003700 7102 00         	tra	start-fv_iv_template
    000663  aa   000000 0112 00         	nop
    000664  aa   003700 7102 00         	tra	start-fv_iv_template
    000665  aa   000000 0112 00         	nop
    000666  aa   003700 7102 00         	tra	start-fv_iv_template
    000667  aa   000000 0112 00         	nop
    000670  aa   003700 7102 00         	tra	start-fv_iv_template
    000671  aa   000000 0112 00         	nop
    000672  aa   003700 7102 00         	tra	start-fv_iv_template
    000673  aa   000000 0112 00         	nop
    000674  aa   003700 7102 00         	tra	start-fv_iv_template
    000675  aa   000000 0112 00         	nop
    000676  aa   003700 7102 00         	tra	start-fv_iv_template
    000677  aa   000000 0112 00         	nop
    000700  aa   003700 7102 00         	tra	start-fv_iv_template
    000701  aa   000000 0112 00         	nop
    000702  aa   003700 7102 00         	tra	start-fv_iv_template
    000703  aa   000000 0112 00         	nop
    000704  aa   003700 7102 00         	tra	start-fv_iv_template
    000705  aa   000000 0112 00         	nop
    000706  aa   003700 7102 00         	tra	start-fv_iv_template
    000707  aa   000000 0112 00         	nop
    000710  aa   003700 7102 00         	tra	start-fv_iv_template
    000711  aa   000000 0112 00         	nop
    000712  aa   003700 7102 00         	tra	start-fv_iv_template
    000713  aa   000000 0112 00         	nop
    000714  aa   003700 7102 00         	tra	start-fv_iv_template
    000715  aa   000000 0112 00         	nop
    000716  aa   003700 7102 00         	tra	start-fv_iv_template
    000717  aa   000000 0112 00         	nop
    000720  aa   003700 7102 00         	tra	start-fv_iv_template
    000721  aa   000000 0112 00         	nop
    000722  aa   003700 7102 00         	tra	start-fv_iv_template
    000723  aa   000000 0112 00         	nop
    000724  aa   003700 7102 00         	tra	start-fv_iv_template
    000725  aa   000000 0112 00         	nop
    000726  aa   003700 7102 00         	tra	start-fv_iv_template
    000727  aa   000000 0112 00         	nop
    000730  aa   003700 7102 00         	tra	start-fv_iv_template
    000731  aa   000000 0112 00         	nop
    000732  aa   003700 7102 00         	tra	start-fv_iv_template
    000733  aa   000000 0112 00         	nop
    000734  aa   003700 7102 00         	tra	start-fv_iv_template
    000735  aa   000000 0112 00         	nop
    000736  aa   003700 7102 00         	tra	start-fv_iv_template
    000737  aa   000000 0112 00         	nop
    000740  aa   003700 7102 00         	tra	start-fv_iv_template
    000741  aa   000000 0112 00         	nop
    000742  aa   003700 7102 00         	tra	start-fv_iv_template
    000743  aa   000000 0112 00         	nop
    000744  aa   003700 7102 00         	tra	start-fv_iv_template
    000745  aa   000000 0112 00         	nop
    000746  aa   003700 7102 00         	tra	start-fv_iv_template
    000747  aa   000000 0112 00         	nop
    000750  aa   003700 7102 00         	tra	start-fv_iv_template
    000751  aa   000000 0112 00         	nop
    000752  aa   003700 7102 00         	tra	start-fv_iv_template
    000753  aa   000000 0112 00         	nop
    000754  aa   003700 7102 00         	tra	start-fv_iv_template
    000755  aa   000000 0112 00         	nop
    000756  aa   003700 7102 00         	tra	start-fv_iv_template
    000757  aa   000000 0112 00         	nop
    000760  aa   003700 7102 00         	tra	start-fv_iv_template
    000761  aa   000000 0112 00         	nop
    000762  aa   003700 7102 00         	tra	start-fv_iv_template
    000763  aa   000000 0112 00         	nop
    000764  aa   003700 7102 00         	tra	start-fv_iv_template
    000765  aa   000000 0112 00         	nop
    000766  aa   003700 7102 00         	tra	start-fv_iv_template
    000767  aa   000000 0112 00         	nop
    000770  aa   003700 7102 00         	tra	start-fv_iv_template
    000771  aa   000000 0112 00         	nop
    000772  aa   003700 7102 00         	tra	start-fv_iv_template
    000773  aa   000000 0112 00         	nop
    000774  aa   003700 7102 00         	tra	start-fv_iv_template
    000775  aa   000000 0112 00         	nop
    000776  aa   003700 7102 00         	tra	start-fv_iv_template
    000777  aa   000000 0112 00         	nop
    001000  aa   003700 7102 00         	tra	start-fv_iv_template
    001001  aa   000000 0112 00         	nop
    001002  aa   003700 7102 00         	tra	start-fv_iv_template
    001003  aa   000000 0112 00         	nop
    001004  aa   003700 7102 00         	tra	start-fv_iv_template
    001005  aa   000000 0112 00         	nop
    001006  aa   003700 7102 00         	tra	start-fv_iv_template
    001007  aa   000000 0112 00         	nop
    001010  aa   003700 7102 00         	tra	start-fv_iv_template
    001011  aa   000000 0112 00         	nop
    001012  aa   003700 7102 00         	tra	start-fv_iv_template
    001013  aa   000000 0112 00         	nop
    001014  aa   003700 7102 00         	tra	start-fv_iv_template
    001015  aa   000000 0112 00         	nop
    001016  aa   003700 7102 00         	tra	start-fv_iv_template
    001017  aa   000000 0112 00         	nop
    001020  aa   003700 7102 00         	tra	start-fv_iv_template
    001021  aa   000000 0112 00         	nop
    001022  aa   003700 7102 00         	tra	start-fv_iv_template
    001023  aa   000000 0112 00         	nop
    001024  aa   003700 7102 00         	tra	start-fv_iv_template
    001025  aa   000000 0112 00         	nop
    001026  aa   003700 7102 00         	tra	start-fv_iv_template
    001027  aa   000000 0112 00         	nop
    001030  aa   003700 7102 00         	tra	start-fv_iv_template
    001031  aa   000000 0112 00         	nop
    001032  aa   003700 7102 00         	tra	start-fv_iv_template
    001033  aa   000000 0112 00         	nop
    001034  aa   003700 7102 00         	tra	start-fv_iv_template
    001035  aa   000000 0112 00         	nop
    001036  aa   003700 7102 00         	tra	start-fv_iv_template
    001037  aa   000000 0112 00         	nop
    001040  aa   003700 7102 00         	tra	start-fv_iv_template
    001041  aa   000000 0112 00         	nop
    001042  aa   003700 7102 00         	tra	start-fv_iv_template
    001043  aa   000000 0112 00         	nop
    001044  aa   003700 7102 00         	tra	start-fv_iv_template
    001045  aa   000000 0112 00         	nop
    001046  aa   003700 7102 00         	tra	start-fv_iv_template
    001047  aa   000000 0112 00         	nop
    001050  aa   003700 7102 00         	tra	start-fv_iv_template
    001051  aa   000000 0112 00         	nop
    001052  aa   003700 7102 00         	tra	start-fv_iv_template
    001053  aa   000000 0112 00         	nop
    001054  aa   003700 7102 00         	tra	start-fv_iv_template
    001055  aa   000000 0112 00         	nop
    001056  aa   003700 7102 00         	tra	start-fv_iv_template
    001057  aa   000000 0112 00         	nop
    001060  aa   003700 7102 00         	tra	start-fv_iv_template
    001061  aa   000000 0112 00         	nop
    001062  aa   003700 7102 00         	tra	start-fv_iv_template
    001063  aa   000000 0112 00         	nop
    001064  aa   003700 7102 00         	tra	start-fv_iv_template
    001065  aa   000000 0112 00         	nop
    001066  aa   003700 7102 00         	tra	start-fv_iv_template
    001067  aa   000000 0112 00         	nop
    001070  aa   003700 7102 00         	tra	start-fv_iv_template
    001071  aa   000000 0112 00         	nop
    001072  aa   003700 7102 00         	tra	start-fv_iv_template
    001073  aa   000000 0112 00         	nop
    001074  aa   003700 7102 00         	tra	start-fv_iv_template
    001075  aa   000000 0112 00         	nop
    001076  aa   003700 7102 00         	tra	start-fv_iv_template
    001077  aa   000000 0112 00         	nop
    001100  aa   003700 7102 00         	tra	start-fv_iv_template
    001101  aa   000000 0112 00         	nop
    001102  aa   003700 7102 00         	tra	start-fv_iv_template
    001103  aa   000000 0112 00         	nop
    001104  aa   003700 7102 00         	tra	start-fv_iv_template
    001105  aa   000000 0112 00         	nop
    001106  aa   003700 7102 00         	tra	start-fv_iv_template
    001107  aa   000000 0112 00         	nop
    001110  aa   003700 7102 00         	tra	start-fv_iv_template
    001111  aa   000000 0112 00         	nop
    001112  aa   003700 7102 00         	tra	start-fv_iv_template
    001113  aa   000000 0112 00         	nop
    001114  aa   003700 7102 00         	tra	start-fv_iv_template
    001115  aa   000000 0112 00         	nop
    001116  aa   003700 7102 00         	tra	start-fv_iv_template
    001117  aa   000000 0112 00         	nop
    001120  aa   003700 7102 00         	tra	start-fv_iv_template
    001121  aa   000000 0112 00         	nop
    001122  aa   003700 7102 00         	tra	start-fv_iv_template
    001123  aa   000000 0112 00         	nop
    001124  aa   003700 7102 00         	tra	start-fv_iv_template
    001125  aa   000000 0112 00         	nop
    001126  aa   003700 7102 00         	tra	start-fv_iv_template
    001127  aa   000000 0112 00         	nop
    001130  aa   003700 7102 00         	tra	start-fv_iv_template
    001131  aa   000000 0112 00         	nop
    001132  aa   003700 7102 00         	tra	start-fv_iv_template
    001133  aa   000000 0112 00         	nop
    001134  aa   003700 7102 00         	tra	start-fv_iv_template
    001135  aa   000000 0112 00         	nop
    001136  aa   003700 7102 00         	tra	start-fv_iv_template
    001137  aa   000000 0112 00         	nop
    001140  aa   003700 7102 00         	tra	start-fv_iv_template
    001141  aa   000000 0112 00         	nop
    001142  aa   003700 7102 00         	tra	start-fv_iv_template
    001143  aa   000000 0112 00         	nop
    001144  aa   003700 7102 00         	tra	start-fv_iv_template
    001145  aa   000000 0112 00         	nop
    001146  aa   003700 7102 00         	tra	start-fv_iv_template
    001147  aa   000000 0112 00         	nop
    001150  aa   003700 7102 00         	tra	start-fv_iv_template
    001151  aa   000000 0112 00         	nop
    001152  aa   003700 7102 00         	tra	start-fv_iv_template
    001153  aa   000000 0112 00         	nop
    001154  aa   003700 7102 00         	tra	start-fv_iv_template
    001155  aa   000000 0112 00         	nop
    001156  aa   003700 7102 00         	tra	start-fv_iv_template
    001157  aa   000000 0112 00         	nop
    001160  aa   003700 7102 00         	tra	start-fv_iv_template
    001161  aa   000000 0112 00         	nop
    001162  aa   003700 7102 00         	tra	start-fv_iv_template
    001163  aa   000000 0112 00         	nop
    001164  aa   003700 7102 00         	tra	start-fv_iv_template
    001165  aa   000000 0112 00         	nop
    001166  aa   003700 7102 00         	tra	start-fv_iv_template
    001167  aa   000000 0112 00         	nop
    001170  aa   003700 7102 00         	tra	start-fv_iv_template
    001171  aa   000000 0112 00         	nop
    001172  aa   003700 7102 00         	tra	start-fv_iv_template
    001173  aa   000000 0112 00         	nop
    001174  aa   003700 7102 00         	tra	start-fv_iv_template
    001175  aa   000000 0112 00         	nop
    001176  aa   003700 7102 00         	tra	start-fv_iv_template
    001177  aa   000000 0112 00         	nop
    001200  aa   003700 7102 00         	tra	start-fv_iv_template
    001201  aa   000000 0112 00         	nop
    001202  aa   003700 7102 00         	tra	start-fv_iv_template
    001203  aa   000000 0112 00         	nop
    001204  aa   003700 7102 00         	tra	start-fv_iv_template
    001205  aa   000000 0112 00         	nop
    001206  aa   003700 7102 00         	tra	start-fv_iv_template
    001207  aa   000000 0112 00         	nop
    001210  aa   003700 7102 00         	tra	start-fv_iv_template
    001211  aa   000000 0112 00         	nop
    001212  aa   003700 7102 00         	tra	start-fv_iv_template
    001213  aa   000000 0112 00         	nop
    001214  aa   003700 7102 00         	tra	start-fv_iv_template
    001215  aa   000000 0112 00         	nop
    001216  aa   003700 7102 00         	tra	start-fv_iv_template
    001217  aa   000000 0112 00         	nop
    001220  aa   003700 7102 00         	tra	start-fv_iv_template
    001221  aa   000000 0112 00         	nop
    001222  aa   003700 7102 00         	tra	start-fv_iv_template
    001223  aa   000000 0112 00         	nop
    001224  aa   003700 7102 00         	tra	start-fv_iv_template
    001225  aa   000000 0112 00         	nop
    001226  aa   003700 7102 00         	tra	start-fv_iv_template
    001227  aa   000000 0112 00         	nop
    001230  aa   003700 7102 00         	tra	start-fv_iv_template
    001231  aa   000000 0112 00         	nop
    001232  aa   003700 7102 00         	tra	start-fv_iv_template
    001233  aa   000000 0112 00         	nop
    001234  aa   003700 7102 00         	tra	start-fv_iv_template
    001235  aa   000000 0112 00         	nop
    001236  aa   003700 7102 00         	tra	start-fv_iv_template
    001237  aa   000000 0112 00         	nop
    001240  aa   003700 7102 00         	tra	start-fv_iv_template
    001241  aa   000000 0112 00         	nop
    001242  aa   003700 7102 00         	tra	start-fv_iv_template
    001243  aa   000000 0112 00         	nop
    001244  aa   003700 7102 00         	tra	start-fv_iv_template
    001245  aa   000000 0112 00         	nop
    001246  aa   003700 7102 00         	tra	start-fv_iv_template
    001247  aa   000000 0112 00         	nop
    001250  aa   003700 7102 00         	tra	start-fv_iv_template
    001251  aa   000000 0112 00         	nop
    001252  aa   003700 7102 00         	tra	start-fv_iv_template
    001253  aa   000000 0112 00         	nop
    001254  aa   003700 7102 00         	tra	start-fv_iv_template
    001255  aa   000000 0112 00         	nop
    001256  aa   003700 7102 00         	tra	start-fv_iv_template
    001257  aa   000000 0112 00         	nop
    001260  aa   003700 7102 00         	tra	start-fv_iv_template
    001261  aa   000000 0112 00         	nop
    001262  aa   003700 7102 00         	tra	start-fv_iv_template
    001263  aa   000000 0112 00         	nop
    001264  aa   003700 7102 00         	tra	start-fv_iv_template
    001265  aa   000000 0112 00         	nop
    001266  aa   003700 7102 00         	tra	start-fv_iv_template
    001267  aa   000000 0112 00         	nop
    001270  aa   003700 7102 00         	tra	start-fv_iv_template
    001271  aa   000000 0112 00         	nop
    001272  aa   003700 7102 00         	tra	start-fv_iv_template
    001273  aa   000000 0112 00         	nop
    001274  aa   003700 7102 00         	tra	start-fv_iv_template
    001275  aa   000000 0112 00         	nop
    001276  aa   003700 7102 00         	tra	start-fv_iv_template
    001277  aa   000000 0112 00         	nop
    001300  aa   003700 7102 00         	tra	start-fv_iv_template
    001301  aa   000000 0112 00         	nop
    001302  aa   003700 7102 00         	tra	start-fv_iv_template
    001303  aa   000000 0112 00         	nop
    001304  aa   003700 7102 00         	tra	start-fv_iv_template
    001305  aa   000000 0112 00         	nop
    001306  aa   003700 7102 00         	tra	start-fv_iv_template
    001307  aa   000000 0112 00         	nop
    001310  aa   003700 7102 00         	tra	start-fv_iv_template
    001311  aa   000000 0112 00         	nop
    001312  aa   003700 7102 00         	tra	start-fv_iv_template
    001313  aa   000000 0112 00         	nop
    001314  aa   003700 7102 00         	tra	start-fv_iv_template
    001315  aa   000000 0112 00         	nop
    001316  aa   003700 7102 00         	tra	start-fv_iv_template
    001317  aa   000000 0112 00         	nop
    001320  aa   003700 7102 00         	tra	start-fv_iv_template
    001321  aa   000000 0112 00         	nop
    001322  aa   003700 7102 00         	tra	start-fv_iv_template
    001323  aa   000000 0112 00         	nop
    001324  aa   003700 7102 00         	tra	start-fv_iv_template
    001325  aa   000000 0112 00         	nop
    001326  aa   003700 7102 00         	tra	start-fv_iv_template
    001327  aa   000000 0112 00         	nop
    001330  aa   003700 7102 00         	tra	start-fv_iv_template
    001331  aa   000000 0112 00         	nop
    001332  aa   003700 7102 00         	tra	start-fv_iv_template
    001333  aa   000000 0112 00         	nop
    001334  aa   003700 7102 00         	tra	start-fv_iv_template
    001335  aa   000000 0112 00         	nop
    001336  aa   003700 7102 00         	tra	start-fv_iv_template
    001337  aa   000000 0112 00         	nop
    001340  aa   003700 7102 00         	tra	start-fv_iv_template
    001341  aa   000000 0112 00         	nop
    001342  aa   003700 7102 00         	tra	start-fv_iv_template
    001343  aa   000000 0112 00         	nop
    001344  aa   003700 7102 00         	tra	start-fv_iv_template
    001345  aa   000000 0112 00         	nop
    001346  aa   003700 7102 00         	tra	start-fv_iv_template
    001347  aa   000000 0112 00         	nop
    001350  aa   003700 7102 00         	tra	start-fv_iv_template
    001351  aa   000000 0112 00         	nop
    001352  aa   003700 7102 00         	tra	start-fv_iv_template
    001353  aa   000000 0112 00         	nop
    001354  aa   003700 7102 00         	tra	start-fv_iv_template
    001355  aa   000000 0112 00         	nop
    001356  aa   003700 7102 00         	tra	start-fv_iv_template
    001357  aa   000000 0112 00         	nop
    001360  aa   003700 7102 00         	tra	start-fv_iv_template
    001361  aa   000000 0112 00         	nop
    001362  aa   003700 7102 00         	tra	start-fv_iv_template
    001363  aa   000000 0112 00         	nop
    001364  aa   003700 7102 00         	tra	start-fv_iv_template
    001365  aa   000000 0112 00         	nop
    001366  aa   003700 7102 00         	tra	start-fv_iv_template
    001367  aa   000000 0112 00         	nop
    001370  aa   003700 7102 00         	tra	start-fv_iv_template
    001371  aa   000000 0112 00         	nop
    001372  aa   003700 7102 00         	tra	start-fv_iv_template
    001373  aa   000000 0112 00         	nop
    001374  aa   003700 7102 00         	tra	start-fv_iv_template
    001375  aa   000000 0112 00         	nop
    001376  aa   003700 7102 00         	tra	start-fv_iv_template
    001377  aa   000000 0112 00         	nop
    001400  aa   003700 7102 00         	tra	start-fv_iv_template
    001401  aa   000000 0112 00         	nop
    001402  aa   003700 7102 00         	tra	start-fv_iv_template
    001403  aa   000000 0112 00         	nop
    001404  aa   003700 7102 00         	tra	start-fv_iv_template
    001405  aa   000000 0112 00         	nop
    001406  aa   003700 7102 00         	tra	start-fv_iv_template
    001407  aa   000000 0112 00         	nop
    001410  aa   003700 7102 00         	tra	start-fv_iv_template
    001411  aa   000000 0112 00         	nop
    001412  aa   003700 7102 00         	tra	start-fv_iv_template
    001413  aa   000000 0112 00         	nop
    001414  aa   003700 7102 00         	tra	start-fv_iv_template
    001415  aa   000000 0112 00         	nop
    001416  aa   003700 7102 00         	tra	start-fv_iv_template
    001417  aa   000000 0112 00         	nop
    001420  aa   003700 7102 00         	tra	start-fv_iv_template
    001421  aa   000000 0112 00         	nop
    001422  aa   003700 7102 00         	tra	start-fv_iv_template
    001423  aa   000000 0112 00         	nop
    001424  aa   003700 7102 00         	tra	start-fv_iv_template
    001425  aa   000000 0112 00         	nop
    001426  aa   003700 7102 00         	tra	start-fv_iv_template
    001427  aa   000000 0112 00         	nop
    001430  aa   003700 7102 00         	tra	start-fv_iv_template
    001431  aa   000000 0112 00         	nop
    001432  aa   003700 7102 00         	tra	start-fv_iv_template
    001433  aa   000000 0112 00         	nop
    001434  aa   003700 7102 00         	tra	start-fv_iv_template
    001435  aa   000000 0112 00         	nop
    001436  aa   003700 7102 00         	tra	start-fv_iv_template
    001437  aa   000000 0112 00         	nop
    001440  aa   003700 7102 00         	tra	start-fv_iv_template
    001441  aa   000000 0112 00         	nop
    001442  aa   003700 7102 00         	tra	start-fv_iv_template
    001443  aa   000000 0112 00         	nop
    001444  aa   003700 7102 00         	tra	start-fv_iv_template
    001445  aa   000000 0112 00         	nop
    001446  aa   003700 7102 00         	tra	start-fv_iv_template
    001447  aa   000000 0112 00         	nop
    001450  aa   003700 7102 00         	tra	start-fv_iv_template
    001451  aa   000000 0112 00         	nop
    001452  aa   003700 7102 00         	tra	start-fv_iv_template
    001453  aa   000000 0112 00         	nop
    001454  aa   003700 7102 00         	tra	start-fv_iv_template
    001455  aa   000000 0112 00         	nop
    001456  aa   003700 7102 00         	tra	start-fv_iv_template
    001457  aa   000000 0112 00         	nop
    001460  aa   003700 7102 00         	tra	start-fv_iv_template
    001461  aa   000000 0112 00         	nop
    001462  aa   003700 7102 00         	tra	start-fv_iv_template
    001463  aa   000000 0112 00         	nop
    001464  aa   003700 7102 00         	tra	start-fv_iv_template
    001465  aa   000000 0112 00         	nop
    001466  aa   003700 7102 00         	tra	start-fv_iv_template
    001467  aa   000000 0112 00         	nop
    001470  aa   003700 7102 00         	tra	start-fv_iv_template
    001471  aa   000000 0112 00         	nop
    001472  aa   003700 7102 00         	tra	start-fv_iv_template
    001473  aa   000000 0112 00         	nop
    001474  aa   003700 7102 00         	tra	start-fv_iv_template
    001475  aa   000000 0112 00         	nop
    001476  aa   003700 7102 00         	tra	start-fv_iv_template
    001477  aa   000000 0112 00         	nop
    001500  aa   003700 7102 00         	tra	start-fv_iv_template
    001501  aa   000000 0112 00         	nop
    001502  aa   003700 7102 00         	tra	start-fv_iv_template
    001503  aa   000000 0112 00         	nop
    001504  aa   003700 7102 00         	tra	start-fv_iv_template
    001505  aa   000000 0112 00         	nop
    001506  aa   003700 7102 00         	tra	start-fv_iv_template
    001507  aa   000000 0112 00         	nop
    001510  aa   003700 7102 00         	tra	start-fv_iv_template
    001511  aa   000000 0112 00         	nop
    001512  aa   003700 7102 00         	tra	start-fv_iv_template
    001513  aa   000000 0112 00         	nop
    001514  aa   003700 7102 00         	tra	start-fv_iv_template
    001515  aa   000000 0112 00         	nop
    001516  aa   003700 7102 00         	tra	start-fv_iv_template
    001517  aa   000000 0112 00         	nop
    001520  aa   003700 7102 00         	tra	start-fv_iv_template
    001521  aa   000000 0112 00         	nop
    001522  aa   003700 7102 00         	tra	start-fv_iv_template
    001523  aa   000000 0112 00         	nop
    001524  aa   003700 7102 00         	tra	start-fv_iv_template
    001525  aa   000000 0112 00         	nop
    001526  aa   003700 7102 00         	tra	start-fv_iv_template
    001527  aa   000000 0112 00         	nop
    001530  aa   003700 7102 00         	tra	start-fv_iv_template
    001531  aa   000000 0112 00         	nop
    001532  aa   003700 7102 00         	tra	start-fv_iv_template
    001533  aa   000000 0112 00         	nop
    001534  aa   003700 7102 00         	tra	start-fv_iv_template
    001535  aa   000000 0112 00         	nop
    001536  aa   003700 7102 00         	tra	start-fv_iv_template
    001537  aa   000000 0112 00         	nop
    001540  aa   003700 7102 00         	tra	start-fv_iv_template
    001541  aa   000000 0112 00         	nop
    001542  aa   003700 7102 00         	tra	start-fv_iv_template
    001543  aa   000000 0112 00         	nop
    001544  aa   003700 7102 00         	tra	start-fv_iv_template
    001545  aa   000000 0112 00         	nop
    001546  aa   003700 7102 00         	tra	start-fv_iv_template
    001547  aa   000000 0112 00         	nop
    001550  aa   003700 7102 00         	tra	start-fv_iv_template
    001551  aa   000000 0112 00         	nop
    001552  aa   003700 7102 00         	tra	start-fv_iv_template
    001553  aa   000000 0112 00         	nop
    001554  aa   003700 7102 00         	tra	start-fv_iv_template
    001555  aa   000000 0112 00         	nop
    001556  aa   003700 7102 00         	tra	start-fv_iv_template
    001557  aa   000000 0112 00         	nop
    001560  aa   003700 7102 00         	tra	start-fv_iv_template
    001561  aa   000000 0112 00         	nop
    001562  aa   003700 7102 00         	tra	start-fv_iv_template
    001563  aa   000000 0112 00         	nop
    001564  aa   003700 7102 00         	tra	start-fv_iv_template
    001565  aa   000000 0112 00         	nop
    001566  aa   003700 7102 00         	tra	start-fv_iv_template
    001567  aa   000000 0112 00         	nop
    001570  aa   003700 7102 00         	tra	start-fv_iv_template
    001571  aa   000000 0112 00         	nop
    001572  aa   003700 7102 00         	tra	start-fv_iv_template
    001573  aa   000000 0112 00         	nop
    001574  aa   003700 7102 00         	tra	start-fv_iv_template
    001575  aa   000000 0112 00         	nop
    001576  aa   003700 7102 00         	tra	start-fv_iv_template
    001577  aa   000000 0112 00         	nop
    001600  aa   003700 7102 00         	tra	start-fv_iv_template
    001601  aa   000000 0112 00         	nop
    001602  aa   003700 7102 00         	tra	start-fv_iv_template
    001603  aa   000000 0112 00         	nop
    001604  aa   003700 7102 00         	tra	start-fv_iv_template
    001605  aa   000000 0112 00         	nop
    001606  aa   003700 7102 00         	tra	start-fv_iv_template
    001607  aa   000000 0112 00         	nop
    001610  aa   003700 7102 00         	tra	start-fv_iv_template
    001611  aa   000000 0112 00         	nop
    001612  aa   003700 7102 00         	tra	start-fv_iv_template
    001613  aa   000000 0112 00         	nop
    001614  aa   003700 7102 00         	tra	start-fv_iv_template
    001615  aa   000000 0112 00         	nop
    001616  aa   003700 7102 00         	tra	start-fv_iv_template
    001617  aa   000000 0112 00         	nop
    001620  aa   003700 7102 00         	tra	start-fv_iv_template
    001621  aa   000000 0112 00         	nop
    001622  aa   003700 7102 00         	tra	start-fv_iv_template
    001623  aa   000000 0112 00         	nop
    001624  aa   003700 7102 00         	tra	start-fv_iv_template
    001625  aa   000000 0112 00         	nop
    001626  aa   003700 7102 00         	tra	start-fv_iv_template
    001627  aa   000000 0112 00         	nop
    001630  aa   003700 7102 00         	tra	start-fv_iv_template
    001631  aa   000000 0112 00         	nop
    001632  aa   003700 7102 00         	tra	start-fv_iv_template
    001633  aa   000000 0112 00         	nop
    001634  aa   003700 7102 00         	tra	start-fv_iv_template
    001635  aa   000000 0112 00         	nop
    001636  aa   003700 7102 00         	tra	start-fv_iv_template
    001637  aa   000000 0112 00         	nop
    001640  aa   003700 7102 00         	tra	start-fv_iv_template
    001641  aa   000000 0112 00         	nop
    001642  aa   003700 7102 00         	tra	start-fv_iv_template
    001643  aa   000000 0112 00         	nop
    001644  aa   003700 7102 00         	tra	start-fv_iv_template
    001645  aa   000000 0112 00         	nop
    001646  aa   003700 7102 00         	tra	start-fv_iv_template
    001647  aa   000000 0112 00         	nop
    001650  aa   003700 7102 00         	tra	start-fv_iv_template
    001651  aa   000000 0112 00         	nop
    001652  aa   003700 7102 00         	tra	start-fv_iv_template
    001653  aa   000000 0112 00         	nop
    001654  aa   003700 7102 00         	tra	start-fv_iv_template
    001655  aa   000000 0112 00         	nop
    001656  aa   003700 7102 00         	tra	start-fv_iv_template
    001657  aa   000000 0112 00         	nop
    001660  aa   003700 7102 00         	tra	start-fv_iv_template
    001661  aa   000000 0112 00         	nop
    001662  aa   003700 7102 00         	tra	start-fv_iv_template
    001663  aa   000000 0112 00         	nop
    001664  aa   003700 7102 00         	tra	start-fv_iv_template
    001665  aa   000000 0112 00         	nop
    001666  aa   003700 7102 00         	tra	start-fv_iv_template
    001667  aa   000000 0112 00         	nop
    001670  aa   003700 7102 00         	tra	start-fv_iv_template
    001671  aa   000000 0112 00         	nop
    001672  aa   003700 7102 00         	tra	start-fv_iv_template
    001673  aa   000000 0112 00         	nop
    001674  aa   003700 7102 00         	tra	start-fv_iv_template
    001675  aa   000000 0112 00         	nop
    001676  aa   003700 7102 00         	tra	start-fv_iv_template
    001677  aa   000000 0112 00         	nop
    001700  aa   003700 7102 00         	tra	start-fv_iv_template
    001701  aa   000000 0112 00         	nop
    001702  aa   003700 7102 00         	tra	start-fv_iv_template
    001703  aa   000000 0112 00         	nop
    001704  aa   003700 7102 00         	tra	start-fv_iv_template
    001705  aa   000000 0112 00         	nop
    001706  aa   003700 7102 00         	tra	start-fv_iv_template
    001707  aa   000000 0112 00         	nop
    001710  aa   003700 7102 00         	tra	start-fv_iv_template
    001711  aa   000000 0112 00         	nop
    001712  aa   003700 7102 00         	tra	start-fv_iv_template
    001713  aa   000000 0112 00         	nop
    001714  aa   003700 7102 00         	tra	start-fv_iv_template
    001715  aa   000000 0112 00         	nop
    001716  aa   003700 7102 00         	tra	start-fv_iv_template
    001717  aa   000000 0112 00         	nop
    001720  aa   003700 7102 00         	tra	start-fv_iv_template
    001721  aa   000000 0112 00         	nop
    001722  aa   003700 7102 00         	tra	start-fv_iv_template
    001723  aa   000000 0112 00         	nop
    001724  aa   003700 7102 00         	tra	start-fv_iv_template
    001725  aa   000000 0112 00         	nop
    001726  aa   003700 7102 00         	tra	start-fv_iv_template
    001727  aa   000000 0112 00         	nop
    001730  aa   003700 7102 00         	tra	start-fv_iv_template
    001731  aa   000000 0112 00         	nop
    001732  aa   003700 7102 00         	tra	start-fv_iv_template
    001733  aa   000000 0112 00         	nop
    001734  aa   003700 7102 00         	tra	start-fv_iv_template
    001735  aa   000000 0112 00         	nop
    001736  aa   003700 7102 00         	tra	start-fv_iv_template
    001737  aa   000000 0112 00         	nop
    001740  aa   003700 7102 00         	tra	start-fv_iv_template
    001741  aa   000000 0112 00         	nop
    001742  aa   003700 7102 00         	tra	start-fv_iv_template
    001743  aa   000000 0112 00         	nop
    001744  aa   003700 7102 00         	tra	start-fv_iv_template
    001745  aa   000000 0112 00         	nop
    001746  aa   003700 7102 00         	tra	start-fv_iv_template
    001747  aa   000000 0112 00         	nop
    001750  aa   003700 7102 00         	tra	start-fv_iv_template
    001751  aa   000000 0112 00         	nop
    001752  aa   003700 7102 00         	tra	start-fv_iv_template
    001753  aa   000000 0112 00         	nop
    001754  aa   003700 7102 00         	tra	start-fv_iv_template
    001755  aa   000000 0112 00         	nop
    001756  aa   003700 7102 00         	tra	start-fv_iv_template
    001757  aa   000000 0112 00         	nop
    001760  aa   003700 7102 00         	tra	start-fv_iv_template
    001761  aa   000000 0112 00         	nop
    001762  aa   003700 7102 00         	tra	start-fv_iv_template
    001763  aa   000000 0112 00         	nop
    001764  aa   003700 7102 00         	tra	start-fv_iv_template
    001765  aa   000000 0112 00         	nop
    001766  aa   003700 7102 00         	tra	start-fv_iv_template
    001767  aa   000000 0112 00         	nop
    001770  aa   003700 7102 00         	tra	start-fv_iv_template
    001771  aa   000000 0112 00         	nop
    001772  aa   003700 7102 00         	tra	start-fv_iv_template
    001773  aa   000000 0112 00         	nop
    001774  aa   003700 7102 00         	tra	start-fv_iv_template
    001775  aa   000000 0112 00         	nop
    001776  aa   003700 7102 00         	tra	start-fv_iv_template
    001777  aa   000000 0112 00         	nop
    002000  aa   003700 7102 00         	tra	start-fv_iv_template
    002001  aa   000000 0112 00         	nop
    002002  aa   003700 7102 00         	tra	start-fv_iv_template
    002003  aa   000000 0112 00         	nop
    002004  aa   003700 7102 00         	tra	start-fv_iv_template
    002005  aa   000000 0112 00         	nop
    002006  aa   003700 7102 00         	tra	start-fv_iv_template
    002007  aa   000000 0112 00         	nop
    002010  aa   003700 7102 00         	tra	start-fv_iv_template
    002011  aa   000000 0112 00         	nop
    002012  aa   003700 7102 00         	tra	start-fv_iv_template
    002013  aa   000000 0112 00         	nop
    002014  aa   003700 7102 00         	tra	start-fv_iv_template
    002015  aa   000000 0112 00         	nop
    002016  aa   003700 7102 00         	tra	start-fv_iv_template
    002017  aa   000000 0112 00         	nop
    002020  aa   003700 7102 00         	tra	start-fv_iv_template
    002021  aa   000000 0112 00         	nop
    002022  aa   003700 7102 00         	tra	start-fv_iv_template
    002023  aa   000000 0112 00         	nop
    002024  aa   003700 7102 00         	tra	start-fv_iv_template
    002025  aa   000000 0112 00         	nop
    002026  aa   003700 7102 00         	tra	start-fv_iv_template
    002027  aa   000000 0112 00         	nop
    002030  aa   003700 7102 00         	tra	start-fv_iv_template
    002031  aa   000000 0112 00         	nop
    002032  aa   003700 7102 00         	tra	start-fv_iv_template
    002033  aa   000000 0112 00         	nop
    002034  aa   003700 7102 00         	tra	start-fv_iv_template
    002035  aa   000000 0112 00         	nop
    002036  aa   003700 7102 00         	tra	start-fv_iv_template
    002037  aa   000000 0112 00         	nop
    002040  aa   003700 7102 00         	tra	start-fv_iv_template
    002041  aa   000000 0112 00         	nop
    002042  aa   003700 7102 00         	tra	start-fv_iv_template
    002043  aa   000000 0112 00         	nop
    002044  aa   003700 7102 00         	tra	start-fv_iv_template
    002045  aa   000000 0112 00         	nop
    002046  aa   003700 7102 00         	tra	start-fv_iv_template
    002047  aa   000000 0112 00         	nop
    002050  aa   003700 7102 00         	tra	start-fv_iv_template
    002051  aa   000000 0112 00         	nop
    002052  aa   003700 7102 00         	tra	start-fv_iv_template
    002053  aa   000000 0112 00         	nop
    002054  aa   003700 7102 00         	tra	start-fv_iv_template
    002055  aa   000000 0112 00         	nop
    002056  aa   003700 7102 00         	tra	start-fv_iv_template
    002057  aa   000000 0112 00         	nop
    002060  aa   003700 7102 00         	tra	start-fv_iv_template
    002061  aa   000000 0112 00         	nop
    002062  aa   003700 7102 00         	tra	start-fv_iv_template
    002063  aa   000000 0112 00         	nop
    002064  aa   003700 7102 00         	tra	start-fv_iv_template
    002065  aa   000000 0112 00         	nop
    002066  aa   003700 7102 00         	tra	start-fv_iv_template
    002067  aa   000000 0112 00         	nop
    002070  aa   003700 7102 00         	tra	start-fv_iv_template
    002071  aa   000000 0112 00         	nop
    002072  aa   003700 7102 00         	tra	start-fv_iv_template
    002073  aa   000000 0112 00         	nop
    002074  aa   003700 7102 00         	tra	start-fv_iv_template
    002075  aa   000000 0112 00         	nop
    002076  aa   003700 7102 00         	tra	start-fv_iv_template
    002077  aa   000000 0112 00         	nop
    002100  aa   003700 7102 00         	tra	start-fv_iv_template
    002101  aa   000000 0112 00         	nop
    002102  aa   003700 7102 00         	tra	start-fv_iv_template
    002103  aa   000000 0112 00         	nop
    002104  aa   003700 7102 00         	tra	start-fv_iv_template
    002105  aa   000000 0112 00         	nop
    002106  aa   003700 7102 00         	tra	start-fv_iv_template
    002107  aa   000000 0112 00         	nop
    002110  aa   003700 7102 00         	tra	start-fv_iv_template
    002111  aa   000000 0112 00         	nop
    002112  aa   003700 7102 00         	tra	start-fv_iv_template
    002113  aa   000000 0112 00         	nop
    002114  aa   003700 7102 00         	tra	start-fv_iv_template
    002115  aa   000000 0112 00         	nop
    002116  aa   003700 7102 00         	tra	start-fv_iv_template
    002117  aa   000000 0112 00         	nop
    002120  aa   003700 7102 00         	tra	start-fv_iv_template
    002121  aa   000000 0112 00         	nop
    002122  aa   003700 7102 00         	tra	start-fv_iv_template
    002123  aa   000000 0112 00         	nop
    002124  aa   003700 7102 00         	tra	start-fv_iv_template
    002125  aa   000000 0112 00         	nop
    002126  aa   003700 7102 00         	tra	start-fv_iv_template
    002127  aa   000000 0112 00         	nop
    002130  aa   003700 7102 00         	tra	start-fv_iv_template
    002131  aa   000000 0112 00         	nop
    002132  aa   003700 7102 00         	tra	start-fv_iv_template
    002133  aa   000000 0112 00         	nop
    002134  aa   003700 7102 00         	tra	start-fv_iv_template
    002135  aa   000000 0112 00         	nop
    002136  aa   003700 7102 00         	tra	start-fv_iv_template
    002137  aa   000000 0112 00         	nop
    002140  aa   003700 7102 00         	tra	start-fv_iv_template
    002141  aa   000000 0112 00         	nop
    002142  aa   003700 7102 00         	tra	start-fv_iv_template
    002143  aa   000000 0112 00         	nop
    002144  aa   003700 7102 00         	tra	start-fv_iv_template
    002145  aa   000000 0112 00         	nop
    002146  aa   003700 7102 00         	tra	start-fv_iv_template
    002147  aa   000000 0112 00         	nop
    002150  aa   003700 7102 00         	tra	start-fv_iv_template
    002151  aa   000000 0112 00         	nop
    002152  aa   003700 7102 00         	tra	start-fv_iv_template
    002153  aa   000000 0112 00         	nop
    002154  aa   003700 7102 00         	tra	start-fv_iv_template
    002155  aa   000000 0112 00         	nop
    002156  aa   003700 7102 00         	tra	start-fv_iv_template
    002157  aa   000000 0112 00         	nop
    002160  aa   003700 7102 00         	tra	start-fv_iv_template
    002161  aa   000000 0112 00         	nop
    002162  aa   003700 7102 00         	tra	start-fv_iv_template
    002163  aa   000000 0112 00         	nop
    002164  aa   003700 7102 00         	tra	start-fv_iv_template
    002165  aa   000000 0112 00         	nop
    002166  aa   003700 7102 00         	tra	start-fv_iv_template
    002167  aa   000000 0112 00         	nop
    002170  aa   003700 7102 00         	tra	start-fv_iv_template
    002171  aa   000000 0112 00         	nop
    002172  aa   003700 7102 00         	tra	start-fv_iv_template
    002173  aa   000000 0112 00         	nop
    002174  aa   003700 7102 00         	tra	start-fv_iv_template
    002175  aa   000000 0112 00         	nop
    002176  aa   003700 7102 00         	tra	start-fv_iv_template
    002177  aa   000000 0112 00         	nop
    002200  aa   003700 7102 00         	tra	start-fv_iv_template
    002201  aa   000000 0112 00         	nop
    002202  aa   003700 7102 00         	tra	start-fv_iv_template
    002203  aa   000000 0112 00         	nop
    002204  aa   003700 7102 00         	tra	start-fv_iv_template
    002205  aa   000000 0112 00         	nop
    002206  aa   003700 7102 00         	tra	start-fv_iv_template
    002207  aa   000000 0112 00         	nop
    002210  aa   003700 7102 00         	tra	start-fv_iv_template
    002211  aa   000000 0112 00         	nop
    002212  aa   003700 7102 00         	tra	start-fv_iv_template
    002213  aa   000000 0112 00         	nop
    002214  aa   003700 7102 00         	tra	start-fv_iv_template
    002215  aa   000000 0112 00         	nop
    002216  aa   003700 7102 00         	tra	start-fv_iv_template
    002217  aa   000000 0112 00         	nop
    002220  aa   003700 7102 00         	tra	start-fv_iv_template
    002221  aa   000000 0112 00         	nop
    002222  aa   003700 7102 00         	tra	start-fv_iv_template
    002223  aa   000000 0112 00         	nop
    002224  aa   003700 7102 00         	tra	start-fv_iv_template
    002225  aa   000000 0112 00         	nop
    002226  aa   003700 7102 00         	tra	start-fv_iv_template
    002227  aa   000000 0112 00         	nop
    002230  aa   003700 7102 00         	tra	start-fv_iv_template
    002231  aa   000000 0112 00         	nop
    002232  aa   003700 7102 00         	tra	start-fv_iv_template
    002233  aa   000000 0112 00         	nop
    002234  aa   003700 7102 00         	tra	start-fv_iv_template
    002235  aa   000000 0112 00         	nop
    002236  aa   003700 7102 00         	tra	start-fv_iv_template
    002237  aa   000000 0112 00         	nop
    002240  aa   003700 7102 00         	tra	start-fv_iv_template
    002241  aa   000000 0112 00         	nop
    002242  aa   003700 7102 00         	tra	start-fv_iv_template
    002243  aa   000000 0112 00         	nop
    002244  aa   003700 7102 00         	tra	start-fv_iv_template
    002245  aa   000000 0112 00         	nop
    002246  aa   003700 7102 00         	tra	start-fv_iv_template
    002247  aa   000000 0112 00         	nop
    002250  aa   003700 7102 00         	tra	start-fv_iv_template
    002251  aa   000000 0112 00         	nop
    002252  aa   003700 7102 00         	tra	start-fv_iv_template
    002253  aa   000000 0112 00         	nop
    002254  aa   003700 7102 00         	tra	start-fv_iv_template
    002255  aa   000000 0112 00         	nop
    002256  aa   003700 7102 00         	tra	start-fv_iv_template
    002257  aa   000000 0112 00         	nop
    002260  aa   003700 7102 00         	tra	start-fv_iv_template
    002261  aa   000000 0112 00         	nop
    002262  aa   003700 7102 00         	tra	start-fv_iv_template
    002263  aa   000000 0112 00         	nop
    002264  aa   003700 7102 00         	tra	start-fv_iv_template
    002265  aa   000000 0112 00         	nop
    002266  aa   003700 7102 00         	tra	start-fv_iv_template
    002267  aa   000000 0112 00         	nop
    002270  aa   003700 7102 00         	tra	start-fv_iv_template
    002271  aa   000000 0112 00         	nop
    002272  aa   003700 7102 00         	tra	start-fv_iv_template
    002273  aa   000000 0112 00         	nop
    002274  aa   003700 7102 00         	tra	start-fv_iv_template
    002275  aa   000000 0112 00         	nop
    002276  aa   003700 7102 00         	tra	start-fv_iv_template
    002277  aa   000000 0112 00         	nop
    002300  aa   003700 7102 00         	tra	start-fv_iv_template
    002301  aa   000000 0112 00         	nop
    002302  aa   003700 7102 00         	tra	start-fv_iv_template
    002303  aa   000000 0112 00         	nop
    002304  aa   003700 7102 00         	tra	start-fv_iv_template
    002305  aa   000000 0112 00         	nop
    002306  aa   003700 7102 00         	tra	start-fv_iv_template
    002307  aa   000000 0112 00         	nop
    002310  aa   003700 7102 00         	tra	start-fv_iv_template
    002311  aa   000000 0112 00         	nop
    002312  aa   003700 7102 00         	tra	start-fv_iv_template
    002313  aa   000000 0112 00         	nop
    002314  aa   003700 7102 00         	tra	start-fv_iv_template
    002315  aa   000000 0112 00         	nop
    002316  aa   003700 7102 00         	tra	start-fv_iv_template
    002317  aa   000000 0112 00         	nop
    002320  aa   003700 7102 00         	tra	start-fv_iv_template
    002321  aa   000000 0112 00         	nop
    002322  aa   003700 7102 00         	tra	start-fv_iv_template
    002323  aa   000000 0112 00         	nop
    002324  aa   003700 7102 00         	tra	start-fv_iv_template
    002325  aa   000000 0112 00         	nop
    002326  aa   003700 7102 00         	tra	start-fv_iv_template
    002327  aa   000000 0112 00         	nop
    002330  aa   003700 7102 00         	tra	start-fv_iv_template
    002331  aa   000000 0112 00         	nop
    002332  aa   003700 7102 00         	tra	start-fv_iv_template
    002333  aa   000000 0112 00         	nop
    002334  aa   003700 7102 00         	tra	start-fv_iv_template
    002335  aa   000000 0112 00         	nop
    002336  aa   003700 7102 00         	tra	start-fv_iv_template
    002337  aa   000000 0112 00         	nop
    002340  aa   003700 7102 00         	tra	start-fv_iv_template
    002341  aa   000000 0112 00         	nop
    002342  aa   003700 7102 00         	tra	start-fv_iv_template
    002343  aa   000000 0112 00         	nop
    002344  aa   003700 7102 00         	tra	start-fv_iv_template
    002345  aa   000000 0112 00         	nop
    002346  aa   003700 7102 00         	tra	start-fv_iv_template
    002347  aa   000000 0112 00         	nop
    002350  aa   003700 7102 00         	tra	start-fv_iv_template
    002351  aa   000000 0112 00         	nop
    002352  aa   003700 7102 00         	tra	start-fv_iv_template
    002353  aa   000000 0112 00         	nop
    002354  aa   003700 7102 00         	tra	start-fv_iv_template
    002355  aa   000000 0112 00         	nop
    002356  aa   003700 7102 00         	tra	start-fv_iv_template
    002357  aa   000000 0112 00         	nop
    002360  aa   003700 7102 00         	tra	start-fv_iv_template
    002361  aa   000000 0112 00         	nop
    002362  aa   003700 7102 00         	tra	start-fv_iv_template
    002363  aa   000000 0112 00         	nop
    002364  aa   003700 7102 00         	tra	start-fv_iv_template
    002365  aa   000000 0112 00         	nop
    002366  aa   003700 7102 00         	tra	start-fv_iv_template
    002367  aa   000000 0112 00         	nop
    002370  aa   003700 7102 00         	tra	start-fv_iv_template
    002371  aa   000000 0112 00         	nop
    002372  aa   003700 7102 00         	tra	start-fv_iv_template
    002373  aa   000000 0112 00         	nop
    002374  aa   003700 7102 00         	tra	start-fv_iv_template
    002375  aa   000000 0112 00         	nop
    002376  aa   003700 7102 00         	tra	start-fv_iv_template
    002377  aa   000000 0112 00         	nop
    002400  aa   003700 7102 00         	tra	start-fv_iv_template
    002401  aa   000000 0112 00         	nop
    002402  aa   003700 7102 00         	tra	start-fv_iv_template
    002403  aa   000000 0112 00         	nop
    002404  aa   003700 7102 00         	tra	start-fv_iv_template
    002405  aa   000000 0112 00         	nop
    002406  aa   003700 7102 00         	tra	start-fv_iv_template
    002407  aa   000000 0112 00         	nop
    002410  aa   003700 7102 00         	tra	start-fv_iv_template
    002411  aa   000000 0112 00         	nop
    002412  aa   003700 7102 00         	tra	start-fv_iv_template
    002413  aa   000000 0112 00         	nop
    002414  aa   003700 7102 00         	tra	start-fv_iv_template
    002415  aa   000000 0112 00         	nop
    002416  aa   003700 7102 00         	tra	start-fv_iv_template
    002417  aa   000000 0112 00         	nop
    002420  aa   003700 7102 00         	tra	start-fv_iv_template
    002421  aa   000000 0112 00         	nop
    002422  aa   003700 7102 00         	tra	start-fv_iv_template
    002423  aa   000000 0112 00         	nop
    002424  aa   003700 7102 00         	tra	start-fv_iv_template
    002425  aa   000000 0112 00         	nop
    002426  aa   003700 7102 00         	tra	start-fv_iv_template
    002427  aa   000000 0112 00         	nop
    002430  aa   003700 7102 00         	tra	start-fv_iv_template
    002431  aa   000000 0112 00         	nop
    002432  aa   003700 7102 00         	tra	start-fv_iv_template
    002433  aa   000000 0112 00         	nop
    002434  aa   003700 7102 00         	tra	start-fv_iv_template
    002435  aa   000000 0112 00         	nop
    002436  aa   003700 7102 00         	tra	start-fv_iv_template
    002437  aa   000000 0112 00         	nop
    002440  aa   003700 7102 00         	tra	start-fv_iv_template
    002441  aa   000000 0112 00         	nop
    002442  aa   003700 7102 00         	tra	start-fv_iv_template
    002443  aa   000000 0112 00         	nop
    002444  aa   003700 7102 00         	tra	start-fv_iv_template
    002445  aa   000000 0112 00         	nop
    002446  aa   003700 7102 00         	tra	start-fv_iv_template
    002447  aa   000000 0112 00         	nop
    002450  aa   003700 7102 00         	tra	start-fv_iv_template
    002451  aa   000000 0112 00         	nop
    002452  aa   003700 7102 00         	tra	start-fv_iv_template
    002453  aa   000000 0112 00         	nop
    002454  aa   003700 7102 00         	tra	start-fv_iv_template
    002455  aa   000000 0112 00         	nop
    002456  aa   003700 7102 00         	tra	start-fv_iv_template
    002457  aa   000000 0112 00         	nop
    002460  aa   003700 7102 00         	tra	start-fv_iv_template
    002461  aa   000000 0112 00         	nop
    002462  aa   003700 7102 00         	tra	start-fv_iv_template
    002463  aa   000000 0112 00         	nop
    002464  aa   003700 7102 00         	tra	start-fv_iv_template
    002465  aa   000000 0112 00         	nop
    002466  aa   003700 7102 00         	tra	start-fv_iv_template
    002467  aa   000000 0112 00         	nop
    002470  aa   003700 7102 00         	tra	start-fv_iv_template
    002471  aa   000000 0112 00         	nop
    002472  aa   003700 7102 00         	tra	start-fv_iv_template
    002473  aa   000000 0112 00         	nop
    002474  aa   003700 7102 00         	tra	start-fv_iv_template
    002475  aa   000000 0112 00         	nop
    002476  aa   003700 7102 00         	tra	start-fv_iv_template
    002477  aa   000000 0112 00         	nop
    002500  aa   003700 7102 00         	tra	start-fv_iv_template
    002501  aa   000000 0112 00         	nop
    002502  aa   003700 7102 00         	tra	start-fv_iv_template
    002503  aa   000000 0112 00         	nop
    002504  aa   003700 7102 00         	tra	start-fv_iv_template
    002505  aa   000000 0112 00         	nop
    002506  aa   003700 7102 00         	tra	start-fv_iv_template
    002507  aa   000000 0112 00         	nop
    002510  aa   003700 7102 00         	tra	start-fv_iv_template
    002511  aa   000000 0112 00         	nop
    002512  aa   003700 7102 00         	tra	start-fv_iv_template
    002513  aa   000000 0112 00         	nop
    002514  aa   003700 7102 00         	tra	start-fv_iv_template
    002515  aa   000000 0112 00         	nop
    002516  aa   003700 7102 00         	tra	start-fv_iv_template
    002517  aa   000000 0112 00         	nop
    002520  aa   003700 7102 00         	tra	start-fv_iv_template
    002521  aa   000000 0112 00         	nop
    002522  aa   003700 7102 00         	tra	start-fv_iv_template
    002523  aa   000000 0112 00         	nop
    002524  aa   003700 7102 00         	tra	start-fv_iv_template
    002525  aa   000000 0112 00         	nop
    002526  aa   003700 7102 00         	tra	start-fv_iv_template
    002527  aa   000000 0112 00         	nop
    002530  aa   003700 7102 00         	tra	start-fv_iv_template
    002531  aa   000000 0112 00         	nop
    002532  aa   003700 7102 00         	tra	start-fv_iv_template
    002533  aa   000000 0112 00         	nop
    002534  aa   003700 7102 00         	tra	start-fv_iv_template
    002535  aa   000000 0112 00         	nop
    002536  aa   003700 7102 00         	tra	start-fv_iv_template
    002537  aa   000000 0112 00         	nop
    002540  aa   003700 7102 00         	tra	start-fv_iv_template
    002541  aa   000000 0112 00         	nop
    002542  aa   003700 7102 00         	tra	start-fv_iv_template
    002543  aa   000000 0112 00         	nop
    002544  aa   003700 7102 00         	tra	start-fv_iv_template
    002545  aa   000000 0112 00         	nop
    002546  aa   003700 7102 00         	tra	start-fv_iv_template
    002547  aa   000000 0112 00         	nop
    002550  aa   003700 7102 00         	tra	start-fv_iv_template
    002551  aa   000000 0112 00         	nop
    002552  aa   003700 7102 00         	tra	start-fv_iv_template
    002553  aa   000000 0112 00         	nop
    002554  aa   003700 7102 00         	tra	start-fv_iv_template
    002555  aa   000000 0112 00         	nop
    002556  aa   003700 7102 00         	tra	start-fv_iv_template
    002557  aa   000000 0112 00         	nop
    002560  aa   003700 7102 00         	tra	start-fv_iv_template
    002561  aa   000000 0112 00         	nop
    002562  aa   003700 7102 00         	tra	start-fv_iv_template
    002563  aa   000000 0112 00         	nop
    002564  aa   003700 7102 00         	tra	start-fv_iv_template
    002565  aa   000000 0112 00         	nop
    002566  aa   003700 7102 00         	tra	start-fv_iv_template
    002567  aa   000000 0112 00         	nop
    002570  aa   003700 7102 00         	tra	start-fv_iv_template
    002571  aa   000000 0112 00         	nop
    002572  aa   003700 7102 00         	tra	start-fv_iv_template
    002573  aa   000000 0112 00         	nop
    002574  aa   003700 7102 00         	tra	start-fv_iv_template
    002575  aa   000000 0112 00         	nop
    002576  aa   003700 7102 00         	tra	start-fv_iv_template
    002577  aa   000000 0112 00         	nop
    002600  aa   003700 7102 00         	tra	start-fv_iv_template
    002601  aa   000000 0112 00         	nop
    002602  aa   003700 7102 00         	tra	start-fv_iv_template
    002603  aa   000000 0112 00         	nop
    002604  aa   003700 7102 00         	tra	start-fv_iv_template
    002605  aa   000000 0112 00         	nop
    002606  aa   003700 7102 00         	tra	start-fv_iv_template
    002607  aa   000000 0112 00         	nop
    002610  aa   003700 7102 00         	tra	start-fv_iv_template
    002611  aa   000000 0112 00         	nop
    002612  aa   003700 7102 00         	tra	start-fv_iv_template
    002613  aa   000000 0112 00         	nop
    002614  aa   003700 7102 00         	tra	start-fv_iv_template
    002615  aa   000000 0112 00         	nop
    002616  aa   003700 7102 00         	tra	start-fv_iv_template
    002617  aa   000000 0112 00         	nop
    002620  aa   003700 7102 00         	tra	start-fv_iv_template
    002621  aa   000000 0112 00         	nop
    002622  aa   003700 7102 00         	tra	start-fv_iv_template
    002623  aa   000000 0112 00         	nop
    002624  aa   003700 7102 00         	tra	start-fv_iv_template
    002625  aa   000000 0112 00         	nop
    002626  aa   003700 7102 00         	tra	start-fv_iv_template
    002627  aa   000000 0112 00         	nop
    002630  aa   003700 7102 00         	tra	start-fv_iv_template
    002631  aa   000000 0112 00         	nop
    002632  aa   003700 7102 00         	tra	start-fv_iv_template
    002633  aa   000000 0112 00         	nop
    002634  aa   003700 7102 00         	tra	start-fv_iv_template
    002635  aa   000000 0112 00         	nop
    002636  aa   003700 7102 00         	tra	start-fv_iv_template
    002637  aa   000000 0112 00         	nop
    002640  aa   003700 7102 00         	tra	start-fv_iv_template
    002641  aa   000000 0112 00         	nop
    002642  aa   003700 7102 00         	tra	start-fv_iv_template
    002643  aa   000000 0112 00         	nop
    002644  aa   003700 7102 00         	tra	start-fv_iv_template
    002645  aa   000000 0112 00         	nop
    002646  aa   003700 7102 00         	tra	start-fv_iv_template
    002647  aa   000000 0112 00         	nop
    002650  aa   003700 7102 00         	tra	start-fv_iv_template
    002651  aa   000000 0112 00         	nop
    002652  aa   003700 7102 00         	tra	start-fv_iv_template
    002653  aa   000000 0112 00         	nop
    002654  aa   003700 7102 00         	tra	start-fv_iv_template
    002655  aa   000000 0112 00         	nop
    002656  aa   003700 7102 00         	tra	start-fv_iv_template
    002657  aa   000000 0112 00         	nop
    002660  aa   003700 7102 00         	tra	start-fv_iv_template
    002661  aa   000000 0112 00         	nop
    002662  aa   003700 7102 00         	tra	start-fv_iv_template
    002663  aa   000000 0112 00         	nop
    002664  aa   003700 7102 00         	tra	start-fv_iv_template
    002665  aa   000000 0112 00         	nop
    002666  aa   003700 7102 00         	tra	start-fv_iv_template
    002667  aa   000000 0112 00         	nop
    002670  aa   003700 7102 00         	tra	start-fv_iv_template
    002671  aa   000000 0112 00         	nop
    002672  aa   003700 7102 00         	tra	start-fv_iv_template
    002673  aa   000000 0112 00         	nop
    002674  aa   003700 7102 00         	tra	start-fv_iv_template
    002675  aa   000000 0112 00         	nop
    002676  aa   003700 7102 00         	tra	start-fv_iv_template
    002677  aa   000000 0112 00         	nop
    002700  aa   003700 7102 00         	tra	start-fv_iv_template
    002701  aa   000000 0112 00         	nop
    002702  aa   003700 7102 00         	tra	start-fv_iv_template
    002703  aa   000000 0112 00         	nop
    002704  aa   003700 7102 00         	tra	start-fv_iv_template
    002705  aa   000000 0112 00         	nop
    002706  aa   003700 7102 00         	tra	start-fv_iv_template
    002707  aa   000000 0112 00         	nop
    002710  aa   003700 7102 00         	tra	start-fv_iv_template
    002711  aa   000000 0112 00         	nop
    002712  aa   003700 7102 00         	tra	start-fv_iv_template
    002713  aa   000000 0112 00         	nop
    002714  aa   003700 7102 00         	tra	start-fv_iv_template
    002715  aa   000000 0112 00         	nop
    002716  aa   003700 7102 00         	tra	start-fv_iv_template
    002717  aa   000000 0112 00         	nop
    002720  aa   003700 7102 00         	tra	start-fv_iv_template
    002721  aa   000000 0112 00         	nop
    002722  aa   003700 7102 00         	tra	start-fv_iv_template
    002723  aa   000000 0112 00         	nop
    002724  aa   003700 7102 00         	tra	start-fv_iv_template
    002725  aa   000000 0112 00         	nop
    002726  aa   003700 7102 00         	tra	start-fv_iv_template
    002727  aa   000000 0112 00         	nop
    002730  aa   003700 7102 00         	tra	start-fv_iv_template
    002731  aa   000000 0112 00         	nop
    002732  aa   003700 7102 00         	tra	start-fv_iv_template
    002733  aa   000000 0112 00         	nop
    002734  aa   003700 7102 00         	tra	start-fv_iv_template
    002735  aa   000000 0112 00         	nop
    002736  aa   003700 7102 00         	tra	start-fv_iv_template
    002737  aa   000000 0112 00         	nop
    002740  aa   003700 7102 00         	tra	start-fv_iv_template
    002741  aa   000000 0112 00         	nop
    002742  aa   003700 7102 00         	tra	start-fv_iv_template
    002743  aa   000000 0112 00         	nop
    002744  aa   003700 7102 00         	tra	start-fv_iv_template
    002745  aa   000000 0112 00         	nop
    002746  aa   003700 7102 00         	tra	start-fv_iv_template
    002747  aa   000000 0112 00         	nop
    002750  aa   003700 7102 00         	tra	start-fv_iv_template
    002751  aa   000000 0112 00         	nop
    002752  aa   003700 7102 00         	tra	start-fv_iv_template
    002753  aa   000000 0112 00         	nop
    002754  aa   003700 7102 00         	tra	start-fv_iv_template
    002755  aa   000000 0112 00         	nop
    002756  aa   003700 7102 00         	tra	start-fv_iv_template
    002757  aa   000000 0112 00         	nop
    002760  aa   003700 7102 00         	tra	start-fv_iv_template
    002761  aa   000000 0112 00         	nop
    002762  aa   003700 7102 00         	tra	start-fv_iv_template
    002763  aa   000000 0112 00         	nop
    002764  aa   003700 7102 00         	tra	start-fv_iv_template
    002765  aa   000000 0112 00         	nop
    002766  aa   003700 7102 00         	tra	start-fv_iv_template
    002767  aa   000000 0112 00         	nop
    002770  aa   003700 7102 00         	tra	start-fv_iv_template
    002771  aa   000000 0112 00         	nop
    002772  aa   003700 7102 00         	tra	start-fv_iv_template
    002773  aa   000000 0112 00         	nop
    002774  aa   003700 7102 00         	tra	start-fv_iv_template
    002775  aa   000000 0112 00         	nop
    002776  aa   003700 7102 00         	tra	start-fv_iv_template
    002777  aa   000000 0112 00         	nop
    003000  aa   003700 7102 00         	tra	start-fv_iv_template
    003001  aa   000000 0112 00         	nop
    003002  aa   003700 7102 00         	tra	start-fv_iv_template
    003003  aa   000000 0112 00         	nop
    003004  aa   003700 7102 00         	tra	start-fv_iv_template
    003005  aa   000000 0112 00         	nop
    003006  aa   003700 7102 00         	tra	start-fv_iv_template
    003007  aa   000000 0112 00         	nop
    003010  aa   003700 7102 00         	tra	start-fv_iv_template
    003011  aa   000000 0112 00         	nop
    003012  aa   003700 7102 00         	tra	start-fv_iv_template
    003013  aa   000000 0112 00         	nop
    003014  aa   003700 7102 00         	tra	start-fv_iv_template
    003015  aa   000000 0112 00         	nop
    003016  aa   003700 7102 00         	tra	start-fv_iv_template
    003017  aa   000000 0112 00         	nop
    003020  aa   003700 7102 00         	tra	start-fv_iv_template
    003021  aa   000000 0112 00         	nop
    003022  aa   003700 7102 00         	tra	start-fv_iv_template
    003023  aa   000000 0112 00         	nop
    003024  aa   003700 7102 00         	tra	start-fv_iv_template
    003025  aa   000000 0112 00         	nop
    003026  aa   003700 7102 00         	tra	start-fv_iv_template
    003027  aa   000000 0112 00         	nop
    003030  aa   003700 7102 00         	tra	start-fv_iv_template
    003031  aa   000000 0112 00         	nop
    003032  aa   003700 7102 00         	tra	start-fv_iv_template
    003033  aa   000000 0112 00         	nop
    003034  aa   003700 7102 00         	tra	start-fv_iv_template
    003035  aa   000000 0112 00         	nop
    003036  aa   003700 7102 00         	tra	start-fv_iv_template
    003037  aa   000000 0112 00         	nop
    003040  aa   003700 7102 00         	tra	start-fv_iv_template
    003041  aa   000000 0112 00         	nop
    003042  aa   003700 7102 00         	tra	start-fv_iv_template
    003043  aa   000000 0112 00         	nop
    003044  aa   003700 7102 00         	tra	start-fv_iv_template
    003045  aa   000000 0112 00         	nop
    003046  aa   003700 7102 00         	tra	start-fv_iv_template
    003047  aa   000000 0112 00         	nop
    003050  aa   003700 7102 00         	tra	start-fv_iv_template
    003051  aa   000000 0112 00         	nop
    003052  aa   003700 7102 00         	tra	start-fv_iv_template
    003053  aa   000000 0112 00         	nop
    003054  aa   003700 7102 00         	tra	start-fv_iv_template
    003055  aa   000000 0112 00         	nop
    003056  aa   003700 7102 00         	tra	start-fv_iv_template
    003057  aa   000000 0112 00         	nop
    003060  aa   003700 7102 00         	tra	start-fv_iv_template
    003061  aa   000000 0112 00         	nop
    003062  aa   003700 7102 00         	tra	start-fv_iv_template
    003063  aa   000000 0112 00         	nop
    003064  aa   003700 7102 00         	tra	start-fv_iv_template
    003065  aa   000000 0112 00         	nop
    003066  aa   003700 7102 00         	tra	start-fv_iv_template
    003067  aa   000000 0112 00         	nop
    003070  aa   003700 7102 00         	tra	start-fv_iv_template
    003071  aa   000000 0112 00         	nop
    003072  aa   003700 7102 00         	tra	start-fv_iv_template
    003073  aa   000000 0112 00         	nop
    003074  aa   003700 7102 00         	tra	start-fv_iv_template
    003075  aa   000000 0112 00         	nop
    003076  aa   003700 7102 00         	tra	start-fv_iv_template
    003077  aa   000000 0112 00         	nop
    003100  aa   003700 7102 00         	tra	start-fv_iv_template
    003101  aa   000000 0112 00         	nop
    003102  aa   003700 7102 00         	tra	start-fv_iv_template
    003103  aa   000000 0112 00         	nop
    003104  aa   003700 7102 00         	tra	start-fv_iv_template
    003105  aa   000000 0112 00         	nop
    003106  aa   003700 7102 00         	tra	start-fv_iv_template
    003107  aa   000000 0112 00         	nop
    003110  aa   003700 7102 00         	tra	start-fv_iv_template
    003111  aa   000000 0112 00         	nop
    003112  aa   003700 7102 00         	tra	start-fv_iv_template
    003113  aa   000000 0112 00         	nop
    003114  aa   003700 7102 00         	tra	start-fv_iv_template
    003115  aa   000000 0112 00         	nop
    003116  aa   003700 7102 00         	tra	start-fv_iv_template
    003117  aa   000000 0112 00         	nop
    003120  aa   003700 7102 00         	tra	start-fv_iv_template
    003121  aa   000000 0112 00         	nop
    003122  aa   003700 7102 00         	tra	start-fv_iv_template
    003123  aa   000000 0112 00         	nop
    003124  aa   003700 7102 00         	tra	start-fv_iv_template
    003125  aa   000000 0112 00         	nop
    003126  aa   003700 7102 00         	tra	start-fv_iv_template
    003127  aa   000000 0112 00         	nop
    003130  aa   003700 7102 00         	tra	start-fv_iv_template
    003131  aa   000000 0112 00         	nop
    003132  aa   003700 7102 00         	tra	start-fv_iv_template
    003133  aa   000000 0112 00         	nop
    003134  aa   003700 7102 00         	tra	start-fv_iv_template
    003135  aa   000000 0112 00         	nop
    003136  aa   003700 7102 00         	tra	start-fv_iv_template
    003137  aa   000000 0112 00         	nop
    003140  aa   003700 7102 00         	tra	start-fv_iv_template
    003141  aa   000000 0112 00         	nop
    003142  aa   003700 7102 00         	tra	start-fv_iv_template
    003143  aa   000000 0112 00         	nop
    003144  aa   003700 7102 00         	tra	start-fv_iv_template
    003145  aa   000000 0112 00         	nop
    003146  aa   003700 7102 00         	tra	start-fv_iv_template
    003147  aa   000000 0112 00         	nop
    003150  aa   003700 7102 00         	tra	start-fv_iv_template
    003151  aa   000000 0112 00         	nop
    003152  aa   003700 7102 00         	tra	start-fv_iv_template
    003153  aa   000000 0112 00         	nop
    003154  aa   003700 7102 00         	tra	start-fv_iv_template
    003155  aa   000000 0112 00         	nop
    003156  aa   003700 7102 00         	tra	start-fv_iv_template
    003157  aa   000000 0112 00         	nop
    003160  aa   003700 7102 00         	tra	start-fv_iv_template
    003161  aa   000000 0112 00         	nop
    003162  aa   003700 7102 00         	tra	start-fv_iv_template
    003163  aa   000000 0112 00         	nop
    003164  aa   003700 7102 00         	tra	start-fv_iv_template
    003165  aa   000000 0112 00         	nop
    003166  aa   003700 7102 00         	tra	start-fv_iv_template
    003167  aa   000000 0112 00         	nop
    003170  aa   003700 7102 00         	tra	start-fv_iv_template
    003171  aa   000000 0112 00         	nop
    003172  aa   003700 7102 00         	tra	start-fv_iv_template
    003173  aa   000000 0112 00         	nop
    003174  aa   003700 7102 00         	tra	start-fv_iv_template
    003175  aa   000000 0112 00         	nop
    003176  aa   003700 7102 00         	tra	start-fv_iv_template
    003177  aa   000000 0112 00         	nop
    003200  aa   003700 7102 00         	tra	start-fv_iv_template
    003201  aa   000000 0112 00         	nop
    003202  aa   003700 7102 00         	tra	start-fv_iv_template
    003203  aa   000000 0112 00         	nop
    003204  aa   003700 7102 00         	tra	start-fv_iv_template
    003205  aa   000000 0112 00         	nop
    003206  aa   003700 7102 00         	tra	start-fv_iv_template
    003207  aa   000000 0112 00         	nop
    003210  aa   003700 7102 00         	tra	start-fv_iv_template
    003211  aa   000000 0112 00         	nop
    003212  aa   003700 7102 00         	tra	start-fv_iv_template
    003213  aa   000000 0112 00         	nop
    003214  aa   003700 7102 00         	tra	start-fv_iv_template
    003215  aa   000000 0112 00         	nop
    003216  aa   003700 7102 00         	tra	start-fv_iv_template
    003217  aa   000000 0112 00         	nop
    003220  aa   003700 7102 00         	tra	start-fv_iv_template
    003221  aa   000000 0112 00         	nop
    003222  aa   003700 7102 00         	tra	start-fv_iv_template
    003223  aa   000000 0112 00         	nop
    003224  aa   003700 7102 00         	tra	start-fv_iv_template
    003225  aa   000000 0112 00         	nop
    003226  aa   003700 7102 00         	tra	start-fv_iv_template
    003227  aa   000000 0112 00         	nop
    003230  aa   003700 7102 00         	tra	start-fv_iv_template
    003231  aa   000000 0112 00         	nop
    003232  aa   003700 7102 00         	tra	start-fv_iv_template
    003233  aa   000000 0112 00         	nop
    003234  aa   003700 7102 00         	tra	start-fv_iv_template
    003235  aa   000000 0112 00         	nop
    003236  aa   003700 7102 00         	tra	start-fv_iv_template
    003237  aa   000000 0112 00         	nop
    003240  aa   003700 7102 00         	tra	start-fv_iv_template
    003241  aa   000000 0112 00         	nop
    003242  aa   003700 7102 00         	tra	start-fv_iv_template
    003243  aa   000000 0112 00         	nop
    003244  aa   003700 7102 00         	tra	start-fv_iv_template
    003245  aa   000000 0112 00         	nop
    003246  aa   003700 7102 00         	tra	start-fv_iv_template
    003247  aa   000000 0112 00         	nop
    003250  aa   003700 7102 00         	tra	start-fv_iv_template
    003251  aa   000000 0112 00         	nop
    003252  aa   003700 7102 00         	tra	start-fv_iv_template
    003253  aa   000000 0112 00         	nop
    003254  aa   003700 7102 00         	tra	start-fv_iv_template
    003255  aa   000000 0112 00         	nop
    003256  aa   003700 7102 00         	tra	start-fv_iv_template
    003257  aa   000000 0112 00         	nop
    003260  aa   003700 7102 00         	tra	start-fv_iv_template
    003261  aa   000000 0112 00         	nop
    003262  aa   003700 7102 00         	tra	start-fv_iv_template
    003263  aa   000000 0112 00         	nop
    003264  aa   003700 7102 00         	tra	start-fv_iv_template
    003265  aa   000000 0112 00         	nop
    003266  aa   003700 7102 00         	tra	start-fv_iv_template
    003267  aa   000000 0112 00         	nop
    003270  aa   003700 7102 00         	tra	start-fv_iv_template
    003271  aa   000000 0112 00         	nop
    003272  aa   003700 7102 00         	tra	start-fv_iv_template
    003273  aa   000000 0112 00         	nop
    003274  aa   003700 7102 00         	tra	start-fv_iv_template
    003275  aa   000000 0112 00         	nop
    003276  aa   003700 7102 00         	tra	start-fv_iv_template
    003277  aa   000000 0112 00         	nop
    003300  aa   003700 7102 00         	tra	start-fv_iv_template
    003301  aa   000000 0112 00         	nop
    003302  aa   003700 7102 00         	tra	start-fv_iv_template
    003303  aa   000000 0112 00         	nop
    003304  aa   003700 7102 00         	tra	start-fv_iv_template
    003305  aa   000000 0112 00         	nop
    003306  aa   003700 7102 00         	tra	start-fv_iv_template
    003307  aa   000000 0112 00         	nop
    003310  aa   003700 7102 00         	tra	start-fv_iv_template
    003311  aa   000000 0112 00         	nop
    003312  aa   003700 7102 00         	tra	start-fv_iv_template
    003313  aa   000000 0112 00         	nop
    003314  aa   003700 7102 00         	tra	start-fv_iv_template
    003315  aa   000000 0112 00         	nop
    003316  aa   003700 7102 00         	tra	start-fv_iv_template
    003317  aa   000000 0112 00         	nop
    003320  aa   003700 7102 00         	tra	start-fv_iv_template
    003321  aa   000000 0112 00         	nop
    003322  aa   003700 7102 00         	tra	start-fv_iv_template
    003323  aa   000000 0112 00         	nop
    003324  aa   003700 7102 00         	tra	start-fv_iv_template
    003325  aa   000000 0112 00         	nop
    003326  aa   003700 7102 00         	tra	start-fv_iv_template
    003327  aa   000000 0112 00         	nop
    003330  aa   003700 7102 00         	tra	start-fv_iv_template
    003331  aa   000000 0112 00         	nop
    003332  aa   003700 7102 00         	tra	start-fv_iv_template
    003333  aa   000000 0112 00         	nop
    003334  aa   003700 7102 00         	tra	start-fv_iv_template
    003335  aa   000000 0112 00         	nop
    003336  aa   003700 7102 00         	tra	start-fv_iv_template
    003337  aa   000000 0112 00         	nop
    003340  aa   003700 7102 00         	tra	start-fv_iv_template
    003341  aa   000000 0112 00         	nop
    003342  aa   003700 7102 00         	tra	start-fv_iv_template
    003343  aa   000000 0112 00         	nop
    003344  aa   003700 7102 00         	tra	start-fv_iv_template
    003345  aa   000000 0112 00         	nop
    003346  aa   003700 7102 00         	tra	start-fv_iv_template
    003347  aa   000000 0112 00         	nop
    003350  aa   003700 7102 00         	tra	start-fv_iv_template
    003351  aa   000000 0112 00         	nop
    003352  aa   003700 7102 00         	tra	start-fv_iv_template
    003353  aa   000000 0112 00         	nop
    003354  aa   003700 7102 00         	tra	start-fv_iv_template
    003355  aa   000000 0112 00         	nop
    003356  aa   003700 7102 00         	tra	start-fv_iv_template
    003357  aa   000000 0112 00         	nop
    003360  aa   003700 7102 00         	tra	start-fv_iv_template
    003361  aa   000000 0112 00         	nop
    003362  aa   003700 7102 00         	tra	start-fv_iv_template
    003363  aa   000000 0112 00         	nop
    003364  aa   003700 7102 00         	tra	start-fv_iv_template
    003365  aa   000000 0112 00         	nop
    003366  aa   003700 7102 00         	tra	start-fv_iv_template
    003367  aa   000000 0112 00         	nop
    003370  aa   003700 7102 00         	tra	start-fv_iv_template
    003371  aa   000000 0112 00         	nop
    003372  aa   003700 7102 00         	tra	start-fv_iv_template
    003373  aa   000000 0112 00         	nop
    003374  aa   003700 7102 00         	tra	start-fv_iv_template
    003375  aa   000000 0112 00         	nop
    003376  aa   003700 7102 00         	tra	start-fv_iv_template
    003377  aa   000000 0112 00         	nop
    003400  aa   003700 7102 00         	tra	start-fv_iv_template
    003401  aa   000000 0112 00         	nop
    003402  aa   003700 7102 00         	tra	start-fv_iv_template
    003403  aa   000000 0112 00         	nop
    003404  aa   003700 7102 00         	tra	start-fv_iv_template
    003405  aa   000000 0112 00         	nop
    003406  aa   003700 7102 00         	tra	start-fv_iv_template
    003407  aa   000000 0112 00         	nop
    003410  aa   003700 7102 00         	tra	start-fv_iv_template
    003411  aa   000000 0112 00         	nop
    003412  aa   003700 7102 00         	tra	start-fv_iv_template
    003413  aa   000000 0112 00         	nop
    003414  aa   003700 7102 00         	tra	start-fv_iv_template
    003415  aa   000000 0112 00         	nop
    003416  aa   003700 7102 00         	tra	start-fv_iv_template
    003417  aa   000000 0112 00         	nop
    003420  aa   003700 7102 00         	tra	start-fv_iv_template
    003421  aa   000000 0112 00         	nop
    003422  aa   003700 7102 00         	tra	start-fv_iv_template
    003423  aa   000000 0112 00         	nop
    003424  aa   003700 7102 00         	tra	start-fv_iv_template
    003425  aa   000000 0112 00         	nop
    003426  aa   003700 7102 00         	tra	start-fv_iv_template
    003427  aa   000000 0112 00         	nop
    003430  aa   003700 7102 00         	tra	start-fv_iv_template
    003431  aa   000000 0112 00         	nop
    003432  aa   003700 7102 00         	tra	start-fv_iv_template
    003433  aa   000000 0112 00         	nop
    003434  aa   003700 7102 00         	tra	start-fv_iv_template
    003435  aa   000000 0112 00         	nop
    003436  aa   003700 7102 00         	tra	start-fv_iv_template
    003437  aa   000000 0112 00         	nop
    003440  aa   003700 7102 00         	tra	start-fv_iv_template
    003441  aa   000000 0112 00         	nop
    003442  aa   003700 7102 00         	tra	start-fv_iv_template
    003443  aa   000000 0112 00         	nop
    003444  aa   003700 7102 00         	tra	start-fv_iv_template
    003445  aa   000000 0112 00         	nop
    003446  aa   003700 7102 00         	tra	start-fv_iv_template
    003447  aa   000000 0112 00         	nop
    003450  aa   003700 7102 00         	tra	start-fv_iv_template
    003451  aa   000000 0112 00         	nop
    003452  aa   003700 7102 00         	tra	start-fv_iv_template
    003453  aa   000000 0112 00         	nop
    003454  aa   003700 7102 00         	tra	start-fv_iv_template
    003455  aa   000000 0112 00         	nop
    003456  aa   003700 7102 00         	tra	start-fv_iv_template
    003457  aa   000000 0112 00         	nop
    003460  aa   003700 7102 00         	tra	start-fv_iv_template
    003461  aa   000000 0112 00         	nop
    003462  aa   003700 7102 00         	tra	start-fv_iv_template
    003463  aa   000000 0112 00         	nop
    003464  aa   003700 7102 00         	tra	start-fv_iv_template
    003465  aa   000000 0112 00         	nop
    003466  aa   003700 7102 00         	tra	start-fv_iv_template
    003467  aa   000000 0112 00         	nop
    003470  aa   003700 7102 00         	tra	start-fv_iv_template
    003471  aa   000000 0112 00         	nop
    003472  aa   003700 7102 00         	tra	start-fv_iv_template
    003473  aa   000000 0112 00         	nop
    003474  aa   003700 7102 00         	tra	start-fv_iv_template
    003475  aa   000000 0112 00         	nop
    003476  aa   003700 7102 00         	tra	start-fv_iv_template
    003477  aa   000000 0112 00         	nop
    003500  aa   003700 7102 00         	tra	start-fv_iv_template
    003501  aa   000000 0112 00         	nop
    003502  aa   003700 7102 00         	tra	start-fv_iv_template
    003503  aa   000000 0112 00         	nop
    003504  aa   003700 7102 00         	tra	start-fv_iv_template
    003505  aa   000000 0112 00         	nop
    003506  aa   003700 7102 00         	tra	start-fv_iv_template
    003507  aa   000000 0112 00         	nop
    003510  aa   003700 7102 00         	tra	start-fv_iv_template
    003511  aa   000000 0112 00         	nop
    003512  aa   003700 7102 00         	tra	start-fv_iv_template
    003513  aa   000000 0112 00         	nop
    003514  aa   003700 7102 00         	tra	start-fv_iv_template
    003515  aa   000000 0112 00         	nop
    003516  aa   003700 7102 00         	tra	start-fv_iv_template
    003517  aa   000000 0112 00         	nop
    003520  aa   003700 7102 00         	tra	start-fv_iv_template
    003521  aa   000000 0112 00         	nop
    003522  aa   003700 7102 00         	tra	start-fv_iv_template
    003523  aa   000000 0112 00         	nop
    003524  aa   003700 7102 00         	tra	start-fv_iv_template
    003525  aa   000000 0112 00         	nop
    003526  aa   003700 7102 00         	tra	start-fv_iv_template
    003527  aa   000000 0112 00         	nop
    003530  aa   003700 7102 00         	tra	start-fv_iv_template
    003531  aa   000000 0112 00         	nop
    003532  aa   003700 7102 00         	tra	start-fv_iv_template
    003533  aa   000000 0112 00         	nop
    003534  aa   003700 7102 00         	tra	start-fv_iv_template
    003535  aa   000000 0112 00         	nop
    003536  aa   003700 7102 00         	tra	start-fv_iv_template
    003537  aa   000000 0112 00         	nop
    003540  aa   003700 7102 00         	tra	start-fv_iv_template
    003541  aa   000000 0112 00         	nop
    003542  aa   003700 7102 00         	tra	start-fv_iv_template
    003543  aa   000000 0112 00         	nop
    003544  aa   003700 7102 00         	tra	start-fv_iv_template
    003545  aa   000000 0112 00         	nop
    003546  aa   003700 7102 00         	tra	start-fv_iv_template
    003547  aa   000000 0112 00         	nop
    003550  aa   003700 7102 00         	tra	start-fv_iv_template
    003551  aa   000000 0112 00         	nop
    003552  aa   003700 7102 00         	tra	start-fv_iv_template
    003553  aa   000000 0112 00         	nop
    003554  aa   003700 7102 00         	tra	start-fv_iv_template
    003555  aa   000000 0112 00         	nop
    003556  aa   003700 7102 00         	tra	start-fv_iv_template
    003557  aa   000000 0112 00         	nop
    003560  aa   003700 7102 00         	tra	start-fv_iv_template
    003561  aa   000000 0112 00         	nop
    003562  aa   003700 7102 00         	tra	start-fv_iv_template
    003563  aa   000000 0112 00         	nop
    003564  aa   003700 7102 00         	tra	start-fv_iv_template
    003565  aa   000000 0112 00         	nop
    003566  aa   003700 7102 00         	tra	start-fv_iv_template
    003567  aa   000000 0112 00         	nop
    003570  aa   003700 7102 00         	tra	start-fv_iv_template
    003571  aa   000000 0112 00         	nop
    003572  aa   003700 7102 00         	tra	start-fv_iv_template
    003573  aa   000000 0112 00         	nop
    003574  aa   003700 7102 00         	tra	start-fv_iv_template
    003575  aa   000000 0112 00         	nop
    003576  aa   003700 7102 00         	tra	start-fv_iv_template
    003577  aa   000000 0112 00         	nop
    003600  aa   003700 7102 00         	tra	start-fv_iv_template
    003601  aa   000000 0112 00         	nop
    003602  aa   003700 7102 00         	tra	start-fv_iv_template
    003603  aa   000000 0112 00         	nop
    003604  aa   003700 7102 00         	tra	start-fv_iv_template
    003605  aa   000000 0112 00         	nop
    003606  aa   003700 7102 00         	tra	start-fv_iv_template
    003607  aa   000000 0112 00         	nop
    003610  aa   003700 7102 00         	tra	start-fv_iv_template
    003611  aa   000000 0112 00         	nop
    003612  aa   003700 7102 00         	tra	start-fv_iv_template
    003613  aa   000000 0112 00         	nop
    003614  aa   003700 7102 00         	tra	start-fv_iv_template
    003615  aa   000000 0112 00         	nop
    003616  aa   003700 7102 00         	tra	start-fv_iv_template
    003617  aa   000000 0112 00         	nop
    003620  aa   003700 7102 00         	tra	start-fv_iv_template
    003621  aa   000000 0112 00         	nop
    003622  aa   003700 7102 00         	tra	start-fv_iv_template
    003623  aa   000000 0112 00         	nop
    003624  aa   003700 7102 00         	tra	start-fv_iv_template
    003625  aa   000000 0112 00         	nop
    003626  aa   003700 7102 00         	tra	start-fv_iv_template
    003627  aa   000000 0112 00         	nop
    003630  aa   003700 7102 00         	tra	start-fv_iv_template
    003631  aa   000000 0112 00         	nop
    003632  aa   003700 7102 00         	tra	start-fv_iv_template
    003633  aa   000000 0112 00         	nop
    003634  aa   003700 7102 00         	tra	start-fv_iv_template
    003635  aa   000000 0112 00         	nop
    003636  aa   003700 7102 00         	tra	start-fv_iv_template
    003637  aa   000000 0112 00         	nop
    003640  aa   003700 7102 00         	tra	start-fv_iv_template
    003641  aa   000000 0112 00         	nop
    003642  aa   003700 7102 00         	tra	start-fv_iv_template
    003643  aa   000000 0112 00         	nop
    003644  aa   003700 7102 00         	tra	start-fv_iv_template
    003645  aa   000000 0112 00         	nop
    003646  aa   003700 7102 00         	tra	start-fv_iv_template
    003647  aa   000000 0112 00         	nop
    003650  aa   003700 7102 00         	tra	start-fv_iv_template
    003651  aa   000000 0112 00         	nop
    003652  aa   003700 7102 00         	tra	start-fv_iv_template
    003653  aa   000000 0112 00         	nop
    003654  aa   003700 7102 00         	tra	start-fv_iv_template
    003655  aa   000000 0112 00         	nop
    003656  aa   003700 7102 00         	tra	start-fv_iv_template
    003657  aa   000000 0112 00         	nop
    003660  aa   003700 7102 00         	tra	start-fv_iv_template
    003661  aa   000000 0112 00         	nop
    003662  aa   003700 7102 00         	tra	start-fv_iv_template
    003663  aa   000000 0112 00         	nop
    003664  aa   003700 7102 00         	tra	start-fv_iv_template
    003665  aa   000000 0112 00         	nop
    003666  aa   003700 7102 00         	tra	start-fv_iv_template
    003667  aa   000000 0112 00         	nop
    003670  aa   003700 7102 00         	tra	start-fv_iv_template
    003671  aa   000000 0112 00         	nop
    003672  aa   003700 7102 00         	tra	start-fv_iv_template
    003673  aa   000000 0112 00         	nop
    003674  aa   003700 7102 00         	tra	start-fv_iv_template
    003675  aa   000000 0112 00         	nop
    003676  aa   003700 7102 00         	tra	start-fv_iv_template
    003677  aa   000000 0112 00         	nop
                                    46
    003700  aa   000003 6202 00     47  start:	eax0	3
    003701  aa   000001 2312 10     48  	rsw	1,0
    003702  aa   003740 7552 10     49  	sta	rsw_data-fv_iv_template,0
    003703  aa   777777 6202 10     50  	eax0	-1,0
    003704  aa   777775 6052 04     51  	tpl	-3,ic
                                    52
    003705                          53  	inhibit	on	<+><+><+><+><+><+><+><+><+><+><+><+>
    003705  0a   003705 6162 00     54  	dis	*
    003706                          55  	inhibit	off	<-><-><-><-><-><-><-><-><-><-><-><->
    003706  aa   777777 7100 04     56  	tra	-1,ic
                                    57
                        003740      58  	org	2048-32
    003740                          59  rsw_data:	bss	,32
                                    60
                                    61  	end

NO LITERALS

NAME DEFINITIONS FOR ENTRY POINTS AND SEGDEFS

    004000  5a   000003 000000
    004001  5a   000036 600000
    004002  aa   000000 000000
    004003  55   000012 000002
    004004  5a   000002 400003
    004005  55   000006 000012
    004006  aa  016 146 166 137
    004007  aa  151 166 137 164
    004010  aa  145 155 160 154
    004011  aa  141 164 145 000
    004012  55   000020 000003
    004013  0a   003740 400000
    004014  55   000015 000003
    004015  aa  010 162 163 167         rsw_data
    004016  aa  137 144 141 164
    004017  aa  141 000 000 000
    004020  55   000027 000012
    004021  0a   000000 400000
    004022  55   000023 000003
    004023  aa  016 146 166 137         fv_iv_template
    004024  aa  151 166 137 164
    004025  aa  145 155 160 154
    004026  aa  141 164 145 000
    004027  55   000002 000020
    004030  6a   000000 400002
    004031  55   000032 000003
    004032  aa  014 163 171 155         symbol_table
    004033  aa  142 157 154 137
    004034  aa  164 141 142 154
    004035  aa  145 000 000 000

DEFINITIONS HASH TABLE

    004036  aa   000000 000015
    004037  aa   000000 000000
    004040  aa   000000 000000
    004041  aa   000000 000000
    004042  aa   000000 000000
    004043  aa   000000 000000
    004044  aa   000000 000000
    004045  5a   000020 000000
    004046  5a   000012 000000
    004047  5a   000027 000000
    004050  aa   000000 000000
    004051  aa   000000 000000
    004052  aa   000000 000000
    004053  aa   000000 000000

NO EXTERNAL NAMES

NO TRAP POINTER WORDS

TYPE PAIR BLOCKS

    004054  aa   000001 000000
    004055  aa   000000 000000

INTERNAL EXPRESSION WORDS

LINKAGE INFORMATION

    000000  aa   000000 000000
    000001  0a   004000 000000
    000002  aa   000000 000000
    000003  aa   000000 000000
    000004  aa   000000 000000
    000005  aa   000000 000000
    000006  22   000010 000010
    000007  a2   000000 000000
SYMBOL INFORMATION

SYMBOL TABLE HEADER

    000000  aa   000000 000001
    000001  aa   163171 155142
    000002  aa   164162 145145
    000003  aa   000000 000010
    000004  aa   000000 117244
    000005  aa   361023 525721
    000006  aa   000000 117547
    000007  aa   257034 664711
    000010  aa   141154 155040
    000011  aa   040040 040040
    000012  aa   000024 000040
    000013  aa   000034 000040
    000014  aa   000044 000100
    000015  aa   000002 000002
    000016  aa   000064 000000
    000017  aa   000000 000311
    000020  aa   000000 000104
    000021  aa   000273 000270
    000022  aa   000303 000104
    000023  aa   000064 000000
    000024  aa   101114 115040
    000025  aa   126145 162163
    000026  aa   151157 156040
    000027  aa   070056 061064
    000030  aa   040115 141162
    000031  aa   143150 040061
    000032  aa   071070 071040
    000033  aa   040040 040040
    000034  aa   110151 162156
    000035  aa   145151 163145
    000036  aa   156056 123171
    000037  aa   163115 141151
    000040  aa   156164 056141
    000041  aa   040040 040040
    000042  aa   040040 040040
    000043  aa   040040 040040
    000044  aa   055164 141162
    000045  aa   147145 164040
    000046  aa   154066 070040
    000047  aa   040040 040040
    000050  aa   040040 040040
    000051  aa   040040 040040
    000052  aa   040040 040040
    000053  aa   040040 040040
    000054  aa   040040 040040
    000055  aa   040040 040040
    000056  aa   040154 151163
    000057  aa   164040 163171
    000060  aa   155142 157154
    000061  aa   163040 040040
    000062  aa   040040 040040
    000063  aa   040040 040040
    000064  aa   000000 000001
    000065  aa   000000 000001
    000066  aa   000072 000045
    000067  aa   175453 017223
    000070  aa   000000 117547
    000071  aa   174747 000000
    000072  aa   076163 160145          >spec>install>1110>fv_iv_template.alm
    000073  aa   143076 151156
    000074  aa   163164 141154
    000075  aa   154076 061061
    000076  aa   061060 076146
    000077  aa   166137 151166
    000100  aa   137164 145155
    000101  aa   160154 141164
    000102  aa   145056 141154
    000103  aa   155040 040040
               MULTICS ASSEMBLY CROSS REFERENCE LISTING

   Value        Symbol                   Source file   Line number

           0    fv_iv_template           fv_iv_template:      21,   44,   45,   49.
        3740    rsw_data                 fv_iv_template:      22,   49,   59.
        3700    start                    fv_iv_template:      45,   47.


NO FATAL ERRORS


                                          -----------------------------------------------------------


Historical Background

This edition of the Multics software materials and documentation is provided and donated
to Massachusetts Institute of Technology by Group BULL including BULL HN Information Systems Inc.
as a contribution to computer science knowledge.
This donation is made also to give evidence of the common contributions of Massachusetts Institute of Technology,
Bell Laboratories, General Electric, Honeywell Information Systems Inc., Honeywell BULL Inc., Groupe BULL
and BULL HN Information Systems Inc. to the development of this operating system.
Multics development was initiated by Massachusetts Institute of Technology Project MAC (1963-1970),
renamed the MIT Laboratory for Computer Science and Artificial Intelligence in the mid 1970s, under the leadership
of Professor Fernando Jose Corbato. Users consider that Multics provided the best software architecture
for managing computer hardware properly and for executing programs. Many subsequent operating systems
incorporated Multics principles.
Multics was distributed in 1975 to 2000 by Group Bull in Europe , and in the U.S. by Bull HN Information Systems Inc.,
as successor in interest by change in name only to Honeywell Bull Inc. and Honeywell Information Systems Inc. .

                                          -----------------------------------------------------------

Permission to use, copy, modify, and distribute these programs and their documentation for any purpose and without
fee is hereby granted,provided that the below copyright notice and historical background appear in all copies
and that both the copyright notice and historical background and this permission notice appear in supporting
documentation, and that the names of MIT, HIS, BULL or BULL HN not be used in advertising or publicity pertaining
to distribution of the programs without specific prior written permission.
    Copyright 1972 by Massachusetts Institute of Technology and Honeywell Information Systems Inc.
    Copyright 2006 by BULL HN Information Systems Inc.
    Copyright 2006 by Bull SAS
    All Rights Reserved
