ASSEMBLY LISTING OF SEGMENT >udd>sm>ds>w>ml>hardcore_sct_seg.alm
ASSEMBLED ON:	04/17/00  1947.1 mdt Mon
OPTIONS USED:	list symbols
ASSEMBLED BY:	ALM Version 8.14 March 1989
ASSEMBLER CREATED:	06/09/89  1102.3 mdt Fri

                                     1  " ***********************************************************
                                     2  " *                                                         *
                                     3  " * Copyright, (C) Honeywell Bull Inc., 1987                *
                                     4  " *                                                         *
                                     5  " * Copyright, (C) Honeywell Information Systems Inc., 1984 *
                                     6  " *                                                         *
                                     7  " ***********************************************************
                        000000       8  	segdef	hardcore_sct_seg
                                     9
                                    10  " Simple template to put hardcore_sct_seg into the segment
                                    11  " bound_hc_data_wired.  Keith Loepere, October 1983.
                                    12
    000000                          13  hardcore_sct_seg:
    000000                          14  	bss	,128
                                    15
                                    16  	end

NO LITERALS

NAME DEFINITIONS FOR ENTRY POINTS AND SEGDEFS

    000200  5a   000003 000000
    000201  5a   000032 600000
    000202  aa   000000 000000
    000203  55   000013 000002
    000204  5a   000002 400003
    000205  55   000006 000013
    000206  aa  020 150 141 162
    000207  aa  144 143 157 162
    000210  aa  145 137 163 143
    000211  aa  164 137 163 145
    000212  aa  147 000 000 000
    000213  55   000023 000003
    000214  0a   000000 400000
    000215  55   000016 000003
    000216  aa  020 150 141 162         hardcore_sct_seg
    000217  aa  144 143 157 162
    000220  aa  145 137 163 143
    000221  aa  164 137 163 145
    000222  aa  147 000 000 000
    000223  55   000002 000013
    000224  6a   000000 400002
    000225  55   000026 000003
    000226  aa  014 163 171 155         symbol_table
    000227  aa  142 157 154 137
    000230  aa  164 141 142 154
    000231  aa  145 000 000 000

DEFINITIONS HASH TABLE

    000232  aa   000000 000015
    000233  aa   000000 000000
    000234  aa   000000 000000
    000235  aa   000000 000000
    000236  aa   000000 000000
    000237  aa   000000 000000
    000240  aa   000000 000000
    000241  5a   000023 000000
    000242  aa   000000 000000
    000243  aa   000000 000000
    000244  aa   000000 000000
    000245  aa   000000 000000
    000246  aa   000000 000000
    000247  5a   000013 000000

NO EXTERNAL NAMES

NO TRAP POINTER WORDS

TYPE PAIR BLOCKS

    000250  aa   000001 000000
    000251  aa   000000 000000

INTERNAL EXPRESSION WORDS

LINKAGE INFORMATION

    000000  aa   000000 000000
    000001  0a   000200 000000
    000002  aa   000000 000000
    000003  aa   000000 000000
    000004  aa   000000 000000
    000005  aa   000000 000000
    000006  22   000010 000010
    000007  a2   000000 000000
SYMBOL INFORMATION

SYMBOL TABLE HEADER

    000000  aa   000000 000001
    000001  aa   163171 155142
    000002  aa   164162 145145
    000003  aa   000000 000010
    000004  aa   000000 117244
    000005  aa   361023 525721
    000006  aa   000000 131036
    000007  aa   041563 201245
    000010  aa   141154 155040
    000011  aa   040040 040040
    000012  aa   000024 000040
    000013  aa   000034 000040
    000014  aa   000044 000100
    000015  aa   000002 000002
    000016  aa   000064 000000
    000017  aa   000000 000135
    000020  aa   000000 000103
    000021  aa   000120 000115
    000022  aa   000127 000103
    000023  aa   000064 000000
    000024  aa   101114 115040
    000025  aa   126145 162163
    000026  aa   151157 156040
    000027  aa   070056 061064
    000030  aa   040115 141162
    000031  aa   143150 040061
    000032  aa   071070 071040
    000033  aa   040040 040040
    000034  aa   123143 150162
    000035  aa   157164 150056
    000036  aa   123171 163115
    000037  aa   141151 156164
    000040  aa   056155 040040
    000041  aa   040040 040040
    000042  aa   040040 040040
    000043  aa   040040 040040
    000044  aa   154151 163164
    000045  aa   040163 171155
    000046  aa   142157 154163
    000047  aa   040040 040040
    000050  aa   040040 040040
    000051  aa   040040 040040
    000052  aa   040040 040040
    000053  aa   040040 040040
    000054  aa   040040 040040
    000055  aa   040040 040040
    000056  aa   040040 040040
    000057  aa   040040 040040
    000060  aa   040040 040040
    000061  aa   040040 040040
    000062  aa   040040 040040
    000063  aa   040040 040040
    000064  aa   000000 000001
    000065  aa   000000 000001
    000066  aa   000072 000044
    000067  aa   310157 123645
    000070  aa   000000 131036
    000071  aa   041563 200000
    000072  aa   076165 144144          >udd>sm>ds>w>ml>hardcore_sct_seg.alm
    000073  aa   076163 155076
    000074  aa   144163 076167
    000075  aa   076155 154076
    000076  aa   150141 162144
    000077  aa   143157 162145
    000100  aa   137163 143164
    000101  aa   137163 145147
    000102  aa   056141 154155
               MULTICS ASSEMBLY CROSS REFERENCE LISTING

   Value        Symbol                   Source file   Line number

           0    hardcore_sct_seg         hardcore_sct_seg:     8,   13.


NO FATAL ERRORS


                                          -----------------------------------------------------------


Historical Background

This edition of the Multics software materials and documentation is provided and donated
to Massachusetts Institute of Technology by Group BULL including BULL HN Information Systems Inc.
as a contribution to computer science knowledge.
This donation is made also to give evidence of the common contributions of Massachusetts Institute of Technology,
Bell Laboratories, General Electric, Honeywell Information Systems Inc., Honeywell BULL Inc., Groupe BULL
and BULL HN Information Systems Inc. to the development of this operating system.
Multics development was initiated by Massachusetts Institute of Technology Project MAC (1963-1970),
renamed the MIT Laboratory for Computer Science and Artificial Intelligence in the mid 1970s, under the leadership
of Professor Fernando Jose Corbato. Users consider that Multics provided the best software architecture
for managing computer hardware properly and for executing programs. Many subsequent operating systems
incorporated Multics principles.
Multics was distributed in 1975 to 2000 by Group Bull in Europe , and in the U.S. by Bull HN Information Systems Inc.,
as successor in interest by change in name only to Honeywell Bull Inc. and Honeywell Information Systems Inc. .

                                          -----------------------------------------------------------

Permission to use, copy, modify, and distribute these programs and their documentation for any purpose and without
fee is hereby granted,provided that the below copyright notice and historical background appear in all copies
and that both the copyright notice and historical background and this permission notice appear in supporting
documentation, and that the names of MIT, HIS, BULL or BULL HN not be used in advertising or publicity pertaining
to distribution of the programs without specific prior written permission.
    Copyright 1972 by Massachusetts Institute of Technology and Honeywell Information Systems Inc.
    Copyright 2006 by BULL HN Information Systems Inc.
    Copyright 2006 by Bull SAS
    All Rights Reserved
