ASSEMBLY LISTING OF SEGMENT >spec>install>1115>hcs_.alm
ASSEMBLED ON:	11/11/89  0935.5 mst Sat
OPTIONS USED:	-target l68                              list symbols
ASSEMBLED BY:	ALM Version 8.14 March 1989
ASSEMBLER CREATED:	06/09/89  1002.3 mst Fri

                                     1  " ***********************************************************
                                     2  " *                                                         *
                                     3  " * Copyright, (C) Honeywell Bull Inc., 1987                *
                                     4  " *                                                         *
                                     5  " * Copyright, (C) Honeywell Information Systems Inc., 1982 *
                                     6  " *                                                         *
                                     7  " * Copyright (c) 1972 by Massachusetts Institute of        *
                                     8  " * Technology and Honeywell Information Systems, Inc.      *
                                     9  " *                                                         *
                                    10  " ***********************************************************
                                    11
                                    12
                                    13  " HISTORY COMMENTS:
                                    14  "  1) change(87-01-12,Lippard), approve(87-02-09,MCR7616),
                                    15  "     audit(87-06-03,Farley), install(87-08-06,MR12.1-1063):
                                    16  "     Added set_procs_required.
                                    17  "  2) change(87-08-07,Lippard), approve(87-02-09,PBF7616),
                                    18  "     audit(87-08-11,Farley), install(87-08-18,MR12.1-1090):
                                    19  "     Added get_procs_required.
                                    20  "                                                      END HISTORY COMMENTS
                                    21
                                    22
                                    23  " Added $get_segment_ptr_path 09/21/84 Steve Herbst
                                    24  " Renamed makeunknown, terminate to terminate_, 11/05/84 Keith Loepere.
                                    25  " Modified 1984-11-20 by E. Swenson to remove hcs_$sfblock.
                                    26  " Removed pd_page_faults, 01/08/85 Keith Loepere.
                                    27  " Modified 1985-02-21 by E. Swenson to add get_user_access_modes_seg
                                    28  "   and get_ring_brackets_seg entries.
                                    29  " Modified 1985-03-04 by M. Weaver to remove rest_of_datmk_ and fs_get_call_name.
                                    30  " Modified 1985-03-29 by M. Pandolf to add get_access_(info info_seg).
                                    31
                                    32  	include	gate_macros
                                   1-1  " BEGIN INCLUDE FILE ...... gate_macros.incl.alm
                                   1-2  "   Last modified 6/77 by N. Morris, B. Greenberg, & T. VanVleck
                                   1-3  "   Modified 741212 by PG to inhibit while computing virtual CPU time
                                   1-4  "   Modified 83-03-14 by E. N. Kittlitz to clear IR
                                   1-5  "   Modified 83-06-01 BIM for ring alarm polling
                                   1-6  "   Modified 85-04-03 by Keith Loepere to make polling a little smarter.
                                   1-7
                                   1-8  " This file contains several macros used when generating gate segments.
                                   1-9  " The major macros that are defined are:
                                  1-10  "
                                  1-11  "	gate_info		general setup code for normal gates
                                  1-12  "	hardcore_gate_info	general setup code for hardcore gates
                                  1-13  "	bad_dir_handler	setup and handler for bad_dir_ condition (goes at bottom)
                                  1-14  "	bad_dir_handler_entry	entrypoint for above (goes at top)
                                  1-15  "	gate		to define a normal gate
                                  1-16  "	hgate		to define a hardcore gate
                                  1-17  "	fgate		to define a fast hardcore gate
                                  1-18  "
                                  1-19
                                  1-20
    000000                        1-21  	maclist	off
                                  1-22
                                  1-23  
                                  1-24  " HGATE - define a hardcore gate entry
                                  1-25  "
                                  1-26  "	hgate	gatename,procedure,entry,args{,bad_dir_trap}
                                  1-27  "
                                  1-28  " The entrypoint gatename is defined in the gate segment.  If args
                                  1-29  " is nonzero, the number of arguments passed to gatename must be
                                  1-30  " equal to args.  When gatename is called, it will in turn call
                                  1-31  " procedure$entry.
                                  1-32  "
                                  1-33
                                  1-34  macro	hgate
                              1   1-35  	gentry	&1,&4*2,&1.t
                              2   1-36  	tsx2	.setup
                              3   1-37  &=&5,bad_dir_trap&[	tsx0	.set_dir_trap
                              4   1-38  &]	ldi	=0,dl
                              5   1-39  	short_call &2$&3(ap|0)
                              6   1-40  	eppbp	lp|&1.t
                              7   1-41  	tra	.return_code
                              8   1-42  	maclist	restore
                              9   1-43  	use	linkage
                             10   1-44  	even
                             11   1-45  	maclist	on,save
                             12   1-46  &1.t:
                             13   1-47  	bss	,gate_entry_data_size
                             14   1-48
                             15   1-49  	maclist	restore
                             16   1-50  &end
                                  1-51
                                  1-52
                                  1-53  " FGATE - define a fast hardcore gate
                                  1-54  "
                                  1-55  "	fgate	gatename,procedure,entry
                                  1-56  "
                                  1-57
                                  1-58  macro	fgate
                              1   1-59  	gentry	&1,0,0
                              2   1-60  	ldi	=0,dl
                              3   1-61  	epplp	.my_lp,*
                              4   1-62  	tra	&2$&3
                              5   1-63
                              6   1-64  	maclist	off
                              7   1-65  &end
                                  1-66
                                  1-67
                                  1-68  " GATE - define a normal gate entry
                                  1-69  "
                                  1-70  "	gate	gatename,procedure,entry,args
                                  1-71  "
                                  1-72
                                  1-73  macro	gate
                              1   1-74  	gentry	&1,&4*2,0
                              2   1-75  	tsx2	.setup
                              3   1-76  	ldi	=0,dl
                              4   1-77  	short_call &2$&3(ap|0)
                              5   1-78  	return
                              6   1-79
                              7   1-80  	maclist	restore
                              8   1-81  &end
                                  1-82
                                  1-83  
                                  1-84
                                  1-85  macro	gentry
                              1   1-86  	maclist	on,save
                              2   1-87  	segdef	&1
                              3   1-88  	maclist	restore
                              4   1-89  	use	transfer_vector
                              5   1-90  	maclist	on,save
                              6   1-91  &1:
                              7   1-92  	tra	&1.e
                              8   1-93  	maclist	restore
                              9   1-94  	use	main
                             10   1-95  	maclist	on,save
                             11   1-96  	zero	&2,&3
                             12   1-97  &1.e:
                             13   1-98  &end
                                  1-99
                                 1-100  
                                 1-101  " HARDCORE_GATE_INFO - general info for hardcore gates
                                 1-102
                                 1-103  macro	hardcore_gate_info
                              1  1-104  	maclist	on,save
                              2  1-105  	name	&1
                              3  1-106
                              4  1-107  	include	stack_header
                              5  1-108
                              6  1-109  	include	stack_frame
                              7  1-110  	include	gate_data
                              8  1-111
                              9  1-112  	maclist	restore
                             10  1-113  	eject
                             11  1-114
                             12  1-115  	tempd	.temp
                             13  1-116  	tempd	.label_variable(0)
                             14  1-117  	tempd	.time1,.time2
                             15  1-118  	tempd	.unwinder_arglist(0)
                             16  1-119  	tempd	.on_unit(5)
                             17  1-120  	temp	.pf,.entryp
                             18  1-121  	tempd	.vfl_arglist(2)
                             19  1-122  	tempd	.mcptr
                             20  1-123
                             21  1-124  	use	transfer_vector
                             22  1-125  	equ	.tv_begin,*
                             23  1-126
                             24  1-127  	tra	.actor
                             25  1-128
                             26  1-129  	use	tv_end
                             27  1-130  	entrybound
                             28  1-131
                             29  1-132  	segdef	.tv_end
                             30  1-133  .tv_end:	vfd	14/(*-.tv_begin)
                             31  1-134
                             32  1-135  	use	main
                             33  1-136
                             34  1-137  	segdef	.my_lp
                             35  1-138  	even
                             36  1-139  .my_lp:	bss	,2
                             37  1-140
                             38  1-141  	join	/text/transfer_vector,tv_end,main
                             39  1-142
                             40  1-143  	use	linkage
                             41  1-144  	join	/link/linkage
                             42  1-145
                             43  1-146  	use	main
                             44  1-147
                             45  1-148  	maclist	restore
                             46  1-149  	eject
                             47  1-150
                             48  1-151  .actor:	epplp	.my_lp,*
                             49  1-152  	maclist	restore
                             50  1-153  	gate_actor
                             51  1-154
                             52  1-155  
                             53  1-156
                             54  1-157  .setup:	push
                             55  1-158  	epplp	.my_lp,*
                             56  1-159  	sprilp	sp|stack_frame.lp_ptr
                             57  1-160
                             58  1-161  	maclist	restore
                             59  1-162  	gcheck
                             60  1-163
                             61  1-164  	inhibit	on	<+><+><+><+><+><+><+><+><+><+><+><+>
                             62  1-165  	rccl	sys_info$clock_,*	calculate times
                             63  1-166  	sbaq	pds$cpu_time
                             64  1-167  	staq	.time1
                             65  1-168  	sbaq	pds$virtual_delta
                             66  1-169  	staq	.time2
                             67  1-170  	lda	pds$page_waits
                             68  1-171  	sta	.pf
                             69  1-172  	inhibit	off	<-><-><-><-><-><-><-><-><-><-><-><->
                             70  1-173  	tra	0,2
                             71  1-174
                             72  1-175  	maclist	restore
                             73  1-176  	eject
                             74  1-177
                             75  1-178  .return_code:
                             76  1-179
                             77  1-180  	inhibit	on	<+><+><+><+><+><+><+><+><+><+><+><+>
                             78  1-181  	rccl	sys_info$clock_,*	calculate times
                             79  1-182  	sbaq	pds$cpu_time
                             80  1-183  	staq	.temp
                             81  1-184  	sbaq	.time1
                             82  1-185  	adaq	bp|gate_entry_data.cpu_time
                             83  1-186  	staq	bp|gate_entry_data.cpu_time
                             84  1-187  	ldaq	.temp
                             85  1-188  	sbaq	pds$virtual_delta
                             86  1-189  	sbaq	.time2
                             87  1-190  	adaq	bp|gate_entry_data.vcpu_time
                             88  1-191  	staq	bp|gate_entry_data.vcpu_time
                             89  1-192  	lda	pds$page_waits
                             90  1-193  	sbla	.pf
                             91  1-194  	asa	bp|gate_entry_data.page_waits
                             92  1-195  	aos	bp|gate_entry_data.calls
                             93  1-196  	inhibit	off	<-><-><-><-><-><-><-><-><-><-><-><->
                             94  1-197
                             95  1-198  			" Poll for ring alarms
                             96  1-199  	sra	.temp	Borrow from time calc
                             97  1-200  	szn	.temp	Zero?
                             98  1-201  	tze	.return_code_return
                             99  1-202
                            100  1-203  	epp1	sp|stack_frame.prev_sp,*	"possible ring alarm
                            101  1-204  	epaq	pr1|stack_frame.return_ptr,*
                            102  1-205  	ana	7,dl	" ring number to which we return
                            103  1-206  	cmpa	.temp
                            104  1-207  	tpl	.ring_alarm	" ring alarm will occur
                            105  1-208
                            106  1-209  .return_code_return:
                            107  1-210  	return
                            108  1-211
                            109  1-212  .ring_alarm:		" perhaps we can handle without faults?
                            110  1-213
                            111  1-214  	aos	bp|gate_entry_data.ring_alarms
                            112  1-215  	stz	.temp	" return argument for ring_alarm$poll
                            113  1-216  	ldaq	.one_arg_header
                            114  1-217  	staq	.ring_alarm_arg_list
                            115  1-218  	epp1	.temp
                            116  1-219  	spri1	.ring_alarm_arg_list+2
                            117  1-220  	eppap	.ring_alarm_arg_list
                            118  1-221  	short_call ring_alarm$poll
                            119  1-222  	szn	.temp
                            120  1-223  	tze	.return_code_return
                            121  1-224  	eppsp	sp|stack_frame.prev_sp,*
                            122  1-225  	sprisp	pds$pre_empt_poll_return          " short-return from here
                            123  1-226  	epp1	sb|stack_header.stack_begin_ptr,* " abandoning this stack frame.
                            124  1-227  	spri1	sb|stack_header.stack_end_ptr
                            125  1-228  " Leave SB as stack_0, so pxss can get to operators.
                            126  1-229  	tra	pxss$pre_empt_poll
                            127  1-230
                            128  1-231  	tempd	.ring_alarm_arg_list(2)
                            129  1-232  	even
                            130  1-233  .one_arg_header:
                            131  1-234  	vfd	17/2,1/0,18/4
                            132  1-235  	vfd	18/0,18/0
                            133  1-236
                            134  1-237
                            135  1-238  	maclist	restore
                            136  1-239  	eject
                            137  1-240  	maclist	restore
                            138  1-241  &end
                                 1-242
                                 1-243  
                                 1-244  " BAD_DIR_HANDLER - code to setup and handle bad_dir_ condition
                                 1-245  "			put this after the last hgate macro
                                 1-246
                                 1-247  macro	bad_dir_handler
                              1  1-248  	maclist	on,save
                              2  1-249
                              3  1-250  	include	on_unit
                              4  1-251
                              5  1-252  	use	transfer_vector
                              6  1-253  .handler_entry:
                              7  1-254  	tra	.handler
                              8  1-255  .handler_restart_entry:
                              9  1-256  	tra	.handler_restart_point
                             10  1-257
                             11  1-258  	use	main
                             12  1-259  .set_dir_trap:
                             13  1-260  	stx0	.entryp		save for restart
                             14  1-261
                             15  1-262  	mlr	(),(pr),fill(000)
                             16  1-263  	desc9a	0,0
                             17  1-264  	desc9a	.on_unit,10*4
                             18  1-265  	eppbp	.bad_dir_name
                             19  1-266  	spribp	.on_unit+on_unit.name
                             20  1-267  	eppbp	.handler_entry
                             21  1-268  	spribp	.on_unit+on_unit.body
                             22  1-269  	lxl1	.bad_dir_desc
                             23  1-270  	sxl1	.on_unit+on_unit.size
                             24  1-271  	eaa	.on_unit		set up on-unit for bad_dir_
                             25  1-272  	sbla	sp|0,du		.. make rel to sp
                             26  1-273  	sta	sp|stack_frame.on_unit_rel_ptrs
                             27  1-274  	lda	stack_frame.condition_bit,dl
                             28  1-275  	orsa	sp|stack_frame.flag_word
                             29  1-276  	tra	0,0
                             30  1-277
                             31  1-278  	string	bad_dir_
                             32  1-279
                             33  1-280  
                             34  1-281
                             35  1-282  .handler:	epaq	sp|0		verify that call came from ring 0
                             36  1-283  	cana	-1,dl		check ring number in AL
                             37  1-284  	tze	*+2
                             38  1-285  	zero	0		go way kid you bother me
                             39  1-286
                             40  1-287  	push			" ok, we like the call
                             41  1-288  	epplp	.my_lp,*
                             42  1-289  	ldx0	ap|0		get display
                             43  1-290  	eppbp	ap|2,0*
                             44  1-291  	lda	bp|stack_frame.prev_sp
                             45  1-292  	cana	=o700000,dl	from another ring?
                             46  1-293  	tze	.continue_signal	if not, back to signal_
                             47  1-294  	eppap	ap|2,*		Get mcptr
                             48  1-295  	eppap	ap|0,*		..
                             49  1-296  	spriap	bp|.mcptr		.. save in gate frame
                             50  1-297  	spribp	.label_variable+2
                             51  1-298  	eppbp	.handler_restart_entry
                             52  1-299  	spribp	.label_variable
                             53  1-300  	eppbp	.label_variable
                             54  1-301  	spribp	.unwinder_arglist+2
                             55  1-302  	fld	=1b24,dl
                             56  1-303  	staq	.unwinder_arglist
                             57  1-304  	call	unwinder_$unwinder_(.unwinder_arglist)
                             58  1-305
                             59  1-306  .continue_signal:
                             60  1-307  	lda	=o400000,du	"1"b
                             61  1-308  	sta	ap|10,*		set continue bit
                             62  1-309  	return
                             63  1-310
                             64  1-311  .handler_restart_point:
                             65  1-312  	epaq	sp|0		check that call came from ring 0
                             66  1-313  	cana	-1,dl
                             67  1-314  	tze	*+2
                             68  1-315  	zero	1
                             69  1-316  	epplp	.my_lp,*
                             70  1-317  	lca	stack_frame.condition_bit+1,dl  Vanish on-unit
                             71  1-318  	ansa	sp|stack_frame.flag_word
                             72  1-319  	eppbp	.mcptr
                             73  1-320  	spribp	.vfl_arglist+2
                             74  1-321  	fld	=1b24,dl
                             75  1-322  	staq	.vfl_arglist
                             76  1-323  	short_call  verify_lock$verify_lock_bad_dir(.vfl_arglist)
                             77  1-324  	ldx0	.entryp
                             78  1-325  	eppap	sp|stack_frame.arg_ptr,*
                             79  1-326  	tra	0,0		retry the call
                             80  1-327
                             81  1-328  	maclist	restore
                             82  1-329  	eject
                             83  1-330  	maclist	restore
                             84  1-331  &end
                                 1-332
                                 1-333  
                                 1-334  " GATE_INFO - general info for non-hardcore gates
                                 1-335
                                 1-336  macro	gate_info
                              1  1-337  	maclist	on,save
                              2  1-338  	use	transfer_vector
                              3  1-339  	tra	.actor
                              4  1-340
                              5  1-341  	use	tv_end
                              6  1-342  	entrybound
                              7  1-343
                              8  1-344  	use	main
                              9  1-345  	join	/text/transfer_vector,tv_end,main
                             10  1-346
                             11  1-347  	maclist	restore
                             12  1-348  	eject
                             13  1-349
                             14  1-350  .actor:	getlp
                             15  1-351  	maclist	restore
                             16  1-352  	gate_actor
                             17  1-353
                             18  1-354  	maclist	restore
                             19  1-355  	eject
                             20  1-356
                             21  1-357  .setup:	push
                             22  1-358  	getlp
                             23  1-359  	maclist	restore
                             24  1-360  	gcheck
                             25  1-361  	tra	0,2
                             26  1-362
                             27  1-363  	maclist	restore
                             28  1-364  	eject
                             29  1-365
                             30  1-366  	maclist	restore
                             31  1-367  &end
                                 1-368
                                 1-369  
                                 1-370  " Macro to generate gate actor.
                                 1-371
                                 1-372  macro	gate_actor
                              1  1-373  	maclist	on,save
                              2  1-374  	eppbp	ap|2,*
                              3  1-375  	lda	bp|-1		get length of string
                              4  1-376  	tze	.return_name	zero length => get name
                              5  1-377
                              6  1-378  	adla	1,dl		include length of acc
                              7  1-379  	stz	ap|4,*
                              8  1-380  	tsx0	.search_defs
                              9  1-381
                             10  1-382  	cmpc	(pr,rl),(pr,rl)	compare name
                             11  1-383  	desc9a	bp|-1(3),al
                             12  1-384  	desc9a	bb|0,al
                             13  1-385  	tnz	.next_def
                             14  1-386
                             15  1-387  	lda	ab|1,2		return location
                             16  1-388  	arl	18
                             17  1-389  	sta	ap|4,*
                             18  1-390
                             19  1-391  	short_return
                             20  1-392
                             21  1-393  .return_name:
                             22  1-394  	lxl3	ap|4,*		get location
                             23  1-395  	tsx0	.search_defs
                             24  1-396
                             25  1-397  	cmpx3	ab|1,2		compare location
                             26  1-398  	tnz	.next_def
                             27  1-399
                             28  1-400  	lda	bb|0		get length of name
                             29  1-401  	arl	27
                             30  1-402  	sta	bp|-1		set length of varying string
                             31  1-403  	mlr	(pr,rl),(pr,rl)	return string
                             32  1-404  	desc9a	bb|0(1),al
                             33  1-405  	desc9a	bp|0,al
                             34  1-406
                             35  1-407  	short_return
                             36  1-408
                             37  1-409  .search_defs:
                             38  1-410  	eax2	0
                             39  1-411  	eppab	lp|0,*		ab -> defs
                             40  1-412  .defs_loop:
                             41  1-413  	lxl1	ab|1,2		get class and flags
                             42  1-414  	cmpx1	=o400000,du	must be class 0
                             43  1-415  	tnz	.next_def
                             44  1-416
                             45  1-417  	ldx7	ab|2,2
                             46  1-418  	eppbb	ab|0,7		bb -> name
                             47  1-419  	tra	0,0		test definition
                             48  1-420  .next_def:
                             49  1-421  	ldx2	ab|0,2		chain to next def
                             50  1-422  	tnz	.defs_loop
                             51  1-423
                             52  1-424  	short_return
                             53  1-425
                             54  1-426  &end
                                 1-427
                                 1-428  
                                 1-429  " Miscellaneous macros.
                                 1-430
                                 1-431  macro	gcheck
                              1  1-432  	maclist	on,save
                              2  1-433  	ldx1	-2,2		get number of args expected
                              3  1-434  	tze	.no_gate_error	if zero, none or doesn't matter
                              4  1-435  	cmpx1	ap|0		compare against number given
                              5  1-436  	tze	.no_gate_error	args match, call procedure
                              6  1-437
                              7  1-438  	call	signal_$signal_(signal_arglist)
                              8  1-439  	oct	0
                              9  1-440
                             10  1-441  	even
                             11  1-442  signal_arglist:
                             12  1-443  	zero	2,4
                             13  1-444  	zero	2,0
                             14  1-445  	arg	.gate_errorname
                             15  1-446  	arg
                             16  1-447  	arg	.gate_errordesc
                             17  1-448  	arg
                             18  1-449
                             19  1-450  	string	gate_error
                             20  1-451
                             21  1-452
                             22  1-453  .no_gate_error:
                             23  1-454  &end
                                 1-455
                                 1-456  macro	string
                              1  1-457  .&1name:
                              2  1-458  	aci	"&1"
                              3  1-459  .&1desc:
                              4  1-460  	vfd	o9/525,o27/&l1
                              5  1-461
                              6  1-462  &end
                                 1-463
                                 1-464  macro	eject
                              1  1-465  	maclist	on,save
                              2  1-466  
                              3  1-467  &end
                                 1-468
                                 1-469  " END INCLUDE FILE ...... gate_macros.incl.alm
                                 1-470
                                 1-471  "  To arrange the return it wants to return, it will have to reach back  2 frames.
                                    33
                                    34
                                    35  	hardcore_gate_info	hcs_
    000000                              	name	hcs_

                                        	include	stack_header
                                   2-1  "	BEGIN INCLUDE FILE ... stack_header.incl.alm  3/72  Bill Silver
                                   2-2  "
                                   2-3  "	modified 7/76 by M. Weaver for *system links and more system use of areas
                                   2-4  "	modified 3/77 by M. Weaver  to add rnt_ptr
                                   2-5  "	modified 7/77 by S. Webber to add run_unit_depth and assign_linkage_ptr
                                   2-6  "	modified 6/83 by J. Ives to add trace_frames and in_trace.
                                   2-7
                                   2-8  " HISTORY COMMENTS:
                                   2-9  "  1) change(86-06-24,DGHowe), approve(86-06-24,MCR7396),
                                  2-10  "     audit(86-08-05,Schroth), install(86-11-03,MR12.0-1206):
                                  2-11  "     added the heap_header_ptr definition
                                  2-12  "  2) change(86-08-12,Kissel), approve(86-08-12,MCR7473),
                                  2-13  "     audit(86-10-10,Fawcett), install(86-11-03,MR12.0-1206):
                                  2-14  "     Modified to support control point management.  These changes were
                                  2-15  "     actually made in February 1985 by G. Palter.
                                  2-16  "  3) change(86-10-22,Fawcett), approve(86-10-22,MCR7473),
                                  2-17  "     audit(86-10-22,Farley), install(86-11-03,MR12.0-1206):
                                  2-18  "     Remove the old_lot pointer and replace it with cpm_data_ptr. Use the 18
                                  2-19  "     bit pad after cur_lot_size for the cpm_enabled. This was done to save
                                  2-20  "     some space int the stack header and change the cpd_ptr unal to
                                  2-21  "     cpm_data_ptr (ITS pair).
                                  2-22  "                                                      END HISTORY COMMENTS
                                  2-23
                        000004    2-24  	equ	stack_header.cpm_data_ptr,4		ptr to control point for this stack
                        000006    2-25  	equ	stack_header.combined_stat_ptr,6	ptr to separate static area
                                  2-26
                        000010    2-27  	equ	stack_header.clr_ptr,8		ptr to area containing linkage sections
                        000012    2-28  	equ	stack_header.max_lot_size,10		number of words allowed in lot (DU)
                        000012    2-29  	equ	stack_header.main_proc_invoked,10	nonzero if main proc was invoked in run unit (DL)
                        000012    2-30  	equ	stack_header.run_unit_depth,10	number of active run units stacked (DL)
                        000013    2-31  	equ	stack_header.cur_lot_size,11		DU number of words (entries) in lot
                        000013    2-32            equ	stack_header.cpm_enabled,11		DL  non-zero if control point management is enabled
                        000014    2-33  	equ	stack_header.system_free_ptr,12	ptr to system storage area
                        000016    2-34  	equ	stack_header.user_free_ptr,14		ptr to user storage area
                                  2-35
                        000020    2-36  	equ	stack_header.parent_ptr,16		ptr to parent stack or null
                        000022    2-37  	equ	stack_header.stack_begin_ptr,18	ptr to first stack frame
                        000024    2-38  	equ	stack_header.stack_end_ptr,20		ptr to next useable stack frame
                        000026    2-39  	equ	stack_header.lot_ptr,22		ptr to the lot for the current ring
                                  2-40
                        000030    2-41  	equ	stack_header.signal_ptr,24		ptr to signal proc for current ring
                        000032    2-42  	equ	stack_header.bar_mode_sp,26		value of sp before entering bar mode
                        000034    2-43  	equ	stack_header.pl1_operators_ptr,28	ptr: pl1_operators_$operator_table
                        000036    2-44  	equ	stack_header.call_op_ptr,30		ptr to standard call operator
                                  2-45
                        000040    2-46  	equ	stack_header.push_op_ptr,32		ptr to standard push operator
                        000042    2-47  	equ	stack_header.return_op_ptr,34		ptr to standard return operator
                        000044    2-48  	equ	stack_header.ret_no_pop_op_ptr,36	ptr: stand. return/ no pop operator
                        000046    2-49  	equ	stack_header.entry_op_ptr,38		ptr to standard entry operator
                                  2-50
                        000050    2-51  	equ	stack_header.trans_op_tv_ptr,40	ptr to table of translator operator ptrs
                        000052    2-52  	equ	stack_header.isot_ptr,42		pointer to ISOT
                        000054    2-53  	equ	stack_header.sct_ptr,44		pointer to System Condition Table
                        000056    2-54  	equ	stack_header.unwinder_ptr,46		pointer to unwinder for current ring
                                  2-55
                        000060    2-56  	equ	stack_header.sys_link_info_ptr,48	ptr to *system link name table
                        000062    2-57  	equ	stack_header.rnt_ptr,50		ptr to reference name table
                        000064    2-58  	equ	stack_header.ect_ptr,52		ptr to event channel table
                        000066    2-59  	equ	stack_header.assign_linkage_ptr,54	ptr to area for hcs_$assign_linkage calls
                        000070    2-60  	equ	stack_header.heap_header_ptr,56	ptr to heap header.
                        000072    2-61  	equ	stack_header.trace_frames,58		stack of trace_catch_ frames
                        000073    2-62  	equ	stach_header.trace_top_ptr,59		trace pointer
                        000074    2-63  	equ	stack_header.in_trace,60		trace antirecurse bit
                        000100    2-64  	equ	stack_header_end,64			length of stack header
                                  2-65
                                  2-66
                                  2-67
                                  2-68
                        000000    2-69  	equ	trace_frames.count,0		number of trace frames on stack
                        000001    2-70  	equ	trace_frames.top_ptr,1		packed pointer to top one
                                  2-71
                                  2-72  "	The  following constant is an offset within the  pl1  operators table.
                                  2-73  "	It  references a  transfer vector table.
                                  2-74
                        000551    2-75  	bool	tv_offset,551
                                  2-76
                                  2-77
                                  2-78  "	The  following constants are offsets within this transfer vector table.
                                  2-79
                        001170    2-80  	equ	call_offset,tv_offset+271
                        001171    2-81  	equ	push_offset,tv_offset+272
                        001172    2-82  	equ	return_offset,tv_offset+273
                        001173    2-83  	equ	return_no_pop_offset,tv_offset+274
                        001174    2-84  	equ	entry_offset,tv_offset+275
                                  2-85
                                  2-86
                                  2-87  " 	END INCLUDE FILE stack_header.incl.alm

                                        	include	stack_frame
                                   3-1  "
                                   3-2  "	BEGIN INCLUDE FILE ... stack_frame.incl.alm   6/72 RBS
                                   3-3  "
                                   3-4  " Modified: 16 Dec 1977, D. Levin - to add fio_ps_ptr
                                   3-5  " Modified:  3 Feb 1978, P. Krupp - to add run_unit_manager_bit & main_proc_bit
                                   3-6  " Modified: 21 March 1978, D. Levin - change fio_ps_ptr to support_ptr
                                   3-7  "
                        000020     3-8  	equ	stack_frame.prev_sp,16
                        000020     3-9  	equ	stack_frame.condition_word,16
                        000022    3-10  	equ	stack_frame.next_sp,18
                        000022    3-11  	equ	stack_frame.signaller_word,18
                        000024    3-12  	equ	stack_frame.return_ptr,20
                        000026    3-13  	equ	stack_frame.entry_ptr,22
                        000030    3-14  	equ	stack_frame.operator_ptr,24
                        000030    3-15  	equ	stack_frame.lp_ptr,24
                        000032    3-16  	equ	stack_frame.arg_ptr,26
                        000034    3-17  	equ	stack_frame.static_ptr,28
                        000035    3-18  	equ	stack_frame.support_ptr,29	" only used by fortran I/O
                        000036    3-19  	equ	stack_frame.on_unit_rel_ptrs,30
                        000037    3-20  	equ	stack_frame.operator_ret_ptr,31
                        000037    3-21  	equ	stack_frame.translator_id,31
                        000040    3-22  	equ	stack_frame.regs,32
                        000060    3-23  	equ	stack_frame.min_length,48
                        000020    3-24  	equ	stack_frame.flag_word,16
                        020000    3-25  	bool	stack_frame.main_proc_bit,020000	(DL)
                        010000    3-26  	bool	stack_frame.run_unit_manager,010000	(DL)
                        004000    3-27  	bool	stack_frame.signal_bit,004000		(DL)
                        002000    3-28  	bool	stack_frame.crawl_out_bit,002000	(DL)
                        001000    3-29  	bool	stack_frame.signaller_bit,001000	(DL)
                        000400    3-30  	bool	stack_frame.link_trap_bit,000400	(DL)
                        000200    3-31  	bool	stack_frame.support_bit,000200	(DL)
                        000100    3-32  	bool	stack_frame.condition_bit,000100	(DL)
                                  3-33
                                  3-34  "
                                  3-35  "	END INCLUDE FILE  ... stack_frame.incl.alm
                                  3-36  "
                                        	include	gate_data
                                   4-1
                                   4-2
                                   4-3       "BEGIN INCLUDE FILE gate_data.incl.alm
                                   4-4
                                   4-5
                                   4-6  	"Created 11/07/83  0737.6 est Mon by convert_include_file,
                                   4-7  	"   Version of 11/07/82  1445.1 est Sun.
                                   4-8
                                   4-9  	"Made from >user_dir_dir>Multics>Margulies>h>gate_data.incl.pl1,
                                  4-10  	"   modified 11/07/83  0737.5 est Mon
                                  4-11
                                  4-12  "
                                  4-13  "	Structure gate_table
                                  4-14  "
                        000003    4-15  	equ	gate_table_size,3
                                  4-16
                                  4-17
                        000000    4-18  	equ	gate_table.entryp,0
                        000001    4-19  	equ	gate_table.entryl,1
                        000002    4-20  	equ	gate_table.datap,2
                                  4-21
                                  4-22  "
                                  4-23  "	Structure gate_entry_data
                                  4-24  "
                        000010    4-25  	equ	gate_entry_data_size,8
                                  4-26
                        000000    4-27  	equ	gate_entry_data.cpu_time,0	" DOUBLE
                        000002    4-28  	equ	gate_entry_data.vcpu_time,2	" DOUBLE
                        000004    4-29  	equ	gate_entry_data.page_waits,4
                        000005    4-30  	equ	gate_entry_data.calls,5
                        000006    4-31  	equ	gate_entry_data.ring_alarms,6
                                  4-32
                                  4-33       "END INCLUDE FILE gate_data.incl.alm

                                        

                                        	tempd	.temp
                                        	tempd	.label_variable(0)
                                        	tempd	.time1,.time2
                                        	tempd	.unwinder_arglist(0)
                                        	tempd	.on_unit(5)
                                        	temp	.pf,.entryp
                                        	tempd	.vfl_arglist(2)
                                        	tempd	.mcptr

                                        	use	transfer_vector
                        000000          	equ	.tv_begin,*

    000000  0a   000314 7100 00         	tra	.actor

                                        	use	tv_end
                                        	entrybound

                        000311          	segdef	.tv_end
    000311  aa   006220 000000          .tv_end:	vfd	14/(*-.tv_begin)

                                        	use	main

                        000312          	segdef	.my_lp
                                        	even
    000312                              .my_lp:	bss	,2

                                        	join	/text/transfer_vector,tv_end,main

                                        	use	linkage
                                        	join	/link/linkage

                                        	use	main

                                        

    000314  0a   000312 3700 20         .actor:	epplp	.my_lp,*
    000315  aa  0 00002 3521 20         	eppbp	ap|2,*
    000316  aa  2 77777 2351 00         	lda	bp|-1		get length of string
    000317  0a   000333 6000 00         	tze	.return_name	zero length => get name

    000320  aa   000001 0350 07         	adla	1,dl		include length of acc
    000321  aa  0 00004 4501 20         	stz	ap|4,*
    000322  0a   000346 7000 00         	tsx0	.search_defs

    000323  aa  0 00140 1065 40         	cmpc	(pr,rl),(pr,rl)	compare name
    000324  aa   277777 600005          	desc9a	bp|-1(3),al
    000325  aa   300000 000005          	desc9a	bb|0,al
    000326  0a   000356 6010 00         	tnz	.next_def

    000327  aa  1 00001 2351 12         	lda	ab|1,2		return location
    000330  aa   000022 7710 00         	arl	18
    000331  aa  0 00004 7551 20         	sta	ap|4,*

    000332  aa  7 00044 7101 20         	short_return

    000333                              .return_name:
    000333  aa  0 00004 7231 20         	lxl3	ap|4,*		get location
    000334  0a   000346 7000 00         	tsx0	.search_defs

    000335  aa  1 00001 1031 12         	cmpx3	ab|1,2		compare location
    000336  0a   000356 6010 00         	tnz	.next_def

    000337  aa  3 00000 2351 00         	lda	bb|0		get length of name
    000340  aa   000033 7710 00         	arl	27
    000341  aa  2 77777 7551 00         	sta	bp|-1		set length of varying string
    000342  aa  0 00140 1005 40         	mlr	(pr,rl),(pr,rl)	return string
    000343  aa   300000 200005          	desc9a	bb|0(1),al
    000344  aa   200000 000005          	desc9a	bp|0,al

    000345  aa  7 00044 7101 20         	short_return

    000346                              .search_defs:
    000346  aa   000000 6220 00         	eax2	0
    000347  aa  4 00000 3515 20         	eppab	lp|0,*		ab -> defs
    000350                              .defs_loop:
    000350  aa  1 00001 7211 12         	lxl1	ab|1,2		get class and flags
    000351  aa   400000 1010 03         	cmpx1	=o400000,du	must be class 0
    000352  0a   000356 6010 00         	tnz	.next_def

    000353  aa  1 00002 2271 12         	ldx7	ab|2,2
    000354  aa  1 00000 3535 17         	eppbb	ab|0,7		bb -> name
    000355  aa   000000 7100 10         	tra	0,0		test definition
    000356                              .next_def:
    000356  aa  1 00000 2221 12         	ldx2	ab|0,2		chain to next def
    000357  0a   000350 6010 00         	tnz	.defs_loop

    000360  aa  7 00044 7101 20         	short_return


                                        

    000361  aa   000120 6270 00         .setup:	push
    000362  aa  7 00040 2721 20
    000363  0a   000312 3700 20         	epplp	.my_lp,*
    000364  aa  6 00030 6501 00         	sprilp	sp|stack_frame.lp_ptr

    000365  aa   777776 2210 12         	ldx1	-2,2		get number of args expected
    000366  0a   000414 6000 00         	tze	.no_gate_error	if zero, none or doesn't matter
    000367  aa  0 00000 1011 00         	cmpx1	ap|0		compare against number given
    000370  0a   000414 6000 00         	tze	.no_gate_error	args match, call procedure

    000371  aa  6 00000 2541 00         	call	signal_$signal_(signal_arglist)
    000372  0a   000402 3500 00
    000373  4a  4 02660 3521 20
    000374  aa  6 00040 7531 00
    000375  aa  7 00036 6701 20
    000376  aa  6 00000 1731 00
    000377  aa  6 00040 0731 00
    000400  aa   000000 000000          	oct	0

    000401  aa   000000 0110 03         	even
    000402                              signal_arglist:
    000402  aa   000002 000004          	zero	2,4
    000403  aa   000002 000000          	zero	2,0
    000404  0a   000410 0000 00         	arg	.gate_errorname
    000405  aa   000000 0000 00         	arg
    000406  0a   000413 0000 00         	arg	.gate_errordesc
    000407  aa   000000 0000 00         	arg

                                        	string	gate_error
    000410                              .gate_errorname:
    000410  aa  147 141 164 145         	aci	"gate_error"
    000411  aa  137 145 162 162
    000412  aa  157 162 000 000
    000413                              .gate_errordesc:
    000413  aa   525000 000010          	vfd	o9/525,o27/10


    000414                              .no_gate_error:

    000414                              	inhibit	on	<+><+><+><+><+><+><+><+><+><+><+><+>
    000414  4a  4 02664 6333 20         	rccl	sys_info$clock_,*	calculate times
    000415  4a  4 02666 1773 20         	sbaq	pds$cpu_time
    000416  aa  6 00052 7573 00         	staq	.time1
    000417  4a  4 02670 1773 20         	sbaq	pds$virtual_delta
    000420  aa  6 00054 7573 00         	staq	.time2
    000421  4a  4 02672 2353 20         	lda	pds$page_waits
    000422  aa  6 00070 7553 00         	sta	.pf
    000423                              	inhibit	off	<-><-><-><-><-><-><-><-><-><-><-><->
    000423  aa   000000 7100 12         	tra	0,2

                                        

    000424                              .return_code:

    000424                              	inhibit	on	<+><+><+><+><+><+><+><+><+><+><+><+>
    000424  4a  4 02664 6333 20         	rccl	sys_info$clock_,*	calculate times
    000425  4a  4 02666 1773 20         	sbaq	pds$cpu_time
    000426  aa  6 00050 7573 00         	staq	.temp
    000427  aa  6 00052 1773 00         	sbaq	.time1
    000430  aa  2 00000 0773 00         	adaq	bp|gate_entry_data.cpu_time
    000431  aa  2 00000 7573 00         	staq	bp|gate_entry_data.cpu_time
    000432  aa  6 00050 2373 00         	ldaq	.temp
    000433  4a  4 02670 1773 20         	sbaq	pds$virtual_delta
    000434  aa  6 00054 1773 00         	sbaq	.time2
    000435  aa  2 00002 0773 00         	adaq	bp|gate_entry_data.vcpu_time
    000436  aa  2 00002 7573 00         	staq	bp|gate_entry_data.vcpu_time
    000437  4a  4 02672 2353 20         	lda	pds$page_waits
    000440  aa  6 00070 1353 00         	sbla	.pf
    000441  aa  2 00004 0553 00         	asa	bp|gate_entry_data.page_waits
    000442  aa  2 00005 0543 00         	aos	bp|gate_entry_data.calls
    000443                              	inhibit	off	<-><-><-><-><-><-><-><-><-><-><-><->

                                        			" Poll for ring alarms
    000443  aa  6 00050 7545 00         	sra	.temp	Borrow from time calc
    000444  aa  6 00050 2341 00         	szn	.temp	Zero?
    000445  0a   000453 6000 00         	tze	.return_code_return

    000446  aa  6 00020 3515 20         	epp1	sp|stack_frame.prev_sp,*	"possible ring alarm
    000447  aa  1 00024 2131 20         	epaq	pr1|stack_frame.return_ptr,*
    000450  aa   000007 3750 07         	ana	7,dl	" ring number to which we return
    000451  aa  6 00050 1151 00         	cmpa	.temp
    000452  0a   000454 6050 00         	tpl	.ring_alarm	" ring alarm will occur

    000453                              .return_code_return:
    000453  aa  7 00042 7101 20         	return

    000454                              .ring_alarm:		" perhaps we can handle without faults?

    000454  aa  2 00006 0541 00         	aos	bp|gate_entry_data.ring_alarms
    000455  aa  6 00050 4501 00         	stz	.temp	" return argument for ring_alarm$poll
    000456  0a   000476 2370 00         	ldaq	.one_arg_header
    000457  aa  6 00100 7571 00         	staq	.ring_alarm_arg_list
    000460  aa  6 00050 3515 00         	epp1	.temp
    000461  aa  6 00102 2515 00         	spri1	.ring_alarm_arg_list+2
    000462  aa  6 00100 3501 00         	eppap	.ring_alarm_arg_list
    000463  4a  4 02674 3521 20         	short_call ring_alarm$poll
    000464  aa  7 00036 6701 20
    000465  aa  6 00030 3701 20
    000466  aa  6 00050 2341 00         	szn	.temp
    000467  0a   000453 6000 00         	tze	.return_code_return
    000470  aa  6 00020 3721 20         	eppsp	sp|stack_frame.prev_sp,*
    000471  4a  4 02676 6521 20         	sprisp	pds$pre_empt_poll_return          " short-return from here
    000472  aa  7 00022 3515 20         	epp1	sb|stack_header.stack_begin_ptr,* " abandoning this stack frame.
    000473  aa  7 00024 2515 00         	spri1	sb|stack_header.stack_end_ptr
                                        " Leave SB as stack_0, so pxss can get to operators.
    000474  4a  4 02700 7101 20         	tra	pxss$pre_empt_poll

                                        	tempd	.ring_alarm_arg_list(2)
    000475  aa   000000 0110 03         	even
    000476                              .one_arg_header:
    000476  aa   000004 000004          	vfd	17/2,1/0,18/4
    000477  aa   000000 000000          	vfd	18/0,18/0


                                        
                                    36
                                    37  	hgate	acl_add,acl,aadd,5,bad_dir_trap
                        000001          	segdef	acl_add
    000001                              acl_add:
    000001  0a   000501 7100 00         	tra	acl_add.e
    000500  a8   000012 000010          	zero	5*2,acl_add.t
    000501                              acl_add.e:
    000501  0a   000361 7020 00         	tsx2	.setup
    000502  0a   003634 7000 00         	tsx0	.set_dir_trap
    000503  aa   000000 6340 07         	ldi	=0,dl
    000504  4a  4 02702 3521 20         	short_call acl$aadd(ap|0)
    000505  aa  7 00036 6701 20
    000506  aa  6 00030 3701 20
    000507  9a  4 00010 3521 00         	eppbp	lp|acl_add.t
    000510  0a   000424 7100 00         	tra	.return_code
    000010                              acl_add.t:
    000010                              	bss	,gate_entry_data_size

                                    38  	hgate	acl_add1,acl,a1add,6,bad_dir_trap
                        000002          	segdef	acl_add1
    000002                              acl_add1:
    000002  0a   000512 7100 00         	tra	acl_add1.e
    000511  a8   000014 000020          	zero	6*2,acl_add1.t
    000512                              acl_add1.e:
    000512  0a   000361 7020 00         	tsx2	.setup
    000513  0a   003634 7000 00         	tsx0	.set_dir_trap
    000514  aa   000000 6340 07         	ldi	=0,dl
    000515  4a  4 02704 3521 20         	short_call acl$a1add(ap|0)
    000516  aa  7 00036 6701 20
    000517  aa  6 00030 3701 20
    000520  9a  4 00020 3521 00         	eppbp	lp|acl_add1.t
    000521  0a   000424 7100 00         	tra	.return_code
    000020                              acl_add1.t:
    000020                              	bss	,gate_entry_data_size

                                    39  	hgate	acl_delete,acl,adelete,5,bad_dir_trap
                        000003          	segdef	acl_delete
    000003                              acl_delete:
    000003  0a   000523 7100 00         	tra	acl_delete.e
    000522  a8   000012 000030          	zero	5*2,acl_delete.t
    000523                              acl_delete.e:
    000523  0a   000361 7020 00         	tsx2	.setup
    000524  0a   003634 7000 00         	tsx0	.set_dir_trap
    000525  aa   000000 6340 07         	ldi	=0,dl
    000526  4a  4 02706 3521 20         	short_call acl$adelete(ap|0)
    000527  aa  7 00036 6701 20
    000530  aa  6 00030 3701 20
    000531  9a  4 00030 3521 00         	eppbp	lp|acl_delete.t
    000532  0a   000424 7100 00         	tra	.return_code
    000030                              acl_delete.t:
    000030                              	bss	,gate_entry_data_size

                                    40  	hgate	acl_list,acl,alist,6,bad_dir_trap
                        000004          	segdef	acl_list
    000004                              acl_list:
    000004  0a   000534 7100 00         	tra	acl_list.e
    000533  a8   000014 000040          	zero	6*2,acl_list.t
    000534                              acl_list.e:
    000534  0a   000361 7020 00         	tsx2	.setup
    000535  0a   003634 7000 00         	tsx0	.set_dir_trap
    000536  aa   000000 6340 07         	ldi	=0,dl
    000537  4a  4 02710 3521 20         	short_call acl$alist(ap|0)
    000540  aa  7 00036 6701 20
    000541  aa  6 00030 3701 20
    000542  9a  4 00040 3521 00         	eppbp	lp|acl_list.t
    000543  0a   000424 7100 00         	tra	.return_code
    000040                              acl_list.t:
    000040                              	bss	,gate_entry_data_size

                                    41  	hgate	acl_replace,acl,areplace,5,bad_dir_trap
                        000005          	segdef	acl_replace
    000005                              acl_replace:
    000005  0a   000545 7100 00         	tra	acl_replace.e
    000544  a8   000012 000050          	zero	5*2,acl_replace.t
    000545                              acl_replace.e:
    000545  0a   000361 7020 00         	tsx2	.setup
    000546  0a   003634 7000 00         	tsx0	.set_dir_trap
    000547  aa   000000 6340 07         	ldi	=0,dl
    000550  4a  4 02712 3521 20         	short_call acl$areplace(ap|0)
    000551  aa  7 00036 6701 20
    000552  aa  6 00030 3701 20
    000553  9a  4 00050 3521 00         	eppbp	lp|acl_replace.t
    000554  0a   000424 7100 00         	tra	.return_code
    000050                              acl_replace.t:
    000050                              	bss	,gate_entry_data_size

                                    42  	hgate	add_acl_entries,asd_,add_sentries,5,bad_dir_trap
                        000006          	segdef	add_acl_entries
    000006                              add_acl_entries:
    000006  0a   000556 7100 00         	tra	add_acl_entries.e
    000555  a8   000012 000060          	zero	5*2,add_acl_entries.t
    000556                              add_acl_entries.e:
    000556  0a   000361 7020 00         	tsx2	.setup
    000557  0a   003634 7000 00         	tsx0	.set_dir_trap
    000560  aa   000000 6340 07         	ldi	=0,dl
    000561  4a  4 02714 3521 20         	short_call asd_$add_sentries(ap|0)
    000562  aa  7 00036 6701 20
    000563  aa  6 00030 3701 20
    000564  9a  4 00060 3521 00         	eppbp	lp|add_acl_entries.t
    000565  0a   000424 7100 00         	tra	.return_code
    000060                              add_acl_entries.t:
    000060                              	bss	,gate_entry_data_size

                                    43  	hgate	add_dir_acl_entries,asd_,add_dentries,5,bad_dir_trap
                        000007          	segdef	add_dir_acl_entries
    000007                              add_dir_acl_entries:
    000007  0a   000567 7100 00         	tra	add_dir_acl_entries.e
    000566  a8   000012 000070          	zero	5*2,add_dir_acl_entries.t
    000567                              add_dir_acl_entries.e:
    000567  0a   000361 7020 00         	tsx2	.setup
    000570  0a   003634 7000 00         	tsx0	.set_dir_trap
    000571  aa   000000 6340 07         	ldi	=0,dl
    000572  4a  4 02716 3521 20         	short_call asd_$add_dentries(ap|0)
    000573  aa  7 00036 6701 20
    000574  aa  6 00030 3701 20
    000575  9a  4 00070 3521 00         	eppbp	lp|add_dir_acl_entries.t
    000576  0a   000424 7100 00         	tra	.return_code
    000070                              add_dir_acl_entries.t:
    000070                              	bss	,gate_entry_data_size

                                    44  	hgate	add_dir_inacl_entries,asd_,add_identries,6,bad_dir_trap
                        000010          	segdef	add_dir_inacl_entries
    000010                              add_dir_inacl_entries:
    000010  0a   000600 7100 00         	tra	add_dir_inacl_entries.e
    000577  a8   000014 000100          	zero	6*2,add_dir_inacl_entries.t
    000600                              add_dir_inacl_entries.e:
    000600  0a   000361 7020 00         	tsx2	.setup
    000601  0a   003634 7000 00         	tsx0	.set_dir_trap
    000602  aa   000000 6340 07         	ldi	=0,dl
    000603  4a  4 02720 3521 20         	short_call asd_$add_identries(ap|0)
    000604  aa  7 00036 6701 20
    000605  aa  6 00030 3701 20
    000606  9a  4 00100 3521 00         	eppbp	lp|add_dir_inacl_entries.t
    000607  0a   000424 7100 00         	tra	.return_code
    000100                              add_dir_inacl_entries.t:
    000100                              	bss	,gate_entry_data_size

                                    45  	hgate	add_inacl_entries,asd_,add_isentries,6,bad_dir_trap
                        000011          	segdef	add_inacl_entries
    000011                              add_inacl_entries:
    000011  0a   000611 7100 00         	tra	add_inacl_entries.e
    000610  a8   000014 000110          	zero	6*2,add_inacl_entries.t
    000611                              add_inacl_entries.e:
    000611  0a   000361 7020 00         	tsx2	.setup
    000612  0a   003634 7000 00         	tsx0	.set_dir_trap
    000613  aa   000000 6340 07         	ldi	=0,dl
    000614  4a  4 02722 3521 20         	short_call asd_$add_isentries(ap|0)
    000615  aa  7 00036 6701 20
    000616  aa  6 00030 3701 20
    000617  9a  4 00110 3521 00         	eppbp	lp|add_inacl_entries.t
    000620  0a   000424 7100 00         	tra	.return_code
    000110                              add_inacl_entries.t:
    000110                              	bss	,gate_entry_data_size

                                    46  	hgate	append_branch,append,branch,4,bad_dir_trap
                        000012          	segdef	append_branch
    000012                              append_branch:
    000012  0a   000622 7100 00         	tra	append_branch.e
    000621  a8   000010 000120          	zero	4*2,append_branch.t
    000622                              append_branch.e:
    000622  0a   000361 7020 00         	tsx2	.setup
    000623  0a   003634 7000 00         	tsx0	.set_dir_trap
    000624  aa   000000 6340 07         	ldi	=0,dl
    000625  4a  4 02724 3521 20         	short_call append$branch(ap|0)
    000626  aa  7 00036 6701 20
    000627  aa  6 00030 3701 20
    000630  9a  4 00120 3521 00         	eppbp	lp|append_branch.t
    000631  0a   000424 7100 00         	tra	.return_code
    000120                              append_branch.t:
    000120                              	bss	,gate_entry_data_size

                                    47  	hgate	append_branchx,append,branchx,9,bad_dir_trap
                        000013          	segdef	append_branchx
    000013                              append_branchx:
    000013  0a   000633 7100 00         	tra	append_branchx.e
    000632  a8   000022 000130          	zero	9*2,append_branchx.t
    000633                              append_branchx.e:
    000633  0a   000361 7020 00         	tsx2	.setup
    000634  0a   003634 7000 00         	tsx0	.set_dir_trap
    000635  aa   000000 6340 07         	ldi	=0,dl
    000636  4a  4 02726 3521 20         	short_call append$branchx(ap|0)
    000637  aa  7 00036 6701 20
    000640  aa  6 00030 3701 20
    000641  9a  4 00130 3521 00         	eppbp	lp|append_branchx.t
    000642  0a   000424 7100 00         	tra	.return_code
    000130                              append_branchx.t:
    000130                              	bss	,gate_entry_data_size

                                    48  	hgate	append_link,append,link,4,bad_dir_trap
                        000014          	segdef	append_link
    000014                              append_link:
    000014  0a   000644 7100 00         	tra	append_link.e
    000643  a8   000010 000140          	zero	4*2,append_link.t
    000644                              append_link.e:
    000644  0a   000361 7020 00         	tsx2	.setup
    000645  0a   003634 7000 00         	tsx0	.set_dir_trap
    000646  aa   000000 6340 07         	ldi	=0,dl
    000647  4a  4 02730 3521 20         	short_call append$link(ap|0)
    000650  aa  7 00036 6701 20
    000651  aa  6 00030 3701 20
    000652  9a  4 00140 3521 00         	eppbp	lp|append_link.t
    000653  0a   000424 7100 00         	tra	.return_code
    000140                              append_link.t:
    000140                              	bss	,gate_entry_data_size

                                    49  	hgate	appendl,append,link,4,bad_dir_trap
                        000015          	segdef	appendl
    000015                              appendl:
    000015  0a   000655 7100 00         	tra	appendl.e
    000654  a8   000010 000150          	zero	4*2,appendl.t
    000655                              appendl.e:
    000655  0a   000361 7020 00         	tsx2	.setup
    000656  0a   003634 7000 00         	tsx0	.set_dir_trap
    000657  aa   000000 6340 07         	ldi	=0,dl
    000660  4a  4 02730 3521 20         	short_call append$link(ap|0)
    000661  aa  7 00036 6701 20
    000662  aa  6 00030 3701 20
    000663  9a  4 00150 3521 00         	eppbp	lp|appendl.t
    000664  0a   000424 7100 00         	tra	.return_code
    000150                              appendl.t:
    000150                              	bss	,gate_entry_data_size

                                    50  	hgate	assign_channel,hc_ipc,assign_channel,2
                        000016          	segdef	assign_channel
    000016                              assign_channel:
    000016  0a   000666 7100 00         	tra	assign_channel.e
    000665  a8   000004 000160          	zero	2*2,assign_channel.t
    000666                              assign_channel.e:
    000666  0a   000361 7020 00         	tsx2	.setup
    000667  aa   000000 6340 07         	ldi	=0,dl
    000670  4a  4 02732 3521 20         	short_call hc_ipc$assign_channel(ap|0)
    000671  aa  7 00036 6701 20
    000672  aa  6 00030 3701 20
    000673  9a  4 00160 3521 00         	eppbp	lp|assign_channel.t
    000674  0a   000424 7100 00         	tra	.return_code
    000160                              assign_channel.t:
    000160                              	bss	,gate_entry_data_size

                                    51  	hgate	assign_linkage,link_man,assign_linkage,3
                        000017          	segdef	assign_linkage
    000017                              assign_linkage:
    000017  0a   000676 7100 00         	tra	assign_linkage.e
    000675  a8   000006 000170          	zero	3*2,assign_linkage.t
    000676                              assign_linkage.e:
    000676  0a   000361 7020 00         	tsx2	.setup
    000677  aa   000000 6340 07         	ldi	=0,dl
    000700  4a  4 02734 3521 20         	short_call link_man$assign_linkage(ap|0)
    000701  aa  7 00036 6701 20
    000702  aa  6 00030 3701 20
    000703  9a  4 00170 3521 00         	eppbp	lp|assign_linkage.t
    000704  0a   000424 7100 00         	tra	.return_code
    000170                              assign_linkage.t:
    000170                              	bss	,gate_entry_data_size

                                    52  	fgate	block,fast_hc_ipc,ipc_block,0
                        000020          	segdef	block
    000020                              block:
    000020  0a   000706 7100 00         	tra	block.e
    000705  aa   000000 000000          	zero	0,0
    000706                              block.e:
    000706  aa   000000 6340 07         	ldi	=0,dl
    000707  0a   000312 3700 20         	epplp	.my_lp,*
    000710  4a  4 02736 7101 20         	tra	fast_hc_ipc$ipc_block

                                    53  	hgate	change_bc,set,change_bc_path,6,bad_dir_trap
                        000021          	segdef	change_bc
    000021                              change_bc:
    000021  0a   000712 7100 00         	tra	change_bc.e
    000711  a8   000014 000200          	zero	6*2,change_bc.t
    000712                              change_bc.e:
    000712  0a   000361 7020 00         	tsx2	.setup
    000713  0a   003634 7000 00         	tsx0	.set_dir_trap
    000714  aa   000000 6340 07         	ldi	=0,dl
    000715  4a  4 02740 3521 20         	short_call set$change_bc_path(ap|0)
    000716  aa  7 00036 6701 20
    000717  aa  6 00030 3701 20
    000720  9a  4 00200 3521 00         	eppbp	lp|change_bc.t
    000721  0a   000424 7100 00         	tra	.return_code
    000200                              change_bc.t:
    000200                              	bss	,gate_entry_data_size

                                    54  	hgate	change_bc_seg,set,change_bc_ptr,5,bad_dir_trap
                        000022          	segdef	change_bc_seg
    000022                              change_bc_seg:
    000022  0a   000723 7100 00         	tra	change_bc_seg.e
    000722  a8   000012 000210          	zero	5*2,change_bc_seg.t
    000723                              change_bc_seg.e:
    000723  0a   000361 7020 00         	tsx2	.setup
    000724  0a   003634 7000 00         	tsx0	.set_dir_trap
    000725  aa   000000 6340 07         	ldi	=0,dl
    000726  4a  4 02742 3521 20         	short_call set$change_bc_ptr(ap|0)
    000727  aa  7 00036 6701 20
    000730  aa  6 00030 3701 20
    000731  9a  4 00210 3521 00         	eppbp	lp|change_bc_seg.t
    000732  0a   000424 7100 00         	tra	.return_code
    000210                              change_bc_seg.t:
    000210                              	bss	,gate_entry_data_size

                                    55  	hgate	chname,chname,cfile,5,bad_dir_trap
                        000023          	segdef	chname
    000023                              chname:
    000023  0a   000734 7100 00         	tra	chname.e
    000733  a8   000012 000220          	zero	5*2,chname.t
    000734                              chname.e:
    000734  0a   000361 7020 00         	tsx2	.setup
    000735  0a   003634 7000 00         	tsx0	.set_dir_trap
    000736  aa   000000 6340 07         	ldi	=0,dl
    000737  4a  4 02744 3521 20         	short_call chname$cfile(ap|0)
    000740  aa  7 00036 6701 20
    000741  aa  6 00030 3701 20
    000742  9a  4 00220 3521 00         	eppbp	lp|chname.t
    000743  0a   000424 7100 00         	tra	.return_code
    000220                              chname.t:
    000220                              	bss	,gate_entry_data_size

                                    56  	hgate	chname_file,chname,cfile,5,bad_dir_trap
                        000024          	segdef	chname_file
    000024                              chname_file:
    000024  0a   000745 7100 00         	tra	chname_file.e
    000744  a8   000012 000230          	zero	5*2,chname_file.t
    000745                              chname_file.e:
    000745  0a   000361 7020 00         	tsx2	.setup
    000746  0a   003634 7000 00         	tsx0	.set_dir_trap
    000747  aa   000000 6340 07         	ldi	=0,dl
    000750  4a  4 02744 3521 20         	short_call chname$cfile(ap|0)
    000751  aa  7 00036 6701 20
    000752  aa  6 00030 3701 20
    000753  9a  4 00230 3521 00         	eppbp	lp|chname_file.t
    000754  0a   000424 7100 00         	tra	.return_code
    000230                              chname_file.t:
    000230                              	bss	,gate_entry_data_size

                                    57  	hgate	chname_seg,chname,cseg,4,bad_dir_trap
                        000025          	segdef	chname_seg
    000025                              chname_seg:
    000025  0a   000756 7100 00         	tra	chname_seg.e
    000755  a8   000010 000240          	zero	4*2,chname_seg.t
    000756                              chname_seg.e:
    000756  0a   000361 7020 00         	tsx2	.setup
    000757  0a   003634 7000 00         	tsx0	.set_dir_trap
    000760  aa   000000 6340 07         	ldi	=0,dl
    000761  4a  4 02746 3521 20         	short_call chname$cseg(ap|0)
    000762  aa  7 00036 6701 20
    000763  aa  6 00030 3701 20
    000764  9a  4 00240 3521 00         	eppbp	lp|chname_seg.t
    000765  0a   000424 7100 00         	tra	.return_code
    000240                              chname_seg.t:
    000240                              	bss	,gate_entry_data_size

                                    58  	hgate	combine_linkage,link_man,combine_linkage,3
                        000026          	segdef	combine_linkage
    000026                              combine_linkage:
    000026  0a   000767 7100 00         	tra	combine_linkage.e
    000766  a8   000006 000250          	zero	3*2,combine_linkage.t
    000767                              combine_linkage.e:
    000767  0a   000361 7020 00         	tsx2	.setup
    000770  aa   000000 6340 07         	ldi	=0,dl
    000771  4a  4 02750 3521 20         	short_call link_man$combine_linkage(ap|0)
    000772  aa  7 00036 6701 20
    000773  aa  6 00030 3701 20
    000774  9a  4 00250 3521 00         	eppbp	lp|combine_linkage.t
    000775  0a   000424 7100 00         	tra	.return_code
    000250                              combine_linkage.t:
    000250                              	bss	,gate_entry_data_size

                                    59  	hgate	create_branch_,append,create_branch_,4,bad_dir_trap
                        000027          	segdef	create_branch_
    000027                              create_branch_:
    000027  0a   000777 7100 00         	tra	create_branch_.e
    000776  a8   000010 000260          	zero	4*2,create_branch_.t
    000777                              create_branch_.e:
    000777  0a   000361 7020 00         	tsx2	.setup
    001000  0a   003634 7000 00         	tsx0	.set_dir_trap
    001001  aa   000000 6340 07         	ldi	=0,dl
    001002  4a  4 02752 3521 20         	short_call append$create_branch_(ap|0)
    001003  aa  7 00036 6701 20
    001004  aa  6 00030 3701 20
    001005  9a  4 00260 3521 00         	eppbp	lp|create_branch_.t
    001006  0a   000424 7100 00         	tra	.return_code
    000260                              create_branch_.t:
    000260                              	bss	,gate_entry_data_size

                                    60  	hgate	del_dir_tree,del_dir_tree,del_dir_tree,3,bad_dir_trap
                        000030          	segdef	del_dir_tree
    000030                              del_dir_tree:
    000030  0a   001010 7100 00         	tra	del_dir_tree.e
    001007  a8   000006 000270          	zero	3*2,del_dir_tree.t
    001010                              del_dir_tree.e:
    001010  0a   000361 7020 00         	tsx2	.setup
    001011  0a   003634 7000 00         	tsx0	.set_dir_trap
    001012  aa   000000 6340 07         	ldi	=0,dl
    001013  4a  4 02754 3521 20         	short_call del_dir_tree$del_dir_tree(ap|0)
    001014  aa  7 00036 6701 20
    001015  aa  6 00030 3701 20
    001016  9a  4 00270 3521 00         	eppbp	lp|del_dir_tree.t
    001017  0a   000424 7100 00         	tra	.return_code
    000270                              del_dir_tree.t:
    000270                              	bss	,gate_entry_data_size

                                    61  	hgate	delentry_file,delentry,dfile,3,bad_dir_trap
                        000031          	segdef	delentry_file
    000031                              delentry_file:
    000031  0a   001021 7100 00         	tra	delentry_file.e
    001020  a8   000006 000300          	zero	3*2,delentry_file.t
    001021                              delentry_file.e:
    001021  0a   000361 7020 00         	tsx2	.setup
    001022  0a   003634 7000 00         	tsx0	.set_dir_trap
    001023  aa   000000 6340 07         	ldi	=0,dl
    001024  4a  4 02756 3521 20         	short_call delentry$dfile(ap|0)
    001025  aa  7 00036 6701 20
    001026  aa  6 00030 3701 20
    001027  9a  4 00300 3521 00         	eppbp	lp|delentry_file.t
    001030  0a   000424 7100 00         	tra	.return_code
    000300                              delentry_file.t:
    000300                              	bss	,gate_entry_data_size

                                    62  	hgate	delentry_seg,delentry,dseg,2,bad_dir_trap
                        000032          	segdef	delentry_seg
    000032                              delentry_seg:
    000032  0a   001032 7100 00         	tra	delentry_seg.e
    001031  a8   000004 000310          	zero	2*2,delentry_seg.t
    001032                              delentry_seg.e:
    001032  0a   000361 7020 00         	tsx2	.setup
    001033  0a   003634 7000 00         	tsx0	.set_dir_trap
    001034  aa   000000 6340 07         	ldi	=0,dl
    001035  4a  4 02760 3521 20         	short_call delentry$dseg(ap|0)
    001036  aa  7 00036 6701 20
    001037  aa  6 00030 3701 20
    001040  9a  4 00310 3521 00         	eppbp	lp|delentry_seg.t
    001041  0a   000424 7100 00         	tra	.return_code
    000310                              delentry_seg.t:
    000310                              	bss	,gate_entry_data_size

                                    63  	hgate	delete_acl_entries,asd_,del_sentries,5,bad_dir_trap
                        000033          	segdef	delete_acl_entries
    000033                              delete_acl_entries:
    000033  0a   001043 7100 00         	tra	delete_acl_entries.e
    001042  a8   000012 000320          	zero	5*2,delete_acl_entries.t
    001043                              delete_acl_entries.e:
    001043  0a   000361 7020 00         	tsx2	.setup
    001044  0a   003634 7000 00         	tsx0	.set_dir_trap
    001045  aa   000000 6340 07         	ldi	=0,dl
    001046  4a  4 02762 3521 20         	short_call asd_$del_sentries(ap|0)
    001047  aa  7 00036 6701 20
    001050  aa  6 00030 3701 20
    001051  9a  4 00320 3521 00         	eppbp	lp|delete_acl_entries.t
    001052  0a   000424 7100 00         	tra	.return_code
    000320                              delete_acl_entries.t:
    000320                              	bss	,gate_entry_data_size

                                    64  	hgate	delete_channel,hc_ipc,delete_channel,2
                        000034          	segdef	delete_channel
    000034                              delete_channel:
    000034  0a   001054 7100 00         	tra	delete_channel.e
    001053  a8   000004 000330          	zero	2*2,delete_channel.t
    001054                              delete_channel.e:
    001054  0a   000361 7020 00         	tsx2	.setup
    001055  aa   000000 6340 07         	ldi	=0,dl
    001056  4a  4 02764 3521 20         	short_call hc_ipc$delete_channel(ap|0)
    001057  aa  7 00036 6701 20
    001060  aa  6 00030 3701 20
    001061  9a  4 00330 3521 00         	eppbp	lp|delete_channel.t
    001062  0a   000424 7100 00         	tra	.return_code
    000330                              delete_channel.t:
    000330                              	bss	,gate_entry_data_size

                                    65  	hgate	delete_dir_acl_entries,asd_,del_dentries,5,bad_dir_trap
                        000035          	segdef	delete_dir_acl_entries
    000035                              delete_dir_acl_entries:
    000035  0a   001064 7100 00         	tra	delete_dir_acl_entries.e
    001063  a8   000012 000340          	zero	5*2,delete_dir_acl_entries.t
    001064                              delete_dir_acl_entries.e:
    001064  0a   000361 7020 00         	tsx2	.setup
    001065  0a   003634 7000 00         	tsx0	.set_dir_trap
    001066  aa   000000 6340 07         	ldi	=0,dl
    001067  4a  4 02766 3521 20         	short_call asd_$del_dentries(ap|0)
    001070  aa  7 00036 6701 20
    001071  aa  6 00030 3701 20
    001072  9a  4 00340 3521 00         	eppbp	lp|delete_dir_acl_entries.t
    001073  0a   000424 7100 00         	tra	.return_code
    000340                              delete_dir_acl_entries.t:
    000340                              	bss	,gate_entry_data_size

                                    66  	hgate	delete_dir_inacl_entries,asd_,del_identries,6,bad_dir_trap
                        000036          	segdef	delete_dir_inacl_entries
    000036                              delete_dir_inacl_entries:
    000036  0a   001075 7100 00         	tra	delete_dir_inacl_entries.e
    001074  a8   000014 000350          	zero	6*2,delete_dir_inacl_entries.t
    001075                              delete_dir_inacl_entries.e:
    001075  0a   000361 7020 00         	tsx2	.setup
    001076  0a   003634 7000 00         	tsx0	.set_dir_trap
    001077  aa   000000 6340 07         	ldi	=0,dl
    001100  4a  4 02770 3521 20         	short_call asd_$del_identries(ap|0)
    001101  aa  7 00036 6701 20
    001102  aa  6 00030 3701 20
    001103  9a  4 00350 3521 00         	eppbp	lp|delete_dir_inacl_entries.t
    001104  0a   000424 7100 00         	tra	.return_code
    000350                              delete_dir_inacl_entries.t:
    000350                              	bss	,gate_entry_data_size

                                    67  	hgate	delete_inacl_entries,asd_,del_isentries,6,bad_dir_trap
                        000037          	segdef	delete_inacl_entries
    000037                              delete_inacl_entries:
    000037  0a   001106 7100 00         	tra	delete_inacl_entries.e
    001105  a8   000014 000360          	zero	6*2,delete_inacl_entries.t
    001106                              delete_inacl_entries.e:
    001106  0a   000361 7020 00         	tsx2	.setup
    001107  0a   003634 7000 00         	tsx0	.set_dir_trap
    001110  aa   000000 6340 07         	ldi	=0,dl
    001111  4a  4 02772 3521 20         	short_call asd_$del_isentries(ap|0)
    001112  aa  7 00036 6701 20
    001113  aa  6 00030 3701 20
    001114  9a  4 00360 3521 00         	eppbp	lp|delete_inacl_entries.t
    001115  0a   000424 7100 00         	tra	.return_code
    000360                              delete_inacl_entries.t:
    000360                              	bss	,gate_entry_data_size

                                    68  	hgate	dir_quota_read,quota,dqread,8,bad_dir_trap
                        000040          	segdef	dir_quota_read
    000040                              dir_quota_read:
    000040  0a   001117 7100 00         	tra	dir_quota_read.e
    001116  a8   000020 000370          	zero	8*2,dir_quota_read.t
    001117                              dir_quota_read.e:
    001117  0a   000361 7020 00         	tsx2	.setup
    001120  0a   003634 7000 00         	tsx0	.set_dir_trap
    001121  aa   000000 6340 07         	ldi	=0,dl
    001122  4a  4 02774 3521 20         	short_call quota$dqread(ap|0)
    001123  aa  7 00036 6701 20
    001124  aa  6 00030 3701 20
    001125  9a  4 00370 3521 00         	eppbp	lp|dir_quota_read.t
    001126  0a   000424 7100 00         	tra	.return_code
    000370                              dir_quota_read.t:
    000370                              	bss	,gate_entry_data_size

                                    69  	hgate	dir_quota_move,quota,dqmove,4,bad_dir_trap
                        000041          	segdef	dir_quota_move
    000041                              dir_quota_move:
    000041  0a   001130 7100 00         	tra	dir_quota_move.e
    001127  a8   000010 000400          	zero	4*2,dir_quota_move.t
    001130                              dir_quota_move.e:
    001130  0a   000361 7020 00         	tsx2	.setup
    001131  0a   003634 7000 00         	tsx0	.set_dir_trap
    001132  aa   000000 6340 07         	ldi	=0,dl
    001133  4a  4 02776 3521 20         	short_call quota$dqmove(ap|0)
    001134  aa  7 00036 6701 20
    001135  aa  6 00030 3701 20
    001136  9a  4 00400 3521 00         	eppbp	lp|dir_quota_move.t
    001137  0a   000424 7100 00         	tra	.return_code
    000400                              dir_quota_move.t:
    000400                              	bss	,gate_entry_data_size

                                    70  	hgate	echo_negotiate_get_chars,tty_read,echo_negotiate_get_chars,9
                        000042          	segdef	echo_negotiate_get_chars
    000042                              echo_negotiate_get_chars:
    000042  0a   001141 7100 00         	tra	echo_negotiate_get_chars.e
    001140  a8   000022 000410          	zero	9*2,echo_negotiate_get_chars.t
    001141                              echo_negotiate_get_chars.e:
    001141  0a   000361 7020 00         	tsx2	.setup
    001142  aa   000000 6340 07         	ldi	=0,dl
    001143  4a  4 03000 3521 20         	short_call tty_read$echo_negotiate_get_chars(ap|0)
    001144  aa  7 00036 6701 20
    001145  aa  6 00030 3701 20
    001146  9a  4 00410 3521 00         	eppbp	lp|echo_negotiate_get_chars.t
    001147  0a   000424 7100 00         	tra	.return_code
    000410                              echo_negotiate_get_chars.t:
    000410                              	bss	,gate_entry_data_size

                                    71  	fgate	fblock,fast_hc_ipc,ipc_f_block,2
                        000043          	segdef	fblock
    000043                              fblock:
    000043  0a   001151 7100 00         	tra	fblock.e
    001150  aa   000000 000000          	zero	0,0
    001151                              fblock.e:
    001151  aa   000000 6340 07         	ldi	=0,dl
    001152  0a   000312 3700 20         	epplp	.my_lp,*
    001153  4a  4 03002 7101 20         	tra	fast_hc_ipc$ipc_f_block

                                    72  	hgate	flush_consecutive_pages,force_write,consecutive,2
                        000044          	segdef	flush_consecutive_pages
    000044                              flush_consecutive_pages:
    000044  0a   001155 7100 00         	tra	flush_consecutive_pages.e
    001154  a8   000004 000420          	zero	2*2,flush_consecutive_pages.t
    001155                              flush_consecutive_pages.e:
    001155  0a   000361 7020 00         	tsx2	.setup
    001156  aa   000000 6340 07         	ldi	=0,dl
    001157  4a  4 03004 3521 20         	short_call force_write$consecutive(ap|0)
    001160  aa  7 00036 6701 20
    001161  aa  6 00030 3701 20
    001162  9a  4 00420 3521 00         	eppbp	lp|flush_consecutive_pages.t
    001163  0a   000424 7100 00         	tra	.return_code
    000420                              flush_consecutive_pages.t:
    000420                              	bss	,gate_entry_data_size

                                    73  	hgate	flush_pages,force_write,list,2
                        000045          	segdef	flush_pages
    000045                              flush_pages:
    000045  0a   001165 7100 00         	tra	flush_pages.e
    001164  a8   000004 000430          	zero	2*2,flush_pages.t
    001165                              flush_pages.e:
    001165  0a   000361 7020 00         	tsx2	.setup
    001166  aa   000000 6340 07         	ldi	=0,dl
    001167  4a  4 03006 3521 20         	short_call force_write$list(ap|0)
    001170  aa  7 00036 6701 20
    001171  aa  6 00030 3701 20
    001172  9a  4 00430 3521 00         	eppbp	lp|flush_pages.t
    001173  0a   000424 7100 00         	tra	.return_code
    000430                              flush_pages.t:
    000430                              	bss	,gate_entry_data_size

                                    74  	hgate	force_write,force_write,force_write,3
                        000046          	segdef	force_write
    000046                              force_write:
    000046  0a   001175 7100 00         	tra	force_write.e
    001174  a8   000006 000440          	zero	3*2,force_write.t
    001175                              force_write.e:
    001175  0a   000361 7020 00         	tsx2	.setup
    001176  aa   000000 6340 07         	ldi	=0,dl
    001177  4a  4 03010 3521 20         	short_call force_write$force_write(ap|0)
    001200  aa  7 00036 6701 20
    001201  aa  6 00030 3701 20
    001202  9a  4 00440 3521 00         	eppbp	lp|force_write.t
    001203  0a   000424 7100 00         	tra	.return_code
    000440                              force_write.t:
    000440                              	bss	,gate_entry_data_size

                                    75  	hgate	fs_get_access_modes,fs_get,access_modes,4
                        000047          	segdef	fs_get_access_modes
    000047                              fs_get_access_modes:
    000047  0a   001205 7100 00         	tra	fs_get_access_modes.e
    001204  a8   000010 000450          	zero	4*2,fs_get_access_modes.t
    001205                              fs_get_access_modes.e:
    001205  0a   000361 7020 00         	tsx2	.setup
    001206  aa   000000 6340 07         	ldi	=0,dl
    001207  4a  4 03012 3521 20         	short_call fs_get$access_modes(ap|0)
    001210  aa  7 00036 6701 20
    001211  aa  6 00030 3701 20
    001212  9a  4 00450 3521 00         	eppbp	lp|fs_get_access_modes.t
    001213  0a   000424 7100 00         	tra	.return_code
    000450                              fs_get_access_modes.t:
    000450                              	bss	,gate_entry_data_size

                                    76  	hgate	fs_get_brackets,fs_get,brackets,4,bad_dir_trap
                        000050          	segdef	fs_get_brackets
    000050                              fs_get_brackets:
    000050  0a   001215 7100 00         	tra	fs_get_brackets.e
    001214  a8   000010 000460          	zero	4*2,fs_get_brackets.t
    001215                              fs_get_brackets.e:
    001215  0a   000361 7020 00         	tsx2	.setup
    001216  0a   003634 7000 00         	tsx0	.set_dir_trap
    001217  aa   000000 6340 07         	ldi	=0,dl
    001220  4a  4 03014 3521 20         	short_call fs_get$brackets(ap|0)
    001221  aa  7 00036 6701 20
    001222  aa  6 00030 3701 20
    001223  9a  4 00460 3521 00         	eppbp	lp|fs_get_brackets.t
    001224  0a   000424 7100 00         	tra	.return_code
    000460                              fs_get_brackets.t:
    000460                              	bss	,gate_entry_data_size

                                    77  	hgate	fs_get_dir_name,fs_get,dir_name,4
                        000051          	segdef	fs_get_dir_name
    000051                              fs_get_dir_name:
    000051  0a   001226 7100 00         	tra	fs_get_dir_name.e
    001225  a8   000010 000470          	zero	4*2,fs_get_dir_name.t
    001226                              fs_get_dir_name.e:
    001226  0a   000361 7020 00         	tsx2	.setup
    001227  aa   000000 6340 07         	ldi	=0,dl
    001230  4a  4 03016 3521 20         	short_call fs_get$dir_name(ap|0)
    001231  aa  7 00036 6701 20
    001232  aa  6 00030 3701 20
    001233  9a  4 00470 3521 00         	eppbp	lp|fs_get_dir_name.t
    001234  0a   000424 7100 00         	tra	.return_code
    000470                              fs_get_dir_name.t:
    000470                              	bss	,gate_entry_data_size

                                    78  	hgate	fs_get_mode,fs_get,mode,3
                        000052          	segdef	fs_get_mode
    000052                              fs_get_mode:
    000052  0a   001236 7100 00         	tra	fs_get_mode.e
    001235  a8   000006 000500          	zero	3*2,fs_get_mode.t
    001236                              fs_get_mode.e:
    001236  0a   000361 7020 00         	tsx2	.setup
    001237  aa   000000 6340 07         	ldi	=0,dl
    001240  4a  4 03020 3521 20         	short_call fs_get$mode(ap|0)
    001241  aa  7 00036 6701 20
    001242  aa  6 00030 3701 20
    001243  9a  4 00500 3521 00         	eppbp	lp|fs_get_mode.t
    001244  0a   000424 7100 00         	tra	.return_code
    000500                              fs_get_mode.t:
    000500                              	bss	,gate_entry_data_size

                                    79  	hgate	fs_get_path_name,fs_get,path_name,5
                        000053          	segdef	fs_get_path_name
    000053                              fs_get_path_name:
    000053  0a   001246 7100 00         	tra	fs_get_path_name.e
    001245  a8   000012 000510          	zero	5*2,fs_get_path_name.t
    001246                              fs_get_path_name.e:
    001246  0a   000361 7020 00         	tsx2	.setup
    001247  aa   000000 6340 07         	ldi	=0,dl
    001250  4a  4 03022 3521 20         	short_call fs_get$path_name(ap|0)
    001251  aa  7 00036 6701 20
    001252  aa  6 00030 3701 20
    001253  9a  4 00510 3521 00         	eppbp	lp|fs_get_path_name.t
    001254  0a   000424 7100 00         	tra	.return_code
    000510                              fs_get_path_name.t:
    000510                              	bss	,gate_entry_data_size

                                    80  	hgate	fs_get_ref_name,fs_get,ref_name,4
                        000054          	segdef	fs_get_ref_name
    000054                              fs_get_ref_name:
    000054  0a   001256 7100 00         	tra	fs_get_ref_name.e
    001255  a8   000010 000520          	zero	4*2,fs_get_ref_name.t
    001256                              fs_get_ref_name.e:
    001256  0a   000361 7020 00         	tsx2	.setup
    001257  aa   000000 6340 07         	ldi	=0,dl
    001260  4a  4 03024 3521 20         	short_call fs_get$ref_name(ap|0)
    001261  aa  7 00036 6701 20
    001262  aa  6 00030 3701 20
    001263  9a  4 00520 3521 00         	eppbp	lp|fs_get_ref_name.t
    001264  0a   000424 7100 00         	tra	.return_code
    000520                              fs_get_ref_name.t:
    000520                              	bss	,gate_entry_data_size

                                    81  	hgate	fs_get_seg_ptr,fs_get,seg_ptr,3
                        000055          	segdef	fs_get_seg_ptr
    000055                              fs_get_seg_ptr:
    000055  0a   001266 7100 00         	tra	fs_get_seg_ptr.e
    001265  a8   000006 000530          	zero	3*2,fs_get_seg_ptr.t
    001266                              fs_get_seg_ptr.e:
    001266  0a   000361 7020 00         	tsx2	.setup
    001267  aa   000000 6340 07         	ldi	=0,dl
    001270  4a  4 03026 3521 20         	short_call fs_get$seg_ptr(ap|0)
    001271  aa  7 00036 6701 20
    001272  aa  6 00030 3701 20
    001273  9a  4 00530 3521 00         	eppbp	lp|fs_get_seg_ptr.t
    001274  0a   000424 7100 00         	tra	.return_code
    000530                              fs_get_seg_ptr.t:
    000530                              	bss	,gate_entry_data_size

                                    82  	hgate	fs_move_file,fs_move,ffile,6,bad_dir_trap
                        000056          	segdef	fs_move_file
    000056                              fs_move_file:
    000056  0a   001276 7100 00         	tra	fs_move_file.e
    001275  a8   000014 000540          	zero	6*2,fs_move_file.t
    001276                              fs_move_file.e:
    001276  0a   000361 7020 00         	tsx2	.setup
    001277  0a   003634 7000 00         	tsx0	.set_dir_trap
    001300  aa   000000 6340 07         	ldi	=0,dl
    001301  4a  4 03030 3521 20         	short_call fs_move$ffile(ap|0)
    001302  aa  7 00036 6701 20
    001303  aa  6 00030 3701 20
    001304  9a  4 00540 3521 00         	eppbp	lp|fs_move_file.t
    001305  0a   000424 7100 00         	tra	.return_code
    000540                              fs_move_file.t:
    000540                              	bss	,gate_entry_data_size

                                    83  	hgate	fs_move_seg,fs_move,fseg,4,bad_dir_trap
                        000057          	segdef	fs_move_seg
    000057                              fs_move_seg:
    000057  0a   001307 7100 00         	tra	fs_move_seg.e
    001306  a8   000010 000550          	zero	4*2,fs_move_seg.t
    001307                              fs_move_seg.e:
    001307  0a   000361 7020 00         	tsx2	.setup
    001310  0a   003634 7000 00         	tsx0	.set_dir_trap
    001311  aa   000000 6340 07         	ldi	=0,dl
    001312  4a  4 03032 3521 20         	short_call fs_move$fseg(ap|0)
    001313  aa  7 00036 6701 20
    001314  aa  6 00030 3701 20
    001315  9a  4 00550 3521 00         	eppbp	lp|fs_move_seg.t
    001316  0a   000424 7100 00         	tra	.return_code
    000550                              fs_move_seg.t:
    000550                              	bss	,gate_entry_data_size

                                    84  	hgate	fs_search_get_wdir,fs_search,get_wdir,2
                        000060          	segdef	fs_search_get_wdir
    000060                              fs_search_get_wdir:
    000060  0a   001320 7100 00         	tra	fs_search_get_wdir.e
    001317  a8   000004 000560          	zero	2*2,fs_search_get_wdir.t
    001320                              fs_search_get_wdir.e:
    001320  0a   000361 7020 00         	tsx2	.setup
    001321  aa   000000 6340 07         	ldi	=0,dl
    001322  4a  4 03034 3521 20         	short_call fs_search$get_wdir(ap|0)
    001323  aa  7 00036 6701 20
    001324  aa  6 00030 3701 20
    001325  9a  4 00560 3521 00         	eppbp	lp|fs_search_get_wdir.t
    001326  0a   000424 7100 00         	tra	.return_code
    000560                              fs_search_get_wdir.t:
    000560                              	bss	,gate_entry_data_size

                                    85  	hgate	fs_search_set_wdir,fs_search,set_wdir,2
                        000061          	segdef	fs_search_set_wdir
    000061                              fs_search_set_wdir:
    000061  0a   001330 7100 00         	tra	fs_search_set_wdir.e
    001327  a8   000004 000570          	zero	2*2,fs_search_set_wdir.t
    001330                              fs_search_set_wdir.e:
    001330  0a   000361 7020 00         	tsx2	.setup
    001331  aa   000000 6340 07         	ldi	=0,dl
    001332  4a  4 03036 3521 20         	short_call fs_search$set_wdir(ap|0)
    001333  aa  7 00036 6701 20
    001334  aa  6 00030 3701 20
    001335  9a  4 00570 3521 00         	eppbp	lp|fs_search_set_wdir.t
    001336  0a   000424 7100 00         	tra	.return_code
    000570                              fs_search_set_wdir.t:
    000570                              	bss	,gate_entry_data_size

                                    86  	hgate	get_access_class,status_,get_access_class,4,bad_dir_trap
                        000062          	segdef	get_access_class
    000062                              get_access_class:
    000062  0a   001340 7100 00         	tra	get_access_class.e
    001337  a8   000010 000600          	zero	4*2,get_access_class.t
    001340                              get_access_class.e:
    001340  0a   000361 7020 00         	tsx2	.setup
    001341  0a   003634 7000 00         	tsx0	.set_dir_trap
    001342  aa   000000 6340 07         	ldi	=0,dl
    001343  4a  4 03040 3521 20         	short_call status_$get_access_class(ap|0)
    001344  aa  7 00036 6701 20
    001345  aa  6 00030 3701 20
    001346  9a  4 00600 3521 00         	eppbp	lp|get_access_class.t
    001347  0a   000424 7100 00         	tra	.return_code
    000600                              get_access_class.t:
    000600                              	bss	,gate_entry_data_size

                                    87  	hgate	get_access_class_seg,status_,get_access_class_ptr,3,bad_dir_trap
                        000063          	segdef	get_access_class_seg
    000063                              get_access_class_seg:
    000063  0a   001351 7100 00         	tra	get_access_class_seg.e
    001350  a8   000006 000610          	zero	3*2,get_access_class_seg.t
    001351                              get_access_class_seg.e:
    001351  0a   000361 7020 00         	tsx2	.setup
    001352  0a   003634 7000 00         	tsx0	.set_dir_trap
    001353  aa   000000 6340 07         	ldi	=0,dl
    001354  4a  4 03042 3521 20         	short_call status_$get_access_class_ptr(ap|0)
    001355  aa  7 00036 6701 20
    001356  aa  6 00030 3701 20
    001357  9a  4 00610 3521 00         	eppbp	lp|get_access_class_seg.t
    001360  0a   000424 7100 00         	tra	.return_code
    000610                              get_access_class_seg.t:
    000610                              	bss	,gate_entry_data_size

                                    88  	hgate	get_access_info,status_,get_access_info,5,bad_dir_trap
                        000064          	segdef	get_access_info
    000064                              get_access_info:
    000064  0a   001362 7100 00         	tra	get_access_info.e
    001361  a8   000012 000620          	zero	5*2,get_access_info.t
    001362                              get_access_info.e:
    001362  0a   000361 7020 00         	tsx2	.setup
    001363  0a   003634 7000 00         	tsx0	.set_dir_trap
    001364  aa   000000 6340 07         	ldi	=0,dl
    001365  4a  4 03044 3521 20         	short_call status_$get_access_info(ap|0)
    001366  aa  7 00036 6701 20
    001367  aa  6 00030 3701 20
    001370  9a  4 00620 3521 00         	eppbp	lp|get_access_info.t
    001371  0a   000424 7100 00         	tra	.return_code
    000620                              get_access_info.t:
    000620                              	bss	,gate_entry_data_size

                                    89  	hgate	get_access_info_seg,status_,get_access_info_seg,3,bad_dir_trap
                        000065          	segdef	get_access_info_seg
    000065                              get_access_info_seg:
    000065  0a   001373 7100 00         	tra	get_access_info_seg.e
    001372  a8   000006 000630          	zero	3*2,get_access_info_seg.t
    001373                              get_access_info_seg.e:
    001373  0a   000361 7020 00         	tsx2	.setup
    001374  0a   003634 7000 00         	tsx0	.set_dir_trap
    001375  aa   000000 6340 07         	ldi	=0,dl
    001376  4a  4 03046 3521 20         	short_call status_$get_access_info_seg(ap|0)
    001377  aa  7 00036 6701 20
    001400  aa  6 00030 3701 20
    001401  9a  4 00630 3521 00         	eppbp	lp|get_access_info_seg.t
    001402  0a   000424 7100 00         	tra	.return_code
    000630                              get_access_info_seg.t:
    000630                              	bss	,gate_entry_data_size

                                    90  	hgate	get_alarm_timer,set_alarm_timer,get_alarm_timer,2
                        000066          	segdef	get_alarm_timer
    000066                              get_alarm_timer:
    000066  0a   001404 7100 00         	tra	get_alarm_timer.e
    001403  a8   000004 000640          	zero	2*2,get_alarm_timer.t
    001404                              get_alarm_timer.e:
    001404  0a   000361 7020 00         	tsx2	.setup
    001405  aa   000000 6340 07         	ldi	=0,dl
    001406  4a  4 03050 3521 20         	short_call set_alarm_timer$get_alarm_timer(ap|0)
    001407  aa  7 00036 6701 20
    001410  aa  6 00030 3701 20
    001411  9a  4 00640 3521 00         	eppbp	lp|get_alarm_timer.t
    001412  0a   000424 7100 00         	tra	.return_code
    000640                              get_alarm_timer.t:
    000640                              	bss	,gate_entry_data_size

                                    91  	hgate	get_author,status_,get_author,5,bad_dir_trap
                        000067          	segdef	get_author
    000067                              get_author:
    000067  0a   001414 7100 00         	tra	get_author.e
    001413  a8   000012 000650          	zero	5*2,get_author.t
    001414                              get_author.e:
    001414  0a   000361 7020 00         	tsx2	.setup
    001415  0a   003634 7000 00         	tsx0	.set_dir_trap
    001416  aa   000000 6340 07         	ldi	=0,dl
    001417  4a  4 03052 3521 20         	short_call status_$get_author(ap|0)
    001420  aa  7 00036 6701 20
    001421  aa  6 00030 3701 20
    001422  9a  4 00650 3521 00         	eppbp	lp|get_author.t
    001423  0a   000424 7100 00         	tra	.return_code
    000650                              get_author.t:
    000650                              	bss	,gate_entry_data_size

                                    92  	hgate	get_authorization,proc_info,authorization,2
                        000070          	segdef	get_authorization
    000070                              get_authorization:
    000070  0a   001425 7100 00         	tra	get_authorization.e
    001424  a8   000004 000660          	zero	2*2,get_authorization.t
    001425                              get_authorization.e:
    001425  0a   000361 7020 00         	tsx2	.setup
    001426  aa   000000 6340 07         	ldi	=0,dl
    001427  4a  4 03054 3521 20         	short_call proc_info$authorization(ap|0)
    001430  aa  7 00036 6701 20
    001431  aa  6 00030 3701 20
    001432  9a  4 00660 3521 00         	eppbp	lp|get_authorization.t
    001433  0a   000424 7100 00         	tra	.return_code
    000660                              get_authorization.t:
    000660                              	bss	,gate_entry_data_size

                                    93  	hgate	get_bc_author,status_,get_bc_author,4,bad_dir_trap
                        000071          	segdef	get_bc_author
    000071                              get_bc_author:
    000071  0a   001435 7100 00         	tra	get_bc_author.e
    001434  a8   000010 000670          	zero	4*2,get_bc_author.t
    001435                              get_bc_author.e:
    001435  0a   000361 7020 00         	tsx2	.setup
    001436  0a   003634 7000 00         	tsx0	.set_dir_trap
    001437  aa   000000 6340 07         	ldi	=0,dl
    001440  4a  4 03056 3521 20         	short_call status_$get_bc_author(ap|0)
    001441  aa  7 00036 6701 20
    001442  aa  6 00030 3701 20
    001443  9a  4 00670 3521 00         	eppbp	lp|get_bc_author.t
    001444  0a   000424 7100 00         	tra	.return_code
    000670                              get_bc_author.t:
    000670                              	bss	,gate_entry_data_size

                                    94  	hgate	get_dates,status_,get_dates,4,bad_dir_trap
                        000072          	segdef	get_dates
    000072                              get_dates:
    000072  0a   001446 7100 00         	tra	get_dates.e
    001445  a8   000010 000700          	zero	4*2,get_dates.t
    001446                              get_dates.e:
    001446  0a   000361 7020 00         	tsx2	.setup
    001447  0a   003634 7000 00         	tsx0	.set_dir_trap
    001450  aa   000000 6340 07         	ldi	=0,dl
    001451  4a  4 03060 3521 20         	short_call status_$get_dates(ap|0)
    001452  aa  7 00036 6701 20
    001453  aa  6 00030 3701 20
    001454  9a  4 00700 3521 00         	eppbp	lp|get_dates.t
    001455  0a   000424 7100 00         	tra	.return_code
    000700                              get_dates.t:
    000700                              	bss	,gate_entry_data_size

                                    95  	hgate	get_dates_ptr,status_,get_dates_ptr,3,bad_dir_trap
                        000073          	segdef	get_dates_ptr
    000073                              get_dates_ptr:
    000073  0a   001457 7100 00         	tra	get_dates_ptr.e
    001456  a8   000006 000710          	zero	3*2,get_dates_ptr.t
    001457                              get_dates_ptr.e:
    001457  0a   000361 7020 00         	tsx2	.setup
    001460  0a   003634 7000 00         	tsx0	.set_dir_trap
    001461  aa   000000 6340 07         	ldi	=0,dl
    001462  4a  4 03062 3521 20         	short_call status_$get_dates_ptr(ap|0)
    001463  aa  7 00036 6701 20
    001464  aa  6 00030 3701 20
    001465  9a  4 00710 3521 00         	eppbp	lp|get_dates_ptr.t
    001466  0a   000424 7100 00         	tra	.return_code
    000710                              get_dates_ptr.t:
    000710                              	bss	,gate_entry_data_size

                                    96  	hgate	get_defname_,get_defname_,get_defname_,6
                        000074          	segdef	get_defname_
    000074                              get_defname_:
    000074  0a   001470 7100 00         	tra	get_defname_.e
    001467  a8   000014 000720          	zero	6*2,get_defname_.t
    001470                              get_defname_.e:
    001470  0a   000361 7020 00         	tsx2	.setup
    001471  aa   000000 6340 07         	ldi	=0,dl
    001472  4a  4 03064 3521 20         	short_call get_defname_$get_defname_(ap|0)
    001473  aa  7 00036 6701 20
    001474  aa  6 00030 3701 20
    001475  9a  4 00720 3521 00         	eppbp	lp|get_defname_.t
    001476  0a   000424 7100 00         	tra	.return_code
    000720                              get_defname_.t:
    000720                              	bss	,gate_entry_data_size

                                    97  	hgate	get_dir_ring_brackets,ringbr_,get_dir,4,bad_dir_trap
                        000075          	segdef	get_dir_ring_brackets
    000075                              get_dir_ring_brackets:
    000075  0a   001500 7100 00         	tra	get_dir_ring_brackets.e
    001477  a8   000010 000730          	zero	4*2,get_dir_ring_brackets.t
    001500                              get_dir_ring_brackets.e:
    001500  0a   000361 7020 00         	tsx2	.setup
    001501  0a   003634 7000 00         	tsx0	.set_dir_trap
    001502  aa   000000 6340 07         	ldi	=0,dl
    001503  4a  4 03066 3521 20         	short_call ringbr_$get_dir(ap|0)
    001504  aa  7 00036 6701 20
    001505  aa  6 00030 3701 20
    001506  9a  4 00730 3521 00         	eppbp	lp|get_dir_ring_brackets.t
    001507  0a   000424 7100 00         	tra	.return_code
    000730                              get_dir_ring_brackets.t:
    000730                              	bss	,gate_entry_data_size

                                    98            hgate     get_exponent_control,hc_exponent_control,exponent_control_get,3
                        000076          	segdef	get_exponent_control
    000076                              get_exponent_control:
    000076  0a   001511 7100 00         	tra	get_exponent_control.e
    001510  a8   000006 000740          	zero	3*2,get_exponent_control.t
    001511                              get_exponent_control.e:
    001511  0a   000361 7020 00         	tsx2	.setup
    001512  aa   000000 6340 07         	ldi	=0,dl
    001513  4a  4 03070 3521 20         	short_call hc_exponent_control$exponent_control_get(ap|0)
    001514  aa  7 00036 6701 20
    001515  aa  6 00030 3701 20
    001516  9a  4 00740 3521 00         	eppbp	lp|get_exponent_control.t
    001517  0a   000424 7100 00         	tra	.return_code
    000740                              get_exponent_control.t:
    000740                              	bss	,gate_entry_data_size

                                    99  	hgate	get_hex_exponent_control,hc_exponent_control,hex_exponent_control_get,3
                        000077          	segdef	get_hex_exponent_control
    000077                              get_hex_exponent_control:
    000077  0a   001521 7100 00         	tra	get_hex_exponent_control.e
    001520  a8   000006 000750          	zero	3*2,get_hex_exponent_control.t
    001521                              get_hex_exponent_control.e:
    001521  0a   000361 7020 00         	tsx2	.setup
    001522  aa   000000 6340 07         	ldi	=0,dl
    001523  4a  4 03072 3521 20         	short_call hc_exponent_control$hex_exponent_control_get(ap|0)
    001524  aa  7 00036 6701 20
    001525  aa  6 00030 3701 20
    001526  9a  4 00750 3521 00         	eppbp	lp|get_hex_exponent_control.t
    001527  0a   000424 7100 00         	tra	.return_code
    000750                              get_hex_exponent_control.t:
    000750                              	bss	,gate_entry_data_size

                                   100  	hgate	get_initial_ring,proc_info,get_initial_ring,1
                        000100          	segdef	get_initial_ring
    000100                              get_initial_ring:
    000100  0a   001531 7100 00         	tra	get_initial_ring.e
    001530  a8   000002 000760          	zero	1*2,get_initial_ring.t
    001531                              get_initial_ring.e:
    001531  0a   000361 7020 00         	tsx2	.setup
    001532  aa   000000 6340 07         	ldi	=0,dl
    001533  4a  4 03074 3521 20         	short_call proc_info$get_initial_ring(ap|0)
    001534  aa  7 00036 6701 20
    001535  aa  6 00030 3701 20
    001536  9a  4 00760 3521 00         	eppbp	lp|get_initial_ring.t
    001537  0a   000424 7100 00         	tra	.return_code
    000760                              get_initial_ring.t:
    000760                              	bss	,gate_entry_data_size

                                   101  	hgate	get_ipc_operands,tc_util,get_ipc_operands,2
                        000101          	segdef	get_ipc_operands
    000101                              get_ipc_operands:
    000101  0a   001541 7100 00         	tra	get_ipc_operands.e
    001540  a8   000004 000770          	zero	2*2,get_ipc_operands.t
    001541                              get_ipc_operands.e:
    001541  0a   000361 7020 00         	tsx2	.setup
    001542  aa   000000 6340 07         	ldi	=0,dl
    001543  4a  4 03076 3521 20         	short_call tc_util$get_ipc_operands(ap|0)
    001544  aa  7 00036 6701 20
    001545  aa  6 00030 3701 20
    001546  9a  4 00770 3521 00         	eppbp	lp|get_ipc_operands.t
    001547  0a   000424 7100 00         	tra	.return_code
    000770                              get_ipc_operands.t:
    000770                              	bss	,gate_entry_data_size

                                   102  	fgate	get_ips_mask,ips_,get_ips_mask,1
                        000102          	segdef	get_ips_mask
    000102                              get_ips_mask:
    000102  0a   001551 7100 00         	tra	get_ips_mask.e
    001550  aa   000000 000000          	zero	0,0
    001551                              get_ips_mask.e:
    001551  aa   000000 6340 07         	ldi	=0,dl
    001552  0a   000312 3700 20         	epplp	.my_lp,*
    001553  4a  4 03100 7101 20         	tra	ips_$get_ips_mask

                                   103  	hgate	get_link_target,fs_get,get_link_target,5
                        000103          	segdef	get_link_target
    000103                              get_link_target:
    000103  0a   001555 7100 00         	tra	get_link_target.e
    001554  a8   000012 001000          	zero	5*2,get_link_target.t
    001555                              get_link_target.e:
    001555  0a   000361 7020 00         	tsx2	.setup
    001556  aa   000000 6340 07         	ldi	=0,dl
    001557  4a  4 03102 3521 20         	short_call fs_get$get_link_target(ap|0)
    001560  aa  7 00036 6701 20
    001561  aa  6 00030 3701 20
    001562  9a  4 01000 3521 00         	eppbp	lp|get_link_target.t
    001563  0a   000424 7100 00         	tra	.return_code
    001000                              get_link_target.t:
    001000                              	bss	,gate_entry_data_size

                                   104  	hgate	get_lp,link_man,get_lp,2
                        000104          	segdef	get_lp
    000104                              get_lp:
    000104  0a   001565 7100 00         	tra	get_lp.e
    001564  a8   000004 001010          	zero	2*2,get_lp.t
    001565                              get_lp.e:
    001565  0a   000361 7020 00         	tsx2	.setup
    001566  aa   000000 6340 07         	ldi	=0,dl
    001567  4a  4 03104 3521 20         	short_call link_man$get_lp(ap|0)
    001570  aa  7 00036 6701 20
    001571  aa  6 00030 3701 20
    001572  9a  4 01010 3521 00         	eppbp	lp|get_lp.t
    001573  0a   000424 7100 00         	tra	.return_code
    001010                              get_lp.t:
    001010                              	bss	,gate_entry_data_size

                                   105  	hgate	get_max_length,status_,get_max_length,4,bad_dir_trap
                        000105          	segdef	get_max_length
    000105                              get_max_length:
    000105  0a   001575 7100 00         	tra	get_max_length.e
    001574  a8   000010 001020          	zero	4*2,get_max_length.t
    001575                              get_max_length.e:
    001575  0a   000361 7020 00         	tsx2	.setup
    001576  0a   003634 7000 00         	tsx0	.set_dir_trap
    001577  aa   000000 6340 07         	ldi	=0,dl
    001600  4a  4 03106 3521 20         	short_call status_$get_max_length(ap|0)
    001601  aa  7 00036 6701 20
    001602  aa  6 00030 3701 20
    001603  9a  4 01020 3521 00         	eppbp	lp|get_max_length.t
    001604  0a   000424 7100 00         	tra	.return_code
    001020                              get_max_length.t:
    001020                              	bss	,gate_entry_data_size

                                   106  	hgate	get_max_length_seg,status_,get_max_length_ptr,3,bad_dir_trap
                        000106          	segdef	get_max_length_seg
    000106                              get_max_length_seg:
    000106  0a   001606 7100 00         	tra	get_max_length_seg.e
    001605  a8   000006 001030          	zero	3*2,get_max_length_seg.t
    001606                              get_max_length_seg.e:
    001606  0a   000361 7020 00         	tsx2	.setup
    001607  0a   003634 7000 00         	tsx0	.set_dir_trap
    001610  aa   000000 6340 07         	ldi	=0,dl
    001611  4a  4 03110 3521 20         	short_call status_$get_max_length_ptr(ap|0)
    001612  aa  7 00036 6701 20
    001613  aa  6 00030 3701 20
    001614  9a  4 01030 3521 00         	eppbp	lp|get_max_length_seg.t
    001615  0a   000424 7100 00         	tra	.return_code
    001030                              get_max_length_seg.t:
    001030                              	bss	,gate_entry_data_size

                                   107  	hgate	get_page_trace,hc_page_trace,get_page_trace,1
                        000107          	segdef	get_page_trace
    000107                              get_page_trace:
    000107  0a   001617 7100 00         	tra	get_page_trace.e
    001616  a8   000002 001040          	zero	1*2,get_page_trace.t
    001617                              get_page_trace.e:
    001617  0a   000361 7020 00         	tsx2	.setup
    001620  aa   000000 6340 07         	ldi	=0,dl
    001621  4a  4 03112 3521 20         	short_call hc_page_trace$get_page_trace(ap|0)
    001622  aa  7 00036 6701 20
    001623  aa  6 00030 3701 20
    001624  9a  4 01040 3521 00         	eppbp	lp|get_page_trace.t
    001625  0a   000424 7100 00         	tra	.return_code
    001040                              get_page_trace.t:
    001040                              	bss	,gate_entry_data_size

                                   108  	hgate	get_page_trace_signal,hc_page_trace,get_signal,2
                        000110          	segdef	get_page_trace_signal
    000110                              get_page_trace_signal:
    000110  0a   001627 7100 00         	tra	get_page_trace_signal.e
    001626  a8   000004 001050          	zero	2*2,get_page_trace_signal.t
    001627                              get_page_trace_signal.e:
    001627  0a   000361 7020 00         	tsx2	.setup
    001630  aa   000000 6340 07         	ldi	=0,dl
    001631  4a  4 03114 3521 20         	short_call hc_page_trace$get_signal(ap|0)
    001632  aa  7 00036 6701 20
    001633  aa  6 00030 3701 20
    001634  9a  4 01050 3521 00         	eppbp	lp|get_page_trace_signal.t
    001635  0a   000424 7100 00         	tra	.return_code
    001050                              get_page_trace_signal.t:
    001050                              	bss	,gate_entry_data_size

                                   109  	hgate	get_process_usage,get_process_usage,get_process_usage,2
                        000111          	segdef	get_process_usage
    000111                              get_process_usage:
    000111  0a   001637 7100 00         	tra	get_process_usage.e
    001636  a8   000004 001060          	zero	2*2,get_process_usage.t
    001637                              get_process_usage.e:
    001637  0a   000361 7020 00         	tsx2	.setup
    001640  aa   000000 6340 07         	ldi	=0,dl
    001641  4a  4 03116 3521 20         	short_call get_process_usage$get_process_usage(ap|0)
    001642  aa  7 00036 6701 20
    001643  aa  6 00030 3701 20
    001644  9a  4 01060 3521 00         	eppbp	lp|get_process_usage.t
    001645  0a   000424 7100 00         	tra	.return_code
    001060                              get_process_usage.t:
    001060                              	bss	,gate_entry_data_size

                                   110  	hgate	get_procs_required,set_procs_required,get_procs_required,3
                        000112          	segdef	get_procs_required
    000112                              get_procs_required:
    000112  0a   001647 7100 00         	tra	get_procs_required.e
    001646  a8   000006 001070          	zero	3*2,get_procs_required.t
    001647                              get_procs_required.e:
    001647  0a   000361 7020 00         	tsx2	.setup
    001650  aa   000000 6340 07         	ldi	=0,dl
    001651  4a  4 03120 3521 20         	short_call set_procs_required$get_procs_required(ap|0)
    001652  aa  7 00036 6701 20
    001653  aa  6 00030 3701 20
    001654  9a  4 01070 3521 00         	eppbp	lp|get_procs_required.t
    001655  0a   000424 7100 00         	tra	.return_code
    001070                              get_procs_required.t:
    001070                              	bss	,gate_entry_data_size

                                   111  	hgate	get_ring_brackets,ringbr_,get,4,bad_dir_trap
                        000113          	segdef	get_ring_brackets
    000113                              get_ring_brackets:
    000113  0a   001657 7100 00         	tra	get_ring_brackets.e
    001656  a8   000010 001100          	zero	4*2,get_ring_brackets.t
    001657                              get_ring_brackets.e:
    001657  0a   000361 7020 00         	tsx2	.setup
    001660  0a   003634 7000 00         	tsx0	.set_dir_trap
    001661  aa   000000 6340 07         	ldi	=0,dl
    001662  4a  4 03122 3521 20         	short_call ringbr_$get(ap|0)
    001663  aa  7 00036 6701 20
    001664  aa  6 00030 3701 20
    001665  9a  4 01100 3521 00         	eppbp	lp|get_ring_brackets.t
    001666  0a   000424 7100 00         	tra	.return_code
    001100                              get_ring_brackets.t:
    001100                              	bss	,gate_entry_data_size

                                   112  	hgate	get_ring_brackets_seg,ringbr_,get_ring_brackets_seg,3,bad_dir_trap
                        000114          	segdef	get_ring_brackets_seg
    000114                              get_ring_brackets_seg:
    000114  0a   001670 7100 00         	tra	get_ring_brackets_seg.e
    001667  a8   000006 001110          	zero	3*2,get_ring_brackets_seg.t
    001670                              get_ring_brackets_seg.e:
    001670  0a   000361 7020 00         	tsx2	.setup
    001671  0a   003634 7000 00         	tsx0	.set_dir_trap
    001672  aa   000000 6340 07         	ldi	=0,dl
    001673  4a  4 03124 3521 20         	short_call ringbr_$get_ring_brackets_seg(ap|0)
    001674  aa  7 00036 6701 20
    001675  aa  6 00030 3701 20
    001676  9a  4 01110 3521 00         	eppbp	lp|get_ring_brackets_seg.t
    001677  0a   000424 7100 00         	tra	.return_code
    001110                              get_ring_brackets_seg.t:
    001110                              	bss	,gate_entry_data_size

                                   113  	hgate	get_safety_sw,status_,get_safety_sw,4,bad_dir_trap
                        000115          	segdef	get_safety_sw
    000115                              get_safety_sw:
    000115  0a   001701 7100 00         	tra	get_safety_sw.e
    001700  a8   000010 001120          	zero	4*2,get_safety_sw.t
    001701                              get_safety_sw.e:
    001701  0a   000361 7020 00         	tsx2	.setup
    001702  0a   003634 7000 00         	tsx0	.set_dir_trap
    001703  aa   000000 6340 07         	ldi	=0,dl
    001704  4a  4 03126 3521 20         	short_call status_$get_safety_sw(ap|0)
    001705  aa  7 00036 6701 20
    001706  aa  6 00030 3701 20
    001707  9a  4 01120 3521 00         	eppbp	lp|get_safety_sw.t
    001710  0a   000424 7100 00         	tra	.return_code
    001120                              get_safety_sw.t:
    001120                              	bss	,gate_entry_data_size

                                   114  	hgate	get_safety_sw_seg,status_,get_safety_sw_ptr,3,bad_dir_trap
                        000116          	segdef	get_safety_sw_seg
    000116                              get_safety_sw_seg:
    000116  0a   001712 7100 00         	tra	get_safety_sw_seg.e
    001711  a8   000006 001130          	zero	3*2,get_safety_sw_seg.t
    001712                              get_safety_sw_seg.e:
    001712  0a   000361 7020 00         	tsx2	.setup
    001713  0a   003634 7000 00         	tsx0	.set_dir_trap
    001714  aa   000000 6340 07         	ldi	=0,dl
    001715  4a  4 03130 3521 20         	short_call status_$get_safety_sw_ptr(ap|0)
    001716  aa  7 00036 6701 20
    001717  aa  6 00030 3701 20
    001720  9a  4 01130 3521 00         	eppbp	lp|get_safety_sw_seg.t
    001721  0a   000424 7100 00         	tra	.return_code
    001130                              get_safety_sw_seg.t:
    001130                              	bss	,gate_entry_data_size

                                   115  	hgate	get_search_rules,fs_get,search_rules,1
                        000117          	segdef	get_search_rules
    000117                              get_search_rules:
    000117  0a   001723 7100 00         	tra	get_search_rules.e
    001722  a8   000002 001140          	zero	1*2,get_search_rules.t
    001723                              get_search_rules.e:
    001723  0a   000361 7020 00         	tsx2	.setup
    001724  aa   000000 6340 07         	ldi	=0,dl
    001725  4a  4 03132 3521 20         	short_call fs_get$search_rules(ap|0)
    001726  aa  7 00036 6701 20
    001727  aa  6 00030 3701 20
    001730  9a  4 01140 3521 00         	eppbp	lp|get_search_rules.t
    001731  0a   000424 7100 00         	tra	.return_code
    001140                              get_search_rules.t:
    001140                              	bss	,gate_entry_data_size

                                   116  	hgate     get_segment_ptr_path,initiate_,get_segment_ptr_path,5
                        000120          	segdef	get_segment_ptr_path
    000120                              get_segment_ptr_path:
    000120  0a   001733 7100 00         	tra	get_segment_ptr_path.e
    001732  a8   000012 001150          	zero	5*2,get_segment_ptr_path.t
    001733                              get_segment_ptr_path.e:
    001733  0a   000361 7020 00         	tsx2	.setup
    001734  aa   000000 6340 07         	ldi	=0,dl
    001735  4a  4 03134 3521 20         	short_call initiate_$get_segment_ptr_path(ap|0)
    001736  aa  7 00036 6701 20
    001737  aa  6 00030 3701 20
    001740  9a  4 01150 3521 00         	eppbp	lp|get_segment_ptr_path.t
    001741  0a   000424 7100 00         	tra	.return_code
    001150                              get_segment_ptr_path.t:
    001150                              	bss	,gate_entry_data_size

                                   117  	hgate	get_system_search_rules,initiate_search_rules,get_system_rules,2
                        000121          	segdef	get_system_search_rules
    000121                              get_system_search_rules:
    000121  0a   001743 7100 00         	tra	get_system_search_rules.e
    001742  a8   000004 001160          	zero	2*2,get_system_search_rules.t
    001743                              get_system_search_rules.e:
    001743  0a   000361 7020 00         	tsx2	.setup
    001744  aa   000000 6340 07         	ldi	=0,dl
    001745  4a  4 03136 3521 20         	short_call initiate_search_rules$get_system_rules(ap|0)
    001746  aa  7 00036 6701 20
    001747  aa  6 00030 3701 20
    001750  9a  4 01160 3521 00         	eppbp	lp|get_system_search_rules.t
    001751  0a   000424 7100 00         	tra	.return_code
    001160                              get_system_search_rules.t:
    001160                              	bss	,gate_entry_data_size

                                   118  	hgate	get_uid_file,status_,get_uid_file,4,bad_dir_trap
                        000122          	segdef	get_uid_file
    000122                              get_uid_file:
    000122  0a   001753 7100 00         	tra	get_uid_file.e
    001752  a8   000010 001170          	zero	4*2,get_uid_file.t
    001753                              get_uid_file.e:
    001753  0a   000361 7020 00         	tsx2	.setup
    001754  0a   003634 7000 00         	tsx0	.set_dir_trap
    001755  aa   000000 6340 07         	ldi	=0,dl
    001756  4a  4 03140 3521 20         	short_call status_$get_uid_file(ap|0)
    001757  aa  7 00036 6701 20
    001760  aa  6 00030 3701 20
    001761  9a  4 01170 3521 00         	eppbp	lp|get_uid_file.t
    001762  0a   000424 7100 00         	tra	.return_code
    001170                              get_uid_file.t:
    001170                              	bss	,gate_entry_data_size

                                   119  	hgate	get_uid_seg,kst_info,get_uid,3
                        000123          	segdef	get_uid_seg
    000123                              get_uid_seg:
    000123  0a   001764 7100 00         	tra	get_uid_seg.e
    001763  a8   000006 001200          	zero	3*2,get_uid_seg.t
    001764                              get_uid_seg.e:
    001764  0a   000361 7020 00         	tsx2	.setup
    001765  aa   000000 6340 07         	ldi	=0,dl
    001766  4a  4 03142 3521 20         	short_call kst_info$get_uid(ap|0)
    001767  aa  7 00036 6701 20
    001770  aa  6 00030 3701 20
    001771  9a  4 01200 3521 00         	eppbp	lp|get_uid_seg.t
    001772  0a   000424 7100 00         	tra	.return_code
    001200                              get_uid_seg.t:
    001200                              	bss	,gate_entry_data_size

                                   120  	hgate	get_user_access_modes,status_,get_user_access_modes,7,bad_dir_trap
                        000124          	segdef	get_user_access_modes
    000124                              get_user_access_modes:
    000124  0a   001774 7100 00         	tra	get_user_access_modes.e
    001773  a8   000016 001210          	zero	7*2,get_user_access_modes.t
    001774                              get_user_access_modes.e:
    001774  0a   000361 7020 00         	tsx2	.setup
    001775  0a   003634 7000 00         	tsx0	.set_dir_trap
    001776  aa   000000 6340 07         	ldi	=0,dl
    001777  4a  4 03144 3521 20         	short_call status_$get_user_access_modes(ap|0)
    002000  aa  7 00036 6701 20
    002001  aa  6 00030 3701 20
    002002  9a  4 01210 3521 00         	eppbp	lp|get_user_access_modes.t
    002003  0a   000424 7100 00         	tra	.return_code
    001210                              get_user_access_modes.t:
    001210                              	bss	,gate_entry_data_size

                                   121  	hgate	get_user_access_modes_seg,status_,get_user_access_modes_seg,6,bad_dir_trap
                        000125          	segdef	get_user_access_modes_seg
    000125                              get_user_access_modes_seg:
    000125  0a   002005 7100 00         	tra	get_user_access_modes_seg.e
    002004  a8   000014 001220          	zero	6*2,get_user_access_modes_seg.t
    002005                              get_user_access_modes_seg.e:
    002005  0a   000361 7020 00         	tsx2	.setup
    002006  0a   003634 7000 00         	tsx0	.set_dir_trap
    002007  aa   000000 6340 07         	ldi	=0,dl
    002010  4a  4 03146 3521 20         	short_call status_$get_user_access_modes_seg(ap|0)
    002011  aa  7 00036 6701 20
    002012  aa  6 00030 3701 20
    002013  9a  4 01220 3521 00         	eppbp	lp|get_user_access_modes_seg.t
    002014  0a   000424 7100 00         	tra	.return_code
    001220                              get_user_access_modes_seg.t:
    001220                              	bss	,gate_entry_data_size

                                   122  	hgate	get_user_effmode,status_,get_user_effmode,6,bad_dir_trap
                        000126          	segdef	get_user_effmode
    000126                              get_user_effmode:
    000126  0a   002016 7100 00         	tra	get_user_effmode.e
    002015  a8   000014 001230          	zero	6*2,get_user_effmode.t
    002016                              get_user_effmode.e:
    002016  0a   000361 7020 00         	tsx2	.setup
    002017  0a   003634 7000 00         	tsx0	.set_dir_trap
    002020  aa   000000 6340 07         	ldi	=0,dl
    002021  4a  4 03150 3521 20         	short_call status_$get_user_effmode(ap|0)
    002022  aa  7 00036 6701 20
    002023  aa  6 00030 3701 20
    002024  9a  4 01230 3521 00         	eppbp	lp|get_user_effmode.t
    002025  0a   000424 7100 00         	tra	.return_code
    001230                              get_user_effmode.t:
    001230                              	bss	,gate_entry_data_size

                                   123  	hgate	get_user_raw_mode,status_,get_user_raw_mode,5,bad_dir_trap
                        000127          	segdef	get_user_raw_mode
    000127                              get_user_raw_mode:
    000127  0a   002027 7100 00         	tra	get_user_raw_mode.e
    002026  a8   000012 001240          	zero	5*2,get_user_raw_mode.t
    002027                              get_user_raw_mode.e:
    002027  0a   000361 7020 00         	tsx2	.setup
    002030  0a   003634 7000 00         	tsx0	.set_dir_trap
    002031  aa   000000 6340 07         	ldi	=0,dl
    002032  4a  4 03152 3521 20         	short_call status_$get_user_raw_mode(ap|0)
    002033  aa  7 00036 6701 20
    002034  aa  6 00030 3701 20
    002035  9a  4 01240 3521 00         	eppbp	lp|get_user_raw_mode.t
    002036  0a   000424 7100 00         	tra	.return_code
    001240                              get_user_raw_mode.t:
    001240                              	bss	,gate_entry_data_size

                                   124  	hgate	get_volume_dump_switches,status_,get_volume_dump_switches,5,bad_dir_trap
                        000130          	segdef	get_volume_dump_switches
    000130                              get_volume_dump_switches:
    000130  0a   002040 7100 00         	tra	get_volume_dump_switches.e
    002037  a8   000012 001250          	zero	5*2,get_volume_dump_switches.t
    002040                              get_volume_dump_switches.e:
    002040  0a   000361 7020 00         	tsx2	.setup
    002041  0a   003634 7000 00         	tsx0	.set_dir_trap
    002042  aa   000000 6340 07         	ldi	=0,dl
    002043  4a  4 03154 3521 20         	short_call status_$get_volume_dump_switches(ap|0)
    002044  aa  7 00036 6701 20
    002045  aa  6 00030 3701 20
    002046  9a  4 01250 3521 00         	eppbp	lp|get_volume_dump_switches.t
    002047  0a   000424 7100 00         	tra	.return_code
    001250                              get_volume_dump_switches.t:
    001250                              	bss	,gate_entry_data_size

                                   125  	hgate	grow_lot,link_man,grow_lot,1
                        000131          	segdef	grow_lot
    000131                              grow_lot:
    000131  0a   002051 7100 00         	tra	grow_lot.e
    002050  a8   000002 001260          	zero	1*2,grow_lot.t
    002051                              grow_lot.e:
    002051  0a   000361 7020 00         	tsx2	.setup
    002052  aa   000000 6340 07         	ldi	=0,dl
    002053  4a  4 03156 3521 20         	short_call link_man$grow_lot(ap|0)
    002054  aa  7 00036 6701 20
    002055  aa  6 00030 3701 20
    002056  9a  4 01260 3521 00         	eppbp	lp|grow_lot.t
    002057  0a   000424 7100 00         	tra	.return_code
    001260                              grow_lot.t:
    001260                              	bss	,gate_entry_data_size

                                   126  	hgate	high_low_seg_count,kst_info,high_low_seg_count,2
                        000132          	segdef	high_low_seg_count
    000132                              high_low_seg_count:
    000132  0a   002061 7100 00         	tra	high_low_seg_count.e
    002060  a8   000004 001270          	zero	2*2,high_low_seg_count.t
    002061                              high_low_seg_count.e:
    002061  0a   000361 7020 00         	tsx2	.setup
    002062  aa   000000 6340 07         	ldi	=0,dl
    002063  4a  4 03160 3521 20         	short_call kst_info$high_low_seg_count(ap|0)
    002064  aa  7 00036 6701 20
    002065  aa  6 00030 3701 20
    002066  9a  4 01270 3521 00         	eppbp	lp|high_low_seg_count.t
    002067  0a   000424 7100 00         	tra	.return_code
    001270                              high_low_seg_count.t:
    001270                              	bss	,gate_entry_data_size

                                   127  	hgate	history_regs_get,history_reg_save,per_proc_get,1
                        000133          	segdef	history_regs_get
    000133                              history_regs_get:
    000133  0a   002071 7100 00         	tra	history_regs_get.e
    002070  a8   000002 001300          	zero	1*2,history_regs_get.t
    002071                              history_regs_get.e:
    002071  0a   000361 7020 00         	tsx2	.setup
    002072  aa   000000 6340 07         	ldi	=0,dl
    002073  4a  4 03162 3521 20         	short_call history_reg_save$per_proc_get(ap|0)
    002074  aa  7 00036 6701 20
    002075  aa  6 00030 3701 20
    002076  9a  4 01300 3521 00         	eppbp	lp|history_regs_get.t
    002077  0a   000424 7100 00         	tra	.return_code
    001300                              history_regs_get.t:
    001300                              	bss	,gate_entry_data_size

                                   128  	hgate	history_regs_set,history_reg_save,per_proc_set,1
                        000134          	segdef	history_regs_set
    000134                              history_regs_set:
    000134  0a   002101 7100 00         	tra	history_regs_set.e
    002100  a8   000002 001310          	zero	1*2,history_regs_set.t
    002101                              history_regs_set.e:
    002101  0a   000361 7020 00         	tsx2	.setup
    002102  aa   000000 6340 07         	ldi	=0,dl
    002103  4a  4 03164 3521 20         	short_call history_reg_save$per_proc_set(ap|0)
    002104  aa  7 00036 6701 20
    002105  aa  6 00030 3701 20
    002106  9a  4 01310 3521 00         	eppbp	lp|history_regs_set.t
    002107  0a   000424 7100 00         	tra	.return_code
    001310                              history_regs_set.t:
    001310                              	bss	,gate_entry_data_size

                                   129  	hgate	initiate,initiate,initiate,7,bad_dir_trap
                        000135          	segdef	initiate
    000135                              initiate:
    000135  0a   002111 7100 00         	tra	initiate.e
    002110  a8   000016 001320          	zero	7*2,initiate.t
    002111                              initiate.e:
    002111  0a   000361 7020 00         	tsx2	.setup
    002112  0a   003634 7000 00         	tsx0	.set_dir_trap
    002113  aa   000000 6340 07         	ldi	=0,dl
    002114  4a  4 03166 3521 20         	short_call initiate$initiate(ap|0)
    002115  aa  7 00036 6701 20
    002116  aa  6 00030 3701 20
    002117  9a  4 01320 3521 00         	eppbp	lp|initiate.t
    002120  0a   000424 7100 00         	tra	.return_code
    001320                              initiate.t:
    001320                              	bss	,gate_entry_data_size

                                   130  	hgate	initiate_count,initiate,initiate_count,7,bad_dir_trap
                        000136          	segdef	initiate_count
    000136                              initiate_count:
    000136  0a   002122 7100 00         	tra	initiate_count.e
    002121  a8   000016 001330          	zero	7*2,initiate_count.t
    002122                              initiate_count.e:
    002122  0a   000361 7020 00         	tsx2	.setup
    002123  0a   003634 7000 00         	tsx0	.set_dir_trap
    002124  aa   000000 6340 07         	ldi	=0,dl
    002125  4a  4 03170 3521 20         	short_call initiate$initiate_count(ap|0)
    002126  aa  7 00036 6701 20
    002127  aa  6 00030 3701 20
    002130  9a  4 01330 3521 00         	eppbp	lp|initiate_count.t
    002131  0a   000424 7100 00         	tra	.return_code
    001330                              initiate_count.t:
    001330                              	bss	,gate_entry_data_size

                                   131  	hgate	initiate_search_rules,initiate_search_rules,initiate_search_rules,2
                        000137          	segdef	initiate_search_rules
    000137                              initiate_search_rules:
    000137  0a   002133 7100 00         	tra	initiate_search_rules.e
    002132  a8   000004 001340          	zero	2*2,initiate_search_rules.t
    002133                              initiate_search_rules.e:
    002133  0a   000361 7020 00         	tsx2	.setup
    002134  aa   000000 6340 07         	ldi	=0,dl
    002135  4a  4 03172 3521 20         	short_call initiate_search_rules$initiate_search_rules(ap|0)
    002136  aa  7 00036 6701 20
    002137  aa  6 00030 3701 20
    002140  9a  4 01340 3521 00         	eppbp	lp|initiate_search_rules.t
    002141  0a   000424 7100 00         	tra	.return_code
    001340                              initiate_search_rules.t:
    001340                              	bss	,gate_entry_data_size

                                   132  	fgate	level_get,level,get,1
                        000140          	segdef	level_get
    000140                              level_get:
    000140  0a   002143 7100 00         	tra	level_get.e
    002142  aa   000000 000000          	zero	0,0
    002143                              level_get.e:
    002143  aa   000000 6340 07         	ldi	=0,dl
    002144  0a   000312 3700 20         	epplp	.my_lp,*
    002145  4a  4 03174 7101 20         	tra	level$get

                                   133  	fgate	level_set,level,set_gate,1
                        000141          	segdef	level_set
    000141                              level_set:
    000141  0a   002147 7100 00         	tra	level_set.e
    002146  aa   000000 000000          	zero	0,0
    002147                              level_set.e:
    002147  aa   000000 6340 07         	ldi	=0,dl
    002150  0a   000312 3700 20         	epplp	.my_lp,*
    002151  4a  4 03176 7101 20         	tra	level$set_gate

                                   134  	hgate	link_force,link_snap,link_force,3
                        000142          	segdef	link_force
    000142                              link_force:
    000142  0a   002153 7100 00         	tra	link_force.e
    002152  a8   000006 001350          	zero	3*2,link_force.t
    002153                              link_force.e:
    002153  0a   000361 7020 00         	tsx2	.setup
    002154  aa   000000 6340 07         	ldi	=0,dl
    002155  4a  4 03200 3521 20         	short_call link_snap$link_force(ap|0)
    002156  aa  7 00036 6701 20
    002157  aa  6 00030 3701 20
    002160  9a  4 01350 3521 00         	eppbp	lp|link_force.t
    002161  0a   000424 7100 00         	tra	.return_code
    001350                              link_force.t:
    001350                              	bss	,gate_entry_data_size

                                   135  	hgate	list_acl,asd_,list_sall,7,bad_dir_trap
                        000143          	segdef	list_acl
    000143                              list_acl:
    000143  0a   002163 7100 00         	tra	list_acl.e
    002162  a8   000016 001360          	zero	7*2,list_acl.t
    002163                              list_acl.e:
    002163  0a   000361 7020 00         	tsx2	.setup
    002164  0a   003634 7000 00         	tsx0	.set_dir_trap
    002165  aa   000000 6340 07         	ldi	=0,dl
    002166  4a  4 03202 3521 20         	short_call asd_$list_sall(ap|0)
    002167  aa  7 00036 6701 20
    002170  aa  6 00030 3701 20
    002171  9a  4 01360 3521 00         	eppbp	lp|list_acl.t
    002172  0a   000424 7100 00         	tra	.return_code
    001360                              list_acl.t:
    001360                              	bss	,gate_entry_data_size

                                   136  	hgate	list_dir,star_,list_dir,7,bad_dir_trap
                        000144          	segdef	list_dir
    000144                              list_dir:
    000144  0a   002174 7100 00         	tra	list_dir.e
    002173  a8   000016 001370          	zero	7*2,list_dir.t
    002174                              list_dir.e:
    002174  0a   000361 7020 00         	tsx2	.setup
    002175  0a   003634 7000 00         	tsx0	.set_dir_trap
    002176  aa   000000 6340 07         	ldi	=0,dl
    002177  4a  4 03204 3521 20         	short_call star_$list_dir(ap|0)
    002200  aa  7 00036 6701 20
    002201  aa  6 00030 3701 20
    002202  9a  4 01370 3521 00         	eppbp	lp|list_dir.t
    002203  0a   000424 7100 00         	tra	.return_code
    001370                              list_dir.t:
    001370                              	bss	,gate_entry_data_size

                                   137  	hgate	list_dir_fast,star_,list_dir_fast,7,bad_dir_trap
                        000145          	segdef	list_dir_fast
    000145                              list_dir_fast:
    000145  0a   002205 7100 00         	tra	list_dir_fast.e
    002204  a8   000016 001400          	zero	7*2,list_dir_fast.t
    002205                              list_dir_fast.e:
    002205  0a   000361 7020 00         	tsx2	.setup
    002206  0a   003634 7000 00         	tsx0	.set_dir_trap
    002207  aa   000000 6340 07         	ldi	=0,dl
    002210  4a  4 03206 3521 20         	short_call star_$list_dir_fast(ap|0)
    002211  aa  7 00036 6701 20
    002212  aa  6 00030 3701 20
    002213  9a  4 01400 3521 00         	eppbp	lp|list_dir_fast.t
    002214  0a   000424 7100 00         	tra	.return_code
    001400                              list_dir_fast.t:
    001400                              	bss	,gate_entry_data_size

                                   138  	hgate	list_dir_acl,asd_,list_dall,7,bad_dir_trap
                        000146          	segdef	list_dir_acl
    000146                              list_dir_acl:
    000146  0a   002216 7100 00         	tra	list_dir_acl.e
    002215  a8   000016 001410          	zero	7*2,list_dir_acl.t
    002216                              list_dir_acl.e:
    002216  0a   000361 7020 00         	tsx2	.setup
    002217  0a   003634 7000 00         	tsx0	.set_dir_trap
    002220  aa   000000 6340 07         	ldi	=0,dl
    002221  4a  4 03210 3521 20         	short_call asd_$list_dall(ap|0)
    002222  aa  7 00036 6701 20
    002223  aa  6 00030 3701 20
    002224  9a  4 01410 3521 00         	eppbp	lp|list_dir_acl.t
    002225  0a   000424 7100 00         	tra	.return_code
    001410                              list_dir_acl.t:
    001410                              	bss	,gate_entry_data_size

                                   139  	hgate	list_dir_inacl,asd_,list_idall,8,bad_dir_trap
                        000147          	segdef	list_dir_inacl
    000147                              list_dir_inacl:
    000147  0a   002227 7100 00         	tra	list_dir_inacl.e
    002226  a8   000020 001420          	zero	8*2,list_dir_inacl.t
    002227                              list_dir_inacl.e:
    002227  0a   000361 7020 00         	tsx2	.setup
    002230  0a   003634 7000 00         	tsx0	.set_dir_trap
    002231  aa   000000 6340 07         	ldi	=0,dl
    002232  4a  4 03212 3521 20         	short_call asd_$list_idall(ap|0)
    002233  aa  7 00036 6701 20
    002234  aa  6 00030 3701 20
    002235  9a  4 01420 3521 00         	eppbp	lp|list_dir_inacl.t
    002236  0a   000424 7100 00         	tra	.return_code
    001420                              list_dir_inacl.t:
    001420                              	bss	,gate_entry_data_size

                                   140  	hgate	list_inacl,asd_,list_isall,8,bad_dir_trap
                        000150          	segdef	list_inacl
    000150                              list_inacl:
    000150  0a   002240 7100 00         	tra	list_inacl.e
    002237  a8   000020 001430          	zero	8*2,list_inacl.t
    002240                              list_inacl.e:
    002240  0a   000361 7020 00         	tsx2	.setup
    002241  0a   003634 7000 00         	tsx0	.set_dir_trap
    002242  aa   000000 6340 07         	ldi	=0,dl
    002243  4a  4 03214 3521 20         	short_call asd_$list_isall(ap|0)
    002244  aa  7 00036 6701 20
    002245  aa  6 00030 3701 20
    002246  9a  4 01430 3521 00         	eppbp	lp|list_inacl.t
    002247  0a   000424 7100 00         	tra	.return_code
    001430                              list_inacl.t:
    001430                              	bss	,gate_entry_data_size

                                   141  	hgate	list_inacl_all,list_inacl_all,list_inacl_all,5,bad_dir_trap
                        000151          	segdef	list_inacl_all
    000151                              list_inacl_all:
    000151  0a   002251 7100 00         	tra	list_inacl_all.e
    002250  a8   000012 001440          	zero	5*2,list_inacl_all.t
    002251                              list_inacl_all.e:
    002251  0a   000361 7020 00         	tsx2	.setup
    002252  0a   003634 7000 00         	tsx0	.set_dir_trap
    002253  aa   000000 6340 07         	ldi	=0,dl
    002254  4a  4 03216 3521 20         	short_call list_inacl_all$list_inacl_all(ap|0)
    002255  aa  7 00036 6701 20
    002256  aa  6 00030 3701 20
    002257  9a  4 01440 3521 00         	eppbp	lp|list_inacl_all.t
    002260  0a   000424 7100 00         	tra	.return_code
    001440                              list_inacl_all.t:
    001440                              	bss	,gate_entry_data_size

                                   142  	hgate	lv_attached,mountedp,mountedp,2
                        000152          	segdef	lv_attached
    000152                              lv_attached:
    000152  0a   002262 7100 00         	tra	lv_attached.e
    002261  a8   000004 001450          	zero	2*2,lv_attached.t
    002262                              lv_attached.e:
    002262  0a   000361 7020 00         	tsx2	.setup
    002263  aa   000000 6340 07         	ldi	=0,dl
    002264  4a  4 03220 3521 20         	short_call mountedp$mountedp(ap|0)
    002265  aa  7 00036 6701 20
    002266  aa  6 00030 3701 20
    002267  9a  4 01450 3521 00         	eppbp	lp|lv_attached.t
    002270  0a   000424 7100 00         	tra	.return_code
    001450                              lv_attached.t:
    001450                              	bss	,gate_entry_data_size

                                   143  	hgate	make_entry,link_snap,make_entry,5
                        000153          	segdef	make_entry
    000153                              make_entry:
    000153  0a   002272 7100 00         	tra	make_entry.e
    002271  a8   000012 001460          	zero	5*2,make_entry.t
    002272                              make_entry.e:
    002272  0a   000361 7020 00         	tsx2	.setup
    002273  aa   000000 6340 07         	ldi	=0,dl
    002274  4a  4 03222 3521 20         	short_call link_snap$make_entry(ap|0)
    002275  aa  7 00036 6701 20
    002276  aa  6 00030 3701 20
    002277  9a  4 01460 3521 00         	eppbp	lp|make_entry.t
    002300  0a   000424 7100 00         	tra	.return_code
    001460                              make_entry.t:
    001460                              	bss	,gate_entry_data_size

                                   144  	hgate	make_ptr,link_snap,make_ptr,5
                        000154          	segdef	make_ptr
    000154                              make_ptr:
    000154  0a   002302 7100 00         	tra	make_ptr.e
    002301  a8   000012 001470          	zero	5*2,make_ptr.t
    002302                              make_ptr.e:
    002302  0a   000361 7020 00         	tsx2	.setup
    002303  aa   000000 6340 07         	ldi	=0,dl
    002304  4a  4 03224 3521 20         	short_call link_snap$make_ptr(ap|0)
    002305  aa  7 00036 6701 20
    002306  aa  6 00030 3701 20
    002307  9a  4 01470 3521 00         	eppbp	lp|make_ptr.t
    002310  0a   000424 7100 00         	tra	.return_code
    001470                              make_ptr.t:
    001470                              	bss	,gate_entry_data_size

                                   145  	hgate	make_seg,make_seg,make_seg,6,bad_dir_trap
                        000155          	segdef	make_seg
    000155                              make_seg:
    000155  0a   002312 7100 00         	tra	make_seg.e
    002311  a8   000014 001500          	zero	6*2,make_seg.t
    002312                              make_seg.e:
    002312  0a   000361 7020 00         	tsx2	.setup
    002313  0a   003634 7000 00         	tsx0	.set_dir_trap
    002314  aa   000000 6340 07         	ldi	=0,dl
    002315  4a  4 03226 3521 20         	short_call make_seg$make_seg(ap|0)
    002316  aa  7 00036 6701 20
    002317  aa  6 00030 3701 20
    002320  9a  4 01500 3521 00         	eppbp	lp|make_seg.t
    002321  0a   000424 7100 00         	tra	.return_code
    001500                              make_seg.t:
    001500                              	bss	,gate_entry_data_size

                                   146  	hgate	makeunknown,terminate_,terminate_,3
                        000156          	segdef	makeunknown
    000156                              makeunknown:
    000156  0a   002323 7100 00         	tra	makeunknown.e
    002322  a8   000006 001510          	zero	3*2,makeunknown.t
    002323                              makeunknown.e:
    002323  0a   000361 7020 00         	tsx2	.setup
    002324  aa   000000 6340 07         	ldi	=0,dl
    002325  4a  4 03230 3521 20         	short_call terminate_$terminate_(ap|0)
    002326  aa  7 00036 6701 20
    002327  aa  6 00030 3701 20
    002330  9a  4 01510 3521 00         	eppbp	lp|makeunknown.t
    002331  0a   000424 7100 00         	tra	.return_code
    001510                              makeunknown.t:
    001510                              	bss	,gate_entry_data_size

                                   147  	fgate	mask_ips,ips_,mask_ips,2
                        000157          	segdef	mask_ips
    000157                              mask_ips:
    000157  0a   002333 7100 00         	tra	mask_ips.e
    002332  aa   000000 000000          	zero	0,0
    002333                              mask_ips.e:
    002333  aa   000000 6340 07         	ldi	=0,dl
    002334  0a   000312 3700 20         	epplp	.my_lp,*
    002335  4a  4 03232 7101 20         	tra	ips_$mask_ips

                                   148  	hgate	pre_page_info,page,pre_page_info,4
                        000160          	segdef	pre_page_info
    000160                              pre_page_info:
    000160  0a   002337 7100 00         	tra	pre_page_info.e
    002336  a8   000010 001520          	zero	4*2,pre_page_info.t
    002337                              pre_page_info.e:
    002337  0a   000361 7020 00         	tsx2	.setup
    002340  aa   000000 6340 07         	ldi	=0,dl
    002341  4a  4 03234 3521 20         	short_call page$pre_page_info(ap|0)
    002342  aa  7 00036 6701 20
    002343  aa  6 00030 3701 20
    002344  9a  4 01520 3521 00         	eppbp	lp|pre_page_info.t
    002345  0a   000424 7100 00         	tra	.return_code
    001520                              pre_page_info.t:
    001520                              	bss	,gate_entry_data_size

                                   149  	hgate	proc_info,proc_info,proc_info,4
                        000161          	segdef	proc_info
    000161                              proc_info:
    000161  0a   002347 7100 00         	tra	proc_info.e
    002346  a8   000010 001530          	zero	4*2,proc_info.t
    002347                              proc_info.e:
    002347  0a   000361 7020 00         	tsx2	.setup
    002350  aa   000000 6340 07         	ldi	=0,dl
    002351  4a  4 03236 3521 20         	short_call proc_info$proc_info(ap|0)
    002352  aa  7 00036 6701 20
    002353  aa  6 00030 3701 20
    002354  9a  4 01530 3521 00         	eppbp	lp|proc_info.t
    002355  0a   000424 7100 00         	tra	.return_code
    001530                              proc_info.t:
    001530                              	bss	,gate_entry_data_size

                                   150  	hgate	quota_get,quota,qget,8,bad_dir_trap
                        000162          	segdef	quota_get
    000162                              quota_get:
    000162  0a   002357 7100 00         	tra	quota_get.e
    002356  a8   000020 001540          	zero	8*2,quota_get.t
    002357                              quota_get.e:
    002357  0a   000361 7020 00         	tsx2	.setup
    002360  0a   003634 7000 00         	tsx0	.set_dir_trap
    002361  aa   000000 6340 07         	ldi	=0,dl
    002362  4a  4 03240 3521 20         	short_call quota$qget(ap|0)
    002363  aa  7 00036 6701 20
    002364  aa  6 00030 3701 20
    002365  9a  4 01540 3521 00         	eppbp	lp|quota_get.t
    002366  0a   000424 7100 00         	tra	.return_code
    001540                              quota_get.t:
    001540                              	bss	,gate_entry_data_size

                                   151  	hgate	quota_read,quota,qread,8,bad_dir_trap
                        000163          	segdef	quota_read
    000163                              quota_read:
    000163  0a   002370 7100 00         	tra	quota_read.e
    002367  a8   000020 001550          	zero	8*2,quota_read.t
    002370                              quota_read.e:
    002370  0a   000361 7020 00         	tsx2	.setup
    002371  0a   003634 7000 00         	tsx0	.set_dir_trap
    002372  aa   000000 6340 07         	ldi	=0,dl
    002373  4a  4 03242 3521 20         	short_call quota$qread(ap|0)
    002374  aa  7 00036 6701 20
    002375  aa  6 00030 3701 20
    002376  9a  4 01550 3521 00         	eppbp	lp|quota_read.t
    002377  0a   000424 7100 00         	tra	.return_code
    001550                              quota_read.t:
    001550                              	bss	,gate_entry_data_size

                                   152  	hgate	quota_move,quota,qmove,4,bad_dir_trap
                        000164          	segdef	quota_move
    000164                              quota_move:
    000164  0a   002401 7100 00         	tra	quota_move.e
    002400  a8   000010 001560          	zero	4*2,quota_move.t
    002401                              quota_move.e:
    002401  0a   000361 7020 00         	tsx2	.setup
    002402  0a   003634 7000 00         	tsx0	.set_dir_trap
    002403  aa   000000 6340 07         	ldi	=0,dl
    002404  4a  4 03244 3521 20         	short_call quota$qmove(ap|0)
    002405  aa  7 00036 6701 20
    002406  aa  6 00030 3701 20
    002407  9a  4 01560 3521 00         	eppbp	lp|quota_move.t
    002410  0a   000424 7100 00         	tra	.return_code
    001560                              quota_move.t:
    001560                              	bss	,gate_entry_data_size

                                   153  	hgate	read_events,fast_hc_ipc,read_events,2
                        000165          	segdef	read_events
    000165                              read_events:
    000165  0a   002412 7100 00         	tra	read_events.e
    002411  a8   000004 001570          	zero	2*2,read_events.t
    002412                              read_events.e:
    002412  0a   000361 7020 00         	tsx2	.setup
    002413  aa   000000 6340 07         	ldi	=0,dl
    002414  4a  4 03246 3521 20         	short_call fast_hc_ipc$read_events(ap|0)
    002415  aa  7 00036 6701 20
    002416  aa  6 00030 3701 20
    002417  9a  4 01570 3521 00         	eppbp	lp|read_events.t
    002420  0a   000424 7100 00         	tra	.return_code
    001570                              read_events.t:
    001570                              	bss	,gate_entry_data_size

                                   154  	hgate	release_segment_numbers,kst_util,free_range,3
                        000166          	segdef	release_segment_numbers
    000166                              release_segment_numbers:
    000166  0a   002422 7100 00         	tra	release_segment_numbers.e
    002421  a8   000006 001600          	zero	3*2,release_segment_numbers.t
    002422                              release_segment_numbers.e:
    002422  0a   000361 7020 00         	tsx2	.setup
    002423  aa   000000 6340 07         	ldi	=0,dl
    002424  4a  4 03250 3521 20         	short_call kst_util$free_range(ap|0)
    002425  aa  7 00036 6701 20
    002426  aa  6 00030 3701 20
    002427  9a  4 01600 3521 00         	eppbp	lp|release_segment_numbers.t
    002430  0a   000424 7100 00         	tra	.return_code
    001600                              release_segment_numbers.t:
    001600                              	bss	,gate_entry_data_size

                                   155  	hgate	replace_acl,asd_,replace_sall,6,bad_dir_trap
                        000167          	segdef	replace_acl
    000167                              replace_acl:
    000167  0a   002432 7100 00         	tra	replace_acl.e
    002431  a8   000014 001610          	zero	6*2,replace_acl.t
    002432                              replace_acl.e:
    002432  0a   000361 7020 00         	tsx2	.setup
    002433  0a   003634 7000 00         	tsx0	.set_dir_trap
    002434  aa   000000 6340 07         	ldi	=0,dl
    002435  4a  4 03252 3521 20         	short_call asd_$replace_sall(ap|0)
    002436  aa  7 00036 6701 20
    002437  aa  6 00030 3701 20
    002440  9a  4 01610 3521 00         	eppbp	lp|replace_acl.t
    002441  0a   000424 7100 00         	tra	.return_code
    001610                              replace_acl.t:
    001610                              	bss	,gate_entry_data_size

                                   156  	hgate	replace_dir_acl,asd_,replace_dall,6,bad_dir_trap
                        000170          	segdef	replace_dir_acl
    000170                              replace_dir_acl:
    000170  0a   002443 7100 00         	tra	replace_dir_acl.e
    002442  a8   000014 001620          	zero	6*2,replace_dir_acl.t
    002443                              replace_dir_acl.e:
    002443  0a   000361 7020 00         	tsx2	.setup
    002444  0a   003634 7000 00         	tsx0	.set_dir_trap
    002445  aa   000000 6340 07         	ldi	=0,dl
    002446  4a  4 03254 3521 20         	short_call asd_$replace_dall(ap|0)
    002447  aa  7 00036 6701 20
    002450  aa  6 00030 3701 20
    002451  9a  4 01620 3521 00         	eppbp	lp|replace_dir_acl.t
    002452  0a   000424 7100 00         	tra	.return_code
    001620                              replace_dir_acl.t:
    001620                              	bss	,gate_entry_data_size

                                   157  	hgate	replace_dir_inacl,asd_,replace_idall,7,bad_dir_trap
                        000171          	segdef	replace_dir_inacl
    000171                              replace_dir_inacl:
    000171  0a   002454 7100 00         	tra	replace_dir_inacl.e
    002453  a8   000016 001630          	zero	7*2,replace_dir_inacl.t
    002454                              replace_dir_inacl.e:
    002454  0a   000361 7020 00         	tsx2	.setup
    002455  0a   003634 7000 00         	tsx0	.set_dir_trap
    002456  aa   000000 6340 07         	ldi	=0,dl
    002457  4a  4 03256 3521 20         	short_call asd_$replace_idall(ap|0)
    002460  aa  7 00036 6701 20
    002461  aa  6 00030 3701 20
    002462  9a  4 01630 3521 00         	eppbp	lp|replace_dir_inacl.t
    002463  0a   000424 7100 00         	tra	.return_code
    001630                              replace_dir_inacl.t:
    001630                              	bss	,gate_entry_data_size

                                   158  	hgate	replace_inacl,asd_,replace_isall,7,bad_dir_trap
                        000172          	segdef	replace_inacl
    000172                              replace_inacl:
    000172  0a   002465 7100 00         	tra	replace_inacl.e
    002464  a8   000016 001640          	zero	7*2,replace_inacl.t
    002465                              replace_inacl.e:
    002465  0a   000361 7020 00         	tsx2	.setup
    002466  0a   003634 7000 00         	tsx0	.set_dir_trap
    002467  aa   000000 6340 07         	ldi	=0,dl
    002470  4a  4 03260 3521 20         	short_call asd_$replace_isall(ap|0)
    002471  aa  7 00036 6701 20
    002472  aa  6 00030 3701 20
    002473  9a  4 01640 3521 00         	eppbp	lp|replace_inacl.t
    002474  0a   000424 7100 00         	tra	.return_code
    001640                              replace_inacl.t:
    001640                              	bss	,gate_entry_data_size

                                   159  	hgate	reserve_segment_numbers,kst_util,get_range,3
                        000173          	segdef	reserve_segment_numbers
    000173                              reserve_segment_numbers:
    000173  0a   002476 7100 00         	tra	reserve_segment_numbers.e
    002475  a8   000006 001650          	zero	3*2,reserve_segment_numbers.t
    002476                              reserve_segment_numbers.e:
    002476  0a   000361 7020 00         	tsx2	.setup
    002477  aa   000000 6340 07         	ldi	=0,dl
    002500  4a  4 03262 3521 20         	short_call kst_util$get_range(ap|0)
    002501  aa  7 00036 6701 20
    002502  aa  6 00030 3701 20
    002503  9a  4 01650 3521 00         	eppbp	lp|reserve_segment_numbers.t
    002504  0a   000424 7100 00         	tra	.return_code
    001650                              reserve_segment_numbers.t:
    001650                              	bss	,gate_entry_data_size

                                   160  	fgate	reset_ips_mask,ips_,reset_ips_mask,2
                        000174          	segdef	reset_ips_mask
    000174                              reset_ips_mask:
    000174  0a   002506 7100 00         	tra	reset_ips_mask.e
    002505  aa   000000 000000          	zero	0,0
    002506                              reset_ips_mask.e:
    002506  aa   000000 6340 07         	ldi	=0,dl
    002507  0a   000312 3700 20         	epplp	.my_lp,*
    002510  4a  4 03264 7101 20         	tra	ips_$reset_ips_mask

                                   161  	hgate	reset_working_set,page,reset_working_set,0
                        000175          	segdef	reset_working_set
    000175                              reset_working_set:
    000175  0a   002512 7100 00         	tra	reset_working_set.e
    002511  a8   000000 001660          	zero	0*2,reset_working_set.t
    002512                              reset_working_set.e:
    002512  0a   000361 7020 00         	tsx2	.setup
    002513  aa   000000 6340 07         	ldi	=0,dl
    002514  4a  4 03266 3521 20         	short_call page$reset_working_set(ap|0)
    002515  aa  7 00036 6701 20
    002516  aa  6 00030 3701 20
    002517  9a  4 01660 3521 00         	eppbp	lp|reset_working_set.t
    002520  0a   000424 7100 00         	tra	.return_code
    001660                              reset_working_set.t:
    001660                              	bss	,gate_entry_data_size

                                   162  	hgate	set_256K_switch,kst_util,set_256K_switch,3
                        000176          	segdef	set_256K_switch
    000176                              set_256K_switch:
    000176  0a   002522 7100 00         	tra	set_256K_switch.e
    002521  a8   000006 001670          	zero	3*2,set_256K_switch.t
    002522                              set_256K_switch.e:
    002522  0a   000361 7020 00         	tsx2	.setup
    002523  aa   000000 6340 07         	ldi	=0,dl
    002524  4a  4 03270 3521 20         	short_call kst_util$set_256K_switch(ap|0)
    002525  aa  7 00036 6701 20
    002526  aa  6 00030 3701 20
    002527  9a  4 01670 3521 00         	eppbp	lp|set_256K_switch.t
    002530  0a   000424 7100 00         	tra	.return_code
    001670                              set_256K_switch.t:
    001670                              	bss	,gate_entry_data_size

                                   163  	hgate	set_alarm,set_alarm_timer,set_alarm,2
                        000177          	segdef	set_alarm
    000177                              set_alarm:
    000177  0a   002532 7100 00         	tra	set_alarm.e
    002531  a8   000004 001700          	zero	2*2,set_alarm.t
    002532                              set_alarm.e:
    002532  0a   000361 7020 00         	tsx2	.setup
    002533  aa   000000 6340 07         	ldi	=0,dl
    002534  4a  4 03272 3521 20         	short_call set_alarm_timer$set_alarm(ap|0)
    002535  aa  7 00036 6701 20
    002536  aa  6 00030 3701 20
    002537  9a  4 01700 3521 00         	eppbp	lp|set_alarm.t
    002540  0a   000424 7100 00         	tra	.return_code
    001700                              set_alarm.t:
    001700                              	bss	,gate_entry_data_size

                                   164  	hgate	set_alarm_timer,set_alarm_timer,set_alarm_timer,3
                        000200          	segdef	set_alarm_timer
    000200                              set_alarm_timer:
    000200  0a   002542 7100 00         	tra	set_alarm_timer.e
    002541  a8   000006 001710          	zero	3*2,set_alarm_timer.t
    002542                              set_alarm_timer.e:
    002542  0a   000361 7020 00         	tsx2	.setup
    002543  aa   000000 6340 07         	ldi	=0,dl
    002544  4a  4 03274 3521 20         	short_call set_alarm_timer$set_alarm_timer(ap|0)
    002545  aa  7 00036 6701 20
    002546  aa  6 00030 3701 20
    002547  9a  4 01710 3521 00         	eppbp	lp|set_alarm_timer.t
    002550  0a   000424 7100 00         	tra	.return_code
    001710                              set_alarm_timer.t:
    001710                              	bss	,gate_entry_data_size

                                   165  	fgate	set_automatic_ips_mask,ips_,set_automatic_ips_mask,2
                        000201          	segdef	set_automatic_ips_mask
    000201                              set_automatic_ips_mask:
    000201  0a   002552 7100 00         	tra	set_automatic_ips_mask.e
    002551  aa   000000 000000          	zero	0,0
    002552                              set_automatic_ips_mask.e:
    002552  aa   000000 6340 07         	ldi	=0,dl
    002553  0a   000312 3700 20         	epplp	.my_lp,*
    002554  4a  4 03276 7101 20         	tra	ips_$set_automatic_ips_mask

                                   166  	hgate	set_bc,set,bc,4,bad_dir_trap
                        000202          	segdef	set_bc
    000202                              set_bc:
    000202  0a   002556 7100 00         	tra	set_bc.e
    002555  a8   000010 001720          	zero	4*2,set_bc.t
    002556                              set_bc.e:
    002556  0a   000361 7020 00         	tsx2	.setup
    002557  0a   003634 7000 00         	tsx0	.set_dir_trap
    002560  aa   000000 6340 07         	ldi	=0,dl
    002561  4a  4 03300 3521 20         	short_call set$bc(ap|0)
    002562  aa  7 00036 6701 20
    002563  aa  6 00030 3701 20
    002564  9a  4 01720 3521 00         	eppbp	lp|set_bc.t
    002565  0a   000424 7100 00         	tra	.return_code
    001720                              set_bc.t:
    001720                              	bss	,gate_entry_data_size

                                   167  	hgate	set_bc_seg,set,bc_seg,3,bad_dir_trap
                        000203          	segdef	set_bc_seg
    000203                              set_bc_seg:
    000203  0a   002567 7100 00         	tra	set_bc_seg.e
    002566  a8   000006 001730          	zero	3*2,set_bc_seg.t
    002567                              set_bc_seg.e:
    002567  0a   000361 7020 00         	tsx2	.setup
    002570  0a   003634 7000 00         	tsx0	.set_dir_trap
    002571  aa   000000 6340 07         	ldi	=0,dl
    002572  4a  4 03302 3521 20         	short_call set$bc_seg(ap|0)
    002573  aa  7 00036 6701 20
    002574  aa  6 00030 3701 20
    002575  9a  4 01730 3521 00         	eppbp	lp|set_bc_seg.t
    002576  0a   000424 7100 00         	tra	.return_code
    001730                              set_bc_seg.t:
    001730                              	bss	,gate_entry_data_size

                                   168  	hgate	set_copysw,set,copysw,4,bad_dir_trap
                        000204          	segdef	set_copysw
    000204                              set_copysw:
    000204  0a   002600 7100 00         	tra	set_copysw.e
    002577  a8   000010 001740          	zero	4*2,set_copysw.t
    002600                              set_copysw.e:
    002600  0a   000361 7020 00         	tsx2	.setup
    002601  0a   003634 7000 00         	tsx0	.set_dir_trap
    002602  aa   000000 6340 07         	ldi	=0,dl
    002603  4a  4 03304 3521 20         	short_call set$copysw(ap|0)
    002604  aa  7 00036 6701 20
    002605  aa  6 00030 3701 20
    002606  9a  4 01740 3521 00         	eppbp	lp|set_copysw.t
    002607  0a   000424 7100 00         	tra	.return_code
    001740                              set_copysw.t:
    001740                              	bss	,gate_entry_data_size

                                   169  	hgate	set_cpu_timer,pxss,set_cpu_timer,3
                        000205          	segdef	set_cpu_timer
    000205                              set_cpu_timer:
    000205  0a   002611 7100 00         	tra	set_cpu_timer.e
    002610  a8   000006 001750          	zero	3*2,set_cpu_timer.t
    002611                              set_cpu_timer.e:
    002611  0a   000361 7020 00         	tsx2	.setup
    002612  aa   000000 6340 07         	ldi	=0,dl
    002613  4a  4 03306 3521 20         	short_call pxss$set_cpu_timer(ap|0)
    002614  aa  7 00036 6701 20
    002615  aa  6 00030 3701 20
    002616  9a  4 01750 3521 00         	eppbp	lp|set_cpu_timer.t
    002617  0a   000424 7100 00         	tra	.return_code
    001750                              set_cpu_timer.t:
    001750                              	bss	,gate_entry_data_size

                                   170  	hgate	set_damaged_sw,set,damaged_sw_path,4,bad_dir_trap
                        000206          	segdef	set_damaged_sw
    000206                              set_damaged_sw:
    000206  0a   002621 7100 00         	tra	set_damaged_sw.e
    002620  a8   000010 001760          	zero	4*2,set_damaged_sw.t
    002621                              set_damaged_sw.e:
    002621  0a   000361 7020 00         	tsx2	.setup
    002622  0a   003634 7000 00         	tsx0	.set_dir_trap
    002623  aa   000000 6340 07         	ldi	=0,dl
    002624  4a  4 03310 3521 20         	short_call set$damaged_sw_path(ap|0)
    002625  aa  7 00036 6701 20
    002626  aa  6 00030 3701 20
    002627  9a  4 01760 3521 00         	eppbp	lp|set_damaged_sw.t
    002630  0a   000424 7100 00         	tra	.return_code
    001760                              set_damaged_sw.t:
    001760                              	bss	,gate_entry_data_size

                                   171  	hgate	set_damaged_sw_seg,set,damaged_sw_ptr,3,bad_dir_trap
                        000207          	segdef	set_damaged_sw_seg
    000207                              set_damaged_sw_seg:
    000207  0a   002632 7100 00         	tra	set_damaged_sw_seg.e
    002631  a8   000006 001770          	zero	3*2,set_damaged_sw_seg.t
    002632                              set_damaged_sw_seg.e:
    002632  0a   000361 7020 00         	tsx2	.setup
    002633  0a   003634 7000 00         	tsx0	.set_dir_trap
    002634  aa   000000 6340 07         	ldi	=0,dl
    002635  4a  4 03312 3521 20         	short_call set$damaged_sw_ptr(ap|0)
    002636  aa  7 00036 6701 20
    002637  aa  6 00030 3701 20
    002640  9a  4 01770 3521 00         	eppbp	lp|set_damaged_sw_seg.t
    002641  0a   000424 7100 00         	tra	.return_code
    001770                              set_damaged_sw_seg.t:
    001770                              	bss	,gate_entry_data_size

                                   172  	hgate	set_dir_ring_brackets,ringbr_,set_dir,4,bad_dir_trap
                        000210          	segdef	set_dir_ring_brackets
    000210                              set_dir_ring_brackets:
    000210  0a   002643 7100 00         	tra	set_dir_ring_brackets.e
    002642  a8   000010 002000          	zero	4*2,set_dir_ring_brackets.t
    002643                              set_dir_ring_brackets.e:
    002643  0a   000361 7020 00         	tsx2	.setup
    002644  0a   003634 7000 00         	tsx0	.set_dir_trap
    002645  aa   000000 6340 07         	ldi	=0,dl
    002646  4a  4 03314 3521 20         	short_call ringbr_$set_dir(ap|0)
    002647  aa  7 00036 6701 20
    002650  aa  6 00030 3701 20
    002651  9a  4 02000 3521 00         	eppbp	lp|set_dir_ring_brackets.t
    002652  0a   000424 7100 00         	tra	.return_code
    002000                              set_dir_ring_brackets.t:
    002000                              	bss	,gate_entry_data_size

                                   173  	hgate	set_dnzp_sw,set,dnzp_sw_path,4,bad_dir_trap
                        000211          	segdef	set_dnzp_sw
    000211                              set_dnzp_sw:
    000211  0a   002654 7100 00         	tra	set_dnzp_sw.e
    002653  a8   000010 002010          	zero	4*2,set_dnzp_sw.t
    002654                              set_dnzp_sw.e:
    002654  0a   000361 7020 00         	tsx2	.setup
    002655  0a   003634 7000 00         	tsx0	.set_dir_trap
    002656  aa   000000 6340 07         	ldi	=0,dl
    002657  4a  4 03316 3521 20         	short_call set$dnzp_sw_path(ap|0)
    002660  aa  7 00036 6701 20
    002661  aa  6 00030 3701 20
    002662  9a  4 02010 3521 00         	eppbp	lp|set_dnzp_sw.t
    002663  0a   000424 7100 00         	tra	.return_code
    002010                              set_dnzp_sw.t:
    002010                              	bss	,gate_entry_data_size

                                   174  	hgate	set_dnzp_sw_seg,set,dnzp_sw_ptr,3,bad_dir_trap
                        000212          	segdef	set_dnzp_sw_seg
    000212                              set_dnzp_sw_seg:
    000212  0a   002665 7100 00         	tra	set_dnzp_sw_seg.e
    002664  a8   000006 002020          	zero	3*2,set_dnzp_sw_seg.t
    002665                              set_dnzp_sw_seg.e:
    002665  0a   000361 7020 00         	tsx2	.setup
    002666  0a   003634 7000 00         	tsx0	.set_dir_trap
    002667  aa   000000 6340 07         	ldi	=0,dl
    002670  4a  4 03320 3521 20         	short_call set$dnzp_sw_ptr(ap|0)
    002671  aa  7 00036 6701 20
    002672  aa  6 00030 3701 20
    002673  9a  4 02020 3521 00         	eppbp	lp|set_dnzp_sw_seg.t
    002674  0a   000424 7100 00         	tra	.return_code
    002020                              set_dnzp_sw_seg.t:
    002020                              	bss	,gate_entry_data_size

                                   175  	hgate	set_entry_bound,set,entry_bound_path,4,bad_dir_trap
                        000213          	segdef	set_entry_bound
    000213                              set_entry_bound:
    000213  0a   002676 7100 00         	tra	set_entry_bound.e
    002675  a8   000010 002030          	zero	4*2,set_entry_bound.t
    002676                              set_entry_bound.e:
    002676  0a   000361 7020 00         	tsx2	.setup
    002677  0a   003634 7000 00         	tsx0	.set_dir_trap
    002700  aa   000000 6340 07         	ldi	=0,dl
    002701  4a  4 03322 3521 20         	short_call set$entry_bound_path(ap|0)
    002702  aa  7 00036 6701 20
    002703  aa  6 00030 3701 20
    002704  9a  4 02030 3521 00         	eppbp	lp|set_entry_bound.t
    002705  0a   000424 7100 00         	tra	.return_code
    002030                              set_entry_bound.t:
    002030                              	bss	,gate_entry_data_size

                                   176  	hgate	set_entry_bound_seg,set,entry_bound_ptr,3,bad_dir_trap
                        000214          	segdef	set_entry_bound_seg
    000214                              set_entry_bound_seg:
    000214  0a   002707 7100 00         	tra	set_entry_bound_seg.e
    002706  a8   000006 002040          	zero	3*2,set_entry_bound_seg.t
    002707                              set_entry_bound_seg.e:
    002707  0a   000361 7020 00         	tsx2	.setup
    002710  0a   003634 7000 00         	tsx0	.set_dir_trap
    002711  aa   000000 6340 07         	ldi	=0,dl
    002712  4a  4 03324 3521 20         	short_call set$entry_bound_ptr(ap|0)
    002713  aa  7 00036 6701 20
    002714  aa  6 00030 3701 20
    002715  9a  4 02040 3521 00         	eppbp	lp|set_entry_bound_seg.t
    002716  0a   000424 7100 00         	tra	.return_code
    002040                              set_entry_bound_seg.t:
    002040                              	bss	,gate_entry_data_size

                                   177  	hgate     set_exponent_control,hc_exponent_control,exponent_control_set,4
                        000215          	segdef	set_exponent_control
    000215                              set_exponent_control:
    000215  0a   002720 7100 00         	tra	set_exponent_control.e
    002717  a8   000010 002050          	zero	4*2,set_exponent_control.t
    002720                              set_exponent_control.e:
    002720  0a   000361 7020 00         	tsx2	.setup
    002721  aa   000000 6340 07         	ldi	=0,dl
    002722  4a  4 03326 3521 20         	short_call hc_exponent_control$exponent_control_set(ap|0)
    002723  aa  7 00036 6701 20
    002724  aa  6 00030 3701 20
    002725  9a  4 02050 3521 00         	eppbp	lp|set_exponent_control.t
    002726  0a   000424 7100 00         	tra	.return_code
    002050                              set_exponent_control.t:
    002050                              	bss	,gate_entry_data_size

                                   178  	hgate	set_hex_exponent_control,hc_exponent_control,hex_exponent_control_set,4
                        000216          	segdef	set_hex_exponent_control
    000216                              set_hex_exponent_control:
    000216  0a   002730 7100 00         	tra	set_hex_exponent_control.e
    002727  a8   000010 002060          	zero	4*2,set_hex_exponent_control.t
    002730                              set_hex_exponent_control.e:
    002730  0a   000361 7020 00         	tsx2	.setup
    002731  aa   000000 6340 07         	ldi	=0,dl
    002732  4a  4 03330 3521 20         	short_call hc_exponent_control$hex_exponent_control_set(ap|0)
    002733  aa  7 00036 6701 20
    002734  aa  6 00030 3701 20
    002735  9a  4 02060 3521 00         	eppbp	lp|set_hex_exponent_control.t
    002736  0a   000424 7100 00         	tra	.return_code
    002060                              set_hex_exponent_control.t:
    002060                              	bss	,gate_entry_data_size

                                   179  	hgate	set_hexfp_control,hc_exponent_control,set_hexfp_control,3
                        000217          	segdef	set_hexfp_control
    000217                              set_hexfp_control:
    000217  0a   002740 7100 00         	tra	set_hexfp_control.e
    002737  a8   000006 002070          	zero	3*2,set_hexfp_control.t
    002740                              set_hexfp_control.e:
    002740  0a   000361 7020 00         	tsx2	.setup
    002741  aa   000000 6340 07         	ldi	=0,dl
    002742  4a  4 03332 3521 20         	short_call hc_exponent_control$set_hexfp_control(ap|0)
    002743  aa  7 00036 6701 20
    002744  aa  6 00030 3701 20
    002745  9a  4 02070 3521 00         	eppbp	lp|set_hexfp_control.t
    002746  0a   000424 7100 00         	tra	.return_code
    002070                              set_hexfp_control.t:
    002070                              	bss	,gate_entry_data_size

                                   180  	fgate	set_ips_mask,ips_,set_ips_mask,2
                        000220          	segdef	set_ips_mask
    000220                              set_ips_mask:
    000220  0a   002750 7100 00         	tra	set_ips_mask.e
    002747  aa   000000 000000          	zero	0,0
    002750                              set_ips_mask.e:
    002750  aa   000000 6340 07         	ldi	=0,dl
    002751  0a   000312 3700 20         	epplp	.my_lp,*
    002752  4a  4 03334 7101 20         	tra	ips_$set_ips_mask

                                   181  	hgate	set_max_length,set,max_length_path,4,bad_dir_trap
                        000221          	segdef	set_max_length
    000221                              set_max_length:
    000221  0a   002754 7100 00         	tra	set_max_length.e
    002753  a8   000010 002100          	zero	4*2,set_max_length.t
    002754                              set_max_length.e:
    002754  0a   000361 7020 00         	tsx2	.setup
    002755  0a   003634 7000 00         	tsx0	.set_dir_trap
    002756  aa   000000 6340 07         	ldi	=0,dl
    002757  4a  4 03336 3521 20         	short_call set$max_length_path(ap|0)
    002760  aa  7 00036 6701 20
    002761  aa  6 00030 3701 20
    002762  9a  4 02100 3521 00         	eppbp	lp|set_max_length.t
    002763  0a   000424 7100 00         	tra	.return_code
    002100                              set_max_length.t:
    002100                              	bss	,gate_entry_data_size

                                   182  	hgate	set_max_length_seg,set,max_length_ptr,3,bad_dir_trap
                        000222          	segdef	set_max_length_seg
    000222                              set_max_length_seg:
    000222  0a   002765 7100 00         	tra	set_max_length_seg.e
    002764  a8   000006 002110          	zero	3*2,set_max_length_seg.t
    002765                              set_max_length_seg.e:
    002765  0a   000361 7020 00         	tsx2	.setup
    002766  0a   003634 7000 00         	tsx0	.set_dir_trap
    002767  aa   000000 6340 07         	ldi	=0,dl
    002770  4a  4 03340 3521 20         	short_call set$max_length_ptr(ap|0)
    002771  aa  7 00036 6701 20
    002772  aa  6 00030 3701 20
    002773  9a  4 02110 3521 00         	eppbp	lp|set_max_length_seg.t
    002774  0a   000424 7100 00         	tra	.return_code
    002110                              set_max_length_seg.t:
    002110                              	bss	,gate_entry_data_size

                                   183  	hgate	set_page_trace_signal,hc_page_trace,set_signal,6
                        000223          	segdef	set_page_trace_signal
    000223                              set_page_trace_signal:
    000223  0a   002776 7100 00         	tra	set_page_trace_signal.e
    002775  a8   000014 002120          	zero	6*2,set_page_trace_signal.t
    002776                              set_page_trace_signal.e:
    002776  0a   000361 7020 00         	tsx2	.setup
    002777  aa   000000 6340 07         	ldi	=0,dl
    003000  4a  4 03342 3521 20         	short_call hc_page_trace$set_signal(ap|0)
    003001  aa  7 00036 6701 20
    003002  aa  6 00030 3701 20
    003003  9a  4 02120 3521 00         	eppbp	lp|set_page_trace_signal.t
    003004  0a   000424 7100 00         	tra	.return_code
    002120                              set_page_trace_signal.t:
    002120                              	bss	,gate_entry_data_size

                                   184  	hgate	set_pl1_machine_mode,illegal_procedure,set_pl1_machine_mode,2
                        000224          	segdef	set_pl1_machine_mode
    000224                              set_pl1_machine_mode:
    000224  0a   003006 7100 00         	tra	set_pl1_machine_mode.e
    003005  a8   000004 002130          	zero	2*2,set_pl1_machine_mode.t
    003006                              set_pl1_machine_mode.e:
    003006  0a   000361 7020 00         	tsx2	.setup
    003007  aa   000000 6340 07         	ldi	=0,dl
    003010  4a  4 03344 3521 20         	short_call illegal_procedure$set_pl1_machine_mode(ap|0)
    003011  aa  7 00036 6701 20
    003012  aa  6 00030 3701 20
    003013  9a  4 02130 3521 00         	eppbp	lp|set_pl1_machine_mode.t
    003014  0a   000424 7100 00         	tra	.return_code
    002130                              set_pl1_machine_mode.t:
    002130                              	bss	,gate_entry_data_size

                                   185  	hgate	set_procs_required,set_procs_required,set_procs_required,2
                        000225          	segdef	set_procs_required
    000225                              set_procs_required:
    000225  0a   003016 7100 00         	tra	set_procs_required.e
    003015  a8   000004 002140          	zero	2*2,set_procs_required.t
    003016                              set_procs_required.e:
    003016  0a   000361 7020 00         	tsx2	.setup
    003017  aa   000000 6340 07         	ldi	=0,dl
    003020  4a  4 03346 3521 20         	short_call set_procs_required$set_procs_required(ap|0)
    003021  aa  7 00036 6701 20
    003022  aa  6 00030 3701 20
    003023  9a  4 02140 3521 00         	eppbp	lp|set_procs_required.t
    003024  0a   000424 7100 00         	tra	.return_code
    002140                              set_procs_required.t:
    002140                              	bss	,gate_entry_data_size

                                   186  	hgate	set_ring_brackets,ringbr_,set,4,bad_dir_trap
                        000226          	segdef	set_ring_brackets
    000226                              set_ring_brackets:
    000226  0a   003026 7100 00         	tra	set_ring_brackets.e
    003025  a8   000010 002150          	zero	4*2,set_ring_brackets.t
    003026                              set_ring_brackets.e:
    003026  0a   000361 7020 00         	tsx2	.setup
    003027  0a   003634 7000 00         	tsx0	.set_dir_trap
    003030  aa   000000 6340 07         	ldi	=0,dl
    003031  4a  4 03350 3521 20         	short_call ringbr_$set(ap|0)
    003032  aa  7 00036 6701 20
    003033  aa  6 00030 3701 20
    003034  9a  4 02150 3521 00         	eppbp	lp|set_ring_brackets.t
    003035  0a   000424 7100 00         	tra	.return_code
    002150                              set_ring_brackets.t:
    002150                              	bss	,gate_entry_data_size

                                   187  	hgate	set_safety_sw,set,safety_sw_path,4,bad_dir_trap
                        000227          	segdef	set_safety_sw
    000227                              set_safety_sw:
    000227  0a   003037 7100 00         	tra	set_safety_sw.e
    003036  a8   000010 002160          	zero	4*2,set_safety_sw.t
    003037                              set_safety_sw.e:
    003037  0a   000361 7020 00         	tsx2	.setup
    003040  0a   003634 7000 00         	tsx0	.set_dir_trap
    003041  aa   000000 6340 07         	ldi	=0,dl
    003042  4a  4 03352 3521 20         	short_call set$safety_sw_path(ap|0)
    003043  aa  7 00036 6701 20
    003044  aa  6 00030 3701 20
    003045  9a  4 02160 3521 00         	eppbp	lp|set_safety_sw.t
    003046  0a   000424 7100 00         	tra	.return_code
    002160                              set_safety_sw.t:
    002160                              	bss	,gate_entry_data_size

                                   188  	hgate	set_safety_sw_seg,set,safety_sw_ptr,3,bad_dir_trap
                        000230          	segdef	set_safety_sw_seg
    000230                              set_safety_sw_seg:
    000230  0a   003050 7100 00         	tra	set_safety_sw_seg.e
    003047  a8   000006 002170          	zero	3*2,set_safety_sw_seg.t
    003050                              set_safety_sw_seg.e:
    003050  0a   000361 7020 00         	tsx2	.setup
    003051  0a   003634 7000 00         	tsx0	.set_dir_trap
    003052  aa   000000 6340 07         	ldi	=0,dl
    003053  4a  4 03354 3521 20         	short_call set$safety_sw_ptr(ap|0)
    003054  aa  7 00036 6701 20
    003055  aa  6 00030 3701 20
    003056  9a  4 02170 3521 00         	eppbp	lp|set_safety_sw_seg.t
    003057  0a   000424 7100 00         	tra	.return_code
    002170                              set_safety_sw_seg.t:
    002170                              	bss	,gate_entry_data_size

                                   189  	fgate	set_stack_ptr,set_stack_ptr,set_stack_ptr,1
                        000231          	segdef	set_stack_ptr
    000231                              set_stack_ptr:
    000231  0a   003061 7100 00         	tra	set_stack_ptr.e
    003060  aa   000000 000000          	zero	0,0
    003061                              set_stack_ptr.e:
    003061  aa   000000 6340 07         	ldi	=0,dl
    003062  0a   000312 3700 20         	epplp	.my_lp,*
    003063  4a  4 03356 7101 20         	tra	set_stack_ptr$set_stack_ptr

                                   190  	hgate	set_synchronized_sw,set,synchronized_sw,4
                        000232          	segdef	set_synchronized_sw
    000232                              set_synchronized_sw:
    000232  0a   003065 7100 00         	tra	set_synchronized_sw.e
    003064  a8   000010 002200          	zero	4*2,set_synchronized_sw.t
    003065                              set_synchronized_sw.e:
    003065  0a   000361 7020 00         	tsx2	.setup
    003066  aa   000000 6340 07         	ldi	=0,dl
    003067  4a  4 03360 3521 20         	short_call set$synchronized_sw(ap|0)
    003070  aa  7 00036 6701 20
    003071  aa  6 00030 3701 20
    003072  9a  4 02200 3521 00         	eppbp	lp|set_synchronized_sw.t
    003073  0a   000424 7100 00         	tra	.return_code
    002200                              set_synchronized_sw.t:
    002200                              	bss	,gate_entry_data_size

                                   191  	hgate	set_timer,pxss,set_timer,2
                        000233          	segdef	set_timer
    000233                              set_timer:
    000233  0a   003075 7100 00         	tra	set_timer.e
    003074  a8   000004 002210          	zero	2*2,set_timer.t
    003075                              set_timer.e:
    003075  0a   000361 7020 00         	tsx2	.setup
    003076  aa   000000 6340 07         	ldi	=0,dl
    003077  4a  4 03362 3521 20         	short_call pxss$set_timer(ap|0)
    003100  aa  7 00036 6701 20
    003101  aa  6 00030 3701 20
    003102  9a  4 02210 3521 00         	eppbp	lp|set_timer.t
    003103  0a   000424 7100 00         	tra	.return_code
    002210                              set_timer.t:
    002210                              	bss	,gate_entry_data_size

                                   192  	hgate	set_volume_dump_switches,set,volume_dump_switches,5,bad_dir_trap
                        000234          	segdef	set_volume_dump_switches
    000234                              set_volume_dump_switches:
    000234  0a   003105 7100 00         	tra	set_volume_dump_switches.e
    003104  a8   000012 002220          	zero	5*2,set_volume_dump_switches.t
    003105                              set_volume_dump_switches.e:
    003105  0a   000361 7020 00         	tsx2	.setup
    003106  0a   003634 7000 00         	tsx0	.set_dir_trap
    003107  aa   000000 6340 07         	ldi	=0,dl
    003110  4a  4 03364 3521 20         	short_call set$volume_dump_switches(ap|0)
    003111  aa  7 00036 6701 20
    003112  aa  6 00030 3701 20
    003113  9a  4 02220 3521 00         	eppbp	lp|set_volume_dump_switches.t
    003114  0a   000424 7100 00         	tra	.return_code
    002220                              set_volume_dump_switches.t:
    002220                              	bss	,gate_entry_data_size

                                   193  	hgate	star_,star_,star_,8,bad_dir_trap
                        000235          	segdef	star_
    000235                              star_:
    000235  0a   003116 7100 00         	tra	star_.e
    003115  a8   000020 002230          	zero	8*2,star_.t
    003116                              star_.e:
    003116  0a   000361 7020 00         	tsx2	.setup
    003117  0a   003634 7000 00         	tsx0	.set_dir_trap
    003120  aa   000000 6340 07         	ldi	=0,dl
    003121  4a  4 03366 3521 20         	short_call star_$star_(ap|0)
    003122  aa  7 00036 6701 20
    003123  aa  6 00030 3701 20
    003124  9a  4 02230 3521 00         	eppbp	lp|star_.t
    003125  0a   000424 7100 00         	tra	.return_code
    002230                              star_.t:
    002230                              	bss	,gate_entry_data_size

                                   194  	hgate	star_dir_list_,star_,dir_list_,9,bad_dir_trap
                        000236          	segdef	star_dir_list_
    000236                              star_dir_list_:
    000236  0a   003127 7100 00         	tra	star_dir_list_.e
    003126  a8   000022 002240          	zero	9*2,star_dir_list_.t
    003127                              star_dir_list_.e:
    003127  0a   000361 7020 00         	tsx2	.setup
    003130  0a   003634 7000 00         	tsx0	.set_dir_trap
    003131  aa   000000 6340 07         	ldi	=0,dl
    003132  4a  4 03370 3521 20         	short_call star_$dir_list_(ap|0)
    003133  aa  7 00036 6701 20
    003134  aa  6 00030 3701 20
    003135  9a  4 02240 3521 00         	eppbp	lp|star_dir_list_.t
    003136  0a   000424 7100 00         	tra	.return_code
    002240                              star_dir_list_.t:
    002240                              	bss	,gate_entry_data_size

                                   195  	hgate	star_list_,star_,list_,9,bad_dir_trap
                        000237          	segdef	star_list_
    000237                              star_list_:
    000237  0a   003140 7100 00         	tra	star_list_.e
    003137  a8   000022 002250          	zero	9*2,star_list_.t
    003140                              star_list_.e:
    003140  0a   000361 7020 00         	tsx2	.setup
    003141  0a   003634 7000 00         	tsx0	.set_dir_trap
    003142  aa   000000 6340 07         	ldi	=0,dl
    003143  4a  4 03372 3521 20         	short_call star_$list_(ap|0)
    003144  aa  7 00036 6701 20
    003145  aa  6 00030 3701 20
    003146  9a  4 02250 3521 00         	eppbp	lp|star_list_.t
    003147  0a   000424 7100 00         	tra	.return_code
    002250                              star_list_.t:
    002250                              	bss	,gate_entry_data_size

                                   196  	hgate	status_,status_,status_,6,bad_dir_trap
                        000240          	segdef	status_
    000240                              status_:
    000240  0a   003151 7100 00         	tra	status_.e
    003150  a8   000014 002260          	zero	6*2,status_.t
    003151                              status_.e:
    003151  0a   000361 7020 00         	tsx2	.setup
    003152  0a   003634 7000 00         	tsx0	.set_dir_trap
    003153  aa   000000 6340 07         	ldi	=0,dl
    003154  4a  4 03374 3521 20         	short_call status_$status_(ap|0)
    003155  aa  7 00036 6701 20
    003156  aa  6 00030 3701 20
    003157  9a  4 02260 3521 00         	eppbp	lp|status_.t
    003160  0a   000424 7100 00         	tra	.return_code
    002260                              status_.t:
    002260                              	bss	,gate_entry_data_size

                                   197  	hgate	status_for_backup,status_,status_for_backup,4,bad_dir_trap
                        000241          	segdef	status_for_backup
    000241                              status_for_backup:
    000241  0a   003162 7100 00         	tra	status_for_backup.e
    003161  a8   000010 002270          	zero	4*2,status_for_backup.t
    003162                              status_for_backup.e:
    003162  0a   000361 7020 00         	tsx2	.setup
    003163  0a   003634 7000 00         	tsx0	.set_dir_trap
    003164  aa   000000 6340 07         	ldi	=0,dl
    003165  4a  4 03376 3521 20         	short_call status_$status_for_backup(ap|0)
    003166  aa  7 00036 6701 20
    003167  aa  6 00030 3701 20
    003170  9a  4 02270 3521 00         	eppbp	lp|status_for_backup.t
    003171  0a   000424 7100 00         	tra	.return_code
    002270                              status_for_backup.t:
    002270                              	bss	,gate_entry_data_size

                                   198  	hgate	status_long,status_,long,6,bad_dir_trap
                        000242          	segdef	status_long
    000242                              status_long:
    000242  0a   003173 7100 00         	tra	status_long.e
    003172  a8   000014 002300          	zero	6*2,status_long.t
    003173                              status_long.e:
    003173  0a   000361 7020 00         	tsx2	.setup
    003174  0a   003634 7000 00         	tsx0	.set_dir_trap
    003175  aa   000000 6340 07         	ldi	=0,dl
    003176  4a  4 03400 3521 20         	short_call status_$long(ap|0)
    003177  aa  7 00036 6701 20
    003200  aa  6 00030 3701 20
    003201  9a  4 02300 3521 00         	eppbp	lp|status_long.t
    003202  0a   000424 7100 00         	tra	.return_code
    002300                              status_long.t:
    002300                              	bss	,gate_entry_data_size

                                   199  	hgate	status_minf,status_,minf,6,bad_dir_trap
                        000243          	segdef	status_minf
    000243                              status_minf:
    000243  0a   003204 7100 00         	tra	status_minf.e
    003203  a8   000014 002310          	zero	6*2,status_minf.t
    003204                              status_minf.e:
    003204  0a   000361 7020 00         	tsx2	.setup
    003205  0a   003634 7000 00         	tsx0	.set_dir_trap
    003206  aa   000000 6340 07         	ldi	=0,dl
    003207  4a  4 03402 3521 20         	short_call status_$minf(ap|0)
    003210  aa  7 00036 6701 20
    003211  aa  6 00030 3701 20
    003212  9a  4 02310 3521 00         	eppbp	lp|status_minf.t
    003213  0a   000424 7100 00         	tra	.return_code
    002310                              status_minf.t:
    002310                              	bss	,gate_entry_data_size

                                   200  	hgate	status_mins,status_,mins,4,bad_dir_trap
                        000244          	segdef	status_mins
    000244                              status_mins:
    000244  0a   003215 7100 00         	tra	status_mins.e
    003214  a8   000010 002320          	zero	4*2,status_mins.t
    003215                              status_mins.e:
    003215  0a   000361 7020 00         	tsx2	.setup
    003216  0a   003634 7000 00         	tsx0	.set_dir_trap
    003217  aa   000000 6340 07         	ldi	=0,dl
    003220  4a  4 03404 3521 20         	short_call status_$mins(ap|0)
    003221  aa  7 00036 6701 20
    003222  aa  6 00030 3701 20
    003223  9a  4 02320 3521 00         	eppbp	lp|status_mins.t
    003224  0a   000424 7100 00         	tra	.return_code
    002320                              status_mins.t:
    002320                              	bss	,gate_entry_data_size

                                   201  	hgate	stop_process,stop_process,stop_process,1
                        000245          	segdef	stop_process
    000245                              stop_process:
    000245  0a   003226 7100 00         	tra	stop_process.e
    003225  a8   000002 002330          	zero	1*2,stop_process.t
    003226                              stop_process.e:
    003226  0a   000361 7020 00         	tsx2	.setup
    003227  aa   000000 6340 07         	ldi	=0,dl
    003230  4a  4 03406 3521 20         	short_call stop_process$stop_process(ap|0)
    003231  aa  7 00036 6701 20
    003232  aa  6 00030 3701 20
    003233  9a  4 02330 3521 00         	eppbp	lp|stop_process.t
    003234  0a   000424 7100 00         	tra	.return_code
    002330                              stop_process.t:
    002330                              	bss	,gate_entry_data_size

                                   202  	hgate	terminate_file,terminate_,tefile,4
                        000246          	segdef	terminate_file
    000246                              terminate_file:
    000246  0a   003236 7100 00         	tra	terminate_file.e
    003235  a8   000010 002340          	zero	4*2,terminate_file.t
    003236                              terminate_file.e:
    003236  0a   000361 7020 00         	tsx2	.setup
    003237  aa   000000 6340 07         	ldi	=0,dl
    003240  4a  4 03410 3521 20         	short_call terminate_$tefile(ap|0)
    003241  aa  7 00036 6701 20
    003242  aa  6 00030 3701 20
    003243  9a  4 02340 3521 00         	eppbp	lp|terminate_file.t
    003244  0a   000424 7100 00         	tra	.return_code
    002340                              terminate_file.t:
    002340                              	bss	,gate_entry_data_size

                                   203  	hgate	terminate_name,terminate_,name,2
                        000247          	segdef	terminate_name
    000247                              terminate_name:
    000247  0a   003246 7100 00         	tra	terminate_name.e
    003245  a8   000004 002350          	zero	2*2,terminate_name.t
    003246                              terminate_name.e:
    003246  0a   000361 7020 00         	tsx2	.setup
    003247  aa   000000 6340 07         	ldi	=0,dl
    003250  4a  4 03412 3521 20         	short_call terminate_$name(ap|0)
    003251  aa  7 00036 6701 20
    003252  aa  6 00030 3701 20
    003253  9a  4 02350 3521 00         	eppbp	lp|terminate_name.t
    003254  0a   000424 7100 00         	tra	.return_code
    002350                              terminate_name.t:
    002350                              	bss	,gate_entry_data_size

                                   204  	hgate	terminate_noname,terminate_,noname,2
                        000250          	segdef	terminate_noname
    000250                              terminate_noname:
    000250  0a   003256 7100 00         	tra	terminate_noname.e
    003255  a8   000004 002360          	zero	2*2,terminate_noname.t
    003256                              terminate_noname.e:
    003256  0a   000361 7020 00         	tsx2	.setup
    003257  aa   000000 6340 07         	ldi	=0,dl
    003260  4a  4 03414 3521 20         	short_call terminate_$noname(ap|0)
    003261  aa  7 00036 6701 20
    003262  aa  6 00030 3701 20
    003263  9a  4 02360 3521 00         	eppbp	lp|terminate_noname.t
    003264  0a   000424 7100 00         	tra	.return_code
    002360                              terminate_noname.t:
    002360                              	bss	,gate_entry_data_size

                                   205  	hgate	terminate_seg,terminate_,teseg,3
                        000251          	segdef	terminate_seg
    000251                              terminate_seg:
    000251  0a   003266 7100 00         	tra	terminate_seg.e
    003265  a8   000006 002370          	zero	3*2,terminate_seg.t
    003266                              terminate_seg.e:
    003266  0a   000361 7020 00         	tsx2	.setup
    003267  aa   000000 6340 07         	ldi	=0,dl
    003270  4a  4 03416 3521 20         	short_call terminate_$teseg(ap|0)
    003271  aa  7 00036 6701 20
    003272  aa  6 00030 3701 20
    003273  9a  4 02370 3521 00         	eppbp	lp|terminate_seg.t
    003274  0a   000424 7100 00         	tra	.return_code
    002370                              terminate_seg.t:
    002370                              	bss	,gate_entry_data_size

                                   206  	hgate	trace_marker,page,trace_marker,1
                        000252          	segdef	trace_marker
    000252                              trace_marker:
    000252  0a   003276 7100 00         	tra	trace_marker.e
    003275  a8   000002 002400          	zero	1*2,trace_marker.t
    003276                              trace_marker.e:
    003276  0a   000361 7020 00         	tsx2	.setup
    003277  aa   000000 6340 07         	ldi	=0,dl
    003300  4a  4 03420 3521 20         	short_call page$trace_marker(ap|0)
    003301  aa  7 00036 6701 20
    003302  aa  6 00030 3701 20
    003303  9a  4 02400 3521 00         	eppbp	lp|trace_marker.t
    003304  0a   000424 7100 00         	tra	.return_code
    002400                              trace_marker.t:
    002400                              	bss	,gate_entry_data_size

                                   207  	hgate	truncate_file,truncate,trfile,4,bad_dir_trap
                        000253          	segdef	truncate_file
    000253                              truncate_file:
    000253  0a   003306 7100 00         	tra	truncate_file.e
    003305  a8   000010 002410          	zero	4*2,truncate_file.t
    003306                              truncate_file.e:
    003306  0a   000361 7020 00         	tsx2	.setup
    003307  0a   003634 7000 00         	tsx0	.set_dir_trap
    003310  aa   000000 6340 07         	ldi	=0,dl
    003311  4a  4 03422 3521 20         	short_call truncate$trfile(ap|0)
    003312  aa  7 00036 6701 20
    003313  aa  6 00030 3701 20
    003314  9a  4 02410 3521 00         	eppbp	lp|truncate_file.t
    003315  0a   000424 7100 00         	tra	.return_code
    002410                              truncate_file.t:
    002410                              	bss	,gate_entry_data_size

                                   208  	hgate	truncate_seg,truncate,trseg,3,bad_dir_trap
                        000254          	segdef	truncate_seg
    000254                              truncate_seg:
    000254  0a   003317 7100 00         	tra	truncate_seg.e
    003316  a8   000006 002420          	zero	3*2,truncate_seg.t
    003317                              truncate_seg.e:
    003317  0a   000361 7020 00         	tsx2	.setup
    003320  0a   003634 7000 00         	tsx0	.set_dir_trap
    003321  aa   000000 6340 07         	ldi	=0,dl
    003322  4a  4 03424 3521 20         	short_call truncate$trseg(ap|0)
    003323  aa  7 00036 6701 20
    003324  aa  6 00030 3701 20
    003325  9a  4 02420 3521 00         	eppbp	lp|truncate_seg.t
    003326  0a   000424 7100 00         	tra	.return_code
    002420                              truncate_seg.t:
    002420                              	bss	,gate_entry_data_size

                                   209  	hgate	try_to_unlock_lock,try_to_unlock_lock,try_to_unlock_lock,2
                        000255          	segdef	try_to_unlock_lock
    000255                              try_to_unlock_lock:
    000255  0a   003330 7100 00         	tra	try_to_unlock_lock.e
    003327  a8   000004 002430          	zero	2*2,try_to_unlock_lock.t
    003330                              try_to_unlock_lock.e:
    003330  0a   000361 7020 00         	tsx2	.setup
    003331  aa   000000 6340 07         	ldi	=0,dl
    003332  4a  4 03426 3521 20         	short_call try_to_unlock_lock$try_to_unlock_lock(ap|0)
    003333  aa  7 00036 6701 20
    003334  aa  6 00030 3701 20
    003335  9a  4 02430 3521 00         	eppbp	lp|try_to_unlock_lock.t
    003336  0a   000424 7100 00         	tra	.return_code
    002430                              try_to_unlock_lock.t:
    002430                              	bss	,gate_entry_data_size

                                   210  	hgate	tty_abort,tty_abort,tty_abort,4
                        000256          	segdef	tty_abort
    000256                              tty_abort:
    000256  0a   003340 7100 00         	tra	tty_abort.e
    003337  a8   000010 002440          	zero	4*2,tty_abort.t
    003340                              tty_abort.e:
    003340  0a   000361 7020 00         	tsx2	.setup
    003341  aa   000000 6340 07         	ldi	=0,dl
    003342  4a  4 03430 3521 20         	short_call tty_abort$tty_abort(ap|0)
    003343  aa  7 00036 6701 20
    003344  aa  6 00030 3701 20
    003345  9a  4 02440 3521 00         	eppbp	lp|tty_abort.t
    003346  0a   000424 7100 00         	tra	.return_code
    002440                              tty_abort.t:
    002440                              	bss	,gate_entry_data_size

                                   211  	hgate	tty_attach,tty_attach,tty_attach,5
                        000257          	segdef	tty_attach
    000257                              tty_attach:
    000257  0a   003350 7100 00         	tra	tty_attach.e
    003347  a8   000012 002450          	zero	5*2,tty_attach.t
    003350                              tty_attach.e:
    003350  0a   000361 7020 00         	tsx2	.setup
    003351  aa   000000 6340 07         	ldi	=0,dl
    003352  4a  4 03432 3521 20         	short_call tty_attach$tty_attach(ap|0)
    003353  aa  7 00036 6701 20
    003354  aa  6 00030 3701 20
    003355  9a  4 02450 3521 00         	eppbp	lp|tty_attach.t
    003356  0a   000424 7100 00         	tra	.return_code
    002450                              tty_attach.t:
    002450                              	bss	,gate_entry_data_size

                                   212  	hgate	tty_detach,tty_detach,tty_detach,4
                        000260          	segdef	tty_detach
    000260                              tty_detach:
    000260  0a   003360 7100 00         	tra	tty_detach.e
    003357  a8   000010 002460          	zero	4*2,tty_detach.t
    003360                              tty_detach.e:
    003360  0a   000361 7020 00         	tsx2	.setup
    003361  aa   000000 6340 07         	ldi	=0,dl
    003362  4a  4 03434 3521 20         	short_call tty_detach$tty_detach(ap|0)
    003363  aa  7 00036 6701 20
    003364  aa  6 00030 3701 20
    003365  9a  4 02460 3521 00         	eppbp	lp|tty_detach.t
    003366  0a   000424 7100 00         	tra	.return_code
    002460                              tty_detach.t:
    002460                              	bss	,gate_entry_data_size

                                   213  	hgate	tty_detach_new_proc,tty_detach,new_proc,4
                        000261          	segdef	tty_detach_new_proc
    000261                              tty_detach_new_proc:
    000261  0a   003370 7100 00         	tra	tty_detach_new_proc.e
    003367  a8   000010 002470          	zero	4*2,tty_detach_new_proc.t
    003370                              tty_detach_new_proc.e:
    003370  0a   000361 7020 00         	tsx2	.setup
    003371  aa   000000 6340 07         	ldi	=0,dl
    003372  4a  4 03436 3521 20         	short_call tty_detach$new_proc(ap|0)
    003373  aa  7 00036 6701 20
    003374  aa  6 00030 3701 20
    003375  9a  4 02470 3521 00         	eppbp	lp|tty_detach_new_proc.t
    003376  0a   000424 7100 00         	tra	.return_code
    002470                              tty_detach_new_proc.t:
    002470                              	bss	,gate_entry_data_size

                                   214  	hgate	tty_get_line,tty_read,tty_get_line,8
                        000262          	segdef	tty_get_line
    000262                              tty_get_line:
    000262  0a   003400 7100 00         	tra	tty_get_line.e
    003377  a8   000020 002500          	zero	8*2,tty_get_line.t
    003400                              tty_get_line.e:
    003400  0a   000361 7020 00         	tsx2	.setup
    003401  aa   000000 6340 07         	ldi	=0,dl
    003402  4a  4 03440 3521 20         	short_call tty_read$tty_get_line(ap|0)
    003403  aa  7 00036 6701 20
    003404  aa  6 00030 3701 20
    003405  9a  4 02500 3521 00         	eppbp	lp|tty_get_line.t
    003406  0a   000424 7100 00         	tra	.return_code
    002500                              tty_get_line.t:
    002500                              	bss	,gate_entry_data_size

                                   215  	hgate	tty_event,tty_index,tty_event,4
                        000263          	segdef	tty_event
    000263                              tty_event:
    000263  0a   003410 7100 00         	tra	tty_event.e
    003407  a8   000010 002510          	zero	4*2,tty_event.t
    003410                              tty_event.e:
    003410  0a   000361 7020 00         	tsx2	.setup
    003411  aa   000000 6340 07         	ldi	=0,dl
    003412  4a  4 03442 3521 20         	short_call tty_index$tty_event(ap|0)
    003413  aa  7 00036 6701 20
    003414  aa  6 00030 3701 20
    003415  9a  4 02510 3521 00         	eppbp	lp|tty_event.t
    003416  0a   000424 7100 00         	tra	.return_code
    002510                              tty_event.t:
    002510                              	bss	,gate_entry_data_size

                                   216  	hgate	tty_get_name,tty_index,tty_get_name,4
                        000264          	segdef	tty_get_name
    000264                              tty_get_name:
    000264  0a   003420 7100 00         	tra	tty_get_name.e
    003417  a8   000010 002520          	zero	4*2,tty_get_name.t
    003420                              tty_get_name.e:
    003420  0a   000361 7020 00         	tsx2	.setup
    003421  aa   000000 6340 07         	ldi	=0,dl
    003422  4a  4 03444 3521 20         	short_call tty_index$tty_get_name(ap|0)
    003423  aa  7 00036 6701 20
    003424  aa  6 00030 3701 20
    003425  9a  4 02520 3521 00         	eppbp	lp|tty_get_name.t
    003426  0a   000424 7100 00         	tra	.return_code
    002520                              tty_get_name.t:
    002520                              	bss	,gate_entry_data_size

                                   217  	hgate	tty_index,tty_index,tty_index,4
                        000265          	segdef	tty_index
    000265                              tty_index:
    000265  0a   003430 7100 00         	tra	tty_index.e
    003427  a8   000010 002530          	zero	4*2,tty_index.t
    003430                              tty_index.e:
    003430  0a   000361 7020 00         	tsx2	.setup
    003431  aa   000000 6340 07         	ldi	=0,dl
    003432  4a  4 03446 3521 20         	short_call tty_index$tty_index(ap|0)
    003433  aa  7 00036 6701 20
    003434  aa  6 00030 3701 20
    003435  9a  4 02530 3521 00         	eppbp	lp|tty_index.t
    003436  0a   000424 7100 00         	tra	.return_code
    002530                              tty_index.t:
    002530                              	bss	,gate_entry_data_size

                                   218  	hgate	tty_order,tty_order,tty_order,5
                        000266          	segdef	tty_order
    000266                              tty_order:
    000266  0a   003440 7100 00         	tra	tty_order.e
    003437  a8   000012 002540          	zero	5*2,tty_order.t
    003440                              tty_order.e:
    003440  0a   000361 7020 00         	tsx2	.setup
    003441  aa   000000 6340 07         	ldi	=0,dl
    003442  4a  4 03450 3521 20         	short_call tty_order$tty_order(ap|0)
    003443  aa  7 00036 6701 20
    003444  aa  6 00030 3701 20
    003445  9a  4 02540 3521 00         	eppbp	lp|tty_order.t
    003446  0a   000424 7100 00         	tra	.return_code
    002540                              tty_order.t:
    002540                              	bss	,gate_entry_data_size

                                   219  	hgate	tty_read,tty_read,tty_read,7
                        000267          	segdef	tty_read
    000267                              tty_read:
    000267  0a   003450 7100 00         	tra	tty_read.e
    003447  a8   000016 002550          	zero	7*2,tty_read.t
    003450                              tty_read.e:
    003450  0a   000361 7020 00         	tsx2	.setup
    003451  aa   000000 6340 07         	ldi	=0,dl
    003452  4a  4 03452 3521 20         	short_call tty_read$tty_read(ap|0)
    003453  aa  7 00036 6701 20
    003454  aa  6 00030 3701 20
    003455  9a  4 02550 3521 00         	eppbp	lp|tty_read.t
    003456  0a   000424 7100 00         	tra	.return_code
    002550                              tty_read.t:
    002550                              	bss	,gate_entry_data_size

                                   220  	hgate	tty_read_with_mark,tty_read,tty_read_with_mark,6
                        000270          	segdef	tty_read_with_mark
    000270                              tty_read_with_mark:
    000270  0a   003460 7100 00         	tra	tty_read_with_mark.e
    003457  a8   000014 002560          	zero	6*2,tty_read_with_mark.t
    003460                              tty_read_with_mark.e:
    003460  0a   000361 7020 00         	tsx2	.setup
    003461  aa   000000 6340 07         	ldi	=0,dl
    003462  4a  4 03454 3521 20         	short_call tty_read$tty_read_with_mark(ap|0)
    003463  aa  7 00036 6701 20
    003464  aa  6 00030 3701 20
    003465  9a  4 02560 3521 00         	eppbp	lp|tty_read_with_mark.t
    003466  0a   000424 7100 00         	tra	.return_code
    002560                              tty_read_with_mark.t:
    002560                              	bss	,gate_entry_data_size

                                   221  	hgate	tty_read_echoed,tty_read,tty_read_echoed,9
                        000271          	segdef	tty_read_echoed
    000271                              tty_read_echoed:
    000271  0a   003470 7100 00         	tra	tty_read_echoed.e
    003467  a8   000022 002570          	zero	9*2,tty_read_echoed.t
    003470                              tty_read_echoed.e:
    003470  0a   000361 7020 00         	tsx2	.setup
    003471  aa   000000 6340 07         	ldi	=0,dl
    003472  4a  4 03456 3521 20         	short_call tty_read$tty_read_echoed(ap|0)
    003473  aa  7 00036 6701 20
    003474  aa  6 00030 3701 20
    003475  9a  4 02570 3521 00         	eppbp	lp|tty_read_echoed.t
    003476  0a   000424 7100 00         	tra	.return_code
    002570                              tty_read_echoed.t:
    002570                              	bss	,gate_entry_data_size

                                   222  	hgate	tty_state,tty_state,tty_state,3
                        000272          	segdef	tty_state
    000272                              tty_state:
    000272  0a   003500 7100 00         	tra	tty_state.e
    003477  a8   000006 002600          	zero	3*2,tty_state.t
    003500                              tty_state.e:
    003500  0a   000361 7020 00         	tsx2	.setup
    003501  aa   000000 6340 07         	ldi	=0,dl
    003502  4a  4 03460 3521 20         	short_call tty_state$tty_state(ap|0)
    003503  aa  7 00036 6701 20
    003504  aa  6 00030 3701 20
    003505  9a  4 02600 3521 00         	eppbp	lp|tty_state.t
    003506  0a   000424 7100 00         	tra	.return_code
    002600                              tty_state.t:
    002600                              	bss	,gate_entry_data_size

                                   223  	hgate	tty_write,tty_write,tty_write,7
                        000273          	segdef	tty_write
    000273                              tty_write:
    000273  0a   003510 7100 00         	tra	tty_write.e
    003507  a8   000016 002610          	zero	7*2,tty_write.t
    003510                              tty_write.e:
    003510  0a   000361 7020 00         	tsx2	.setup
    003511  aa   000000 6340 07         	ldi	=0,dl
    003512  4a  4 03462 3521 20         	short_call tty_write$tty_write(ap|0)
    003513  aa  7 00036 6701 20
    003514  aa  6 00030 3701 20
    003515  9a  4 02610 3521 00         	eppbp	lp|tty_write.t
    003516  0a   000424 7100 00         	tra	.return_code
    002610                              tty_write.t:
    002610                              	bss	,gate_entry_data_size

                                   224  	hgate	tty_write_set_mark,tty_write,tty_write_set_mark,5
                        000274          	segdef	tty_write_set_mark
    000274                              tty_write_set_mark:
    000274  0a   003520 7100 00         	tra	tty_write_set_mark.e
    003517  a8   000012 002620          	zero	5*2,tty_write_set_mark.t
    003520                              tty_write_set_mark.e:
    003520  0a   000361 7020 00         	tsx2	.setup
    003521  aa   000000 6340 07         	ldi	=0,dl
    003522  4a  4 03464 3521 20         	short_call tty_write$tty_write_set_mark(ap|0)
    003523  aa  7 00036 6701 20
    003524  aa  6 00030 3701 20
    003525  9a  4 02620 3521 00         	eppbp	lp|tty_write_set_mark.t
    003526  0a   000424 7100 00         	tra	.return_code
    002620                              tty_write_set_mark.t:
    002620                              	bss	,gate_entry_data_size

                                   225  	hgate	tty_write_whole_string,tty_write,tty_write_whole_string,6
                        000275          	segdef	tty_write_whole_string
    000275                              tty_write_whole_string:
    000275  0a   003530 7100 00         	tra	tty_write_whole_string.e
    003527  a8   000014 002630          	zero	6*2,tty_write_whole_string.t
    003530                              tty_write_whole_string.e:
    003530  0a   000361 7020 00         	tsx2	.setup
    003531  aa   000000 6340 07         	ldi	=0,dl
    003532  4a  4 03466 3521 20         	short_call tty_write$tty_write_whole_string(ap|0)
    003533  aa  7 00036 6701 20
    003534  aa  6 00030 3701 20
    003535  9a  4 02630 3521 00         	eppbp	lp|tty_write_whole_string.t
    003536  0a   000424 7100 00         	tra	.return_code
    002630                              tty_write_whole_string.t:
    002630                              	bss	,gate_entry_data_size

                                   226  	fgate	unmask_ips,ips_,unmask_ips,2
                        000276          	segdef	unmask_ips
    000276                              unmask_ips:
    000276  0a   003540 7100 00         	tra	unmask_ips.e
    003537  aa   000000 000000          	zero	0,0
    003540                              unmask_ips.e:
    003540  aa   000000 6340 07         	ldi	=0,dl
    003541  0a   000312 3700 20         	epplp	.my_lp,*
    003542  4a  4 03470 7101 20         	tra	ips_$unmask_ips

                                   227  	fgate	usage_values,usage_values,usage_values,2
                        000277          	segdef	usage_values
    000277                              usage_values:
    000277  0a   003544 7100 00         	tra	usage_values.e
    003543  aa   000000 000000          	zero	0,0
    003544                              usage_values.e:
    003544  aa   000000 6340 07         	ldi	=0,dl
    003545  0a   000312 3700 20         	epplp	.my_lp,*
    003546  4a  4 03472 7101 20         	tra	usage_values$usage_values

                                   228  	hgate	validate_processid,tc_util,validate_processid,2
                        000300          	segdef	validate_processid
    000300                              validate_processid:
    000300  0a   003550 7100 00         	tra	validate_processid.e
    003547  a8   000004 002640          	zero	2*2,validate_processid.t
    003550                              validate_processid.e:
    003550  0a   000361 7020 00         	tsx2	.setup
    003551  aa   000000 6340 07         	ldi	=0,dl
    003552  4a  4 03474 3521 20         	short_call tc_util$validate_processid(ap|0)
    003553  aa  7 00036 6701 20
    003554  aa  6 00030 3701 20
    003555  9a  4 02640 3521 00         	eppbp	lp|validate_processid.t
    003556  0a   000424 7100 00         	tra	.return_code
    002640                              validate_processid.t:
    002640                              	bss	,gate_entry_data_size

                                   229  	hgate	wakeup,hc_ipc,ipc_wakeup,4
                        000301          	segdef	wakeup
    000301                              wakeup:
    000301  0a   003560 7100 00         	tra	wakeup.e
    003557  a8   000010 002650          	zero	4*2,wakeup.t
    003560                              wakeup.e:
    003560  0a   000361 7020 00         	tsx2	.setup
    003561  aa   000000 6340 07         	ldi	=0,dl
    003562  4a  4 03476 3521 20         	short_call hc_ipc$ipc_wakeup(ap|0)
    003563  aa  7 00036 6701 20
    003564  aa  6 00030 3701 20
    003565  9a  4 02650 3521 00         	eppbp	lp|wakeup.t
    003566  0a   000424 7100 00         	tra	.return_code
    002650                              wakeup.t:
    002650                              	bss	,gate_entry_data_size

                                   230
                                   231  " " " " " " " " " " " " " " " " " " " " " " " " " " "
                                   232  "
                                   233  "	The following code is in hcs_ for efficiency.
                                   234  "
                                   235  "
                                   236  "	The following entries are implemented here:
                                   237  "		cpu_time_and_paging_
                                   238  "		cpu_time_and_paging_op_
                                   239  "		virtual_cpu_time_
                                   240  "		virtual_cpu_time_op_
                                   241  "		total_cpu_time_
                                   242  "
                                   243  "	Modified 741214 by PG to be inhibited while doing calculations.
                                   244  "	Modified: 80/07/16 by PCK to move the code for these entries
                                   245  "		out of the transfer vector so that meter_gate does
                                   246  "		not get confused and to make the system more secure
                                   247  "
                                   248  " " " " " " " " " " " " " " " " " " " " " " " " " " "
                                   249
                                   250  "
                                   251  	use	transfer_vector
                        000302     252  	segdef	cpu_time_and_paging_
                        000302     253  	segdef	get_usage_values
    000302                         254  cpu_time_and_paging_:
    000302                         255  get_usage_values:
    000302  0a   003570 7100 00    256  	tra	cpu_time_and_paging_.e
                                   257  	use	main
    003567  aa   000000 000000     258  	zero	0,0
    003570                         259  cpu_time_and_paging_.e:
    003570  0a   000312 3700 20    260  	epplp	.my_lp,*
    003571                         261  	inhibit	on			<+><+><+><+><+>
    003571  4a  4 02664 6333 20    262  	rccl	sys_info$clock_,*		read the clock
    003572  4a  4 02666 1773 20    263  	sbaq	pds$cpu_time		convert to cpu time
    003573  4a  4 02670 1773 20    264  	sbaq	pds$virtual_delta		convert to virtual CPU time
    003574                         265  	inhibit	off			<-><-><-><-><->
    003574  aa  0 00004 7571 20    266  	staq	ap|4,*			return to caller
                                   267
    003575  4a  4 02672 2351 20    268  	lda	pds$page_waits		get the page faults for the process
    003576  aa  0 00002 7551 20    269  	sta	ap|2,*			return to caller
                                   270
    003577  aa  0 00006 4501 20    271  	stz	ap|6,*			(paging device page faults) return to caller
    003600  aa  7 00044 7101 20    272  	short_return
                                   273  "
                                   274  	use	transfer_vector
                        000303     275  	segdef	total_cpu_time_
    000303                         276  total_cpu_time_:
    000303  0a   003602 7100 00    277  	tra	total_cpu_time_.e
                                   278  	use	main
    003601  aa   000000 000000     279  	zero	0,0
    003602                         280  total_cpu_time_.e:
    003602  0a   000312 3700 20    281  	epplp	.my_lp,*
    003603                         282  	inhibit	on			<+><+><+><+><+>
    003603  4a  4 02664 6333 20    283  	rccl	sys_info$clock_,*		read the clock
    003604  4a  4 02666 1773 20    284  	sbaq	pds$cpu_time		convert to cpu time
    003605                         285  	inhibit	off			<-><-><-><-><->
    003605  aa  0 00002 7571 20    286  	staq	ap|2,*			return to caller
    003606  aa  7 00044 7101 20    287  	short_return
                                   288  "
                                   289  	use	transfer_vector
                        000304     290  	segdef	virtual_cpu_time_
    000304                         291  virtual_cpu_time_:
    000304  0a   003610 7100 00    292  	tra	virtual_cpu_time_.e
                                   293  	use	main
    003607  aa   000000 000000     294  	zero	0,0
    003610                         295  virtual_cpu_time_.e:
    003610  0a   000312 3700 20    296  	epplp	.my_lp,*
    003611                         297  	inhibit	on			<+><+><+><+><+>
    003611  4a  4 02664 6333 20    298  	rccl	sys_info$clock_,*		read the clock
    003612  4a  4 02666 1773 20    299  	sbaq	pds$cpu_time		convert to cpu time
    003613  4a  4 02670 1773 20    300  	sbaq	pds$virtual_delta		convert to virtual CPU time
    003614                         301  	inhibit	off			<-><-><-><-><->
    003614  aa  0 00002 7571 20    302  	staq	ap|2,*			return to caller
    003615  aa  7 00044 7101 20    303  	short_return
                                   304  "
                                   305  "	This operator is an internal interface for the convenience
                                   306  "	of pl1_operators_.  It returns the virtual cpu time of the calling
                                   307  "	process in the AQ, with the indicators properly set.  Note that
                                   308  "	this operator does not follow normal system conventions for
                                   309  "	argument passing.
                                   310  "
                                   311  "	NOTE WELL:  pl1_operators_ and compiled pl1 programs
                                   312  "	depend on the fact that this operator modifies only PR4, PR7,
                                   313  "	the AQ, and the indicators.  If the register usage of this
                                   314  "	operator must be changed, pl1_operators_ must also be changed
                                   315  "	to save and restore the affected registers.
                                   316  "
                                   317  	use	transfer_vector
                        000305     318  	segdef	virtual_cpu_time_op_
    000305                         319  virtual_cpu_time_op_:
    000305  0a   003617 7100 00    320  	tra	virtual_cpu_time_op_.e
                                   321  	use	main
    003616  aa   000000 000000     322  	zero	0,0
    003617                         323  virtual_cpu_time_op_.e:
    003617  0a   000312 3700 20    324  	epplp	.my_lp,*
    003620                         325  	inhibit	on		<+><+><+><+><+><+><+><+><+><+><+><+><+>
    003620  4a  4 02664 6333 20    326  	rccl	sys_info$clock_,*	read the calendar clock
    003621  4a  4 02666 1773 20    327  	sbaq	pds$cpu_time	adjust to real cpu time
    003622  4a  4 02670 1773 20    328  	sbaq	pds$virtual_delta	adjust to virtual cpu time
    003623                         329  	inhibit	off		<-><-><-><-><-><-><-><-><-><-><-><-><->
    003623  aa  6 00024 6101 00    330  	rtcd	sp|stack_frame.return_ptr	return to user program
                                   331  "
                                   332  "	This operator returns the virtual cpu time of the calling
                                   333  "	process in the AQ. (The indicators are not guaranteed).
                                   334  "	The number of page faults taken by the calling process
                                   335  "	is returned in X0 and X1 (upper 18 bits and lower 18 bits
                                   336  "	respectively).  Note that this operator does not follow
                                   337  "	normal system conventions for argument passing.
                                   338  "
                                   339  	use	transfer_vector
                        000306     340  	segdef	cpu_time_and_paging_op_
    000306                         341  cpu_time_and_paging_op_:
    000306  0a   003625 7100 00    342  	tra	cpu_time_and_paging_op_.e
                                   343  	use	main
    003624  aa   000000 000000     344  	zero	0,0
    003625                         345  cpu_time_and_paging_op_.e:
    003625  0a   000312 3700 20    346  	epplp	.my_lp,*
    003626                         347  	inhibit	on		<+><+><+><+><+><+><+><+><+><+><+><+><+>
    003626  4a  4 02664 6333 20    348  	rccl	sys_info$clock_,*	read the calendar clock
    003627  4a  4 02666 1773 20    349  	sbaq	pds$cpu_time	adjust to real cpu time
    003630  4a  4 02670 1773 20    350  	sbaq	pds$virtual_delta	adjust to virtual cpu time
    003631  4a  4 02672 2203 20    351  	ldx0	pds$page_waits	get upper 18 bits of page faults
    003632  4a  4 02672 7213 20    352  	lxl1	pds$page_waits	get lower 18 bits of page faults
    003633                         353  	inhibit	off		<-><-><-><-><-><-><-><-><-><-><-><-><->
    003633  aa  6 00024 6101 00    354  	rtcd	sp|stack_frame.return_ptr
                                   355
                                   356  	bad_dir_handler

                                        	include	on_unit
                                   5-1  "
                                   5-2  "	BEGIN INCLUDE FILE --- on_unit.incl.alm	5/75 RAB
                                   5-3  "
                        000000     5-4  	equ	on_unit.name,0
                        000002     5-5  	equ	on_unit.body,2
                        000004     5-6  	equ	on_unit.size,4
                        000005     5-7  	equ	on_unit.next,5	upper	offset relative to stack FRAME
                        000005     5-8  	equ	on_unit.flags,5	lower
                        000006     5-9  	equ	on_unit.file,6
                        000010    5-10  	equ	on_unit.file_copy,8
                                  5-11  "
                                  5-12  "	END INCLUDE FILE --- on_unit.incl.alm
                                  5-13  "

                                        	use	transfer_vector
    000307                              .handler_entry:
    000307  0a   003657 7100 00         	tra	.handler
    000310                              .handler_restart_entry:
    000310  0a   003717 7100 00         	tra	.handler_restart_point

                                        	use	main
    003634                              .set_dir_trap:
    003634  aa  6 00071 7401 00         	stx0	.entryp		save for restart

    003635  aa   000100 1004 00         	mlr	(),(pr),fill(000)
    003636  aa   000000 000000          	desc9a	0,0
    003637  aa   600056 000050          	desc9a	.on_unit,10*4
    003640  0a   003654 3520 00         	eppbp	.bad_dir_name
    003641  aa  6 00056 2521 00         	spribp	.on_unit+on_unit.name
    003642  0a   000307 3520 00         	eppbp	.handler_entry
    003643  aa  6 00060 2521 00         	spribp	.on_unit+on_unit.body
    003644  0a   003656 7210 00         	lxl1	.bad_dir_desc
    003645  aa  6 00062 4411 00         	sxl1	.on_unit+on_unit.size
    003646  aa  6 00056 6351 00         	eaa	.on_unit		set up on-unit for bad_dir_
    003647  aa  6 00000 1351 03         	sbla	sp|0,du		.. make rel to sp
    003650  aa  6 00036 7551 00         	sta	sp|stack_frame.on_unit_rel_ptrs
    003651  aa   000100 2350 07         	lda	stack_frame.condition_bit,dl
    003652  aa  6 00020 2551 00         	orsa	sp|stack_frame.flag_word
    003653  aa   000000 7100 10         	tra	0,0

                                        	string	bad_dir_
    003654                              .bad_dir_name:
    003654  aa  142 141 144 137         	aci	"bad_dir_"
    003655  aa  144 151 162 137
    003656                              .bad_dir_desc:
    003656  aa   525000 000010          	vfd	o9/525,o27/8


                                        

    003657  aa  6 00000 2131 00         .handler:	epaq	sp|0		verify that call came from ring 0
    003660  aa   777777 3150 07         	cana	-1,dl		check ring number in AL
    003661  0a   003663 6000 00         	tze	*+2
    003662  aa   000000 000000          	zero	0		go way kid you bother me

    003663  aa   000120 6270 00         	push			" ok, we like the call
    003664  aa  7 00040 2721 20
    003665  0a   000312 3700 20         	epplp	.my_lp,*
    003666  aa  0 00000 2201 00         	ldx0	ap|0		get display
    003667  aa  0 00002 3521 30         	eppbp	ap|2,0*
    003670  aa  2 00020 2351 00         	lda	bp|stack_frame.prev_sp
    003671  aa   700000 3150 07         	cana	=o700000,dl	from another ring?
    003672  0a   003714 6000 00         	tze	.continue_signal	if not, back to signal_
    003673  aa  0 00002 3501 20         	eppap	ap|2,*		Get mcptr
    003674  aa  0 00000 3501 20         	eppap	ap|0,*		..
    003675  aa  2 00076 2501 00         	spriap	bp|.mcptr		.. save in gate frame
    003676  aa  6 00054 2521 00         	spribp	.label_variable+2
    003677  0a   000310 3520 00         	eppbp	.handler_restart_entry
    003700  aa  6 00052 2521 00         	spribp	.label_variable
    003701  aa  6 00052 3521 00         	eppbp	.label_variable
    003702  aa  6 00060 2521 00         	spribp	.unwinder_arglist+2
    003703  aa   004000 4310 07         	fld	=1b24,dl
    003704  aa  6 00056 7571 00         	staq	.unwinder_arglist
    003705  aa  6 00000 2541 00         	call	unwinder_$unwinder_(.unwinder_arglist)
    003706  aa  6 00056 3501 00
    003707  4a  4 02662 3521 20
    003710  aa  6 00040 7531 00
    003711  aa  7 00036 6701 20
    003712  aa  6 00000 1731 00
    003713  aa  6 00040 0731 00

    003714                              .continue_signal:
    003714  aa   400000 2350 03         	lda	=o400000,du	"1"b
    003715  aa  0 00012 7551 20         	sta	ap|10,*		set continue bit
    003716  aa  7 00042 7101 20         	return

    003717                              .handler_restart_point:
    003717  aa  6 00000 2131 00         	epaq	sp|0		check that call came from ring 0
    003720  aa   777777 3150 07         	cana	-1,dl
    003721  0a   003723 6000 00         	tze	*+2
    003722  aa   000001 000000          	zero	1
    003723  0a   000312 3700 20         	epplp	.my_lp,*
    003724  aa   000101 3350 07         	lca	stack_frame.condition_bit+1,dl  Vanish on-unit
    003725  aa  6 00020 3551 00         	ansa	sp|stack_frame.flag_word
    003726  aa  6 00076 3521 00         	eppbp	.mcptr
    003727  aa  6 00074 2521 00         	spribp	.vfl_arglist+2
    003730  aa   004000 4310 07         	fld	=1b24,dl
    003731  aa  6 00072 7571 00         	staq	.vfl_arglist
    003732  4a  4 03500 3521 20         	short_call  verify_lock$verify_lock_bad_dir(.vfl_arglist)
    003733  aa  7 00036 6701 20
    003734  aa  6 00030 3701 20
    003735  aa  6 00071 2201 00         	ldx0	.entryp
    003736  aa  6 00032 3501 20         	eppap	sp|stack_frame.arg_ptr,*
    003737  aa   000000 7100 10         	tra	0,0		retry the call

                                        
                                   357
                                   358  	end

NO LITERALS

NAME DEFINITIONS FOR ENTRY POINTS AND SEGDEFS

    003740  5a   000003 000000
    003741  5a   002657 600000
    003742  aa   000000 000000
    003743  55   000010 000002
    003744  5a   000002 400003
    003745  55   000006 000010
    003746  aa  004 150 143 163
    003747  aa  137 000 000 000
    003750  55   000021 000003
    003751  0a   000306 400000
    003752  55   000013 000003
    003753  aa  027 143 160 165         cpu_time_and_paging_op_
    003754  aa  137 164 151 155
    003755  aa  145 137 141 156
    003756  aa  144 137 160 141
    003757  aa  147 151 156 147
    003760  aa  137 157 160 137
    003761  55   000032 000010
    003762  0a   000305 400000
    003763  55   000024 000003
    003764  aa  024 166 151 162         virtual_cpu_time_op_
    003765  aa  164 165 141 154
    003766  aa  137 143 160 165
    003767  aa  137 164 151 155
    003770  aa  145 137 157 160
    003771  aa  137 000 000 000
    003772  55   000042 000021
    003773  0a   000304 400000
    003774  55   000035 000003
    003775  aa  021 166 151 162         virtual_cpu_time_
    003776  aa  164 165 141 154
    003777  aa  137 143 160 165
    004000  aa  137 164 151 155
    004001  aa  145 137 000 000
    004002  55   000051 000032
    004003  0a   000303 400000
    004004  55   000045 000003
    004005  aa  017 164 157 164         total_cpu_time_
    004006  aa  141 154 137 143
    004007  aa  160 165 137 164
    004010  aa  151 155 145 137
    004011  55   000061 000042
    004012  0a   000302 400000
    004013  55   000054 000003
    004014  aa  020 147 145 164         get_usage_values
    004015  aa  137 165 163 141
    004016  aa  147 145 137 166
    004017  aa  141 154 165 145
    004020  aa  163 000 000 000
    004021  55   000072 000051
    004022  0a   000302 400000
    004023  55   000064 000003
    004024  aa  024 143 160 165         cpu_time_and_paging_
    004025  aa  137 164 151 155
    004026  aa  145 137 141 156
    004027  aa  144 137 160 141
    004030  aa  147 151 156 147
    004031  aa  137 000 000 000
    004032  55   000077 000061
    004033  0a   000301 400000
    004034  55   000075 000003
    004035  aa  006 167 141 153         wakeup
    004036  aa  145 165 160 000
    004037  55   000107 000072
    004040  0a   000300 400000
    004041  55   000102 000003
    004042  aa  022 166 141 154         validate_processid
    004043  aa  151 144 141 164
    004044  aa  145 137 160 162
    004045  aa  157 143 145 163
    004046  aa  163 151 144 000
    004047  55   000116 000077
    004050  0a   000277 400000
    004051  55   000112 000003
    004052  aa  014 165 163 141         usage_values
    004053  aa  147 145 137 166
    004054  aa  141 154 165 145
    004055  aa  163 000 000 000
    004056  55   000124 000107
    004057  0a   000276 400000
    004060  55   000121 000003
    004061  aa  012 165 156 155         unmask_ips
    004062  aa  141 163 153 137
    004063  aa  151 160 163 000
    004064  55   000135 000116
    004065  0a   000275 400000
    004066  55   000127 000003
    004067  aa  026 164 164 171         tty_write_whole_string
    004070  aa  137 167 162 151
    004071  aa  164 145 137 167
    004072  aa  150 157 154 145
    004073  aa  137 163 164 162
    004074  aa  151 156 147 000
    004075  55   000145 000124
    004076  0a   000274 400000
    004077  55   000140 000003
    004100  aa  022 164 164 171         tty_write_set_mark
    004101  aa  137 167 162 151
    004102  aa  164 145 137 163
    004103  aa  145 164 137 155
    004104  aa  141 162 153 000
    004105  55   000153 000135
    004106  0a   000273 400000
    004107  55   000150 000003
    004110  aa  011 164 164 171         tty_write
    004111  aa  137 167 162 151
    004112  aa  164 145 000 000
    004113  55   000161 000145
    004114  0a   000272 400000
    004115  55   000156 000003
    004116  aa  011 164 164 171         tty_state
    004117  aa  137 163 164 141
    004120  aa  164 145 000 000
    004121  55   000170 000153
    004122  0a   000271 400000
    004123  55   000164 000003
    004124  aa  017 164 164 171         tty_read_echoed
    004125  aa  137 162 145 141
    004126  aa  144 137 145 143
    004127  aa  150 157 145 144
    004130  55   000200 000161
    004131  0a   000270 400000
    004132  55   000173 000003
    004133  aa  022 164 164 171         tty_read_with_mark
    004134  aa  137 162 145 141
    004135  aa  144 137 167 151
    004136  aa  164 150 137 155
    004137  aa  141 162 153 000
    004140  55   000206 000170
    004141  0a   000267 400000
    004142  55   000203 000003
    004143  aa  010 164 164 171         tty_read
    004144  aa  137 162 145 141
    004145  aa  144 000 000 000
    004146  55   000214 000200
    004147  0a   000266 400000
    004150  55   000211 000003
    004151  aa  011 164 164 171         tty_order
    004152  aa  137 157 162 144
    004153  aa  145 162 000 000
    004154  55   000222 000206
    004155  0a   000265 400000
    004156  55   000217 000003
    004157  aa  011 164 164 171         tty_index
    004160  aa  137 151 156 144
    004161  aa  145 170 000 000
    004162  55   000231 000214
    004163  0a   000264 400000
    004164  55   000225 000003
    004165  aa  014 164 164 171         tty_get_name
    004166  aa  137 147 145 164
    004167  aa  137 156 141 155
    004170  aa  145 000 000 000
    004171  55   000237 000222
    004172  0a   000263 400000
    004173  55   000234 000003
    004174  aa  011 164 164 171         tty_event
    004175  aa  137 145 166 145
    004176  aa  156 164 000 000
    004177  55   000246 000231
    004200  0a   000262 400000
    004201  55   000242 000003
    004202  aa  014 164 164 171         tty_get_line
    004203  aa  137 147 145 164
    004204  aa  137 154 151 156
    004205  aa  145 000 000 000
    004206  55   000256 000237
    004207  0a   000261 400000
    004210  55   000251 000003
    004211  aa  023 164 164 171         tty_detach_new_proc
    004212  aa  137 144 145 164
    004213  aa  141 143 150 137
    004214  aa  156 145 167 137
    004215  aa  160 162 157 143
    004216  55   000264 000246
    004217  0a   000260 400000
    004220  55   000261 000003
    004221  aa  012 164 164 171         tty_detach
    004222  aa  137 144 145 164
    004223  aa  141 143 150 000
    004224  55   000272 000256
    004225  0a   000257 400000
    004226  55   000267 000003
    004227  aa  012 164 164 171         tty_attach
    004230  aa  137 141 164 164
    004231  aa  141 143 150 000
    004232  55   000300 000264
    004233  0a   000256 400000
    004234  55   000275 000003
    004235  aa  011 164 164 171         tty_abort
    004236  aa  137 141 142 157
    004237  aa  162 164 000 000
    004240  55   000310 000272
    004241  0a   000255 400000
    004242  55   000303 000003
    004243  aa  022 164 162 171         try_to_unlock_lock
    004244  aa  137 164 157 137
    004245  aa  165 156 154 157
    004246  aa  143 153 137 154
    004247  aa  157 143 153 000
    004250  55   000317 000300
    004251  0a   000254 400000
    004252  55   000313 000003
    004253  aa  014 164 162 165         truncate_seg
    004254  aa  156 143 141 164
    004255  aa  145 137 163 145
    004256  aa  147 000 000 000
    004257  55   000326 000310
    004260  0a   000253 400000
    004261  55   000322 000003
    004262  aa  015 164 162 165         truncate_file
    004263  aa  156 143 141 164
    004264  aa  145 137 146 151
    004265  aa  154 145 000 000
    004266  55   000335 000317
    004267  0a   000252 400000
    004270  55   000331 000003
    004271  aa  014 164 162 141         trace_marker
    004272  aa  143 145 137 155
    004273  aa  141 162 153 145
    004274  aa  162 000 000 000
    004275  55   000344 000326
    004276  0a   000251 400000
    004277  55   000340 000003
    004300  aa  015 164 145 162         terminate_seg
    004301  aa  155 151 156 141
    004302  aa  164 145 137 163
    004303  aa  145 147 000 000
    004304  55   000354 000335
    004305  0a   000250 400000
    004306  55   000347 000003
    004307  aa  020 164 145 162         terminate_noname
    004310  aa  155 151 156 141
    004311  aa  164 145 137 156
    004312  aa  157 156 141 155
    004313  aa  145 000 000 000
    004314  55   000363 000344
    004315  0a   000247 400000
    004316  55   000357 000003
    004317  aa  016 164 145 162         terminate_name
    004320  aa  155 151 156 141
    004321  aa  164 145 137 156
    004322  aa  141 155 145 000
    004323  55   000372 000354
    004324  0a   000246 400000
    004325  55   000366 000003
    004326  aa  016 164 145 162         terminate_file
    004327  aa  155 151 156 141
    004330  aa  164 145 137 146
    004331  aa  151 154 145 000
    004332  55   000401 000363
    004333  0a   000245 400000
    004334  55   000375 000003
    004335  aa  014 163 164 157         stop_process
    004336  aa  160 137 160 162
    004337  aa  157 143 145 163
    004340  aa  163 000 000 000
    004341  55   000407 000372
    004342  0a   000244 400000
    004343  55   000404 000003
    004344  aa  013 163 164 141         status_mins
    004345  aa  164 165 163 137
    004346  aa  155 151 156 163
    004347  55   000415 000401
    004350  0a   000243 400000
    004351  55   000412 000003
    004352  aa  013 163 164 141         status_minf
    004353  aa  164 165 163 137
    004354  aa  155 151 156 146
    004355  55   000423 000407
    004356  0a   000242 400000
    004357  55   000420 000003
    004360  aa  013 163 164 141         status_long
    004361  aa  164 165 163 137
    004362  aa  154 157 156 147
    004363  55   000433 000415
    004364  0a   000241 400000
    004365  55   000426 000003
    004366  aa  021 163 164 141         status_for_backup
    004367  aa  164 165 163 137
    004370  aa  146 157 162 137
    004371  aa  142 141 143 153
    004372  aa  165 160 000 000
    004373  55   000440 000423
    004374  0a   000240 400000
    004375  55   000436 000003
    004376  aa  007 163 164 141         status_
    004377  aa  164 165 163 137
    004400  55   000446 000433
    004401  0a   000237 400000
    004402  55   000443 000003
    004403  aa  012 163 164 141         star_list_
    004404  aa  162 137 154 151
    004405  aa  163 164 137 000
    004406  55   000455 000440
    004407  0a   000236 400000
    004410  55   000451 000003
    004411  aa  016 163 164 141         star_dir_list_
    004412  aa  162 137 144 151
    004413  aa  162 137 154 151
    004414  aa  163 164 137 000
    004415  55   000462 000446
    004416  0a   000235 400000
    004417  55   000460 000003
    004420  aa  005 163 164 141         star_
    004421  aa  162 137 000 000
    004422  55   000474 000455
    004423  0a   000234 400000
    004424  55   000465 000003
    004425  aa  030 163 145 164         set_volume_dump_switches
    004426  aa  137 166 157 154
    004427  aa  165 155 145 137
    004430  aa  144 165 155 160
    004431  aa  137 163 167 151
    004432  aa  164 143 150 145
    004433  aa  163 000 000 000
    004434  55   000502 000462
    004435  0a   000233 400000
    004436  55   000477 000003
    004437  aa  011 163 145 164         set_timer
    004440  aa  137 164 151 155
    004441  aa  145 162 000 000
    004442  55   000512 000474
    004443  0a   000232 400000
    004444  55   000505 000003
    004445  aa  023 163 145 164         set_synchronized_sw
    004446  aa  137 163 171 156
    004447  aa  143 150 162 157
    004450  aa  156 151 172 145
    004451  aa  144 137 163 167
    004452  55   000521 000502
    004453  0a   000231 400000
    004454  55   000515 000003
    004455  aa  015 163 145 164         set_stack_ptr
    004456  aa  137 163 164 141
    004457  aa  143 153 137 160
    004460  aa  164 162 000 000
    004461  55   000531 000512
    004462  0a   000230 400000
    004463  55   000524 000003
    004464  aa  021 163 145 164         set_safety_sw_seg
    004465  aa  137 163 141 146
    004466  aa  145 164 171 137
    004467  aa  163 167 137 163
    004470  aa  145 147 000 000
    004471  55   000540 000521
    004472  0a   000227 400000
    004473  55   000534 000003
    004474  aa  015 163 145 164         set_safety_sw
    004475  aa  137 163 141 146
    004476  aa  145 164 171 137
    004477  aa  163 167 000 000
    004500  55   000550 000531
    004501  0a   000226 400000
    004502  55   000543 000003
    004503  aa  021 163 145 164         set_ring_brackets
    004504  aa  137 162 151 156
    004505  aa  147 137 142 162
    004506  aa  141 143 153 145
    004507  aa  164 163 000 000
    004510  55   000560 000540
    004511  0a   000225 400000
    004512  55   000553 000003
    004513  aa  022 163 145 164         set_procs_required
    004514  aa  137 160 162 157
    004515  aa  143 163 137 162
    004516  aa  145 161 165 151
    004517  aa  162 145 144 000
    004520  55   000571 000550
    004521  0a   000224 400000
    004522  55   000563 000003
    004523  aa  024 163 145 164         set_pl1_machine_mode
    004524  aa  137 160 154 061
    004525  aa  137 155 141 143
    004526  aa  150 151 156 145
    004527  aa  137 155 157 144
    004530  aa  145 000 000 000
    004531  55   000602 000560
    004532  0a   000223 400000
    004533  55   000574 000003
    004534  aa  025 163 145 164         set_page_trace_signal
    004535  aa  137 160 141 147
    004536  aa  145 137 164 162
    004537  aa  141 143 145 137
    004540  aa  163 151 147 156
    004541  aa  141 154 000 000
    004542  55   000612 000571
    004543  0a   000222 400000
    004544  55   000605 000003
    004545  aa  022 163 145 164         set_max_length_seg
    004546  aa  137 155 141 170
    004547  aa  137 154 145 156
    004550  aa  147 164 150 137
    004551  aa  163 145 147 000
    004552  55   000621 000602
    004553  0a   000221 400000
    004554  55   000615 000003
    004555  aa  016 163 145 164         set_max_length
    004556  aa  137 155 141 170
    004557  aa  137 154 145 156
    004560  aa  147 164 150 000
    004561  55   000630 000612
    004562  0a   000220 400000
    004563  55   000624 000003
    004564  aa  014 163 145 164         set_ips_mask
    004565  aa  137 151 160 163
    004566  aa  137 155 141 163
    004567  aa  153 000 000 000
    004570  55   000640 000621
    004571  0a   000217 400000
    004572  55   000633 000003
    004573  aa  021 163 145 164         set_hexfp_control
    004574  aa  137 150 145 170
    004575  aa  146 160 137 143
    004576  aa  157 156 164 162
    004577  aa  157 154 000 000
    004600  55   000652 000630
    004601  0a   000216 400000
    004602  55   000643 000003
    004603  aa  030 163 145 164         set_hex_exponent_control
    004604  aa  137 150 145 170
    004605  aa  137 145 170 160
    004606  aa  157 156 145 156
    004607  aa  164 137 143 157
    004610  aa  156 164 162 157
    004611  aa  154 000 000 000
    004612  55   000663 000640
    004613  0a   000215 400000
    004614  55   000655 000003
    004615  aa  024 163 145 164         set_exponent_control
    004616  aa  137 145 170 160
    004617  aa  157 156 145 156
    004620  aa  164 137 143 157
    004621  aa  156 164 162 157
    004622  aa  154 000 000 000
    004623  55   000673 000652
    004624  0a   000214 400000
    004625  55   000666 000003
    004626  aa  023 163 145 164         set_entry_bound_seg
    004627  aa  137 145 156 164
    004630  aa  162 171 137 142
    004631  aa  157 165 156 144
    004632  aa  137 163 145 147
    004633  55   000702 000663
    004634  0a   000213 400000
    004635  55   000676 000003
    004636  aa  017 163 145 164         set_entry_bound
    004637  aa  137 145 156 164
    004640  aa  162 171 137 142
    004641  aa  157 165 156 144
    004642  55   000711 000673
    004643  0a   000212 400000
    004644  55   000705 000003
    004645  aa  017 163 145 164         set_dnzp_sw_seg
    004646  aa  137 144 156 172
    004647  aa  160 137 163 167
    004650  aa  137 163 145 147
    004651  55   000717 000702
    004652  0a   000211 400000
    004653  55   000714 000003
    004654  aa  013 163 145 164         set_dnzp_sw
    004655  aa  137 144 156 172
    004656  aa  160 137 163 167
    004657  55   000730 000711
    004660  0a   000210 400000
    004661  55   000722 000003
    004662  aa  025 163 145 164         set_dir_ring_brackets
    004663  aa  137 144 151 162
    004664  aa  137 162 151 156
    004665  aa  147 137 142 162
    004666  aa  141 143 153 145
    004667  aa  164 163 000 000
    004670  55   000740 000717
    004671  0a   000207 400000
    004672  55   000733 000003
    004673  aa  022 163 145 164         set_damaged_sw_seg
    004674  aa  137 144 141 155
    004675  aa  141 147 145 144
    004676  aa  137 163 167 137
    004677  aa  163 145 147 000
    004700  55   000747 000730
    004701  0a   000206 400000
    004702  55   000743 000003
    004703  aa  016 163 145 164         set_damaged_sw
    004704  aa  137 144 141 155
    004705  aa  141 147 145 144
    004706  aa  137 163 167 000
    004707  55   000756 000740
    004710  0a   000205 400000
    004711  55   000752 000003
    004712  aa  015 163 145 164         set_cpu_timer
    004713  aa  137 143 160 165
    004714  aa  137 164 151 155
    004715  aa  145 162 000 000
    004716  55   000764 000747
    004717  0a   000204 400000
    004720  55   000761 000003
    004721  aa  012 163 145 164         set_copysw
    004722  aa  137 143 157 160
    004723  aa  171 163 167 000
    004724  55   000772 000756
    004725  0a   000203 400000
    004726  55   000767 000003
    004727  aa  012 163 145 164         set_bc_seg
    004730  aa  137 142 143 137
    004731  aa  163 145 147 000
    004732  55   000777 000764
    004733  0a   000202 400000
    004734  55   000775 000003
    004735  aa  006 163 145 164         set_bc
    004736  aa  137 142 143 000
    004737  55   001010 000772
    004740  0a   000201 400000
    004741  55   001002 000003
    004742  aa  026 163 145 164         set_automatic_ips_mask
    004743  aa  137 141 165 164
    004744  aa  157 155 141 164
    004745  aa  151 143 137 151
    004746  aa  160 163 137 155
    004747  aa  141 163 153 000
    004750  55   001017 000777
    004751  0a   000200 400000
    004752  55   001013 000003
    004753  aa  017 163 145 164         set_alarm_timer
    004754  aa  137 141 154 141
    004755  aa  162 155 137 164
    004756  aa  151 155 145 162
    004757  55   001025 001010
    004760  0a   000177 400000
    004761  55   001022 000003
    004762  aa  011 163 145 164         set_alarm
    004763  aa  137 141 154 141
    004764  aa  162 155 000 000
    004765  55   001034 001017
    004766  0a   000176 400000
    004767  55   001030 000003
    004770  aa  017 163 145 164         set_256K_switch
    004771  aa  137 062 065 066
    004772  aa  113 137 163 167
    004773  aa  151 164 143 150
    004774  55   001044 001025
    004775  0a   000175 400000
    004776  55   001037 000003
    004777  aa  021 162 145 163         reset_working_set
    005000  aa  145 164 137 167
    005001  aa  157 162 153 151
    005002  aa  156 147 137 163
    005003  aa  145 164 000 000
    005004  55   001053 001034
    005005  0a   000174 400000
    005006  55   001047 000003
    005007  aa  016 162 145 163         reset_ips_mask
    005010  aa  145 164 137 151
    005011  aa  160 163 137 155
    005012  aa  141 163 153 000
    005013  55   001064 001044
    005014  0a   000173 400000
    005015  55   001056 000003
    005016  aa  027 162 145 163         reserve_segment_numbers
    005017  aa  145 162 166 145
    005020  aa  137 163 145 147
    005021  aa  155 145 156 164
    005022  aa  137 156 165 155
    005023  aa  142 145 162 163
    005024  55   001073 001053
    005025  0a   000172 400000
    005026  55   001067 000003
    005027  aa  015 162 145 160         replace_inacl
    005030  aa  154 141 143 145
    005031  aa  137 151 156 141
    005032  aa  143 154 000 000
    005033  55   001103 001064
    005034  0a   000171 400000
    005035  55   001076 000003
    005036  aa  021 162 145 160         replace_dir_inacl
    005037  aa  154 141 143 145
    005040  aa  137 144 151 162
    005041  aa  137 151 156 141
    005042  aa  143 154 000 000
    005043  55   001112 001073
    005044  0a   000170 400000
    005045  55   001106 000003
    005046  aa  017 162 145 160         replace_dir_acl
    005047  aa  154 141 143 145
    005050  aa  137 144 151 162
    005051  aa  137 141 143 154
    005052  55   001120 001103
    005053  0a   000167 400000
    005054  55   001115 000003
    005055  aa  013 162 145 160         replace_acl
    005056  aa  154 141 143 145
    005057  aa  137 141 143 154
    005060  55   001131 001112
    005061  0a   000166 400000
    005062  55   001123 000003
    005063  aa  027 162 145 154         release_segment_numbers
    005064  aa  145 141 163 145
    005065  aa  137 163 145 147
    005066  aa  155 145 156 164
    005067  aa  137 156 165 155
    005070  aa  142 145 162 163
    005071  55   001137 001120
    005072  0a   000165 400000
    005073  55   001134 000003
    005074  aa  013 162 145 141         read_events
    005075  aa  144 137 145 166
    005076  aa  145 156 164 163
    005077  55   001145 001131
    005100  0a   000164 400000
    005101  55   001142 000003
    005102  aa  012 161 165 157         quota_move
    005103  aa  164 141 137 155
    005104  aa  157 166 145 000
    005105  55   001153 001137
    005106  0a   000163 400000
    005107  55   001150 000003
    005110  aa  012 161 165 157         quota_read
    005111  aa  164 141 137 162
    005112  aa  145 141 144 000
    005113  55   001161 001145
    005114  0a   000162 400000
    005115  55   001156 000003
    005116  aa  011 161 165 157         quota_get
    005117  aa  164 141 137 147
    005120  aa  145 164 000 000
    005121  55   001167 001153
    005122  0a   000161 400000
    005123  55   001164 000003
    005124  aa  011 160 162 157         proc_info
    005125  aa  143 137 151 156
    005126  aa  146 157 000 000
    005127  55   001176 001161
    005130  0a   000160 400000
    005131  55   001172 000003
    005132  aa  015 160 162 145         pre_page_info
    005133  aa  137 160 141 147
    005134  aa  145 137 151 156
    005135  aa  146 157 000 000
    005136  55   001204 001167
    005137  0a   000157 400000
    005140  55   001201 000003
    005141  aa  010 155 141 163         mask_ips
    005142  aa  153 137 151 160
    005143  aa  163 000 000 000
    005144  55   001212 001176
    005145  0a   000156 400000
    005146  55   001207 000003
    005147  aa  013 155 141 153         makeunknown
    005150  aa  145 165 156 153
    005151  aa  156 157 167 156
    005152  55   001220 001204
    005153  0a   000155 400000
    005154  55   001215 000003
    005155  aa  010 155 141 153         make_seg
    005156  aa  145 137 163 145
    005157  aa  147 000 000 000
    005160  55   001226 001212
    005161  0a   000154 400000
    005162  55   001223 000003
    005163  aa  010 155 141 153         make_ptr
    005164  aa  145 137 160 164
    005165  aa  162 000 000 000
    005166  55   001234 001220
    005167  0a   000153 400000
    005170  55   001231 000003
    005171  aa  012 155 141 153         make_entry
    005172  aa  145 137 145 156
    005173  aa  164 162 171 000
    005174  55   001242 001226
    005175  0a   000152 400000
    005176  55   001237 000003
    005177  aa  013 154 166 137         lv_attached
    005200  aa  141 164 164 141
    005201  aa  143 150 145 144
    005202  55   001251 001234
    005203  0a   000151 400000
    005204  55   001245 000003
    005205  aa  016 154 151 163         list_inacl_all
    005206  aa  164 137 151 156
    005207  aa  141 143 154 137
    005210  aa  141 154 154 000
    005211  55   001257 001242
    005212  0a   000150 400000
    005213  55   001254 000003
    005214  aa  012 154 151 163         list_inacl
    005215  aa  164 137 151 156
    005216  aa  141 143 154 000
    005217  55   001266 001251
    005220  0a   000147 400000
    005221  55   001262 000003
    005222  aa  016 154 151 163         list_dir_inacl
    005223  aa  164 137 144 151
    005224  aa  162 137 151 156
    005225  aa  141 143 154 000
    005226  55   001275 001257
    005227  0a   000146 400000
    005230  55   001271 000003
    005231  aa  014 154 151 163         list_dir_acl
    005232  aa  164 137 144 151
    005233  aa  162 137 141 143
    005234  aa  154 000 000 000
    005235  55   001304 001266
    005236  0a   000145 400000
    005237  55   001300 000003
    005240  aa  015 154 151 163         list_dir_fast
    005241  aa  164 137 144 151
    005242  aa  162 137 146 141
    005243  aa  163 164 000 000
    005244  55   001312 001275
    005245  0a   000144 400000
    005246  55   001307 000003
    005247  aa  010 154 151 163         list_dir
    005250  aa  164 137 144 151
    005251  aa  162 000 000 000
    005252  55   001320 001304
    005253  0a   000143 400000
    005254  55   001315 000003
    005255  aa  010 154 151 163         list_acl
    005256  aa  164 137 141 143
    005257  aa  154 000 000 000
    005260  55   001326 001312
    005261  0a   000142 400000
    005262  55   001323 000003
    005263  aa  012 154 151 156         link_force
    005264  aa  153 137 146 157
    005265  aa  162 143 145 000
    005266  55   001334 001320
    005267  0a   000141 400000
    005270  55   001331 000003
    005271  aa  011 154 145 166         level_set
    005272  aa  145 154 137 163
    005273  aa  145 164 000 000
    005274  55   001342 001326
    005275  0a   000140 400000
    005276  55   001337 000003
    005277  aa  011 154 145 166         level_get
    005300  aa  145 154 137 147
    005301  aa  145 164 000 000
    005302  55   001353 001334
    005303  0a   000137 400000
    005304  55   001345 000003
    005305  aa  025 151 156 151         initiate_search_rules
    005306  aa  164 151 141 164
    005307  aa  145 137 163 145
    005310  aa  141 162 143 150
    005311  aa  137 162 165 154
    005312  aa  145 163 000 000
    005313  55   001362 001342
    005314  0a   000136 400000
    005315  55   001356 000003
    005316  aa  016 151 156 151         initiate_count
    005317  aa  164 151 141 164
    005320  aa  145 137 143 157
    005321  aa  165 156 164 000
    005322  55   001370 001353
    005323  0a   000135 400000
    005324  55   001365 000003
    005325  aa  010 151 156 151         initiate
    005326  aa  164 151 141 164
    005327  aa  145 000 000 000
    005330  55   001400 001362
    005331  0a   000134 400000
    005332  55   001373 000003
    005333  aa  020 150 151 163         history_regs_set
    005334  aa  164 157 162 171
    005335  aa  137 162 145 147
    005336  aa  163 137 163 145
    005337  aa  164 000 000 000
    005340  55   001410 001370
    005341  0a   000133 400000
    005342  55   001403 000003
    005343  aa  020 150 151 163         history_regs_get
    005344  aa  164 157 162 171
    005345  aa  137 162 145 147
    005346  aa  163 137 147 145
    005347  aa  164 000 000 000
    005350  55   001420 001400
    005351  0a   000132 400000
    005352  55   001413 000003
    005353  aa  022 150 151 147         high_low_seg_count
    005354  aa  150 137 154 157
    005355  aa  167 137 163 145
    005356  aa  147 137 143 157
    005357  aa  165 156 164 000
    005360  55   001426 001410
    005361  0a   000131 400000
    005362  55   001423 000003
    005363  aa  010 147 162 157         grow_lot
    005364  aa  167 137 154 157
    005365  aa  164 000 000 000
    005366  55   001440 001420
    005367  0a   000130 400000
    005370  55   001431 000003
    005371  aa  030 147 145 164         get_volume_dump_switches
    005372  aa  137 166 157 154
    005373  aa  165 155 145 137
    005374  aa  144 165 155 160
    005375  aa  137 163 167 151
    005376  aa  164 143 150 145
    005377  aa  163 000 000 000
    005400  55   001450 001426
    005401  0a   000127 400000
    005402  55   001443 000003
    005403  aa  021 147 145 164         get_user_raw_mode
    005404  aa  137 165 163 145
    005405  aa  162 137 162 141
    005406  aa  167 137 155 157
    005407  aa  144 145 000 000
    005410  55   001460 001440
    005411  0a   000126 400000
    005412  55   001453 000003
    005413  aa  020 147 145 164         get_user_effmode
    005414  aa  137 165 163 145
    005415  aa  162 137 145 146
    005416  aa  146 155 157 144
    005417  aa  145 000 000 000
    005420  55   001472 001450
    005421  0a   000125 400000
    005422  55   001463 000003
    005423  aa  031 147 145 164         get_user_access_modes_seg
    005424  aa  137 165 163 145
    005425  aa  162 137 141 143
    005426  aa  143 145 163 163
    005427  aa  137 155 157 144
    005430  aa  145 163 137 163
    005431  aa  145 147 000 000
    005432  55   001503 001460
    005433  0a   000124 400000
    005434  55   001475 000003
    005435  aa  025 147 145 164         get_user_access_modes
    005436  aa  137 165 163 145
    005437  aa  162 137 141 143
    005440  aa  143 145 163 163
    005441  aa  137 155 157 144
    005442  aa  145 163 000 000
    005443  55   001511 001472
    005444  0a   000123 400000
    005445  55   001506 000003
    005446  aa  013 147 145 164         get_uid_seg
    005447  aa  137 165 151 144
    005450  aa  137 163 145 147
    005451  55   001520 001503
    005452  0a   000122 400000
    005453  55   001514 000003
    005454  aa  014 147 145 164         get_uid_file
    005455  aa  137 165 151 144
    005456  aa  137 146 151 154
    005457  aa  145 000 000 000
    005460  55   001531 001511
    005461  0a   000121 400000
    005462  55   001523 000003
    005463  aa  027 147 145 164         get_system_search_rules
    005464  aa  137 163 171 163
    005465  aa  164 145 155 137
    005466  aa  163 145 141 162
    005467  aa  143 150 137 162
    005470  aa  165 154 145 163
    005471  55   001542 001520
    005472  0a   000120 400000
    005473  55   001534 000003
    005474  aa  024 147 145 164         get_segment_ptr_path
    005475  aa  137 163 145 147
    005476  aa  155 145 156 164
    005477  aa  137 160 164 162
    005500  aa  137 160 141 164
    005501  aa  150 000 000 000
    005502  55   001552 001531
    005503  0a   000117 400000
    005504  55   001545 000003
    005505  aa  020 147 145 164         get_search_rules
    005506  aa  137 163 145 141
    005507  aa  162 143 150 137
    005510  aa  162 165 154 145
    005511  aa  163 000 000 000
    005512  55   001562 001542
    005513  0a   000116 400000
    005514  55   001555 000003
    005515  aa  021 147 145 164         get_safety_sw_seg
    005516  aa  137 163 141 146
    005517  aa  145 164 171 137
    005520  aa  163 167 137 163
    005521  aa  145 147 000 000
    005522  55   001571 001552
    005523  0a   000115 400000
    005524  55   001565 000003
    005525  aa  015 147 145 164         get_safety_sw
    005526  aa  137 163 141 146
    005527  aa  145 164 171 137
    005530  aa  163 167 000 000
    005531  55   001602 001562
    005532  0a   000114 400000
    005533  55   001574 000003
    005534  aa  025 147 145 164         get_ring_brackets_seg
    005535  aa  137 162 151 156
    005536  aa  147 137 142 162
    005537  aa  141 143 153 145
    005540  aa  164 163 137 163
    005541  aa  145 147 000 000
    005542  55   001612 001571
    005543  0a   000113 400000
    005544  55   001605 000003
    005545  aa  021 147 145 164         get_ring_brackets
    005546  aa  137 162 151 156
    005547  aa  147 137 142 162
    005550  aa  141 143 153 145
    005551  aa  164 163 000 000
    005552  55   001622 001602
    005553  0a   000112 400000
    005554  55   001615 000003
    005555  aa  022 147 145 164         get_procs_required
    005556  aa  137 160 162 157
    005557  aa  143 163 137 162
    005560  aa  145 161 165 151
    005561  aa  162 145 144 000
    005562  55   001632 001612
    005563  0a   000111 400000
    005564  55   001625 000003
    005565  aa  021 147 145 164         get_process_usage
    005566  aa  137 160 162 157
    005567  aa  143 145 163 163
    005570  aa  137 165 163 141
    005571  aa  147 145 000 000
    005572  55   001643 001622
    005573  0a   000110 400000
    005574  55   001635 000003
    005575  aa  025 147 145 164         get_page_trace_signal
    005576  aa  137 160 141 147
    005577  aa  145 137 164 162
    005600  aa  141 143 145 137
    005601  aa  163 151 147 156
    005602  aa  141 154 000 000
    005603  55   001652 001632
    005604  0a   000107 400000
    005605  55   001646 000003
    005606  aa  016 147 145 164         get_page_trace
    005607  aa  137 160 141 147
    005610  aa  145 137 164 162
    005611  aa  141 143 145 000
    005612  55   001662 001643
    005613  0a   000106 400000
    005614  55   001655 000003
    005615  aa  022 147 145 164         get_max_length_seg
    005616  aa  137 155 141 170
    005617  aa  137 154 145 156
    005620  aa  147 164 150 137
    005621  aa  163 145 147 000
    005622  55   001671 001652
    005623  0a   000105 400000
    005624  55   001665 000003
    005625  aa  016 147 145 164         get_max_length
    005626  aa  137 155 141 170
    005627  aa  137 154 145 156
    005630  aa  147 164 150 000
    005631  55   001676 001662
    005632  0a   000104 400000
    005633  55   001674 000003
    005634  aa  006 147 145 164         get_lp
    005635  aa  137 154 160 000
    005636  55   001705 001671
    005637  0a   000103 400000
    005640  55   001701 000003
    005641  aa  017 147 145 164         get_link_target
    005642  aa  137 154 151 156
    005643  aa  153 137 164 141
    005644  aa  162 147 145 164
    005645  55   001714 001676
    005646  0a   000102 400000
    005647  55   001710 000003
    005650  aa  014 147 145 164         get_ips_mask
    005651  aa  137 151 160 163
    005652  aa  137 155 141 163
    005653  aa  153 000 000 000
    005654  55   001724 001705
    005655  0a   000101 400000
    005656  55   001717 000003
    005657  aa  020 147 145 164         get_ipc_operands
    005660  aa  137 151 160 143
    005661  aa  137 157 160 145
    005662  aa  162 141 156 144
    005663  aa  163 000 000 000
    005664  55   001734 001714
    005665  0a   000100 400000
    005666  55   001727 000003
    005667  aa  020 147 145 164         get_initial_ring
    005670  aa  137 151 156 151
    005671  aa  164 151 141 154
    005672  aa  137 162 151 156
    005673  aa  147 000 000 000
    005674  55   001746 001724
    005675  0a   000077 400000
    005676  55   001737 000003
    005677  aa  030 147 145 164         get_hex_exponent_control
    005700  aa  137 150 145 170
    005701  aa  137 145 170 160
    005702  aa  157 156 145 156
    005703  aa  164 137 143 157
    005704  aa  156 164 162 157
    005705  aa  154 000 000 000
    005706  55   001757 001734
    005707  0a   000076 400000
    005710  55   001751 000003
    005711  aa  024 147 145 164         get_exponent_control
    005712  aa  137 145 170 160
    005713  aa  157 156 145 156
    005714  aa  164 137 143 157
    005715  aa  156 164 162 157
    005716  aa  154 000 000 000
    005717  55   001770 001746
    005720  0a   000075 400000
    005721  55   001762 000003
    005722  aa  025 147 145 164         get_dir_ring_brackets
    005723  aa  137 144 151 162
    005724  aa  137 162 151 156
    005725  aa  147 137 142 162
    005726  aa  141 143 153 145
    005727  aa  164 163 000 000
    005730  55   001777 001757
    005731  0a   000074 400000
    005732  55   001773 000003
    005733  aa  014 147 145 164         get_defname_
    005734  aa  137 144 145 146
    005735  aa  156 141 155 145
    005736  aa  137 000 000 000
    005737  55   002006 001770
    005740  0a   000073 400000
    005741  55   002002 000003
    005742  aa  015 147 145 164         get_dates_ptr
    005743  aa  137 144 141 164
    005744  aa  145 163 137 160
    005745  aa  164 162 000 000
    005746  55   002014 001777
    005747  0a   000072 400000
    005750  55   002011 000003
    005751  aa  011 147 145 164         get_dates
    005752  aa  137 144 141 164
    005753  aa  145 163 000 000
    005754  55   002023 002006
    005755  0a   000071 400000
    005756  55   002017 000003
    005757  aa  015 147 145 164         get_bc_author
    005760  aa  137 142 143 137
    005761  aa  141 165 164 150
    005762  aa  157 162 000 000
    005763  55   002033 002014
    005764  0a   000070 400000
    005765  55   002026 000003
    005766  aa  021 147 145 164         get_authorization
    005767  aa  137 141 165 164
    005770  aa  150 157 162 151
    005771  aa  172 141 164 151
    005772  aa  157 156 000 000
    005773  55   002041 002023
    005774  0a   000067 400000
    005775  55   002036 000003
    005776  aa  012 147 145 164         get_author
    005777  aa  137 141 165 164
    006000  aa  150 157 162 000
    006001  55   002050 002033
    006002  0a   000066 400000
    006003  55   002044 000003
    006004  aa  017 147 145 164         get_alarm_timer
    006005  aa  137 141 154 141
    006006  aa  162 155 137 164
    006007  aa  151 155 145 162
    006010  55   002060 002041
    006011  0a   000065 400000
    006012  55   002053 000003
    006013  aa  023 147 145 164         get_access_info_seg
    006014  aa  137 141 143 143
    006015  aa  145 163 163 137
    006016  aa  151 156 146 157
    006017  aa  137 163 145 147
    006020  55   002067 002050
    006021  0a   000064 400000
    006022  55   002063 000003
    006023  aa  017 147 145 164         get_access_info
    006024  aa  137 141 143 143
    006025  aa  145 163 163 137
    006026  aa  151 156 146 157
    006027  55   002100 002060
    006030  0a   000063 400000
    006031  55   002072 000003
    006032  aa  024 147 145 164         get_access_class_seg
    006033  aa  137 141 143 143
    006034  aa  145 163 163 137
    006035  aa  143 154 141 163
    006036  aa  163 137 163 145
    006037  aa  147 000 000 000
    006040  55   002110 002067
    006041  0a   000062 400000
    006042  55   002103 000003
    006043  aa  020 147 145 164         get_access_class
    006044  aa  137 141 143 143
    006045  aa  145 163 163 137
    006046  aa  143 154 141 163
    006047  aa  163 000 000 000
    006050  55   002120 002100
    006051  0a   000061 400000
    006052  55   002113 000003
    006053  aa  022 146 163 137         fs_search_set_wdir
    006054  aa  163 145 141 162
    006055  aa  143 150 137 163
    006056  aa  145 164 137 167
    006057  aa  144 151 162 000
    006060  55   002130 002110
    006061  0a   000060 400000
    006062  55   002123 000003
    006063  aa  022 146 163 137         fs_search_get_wdir
    006064  aa  163 145 141 162
    006065  aa  143 150 137 147
    006066  aa  145 164 137 167
    006067  aa  144 151 162 000
    006070  55   002136 002120
    006071  0a   000057 400000
    006072  55   002133 000003
    006073  aa  013 146 163 137         fs_move_seg
    006074  aa  155 157 166 145
    006075  aa  137 163 145 147
    006076  55   002145 002130
    006077  0a   000056 400000
    006100  55   002141 000003
    006101  aa  014 146 163 137         fs_move_file
    006102  aa  155 157 166 145
    006103  aa  137 146 151 154
    006104  aa  145 000 000 000
    006105  55   002154 002136
    006106  0a   000055 400000
    006107  55   002150 000003
    006110  aa  016 146 163 137         fs_get_seg_ptr
    006111  aa  147 145 164 137
    006112  aa  163 145 147 137
    006113  aa  160 164 162 000
    006114  55   002163 002145
    006115  0a   000054 400000
    006116  55   002157 000003
    006117  aa  017 146 163 137         fs_get_ref_name
    006120  aa  147 145 164 137
    006121  aa  162 145 146 137
    006122  aa  156 141 155 145
    006123  55   002173 002154
    006124  0a   000053 400000
    006125  55   002166 000003
    006126  aa  020 146 163 137         fs_get_path_name
    006127  aa  147 145 164 137
    006130  aa  160 141 164 150
    006131  aa  137 156 141 155
    006132  aa  145 000 000 000
    006133  55   002201 002163
    006134  0a   000052 400000
    006135  55   002176 000003
    006136  aa  013 146 163 137         fs_get_mode
    006137  aa  147 145 164 137
    006140  aa  155 157 144 145
    006141  55   002210 002173
    006142  0a   000051 400000
    006143  55   002204 000003
    006144  aa  017 146 163 137         fs_get_dir_name
    006145  aa  147 145 164 137
    006146  aa  144 151 162 137
    006147  aa  156 141 155 145
    006150  55   002217 002201
    006151  0a   000050 400000
    006152  55   002213 000003
    006153  aa  017 146 163 137         fs_get_brackets
    006154  aa  147 145 164 137
    006155  aa  142 162 141 143
    006156  aa  153 145 164 163
    006157  55   002227 002210
    006160  0a   000047 400000
    006161  55   002222 000003
    006162  aa  023 146 163 137         fs_get_access_modes
    006163  aa  147 145 164 137
    006164  aa  141 143 143 145
    006165  aa  163 163 137 155
    006166  aa  157 144 145 163
    006167  55   002235 002217
    006170  0a   000046 400000
    006171  55   002232 000003
    006172  aa  013 146 157 162         force_write
    006173  aa  143 145 137 167
    006174  aa  162 151 164 145
    006175  55   002243 002227
    006176  0a   000045 400000
    006177  55   002240 000003
    006200  aa  013 146 154 165         flush_pages
    006201  aa  163 150 137 160
    006202  aa  141 147 145 163
    006203  55   002254 002235
    006204  0a   000044 400000
    006205  55   002246 000003
    006206  aa  027 146 154 165         flush_consecutive_pages
    006207  aa  163 150 137 143
    006210  aa  157 156 163 145
    006211  aa  143 165 164 151
    006212  aa  166 145 137 160
    006213  aa  141 147 145 163
    006214  55   002261 002243
    006215  0a   000043 400000
    006216  55   002257 000003
    006217  aa  006 146 142 154         fblock
    006220  aa  157 143 153 000
    006221  55   002273 002254
    006222  0a   000042 400000
    006223  55   002264 000003
    006224  aa  030 145 143 150         echo_negotiate_get_chars
    006225  aa  157 137 156 145
    006226  aa  147 157 164 151
    006227  aa  141 164 145 137
    006230  aa  147 145 164 137
    006231  aa  143 150 141 162
    006232  aa  163 000 000 000
    006233  55   002302 002261
    006234  0a   000041 400000
    006235  55   002276 000003
    006236  aa  016 144 151 162         dir_quota_move
    006237  aa  137 161 165 157
    006240  aa  164 141 137 155
    006241  aa  157 166 145 000
    006242  55   002311 002273
    006243  0a   000040 400000
    006244  55   002305 000003
    006245  aa  016 144 151 162         dir_quota_read
    006246  aa  137 161 165 157
    006247  aa  164 141 137 162
    006250  aa  145 141 144 000
    006251  55   002322 002302
    006252  0a   000037 400000
    006253  55   002314 000003
    006254  aa  024 144 145 154         delete_inacl_entries
    006255  aa  145 164 145 137
    006256  aa  151 156 141 143
    006257  aa  154 137 145 156
    006260  aa  164 162 151 145
    006261  aa  163 000 000 000
    006262  55   002334 002311
    006263  0a   000036 400000
    006264  55   002325 000003
    006265  aa  030 144 145 154         delete_dir_inacl_entries
    006266  aa  145 164 145 137
    006267  aa  144 151 162 137
    006270  aa  151 156 141 143
    006271  aa  154 137 145 156
    006272  aa  164 162 151 145
    006273  aa  163 000 000 000
    006274  55   002345 002322
    006275  0a   000035 400000
    006276  55   002337 000003
    006277  aa  026 144 145 154         delete_dir_acl_entries
    006300  aa  145 164 145 137
    006301  aa  144 151 162 137
    006302  aa  141 143 154 137
    006303  aa  145 156 164 162
    006304  aa  151 145 163 000
    006305  55   002354 002334
    006306  0a   000034 400000
    006307  55   002350 000003
    006310  aa  016 144 145 154         delete_channel
    006311  aa  145 164 145 137
    006312  aa  143 150 141 156
    006313  aa  156 145 154 000
    006314  55   002364 002345
    006315  0a   000033 400000
    006316  55   002357 000003
    006317  aa  022 144 145 154         delete_acl_entries
    006320  aa  145 164 145 137
    006321  aa  141 143 154 137
    006322  aa  145 156 164 162
    006323  aa  151 145 163 000
    006324  55   002373 002354
    006325  0a   000032 400000
    006326  55   002367 000003
    006327  aa  014 144 145 154         delentry_seg
    006330  aa  145 156 164 162
    006331  aa  171 137 163 145
    006332  aa  147 000 000 000
    006333  55   002402 002364
    006334  0a   000031 400000
    006335  55   002376 000003
    006336  aa  015 144 145 154         delentry_file
    006337  aa  145 156 164 162
    006340  aa  171 137 146 151
    006341  aa  154 145 000 000
    006342  55   002411 002373
    006343  0a   000030 400000
    006344  55   002405 000003
    006345  aa  014 144 145 154         del_dir_tree
    006346  aa  137 144 151 162
    006347  aa  137 164 162 145
    006350  aa  145 000 000 000
    006351  55   002420 002402
    006352  0a   000027 400000
    006353  55   002414 000003
    006354  aa  016 143 162 145         create_branch_
    006355  aa  141 164 145 137
    006356  aa  142 162 141 156
    006357  aa  143 150 137 000
    006360  55   002427 002411
    006361  0a   000026 400000
    006362  55   002423 000003
    006363  aa  017 143 157 155         combine_linkage
    006364  aa  142 151 156 145
    006365  aa  137 154 151 156
    006366  aa  153 141 147 145
    006367  55   002435 002420
    006370  0a   000025 400000
    006371  55   002432 000003
    006372  aa  012 143 150 156         chname_seg
    006373  aa  141 155 145 137
    006374  aa  163 145 147 000
    006375  55   002443 002427
    006376  0a   000024 400000
    006377  55   002440 000003
    006400  aa  013 143 150 156         chname_file
    006401  aa  141 155 145 137
    006402  aa  146 151 154 145
    006403  55   002450 002435
    006404  0a   000023 400000
    006405  55   002446 000003
    006406  aa  006 143 150 156         chname
    006407  aa  141 155 145 000
    006410  55   002457 002443
    006411  0a   000022 400000
    006412  55   002453 000003
    006413  aa  015 143 150 141         change_bc_seg
    006414  aa  156 147 145 137
    006415  aa  142 143 137 163
    006416  aa  145 147 000 000
    006417  55   002465 002450
    006420  0a   000021 400000
    006421  55   002462 000003
    006422  aa  011 143 150 141         change_bc
    006423  aa  156 147 145 137
    006424  aa  142 143 000 000
    006425  55   002472 002457
    006426  0a   000020 400000
    006427  55   002470 000003
    006430  aa  005 142 154 157         block
    006431  aa  143 153 000 000
    006432  55   002501 002465
    006433  0a   000017 400000
    006434  55   002475 000003
    006435  aa  016 141 163 163         assign_linkage
    006436  aa  151 147 156 137
    006437  aa  154 151 156 153
    006440  aa  141 147 145 000
    006441  55   002510 002472
    006442  0a   000016 400000
    006443  55   002504 000003
    006444  aa  016 141 163 163         assign_channel
    006445  aa  151 147 156 137
    006446  aa  143 150 141 156
    006447  aa  156 145 154 000
    006450  55   002515 002501
    006451  0a   000015 400000
    006452  55   002513 000003
    006453  aa  007 141 160 160         appendl
    006454  aa  145 156 144 154
    006455  55   002523 002510
    006456  0a   000014 400000
    006457  55   002520 000003
    006460  aa  013 141 160 160         append_link
    006461  aa  145 156 144 137
    006462  aa  154 151 156 153
    006463  55   002532 002515
    006464  0a   000013 400000
    006465  55   002526 000003
    006466  aa  016 141 160 160         append_branchx
    006467  aa  145 156 144 137
    006470  aa  142 162 141 156
    006471  aa  143 150 170 000
    006472  55   002541 002523
    006473  0a   000012 400000
    006474  55   002535 000003
    006475  aa  015 141 160 160         append_branch
    006476  aa  145 156 144 137
    006477  aa  142 162 141 156
    006500  aa  143 150 000 000
    006501  55   002551 002532
    006502  0a   000011 400000
    006503  55   002544 000003
    006504  aa  021 141 144 144         add_inacl_entries
    006505  aa  137 151 156 141
    006506  aa  143 154 137 145
    006507  aa  156 164 162 151
    006510  aa  145 163 000 000
    006511  55   002562 002541
    006512  0a   000010 400000
    006513  55   002554 000003
    006514  aa  025 141 144 144         add_dir_inacl_entries
    006515  aa  137 144 151 162
    006516  aa  137 151 156 141
    006517  aa  143 154 137 145
    006520  aa  156 164 162 151
    006521  aa  145 163 000 000
    006522  55   002572 002551
    006523  0a   000007 400000
    006524  55   002565 000003
    006525  aa  023 141 144 144         add_dir_acl_entries
    006526  aa  137 144 151 162
    006527  aa  137 141 143 154
    006530  aa  137 145 156 164
    006531  aa  162 151 145 163
    006532  55   002601 002562
    006533  0a   000006 400000
    006534  55   002575 000003
    006535  aa  017 141 144 144         add_acl_entries
    006536  aa  137 141 143 154
    006537  aa  137 145 156 164
    006540  aa  162 151 145 163
    006541  55   002607 002572
    006542  0a   000005 400000
    006543  55   002604 000003
    006544  aa  013 141 143 154         acl_replace
    006545  aa  137 162 145 160
    006546  aa  154 141 143 145
    006547  55   002615 002601
    006550  0a   000004 400000
    006551  55   002612 000003
    006552  aa  010 141 143 154         acl_list
    006553  aa  137 154 151 163
    006554  aa  164 000 000 000
    006555  55   002623 002607
    006556  0a   000003 400000
    006557  55   002620 000003
    006560  aa  012 141 143 154         acl_delete
    006561  aa  137 144 145 154
    006562  aa  145 164 145 000
    006563  55   002631 002615
    006564  0a   000002 400000
    006565  55   002626 000003
    006566  aa  010 141 143 154         acl_add1
    006567  aa  137 141 144 144
    006570  aa  061 000 000 000
    006571  55   002636 002623
    006572  0a   000001 400000
    006573  55   002634 000003
    006574  aa  007 141 143 154         acl_add
    006575  aa  137 141 144 144
    006576  55   002643 002631
    006577  0a   000312 400000
    006600  55   002641 000003
    006601  aa  006 056 155 171         .my_lp
    006602  aa  137 154 160 000
    006603  55   002650 002636
    006604  0a   000311 400000
    006605  55   002646 000003
    006606  aa  007 056 164 166         .tv_end
    006607  aa  137 145 156 144
    006610  55   000002 002643
    006611  6a   000000 400002
    006612  55   002653 000003
    006613  aa  014 163 171 155         symbol_table
    006614  aa  142 157 154 137
    006615  aa  164 141 142 154
    006616  aa  145 000 000 000

DEFINITIONS HASH TABLE

    006617  aa   000000 000463
    006620  aa   000000 000000
    006621  5a   000440 000000
    006622  5a   000300 000000
    006623  5a   001053 000000
    006624  5a   000560 000000
    006625  5a   000652 000000
    006626  5a   001226 000000
    006627  5a   000010 000000
    006630  5a   002243 000000
    006631  aa   000000 000000
    006632  aa   000000 000000
    006633  5a   001064 000000
    006634  aa   000000 000000
    006635  aa   000000 000000
    006636  5a   002050 000000
    006637  5a   000756 000000
    006640  5a   000764 000000
    006641  5a   002354 000000
    006642  aa   000000 000000
    006643  aa   000000 000000
    006644  5a   002130 000000
    006645  5a   002173 000000
    006646  aa   000000 000000
    006647  aa   000000 000000
    006650  5a   000423 000000
    006651  5a   002006 000000
    006652  5a   001266 000000
    006653  5a   002607 000000
    006654  5a   002623 000000
    006655  aa   000000 000000
    006656  5a   000042 000000
    006657  5a   002435 000000
    006660  aa   000000 000000
    006661  5a   002465 000000
    006662  aa   000000 000000
    006663  5a   000433 000000
    006664  5a   000354 000000
    006665  5a   000363 000000
    006666  5a   000521 000000
    006667  5a   000540 000000
    006670  5a   000630 000000
    006671  5a   000061 000000
    006672  aa   000000 000000
    006673  5a   002110 000000
    006674  5a   002120 000000
    006675  aa   000000 000000
    006676  5a   000326 000000
    006677  aa   000000 000000
    006700  5a   000051 000000
    006701  5a   001450 000000
    006702  5a   001542 000000
    006703  5a   001714 000000
    006704  5a   001724 000000
    006705  5a   002100 000000
    006706  aa   000000 000000
    006707  aa   000000 000000
    006710  aa   000000 000000
    006711  aa   000000 000000
    006712  5a   000446 000000
    006713  5a   001671 000000
    006714  aa   000000 000000
    006715  5a   000462 000000
    006716  5a   000640 000000
    006717  aa   000000 000000
    006720  aa   000000 000000
    006721  aa   000000 000000
    006722  5a   000310 000000
    006723  aa   000000 000000
    006724  5a   001073 000000
    006725  aa   000000 000000
    006726  aa   000000 000000
    006727  5a   001034 000000
    006730  5a   000612 000000
    006731  5a   000740 000000
    006732  5a   001520 000000
    006733  5a   002334 000000
    006734  aa   000000 000000
    006735  5a   002154 000000
    006736  5a   002201 000000
    006737  5a   002210 000000
    006740  aa   000000 000000
    006741  5a   002532 000000
    006742  5a   001410 000000
    006743  5a   001562 000000
    006744  5a   001777 000000
    006745  5a   002014 000000
    006746  5a   002254 000000
    006747  5a   002364 000000
    006750  5a   002402 000000
    006751  aa   000000 000000
    006752  aa   000000 000000
    006753  aa   000000 000000
    006754  5a   000401 000000
    006755  5a   000407 000000
    006756  5a   000415 000000
    006757  5a   000571 000000
    006760  5a   000717 000000
    006761  5a   001204 000000
    006762  5a   001353 000000
    006763  aa   000000 000000
    006764  aa   000000 000000
    006765  aa   000000 000000
    006766  aa   000000 000000
    006767  aa   000000 000000
    006770  aa   000000 000000
    006771  5a   000135 000000
    006772  5a   000021 000000
    006773  5a   000170 000000
    006774  5a   000711 000000
    006775  5a   001044 000000
    006776  5a   001531 000000
    006777  5a   001746 000000
    007000  5a   002067 000000
    007001  5a   002136 000000
    007002  aa   000000 000000
    007003  5a   002261 000000
    007004  5a   000200 000000
    007005  5a   001275 000000
    007006  5a   002033 000000
    007007  aa   000000 000000
    007010  5a   000077 000000
    007011  5a   001131 000000
    007012  5a   001342 000000
    007013  5a   002541 000000
    007014  5a   001234 000000
    007015  aa   000000 000000
    007016  aa   000000 000000
    007017  aa   000000 000000
    007020  aa   000000 000000
    007021  5a   000550 000000
    007022  5a   000602 000000
    007023  5a   000730 000000
    007024  5a   001212 000000
    007025  5a   001220 000000
    007026  5a   002217 000000
    007027  aa   000000 000000
    007030  5a   001112 000000
    007031  5a   001176 000000
    007032  5a   001420 000000
    007033  5a   000161 000000
    007034  5a   000032 000000
    007035  5a   001440 000000
    007036  5a   001552 000000
    007037  5a   001602 000000
    007040  5a   001622 000000
    007041  5a   002023 000000
    007042  5a   001320 000000
    007043  5a   002227 000000
    007044  5a   002235 000000
    007045  5a   002457 000000
    007046  5a   002510 000000
    007047  5a   001251 000000
    007050  aa   000000 000000
    007051  aa   000000 000000
    007052  aa   000000 000000
    007053  aa   000000 000000
    007054  aa   000000 000000
    007055  5a   000317 000000
    007056  aa   000000 000000
    007057  aa   000000 000000
    007060  5a   000455 000000
    007061  aa   000000 000000
    007062  5a   000124 000000
    007063  5a   000673 000000
    007064  5a   000702 000000
    007065  5a   001010 000000
    007066  5a   001025 000000
    007067  5a   001326 000000
    007070  5a   001334 000000
    007071  5a   001362 000000
    007072  5a   001426 000000
    007073  5a   001734 000000
    007074  5a   002163 000000
    007075  5a   000222 000000
    007076  5a   000237 000000
    007077  5a   001643 000000
    007100  5a   001662 000000
    007101  5a   002273 000000
    007102  5a   002302 000000
    007103  5a   002373 000000
    007104  5a   002472 000000
    007105  5a   002501 000000
    007106  5a   002523 000000
    007107  5a   002551 000000
    007110  aa   000000 000000
    007111  aa   000000 000000
    007112  5a   000777 000000
    007113  aa   000000 000000
    007114  aa   000000 000000
    007115  aa   000000 000000
    007116  5a   002443 000000
    007117  aa   000000 000000
    007120  aa   000000 000000
    007121  5a   001103 000000
    007122  aa   000000 000000
    007123  aa   000000 000000
    007124  5a   000246 000000
    007125  5a   000372 000000
    007126  5a   000621 000000
    007127  5a   001153 000000
    007130  5a   001472 000000
    007131  5a   001571 000000
    007132  5a   001632 000000
    007133  5a   001757 000000
    007134  5a   002311 000000
    007135  5a   002411 000000
    007136  5a   002450 000000
    007137  5a   000145 000000
    007140  5a   000153 000000
    007141  5a   000206 000000
    007142  5a   000214 000000
    007143  5a   000231 000000
    007144  5a   000272 000000
    007145  5a   001242 000000
    007146  5a   001257 000000
    007147  5a   001503 000000
    007150  5a   002515 000000
    007151  5a   000107 000000
    007152  5a   000344 000000
    007153  5a   001370 000000
    007154  5a   000502 000000
    007155  5a   000072 000000
    007156  5a   000663 000000
    007157  5a   001400 000000
    007160  5a   002615 000000
    007161  aa   000000 000000
    007162  aa   000000 000000
    007163  aa   000000 000000
    007164  aa   000000 000000
    007165  aa   000000 000000
    007166  5a   001161 000000
    007167  5a   000474 000000
    007170  5a   001017 000000
    007171  5a   001612 000000
    007172  5a   001652 000000
    007173  aa   000000 000000
    007174  aa   000000 000000
    007175  aa   000000 000000
    007176  aa   000000 000000
    007177  aa   000000 000000
    007200  aa   000000 000000
    007201  aa   000000 000000
    007202  aa   000000 000000
    007203  5a   002631 000000
    007204  aa   000000 000000
    007205  aa   000000 000000
    007206  aa   000000 000000
    007207  5a   002427 000000
    007210  5a   002572 000000
    007211  aa   000000 000000
    007212  5a   000116 000000
    007213  aa   000000 000000
    007214  5a   000335 000000
    007215  5a   001460 000000
    007216  5a   002643 000000
    007217  aa   000000 000000
    007220  5a   002322 000000
    007221  aa   000000 000000
    007222  aa   000000 000000
    007223  aa   000000 000000
    007224  aa   000000 000000
    007225  aa   000000 000000
    007226  aa   000000 000000
    007227  aa   000000 000000
    007230  5a   001676 000000
    007231  5a   000772 000000
    007232  5a   002041 000000
    007233  5a   002060 000000
    007234  5a   002345 000000
    007235  5a   002636 000000
    007236  aa   000000 000000
    007237  aa   000000 000000
    007240  aa   000000 000000
    007241  aa   000000 000000
    007242  aa   000000 000000
    007243  aa   000000 000000
    007244  5a   001304 000000
    007245  5a   001167 000000
    007246  5a   001312 000000
    007247  aa   000000 000000
    007250  aa   000000 000000
    007251  aa   000000 000000
    007252  aa   000000 000000
    007253  aa   000000 000000
    007254  aa   000000 000000
    007255  aa   000000 000000
    007256  aa   000000 000000
    007257  aa   000000 000000
    007260  5a   000512 000000
    007261  5a   000531 000000
    007262  5a   000747 000000
    007263  5a   001137 000000
    007264  5a   001145 000000
    007265  5a   002145 000000
    007266  5a   002420 000000
    007267  aa   000000 000000
    007270  aa   000000 000000
    007271  aa   000000 000000
    007272  5a   000256 000000
    007273  5a   000264 000000
    007274  5a   001511 000000
    007275  5a   001705 000000
    007276  5a   001770 000000
    007277  5a   001120 000000
    007300  5a   002562 000000
    007301  5a   002601 000000
    007302  5a   002650 000000

EXTERNAL NAMES

    007303  aa  023 166 145 162         verify_lock_bad_dir
    007304  aa  151 146 171 137
    007305  aa  154 157 143 153
    007306  aa  137 142 141 144
    007307  aa  137 144 151 162
    007310  aa  013 166 145 162         verify_lock
    007311  aa  151 146 171 137
    007312  aa  154 157 143 153
    007313  aa  012 151 160 143         ipc_wakeup
    007314  aa  137 167 141 153
    007315  aa  145 165 160 000
    007316  aa  010 156 145 167         new_proc
    007317  aa  137 160 162 157
    007320  aa  143 000 000 000
    007321  aa  005 164 162 163         trseg
    007322  aa  145 147 000 000
    007323  aa  006 164 162 146         trfile
    007324  aa  151 154 145 000
    007325  aa  010 164 162 165         truncate
    007326  aa  156 143 141 164
    007327  aa  145 000 000 000
    007330  aa  005 164 145 163         teseg
    007331  aa  145 147 000 000
    007332  aa  006 156 157 156         noname
    007333  aa  141 155 145 000
    007334  aa  004 156 141 155         name
    007335  aa  145 000 000 000
    007336  aa  006 164 145 146         tefile
    007337  aa  151 154 145 000
    007340  aa  004 155 151 156         mins
    007341  aa  163 000 000 000
    007342  aa  004 155 151 156         minf
    007343  aa  146 000 000 000
    007344  aa  004 154 157 156         long
    007345  aa  147 000 000 000
    007346  aa  005 154 151 163         list_
    007347  aa  164 137 000 000
    007350  aa  011 144 151 162         dir_list_
    007351  aa  137 154 151 163
    007352  aa  164 137 000 000
    007353  aa  024 166 157 154         volume_dump_switches
    007354  aa  165 155 145 137
    007355  aa  144 165 155 160
    007356  aa  137 163 167 151
    007357  aa  164 143 150 145
    007360  aa  163 000 000 000
    007361  aa  017 163 171 156         synchronized_sw
    007362  aa  143 150 162 157
    007363  aa  156 151 172 145
    007364  aa  144 137 163 167
    007365  aa  015 163 141 146         safety_sw_ptr
    007366  aa  145 164 171 137
    007367  aa  163 167 137 160
    007370  aa  164 162 000 000
    007371  aa  016 163 141 146         safety_sw_path
    007372  aa  145 164 171 137
    007373  aa  163 167 137 160
    007374  aa  141 164 150 000
    007375  aa  021 151 154 154         illegal_procedure
    007376  aa  145 147 141 154
    007377  aa  137 160 162 157
    007400  aa  143 145 144 165
    007401  aa  162 145 000 000
    007402  aa  012 163 145 164         set_signal
    007403  aa  137 163 151 147
    007404  aa  156 141 154 000
    007405  aa  016 155 141 170         max_length_ptr
    007406  aa  137 154 145 156
    007407  aa  147 164 150 137
    007410  aa  160 164 162 000
    007411  aa  017 155 141 170         max_length_path
    007412  aa  137 154 145 156
    007413  aa  147 164 150 137
    007414  aa  160 141 164 150
    007415  aa  030 150 145 170         hex_exponent_control_set
    007416  aa  137 145 170 160
    007417  aa  157 156 145 156
    007420  aa  164 137 143 157
    007421  aa  156 164 162 157
    007422  aa  154 137 163 145
    007423  aa  164 000 000 000
    007424  aa  024 145 170 160         exponent_control_set
    007425  aa  157 156 145 156
    007426  aa  164 137 143 157
    007427  aa  156 164 162 157
    007430  aa  154 137 163 145
    007431  aa  164 000 000 000
    007432  aa  017 145 156 164         entry_bound_ptr
    007433  aa  162 171 137 142
    007434  aa  157 165 156 144
    007435  aa  137 160 164 162
    007436  aa  020 145 156 164         entry_bound_path
    007437  aa  162 171 137 142
    007440  aa  157 165 156 144
    007441  aa  137 160 141 164
    007442  aa  150 000 000 000
    007443  aa  013 144 156 172         dnzp_sw_ptr
    007444  aa  160 137 163 167
    007445  aa  137 160 164 162
    007446  aa  014 144 156 172         dnzp_sw_path
    007447  aa  160 137 163 167
    007450  aa  137 160 141 164
    007451  aa  150 000 000 000
    007452  aa  007 163 145 164         set_dir
    007453  aa  137 144 151 162
    007454  aa  016 144 141 155         damaged_sw_ptr
    007455  aa  141 147 145 144
    007456  aa  137 163 167 137
    007457  aa  160 164 162 000
    007460  aa  017 144 141 155         damaged_sw_path
    007461  aa  141 147 145 144
    007462  aa  137 163 167 137
    007463  aa  160 141 164 150
    007464  aa  006 143 157 160         copysw
    007465  aa  171 163 167 000
    007466  aa  006 142 143 137         bc_seg
    007467  aa  163 145 147 000
    007470  aa  002 142 143 000         bc
    007471  aa  011 147 145 164         get_range
    007472  aa  137 162 141 156
    007473  aa  147 145 000 000
    007474  aa  015 162 145 160         replace_isall
    007475  aa  154 141 143 145
    007476  aa  137 151 163 141
    007477  aa  154 154 000 000
    007500  aa  015 162 145 160         replace_idall
    007501  aa  154 141 143 145
    007502  aa  137 151 144 141
    007503  aa  154 154 000 000
    007504  aa  014 162 145 160         replace_dall
    007505  aa  154 141 143 145
    007506  aa  137 144 141 154
    007507  aa  154 000 000 000
    007510  aa  014 162 145 160         replace_sall
    007511  aa  154 141 143 145
    007512  aa  137 163 141 154
    007513  aa  154 000 000 000
    007514  aa  012 146 162 145         free_range
    007515  aa  145 137 162 141
    007516  aa  156 147 145 000
    007517  aa  010 153 163 164         kst_util
    007520  aa  137 165 164 151
    007521  aa  154 000 000 000
    007522  aa  005 161 155 157         qmove
    007523  aa  166 145 000 000
    007524  aa  005 161 162 145         qread
    007525  aa  141 144 000 000
    007526  aa  004 161 147 145         qget
    007527  aa  164 000 000 000
    007530  aa  004 160 141 147         page
    007531  aa  145 000 000 000
    007532  aa  012 164 145 162         terminate_
    007533  aa  155 151 156 141
    007534  aa  164 145 137 000
    007535  aa  010 155 157 165         mountedp
    007536  aa  156 164 145 144
    007537  aa  160 000 000 000
    007540  aa  012 154 151 163         list_isall
    007541  aa  164 137 151 163
    007542  aa  141 154 154 000
    007543  aa  012 154 151 163         list_idall
    007544  aa  164 137 151 144
    007545  aa  141 154 154 000
    007546  aa  011 154 151 163         list_dall
    007547  aa  164 137 144 141
    007550  aa  154 154 000 000
    007551  aa  011 154 151 163         list_sall
    007552  aa  164 137 163 141
    007553  aa  154 154 000 000
    007554  aa  011 154 151 156         link_snap
    007555  aa  153 137 163 156
    007556  aa  141 160 000 000
    007557  aa  010 163 145 164         set_gate
    007560  aa  137 147 141 164
    007561  aa  145 000 000 000
    007562  aa  005 154 145 166         level
    007563  aa  145 154 000 000
    007564  aa  014 160 145 162         per_proc_set
    007565  aa  137 160 162 157
    007566  aa  143 137 163 145
    007567  aa  164 000 000 000
    007570  aa  014 160 145 162         per_proc_get
    007571  aa  137 160 162 157
    007572  aa  143 137 147 145
    007573  aa  164 000 000 000
    007574  aa  020 150 151 163         history_reg_save
    007575  aa  164 157 162 171
    007576  aa  137 162 145 147
    007577  aa  137 163 141 166
    007600  aa  145 000 000 000
    007601  aa  007 147 145 164         get_uid
    007602  aa  137 165 151 144
    007603  aa  010 153 163 164         kst_info
    007604  aa  137 151 156 146
    007605  aa  157 000 000 000
    007606  aa  020 147 145 164         get_system_rules
    007607  aa  137 163 171 163
    007610  aa  164 145 155 137
    007611  aa  162 165 154 145
    007612  aa  163 000 000 000
    007613  aa  011 151 156 151         initiate_
    007614  aa  164 151 141 164
    007615  aa  145 137 000 000
    007616  aa  014 163 145 141         search_rules
    007617  aa  162 143 150 137
    007620  aa  162 165 154 145
    007621  aa  163 000 000 000
    007622  aa  021 147 145 164         get_safety_sw_ptr
    007623  aa  137 163 141 146
    007624  aa  145 164 171 137
    007625  aa  163 167 137 160
    007626  aa  164 162 000 000
    007627  aa  003 147 145 164         get
    007630  aa  012 147 145 164         get_signal
    007631  aa  137 163 151 147
    007632  aa  156 141 154 000
    007633  aa  015 150 143 137         hc_page_trace
    007634  aa  160 141 147 145
    007635  aa  137 164 162 141
    007636  aa  143 145 000 000
    007637  aa  022 147 145 164         get_max_length_ptr
    007640  aa  137 155 141 170
    007641  aa  137 154 145 156
    007642  aa  147 164 150 137
    007643  aa  160 164 162 000
    007644  aa  004 151 160 163         ips_
    007645  aa  137 000 000 000
    007646  aa  007 164 143 137         tc_util
    007647  aa  165 164 151 154
    007650  aa  030 150 145 170         hex_exponent_control_get
    007651  aa  137 145 170 160
    007652  aa  157 156 145 156
    007653  aa  164 137 143 157
    007654  aa  156 164 162 157
    007655  aa  154 137 147 145
    007656  aa  164 000 000 000
    007657  aa  024 145 170 160         exponent_control_get
    007660  aa  157 156 145 156
    007661  aa  164 137 143 157
    007662  aa  156 164 162 157
    007663  aa  154 137 147 145
    007664  aa  164 000 000 000
    007665  aa  023 150 143 137         hc_exponent_control
    007666  aa  145 170 160 157
    007667  aa  156 145 156 164
    007670  aa  137 143 157 156
    007671  aa  164 162 157 154
    007672  aa  007 147 145 164         get_dir
    007673  aa  137 144 151 162
    007674  aa  007 162 151 156         ringbr_
    007675  aa  147 142 162 137
    007676  aa  015 141 165 164         authorization
    007677  aa  150 157 162 151
    007700  aa  172 141 164 151
    007701  aa  157 156 000 000
    007702  aa  024 147 145 164         get_access_class_ptr
    007703  aa  137 141 143 143
    007704  aa  145 163 163 137
    007705  aa  143 154 141 163
    007706  aa  163 137 160 164
    007707  aa  162 000 000 000
    007710  aa  010 163 145 164         set_wdir
    007711  aa  137 167 144 151
    007712  aa  162 000 000 000
    007713  aa  010 147 145 164         get_wdir
    007714  aa  137 167 144 151
    007715  aa  162 000 000 000
    007716  aa  011 146 163 137         fs_search
    007717  aa  163 145 141 162
    007720  aa  143 150 000 000
    007721  aa  004 146 163 145         fseg
    007722  aa  147 000 000 000
    007723  aa  005 146 146 151         ffile
    007724  aa  154 145 000 000
    007725  aa  007 146 163 137         fs_move
    007726  aa  155 157 166 145
    007727  aa  007 163 145 147         seg_ptr
    007730  aa  137 160 164 162
    007731  aa  010 162 145 146         ref_name
    007732  aa  137 156 141 155
    007733  aa  145 000 000 000
    007734  aa  011 160 141 164         path_name
    007735  aa  150 137 156 141
    007736  aa  155 145 000 000
    007737  aa  004 155 157 144         mode
    007740  aa  145 000 000 000
    007741  aa  010 144 151 162         dir_name
    007742  aa  137 156 141 155
    007743  aa  145 000 000 000
    007744  aa  010 142 162 141         brackets
    007745  aa  143 153 145 164
    007746  aa  163 000 000 000
    007747  aa  014 141 143 143         access_modes
    007750  aa  145 163 163 137
    007751  aa  155 157 144 145
    007752  aa  163 000 000 000
    007753  aa  006 146 163 137         fs_get
    007754  aa  147 145 164 000
    007755  aa  004 154 151 163         list
    007756  aa  164 000 000 000
    007757  aa  013 143 157 156         consecutive
    007760  aa  163 145 143 165
    007761  aa  164 151 166 145
    007762  aa  013 151 160 143         ipc_f_block
    007763  aa  137 146 137 142
    007764  aa  154 157 143 153
    007765  aa  006 144 161 155         dqmove
    007766  aa  157 166 145 000
    007767  aa  006 144 161 162         dqread
    007770  aa  145 141 144 000
    007771  aa  005 161 165 157         quota
    007772  aa  164 141 000 000
    007773  aa  015 144 145 154         del_isentries
    007774  aa  137 151 163 145
    007775  aa  156 164 162 151
    007776  aa  145 163 000 000
    007777  aa  015 144 145 154         del_identries
    010000  aa  137 151 144 145
    010001  aa  156 164 162 151
    010002  aa  145 163 000 000
    010003  aa  014 144 145 154         del_dentries
    010004  aa  137 144 145 156
    010005  aa  164 162 151 145
    010006  aa  163 000 000 000
    010007  aa  014 144 145 154         del_sentries
    010010  aa  137 163 145 156
    010011  aa  164 162 151 145
    010012  aa  163 000 000 000
    010013  aa  004 144 163 145         dseg
    010014  aa  147 000 000 000
    010015  aa  005 144 146 151         dfile
    010016  aa  154 145 000 000
    010017  aa  010 144 145 154         delentry
    010020  aa  145 156 164 162
    010021  aa  171 000 000 000
    010022  aa  004 143 163 145         cseg
    010023  aa  147 000 000 000
    010024  aa  005 143 146 151         cfile
    010025  aa  154 145 000 000
    010026  aa  015 143 150 141         change_bc_ptr
    010027  aa  156 147 145 137
    010030  aa  142 143 137 160
    010031  aa  164 162 000 000
    010032  aa  016 143 150 141         change_bc_path
    010033  aa  156 147 145 137
    010034  aa  142 143 137 160
    010035  aa  141 164 150 000
    010036  aa  003 163 145 164         set
    010037  aa  011 151 160 143         ipc_block
    010040  aa  137 142 154 157
    010041  aa  143 153 000 000
    010042  aa  013 146 141 163         fast_hc_ipc
    010043  aa  164 137 150 143
    010044  aa  137 151 160 143
    010045  aa  010 154 151 156         link_man
    010046  aa  153 137 155 141
    010047  aa  156 000 000 000
    010050  aa  006 150 143 137         hc_ipc
    010051  aa  151 160 143 000
    010052  aa  004 154 151 156         link
    010053  aa  153 000 000 000
    010054  aa  007 142 162 141         branchx
    010055  aa  156 143 150 170
    010056  aa  006 142 162 141         branch
    010057  aa  156 143 150 000
    010060  aa  006 141 160 160         append
    010061  aa  145 156 144 000
    010062  aa  015 141 144 144         add_isentries
    010063  aa  137 151 163 145
    010064  aa  156 164 162 151
    010065  aa  145 163 000 000
    010066  aa  015 141 144 144         add_identries
    010067  aa  137 151 144 145
    010070  aa  156 164 162 151
    010071  aa  145 163 000 000
    010072  aa  014 141 144 144         add_dentries
    010073  aa  137 144 145 156
    010074  aa  164 162 151 145
    010075  aa  163 000 000 000
    010076  aa  014 141 144 144         add_sentries
    010077  aa  137 163 145 156
    010100  aa  164 162 151 145
    010101  aa  163 000 000 000
    010102  aa  004 141 163 144         asd_
    010103  aa  137 000 000 000
    010104  aa  010 141 162 145         areplace
    010105  aa  160 154 141 143
    010106  aa  145 000 000 000
    010107  aa  005 141 154 151         alist
    010110  aa  163 164 000 000
    010111  aa  007 141 144 145         adelete
    010112  aa  154 145 164 145
    010113  aa  005 141 061 141         a1add
    010114  aa  144 144 000 000
    010115  aa  004 141 141 144         aadd
    010116  aa  144 000 000 000
    010117  aa  003 141 143 154         acl
    010120  aa  015 160 162 145         pre_empt_poll
    010121  aa  137 145 155 160
    010122  aa  164 137 160 157
    010123  aa  154 154 000 000
    010124  aa  004 160 170 163         pxss
    010125  aa  163 000 000 000
    010126  aa  024 160 162 145         pre_empt_poll_return
    010127  aa  137 145 155 160
    010130  aa  164 137 160 157
    010131  aa  154 154 137 162
    010132  aa  145 164 165 162
    010133  aa  156 000 000 000
    010134  aa  004 160 157 154         poll
    010135  aa  154 000 000 000
    010136  aa  012 162 151 156         ring_alarm
    010137  aa  147 137 141 154
    010140  aa  141 162 155 000
    010141  aa  012 160 141 147         page_waits
    010142  aa  145 137 167 141
    010143  aa  151 164 163 000
    010144  aa  015 166 151 162         virtual_delta
    010145  aa  164 165 141 154
    010146  aa  137 144 145 154
    010147  aa  164 141 000 000
    010150  aa  010 143 160 165         cpu_time
    010151  aa  137 164 151 155
    010152  aa  145 000 000 000
    010153  aa  003 160 144 163         pds
    010154  aa  006 143 154 157         clock_
    010155  aa  143 153 137 000
    010156  aa  010 163 171 163         sys_info
    010157  aa  137 151 156 146
    010160  aa  157 000 000 000
    010161  aa  011 165 156 167         unwinder_
    010162  aa  151 156 144 145
    010163  aa  162 137 000 000
    010164  aa  007 163 151 147         signal_
    010165  aa  156 141 154 137

NO TRAP POINTER WORDS

TYPE PAIR BLOCKS

    010166  aa   000004 000000
    010167  55   003350 003343
    010170  aa   000004 000000
    010171  55   004110 003353
    010172  aa   000004 000000
    010173  55   003706 000102
    010174  aa   000004 000000
    010175  55   000112 000112
    010176  aa   000004 000000
    010177  55   003704 000121
    010200  aa   000004 000000
    010201  55   000150 000127
    010202  aa   000004 000000
    010203  55   000150 000140
    010204  aa   000004 000000
    010205  55   000150 000150
    010206  aa   000004 000000
    010207  55   000156 000156
    010210  aa   000004 000000
    010211  55   000203 000164
    010212  aa   000004 000000
    010213  55   000203 000173
    010214  aa   000004 000000
    010215  55   000203 000203
    010216  aa   000004 000000
    010217  55   000211 000211
    010220  aa   000004 000000
    010221  55   000217 000217
    010222  aa   000004 000000
    010223  55   000217 000225
    010224  aa   000004 000000
    010225  55   000217 000234
    010226  aa   000004 000000
    010227  55   000203 000242
    010230  aa   000004 000000
    010231  55   000261 003356
    010232  aa   000004 000000
    010233  55   000261 000261
    010234  aa   000004 000000
    010235  55   000267 000267
    010236  aa   000004 000000
    010237  55   000275 000275
    010240  aa   000004 000000
    010241  55   000303 000303
    010242  aa   000004 000000
    010243  55   003365 003361
    010244  aa   000004 000000
    010245  55   003365 003363
    010246  aa   000004 000000
    010247  55   003570 000331
    010250  aa   000004 000000
    010251  55   003572 003370
    010252  aa   000004 000000
    010253  55   003572 003372
    010254  aa   000004 000000
    010255  55   003572 003374
    010256  aa   000004 000000
    010257  55   003572 003376
    010260  aa   000004 000000
    010261  55   000375 000375
    010262  aa   000004 000000
    010263  55   000436 003400
    010264  aa   000004 000000
    010265  55   000436 003402
    010266  aa   000004 000000
    010267  55   000436 003404
    010270  aa   000004 000000
    010271  55   000436 000426
    010272  aa   000004 000000
    010273  55   000436 000436
    010274  aa   000004 000000
    010275  55   000460 003406
    010276  aa   000004 000000
    010277  55   000460 003410
    010300  aa   000004 000000
    010301  55   000460 000460
    010302  aa   000004 000000
    010303  55   004076 003413
    010304  aa   000004 000000
    010305  55   004164 000477
    010306  aa   000004 000000
    010307  55   004076 003421
    010310  aa   000004 000000
    010311  55   000515 000515
    010312  aa   000004 000000
    010313  55   004076 003425
    010314  aa   000004 000000
    010315  55   004076 003431
    010316  aa   000004 000000
    010317  55   003734 004076
    010320  aa   000004 000000
    010321  55   000553 000553
    010322  aa   000004 000000
    010323  55   003435 000563
    010324  aa   000004 000000
    010325  55   003673 003442
    010326  aa   000004 000000
    010327  55   004076 003445
    010330  aa   000004 000000
    010331  55   004076 003451
    010332  aa   000004 000000
    010333  55   003704 000624
    010334  aa   000004 000000
    010335  55   003725 000633
    010336  aa   000004 000000
    010337  55   003725 003455
    010340  aa   000004 000000
    010341  55   003725 003464
    010342  aa   000004 000000
    010343  55   004076 003472
    010344  aa   000004 000000
    010345  55   004076 003476
    010346  aa   000004 000000
    010347  55   004076 003503
    010350  aa   000004 000000
    010351  55   004076 003506
    010352  aa   000004 000000
    010353  55   003734 003512
    010354  aa   000004 000000
    010355  55   004076 003514
    010356  aa   000004 000000
    010357  55   004076 003520
    010360  aa   000004 000000
    010361  55   004164 000752
    010362  aa   000004 000000
    010363  55   004076 003524
    010364  aa   000004 000000
    010365  55   004076 003526
    010366  aa   000004 000000
    010367  55   004076 003530
    010370  aa   000004 000000
    010371  55   003704 001002
    010372  aa   000004 000000
    010373  55   001013 001013
    010374  aa   000004 000000
    010375  55   001013 001022
    010376  aa   000004 000000
    010377  55   003557 001030
    010400  aa   000004 000000
    010401  55   003570 001037
    010402  aa   000004 000000
    010403  55   003704 001047
    010404  aa   000004 000000
    010405  55   003557 003531
    010406  aa   000004 000000
    010407  55   004142 003534
    010410  aa   000004 000000
    010411  55   004142 003540
    010412  aa   000004 000000
    010413  55   004142 003544
    010414  aa   000004 000000
    010415  55   004142 003550
    010416  aa   000004 000000
    010417  55   003557 003554
    010420  aa   000004 000000
    010421  55   004102 001134
    010422  aa   000004 000000
    010423  55   004031 003562
    010424  aa   000004 000000
    010425  55   004031 003564
    010426  aa   000004 000000
    010427  55   004031 003566
    010430  aa   000004 000000
    010431  55   001164 001164
    010432  aa   000004 000000
    010433  55   003570 001172
    010434  aa   000004 000000
    010435  55   003704 001201
    010436  aa   000004 000000
    010437  55   003572 003572
    010440  aa   000004 000000
    010441  55   001215 001215
    010442  aa   000004 000000
    010443  55   003614 001223
    010444  aa   000004 000000
    010445  55   003614 001231
    010446  aa   000004 000000
    010447  55   003575 003575
    010450  aa   000004 000000
    010451  55   001245 001245
    010452  aa   000004 000000
    010453  55   004142 003600
    010454  aa   000004 000000
    010455  55   004142 003603
    010456  aa   000004 000000
    010457  55   004142 003606
    010460  aa   000004 000000
    010461  55   000460 001300
    010462  aa   000004 000000
    010463  55   000460 001307
    010464  aa   000004 000000
    010465  55   004142 003611
    010466  aa   000004 000000
    010467  55   003614 001323
    010470  aa   000004 000000
    010471  55   003622 003617
    010472  aa   000004 000000
    010473  55   003622 003667
    010474  aa   000004 000000
    010475  55   001345 001345
    010476  aa   000004 000000
    010477  55   001365 001356
    010500  aa   000004 000000
    010501  55   001365 001365
    010502  aa   000004 000000
    010503  55   003634 003624
    010504  aa   000004 000000
    010505  55   003634 003630
    010506  aa   000004 000000
    010507  55   003643 001413
    010510  aa   000004 000000
    010511  55   004105 001423
    010512  aa   000004 000000
    010513  55   000436 001431
    010514  aa   000004 000000
    010515  55   000436 001443
    010516  aa   000004 000000
    010517  55   000436 001453
    010520  aa   000004 000000
    010521  55   000436 001463
    010522  aa   000004 000000
    010523  55   000436 001475
    010524  aa   000004 000000
    010525  55   003643 003641
    010526  aa   000004 000000
    010527  55   000436 001514
    010530  aa   000004 000000
    010531  55   001345 003646
    010532  aa   000004 000000
    010533  55   003653 001534
    010534  aa   000004 000000
    010535  55   004013 003656
    010536  aa   000004 000000
    010537  55   000436 003662
    010540  aa   000004 000000
    010541  55   000436 001565
    010542  aa   000004 000000
    010543  55   003734 001574
    010544  aa   000004 000000
    010545  55   003734 003667
    010546  aa   000004 000000
    010547  55   000553 001615
    010550  aa   000004 000000
    010551  55   001625 001625
    010552  aa   000004 000000
    010553  55   003673 003670
    010554  aa   000004 000000
    010555  55   003673 001646
    010556  aa   000004 000000
    010557  55   000436 003677
    010560  aa   000004 000000
    010561  55   000436 001665
    010562  aa   000004 000000
    010563  55   004105 001674
    010564  aa   000004 000000
    010565  55   004013 001701
    010566  aa   000004 000000
    010567  55   003704 001710
    010570  aa   000004 000000
    010571  55   003706 001717
    010572  aa   000004 000000
    010573  55   001164 001727
    010574  aa   000004 000000
    010575  55   003725 003710
    010576  aa   000004 000000
    010577  55   003725 003717
    010600  aa   000004 000000
    010601  55   003734 003732
    010602  aa   000004 000000
    010603  55   001773 001773
    010604  aa   000004 000000
    010605  55   000436 002002
    010606  aa   000004 000000
    010607  55   000436 002011
    010610  aa   000004 000000
    010611  55   000436 002017
    010612  aa   000004 000000
    010613  55   001164 003736
    010614  aa   000004 000000
    010615  55   000436 002036
    010616  aa   000004 000000
    010617  55   001013 002044
    010620  aa   000004 000000
    010621  55   000436 002053
    010622  aa   000004 000000
    010623  55   000436 002063
    010624  aa   000004 000000
    010625  55   000436 003742
    010626  aa   000004 000000
    010627  55   000436 002103
    010630  aa   000004 000000
    010631  55   003756 003750
    010632  aa   000004 000000
    010633  55   003756 003753
    010634  aa   000004 000000
    010635  55   003765 003761
    010636  aa   000004 000000
    010637  55   003765 003763
    010640  aa   000004 000000
    010641  55   004013 003767
    010642  aa   000004 000000
    010643  55   004013 003771
    010644  aa   000004 000000
    010645  55   004013 003774
    010646  aa   000004 000000
    010647  55   004013 003777
    010650  aa   000004 000000
    010651  55   004013 004001
    010652  aa   000004 000000
    010653  55   004013 004004
    010654  aa   000004 000000
    010655  55   004013 004007
    010656  aa   000004 000000
    010657  55   002232 002232
    010660  aa   000004 000000
    010661  55   002232 004015
    010662  aa   000004 000000
    010663  55   002232 004017
    010664  aa   000004 000000
    010665  55   004102 004022
    010666  aa   000004 000000
    010667  55   000203 002264
    010670  aa   000004 000000
    010671  55   004031 004025
    010672  aa   000004 000000
    010673  55   004031 004027
    010674  aa   000004 000000
    010675  55   004142 004033
    010676  aa   000004 000000
    010677  55   004142 004037
    010700  aa   000004 000000
    010701  55   004142 004043
    010702  aa   000004 000000
    010703  55   004110 002350
    010704  aa   000004 000000
    010705  55   004142 004047
    010706  aa   000004 000000
    010707  55   004057 004053
    010710  aa   000004 000000
    010711  55   004057 004055
    010712  aa   000004 000000
    010713  55   002405 002405
    010714  aa   000004 000000
    010715  55   004120 002414
    010716  aa   000004 000000
    010717  55   004105 002423
    010720  aa   000004 000000
    010721  55   002446 004062
    010722  aa   000004 000000
    010723  55   002446 004064
    010724  aa   000004 000000
    010725  55   004076 004066
    010726  aa   000004 000000
    010727  55   004076 004072
    010730  aa   000004 000000
    010731  55   004102 004077
    010732  aa   000004 000000
    010733  55   004105 002475
    010734  aa   000004 000000
    010735  55   004110 002504
    010736  aa   000004 000000
    010737  55   004120 004112
    010740  aa   000004 000000
    010741  55   004120 004114
    010742  aa   000004 000000
    010743  55   004120 004116
    010744  aa   000004 000000
    010745  55   004142 004122
    010746  aa   000004 000000
    010747  55   004142 004126
    010750  aa   000004 000000
    010751  55   004142 004132
    010752  aa   000004 000000
    010753  55   004142 004136
    010754  aa   000004 000000
    010755  55   004157 004144
    010756  aa   000004 000000
    010757  55   004157 004147
    010760  aa   000004 000000
    010761  55   004157 004151
    010762  aa   000004 000000
    010763  55   004157 004153
    010764  aa   000004 000000
    010765  55   004157 004155
    010766  aa   000004 000000
    010767  55   004164 004160
    010770  aa   000004 000000
    010771  55   004213 004166
    010772  aa   000004 000000
    010773  55   004176 004174
    010774  aa   000004 000000
    010775  55   004213 004201
    010776  aa   000004 000000
    010777  55   004213 004204
    011000  aa   000004 000000
    011001  55   004213 004210
    011002  aa   000004 000000
    011003  55   004216 004214
    011004  aa   000004 000000
    011005  55   004221 004221
    011006  aa   000004 000000
    011007  55   004224 004224
    011010  aa   000001 000000
    011011  aa   000000 000000

INTERNAL EXPRESSION WORDS

    011012  5a   004226 000000
    011013  5a   004230 000000
    011014  5a   004232 000000
    011015  5a   004234 000000
    011016  5a   004236 000000
    011017  5a   004240 000000
    011020  5a   004242 000000
    011021  5a   004244 000000
    011022  5a   004246 000000
    011023  5a   004250 000000
    011024  5a   004252 000000
    011025  5a   004254 000000
    011026  5a   004256 000000
    011027  5a   004260 000000
    011030  5a   004262 000000
    011031  5a   004264 000000
    011032  5a   004266 000000
    011033  5a   004270 000000
    011034  5a   004272 000000
    011035  5a   004274 000000
    011036  5a   004276 000000
    011037  5a   004300 000000
    011040  5a   004302 000000
    011041  5a   004304 000000
    011042  5a   004306 000000
    011043  5a   004310 000000
    011044  5a   004312 000000
    011045  5a   004314 000000
    011046  5a   004316 000000
    011047  5a   004320 000000
    011050  5a   004322 000000
    011051  5a   004324 000000
    011052  5a   004326 000000
    011053  5a   004330 000000
    011054  5a   004332 000000
    011055  5a   004334 000000
    011056  5a   004336 000000
    011057  5a   004340 000000
    011060  5a   004342 000000
    011061  5a   004344 000000
    011062  5a   004346 000000
    011063  5a   004350 000000
    011064  5a   004352 000000
    011065  5a   004354 000000
    011066  5a   004356 000000
    011067  5a   004360 000000
    011070  5a   004362 000000
    011071  5a   004364 000000
    011072  5a   004366 000000
    011073  5a   004370 000000
    011074  5a   004372 000000
    011075  5a   004374 000000
    011076  5a   004376 000000
    011077  5a   004400 000000
    011100  5a   004402 000000
    011101  5a   004404 000000
    011102  5a   004406 000000
    011103  5a   004410 000000
    011104  5a   004412 000000
    011105  5a   004414 000000
    011106  5a   004416 000000
    011107  5a   004420 000000
    011110  5a   004422 000000
    011111  5a   004424 000000
    011112  5a   004426 000000
    011113  5a   004430 000000
    011114  5a   004432 000000
    011115  5a   004434 000000
    011116  5a   004436 000000
    011117  5a   004440 000000
    011120  5a   004442 000000
    011121  5a   004444 000000
    011122  5a   004446 000000
    011123  5a   004450 000000
    011124  5a   004452 000000
    011125  5a   004454 000000
    011126  5a   004456 000000
    011127  5a   004460 000000
    011130  5a   004462 000000
    011131  5a   004464 000000
    011132  5a   004466 000000
    011133  5a   004470 000000
    011134  5a   004472 000000
    011135  5a   004474 000000
    011136  5a   004476 000000
    011137  5a   004500 000000
    011140  5a   004502 000000
    011141  5a   004504 000000
    011142  5a   004506 000000
    011143  5a   004510 000000
    011144  5a   004512 000000
    011145  5a   004514 000000
    011146  5a   004516 000000
    011147  5a   004520 000000
    011150  5a   004522 000000
    011151  5a   004524 000000
    011152  5a   004526 000000
    011153  5a   004530 000000
    011154  5a   004532 000000
    011155  5a   004534 000000
    011156  5a   004536 000000
    011157  5a   004540 000000
    011160  5a   004542 000000
    011161  5a   004544 000000
    011162  5a   004546 000000
    011163  5a   004550 000000
    011164  5a   004552 000000
    011165  5a   004554 000000
    011166  5a   004556 000000
    011167  5a   004560 000000
    011170  5a   004562 000000
    011171  5a   004564 000000
    011172  5a   004566 000000
    011173  5a   004570 000000
    011174  5a   004572 000000
    011175  5a   004574 000000
    011176  5a   004576 000000
    011177  5a   004600 000000
    011200  5a   004602 000000
    011201  5a   004604 000000
    011202  5a   004606 000000
    011203  5a   004610 000000
    011204  5a   004612 000000
    011205  5a   004614 000000
    011206  5a   004616 000000
    011207  5a   004620 000000
    011210  5a   004622 000000
    011211  5a   004624 000000
    011212  5a   004626 000000
    011213  5a   004630 000000
    011214  5a   004632 000000
    011215  5a   004634 000000
    011216  5a   004636 000000
    011217  5a   004640 000000
    011220  5a   004642 000000
    011221  5a   004644 000000
    011222  5a   004646 000000
    011223  5a   004650 000000
    011224  5a   004652 000000
    011225  5a   004654 000000
    011226  5a   004656 000000
    011227  5a   004660 000000
    011230  5a   004662 000000
    011231  5a   004664 000000
    011232  5a   004666 000000
    011233  5a   004670 000000
    011234  5a   004672 000000
    011235  5a   004674 000000
    011236  5a   004676 000000
    011237  5a   004700 000000
    011240  5a   004702 000000
    011241  5a   004704 000000
    011242  5a   004706 000000
    011243  5a   004710 000000
    011244  5a   004712 000000
    011245  5a   004714 000000
    011246  5a   004716 000000
    011247  5a   004720 000000
    011250  5a   004722 000000
    011251  5a   004724 000000
    011252  5a   004726 000000
    011253  5a   004730 000000
    011254  5a   004732 000000
    011255  5a   004734 000000
    011256  5a   004736 000000
    011257  5a   004740 000000
    011260  5a   004742 000000
    011261  5a   004744 000000
    011262  5a   004746 000000
    011263  5a   004750 000000
    011264  5a   004752 000000
    011265  5a   004754 000000
    011266  5a   004756 000000
    011267  5a   004760 000000
    011270  5a   004762 000000
    011271  5a   004764 000000
    011272  5a   004766 000000
    011273  5a   004770 000000
    011274  5a   004772 000000
    011275  5a   004774 000000
    011276  5a   004776 000000
    011277  5a   005000 000000
    011300  5a   005002 000000
    011301  5a   005004 000000
    011302  5a   005006 000000
    011303  5a   005010 000000
    011304  5a   005012 000000
    011305  5a   005014 000000
    011306  5a   005016 000000
    011307  5a   005020 000000
    011310  5a   005022 000000
    011311  5a   005024 000000
    011312  5a   005026 000000
    011313  5a   005030 000000
    011314  5a   005032 000000
    011315  5a   005034 000000
    011316  5a   005036 000000
    011317  5a   005040 000000
    011320  5a   005042 000000
    011321  5a   005044 000000
    011322  5a   005046 000000
    011323  aa   000000 000000
LINKAGE INFORMATION

    000000  aa   000000 000000
    000001  0a   003740 000000
    000002  aa   000000 000000
    000003  aa   000000 000000
    000004  aa   000000 000000
    000005  aa   000000 000000
    000006  22   002660 003502
    000007  a2   000000 002650
    002660  9a   775120 0000 46         signal_|signal_
    002661  5a   005362 0000 00
    002662  9a   775116 0000 46         unwinder_|unwinder_
    002663  5a   005361 0000 00
    002664  9a   775114 0000 46         sys_info|clock_
    002665  5a   005360 0000 20
    002666  9a   775112 0000 46         pds|cpu_time
    002667  5a   005357 0000 00
    002670  9a   775110 0000 46         pds|virtual_delta
    002671  5a   005356 0000 00
    002672  9a   775106 0000 46         pds|page_waits
    002673  5a   005355 0000 00
    002674  9a   775104 0000 46         ring_alarm|poll
    002675  5a   005354 0000 00
    002676  9a   775102 0000 46         pds|pre_empt_poll_return
    002677  5a   005353 0000 00
    002700  9a   775100 0000 46         pxss|pre_empt_poll
    002701  5a   005352 0000 00
    002702  9a   775076 0000 46         acl|aadd
    002703  5a   005351 0000 00
    002704  9a   775074 0000 46         acl|a1add
    002705  5a   005350 0000 00
    002706  9a   775072 0000 46         acl|adelete
    002707  5a   005347 0000 00
    002710  9a   775070 0000 46         acl|alist
    002711  5a   005346 0000 00
    002712  9a   775066 0000 46         acl|areplace
    002713  5a   005345 0000 00
    002714  9a   775064 0000 46         asd_|add_sentries
    002715  5a   005344 0000 00
    002716  9a   775062 0000 46         asd_|add_dentries
    002717  5a   005343 0000 00
    002720  9a   775060 0000 46         asd_|add_identries
    002721  5a   005342 0000 00
    002722  9a   775056 0000 46         asd_|add_isentries
    002723  5a   005341 0000 00
    002724  9a   775054 0000 46         append|branch
    002725  5a   005340 0000 00
    002726  9a   775052 0000 46         append|branchx
    002727  5a   005337 0000 00
    002730  9a   775050 0000 46         append|link
    002731  5a   005336 0000 00
    002732  9a   775046 0000 46         hc_ipc|assign_channel
    002733  5a   005335 0000 00
    002734  9a   775044 0000 46         link_man|assign_linkage
    002735  5a   005334 0000 00
    002736  9a   775042 0000 46         fast_hc_ipc|ipc_block
    002737  5a   005333 0000 00
    002740  9a   775040 0000 46         set|change_bc_path
    002741  5a   005332 0000 00
    002742  9a   775036 0000 46         set|change_bc_ptr
    002743  5a   005331 0000 00
    002744  9a   775034 0000 46         chname|cfile
    002745  5a   005330 0000 00
    002746  9a   775032 0000 46         chname|cseg
    002747  5a   005327 0000 00
    002750  9a   775030 0000 46         link_man|combine_linkage
    002751  5a   005326 0000 00
    002752  9a   775026 0000 46         append|create_branch_
    002753  5a   005325 0000 00
    002754  9a   775024 0000 46         del_dir_tree|del_dir_tree
    002755  5a   005324 0000 00
    002756  9a   775022 0000 46         delentry|dfile
    002757  5a   005323 0000 00
    002760  9a   775020 0000 46         delentry|dseg
    002761  5a   005322 0000 00
    002762  9a   775016 0000 46         asd_|del_sentries
    002763  5a   005321 0000 00
    002764  9a   775014 0000 46         hc_ipc|delete_channel
    002765  5a   005320 0000 00
    002766  9a   775012 0000 46         asd_|del_dentries
    002767  5a   005317 0000 00
    002770  9a   775010 0000 46         asd_|del_identries
    002771  5a   005316 0000 00
    002772  9a   775006 0000 46         asd_|del_isentries
    002773  5a   005315 0000 00
    002774  9a   775004 0000 46         quota|dqread
    002775  5a   005314 0000 00
    002776  9a   775002 0000 46         quota|dqmove
    002777  5a   005313 0000 00
    003000  9a   775000 0000 46         tty_read|echo_negotiate_get_chars
    003001  5a   005312 0000 00
    003002  9a   774776 0000 46         fast_hc_ipc|ipc_f_block
    003003  5a   005311 0000 00
    003004  9a   774774 0000 46         force_write|consecutive
    003005  5a   005310 0000 00
    003006  9a   774772 0000 46         force_write|list
    003007  5a   005307 0000 00
    003010  9a   774770 0000 46         force_write|force_write
    003011  5a   005306 0000 00
    003012  9a   774766 0000 46         fs_get|access_modes
    003013  5a   005305 0000 00
    003014  9a   774764 0000 46         fs_get|brackets
    003015  5a   005304 0000 00
    003016  9a   774762 0000 46         fs_get|dir_name
    003017  5a   005303 0000 00
    003020  9a   774760 0000 46         fs_get|mode
    003021  5a   005302 0000 00
    003022  9a   774756 0000 46         fs_get|path_name
    003023  5a   005301 0000 00
    003024  9a   774754 0000 46         fs_get|ref_name
    003025  5a   005300 0000 00
    003026  9a   774752 0000 46         fs_get|seg_ptr
    003027  5a   005277 0000 00
    003030  9a   774750 0000 46         fs_move|ffile
    003031  5a   005276 0000 00
    003032  9a   774746 0000 46         fs_move|fseg
    003033  5a   005275 0000 00
    003034  9a   774744 0000 46         fs_search|get_wdir
    003035  5a   005274 0000 00
    003036  9a   774742 0000 46         fs_search|set_wdir
    003037  5a   005273 0000 00
    003040  9a   774740 0000 46         status_|get_access_class
    003041  5a   005272 0000 00
    003042  9a   774736 0000 46         status_|get_access_class_ptr
    003043  5a   005271 0000 00
    003044  9a   774734 0000 46         status_|get_access_info
    003045  5a   005270 0000 00
    003046  9a   774732 0000 46         status_|get_access_info_seg
    003047  5a   005267 0000 00
    003050  9a   774730 0000 46         set_alarm_timer|get_alarm_timer
    003051  5a   005266 0000 00
    003052  9a   774726 0000 46         status_|get_author
    003053  5a   005265 0000 00
    003054  9a   774724 0000 46         proc_info|authorization
    003055  5a   005264 0000 00
    003056  9a   774722 0000 46         status_|get_bc_author
    003057  5a   005263 0000 00
    003060  9a   774720 0000 46         status_|get_dates
    003061  5a   005262 0000 00
    003062  9a   774716 0000 46         status_|get_dates_ptr
    003063  5a   005261 0000 00
    003064  9a   774714 0000 46         get_defname_|get_defname_
    003065  5a   005260 0000 00
    003066  9a   774712 0000 46         ringbr_|get_dir
    003067  5a   005257 0000 00
    003070  9a   774710 0000 46         hc_exponent_control|exponent_control_get
    003071  5a   005256 0000 00
    003072  9a   774706 0000 46         hc_exponent_control|hex_exponent_control_get
    003073  5a   005255 0000 00
    003074  9a   774704 0000 46         proc_info|get_initial_ring
    003075  5a   005254 0000 00
    003076  9a   774702 0000 46         tc_util|get_ipc_operands
    003077  5a   005253 0000 00
    003100  9a   774700 0000 46         ips_|get_ips_mask
    003101  5a   005252 0000 00
    003102  9a   774676 0000 46         fs_get|get_link_target
    003103  5a   005251 0000 00
    003104  9a   774674 0000 46         link_man|get_lp
    003105  5a   005250 0000 00
    003106  9a   774672 0000 46         status_|get_max_length
    003107  5a   005247 0000 00
    003110  9a   774670 0000 46         status_|get_max_length_ptr
    003111  5a   005246 0000 00
    003112  9a   774666 0000 46         hc_page_trace|get_page_trace
    003113  5a   005245 0000 00
    003114  9a   774664 0000 46         hc_page_trace|get_signal
    003115  5a   005244 0000 00
    003116  9a   774662 0000 46         get_process_usage|get_process_usage
    003117  5a   005243 0000 00
    003120  9a   774660 0000 46         set_procs_required|get_procs_required
    003121  5a   005242 0000 00
    003122  9a   774656 0000 46         ringbr_|get
    003123  5a   005241 0000 00
    003124  9a   774654 0000 46         ringbr_|get_ring_brackets_seg
    003125  5a   005240 0000 00
    003126  9a   774652 0000 46         status_|get_safety_sw
    003127  5a   005237 0000 00
    003130  9a   774650 0000 46         status_|get_safety_sw_ptr
    003131  5a   005236 0000 00
    003132  9a   774646 0000 46         fs_get|search_rules
    003133  5a   005235 0000 00
    003134  9a   774644 0000 46         initiate_|get_segment_ptr_path
    003135  5a   005234 0000 00
    003136  9a   774642 0000 46         initiate_search_rules|get_system_rules
    003137  5a   005233 0000 00
    003140  9a   774640 0000 46         status_|get_uid_file
    003141  5a   005232 0000 00
    003142  9a   774636 0000 46         kst_info|get_uid
    003143  5a   005231 0000 00
    003144  9a   774634 0000 46         status_|get_user_access_modes
    003145  5a   005230 0000 00
    003146  9a   774632 0000 46         status_|get_user_access_modes_seg
    003147  5a   005227 0000 00
    003150  9a   774630 0000 46         status_|get_user_effmode
    003151  5a   005226 0000 00
    003152  9a   774626 0000 46         status_|get_user_raw_mode
    003153  5a   005225 0000 00
    003154  9a   774624 0000 46         status_|get_volume_dump_switches
    003155  5a   005224 0000 00
    003156  9a   774622 0000 46         link_man|grow_lot
    003157  5a   005223 0000 00
    003160  9a   774620 0000 46         kst_info|high_low_seg_count
    003161  5a   005222 0000 00
    003162  9a   774616 0000 46         history_reg_save|per_proc_get
    003163  5a   005221 0000 00
    003164  9a   774614 0000 46         history_reg_save|per_proc_set
    003165  5a   005220 0000 00
    003166  9a   774612 0000 46         initiate|initiate
    003167  5a   005217 0000 00
    003170  9a   774610 0000 46         initiate|initiate_count
    003171  5a   005216 0000 00
    003172  9a   774606 0000 46         initiate_search_rules|initiate_search_rules
    003173  5a   005215 0000 00
    003174  9a   774604 0000 46         level|get
    003175  5a   005214 0000 00
    003176  9a   774602 0000 46         level|set_gate
    003177  5a   005213 0000 00
    003200  9a   774600 0000 46         link_snap|link_force
    003201  5a   005212 0000 00
    003202  9a   774576 0000 46         asd_|list_sall
    003203  5a   005211 0000 00
    003204  9a   774574 0000 46         star_|list_dir
    003205  5a   005210 0000 00
    003206  9a   774572 0000 46         star_|list_dir_fast
    003207  5a   005207 0000 00
    003210  9a   774570 0000 46         asd_|list_dall
    003211  5a   005206 0000 00
    003212  9a   774566 0000 46         asd_|list_idall
    003213  5a   005205 0000 00
    003214  9a   774564 0000 46         asd_|list_isall
    003215  5a   005204 0000 00
    003216  9a   774562 0000 46         list_inacl_all|list_inacl_all
    003217  5a   005203 0000 00
    003220  9a   774560 0000 46         mountedp|mountedp
    003221  5a   005202 0000 00
    003222  9a   774556 0000 46         link_snap|make_entry
    003223  5a   005201 0000 00
    003224  9a   774554 0000 46         link_snap|make_ptr
    003225  5a   005200 0000 00
    003226  9a   774552 0000 46         make_seg|make_seg
    003227  5a   005177 0000 00
    003230  9a   774550 0000 46         terminate_|terminate_
    003231  5a   005176 0000 00
    003232  9a   774546 0000 46         ips_|mask_ips
    003233  5a   005175 0000 00
    003234  9a   774544 0000 46         page|pre_page_info
    003235  5a   005174 0000 00
    003236  9a   774542 0000 46         proc_info|proc_info
    003237  5a   005173 0000 00
    003240  9a   774540 0000 46         quota|qget
    003241  5a   005172 0000 00
    003242  9a   774536 0000 46         quota|qread
    003243  5a   005171 0000 00
    003244  9a   774534 0000 46         quota|qmove
    003245  5a   005170 0000 00
    003246  9a   774532 0000 46         fast_hc_ipc|read_events
    003247  5a   005167 0000 00
    003250  9a   774530 0000 46         kst_util|free_range
    003251  5a   005166 0000 00
    003252  9a   774526 0000 46         asd_|replace_sall
    003253  5a   005165 0000 00
    003254  9a   774524 0000 46         asd_|replace_dall
    003255  5a   005164 0000 00
    003256  9a   774522 0000 46         asd_|replace_idall
    003257  5a   005163 0000 00
    003260  9a   774520 0000 46         asd_|replace_isall
    003261  5a   005162 0000 00
    003262  9a   774516 0000 46         kst_util|get_range
    003263  5a   005161 0000 00
    003264  9a   774514 0000 46         ips_|reset_ips_mask
    003265  5a   005160 0000 00
    003266  9a   774512 0000 46         page|reset_working_set
    003267  5a   005157 0000 00
    003270  9a   774510 0000 46         kst_util|set_256K_switch
    003271  5a   005156 0000 00
    003272  9a   774506 0000 46         set_alarm_timer|set_alarm
    003273  5a   005155 0000 00
    003274  9a   774504 0000 46         set_alarm_timer|set_alarm_timer
    003275  5a   005154 0000 00
    003276  9a   774502 0000 46         ips_|set_automatic_ips_mask
    003277  5a   005153 0000 00
    003300  9a   774500 0000 46         set|bc
    003301  5a   005152 0000 00
    003302  9a   774476 0000 46         set|bc_seg
    003303  5a   005151 0000 00
    003304  9a   774474 0000 46         set|copysw
    003305  5a   005150 0000 00
    003306  9a   774472 0000 46         pxss|set_cpu_timer
    003307  5a   005147 0000 00
    003310  9a   774470 0000 46         set|damaged_sw_path
    003311  5a   005146 0000 00
    003312  9a   774466 0000 46         set|damaged_sw_ptr
    003313  5a   005145 0000 00
    003314  9a   774464 0000 46         ringbr_|set_dir
    003315  5a   005144 0000 00
    003316  9a   774462 0000 46         set|dnzp_sw_path
    003317  5a   005143 0000 00
    003320  9a   774460 0000 46         set|dnzp_sw_ptr
    003321  5a   005142 0000 00
    003322  9a   774456 0000 46         set|entry_bound_path
    003323  5a   005141 0000 00
    003324  9a   774454 0000 46         set|entry_bound_ptr
    003325  5a   005140 0000 00
    003326  9a   774452 0000 46         hc_exponent_control|exponent_control_set
    003327  5a   005137 0000 00
    003330  9a   774450 0000 46         hc_exponent_control|hex_exponent_control_set
    003331  5a   005136 0000 00
    003332  9a   774446 0000 46         hc_exponent_control|set_hexfp_control
    003333  5a   005135 0000 00
    003334  9a   774444 0000 46         ips_|set_ips_mask
    003335  5a   005134 0000 00
    003336  9a   774442 0000 46         set|max_length_path
    003337  5a   005133 0000 00
    003340  9a   774440 0000 46         set|max_length_ptr
    003341  5a   005132 0000 00
    003342  9a   774436 0000 46         hc_page_trace|set_signal
    003343  5a   005131 0000 00
    003344  9a   774434 0000 46         illegal_procedure|set_pl1_machine_mode
    003345  5a   005130 0000 00
    003346  9a   774432 0000 46         set_procs_required|set_procs_required
    003347  5a   005127 0000 00
    003350  9a   774430 0000 46         ringbr_|set
    003351  5a   005126 0000 00
    003352  9a   774426 0000 46         set|safety_sw_path
    003353  5a   005125 0000 00
    003354  9a   774424 0000 46         set|safety_sw_ptr
    003355  5a   005124 0000 00
    003356  9a   774422 0000 46         set_stack_ptr|set_stack_ptr
    003357  5a   005123 0000 00
    003360  9a   774420 0000 46         set|synchronized_sw
    003361  5a   005122 0000 00
    003362  9a   774416 0000 46         pxss|set_timer
    003363  5a   005121 0000 00
    003364  9a   774414 0000 46         set|volume_dump_switches
    003365  5a   005120 0000 00
    003366  9a   774412 0000 46         star_|star_
    003367  5a   005117 0000 00
    003370  9a   774410 0000 46         star_|dir_list_
    003371  5a   005116 0000 00
    003372  9a   774406 0000 46         star_|list_
    003373  5a   005115 0000 00
    003374  9a   774404 0000 46         status_|status_
    003375  5a   005114 0000 00
    003376  9a   774402 0000 46         status_|status_for_backup
    003377  5a   005113 0000 00
    003400  9a   774400 0000 46         status_|long
    003401  5a   005112 0000 00
    003402  9a   774376 0000 46         status_|minf
    003403  5a   005111 0000 00
    003404  9a   774374 0000 46         status_|mins
    003405  5a   005110 0000 00
    003406  9a   774372 0000 46         stop_process|stop_process
    003407  5a   005107 0000 00
    003410  9a   774370 0000 46         terminate_|tefile
    003411  5a   005106 0000 00
    003412  9a   774366 0000 46         terminate_|name
    003413  5a   005105 0000 00
    003414  9a   774364 0000 46         terminate_|noname
    003415  5a   005104 0000 00
    003416  9a   774362 0000 46         terminate_|teseg
    003417  5a   005103 0000 00
    003420  9a   774360 0000 46         page|trace_marker
    003421  5a   005102 0000 00
    003422  9a   774356 0000 46         truncate|trfile
    003423  5a   005101 0000 00
    003424  9a   774354 0000 46         truncate|trseg
    003425  5a   005100 0000 00
    003426  9a   774352 0000 46         try_to_unlock_lock|try_to_unlock_lock
    003427  5a   005077 0000 00
    003430  9a   774350 0000 46         tty_abort|tty_abort
    003431  5a   005076 0000 00
    003432  9a   774346 0000 46         tty_attach|tty_attach
    003433  5a   005075 0000 00
    003434  9a   774344 0000 46         tty_detach|tty_detach
    003435  5a   005074 0000 00
    003436  9a   774342 0000 46         tty_detach|new_proc
    003437  5a   005073 0000 00
    003440  9a   774340 0000 46         tty_read|tty_get_line
    003441  5a   005072 0000 00
    003442  9a   774336 0000 46         tty_index|tty_event
    003443  5a   005071 0000 00
    003444  9a   774334 0000 46         tty_index|tty_get_name
    003445  5a   005070 0000 00
    003446  9a   774332 0000 46         tty_index|tty_index
    003447  5a   005067 0000 00
    003450  9a   774330 0000 46         tty_order|tty_order
    003451  5a   005066 0000 00
    003452  9a   774326 0000 46         tty_read|tty_read
    003453  5a   005065 0000 00
    003454  9a   774324 0000 46         tty_read|tty_read_with_mark
    003455  5a   005064 0000 00
    003456  9a   774322 0000 46         tty_read|tty_read_echoed
    003457  5a   005063 0000 00
    003460  9a   774320 0000 46         tty_state|tty_state
    003461  5a   005062 0000 00
    003462  9a   774316 0000 46         tty_write|tty_write
    003463  5a   005061 0000 00
    003464  9a   774314 0000 46         tty_write|tty_write_set_mark
    003465  5a   005060 0000 00
    003466  9a   774312 0000 46         tty_write|tty_write_whole_string
    003467  5a   005057 0000 00
    003470  9a   774310 0000 46         ips_|unmask_ips
    003471  5a   005056 0000 00
    003472  9a   774306 0000 46         usage_values|usage_values
    003473  5a   005055 0000 00
    003474  9a   774304 0000 46         tc_util|validate_processid
    003475  5a   005054 0000 00
    003476  9a   774302 0000 46         hc_ipc|ipc_wakeup
    003477  5a   005053 0000 00
    003500  9a   774300 0000 46         verify_lock|verify_lock_bad_dir
    003501  5a   005052 0000 00
SYMBOL INFORMATION

SYMBOL TABLE HEADER

    000000  aa   000000 000001
    000001  aa   163171 155142
    000002  aa   164162 145145
    000003  aa   000000 000010
    000004  aa   000000 117244
    000005  aa   361023 525721
    000006  aa   000000 117547
    000007  aa   247202 011175
    000010  aa   141154 155040
    000011  aa   040040 040040
    000012  aa   000024 000040
    000013  aa   000034 000040
    000014  aa   000044 000100
    000015  aa   000002 000002
    000016  aa   000064 000000
    000017  aa   000000 001614
    000020  aa   000000 000200
    000021  aa   001031 000602
    000022  aa   001602 000200
    000023  aa   000064 000000
    000024  aa   101114 115040
    000025  aa   126145 162163
    000026  aa   151157 156040
    000027  aa   070056 061064
    000030  aa   040115 141162
    000031  aa   143150 040061
    000032  aa   071070 071040
    000033  aa   040040 040040
    000034  aa   110151 162156
    000035  aa   145151 163145
    000036  aa   156056 123171
    000037  aa   163115 141151
    000040  aa   156164 056141
    000041  aa   040040 040040
    000042  aa   040040 040040
    000043  aa   040040 040040
    000044  aa   055164 141162
    000045  aa   147145 164040
    000046  aa   154066 070040
    000047  aa   040040 040040
    000050  aa   040040 040040
    000051  aa   040040 040040
    000052  aa   040040 040040
    000053  aa   040040 040040
    000054  aa   040040 040040
    000055  aa   040040 040040
    000056  aa   040154 151163
    000057  aa   164040 163171
    000060  aa   155142 157154
    000061  aa   163040 040040
    000062  aa   040040 040040
    000063  aa   040040 040040
    000064  aa   000000 000001
    000065  aa   000000 000006
    000066  aa   000116 000033
    000067  aa   175453 027607
    000070  aa   000000 117547
    000071  aa   225503 000000
    000072  aa   000125 000041
    000073  aa   134571 651553
    000074  aa   000000 113462
    000075  aa   317506 600000
    000076  aa   000136 000042
    000077  aa   147777 464111
    000100  aa   000000 115000
    000101  aa   507463 000000
    000102  aa   000147 000041
    000103  aa   052721 247134
    000104  aa   000000 105272
    000105  aa   317215 400000
    000106  aa   000160 000037
    000107  aa   127236 043523
    000110  aa   000000 112724
    000111  aa   701744 400000
    000112  aa   000170 000035
    000113  aa   043243 130223
    000114  aa   000000 102727
    000115  aa   712743 600000
    000116  aa   076163 160145          >spec>install>1115>hcs_.alm
    000117  aa   143076 151156
    000120  aa   163164 141154
    000121  aa   154076 061061
    000122  aa   061065 076150
    000123  aa   143163 137056
    000124  aa   141154 155040
    000125  aa   076154 144144          >ldd>include>gate_macros.incl.alm
    000126  aa   076151 156143
    000127  aa   154165 144145
    000130  aa   076147 141164
    000131  aa   145137 155141
    000132  aa   143162 157163
    000133  aa   056151 156143
    000134  aa   154056 141154
    000135  aa   155040 040040
    000136  aa   076154 144144          >ldd>include>stack_header.incl.alm
    000137  aa   076151 156143
    000140  aa   154165 144145
    000141  aa   076163 164141
    000142  aa   143153 137150
    000143  aa   145141 144145
    000144  aa   162056 151156
    000145  aa   143154 056141
    000146  aa   154155 040040
    000147  aa   076154 144144          >ldd>include>stack_frame.incl.alm
    000150  aa   076151 156143
    000151  aa   154165 144145
    000152  aa   076163 164141
    000153  aa   143153 137146
    000154  aa   162141 155145
    000155  aa   056151 156143
    000156  aa   154056 141154
    000157  aa   155040 040040
    000160  aa   076154 144144          >ldd>include>gate_data.incl.alm
    000161  aa   076151 156143
    000162  aa   154165 144145
    000163  aa   076147 141164
    000164  aa   145137 144141
    000165  aa   164141 056151
    000166  aa   156143 154056
    000167  aa   141154 155040
    000170  aa   076154 144144          >ldd>include>on_unit.incl.alm
    000171  aa   076151 156143
    000172  aa   154165 144145
    000173  aa   076157 156137
    000174  aa   165156 151164
    000175  aa   056151 156143
    000176  aa   154056 141154
    000177  aa   155040 040040
               MULTICS ASSEMBLY CROSS REFERENCE LISTING

   Value        Symbol                   Source file   Line number

         314    .actor                   hcs_:          35.
        3656    .bad_dir_desc            hcs_:         356.
        3654    .bad_dir_name            hcs_:         356.
        3714    .continue_signal         hcs_:         356.
         350    .defs_loop               hcs_:          35.
          71    .entryp                  hcs_:          35,  356.
         413    .gate_errordesc          hcs_:          35.
         410    .gate_errorname          hcs_:          35.
        3657    .handler                 hcs_:         356.
         307    .handler_entry           hcs_:         356.
         310    .handler_restart_entry   hcs_:         356.
        3717    .handler_restart_point   hcs_:         356.
          52    .label_variable          hcs_:          35,  356.
          76    .mcptr                   hcs_:          35,  356.
         312    .my_lp                   hcs_:          35,   52,   71,  102,  132,  133,  147,  160,  165,  180,  189,  226,
                                                       227,  260,  281,  296,  324,  346,  356.
         356    .next_def                hcs_:          35.
         414    .no_gate_error           hcs_:          35.
         476    .one_arg_header          hcs_:          35.
          56    .on_unit                 hcs_:          35,  356.
          70    .pf                      hcs_:          35.
         424    .return_code             hcs_:          35,   37,   38,   39,   40,   41,   42,   43,   44,   45,   46,   47,
                                                        48,   49,   50,   51,   53,   54,   55,   56,   57,   58,   59,   60,
                                                        61,   62,   63,   64,   65,   66,   67,   68,   69,   70,   72,   73,
                                                        74,   75,   76,   77,   78,   79,   80,   81,   82,   83,   84,   85,
                                                        86,   87,   88,   89,   90,   91,   92,   93,   94,   95,   96,   97,
                                                        98,   99,  100,  101,  103,  104,  105,  106,  107,  108,  109,  110,
                                                       111,  112,  113,  114,  115,  116,  117,  118,  119,  120,  121,  122,
                                                       123,  124,  125,  126,  127,  128,  129,  130,  131,  134,  135,  136,
                                                       137,  138,  139,  140,  141,  142,  143,  144,  145,  146,  148,  149,
                                                       150,  151,  152,  153,  154,  155,  156,  157,  158,  159,  161,  162,
                                                       163,  164,  166,  167,  168,  169,  170,  171,  172,  173,  174,  175,
                                                       176,  177,  178,  179,  181,  182,  183,  184,  185,  186,  187,  188,
                                                       190,  191,  192,  193,  194,  195,  196,  197,  198,  199,  200,  201,
                                                       202,  203,  204,  205,  206,  207,  208,  209,  210,  211,  212,  213,
                                                       214,  215,  216,  217,  218,  219,  220,  221,  222,  223,  224,  225,
                                                       228,  229.
         453    .return_code_return      hcs_:          35.
         333    .return_name             hcs_:          35.
         454    .ring_alarm              hcs_:          35.
         100    .ring_alarm_arg_list     hcs_:          35.
         346    .search_defs             hcs_:          35.
         361    .setup                   hcs_:          35,   37,   38,   39,   40,   41,   42,   43,   44,   45,   46,   47,
                                                        48,   49,   50,   51,   53,   54,   55,   56,   57,   58,   59,   60,
                                                        61,   62,   63,   64,   65,   66,   67,   68,   69,   70,   72,   73,
                                                        74,   75,   76,   77,   78,   79,   80,   81,   82,   83,   84,   85,
                                                        86,   87,   88,   89,   90,   91,   92,   93,   94,   95,   96,   97,
                                                        98,   99,  100,  101,  103,  104,  105,  106,  107,  108,  109,  110,
                                                       111,  112,  113,  114,  115,  116,  117,  118,  119,  120,  121,  122,
                                                       123,  124,  125,  126,  127,  128,  129,  130,  131,  134,  135,  136,
                                                       137,  138,  139,  140,  141,  142,  143,  144,  145,  146,  148,  149,
                                                       150,  151,  152,  153,  154,  155,  156,  157,  158,  159,  161,  162,
                                                       163,  164,  166,  167,  168,  169,  170,  171,  172,  173,  174,  175,
                                                       176,  177,  178,  179,  181,  182,  183,  184,  185,  186,  187,  188,
                                                       190,  191,  192,  193,  194,  195,  196,  197,  198,  199,  200,  201,
                                                       202,  203,  204,  205,  206,  207,  208,  209,  210,  211,  212,  213,
                                                       214,  215,  216,  217,  218,  219,  220,  221,  222,  223,  224,  225,
                                                       228,  229.
        3634    .set_dir_trap            hcs_:          37,   38,   39,   40,   41,   42,   43,   44,   45,   46,   47,   48,
                                                        49,   53,   54,   55,   56,   57,   59,   60,   61,   62,   63,   65,
                                                        66,   67,   68,   69,   76,   82,   83,   86,   87,   88,   89,   91,
                                                        93,   94,   95,   97,  105,  106,  111,  112,  113,  114,  118,  120,
                                                       121,  122,  123,  124,  129,  130,  135,  136,  137,  138,  139,  140,
                                                       141,  145,  150,  151,  152,  155,  156,  157,  158,  166,  167,  168,
                                                       170,  171,  172,  173,  174,  175,  176,  181,  182,  186,  187,  188,
                                                       192,  193,  194,  195,  196,  197,  198,  199,  200,  207,  208,  356.
          50    .temp                    hcs_:          35.
          52    .time1                   hcs_:          35.
          54    .time2                   hcs_:          35.
           0    .tv_begin                hcs_:          35.
         311    .tv_end                  hcs_:          35.
          56    .unwinder_arglist        hcs_:          35,  356.
          72    .vfl_arglist             hcs_:          35,  356.
                a1add                    hcs_:          38.
                aadd                     hcs_:          37.
                access_modes             hcs_:          75.
                acl                      hcs_:          37,   38,   39,   40,   41.
           1    acl_add                  hcs_:          37.
         501    acl_add.e                hcs_:          37.
          10    acl_add.t                hcs_:          37.
           2    acl_add1                 hcs_:          38.
         512    acl_add1.e               hcs_:          38.
          20    acl_add1.t               hcs_:          38.
           3    acl_delete               hcs_:          39.
         523    acl_delete.e             hcs_:          39.
          30    acl_delete.t             hcs_:          39.
           4    acl_list                 hcs_:          40.
         534    acl_list.e               hcs_:          40.
          40    acl_list.t               hcs_:          40.
           5    acl_replace              hcs_:          41.
         545    acl_replace.e            hcs_:          41.
          50    acl_replace.t            hcs_:          41.
           6    add_acl_entries          hcs_:          42.
         556    add_acl_entries.e        hcs_:          42.
          60    add_acl_entries.t        hcs_:          42.
                add_dentries             hcs_:          43.
           7    add_dir_acl_entries      hcs_:          43.
         567    add_dir_acl_entries.e    hcs_:          43.
          70    add_dir_acl_entries.t    hcs_:          43.
          10    add_dir_inacl_entries    hcs_:          44.
         600    add_dir_inacl_entries.e  hcs_:          44.
         100    add_dir_inacl_entries.t  hcs_:          44.
                add_identries            hcs_:          44.
          11    add_inacl_entries        hcs_:          45.
         611    add_inacl_entries.e      hcs_:          45.
         110    add_inacl_entries.t      hcs_:          45.
                add_isentries            hcs_:          45.
                add_sentries             hcs_:          42.
                adelete                  hcs_:          39.
                alist                    hcs_:          40.
                append                   hcs_:          46,   47,   48,   49,   59.
          15    appendl                  hcs_:          49.
         655    appendl.e                hcs_:          49.
         150    appendl.t                hcs_:          49.
          12    append_branch            hcs_:          46.
         622    append_branch.e          hcs_:          46.
         120    append_branch.t          hcs_:          46.
          13    append_branchx           hcs_:          47.
         633    append_branchx.e         hcs_:          47.
         130    append_branchx.t         hcs_:          47.
          14    append_link              hcs_:          48.
         644    append_link.e            hcs_:          48.
         140    append_link.t            hcs_:          48.
                areplace                 hcs_:          41.
                asd_                     hcs_:          42,   43,   44,   45,   63,   65,   66,   67,  135,  138,  139,  140,
                                                       155,  156,  157,  158.
          16    assign_channel           hcs_:          50.
         666    assign_channel.e         hcs_:          50.
         160    assign_channel.t         hcs_:          50.
          17    assign_linkage           hcs_:          51.
         676    assign_linkage.e         hcs_:          51.
         170    assign_linkage.t         hcs_:          51.
                authorization            hcs_:          92.
                bc                       hcs_:         166.
                bc_seg                   hcs_:         167.
          20    block                    hcs_:          52.
         706    block.e                  hcs_:          52.
                brackets                 hcs_:          76.
                branch                   hcs_:          46.
                branchx                  hcs_:          47.
        1170    call_offset              stack_header:        80.
                cfile                    hcs_:          55,   56.
          21    change_bc                hcs_:          53.
         712    change_bc.e              hcs_:          53.
         200    change_bc.t              hcs_:          53.
                change_bc_path           hcs_:          53.
                change_bc_ptr            hcs_:          54.
          22    change_bc_seg            hcs_:          54.
         723    change_bc_seg.e          hcs_:          54.
         210    change_bc_seg.t          hcs_:          54.
          23    chname                   hcs_:          55,   56,   57.
         734    chname.e                 hcs_:          55.
         220    chname.t                 hcs_:          55.
          24    chname_file              hcs_:          56.
         745    chname_file.e            hcs_:          56.
         230    chname_file.t            hcs_:          56.
          25    chname_seg               hcs_:          57.
         756    chname_seg.e             hcs_:          57.
         240    chname_seg.t             hcs_:          57.
                clock_                   hcs_:          35,  262,  283,  298,  326,  348.
          26    combine_linkage          hcs_:          58.
         767    combine_linkage.e        hcs_:          58.
         250    combine_linkage.t        hcs_:          58.
                consecutive              hcs_:          72.
                copysw                   hcs_:         168.
                cpu_time                 hcs_:          35,  263,  284,  299,  327,  349.
         302    cpu_time_and_paging_     hcs_:         252,  254.
        3570    cpu_time_and_paging_.e   hcs_:         256,  259.
         306    cpu_time_and_paging_op_  hcs_:         340,  341.
        3625    cpu_time_and_paging_op_.e      hcs_:         342,  345.
          27    create_branch_           hcs_:          59.
         777    create_branch_.e         hcs_:          59.
         260    create_branch_.t         hcs_:          59.
                cseg                     hcs_:          57.
                damaged_sw_path          hcs_:         170.
                damaged_sw_ptr           hcs_:         171.
                delentry                 hcs_:          61,   62.
          31    delentry_file            hcs_:          61.
        1021    delentry_file.e          hcs_:          61.
         300    delentry_file.t          hcs_:          61.
          32    delentry_seg             hcs_:          62.
        1032    delentry_seg.e           hcs_:          62.
         310    delentry_seg.t           hcs_:          62.
          33    delete_acl_entries       hcs_:          63.
        1043    delete_acl_entries.e     hcs_:          63.
         320    delete_acl_entries.t     hcs_:          63.
          34    delete_channel           hcs_:          64.
        1054    delete_channel.e         hcs_:          64.
         330    delete_channel.t         hcs_:          64.
          35    delete_dir_acl_entries   hcs_:          65.
        1064    delete_dir_acl_entries.e       hcs_:          65.
         340    delete_dir_acl_entries.t       hcs_:          65.
          36    delete_dir_inacl_entries       hcs_:          66.
        1075    delete_dir_inacl_entries.e     hcs_:          66.
         350    delete_dir_inacl_entries.t     hcs_:          66.
          37    delete_inacl_entries     hcs_:          67.
        1106    delete_inacl_entries.e   hcs_:          67.
         360    delete_inacl_entries.t   hcs_:          67.
                del_dentries             hcs_:          65.
          30    del_dir_tree             hcs_:          60.
        1010    del_dir_tree.e           hcs_:          60.
         270    del_dir_tree.t           hcs_:          60.
                del_identries            hcs_:          66.
                del_isentries            hcs_:          67.
                del_sentries             hcs_:          63.
                dfile                    hcs_:          61.
                dir_list_                hcs_:         194.
                dir_name                 hcs_:          77.
          41    dir_quota_move           hcs_:          69.
        1130    dir_quota_move.e         hcs_:          69.
         400    dir_quota_move.t         hcs_:          69.
          40    dir_quota_read           hcs_:          68.
        1117    dir_quota_read.e         hcs_:          68.
         370    dir_quota_read.t         hcs_:          68.
                dnzp_sw_path             hcs_:         173.
                dnzp_sw_ptr              hcs_:         174.
                dqmove                   hcs_:          69.
                dqread                   hcs_:          68.
                dseg                     hcs_:          62.
          42    echo_negotiate_get_chars       hcs_:          70.
        1141    echo_negotiate_get_chars.e     hcs_:          70.
         410    echo_negotiate_get_chars.t     hcs_:          70.
                entry_bound_path         hcs_:         175.
                entry_bound_ptr          hcs_:         176.
        1174    entry_offset             stack_header:        84.
                exponent_control_get     hcs_:          98.
                exponent_control_set     hcs_:         177.
                fast_hc_ipc              hcs_:          52,   71,  153.
          43    fblock                   hcs_:          71.
        1151    fblock.e                 hcs_:          71.
                ffile                    hcs_:          82.
          44    flush_consecutive_pages  hcs_:          72.
        1155    flush_consecutive_pages.e      hcs_:          72.
         420    flush_consecutive_pages.t      hcs_:          72.
          45    flush_pages              hcs_:          73.
        1165    flush_pages.e            hcs_:          73.
         430    flush_pages.t            hcs_:          73.
          46    force_write              hcs_:          72,   73,   74.
        1175    force_write.e            hcs_:          74.
         440    force_write.t            hcs_:          74.
                free_range               hcs_:         154.
                fseg                     hcs_:          83.
                fs_get                   hcs_:          75,   76,   77,   78,   79,   80,   81,  103,  115.
          47    fs_get_access_modes      hcs_:          75.
        1205    fs_get_access_modes.e    hcs_:          75.
         450    fs_get_access_modes.t    hcs_:          75.
          50    fs_get_brackets          hcs_:          76.
        1215    fs_get_brackets.e        hcs_:          76.
         460    fs_get_brackets.t        hcs_:          76.
          51    fs_get_dir_name          hcs_:          77.
        1226    fs_get_dir_name.e        hcs_:          77.
         470    fs_get_dir_name.t        hcs_:          77.
          52    fs_get_mode              hcs_:          78.
        1236    fs_get_mode.e            hcs_:          78.
         500    fs_get_mode.t            hcs_:          78.
          53    fs_get_path_name         hcs_:          79.
        1246    fs_get_path_name.e       hcs_:          79.
         510    fs_get_path_name.t       hcs_:          79.
          54    fs_get_ref_name          hcs_:          80.
        1256    fs_get_ref_name.e        hcs_:          80.
         520    fs_get_ref_name.t        hcs_:          80.
          55    fs_get_seg_ptr           hcs_:          81.
        1266    fs_get_seg_ptr.e         hcs_:          81.
         530    fs_get_seg_ptr.t         hcs_:          81.
                fs_move                  hcs_:          82,   83.
          56    fs_move_file             hcs_:          82.
        1276    fs_move_file.e           hcs_:          82.
         540    fs_move_file.t           hcs_:          82.
          57    fs_move_seg              hcs_:          83.
        1307    fs_move_seg.e            hcs_:          83.
         550    fs_move_seg.t            hcs_:          83.
                fs_search                hcs_:          84,   85.
          60    fs_search_get_wdir       hcs_:          84.
        1320    fs_search_get_wdir.e     hcs_:          84.
         560    fs_search_get_wdir.t     hcs_:          84.
          61    fs_search_set_wdir       hcs_:          85.
        1330    fs_search_set_wdir.e     hcs_:          85.
         570    fs_search_set_wdir.t     hcs_:          85.
           5    gate_entry_data.calls    hcs_:          35,
                                         gate_data:     30.
           0    gate_entry_data.cpu_time       hcs_:          35,
                                               gate_data:     27.
           4    gate_entry_data.page_waits     hcs_:          35,
                                               gate_data:     29.
           6    gate_entry_data.ring_alarms    hcs_:          35,
                                               gate_data:     31.
           2    gate_entry_data.vcpu_time      hcs_:          35,
                                               gate_data:     28.
          10    gate_entry_data_size     hcs_:          37,   38,   39,   40,   41,   42,   43,   44,   45,   46,   47,   48,
                                                        49,   50,   51,   53,   54,   55,   56,   57,   58,   59,   60,   61,
                                                        62,   63,   64,   65,   66,   67,   68,   69,   70,   72,   73,   74,
                                                        75,   76,   77,   78,   79,   80,   81,   82,   83,   84,   85,   86,
                                                        87,   88,   89,   90,   91,   92,   93,   94,   95,   96,   97,   98,
                                                        99,  100,  101,  103,  104,  105,  106,  107,  108,  109,  110,  111,
                                                       112,  113,  114,  115,  116,  117,  118,  119,  120,  121,  122,  123,
                                                       124,  125,  126,  127,  128,  129,  130,  131,  134,  135,  136,  137,
                                                       138,  139,  140,  141,  142,  143,  144,  145,  146,  148,  149,  150,
                                                       151,  152,  153,  154,  155,  156,  157,  158,  159,  161,  162,  163,
                                                       164,  166,  167,  168,  169,  170,  171,  172,  173,  174,  175,  176,
                                                       177,  178,  179,  181,  182,  183,  184,  185,  186,  187,  188,  190,
                                                       191,  192,  193,  194,  195,  196,  197,  198,  199,  200,  201,  202,
                                                       203,  204,  205,  206,  207,  208,  209,  210,  211,  212,  213,  214,
                                                       215,  216,  217,  218,  219,  220,  221,  222,  223,  224,  225,  228,
                                                       229,
                                         gate_data:     25.
           2    gate_table.datap         gate_data:     20.
           1    gate_table.entryl        gate_data:     19.
           0    gate_table.entryp        gate_data:     18.
           3    gate_table_size          gate_data:     15.
                get                      hcs_:         111,  132.
          62    get_access_class         hcs_:          86.
        1340    get_access_class.e       hcs_:          86.
         600    get_access_class.t       hcs_:          86.
                get_access_class_ptr     hcs_:          87.
          63    get_access_class_seg     hcs_:          87.
        1351    get_access_class_seg.e   hcs_:          87.
         610    get_access_class_seg.t   hcs_:          87.
          64    get_access_info          hcs_:          88.
        1362    get_access_info.e        hcs_:          88.
         620    get_access_info.t        hcs_:          88.
          65    get_access_info_seg      hcs_:          89.
        1373    get_access_info_seg.e    hcs_:          89.
         630    get_access_info_seg.t    hcs_:          89.
          66    get_alarm_timer          hcs_:          90.
        1404    get_alarm_timer.e        hcs_:          90.
         640    get_alarm_timer.t        hcs_:          90.
          67    get_author               hcs_:          91.
        1414    get_author.e             hcs_:          91.
         650    get_author.t             hcs_:          91.
          70    get_authorization        hcs_:          92.
        1425    get_authorization.e      hcs_:          92.
         660    get_authorization.t      hcs_:          92.
          71    get_bc_author            hcs_:          93.
        1435    get_bc_author.e          hcs_:          93.
         670    get_bc_author.t          hcs_:          93.
          72    get_dates                hcs_:          94.
        1446    get_dates.e              hcs_:          94.
         700    get_dates.t              hcs_:          94.
          73    get_dates_ptr            hcs_:          95.
        1457    get_dates_ptr.e          hcs_:          95.
         710    get_dates_ptr.t          hcs_:          95.
          74    get_defname_             hcs_:          96.
        1470    get_defname_.e           hcs_:          96.
         720    get_defname_.t           hcs_:          96.
                get_dir                  hcs_:          97.
          75    get_dir_ring_brackets    hcs_:          97.
        1500    get_dir_ring_brackets.e  hcs_:          97.
         730    get_dir_ring_brackets.t  hcs_:          97.
          76    get_exponent_control     hcs_:          98.
        1511    get_exponent_control.e   hcs_:          98.
         740    get_exponent_control.t   hcs_:          98.
          77    get_hex_exponent_control       hcs_:          99.
        1521    get_hex_exponent_control.e     hcs_:          99.
         750    get_hex_exponent_control.t     hcs_:          99.
         100    get_initial_ring         hcs_:         100.
        1531    get_initial_ring.e       hcs_:         100.
         760    get_initial_ring.t       hcs_:         100.
         101    get_ipc_operands         hcs_:         101.
        1541    get_ipc_operands.e       hcs_:         101.
         770    get_ipc_operands.t       hcs_:         101.
         102    get_ips_mask             hcs_:         102.
        1551    get_ips_mask.e           hcs_:         102.
         103    get_link_target          hcs_:         103.
        1555    get_link_target.e        hcs_:         103.
        1000    get_link_target.t        hcs_:         103.
         104    get_lp                   hcs_:         104.
        1565    get_lp.e                 hcs_:         104.
        1010    get_lp.t                 hcs_:         104.
         105    get_max_length           hcs_:         105.
        1575    get_max_length.e         hcs_:         105.
        1020    get_max_length.t         hcs_:         105.
                get_max_length_ptr       hcs_:         106.
         106    get_max_length_seg       hcs_:         106.
        1606    get_max_length_seg.e     hcs_:         106.
        1030    get_max_length_seg.t     hcs_:         106.
         107    get_page_trace           hcs_:         107.
        1617    get_page_trace.e         hcs_:         107.
        1040    get_page_trace.t         hcs_:         107.
         110    get_page_trace_signal    hcs_:         108.
        1627    get_page_trace_signal.e  hcs_:         108.
        1050    get_page_trace_signal.t  hcs_:         108.
         111    get_process_usage        hcs_:         109.
        1637    get_process_usage.e      hcs_:         109.
        1060    get_process_usage.t      hcs_:         109.
         112    get_procs_required       hcs_:         110.
        1647    get_procs_required.e     hcs_:         110.
        1070    get_procs_required.t     hcs_:         110.
                get_range                hcs_:         159.
         113    get_ring_brackets        hcs_:         111.
        1657    get_ring_brackets.e      hcs_:         111.
        1100    get_ring_brackets.t      hcs_:         111.
         114    get_ring_brackets_seg    hcs_:         112.
        1670    get_ring_brackets_seg.e  hcs_:         112.
        1110    get_ring_brackets_seg.t  hcs_:         112.
         115    get_safety_sw            hcs_:         113.
        1701    get_safety_sw.e          hcs_:         113.
        1120    get_safety_sw.t          hcs_:         113.
                get_safety_sw_ptr        hcs_:         114.
         116    get_safety_sw_seg        hcs_:         114.
        1712    get_safety_sw_seg.e      hcs_:         114.
        1130    get_safety_sw_seg.t      hcs_:         114.
         117    get_search_rules         hcs_:         115.
        1723    get_search_rules.e       hcs_:         115.
        1140    get_search_rules.t       hcs_:         115.
         120    get_segment_ptr_path     hcs_:         116.
        1733    get_segment_ptr_path.e   hcs_:         116.
        1150    get_segment_ptr_path.t   hcs_:         116.
                get_signal               hcs_:         108.
                get_system_rules         hcs_:         117.
         121    get_system_search_rules  hcs_:         117.
        1743    get_system_search_rules.e      hcs_:         117.
        1160    get_system_search_rules.t      hcs_:         117.
                get_uid                  hcs_:         119.
         122    get_uid_file             hcs_:         118.
        1753    get_uid_file.e           hcs_:         118.
        1170    get_uid_file.t           hcs_:         118.
         123    get_uid_seg              hcs_:         119.
        1764    get_uid_seg.e            hcs_:         119.
        1200    get_uid_seg.t            hcs_:         119.
         302    get_usage_values         hcs_:         253,  255.
         124    get_user_access_modes    hcs_:         120.
        1774    get_user_access_modes.e  hcs_:         120.
        1210    get_user_access_modes.t  hcs_:         120.
         125    get_user_access_modes_seg      hcs_:         121.
        2005    get_user_access_modes_seg.e    hcs_:         121.
        1220    get_user_access_modes_seg.t    hcs_:         121.
         126    get_user_effmode         hcs_:         122.
        2016    get_user_effmode.e       hcs_:         122.
        1230    get_user_effmode.t       hcs_:         122.
         127    get_user_raw_mode        hcs_:         123.
        2027    get_user_raw_mode.e      hcs_:         123.
        1240    get_user_raw_mode.t      hcs_:         123.
         130    get_volume_dump_switches       hcs_:         124.
        2040    get_volume_dump_switches.e     hcs_:         124.
        1250    get_volume_dump_switches.t     hcs_:         124.
                get_wdir                 hcs_:          84.
         131    grow_lot                 hcs_:         125.
        2051    grow_lot.e               hcs_:         125.
        1260    grow_lot.t               hcs_:         125.
                hc_exponent_control      hcs_:          98,   99,  177,  178,  179.
                hc_ipc                   hcs_:          50,   64,  229.
                hc_page_trace            hcs_:         107,  108,  183.
                hex_exponent_control_get       hcs_:          99.
                hex_exponent_control_set       hcs_:         178.
         132    high_low_seg_count       hcs_:         126.
        2061    high_low_seg_count.e     hcs_:         126.
        1270    high_low_seg_count.t     hcs_:         126.
         133    history_regs_get         hcs_:         127.
        2071    history_regs_get.e       hcs_:         127.
        1300    history_regs_get.t       hcs_:         127.
         134    history_regs_set         hcs_:         128.
        2101    history_regs_set.e       hcs_:         128.
        1310    history_regs_set.t       hcs_:         128.
                history_reg_save         hcs_:         127,  128.
                illegal_procedure        hcs_:         184.
         135    initiate                 hcs_:         129,  130.
        2111    initiate.e               hcs_:         129.
        1320    initiate.t               hcs_:         129.
                initiate_                hcs_:         116.
         136    initiate_count           hcs_:         130.
        2122    initiate_count.e         hcs_:         130.
        1330    initiate_count.t         hcs_:         130.
         137    initiate_search_rules    hcs_:         117,  131.
        2133    initiate_search_rules.e  hcs_:         131.
        1340    initiate_search_rules.t  hcs_:         131.
                ipc_block                hcs_:          52.
                ipc_f_block              hcs_:          71.
                ipc_wakeup               hcs_:         229.
                ips_                     hcs_:         102,  147,  160,  165,  180,  226.
                kst_info                 hcs_:         119,  126.
                kst_util                 hcs_:         154,  159,  162.
                level                    hcs_:         132,  133.
         140    level_get                hcs_:         132.
        2143    level_get.e              hcs_:         132.
         141    level_set                hcs_:         133.
        2147    level_set.e              hcs_:         133.
                link                     hcs_:          48,   49.
          10    linkage                  hcs_:          35,   37,   38,   39,   40,   41,   42,   43,   44,   45,   46,   47,
                                                        48,   49,   50,   51,   53,   54,   55,   56,   57,   58,   59,   60,
                                                        61,   62,   63,   64,   65,   66,   67,   68,   69,   70,   72,   73,
                                                        74,   75,   76,   77,   78,   79,   80,   81,   82,   83,   84,   85,
                                                        86,   87,   88,   89,   90,   91,   92,   93,   94,   95,   96,   97,
                                                        98,   99,  100,  101,  103,  104,  105,  106,  107,  108,  109,  110,
                                                       111,  112,  113,  114,  115,  116,  117,  118,  119,  120,  121,  122,
                                                       123,  124,  125,  126,  127,  128,  129,  130,  131,  134,  135,  136,
                                                       137,  138,  139,  140,  141,  142,  143,  144,  145,  146,  148,  149,
                                                       150,  151,  152,  153,  154,  155,  156,  157,  158,  159,  161,  162,
                                                       163,  164,  166,  167,  168,  169,  170,  171,  172,  173,  174,  175,
                                                       176,  177,  178,  179,  181,  182,  183,  184,  185,  186,  187,  188,
                                                       190,  191,  192,  193,  194,  195,  196,  197,  198,  199,  200,  201,
                                                       202,  203,  204,  205,  206,  207,  208,  209,  210,  211,  212,  213,
                                                       214,  215,  216,  217,  218,  219,  220,  221,  222,  223,  224,  225,
                                                       228,  229.
         142    link_force               hcs_:         134.
        2153    link_force.e             hcs_:         134.
        1350    link_force.t             hcs_:         134.
                link_man                 hcs_:          51,   58,  104,  125.
                link_snap                hcs_:         134,  143,  144.
                list                     hcs_:          73.
                list_                    hcs_:         195.
         143    list_acl                 hcs_:         135.
        2163    list_acl.e               hcs_:         135.
        1360    list_acl.t               hcs_:         135.
                list_dall                hcs_:         138.
         144    list_dir                 hcs_:         136.
        2174    list_dir.e               hcs_:         136.
        1370    list_dir.t               hcs_:         136.
         146    list_dir_acl             hcs_:         138.
        2216    list_dir_acl.e           hcs_:         138.
        1410    list_dir_acl.t           hcs_:         138.
         145    list_dir_fast            hcs_:         137.
        2205    list_dir_fast.e          hcs_:         137.
        1400    list_dir_fast.t          hcs_:         137.
         147    list_dir_inacl           hcs_:         139.
        2227    list_dir_inacl.e         hcs_:         139.
        1420    list_dir_inacl.t         hcs_:         139.
                list_idall               hcs_:         139.
         150    list_inacl               hcs_:         140.
        2240    list_inacl.e             hcs_:         140.
        1430    list_inacl.t             hcs_:         140.
         151    list_inacl_all           hcs_:         141.
        2251    list_inacl_all.e         hcs_:         141.
        1440    list_inacl_all.t         hcs_:         141.
                list_isall               hcs_:         140.
                list_sall                hcs_:         135.
                long                     hcs_:         198.
         152    lv_attached              hcs_:         142.
        2262    lv_attached.e            hcs_:         142.
        1450    lv_attached.t            hcs_:         142.
         312    main                     hcs_:          35,   37,   38,   39,   40,   41,   42,   43,   44,   45,   46,   47,
                                                        48,   49,   50,   51,   52,   53,   54,   55,   56,   57,   58,   59,
                                                        60,   61,   62,   63,   64,   65,   66,   67,   68,   69,   70,   71,
                                                        72,   73,   74,   75,   76,   77,   78,   79,   80,   81,   82,   83,
                                                        84,   85,   86,   87,   88,   89,   90,   91,   92,   93,   94,   95,
                                                        96,   97,   98,   99,  100,  101,  102,  103,  104,  105,  106,  107,
                                                       108,  109,  110,  111,  112,  113,  114,  115,  116,  117,  118,  119,
                                                       120,  121,  122,  123,  124,  125,  126,  127,  128,  129,  130,  131,
                                                       132,  133,  134,  135,  136,  137,  138,  139,  140,  141,  142,  143,
                                                       144,  145,  146,  147,  148,  149,  150,  151,  152,  153,  154,  155,
                                                       156,  157,  158,  159,  160,  161,  162,  163,  164,  165,  166,  167,
                                                       168,  169,  170,  171,  172,  173,  174,  175,  176,  177,  178,  179,
                                                       180,  181,  182,  183,  184,  185,  186,  187,  188,  189,  190,  191,
                                                       192,  193,  194,  195,  196,  197,  198,  199,  200,  201,  202,  203,
                                                       204,  205,  206,  207,  208,  209,  210,  211,  212,  213,  214,  215,
                                                       216,  217,  218,  219,  220,  221,  222,  223,  224,  225,  226,  227,
                                                       228,  229,  257,  278,  293,  321,  343,  356.
         156    makeunknown              hcs_:         146.
        2323    makeunknown.e            hcs_:         146.
        1510    makeunknown.t            hcs_:         146.
         153    make_entry               hcs_:         143.
        2272    make_entry.e             hcs_:         143.
        1460    make_entry.t             hcs_:         143.
         154    make_ptr                 hcs_:         144.
        2302    make_ptr.e               hcs_:         144.
        1470    make_ptr.t               hcs_:         144.
         155    make_seg                 hcs_:         145.
        2312    make_seg.e               hcs_:         145.
        1500    make_seg.t               hcs_:         145.
         157    mask_ips                 hcs_:         147.
        2333    mask_ips.e               hcs_:         147.
                max_length_path          hcs_:         181.
                max_length_ptr           hcs_:         182.
                minf                     hcs_:         199.
                mins                     hcs_:         200.
                mode                     hcs_:          78.
                mountedp                 hcs_:         142.
                name                     hcs_:         203.
                new_proc                 hcs_:         213.
                noname                   hcs_:         204.
           2    on_unit.body             hcs_:         356,
                                         on_unit:        5.
           6    on_unit.file             on_unit:        9.
          10    on_unit.file_copy        on_unit:       10.
           5    on_unit.flags            on_unit:        8.
           0    on_unit.name             hcs_:         356,
                                         on_unit:        4.
           5    on_unit.next             on_unit:        7.
           4    on_unit.size             hcs_:         356,
                                         on_unit:        6.
                page                     hcs_:         148,  161,  206.
                page_waits               hcs_:          35,  268,  351,  352.
                path_name                hcs_:          79.
                pds                      hcs_:          35,  263,  264,  268,  284,  299,  300,  327,  328,  349,  350,  351,  352.
                per_proc_get             hcs_:         127.
                per_proc_set             hcs_:         128.
                poll                     hcs_:          35.
                pre_empt_poll            hcs_:          35.
                pre_empt_poll_return     hcs_:          35.
         160    pre_page_info            hcs_:         148.
        2337    pre_page_info.e          hcs_:         148.
        1520    pre_page_info.t          hcs_:         148.
         161    proc_info                hcs_:          92,  100,  149.
        2347    proc_info.e              hcs_:         149.
        1530    proc_info.t              hcs_:         149.
        1171    push_offset              stack_header:        81.
                pxss                     hcs_:          35,  169,  191.
                qget                     hcs_:         150.
                qmove                    hcs_:         152.
                qread                    hcs_:         151.
                quota                    hcs_:          68,   69,  150,  151,  152.
         162    quota_get                hcs_:         150.
        2357    quota_get.e              hcs_:         150.
        1540    quota_get.t              hcs_:         150.
         164    quota_move               hcs_:         152.
        2401    quota_move.e             hcs_:         152.
        1560    quota_move.t             hcs_:         152.
         163    quota_read               hcs_:         151.
        2370    quota_read.e             hcs_:         151.
        1550    quota_read.t             hcs_:         151.
         165    read_events              hcs_:         153.
        2412    read_events.e            hcs_:         153.
        1570    read_events.t            hcs_:         153.
                ref_name                 hcs_:          80.
         166    release_segment_numbers  hcs_:         154.
        2422    release_segment_numbers.e      hcs_:         154.
        1600    release_segment_numbers.t      hcs_:         154.
         167    replace_acl              hcs_:         155.
        2432    replace_acl.e            hcs_:         155.
        1610    replace_acl.t            hcs_:         155.
                replace_dall             hcs_:         156.
         170    replace_dir_acl          hcs_:         156.
        2443    replace_dir_acl.e        hcs_:         156.
        1620    replace_dir_acl.t        hcs_:         156.
         171    replace_dir_inacl        hcs_:         157.
        2454    replace_dir_inacl.e      hcs_:         157.
        1630    replace_dir_inacl.t      hcs_:         157.
                replace_idall            hcs_:         157.
         172    replace_inacl            hcs_:         158.
        2465    replace_inacl.e          hcs_:         158.
        1640    replace_inacl.t          hcs_:         158.
                replace_isall            hcs_:         158.
                replace_sall             hcs_:         155.
         173    reserve_segment_numbers  hcs_:         159.
        2476    reserve_segment_numbers.e      hcs_:         159.
        1650    reserve_segment_numbers.t      hcs_:         159.
         174    reset_ips_mask           hcs_:         160.
        2506    reset_ips_mask.e         hcs_:         160.
         175    reset_working_set        hcs_:         161.
        2512    reset_working_set.e      hcs_:         161.
        1660    reset_working_set.t      hcs_:         161.
        1173    return_no_pop_offset     stack_header:        83.
        1172    return_offset            stack_header:        82.
                ringbr_                  hcs_:          97,  111,  112,  172,  186.
                ring_alarm               hcs_:          35.
                safety_sw_path           hcs_:         187.
                safety_sw_ptr            hcs_:         188.
                search_rules             hcs_:         115.
                seg_ptr                  hcs_:          81.
                set                      hcs_:          53,   54,  166,  167,  168,  170,  171,  173,  174,  175,  176,  181,
                                                       182,  186,  187,  188,  190,  192.
         176    set_256K_switch          hcs_:         162.
        2522    set_256K_switch.e        hcs_:         162.
        1670    set_256K_switch.t        hcs_:         162.
         177    set_alarm                hcs_:         163.
        2532    set_alarm.e              hcs_:         163.
        1700    set_alarm.t              hcs_:         163.
         200    set_alarm_timer          hcs_:          90,  163,  164.
        2542    set_alarm_timer.e        hcs_:         164.
        1710    set_alarm_timer.t        hcs_:         164.
         201    set_automatic_ips_mask   hcs_:         165.
        2552    set_automatic_ips_mask.e       hcs_:         165.
         202    set_bc                   hcs_:         166.
        2556    set_bc.e                 hcs_:         166.
        1720    set_bc.t                 hcs_:         166.
         203    set_bc_seg               hcs_:         167.
        2567    set_bc_seg.e             hcs_:         167.
        1730    set_bc_seg.t             hcs_:         167.
         204    set_copysw               hcs_:         168.
        2600    set_copysw.e             hcs_:         168.
        1740    set_copysw.t             hcs_:         168.
         205    set_cpu_timer            hcs_:         169.
        2611    set_cpu_timer.e          hcs_:         169.
        1750    set_cpu_timer.t          hcs_:         169.
         206    set_damaged_sw           hcs_:         170.
        2621    set_damaged_sw.e         hcs_:         170.
        1760    set_damaged_sw.t         hcs_:         170.
         207    set_damaged_sw_seg       hcs_:         171.
        2632    set_damaged_sw_seg.e     hcs_:         171.
        1770    set_damaged_sw_seg.t     hcs_:         171.
                set_dir                  hcs_:         172.
         210    set_dir_ring_brackets    hcs_:         172.
        2643    set_dir_ring_brackets.e  hcs_:         172.
        2000    set_dir_ring_brackets.t  hcs_:         172.
         211    set_dnzp_sw              hcs_:         173.
        2654    set_dnzp_sw.e            hcs_:         173.
        2010    set_dnzp_sw.t            hcs_:         173.
         212    set_dnzp_sw_seg          hcs_:         174.
        2665    set_dnzp_sw_seg.e        hcs_:         174.
        2020    set_dnzp_sw_seg.t        hcs_:         174.
         213    set_entry_bound          hcs_:         175.
        2676    set_entry_bound.e        hcs_:         175.
        2030    set_entry_bound.t        hcs_:         175.
         214    set_entry_bound_seg      hcs_:         176.
        2707    set_entry_bound_seg.e    hcs_:         176.
        2040    set_entry_bound_seg.t    hcs_:         176.
         215    set_exponent_control     hcs_:         177.
        2720    set_exponent_control.e   hcs_:         177.
        2050    set_exponent_control.t   hcs_:         177.
                set_gate                 hcs_:         133.
         217    set_hexfp_control        hcs_:         179.
        2740    set_hexfp_control.e      hcs_:         179.
        2070    set_hexfp_control.t      hcs_:         179.
         216    set_hex_exponent_control       hcs_:         178.
        2730    set_hex_exponent_control.e     hcs_:         178.
        2060    set_hex_exponent_control.t     hcs_:         178.
         220    set_ips_mask             hcs_:         180.
        2750    set_ips_mask.e           hcs_:         180.
         221    set_max_length           hcs_:         181.
        2754    set_max_length.e         hcs_:         181.
        2100    set_max_length.t         hcs_:         181.
         222    set_max_length_seg       hcs_:         182.
        2765    set_max_length_seg.e     hcs_:         182.
        2110    set_max_length_seg.t     hcs_:         182.
         223    set_page_trace_signal    hcs_:         183.
        2776    set_page_trace_signal.e  hcs_:         183.
        2120    set_page_trace_signal.t  hcs_:         183.
         224    set_pl1_machine_mode     hcs_:         184.
        3006    set_pl1_machine_mode.e   hcs_:         184.
        2130    set_pl1_machine_mode.t   hcs_:         184.
         225    set_procs_required       hcs_:         110,  185.
        3016    set_procs_required.e     hcs_:         185.
        2140    set_procs_required.t     hcs_:         185.
         226    set_ring_brackets        hcs_:         186.
        3026    set_ring_brackets.e      hcs_:         186.
        2150    set_ring_brackets.t      hcs_:         186.
         227    set_safety_sw            hcs_:         187.
        3037    set_safety_sw.e          hcs_:         187.
        2160    set_safety_sw.t          hcs_:         187.
         230    set_safety_sw_seg        hcs_:         188.
        3050    set_safety_sw_seg.e      hcs_:         188.
        2170    set_safety_sw_seg.t      hcs_:         188.
                set_signal               hcs_:         183.
         231    set_stack_ptr            hcs_:         189.
        3061    set_stack_ptr.e          hcs_:         189.
         232    set_synchronized_sw      hcs_:         190.
        3065    set_synchronized_sw.e    hcs_:         190.
        2200    set_synchronized_sw.t    hcs_:         190.
         233    set_timer                hcs_:         191.
        3075    set_timer.e              hcs_:         191.
        2210    set_timer.t              hcs_:         191.
         234    set_volume_dump_switches       hcs_:         192.
        3105    set_volume_dump_switches.e     hcs_:         192.
        2220    set_volume_dump_switches.t     hcs_:         192.
                set_wdir                 hcs_:          85.
                signal_                  hcs_:          35.
         402    signal_arglist           hcs_:          35.
          73    stach_header.trace_top_ptr     stack_header:        62.
          32    stack_frame.arg_ptr      hcs_:         356,
                                         stack_frame:   16.
         100    stack_frame.condition_bit      hcs_:         356,
                                               stack_frame:   32.
          20    stack_frame.condition_word     stack_frame:    9.
        2000    stack_frame.crawl_out_bit      stack_frame:   28.
          26    stack_frame.entry_ptr    stack_frame:   13.
          20    stack_frame.flag_word    hcs_:         356,
                                         stack_frame:   24.
         400    stack_frame.link_trap_bit      stack_frame:   30.
          30    stack_frame.lp_ptr       hcs_:          35,
                                         stack_frame:   15.
       20000    stack_frame.main_proc_bit      stack_frame:   25.
          60    stack_frame.min_length   stack_frame:   23.
          22    stack_frame.next_sp      stack_frame:   10.
          36    stack_frame.on_unit_rel_ptrs   hcs_:         356,
                                               stack_frame:   19.
          30    stack_frame.operator_ptr       stack_frame:   14.
          37    stack_frame.operator_ret_ptr   stack_frame:   20.
          20    stack_frame.prev_sp      hcs_:          35,  356,
                                         stack_frame:    8.
          40    stack_frame.regs         stack_frame:   22.
          24    stack_frame.return_ptr   hcs_:          35,  330,  354,
                                         stack_frame:   12.
       10000    stack_frame.run_unit_manager   stack_frame:   26.
        1000    stack_frame.signaller_bit      stack_frame:   29.
          22    stack_frame.signaller_word     stack_frame:   11.
        4000    stack_frame.signal_bit   stack_frame:   27.
          34    stack_frame.static_ptr   stack_frame:   17.
         200    stack_frame.support_bit  stack_frame:   31.
          35    stack_frame.support_ptr  stack_frame:   18.
          37    stack_frame.translator_id      stack_frame:   21.
          66    stack_header.assign_linkage_ptr      stack_header:        59.
          32    stack_header.bar_mode_sp       stack_header:        42.
          36    stack_header.call_op_ptr       stack_header:        44.
          10    stack_header.clr_ptr     stack_header:        27.
           6    stack_header.combined_stat_ptr       stack_header:        25.
           4    stack_header.cpm_data_ptr      stack_header:        24.
          13    stack_header.cpm_enabled       stack_header:        32.
          13    stack_header.cur_lot_size      stack_header:        31.
          64    stack_header.ect_ptr     stack_header:        58.
          46    stack_header.entry_op_ptr      stack_header:        49.
          70    stack_header.heap_header_ptr   stack_header:        60.
          74    stack_header.in_trace    stack_header:        63.
          52    stack_header.isot_ptr    stack_header:        52.
          26    stack_header.lot_ptr     stack_header:        39.
          12    stack_header.main_proc_invoked       stack_header:        29.
          12    stack_header.max_lot_size      stack_header:        28.
          20    stack_header.parent_ptr  stack_header:        36.
          34    stack_header.pl1_operators_ptr       stack_header:        43.
          40    stack_header.push_op_ptr       stack_header:        46.
          42    stack_header.return_op_ptr     stack_header:        47.
          44    stack_header.ret_no_pop_op_ptr       stack_header:        48.
          62    stack_header.rnt_ptr     stack_header:        57.
          12    stack_header.run_unit_depth    stack_header:        30.
          54    stack_header.sct_ptr     stack_header:        53.
          30    stack_header.signal_ptr  stack_header:        41.
          22    stack_header.stack_begin_ptr   hcs_:          35,
                                               stack_header:        37.
          24    stack_header.stack_end_ptr     hcs_:          35,
                                               stack_header:        38.
          14    stack_header.system_free_ptr   stack_header:        33.
          60    stack_header.sys_link_info_ptr       stack_header:        56.
          72    stack_header.trace_frames      stack_header:        61.
          50    stack_header.trans_op_tv_ptr   stack_header:        51.
          56    stack_header.unwinder_ptr      stack_header:        54.
          16    stack_header.user_free_ptr     stack_header:        34.
         100    stack_header_end         stack_header:        64.
         235    star_                    hcs_:         136,  137,  193,  194,  195.
        3116    star_.e                  hcs_:         193.
        2230    star_.t                  hcs_:         193.
         236    star_dir_list_           hcs_:         194.
        3127    star_dir_list_.e         hcs_:         194.
        2240    star_dir_list_.t         hcs_:         194.
         237    star_list_               hcs_:         195.
        3140    star_list_.e             hcs_:         195.
        2250    star_list_.t             hcs_:         195.
         240    status_                  hcs_:          86,   87,   88,   89,   91,   93,   94,   95,  105,  106,  113,  114,
                                                       118,  120,  121,  122,  123,  124,  196,  197,  198,  199,  200.
        3151    status_.e                hcs_:         196.
        2260    status_.t                hcs_:         196.
         241    status_for_backup        hcs_:         197.
        3162    status_for_backup.e      hcs_:         197.
        2270    status_for_backup.t      hcs_:         197.
         242    status_long              hcs_:         198.
        3173    status_long.e            hcs_:         198.
        2300    status_long.t            hcs_:         198.
         243    status_minf              hcs_:         199.
        3204    status_minf.e            hcs_:         199.
        2310    status_minf.t            hcs_:         199.
         244    status_mins              hcs_:         200.
        3215    status_mins.e            hcs_:         200.
        2320    status_mins.t            hcs_:         200.
         245    stop_process             hcs_:         201.
        3226    stop_process.e           hcs_:         201.
        2330    stop_process.t           hcs_:         201.
                synchronized_sw          hcs_:         190.
                sys_info                 hcs_:          35,  262,  283,  298,  326,  348.
                tc_util                  hcs_:         101,  228.
                tefile                   hcs_:         202.
                terminate_               hcs_:         146,  202,  203,  204,  205.
         246    terminate_file           hcs_:         202.
        3236    terminate_file.e         hcs_:         202.
        2340    terminate_file.t         hcs_:         202.
         247    terminate_name           hcs_:         203.
        3246    terminate_name.e         hcs_:         203.
        2350    terminate_name.t         hcs_:         203.
         250    terminate_noname         hcs_:         204.
        3256    terminate_noname.e       hcs_:         204.
        2360    terminate_noname.t       hcs_:         204.
         251    terminate_seg            hcs_:         205.
        3266    terminate_seg.e          hcs_:         205.
        2370    terminate_seg.t          hcs_:         205.
                teseg                    hcs_:         205.
         303    total_cpu_time_          hcs_:         275,  276.
        3602    total_cpu_time_.e        hcs_:         277,  280.
           0    trace_frames.count       stack_header:        69.
           1    trace_frames.top_ptr     stack_header:        70.
         252    trace_marker             hcs_:         206.
        3276    trace_marker.e           hcs_:         206.
        2400    trace_marker.t           hcs_:         206.
           0    transfer_vector          hcs_:          35,   37,   38,   39,   40,   41,   42,   43,   44,   45,   46,   47,
                                                        48,   49,   50,   51,   52,   53,   54,   55,   56,   57,   58,   59,
                                                        60,   61,   62,   63,   64,   65,   66,   67,   68,   69,   70,   71,
                                                        72,   73,   74,   75,   76,   77,   78,   79,   80,   81,   82,   83,
                                                        84,   85,   86,   87,   88,   89,   90,   91,   92,   93,   94,   95,
                                                        96,   97,   98,   99,  100,  101,  102,  103,  104,  105,  106,  107,
                                                       108,  109,  110,  111,  112,  113,  114,  115,  116,  117,  118,  119,
                                                       120,  121,  122,  123,  124,  125,  126,  127,  128,  129,  130,  131,
                                                       132,  133,  134,  135,  136,  137,  138,  139,  140,  141,  142,  143,
                                                       144,  145,  146,  147,  148,  149,  150,  151,  152,  153,  154,  155,
                                                       156,  157,  158,  159,  160,  161,  162,  163,  164,  165,  166,  167,
                                                       168,  169,  170,  171,  172,  173,  174,  175,  176,  177,  178,  179,
                                                       180,  181,  182,  183,  184,  185,  186,  187,  188,  189,  190,  191,
                                                       192,  193,  194,  195,  196,  197,  198,  199,  200,  201,  202,  203,
                                                       204,  205,  206,  207,  208,  209,  210,  211,  212,  213,  214,  215,
                                                       216,  217,  218,  219,  220,  221,  222,  223,  224,  225,  226,  227,
                                                       228,  229,  251,  274,  289,  317,  339,  356.
                trfile                   hcs_:         207.
                trseg                    hcs_:         208.
                truncate                 hcs_:         207,  208.
         253    truncate_file            hcs_:         207.
        3306    truncate_file.e          hcs_:         207.
        2410    truncate_file.t          hcs_:         207.
         254    truncate_seg             hcs_:         208.
        3317    truncate_seg.e           hcs_:         208.
        2420    truncate_seg.t           hcs_:         208.
         255    try_to_unlock_lock       hcs_:         209.
        3330    try_to_unlock_lock.e     hcs_:         209.
        2430    try_to_unlock_lock.t     hcs_:         209.
         256    tty_abort                hcs_:         210.
        3340    tty_abort.e              hcs_:         210.
        2440    tty_abort.t              hcs_:         210.
         257    tty_attach               hcs_:         211.
        3350    tty_attach.e             hcs_:         211.
        2450    tty_attach.t             hcs_:         211.
         260    tty_detach               hcs_:         212,  213.
        3360    tty_detach.e             hcs_:         212.
        2460    tty_detach.t             hcs_:         212.
         261    tty_detach_new_proc      hcs_:         213.
        3370    tty_detach_new_proc.e    hcs_:         213.
        2470    tty_detach_new_proc.t    hcs_:         213.
         263    tty_event                hcs_:         215.
        3410    tty_event.e              hcs_:         215.
        2510    tty_event.t              hcs_:         215.
         262    tty_get_line             hcs_:         214.
        3400    tty_get_line.e           hcs_:         214.
        2500    tty_get_line.t           hcs_:         214.
         264    tty_get_name             hcs_:         216.
        3420    tty_get_name.e           hcs_:         216.
        2520    tty_get_name.t           hcs_:         216.
         265    tty_index                hcs_:         215,  216,  217.
        3430    tty_index.e              hcs_:         217.
        2530    tty_index.t              hcs_:         217.
         266    tty_order                hcs_:         218.
        3440    tty_order.e              hcs_:         218.
        2540    tty_order.t              hcs_:         218.
         267    tty_read                 hcs_:          70,  214,  219,  220,  221.
        3450    tty_read.e               hcs_:         219.
        2550    tty_read.t               hcs_:         219.
         271    tty_read_echoed          hcs_:         221.
        3470    tty_read_echoed.e        hcs_:         221.
        2570    tty_read_echoed.t        hcs_:         221.
         270    tty_read_with_mark       hcs_:         220.
        3460    tty_read_with_mark.e     hcs_:         220.
        2560    tty_read_with_mark.t     hcs_:         220.
         272    tty_state                hcs_:         222.
        3500    tty_state.e              hcs_:         222.
        2600    tty_state.t              hcs_:         222.
         273    tty_write                hcs_:         223,  224,  225.
        3510    tty_write.e              hcs_:         223.
        2610    tty_write.t              hcs_:         223.
         274    tty_write_set_mark       hcs_:         224.
        3520    tty_write_set_mark.e     hcs_:         224.
        2620    tty_write_set_mark.t     hcs_:         224.
         275    tty_write_whole_string   hcs_:         225.
        3530    tty_write_whole_string.e       hcs_:         225.
        2630    tty_write_whole_string.t       hcs_:         225.
         311    tv_end                   hcs_:          35.
         551    tv_offset                stack_header:        75,   80,   81,   82,   83,   84.
         276    unmask_ips               hcs_:         226.
        3540    unmask_ips.e             hcs_:         226.
                unwinder_                hcs_:         356.
         277    usage_values             hcs_:         227.
        3544    usage_values.e           hcs_:         227.
         300    validate_processid       hcs_:         228.
        3550    validate_processid.e     hcs_:         228.
        2640    validate_processid.t     hcs_:         228.
                verify_lock              hcs_:         356.
                verify_lock_bad_dir      hcs_:         356.
         304    virtual_cpu_time_        hcs_:         290,  291.
        3610    virtual_cpu_time_.e      hcs_:         292,  295.
         305    virtual_cpu_time_op_     hcs_:         318,  319.
        3617    virtual_cpu_time_op_.e   hcs_:         320,  323.
                virtual_delta            hcs_:          35,  264,  300,  328,  350.
                volume_dump_switches     hcs_:         192.
         301    wakeup                   hcs_:         229.
        3560    wakeup.e                 hcs_:         229.
        2650    wakeup.t                 hcs_:         229.


NO FATAL ERRORS


                                          -----------------------------------------------------------


Historical Background

This edition of the Multics software materials and documentation is provided and donated
to Massachusetts Institute of Technology by Group BULL including BULL HN Information Systems Inc.
as a contribution to computer science knowledge.
This donation is made also to give evidence of the common contributions of Massachusetts Institute of Technology,
Bell Laboratories, General Electric, Honeywell Information Systems Inc., Honeywell BULL Inc., Groupe BULL
and BULL HN Information Systems Inc. to the development of this operating system.
Multics development was initiated by Massachusetts Institute of Technology Project MAC (1963-1970),
renamed the MIT Laboratory for Computer Science and Artificial Intelligence in the mid 1970s, under the leadership
of Professor Fernando Jose Corbato. Users consider that Multics provided the best software architecture
for managing computer hardware properly and for executing programs. Many subsequent operating systems
incorporated Multics principles.
Multics was distributed in 1975 to 2000 by Group Bull in Europe , and in the U.S. by Bull HN Information Systems Inc.,
as successor in interest by change in name only to Honeywell Bull Inc. and Honeywell Information Systems Inc. .

                                          -----------------------------------------------------------

Permission to use, copy, modify, and distribute these programs and their documentation for any purpose and without
fee is hereby granted,provided that the below copyright notice and historical background appear in all copies
and that both the copyright notice and historical background and this permission notice appear in supporting
documentation, and that the names of MIT, HIS, BULL or BULL HN not be used in advertising or publicity pertaining
to distribution of the programs without specific prior written permission.
    Copyright 1972 by Massachusetts Institute of Technology and Honeywell Information Systems Inc.
    Copyright 2006 by BULL HN Information Systems Inc.
    Copyright 2006 by Bull SAS
    All Rights Reserved
