ASSEMBLY LISTING OF SEGMENT >spec>install>1110>io_manager.alm
ASSEMBLED ON:	11/11/89  0951.4 mst Sat
OPTIONS USED:	-target l68                              list symbols
ASSEMBLED BY:	ALM Version 8.14 March 1989
ASSEMBLER CREATED:	06/09/89  1002.3 mst Fri

                                     1  " ***********************************************************
                                     2  " *                                                         *
                                     3  " * Copyright, (C) Honeywell Bull Inc., 1987                *
                                     4  " *                                                         *
                                     5  " * Copyright, (C) Honeywell Information Systems Inc., 1982 *
                                     6  " *                                                         *
                                     7  " * Copyright (c) 1972 by Massachusetts Institute of        *
                                     8  " * Technology and Honeywell Information Systems, Inc.      *
                                     9  " *                                                         *
                                    10  " ***********************************************************
    000000                          11  	name	io_manager
                                    12
                                    13  " Transfer vector for unwired I/O routines.
                                    14  " Written January 1981 by C. Hornig
                                    15  " Modified November 1981 by C. Hornig for MR10 interface changes.
                                    16  " Modified January 1984 by Chris Jones for channel reconfiguration
                                    17  " Modified March 1985 by Keith Loepere to remove unncessary getlp's (by virtue of binding).
                                    18
                                    19  	macro	tv
                              1     20  	segdef	&1
                              2     21  &1:	tra	&2
                              3     22  	&end
                                    23
                                    24
                                    25  	tv	assign,iom_assign$iom_assign
                        000000          	segdef	assign
    000000  4a  4 00010 7101 20         assign:	tra	iom_assign$iom_assign
                                    26  	tv	assign_add,iom_assign$add_channel
                        000001          	segdef	assign_add
    000001  4a  4 00012 7101 20         assign_add:	tra	iom_assign$add_channel
                                    27  	tv	unassign,iom_unassign$iom_unassign
                        000002          	segdef	unassign
    000002  4a  4 00014 7101 20         unassign:	tra	iom_unassign$iom_unassign
                                    28  	tv	unassign_delete,iom_unassign$delete_channel
                        000003          	segdef	unassign_delete
    000003  4a  4 00016 7101 20         unassign_delete:	tra	iom_unassign$delete_channel
                                    29  	tv	connect,iom_connect$connect
                        000004          	segdef	connect
    000004  4a  4 00020 7101 20         connect:	tra	iom_connect$connect
                                    30  	tv	connect_abs,iom_connect$connect_abs
                        000005          	segdef	connect_abs
    000005  4a  4 00022 7101 20         connect_abs:	tra	iom_connect$connect_abs
                                    31  	tv	connect_direct,iom_connect$connect_direct
                        000006          	segdef	connect_direct
    000006  4a  4 00024 7101 20         connect_direct:	tra	iom_connect$connect_direct
                                    32  	tv	mask,iom_connect$mask
                        000007          	segdef	mask
    000007  4a  4 00026 7101 20         mask:	tra	iom_connect$mask
                                    33  	tv	data_tdcw,iom_connect$data_tdcw
                        000010          	segdef	data_tdcw
    000010  4a  4 00030 7101 20         data_tdcw:	tra	iom_connect$data_tdcw
                                    34  	tv	workspace_tdcw,iom_connect$workspace_tdcw
                        000011          	segdef	workspace_tdcw
    000011  4a  4 00032 7101 20         workspace_tdcw:	tra	iom_connect$workspace_tdcw
                                    35  	tv	get_status,iom_connect$get_status
                        000012          	segdef	get_status
    000012  4a  4 00034 7101 20         get_status:	tra	iom_connect$get_status
                                    36  "	tv	set_status_queue,iom_set_status_queue$iom_set_status_queue
                                    37  	tv	reset,iom_reset$iom_reset
                        000013          	segdef	reset
    000013  4a  4 00036 7101 20         reset:	tra	iom_reset$iom_reset
                                    38  "	tv	run,iom_interrupt$run
                                    39
                        000014      40  	segdef	ignore_interrupt
    000014                          41  ignore_interrupt:
    000014  aa  7 00044 7101 20     42  	short_return
                                    43
                                    44  	end

NO LITERALS

NAME DEFINITIONS FOR ENTRY POINTS AND SEGDEFS

    000016  5a   000003 000000
    000017  5a   000137 600000
    000020  aa   000000 000000
    000021  55   000011 000002
    000022  5a   000002 400003
    000023  55   000006 000011
    000024  aa  012 151 157 137
    000025  aa  155 141 156 141
    000026  aa  147 145 162 000
    000027  55   000021 000003
    000030  0a   000014 400000
    000031  55   000014 000003
    000032  aa  020 151 147 156         ignore_interrupt
    000033  aa  157 162 145 137
    000034  aa  151 156 164 145
    000035  aa  162 162 165 160
    000036  aa  164 000 000 000
    000037  55   000026 000011
    000040  0a   000013 400000
    000041  55   000024 000003
    000042  aa  005 162 145 163         reset
    000043  aa  145 164 000 000
    000044  55   000034 000021
    000045  0a   000012 400000
    000046  55   000031 000003
    000047  aa  012 147 145 164         get_status
    000050  aa  137 163 164 141
    000051  aa  164 165 163 000
    000052  55   000043 000026
    000053  0a   000011 400000
    000054  55   000037 000003
    000055  aa  016 167 157 162         workspace_tdcw
    000056  aa  153 163 160 141
    000057  aa  143 145 137 164
    000060  aa  144 143 167 000
    000061  55   000051 000034
    000062  0a   000010 400000
    000063  55   000046 000003
    000064  aa  011 144 141 164         data_tdcw
    000065  aa  141 137 164 144
    000066  aa  143 167 000 000
    000067  55   000056 000043
    000070  0a   000007 400000
    000071  55   000054 000003
    000072  aa  004 155 141 163         mask
    000073  aa  153 000 000 000
    000074  55   000065 000051
    000075  0a   000006 400000
    000076  55   000061 000003
    000077  aa  016 143 157 156         connect_direct
    000100  aa  156 145 143 164
    000101  aa  137 144 151 162
    000102  aa  145 143 164 000
    000103  55   000073 000056
    000104  0a   000005 400000
    000105  55   000070 000003
    000106  aa  013 143 157 156         connect_abs
    000107  aa  156 145 143 164
    000110  aa  137 141 142 163
    000111  55   000100 000065
    000112  0a   000004 400000
    000113  55   000076 000003
    000114  aa  007 143 157 156         connect
    000115  aa  156 145 143 164
    000116  55   000107 000073
    000117  0a   000003 400000
    000120  55   000103 000003
    000121  aa  017 165 156 141         unassign_delete
    000122  aa  163 163 151 147
    000123  aa  156 137 144 145
    000124  aa  154 145 164 145
    000125  55   000115 000100
    000126  0a   000002 400000
    000127  55   000112 000003
    000130  aa  010 165 156 141         unassign
    000131  aa  163 163 151 147
    000132  aa  156 000 000 000
    000133  55   000123 000107
    000134  0a   000001 400000
    000135  55   000120 000003
    000136  aa  012 141 163 163         assign_add
    000137  aa  151 147 156 137
    000140  aa  141 144 144 000
    000141  55   000130 000115
    000142  0a   000000 400000
    000143  55   000126 000003
    000144  aa  006 141 163 163         assign
    000145  aa  151 147 156 000
    000146  55   000002 000123
    000147  6a   000000 400002
    000150  55   000133 000003
    000151  aa  014 163 171 155         symbol_table
    000152  aa  142 157 154 137
    000153  aa  164 141 142 154
    000154  aa  145 000 000 000

DEFINITIONS HASH TABLE

    000155  aa   000000 000033
    000156  5a   000026 000000
    000157  5a   000034 000000
    000160  5a   000043 000000
    000161  5a   000056 000000
    000162  aa   000000 000000
    000163  aa   000000 000000
    000164  5a   000065 000000
    000165  5a   000115 000000
    000166  5a   000100 000000
    000167  aa   000000 000000
    000170  5a   000073 000000
    000171  5a   000123 000000
    000172  5a   000130 000000
    000173  aa   000000 000000
    000174  aa   000000 000000
    000175  5a   000011 000000
    000176  5a   000021 000000
    000177  5a   000051 000000
    000200  5a   000107 000000
    000201  aa   000000 000000
    000202  aa   000000 000000
    000203  aa   000000 000000
    000204  aa   000000 000000
    000205  aa   000000 000000
    000206  aa   000000 000000
    000207  aa   000000 000000
    000210  aa   000000 000000

EXTERNAL NAMES

    000211  aa  011 151 157 155         iom_reset
    000212  aa  137 162 145 163
    000213  aa  145 164 000 000
    000214  aa  013 151 157 155         iom_connect
    000215  aa  137 143 157 156
    000216  aa  156 145 143 164
    000217  aa  016 144 145 154         delete_channel
    000220  aa  145 164 145 137
    000221  aa  143 150 141 156
    000222  aa  156 145 154 000
    000223  aa  014 151 157 155         iom_unassign
    000224  aa  137 165 156 141
    000225  aa  163 163 151 147
    000226  aa  156 000 000 000
    000227  aa  013 141 144 144         add_channel
    000230  aa  137 143 150 141
    000231  aa  156 156 145 154
    000232  aa  012 151 157 155         iom_assign
    000233  aa  137 141 163 163
    000234  aa  151 147 156 000

NO TRAP POINTER WORDS

TYPE PAIR BLOCKS

    000235  aa   000004 000000
    000236  55   000173 000173
    000237  aa   000004 000000
    000240  55   000176 000031
    000241  aa   000004 000000
    000242  55   000176 000037
    000243  aa   000004 000000
    000244  55   000176 000046
    000245  aa   000004 000000
    000246  55   000176 000054
    000247  aa   000004 000000
    000250  55   000176 000061
    000251  aa   000004 000000
    000252  55   000176 000070
    000253  aa   000004 000000
    000254  55   000176 000076
    000255  aa   000004 000000
    000256  55   000205 000201
    000257  aa   000004 000000
    000260  55   000205 000205
    000261  aa   000004 000000
    000262  55   000214 000211
    000263  aa   000004 000000
    000264  55   000214 000214
    000265  aa   000001 000000
    000266  aa   000000 000000

INTERNAL EXPRESSION WORDS

    000267  5a   000217 000000
    000270  5a   000221 000000
    000271  5a   000223 000000
    000272  5a   000225 000000
    000273  5a   000227 000000
    000274  5a   000231 000000
    000275  5a   000233 000000
    000276  5a   000235 000000
    000277  5a   000237 000000
    000300  5a   000241 000000
    000301  5a   000243 000000
    000302  5a   000245 000000
    000303  aa   000000 000000
LINKAGE INFORMATION

    000000  aa   000000 000000
    000001  0a   000016 000000
    000002  aa   000000 000000
    000003  aa   000000 000000
    000004  aa   000000 000000
    000005  aa   000000 000000
    000006  22   000010 000040
    000007  a2   000000 000000
    000010  9a   777770 0000 46         iom_assign|iom_assign
    000011  5a   000264 0000 00
    000012  9a   777766 0000 46         iom_assign|add_channel
    000013  5a   000263 0000 00
    000014  9a   777764 0000 46         iom_unassign|iom_unassign
    000015  5a   000262 0000 00
    000016  9a   777762 0000 46         iom_unassign|delete_channel
    000017  5a   000261 0000 00
    000020  9a   777760 0000 46         iom_connect|connect
    000021  5a   000260 0000 00
    000022  9a   777756 0000 46         iom_connect|connect_abs
    000023  5a   000257 0000 00
    000024  9a   777754 0000 46         iom_connect|connect_direct
    000025  5a   000256 0000 00
    000026  9a   777752 0000 46         iom_connect|mask
    000027  5a   000255 0000 00
    000030  9a   777750 0000 46         iom_connect|data_tdcw
    000031  5a   000254 0000 00
    000032  9a   777746 0000 46         iom_connect|workspace_tdcw
    000033  5a   000253 0000 00
    000034  9a   777744 0000 46         iom_connect|get_status
    000035  5a   000252 0000 00
    000036  9a   777742 0000 46         iom_reset|iom_reset
    000037  5a   000251 0000 00
SYMBOL INFORMATION

SYMBOL TABLE HEADER

    000000  aa   000000 000001
    000001  aa   163171 155142
    000002  aa   164162 145145
    000003  aa   000000 000010
    000004  aa   000000 117244
    000005  aa   361023 525721
    000006  aa   000000 117547
    000007  aa   256261 010676
    000010  aa   141154 155040
    000011  aa   040040 040040
    000012  aa   000024 000040
    000013  aa   000034 000040
    000014  aa   000044 000100
    000015  aa   000002 000002
    000016  aa   000064 000000
    000017  aa   000000 000160
    000020  aa   000000 000103
    000021  aa   000117 000110
    000022  aa   000152 000103
    000023  aa   000064 000000
    000024  aa   101114 115040
    000025  aa   126145 162163
    000026  aa   151157 156040
    000027  aa   070056 061064
    000030  aa   040115 141162
    000031  aa   143150 040061
    000032  aa   071070 071040
    000033  aa   040040 040040
    000034  aa   110151 162156
    000035  aa   145151 163145
    000036  aa   156056 123171
    000037  aa   163115 141151
    000040  aa   156164 056141
    000041  aa   040040 040040
    000042  aa   040040 040040
    000043  aa   040040 040040
    000044  aa   055164 141162
    000045  aa   147145 164040
    000046  aa   154066 070040
    000047  aa   040040 040040
    000050  aa   040040 040040
    000051  aa   040040 040040
    000052  aa   040040 040040
    000053  aa   040040 040040
    000054  aa   040040 040040
    000055  aa   040040 040040
    000056  aa   040154 151163
    000057  aa   164040 163171
    000060  aa   155142 157154
    000061  aa   163040 040040
    000062  aa   040040 040040
    000063  aa   040040 040040
    000064  aa   000000 000001
    000065  aa   000000 000001
    000066  aa   000072 000041
    000067  aa   175453 017424
    000070  aa   000000 117547
    000071  aa   175542 000000
    000072  aa   076163 160145          >spec>install>1110>io_manager.alm
    000073  aa   143076 151156
    000074  aa   163164 141154
    000075  aa   154076 061061
    000076  aa   061060 076151
    000077  aa   157137 155141
    000100  aa   156141 147145
    000101  aa   162056 141154
    000102  aa   155040 040040
               MULTICS ASSEMBLY CROSS REFERENCE LISTING

   Value        Symbol                   Source file   Line number

                add_channel              io_manager:    26.
           0    assign                   io_manager:    25.
           1    assign_add               io_manager:    26.
           4    connect                  io_manager:    29.
           5    connect_abs              io_manager:    30.
           6    connect_direct           io_manager:    31.
          10    data_tdcw                io_manager:    33.
                delete_channel           io_manager:    28.
          12    get_status               io_manager:    35.
          14    ignore_interrupt         io_manager:    40,   41.
                iom_assign               io_manager:    25,   26.
                iom_connect              io_manager:    29,   30,   31,   32,   33,   34,   35.
                iom_reset                io_manager:    37.
                iom_unassign             io_manager:    27,   28.
           7    mask                     io_manager:    32.
          13    reset                    io_manager:    37.
           2    unassign                 io_manager:    27.
           3    unassign_delete          io_manager:    28.
          11    workspace_tdcw           io_manager:    34.


NO FATAL ERRORS


                                          -----------------------------------------------------------


Historical Background

This edition of the Multics software materials and documentation is provided and donated
to Massachusetts Institute of Technology by Group BULL including BULL HN Information Systems Inc.
as a contribution to computer science knowledge.
This donation is made also to give evidence of the common contributions of Massachusetts Institute of Technology,
Bell Laboratories, General Electric, Honeywell Information Systems Inc., Honeywell BULL Inc., Groupe BULL
and BULL HN Information Systems Inc. to the development of this operating system.
Multics development was initiated by Massachusetts Institute of Technology Project MAC (1963-1970),
renamed the MIT Laboratory for Computer Science and Artificial Intelligence in the mid 1970s, under the leadership
of Professor Fernando Jose Corbato. Users consider that Multics provided the best software architecture
for managing computer hardware properly and for executing programs. Many subsequent operating systems
incorporated Multics principles.
Multics was distributed in 1975 to 2000 by Group Bull in Europe , and in the U.S. by Bull HN Information Systems Inc.,
as successor in interest by change in name only to Honeywell Bull Inc. and Honeywell Information Systems Inc. .

                                          -----------------------------------------------------------

Permission to use, copy, modify, and distribute these programs and their documentation for any purpose and without
fee is hereby granted,provided that the below copyright notice and historical background appear in all copies
and that both the copyright notice and historical background and this permission notice appear in supporting
documentation, and that the names of MIT, HIS, BULL or BULL HN not be used in advertising or publicity pertaining
to distribution of the programs without specific prior written permission.
    Copyright 1972 by Massachusetts Institute of Technology and Honeywell Information Systems Inc.
    Copyright 2006 by BULL HN Information Systems Inc.
    Copyright 2006 by Bull SAS
    All Rights Reserved
