	COMPILATION LISTING OF SEGMENT kstsrch
	Compiled by: Multics PL/I Compiler, Release 32f, of October 9, 1989
	Compiled at: Bull HN, Phoenix AZ, System-M
	Compiled on: 11/11/89  1009.2 mst Sat
	    Options: optimize map

        1 /****^  ***********************************************************
        2*        *                                                         *
        3*        * Copyright, (C) Honeywell Bull Inc., 1987                *
        4*        *                                                         *
        5*        * Copyright, (C) Honeywell Information Systems Inc., 1982 *
        6*        *                                                         *
        7*        * Copyright (c) 1972 by Massachusetts Institute of        *
        8*        * Technology and Honeywell Information Systems, Inc.      *
        9*        *                                                         *
       10*        *********************************************************** */
       11
       12 /* format: style4,indattr,ifthenstmt,ifthen,idind35,^indcomtxt */
       13
       14 kstsrch: proc (uid, hash_bucket, kstep);
       15
       16 /*
       17*
       18*   --->  kstsrch searches the KST unique identifier hash table and returns a pointer  to  the
       19*   KSTE  desired  and the uid hash class.
       20*
       21*   Modified November 1984 by Keith Loepere to remove hdr, also notion of
       22*   undetectable objects.
       23*
       24*   USAGE:  call kstsrch(uid, hash_bucket, kstep);
       25*
       26*   uid bit(36) aligned ---- unique id of object searched for (input)
       27*   hash_bucket fixed bin (17) ---- hash class (output)
       28*   kstep ptr ---- pointer to the desired KSTE if found else null (output)
       29*
       30**/
       31
       32 /* Parameters */
       33
       34 dcl  hash_bucket			fixed bin (17) parameter;
       35 dcl  uid				bit (36) aligned parameter;
       36
       37 /* dcl kstep			ptr parameter; */
       38
       39 /* Variables */
       40
       41 dcl  ring				fixed bin (3);
       42
       43 /* Misc */
       44
       45 dcl  (fixed, ptr, rel, null, mod, dimension) builtin;
       46
       47 /* Entries */
       48
       49 dcl  level$get			entry () returns (fixed bin (3));
       50
       51 	kstp = pds$kstp;
       52 	ring = level$get ();
       53 	hash_bucket = mod (fixed (uid), dimension (kst.uid_hash_bucket, 1));
       54 	do kstep = ptr (kstp, kst.uid_hash_bucket (hash_bucket))
       55 	     repeat (ptr (kstp, kste.fp)) while (rel (kstep) ^= "0"b);
       56 	     if uid = kste.uid then return;
       57 	end;
       58 	kstep = null ();
       59 	return;
       60  /*  START OF:	kst.incl.pl1			  *  *  *  *  *  */
  1     2
  1     3 /*
  1     4*Modified March 1976 by R. Bratt
  1     5*Modified November 1984 to remove hdr, Keith Loepere. */
  1     6
  1     7
  1     8 /****^  HISTORY COMMENTS:
  1     9*  1) change(86-08-08,GDixon), approve(86-08-08,MCR7388),
  1    10*     audit(86-09-02,Farley), install(86-09-08,MR12.0-1150):
  1    11*     Add warning on use of kste.entryp.
  1    12*                                                   END HISTORY COMMENTS */
  1    13
  1    14
  1    15 dcl  pds$kstp ext ptr,
  1    16     (kstp, kstep) ptr;
  1    17
  1    18 dcl 1 kst aligned based (kstp),			/* KST header declaration */
  1    19     2 lowseg fixed bin (17),				/* lowest segment number described by kst */
  1    20     2 highseg fixed bin (17),				/* highest segment number described by kst */
  1    21     2 highest_used_segno fixed bin (17),		/* highest segment number yet used  */
  1    22     2 lvs fixed bin (8),				/* number of private LVs this process is connected to */
  1    23     2 time_of_bootload fixed bin (71),			/* bootload time during prelinking */
  1    24     2 garbage_collections fixed bin (17) unaligned,	/* KST garbage collections */
  1    25     2 entries_collected fixed bin (17) unaligned,		/* KST entries recovered by garbage collection */
  1    26     2 free_list bit (18) unaligned,			/* relative pointer to first free kste */
  1    27     2 prelinked_ring (7) bit (1) unaligned,		/* rings prelinked in process */
  1    28     2 template bit (1) unaligned,			/* this is a template kst if set */
  1    29     2 allow_256K_connect bit (1) unaligned,		/* can use 256K segments */
  1    30     2 unused_2 bit (9) unaligned,
  1    31     2 uid_hash_bucket (0 : 127) bit (18) unaligned,	/* hash buckets */
  1    32     2 kst_entry (0 refer (kst.lowseg):0 refer (kst.highseg)) aligned like kste, /* kst entries */
  1    33     2 lv (1:256) bit (36),				/* private logical volume connection list */
  1    34     2 end_of_kst bit (36);
  1    35
  1    36 dcl 1 kste based (kstep) aligned,			/* KST entry declaration */
  1    37     2 fp bit (18) unaligned,				/* forward rel pointer */
  1    38     2 segno fixed bin (17) unaligned,			/* segment number of this kste */
  1    39     2 usage_count (0:7) fixed bin (8) unaligned,		/* outstanding initiates/ring */
  1    40     2 entryp ptr unaligned,				/* branch pointer */
  1    41 						/* See WARNING below for requirements to use entryp. */
  1    42     2 uid bit (36) aligned,				/* unique identifier */
  1    43     2 access_information unaligned,
  1    44       3 dtbm bit (36),				/* date time branch modified */
  1    45       3 extended_access bit (33),			/* extended access from the branch */
  1    46       3 access bit (3),				/* rew */
  1    47       3 ex_rb (3) bit (3),				/* ring brackets from branch */
  1    48     2 pad1 bit (3) unaligned,
  1    49     2 flags unaligned,
  1    50       3 dirsw bit (1),				/* directory switch */
  1    51       3 allow_write bit (1),				/* set if initiated with write permission */
  1    52       3 priv_init bit (1),				/* privileged initiation */
  1    53       3 tms bit (1),				/* transparent modification switch */
  1    54       3 tus bit (1),				/* transparent usage switch */
  1    55       3 tpd bit (1),				/* transparent paging device switch */
  1    56       3 audit bit (1),				/* audit switch */
  1    57       3 explicit_deact_ok bit (1),			/* set if I am willing to have a user force deactivate */
  1    58       3 pad bit (3),
  1    59     2 infcount fixed bin (12) unaligned;		/* _i_f dirsw _t_h_e_n inferior count _e_l_s_e lv index */
  1    60
  1    61
  1    62 /* *  *  *  *  *  *  *  *  *  *  *  *  *  *  *  *  *  *  *  *  *  *  *  *  * */
  1    63 /*							       */
  1    64 /* WARNING: Before using kste.entryp to get a pointer to the directory       */
  1    65 /* entry associated with the kst entry, you must first validate its value    */
  1    66 /* by calling sum$getbranch or sum$getbranch_root_my.  This call also locks  */
  1    67 /* the containing directory.  The containing directory must remain locked    */
  1    68 /* during the entire period when kste.entryp and the directory entry are     */
  1    69 /* being referenced.  Once the directory is unlocked, kste.entryp can no     */
  1    70 /* longer be used to get a pointer to the entry within the unlocked	       */
  1    71 /* directory since the dir entry could have been moved within the directory  */
  1    72 /* by another processor.					       */
  1    73 /*							       */
  1    74 /* If you only need a pointer to the directory containing the associated     */
  1    75 /* dir entry (but not to the dir entry itself), you can use:	       */
  1    76 /*    pointer (kste.entryp, 0)				       */
  1    77 /* without calling sum to lock the directory and validate entryp.  GDixon    */
  1    78 /*							       */
  1    79 /* *  *  *  *  *  *  *  *  *  *  *  *  *  *  *  *  *  *  *  *  *  *  *  *  * */
  1    80
  1    81 /*  END OF:	kst.incl.pl1			  *  *  *  *  *  */
       60
       61      end kstsrch;
	SOURCE FILES USED IN THIS COMPILATION.

LINE      NUMBER  DATE MODIFIED     NAME			PATHNAME
             0    11/11/89  0839.4  kstsrch.pl1                       >special_ldd>install>MR12.3-1114>kstsrch.pl1
60           1    09/18/86  1308.1  kst.incl.pl1                      >ldd>include>kst.incl.pl1
	NAMES DECLARED IN THIS COMPILATION.

IDENTIFIER	     OFFSET    LOC STORAGE CLASS   DATA TYPE		ATTRIBUTES AND REFERENCES
								(* indicates a set context)

NAMES DECLARED BY DECLARE STATEMENT.
dimension                                              builtin function         dcl 45 ref 53
fixed                                                  builtin function         dcl 45 ref 53
fp                                     based           bit(18)                  level 2 packed packed unaligned dcl 1-36 ref 57
hash_bucket                            parameter       fixed bin(17,0)          dcl 34 set ref 14 53* 54
kst                                    based           structure                level 1 dcl 1-18
kste                                   based           structure                level 1 dcl 1-36
kstep                                  parameter       pointer                  dcl 1-15 set ref 14 54* 54* 56* 57 58*
kstp                            000102 automatic       pointer                  dcl 1-15 set ref 51* 53 54 54 57
level$get                       000010 constant        entry                    external dcl 49 ref 52
mod                                                    builtin function         dcl 45 ref 53
null                                                   builtin function         dcl 45 ref 58
pds$kstp                        000012 external static pointer                  dcl 1-15 ref 51
ptr                                                    builtin function         dcl 45 ref 54 57
rel                                                    builtin function         dcl 45 ref 54
ring                            000100 automatic       fixed bin(3,0)           dcl 41 set ref 52*
uid                       4            based           bit(36)                  level 2 in structure "kste" dcl 1-36 in procedure
                                                                                  "kstsrch" ref 56
uid                                    parameter       bit(36)                  dcl 35 in procedure "kstsrch" ref 14 53 56
uid_hash_bucket          10            based           bit(18)                  array level 2 packed packed unaligned dcl 1-18 ref
                                                                                  53 54

NAME DECLARED BY EXPLICIT CONTEXT.
kstsrch                         000012 constant        entry                    external dcl 14

THERE WERE NO NAMES DECLARED BY CONTEXT OR IMPLICATION.

STORAGE REQUIREMENTS FOR THIS PROGRAM.

	Object	Text	Link	Symbol	Defs	Static
Start          0       0       132         146      72         142
Length       326      72        14         143      37           0

BLOCK NAME	         STACK SIZE     TYPE		WHY NONQUICK/WHO SHARES STACK FRAME
kstsrch                              72 external procedure  is an external procedure.

STORAGE FOR AUTOMATIC VARIABLES.

STACK FRAME                 LOC IDENTIFIER                  BLOCK NAME
kstsrch                  000100 ring                        kstsrch
                         000102 kstp                        kstsrch

THE FOLLOWING EXTERNAL OPERATORS ARE USED BY THIS PROGRAM.
call_ext_out        return_mac          mdfx3               ext_entry

THE FOLLOWING EXTERNAL ENTRIES ARE CALLED BY THIS PROGRAM.
level$get

THE FOLLOWING EXTERNAL VARIABLES ARE USED BY THIS PROGRAM.
pds$kstp


   LINE    LOC      LINE    LOC      LINE    LOC      LINE    LOC      LINE    LOC      LINE    LOC      LINE    LOC
     14 000006        51 000017        52 000022        53 000030        54 000036        56 000055        57 000060
     58 000066        59 000070


                                          -----------------------------------------------------------


Historical Background

This edition of the Multics software materials and documentation is provided and donated
to Massachusetts Institute of Technology by Group BULL including BULL HN Information Systems Inc.
as a contribution to computer science knowledge.
This donation is made also to give evidence of the common contributions of Massachusetts Institute of Technology,
Bell Laboratories, General Electric, Honeywell Information Systems Inc., Honeywell BULL Inc., Groupe BULL
and BULL HN Information Systems Inc. to the development of this operating system.
Multics development was initiated by Massachusetts Institute of Technology Project MAC (1963-1970),
renamed the MIT Laboratory for Computer Science and Artificial Intelligence in the mid 1970s, under the leadership
of Professor Fernando Jose Corbato. Users consider that Multics provided the best software architecture
for managing computer hardware properly and for executing programs. Many subsequent operating systems
incorporated Multics principles.
Multics was distributed in 1975 to 2000 by Group Bull in Europe , and in the U.S. by Bull HN Information Systems Inc.,
as successor in interest by change in name only to Honeywell Bull Inc. and Honeywell Information Systems Inc. .

                                          -----------------------------------------------------------

Permission to use, copy, modify, and distribute these programs and their documentation for any purpose and without
fee is hereby granted,provided that the below copyright notice and historical background appear in all copies
and that both the copyright notice and historical background and this permission notice appear in supporting
documentation, and that the names of MIT, HIS, BULL or BULL HN not be used in advertising or publicity pertaining
to distribution of the programs without specific prior written permission.
    Copyright 1972 by Massachusetts Institute of Technology and Honeywell Information Systems Inc.
    Copyright 2006 by BULL HN Information Systems Inc.
    Copyright 2006 by Bull SAS
    All Rights Reserved
