ASSEMBLY LISTING OF SEGMENT >special_ldd>install>MR12.3-1114>map_free_count.alm
ASSEMBLED ON:	11/11/89  0933.5 mst Sat
OPTIONS USED:	-target l68                              list symbols
ASSEMBLED BY:	ALM Version 8.14 March 1989
ASSEMBLER CREATED:	06/09/89  1002.3 mst Fri

                                     1  " ***********************************************************
                                     2  " *                                                         *
                                     3  " * Copyright, (C) Honeywell Bull Inc., 1987                *
                                     4  " *                                                         *
                                     5  " * Copyright, (C) Honeywell Information Systems Inc., 1982 *
                                     6  " *                                                         *
                                     7  " ***********************************************************
                                     8
                                     9  " " " " " " " " " " " " " " " " " " " " " " " " " " " " " " " " " " " " " " " "
                                    10  "
                                    11  "	map_free_count
                                    12  "
                                    13  "	Routine to examine a part of a bit-map in standard format and
                                    14  "	return the number of free entries in the map. Standard format
                                    15  "	means the following:
                                    16  "
                                    17  "	    1. Each word represents 32 items
                                    18  "
                                    19  "	    2. Bit ON => the item is free
                                    20  "
                                    21  "	    3. Bits 1 - 32 only are used
                                    22  "
                                    23  "	The Volume Map and the VTOC Map are in this format.
                                    24  "
                                    25  "	call map_free_count (map_ptr, map_n_words, free_count)
                                    26  "
                                    27  "	where
                                    28  "	    map_ptr points to the first word (Input)
                                    29  "	    map_n_words is the number of words (Input)
                                    30  "	    free_count is the number of free entries (Output)
                                    31  "
                                    32  "	This is coded in ALM to perform the computation with ruthless
                                    33  "	efficiency.
                                    34  "
                                    35  "	Written March 1982 by J. Bongiovanni
                                    36  "	Modified December 1982 by J. Bongiovanni to reset overflow before fno
                                    37  "
                                    38  " " " " " " " " " " " " " " " " " " " " " " " " " " " " " " " " " " " " " " " "
                                    39
    000000                          40  	name	map_free_count
                                    41
                        000002      42  	entry	map_free_count
                                    43
    000000                          44  map_mask:
    000000  aa   377777 777770      45  	oct	377777777770		" Mask of used bits in word
    000001                          46  map_low_bits:
    000001  aa   177777 777770      47  	oct	177777777770		" To strip out high bit
                                    48
                                    49
    000002                          50  map_free_count:
                                    51
    000002  aa  0 00002 3521 20     52  	eppbp	ap|2,*			" bp -> ptr -> map
    000003  aa  2 00000 3521 20     53  	eppbp	bp|0,*			" bp -> map
    000004  aa  0 00004 7201 20     54  	lxl0	ap|4,*			" x0 = number of words
    000005  aa   000000 2210 03     55  	ldx1	0,du			" x1 = number free items
                                    56
    000006  aa  0 00006 4501 20     57  	stz	ap|6,*			" Clear return value
                                    58
    000007                          59  map_word_loop:
    000007  aa   777777 6200 10     60  	eax0	-1,x0			" Decrement word count
    000010  0a   000025 6040 00     61  	tmi	map_returns_count		" Done
    000011  aa   000000 2360 07     62  	ldq	0,dl
    000012  aa  2 00000 2351 10     63  	lda	bp|0,x0			" Next word
    000013  0a   000000 3750 00     64  	ana	map_mask			" Used bits only
    000014  0a   000007 6000 00     65  	tze	map_word_loop		" No free items this word
    000015  aa   000001 7710 00     66  	arl	1			" Initial alignment
                                    67
    000016                          68  map_bit_loop:
    000016  aa   000001 6210 11     69  	eax1	1,x1			" One more free
    000017  aa   000000 6340 07     70  	ldi	0,dl			" Make sure overflow is Off
    000020  aa   000000 4110 03     71  	lde	0,du
    000021  aa   000000 5730 00     72  	fno				" Get next On bit high
    000022  0a   000001 3750 00     73  	ana	map_low_bits		" And strip it out
    000023  0a   000007 6000 00     74  	tze	map_word_loop		" Done this word
    000024  0a   000016 7100 00     75  	tra	map_bit_loop		" More On bits this word
                                    76
    000025                          77  map_returns_count:
    000025  aa  0 00006 4411 20     78  	sxl1	ap|6,*			" Number free items
    000026  aa  7 00044 7101 20     79  	short_return
                                    80
                                    81  	end
ENTRY SEQUENCES

    000027  5a   000012 0000 00
    000030  aa  7 00046 2721 20
    000031  0a   000002 7100 00

NO LITERALS

NAME DEFINITIONS FOR ENTRY POINTS AND SEGDEFS

    000032  5a   000003 000000
    000033  5a   000030 600000
    000034  aa   000000 000000
    000035  55   000012 000002
    000036  5a   000002 400003
    000037  55   000006 000012
    000040  aa  016 155 141 160
    000041  aa  137 146 162 145
    000042  aa  145 137 143 157
    000043  aa  165 156 164 000
    000044  55   000021 000003
    000045  0a   000030 500000
    000046  55   000015 000003
    000047  aa  016 155 141 160         map_free_count
    000050  aa  137 146 162 145
    000051  aa  145 137 143 157
    000052  aa  165 156 164 000
    000053  55   000002 000012
    000054  6a   000000 400002
    000055  55   000024 000003
    000056  aa  014 163 171 155         symbol_table
    000057  aa  142 157 154 137
    000060  aa  164 141 142 154
    000061  aa  145 000 000 000

DEFINITIONS HASH TABLE

    000062  aa   000000 000015
    000063  aa   000000 000000
    000064  aa   000000 000000
    000065  5a   000012 000000
    000066  aa   000000 000000
    000067  aa   000000 000000
    000070  aa   000000 000000
    000071  5a   000021 000000
    000072  aa   000000 000000
    000073  aa   000000 000000
    000074  aa   000000 000000
    000075  aa   000000 000000
    000076  aa   000000 000000
    000077  aa   000000 000000

NO EXTERNAL NAMES

NO TRAP POINTER WORDS

TYPE PAIR BLOCKS

    000100  aa   000001 000000
    000101  aa   000000 000000

INTERNAL EXPRESSION WORDS

LINKAGE INFORMATION

    000000  aa   000000 000000
    000001  0a   000032 000000
    000002  aa   000000 000000
    000003  aa   000000 000000
    000004  aa   000000 000000
    000005  aa   000000 000000
    000006  22   000010 000010
    000007  a2   000000 000000
SYMBOL INFORMATION

SYMBOL TABLE HEADER

    000000  aa   000000 000001
    000001  aa   163171 155142
    000002  aa   164162 145145
    000003  aa   000000 000010
    000004  aa   000000 117244
    000005  aa   361023 525721
    000006  aa   000000 117547
    000007  aa   246252 047310
    000010  aa   141154 155040
    000011  aa   040040 040040
    000012  aa   000024 000040
    000013  aa   000034 000040
    000014  aa   000044 000100
    000015  aa   000002 000002
    000016  aa   000064 000000
    000017  aa   000000 000134
    000020  aa   000000 000107
    000021  aa   000117 000114
    000022  aa   000126 000107
    000023  aa   000064 000000
    000024  aa   101114 115040
    000025  aa   126145 162163
    000026  aa   151157 156040
    000027  aa   070056 061064
    000030  aa   040115 141162
    000031  aa   143150 040061
    000032  aa   071070 071040
    000033  aa   040040 040040
    000034  aa   110151 162156
    000035  aa   145151 163145
    000036  aa   156056 123171
    000037  aa   163115 141151
    000040  aa   156164 056141
    000041  aa   040040 040040
    000042  aa   040040 040040
    000043  aa   040040 040040
    000044  aa   055164 141162
    000045  aa   147145 164040
    000046  aa   154066 070040
    000047  aa   040040 040040
    000050  aa   040040 040040
    000051  aa   040040 040040
    000052  aa   040040 040040
    000053  aa   040040 040040
    000054  aa   040040 040040
    000055  aa   040040 040040
    000056  aa   040154 151163
    000057  aa   164040 163171
    000060  aa   155142 157154
    000061  aa   163040 040040
    000062  aa   040040 040040
    000063  aa   040040 040040
    000064  aa   000000 000001
    000065  aa   000000 000001
    000066  aa   000072 000063
    000067  aa   175453 022156
    000070  aa   000000 117547
    000071  aa   215650 600000
    000072  aa   076163 160145          >special_ldd>install>MR12.3-1114>map_free_count.alm
    000073  aa   143151 141154
    000074  aa   137154 144144
    000075  aa   076151 156163
    000076  aa   164141 154154
    000077  aa   076115 122061
    000100  aa   062056 063055
    000101  aa   061061 061064
    000102  aa   076155 141160
    000103  aa   137146 162145
    000104  aa   145137 143157
    000105  aa   165156 164056
    000106  aa   141154 155040
               MULTICS ASSEMBLY CROSS REFERENCE LISTING

   Value        Symbol                   Source file   Line number

          16    map_bit_loop             map_free_count:      68,   75.
           2    map_free_count           map_free_count:      42,   50.
           1    map_low_bits             map_free_count:      46,   73.
           0    map_mask                 map_free_count:      44,   64.
          25    map_returns_count        map_free_count:      61,   77.
           7    map_word_loop            map_free_count:      59,   65,   74.


NO FATAL ERRORS


                                          -----------------------------------------------------------


Historical Background

This edition of the Multics software materials and documentation is provided and donated
to Massachusetts Institute of Technology by Group BULL including BULL HN Information Systems Inc.
as a contribution to computer science knowledge.
This donation is made also to give evidence of the common contributions of Massachusetts Institute of Technology,
Bell Laboratories, General Electric, Honeywell Information Systems Inc., Honeywell BULL Inc., Groupe BULL
and BULL HN Information Systems Inc. to the development of this operating system.
Multics development was initiated by Massachusetts Institute of Technology Project MAC (1963-1970),
renamed the MIT Laboratory for Computer Science and Artificial Intelligence in the mid 1970s, under the leadership
of Professor Fernando Jose Corbato. Users consider that Multics provided the best software architecture
for managing computer hardware properly and for executing programs. Many subsequent operating systems
incorporated Multics principles.
Multics was distributed in 1975 to 2000 by Group Bull in Europe , and in the U.S. by Bull HN Information Systems Inc.,
as successor in interest by change in name only to Honeywell Bull Inc. and Honeywell Information Systems Inc. .

                                          -----------------------------------------------------------

Permission to use, copy, modify, and distribute these programs and their documentation for any purpose and without
fee is hereby granted,provided that the below copyright notice and historical background appear in all copies
and that both the copyright notice and historical background and this permission notice appear in supporting
documentation, and that the names of MIT, HIS, BULL or BULL HN not be used in advertising or publicity pertaining
to distribution of the programs without specific prior written permission.
    Copyright 1972 by Massachusetts Institute of Technology and Honeywell Information Systems Inc.
    Copyright 2006 by BULL HN Information Systems Inc.
    Copyright 2006 by Bull SAS
    All Rights Reserved
