ASSEMBLY LISTING OF SEGMENT >special_ldd>install>MR12.3-1114>mask_instruction.alm
ASSEMBLED ON:	11/11/89  0954.1 mst Sat
OPTIONS USED:	-target l68                              list symbols
ASSEMBLED BY:	ALM Version 8.14 March 1989
ASSEMBLER CREATED:	06/09/89  1002.3 mst Fri

                                     1  " ***********************************************************
                                     2  " *                                                         *
                                     3  " * Copyright, (C) Honeywell Bull Inc., 1987                *
                                     4  " *                                                         *
                                     5  " * Copyright, (C) Honeywell Information Systems Inc., 1982 *
                                     6  " *                                                         *
                                     7  " * Copyright (c) 1972 by Massachusetts Institute of        *
                                     8  " * Technology and Honeywell Information Systems, Inc.      *
                                     9  " *                                                         *
                                    10  " ***********************************************************
    000000                          11  	name	mask_instruction
                                    12
                                    13
                        000000      14  	entry	smcm
                        000003      15  	entry	rmcm
                        000006      16  	entry	staq
                        000011      17  	entry	ldaq
                                    18
                                    19  " 
                                    20
    000000  0a   000014 2350 00     21  smcm:	lda	smcm_instruction
    000001  aa  0 00002 7551 20     22  	sta	ap|2,*
    000002  aa  7 00044 7101 20     23  	short_return
                                    24
                                    25
    000003  0a   000015 2350 00     26  rmcm:	lda	rmcm_instruction
    000004  aa  0 00002 7551 20     27  	sta	ap|2,*
    000005  aa  7 00044 7101 20     28  	short_return
                                    29
                                    30
    000006  0a   000016 2350 00     31  staq:	lda	staq_instruction
    000007  aa  0 00002 7551 20     32  	sta	ap|2,*
    000010  aa  7 00044 7101 20     33  	short_return
                                    34
                                    35
    000011  0a   000017 2350 00     36  ldaq:	lda	ldaq_instruction
    000012  aa  0 00002 7551 20     37  	sta	ap|2,*
    000013  aa  7 00044 7101 20     38  	short_return
                                    39
                                    40
    000014                          41  	inhibit	on	<+><+><+><+><+><+><+><+><+><+><+><+>
    000014                          42  smcm_instruction:
    000014  aa  1 00000 5533 20     43  	smcm	ab|0,*
                                    44
    000015                          45  rmcm_instruction:
    000015  aa  1 00000 2333 20     46  	rmcm	ab|0,*
                                    47
    000016                          48  staq_instruction:
    000016  aa  1 00000 7573 00     49  	staq	ab|0
                                    50
    000017                          51  ldaq_instruction:
    000017  aa  1 00000 2373 00     52  	ldaq	ab|0
    000020                          53  	inhibit	off	<-><-><-><-><-><-><-><-><-><-><-><->
                                    54
                                    55
                                    56
                                    57  	end
ENTRY SEQUENCES

    000020  5a   000032 0000 00
    000021  aa  7 00046 2721 20
    000022  0a   000000 7100 00
    000023  5a   000025 0000 00
    000024  aa  7 00046 2721 20
    000025  0a   000003 7100 00
    000026  5a   000020 0000 00
    000027  aa  7 00046 2721 20
    000030  0a   000006 7100 00
    000031  5a   000013 0000 00
    000032  aa  7 00046 2721 20
    000033  0a   000011 7100 00

NO LITERALS

NAME DEFINITIONS FOR ENTRY POINTS AND SEGDEFS

    000034  5a   000003 000000
    000035  5a   000046 600000
    000036  aa   000000 000000
    000037  55   000013 000002
    000040  5a   000002 400003
    000041  55   000006 000013
    000042  aa  020 155 141 163
    000043  aa  153 137 151 156
    000044  aa  163 164 162 165
    000045  aa  143 164 151 157
    000046  aa  156 000 000 000
    000047  55   000020 000003
    000050  0a   000032 500000
    000051  55   000016 000003
    000052  aa  004 154 144 141         ldaq
    000053  aa  161 000 000 000
    000054  55   000025 000013
    000055  0a   000027 500000
    000056  55   000023 000003
    000057  aa  004 163 164 141         staq
    000060  aa  161 000 000 000
    000061  55   000032 000020
    000062  0a   000024 500000
    000063  55   000030 000003
    000064  aa  004 162 155 143         rmcm
    000065  aa  155 000 000 000
    000066  55   000037 000025
    000067  0a   000021 500000
    000070  55   000035 000003
    000071  aa  004 163 155 143         smcm
    000072  aa  155 000 000 000
    000073  55   000002 000032
    000074  6a   000000 400002
    000075  55   000042 000003
    000076  aa  014 163 171 155         symbol_table
    000077  aa  142 157 154 137
    000100  aa  164 141 142 154
    000101  aa  145 000 000 000

DEFINITIONS HASH TABLE

    000102  aa   000000 000015
    000103  aa   000000 000000
    000104  5a   000013 000000
    000105  5a   000032 000000
    000106  5a   000025 000000
    000107  aa   000000 000000
    000110  aa   000000 000000
    000111  5a   000037 000000
    000112  aa   000000 000000
    000113  aa   000000 000000
    000114  5a   000020 000000
    000115  aa   000000 000000
    000116  aa   000000 000000
    000117  aa   000000 000000

NO EXTERNAL NAMES

NO TRAP POINTER WORDS

TYPE PAIR BLOCKS

    000120  aa   000001 000000
    000121  aa   000000 000000

INTERNAL EXPRESSION WORDS

LINKAGE INFORMATION

    000000  aa   000000 000000
    000001  0a   000034 000000
    000002  aa   000000 000000
    000003  aa   000000 000000
    000004  aa   000000 000000
    000005  aa   000000 000000
    000006  22   000010 000010
    000007  a2   000000 000000
SYMBOL INFORMATION

SYMBOL TABLE HEADER

    000000  aa   000000 000001
    000001  aa   163171 155142
    000002  aa   164162 145145
    000003  aa   000000 000010
    000004  aa   000000 117244
    000005  aa   361023 525721
    000006  aa   000000 117547
    000007  aa   257436 662463
    000010  aa   141154 155040
    000011  aa   040040 040040
    000012  aa   000024 000040
    000013  aa   000034 000040
    000014  aa   000044 000100
    000015  aa   000002 000002
    000016  aa   000064 000000
    000017  aa   000000 000140
    000020  aa   000000 000110
    000021  aa   000120 000115
    000022  aa   000132 000110
    000023  aa   000064 000000
    000024  aa   101114 115040
    000025  aa   126145 162163
    000026  aa   151157 156040
    000027  aa   070056 061064
    000030  aa   040115 141162
    000031  aa   143150 040061
    000032  aa   071070 071040
    000033  aa   040040 040040
    000034  aa   110151 162156
    000035  aa   145151 163145
    000036  aa   156056 123171
    000037  aa   163115 141151
    000040  aa   156164 056141
    000041  aa   040040 040040
    000042  aa   040040 040040
    000043  aa   040040 040040
    000044  aa   055164 141162
    000045  aa   147145 164040
    000046  aa   154066 070040
    000047  aa   040040 040040
    000050  aa   040040 040040
    000051  aa   040040 040040
    000052  aa   040040 040040
    000053  aa   040040 040040
    000054  aa   040040 040040
    000055  aa   040040 040040
    000056  aa   040154 151163
    000057  aa   164040 163171
    000060  aa   155142 157154
    000061  aa   163040 040040
    000062  aa   040040 040040
    000063  aa   040040 040040
    000064  aa   000000 000001
    000065  aa   000000 000001
    000066  aa   000072 000065
    000067  aa   175453 020772
    000070  aa   000000 117547
    000071  aa   207735 600000
    000072  aa   076163 160145          >special_ldd>install>MR12.3-1114>mask_instruction.alm
    000073  aa   143151 141154
    000074  aa   137154 144144
    000075  aa   076151 156163
    000076  aa   164141 154154
    000077  aa   076115 122061
    000100  aa   062056 063055
    000101  aa   061061 061064
    000102  aa   076155 141163
    000103  aa   153137 151156
    000104  aa   163164 162165
    000105  aa   143164 151157
    000106  aa   156056 141154
    000107  aa   155040 040040
               MULTICS ASSEMBLY CROSS REFERENCE LISTING

   Value        Symbol                   Source file   Line number

          11    ldaq                     mask_instruction:    17,   36.
          17    ldaq_instruction         mask_instruction:    36,   51.
           3    rmcm                     mask_instruction:    15,   26.
          15    rmcm_instruction         mask_instruction:    26,   45.
           0    smcm                     mask_instruction:    14,   21.
          14    smcm_instruction         mask_instruction:    21,   42.
           6    staq                     mask_instruction:    16,   31.
          16    staq_instruction         mask_instruction:    31,   48.


NO FATAL ERRORS


                                          -----------------------------------------------------------


Historical Background

This edition of the Multics software materials and documentation is provided and donated
to Massachusetts Institute of Technology by Group BULL including BULL HN Information Systems Inc.
as a contribution to computer science knowledge.
This donation is made also to give evidence of the common contributions of Massachusetts Institute of Technology,
Bell Laboratories, General Electric, Honeywell Information Systems Inc., Honeywell BULL Inc., Groupe BULL
and BULL HN Information Systems Inc. to the development of this operating system.
Multics development was initiated by Massachusetts Institute of Technology Project MAC (1963-1970),
renamed the MIT Laboratory for Computer Science and Artificial Intelligence in the mid 1970s, under the leadership
of Professor Fernando Jose Corbato. Users consider that Multics provided the best software architecture
for managing computer hardware properly and for executing programs. Many subsequent operating systems
incorporated Multics principles.
Multics was distributed in 1975 to 2000 by Group Bull in Europe , and in the U.S. by Bull HN Information Systems Inc.,
as successor in interest by change in name only to Honeywell Bull Inc. and Honeywell Information Systems Inc. .

                                          -----------------------------------------------------------

Permission to use, copy, modify, and distribute these programs and their documentation for any purpose and without
fee is hereby granted,provided that the below copyright notice and historical background appear in all copies
and that both the copyright notice and historical background and this permission notice appear in supporting
documentation, and that the names of MIT, HIS, BULL or BULL HN not be used in advertising or publicity pertaining
to distribution of the programs without specific prior written permission.
    Copyright 1972 by Massachusetts Institute of Technology and Honeywell Information Systems Inc.
    Copyright 2006 by BULL HN Information Systems Inc.
    Copyright 2006 by Bull SAS
    All Rights Reserved
