ASSEMBLY LISTING OF SEGMENT >spec>install>1110>math_routines_end_.alm
ASSEMBLED ON:	11/11/89  0943.4 mst Sat
OPTIONS USED:	-target l68                              list symbols
ASSEMBLED BY:	ALM Version 8.14 March 1989
ASSEMBLER CREATED:	06/09/89  1002.3 mst Fri

                                     1  " ***********************************************************
                                     2  " *                                                         *
                                     3  " * Copyright, (C) Honeywell Bull Inc., 1987                *
                                     4  " *                                                         *
                                     5  " * Copyright, (C) Honeywell Information Systems Inc., 1982 *
                                     6  " *                                                         *
                                     7  " * Copyright (c) 1972 by Massachusetts Institute of        *
                                     8  " * Technology and Honeywell Information Systems, Inc.      *
                                     9  " *                                                         *
                                    10  " ***********************************************************
                                    11
                                    12  " this routine must be bound after any of the math
                                    13  " routines in bound_pl1_operators_.  It is used by
                                    14  " default_errror_handler_
                                    15  "
                        000000      16  	segdef	math_routines_end_
    000000                          17  math_routines_end_:
    000000  a0   000000 000000      18  	vfd	36/*
                                    19  	end

NO LITERALS

NAME DEFINITIONS FOR ENTRY POINTS AND SEGDEFS

    000002  5a   000003 000000
    000003  5a   000032 600000
    000004  aa   000000 000000
    000005  55   000013 000002
    000006  5a   000002 400003
    000007  55   000006 000013
    000010  aa  022 155 141 164
    000011  aa  150 137 162 157
    000012  aa  165 164 151 156
    000013  aa  145 163 137 145
    000014  aa  156 144 137 000
    000015  55   000023 000003
    000016  0a   000000 400000
    000017  55   000016 000003
    000020  aa  022 155 141 164         math_routines_end_
    000021  aa  150 137 162 157
    000022  aa  165 164 151 156
    000023  aa  145 163 137 145
    000024  aa  156 144 137 000
    000025  55   000002 000013
    000026  6a   000000 400002
    000027  55   000026 000003
    000030  aa  014 163 171 155         symbol_table
    000031  aa  142 157 154 137
    000032  aa  164 141 142 154
    000033  aa  145 000 000 000

DEFINITIONS HASH TABLE

    000034  aa   000000 000015
    000035  aa   000000 000000
    000036  aa   000000 000000
    000037  aa   000000 000000
    000040  aa   000000 000000
    000041  aa   000000 000000
    000042  aa   000000 000000
    000043  5a   000023 000000
    000044  aa   000000 000000
    000045  aa   000000 000000
    000046  aa   000000 000000
    000047  aa   000000 000000
    000050  aa   000000 000000
    000051  5a   000013 000000

NO EXTERNAL NAMES

NO TRAP POINTER WORDS

TYPE PAIR BLOCKS

    000052  aa   000001 000000
    000053  aa   000000 000000

INTERNAL EXPRESSION WORDS

LINKAGE INFORMATION

    000000  aa   000000 000000
    000001  0a   000002 000000
    000002  aa   000000 000000
    000003  aa   000000 000000
    000004  aa   000000 000000
    000005  aa   000000 000000
    000006  22   000010 000010
    000007  a2   000000 000000
SYMBOL INFORMATION

SYMBOL TABLE HEADER

    000000  aa   000000 000001
    000001  aa   163171 155142
    000002  aa   164162 145145
    000003  aa   000000 000010
    000004  aa   000000 117244
    000005  aa   361023 525721
    000006  aa   000000 117547
    000007  aa   252623 260764
    000010  aa   141154 155040
    000011  aa   040040 040040
    000012  aa   000024 000040
    000013  aa   000034 000040
    000014  aa   000044 000100
    000015  aa   000002 000002
    000016  aa   000064 000000
    000017  aa   000000 000130
    000020  aa   000000 000105
    000021  aa   000113 000110
    000022  aa   000122 000105
    000023  aa   000064 000000
    000024  aa   101114 115040
    000025  aa   126145 162163
    000026  aa   151157 156040
    000027  aa   070056 061064
    000030  aa   040115 141162
    000031  aa   143150 040061
    000032  aa   071070 071040
    000033  aa   040040 040040
    000034  aa   110151 162156
    000035  aa   145151 163145
    000036  aa   156056 123171
    000037  aa   163115 141151
    000040  aa   156164 056141
    000041  aa   040040 040040
    000042  aa   040040 040040
    000043  aa   040040 040040
    000044  aa   055164 141162
    000045  aa   147145 164040
    000046  aa   154066 070040
    000047  aa   040040 040040
    000050  aa   040040 040040
    000051  aa   040040 040040
    000052  aa   040040 040040
    000053  aa   040040 040040
    000054  aa   040040 040040
    000055  aa   040040 040040
    000056  aa   040154 151163
    000057  aa   164040 163171
    000060  aa   155142 157154
    000061  aa   163040 040040
    000062  aa   040040 040040
    000063  aa   040040 040040
    000064  aa   000000 000001
    000065  aa   000000 000001
    000066  aa   000072 000051
    000067  aa   175453 020023
    000070  aa   000000 117547
    000071  aa   176210 600000
    000072  aa   076163 160145          >spec>install>1110>math_routines_end_.alm
    000073  aa   143076 151156
    000074  aa   163164 141154
    000075  aa   154076 061061
    000076  aa   061060 076155
    000077  aa   141164 150137
    000100  aa   162157 165164
    000101  aa   151156 145163
    000102  aa   137145 156144
    000103  aa   137056 141154
    000104  aa   155040 040040
               MULTICS ASSEMBLY CROSS REFERENCE LISTING

   Value        Symbol                   Source file   Line number

           0    math_routines_end_       math_routines_end_:        16,   17.


NO FATAL ERRORS


                                          -----------------------------------------------------------


Historical Background

This edition of the Multics software materials and documentation is provided and donated
to Massachusetts Institute of Technology by Group BULL including BULL HN Information Systems Inc.
as a contribution to computer science knowledge.
This donation is made also to give evidence of the common contributions of Massachusetts Institute of Technology,
Bell Laboratories, General Electric, Honeywell Information Systems Inc., Honeywell BULL Inc., Groupe BULL
and BULL HN Information Systems Inc. to the development of this operating system.
Multics development was initiated by Massachusetts Institute of Technology Project MAC (1963-1970),
renamed the MIT Laboratory for Computer Science and Artificial Intelligence in the mid 1970s, under the leadership
of Professor Fernando Jose Corbato. Users consider that Multics provided the best software architecture
for managing computer hardware properly and for executing programs. Many subsequent operating systems
incorporated Multics principles.
Multics was distributed in 1975 to 2000 by Group Bull in Europe , and in the U.S. by Bull HN Information Systems Inc.,
as successor in interest by change in name only to Honeywell Bull Inc. and Honeywell Information Systems Inc. .

                                          -----------------------------------------------------------

Permission to use, copy, modify, and distribute these programs and their documentation for any purpose and without
fee is hereby granted,provided that the below copyright notice and historical background appear in all copies
and that both the copyright notice and historical background and this permission notice appear in supporting
documentation, and that the names of MIT, HIS, BULL or BULL HN not be used in advertising or publicity pertaining
to distribution of the programs without specific prior written permission.
    Copyright 1972 by Massachusetts Institute of Technology and Honeywell Information Systems Inc.
    Copyright 2006 by BULL HN Information Systems Inc.
    Copyright 2006 by Bull SAS
    All Rights Reserved
