ASSEMBLY LISTING OF SEGMENT >special_ldd>install>MR12.3-1114>message_table_.alm
ASSEMBLED ON:	11/11/89  0933.1 mst Sat
OPTIONS USED:	-target l68                              list symbols
ASSEMBLED BY:	ALM Version 8.14 March 1989
ASSEMBLER CREATED:	06/09/89  1002.3 mst Fri

                                     1  " ***********************************************************
                                     2  " *                                                         *
                                     3  " * Copyright, (C) Honeywell Bull Inc., 1987                *
                                     4  " *                                                         *
                                     5  " * Copyright, (C) Honeywell Information Systems Inc., 1982 *
                                     6  " *                                                         *
                                     7  " * Copyright (c) 1972 by Massachusetts Institute of        *
                                     8  " * Technology and Honeywell Information Systems, Inc.      *
                                     9  " *                                                         *
                                    10  " ***********************************************************
                                    11
                                    12  " HISTORY COMMENTS:
                                    13  "  1) change(86-07-14,BWong), approve(86-07-14,MCR7382),
                                    14  "     audit(86-07-17,Ginter), install(86-07-28,MR12.0-1104):
                                    15  "     Fix fortran bug 355.
                                    16  "                                                      END HISTORY COMMENTS
                                    17
                                    18
                                    19  "
                                    20  "	message_table_
                                    21  "
                                    22  "	This is a modified version of the old message_table_.mt. The program generates a sequence
                                    23  "	of message table entries (MTEs) that are defined with the mte macro.
                                    24  "
                                    25  "	The correct MTE is found by default_error_handler_ by searching the definitions
                                    26  "	of message_table_.
                                    27  "
                                    28  "	Coded Aug 19, 1977 by S.Webber
                                    29  "	Modified June 1978 by M. Weaver  to fix missing new line bugs and gate_err
                                    30  "	Modified Nov. 22, 1978 by M. Weaver  to fix storage, add command_abort_, and fix missing line bugs
                                    31  "	Modified: 7 April 1981 by G. Palter to correct bug causing the command_query_error
                                    32  "		     condition to print garbage
                                    33  "
                                    34  "
                                    35  "	Modified April 1981 by Benson I. Margulies to replace simfault with null_pointer_
                                    36  "	and remove obsolete accessviolation entry.
                                    37  "	Modified June 1983 by Melanie Weaver to add fortran_pause
                                    38  "	Modified November 29, 1984 by Melanie Weaver to add malformed_list_template_entry_
                                    39  "	Modified November 25, 1985 by Nashirali Samanani to change the stringrange error message.
                                    40  "		Fixes fortran error list number 355 (TR phx13585).
                                    41
                                    42
                                    43  	macro	format
                              1     44  	zero	0,&l1		"length of varying string
                              2     45  	aci	@&1@,104		"declare char (104) var
                              3     46
                              4     47  	&end
                                    48
                                    49
                                    50  	macro	cond
                              1     51  	maclist	on,save
                              2     52
                              3     53  	ife	&1,()		"null string?
                              4     54  	zero	nullp,0
                              5     55  	ifend
                              6     56  	ine	&1,()
                              7     57  	use	data
                              8     58  &U:	zero	0,&l1
                              9     59  	aci	@&1@
                             10     60  	use	text
                             11     61  	zero	&U,0
                             12     62  	ifend
                             13     63  	maclist	restore
                             14     64
                             15     65  	&end
                                    66
                                    67
                                    68
                                    69  	macro	mte
                              1     70
                              2     71  	segdef	&1
                              3     72  &1:
                              4     73  	zero	&2,&3		"control bits
                              5     74  	zero	0,&4		"format index
                              6     75
                              7     76  	maclist	off,save
                              8     77  	cond	(&5)		"first string
                              9     78  	cond	(&6)		"second string
                             10     79  	cond	(&7)		"third string
                             11     80  	cond	(&8)		"fourth string
                             12     81  	maclist	restore
                             13     82
                             14     83  	ife	&9,()		"see if id given
                             15     84  	zero	nullp,0		"no, point to null string
                             16     85  	ifend
                             17     86  	ine	&9,()		"id was given
                             18     87  	use	data
                             19     88  &U:	zero	0,14+&l1
                             20     89  	aci	@  (&1 condition)@
                             21     90  	use	text
                             22     91  	zero	&U,0
                             23     92  	ifend
                             24     93
                             25     94  	&end
                                    95
                                    96
                                    97
                                    98  	use	text
                                    99  	use	data
                                   100  	join	/text/text,data
                                   101
                                   102  	include	message_table_entry
                                   1-1
                                   1-2
                                   1-3       "BEGIN INCLUDE FILE message_table_entry.incl.alm
                                   1-4
                                   1-5
                                   1-6  	"Created 04/13/81  1519.7 est Mon by convert_include_file,
                                   1-7  	"   Version of 02/27/81  0031.1 est Fri.
                                   1-8
                                   1-9  	"Made from >udd>Multics>Margulies>beh>message_table_entry.incl.pl1,
                                  1-10  	"   modified 04/13/81  1518.9 est Mon
                                  1-11
                                  1-12  "
                                  1-13  "	Structure mte
                                  1-14  "
                        000007    1-15  	equ	mte_size,7
                                  1-16
                                  1-17
                        000000    1-18  	equ	mte.group,0		" LEVEL 2
                                  1-19
                        200000    1-20  	bool	mte.query_error,200000	" DU
                        100000    1-21  	bool	mte.active_func,100000	" DU
                        040000    1-22  	bool	mte.no_tpr,040000		" DU
                        020000    1-23  	bool	mte.with_tpr,020000		" DU
                        010000    1-24  	bool	mte.io_err,010000		" DU
                        004000    1-25  	bool	mte.undefined,004000	" DU
                        002000    1-26  	bool	mte.unwind_err,002000	" DU
                        000400    1-27  	bool	mte.ignore,000400		" DU
                                  1-28
                        000000    1-29  	equ	mte.action_ind,0		" LEVEL 2
                                  1-30
                        400000    1-31  	bool	mte.no_special,400000	" DL
                        200000    1-32  	bool	mte.sub_err,200000		" DL
                        100000    1-33  	bool	mte.sig_error,100000	" DL
                        040000    1-34  	bool	mte.storage,040000		" DL
                        020000    1-35  	bool	mte.endpage,020000		" DL
                        010000    1-36  	bool	mte.linkerr,010000		" DL
                        004000    1-37  	bool	mte.cur_inst,004000		" DL
                        001000    1-38  	bool	mte.gaterr,001000		" DL
                        000400    1-39  	bool	mte.segferr,000400		" DL
                        000200    1-40  	bool	mte.pagerr,000200		" DL
                        000100    1-41  	bool	mte.store,000100		" DL
                        000040    1-42  	bool	mte.outbounds,000040	" DL
                        000020    1-43  	bool	mte.lotfault,000020		" DL
                                  1-44
                        000001    1-45  	equ	mte.format_x,1
                                  1-46
                        000002    1-47  	equ	mte.string_relp,2		" UPPER
                                  1-48
                        000006    1-49  	equ	mte.cond_id_relp,6		" UPPER
                                  1-50
                                  1-51       "END INCLUDE FILE message_table_entry.incl.alm
                                   103
                                   104
                                   105  	use	data
    002061  aa   000000 000000     106  nullp:	zero	0,0		"zero length varying string
                                   107  	use	text
                                   108
                        000000     109  	segdef	formats
    000000                         110  formats:
                                   111  	format	()
    000000  aa   000000 000000          	zero	0,0		"length of varying string
    000001  aa  040 040 040 040         	aci	@@,104		"declare char (104) var
    000002  aa  040 040 040 040
    000003  aa  040 040 040 040
    000004  aa  040 040 040 040
    000005  aa  040 040 040 040
    000006  aa  040 040 040 040
    000007  aa  040 040 040 040
    000010  aa  040 040 040 040
    000011  aa  040 040 040 040
    000012  aa  040 040 040 040
    000013  aa  040 040 040 040
    000014  aa  040 040 040 040
    000015  aa  040 040 040 040
    000016  aa  040 040 040 040
    000017  aa  040 040 040 040
    000020  aa  040 040 040 040
    000021  aa  040 040 040 040
    000022  aa  040 040 040 040
    000023  aa  040 040 040 040
    000024  aa  040 040 040 040
    000025  aa  040 040 040 040
    000026  aa  040 040 040 040
    000027  aa  040 040 040 040
    000030  aa  040 040 040 040
    000031  aa  040 040 040 040
    000032  aa  040 040 040 040

                                   112  	format	()
    000033  aa   000000 000000          	zero	0,0		"length of varying string
    000034  aa  040 040 040 040         	aci	@@,104		"declare char (104) var
    000035  aa  040 040 040 040
    000036  aa  040 040 040 040
    000037  aa  040 040 040 040
    000040  aa  040 040 040 040
    000041  aa  040 040 040 040
    000042  aa  040 040 040 040
    000043  aa  040 040 040 040
    000044  aa  040 040 040 040
    000045  aa  040 040 040 040
    000046  aa  040 040 040 040
    000047  aa  040 040 040 040
    000050  aa  040 040 040 040
    000051  aa  040 040 040 040
    000052  aa  040 040 040 040
    000053  aa  040 040 040 040
    000054  aa  040 040 040 040
    000055  aa  040 040 040 040
    000056  aa  040 040 040 040
    000057  aa  040 040 040 040
    000060  aa  040 040 040 040
    000061  aa  040 040 040 040
    000062  aa  040 040 040 040
    000063  aa  040 040 040 040
    000064  aa  040 040 040 040
    000065  aa  040 040 040 040

                                   113
                                   114  	format	(^/Error:  ^a^a by ^a^a^a^a^/^a^a^a^a)
    000066  aa   000000 000044          	zero	0,36		"length of varying string
    000067  aa  136 057 105 162         	aci	@^/Error:  ^a^a by ^a^a^a^a^/^a^a^a^a@,104		"declare char (104) var
    000070  aa  162 157 162 072
    000071  aa  040 040 136 141
    000072  aa  136 141 040 142
    000073  aa  171 040 136 141
    000074  aa  136 141 136 141
    000075  aa  136 141 136 057
    000076  aa  136 141 136 141
    000077  aa  136 141 136 141
    000100  aa  040 040 040 040
    000101  aa  040 040 040 040
    000102  aa  040 040 040 040
    000103  aa  040 040 040 040
    000104  aa  040 040 040 040
    000105  aa  040 040 040 040
    000106  aa  040 040 040 040
    000107  aa  040 040 040 040
    000110  aa  040 040 040 040
    000111  aa  040 040 040 040
    000112  aa  040 040 040 040
    000113  aa  040 040 040 040
    000114  aa  040 040 040 040
    000115  aa  040 040 040 040
    000116  aa  040 040 040 040
    000117  aa  040 040 040 040
    000120  aa  040 040 040 040

                                   115  	format	(^/Error while processing in ^a:^/^a^a ^a^a^a^/^a^a^a^/Entry into lower ring was by^/^a^a^a^a)
    000121  aa   000000 000134          	zero	0,92		"length of varying string
    000122  aa  136 057 105 162         	aci	@^/Error while processing in ^a:^/^a^a ^a^a^a^/^a^a^a^/Entry into lower ring was by^/^a^a^a^a@,104		"declare char (104) var
    000123  aa  162 157 162 040
    000124  aa  167 150 151 154
    000125  aa  145 040 160 162
    000126  aa  157 143 145 163
    000127  aa  163 151 156 147
    000130  aa  040 151 156 040
    000131  aa  136 141 072 136
    000132  aa  057 136 141 136
    000133  aa  141 040 136 141
    000134  aa  136 141 136 141
    000135  aa  136 057 136 141
    000136  aa  136 141 136 141
    000137  aa  136 057 105 156
    000140  aa  164 162 171 040
    000141  aa  151 156 164 157
    000142  aa  040 154 157 167
    000143  aa  145 162 040 162
    000144  aa  151 156 147 040
    000145  aa  167 141 163 040
    000146  aa  142 171 136 057
    000147  aa  136 141 136 141
    000150  aa  136 141 136 141
    000151  aa  040 040 040 040
    000152  aa  040 040 040 040
    000153  aa  040 040 040 040

                                   116
                                   117  	format	(^/Error:  ^a ^a ^a^a^/^a ^a^/^a^a^a^a)
    000154  aa   000000 000045          	zero	0,37		"length of varying string
    000155  aa  136 057 105 162         	aci	@^/Error:  ^a ^a ^a^a^/^a ^a^/^a^a^a^a@,104		"declare char (104) var
    000156  aa  162 157 162 072
    000157  aa  040 040 136 141
    000160  aa  040 136 141 040
    000161  aa  136 141 136 141
    000162  aa  136 057 136 141
    000163  aa  040 136 141 136
    000164  aa  057 136 141 136
    000165  aa  141 136 141 136
    000166  aa  141 040 040 040
    000167  aa  040 040 040 040
    000170  aa  040 040 040 040
    000171  aa  040 040 040 040
    000172  aa  040 040 040 040
    000173  aa  040 040 040 040
    000174  aa  040 040 040 040
    000175  aa  040 040 040 040
    000176  aa  040 040 040 040
    000177  aa  040 040 040 040
    000200  aa  040 040 040 040
    000201  aa  040 040 040 040
    000202  aa  040 040 040 040
    000203  aa  040 040 040 040
    000204  aa  040 040 040 040
    000205  aa  040 040 040 040
    000206  aa  040 040 040 040

                                   118  	format	(^/Error while processing in ^a:^/^a ^a ^a^/^a ^a^/^a^a^a^/Entry into lower ring was by^/^a^a^a^a)
    000207  aa   000000 000140          	zero	0,96		"length of varying string
    000210  aa  136 057 105 162         	aci	@^/Error while processing in ^a:^/^a ^a ^a^/^a ^a^/^a^a^a^/Entry into lower ring was by^/^a^a^a^a@,104		"declare char (104) var
    000211  aa  162 157 162 040
    000212  aa  167 150 151 154
    000213  aa  145 040 160 162
    000214  aa  157 143 145 163
    000215  aa  163 151 156 147
    000216  aa  040 151 156 040
    000217  aa  136 141 072 136
    000220  aa  057 136 141 040
    000221  aa  136 141 040 136
    000222  aa  141 136 057 136
    000223  aa  141 040 136 141
    000224  aa  136 057 136 141
    000225  aa  136 141 136 141
    000226  aa  136 057 105 156
    000227  aa  164 162 171 040
    000230  aa  151 156 164 157
    000231  aa  040 154 157 167
    000232  aa  145 162 040 162
    000233  aa  151 156 147 040
    000234  aa  167 141 163 040
    000235  aa  142 171 136 057
    000236  aa  136 141 136 141
    000237  aa  136 141 136 141
    000240  aa  040 040 040 040
    000241  aa  040 040 040 040

                                   119
                                   120  	format	(^/Error:  ^a ^a by ^a^a^/^a^a^a^a^a^a)
    000242  aa   000000 000045          	zero	0,37		"length of varying string
    000243  aa  136 057 105 162         	aci	@^/Error:  ^a ^a by ^a^a^/^a^a^a^a^a^a@,104		"declare char (104) var
    000244  aa  162 157 162 072
    000245  aa  040 040 136 141
    000246  aa  040 136 141 040
    000247  aa  142 171 040 136
    000250  aa  141 136 141 136
    000251  aa  057 136 141 136
    000252  aa  141 136 141 136
    000253  aa  141 136 141 136
    000254  aa  141 040 040 040
    000255  aa  040 040 040 040
    000256  aa  040 040 040 040
    000257  aa  040 040 040 040
    000260  aa  040 040 040 040
    000261  aa  040 040 040 040
    000262  aa  040 040 040 040
    000263  aa  040 040 040 040
    000264  aa  040 040 040 040
    000265  aa  040 040 040 040
    000266  aa  040 040 040 040
    000267  aa  040 040 040 040
    000270  aa  040 040 040 040
    000271  aa  040 040 040 040
    000272  aa  040 040 040 040
    000273  aa  040 040 040 040
    000274  aa  040 040 040 040

                                   121  	format	(^/Error while processing in ^a:^/^a ^a by ^a^a^a^/^a^a^a^/Entry into lower ring was by^/^a^a^a^a)
    000275  aa   000000 000140          	zero	0,96		"length of varying string
    000276  aa  136 057 105 162         	aci	@^/Error while processing in ^a:^/^a ^a by ^a^a^a^/^a^a^a^/Entry into lower ring was by^/^a^a^a^a@,104		"declare char (104) var
    000277  aa  162 157 162 040
    000300  aa  167 150 151 154
    000301  aa  145 040 160 162
    000302  aa  157 143 145 163
    000303  aa  163 151 156 147
    000304  aa  040 151 156 040
    000305  aa  136 141 072 136
    000306  aa  057 136 141 040
    000307  aa  136 141 040 142
    000310  aa  171 040 136 141
    000311  aa  136 141 136 141
    000312  aa  136 057 136 141
    000313  aa  136 141 136 141
    000314  aa  136 057 105 156
    000315  aa  164 162 171 040
    000316  aa  151 156 164 157
    000317  aa  040 154 157 167
    000320  aa  145 162 040 162
    000321  aa  151 156 147 040
    000322  aa  167 141 163 040
    000323  aa  142 171 136 057
    000324  aa  136 141 136 141
    000325  aa  136 141 136 141
    000326  aa  040 040 040 040
    000327  aa  040 040 040 040

                                   122
                                   123  	format	(^/Error:  ^a^a ^a^a^a^a^a^a^a^a)
    000330  aa   000000 000037          	zero	0,31		"length of varying string
    000331  aa  136 057 105 162         	aci	@^/Error:  ^a^a ^a^a^a^a^a^a^a^a@,104		"declare char (104) var
    000332  aa  162 157 162 072
    000333  aa  040 040 136 141
    000334  aa  136 141 040 136
    000335  aa  141 136 141 136
    000336  aa  141 136 141 136
    000337  aa  141 136 141 136
    000340  aa  141 136 141 040
    000341  aa  040 040 040 040
    000342  aa  040 040 040 040
    000343  aa  040 040 040 040
    000344  aa  040 040 040 040
    000345  aa  040 040 040 040
    000346  aa  040 040 040 040
    000347  aa  040 040 040 040
    000350  aa  040 040 040 040
    000351  aa  040 040 040 040
    000352  aa  040 040 040 040
    000353  aa  040 040 040 040
    000354  aa  040 040 040 040
    000355  aa  040 040 040 040
    000356  aa  040 040 040 040
    000357  aa  040 040 040 040
    000360  aa  040 040 040 040
    000361  aa  040 040 040 040
    000362  aa  040 040 040 040

                                   124  	format	(^/Error while processing in ^a:^/^a^a ^a^a^a^a^a^a^/Entry into lower ring was by^/^a^a^a^a)
    000363  aa   000000 000132          	zero	0,90		"length of varying string
    000364  aa  136 057 105 162         	aci	@^/Error while processing in ^a:^/^a^a ^a^a^a^a^a^a^/Entry into lower ring was by^/^a^a^a^a@,104		"declare char (104) var
    000365  aa  162 157 162 040
    000366  aa  167 150 151 154
    000367  aa  145 040 160 162
    000370  aa  157 143 145 163
    000371  aa  163 151 156 147
    000372  aa  040 151 156 040
    000373  aa  136 141 072 136
    000374  aa  057 136 141 136
    000375  aa  141 040 136 141
    000376  aa  136 141 136 141
    000377  aa  136 141 136 141
    000400  aa  136 141 136 057
    000401  aa  105 156 164 162
    000402  aa  171 040 151 156
    000403  aa  164 157 040 154
    000404  aa  157 167 145 162
    000405  aa  040 162 151 156
    000406  aa  147 040 167 141
    000407  aa  163 040 142 171
    000410  aa  136 057 136 141
    000411  aa  136 141 136 141
    000412  aa  136 141 040 040
    000413  aa  040 040 040 040
    000414  aa  040 040 040 040
    000415  aa  040 040 040 040

                                   125
                                   126  	format	(^/Error:  ^a^a ^a^a^/^a ^a^/^a^a^a^a)
    000416  aa   000000 000044          	zero	0,36		"length of varying string
    000417  aa  136 057 105 162         	aci	@^/Error:  ^a^a ^a^a^/^a ^a^/^a^a^a^a@,104		"declare char (104) var
    000420  aa  162 157 162 072
    000421  aa  040 040 136 141
    000422  aa  136 141 040 136
    000423  aa  141 136 141 136
    000424  aa  057 136 141 040
    000425  aa  136 141 136 057
    000426  aa  136 141 136 141
    000427  aa  136 141 136 141
    000430  aa  040 040 040 040
    000431  aa  040 040 040 040
    000432  aa  040 040 040 040
    000433  aa  040 040 040 040
    000434  aa  040 040 040 040
    000435  aa  040 040 040 040
    000436  aa  040 040 040 040
    000437  aa  040 040 040 040
    000440  aa  040 040 040 040
    000441  aa  040 040 040 040
    000442  aa  040 040 040 040
    000443  aa  040 040 040 040
    000444  aa  040 040 040 040
    000445  aa  040 040 040 040
    000446  aa  040 040 040 040
    000447  aa  040 040 040 040
    000450  aa  040 040 040 040

                                   127  	format	(^/Error while processing in ^a:^/^a^a ^a^/^a ^a^/^a^a^a^/Entry into lower ring was by^/^a^a^a^a)
    000451  aa   000000 000137          	zero	0,95		"length of varying string
    000452  aa  136 057 105 162         	aci	@^/Error while processing in ^a:^/^a^a ^a^/^a ^a^/^a^a^a^/Entry into lower ring was by^/^a^a^a^a@,104		"declare char (104) var
    000453  aa  162 157 162 040
    000454  aa  167 150 151 154
    000455  aa  145 040 160 162
    000456  aa  157 143 145 163
    000457  aa  163 151 156 147
    000460  aa  040 151 156 040
    000461  aa  136 141 072 136
    000462  aa  057 136 141 136
    000463  aa  141 040 136 141
    000464  aa  136 057 136 141
    000465  aa  040 136 141 136
    000466  aa  057 136 141 136
    000467  aa  141 136 141 136
    000470  aa  057 105 156 164
    000471  aa  162 171 040 151
    000472  aa  156 164 157 040
    000473  aa  154 157 167 145
    000474  aa  162 040 162 151
    000475  aa  156 147 040 167
    000476  aa  141 163 040 142
    000477  aa  171 136 057 136
    000500  aa  141 136 141 136
    000501  aa  141 136 141 040
    000502  aa  040 040 040 040
    000503  aa  040 040 040 040

                                   128
                                   129  	format	(^/Error:  ^a^a by ^a^a^a^a^a^/^a^a^a)
    000504  aa   000000 000044          	zero	0,36		"length of varying string
    000505  aa  136 057 105 162         	aci	@^/Error:  ^a^a by ^a^a^a^a^a^/^a^a^a@,104		"declare char (104) var
    000506  aa  162 157 162 072
    000507  aa  040 040 136 141
    000510  aa  136 141 040 142
    000511  aa  171 040 136 141
    000512  aa  136 141 136 141
    000513  aa  136 141 136 141
    000514  aa  136 057 136 141
    000515  aa  136 141 136 141
    000516  aa  040 040 040 040
    000517  aa  040 040 040 040
    000520  aa  040 040 040 040
    000521  aa  040 040 040 040
    000522  aa  040 040 040 040
    000523  aa  040 040 040 040
    000524  aa  040 040 040 040
    000525  aa  040 040 040 040
    000526  aa  040 040 040 040
    000527  aa  040 040 040 040
    000530  aa  040 040 040 040
    000531  aa  040 040 040 040
    000532  aa  040 040 040 040
    000533  aa  040 040 040 040
    000534  aa  040 040 040 040
    000535  aa  040 040 040 040
    000536  aa  040 040 040 040

                                   130  	format	(^/Error while processing in ^a:^/^a^a by ^a^a^a^a^/^a^a^/Entry into lower ring was by^/^a^a^a^a)
    000537  aa   000000 000137          	zero	0,95		"length of varying string
    000540  aa  136 057 105 162         	aci	@^/Error while processing in ^a:^/^a^a by ^a^a^a^a^/^a^a^/Entry into lower ring was by^/^a^a^a^a@,104		"declare char (104) var
    000541  aa  162 157 162 040
    000542  aa  167 150 151 154
    000543  aa  145 040 160 162
    000544  aa  157 143 145 163
    000545  aa  163 151 156 147
    000546  aa  040 151 156 040
    000547  aa  136 141 072 136
    000550  aa  057 136 141 136
    000551  aa  141 040 142 171
    000552  aa  040 136 141 136
    000553  aa  141 136 141 136
    000554  aa  141 136 057 136
    000555  aa  141 136 141 136
    000556  aa  057 105 156 164
    000557  aa  162 171 040 151
    000560  aa  156 164 157 040
    000561  aa  154 157 167 145
    000562  aa  162 040 162 151
    000563  aa  156 147 040 167
    000564  aa  141 163 040 142
    000565  aa  171 136 057 136
    000566  aa  141 136 141 136
    000567  aa  141 136 141 040
    000570  aa  040 040 040 040
    000571  aa  040 040 040 040

                                   131
                                   132  	format	(^/Error:  ^a^a ^a^a^/^a ^a^a^a^a^a)
    000572  aa   000000 000042          	zero	0,34		"length of varying string
    000573  aa  136 057 105 162         	aci	@^/Error:  ^a^a ^a^a^/^a ^a^a^a^a^a@,104		"declare char (104) var
    000574  aa  162 157 162 072
    000575  aa  040 040 136 141
    000576  aa  136 141 040 136
    000577  aa  141 136 141 136
    000600  aa  057 136 141 040
    000601  aa  136 141 136 141
    000602  aa  136 141 136 141
    000603  aa  136 141 040 040
    000604  aa  040 040 040 040
    000605  aa  040 040 040 040
    000606  aa  040 040 040 040
    000607  aa  040 040 040 040
    000610  aa  040 040 040 040
    000611  aa  040 040 040 040
    000612  aa  040 040 040 040
    000613  aa  040 040 040 040
    000614  aa  040 040 040 040
    000615  aa  040 040 040 040
    000616  aa  040 040 040 040
    000617  aa  040 040 040 040
    000620  aa  040 040 040 040
    000621  aa  040 040 040 040
    000622  aa  040 040 040 040
    000623  aa  040 040 040 040
    000624  aa  040 040 040 040

                                   133  	format	(^/Error while processing in ^a:^/^a^a ^a^/^a ^a^a^a^a^/Entry into lower ring was by^/^a^a^a^a)
    000625  aa   000000 000135          	zero	0,93		"length of varying string
    000626  aa  136 057 105 162         	aci	@^/Error while processing in ^a:^/^a^a ^a^/^a ^a^a^a^a^/Entry into lower ring was by^/^a^a^a^a@,104		"declare char (104) var
    000627  aa  162 157 162 040
    000630  aa  167 150 151 154
    000631  aa  145 040 160 162
    000632  aa  157 143 145 163
    000633  aa  163 151 156 147
    000634  aa  040 151 156 040
    000635  aa  136 141 072 136
    000636  aa  057 136 141 136
    000637  aa  141 040 136 141
    000640  aa  136 057 136 141
    000641  aa  040 136 141 136
    000642  aa  141 136 141 136
    000643  aa  141 136 057 105
    000644  aa  156 164 162 171
    000645  aa  040 151 156 164
    000646  aa  157 040 154 157
    000647  aa  167 145 162 040
    000650  aa  162 151 156 147
    000651  aa  040 167 141 163
    000652  aa  040 142 171 136
    000653  aa  057 136 141 136
    000654  aa  141 136 141 136
    000655  aa  141 040 040 040
    000656  aa  040 040 040 040
    000657  aa  040 040 040 040

                                   134
                                   135  	format	(^/Error:  ^a^a ^a^a^a^a^/^a^a^a^a)
    000660  aa   000000 000041          	zero	0,33		"length of varying string
    000661  aa  136 057 105 162         	aci	@^/Error:  ^a^a ^a^a^a^a^/^a^a^a^a@,104		"declare char (104) var
    000662  aa  162 157 162 072
    000663  aa  040 040 136 141
    000664  aa  136 141 040 136
    000665  aa  141 136 141 136
    000666  aa  141 136 141 136
    000667  aa  057 136 141 136
    000670  aa  141 136 141 136
    000671  aa  141 040 040 040
    000672  aa  040 040 040 040
    000673  aa  040 040 040 040
    000674  aa  040 040 040 040
    000675  aa  040 040 040 040
    000676  aa  040 040 040 040
    000677  aa  040 040 040 040
    000700  aa  040 040 040 040
    000701  aa  040 040 040 040
    000702  aa  040 040 040 040
    000703  aa  040 040 040 040
    000704  aa  040 040 040 040
    000705  aa  040 040 040 040
    000706  aa  040 040 040 040
    000707  aa  040 040 040 040
    000710  aa  040 040 040 040
    000711  aa  040 040 040 040
    000712  aa  040 040 040 040

                                   136  	format	(^/Error while processing in ^a:^/^a^a ^a^a^a^/^a^a^a^/Entry into lower ring was by^/^a^a^a^a)
    000713  aa   000000 000134          	zero	0,92		"length of varying string
    000714  aa  136 057 105 162         	aci	@^/Error while processing in ^a:^/^a^a ^a^a^a^/^a^a^a^/Entry into lower ring was by^/^a^a^a^a@,104		"declare char (104) var
    000715  aa  162 157 162 040
    000716  aa  167 150 151 154
    000717  aa  145 040 160 162
    000720  aa  157 143 145 163
    000721  aa  163 151 156 147
    000722  aa  040 151 156 040
    000723  aa  136 141 072 136
    000724  aa  057 136 141 136
    000725  aa  141 040 136 141
    000726  aa  136 141 136 141
    000727  aa  136 057 136 141
    000730  aa  136 141 136 141
    000731  aa  136 057 105 156
    000732  aa  164 162 171 040
    000733  aa  151 156 164 157
    000734  aa  040 154 157 167
    000735  aa  145 162 040 162
    000736  aa  151 156 147 040
    000737  aa  167 141 163 040
    000740  aa  142 171 136 057
    000741  aa  136 141 136 141
    000742  aa  136 141 136 141
    000743  aa  040 040 040 040
    000744  aa  040 040 040 040
    000745  aa  040 040 040 040

                                   137
                                   138  	format	(^/Error:  ^a^a by ^a^a^a^a^a^a^a^a)
    000746  aa   000000 000042          	zero	0,34		"length of varying string
    000747  aa  136 057 105 162         	aci	@^/Error:  ^a^a by ^a^a^a^a^a^a^a^a@,104		"declare char (104) var
    000750  aa  162 157 162 072
    000751  aa  040 040 136 141
    000752  aa  136 141 040 142
    000753  aa  171 040 136 141
    000754  aa  136 141 136 141
    000755  aa  136 141 136 141
    000756  aa  136 141 136 141
    000757  aa  136 141 040 040
    000760  aa  040 040 040 040
    000761  aa  040 040 040 040
    000762  aa  040 040 040 040
    000763  aa  040 040 040 040
    000764  aa  040 040 040 040
    000765  aa  040 040 040 040
    000766  aa  040 040 040 040
    000767  aa  040 040 040 040
    000770  aa  040 040 040 040
    000771  aa  040 040 040 040
    000772  aa  040 040 040 040
    000773  aa  040 040 040 040
    000774  aa  040 040 040 040
    000775  aa  040 040 040 040
    000776  aa  040 040 040 040
    000777  aa  040 040 040 040
    001000  aa  040 040 040 040

                                   139  	format	(^/Error while processing in ^a:^/^a^a by ^a^a^a^a^a^a^/Entry into lower ring was by^/^a^a^a^a)
    001001  aa   000000 000135          	zero	0,93		"length of varying string
    001002  aa  136 057 105 162         	aci	@^/Error while processing in ^a:^/^a^a by ^a^a^a^a^a^a^/Entry into lower ring was by^/^a^a^a^a@,104		"declare char (104) var
    001003  aa  162 157 162 040
    001004  aa  167 150 151 154
    001005  aa  145 040 160 162
    001006  aa  157 143 145 163
    001007  aa  163 151 156 147
    001010  aa  040 151 156 040
    001011  aa  136 141 072 136
    001012  aa  057 136 141 136
    001013  aa  141 040 142 171
    001014  aa  040 136 141 136
    001015  aa  141 136 141 136
    001016  aa  141 136 141 136
    001017  aa  141 136 057 105
    001020  aa  156 164 162 171
    001021  aa  040 151 156 164
    001022  aa  157 040 154 157
    001023  aa  167 145 162 040
    001024  aa  162 151 156 147
    001025  aa  040 167 141 163
    001026  aa  040 142 171 136
    001027  aa  057 136 141 136
    001030  aa  141 136 141 136
    001031  aa  141 040 040 040
    001032  aa  040 040 040 040
    001033  aa  040 040 040 040

                                   140
                                   141  	format	(^/Error:  ^a error^a by ^a^a^/^a^a^a^a^a^a)
    001034  aa   000000 000052          	zero	0,42		"length of varying string
    001035  aa  136 057 105 162         	aci	@^/Error:  ^a error^a by ^a^a^/^a^a^a^a^a^a@,104		"declare char (104) var
    001036  aa  162 157 162 072
    001037  aa  040 040 136 141
    001040  aa  040 145 162 162
    001041  aa  157 162 136 141
    001042  aa  040 142 171 040
    001043  aa  136 141 136 141
    001044  aa  136 057 136 141
    001045  aa  136 141 136 141
    001046  aa  136 141 136 141
    001047  aa  136 141 040 040
    001050  aa  040 040 040 040
    001051  aa  040 040 040 040
    001052  aa  040 040 040 040
    001053  aa  040 040 040 040
    001054  aa  040 040 040 040
    001055  aa  040 040 040 040
    001056  aa  040 040 040 040
    001057  aa  040 040 040 040
    001060  aa  040 040 040 040
    001061  aa  040 040 040 040
    001062  aa  040 040 040 040
    001063  aa  040 040 040 040
    001064  aa  040 040 040 040
    001065  aa  040 040 040 040
    001066  aa  040 040 040 040

                                   142  	format	(^/Error while processing in ^a:^/^a error^a by ^a^/^a^a^a^a^a^/Entry into lower ring was by^/^a^a^a^a)
    001067  aa   000000 000145          	zero	0,101		"length of varying string
    001070  aa  136 057 105 162         	aci	@^/Error while processing in ^a:^/^a error^a by ^a^/^a^a^a^a^a^/Entry into lower ring was by^/^a^a^a^a@,104		"declare char (104) var
    001071  aa  162 157 162 040
    001072  aa  167 150 151 154
    001073  aa  145 040 160 162
    001074  aa  157 143 145 163
    001075  aa  163 151 156 147
    001076  aa  040 151 156 040
    001077  aa  136 141 072 136
    001100  aa  057 136 141 040
    001101  aa  145 162 162 157
    001102  aa  162 136 141 040
    001103  aa  142 171 040 136
    001104  aa  141 136 057 136
    001105  aa  141 136 141 136
    001106  aa  141 136 141 136
    001107  aa  141 136 057 105
    001110  aa  156 164 162 171
    001111  aa  040 151 156 164
    001112  aa  157 040 154 157
    001113  aa  167 145 162 040
    001114  aa  162 151 156 147
    001115  aa  040 167 141 163
    001116  aa  040 142 171 136
    001117  aa  057 136 141 136
    001120  aa  141 136 141 136
    001121  aa  141 040 040 040

                                   143
                                   144  	format	(^/Error:  ^a^a by ^a^a^a^a^/^a^a^/^a^a)
    001122  aa   000000 000046          	zero	0,38		"length of varying string
    001123  aa  136 057 105 162         	aci	@^/Error:  ^a^a by ^a^a^a^a^/^a^a^/^a^a@,104		"declare char (104) var
    001124  aa  162 157 162 072
    001125  aa  040 040 136 141
    001126  aa  136 141 040 142
    001127  aa  171 040 136 141
    001130  aa  136 141 136 141
    001131  aa  136 141 136 057
    001132  aa  136 141 136 141
    001133  aa  136 057 136 141
    001134  aa  136 141 040 040
    001135  aa  040 040 040 040
    001136  aa  040 040 040 040
    001137  aa  040 040 040 040
    001140  aa  040 040 040 040
    001141  aa  040 040 040 040
    001142  aa  040 040 040 040
    001143  aa  040 040 040 040
    001144  aa  040 040 040 040
    001145  aa  040 040 040 040
    001146  aa  040 040 040 040
    001147  aa  040 040 040 040
    001150  aa  040 040 040 040
    001151  aa  040 040 040 040
    001152  aa  040 040 040 040
    001153  aa  040 040 040 040
    001154  aa  040 040 040 040

                                   145  	format	(^/Error while processing in ^a:^/^a^a ^a^a^a^/^a^a^/^a^/Entry into lower ring was by^/^a^a^a^a)
    001155  aa   000000 000136          	zero	0,94		"length of varying string
    001156  aa  136 057 105 162         	aci	@^/Error while processing in ^a:^/^a^a ^a^a^a^/^a^a^/^a^/Entry into lower ring was by^/^a^a^a^a@,104		"declare char (104) var
    001157  aa  162 157 162 040
    001160  aa  167 150 151 154
    001161  aa  145 040 160 162
    001162  aa  157 143 145 163
    001163  aa  163 151 156 147
    001164  aa  040 151 156 040
    001165  aa  136 141 072 136
    001166  aa  057 136 141 136
    001167  aa  141 040 136 141
    001170  aa  136 141 136 141
    001171  aa  136 057 136 141
    001172  aa  136 141 136 057
    001173  aa  136 141 136 057
    001174  aa  105 156 164 162
    001175  aa  171 040 151 156
    001176  aa  164 157 040 154
    001177  aa  157 167 145 162
    001200  aa  040 162 151 156
    001201  aa  147 040 167 141
    001202  aa  163 040 142 171
    001203  aa  136 057 136 141
    001204  aa  136 141 136 141
    001205  aa  136 141 040 040
    001206  aa  040 040 040 040
    001207  aa  040 040 040 040

                                   146
                                   147  	format	(^/Error:  ^a^a ^a^a^/^a ^a^/^a^a^/^a^a)
    001210  aa   000000 000046          	zero	0,38		"length of varying string
    001211  aa  136 057 105 162         	aci	@^/Error:  ^a^a ^a^a^/^a ^a^/^a^a^/^a^a@,104		"declare char (104) var
    001212  aa  162 157 162 072
    001213  aa  040 040 136 141
    001214  aa  136 141 040 136
    001215  aa  141 136 141 136
    001216  aa  057 136 141 040
    001217  aa  136 141 136 057
    001220  aa  136 141 136 141
    001221  aa  136 057 136 141
    001222  aa  136 141 040 040
    001223  aa  040 040 040 040
    001224  aa  040 040 040 040
    001225  aa  040 040 040 040
    001226  aa  040 040 040 040
    001227  aa  040 040 040 040
    001230  aa  040 040 040 040
    001231  aa  040 040 040 040
    001232  aa  040 040 040 040
    001233  aa  040 040 040 040
    001234  aa  040 040 040 040
    001235  aa  040 040 040 040
    001236  aa  040 040 040 040
    001237  aa  040 040 040 040
    001240  aa  040 040 040 040
    001241  aa  040 040 040 040
    001242  aa  040 040 040 040

                                   148  	format	(^/Error while processing in ^a:^/^a^a ^a^/^a ^a^/^a^a^/^a^/Entry into lower ring was by^/^a^a^a^a)
    001243  aa   000000 000141          	zero	0,97		"length of varying string
    001244  aa  136 057 105 162         	aci	@^/Error while processing in ^a:^/^a^a ^a^/^a ^a^/^a^a^/^a^/Entry into lower ring was by^/^a^a^a^a@,104		"declare char (104) var
    001245  aa  162 157 162 040
    001246  aa  167 150 151 154
    001247  aa  145 040 160 162
    001250  aa  157 143 145 163
    001251  aa  163 151 156 147
    001252  aa  040 151 156 040
    001253  aa  136 141 072 136
    001254  aa  057 136 141 136
    001255  aa  141 040 136 141
    001256  aa  136 057 136 141
    001257  aa  040 136 141 136
    001260  aa  057 136 141 136
    001261  aa  141 136 057 136
    001262  aa  141 136 057 105
    001263  aa  156 164 162 171
    001264  aa  040 151 156 164
    001265  aa  157 040 154 157
    001266  aa  167 145 162 040
    001267  aa  162 151 156 147
    001270  aa  040 167 141 163
    001271  aa  040 142 171 136
    001272  aa  057 136 141 136
    001273  aa  141 136 141 136
    001274  aa  141 040 040 040
    001275  aa  040 040 040 040

                                   149
                                   150
                                   151  	mte	command_abort_,mte.no_tpr,mte.no_special,3,command_abort_,,
                                   152  		(Program has stopped voluntarily.)

                        001276          	segdef	command_abort_
    001276                              command_abort_:
    001276  aa   040000 400000          	zero	mte.no_tpr,mte.no_special		"control bits
    001277  aa   000000 000003          	zero	0,3		"format index


                                        	use	data
    002062  aa   000000 000016          .._00001:	zero	0,14
    002063  aa  143 157 155 155         	aci	@command_abort_@
    002064  aa  141 156 144 137
    002065  aa  141 142 157 162
    002066  aa  164 137 000 000
                                        	use	text
    001300  0a   002062 000000          	zero	.._00001,0

    001301  0a   002061 000000          	zero	nullp,0

                                        	use	data
    002067  aa   000000 000040          .._00003:	zero	0,32
    002070  aa  120 162 157 147         	aci	@Program has stopped voluntarily.@
    002071  aa  162 141 155 040
    002072  aa  150 141 163 040
    002073  aa  163 164 157 160
    002074  aa  160 145 144 040
    002075  aa  166 157 154 165
    002076  aa  156 164 141 162
    002077  aa  151 154 171 056
                                        	use	text
    001302  0a   002067 000000          	zero	.._00003,0

    001303  0a   002061 000000          	zero	nullp,0

    001304  0a   002061 000000          	zero	nullp,0		"no, point to null string

                                   153
                                   154  	mte	command_query_error,mte.query_error,mte.no_special,23,command_query_error,,
                                   155  		(A preset answer returned by the condition handler for command_question),
                                   156  		(was neither "yes" nor "no" as required by the caller of command_query_.)

                        001305          	segdef	command_query_error
    001305                              command_query_error:
    001305  aa   200000 400000          	zero	mte.query_error,mte.no_special		"control bits
    001306  aa   000000 000027          	zero	0,23		"format index


                                        	use	data
    002100  aa   000000 000023          .._00006:	zero	0,19
    002101  aa  143 157 155 155         	aci	@command_query_error@
    002102  aa  141 156 144 137
    002103  aa  161 165 145 162
    002104  aa  171 137 145 162
    002105  aa  162 157 162 000
                                        	use	text
    001307  0a   002100 000000          	zero	.._00006,0

    001310  0a   002061 000000          	zero	nullp,0

                                        	use	data
    002106  aa   000000 000106          .._00010:	zero	0,70
    002107  aa  101 040 160 162         	aci	@A preset answer returned by the condition handler for command_question@
    002110  aa  145 163 145 164
    002111  aa  040 141 156 163
    002112  aa  167 145 162 040
    002113  aa  162 145 164 165
    002114  aa  162 156 145 144
    002115  aa  040 142 171 040
    002116  aa  164 150 145 040
    002117  aa  143 157 156 144
    002120  aa  151 164 151 157
    002121  aa  156 040 150 141
    002122  aa  156 144 154 145
    002123  aa  162 040 146 157
    002124  aa  162 040 143 157
    002125  aa  155 155 141 156
    002126  aa  144 137 161 165
    002127  aa  145 163 164 151
    002130  aa  157 156 000 000
                                        	use	text
    001311  0a   002106 000000          	zero	.._00010,0

                                        	use	data
    002131  aa   000000 000107          .._00011:	zero	0,71
    002132  aa  167 141 163 040         	aci	@was neither "yes" nor "no" as required by the caller of command_query_.@
    002133  aa  156 145 151 164
    002134  aa  150 145 162 040
    002135  aa  042 171 145 163
    002136  aa  042 040 156 157
    002137  aa  162 040 042 156
    002140  aa  157 042 040 141
    002141  aa  163 040 162 145
    002142  aa  161 165 151 162
    002143  aa  145 144 040 142
    002144  aa  171 040 164 150
    002145  aa  145 040 143 141
    002146  aa  154 154 145 162
    002147  aa  040 157 146 040
    002150  aa  143 157 155 155
    002151  aa  141 156 144 137
    002152  aa  161 165 145 162
    002153  aa  171 137 056 000
                                        	use	text
    001312  0a   002131 000000          	zero	.._00011,0

    001313  0a   002061 000000          	zero	nullp,0		"no, point to null string

                                   157
                                   158  	mte	active_function_error,mte.active_func,mte.no_special

                        001314          	segdef	active_function_error
    001314                              active_function_error:
    001314  aa   100000 400000          	zero	mte.active_func,mte.no_special		"control bits
    001315  aa   000000 000000          	zero	0,		"format index


    001316  0a   002061 000000          	zero	nullp,0

    001317  0a   002061 000000          	zero	nullp,0

    001320  0a   002061 000000          	zero	nullp,0

    001321  0a   002061 000000          	zero	nullp,0

    001322  0a   002061 000000          	zero	nullp,0		"no, point to null string

                                   159
                                   160  	mte	sub_error_,mte.no_tpr,mte.sub_err,21

                        001323          	segdef	sub_error_
    001323                              sub_error_:
    001323  aa   040000 200000          	zero	mte.no_tpr,mte.sub_err		"control bits
    001324  aa   000000 000025          	zero	0,21		"format index


    001325  0a   002061 000000          	zero	nullp,0

    001326  0a   002061 000000          	zero	nullp,0

    001327  0a   002061 000000          	zero	nullp,0

    001330  0a   002061 000000          	zero	nullp,0

    001331  0a   002061 000000          	zero	nullp,0		"no, point to null string

                                   161
                                   162  	mte	error,mte.no_tpr,mte.no_special,19,(error condition)

                        001332          	segdef	error
    001332                              error:
    001332  aa   040000 400000          	zero	mte.no_tpr,mte.no_special		"control bits
    001333  aa   000000 000023          	zero	0,19		"format index


                                        	use	data
    002154  aa   000000 000017          .._00025:	zero	0,15
    002155  aa  145 162 162 157         	aci	@error condition@
    002156  aa  162 040 143 157
    002157  aa  156 144 151 164
    002160  aa  151 157 156 000
                                        	use	text
    001334  0a   002154 000000          	zero	.._00025,0

    001335  0a   002061 000000          	zero	nullp,0

    001336  0a   002061 000000          	zero	nullp,0

    001337  0a   002061 000000          	zero	nullp,0

    001340  0a   002061 000000          	zero	nullp,0		"no, point to null string

                                   163
                                   164  	mte	area,mte.no_tpr,mte.sig_error,23,(area condition),,
                                   165  		(Either a variable could not be allocated in an area),
                                   166  		(or an area could not be assigned to an existing area.)

                        001341          	segdef	area
    001341                              area:
    001341  aa   040000 100000          	zero	mte.no_tpr,mte.sig_error		"control bits
    001342  aa   000000 000027          	zero	0,23		"format index


                                        	use	data
    002161  aa   000000 000016          .._00032:	zero	0,14
    002162  aa  141 162 145 141         	aci	@area condition@
    002163  aa  040 143 157 156
    002164  aa  144 151 164 151
    002165  aa  157 156 000 000
                                        	use	text
    001343  0a   002161 000000          	zero	.._00032,0

    001344  0a   002061 000000          	zero	nullp,0

                                        	use	data
    002166  aa   000000 000063          .._00034:	zero	0,51
    002167  aa  105 151 164 150         	aci	@Either a variable could not be allocated in an area@
    002170  aa  145 162 040 141
    002171  aa  040 166 141 162
    002172  aa  151 141 142 154
    002173  aa  145 040 143 157
    002174  aa  165 154 144 040
    002175  aa  156 157 164 040
    002176  aa  142 145 040 141
    002177  aa  154 154 157 143
    002200  aa  141 164 145 144
    002201  aa  040 151 156 040
    002202  aa  141 156 040 141
    002203  aa  162 145 141 000
                                        	use	text
    001345  0a   002166 000000          	zero	.._00034,0

                                        	use	data
    002204  aa   000000 000065          .._00035:	zero	0,53
    002205  aa  157 162 040 141         	aci	@or an area could not be assigned to an existing area.@
    002206  aa  156 040 141 162
    002207  aa  145 141 040 143
    002210  aa  157 165 154 144
    002211  aa  040 156 157 164
    002212  aa  040 142 145 040
    002213  aa  141 163 163 151
    002214  aa  147 156 145 144
    002215  aa  040 164 157 040
    002216  aa  141 156 040 145
    002217  aa  170 151 163 164
    002220  aa  151 156 147 040
    002221  aa  141 162 145 141
    002222  aa  056 000 000 000
                                        	use	text
    001346  0a   002204 000000          	zero	.._00035,0

    001347  0a   002061 000000          	zero	nullp,0		"no, point to null string

                                   167
                                   168  	mte	storage,mte.ignore,mte.storage+mte.sig_error,3,(storage condition)

                        001350          	segdef	storage
    001350                              storage:
    001350  aa   000400 140000          	zero	mte.ignore,mte.storage+mte.sig_error		"control bits
    001351  aa   000000 000003          	zero	0,3		"format index


                                        	use	data
    002223  aa   000000 000021          .._00037:	zero	0,17
    002224  aa  163 164 157 162         	aci	@storage condition@
    002225  aa  141 147 145 040
    002226  aa  143 157 156 144
    002227  aa  151 164 151 157
    002230  aa  156 000 000 000
                                        	use	text
    001352  0a   002223 000000          	zero	.._00037,0

    001353  0a   002061 000000          	zero	nullp,0

    001354  0a   002061 000000          	zero	nullp,0

    001355  0a   002061 000000          	zero	nullp,0

    001356  0a   002061 000000          	zero	nullp,0		"no, point to null string

                                   169
                                   170  	mte	endfile,mte.no_tpr,mte.sig_error,19,(endfile condition)

                        001357          	segdef	endfile
    001357                              endfile:
    001357  aa   040000 100000          	zero	mte.no_tpr,mte.sig_error		"control bits
    001360  aa   000000 000023          	zero	0,19		"format index


                                        	use	data
    002231  aa   000000 000021          .._00044:	zero	0,17
    002232  aa  145 156 144 146         	aci	@endfile condition@
    002233  aa  151 154 145 040
    002234  aa  143 157 156 144
    002235  aa  151 164 151 157
    002236  aa  156 000 000 000
                                        	use	text
    001361  0a   002231 000000          	zero	.._00044,0

    001362  0a   002061 000000          	zero	nullp,0

    001363  0a   002061 000000          	zero	nullp,0

    001364  0a   002061 000000          	zero	nullp,0

    001365  0a   002061 000000          	zero	nullp,0		"no, point to null string

                                   171
                                   172  	mte	undefinedfile,mte.no_tpr,mte.sig_error,19,(undefinedfile condition)

                        001366          	segdef	undefinedfile
    001366                              undefinedfile:
    001366  aa   040000 100000          	zero	mte.no_tpr,mte.sig_error		"control bits
    001367  aa   000000 000023          	zero	0,19		"format index


                                        	use	data
    002237  aa   000000 000027          .._00051:	zero	0,23
    002240  aa  165 156 144 145         	aci	@undefinedfile condition@
    002241  aa  146 151 156 145
    002242  aa  144 146 151 154
    002243  aa  145 040 143 157
    002244  aa  156 144 151 164
    002245  aa  151 157 156 000
                                        	use	text
    001370  0a   002237 000000          	zero	.._00051,0

    001371  0a   002061 000000          	zero	nullp,0

    001372  0a   002061 000000          	zero	nullp,0

    001373  0a   002061 000000          	zero	nullp,0

    001374  0a   002061 000000          	zero	nullp,0		"no, point to null string

                                   173
                                   174  	mte	size,mte.no_tpr,mte.sig_error,13,(size condition),,
                                   175  		(Precision of target insufficient for number of integral digits assigned to it.)

                        001375          	segdef	size
    001375                              size:
    001375  aa   040000 100000          	zero	mte.no_tpr,mte.sig_error		"control bits
    001376  aa   000000 000015          	zero	0,13		"format index


                                        	use	data
    002246  aa   000000 000016          .._00056:	zero	0,14
    002247  aa  163 151 172 145         	aci	@size condition@
    002250  aa  040 143 157 156
    002251  aa  144 151 164 151
    002252  aa  157 156 000 000
                                        	use	text
    001377  0a   002246 000000          	zero	.._00056,0

    001400  0a   002061 000000          	zero	nullp,0

                                        	use	data
    002253  aa   000000 000116          .._00060:	zero	0,78
    002254  aa  120 162 145 143         	aci	@Precision of target insufficient for number of integral digits assigned to it.@
    002255  aa  151 163 151 157
    002256  aa  156 040 157 146
    002257  aa  040 164 141 162
    002260  aa  147 145 164 040
    002261  aa  151 156 163 165
    002262  aa  146 146 151 143
    002263  aa  151 145 156 164
    002264  aa  040 146 157 162
    002265  aa  040 156 165 155
    002266  aa  142 145 162 040
    002267  aa  157 146 040 151
    002270  aa  156 164 145 147
    002271  aa  162 141 154 040
    002272  aa  144 151 147 151
    002273  aa  164 163 040 141
    002274  aa  163 163 151 147
    002275  aa  156 145 144 040
    002276  aa  164 157 040 151
    002277  aa  164 056 000 000
                                        	use	text
    001401  0a   002253 000000          	zero	.._00060,0

    001402  0a   002061 000000          	zero	nullp,0

    001403  0a   002061 000000          	zero	nullp,0		"no, point to null string

                                   176
                                   177  	mte	conversion,mte.no_tpr,mte.sig_error,19,(conversion condition)

                        001404          	segdef	conversion
    001404                              conversion:
    001404  aa   040000 100000          	zero	mte.no_tpr,mte.sig_error		"control bits
    001405  aa   000000 000023          	zero	0,19		"format index


                                        	use	data
    002300  aa   000000 000024          .._00063:	zero	0,20
    002301  aa  143 157 156 166         	aci	@conversion condition@
    002302  aa  145 162 163 151
    002303  aa  157 156 040 143
    002304  aa  157 156 144 151
    002305  aa  164 151 157 156
                                        	use	text
    001406  0a   002300 000000          	zero	.._00063,0

    001407  0a   002061 000000          	zero	nullp,0

    001410  0a   002061 000000          	zero	nullp,0

    001411  0a   002061 000000          	zero	nullp,0

    001412  0a   002061 000000          	zero	nullp,0		"no, point to null string

                                   178
                                   179  	mte	endpage,mte.no_tpr,mte.endpage,19,(endpage condition)

                        001413          	segdef	endpage
    001413                              endpage:
    001413  aa   040000 020000          	zero	mte.no_tpr,mte.endpage		"control bits
    001414  aa   000000 000023          	zero	0,19		"format index


                                        	use	data
    002306  aa   000000 000021          .._00070:	zero	0,17
    002307  aa  145 156 144 160         	aci	@endpage condition@
    002310  aa  141 147 145 040
    002311  aa  143 157 156 144
    002312  aa  151 164 151 157
    002313  aa  156 000 000 000
                                        	use	text
    001415  0a   002306 000000          	zero	.._00070,0

    001416  0a   002061 000000          	zero	nullp,0

    001417  0a   002061 000000          	zero	nullp,0

    001420  0a   002061 000000          	zero	nullp,0

    001421  0a   002061 000000          	zero	nullp,0		"no, point to null string

                                   180
                                   181  	mte	key,mte.no_tpr,mte.sig_error,19,(key condition)

                        001422          	segdef	key
    001422                              key:
    001422  aa   040000 100000          	zero	mte.no_tpr,mte.sig_error		"control bits
    001423  aa   000000 000023          	zero	0,19		"format index


                                        	use	data
    002314  aa   000000 000015          .._00075:	zero	0,13
    002315  aa  153 145 171 040         	aci	@key condition@
    002316  aa  143 157 156 144
    002317  aa  151 164 151 157
    002320  aa  156 000 000 000
                                        	use	text
    001424  0a   002314 000000          	zero	.._00075,0

    001425  0a   002061 000000          	zero	nullp,0

    001426  0a   002061 000000          	zero	nullp,0

    001427  0a   002061 000000          	zero	nullp,0

    001430  0a   002061 000000          	zero	nullp,0		"no, point to null string

                                   182
                                   183  	mte	record,mte.no_tpr,mte.sig_error,19,(record condition)

                        001431          	segdef	record
    001431                              record:
    001431  aa   040000 100000          	zero	mte.no_tpr,mte.sig_error		"control bits
    001432  aa   000000 000023          	zero	0,19		"format index


                                        	use	data
    002321  aa   000000 000020          .._00102:	zero	0,16
    002322  aa  162 145 143 157         	aci	@record condition@
    002323  aa  162 144 040 143
    002324  aa  157 156 144 151
    002325  aa  164 151 157 156
                                        	use	text
    001433  0a   002321 000000          	zero	.._00102,0

    001434  0a   002061 000000          	zero	nullp,0

    001435  0a   002061 000000          	zero	nullp,0

    001436  0a   002061 000000          	zero	nullp,0

    001437  0a   002061 000000          	zero	nullp,0		"no, point to null string

                                   184
                                   185  	mte	transmit,mte.no_tpr,mte.sig_error,13,(transmit condition),,
                                   186  		(Data could not be reliably transmitted between file and some values in an I/O statement.)

                        001440          	segdef	transmit
    001440                              transmit:
    001440  aa   040000 100000          	zero	mte.no_tpr,mte.sig_error		"control bits
    001441  aa   000000 000015          	zero	0,13		"format index


                                        	use	data
    002326  aa   000000 000022          .._00107:	zero	0,18
    002327  aa  164 162 141 156         	aci	@transmit condition@
    002330  aa  163 155 151 164
    002331  aa  040 143 157 156
    002332  aa  144 151 164 151
    002333  aa  157 156 000 000
                                        	use	text
    001442  0a   002326 000000          	zero	.._00107,0

    001443  0a   002061 000000          	zero	nullp,0

                                        	use	data
    002334  aa   000000 000130          .._00111:	zero	0,88
    002335  aa  104 141 164 141         	aci	@Data could not be reliably transmitted between file and some values in an I/O statement.@
    002336  aa  040 143 157 165
    002337  aa  154 144 040 156
    002340  aa  157 164 040 142
    002341  aa  145 040 162 145
    002342  aa  154 151 141 142
    002343  aa  154 171 040 164
    002344  aa  162 141 156 163
    002345  aa  155 151 164 164
    002346  aa  145 144 040 142
    002347  aa  145 164 167 145
    002350  aa  145 156 040 146
    002351  aa  151 154 145 040
    002352  aa  141 156 144 040
    002353  aa  163 157 155 145
    002354  aa  040 166 141 154
    002355  aa  165 145 163 040
    002356  aa  151 156 040 141
    002357  aa  156 040 111 057
    002360  aa  117 040 163 164
    002361  aa  141 164 145 155
    002362  aa  145 156 164 056
                                        	use	text
    001444  0a   002334 000000          	zero	.._00111,0

    001445  0a   002061 000000          	zero	nullp,0

    001446  0a   002061 000000          	zero	nullp,0		"no, point to null string

                                   187
                                   188  	mte	stringrange,mte.no_tpr,mte.sig_error,3,(stringrange condition),,
                                   189  		(The given string does not completely contain the selected substring.)

                        001447          	segdef	stringrange
    001447                              stringrange:
    001447  aa   040000 100000          	zero	mte.no_tpr,mte.sig_error		"control bits
    001450  aa   000000 000003          	zero	0,3		"format index


                                        	use	data
    002363  aa   000000 000025          .._00114:	zero	0,21
    002364  aa  163 164 162 151         	aci	@stringrange condition@
    002365  aa  156 147 162 141
    002366  aa  156 147 145 040
    002367  aa  143 157 156 144
    002370  aa  151 164 151 157
    002371  aa  156 000 000 000
                                        	use	text
    001451  0a   002363 000000          	zero	.._00114,0

    001452  0a   002061 000000          	zero	nullp,0

                                        	use	data
    002372  aa   000000 000104          .._00116:	zero	0,68
    002373  aa  124 150 145 040         	aci	@The given string does not completely contain the selected substring.@
    002374  aa  147 151 166 145
    002375  aa  156 040 163 164
    002376  aa  162 151 156 147
    002377  aa  040 144 157 145
    002400  aa  163 040 156 157
    002401  aa  164 040 143 157
    002402  aa  155 160 154 145
    002403  aa  164 145 154 171
    002404  aa  040 143 157 156
    002405  aa  164 141 151 156
    002406  aa  040 164 150 145
    002407  aa  040 163 145 154
    002410  aa  145 143 164 145
    002411  aa  144 040 163 165
    002412  aa  142 163 164 162
    002413  aa  151 156 147 056
                                        	use	text
    001453  0a   002372 000000          	zero	.._00116,0

    001454  0a   002061 000000          	zero	nullp,0

    001455  0a   002061 000000          	zero	nullp,0		"no, point to null string

                                   190
                                   191  	mte	subscriptrange,mte.no_tpr,mte.sig_error,3,(subscriptrange condition),,
                                   192  		(A subscript value has exceeded array bounds.)

                        001456          	segdef	subscriptrange
    001456                              subscriptrange:
    001456  aa   040000 100000          	zero	mte.no_tpr,mte.sig_error		"control bits
    001457  aa   000000 000003          	zero	0,3		"format index


                                        	use	data
    002414  aa   000000 000030          .._00121:	zero	0,24
    002415  aa  163 165 142 163         	aci	@subscriptrange condition@
    002416  aa  143 162 151 160
    002417  aa  164 162 141 156
    002420  aa  147 145 040 143
    002421  aa  157 156 144 151
    002422  aa  164 151 157 156
                                        	use	text
    001460  0a   002414 000000          	zero	.._00121,0

    001461  0a   002061 000000          	zero	nullp,0

                                        	use	data
    002423  aa   000000 000054          .._00123:	zero	0,44
    002424  aa  101 040 163 165         	aci	@A subscript value has exceeded array bounds.@
    002425  aa  142 163 143 162
    002426  aa  151 160 164 040
    002427  aa  166 141 154 165
    002430  aa  145 040 150 141
    002431  aa  163 040 145 170
    002432  aa  143 145 145 144
    002433  aa  145 144 040 141
    002434  aa  162 162 141 171
    002435  aa  040 142 157 165
    002436  aa  156 144 163 056
                                        	use	text
    001462  0a   002423 000000          	zero	.._00123,0

    001463  0a   002061 000000          	zero	nullp,0

    001464  0a   002061 000000          	zero	nullp,0		"no, point to null string

                                   193
                                   194  	mte	linkage_error,mte.with_tpr,mte.linkerr,11,(Linkage error by),referencing

                        001465          	segdef	linkage_error
    001465                              linkage_error:
    001465  aa   020000 010000          	zero	mte.with_tpr,mte.linkerr		"control bits
    001466  aa   000000 000013          	zero	0,11		"format index


                                        	use	data
    002437  aa   000000 000020          .._00126:	zero	0,16
    002440  aa  114 151 156 153         	aci	@Linkage error by@
    002441  aa  141 147 145 040
    002442  aa  145 162 162 157
    002443  aa  162 040 142 171
                                        	use	text
    001467  0a   002437 000000          	zero	.._00126,0

                                        	use	data
    002444  aa   000000 000013          .._00127:	zero	0,11
    002445  aa  162 145 146 145         	aci	@referencing@
    002446  aa  162 145 156 143
    002447  aa  151 156 147 000
                                        	use	text
    001470  0a   002444 000000          	zero	.._00127,0

    001471  0a   002061 000000          	zero	nullp,0

    001472  0a   002061 000000          	zero	nullp,0

    001473  0a   002061 000000          	zero	nullp,0		"no, point to null string

                                   195
                                   196  	mte	io_error,mte.io_err,mte.no_special,3,io_error

                        001474          	segdef	io_error
    001474                              io_error:
    001474  aa   010000 400000          	zero	mte.io_err,mte.no_special		"control bits
    001475  aa   000000 000003          	zero	0,3		"format index


                                        	use	data
    002450  aa   000000 000010          .._00133:	zero	0,8
    002451  aa  151 157 137 145         	aci	@io_error@
    002452  aa  162 162 157 162
                                        	use	text
    001476  0a   002450 000000          	zero	.._00133,0

    001477  0a   002061 000000          	zero	nullp,0

    001500  0a   002061 000000          	zero	nullp,0

    001501  0a   002061 000000          	zero	nullp,0

    001502  0a   002061 000000          	zero	nullp,0		"no, point to null string

                                   197
                                   198  	mte	illegal_procedure,mte.undefined

                        001503          	segdef	illegal_procedure
    001503                              illegal_procedure:
    001503  aa   004000 000000          	zero	mte.undefined,		"control bits
    001504  aa   000000 000000          	zero	0,		"format index


    001505  0a   002061 000000          	zero	nullp,0

    001506  0a   002061 000000          	zero	nullp,0

    001507  0a   002061 000000          	zero	nullp,0

    001510  0a   002061 000000          	zero	nullp,0

    001511  0a   002061 000000          	zero	nullp,0		"no, point to null string

                                   199
                                   200  	mte	privileged_info,mte.no_tpr,mte.cur_inst,17,(Attempt to execute privileged instruction by)

                        001512          	segdef	privileged_info
    001512                              privileged_info:
    001512  aa   040000 004000          	zero	mte.no_tpr,mte.cur_inst		"control bits
    001513  aa   000000 000021          	zero	0,17		"format index


                                        	use	data
    002453  aa   000000 000054          .._00145:	zero	0,44
    002454  aa  101 164 164 145         	aci	@Attempt to execute privileged instruction by@
    002455  aa  155 160 164 040
    002456  aa  164 157 040 145
    002457  aa  170 145 143 165
    002460  aa  164 145 040 160
    002461  aa  162 151 166 151
    002462  aa  154 145 147 145
    002463  aa  144 040 151 156
    002464  aa  163 164 162 165
    002465  aa  143 164 151 157
    002466  aa  156 040 142 171
                                        	use	text
    001514  0a   002453 000000          	zero	.._00145,0

    001515  0a   002061 000000          	zero	nullp,0

    001516  0a   002061 000000          	zero	nullp,0

    001517  0a   002061 000000          	zero	nullp,0

    001520  0a   002061 000000          	zero	nullp,0		"no, point to null string

                                   201
                                   202  	mte	unwinder_error,mte.unwind_err,mte.no_special,3,unwinder_error

                        001521          	segdef	unwinder_error
    001521                              unwinder_error:
    001521  aa   002000 400000          	zero	mte.unwind_err,mte.no_special		"control bits
    001522  aa   000000 000003          	zero	0,3		"format index


                                        	use	data
    002467  aa   000000 000016          .._00152:	zero	0,14
    002470  aa  165 156 167 151         	aci	@unwinder_error@
    002471  aa  156 144 145 162
    002472  aa  137 145 162 162
    002473  aa  157 162 000 000
                                        	use	text
    001523  0a   002467 000000          	zero	.._00152,0

    001524  0a   002061 000000          	zero	nullp,0

    001525  0a   002061 000000          	zero	nullp,0

    001526  0a   002061 000000          	zero	nullp,0

    001527  0a   002061 000000          	zero	nullp,0		"no, point to null string

                                   203
                                   204  	mte	hard_default_info,mte.with_tpr,mte.no_special,5,(condition by),referencing

                        001530          	segdef	hard_default_info
    001530                              hard_default_info:
    001530  aa   020000 400000          	zero	mte.with_tpr,mte.no_special		"control bits
    001531  aa   000000 000005          	zero	0,5		"format index


                                        	use	data
    002474  aa   000000 000014          .._00157:	zero	0,12
    002475  aa  143 157 156 144         	aci	@condition by@
    002476  aa  151 164 151 157
    002477  aa  156 040 142 171
                                        	use	text
    001532  0a   002474 000000          	zero	.._00157,0

                                        	use	data
    002500  aa   000000 000013          .._00160:	zero	0,11
    002501  aa  162 145 146 145         	aci	@referencing@
    002502  aa  162 145 156 143
    002503  aa  151 156 147 000
                                        	use	text
    001533  0a   002500 000000          	zero	.._00160,0

    001534  0a   002061 000000          	zero	nullp,0

    001535  0a   002061 000000          	zero	nullp,0

    001536  0a   002061 000000          	zero	nullp,0		"no, point to null string

                                   205
                                   206  	mte	null_pointer,mte.no_tpr,mte.no_special,17,(Attempt by),,(to reference through null pointer)

                        001537          	segdef	null_pointer
    001537                              null_pointer:
    001537  aa   040000 400000          	zero	mte.no_tpr,mte.no_special		"control bits
    001540  aa   000000 000021          	zero	0,17		"format index


                                        	use	data
    002504  aa   000000 000012          .._00164:	zero	0,10
    002505  aa  101 164 164 145         	aci	@Attempt by@
    002506  aa  155 160 164 040
    002507  aa  142 171 000 000
                                        	use	text
    001541  0a   002504 000000          	zero	.._00164,0

    001542  0a   002061 000000          	zero	nullp,0

                                        	use	data
    002510  aa   000000 000041          .._00166:	zero	0,33
    002511  aa  164 157 040 162         	aci	@to reference through null pointer@
    002512  aa  145 146 145 162
    002513  aa  145 156 143 145
    002514  aa  040 164 150 162
    002515  aa  157 165 147 150
    002516  aa  040 156 165 154
    002517  aa  154 040 160 157
    002520  aa  151 156 164 145
    002521  aa  162 000 000 000
                                        	use	text
    001543  0a   002510 000000          	zero	.._00166,0

    001544  0a   002061 000000          	zero	nullp,0

    001545  0a   002061 000000          	zero	nullp,0		"no, point to null string

                                   207
                                   208  	mte	fixedoverflow,mte.no_tpr,mte.sig_error,9,(Fixed point overflow by),,,,id

                        001546          	segdef	fixedoverflow
    001546                              fixedoverflow:
    001546  aa   040000 100000          	zero	mte.no_tpr,mte.sig_error		"control bits
    001547  aa   000000 000011          	zero	0,9		"format index


                                        	use	data
    002522  aa   000000 000027          .._00171:	zero	0,23
    002523  aa  106 151 170 145         	aci	@Fixed point overflow by@
    002524  aa  144 040 160 157
    002525  aa  151 156 164 040
    002526  aa  157 166 145 162
    002527  aa  146 154 157 167
    002530  aa  040 142 171 000
                                        	use	text
    001550  0a   002522 000000          	zero	.._00171,0

    001551  0a   002061 000000          	zero	nullp,0

    001552  0a   002061 000000          	zero	nullp,0

    001553  0a   002061 000000          	zero	nullp,0

                                        	use	data
    002531  aa   000000 000033          .._00170:	zero	0,14+13
    002532  aa  040 040 050 146         	aci	@  (fixedoverflow condition)@
    002533  aa  151 170 145 144
    002534  aa  157 166 145 162
    002535  aa  146 154 157 167
    002536  aa  040 143 157 156
    002537  aa  144 151 164 151
    002540  aa  157 156 051 000
                                        	use	text
    001554  0a   002531 000000          	zero	.._00170,0

                                   209
                                   210  	mte	overflow,mte.no_tpr,mte.sig_error,9,(Exponent overflow by),,,,id

                        001555          	segdef	overflow
    001555                              overflow:
    001555  aa   040000 100000          	zero	mte.no_tpr,mte.sig_error		"control bits
    001556  aa   000000 000011          	zero	0,9		"format index


                                        	use	data
    002541  aa   000000 000024          .._00176:	zero	0,20
    002542  aa  105 170 160 157         	aci	@Exponent overflow by@
    002543  aa  156 145 156 164
    002544  aa  040 157 166 145
    002545  aa  162 146 154 157
    002546  aa  167 040 142 171
                                        	use	text
    001557  0a   002541 000000          	zero	.._00176,0

    001560  0a   002061 000000          	zero	nullp,0

    001561  0a   002061 000000          	zero	nullp,0

    001562  0a   002061 000000          	zero	nullp,0

                                        	use	data
    002547  aa   000000 000026          .._00175:	zero	0,14+8
    002550  aa  040 040 050 157         	aci	@  (overflow condition)@
    002551  aa  166 145 162 146
    002552  aa  154 157 167 040
    002553  aa  143 157 156 144
    002554  aa  151 164 151 157
    002555  aa  156 051 000 000
                                        	use	text
    001563  0a   002547 000000          	zero	.._00175,0

                                   211
                                   212  	mte	underflow,mte.no_tpr,mte.sig_error,9,(Exponent underflow by),,,,id

                        001564          	segdef	underflow
    001564                              underflow:
    001564  aa   040000 100000          	zero	mte.no_tpr,mte.sig_error		"control bits
    001565  aa   000000 000011          	zero	0,9		"format index


                                        	use	data
    002556  aa   000000 000025          .._00203:	zero	0,21
    002557  aa  105 170 160 157         	aci	@Exponent underflow by@
    002560  aa  156 145 156 164
    002561  aa  040 165 156 144
    002562  aa  145 162 146 154
    002563  aa  157 167 040 142
    002564  aa  171 000 000 000
                                        	use	text
    001566  0a   002556 000000          	zero	.._00203,0

    001567  0a   002061 000000          	zero	nullp,0

    001570  0a   002061 000000          	zero	nullp,0

    001571  0a   002061 000000          	zero	nullp,0

                                        	use	data
    002565  aa   000000 000027          .._00202:	zero	0,14+9
    002566  aa  040 040 050 165         	aci	@  (underflow condition)@
    002567  aa  156 144 145 162
    002570  aa  146 154 157 167
    002571  aa  040 143 157 156
    002572  aa  144 151 164 151
    002573  aa  157 156 051 000
                                        	use	text
    001572  0a   002565 000000          	zero	.._00202,0

                                   213
                                   214  	mte	zerodivide,mte.no_tpr,mte.sig_error,9,(Attempt to divide by zero at),,,,id

                        001573          	segdef	zerodivide
    001573                              zerodivide:
    001573  aa   040000 100000          	zero	mte.no_tpr,mte.sig_error		"control bits
    001574  aa   000000 000011          	zero	0,9		"format index


                                        	use	data
    002574  aa   000000 000034          .._00210:	zero	0,28
    002575  aa  101 164 164 145         	aci	@Attempt to divide by zero at@
    002576  aa  155 160 164 040
    002577  aa  164 157 040 144
    002600  aa  151 166 151 144
    002601  aa  145 040 142 171
    002602  aa  040 172 145 162
    002603  aa  157 040 141 164
                                        	use	text
    001575  0a   002574 000000          	zero	.._00210,0

    001576  0a   002061 000000          	zero	nullp,0

    001577  0a   002061 000000          	zero	nullp,0

    001600  0a   002061 000000          	zero	nullp,0

                                        	use	data
    002604  aa   000000 000030          .._00207:	zero	0,14+10
    002605  aa  040 040 050 172         	aci	@  (zerodivide condition)@
    002606  aa  145 162 157 144
    002607  aa  151 166 151 144
    002610  aa  145 040 143 157
    002611  aa  156 144 151 164
    002612  aa  151 157 156 051
                                        	use	text
    001601  0a   002604 000000          	zero	.._00207,0

                                   215
                                   216  	mte	illegal_opcode,mte.no_tpr,mte.cur_inst,17,(Illegal machine operation by),,,,id

                        001602          	segdef	illegal_opcode
    001602                              illegal_opcode:
    001602  aa   040000 004000          	zero	mte.no_tpr,mte.cur_inst		"control bits
    001603  aa   000000 000021          	zero	0,17		"format index


                                        	use	data
    002613  aa   000000 000034          .._00215:	zero	0,28
    002614  aa  111 154 154 145         	aci	@Illegal machine operation by@
    002615  aa  147 141 154 040
    002616  aa  155 141 143 150
    002617  aa  151 156 145 040
    002620  aa  157 160 145 162
    002621  aa  141 164 151 157
    002622  aa  156 040 142 171
                                        	use	text
    001604  0a   002613 000000          	zero	.._00215,0

    001605  0a   002061 000000          	zero	nullp,0

    001606  0a   002061 000000          	zero	nullp,0

    001607  0a   002061 000000          	zero	nullp,0

                                        	use	data
    002623  aa   000000 000034          .._00214:	zero	0,14+14
    002624  aa  040 040 050 151         	aci	@  (illegal_opcode condition)@
    002625  aa  154 154 145 147
    002626  aa  141 154 137 157
    002627  aa  160 143 157 144
    002630  aa  145 040 143 157
    002631  aa  156 144 151 164
    002632  aa  151 157 156 051
                                        	use	text
    001610  0a   002623 000000          	zero	.._00214,0

                                   217
                                   218  	mte	accessviolation,mte.with_tpr,mte.no_special,11,(Improper access by),referencing,
                                   219  		(Improper access to referenced segment.),,id

                        001611          	segdef	accessviolation
    001611                              accessviolation:
    001611  aa   020000 400000          	zero	mte.with_tpr,mte.no_special		"control bits
    001612  aa   000000 000013          	zero	0,11		"format index


                                        	use	data
    002633  aa   000000 000022          .._00222:	zero	0,18
    002634  aa  111 155 160 162         	aci	@Improper access by@
    002635  aa  157 160 145 162
    002636  aa  040 141 143 143
    002637  aa  145 163 163 040
    002640  aa  142 171 000 000
                                        	use	text
    001613  0a   002633 000000          	zero	.._00222,0

                                        	use	data
    002641  aa   000000 000013          .._00223:	zero	0,11
    002642  aa  162 145 146 145         	aci	@referencing@
    002643  aa  162 145 156 143
    002644  aa  151 156 147 000
                                        	use	text
    001614  0a   002641 000000          	zero	.._00223,0

                                        	use	data
    002645  aa   000000 000046          .._00224:	zero	0,38
    002646  aa  111 155 160 162         	aci	@Improper access to referenced segment.@
    002647  aa  157 160 145 162
    002650  aa  040 141 143 143
    002651  aa  145 163 163 040
    002652  aa  164 157 040 162
    002653  aa  145 146 145 162
    002654  aa  145 156 143 145
    002655  aa  144 040 163 145
    002656  aa  147 155 145 156
    002657  aa  164 056 000 000
                                        	use	text
    001615  0a   002645 000000          	zero	.._00224,0

    001616  0a   002061 000000          	zero	nullp,0

                                        	use	data
    002660  aa   000000 000035          .._00221:	zero	0,14+15
    002661  aa  040 040 050 141         	aci	@  (accessviolation condition)@
    002662  aa  143 143 145 163
    002663  aa  163 166 151 157
    002664  aa  154 141 164 151
    002665  aa  157 156 040 143
    002666  aa  157 156 144 151
    002667  aa  164 151 157 156
    002670  aa  051 000 000 000
                                        	use	text
    001617  0a   002660 000000          	zero	.._00221,0

                                   220
                                   221  	mte	gate_err,mte.with_tpr,mte.gaterr,3,(gate error condition),,(Wrong number of arguments given.)

                        001620          	segdef	gate_err
    001620                              gate_err:
    001620  aa   020000 001000          	zero	mte.with_tpr,mte.gaterr		"control bits
    001621  aa   000000 000003          	zero	0,3		"format index


                                        	use	data
    002671  aa   000000 000024          .._00227:	zero	0,20
    002672  aa  147 141 164 145         	aci	@gate error condition@
    002673  aa  040 145 162 162
    002674  aa  157 162 040 143
    002675  aa  157 156 144 151
    002676  aa  164 151 157 156
                                        	use	text
    001622  0a   002671 000000          	zero	.._00227,0

    001623  0a   002061 000000          	zero	nullp,0

                                        	use	data
    002677  aa   000000 000040          .._00231:	zero	0,32
    002700  aa  127 162 157 156         	aci	@Wrong number of arguments given.@
    002701  aa  147 040 156 165
    002702  aa  155 142 145 162
    002703  aa  040 157 146 040
    002704  aa  141 162 147 165
    002705  aa  155 145 156 164
    002706  aa  163 040 147 151
    002707  aa  166 145 156 056
                                        	use	text
    001624  0a   002677 000000          	zero	.._00231,0

    001625  0a   002061 000000          	zero	nullp,0

    001626  0a   002061 000000          	zero	nullp,0		"no, point to null string

                                   222
                                   223  	mte	seg_fault_error,mte.with_tpr,mte.segferr,11,(Segment-fault error by),referencing

                        001627          	segdef	seg_fault_error
    001627                              seg_fault_error:
    001627  aa   020000 000400          	zero	mte.with_tpr,mte.segferr		"control bits
    001630  aa   000000 000013          	zero	0,11		"format index


                                        	use	data
    002710  aa   000000 000026          .._00234:	zero	0,22
    002711  aa  123 145 147 155         	aci	@Segment-fault error by@
    002712  aa  145 156 164 055
    002713  aa  146 141 165 154
    002714  aa  164 040 145 162
    002715  aa  162 157 162 040
    002716  aa  142 171 000 000
                                        	use	text
    001631  0a   002710 000000          	zero	.._00234,0

                                        	use	data
    002717  aa   000000 000013          .._00235:	zero	0,11
    002720  aa  162 145 146 145         	aci	@referencing@
    002721  aa  162 145 156 143
    002722  aa  151 156 147 000
                                        	use	text
    001632  0a   002717 000000          	zero	.._00235,0

    001633  0a   002061 000000          	zero	nullp,0

    001634  0a   002061 000000          	zero	nullp,0

    001635  0a   002061 000000          	zero	nullp,0		"no, point to null string

                                   224
                                   225  	mte	page_fault_error,mte.with_tpr,mte.pagerr,11,(Page read error encountered by),(in referencing)

                        001636          	segdef	page_fault_error
    001636                              page_fault_error:
    001636  aa   020000 000200          	zero	mte.with_tpr,mte.pagerr		"control bits
    001637  aa   000000 000013          	zero	0,11		"format index


                                        	use	data
    002723  aa   000000 000036          .._00241:	zero	0,30
    002724  aa  120 141 147 145         	aci	@Page read error encountered by@
    002725  aa  040 162 145 141
    002726  aa  144 040 145 162
    002727  aa  162 157 162 040
    002730  aa  145 156 143 157
    002731  aa  165 156 164 145
    002732  aa  162 145 144 040
    002733  aa  142 171 000 000
                                        	use	text
    001640  0a   002723 000000          	zero	.._00241,0

                                        	use	data
    002734  aa   000000 000016          .._00242:	zero	0,14
    002735  aa  151 156 040 162         	aci	@in referencing@
    002736  aa  145 146 145 162
    002737  aa  145 156 143 151
    002740  aa  156 147 000 000
                                        	use	text
    001641  0a   002734 000000          	zero	.._00242,0

    001642  0a   002061 000000          	zero	nullp,0

    001643  0a   002061 000000          	zero	nullp,0

    001644  0a   002061 000000          	zero	nullp,0		"no, point to null string

                                   226
                                   227  	mte	op_not_complete,mte.no_tpr,mte.no_special,17,(op_not_complete at),
                                   228  		(Hardware error. Try invoking procedure again.)

                        001645          	segdef	op_not_complete
    001645                              op_not_complete:
    001645  aa   040000 400000          	zero	mte.no_tpr,mte.no_special		"control bits
    001646  aa   000000 000021          	zero	0,17		"format index


                                        	use	data
    002741  aa   000000 000022          .._00246:	zero	0,18
    002742  aa  157 160 137 156         	aci	@op_not_complete at@
    002743  aa  157 164 137 143
    002744  aa  157 155 160 154
    002745  aa  145 164 145 040
    002746  aa  141 164 000 000
                                        	use	text
    001647  0a   002741 000000          	zero	.._00246,0

                                        	use	data
    002747  aa   000000 000055          .._00247:	zero	0,45
    002750  aa  110 141 162 144         	aci	@Hardware error. Try invoking procedure again.@
    002751  aa  167 141 162 145
    002752  aa  040 145 162 162
    002753  aa  157 162 056 040
    002754  aa  124 162 171 040
    002755  aa  151 156 166 157
    002756  aa  153 151 156 147
    002757  aa  040 160 162 157
    002760  aa  143 145 144 165
    002761  aa  162 145 040 141
    002762  aa  147 141 151 156
    002763  aa  056 000 000 000
                                        	use	text
    001650  0a   002747 000000          	zero	.._00247,0

    001651  0a   002061 000000          	zero	nullp,0

    001652  0a   002061 000000          	zero	nullp,0

    001653  0a   002061 000000          	zero	nullp,0		"no, point to null string

                                   229
                                   230  	mte	store,mte.with_tpr,mte.store,11,(store fault at),referencing

                        001654          	segdef	store
    001654                              store:
    001654  aa   020000 000100          	zero	mte.with_tpr,mte.store		"control bits
    001655  aa   000000 000013          	zero	0,11		"format index


                                        	use	data
    002764  aa   000000 000016          .._00253:	zero	0,14
    002765  aa  163 164 157 162         	aci	@store fault at@
    002766  aa  145 040 146 141
    002767  aa  165 154 164 040
    002770  aa  141 164 000 000
                                        	use	text
    001656  0a   002764 000000          	zero	.._00253,0

                                        	use	data
    002771  aa   000000 000013          .._00254:	zero	0,11
    002772  aa  162 145 146 145         	aci	@referencing@
    002773  aa  162 145 156 143
    002774  aa  151 156 147 000
                                        	use	text
    001657  0a   002771 000000          	zero	.._00254,0

    001660  0a   002061 000000          	zero	nullp,0

    001661  0a   002061 000000          	zero	nullp,0

    001662  0a   002061 000000          	zero	nullp,0		"no, point to null string

                                   231
                                   232  	mte	command,mte.with_tpr,mte.no_special,25,(command condition by),referencing,
                                   233  		(Either attempt to read clock on non-existent port),
                                   234  		(or configuration error or hardware error.)

                        001663          	segdef	command
    001663                              command:
    001663  aa   020000 400000          	zero	mte.with_tpr,mte.no_special		"control bits
    001664  aa   000000 000031          	zero	0,25		"format index


                                        	use	data
    002775  aa   000000 000024          .._00260:	zero	0,20
    002776  aa  143 157 155 155         	aci	@command condition by@
    002777  aa  141 156 144 040
    003000  aa  143 157 156 144
    003001  aa  151 164 151 157
    003002  aa  156 040 142 171
                                        	use	text
    001665  0a   002775 000000          	zero	.._00260,0

                                        	use	data
    003003  aa   000000 000013          .._00261:	zero	0,11
    003004  aa  162 145 146 145         	aci	@referencing@
    003005  aa  162 145 156 143
    003006  aa  151 156 147 000
                                        	use	text
    001666  0a   003003 000000          	zero	.._00261,0

                                        	use	data
    003007  aa   000000 000061          .._00262:	zero	0,49
    003010  aa  105 151 164 150         	aci	@Either attempt to read clock on non-existent port@
    003011  aa  145 162 040 141
    003012  aa  164 164 145 155
    003013  aa  160 164 040 164
    003014  aa  157 040 162 145
    003015  aa  141 144 040 143
    003016  aa  154 157 143 153
    003017  aa  040 157 156 040
    003020  aa  156 157 156 055
    003021  aa  145 170 151 163
    003022  aa  164 145 156 164
    003023  aa  040 160 157 162
    003024  aa  164 000 000 000
                                        	use	text
    001667  0a   003007 000000          	zero	.._00262,0

                                        	use	data
    003025  aa   000000 000051          .._00263:	zero	0,41
    003026  aa  157 162 040 143         	aci	@or configuration error or hardware error.@
    003027  aa  157 156 146 151
    003030  aa  147 165 162 141
    003031  aa  164 151 157 156
    003032  aa  040 145 162 162
    003033  aa  157 162 040 157
    003034  aa  162 040 150 141
    003035  aa  162 144 167 141
    003036  aa  162 145 040 145
    003037  aa  162 162 157 162
    003040  aa  056 000 000 000
                                        	use	text
    001670  0a   003025 000000          	zero	.._00263,0

    001671  0a   002061 000000          	zero	nullp,0		"no, point to null string

                                   235
                                   236  	mte	lockup,mte.with_tpr,mte.no_special,25,(Possible loop by),referencing,
                                   237  		(Interrupts not sampled for too long a time.  Possibilities:),
                                   238  		(tra * loop, infinite indirect chain, inhibited too long in BAR mode),id

                        001672          	segdef	lockup
    001672                              lockup:
    001672  aa   020000 400000          	zero	mte.with_tpr,mte.no_special		"control bits
    001673  aa   000000 000031          	zero	0,25		"format index


                                        	use	data
    003041  aa   000000 000020          .._00265:	zero	0,16
    003042  aa  120 157 163 163         	aci	@Possible loop by@
    003043  aa  151 142 154 145
    003044  aa  040 154 157 157
    003045  aa  160 040 142 171
                                        	use	text
    001674  0a   003041 000000          	zero	.._00265,0

                                        	use	data
    003046  aa   000000 000013          .._00266:	zero	0,11
    003047  aa  162 145 146 145         	aci	@referencing@
    003050  aa  162 145 156 143
    003051  aa  151 156 147 000
                                        	use	text
    001675  0a   003046 000000          	zero	.._00266,0

                                        	use	data
    003052  aa   000000 000073          .._00267:	zero	0,59
    003053  aa  111 156 164 145         	aci	@Interrupts not sampled for too long a time.  Possibilities:@
    003054  aa  162 162 165 160
    003055  aa  164 163 040 156
    003056  aa  157 164 040 163
    003057  aa  141 155 160 154
    003060  aa  145 144 040 146
    003061  aa  157 162 040 164
    003062  aa  157 157 040 154
    003063  aa  157 156 147 040
    003064  aa  141 040 164 151
    003065  aa  155 145 056 040
    003066  aa  040 120 157 163
    003067  aa  163 151 142 151
    003070  aa  154 151 164 151
    003071  aa  145 163 072 000
                                        	use	text
    001676  0a   003052 000000          	zero	.._00267,0

                                        	use	data
    003072  aa   000000 000103          .._00270:	zero	0,67
    003073  aa  164 162 141 040         	aci	@tra * loop, infinite indirect chain, inhibited too long in BAR mode@
    003074  aa  052 040 154 157
    003075  aa  157 160 054 040
    003076  aa  151 156 146 151
    003077  aa  156 151 164 145
    003100  aa  040 151 156 144
    003101  aa  151 162 145 143
    003102  aa  164 040 143 150
    003103  aa  141 151 156 054
    003104  aa  040 151 156 150
    003105  aa  151 142 151 164
    003106  aa  145 144 040 164
    003107  aa  157 157 040 154
    003110  aa  157 156 147 040
    003111  aa  151 156 040 102
    003112  aa  101 122 040 155
    003113  aa  157 144 145 000
                                        	use	text
    001677  0a   003072 000000          	zero	.._00270,0

                                        	use	data
    003114  aa   000000 000024          .._00264:	zero	0,14+6
    003115  aa  040 040 050 154         	aci	@  (lockup condition)@
    003116  aa  157 143 153 165
    003117  aa  160 040 143 157
    003120  aa  156 144 151 164
    003121  aa  151 157 156 051
                                        	use	text
    001700  0a   003114 000000          	zero	.._00264,0

                                   239
                                   240  	mte	illegal_modifier,mte.with_tpr,mte.no_special,11,(illegal modifier condition by),referencing,
                                   241  		(Possible illegal modifier in indirect chain or uninitialized pointer.)

                        001701          	segdef	illegal_modifier
    001701                              illegal_modifier:
    001701  aa   020000 400000          	zero	mte.with_tpr,mte.no_special		"control bits
    001702  aa   000000 000013          	zero	0,11		"format index


                                        	use	data
    003122  aa   000000 000035          .._00272:	zero	0,29
    003123  aa  151 154 154 145         	aci	@illegal modifier condition by@
    003124  aa  147 141 154 040
    003125  aa  155 157 144 151
    003126  aa  146 151 145 162
    003127  aa  040 143 157 156
    003130  aa  144 151 164 151
    003131  aa  157 156 040 142
    003132  aa  171 000 000 000
                                        	use	text
    001703  0a   003122 000000          	zero	.._00272,0

                                        	use	data
    003133  aa   000000 000013          .._00273:	zero	0,11
    003134  aa  162 145 146 145         	aci	@referencing@
    003135  aa  162 145 156 143
    003136  aa  151 156 147 000
                                        	use	text
    001704  0a   003133 000000          	zero	.._00273,0

                                        	use	data
    003137  aa   000000 000105          .._00274:	zero	0,69
    003140  aa  120 157 163 163         	aci	@Possible illegal modifier in indirect chain or uninitialized pointer.@
    003141  aa  151 142 154 145
    003142  aa  040 151 154 154
    003143  aa  145 147 141 154
    003144  aa  040 155 157 144
    003145  aa  151 146 151 145
    003146  aa  162 040 151 156
    003147  aa  040 151 156 144
    003150  aa  151 162 145 143
    003151  aa  164 040 143 150
    003152  aa  141 151 156 040
    003153  aa  157 162 040 165
    003154  aa  156 151 156 151
    003155  aa  164 151 141 154
    003156  aa  151 172 145 144
    003157  aa  040 160 157 151
    003160  aa  156 164 145 162
    003161  aa  056 000 000 000
                                        	use	text
    001705  0a   003137 000000          	zero	.._00274,0

    001706  0a   002061 000000          	zero	nullp,0

    001707  0a   002061 000000          	zero	nullp,0		"no, point to null string

                                   242
                                   243  	mte	illegal_ring_order,mte.with_tpr,mte.no_special,11,(illegal_ring_order condition by),referencing,
                                   244  		(Ring brackets in wrong order.  Contact system maintenance staff.)

                        001710          	segdef	illegal_ring_order
    001710                              illegal_ring_order:
    001710  aa   020000 400000          	zero	mte.with_tpr,mte.no_special		"control bits
    001711  aa   000000 000013          	zero	0,11		"format index


                                        	use	data
    003162  aa   000000 000037          .._00277:	zero	0,31
    003163  aa  151 154 154 145         	aci	@illegal_ring_order condition by@
    003164  aa  147 141 154 137
    003165  aa  162 151 156 147
    003166  aa  137 157 162 144
    003167  aa  145 162 040 143
    003170  aa  157 156 144 151
    003171  aa  164 151 157 156
    003172  aa  040 142 171 000
                                        	use	text
    001712  0a   003162 000000          	zero	.._00277,0

                                        	use	data
    003173  aa   000000 000013          .._00300:	zero	0,11
    003174  aa  162 145 146 145         	aci	@referencing@
    003175  aa  162 145 156 143
    003176  aa  151 156 147 000
                                        	use	text
    001713  0a   003173 000000          	zero	.._00300,0

                                        	use	data
    003177  aa   000000 000100          .._00301:	zero	0,64
    003200  aa  122 151 156 147         	aci	@Ring brackets in wrong order.  Contact system maintenance staff.@
    003201  aa  040 142 162 141
    003202  aa  143 153 145 164
    003203  aa  163 040 151 156
    003204  aa  040 167 162 157
    003205  aa  156 147 040 157
    003206  aa  162 144 145 162
    003207  aa  056 040 040 103
    003210  aa  157 156 164 141
    003211  aa  143 164 040 163
    003212  aa  171 163 164 145
    003213  aa  155 040 155 141
    003214  aa  151 156 164 145
    003215  aa  156 141 156 143
    003216  aa  145 040 163 164
    003217  aa  141 146 146 056
                                        	use	text
    001714  0a   003177 000000          	zero	.._00301,0

    001715  0a   002061 000000          	zero	nullp,0

    001716  0a   002061 000000          	zero	nullp,0		"no, point to null string

                                   245
                                   246  	mte	bad_outward_call,mte.with_tpr,mte.no_special,11,(bad_outward_call condition by),referencing,
                                   247  		(Incorrect access to, or ring brackets on, referenced segment.)

                        001717          	segdef	bad_outward_call
    001717                              bad_outward_call:
    001717  aa   020000 400000          	zero	mte.with_tpr,mte.no_special		"control bits
    001720  aa   000000 000013          	zero	0,11		"format index


                                        	use	data
    003220  aa   000000 000035          .._00304:	zero	0,29
    003221  aa  142 141 144 137         	aci	@bad_outward_call condition by@
    003222  aa  157 165 164 167
    003223  aa  141 162 144 137
    003224  aa  143 141 154 154
    003225  aa  040 143 157 156
    003226  aa  144 151 164 151
    003227  aa  157 156 040 142
    003230  aa  171 000 000 000
                                        	use	text
    001721  0a   003220 000000          	zero	.._00304,0

                                        	use	data
    003231  aa   000000 000013          .._00305:	zero	0,11
    003232  aa  162 145 146 145         	aci	@referencing@
    003233  aa  162 145 156 143
    003234  aa  151 156 147 000
                                        	use	text
    001722  0a   003231 000000          	zero	.._00305,0

                                        	use	data
    003235  aa   000000 000075          .._00306:	zero	0,61
    003236  aa  111 156 143 157         	aci	@Incorrect access to, or ring brackets on, referenced segment.@
    003237  aa  162 162 145 143
    003240  aa  164 040 141 143
    003241  aa  143 145 163 163
    003242  aa  040 164 157 054
    003243  aa  040 157 162 040
    003244  aa  162 151 156 147
    003245  aa  040 142 162 141
    003246  aa  143 153 145 164
    003247  aa  163 040 157 156
    003250  aa  054 040 162 145
    003251  aa  146 145 162 145
    003252  aa  156 143 145 144
    003253  aa  040 163 145 147
    003254  aa  155 145 156 164
    003255  aa  056 000 000 000
                                        	use	text
    001723  0a   003235 000000          	zero	.._00306,0

    001724  0a   002061 000000          	zero	nullp,0

    001725  0a   002061 000000          	zero	nullp,0		"no, point to null string

                                   248
                                   249  	mte	inward_return,mte.with_tpr,mte.no_special 15,(Attempt to return to inward ring by),referencing,,,id

                        001726          	segdef	inward_return
    001726                              inward_return:
    001726  aa   020000 400000          	zero	mte.with_tpr,mte.no_special		"control bits
    001727  aa   000000 000000          	zero	0,		"format index


    001730  0a   002061 000000          	zero	nullp,0

    001731  0a   002061 000000          	zero	nullp,0

    001732  0a   002061 000000          	zero	nullp,0

    001733  0a   002061 000000          	zero	nullp,0

    001734  0a   002061 000000          	zero	nullp,0		"no, point to null string

                                   250
                                   251  	mte	cross_ring_transfer,mte.with_tpr,mte.no_special,25,(Illegal cross ring transfer by),
                                   252  		(referencing),(Transfer instructions cannot be used to cross rings),
                                   253  		(only call and rtcd instructions may be used.),id

                        001735          	segdef	cross_ring_transfer
    001735                              cross_ring_transfer:
    001735  aa   020000 400000          	zero	mte.with_tpr,mte.no_special		"control bits
    001736  aa   000000 000031          	zero	0,25		"format index


                                        	use	data
    003256  aa   000000 000036          .._00316:	zero	0,30
    003257  aa  111 154 154 145         	aci	@Illegal cross ring transfer by@
    003260  aa  147 141 154 040
    003261  aa  143 162 157 163
    003262  aa  163 040 162 151
    003263  aa  156 147 040 164
    003264  aa  162 141 156 163
    003265  aa  146 145 162 040
    003266  aa  142 171 000 000
                                        	use	text
    001737  0a   003256 000000          	zero	.._00316,0

                                        	use	data
    003267  aa   000000 000013          .._00317:	zero	0,11
    003270  aa  162 145 146 145         	aci	@referencing@
    003271  aa  162 145 156 143
    003272  aa  151 156 147 000
                                        	use	text
    001740  0a   003267 000000          	zero	.._00317,0

                                        	use	data
    003273  aa   000000 000063          .._00320:	zero	0,51
    003274  aa  124 162 141 156         	aci	@Transfer instructions cannot be used to cross rings@
    003275  aa  163 146 145 162
    003276  aa  040 151 156 163
    003277  aa  164 162 165 143
    003300  aa  164 151 157 156
    003301  aa  163 040 143 141
    003302  aa  156 156 157 164
    003303  aa  040 142 145 040
    003304  aa  165 163 145 144
    003305  aa  040 164 157 040
    003306  aa  143 162 157 163
    003307  aa  163 040 162 151
    003310  aa  156 147 163 000
                                        	use	text
    001741  0a   003273 000000          	zero	.._00320,0

                                        	use	data
    003311  aa   000000 000054          .._00321:	zero	0,44
    003312  aa  157 156 154 171         	aci	@only call and rtcd instructions may be used.@
    003313  aa  040 143 141 154
    003314  aa  154 040 141 156
    003315  aa  144 040 162 164
    003316  aa  143 144 040 151
    003317  aa  156 163 164 162
    003320  aa  165 143 164 151
    003321  aa  157 156 163 040
    003322  aa  155 141 171 040
    003323  aa  142 145 040 165
    003324  aa  163 145 144 056
                                        	use	text
    001742  0a   003311 000000          	zero	.._00321,0

                                        	use	data
    003325  aa   000000 000041          .._00315:	zero	0,14+19
    003326  aa  040 040 050 143         	aci	@  (cross_ring_transfer condition)@
    003327  aa  162 157 163 163
    003330  aa  137 162 151 156
    003331  aa  147 137 164 162
    003332  aa  141 156 163 146
    003333  aa  145 162 040 143
    003334  aa  157 156 144 151
    003335  aa  164 151 157 156
    003336  aa  051 000 000 000
                                        	use	text
    001743  0a   003325 000000          	zero	.._00315,0

                                   254
                                   255  	mte	out_of_bounds,mte.with_tpr,mte.outbounds,11,(out_of_bounds at),referencing

                        001744          	segdef	out_of_bounds
    001744                              out_of_bounds:
    001744  aa   020000 000040          	zero	mte.with_tpr,mte.outbounds		"control bits
    001745  aa   000000 000013          	zero	0,11		"format index


                                        	use	data
    003337  aa   000000 000020          .._00323:	zero	0,16
    003340  aa  157 165 164 137         	aci	@out_of_bounds at@
    003341  aa  157 146 137 142
    003342  aa  157 165 156 144
    003343  aa  163 040 141 164
                                        	use	text
    001746  0a   003337 000000          	zero	.._00323,0

                                        	use	data
    003344  aa   000000 000013          .._00324:	zero	0,11
    003345  aa  162 145 146 145         	aci	@referencing@
    003346  aa  162 145 156 143
    003347  aa  151 156 147 000
                                        	use	text
    001747  0a   003344 000000          	zero	.._00324,0

    001750  0a   002061 000000          	zero	nullp,0

    001751  0a   002061 000000          	zero	nullp,0

    001752  0a   002061 000000          	zero	nullp,0		"no, point to null string

                                   256
                                   257  	mte	illegal_return,mte.no_tpr,mte.no_special,17,(Illegal return to),
                                   258  		(Attempt to restore bad machine conditions after a fault.),,,id

                        001753          	segdef	illegal_return
    001753                              illegal_return:
    001753  aa   040000 400000          	zero	mte.no_tpr,mte.no_special		"control bits
    001754  aa   000000 000021          	zero	0,17		"format index


                                        	use	data
    003350  aa   000000 000021          .._00330:	zero	0,17
    003351  aa  111 154 154 145         	aci	@Illegal return to@
    003352  aa  147 141 154 040
    003353  aa  162 145 164 165
    003354  aa  162 156 040 164
    003355  aa  157 000 000 000
                                        	use	text
    001755  0a   003350 000000          	zero	.._00330,0

                                        	use	data
    003356  aa   000000 000070          .._00331:	zero	0,56
    003357  aa  101 164 164 145         	aci	@Attempt to restore bad machine conditions after a fault.@
    003360  aa  155 160 164 040
    003361  aa  164 157 040 162
    003362  aa  145 163 164 157
    003363  aa  162 145 040 142
    003364  aa  141 144 040 155
    003365  aa  141 143 150 151
    003366  aa  156 145 040 143
    003367  aa  157 156 144 151
    003370  aa  164 151 157 156
    003371  aa  163 040 141 146
    003372  aa  164 145 162 040
    003373  aa  141 040 146 141
    003374  aa  165 154 164 056
                                        	use	text
    001756  0a   003356 000000          	zero	.._00331,0

    001757  0a   002061 000000          	zero	nullp,0

    001760  0a   002061 000000          	zero	nullp,0

                                        	use	data
    003375  aa   000000 000034          .._00327:	zero	0,14+14
    003376  aa  040 040 050 151         	aci	@  (illegal_return condition)@
    003377  aa  154 154 145 147
    003400  aa  141 154 137 162
    003401  aa  145 164 165 162
    003402  aa  156 040 143 157
    003403  aa  156 144 151 164
    003404  aa  151 157 156 051
                                        	use	text
    001761  0a   003375 000000          	zero	.._00327,0

                                   259
                                   260  	mte	fault_tag_1,mte.with_tpr,mte.no_special,11,(fault_tag_1 by),referencing,
                                   261  		(Ascii data where pointer expected.)

                        001762          	segdef	fault_tag_1
    001762                              fault_tag_1:
    001762  aa   020000 400000          	zero	mte.with_tpr,mte.no_special		"control bits
    001763  aa   000000 000013          	zero	0,11		"format index


                                        	use	data
    003405  aa   000000 000016          .._00335:	zero	0,14
    003406  aa  146 141 165 154         	aci	@fault_tag_1 by@
    003407  aa  164 137 164 141
    003410  aa  147 137 061 040
    003411  aa  142 171 000 000
                                        	use	text
    001764  0a   003405 000000          	zero	.._00335,0

                                        	use	data
    003412  aa   000000 000013          .._00336:	zero	0,11
    003413  aa  162 145 146 145         	aci	@referencing@
    003414  aa  162 145 156 143
    003415  aa  151 156 147 000
                                        	use	text
    001765  0a   003412 000000          	zero	.._00336,0

                                        	use	data
    003416  aa   000000 000042          .._00337:	zero	0,34
    003417  aa  101 163 143 151         	aci	@Ascii data where pointer expected.@
    003420  aa  151 040 144 141
    003421  aa  164 141 040 167
    003422  aa  150 145 162 145
    003423  aa  040 160 157 151
    003424  aa  156 164 145 162
    003425  aa  040 145 170 160
    003426  aa  145 143 164 145
    003427  aa  144 056 000 000
                                        	use	text
    001766  0a   003416 000000          	zero	.._00337,0

    001767  0a   002061 000000          	zero	nullp,0

    001770  0a   002061 000000          	zero	nullp,0		"no, point to null string

                                   262
                                   263  	mte	truncation,mte.with_tpr,mte.no_special,11,(stringsize condition by),referencing,
                                   264  		(Attempt to copy a longer string into a shorter one.)

                        001771          	segdef	truncation
    001771                              truncation:
    001771  aa   020000 400000          	zero	mte.with_tpr,mte.no_special		"control bits
    001772  aa   000000 000013          	zero	0,11		"format index


                                        	use	data
    003430  aa   000000 000027          .._00342:	zero	0,23
    003431  aa  163 164 162 151         	aci	@stringsize condition by@
    003432  aa  156 147 163 151
    003433  aa  172 145 040 143
    003434  aa  157 156 144 151
    003435  aa  164 151 157 156
    003436  aa  040 142 171 000
                                        	use	text
    001773  0a   003430 000000          	zero	.._00342,0

                                        	use	data
    003437  aa   000000 000013          .._00343:	zero	0,11
    003440  aa  162 145 146 145         	aci	@referencing@
    003441  aa  162 145 156 143
    003442  aa  151 156 147 000
                                        	use	text
    001774  0a   003437 000000          	zero	.._00343,0

                                        	use	data
    003443  aa   000000 000063          .._00344:	zero	0,51
    003444  aa  101 164 164 145         	aci	@Attempt to copy a longer string into a shorter one.@
    003445  aa  155 160 164 040
    003446  aa  164 157 040 143
    003447  aa  157 160 171 040
    003450  aa  141 040 154 157
    003451  aa  156 147 145 162
    003452  aa  040 163 164 162
    003453  aa  151 156 147 040
    003454  aa  151 156 164 157
    003455  aa  040 141 040 163
    003456  aa  150 157 162 164
    003457  aa  145 162 040 157
    003460  aa  156 145 056 000
                                        	use	text
    001775  0a   003443 000000          	zero	.._00344,0

    001776  0a   002061 000000          	zero	nullp,0

    001777  0a   002061 000000          	zero	nullp,0		"no, point to null string

                                   265
                                   266  	mte	soft_default_info,mte.no_tpr,mte.no_special,7,condition

                        002000          	segdef	soft_default_info
    002000                              soft_default_info:
    002000  aa   040000 400000          	zero	mte.no_tpr,mte.no_special		"control bits
    002001  aa   000000 000007          	zero	0,7		"format index


                                        	use	data
    003461  aa   000000 000011          .._00347:	zero	0,9
    003462  aa  143 157 156 144         	aci	@condition@
    003463  aa  151 164 151 157
    003464  aa  156 000 000 000
                                        	use	text
    002002  0a   003461 000000          	zero	.._00347,0

    002003  0a   002061 000000          	zero	nullp,0

    002004  0a   002061 000000          	zero	nullp,0

    002005  0a   002061 000000          	zero	nullp,0

    002006  0a   002061 000000          	zero	nullp,0		"no, point to null string

                                   267
                                   268  	mte	not_a_gate,mte.with_tpr,mte.no_special,11,(Attempt by),(to access),
                                   269  		(which is beyond the entry bound for the gate.),,id

                        002007          	segdef	not_a_gate
    002007                              not_a_gate:
    002007  aa   020000 400000          	zero	mte.with_tpr,mte.no_special		"control bits
    002010  aa   000000 000013          	zero	0,11		"format index


                                        	use	data
    003465  aa   000000 000012          .._00354:	zero	0,10
    003466  aa  101 164 164 145         	aci	@Attempt by@
    003467  aa  155 160 164 040
    003470  aa  142 171 000 000
                                        	use	text
    002011  0a   003465 000000          	zero	.._00354,0

                                        	use	data
    003471  aa   000000 000011          .._00355:	zero	0,9
    003472  aa  164 157 040 141         	aci	@to access@
    003473  aa  143 143 145 163
    003474  aa  163 000 000 000
                                        	use	text
    002012  0a   003471 000000          	zero	.._00355,0

                                        	use	data
    003475  aa   000000 000055          .._00356:	zero	0,45
    003476  aa  167 150 151 143         	aci	@which is beyond the entry bound for the gate.@
    003477  aa  150 040 151 163
    003500  aa  040 142 145 171
    003501  aa  157 156 144 040
    003502  aa  164 150 145 040
    003503  aa  145 156 164 162
    003504  aa  171 040 142 157
    003505  aa  165 156 144 040
    003506  aa  146 157 162 040
    003507  aa  164 150 145 040
    003510  aa  147 141 164 145
    003511  aa  056 000 000 000
                                        	use	text
    002013  0a   003475 000000          	zero	.._00356,0

    002014  0a   002061 000000          	zero	nullp,0

                                        	use	data
    003512  aa   000000 000030          .._00353:	zero	0,14+10
    003513  aa  040 040 050 156         	aci	@  (not_a_gate condition)@
    003514  aa  157 164 137 141
    003515  aa  137 147 141 164
    003516  aa  145 040 143 157
    003517  aa  156 144 151 164
    003520  aa  151 157 156 051
                                        	use	text
    002015  0a   003512 000000          	zero	.._00353,0

                                   270
                                   271  	mte	quit,mte.no_tpr,mte.no_special,9,(quit in)

                        002016          	segdef	quit
    002016                              quit:
    002016  aa   040000 400000          	zero	mte.no_tpr,mte.no_special		"control bits
    002017  aa   000000 000011          	zero	0,9		"format index


                                        	use	data
    003521  aa   000000 000007          .._00361:	zero	0,7
    003522  aa  161 165 151 164         	aci	@quit in@
    003523  aa  040 151 156 000
                                        	use	text
    002020  0a   003521 000000          	zero	.._00361,0

    002021  0a   002061 000000          	zero	nullp,0

    002022  0a   002061 000000          	zero	nullp,0

    002023  0a   002061 000000          	zero	nullp,0

    002024  0a   002061 000000          	zero	nullp,0		"no, point to null string

                                   272
                                   273  	mte	lot_fault,mte.with_tpr,mte.lotfault,11,(lot fault by),referencing

                        002025          	segdef	lot_fault
    002025                              lot_fault:
    002025  aa   020000 000020          	zero	mte.with_tpr,mte.lotfault		"control bits
    002026  aa   000000 000013          	zero	0,11		"format index


                                        	use	data
    003524  aa   000000 000014          .._00366:	zero	0,12
    003525  aa  154 157 164 040         	aci	@lot fault by@
    003526  aa  146 141 165 154
    003527  aa  164 040 142 171
                                        	use	text
    002027  0a   003524 000000          	zero	.._00366,0

                                        	use	data
    003530  aa   000000 000013          .._00367:	zero	0,11
    003531  aa  162 145 146 145         	aci	@referencing@
    003532  aa  162 145 156 143
    003533  aa  151 156 147 000
                                        	use	text
    002030  0a   003530 000000          	zero	.._00367,0

    002031  0a   002061 000000          	zero	nullp,0

    002032  0a   002061 000000          	zero	nullp,0

    002033  0a   002061 000000          	zero	nullp,0		"no, point to null string

                                   274
                                   275  	mte	return_conversion_error,mte.no_tpr,mte.no_special,13,(return conversion error),,
                                   276  		(Incompatibility between a return or end statement and the way the procedure was entered.)

                        002034          	segdef	return_conversion_error
    002034                              return_conversion_error:
    002034  aa   040000 400000          	zero	mte.no_tpr,mte.no_special		"control bits
    002035  aa   000000 000015          	zero	0,13		"format index


                                        	use	data
    003534  aa   000000 000027          .._00373:	zero	0,23
    003535  aa  162 145 164 165         	aci	@return conversion error@
    003536  aa  162 156 040 143
    003537  aa  157 156 166 145
    003540  aa  162 163 151 157
    003541  aa  156 040 145 162
    003542  aa  162 157 162 000
                                        	use	text
    002036  0a   003534 000000          	zero	.._00373,0

    002037  0a   002061 000000          	zero	nullp,0

                                        	use	data
    003543  aa   000000 000130          .._00375:	zero	0,88
    003544  aa  111 156 143 157         	aci	@Incompatibility between a return or end statement and the way the procedure was entered.@
    003545  aa  155 160 141 164
    003546  aa  151 142 151 154
    003547  aa  151 164 171 040
    003550  aa  142 145 164 167
    003551  aa  145 145 156 040
    003552  aa  141 040 162 145
    003553  aa  164 165 162 156
    003554  aa  040 157 162 040
    003555  aa  145 156 144 040
    003556  aa  163 164 141 164
    003557  aa  145 155 145 156
    003560  aa  164 040 141 156
    003561  aa  144 040 164 150
    003562  aa  145 040 167 141
    003563  aa  171 040 164 150
    003564  aa  145 040 160 162
    003565  aa  157 143 145 144
    003566  aa  165 162 145 040
    003567  aa  167 141 163 040
    003570  aa  145 156 164 145
    003571  aa  162 145 144 056
                                        	use	text
    002040  0a   003543 000000          	zero	.._00375,0

    002041  0a   002061 000000          	zero	nullp,0

    002042  0a   002061 000000          	zero	nullp,0		"no, point to null string

                                   277
                                   278  	mte	fortran_pause,mte.no_tpr,mte.no_special,1,,,,,id

                        002043          	segdef	fortran_pause
    002043                              fortran_pause:
    002043  aa   040000 400000          	zero	mte.no_tpr,mte.no_special		"control bits
    002044  aa   000000 000001          	zero	0,1		"format index


    002045  0a   002061 000000          	zero	nullp,0

    002046  0a   002061 000000          	zero	nullp,0

    002047  0a   002061 000000          	zero	nullp,0

    002050  0a   002061 000000          	zero	nullp,0

                                        	use	data
    003572  aa   000000 000033          .._00377:	zero	0,14+13
    003573  aa  040 040 050 146         	aci	@  (fortran_pause condition)@
    003574  aa  157 162 164 162
    003575  aa  141 156 137 160
    003576  aa  141 165 163 145
    003577  aa  040 143 157 156
    003600  aa  144 151 164 151
    003601  aa  157 156 051 000
                                        	use	text
    002051  0a   003572 000000          	zero	.._00377,0

                                   279
                                   280  	mte	malformed_list_template_entry_,mte.no_tpr,mte.no_special,5,(Attempt by),
                                   281  		(to initialize a variable with a malformed list template.),,,id

                        002052          	segdef	malformed_list_template_entry_
    002052                              malformed_list_template_entry_:
    002052  aa   040000 400000          	zero	mte.no_tpr,mte.no_special		"control bits
    002053  aa   000000 000005          	zero	0,5		"format index


                                        	use	data
    003602  aa   000000 000012          .._00405:	zero	0,10
    003603  aa  101 164 164 145         	aci	@Attempt by@
    003604  aa  155 160 164 040
    003605  aa  142 171 000 000
                                        	use	text
    002054  0a   003602 000000          	zero	.._00405,0

                                        	use	data
    003606  aa   000000 000070          .._00406:	zero	0,56
    003607  aa  164 157 040 151         	aci	@to initialize a variable with a malformed list template.@
    003610  aa  156 151 164 151
    003611  aa  141 154 151 172
    003612  aa  145 040 141 040
    003613  aa  166 141 162 151
    003614  aa  141 142 154 145
    003615  aa  040 167 151 164
    003616  aa  150 040 141 040
    003617  aa  155 141 154 146
    003620  aa  157 162 155 145
    003621  aa  144 040 154 151
    003622  aa  163 164 040 164
    003623  aa  145 155 160 154
    003624  aa  141 164 145 056
                                        	use	text
    002055  0a   003606 000000          	zero	.._00406,0

    002056  0a   002061 000000          	zero	nullp,0

    002057  0a   002061 000000          	zero	nullp,0

                                        	use	data
    003625  aa   000000 000054          .._00404:	zero	0,14+30
    003626  aa  040 040 050 155         	aci	@  (malformed_list_template_entry_ condition)@
    003627  aa  141 154 146 157
    003630  aa  162 155 145 144
    003631  aa  137 154 151 163
    003632  aa  164 137 164 145
    003633  aa  155 160 154 141
    003634  aa  164 145 137 145
    003635  aa  156 164 162 171
    003636  aa  137 040 143 157
    003637  aa  156 144 151 164
    003640  aa  151 157 156 051
                                        	use	text
    002060  0a   003625 000000          	zero	.._00404,0

                                   282
                                   283  	end

NO LITERALS

NAME DEFINITIONS FOR ENTRY POINTS AND SEGDEFS

    003642  5a   000003 000000
    003643  5a   000564 600000
    003644  aa   000000 000000
    003645  55   000012 000002
    003646  5a   000002 400003
    003647  55   000006 000012
    003650  aa  016 155 145 163
    003651  aa  163 141 147 145
    003652  aa  137 164 141 142
    003653  aa  154 145 137 000
    003654  55   000025 000003
    003655  0a   002052 400000
    003656  55   000015 000003
    003657  aa  036 155 141 154         malformed_list_template_entry_
    003660  aa  146 157 162 155
    003661  aa  145 144 137 154
    003662  aa  151 163 164 137
    003663  aa  164 145 155 160
    003664  aa  154 141 164 145
    003665  aa  137 145 156 164
    003666  aa  162 171 137 000
    003667  55   000034 000012
    003670  0a   002043 400000
    003671  55   000030 000003
    003672  aa  015 146 157 162         fortran_pause
    003673  aa  164 162 141 156
    003674  aa  137 160 141 165
    003675  aa  163 145 000 000
    003676  55   000045 000025
    003677  0a   002034 400000
    003700  55   000037 000003
    003701  aa  027 162 145 164         return_conversion_error
    003702  aa  165 162 156 137
    003703  aa  143 157 156 166
    003704  aa  145 162 163 151
    003705  aa  157 156 137 145
    003706  aa  162 162 157 162
    003707  55   000053 000034
    003710  0a   002025 400000
    003711  55   000050 000003
    003712  aa  011 154 157 164         lot_fault
    003713  aa  137 146 141 165
    003714  aa  154 164 000 000
    003715  55   000060 000045
    003716  0a   002016 400000
    003717  55   000056 000003
    003720  aa  004 161 165 151         quit
    003721  aa  164 000 000 000
    003722  55   000066 000053
    003723  0a   002007 400000
    003724  55   000063 000003
    003725  aa  012 156 157 164         not_a_gate
    003726  aa  137 141 137 147
    003727  aa  141 164 145 000
    003730  55   000076 000060
    003731  0a   002000 400000
    003732  55   000071 000003
    003733  aa  021 163 157 146         soft_default_info
    003734  aa  164 137 144 145
    003735  aa  146 141 165 154
    003736  aa  164 137 151 156
    003737  aa  146 157 000 000
    003740  55   000104 000066
    003741  0a   001771 400000
    003742  55   000101 000003
    003743  aa  012 164 162 165         truncation
    003744  aa  156 143 141 164
    003745  aa  151 157 156 000
    003746  55   000112 000076
    003747  0a   001762 400000
    003750  55   000107 000003
    003751  aa  013 146 141 165         fault_tag_1
    003752  aa  154 164 137 164
    003753  aa  141 147 137 061
    003754  55   000121 000104
    003755  0a   001753 400000
    003756  55   000115 000003
    003757  aa  016 151 154 154         illegal_return
    003760  aa  145 147 141 154
    003761  aa  137 162 145 164
    003762  aa  165 162 156 000
    003763  55   000130 000112
    003764  0a   001744 400000
    003765  55   000124 000003
    003766  aa  015 157 165 164         out_of_bounds
    003767  aa  137 157 146 137
    003770  aa  142 157 165 156
    003771  aa  144 163 000 000
    003772  55   000140 000121
    003773  0a   001735 400000
    003774  55   000133 000003
    003775  aa  023 143 162 157         cross_ring_transfer
    003776  aa  163 163 137 162
    003777  aa  151 156 147 137
    004000  aa  164 162 141 156
    004001  aa  163 146 145 162
    004002  55   000147 000130
    004003  0a   001726 400000
    004004  55   000143 000003
    004005  aa  015 151 156 167         inward_return
    004006  aa  141 162 144 137
    004007  aa  162 145 164 165
    004010  aa  162 156 000 000
    004011  55   000157 000140
    004012  0a   001717 400000
    004013  55   000152 000003
    004014  aa  020 142 141 144         bad_outward_call
    004015  aa  137 157 165 164
    004016  aa  167 141 162 144
    004017  aa  137 143 141 154
    004020  aa  154 000 000 000
    004021  55   000167 000147
    004022  0a   001710 400000
    004023  55   000162 000003
    004024  aa  022 151 154 154         illegal_ring_order
    004025  aa  145 147 141 154
    004026  aa  137 162 151 156
    004027  aa  147 137 157 162
    004030  aa  144 145 162 000
    004031  55   000177 000157
    004032  0a   001701 400000
    004033  55   000172 000003
    004034  aa  020 151 154 154         illegal_modifier
    004035  aa  145 147 141 154
    004036  aa  137 155 157 144
    004037  aa  151 146 151 145
    004040  aa  162 000 000 000
    004041  55   000204 000167
    004042  0a   001672 400000
    004043  55   000202 000003
    004044  aa  006 154 157 143         lockup
    004045  aa  153 165 160 000
    004046  55   000211 000177
    004047  0a   001663 400000
    004050  55   000207 000003
    004051  aa  007 143 157 155         command
    004052  aa  155 141 156 144
    004053  55   000216 000204
    004054  0a   001654 400000
    004055  55   000214 000003
    004056  aa  005 163 164 157         store
    004057  aa  162 145 000 000
    004060  55   000225 000211
    004061  0a   001645 400000
    004062  55   000221 000003
    004063  aa  017 157 160 137         op_not_complete
    004064  aa  156 157 164 137
    004065  aa  143 157 155 160
    004066  aa  154 145 164 145
    004067  55   000235 000216
    004070  0a   001636 400000
    004071  55   000230 000003
    004072  aa  020 160 141 147         page_fault_error
    004073  aa  145 137 146 141
    004074  aa  165 154 164 137
    004075  aa  145 162 162 157
    004076  aa  162 000 000 000
    004077  55   000244 000225
    004100  0a   001627 400000
    004101  55   000240 000003
    004102  aa  017 163 145 147         seg_fault_error
    004103  aa  137 146 141 165
    004104  aa  154 164 137 145
    004105  aa  162 162 157 162
    004106  55   000252 000235
    004107  0a   001620 400000
    004110  55   000247 000003
    004111  aa  010 147 141 164         gate_err
    004112  aa  145 137 145 162
    004113  aa  162 000 000 000
    004114  55   000261 000244
    004115  0a   001611 400000
    004116  55   000255 000003
    004117  aa  017 141 143 143         accessviolation
    004120  aa  145 163 163 166
    004121  aa  151 157 154 141
    004122  aa  164 151 157 156
    004123  55   000270 000252
    004124  0a   001602 400000
    004125  55   000264 000003
    004126  aa  016 151 154 154         illegal_opcode
    004127  aa  145 147 141 154
    004130  aa  137 157 160 143
    004131  aa  157 144 145 000
    004132  55   000276 000261
    004133  0a   001573 400000
    004134  55   000273 000003
    004135  aa  012 172 145 162         zerodivide
    004136  aa  157 144 151 166
    004137  aa  151 144 145 000
    004140  55   000304 000270
    004141  0a   001564 400000
    004142  55   000301 000003
    004143  aa  011 165 156 144         underflow
    004144  aa  145 162 146 154
    004145  aa  157 167 000 000
    004146  55   000312 000276
    004147  0a   001555 400000
    004150  55   000307 000003
    004151  aa  010 157 166 145         overflow
    004152  aa  162 146 154 157
    004153  aa  167 000 000 000
    004154  55   000321 000304
    004155  0a   001546 400000
    004156  55   000315 000003
    004157  aa  015 146 151 170         fixedoverflow
    004160  aa  145 144 157 166
    004161  aa  145 162 146 154
    004162  aa  157 167 000 000
    004163  55   000330 000312
    004164  0a   001537 400000
    004165  55   000324 000003
    004166  aa  014 156 165 154         null_pointer
    004167  aa  154 137 160 157
    004170  aa  151 156 164 145
    004171  aa  162 000 000 000
    004172  55   000340 000321
    004173  0a   001530 400000
    004174  55   000333 000003
    004175  aa  021 150 141 162         hard_default_info
    004176  aa  144 137 144 145
    004177  aa  146 141 165 154
    004200  aa  164 137 151 156
    004201  aa  146 157 000 000
    004202  55   000347 000330
    004203  0a   001521 400000
    004204  55   000343 000003
    004205  aa  016 165 156 167         unwinder_error
    004206  aa  151 156 144 145
    004207  aa  162 137 145 162
    004210  aa  162 157 162 000
    004211  55   000356 000340
    004212  0a   001512 400000
    004213  55   000352 000003
    004214  aa  017 160 162 151         privileged_info
    004215  aa  166 151 154 145
    004216  aa  147 145 144 137
    004217  aa  151 156 146 157
    004220  55   000366 000347
    004221  0a   001503 400000
    004222  55   000361 000003
    004223  aa  021 151 154 154         illegal_procedure
    004224  aa  145 147 141 154
    004225  aa  137 160 162 157
    004226  aa  143 145 144 165
    004227  aa  162 145 000 000
    004230  55   000374 000356
    004231  0a   001474 400000
    004232  55   000371 000003
    004233  aa  010 151 157 137         io_error
    004234  aa  145 162 162 157
    004235  aa  162 000 000 000
    004236  55   000403 000366
    004237  0a   001465 400000
    004240  55   000377 000003
    004241  aa  015 154 151 156         linkage_error
    004242  aa  153 141 147 145
    004243  aa  137 145 162 162
    004244  aa  157 162 000 000
    004245  55   000412 000374
    004246  0a   001456 400000
    004247  55   000406 000003
    004250  aa  016 163 165 142         subscriptrange
    004251  aa  163 143 162 151
    004252  aa  160 164 162 141
    004253  aa  156 147 145 000
    004254  55   000420 000403
    004255  0a   001447 400000
    004256  55   000415 000003
    004257  aa  013 163 164 162         stringrange
    004260  aa  151 156 147 162
    004261  aa  141 156 147 145
    004262  55   000426 000412
    004263  0a   001440 400000
    004264  55   000423 000003
    004265  aa  010 164 162 141         transmit
    004266  aa  156 163 155 151
    004267  aa  164 000 000 000
    004270  55   000433 000420
    004271  0a   001431 400000
    004272  55   000431 000003
    004273  aa  006 162 145 143         record
    004274  aa  157 162 144 000
    004275  55   000437 000426
    004276  0a   001422 400000
    004277  55   000436 000003
    004300  aa  003 153 145 171         key
    004301  55   000444 000433
    004302  0a   001413 400000
    004303  55   000442 000003
    004304  aa  007 145 156 144         endpage
    004305  aa  160 141 147 145
    004306  55   000452 000437
    004307  0a   001404 400000
    004310  55   000447 000003
    004311  aa  012 143 157 156         conversion
    004312  aa  166 145 162 163
    004313  aa  151 157 156 000
    004314  55   000457 000444
    004315  0a   001375 400000
    004316  55   000455 000003
    004317  aa  004 163 151 172         size
    004320  aa  145 000 000 000
    004321  55   000466 000452
    004322  0a   001366 400000
    004323  55   000462 000003
    004324  aa  015 165 156 144         undefinedfile
    004325  aa  145 146 151 156
    004326  aa  145 144 146 151
    004327  aa  154 145 000 000
    004330  55   000473 000457
    004331  0a   001357 400000
    004332  55   000471 000003
    004333  aa  007 145 156 144         endfile
    004334  aa  146 151 154 145
    004335  55   000500 000466
    004336  0a   001350 400000
    004337  55   000476 000003
    004340  aa  007 163 164 157         storage
    004341  aa  162 141 147 145
    004342  55   000505 000473
    004343  0a   001341 400000
    004344  55   000503 000003
    004345  aa  004 141 162 145         area
    004346  aa  141 000 000 000
    004347  55   000512 000500
    004350  0a   001332 400000
    004351  55   000510 000003
    004352  aa  005 145 162 162         error
    004353  aa  157 162 000 000
    004354  55   000520 000505
    004355  0a   001323 400000
    004356  55   000515 000003
    004357  aa  012 163 165 142         sub_error_
    004360  aa  137 145 162 162
    004361  aa  157 162 137 000
    004362  55   000531 000512
    004363  0a   001314 400000
    004364  55   000523 000003
    004365  aa  025 141 143 164         active_function_error
    004366  aa  151 166 145 137
    004367  aa  146 165 156 143
    004370  aa  164 151 157 156
    004371  aa  137 145 162 162
    004372  aa  157 162 000 000
    004373  55   000541 000520
    004374  0a   001305 400000
    004375  55   000534 000003
    004376  aa  023 143 157 155         command_query_error
    004377  aa  155 141 156 144
    004400  aa  137 161 165 145
    004401  aa  162 171 137 145
    004402  aa  162 162 157 162
    004403  55   000550 000531
    004404  0a   001276 400000
    004405  55   000544 000003
    004406  aa  016 143 157 155         command_abort_
    004407  aa  155 141 156 144
    004410  aa  137 141 142 157
    004411  aa  162 164 137 000
    004412  55   000555 000541
    004413  0a   000000 400000
    004414  55   000553 000003
    004415  aa  007 146 157 162         formats
    004416  aa  155 141 164 163
    004417  55   000002 000550
    004420  6a   000000 400002
    004421  55   000560 000003
    004422  aa  014 163 171 155         symbol_table
    004423  aa  142 157 154 137
    004424  aa  164 141 142 154
    004425  aa  145 000 000 000

DEFINITIONS HASH TABLE

    004426  aa   000000 000131
    004427  5a   000157 000000
    004430  5a   000225 000000
    004431  5a   000330 000000
    004432  5a   000531 000000
    004433  5a   000555 000000
    004434  5a   000550 000000
    004435  aa   000000 000000
    004436  aa   000000 000000
    004437  aa   000000 000000
    004440  aa   000000 000000
    004441  aa   000000 000000
    004442  aa   000000 000000
    004443  aa   000000 000000
    004444  aa   000000 000000
    004445  5a   000177 000000
    004446  5a   000505 000000
    004447  5a   000512 000000
    004450  aa   000000 000000
    004451  5a   000541 000000
    004452  5a   000025 000000
    004453  5a   000053 000000
    004454  5a   000066 000000
    004455  5a   000452 000000
    004456  5a   000426 000000
    004457  aa   000000 000000
    004460  5a   000130 000000
    004461  5a   000167 000000
    004462  5a   000374 000000
    004463  aa   000000 000000
    004464  aa   000000 000000
    004465  5a   000244 000000
    004466  aa   000000 000000
    004467  5a   000433 000000
    004470  5a   000270 000000
    004471  aa   000000 000000
    004472  aa   000000 000000
    004473  aa   000000 000000
    004474  5a   000216 000000
    004475  5a   000045 000000
    004476  5a   000276 000000
    004477  5a   000340 000000
    004500  aa   000000 000000
    004501  5a   000347 000000
    004502  5a   000304 000000
    004503  5a   000473 000000
    004504  aa   000000 000000
    004505  5a   000366 000000
    004506  aa   000000 000000
    004507  5a   000252 000000
    004510  aa   000000 000000
    004511  5a   000034 000000
    004512  5a   000076 000000
    004513  5a   000112 000000
    004514  5a   000261 000000
    004515  5a   000403 000000
    004516  5a   000420 000000
    004517  aa   000000 000000
    004520  5a   000356 000000
    004521  aa   000000 000000
    004522  5a   000060 000000
    004523  aa   000000 000000
    004524  5a   000204 000000
    004525  5a   000121 000000
    004526  5a   000437 000000
    004527  5a   000466 000000
    004530  aa   000000 000000
    004531  aa   000000 000000
    004532  aa   000000 000000
    004533  5a   000211 000000
    004534  5a   000312 000000
    004535  5a   000012 000000
    004536  5a   000444 000000
    004537  5a   000321 000000
    004540  aa   000000 000000
    004541  5a   000140 000000
    004542  5a   000147 000000
    004543  aa   000000 000000
    004544  aa   000000 000000
    004545  5a   000457 000000
    004546  5a   000520 000000
    004547  5a   000500 000000
    004550  aa   000000 000000
    004551  aa   000000 000000
    004552  aa   000000 000000
    004553  aa   000000 000000
    004554  5a   000412 000000
    004555  aa   000000 000000
    004556  5a   000235 000000
    004557  5a   000104 000000

NO EXTERNAL NAMES

NO TRAP POINTER WORDS

TYPE PAIR BLOCKS

    004560  aa   000001 000000
    004561  aa   000000 000000

INTERNAL EXPRESSION WORDS

LINKAGE INFORMATION

    000000  aa   000000 000000
    000001  0a   003642 000000
    000002  aa   000000 000000
    000003  aa   000000 000000
    000004  aa   000000 000000
    000005  aa   000000 000000
    000006  22   000010 000010
    000007  a2   000000 000000
SYMBOL INFORMATION

SYMBOL TABLE HEADER

    000000  aa   000000 000001
    000001  aa   163171 155142
    000002  aa   164162 145145
    000003  aa   000000 000010
    000004  aa   000000 117244
    000005  aa   361023 525721
    000006  aa   000000 117547
    000007  aa   246107 304250
    000010  aa   141154 155040
    000011  aa   040040 040040
    000012  aa   000024 000040
    000013  aa   000034 000040
    000014  aa   000044 000100
    000015  aa   000002 000002
    000016  aa   000064 000000
    000017  aa   000000 000456
    000020  aa   000000 000126
    000021  aa   000345 000342
    000022  aa   000447 000126
    000023  aa   000064 000000
    000024  aa   101114 115040
    000025  aa   126145 162163
    000026  aa   151157 156040
    000027  aa   070056 061064
    000030  aa   040115 141162
    000031  aa   143150 040061
    000032  aa   071070 071040
    000033  aa   040040 040040
    000034  aa   110151 162156
    000035  aa   145151 163145
    000036  aa   156056 123171
    000037  aa   163115 141151
    000040  aa   156164 056141
    000041  aa   040040 040040
    000042  aa   040040 040040
    000043  aa   040040 040040
    000044  aa   055164 141162
    000045  aa   147145 164040
    000046  aa   154066 070040
    000047  aa   040040 040040
    000050  aa   040040 040040
    000051  aa   040040 040040
    000052  aa   040040 040040
    000053  aa   040040 040040
    000054  aa   040040 040040
    000055  aa   040040 040040
    000056  aa   040154 151163
    000057  aa   164040 163171
    000060  aa   155142 157154
    000061  aa   163040 040040
    000062  aa   040040 040040
    000063  aa   040040 040040
    000064  aa   000000 000001
    000065  aa   000000 000002
    000066  aa   000076 000063
    000067  aa   175453 022250
    000070  aa   000000 117547
    000071  aa   216634 000000
    000072  aa   000113 000051
    000073  aa   101731 555530
    000074  aa   000000 110173
    000075  aa   610610 000000
    000076  aa   076163 160145          >special_ldd>install>MR12.3-1114>message_table_.alm
    000077  aa   143151 141154
    000100  aa   137154 144144
    000101  aa   076151 156163
    000102  aa   164141 154154
    000103  aa   076115 122061
    000104  aa   062056 063055
    000105  aa   061061 061064
    000106  aa   076155 145163
    000107  aa   163141 147145
    000110  aa   137164 141142
    000111  aa   154145 137056
    000112  aa   141154 155040
    000113  aa   076154 144144          >ldd>include>message_table_entry.incl.alm
    000114  aa   076151 156143
    000115  aa   154165 144145
    000116  aa   076155 145163
    000117  aa   163141 147145
    000120  aa   137164 141142
    000121  aa   154145 137145
    000122  aa   156164 162171
    000123  aa   056151 156143
    000124  aa   154056 141154
    000125  aa   155040 040040
               MULTICS ASSEMBLY CROSS REFERENCE LISTING

   Value        Symbol                   Source file   Line number

        2062    .._00001                 message_table_:     152.
        2067    .._00003                 message_table_:     152.
        2100    .._00006                 message_table_:     156.
        2106    .._00010                 message_table_:     156.
        2131    .._00011                 message_table_:     156.
        2154    .._00025                 message_table_:     162.
        2161    .._00032                 message_table_:     166.
        2166    .._00034                 message_table_:     166.
        2204    .._00035                 message_table_:     166.
        2223    .._00037                 message_table_:     168.
        2231    .._00044                 message_table_:     170.
        2237    .._00051                 message_table_:     172.
        2246    .._00056                 message_table_:     175.
        2253    .._00060                 message_table_:     175.
        2300    .._00063                 message_table_:     177.
        2306    .._00070                 message_table_:     179.
        2314    .._00075                 message_table_:     181.
        2321    .._00102                 message_table_:     183.
        2326    .._00107                 message_table_:     186.
        2334    .._00111                 message_table_:     186.
        2363    .._00114                 message_table_:     189.
        2372    .._00116                 message_table_:     189.
        2414    .._00121                 message_table_:     192.
        2423    .._00123                 message_table_:     192.
        2437    .._00126                 message_table_:     194.
        2444    .._00127                 message_table_:     194.
        2450    .._00133                 message_table_:     196.
        2453    .._00145                 message_table_:     200.
        2467    .._00152                 message_table_:     202.
        2474    .._00157                 message_table_:     204.
        2500    .._00160                 message_table_:     204.
        2504    .._00164                 message_table_:     206.
        2510    .._00166                 message_table_:     206.
        2531    .._00170                 message_table_:     208.
        2522    .._00171                 message_table_:     208.
        2547    .._00175                 message_table_:     210.
        2541    .._00176                 message_table_:     210.
        2565    .._00202                 message_table_:     212.
        2556    .._00203                 message_table_:     212.
        2604    .._00207                 message_table_:     214.
        2574    .._00210                 message_table_:     214.
        2623    .._00214                 message_table_:     216.
        2613    .._00215                 message_table_:     216.
        2660    .._00221                 message_table_:     219.
        2633    .._00222                 message_table_:     219.
        2641    .._00223                 message_table_:     219.
        2645    .._00224                 message_table_:     219.
        2671    .._00227                 message_table_:     221.
        2677    .._00231                 message_table_:     221.
        2710    .._00234                 message_table_:     223.
        2717    .._00235                 message_table_:     223.
        2723    .._00241                 message_table_:     225.
        2734    .._00242                 message_table_:     225.
        2741    .._00246                 message_table_:     228.
        2747    .._00247                 message_table_:     228.
        2764    .._00253                 message_table_:     230.
        2771    .._00254                 message_table_:     230.
        2775    .._00260                 message_table_:     234.
        3003    .._00261                 message_table_:     234.
        3007    .._00262                 message_table_:     234.
        3025    .._00263                 message_table_:     234.
        3114    .._00264                 message_table_:     238.
        3041    .._00265                 message_table_:     238.
        3046    .._00266                 message_table_:     238.
        3052    .._00267                 message_table_:     238.
        3072    .._00270                 message_table_:     238.
        3122    .._00272                 message_table_:     241.
        3133    .._00273                 message_table_:     241.
        3137    .._00274                 message_table_:     241.
        3162    .._00277                 message_table_:     244.
        3173    .._00300                 message_table_:     244.
        3177    .._00301                 message_table_:     244.
        3220    .._00304                 message_table_:     247.
        3231    .._00305                 message_table_:     247.
        3235    .._00306                 message_table_:     247.
        3325    .._00315                 message_table_:     253.
        3256    .._00316                 message_table_:     253.
        3267    .._00317                 message_table_:     253.
        3273    .._00320                 message_table_:     253.
        3311    .._00321                 message_table_:     253.
        3337    .._00323                 message_table_:     255.
        3344    .._00324                 message_table_:     255.
        3375    .._00327                 message_table_:     258.
        3350    .._00330                 message_table_:     258.
        3356    .._00331                 message_table_:     258.
        3405    .._00335                 message_table_:     261.
        3412    .._00336                 message_table_:     261.
        3416    .._00337                 message_table_:     261.
        3430    .._00342                 message_table_:     264.
        3437    .._00343                 message_table_:     264.
        3443    .._00344                 message_table_:     264.
        3461    .._00347                 message_table_:     266.
        3512    .._00353                 message_table_:     269.
        3465    .._00354                 message_table_:     269.
        3471    .._00355                 message_table_:     269.
        3475    .._00356                 message_table_:     269.
        3521    .._00361                 message_table_:     271.
        3524    .._00366                 message_table_:     273.
        3530    .._00367                 message_table_:     273.
        3534    .._00373                 message_table_:     276.
        3543    .._00375                 message_table_:     276.
        3572    .._00377                 message_table_:     278.
        3625    .._00404                 message_table_:     281.
        3602    .._00405                 message_table_:     281.
        3606    .._00406                 message_table_:     281.
        1611    accessviolation          message_table_:     219.
        1314    active_function_error    message_table_:     158.
        1341    area                     message_table_:     166.
        1717    bad_outward_call         message_table_:     247.
        1663    command                  message_table_:     234.
        1276    command_abort_           message_table_:     152.
        1305    command_query_error      message_table_:     156.
        1404    conversion               message_table_:     177.
        1735    cross_ring_transfer      message_table_:     253.
        2061    data                     message_table_:      99,  100,  105,  152,  156,  162,  166,  168,  170,  172,  175,
                                                             177,  179,  181,  183,  186,  189,  192,  194,  196,  200,  202,
                                                             204,  206,  208,  210,  212,  214,  216,  219,  221,  223,  225,
                                                             228,  230,  234,  238,  241,  244,  247,  253,  255,  258,  261,
                                                             264,  266,  269,  271,  273,  276,  278,  281.
        1357    endfile                  message_table_:     170.
        1413    endpage                  message_table_:     179.
        1332    error                    message_table_:     162.
        1762    fault_tag_1              message_table_:     261.
        1546    fixedoverflow            message_table_:     208.
           0    formats                  message_table_:     109,  110.
        2043    fortran_pause            message_table_:     278.
        1620    gate_err                 message_table_:     221.
        1530    hard_default_info        message_table_:     204.
        1701    illegal_modifier         message_table_:     241.
        1602    illegal_opcode           message_table_:     216.
        1503    illegal_procedure        message_table_:     198.
        1753    illegal_return           message_table_:     258.
        1710    illegal_ring_order       message_table_:     244.
        1726    inward_return            message_table_:     249.
        1474    io_error                 message_table_:     196.
        1422    key                      message_table_:     181.
        1465    linkage_error            message_table_:     194.
        1672    lockup                   message_table_:     238.
        2025    lot_fault                message_table_:     273.
        2052    malformed_list_template_entry_       message_table_:     281.
           0    mte.action_ind           message_table_entry:       29.
      100000    mte.active_func          message_table_:     158,
                                         message_table_entry:       21.
           6    mte.cond_id_relp         message_table_entry:       49.
        4000    mte.cur_inst             message_table_:     200,  216,
                                         message_table_entry:       37.
       20000    mte.endpage              message_table_:     179,
                                         message_table_entry:       35.
           1    mte.format_x             message_table_entry:       45.
        1000    mte.gaterr               message_table_:     221,
                                         message_table_entry:       38.
           0    mte.group                message_table_entry:       18.
         400    mte.ignore               message_table_:     168,
                                         message_table_entry:       27.
       10000    mte.io_err               message_table_:     196,
                                         message_table_entry:       24.
       10000    mte.linkerr              message_table_:     194,
                                         message_table_entry:       36.
          20    mte.lotfault             message_table_:     273,
                                         message_table_entry:       43.
      400000    mte.no_special           message_table_:     152,  156,  158,  162,  196,  202,  204,  206,  219,  228,  234,
                                                             238,  241,  244,  247,  249,  253,  258,  261,  264,  266,  269,
                                                             271,  276,  278,  281,
                                         message_table_entry:       31.
       40000    mte.no_tpr               message_table_:     152,  160,  162,  166,  170,  172,  175,  177,  179,  181,  183,
                                                             186,  189,  192,  200,  206,  208,  210,  212,  214,  216,  228,
                                                             258,  266,  271,  276,  278,  281,
                                         message_table_entry:       22.
          40    mte.outbounds            message_table_:     255,
                                         message_table_entry:       42.
         200    mte.pagerr               message_table_:     225,
                                         message_table_entry:       40.
      200000    mte.query_error          message_table_:     156,
                                         message_table_entry:       20.
         400    mte.segferr              message_table_:     223,
                                         message_table_entry:       39.
      100000    mte.sig_error            message_table_:     166,  168,  170,  172,  175,  177,  181,  183,  186,  189,  192,
                                                             208,  210,  212,  214,
                                         message_table_entry:       33.
       40000    mte.storage              message_table_:     168,
                                         message_table_entry:       34.
         100    mte.store                message_table_:     230,
                                         message_table_entry:       41.
           2    mte.string_relp          message_table_entry:       47.
      200000    mte.sub_err              message_table_:     160,
                                         message_table_entry:       32.
        4000    mte.undefined            message_table_:     198,
                                         message_table_entry:       25.
        2000    mte.unwind_err           message_table_:     202,
                                         message_table_entry:       26.
       20000    mte.with_tpr             message_table_:     194,  204,  219,  221,  223,  225,  230,  234,  238,  241,  244,
                                                             247,  249,  253,  255,  261,  264,  269,  273,
                                         message_table_entry:       23.
           7    mte_size                 message_table_entry:       15.
        2007    not_a_gate               message_table_:     269.
        2061    nullp                    message_table_:     106,  152,  156,  158,  160,  162,  166,  168,  170,  172,  175,
                                                             177,  179,  181,  183,  186,  189,  192,  194,  196,  198,  200,
                                                             202,  204,  206,  208,  210,  212,  214,  216,  219,  221,  223,
                                                             225,  228,  230,  234,  241,  244,  247,  249,  255,  258,  261,
                                                             264,  266,  269,  271,  273,  276,  278,  281.
        1537    null_pointer             message_table_:     206.
        1645    op_not_complete          message_table_:     228.
        1744    out_of_bounds            message_table_:     255.
        1555    overflow                 message_table_:     210.
        1636    page_fault_error         message_table_:     225.
        1512    privileged_info          message_table_:     200.
        2016    quit                     message_table_:     271.
        1431    record                   message_table_:     183.
        2034    return_conversion_error  message_table_:     276.
        1627    seg_fault_error          message_table_:     223.
        1375    size                     message_table_:     175.
        2000    soft_default_info        message_table_:     266.
        1350    storage                  message_table_:     168.
        1654    store                    message_table_:     230.
        1447    stringrange              message_table_:     189.
        1456    subscriptrange           message_table_:     192.
        1323    sub_error_               message_table_:     160.
           0    text                     message_table_:      98,  100,  107,  152,  156,  162,  166,  168,  170,  172,  175,
                                                             177,  179,  181,  183,  186,  189,  192,  194,  196,  200,  202,
                                                             204,  206,  208,  210,  212,  214,  216,  219,  221,  223,  225,
                                                             228,  230,  234,  238,  241,  244,  247,  253,  255,  258,  261,
                                                             264,  266,  269,  271,  273,  276,  278,  281.
        1440    transmit                 message_table_:     186.
        1771    truncation               message_table_:     264.
        1366    undefinedfile            message_table_:     172.
        1564    underflow                message_table_:     212.
        1521    unwinder_error           message_table_:     202.
        1573    zerodivide               message_table_:     214.


NO FATAL ERRORS


                                          -----------------------------------------------------------


Historical Background

This edition of the Multics software materials and documentation is provided and donated
to Massachusetts Institute of Technology by Group BULL including BULL HN Information Systems Inc.
as a contribution to computer science knowledge.
This donation is made also to give evidence of the common contributions of Massachusetts Institute of Technology,
Bell Laboratories, General Electric, Honeywell Information Systems Inc., Honeywell BULL Inc., Groupe BULL
and BULL HN Information Systems Inc. to the development of this operating system.
Multics development was initiated by Massachusetts Institute of Technology Project MAC (1963-1970),
renamed the MIT Laboratory for Computer Science and Artificial Intelligence in the mid 1970s, under the leadership
of Professor Fernando Jose Corbato. Users consider that Multics provided the best software architecture
for managing computer hardware properly and for executing programs. Many subsequent operating systems
incorporated Multics principles.
Multics was distributed in 1975 to 2000 by Group Bull in Europe , and in the U.S. by Bull HN Information Systems Inc.,
as successor in interest by change in name only to Honeywell Bull Inc. and Honeywell Information Systems Inc. .

                                          -----------------------------------------------------------

Permission to use, copy, modify, and distribute these programs and their documentation for any purpose and without
fee is hereby granted,provided that the below copyright notice and historical background appear in all copies
and that both the copyright notice and historical background and this permission notice appear in supporting
documentation, and that the names of MIT, HIS, BULL or BULL HN not be used in advertising or publicity pertaining
to distribution of the programs without specific prior written permission.
    Copyright 1972 by Massachusetts Institute of Technology and Honeywell Information Systems Inc.
    Copyright 2006 by BULL HN Information Systems Inc.
    Copyright 2006 by Bull SAS
    All Rights Reserved
