ASSEMBLY LISTING OF SEGMENT >spec>install>1110>mrl_.alm
ASSEMBLED ON:	11/11/89  0943.3 mst Sat
OPTIONS USED:	-target l68                              list symbols
ASSEMBLED BY:	ALM Version 8.14 March 1989
ASSEMBLER CREATED:	06/09/89  1002.3 mst Fri

                                     1  " ***********************************************************
                                     2  " *                                                         *
                                     3  " * Copyright, (C) Honeywell Bull Inc., 1987                *
                                     4  " *                                                         *
                                     5  " * Copyright, (C) Honeywell Information Systems Inc., 1983 *
                                     6  " *                                                         *
                                     7  " ***********************************************************
                                     8
                                     9  " Subroutine interface to the MRL and MLR instructions
                                    10
                                    11  " Created:  11 January 1983 by G. Palter
                                    12
    000000                          13  	name	mrl_
                                    14
                                    15
                                    16  " mrl_: Moves a character string copying the characters from right-to-left
                                    17
                                    18  "	dcl  mrl_ entry (ptr, fixed bin(21), ptr, fixed bin(21));
                                    19  "	call mrl_ (input_ptr, input_lth, output_ptr, output_lth);
                                    20
                        000000      21  	entry	mrl_
                                    22
    000000  aa  0 00002 3515 20     23  mrl_:	epp1	ap|2,*			" get input_ptr
    000001  aa  1 00000 3515 20     24  	epp1	pr1|0,*
    000002  aa  0 00004 2351 20     25  	lda	ap|4,*			" get input_lth
                                    26
    000003  aa  0 00006 3521 20     27  	epp2	ap|6,*			" get output_ptr
    000004  aa  2 00000 3521 20     28  	epp2	pr2|0,*
    000005  aa  0 00010 2361 20     29  	ldq	ap|8,*			" get output_lth
                                    30
    000006  aa  0 40140 1015 40     31  	mrl	(pr,rl),(pr,rl),fill(040)	" do it
    000007  aa   100000 000005      32  	desc9a	pr1|0,al
    000010  aa   200000 000006      33  	desc9a	pr2|0,ql
                                    34
    000011  aa  7 00044 7101 20     35  	short_return
                                    36
                                    37
                                    38
                                    39  " mlr_: Moves a character string copying the characters from left-to-right
                                    40
                                    41  "	dcl  mlr_ entry (ptr, fixed bin(21), ptr, fixed bin(21));
                                    42  "	call mlr_ (input_ptr, input_lth, output_ptr, output_lth);
                                    43
                        000012      44  	entry	mlr_
                                    45
    000012  aa  0 00002 3515 20     46  mlr_:	epp1	ap|2,*			" get input_ptr
    000013  aa  1 00000 3515 20     47  	epp1	pr1|0,*
    000014  aa  0 00004 2351 20     48  	lda	ap|4,*			" get input_lth
                                    49
    000015  aa  0 00006 3521 20     50  	epp2	ap|6,*			" get output_ptr
    000016  aa  2 00000 3521 20     51  	epp2	pr2|0,*
    000017  aa  0 00010 2361 20     52  	ldq	ap|8,*			" get output_lth
                                    53
    000020  aa  0 40140 1005 40     54  	mlr	(pr,rl),(pr,rl),fill(040)	" do it
    000021  aa   100000 000005      55  	desc9a	pr1|0,al
    000022  aa   200000 000006      56  	desc9a	pr2|0,ql
                                    57
    000023  aa  7 00044 7101 20     58  	short_return
                                    59
                                    60  	end
ENTRY SEQUENCES

    000024  5a   000015 0000 00
    000025  aa  7 00046 2721 20
    000026  0a   000000 7100 00
    000027  5a   000010 0000 00
    000030  aa  7 00046 2721 20
    000031  0a   000012 7100 00

NO LITERALS

NAME DEFINITIONS FOR ENTRY POINTS AND SEGDEFS

    000032  5a   000003 000000
    000033  5a   000031 600000
    000034  aa   000000 000000
    000035  55   000010 000002
    000036  5a   000002 400003
    000037  55   000006 000010
    000040  aa  004 155 162 154
    000041  aa  137 000 000 000
    000042  55   000015 000003
    000043  0a   000030 500000
    000044  55   000013 000003
    000045  aa  004 155 154 162         mlr_
    000046  aa  137 000 000 000
    000047  55   000022 000010
    000050  0a   000025 500000
    000051  55   000020 000003
    000052  aa  004 155 162 154         mrl_
    000053  aa  137 000 000 000
    000054  55   000002 000015
    000055  6a   000000 400002
    000056  55   000025 000003
    000057  aa  014 163 171 155         symbol_table
    000060  aa  142 157 154 137
    000061  aa  164 141 142 154
    000062  aa  145 000 000 000

DEFINITIONS HASH TABLE

    000063  aa   000000 000015
    000064  aa   000000 000000
    000065  aa   000000 000000
    000066  aa   000000 000000
    000067  5a   000015 000000
    000070  aa   000000 000000
    000071  5a   000010 000000
    000072  5a   000022 000000
    000073  aa   000000 000000
    000074  aa   000000 000000
    000075  aa   000000 000000
    000076  aa   000000 000000
    000077  aa   000000 000000
    000100  aa   000000 000000

NO EXTERNAL NAMES

NO TRAP POINTER WORDS

TYPE PAIR BLOCKS

    000101  aa   000001 000000
    000102  aa   000000 000000

INTERNAL EXPRESSION WORDS

    000103  aa   000000 000000
LINKAGE INFORMATION

    000000  aa   000000 000000
    000001  0a   000032 000000
    000002  aa   000000 000000
    000003  aa   000000 000000
    000004  aa   000000 000000
    000005  aa   000000 000000
    000006  22   000010 000010
    000007  a2   000000 000000
SYMBOL INFORMATION

SYMBOL TABLE HEADER

    000000  aa   000000 000001
    000001  aa   163171 155142
    000002  aa   164162 145145
    000003  aa   000000 000010
    000004  aa   000000 117244
    000005  aa   361023 525721
    000006  aa   000000 117547
    000007  aa   252570 456175
    000010  aa   141154 155040
    000011  aa   040040 040040
    000012  aa   000024 000040
    000013  aa   000034 000040
    000014  aa   000044 000100
    000015  aa   000002 000002
    000016  aa   000064 000000
    000017  aa   000000 000126
    000020  aa   000000 000101
    000021  aa   000110 000105
    000022  aa   000120 000101
    000023  aa   000064 000000
    000024  aa   101114 115040
    000025  aa   126145 162163
    000026  aa   151157 156040
    000027  aa   070056 061064
    000030  aa   040115 141162
    000031  aa   143150 040061
    000032  aa   071070 071040
    000033  aa   040040 040040
    000034  aa   110151 162156
    000035  aa   145151 163145
    000036  aa   156056 123171
    000037  aa   163115 141151
    000040  aa   156164 056141
    000041  aa   040040 040040
    000042  aa   040040 040040
    000043  aa   040040 040040
    000044  aa   055164 141162
    000045  aa   147145 164040
    000046  aa   154066 070040
    000047  aa   040040 040040
    000050  aa   040040 040040
    000051  aa   040040 040040
    000052  aa   040040 040040
    000053  aa   040040 040040
    000054  aa   040040 040040
    000055  aa   040040 040040
    000056  aa   040154 151163
    000057  aa   164040 163171
    000060  aa   155142 157154
    000061  aa   163040 040040
    000062  aa   040040 040040
    000063  aa   040040 040040
    000064  aa   000000 000001
    000065  aa   000000 000001
    000066  aa   000072 000033
    000067  aa   175453 020003
    000070  aa   000000 117547
    000071  aa   176456 200000
    000072  aa   076163 160145          >spec>install>1110>mrl_.alm
    000073  aa   143076 151156
    000074  aa   163164 141154
    000075  aa   154076 061061
    000076  aa   061060 076155
    000077  aa   162154 137056
    000100  aa   141154 155040
               MULTICS ASSEMBLY CROSS REFERENCE LISTING

   Value        Symbol                   Source file   Line number

          12    mlr_                     mrl_:          44,   46.
           0    mrl_                     mrl_:          21,   23.


NO FATAL ERRORS


                                          -----------------------------------------------------------


Historical Background

This edition of the Multics software materials and documentation is provided and donated
to Massachusetts Institute of Technology by Group BULL including BULL HN Information Systems Inc.
as a contribution to computer science knowledge.
This donation is made also to give evidence of the common contributions of Massachusetts Institute of Technology,
Bell Laboratories, General Electric, Honeywell Information Systems Inc., Honeywell BULL Inc., Groupe BULL
and BULL HN Information Systems Inc. to the development of this operating system.
Multics development was initiated by Massachusetts Institute of Technology Project MAC (1963-1970),
renamed the MIT Laboratory for Computer Science and Artificial Intelligence in the mid 1970s, under the leadership
of Professor Fernando Jose Corbato. Users consider that Multics provided the best software architecture
for managing computer hardware properly and for executing programs. Many subsequent operating systems
incorporated Multics principles.
Multics was distributed in 1975 to 2000 by Group Bull in Europe , and in the U.S. by Bull HN Information Systems Inc.,
as successor in interest by change in name only to Honeywell Bull Inc. and Honeywell Information Systems Inc. .

                                          -----------------------------------------------------------

Permission to use, copy, modify, and distribute these programs and their documentation for any purpose and without
fee is hereby granted,provided that the below copyright notice and historical background appear in all copies
and that both the copyright notice and historical background and this permission notice appear in supporting
documentation, and that the names of MIT, HIS, BULL or BULL HN not be used in advertising or publicity pertaining
to distribution of the programs without specific prior written permission.
    Copyright 1972 by Massachusetts Institute of Technology and Honeywell Information Systems Inc.
    Copyright 2006 by BULL HN Information Systems Inc.
    Copyright 2006 by Bull SAS
    All Rights Reserved
