ASSEMBLY LISTING OF SEGMENT >dumps>old>h>ncp_params_.alm
ASSEMBLED ON:	07/02/84  1145.4 mst Mon
OPTIONS USED:	list
ASSEMBLED BY:	ALM Version  6.6  November 1982
ASSEMBLER CREATED:	09/21/83  1227.3 mst Wed

                                     1  " ***********************************************************
                                     2  " *                                                         *
                                     3  " * Copyright, (C) Honeywell Information Systems Inc., 1982 *
                                     4  " *                                                         *
                                     5  " * Copyright (c) 1972 by Massachusetts Institute of        *
                                     6  " * Technology and Honeywell Information Systems, Inc.      *
                                     7  " *                                                         *
                                     8  " ***********************************************************
                                     9
                                    10
    000000                          11            name      ncp_params_
                                    12
                                    13  " " " " " " " " " " " " " " " " " " " " " " " " " " " " " " " " " " " " " " " "
                                    14  "
                                    15  "      ncp_params_ -- a read-only params base for the NCP.  This module contains
                                    16  " constants that might be changed from one version of the NCP to the next
                                    17  " for informational or strategical purposes.
                                    18  "
                                    19  " Originally created by D. M. Wells, Feb. 1976.
                                    20  "
                                    21  " " " " " " " " " " " " " " " " " " " " " " " " " " " " " " " " " " " " " " " "
                                    22
                        000004      23            segdef    interrupt_signal
                        000005      24            segdef    max_bit_allocation
                        000006      25            segdef    max_msg_allocation
                        000007      26            segdef    min_bit_allocation
                        000010      27            segdef    min_msg_allocation
                        000011      28            segdef    syserr_net_down
                        000013      29            segdef    syserr_report_event
                        000012      30            segdef    syserr_report_error
                        000000      31            segdef    timeout_period
                        000002      32            segdef    version_number
                        000003      33            segdef    wait_event
                                    34
                                    35  " " " " " " " " " " " " " " " " " " " " " " " " " " " " " " " " " " " " " " " "
                                    36
                                    37            even
    000000                          38  timeout_period:
    000000  aa   000000 000000      39            dec       0,900000000                   " 15 minutes
    000001  aa   006551 164400
                                    40
    000002                          41  version_number:
    000002  aa   000000 000005      42            dec       5
                                    43
    000003                          44  wait_event:
    000003  aa   000000 000114      45            dec       76
                                    46
    000004                          47  interrupt_signal:
    000004  aa  156 145 164 151     48            aci       "neti",4
                                    49
    000005                          50  max_bit_allocation:
    000005  aa   000000 200000      51            dec       65536                         " just small enough to keep TIP happy
                                    52
    000006                          53  max_msg_allocation:
    000006  aa   000000 000200      54            dec       128                           " a random number that causes the
                                    55                                                    "    detection code working
                                    56
    000007                          57  min_bit_allocation:
    000007  aa   000000 077777      58            dec       32767                         " 1 half of the max bit_allocation
                                    59
    000010                          60  min_msg_allocation:
    000010  aa   000000 000037      61            dec       31                            " 1/4-th of the max msg allocation
                                    62
    000011                          63  syserr_net_down:
    000011  aa   000000 000000      64            dec       0                             " report net forced down on console
                                    65
    000012                          66  syserr_report_error:
    000012  aa   000000 000004      67            dec       4                             " just keep errors in the log
                                    68
    000013                          69  syserr_report_event:
    000013  aa   000000 000004      70            dec       4                             " just remember events in the log
                                    71
                                    72  " " " " " " " " " " " " " " " " " " " " " " " " " " " " " " " " " " " " " " " "
                                    73
                                    74            end

NO LITERALS

NAME DEFINITIONS FOR ENTRY POINTS AND SEGDEFS

    000014  5a   000003 000000
    000015  5a   000143 600000
    000016  aa   000000 000000
    000017  55   000011 000002
    000020  5a   000002 400003
    000021  55   000006 000011
    000022  aa  013 156 143 160
    000023  aa  137 160 141 162
    000024  aa  141 155 163 137
    000025  55   000017 000003
    000026  0a   000003 400000
    000027  55   000014 000003
    000030  aa  012 167 141 151         wait_event
    000031  aa  164 137 145 166
    000032  aa  145 156 164 000
    000033  55   000026 000011
    000034  0a   000002 400000
    000035  55   000022 000003
    000036  aa  016 166 145 162         version_number
    000037  aa  163 151 157 156
    000040  aa  137 156 165 155
    000041  aa  142 145 162 000
    000042  55   000035 000017
    000043  0a   000000 400000
    000044  55   000031 000003
    000045  aa  016 164 151 155         timeout_period
    000046  aa  145 157 165 164
    000047  aa  137 160 145 162
    000050  aa  151 157 144 000
    000051  55   000045 000026
    000052  0a   000012 400000
    000053  55   000040 000003
    000054  aa  023 163 171 163         syserr_report_error
    000055  aa  145 162 162 137
    000056  aa  162 145 160 157
    000057  aa  162 164 137 145
    000060  aa  162 162 157 162
    000061  55   000055 000035
    000062  0a   000013 400000
    000063  55   000050 000003
    000064  aa  023 163 171 163         syserr_report_event
    000065  aa  145 162 162 137
    000066  aa  162 145 160 157
    000067  aa  162 164 137 145
    000070  aa  166 145 156 164
    000071  55   000064 000045
    000072  0a   000011 400000
    000073  55   000060 000003
    000074  aa  017 163 171 163         syserr_net_down
    000075  aa  145 162 162 137
    000076  aa  156 145 164 137
    000077  aa  144 157 167 156
    000100  55   000074 000055
    000101  0a   000010 400000
    000102  55   000067 000003
    000103  aa  022 155 151 156         min_msg_allocation
    000104  aa  137 155 163 147
    000105  aa  137 141 154 154
    000106  aa  157 143 141 164
    000107  aa  151 157 156 000
    000110  55   000104 000064
    000111  0a   000007 400000
    000112  55   000077 000003
    000113  aa  022 155 151 156         min_bit_allocation
    000114  aa  137 142 151 164
    000115  aa  137 141 154 154
    000116  aa  157 143 141 164
    000117  aa  151 157 156 000
    000120  55   000114 000074
    000121  0a   000006 400000
    000122  55   000107 000003
    000123  aa  022 155 141 170         max_msg_allocation
    000124  aa  137 155 163 147
    000125  aa  137 141 154 154
    000126  aa  157 143 141 164
    000127  aa  151 157 156 000
    000130  55   000124 000104
    000131  0a   000005 400000
    000132  55   000117 000003
    000133  aa  022 155 141 170         max_bit_allocation
    000134  aa  137 142 151 164
    000135  aa  137 141 154 154
    000136  aa  157 143 141 164
    000137  aa  151 157 156 000
    000140  55   000134 000114
    000141  0a   000004 400000
    000142  55   000127 000003
    000143  aa  020 151 156 164         interrupt_signal
    000144  aa  145 162 162 165
    000145  aa  160 164 137 163
    000146  aa  151 147 156 141
    000147  aa  154 000 000 000
    000150  55   000002 000124
    000151  6a   000000 400002
    000152  55   000137 000003
    000153  aa  014 163 171 155         symbol_table
    000154  aa  142 157 154 137
    000155  aa  164 141 142 154
    000156  aa  145 000 000 000

DEFINITIONS HASH TABLE

    000157  aa   000000 000015
    000160  5a   000124 000000
    000161  aa   000000 000000
    000162  5a   000017 000000
    000163  5a   000035 000000
    000164  5a   000045 000000
    000165  5a   000011 000000
    000166  5a   000026 000000
    000167  5a   000064 000000
    000170  5a   000074 000000
    000171  5a   000104 000000
    000172  5a   000055 000000
    000173  5a   000114 000000
    000174  5a   000134 000000

NO EXTERNAL NAMES

NO TRAP POINTER WORDS

TYPE PAIR BLOCKS

    000175  aa   000001 000000
    000176  aa   000000 000000

INTERNAL EXPRESSION WORDS

    000177  aa   000000 000000
LINKAGE INFORMATION

    000000  aa   000000 000000
    000001  0a   000014 000000
    000002  aa   000000 000000
    000003  aa   000000 000000
    000004  aa   000000 000000
    000005  aa   000000 000000
    000006  22   000010 000010
    000007  a2   000000 000000
SYMBOL INFORMATION

SYMBOL TABLE HEADER

    000000  aa   000000 000001
    000001  aa   163171 155142
    000002  aa   164162 145145
    000003  aa   000000 000004
    000004  aa   000000 112143
    000005  aa   305203 523135
    000006  aa   000000 112711
    000007  aa   531512 463617
    000010  aa   141154 155040
    000011  aa   040040 040040
    000012  aa   000024 000040
    000013  aa   000034 000040
    000014  aa   000044 000100
    000015  aa   000002 000002
    000016  aa   000064 000000
    000017  aa   000000 000115
    000020  aa   000000 000101
    000021  aa   000000 000104
    000022  aa   000107 000101
    000023  aa   000064 000000
    000024  aa   101114 115040
    000025  aa   126145 162163
    000026  aa   151157 156040
    000027  aa   040066 056066
    000030  aa   040040 116157
    000031  aa   166145 155142
    000032  aa   145162 040061
    000033  aa   071070 062040
    000034  aa   107112 157150
    000035  aa   156163 157156
    000036  aa   056123 171163
    000037  aa   115141 151156
    000040  aa   164056 141040
    000041  aa   040040 040040
    000042  aa   040040 040040
    000043  aa   040040 040040
    000044  aa   154151 163164
    000045  aa   040040 040040
    000046  aa   040040 040040
    000047  aa   040040 040040
    000050  aa   040040 040040
    000051  aa   040040 040040
    000052  aa   040040 040040
    000053  aa   040040 040040
    000054  aa   040040 040040
    000055  aa   040040 040040
    000056  aa   040040 040040
    000057  aa   040040 040040
    000060  aa   040040 040040
    000061  aa   040040 040040
    000062  aa   040040 040040
    000063  aa   040040 040040
    000064  aa   000000 000001
    000065  aa   000000 000001
    000066  aa   000072 000034
    000067  aa   127065 644771
    000070  aa   000000 112711
    000071  aa   522412 400000
    000072  aa   076144 165155          >dumps>old>h>ncp_params_.alm
    000073  aa   160163 076157
    000074  aa   154144 076150
    000075  aa   076156 143160
    000076  aa   137160 141162
    000077  aa   141155 163137
    000100  aa   056141 154155
               MULTICS ASSEMBLY CROSS REFERENCE LISTING

   Value        Symbol                   Source file   Line number

           4    interrupt_signal         ncp_params_:   23,   47.
           5    max_bit_allocation       ncp_params_:   24,   50.
           6    max_msg_allocation       ncp_params_:   25,   53.
           7    min_bit_allocation       ncp_params_:   26,   57.
          10    min_msg_allocation       ncp_params_:   27,   60.
          11    syserr_net_down          ncp_params_:   28,   63.
          12    syserr_report_error      ncp_params_:   30,   66.
          13    syserr_report_event      ncp_params_:   29,   69.
           0    timeout_period           ncp_params_:   31,   38.
           2    version_number           ncp_params_:   32,   41.
           3    wait_event               ncp_params_:   33,   44.


NO FATAL ERRORS


                                          -----------------------------------------------------------


Historical Background

This edition of the Multics software materials and documentation is provided and donated
to Massachusetts Institute of Technology by Group BULL including BULL HN Information Systems Inc.
as a contribution to computer science knowledge.
This donation is made also to give evidence of the common contributions of Massachusetts Institute of Technology,
Bell Laboratories, General Electric, Honeywell Information Systems Inc., Honeywell BULL Inc., Groupe BULL
and BULL HN Information Systems Inc. to the development of this operating system.
Multics development was initiated by Massachusetts Institute of Technology Project MAC (1963-1970),
renamed the MIT Laboratory for Computer Science and Artificial Intelligence in the mid 1970s, under the leadership
of Professor Fernando Jose Corbato. Users consider that Multics provided the best software architecture
for managing computer hardware properly and for executing programs. Many subsequent operating systems
incorporated Multics principles.
Multics was distributed in 1975 to 2000 by Group Bull in Europe , and in the U.S. by Bull HN Information Systems Inc.,
as successor in interest by change in name only to Honeywell Bull Inc. and Honeywell Information Systems Inc. .

                                          -----------------------------------------------------------

Permission to use, copy, modify, and distribute these programs and their documentation for any purpose and without
fee is hereby granted,provided that the below copyright notice and historical background appear in all copies
and that both the copyright notice and historical background and this permission notice appear in supporting
documentation, and that the names of MIT, HIS, BULL or BULL HN not be used in advertising or publicity pertaining
to distribution of the programs without specific prior written permission.
    Copyright 1972 by Massachusetts Institute of Technology and Honeywell Information Systems Inc.
    Copyright 2006 by BULL HN Information Systems Inc.
    Copyright 2006 by Bull SAS
    All Rights Reserved
