ASSEMBLY LISTING OF SEGMENT >spec>install>1110>nonlocal_goto_.alm
ASSEMBLED ON:	11/11/89  0949.5 mst Sat
OPTIONS USED:	-target l68                              list symbols
ASSEMBLED BY:	ALM Version 8.14 March 1989
ASSEMBLER CREATED:	06/09/89  1002.3 mst Fri

                                     1  " ***********************************************************
                                     2  " *                                                         *
                                     3  " * Copyright, (C) Honeywell Bull Inc., 1987                *
                                     4  " *                                                         *
                                     5  " * Copyright, (C) Honeywell Information Systems Inc., 1982 *
                                     6  " *                                                         *
                                     7  " * Copyright (c) 1972 by Massachusetts Institute of        *
                                     8  " * Technology and Honeywell Information Systems, Inc.      *
                                     9  " *                                                         *
                                    10  " ***********************************************************
                                    11
                                    12  " UNWINDER_UTIL_ - Utility Programs for the unwinder.
                                    13  "	9/20/72 - Noel I. Morris
                                    14  " partly recoded and generalized to work with given entry pointer
                                    15  " 	5/17/73 - M. B. Weaver
                                    16  " modified to set stack ent pointer  3/10/78 - M. B. Weaver
                                    17
                                    18
    000000                          19  	name	nonlocal_goto_
                                    20
                                    21
                                    22  	include	stack_header
                                   1-1  "	BEGIN INCLUDE FILE ... stack_header.incl.alm  3/72  Bill Silver
                                   1-2  "
                                   1-3  "	modified 7/76 by M. Weaver for *system links and more system use of areas
                                   1-4  "	modified 3/77 by M. Weaver  to add rnt_ptr
                                   1-5  "	modified 7/77 by S. Webber to add run_unit_depth and assign_linkage_ptr
                                   1-6  "	modified 6/83 by J. Ives to add trace_frames and in_trace.
                                   1-7
                                   1-8  " HISTORY COMMENTS:
                                   1-9  "  1) change(86-06-24,DGHowe), approve(86-06-24,MCR7396),
                                  1-10  "     audit(86-08-05,Schroth), install(86-11-03,MR12.0-1206):
                                  1-11  "     added the heap_header_ptr definition
                                  1-12  "  2) change(86-08-12,Kissel), approve(86-08-12,MCR7473),
                                  1-13  "     audit(86-10-10,Fawcett), install(86-11-03,MR12.0-1206):
                                  1-14  "     Modified to support control point management.  These changes were
                                  1-15  "     actually made in February 1985 by G. Palter.
                                  1-16  "  3) change(86-10-22,Fawcett), approve(86-10-22,MCR7473),
                                  1-17  "     audit(86-10-22,Farley), install(86-11-03,MR12.0-1206):
                                  1-18  "     Remove the old_lot pointer and replace it with cpm_data_ptr. Use the 18
                                  1-19  "     bit pad after cur_lot_size for the cpm_enabled. This was done to save
                                  1-20  "     some space int the stack header and change the cpd_ptr unal to
                                  1-21  "     cpm_data_ptr (ITS pair).
                                  1-22  "                                                      END HISTORY COMMENTS
                                  1-23
                        000004    1-24  	equ	stack_header.cpm_data_ptr,4		ptr to control point for this stack
                        000006    1-25  	equ	stack_header.combined_stat_ptr,6	ptr to separate static area
                                  1-26
                        000010    1-27  	equ	stack_header.clr_ptr,8		ptr to area containing linkage sections
                        000012    1-28  	equ	stack_header.max_lot_size,10		number of words allowed in lot (DU)
                        000012    1-29  	equ	stack_header.main_proc_invoked,10	nonzero if main proc was invoked in run unit (DL)
                        000012    1-30  	equ	stack_header.run_unit_depth,10	number of active run units stacked (DL)
                        000013    1-31  	equ	stack_header.cur_lot_size,11		DU number of words (entries) in lot
                        000013    1-32            equ	stack_header.cpm_enabled,11		DL  non-zero if control point management is enabled
                        000014    1-33  	equ	stack_header.system_free_ptr,12	ptr to system storage area
                        000016    1-34  	equ	stack_header.user_free_ptr,14		ptr to user storage area
                                  1-35
                        000020    1-36  	equ	stack_header.parent_ptr,16		ptr to parent stack or null
                        000022    1-37  	equ	stack_header.stack_begin_ptr,18	ptr to first stack frame
                        000024    1-38  	equ	stack_header.stack_end_ptr,20		ptr to next useable stack frame
                        000026    1-39  	equ	stack_header.lot_ptr,22		ptr to the lot for the current ring
                                  1-40
                        000030    1-41  	equ	stack_header.signal_ptr,24		ptr to signal proc for current ring
                        000032    1-42  	equ	stack_header.bar_mode_sp,26		value of sp before entering bar mode
                        000034    1-43  	equ	stack_header.pl1_operators_ptr,28	ptr: pl1_operators_$operator_table
                        000036    1-44  	equ	stack_header.call_op_ptr,30		ptr to standard call operator
                                  1-45
                        000040    1-46  	equ	stack_header.push_op_ptr,32		ptr to standard push operator
                        000042    1-47  	equ	stack_header.return_op_ptr,34		ptr to standard return operator
                        000044    1-48  	equ	stack_header.ret_no_pop_op_ptr,36	ptr: stand. return/ no pop operator
                        000046    1-49  	equ	stack_header.entry_op_ptr,38		ptr to standard entry operator
                                  1-50
                        000050    1-51  	equ	stack_header.trans_op_tv_ptr,40	ptr to table of translator operator ptrs
                        000052    1-52  	equ	stack_header.isot_ptr,42		pointer to ISOT
                        000054    1-53  	equ	stack_header.sct_ptr,44		pointer to System Condition Table
                        000056    1-54  	equ	stack_header.unwinder_ptr,46		pointer to unwinder for current ring
                                  1-55
                        000060    1-56  	equ	stack_header.sys_link_info_ptr,48	ptr to *system link name table
                        000062    1-57  	equ	stack_header.rnt_ptr,50		ptr to reference name table
                        000064    1-58  	equ	stack_header.ect_ptr,52		ptr to event channel table
                        000066    1-59  	equ	stack_header.assign_linkage_ptr,54	ptr to area for hcs_$assign_linkage calls
                        000070    1-60  	equ	stack_header.heap_header_ptr,56	ptr to heap header.
                        000072    1-61  	equ	stack_header.trace_frames,58		stack of trace_catch_ frames
                        000073    1-62  	equ	stach_header.trace_top_ptr,59		trace pointer
                        000074    1-63  	equ	stack_header.in_trace,60		trace antirecurse bit
                        000100    1-64  	equ	stack_header_end,64			length of stack header
                                  1-65
                                  1-66
                                  1-67
                                  1-68
                        000000    1-69  	equ	trace_frames.count,0		number of trace frames on stack
                        000001    1-70  	equ	trace_frames.top_ptr,1		packed pointer to top one
                                  1-71
                                  1-72  "	The  following constant is an offset within the  pl1  operators table.
                                  1-73  "	It  references a  transfer vector table.
                                  1-74
                        000551    1-75  	bool	tv_offset,551
                                  1-76
                                  1-77
                                  1-78  "	The  following constants are offsets within this transfer vector table.
                                  1-79
                        001170    1-80  	equ	call_offset,tv_offset+271
                        001171    1-81  	equ	push_offset,tv_offset+272
                        001172    1-82  	equ	return_offset,tv_offset+273
                        001173    1-83  	equ	return_no_pop_offset,tv_offset+274
                        001174    1-84  	equ	entry_offset,tv_offset+275
                                  1-85
                                  1-86
                                  1-87  " 	END INCLUDE FILE stack_header.incl.alm
                                    23
                                    24  	include	stack_frame
                                   2-1  "
                                   2-2  "	BEGIN INCLUDE FILE ... stack_frame.incl.alm   6/72 RBS
                                   2-3  "
                                   2-4  " Modified: 16 Dec 1977, D. Levin - to add fio_ps_ptr
                                   2-5  " Modified:  3 Feb 1978, P. Krupp - to add run_unit_manager_bit & main_proc_bit
                                   2-6  " Modified: 21 March 1978, D. Levin - change fio_ps_ptr to support_ptr
                                   2-7  "
                        000020     2-8  	equ	stack_frame.prev_sp,16
                        000020     2-9  	equ	stack_frame.condition_word,16
                        000022    2-10  	equ	stack_frame.next_sp,18
                        000022    2-11  	equ	stack_frame.signaller_word,18
                        000024    2-12  	equ	stack_frame.return_ptr,20
                        000026    2-13  	equ	stack_frame.entry_ptr,22
                        000030    2-14  	equ	stack_frame.operator_ptr,24
                        000030    2-15  	equ	stack_frame.lp_ptr,24
                        000032    2-16  	equ	stack_frame.arg_ptr,26
                        000034    2-17  	equ	stack_frame.static_ptr,28
                        000035    2-18  	equ	stack_frame.support_ptr,29	" only used by fortran I/O
                        000036    2-19  	equ	stack_frame.on_unit_rel_ptrs,30
                        000037    2-20  	equ	stack_frame.operator_ret_ptr,31
                        000037    2-21  	equ	stack_frame.translator_id,31
                        000040    2-22  	equ	stack_frame.regs,32
                        000060    2-23  	equ	stack_frame.min_length,48
                        000020    2-24  	equ	stack_frame.flag_word,16
                        020000    2-25  	bool	stack_frame.main_proc_bit,020000	(DL)
                        010000    2-26  	bool	stack_frame.run_unit_manager,010000	(DL)
                        004000    2-27  	bool	stack_frame.signal_bit,004000		(DL)
                        002000    2-28  	bool	stack_frame.crawl_out_bit,002000	(DL)
                        001000    2-29  	bool	stack_frame.signaller_bit,001000	(DL)
                        000400    2-30  	bool	stack_frame.link_trap_bit,000400	(DL)
                        000200    2-31  	bool	stack_frame.support_bit,000200	(DL)
                        000100    2-32  	bool	stack_frame.condition_bit,000100	(DL)
                                  2-33
                                  2-34  "
                                  2-35  "	END INCLUDE FILE  ... stack_frame.incl.alm
                                  2-36  "
                                    25
                                    26
                                    27  " 
                                    28  " NEW_RING - Switch to another stack and "call" a specified procedure.
                                    29  "	A stack frame representing a call to the procedure has been
                                    30  "	manufactured in the target stack.  This entry is called
                                    31  "	when "calling" across stack segments.
                                    32  "
                                    33  " Calling sequence:
                                    34  "	call nonlocal_goto_$different_ring (sp, entry_ptr)
                                    35  "
                                    36  " Where:
                                    37  "	sp -> stack frame for procedure caller
                                    38  "
                                    39  "	entry_ptr -> procedure entry to be called
                                    40  "
                                    41  "
                                    42  " " " " " " " " " " " " " " " " " " " " " " " " " " " " " " " " " " " "
                                    43
                                    44
                        000000      45  	entry	different_ring
                                    46
    000000                          47  different_ring:
                                    48  "	the next 3 instructions must be first because we want
                                    49  "	to take everything we need out of the current stack before
                                    50  "	abandoning it in case we get a fault in the middle
                                    51  "
    000000  aa  0 00002 3521 20     52  	eppbp	ap|2,*		bp -> current stack frame pointer
    000001  aa  0 00004 3535 20     53  	eppbb	ap|4,*		bb -> location to transfer to
    000002  aa  2 00000 3721 20     54  	eppsp	bp|0,*		sp -> new stack frame
    000003  aa  7 00022 3521 20     55  	eppbp	sb|stack_header.stack_begin_ptr,*  reset the stack end ptr
    000004  aa  7 00024 2521 00     56  	spribp	sb|stack_header.stack_end_ptr	abandon the current stack
                                    57
                                    58  "	now we  would like to call the procedure in the higher ring;
                                    59  "	however, since one cannot directly call into a higher ring
                                    60  "	an rtcd instruction will be used, and pr7 will be set ahead of time
                                    61  "
    000005  aa  6 00000 3731 00     62  	epbpsb	sp|0		set sb to new stack header
    000006  aa  6 00030 3501 20     63  	eppap	sp|stack_frame.operator_ptr,*
    000007  aa   000000 6340 07     64  	ldi	0,dl		must reset overflow mask for pl1
    000010  aa  3 00000 6101 00     65  	rtcd	bb|0		bye bye
                                    66
                                    67
                                    68
                                    69  " 
                                    70  " SAME_RING - Return to target stack frame.  Target pointer
                                    71  "	has been placed in stack_frame's return pointer.
                                    72  "	Intended to be called by the unwinder_.
                                    73  "
                                    74  " Calling sequence:
                                    75  "	call nonlocal_goto_$same_ring (sp, entry_ptr)
                                    76  "
                                    77  " Where:
                                    78  "	sp -> target stack frame.
                                    79  "
                                    80  "	entry_ptr -> procedure entry to be called
                                    81  "
                                    82  "
                                    83  " " " " " " " " " " " " " " " " " " " " " " " " " " " " " " " " " " " "
                                    84
                                    85
                        000011      86  	entry	same_ring
                                    87
    000011                          88  same_ring:
    000011  aa  0 00002 3521 20     89  	eppbp	ap|2,*		bp -> current stack frame pointer
    000012  aa  0 00004 3535 20     90  	eppbb	ap|4,*		bb -> location to transfer to
    000013  aa  2 00000 3731 20     91  	epbpsb	bp|0,*		set sb to stack header
    000014  aa  2 00000 3501 20     92  	eppap	bp|0,*		ap -> current (new) stack frame
    000015  aa  0 00022 3521 20     93  	eppbp	ap|stack_frame.next_sp,*	bp -> new stack end
    000016                          94  	inhibit	on
    000016  aa  7 00024 2523 00     95  	spribp	sb|stack_header.stack_end_ptr  reset stack end pointer
    000017  aa  0 00000 3723 00     96  	eppsp	ap|0		sp -> current stack frame
    000020                          97  	inhibit	off
                                    98
                                    99  "	we would now like to say "return" to invoke the normal return
                                   100  "	macro. However, doing this would cause a transfer (cross-ring)
                                   101  "	to the user-ring version of pl1_oerators_ to invoke the operator.
                                   102  "	Instead, we just hand code the same instructions ...
                                   103  "	except that we use the supplied entry ptr in stead of return ptr
                                   104
    000020  aa  6 00030 3501 20    105  	eppap	sp|stack_frame.operator_ptr,*
    000021  aa   000000 6340 07    106  	ldi	0,dl		must reset overflow mask for pl1
    000022  aa  3 00000 6101 00    107  	rtcd	bb|0
                                   108
                                   109
                                   110
                                   111  	end
ENTRY SEQUENCES

    000023  5a   000020 0000 00
    000024  aa  7 00046 2721 20
    000025  0a   000000 7100 00
    000026  5a   000012 0000 00
    000027  aa  7 00046 2721 20
    000030  0a   000011 7100 00

NO LITERALS

NAME DEFINITIONS FOR ENTRY POINTS AND SEGDEFS

    000032  5a   000003 000000
    000033  5a   000036 600000
    000034  aa   000000 000000
    000035  55   000012 000002
    000036  5a   000002 400003
    000037  55   000006 000012
    000040  aa  016 156 157 156
    000041  aa  154 157 143 141
    000042  aa  154 137 147 157
    000043  aa  164 157 137 000
    000044  55   000020 000003
    000045  0a   000027 500000
    000046  55   000015 000003
    000047  aa  011 163 141 155         same_ring
    000050  aa  145 137 162 151
    000051  aa  156 147 000 000
    000052  55   000027 000012
    000053  0a   000024 500000
    000054  55   000023 000003
    000055  aa  016 144 151 146         different_ring
    000056  aa  146 145 162 145
    000057  aa  156 164 137 162
    000060  aa  151 156 147 000
    000061  55   000002 000020
    000062  6a   000000 400002
    000063  55   000032 000003
    000064  aa  014 163 171 155         symbol_table
    000065  aa  142 157 154 137
    000066  aa  164 141 142 154
    000067  aa  145 000 000 000

DEFINITIONS HASH TABLE

    000070  aa   000000 000015
    000071  aa   000000 000000
    000072  aa   000000 000000
    000073  5a   000020 000000
    000074  aa   000000 000000
    000075  aa   000000 000000
    000076  5a   000012 000000
    000077  5a   000027 000000
    000100  aa   000000 000000
    000101  aa   000000 000000
    000102  aa   000000 000000
    000103  aa   000000 000000
    000104  aa   000000 000000
    000105  aa   000000 000000

NO EXTERNAL NAMES

NO TRAP POINTER WORDS

TYPE PAIR BLOCKS

    000106  aa   000001 000000
    000107  aa   000000 000000

INTERNAL EXPRESSION WORDS

LINKAGE INFORMATION

    000000  aa   000000 000000
    000001  0a   000032 000000
    000002  aa   000000 000000
    000003  aa   000000 000000
    000004  aa   000000 000000
    000005  aa   000000 000000
    000006  22   000010 000010
    000007  a2   000000 000000
SYMBOL INFORMATION

SYMBOL TABLE HEADER

    000000  aa   000000 000001
    000001  aa   163171 155142
    000002  aa   164162 145145
    000003  aa   000000 000010
    000004  aa   000000 117244
    000005  aa   361023 525721
    000006  aa   000000 117547
    000007  aa   255405 364547
    000010  aa   141154 155040
    000011  aa   040040 040040
    000012  aa   000024 000040
    000013  aa   000034 000040
    000014  aa   000044 000100
    000015  aa   000002 000002
    000016  aa   000064 000000
    000017  aa   000000 000165
    000020  aa   000000 000136
    000021  aa   000145 000142
    000022  aa   000155 000136
    000023  aa   000064 000000
    000024  aa   101114 115040
    000025  aa   126145 162163
    000026  aa   151157 156040
    000027  aa   070056 061064
    000030  aa   040115 141162
    000031  aa   143150 040061
    000032  aa   071070 071040
    000033  aa   040040 040040
    000034  aa   110151 162156
    000035  aa   145151 163145
    000036  aa   156056 123171
    000037  aa   163115 141151
    000040  aa   156164 056141
    000041  aa   040040 040040
    000042  aa   040040 040040
    000043  aa   040040 040040
    000044  aa   055164 141162
    000045  aa   147145 164040
    000046  aa   154066 070040
    000047  aa   040040 040040
    000050  aa   040040 040040
    000051  aa   040040 040040
    000052  aa   040040 040040
    000053  aa   040040 040040
    000054  aa   040040 040040
    000055  aa   040040 040040
    000056  aa   040154 151163
    000057  aa   164040 163171
    000060  aa   155142 157154
    000061  aa   163040 040040
    000062  aa   040040 040040
    000063  aa   040040 040040
    000064  aa   000000 000001
    000065  aa   000000 000003
    000066  aa   000102 000045
    000067  aa   175453 017630
    000070  aa   000000 117547
    000071  aa   176314 200000
    000072  aa   000114 000042
    000073  aa   147777 464111
    000074  aa   000000 115000
    000075  aa   507463 000000
    000076  aa   000125 000041
    000077  aa   052721 247134
    000100  aa   000000 105272
    000101  aa   317215 400000
    000102  aa   076163 160145          >spec>install>1110>nonlocal_goto_.alm
    000103  aa   143076 151156
    000104  aa   163164 141154
    000105  aa   154076 061061
    000106  aa   061060 076156
    000107  aa   157156 154157
    000110  aa   143141 154137
    000111  aa   147157 164157
    000112  aa   137056 141154
    000113  aa   155040 040040
    000114  aa   076154 144144          >ldd>include>stack_header.incl.alm
    000115  aa   076151 156143
    000116  aa   154165 144145
    000117  aa   076163 164141
    000120  aa   143153 137150
    000121  aa   145141 144145
    000122  aa   162056 151156
    000123  aa   143154 056141
    000124  aa   154155 040040
    000125  aa   076154 144144          >ldd>include>stack_frame.incl.alm
    000126  aa   076151 156143
    000127  aa   154165 144145
    000130  aa   076163 164141
    000131  aa   143153 137146
    000132  aa   162141 155145
    000133  aa   056151 156143
    000134  aa   154056 141154
    000135  aa   155040 040040
               MULTICS ASSEMBLY CROSS REFERENCE LISTING

   Value        Symbol                   Source file   Line number

        1170    call_offset              stack_header:        80.
           0    different_ring           nonlocal_goto_:      45,   47.
        1174    entry_offset             stack_header:        84.
        1171    push_offset              stack_header:        81.
        1173    return_no_pop_offset     stack_header:        83.
        1172    return_offset            stack_header:        82.
          11    same_ring                nonlocal_goto_:      86,   88.
          73    stach_header.trace_top_ptr     stack_header:        62.
          32    stack_frame.arg_ptr      stack_frame:   16.
         100    stack_frame.condition_bit      stack_frame:   32.
          20    stack_frame.condition_word     stack_frame:    9.
        2000    stack_frame.crawl_out_bit      stack_frame:   28.
          26    stack_frame.entry_ptr    stack_frame:   13.
          20    stack_frame.flag_word    stack_frame:   24.
         400    stack_frame.link_trap_bit      stack_frame:   30.
          30    stack_frame.lp_ptr       stack_frame:   15.
       20000    stack_frame.main_proc_bit      stack_frame:   25.
          60    stack_frame.min_length   stack_frame:   23.
          22    stack_frame.next_sp      nonlocal_goto_:      93,
                                         stack_frame:   10.
          36    stack_frame.on_unit_rel_ptrs   stack_frame:   19.
          30    stack_frame.operator_ptr       nonlocal_goto_:      63,  105,
                                               stack_frame:   14.
          37    stack_frame.operator_ret_ptr   stack_frame:   20.
          20    stack_frame.prev_sp      stack_frame:    8.
          40    stack_frame.regs         stack_frame:   22.
          24    stack_frame.return_ptr   stack_frame:   12.
       10000    stack_frame.run_unit_manager   stack_frame:   26.
        1000    stack_frame.signaller_bit      stack_frame:   29.
          22    stack_frame.signaller_word     stack_frame:   11.
        4000    stack_frame.signal_bit   stack_frame:   27.
          34    stack_frame.static_ptr   stack_frame:   17.
         200    stack_frame.support_bit  stack_frame:   31.
          35    stack_frame.support_ptr  stack_frame:   18.
          37    stack_frame.translator_id      stack_frame:   21.
          66    stack_header.assign_linkage_ptr      stack_header:        59.
          32    stack_header.bar_mode_sp       stack_header:        42.
          36    stack_header.call_op_ptr       stack_header:        44.
          10    stack_header.clr_ptr     stack_header:        27.
           6    stack_header.combined_stat_ptr       stack_header:        25.
           4    stack_header.cpm_data_ptr      stack_header:        24.
          13    stack_header.cpm_enabled       stack_header:        32.
          13    stack_header.cur_lot_size      stack_header:        31.
          64    stack_header.ect_ptr     stack_header:        58.
          46    stack_header.entry_op_ptr      stack_header:        49.
          70    stack_header.heap_header_ptr   stack_header:        60.
          74    stack_header.in_trace    stack_header:        63.
          52    stack_header.isot_ptr    stack_header:        52.
          26    stack_header.lot_ptr     stack_header:        39.
          12    stack_header.main_proc_invoked       stack_header:        29.
          12    stack_header.max_lot_size      stack_header:        28.
          20    stack_header.parent_ptr  stack_header:        36.
          34    stack_header.pl1_operators_ptr       stack_header:        43.
          40    stack_header.push_op_ptr       stack_header:        46.
          42    stack_header.return_op_ptr     stack_header:        47.
          44    stack_header.ret_no_pop_op_ptr       stack_header:        48.
          62    stack_header.rnt_ptr     stack_header:        57.
          12    stack_header.run_unit_depth    stack_header:        30.
          54    stack_header.sct_ptr     stack_header:        53.
          30    stack_header.signal_ptr  stack_header:        41.
          22    stack_header.stack_begin_ptr   nonlocal_goto_:      55,
                                               stack_header:        37.
          24    stack_header.stack_end_ptr     nonlocal_goto_:      56,   95,
                                               stack_header:        38.
          14    stack_header.system_free_ptr   stack_header:        33.
          60    stack_header.sys_link_info_ptr       stack_header:        56.
          72    stack_header.trace_frames      stack_header:        61.
          50    stack_header.trans_op_tv_ptr   stack_header:        51.
          56    stack_header.unwinder_ptr      stack_header:        54.
          16    stack_header.user_free_ptr     stack_header:        34.
         100    stack_header_end         stack_header:        64.
           0    trace_frames.count       stack_header:        69.
           1    trace_frames.top_ptr     stack_header:        70.
         551    tv_offset                stack_header:        75,   80,   81,   82,   83,   84.


NO FATAL ERRORS


                                          -----------------------------------------------------------


Historical Background

This edition of the Multics software materials and documentation is provided and donated
to Massachusetts Institute of Technology by Group BULL including BULL HN Information Systems Inc.
as a contribution to computer science knowledge.
This donation is made also to give evidence of the common contributions of Massachusetts Institute of Technology,
Bell Laboratories, General Electric, Honeywell Information Systems Inc., Honeywell BULL Inc., Groupe BULL
and BULL HN Information Systems Inc. to the development of this operating system.
Multics development was initiated by Massachusetts Institute of Technology Project MAC (1963-1970),
renamed the MIT Laboratory for Computer Science and Artificial Intelligence in the mid 1970s, under the leadership
of Professor Fernando Jose Corbato. Users consider that Multics provided the best software architecture
for managing computer hardware properly and for executing programs. Many subsequent operating systems
incorporated Multics principles.
Multics was distributed in 1975 to 2000 by Group Bull in Europe , and in the U.S. by Bull HN Information Systems Inc.,
as successor in interest by change in name only to Honeywell Bull Inc. and Honeywell Information Systems Inc. .

                                          -----------------------------------------------------------

Permission to use, copy, modify, and distribute these programs and their documentation for any purpose and without
fee is hereby granted,provided that the below copyright notice and historical background appear in all copies
and that both the copyright notice and historical background and this permission notice appear in supporting
documentation, and that the names of MIT, HIS, BULL or BULL HN not be used in advertising or publicity pertaining
to distribution of the programs without specific prior written permission.
    Copyright 1972 by Massachusetts Institute of Technology and Honeywell Information Systems Inc.
    Copyright 2006 by BULL HN Information Systems Inc.
    Copyright 2006 by Bull SAS
    All Rights Reserved
