ASSEMBLY LISTING OF SEGMENT >special_ldd>temp>bce>40-00>oc_.alm
ASSEMBLED ON:	06/05/84  1434.0 mst Tue
OPTIONS USED:	list
ASSEMBLED BY:	ALM Version  6.6  November 1982
ASSEMBLER CREATED:	09/21/83  1227.3 mst Wed

                                     1  " ***********************************************************
                                     2  " *                                                         *
                                     3  " * Copyright, (C) Honeywell Information Systems Inc., 1982 *
                                     4  " *                                                         *
                                     5  " * Copyright (c) 1972 by Massachusetts Institute of        *
                                     6  " * Technology and Honeywell Information Systems, Inc.      *
                                     7  " *                                                         *
                                     8  " ***********************************************************
                                     9
                                    10  "	Outer Module Transfer Vector for the oc_ outer module.
                                    11
                        000000      12  	entry	oc_module
    000000                          13  oc_module:
    000000  0a   000001 7100 16     14  	tra	*+1,6		go to proper transfer instruction
                                    15
    000001  4a  4 00010 7101 20     16  	tra	<ocdim_>|[oc_attach]
    000002  4a  4 00012 7101 20     17  	tra	<ocdim_>|[oc_detach]
    000003  4a  4 00014 7101 20     18  	tra	<ocdim_>|[oc_read]
    000004  4a  4 00016 7101 20     19  	tra	<ocdim_>|[oc_write]
    000005  4a  4 00020 7101 20     20  	tra	<ocdim_>|[oc_abort]
    000006  4a  4 00022 7101 20     21  	tra	<ocdim_>|[oc_order]
    000007  4a  4 00024 7101 20     22  	tra	<ocdim_>|[oc_resetread]
    000010  4a  4 00026 7101 20     23  	tra	<ocdim_>|[oc_resetwrite]
    000011  4a  4 00030 7101 20     24  	tra	<ios_>|[no_entry]
    000012  4a  4 00032 7101 20     25  	tra	<ocdim_>|[oc_getsize]
    000013  4a  4 00030 7101 20     26  	tra	<ios_>|[no_entry]
    000014  4a  4 00030 7101 20     27  	tra	<ios_>|[no_entry]
    000015  4a  4 00030 7101 20     28  	tra	<ios_>|[no_entry]
    000016  4a  4 00030 7101 20     29  	tra	<ios_>|[no_entry]
    000017  4a  4 00034 7101 20     30  	tra	<ocdim_>|[oc_changemode]
    000020  4a  4 00030 7101 20     31  	tra	<ios_>|[no_entry]
    000021  4a  4 00030 7101 20     32  	tra	<ios_>|[no_entry]
    000022  4a  4 00030 7101 20     33  	tra	<ios_>|[no_entry]
    000023  4a  4 00030 7101 20     34  	tra	<ios_>|[no_entry]
    000024  4a  4 00030 7101 20     35  	tra	<ios_>|[no_entry]
    000025  4a  4 00030 7101 20     36  	tra	<ios_>|[no_entry]
                                    37
                                    38  	end
ENTRY SEQUENCES

    000026  5a   000007 0000 00
    000027  aa  7 00046 2721 20
    000030  0a   000000 7100 00

NO LITERALS

NAME DEFINITIONS FOR ENTRY POINTS AND SEGDEFS

    000032  5a   000003 000000
    000033  5a   000024 600000
    000034  aa   000000 000000
    000035  55   000007 000002
    000036  5a   000002 400003
    000037  55   000006 000007
    000040  aa  003 157 143 137
    000041  55   000015 000003
    000042  0a   000027 500000
    000043  55   000012 000003
    000044  aa  011 157 143 137         oc_module
    000045  aa  155 157 144 165
    000046  aa  154 145 000 000
    000047  55   000002 000007
    000050  6a   000000 400002
    000051  55   000020 000003
    000052  aa  014 163 171 155         symbol_table
    000053  aa  142 157 154 137
    000054  aa  164 141 142 154
    000055  aa  145 000 000 000

DEFINITIONS HASH TABLE

    000056  aa   000000 000015
    000057  aa   000000 000000
    000060  aa   000000 000000
    000061  aa   000000 000000
    000062  aa   000000 000000
    000063  aa   000000 000000
    000064  5a   000007 000000
    000065  5a   000015 000000
    000066  aa   000000 000000
    000067  aa   000000 000000
    000070  aa   000000 000000
    000071  aa   000000 000000
    000072  aa   000000 000000
    000073  aa   000000 000000

EXTERNAL NAMES

    000074  aa  015 157 143 137         oc_changemode
    000075  aa  143 150 141 156
    000076  aa  147 145 155 157
    000077  aa  144 145 000 000
    000100  aa  012 157 143 137         oc_getsize
    000101  aa  147 145 164 163
    000102  aa  151 172 145 000
    000103  aa  010 156 157 137         no_entry
    000104  aa  145 156 164 162
    000105  aa  171 000 000 000
    000106  aa  004 151 157 163         ios_
    000107  aa  137 000 000 000
    000110  aa  015 157 143 137         oc_resetwrite
    000111  aa  162 145 163 145
    000112  aa  164 167 162 151
    000113  aa  164 145 000 000
    000114  aa  014 157 143 137         oc_resetread
    000115  aa  162 145 163 145
    000116  aa  164 162 145 141
    000117  aa  144 000 000 000
    000120  aa  010 157 143 137         oc_order
    000121  aa  157 162 144 145
    000122  aa  162 000 000 000
    000123  aa  010 157 143 137         oc_abort
    000124  aa  141 142 157 162
    000125  aa  164 000 000 000
    000126  aa  010 157 143 137         oc_write
    000127  aa  167 162 151 164
    000130  aa  145 000 000 000
    000131  aa  007 157 143 137         oc_read
    000132  aa  162 145 141 144
    000133  aa  011 157 143 137         oc_detach
    000134  aa  144 145 164 141
    000135  aa  143 150 000 000
    000136  aa  011 157 143 137         oc_attach
    000137  aa  141 164 164 141
    000140  aa  143 150 000 000
    000141  aa  006 157 143 144         ocdim_
    000142  aa  151 155 137 000

NO TRAP POINTER WORDS

TYPE PAIR BLOCKS

    000143  aa   000004 000000
    000144  55   000107 000042
    000145  aa   000004 000000
    000146  55   000107 000046
    000147  aa   000004 000000
    000150  55   000054 000051
    000151  aa   000004 000000
    000152  55   000107 000056
    000153  aa   000004 000000
    000154  55   000107 000062
    000155  aa   000004 000000
    000156  55   000107 000066
    000157  aa   000004 000000
    000160  55   000107 000071
    000161  aa   000004 000000
    000162  55   000107 000074
    000163  aa   000004 000000
    000164  55   000107 000077
    000165  aa   000004 000000
    000166  55   000107 000101
    000167  aa   000004 000000
    000170  55   000107 000104
    000171  aa   000001 000000
    000172  aa   000000 000000

INTERNAL EXPRESSION WORDS

    000173  5a   000111 000000
    000174  5a   000113 000000
    000175  5a   000115 000000
    000176  5a   000117 000000
    000177  5a   000121 000000
    000200  5a   000123 000000
    000201  5a   000125 000000
    000202  5a   000127 000000
    000203  5a   000131 000000
    000204  5a   000133 000000
    000205  5a   000135 000000
LINKAGE INFORMATION

    000000  aa   000000 000000
    000001  0a   000032 000000
    000002  aa   000000 000000
    000003  aa   000000 000000
    000004  aa   000000 000000
    000005  aa   000000 000000
    000006  22   000010 000036
    000007  a2   000000 000000
    000010  9a   777770 0000 46         ocdim_|oc_attach
    000011  5a   000153 0000 00
    000012  9a   777766 0000 46         ocdim_|oc_detach
    000013  5a   000152 0000 00
    000014  9a   777764 0000 46         ocdim_|oc_read
    000015  5a   000151 0000 00
    000016  9a   777762 0000 46         ocdim_|oc_write
    000017  5a   000150 0000 00
    000020  9a   777760 0000 46         ocdim_|oc_abort
    000021  5a   000147 0000 00
    000022  9a   777756 0000 46         ocdim_|oc_order
    000023  5a   000146 0000 00
    000024  9a   777754 0000 46         ocdim_|oc_resetread
    000025  5a   000145 0000 00
    000026  9a   777752 0000 46         ocdim_|oc_resetwrite
    000027  5a   000144 0000 00
    000030  9a   777750 0000 46         ios_|no_entry
    000031  5a   000143 0000 00
    000032  9a   777746 0000 46         ocdim_|oc_getsize
    000033  5a   000142 0000 00
    000034  9a   777744 0000 46         ocdim_|oc_changemode
    000035  5a   000141 0000 00
SYMBOL INFORMATION

SYMBOL TABLE HEADER

    000000  aa   000000 000001
    000001  aa   163171 155142
    000002  aa   164162 145145
    000003  aa   000000 000004
    000004  aa   000000 112143
    000005  aa   305203 523135
    000006  aa   000000 112647
    000007  aa   700223 527163
    000010  aa   141154 155040
    000011  aa   040040 040040
    000012  aa   000024 000040
    000013  aa   000034 000040
    000014  aa   000044 000100
    000015  aa   000002 000002
    000016  aa   000064 000000
    000017  aa   000000 000127
    000020  aa   000000 000103
    000021  aa   000000 000112
    000022  aa   000121 000103
    000023  aa   000064 000000
    000024  aa   101114 115040
    000025  aa   126145 162163
    000026  aa   151157 156040
    000027  aa   040066 056066
    000030  aa   040040 116157
    000031  aa   166145 155142
    000032  aa   145162 040061
    000033  aa   071070 062040
    000034  aa   107112 157150
    000035  aa   156163 157156
    000036  aa   056123 171163
    000037  aa   115141 151156
    000040  aa   164056 141040
    000041  aa   040040 040040
    000042  aa   040040 040040
    000043  aa   040040 040040
    000044  aa   154151 163164
    000045  aa   040040 040040
    000046  aa   040040 040040
    000047  aa   040040 040040
    000050  aa   040040 040040
    000051  aa   040040 040040
    000052  aa   040040 040040
    000053  aa   040040 040040
    000054  aa   040040 040040
    000055  aa   040040 040040
    000056  aa   040040 040040
    000057  aa   040040 040040
    000060  aa   040040 040040
    000061  aa   040040 040040
    000062  aa   040040 040040
    000063  aa   040040 040040
    000064  aa   000000 000001
    000065  aa   000000 000001
    000066  aa   000072 000043
    000067  aa   126434 240432
    000070  aa   000000 112647
    000071  aa   700224 600000
    000072  aa   076163 160145          >special_ldd>temp>bce>40-00>oc_.alm
    000073  aa   143151 141154
    000074  aa   137154 144144
    000075  aa   076164 145155
    000076  aa   160076 142143
    000077  aa   145076 064060
    000100  aa   055060 060076
    000101  aa   157143 137056
    000102  aa   141154 155040
               MULTICS ASSEMBLY CROSS REFERENCE LISTING

   Value        Symbol                   Source file   Line number

                ios_                     oc_:           24,   26,   27,   28,   29,   31,   32,   33,   34,   35,   36.
                no_entry                 oc_:           24,   26,   27,   28,   29,   31,   32,   33,   34,   35,   36.
                ocdim_                   oc_:           16,   17,   18,   19,   20,   21,   22,   23,   25,   30.
                oc_abort                 oc_:           20.
                oc_attach                oc_:           16.
                oc_changemode            oc_:           30.
                oc_detach                oc_:           17.
                oc_getsize               oc_:           25.
           0    oc_module                oc_:           12,   13.
                oc_order                 oc_:           21.
                oc_read                  oc_:           18.
                oc_resetread             oc_:           22.
                oc_resetwrite            oc_:           23.
                oc_write                 oc_:           19.


NO FATAL ERRORS


                                          -----------------------------------------------------------


Historical Background

This edition of the Multics software materials and documentation is provided and donated
to Massachusetts Institute of Technology by Group BULL including BULL HN Information Systems Inc.
as a contribution to computer science knowledge.
This donation is made also to give evidence of the common contributions of Massachusetts Institute of Technology,
Bell Laboratories, General Electric, Honeywell Information Systems Inc., Honeywell BULL Inc., Groupe BULL
and BULL HN Information Systems Inc. to the development of this operating system.
Multics development was initiated by Massachusetts Institute of Technology Project MAC (1963-1970),
renamed the MIT Laboratory for Computer Science and Artificial Intelligence in the mid 1970s, under the leadership
of Professor Fernando Jose Corbato. Users consider that Multics provided the best software architecture
for managing computer hardware properly and for executing programs. Many subsequent operating systems
incorporated Multics principles.
Multics was distributed in 1975 to 2000 by Group Bull in Europe , and in the U.S. by Bull HN Information Systems Inc.,
as successor in interest by change in name only to Honeywell Bull Inc. and Honeywell Information Systems Inc. .

                                          -----------------------------------------------------------

Permission to use, copy, modify, and distribute these programs and their documentation for any purpose and without
fee is hereby granted,provided that the below copyright notice and historical background appear in all copies
and that both the copyright notice and historical background and this permission notice appear in supporting
documentation, and that the names of MIT, HIS, BULL or BULL HN not be used in advertising or publicity pertaining
to distribution of the programs without specific prior written permission.
    Copyright 1972 by Massachusetts Institute of Technology and Honeywell Information Systems Inc.
    Copyright 2006 by BULL HN Information Systems Inc.
    Copyright 2006 by Bull SAS
    All Rights Reserved
