NAME DEFINITIONS FOR ENTRY POINTS AND SEGDEFS

    025034  5a   000003 000000
    025035  5a   000426 600000
    025036  aa   000000 000000
    025037  55   000012 000002
    025040  5a   000002 400003
    025041  55   000006 000012
    025042  aa  016 160 154 061
    025043  aa  137 157 160 145
    025044  aa  162 141 164 157
    025045  aa  162 163 137 000
    025046  55   000022 000003
    025047  0a   001243 400000
    025050  55   000015 000003
    025051  aa  022 126 114 101         VLA_words_per_seg_
    025052  aa  137 167 157 162
    025053  aa  144 163 137 160
    025054  aa  145 162 137 163
    025055  aa  145 147 137 000
    025056  55   000030 000012
    025057  0a   005622 400000
    025060  55   000025 000003
    025061  aa  010 166 141 162         var_call
    025062  aa  137 143 141 154
    025063  aa  154 000 000 000
    025064  55   000042 000022
    025065  0a   023210 400000
    025066  55   000033 000003
    025067  aa  030 164 162 141         trace_hfp_operator_table
    025070  aa  143 145 137 150
    025071  aa  146 160 137 157
    025072  aa  160 145 162 141
    025073  aa  164 157 162 137
    025074  aa  164 141 142 154
    025075  aa  145 000 000 000
    025076  55   000053 000030
    025077  0a   017636 400000
    025100  55   000045 000003
    025101  aa  024 164 162 141         trace_operator_table
    025102  aa  143 145 137 157
    025103  aa  160 145 162 141
    025104  aa  164 157 162 137
    025105  aa  164 141 142 154
    025106  aa  145 000 000 000
    025107  55   000065 000042
    025110  0a   021562 400000
    025111  55   000056 000003
    025112  aa  031 164 162 141         trace_entry_operators_end
    025113  aa  143 145 137 145
    025114  aa  156 164 162 171
    025115  aa  137 157 160 145
    025116  aa  162 141 164 157
    025117  aa  162 163 137 145
    025120  aa  156 144 000 000
    025121  55   000076 000053
    025122  0a   020703 400000
    025123  55   000070 000003
    025124  aa  025 164 162 141         trace_entry_operators
    025125  aa  143 145 137 145
    025126  aa  156 164 162 171
    025127  aa  137 157 160 145
    025130  aa  162 141 164 157
    025131  aa  162 163 000 000
    025132  55   000105 000065
    025133  0a   024722 400000
    025134  55   000101 000003
    025135  aa  017 164 162 141         trace_alm_entry
    025136  aa  143 145 137 141
    025137  aa  154 155 137 145
    025140  aa  156 164 162 171
    025141  55   000114 000076
    025142  0a   000227 400000
    025143  55   000110 000003
    025144  aa  015 164 143 164         tct_octal_060
    025145  aa  137 157 143 164
    025146  aa  141 154 137 060
    025147  aa  066 060 000 000
    025150  55   000123 000105
    025151  0a   000233 400000
    025152  55   000117 000003
    025153  aa  015 164 143 164         tct_octal_040
    025154  aa  137 157 143 164
    025155  aa  141 154 137 060
    025156  aa  064 060 000 000
    025157  55   000131 000114
    025160  0a   001043 400000
    025161  55   000126 000003
    025162  aa  012 164 143 164         tct_byte_3
    025163  aa  137 142 171 164
    025164  aa  145 137 063 000
    025165  55   000137 000123
    025166  0a   000643 400000
    025167  55   000134 000003
    025170  aa  012 164 143 164         tct_byte_2
    025171  aa  137 142 171 164
    025172  aa  145 137 062 000
    025173  55   000145 000131
    025174  0a   000443 400000
    025175  55   000142 000003
    025176  aa  012 164 143 164         tct_byte_1
    025177  aa  137 142 171 164
    025200  aa  145 137 061 000
    025201  55   000153 000137
    025202  0a   000243 400000
    025203  55   000150 000003
    025204  aa  012 164 143 164         tct_byte_0
    025205  aa  137 142 171 164
    025206  aa  145 137 060 000
    025207  55   000161 000145
    025210  0a   010446 400000
    025211  55   000156 000003
    025212  aa  012 160 165 164         put_return
    025213  aa  137 162 145 164
    025214  aa  165 162 156 000
    025215  55   000166 000153
    025216  0a   010432 400000
    025217  55   000164 000003
    025220  aa  005 160 154 151         plio4
    025221  aa  157 064 000 000
    025222  55   000175 000161
    025223  0a   001426 400000
    025224  55   000171 000003
    025225  aa  016 157 160 145         operator_table
    025226  aa  162 141 164 157
    025227  aa  162 137 164 141
    025230  aa  142 154 145 000
    025231  55   000205 000166
    025232  0a   014140 400000
    025233  55   000200 000003
    025234  aa  022 150 146 160         hfp_operator_table
    025235  aa  137 157 160 145
    025236  aa  162 141 164 157
    025237  aa  162 137 164 141
    025240  aa  142 154 145 000
    025241  55   000213 000175
    025242  0a   011323 400000
    025243  55   000210 000003
    025244  aa  012 147 145 164         get_our_lp
    025245  aa  137 157 165 162
    025246  aa  137 154 160 000
    025247  55   000222 000205
    025250  0a   005633 400000
    025251  55   000216 000003
    025252  aa  014 146 157 162         forward_call
    025253  aa  167 141 162 144
    025254  aa  137 143 141 154
    025255  aa  154 000 000 000
    025256  55   000232 000213
    025257  0a   016000 400000
    025260  55   000225 000003
    025261  aa  023 150 146 160         hfp_fort_math_names
    025262  aa  137 146 157 162
    025263  aa  164 137 155 141
    025264  aa  164 150 137 156
    025265  aa  141 155 145 163
    025266  55   000241 000222
    025267  0a   011357 400000
    025270  55   000235 000003
    025271  aa  017 146 157 162         fort_math_names
    025272  aa  164 137 155 141
    025273  aa  164 150 137 156
    025274  aa  141 155 145 163
    025275  55   000251 000232
    025276  0a   012426 400000
    025277  55   000244 000003
    025300  aa  023 145 156 164         entry_operators_end
    025301  aa  162 171 137 157
    025302  aa  160 145 162 141
    025303  aa  164 157 162 163
    025304  aa  137 145 156 144
    025305  55   000260 000241
    025306  0a   002473 400000
    025307  55   000254 000003
    025310  aa  017 145 156 164         entry_operators
    025311  aa  162 171 137 157
    025312  aa  160 145 162 141
    025313  aa  164 157 162 163
    025314  55   000270 000251
    025315  0a   012510 400000
    025316  55   000263 000003
    025317  aa  021 145 156 144         end_pl1_operators
    025320  aa  137 160 154 061
    025321  aa  137 157 160 145
    025322  aa  162 141 164 157
    025323  aa  162 163 000 000
    025324  55   000277 000260
    025325  0a   011243 400000
    025326  55   000273 000003
    025327  aa  014 143 141 154         call_signal_
    025330  aa  154 137 163 151
    025331  aa  147 156 141 154
    025332  aa  137 000 000 000
    025333  55   000307 000270
    025334  0a   000000 400000
    025335  55   000302 000003
    025336  aa  023 142 145 147         begin_pl1_operators
    025337  aa  151 156 137 160
    025340  aa  154 061 137 157
    025341  aa  160 145 162 141
    025342  aa  164 157 162 163
    025343  55   000320 000277
    025344  0a   024743 400000
    025345  55   000312 000003
    025346  aa  027 141 154 155         alm_trace_operators_end
    025347  aa  137 164 162 141
    025350  aa  143 145 137 157
    025351  aa  160 145 162 141
    025352  aa  164 157 162 163
    025353  aa  137 145 156 144
    025354  55   000332 000307
    025355  0a   024722 400000
    025356  55   000323 000003
    025357  aa  031 141 154 155         alm_trace_operators_begin
    025360  aa  137 164 162 141
    025361  aa  143 145 137 157
    025362  aa  160 145 162 141
    025363  aa  164 157 162 163
    025364  aa  137 142 145 147
    025365  aa  151 156 000 000
    025366  55   000342 000320
    025367  0a   007765 400000
    025370  55   000335 000003
    025371  aa  021 141 154 155         alm_return_no_pop
    025372  aa  137 162 145 164
    025373  aa  165 162 156 137
    025374  aa  156 157 137 160
    025375  aa  157 160 000 000
    025376  55   000350 000332
    025377  0a   007757 400000
    025400  55   000345 000003
    025401  aa  012 141 154 155         alm_return
    025402  aa  137 162 145 164
    025403  aa  165 162 156 000
    025404  55   000356 000342
    025405  0a   007733 400000
    025406  55   000353 000003
    025407  aa  010 141 154 155         alm_push
    025410  aa  137 160 165 163
    025411  aa  150 000 000 000
    025412  55   000366 000350
    025413  0a   007771 400000
    025414  55   000361 000003
    025415  aa  021 141 154 155         alm_operators_end
    025416  aa  137 157 160 145
    025417  aa  162 141 164 157
    025420  aa  162 163 137 145
    025421  aa  156 144 000 000
    025422  55   000376 000356
    025423  0a   007727 400000
    025424  55   000371 000003
    025425  aa  023 141 154 155         alm_operators_begin
    025426  aa  137 157 160 145
    025427  aa  162 141 164 157
    025430  aa  162 163 137 142
    025431  aa  145 147 151 156
    025432  55   000404 000366
    025433  0a   007747 400000
    025434  55   000401 000003
    025435  aa  011 141 154 155         alm_entry
    025436  aa  137 145 156 164
    025437  aa  162 171 000 000
    025440  55   000412 000376
    025441  0a   007727 400000
    025442  55   000407 000003
    025443  aa  010 141 154 155         alm_call
    025444  aa  137 143 141 154
    025445  aa  154 000 000 000
    025446  55   000417 000404
    025447  0a   003162 400000
    025450  55   000415 000003
    025451  aa  005 141 154 154         alloc
    025452  aa  157 143 000 000
    025453  55   000002 000412
    025454  6a   000000 400002
    025455  55   000422 000003
    025456  aa  014 163 171 155         symbol_table
    025457  aa  142 157 154 137
    025460  aa  164 141 142 154
    025461  aa  145 000 000 000

DEFINITIONS HASH TABLE

    025462  aa   000000 000065
    025463  aa   000000 000000
    025464  5a   000277 000000
    025465  5a   000376 000000
    025466  5a   000350 000000
    025467  5a   000404 000000
    025470  aa   000000 000000
    025471  aa   000000 000000
    025472  aa   000000 000000
    025473  5a   000412 000000
    025474  5a   000205 000000
    025475  aa   000000 000000
    025476  5a   000105 000000
    025477  5a   000114 000000
    025500  aa   000000 000000
    025501  5a   000022 000000
    025502  aa   000000 000000
    025503  5a   000053 000000
    025504  5a   000123 000000
    025505  5a   000030 000000
    025506  5a   000131 000000
    025507  5a   000137 000000
    025510  5a   000145 000000
    025511  5a   000260 000000
    025512  5a   000232 000000
    025513  5a   000065 000000
    025514  5a   000012 000000
    025515  5a   000042 000000
    025516  5a   000307 000000
    025517  5a   000222 000000
    025520  5a   000213 000000
    025521  5a   000175 000000
    025522  5a   000241 000000
    025523  5a   000320 000000
    025524  5a   000417 000000
    025525  5a   000366 000000
    025526  aa   000000 000000
    025527  5a   000076 000000
    025530  5a   000251 000000
    025531  5a   000332 000000
    025532  5a   000356 000000
    025533  5a   000153 000000
    025534  aa   000000 000000
    025535  5a   000161 000000
    025536  aa   000000 000000
    025537  aa   000000 000000
    025540  5a   000270 000000
    025541  aa   000000 000000
    025542  aa   000000 000000
    025543  5a   000166 000000
    025544  aa   000000 000000
    025545  aa   000000 000000
    025546  aa   000000 000000
    025547  5a   000342 000000

EXTERNAL NAMES

    025550  aa  027 143 160 165         cpu_time_and_paging_op_
    025551  aa  137 164 151 155
    025552  aa  145 137 141 156
    025553  aa  144 137 160 141
    025554  aa  147 151 156 147
    025555  aa  137 157 160 137
    025556  aa  012 143 141 164         catch_pl1_
    025557  aa  143 150 137 160
    025560  aa  154 061 137 000
    025561  aa  014 164 162 141         trace_catch_
    025562  aa  143 145 137 143
    025563  aa  141 164 143 150
    025564  aa  137 000 000 000
    025565  aa  022 146 157 162         fort_hfp_builtins_
    025566  aa  164 137 150 146
    025567  aa  160 137 142 165
    025570  aa  151 154 164 151
    025571  aa  156 163 137 000
    025572  aa  011 150 146 160         hfp_dcosh
    025573  aa  137 144 143 157
    025574  aa  163 150 000 000
    025575  aa  010 150 146 160         hfp_cosh
    025576  aa  137 143 157 163
    025577  aa  150 000 000 000
    025600  aa  011 150 146 160         hfp_dsinh
    025601  aa  137 144 163 151
    025602  aa  156 150 000 000
    025603  aa  010 150 146 160         hfp_sinh
    025604  aa  137 163 151 156
    025605  aa  150 000 000 000
    025606  aa  011 150 146 160         hfp_dtanh
    025607  aa  137 144 164 141
    025610  aa  156 150 000 000
    025611  aa  017 150 146 160         hfp_cmpx_p_cmpx
    025612  aa  137 143 155 160
    025613  aa  170 137 160 137
    025614  aa  143 155 160 170
    025615  aa  010 150 146 160         hfp_dmod
    025616  aa  137 144 155 157
    025617  aa  144 000 000 000
    025620  aa  010 150 146 160         hfp_tanh
    025621  aa  137 164 141 156
    025622  aa  150 000 000 000
    025623  aa  011 150 146 160         hfp_csqrt
    025624  aa  137 143 163 161
    025625  aa  162 164 000 000
    025626  aa  010 150 146 160         hfp_csin
    025627  aa  137 143 163 151
    025630  aa  156 000 000 000
    025631  aa  010 150 146 160         hfp_clog
    025632  aa  137 143 154 157
    025633  aa  147 000 000 000
    025634  aa  010 150 146 160         hfp_cexp
    025635  aa  137 143 145 170
    025636  aa  160 000 000 000
    025637  aa  010 150 146 160         hfp_ccos
    025640  aa  137 143 143 157
    025641  aa  163 000 000 000
    025642  aa  010 150 146 160         hfp_cabs
    025643  aa  137 143 141 142
    025644  aa  163 000 000 000
    025645  aa  031 150 146 160         hfp_single_power_integer_
    025646  aa  137 163 151 156
    025647  aa  147 154 145 137
    025650  aa  160 157 167 145
    025651  aa  162 137 151 156
    025652  aa  164 145 147 145
    025653  aa  162 137 000 000
    025654  aa  030 150 146 160         hfp_single_power_single_
    025655  aa  137 163 151 156
    025656  aa  147 154 145 137
    025657  aa  160 157 167 145
    025660  aa  162 137 163 151
    025661  aa  156 147 154 145
    025662  aa  137 000 000 000
    025663  aa  031 150 146 160         hfp_double_power_integer_
    025664  aa  137 144 157 165
    025665  aa  142 154 145 137
    025666  aa  160 157 167 145
    025667  aa  162 137 151 156
    025670  aa  164 145 147 145
    025671  aa  162 137 000 000
    025672  aa  030 150 146 160         hfp_double_power_double_
    025673  aa  137 144 157 165
    025674  aa  142 154 145 137
    025675  aa  160 157 167 145
    025676  aa  162 137 144 157
    025677  aa  165 142 154 145
    025700  aa  137 000 000 000
    025701  aa  030 150 146 160         hfp_double_power_single_
    025702  aa  137 144 157 165
    025703  aa  142 154 145 137
    025704  aa  160 157 167 145
    025705  aa  162 137 163 151
    025706  aa  156 147 154 145
    025707  aa  137 000 000 000
    025710  aa  031 150 146 160         hfp_integer_power_double_
    025711  aa  137 151 156 164
    025712  aa  145 147 145 162
    025713  aa  137 160 157 167
    025714  aa  145 162 137 144
    025715  aa  157 165 142 154
    025716  aa  145 137 000 000
    025717  aa  031 150 146 160         hfp_integer_power_single_
    025720  aa  137 151 156 164
    025721  aa  145 147 145 162
    025722  aa  137 160 157 167
    025723  aa  145 162 137 163
    025724  aa  151 156 147 154
    025725  aa  145 137 000 000
    025726  aa  035 150 146 160         hfp_double_arc_tan_degrees_2_
    025727  aa  137 144 157 165
    025730  aa  142 154 145 137
    025731  aa  141 162 143 137
    025732  aa  164 141 156 137
    025733  aa  144 145 147 162
    025734  aa  145 145 163 137
    025735  aa  062 137 000 000
    025736  aa  035 150 146 160         hfp_double_arc_tan_radians_2_
    025737  aa  137 144 157 165
    025740  aa  142 154 145 137
    025741  aa  141 162 143 137
    025742  aa  164 141 156 137
    025743  aa  162 141 144 151
    025744  aa  141 156 163 137
    025745  aa  062 137 000 000
    025746  aa  032 150 146 160         hfp_arc_tangent_degrees_2_
    025747  aa  137 141 162 143
    025750  aa  137 164 141 156
    025751  aa  147 145 156 164
    025752  aa  137 144 145 147
    025753  aa  162 145 145 163
    025754  aa  137 062 137 000
    025755  aa  032 150 146 160         hfp_arc_tangent_radians_2_
    025756  aa  137 141 162 143
    025757  aa  137 164 141 156
    025760  aa  147 145 156 164
    025761  aa  137 162 141 144
    025762  aa  151 141 156 163
    025763  aa  137 062 137 000
    025764  aa  027 150 146 160         hfp_double_exponential_
    025765  aa  137 144 157 165
    025766  aa  142 154 145 137
    025767  aa  145 170 160 157
    025770  aa  156 145 156 164
    025771  aa  151 141 154 137
    025772  aa  027 150 146 160         hfp_double_log_base_10_
    025773  aa  137 144 157 165
    025774  aa  142 154 145 137
    025775  aa  154 157 147 137
    025776  aa  142 141 163 145
    025777  aa  137 061 060 137
    026000  aa  026 150 146 160         hfp_double_log_base_e_
    026001  aa  137 144 157 165
    026002  aa  142 154 145 137
    026003  aa  154 157 147 137
    026004  aa  142 141 163 145
    026005  aa  137 145 137 000
    026006  aa  026 150 146 160         hfp_double_log_base_2_
    026007  aa  137 144 157 165
    026010  aa  142 154 145 137
    026011  aa  154 157 147 137
    026012  aa  142 141 163 145
    026013  aa  137 062 137 000
    026014  aa  033 150 146 160         hfp_double_arc_tan_degrees_
    026015  aa  137 144 157 165
    026016  aa  142 154 145 137
    026017  aa  141 162 143 137
    026020  aa  164 141 156 137
    026021  aa  144 145 147 162
    026022  aa  145 145 163 137
    026023  aa  033 150 146 160         hfp_double_arc_tan_radians_
    026024  aa  137 144 157 165
    026025  aa  142 154 145 137
    026026  aa  141 162 143 137
    026027  aa  164 141 156 137
    026030  aa  162 141 144 151
    026031  aa  141 156 163 137
    026032  aa  036 150 146 160         hfp_double_arc_cosine_degrees_
    026033  aa  137 144 157 165
    026034  aa  142 154 145 137
    026035  aa  141 162 143 137
    026036  aa  143 157 163 151
    026037  aa  156 145 137 144
    026040  aa  145 147 162 145
    026041  aa  145 163 137 000
    026042  aa  036 150 146 160         hfp_double_arc_cosine_radians_
    026043  aa  137 144 157 165
    026044  aa  142 154 145 137
    026045  aa  141 162 143 137
    026046  aa  143 157 163 151
    026047  aa  156 145 137 162
    026050  aa  141 144 151 141
    026051  aa  156 163 137 000
    026052  aa  034 150 146 160         hfp_double_arc_sine_degrees_
    026053  aa  137 144 157 165
    026054  aa  142 154 145 137
    026055  aa  141 162 143 137
    026056  aa  163 151 156 145
    026057  aa  137 144 145 147
    026060  aa  162 145 145 163
    026061  aa  137 000 000 000
    026062  aa  034 150 146 160         hfp_double_arc_sine_radians_
    026063  aa  137 144 157 165
    026064  aa  142 154 145 137
    026065  aa  141 162 143 137
    026066  aa  163 151 156 145
    026067  aa  137 162 141 144
    026070  aa  151 141 156 163
    026071  aa  137 000 000 000
    026072  aa  033 150 146 160         hfp_double_tangent_degrees_
    026073  aa  137 144 157 165
    026074  aa  142 154 145 137
    026075  aa  164 141 156 147
    026076  aa  145 156 164 137
    026077  aa  144 145 147 162
    026100  aa  145 145 163 137
    026101  aa  033 150 146 160         hfp_double_tangent_radians_
    026102  aa  137 144 157 165
    026103  aa  142 154 145 137
    026104  aa  164 141 156 147
    026105  aa  145 156 164 137
    026106  aa  162 141 144 151
    026107  aa  141 156 163 137
    026110  aa  032 150 146 160         hfp_double_cosine_degrees_
    026111  aa  137 144 157 165
    026112  aa  142 154 145 137
    026113  aa  143 157 163 151
    026114  aa  156 145 137 144
    026115  aa  145 147 162 145
    026116  aa  145 163 137 000
    026117  aa  032 150 146 160         hfp_double_cosine_radians_
    026120  aa  137 144 157 165
    026121  aa  142 154 145 137
    026122  aa  143 157 163 151
    026123  aa  156 145 137 162
    026124  aa  141 144 151 141
    026125  aa  156 163 137 000
    026126  aa  030 150 146 160         hfp_double_sine_degrees_
    026127  aa  137 144 157 165
    026130  aa  142 154 145 137
    026131  aa  163 151 156 145
    026132  aa  137 144 145 147
    026133  aa  162 145 145 163
    026134  aa  137 000 000 000
    026135  aa  030 150 146 160         hfp_double_sine_radians_
    026136  aa  137 144 157 165
    026137  aa  142 154 145 137
    026140  aa  163 151 156 145
    026141  aa  137 162 141 144
    026142  aa  151 141 156 163
    026143  aa  137 000 000 000
    026144  aa  027 150 146 160         hfp_double_square_root_
    026145  aa  137 144 157 165
    026146  aa  142 154 145 137
    026147  aa  163 161 165 141
    026150  aa  162 145 137 162
    026151  aa  157 157 164 137
    026152  aa  020 150 146 160         hfp_exponential_
    026153  aa  137 145 170 160
    026154  aa  157 156 145 156
    026155  aa  164 151 141 154
    026156  aa  137 000 000 000
    026157  aa  020 150 146 160         hfp_log_base_10_
    026160  aa  137 154 157 147
    026161  aa  137 142 141 163
    026162  aa  145 137 061 060
    026163  aa  137 000 000 000
    026164  aa  017 150 146 160         hfp_log_base_e_
    026165  aa  137 154 157 147
    026166  aa  137 142 141 163
    026167  aa  145 137 145 137
    026170  aa  017 150 146 160         hfp_log_base_2_
    026171  aa  137 154 157 147
    026172  aa  137 142 141 163
    026173  aa  145 137 062 137
    026174  aa  030 150 146 160         hfp_arc_tangent_degrees_
    026175  aa  137 141 162 143
    026176  aa  137 164 141 156
    026177  aa  147 145 156 164
    026200  aa  137 144 145 147
    026201  aa  162 145 145 163
    026202  aa  137 000 000 000
    026203  aa  030 150 146 160         hfp_arc_tangent_radians_
    026204  aa  137 141 162 143
    026205  aa  137 164 141 156
    026206  aa  147 145 156 164
    026207  aa  137 162 141 144
    026210  aa  151 141 156 163
    026211  aa  137 000 000 000
    026212  aa  027 150 146 160         hfp_arc_cosine_degrees_
    026213  aa  137 141 162 143
    026214  aa  137 143 157 163
    026215  aa  151 156 145 137
    026216  aa  144 145 147 162
    026217  aa  145 145 163 137
    026220  aa  027 150 146 160         hfp_arc_cosine_radians_
    026221  aa  137 141 162 143
    026222  aa  137 143 157 163
    026223  aa  151 156 145 137
    026224  aa  162 141 144 151
    026225  aa  141 156 163 137
    026226  aa  025 150 146 160         hfp_arc_sine_degrees_
    026227  aa  137 141 162 143
    026230  aa  137 163 151 156
    026231  aa  145 137 144 145
    026232  aa  147 162 145 145
    026233  aa  163 137 000 000
    026234  aa  025 150 146 160         hfp_arc_sine_radians_
    026235  aa  137 141 162 143
    026236  aa  137 163 151 156
    026237  aa  145 137 162 141
    026240  aa  144 151 141 156
    026241  aa  163 137 000 000
    026242  aa  024 150 146 160         hfp_tangent_degrees_
    026243  aa  137 164 141 156
    026244  aa  147 145 156 164
    026245  aa  137 144 145 147
    026246  aa  162 145 145 163
    026247  aa  137 000 000 000
    026250  aa  024 150 146 160         hfp_tangent_radians_
    026251  aa  137 164 141 156
    026252  aa  147 145 156 164
    026253  aa  137 162 141 144
    026254  aa  151 141 156 163
    026255  aa  137 000 000 000
    026256  aa  023 150 146 160         hfp_cosine_degrees_
    026257  aa  137 143 157 163
    026260  aa  151 156 145 137
    026261  aa  144 145 147 162
    026262  aa  145 145 163 137
    026263  aa  023 150 146 160         hfp_cosine_radians_
    026264  aa  137 143 157 163
    026265  aa  151 156 145 137
    026266  aa  162 141 144 151
    026267  aa  141 156 163 137
    026270  aa  021 150 146 160         hfp_sine_degrees_
    026271  aa  137 163 151 156
    026272  aa  145 137 144 145
    026273  aa  147 162 145 145
    026274  aa  163 137 000 000
    026275  aa  021 150 146 160         hfp_sine_radians_
    026276  aa  137 163 151 156
    026277  aa  145 137 162 141
    026300  aa  144 151 141 156
    026301  aa  163 137 000 000
    026302  aa  020 150 146 160         hfp_square_root_
    026303  aa  137 163 161 165
    026304  aa  141 162 145 137
    026305  aa  162 157 157 164
    026306  aa  137 000 000 000
    026307  aa  021 163 145 164         set_hexfp_control
    026310  aa  137 150 145 170
    026311  aa  146 160 137 143
    026312  aa  157 156 164 162
    026313  aa  157 154 000 000
    026314  aa  004 150 143 163         hcs_
    026315  aa  137 000 000 000
    026316  aa  013 143 150 141         chain_entry
    026317  aa  151 156 137 145
    026320  aa  156 164 162 171
    026321  aa  022 146 141 163         fast_related_data_
    026322  aa  164 137 162 145
    026323  aa  154 141 164 145
    026324  aa  144 137 144 141
    026325  aa  164 141 137 000
    026326  aa  016 146 157 162         fortran_pause_
    026327  aa  164 162 141 156
    026330  aa  137 160 141 165
    026331  aa  163 145 137 000
    026332  aa  013 146 157 162         fortran_end
    026333  aa  164 162 141 156
    026334  aa  137 145 156 144
    026335  aa  015 146 157 162         fortran_stop_
    026336  aa  164 162 141 156
    026337  aa  137 163 164 157
    026340  aa  160 137 000 000
    026341  aa  004 151 162 163         irs_
    026342  aa  137 000 000 000
    026343  aa  004 151 162 154         irl_
    026344  aa  137 000 000 000
    026345  aa  004 151 154 163         ils_
    026346  aa  137 000 000 000
    026347  aa  004 151 154 162         ilr_
    026350  aa  137 000 000 000
    026351  aa  005 141 155 157         amod_
    026352  aa  144 137 000 000
    026353  aa  004 155 157 144         mod_
    026354  aa  137 000 000 000
    026355  aa  006 144 160 162         dprod_
    026356  aa  157 144 137 000
    026357  aa  007 151 144 156         idnint_
    026360  aa  151 156 164 137
    026361  aa  005 156 151 156         nint_
    026362  aa  164 137 000 000
    026363  aa  006 144 156 151         dnint_
    026364  aa  156 164 137 000
    026365  aa  006 141 156 151         anint_
    026366  aa  156 164 137 000
    026367  aa  005 144 151 156         dint_
    026370  aa  164 137 000 000
    026371  aa  004 154 145 156         len_
    026372  aa  137 000 000 000
    026373  aa  006 143 157 156         conjg_
    026374  aa  152 147 137 000
    026375  aa  006 141 151 155         aimag_
    026376  aa  141 147 137 000
    026377  aa  005 141 151 156         aint_
    026400  aa  164 137 000 000
    026401  aa  006 144 163 151         dsign_
    026402  aa  147 156 137 000
    026403  aa  006 151 163 151         isign_
    026404  aa  147 156 137 000
    026405  aa  005 163 151 147         sign_
    026406  aa  156 137 000 000
    026407  aa  005 144 144 151         ddim_
    026410  aa  155 137 000 000
    026411  aa  005 151 144 151         idim_
    026412  aa  155 137 000 000
    026413  aa  004 144 151 155         dim_
    026414  aa  137 000 000 000
    026415  aa  005 144 141 142         dabs_
    026416  aa  163 137 000 000
    026417  aa  005 151 141 142         iabs_
    026420  aa  163 137 000 000
    026421  aa  004 141 142 163         abs_
    026422  aa  137 000 000 000
    026423  aa  006 144 143 157         dcosh_
    026424  aa  163 150 137 000
    026425  aa  005 143 157 163         cosh_
    026426  aa  150 137 000 000
    026427  aa  006 144 163 151         dsinh_
    026430  aa  156 150 137 000
    026431  aa  005 163 151 156         sinh_
    026432  aa  150 137 000 000
    026433  aa  006 144 164 141         dtanh_
    026434  aa  156 150 137 000
    026435  aa  006 151 156 144         index_
    026436  aa  145 170 137 000
    026437  aa  022 146 157 162         fort_int_builtins_
    026440  aa  164 137 151 156
    026441  aa  164 137 142 165
    026442  aa  151 154 164 151
    026443  aa  156 163 137 000
    026444  aa  006 144 141 143         dacos_
    026445  aa  157 163 137 000
    026446  aa  005 141 143 157         acos_
    026447  aa  163 137 000 000
    026450  aa  006 144 141 163         dasin_
    026451  aa  151 156 137 000
    026452  aa  005 141 163 151         asin_
    026453  aa  156 137 000 000
    026454  aa  005 144 164 141         dtan_
    026455  aa  156 137 000 000
    026456  aa  004 164 141 156         tan_
    026457  aa  137 000 000 000
    026460  aa  005 143 170 160         cxp2_
    026461  aa  062 137 000 000
    026462  aa  006 143 163 161         csqrt_
    026463  aa  162 164 137 000
    026464  aa  005 143 143 157         ccos_
    026465  aa  163 137 000 000
    026466  aa  005 143 163 151         csin_
    026467  aa  156 137 000 000
    026470  aa  005 143 154 157         clog_
    026471  aa  147 137 000 000
    026472  aa  005 143 145 170         cexp_
    026473  aa  160 137 000 000
    026474  aa  005 143 141 142         cabs_
    026475  aa  163 137 000 000
    026476  aa  006 144 163 161         dsqrt_
    026477  aa  162 164 137 000
    026500  aa  005 144 143 157         dcos_
    026501  aa  163 137 000 000
    026502  aa  005 144 163 151         dsin_
    026503  aa  156 137 000 000
    026504  aa  007 144 141 164         datan2_
    026505  aa  141 156 062 137
    026506  aa  006 144 141 164         datan_
    026507  aa  141 156 137 000
    026510  aa  007 144 154 157         dlog10_
    026511  aa  147 061 060 137
    026512  aa  005 144 154 157         dlog_
    026513  aa  147 137 000 000
    026514  aa  005 144 145 170         dexp_
    026515  aa  160 137 000 000
    026516  aa  005 144 155 157         dmod_
    026517  aa  144 137 000 000
    026520  aa  005 163 161 162         sqrt_
    026521  aa  164 137 000 000
    026522  aa  005 164 141 156         tanh_
    026523  aa  150 137 000 000
    026524  aa  004 143 157 163         cos_
    026525  aa  137 000 000 000
    026526  aa  004 163 151 156         sin_
    026527  aa  137 000 000 000
    026530  aa  006 141 164 141         atan2_
    026531  aa  156 062 137 000
    026532  aa  005 141 164 141         atan_
    026533  aa  156 137 000 000
    026534  aa  007 141 154 157         alog10_
    026535  aa  147 061 060 137
    026536  aa  005 141 154 157         alog_
    026537  aa  147 137 000 000
    026540  aa  004 145 170 160         exp_
    026541  aa  137 000 000 000
    026542  aa  022 146 157 162         fort_bfp_builtins_
    026543  aa  164 137 142 146
    026544  aa  160 137 142 165
    026545  aa  151 154 164 151
    026546  aa  156 163 137 000
    026547  aa  024 160 154 061         pl1_signal_from_ops_
    026550  aa  137 163 151 147
    026551  aa  156 141 154 137
    026552  aa  146 162 157 155
    026553  aa  137 157 160 163
    026554  aa  137 000 000 000
    026555  aa  015 160 141 143         pack_picture_
    026556  aa  153 137 160 151
    026557  aa  143 164 165 162
    026560  aa  145 137 000 000
    026561  aa  017 165 156 160         unpack_picture_
    026562  aa  141 143 153 137
    026563  aa  160 151 143 164
    026564  aa  165 162 145 137
    026565  aa  006 146 162 145         freen_
    026566  aa  145 156 137 000
    026567  aa  010 163 164 157         storage_
    026570  aa  162 141 147 145
    026571  aa  137 000 000 000
    026572  aa  013 157 160 137         op_storage_
    026573  aa  163 164 157 162
    026574  aa  141 147 145 137
    026575  aa  017 147 145 164         get_io_area_ptr
    026576  aa  137 151 157 137
    026577  aa  141 162 145 141
    026600  aa  137 160 164 162
    026601  aa  013 160 165 164         put_blanks_
    026602  aa  137 142 154 141
    026603  aa  156 153 163 137
    026604  aa  007 145 154 145         element
    026605  aa  155 145 156 164
    026606  aa  011 164 145 162         terminate
    026607  aa  155 151 156 141
    026610  aa  164 145 000 000
    026611  aa  014 146 151 154         file_control
    026612  aa  145 137 143 157
    026613  aa  156 164 162 157
    026614  aa  154 000 000 000
    026615  aa  015 162 145 141         read_or_write
    026616  aa  144 137 157 162
    026617  aa  137 167 162 151
    026620  aa  164 145 000 000
    026621  aa  013 146 157 162         fortran_io_
    026622  aa  164 162 141 156
    026623  aa  137 151 157 137
    026624  aa  011 160 165 164         put_prep_
    026625  aa  137 160 162 145
    026626  aa  160 137 000 000
    026627  aa  011 147 145 164         get_prep_
    026630  aa  137 160 162 145
    026631  aa  160 137 000 000
    026632  aa  006 143 154 157         close_
    026633  aa  163 145 137 000
    026634  aa  016 157 160 145         open_explicit_
    026635  aa  156 137 145 170
    026636  aa  160 154 151 143
    026637  aa  151 164 137 000
    026640  aa  014 160 154 151         plio2_recio_
    026641  aa  157 062 137 162
    026642  aa  145 143 151 157
    026643  aa  137 000 000 000
    026644  aa  017 160 165 164         put_value_edit_
    026645  aa  137 166 141 154
    026646  aa  165 145 137 145
    026647  aa  144 151 164 137
    026650  aa  017 160 165 164         put_value_list_
    026651  aa  137 166 141 154
    026652  aa  165 145 137 154
    026653  aa  151 163 164 137
    026654  aa  017 147 145 164         get_value_list_
    026655  aa  137 166 141 154
    026656  aa  165 145 137 154
    026657  aa  151 163 164 137
    026660  aa  017 160 165 164         put_value_data_
    026661  aa  137 166 141 154
    026662  aa  165 145 137 144
    026663  aa  141 164 141 137
    026664  aa  016 160 165 164         put_terminate_
    026665  aa  137 164 145 162
    026666  aa  155 151 156 141
    026667  aa  164 145 137 000
    026670  aa  016 147 145 164         get_terminate_
    026671  aa  137 164 145 162
    026672  aa  155 151 156 141
    026673  aa  164 145 137 000
    026674  aa  006 160 154 151         plio2_
    026675  aa  157 062 137 000
    026676  aa  015 160 165 164         put_field_str
    026677  aa  137 146 151 145
    026700  aa  154 144 137 163
    026701  aa  164 162 000 000
    026702  aa  015 146 157 162         fort_cleanup_
    026703  aa  164 137 143 154
    026704  aa  145 141 156 165
    026705  aa  160 137 000 000
    026706  aa  006 143 162 145         create
    026707  aa  141 164 145 000
    026710  aa  020 146 157 162         fortran_storage_
    026711  aa  164 162 141 156
    026712  aa  137 163 164 157
    026713  aa  162 141 147 145
    026714  aa  137 000 000 000
    026715  aa  011 165 156 167         unwinder_
    026716  aa  151 156 144 145
    026717  aa  162 137 000 000
    026720  aa  010 163 164 157         stop_run
    026721  aa  160 137 162 165
    026722  aa  156 000 000 000
    026723  aa  024 166 151 162         virtual_cpu_time_op_
    026724  aa  164 165 141 154
    026725  aa  137 143 160 165
    026726  aa  137 164 151 155
    026727  aa  145 137 157 160
    026730  aa  137 000 000 000
    026731  aa  006 143 154 157         clock_
    026732  aa  143 153 137 000
    026733  aa  010 163 171 163         sys_info
    026734  aa  137 151 156 146
    026735  aa  157 000 000 000
    026736  aa  004 146 162 145         free
    026737  aa  145 000 000 000
    026740  aa  030 146 157 162         fortran_storage_manager_
    026741  aa  164 162 141 156
    026742  aa  137 163 164 157
    026743  aa  162 141 147 145
    026744  aa  137 155 141 156
    026745  aa  141 147 145 162
    026746  aa  137 000 000 000
    026747  aa  005 144 143 157         dcosh
    026750  aa  163 150 000 000
    026751  aa  004 143 157 163         cosh
    026752  aa  150 000 000 000
    026753  aa  005 144 163 151         dsinh
    026754  aa  156 150 000 000
    026755  aa  004 163 151 156         sinh
    026756  aa  150 000 000 000
    026757  aa  005 144 164 141         dtanh
    026760  aa  156 150 000 000
    026761  aa  013 143 155 160         cmpx_p_cmpx
    026762  aa  170 137 160 137
    026763  aa  143 155 160 170
    026764  aa  004 144 155 157         dmod
    026765  aa  144 000 000 000
    026766  aa  004 164 141 156         tanh
    026767  aa  150 000 000 000
    026770  aa  005 143 163 161         csqrt
    026771  aa  162 164 000 000
    026772  aa  004 143 163 151         csin
    026773  aa  156 000 000 000
    026774  aa  004 143 154 157         clog
    026775  aa  147 000 000 000
    026776  aa  004 143 145 170         cexp
    026777  aa  160 000 000 000
    027000  aa  004 143 143 157         ccos
    027001  aa  163 000 000 000
    027002  aa  016 146 157 162         fort_math_ops_
    027003  aa  164 137 155 141
    027004  aa  164 150 137 157
    027005  aa  160 163 137 000
    027006  aa  011 157 160 137         op_empty_
    027007  aa  145 155 160 164
    027010  aa  171 137 000 000
    027011  aa  011 157 160 137         op_freen_
    027012  aa  146 162 145 145
    027013  aa  156 137 000 000
    027014  aa  011 157 160 137         op_alloc_
    027015  aa  141 154 154 157
    027016  aa  143 137 000 000
    027017  aa  006 141 154 154         alloc_
    027020  aa  157 143 137 000
    027021  aa  013 160 165 164         put_control
    027022  aa  137 143 157 156
    027023  aa  164 162 157 154
    027024  aa  015 160 165 164         put_field_chk
    027025  aa  137 146 151 145
    027026  aa  154 144 137 143
    027027  aa  150 153 000 000
    027030  aa  011 160 165 164         put_field
    027031  aa  137 146 151 145
    027032  aa  154 144 000 000
    027033  aa  012 160 165 164         put_field_
    027034  aa  137 146 151 145
    027035  aa  154 144 137 000
    027036  aa  003 155 157 144         mod
    027037  aa  010 164 162 165         truncate
    027040  aa  156 143 141 164
    027041  aa  145 000 000 000
    027042  aa  004 143 141 142         cabs
    027043  aa  163 000 000 000
    027044  aa  004 163 151 147         sign
    027045  aa  156 000 000 000
    027046  aa  005 146 154 157         floor
    027047  aa  157 162 000 000
    027050  aa  004 143 145 151         ceil
    027051  aa  154 000 000 000
    027052  aa  010 144 145 143         dec_ops_
    027053  aa  137 157 160 163
    027054  aa  137 000 000 000
    027055  aa  007 144 166 162         dvrcdec
    027056  aa  143 144 145 143
    027057  aa  006 144 166 143         dvcdec
    027060  aa  144 145 143 000
    027061  aa  006 155 160 143         mpcdec
    027062  aa  144 145 143 000
    027063  aa  015 143 160 154         cplx_dec_ops_
    027064  aa  170 137 144 145
    027065  aa  143 137 157 160
    027066  aa  163 137 000 000
    027067  aa  026 151 156 164         integer_power_integer_
    027070  aa  145 147 145 162
    027071  aa  137 160 157 167
    027072  aa  145 162 137 151
    027073  aa  156 164 145 147
    027074  aa  145 162 137 000
    027075  aa  025 163 151 156         single_power_integer_
    027076  aa  147 154 145 137
    027077  aa  160 157 167 145
    027100  aa  162 137 151 156
    027101  aa  164 145 147 145
    027102  aa  162 137 000 000
    027103  aa  024 163 151 156         single_power_single_
    027104  aa  147 154 145 137
    027105  aa  160 157 167 145
    027106  aa  162 137 163 151
    027107  aa  156 147 154 145
    027110  aa  137 000 000 000
    027111  aa  025 144 157 165         double_power_integer_
    027112  aa  142 154 145 137
    027113  aa  160 157 167 145
    027114  aa  162 137 151 156
    027115  aa  164 145 147 145
    027116  aa  162 137 000 000
    027117  aa  016 160 157 167         power_integer_
    027120  aa  145 162 137 151
    027121  aa  156 164 145 147
    027122  aa  145 162 137 000
    027123  aa  024 144 157 165         double_power_double_
    027124  aa  142 154 145 137
    027125  aa  160 157 167 145
    027126  aa  162 137 144 157
    027127  aa  165 142 154 145
    027130  aa  137 000 000 000
    027131  aa  024 144 157 165         double_power_single_
    027132  aa  142 154 145 137
    027133  aa  160 157 167 145
    027134  aa  162 137 163 151
    027135  aa  156 147 154 145
    027136  aa  137 000 000 000
    027137  aa  025 151 156 164         integer_power_double_
    027140  aa  145 147 145 162
    027141  aa  137 160 157 167
    027142  aa  145 162 137 144
    027143  aa  157 165 142 154
    027144  aa  145 137 000 000
    027145  aa  025 151 156 164         integer_power_single_
    027146  aa  145 147 145 162
    027147  aa  137 160 157 167
    027150  aa  145 162 137 163
    027151  aa  151 156 147 154
    027152  aa  145 137 000 000
    027153  aa  006 160 157 167         power_
    027154  aa  145 162 137 000
    027155  aa  031 144 157 165         double_arc_tan_degrees_2_
    027156  aa  142 154 145 137
    027157  aa  141 162 143 137
    027160  aa  164 141 156 137
    027161  aa  144 145 147 162
    027162  aa  145 145 163 137
    027163  aa  062 137 000 000
    027164  aa  031 144 157 165         double_arc_tan_radians_2_
    027165  aa  142 154 145 137
    027166  aa  141 162 143 137
    027167  aa  164 141 156 137
    027170  aa  162 141 144 151
    027171  aa  141 156 163 137
    027172  aa  062 137 000 000
    027173  aa  026 141 162 143         arc_tangent_degrees_2_
    027174  aa  137 164 141 156
    027175  aa  147 145 156 164
    027176  aa  137 144 145 147
    027177  aa  162 145 145 163
    027200  aa  137 062 137 000
    027201  aa  026 141 162 143         arc_tangent_radians_2_
    027202  aa  137 164 141 156
    027203  aa  147 145 156 164
    027204  aa  137 162 141 144
    027205  aa  151 141 156 163
    027206  aa  137 062 137 000
    027207  aa  023 144 157 165         double_exponential_
    027210  aa  142 154 145 137
    027211  aa  145 170 160 157
    027212  aa  156 145 156 164
    027213  aa  151 141 154 137
    027214  aa  023 144 157 165         double_log_base_10_
    027215  aa  142 154 145 137
    027216  aa  154 157 147 137
    027217  aa  142 141 163 145
    027220  aa  137 061 060 137
    027221  aa  022 144 157 165         double_log_base_e_
    027222  aa  142 154 145 137
    027223  aa  154 157 147 137
    027224  aa  142 141 163 145
    027225  aa  137 145 137 000
    027226  aa  022 144 157 165         double_log_base_2_
    027227  aa  142 154 145 137
    027230  aa  154 157 147 137
    027231  aa  142 141 163 145
    027232  aa  137 062 137 000
    027233  aa  021 144 157 165         double_logarithm_
    027234  aa  142 154 145 137
    027235  aa  154 157 147 141
    027236  aa  162 151 164 150
    027237  aa  155 137 000 000
    027240  aa  027 144 157 165         double_arc_tan_degrees_
    027241  aa  142 154 145 137
    027242  aa  141 162 143 137
    027243  aa  164 141 156 137
    027244  aa  144 145 147 162
    027245  aa  145 145 163 137
    027246  aa  027 144 157 165         double_arc_tan_radians_
    027247  aa  142 154 145 137
    027250  aa  141 162 143 137
    027251  aa  164 141 156 137
    027252  aa  162 141 144 151
    027253  aa  141 156 163 137
    027254  aa  023 144 157 165         double_arc_tangent_
    027255  aa  142 154 145 137
    027256  aa  141 162 143 137
    027257  aa  164 141 156 147
    027260  aa  145 156 164 137
    027261  aa  032 144 157 165         double_arc_cosine_degrees_
    027262  aa  142 154 145 137
    027263  aa  141 162 143 137
    027264  aa  143 157 163 151
    027265  aa  156 145 137 144
    027266  aa  145 147 162 145
    027267  aa  145 163 137 000
    027270  aa  032 144 157 165         double_arc_cosine_radians_
    027271  aa  142 154 145 137
    027272  aa  141 162 143 137
    027273  aa  143 157 163 151
    027274  aa  156 145 137 162
    027275  aa  141 144 151 141
    027276  aa  156 163 137 000
    027277  aa  030 144 157 165         double_arc_sine_degrees_
    027300  aa  142 154 145 137
    027301  aa  141 162 143 137
    027302  aa  163 151 156 145
    027303  aa  137 144 145 147
    027304  aa  162 145 145 163
    027305  aa  137 000 000 000
    027306  aa  030 144 157 165         double_arc_sine_radians_
    027307  aa  142 154 145 137
    027310  aa  141 162 143 137
    027311  aa  163 151 156 145
    027312  aa  137 162 141 144
    027313  aa  151 141 156 163
    027314  aa  137 000 000 000
    027315  aa  020 144 157 165         double_arc_sine_
    027316  aa  142 154 145 137
    027317  aa  141 162 143 137
    027320  aa  163 151 156 145
    027321  aa  137 000 000 000
    027322  aa  027 144 157 165         double_tangent_degrees_
    027323  aa  142 154 145 137
    027324  aa  164 141 156 147
    027325  aa  145 156 164 137
    027326  aa  144 145 147 162
    027327  aa  145 145 163 137
    027330  aa  027 144 157 165         double_tangent_radians_
    027331  aa  142 154 145 137
    027332  aa  164 141 156 147
    027333  aa  145 156 164 137
    027334  aa  162 141 144 151
    027335  aa  141 156 163 137
    027336  aa  017 144 157 165         double_tangent_
    027337  aa  142 154 145 137
    027340  aa  164 141 156 147
    027341  aa  145 156 164 137
    027342  aa  026 144 157 165         double_cosine_degrees_
    027343  aa  142 154 145 137
    027344  aa  143 157 163 151
    027345  aa  156 145 137 144
    027346  aa  145 147 162 145
    027347  aa  145 163 137 000
    027350  aa  026 144 157 165         double_cosine_radians_
    027351  aa  142 154 145 137
    027352  aa  143 157 163 151
    027353  aa  156 145 137 162
    027354  aa  141 144 151 141
    027355  aa  156 163 137 000
    027356  aa  024 144 157 165         double_sine_degrees_
    027357  aa  142 154 145 137
    027360  aa  163 151 156 145
    027361  aa  137 144 145 147
    027362  aa  162 145 145 163
    027363  aa  137 000 000 000
    027364  aa  024 144 157 165         double_sine_radians_
    027365  aa  142 154 145 137
    027366  aa  163 151 156 145
    027367  aa  137 162 141 144
    027370  aa  151 141 156 163
    027371  aa  137 000 000 000
    027372  aa  014 144 157 165         double_sine_
    027373  aa  142 154 145 137
    027374  aa  163 151 156 145
    027375  aa  137 000 000 000
    027376  aa  023 144 157 165         double_square_root_
    027377  aa  142 154 145 137
    027400  aa  163 161 165 141
    027401  aa  162 145 137 162
    027402  aa  157 157 164 137
    027403  aa  014 145 170 160         exponential_
    027404  aa  157 156 145 156
    027405  aa  164 151 141 154
    027406  aa  137 000 000 000
    027407  aa  014 154 157 147         log_base_10_
    027410  aa  137 142 141 163
    027411  aa  145 137 061 060
    027412  aa  137 000 000 000
    027413  aa  013 154 157 147         log_base_e_
    027414  aa  137 142 141 163
    027415  aa  145 137 145 137
    027416  aa  013 154 157 147         log_base_2_
    027417  aa  137 142 141 163
    027420  aa  145 137 062 137
    027421  aa  012 154 157 147         logarithm_
    027422  aa  141 162 151 164
    027423  aa  150 155 137 000
    027424  aa  024 141 162 143         arc_tangent_degrees_
    027425  aa  137 164 141 156
    027426  aa  147 145 156 164
    027427  aa  137 144 145 147
    027430  aa  162 145 145 163
    027431  aa  137 000 000 000
    027432  aa  024 141 162 143         arc_tangent_radians_
    027433  aa  137 164 141 156
    027434  aa  147 145 156 164
    027435  aa  137 162 141 144
    027436  aa  151 141 156 163
    027437  aa  137 000 000 000
    027440  aa  014 141 162 143         arc_tangent_
    027441  aa  137 164 141 156
    027442  aa  147 145 156 164
    027443  aa  137 000 000 000
    027444  aa  023 141 162 143         arc_cosine_degrees_
    027445  aa  137 143 157 163
    027446  aa  151 156 145 137
    027447  aa  144 145 147 162
    027450  aa  145 145 163 137
    027451  aa  023 141 162 143         arc_cosine_radians_
    027452  aa  137 143 157 163
    027453  aa  151 156 145 137
    027454  aa  162 141 144 151
    027455  aa  141 156 163 137
    027456  aa  021 141 162 143         arc_sine_degrees_
    027457  aa  137 163 151 156
    027460  aa  145 137 144 145
    027461  aa  147 162 145 145
    027462  aa  163 137 000 000
    027463  aa  021 141 162 143         arc_sine_radians_
    027464  aa  137 163 151 156
    027465  aa  145 137 162 141
    027466  aa  144 151 141 156
    027467  aa  163 137 000 000
    027470  aa  011 141 162 143         arc_sine_
    027471  aa  137 163 151 156
    027472  aa  145 137 000 000
    027473  aa  020 164 141 156         tangent_degrees_
    027474  aa  147 145 156 164
    027475  aa  137 144 145 147
    027476  aa  162 145 145 163
    027477  aa  137 000 000 000
    027500  aa  020 164 141 156         tangent_radians_
    027501  aa  147 145 156 164
    027502  aa  137 162 141 144
    027503  aa  151 141 156 163
    027504  aa  137 000 000 000
    027505  aa  010 164 141 156         tangent_
    027506  aa  147 145 156 164
    027507  aa  137 000 000 000
    027510  aa  017 143 157 163         cosine_degrees_
    027511  aa  151 156 145 137
    027512  aa  144 145 147 162
    027513  aa  145 145 163 137
    027514  aa  017 143 157 163         cosine_radians_
    027515  aa  151 156 145 137
    027516  aa  162 141 144 151
    027517  aa  141 156 163 137
    027520  aa  015 163 151 156         sine_degrees_
    027521  aa  145 137 144 145
    027522  aa  147 162 145 145
    027523  aa  163 137 000 000
    027524  aa  015 163 151 156         sine_radians_
    027525  aa  145 137 162 141
    027526  aa  144 151 141 156
    027527  aa  163 137 000 000
    027530  aa  005 163 151 156         sine_
    027531  aa  145 137 000 000
    027532  aa  014 163 161 165         square_root_
    027533  aa  141 162 145 137
    027534  aa  162 157 157 164
    027535  aa  137 000 000 000
    027536  aa  024 141 156 171         any_to_any_truncate_
    027537  aa  137 164 157 137
    027540  aa  141 156 171 137
    027541  aa  164 162 165 156
    027542  aa  143 141 164 145
    027543  aa  137 000 000 000
    027544  aa  021 141 156 171         any_to_any_round_
    027545  aa  137 164 157 137
    027546  aa  141 156 171 137
    027547  aa  162 157 165 156
    027550  aa  144 137 000 000
    027551  aa  026 162 145 141         real_to_real_truncate_
    027552  aa  154 137 164 157
    027553  aa  137 162 145 141
    027554  aa  154 137 164 162
    027555  aa  165 156 143 141
    027556  aa  164 145 137 000
    027557  aa  023 162 145 141         real_to_real_round_
    027560  aa  154 137 164 157
    027561  aa  137 162 145 141
    027562  aa  154 137 162 157
    027563  aa  165 156 144 137
    027564  aa  013 141 156 171         any_to_any_
    027565  aa  137 164 157 137
    027566  aa  141 156 171 137
    027567  aa  014 147 145 164         get_edit_eis
    027570  aa  137 145 144 151
    027571  aa  164 137 145 151
    027572  aa  163 000 000 000
    027573  aa  014 160 165 164         put_edit_eis
    027574  aa  137 145 144 151
    027575  aa  164 137 145 151
    027576  aa  163 000 000 000
    027577  aa  011 162 145 143         record_io
    027600  aa  157 162 144 137
    027601  aa  151 157 000 000
    027602  aa  012 162 145 143         record_io_
    027603  aa  157 162 144 137
    027604  aa  151 157 137 000
    027605  aa  013 163 164 162         stream_prep
    027606  aa  145 141 155 137
    027607  aa  160 162 145 160
    027610  aa  015 160 165 164         put_terminate
    027611  aa  137 164 145 162
    027612  aa  155 151 156 141
    027613  aa  164 145 000 000
    027614  aa  013 160 165 164         put_format_
    027615  aa  137 146 157 162
    027616  aa  155 141 164 137

NO TRAP POINTER WORDS

TYPE PAIR BLOCKS

    027617  aa   000004 000000
    027620  55   000514 000514
    027621  aa   000004 000000
    027622  55   000525 000522
    027623  aa   000004 000000
    027624  55   000531 001315
    027625  aa   000004 000000
    027626  55   000531 001321
    027627  aa   000004 000000
    027630  55   000531 001323
    027631  aa   000004 000000
    027632  55   000531 001325
    027633  aa   000004 000000
    027634  55   000531 001327
    027635  aa   000004 000000
    027636  55   000531 001331
    027637  aa   000004 000000
    027640  55   000531 001333
    027641  aa   000004 000000
    027642  55   000531 001337
    027643  aa   000004 000000
    027644  55   000531 001341
    027645  aa   000004 000000
    027646  55   000531 001343
    027647  aa   000004 000000
    027650  55   000531 001345
    027651  aa   000004 000000
    027652  55   000531 001351
    027653  aa   000004 000000
    027654  55   000531 001353
    027655  aa   000004 000000
    027656  55   000531 001357
    027657  aa   000004 000000
    027660  55   000531 001361
    027661  aa   000004 000000
    027662  55   000531 001365
    027663  aa   000004 000000
    027664  55   000531 001367
    027665  aa   000004 000000
    027666  55   000531 001371
    027667  aa   000004 000000
    027670  55   000531 001373
    027671  aa   000004 000000
    027672  55   000531 001375
    027673  aa   000004 000000
    027674  55   000531 001377
    027675  aa   000004 000000
    027676  55   000531 001410
    027677  aa   000004 000000
    027700  55   000531 001412
    027701  aa   000004 000000
    027702  55   000531 001414
    027703  aa   000004 000000
    027704  55   000531 001416
    027705  aa   000004 000000
    027706  55   000531 001420
    027707  aa   000004 000000
    027710  55   000531 001422
    027711  aa   000004 000000
    027712  55   000531 001424
    027713  aa   000004 000000
    027714  55   000531 001426
    027715  aa   000004 000000
    027716  55   000531 001430
    027717  aa   000004 000000
    027720  55   000531 001432
    027721  aa   000004 000000
    027722  55   000531 001434
    027723  aa   000004 000000
    027724  55   000531 001436
    027725  aa   000004 000000
    027726  55   000531 001440
    027727  aa   000004 000000
    027730  55   000531 001442
    027731  aa   000004 000000
    027732  55   000531 001444
    027733  aa   000004 000000
    027734  55   000531 001446
    027735  aa   000004 000000
    027736  55   000531 001450
    027737  aa   000004 000000
    027740  55   000531 001452
    027741  aa   000004 000000
    027742  55   000531 001454
    027743  aa   000004 000000
    027744  55   000531 001456
    027745  aa   000004 000000
    027746  55   000531 001460
    027747  aa   000004 000000
    027750  55   000531 001462
    027751  aa   000004 000000
    027752  55   000531 001464
    027753  aa   000004 000000
    027754  55   000531 001466
    027755  aa   000004 000000
    027756  55   000531 001470
    027757  aa   000004 000000
    027760  55   000531 001472
    027761  aa   000004 000000
    027762  55   000531 001474
    027763  aa   000004 000000
    027764  55   000531 001476
    027765  aa   000004 000000
    027766  55   000531 001500
    027767  aa   000004 000000
    027770  55   000531 001502
    027771  aa   000004 000000
    027772  55   000531 001504
    027773  aa   000004 000000
    027774  55   001746 000536
    027775  aa   000004 000000
    027776  55   001746 000541
    027777  aa   000004 000000
    030000  55   001746 000544
    030001  aa   000004 000000
    030002  55   001746 000547
    030003  aa   000004 000000
    030004  55   001746 000552
    030005  aa   000004 000000
    030006  55   001746 000555
    030007  aa   000004 000000
    030010  55   001746 000561
    030011  aa   000004 000000
    030012  55   001746 000564
    030013  aa   000004 000000
    030014  55   001746 000567
    030015  aa   000004 000000
    030016  55   001746 000572
    030017  aa   000004 000000
    030020  55   001746 000575
    030021  aa   000004 000000
    030022  55   001746 000600
    030023  aa   000004 000000
    030024  55   001746 000603
    030025  aa   000004 000000
    030026  55   001746 000606
    030027  aa   000004 000000
    030030  55   002063 000611
    030031  aa   000004 000000
    030032  55   002117 000620
    030033  aa   000004 000000
    030034  55   002063 000627
    030035  aa   000004 000000
    030036  55   002117 000636
    030037  aa   000004 000000
    030040  55   002117 000645
    030041  aa   000004 000000
    030042  55   002117 000654
    030043  aa   000004 000000
    030044  55   002117 000663
    030045  aa   000004 000000
    030046  55   002220 000672
    030047  aa   000004 000000
    030050  55   002220 000702
    030051  aa   000004 000000
    030052  55   002404 000712
    030053  aa   000004 000000
    030054  55   002404 000721
    030055  aa   000004 000000
    030056  55   002153 000730
    030057  aa   000004 000000
    030060  55   002177 000736
    030061  aa   000004 000000
    030062  55   002177 000744
    030063  aa   000004 000000
    030064  55   002177 000752
    030065  aa   000004 000000
    030066  55   002220 000760
    030067  aa   000004 000000
    030070  55   002220 000767
    030071  aa   000004 000000
    030072  55   002261 000776
    030073  aa   000004 000000
    030074  55   002261 001006
    030075  aa   000004 000000
    030076  55   002261 001016
    030077  aa   000004 000000
    030100  55   002261 001026
    030101  aa   000004 000000
    030102  55   002302 001036
    030103  aa   000004 000000
    030104  55   002302 001045
    030105  aa   000004 000000
    030106  55   002336 001054
    030107  aa   000004 000000
    030110  55   002336 001063
    030111  aa   000004 000000
    030112  55   002336 001072
    030113  aa   000004 000000
    030114  55   002336 001101
    030115  aa   000004 000000
    030116  55   002342 001110
    030117  aa   000004 000000
    030120  55   002347 001116
    030121  aa   000004 000000
    030122  55   002365 001123
    030123  aa   000004 000000
    030124  55   002365 001130
    030125  aa   000004 000000
    030126  55   002365 001134
    030127  aa   000004 000000
    030130  55   002404 001140
    030131  aa   000004 000000
    030132  55   002404 001147
    030133  aa   000004 000000
    030134  55   002434 001156
    030135  aa   000004 000000
    030136  55   002434 001164
    030137  aa   000004 000000
    030140  55   002434 001172
    030141  aa   000004 000000
    030142  55   002434 001200
    030143  aa   000004 000000
    030144  55   002451 001206
    030145  aa   000004 000000
    030146  55   002451 001214
    030147  aa   000004 000000
    030150  55   002474 001222
    030151  aa   000004 000000
    030152  55   002474 001227
    030153  aa   000004 000000
    030154  55   002474 001234
    030155  aa   000004 000000
    030156  55   002474 001241
    030157  aa   000004 000000
    030160  55   002476 001246
    030161  aa   000004 000000
    030162  55   001260 001253
    030163  aa   000004 000000
    030164  55   001265 001262
    030165  aa   000004 000000
    030166  55   001301 001301
    030167  aa   000004 000000
    030170  55   001272 001272
    030171  aa   000004 000000
    030172  55   001301 001276
    030173  aa   000004 000000
    030174  55   001403 001305
    030175  aa   000004 000000
    030176  55   001403 001307
    030177  aa   000004 000000
    030200  55   001403 001311
    030201  aa   000004 000000
    030202  55   001403 001313
    030203  aa   000004 000000
    030204  55   001506 001315
    030205  aa   000004 000000
    030206  55   001403 001317
    030207  aa   000004 000000
    030210  55   001506 001321
    030211  aa   000004 000000
    030212  55   001506 001323
    030213  aa   000004 000000
    030214  55   001506 001325
    030215  aa   000004 000000
    030216  55   001506 001327
    030217  aa   000004 000000
    030220  55   001506 001331
    030221  aa   000004 000000
    030222  55   001506 001333
    030223  aa   000004 000000
    030224  55   001403 001335
    030225  aa   000004 000000
    030226  55   001506 001337
    030227  aa   000004 000000
    030230  55   001506 001341
    030231  aa   000004 000000
    030232  55   001506 001343
    030233  aa   000004 000000
    030234  55   001506 001345
    030235  aa   000004 000000
    030236  55   001403 001347
    030237  aa   000004 000000
    030240  55   001506 001351
    030241  aa   000004 000000
    030242  55   001506 001353
    030243  aa   000004 000000
    030244  55   001403 001355
    030245  aa   000004 000000
    030246  55   001506 001357
    030247  aa   000004 000000
    030250  55   001506 001361
    030251  aa   000004 000000
    030252  55   001403 001363
    030253  aa   000004 000000
    030254  55   001506 001365
    030255  aa   000004 000000
    030256  55   001506 001367
    030257  aa   000004 000000
    030260  55   001506 001371
    030261  aa   000004 000000
    030262  55   001506 001373
    030263  aa   000004 000000
    030264  55   001506 001375
    030265  aa   000004 000000
    030266  55   001506 001377
    030267  aa   000004 000000
    030270  55   001403 001401
    030271  aa   000004 000000
    030272  55   001506 001410
    030273  aa   000004 000000
    030274  55   001506 001412
    030275  aa   000004 000000
    030276  55   001506 001414
    030277  aa   000004 000000
    030300  55   001506 001416
    030301  aa   000004 000000
    030302  55   001506 001420
    030303  aa   000004 000000
    030304  55   001506 001422
    030305  aa   000004 000000
    030306  55   001506 001424
    030307  aa   000004 000000
    030310  55   001506 001426
    030311  aa   000004 000000
    030312  55   001506 001430
    030313  aa   000004 000000
    030314  55   001506 001432
    030315  aa   000004 000000
    030316  55   001506 001434
    030317  aa   000004 000000
    030320  55   001506 001436
    030321  aa   000004 000000
    030322  55   001506 001440
    030323  aa   000004 000000
    030324  55   001506 001442
    030325  aa   000004 000000
    030326  55   001506 001444
    030327  aa   000004 000000
    030330  55   001506 001446
    030331  aa   000004 000000
    030332  55   001506 001450
    030333  aa   000004 000000
    030334  55   001506 001452
    030335  aa   000004 000000
    030336  55   001506 001454
    030337  aa   000004 000000
    030340  55   001506 001456
    030341  aa   000004 000000
    030342  55   001506 001460
    030343  aa   000004 000000
    030344  55   001506 001462
    030345  aa   000004 000000
    030346  55   001506 001464
    030347  aa   000004 000000
    030350  55   001506 001466
    030351  aa   000004 000000
    030352  55   001506 001470
    030353  aa   000004 000000
    030354  55   001506 001472
    030355  aa   000004 000000
    030356  55   001506 001474
    030357  aa   000004 000000
    030360  55   001506 001476
    030361  aa   000004 000000
    030362  55   001506 001500
    030363  aa   000004 000000
    030364  55   001506 001502
    030365  aa   000004 000000
    030366  55   001506 001504
    030367  aa   000004 000000
    030370  55   001513 001513
    030371  aa   000004 000000
    030372  55   001521 001521
    030373  aa   000004 000000
    030374  55   001525 001525
    030375  aa   000004 000000
    030376  55   001531 001531
    030377  aa   000004 000000
    030400  55   001763 001533
    030401  aa   000004 000000
    030402  55   001763 001536
    030403  aa   000004 000000
    030404  55   001565 001541
    030405  aa   000004 000000
    030406  55   001640 001545
    030407  aa   000004 000000
    030410  55   001640 001777
    030411  aa   000004 000000
    030412  55   001565 001550
    030413  aa   000004 000000
    030414  55   001565 001552
    030415  aa   000004 000000
    030416  55   001565 001555
    030417  aa   000004 000000
    030420  55   001565 001561
    030421  aa   000004 000000
    030422  55   001640 001570
    030423  aa   000004 000000
    030424  55   001640 001573
    030425  aa   000004 000000
    030426  55   001640 001576
    030427  aa   000004 000000
    030430  55   001640 001600
    030431  aa   000004 000000
    030432  55   001604 001604
    030433  aa   000004 000000
    030434  55   001640 001610
    030435  aa   000004 000000
    030436  55   001640 001614
    030437  aa   000004 000000
    030440  55   001640 001620
    030441  aa   000004 000000
    030442  55   001640 001624
    030443  aa   000004 000000
    030444  55   001640 001630
    030445  aa   000004 000000
    030446  55   001640 001634
    030447  aa   000004 000000
    030450  55   001777 001642
    030451  aa   000004 000000
    030452  55   001646 001646
    030453  aa   000004 000000
    030454  55   001654 001652
    030455  aa   000004 000000
    030456  55   001661 001661
    030457  aa   000004 000000
    030460  55   001664 001664
    030461  aa   000004 000000
    030462  55   001667 001667
    030463  aa   000004 000000
    030464  55   001677 001675
    030465  aa   000004 000000
    030466  55   001704 001702
    030467  aa   000004 000000
    030470  55   001746 001713
    030471  aa   000004 000000
    030472  55   001746 001715
    030473  aa   000004 000000
    030474  55   001746 001717
    030475  aa   000004 000000
    030476  55   001746 001721
    030477  aa   000004 000000
    030500  55   001746 001723
    030501  aa   000004 000000
    030502  55   001746 001725
    030503  aa   000004 000000
    030504  55   001746 001730
    030505  aa   000004 000000
    030506  55   001746 001732
    030507  aa   000004 000000
    030510  55   001746 001734
    030511  aa   000004 000000
    030512  55   001746 001736
    030513  aa   000004 000000
    030514  55   001746 001740
    030515  aa   000004 000000
    030516  55   001746 001742
    030517  aa   000004 000000
    030520  55   001746 001744
    030521  aa   000004 000000
    030522  55   001746 002006
    030523  aa   000004 000000
    030524  55   001763 001752
    030525  aa   000004 000000
    030526  55   001763 001755
    030527  aa   000004 000000
    030530  55   001763 001760
    030531  aa   000004 000000
    030532  55   001777 001765
    030533  aa   000004 000000
    030534  55   001777 001770
    030535  aa   000004 000000
    030536  55   001777 001774
    030537  aa   000004 000000
    030540  55   002016 002002
    030541  aa   000004 000000
    030542  55   002016 002003
    030543  aa   000004 000000
    030544  55   002027 002006
    030545  aa   000004 000000
    030546  55   002016 002010
    030547  aa   000004 000000
    030550  55   002016 002012
    030551  aa   000004 000000
    030552  55   002016 002014
    030553  aa   000004 000000
    030554  55   002027 002021
    030555  aa   000004 000000
    030556  55   002027 002023
    030557  aa   000004 000000
    030560  55   002027 002025
    030561  aa   000004 000000
    030562  55   002033 002033
    030563  aa   000004 000000
    030564  55   002063 002041
    030565  aa   000004 000000
    030566  55   002117 002047
    030567  aa   000004 000000
    030570  55   002063 002055
    030571  aa   000004 000000
    030572  55   002117 002067
    030573  aa   000004 000000
    030574  55   002117 002075
    030575  aa   000004 000000
    030576  55   002117 002103
    030577  aa   000004 000000
    030600  55   002117 002111
    030601  aa   000004 000000
    030602  55   002220 002121
    030603  aa   000004 000000
    030604  55   002220 002130
    030605  aa   000004 000000
    030606  55   002404 002137
    030607  aa   000004 000000
    030610  55   002404 002145
    030611  aa   000004 000000
    030612  55   002153 002153
    030613  aa   000004 000000
    030614  55   002177 002160
    030615  aa   000004 000000
    030616  55   002177 002165
    030617  aa   000004 000000
    030620  55   002177 002172
    030621  aa   000004 000000
    030622  55   002220 002204
    030623  aa   000004 000000
    030624  55   002220 002212
    030625  aa   000004 000000
    030626  55   002261 002225
    030627  aa   000004 000000
    030630  55   002261 002234
    030631  aa   000004 000000
    030632  55   002261 002243
    030633  aa   000004 000000
    030634  55   002261 002252
    030635  aa   000004 000000
    030636  55   002302 002266
    030637  aa   000004 000000
    030640  55   002302 002274
    030641  aa   000004 000000
    030642  55   002336 002306
    030643  aa   000004 000000
    030644  55   002336 002314
    030645  aa   000004 000000
    030646  55   002336 002322
    030647  aa   000004 000000
    030650  55   002336 002330
    030651  aa   000004 000000
    030652  55   002342 002342
    030653  aa   000004 000000
    030654  55   002347 002347
    030655  aa   000004 000000
    030656  55   002365 002353
    030657  aa   000004 000000
    030660  55   002365 002357
    030661  aa   000004 000000
    030662  55   002365 002362
    030663  aa   000004 000000
    030664  55   002404 002370
    030665  aa   000004 000000
    030666  55   002404 002376
    030667  aa   000004 000000
    030670  55   002434 002410
    030671  aa   000004 000000
    030672  55   002434 002415
    030673  aa   000004 000000
    030674  55   002434 002422
    030675  aa   000004 000000
    030676  55   002434 002427
    030677  aa   000004 000000
    030700  55   002451 002437
    030701  aa   000004 000000
    030702  55   002451 002444
    030703  aa   000004 000000
    030704  55   002474 002454
    030705  aa   000004 000000
    030706  55   002474 002460
    030707  aa   000004 000000
    030710  55   002474 002464
    030711  aa   000004 000000
    030712  55   002474 002470
    030713  aa   000004 000000
    030714  55   002476 002476
    030715  aa   000004 000000
    030716  55   002530 002502
    030717  aa   000004 000000
    030720  55   002530 002510
    030721  aa   000004 000000
    030722  55   002530 002515
    030723  aa   000004 000000
    030724  55   002530 002523
    030725  aa   000004 000000
    030726  55   002560 002533
    030727  aa   000004 000000
    030730  55   002560 002537
    030731  aa   000004 000000
    030732  55   002546 002543
    030733  aa   000004 000000
    030734  55   002560 002551
    030735  aa   000004 000000
    030736  55   002560 002554
    030737  aa   000001 000000
    030740  aa   000000 000000

INTERNAL EXPRESSION WORDS

    030741  5a   002563 000000
    030742  5a   002565 000000
    030743  5a   002567 000000
    030744  5a   002571 000000
    030745  5a   002573 000000
    030746  5a   002575 000000
    030747  5a   002577 000000
    030750  5a   002601 000000
    030751  5a   002603 000000
    030752  5a   002605 000000
    030753  5a   002607 000000
    030754  5a   002611 000000
    030755  5a   002613 000000
    030756  5a   002615 000000
    030757  5a   002617 000000
    030760  5a   002621 000000
    030761  5a   002623 000000
    030762  5a   002625 000000
    030763  5a   002627 000000
    030764  5a   002631 000000
    030765  5a   002633 000000
    030766  5a   002635 000000
    030767  5a   002637 000000
    030770  5a   002641 000000
    030771  5a   002643 000000
    030772  5a   002645 000000
    030773  5a   002647 000000
    030774  5a   002651 000000
    030775  5a   002653 000000
    030776  5a   002655 000000
    030777  5a   002657 000000
    031000  5a   002661 000000
    031001  5a   002663 000000
    031002  5a   002665 000000
    031003  5a   002667 000000
    031004  5a   002671 000000
    031005  5a   002673 000000
    031006  5a   002675 000000
    031007  5a   002677 000000
    031010  5a   002701 000000
    031011  5a   002703 000000
    031012  5a   002705 000000
    031013  5a   002707 000000
    031014  5a   002711 000000
    031015  5a   002713 000000
    031016  5a   002715 000000
    031017  5a   002717 000000
    031020  5a   002721 000000
    031021  5a   002723 000000
    031022  5a   002725 000000
    031023  5a   002727 000000
    031024  5a   002731 000000
    031025  5a   002733 000000
    031026  5a   002735 000000
    031027  5a   002737 000000
    031030  5a   002741 000000
    031031  5a   002743 000000
    031032  5a   002745 000000
    031033  5a   002747 000000
    031034  5a   002751 000000
    031035  5a   002753 000000
    031036  5a   002755 000000
    031037  5a   002757 000000
    031040  5a   002761 000000
    031041  5a   002763 000000
    031042  5a   002765 000000
    031043  5a   002767 000000
    031044  5a   002771 000000
    031045  5a   002773 000000
    031046  5a   002775 000000
    031047  5a   002777 000000
    031050  5a   003001 000000
    031051  5a   003003 000000
    031052  5a   003005 000000
    031053  5a   003007 000000
    031054  5a   003011 000000
    031055  5a   003013 000000
    031056  5a   003015 000000
    031057  5a   003017 000000
    031060  5a   003021 000000
    031061  5a   003023 000000
    031062  5a   003025 000000
    031063  5a   003027 000000
    031064  5a   003031 000000
    031065  5a   003033 000000
    031066  5a   003035 000000
    031067  5a   003037 000000
    031070  5a   003041 000000
    031071  5a   003043 000000
    031072  5a   003045 000000
    031073  5a   003047 000000
    031074  5a   003051 000000
    031075  5a   003053 000000
    031076  5a   003055 000000
    031077  5a   003057 000000
    031100  5a   003061 000000
    031101  5a   003063 000000
    031102  5a   003065 000000
    031103  5a   003067 000000
    031104  5a   003071 000000
    031105  5a   003073 000000
    031106  5a   003075 000000
    031107  5a   003077 000000
    031110  5a   003101 000000
    031111  5a   003103 000000
    031112  5a   003105 000000
    031113  5a   003107 000000
    031114  5a   003111 000000
    031115  5a   003113 000000
    031116  5a   003115 000000
    031117  5a   003117 000000
    031120  5a   003121 000000
    031121  5a   003123 000000
    031122  5a   003125 000000
    031123  5a   003127 000000
    031124  5a   003131 000000
    031125  5a   003133 000000
    031126  5a   003135 000000
    031127  5a   003137 000000
    031130  5a   003141 000000
    031131  5a   003143 000000
    031132  5a   003145 000000
    031133  5a   003147 000000
    031134  5a   003151 000000
    031135  5a   003153 000000
    031136  5a   003155 000000
    031137  5a   003157 000000
    031140  5a   003161 000000
    031141  5a   003163 000000
    031142  5a   003165 000000
    031143  5a   003167 000000
    031144  5a   003171 000000
    031145  5a   003173 000000
    031146  5a   003175 000000
    031147  5a   003177 000000
    031150  5a   003201 000000
    031151  5a   003203 000000
    031152  5a   003205 000000
    031153  5a   003207 000000
    031154  5a   003211 000000
    031155  5a   003213 000000
    031156  5a   003215 000000
    031157  5a   003217 000000
    031160  5a   003221 000000
    031161  5a   003223 000000
    031162  5a   003225 000000
    031163  5a   003227 000000
    031164  5a   003231 000000
    031165  5a   003233 000000
    031166  5a   003235 000000
    031167  5a   003237 000000
    031170  5a   003241 000000
    031171  5a   003243 000000
    031172  5a   003245 000000
    031173  5a   003247 000000
    031174  5a   003251 000000
    031175  5a   003253 000000
    031176  5a   003255 000000
    031177  5a   003257 000000
    031200  5a   003261 000000
    031201  5a   003263 000000
    031202  5a   003265 000000
    031203  5a   003267 000000
    031204  5a   003271 000000
    031205  5a   003273 000000
    031206  5a   003275 000000
    031207  5a   003277 000000
    031210  5a   003301 000000
    031211  5a   003303 000000
    031212  5a   003305 000000
    031213  5a   003307 000000
    031214  5a   003311 000000
    031215  5a   003313 000000
    031216  5a   003315 000000
    031217  5a   003317 000000
    031220  5a   003321 000000
    031221  5a   003323 000000
    031222  5a   003325 000000
    031223  5a   003327 000000
    031224  5a   003331 000000
    031225  5a   003333 000000
    031226  5a   003335 000000
    031227  5a   003337 000000
    031230  5a   003341 000000
    031231  5a   003343 000000
    031232  5a   003345 000000
    031233  5a   003347 000000
    031234  5a   003351 000000
    031235  5a   003353 000000
    031236  5a   003355 000000
    031237  5a   003357 000000
    031240  5a   003361 000000
    031241  5a   003363 000000
    031242  5a   003365 000000
    031243  5a   003367 000000
    031244  5a   003371 000000
    031245  5a   003373 000000
    031246  5a   003375 000000
    031247  5a   003377 000000
    031250  5a   003401 000000
    031251  5a   003403 000000
    031252  5a   003405 000000
    031253  5a   003407 000000
    031254  5a   003411 000000
    031255  5a   003413 000000
    031256  5a   003415 000000
    031257  5a   003417 000000
    031260  5a   003421 000000
    031261  5a   003423 000000
    031262  5a   003425 000000
    031263  5a   003427 000000
    031264  5a   003431 000000
    031265  5a   003433 000000
    031266  5a   003435 000000
    031267  5a   003437 000000
    031270  5a   003441 000000
    031271  5a   003443 000000
    031272  5a   003445 000000
    031273  5a   003447 000000
    031274  5a   003451 000000
    031275  5a   003453 000000
    031276  5a   003455 000000
    031277  5a   003457 000000
    031300  5a   003461 000000
    031301  5a   003463 000000
    031302  5a   003465 000000
    031303  5a   003467 000000
    031304  5a   003471 000000
    031305  5a   003473 000000
    031306  5a   003475 000000
    031307  5a   003477 000000
    031310  5a   003501 000000
    031311  5a   003503 000000
    031312  5a   003505 000000
    031313  5a   003507 000000
    031314  5a   003511 000000
    031315  5a   003513 000000
    031316  5a   003515 000000
    031317  5a   003517 000000
    031320  5a   003521 000000
    031321  5a   003523 000000
    031322  5a   003525 000000
    031323  5a   003527 000000
    031324  5a   003531 000000
    031325  5a   003533 000000
    031326  5a   003535 000000
    031327  5a   003537 000000
    031330  5a   003541 000000
    031331  5a   003543 000000
    031332  5a   003545 000000
    031333  5a   003547 000000
    031334  5a   003551 000000
    031335  5a   003553 000000
    031336  5a   003555 000000
    031337  5a   003557 000000
    031340  5a   003561 000000
    031341  5a   003563 000000
    031342  5a   003565 000000
    031343  5a   003567 000000
    031344  5a   003571 000000
    031345  5a   003573 000000
    031346  5a   003575 000000
    031347  5a   003577 000000
    031350  5a   003601 000000
    031351  5a   003603 000000
    031352  5a   003605 000000
    031353  5a   003607 000000
    031354  5a   003611 000000
    031355  5a   003613 000000
    031356  5a   003615 000000
    031357  5a   003617 000000
    031360  5a   003621 000000
    031361  5a   003623 000000
    031362  5a   003625 000000
    031363  5a   003627 000000
    031364  5a   003631 000000
    031365  5a   003633 000000
    031366  5a   003635 000000
    031367  5a   003637 000000
    031370  5a   003641 000000
    031371  5a   003643 000000
    031372  5a   003645 000000
    031373  5a   003647 000000
    031374  5a   003651 000000
    031375  5a   003653 000000
    031376  5a   003655 000000
    031377  5a   003657 000000
    031400  5a   003661 000000
    031401  5a   003663 000000
    031402  5a   003665 000000
    031403  5a   003667 000000
    031404  5a   003671 000000
    031405  5a   003673 000000
    031406  5a   003675 000000
    031407  5a   003677 000000
    031410  5a   003701 000000
    031411  aa   000000 000000
LINKAGE INFORMATION

    000000  aa   000000 000000
    000001  0a   025034 000000
    000002  aa   000000 000000
    000003  aa   000000 000000
    000004  aa   000000 000000
    000005  aa   000000 000000
    000006  22   000010 001130
    000007  a2   000000 000000
    000010  9a   777770 0000 46         put_format_|put_terminate
    000011  5a   004354 0000 00
    000012  9a   777766 0000 46         put_format_|stream_prep
    000013  5a   004353 0000 00
    000014  9a   777764 0000 46         record_io_|record_io
    000015  5a   004352 0000 00
    000016  9a   777762 0000 46         put_format_|put_edit_eis
    000017  5a   004351 0000 00
    000020  9a   777760 0000 46         put_format_|get_edit_eis
    000021  5a   004350 0000 00
    000022  9a   777756 0000 46         any_to_any_|real_to_real_round_
    000023  5a   004347 0000 00
    000024  9a   777754 0000 46         any_to_any_|real_to_real_truncate_
    000025  5a   004346 0000 00
    000026  9a   777752 0000 46         any_to_any_|any_to_any_round_
    000027  5a   004345 0000 00
    000030  9a   777750 0000 46         any_to_any_|any_to_any_truncate_
    000031  5a   004344 0000 00
    000032  9a   777746 0000 46         square_root_|square_root_
    000033  5a   004343 0000 00
    000034  9a   777744 0000 46         sine_|sine_radians_
    000035  5a   004342 0000 00
    000036  9a   777742 0000 46         sine_|sine_degrees_
    000037  5a   004341 0000 00
    000040  9a   777740 0000 46         sine_|cosine_radians_
    000041  5a   004340 0000 00
    000042  9a   777736 0000 46         sine_|cosine_degrees_
    000043  5a   004337 0000 00
    000044  9a   777734 0000 46         tangent_|tangent_radians_
    000045  5a   004336 0000 00
    000046  9a   777732 0000 46         tangent_|tangent_degrees_
    000047  5a   004335 0000 00
    000050  9a   777730 0000 46         arc_sine_|arc_sine_radians_
    000051  5a   004334 0000 00
    000052  9a   777726 0000 46         arc_sine_|arc_sine_degrees_
    000053  5a   004333 0000 00
    000054  9a   777724 0000 46         arc_sine_|arc_cosine_radians_
    000055  5a   004332 0000 00
    000056  9a   777722 0000 46         arc_sine_|arc_cosine_degrees_
    000057  5a   004331 0000 00
    000060  9a   777720 0000 46         arc_tangent_|arc_tangent_radians_
    000061  5a   004330 0000 00
    000062  9a   777716 0000 46         arc_tangent_|arc_tangent_degrees_
    000063  5a   004327 0000 00
    000064  9a   777714 0000 46         logarithm_|log_base_2_
    000065  5a   004326 0000 00
    000066  9a   777712 0000 46         logarithm_|log_base_e_
    000067  5a   004325 0000 00
    000070  9a   777710 0000 46         logarithm_|log_base_10_
    000071  5a   004324 0000 00
    000072  9a   777706 0000 46         exponential_|exponential_
    000073  5a   004323 0000 00
    000074  9a   777704 0000 46         double_square_root_|double_square_root_
    000075  5a   004322 0000 00
    000076  9a   777702 0000 46         double_sine_|double_sine_radians_
    000077  5a   004321 0000 00
    000100  9a   777700 0000 46         double_sine_|double_sine_degrees_
    000101  5a   004320 0000 00
    000102  9a   777676 0000 46         double_sine_|double_cosine_radians_
    000103  5a   004317 0000 00
    000104  9a   777674 0000 46         double_sine_|double_cosine_degrees_
    000105  5a   004316 0000 00
    000106  9a   777672 0000 46         double_tangent_|double_tangent_radians_
    000107  5a   004315 0000 00
    000110  9a   777670 0000 46         double_tangent_|double_tangent_degrees_
    000111  5a   004314 0000 00
    000112  9a   777666 0000 46         double_arc_sine_|double_arc_sine_radians_
    000113  5a   004313 0000 00
    000114  9a   777664 0000 46         double_arc_sine_|double_arc_sine_degrees_
    000115  5a   004312 0000 00
    000116  9a   777662 0000 46         double_arc_sine_|double_arc_cosine_radians_
    000117  5a   004311 0000 00
    000120  9a   777660 0000 46         double_arc_sine_|double_arc_cosine_degrees_
    000121  5a   004310 0000 00
    000122  9a   777656 0000 46         double_arc_tangent_|double_arc_tan_radians_
    000123  5a   004307 0000 00
    000124  9a   777654 0000 46         double_arc_tangent_|double_arc_tan_degrees_
    000125  5a   004306 0000 00
    000126  9a   777652 0000 46         double_logarithm_|double_log_base_2_
    000127  5a   004305 0000 00
    000130  9a   777650 0000 46         double_logarithm_|double_log_base_e_
    000131  5a   004304 0000 00
    000132  9a   777646 0000 46         double_logarithm_|double_log_base_10_
    000133  5a   004303 0000 00
    000134  9a   777644 0000 46         double_exponential_|double_exponential_
    000135  5a   004302 0000 00
    000136  9a   777642 0000 46         arc_tangent_|arc_tangent_radians_2_
    000137  5a   004301 0000 00
    000140  9a   777640 0000 46         arc_tangent_|arc_tangent_degrees_2_
    000141  5a   004300 0000 00
    000142  9a   777636 0000 46         double_arc_tangent_|double_arc_tan_radians_2_
    000143  5a   004277 0000 00
    000144  9a   777634 0000 46         double_arc_tangent_|double_arc_tan_degrees_2_
    000145  5a   004276 0000 00
    000146  9a   777632 0000 46         power_|integer_power_single_
    000147  5a   004275 0000 00
    000150  9a   777630 0000 46         power_|integer_power_double_
    000151  5a   004274 0000 00
    000152  9a   777626 0000 46         power_|double_power_single_
    000153  5a   004273 0000 00
    000154  9a   777624 0000 46         power_|double_power_double_
    000155  5a   004272 0000 00
    000156  9a   777622 0000 46         power_integer_|double_power_integer_
    000157  5a   004271 0000 00
    000160  9a   777620 0000 46         power_|single_power_single_
    000161  5a   004270 0000 00
    000162  9a   777616 0000 46         power_integer_|single_power_integer_
    000163  5a   004267 0000 00
    000164  9a   777614 0000 46         integer_power_integer_|integer_power_integer_
    000165  5a   004266 0000 00
    000166  9a   777612 0000 46         cplx_dec_ops_|mpcdec
    000167  5a   004265 0000 00
    000170  9a   777610 0000 46         cplx_dec_ops_|dvcdec
    000171  5a   004264 0000 00
    000172  9a   777606 0000 46         cplx_dec_ops_|dvrcdec
    000173  5a   004263 0000 00
    000174  9a   777604 0000 46         dec_ops_|ceil
    000175  5a   004262 0000 00
    000176  9a   777602 0000 46         dec_ops_|floor
    000177  5a   004261 0000 00
    000200  9a   777600 0000 46         dec_ops_|sign
    000201  5a   004260 0000 00
    000202  9a   777576 0000 46         cplx_dec_ops_|cabs
    000203  5a   004257 0000 00
    000204  9a   777574 0000 46         dec_ops_|truncate
    000205  5a   004256 0000 00
    000206  9a   777572 0000 46         dec_ops_|mod
    000207  5a   004255 0000 00
    000210  9a   777570 0000 46         put_field_|put_field
    000211  5a   004254 0000 00
    000212  9a   777566 0000 46         put_field_|put_field_chk
    000213  5a   004253 0000 00
    000214  9a   777564 0000 46         put_field_|put_control
    000215  5a   004252 0000 00
    000216  9a   777562 0000 46         alloc_|op_alloc_
    000217  5a   004251 0000 00
    000220  9a   777560 0000 46         alloc_|op_freen_
    000221  5a   004250 0000 00
    000222  9a   777556 0000 46         alloc_|op_empty_
    000223  5a   004247 0000 00
    000224  9a   777554 0000 46         fort_math_ops_|cabs
    000225  5a   004246 0000 00
    000226  9a   777552 0000 46         fort_math_ops_|ccos
    000227  5a   004245 0000 00
    000230  9a   777550 0000 46         fort_math_ops_|cexp
    000231  5a   004244 0000 00
    000232  9a   777546 0000 46         fort_math_ops_|clog
    000233  5a   004243 0000 00
    000234  9a   777544 0000 46         fort_math_ops_|csin
    000235  5a   004242 0000 00
    000236  9a   777542 0000 46         fort_math_ops_|csqrt
    000237  5a   004241 0000 00
    000240  9a   777540 0000 46         fort_math_ops_|tanh
    000241  5a   004240 0000 00
    000242  9a   777536 0000 46         fort_math_ops_|dmod
    000243  5a   004237 0000 00
    000244  9a   777534 0000 46         fort_math_ops_|cmpx_p_cmpx
    000245  5a   004236 0000 00
    000246  9a   777532 0000 46         fort_math_ops_|dtanh
    000247  5a   004235 0000 00
    000250  9a   777530 0000 46         fort_math_ops_|sinh
    000251  5a   004234 0000 00
    000252  9a   777526 0000 46         fort_math_ops_|dsinh
    000253  5a   004233 0000 00
    000254  9a   777524 0000 46         fort_math_ops_|cosh
    000255  5a   004232 0000 00
    000256  9a   777522 0000 46         fort_math_ops_|dcosh
    000257  5a   004231 0000 00
    000260  9a   777520 0000 46         fortran_storage_manager_|free
    000261  5a   004230 0000 00
    000262  9a   777516 0000 46         sys_info|clock_
    000263  5a   004227 0000 20
    000264  9a   777514 0000 46         virtual_cpu_time_op_|virtual_cpu_time_op_
    000265  5a   004226 0000 00
    000266  9a   777512 0000 46         stop_run|stop_run
    000267  5a   004225 0000 00
    000270  9a   777510 0000 46         unwinder_|unwinder_
    000271  5a   004224 0000 00
    000272  9a   777506 0000 46         fortran_storage_|create
    000273  5a   004223 0000 00
    000274  9a   777504 0000 46         fort_cleanup_|fort_cleanup_
    000275  5a   004222 0000 00
    000276  9a   777502 0000 46         put_field_|put_field_str
    000277  5a   004221 0000 00
    000300  9a   777500 0000 46         plio2_|get_terminate_
    000301  5a   004220 0000 00
    000302  9a   777476 0000 46         plio2_|put_terminate_
    000303  5a   004217 0000 00
    000304  9a   777474 0000 46         plio2_|put_value_data_
    000305  5a   004216 0000 00
    000306  9a   777472 0000 46         plio2_|get_value_list_
    000307  5a   004215 0000 00
    000310  9a   777470 0000 46         plio2_|put_value_list_
    000311  5a   004214 0000 00
    000312  9a   777466 0000 46         plio2_|put_value_edit_
    000313  5a   004213 0000 00
    000314  9a   777464 0000 46         plio2_recio_|plio2_recio_
    000315  5a   004212 0000 00
    000316  9a   777462 0000 46         plio2_|open_explicit_
    000317  5a   004211 0000 00
    000320  9a   777460 0000 46         plio2_|close_
    000321  5a   004210 0000 00
    000322  9a   777456 0000 46         plio2_|get_prep_
    000323  5a   004207 0000 00
    000324  9a   777454 0000 46         plio2_|put_prep_
    000325  5a   004206 0000 00
    000326  9a   777452 0000 46         fortran_io_|read_or_write
    000327  5a   004205 0000 00
    000330  9a   777450 0000 46         fortran_io_|file_control
    000331  5a   004204 0000 00
    000332  9a   777446 0000 46         fortran_io_|terminate
    000333  5a   004203 0000 00
    000334  9a   777444 0000 46         fortran_io_|element
    000335  5a   004202 0000 00
    000336  9a   777442 0000 46         plio2_|put_field_
    000337  5a   004201 0000 00
    000340  9a   777440 0000 46         plio2_|put_blanks_
    000341  5a   004200 0000 00
    000342  9a   777436 0000 46         fortran_io_|get_io_area_ptr
    000343  5a   004177 0000 00
    000344  9a   777434 0000 46         alloc_|op_storage_
    000345  5a   004176 0000 00
    000346  9a   777432 0000 46         alloc_|storage_
    000347  5a   004175 0000 00
    000350  9a   777430 0000 46         freen_|freen_
    000351  5a   004174 0000 00
    000352  9a   777426 0000 46         unpack_picture_|unpack_picture_
    000353  5a   004173 0000 00
    000354  9a   777424 0000 46         pack_picture_|pack_picture_
    000355  5a   004172 0000 00
    000356  9a   777422 0000 46         pl1_signal_from_ops_|pl1_signal_from_ops_
    000357  5a   004171 0000 00
    000360  9a   777420 0000 46         fort_bfp_builtins_|exp_
    000361  5a   004170 0000 00
    000362  9a   777416 0000 46         fort_bfp_builtins_|alog_
    000363  5a   004167 0000 00
    000364  9a   777414 0000 46         fort_bfp_builtins_|alog10_
    000365  5a   004166 0000 00
    000366  9a   777412 0000 46         fort_bfp_builtins_|atan_
    000367  5a   004165 0000 00
    000370  9a   777410 0000 46         fort_bfp_builtins_|atan2_
    000371  5a   004164 0000 00
    000372  9a   777406 0000 46         fort_bfp_builtins_|sin_
    000373  5a   004163 0000 00
    000374  9a   777404 0000 46         fort_bfp_builtins_|cos_
    000375  5a   004162 0000 00
    000376  9a   777402 0000 46         fort_bfp_builtins_|tanh_
    000377  5a   004161 0000 00
    000400  9a   777400 0000 46         fort_bfp_builtins_|sqrt_
    000401  5a   004160 0000 00
    000402  9a   777376 0000 46         fort_bfp_builtins_|dmod_
    000403  5a   004157 0000 00
    000404  9a   777374 0000 46         fort_bfp_builtins_|dexp_
    000405  5a   004156 0000 00
    000406  9a   777372 0000 46         fort_bfp_builtins_|dlog_
    000407  5a   004155 0000 00
    000410  9a   777370 0000 46         fort_bfp_builtins_|dlog10_
    000411  5a   004154 0000 00
    000412  9a   777366 0000 46         fort_bfp_builtins_|datan_
    000413  5a   004153 0000 00
    000414  9a   777364 0000 46         fort_bfp_builtins_|datan2_
    000415  5a   004152 0000 00
    000416  9a   777362 0000 46         fort_bfp_builtins_|dsin_
    000417  5a   004151 0000 00
    000420  9a   777360 0000 46         fort_bfp_builtins_|dcos_
    000421  5a   004150 0000 00
    000422  9a   777356 0000 46         fort_bfp_builtins_|dsqrt_
    000423  5a   004147 0000 00
    000424  9a   777354 0000 46         fort_bfp_builtins_|cabs_
    000425  5a   004146 0000 00
    000426  9a   777352 0000 46         fort_bfp_builtins_|cexp_
    000427  5a   004145 0000 00
    000430  9a   777350 0000 46         fort_bfp_builtins_|clog_
    000431  5a   004144 0000 00
    000432  9a   777346 0000 46         fort_bfp_builtins_|csin_
    000433  5a   004143 0000 00
    000434  9a   777344 0000 46         fort_bfp_builtins_|ccos_
    000435  5a   004142 0000 00
    000436  9a   777342 0000 46         fort_bfp_builtins_|csqrt_
    000437  5a   004141 0000 00
    000440  9a   777340 0000 46         fort_bfp_builtins_|cxp2_
    000441  5a   004140 0000 00
    000442  9a   777336 0000 46         fort_bfp_builtins_|tan_
    000443  5a   004137 0000 00
    000444  9a   777334 0000 46         fort_bfp_builtins_|dtan_
    000445  5a   004136 0000 00
    000446  9a   777332 0000 46         fort_bfp_builtins_|asin_
    000447  5a   004135 0000 00
    000450  9a   777330 0000 46         fort_bfp_builtins_|dasin_
    000451  5a   004134 0000 00
    000452  9a   777326 0000 46         fort_bfp_builtins_|acos_
    000453  5a   004133 0000 00
    000454  9a   777324 0000 46         fort_bfp_builtins_|dacos_
    000455  5a   004132 0000 00
    000456  9a   777322 0000 46         fort_int_builtins_|index_
    000457  5a   004131 0000 00
    000460  9a   777320 0000 46         fort_bfp_builtins_|dtanh_
    000461  5a   004130 0000 00
    000462  9a   777316 0000 46         fort_bfp_builtins_|sinh_
    000463  5a   004127 0000 00
    000464  9a   777314 0000 46         fort_bfp_builtins_|dsinh_
    000465  5a   004126 0000 00
    000466  9a   777312 0000 46         fort_bfp_builtins_|cosh_
    000467  5a   004125 0000 00
    000470  9a   777310 0000 46         fort_bfp_builtins_|dcosh_
    000471  5a   004124 0000 00
    000472  9a   777306 0000 46         fort_bfp_builtins_|abs_
    000473  5a   004123 0000 00
    000474  9a   777304 0000 46         fort_int_builtins_|iabs_
    000475  5a   004122 0000 00
    000476  9a   777302 0000 46         fort_bfp_builtins_|dabs_
    000477  5a   004121 0000 00
    000500  9a   777300 0000 46         fort_bfp_builtins_|dim_
    000501  5a   004120 0000 00
    000502  9a   777276 0000 46         fort_int_builtins_|idim_
    000503  5a   004117 0000 00
    000504  9a   777274 0000 46         fort_bfp_builtins_|ddim_
    000505  5a   004116 0000 00
    000506  9a   777272 0000 46         fort_bfp_builtins_|sign_
    000507  5a   004115 0000 00
    000510  9a   777270 0000 46         fort_int_builtins_|isign_
    000511  5a   004114 0000 00
    000512  9a   777266 0000 46         fort_bfp_builtins_|dsign_
    000513  5a   004113 0000 00
    000514  9a   777264 0000 46         fort_bfp_builtins_|aint_
    000515  5a   004112 0000 00
    000516  9a   777262 0000 46         fort_bfp_builtins_|aimag_
    000517  5a   004111 0000 00
    000520  9a   777260 0000 46         fort_bfp_builtins_|conjg_
    000521  5a   004110 0000 00
    000522  9a   777256 0000 46         fort_int_builtins_|len_
    000523  5a   004107 0000 00
    000524  9a   777254 0000 46         fort_bfp_builtins_|dint_
    000525  5a   004106 0000 00
    000526  9a   777252 0000 46         fort_bfp_builtins_|anint_
    000527  5a   004105 0000 00
    000530  9a   777250 0000 46         fort_bfp_builtins_|dnint_
    000531  5a   004104 0000 00
    000532  9a   777246 0000 46         fort_bfp_builtins_|nint_
    000533  5a   004103 0000 00
    000534  9a   777244 0000 46         fort_bfp_builtins_|idnint_
    000535  5a   004102 0000 00
    000536  9a   777242 0000 46         fort_bfp_builtins_|dprod_
    000537  5a   004101 0000 00
    000540  9a   777240 0000 46         fort_int_builtins_|mod_
    000541  5a   004100 0000 00
    000542  9a   777236 0000 46         fort_bfp_builtins_|amod_
    000543  5a   004077 0000 00
    000544  9a   777234 0000 46         fort_int_builtins_|ilr_
    000545  5a   004076 0000 00
    000546  9a   777232 0000 46         fort_int_builtins_|ils_
    000547  5a   004075 0000 00
    000550  9a   777230 0000 46         fort_int_builtins_|irl_
    000551  5a   004074 0000 00
    000552  9a   777226 0000 46         fort_int_builtins_|irs_
    000553  5a   004073 0000 00
    000554  9a   777224 0000 46         fortran_stop_|fortran_end
    000555  5a   004072 0000 00
    000556  9a   777222 0000 46         fortran_pause_|fortran_pause_
    000557  5a   004071 0000 00
    000560  9a   777220 0000 46         fortran_stop_|fortran_stop_
    000561  5a   004070 0000 00
    000562  9a   777216 0000 46         fast_related_data_|chain_entry
    000563  5a   004067 0000 00
    000564  9a   777214 0000 46         hcs_|set_hexfp_control
    000565  5a   004066 0000 00
    000566  9a   777212 0000 46         square_root_|hfp_square_root_
    000567  5a   004065 0000 00
    000570  9a   777210 0000 46         sine_|hfp_sine_radians_
    000571  5a   004064 0000 00
    000572  9a   777206 0000 46         sine_|hfp_sine_degrees_
    000573  5a   004063 0000 00
    000574  9a   777204 0000 46         sine_|hfp_cosine_radians_
    000575  5a   004062 0000 00
    000576  9a   777202 0000 46         sine_|hfp_cosine_degrees_
    000577  5a   004061 0000 00
    000600  9a   777200 0000 46         tangent_|hfp_tangent_radians_
    000601  5a   004060 0000 00
    000602  9a   777176 0000 46         tangent_|hfp_tangent_degrees_
    000603  5a   004057 0000 00
    000604  9a   777174 0000 46         arc_sine_|hfp_arc_sine_radians_
    000605  5a   004056 0000 00
    000606  9a   777172 0000 46         arc_sine_|hfp_arc_sine_degrees_
    000607  5a   004055 0000 00
    000610  9a   777170 0000 46         arc_sine_|hfp_arc_cosine_radians_
    000611  5a   004054 0000 00
    000612  9a   777166 0000 46         arc_sine_|hfp_arc_cosine_degrees_
    000613  5a   004053 0000 00
    000614  9a   777164 0000 46         arc_tangent_|hfp_arc_tangent_radians_
    000615  5a   004052 0000 00
    000616  9a   777162 0000 46         arc_tangent_|hfp_arc_tangent_degrees_
    000617  5a   004051 0000 00
    000620  9a   777160 0000 46         logarithm_|hfp_log_base_2_
    000621  5a   004050 0000 00
    000622  9a   777156 0000 46         logarithm_|hfp_log_base_e_
    000623  5a   004047 0000 00
    000624  9a   777154 0000 46         logarithm_|hfp_log_base_10_
    000625  5a   004046 0000 00
    000626  9a   777152 0000 46         exponential_|hfp_exponential_
    000627  5a   004045 0000 00
    000630  9a   777150 0000 46         double_square_root_|hfp_double_square_root_
    000631  5a   004044 0000 00
    000632  9a   777146 0000 46         double_sine_|hfp_double_sine_radians_
    000633  5a   004043 0000 00
    000634  9a   777144 0000 46         double_sine_|hfp_double_sine_degrees_
    000635  5a   004042 0000 00
    000636  9a   777142 0000 46         double_sine_|hfp_double_cosine_radians_
    000637  5a   004041 0000 00
    000640  9a   777140 0000 46         double_sine_|hfp_double_cosine_degrees_
    000641  5a   004040 0000 00
    000642  9a   777136 0000 46         double_tangent_|hfp_double_tangent_radians_
    000643  5a   004037 0000 00
    000644  9a   777134 0000 46         double_tangent_|hfp_double_tangent_degrees_
    000645  5a   004036 0000 00
    000646  9a   777132 0000 46         double_arc_sine_|hfp_double_arc_sine_radians_
    000647  5a   004035 0000 00
    000650  9a   777130 0000 46         double_arc_sine_|hfp_double_arc_sine_degrees_
    000651  5a   004034 0000 00
    000652  9a   777126 0000 46         double_arc_sine_|hfp_double_arc_cosine_radians_
    000653  5a   004033 0000 00
    000654  9a   777124 0000 46         double_arc_sine_|hfp_double_arc_cosine_degrees_
    000655  5a   004032 0000 00
    000656  9a   777122 0000 46         double_arc_tangent_|hfp_double_arc_tan_radians_
    000657  5a   004031 0000 00
    000660  9a   777120 0000 46         double_arc_tangent_|hfp_double_arc_tan_degrees_
    000661  5a   004030 0000 00
    000662  9a   777116 0000 46         double_logarithm_|hfp_double_log_base_2_
    000663  5a   004027 0000 00
    000664  9a   777114 0000 46         double_logarithm_|hfp_double_log_base_e_
    000665  5a   004026 0000 00
    000666  9a   777112 0000 46         double_logarithm_|hfp_double_log_base_10_
    000667  5a   004025 0000 00
    000670  9a   777110 0000 46         double_exponential_|hfp_double_exponential_
    000671  5a   004024 0000 00
    000672  9a   777106 0000 46         arc_tangent_|hfp_arc_tangent_radians_2_
    000673  5a   004023 0000 00
    000674  9a   777104 0000 46         arc_tangent_|hfp_arc_tangent_degrees_2_
    000675  5a   004022 0000 00
    000676  9a   777102 0000 46         double_arc_tangent_|hfp_double_arc_tan_radians_2_
    000677  5a   004021 0000 00
    000700  9a   777100 0000 46         double_arc_tangent_|hfp_double_arc_tan_degrees_2_
    000701  5a   004020 0000 00
    000702  9a   777076 0000 46         power_|hfp_integer_power_single_
    000703  5a   004017 0000 00
    000704  9a   777074 0000 46         power_|hfp_integer_power_double_
    000705  5a   004016 0000 00
    000706  9a   777072 0000 46         power_|hfp_double_power_single_
    000707  5a   004015 0000 00
    000710  9a   777070 0000 46         power_|hfp_double_power_double_
    000711  5a   004014 0000 00
    000712  9a   777066 0000 46         power_integer_|hfp_double_power_integer_
    000713  5a   004013 0000 00
    000714  9a   777064 0000 46         power_|hfp_single_power_single_
    000715  5a   004012 0000 00
    000716  9a   777062 0000 46         power_integer_|hfp_single_power_integer_
    000717  5a   004011 0000 00
    000720  9a   777060 0000 46         fort_math_ops_|hfp_cabs
    000721  5a   004010 0000 00
    000722  9a   777056 0000 46         fort_math_ops_|hfp_ccos
    000723  5a   004007 0000 00
    000724  9a   777054 0000 46         fort_math_ops_|hfp_cexp
    000725  5a   004006 0000 00
    000726  9a   777052 0000 46         fort_math_ops_|hfp_clog
    000727  5a   004005 0000 00
    000730  9a   777050 0000 46         fort_math_ops_|hfp_csin
    000731  5a   004004 0000 00
    000732  9a   777046 0000 46         fort_math_ops_|hfp_csqrt
    000733  5a   004003 0000 00
    000734  9a   777044 0000 46         fort_math_ops_|hfp_tanh
    000735  5a   004002 0000 00
    000736  9a   777042 0000 46         fort_math_ops_|hfp_dmod
    000737  5a   004001 0000 00
    000740  9a   777040 0000 46         fort_math_ops_|hfp_cmpx_p_cmpx
    000741  5a   004000 0000 00
    000742  9a   777036 0000 46         fort_math_ops_|hfp_dtanh
    000743  5a   003777 0000 00
    000744  9a   777034 0000 46         fort_math_ops_|hfp_sinh
    000745  5a   003776 0000 00
    000746  9a   777032 0000 46         fort_math_ops_|hfp_dsinh
    000747  5a   003775 0000 00
    000750  9a   777030 0000 46         fort_math_ops_|hfp_cosh
    000751  5a   003774 0000 00
    000752  9a   777026 0000 46         fort_math_ops_|hfp_dcosh
    000753  5a   003773 0000 00
    000754  9a   777024 0000 46         fort_hfp_builtins_|exp_
    000755  5a   003772 0000 00
    000756  9a   777022 0000 46         fort_hfp_builtins_|alog_
    000757  5a   003771 0000 00
    000760  9a   777020 0000 46         fort_hfp_builtins_|alog10_
    000761  5a   003770 0000 00
    000762  9a   777016 0000 46         fort_hfp_builtins_|atan_
    000763  5a   003767 0000 00
    000764  9a   777014 0000 46         fort_hfp_builtins_|atan2_
    000765  5a   003766 0000 00
    000766  9a   777012 0000 46         fort_hfp_builtins_|sin_
    000767  5a   003765 0000 00
    000770  9a   777010 0000 46         fort_hfp_builtins_|cos_
    000771  5a   003764 0000 00
    000772  9a   777006 0000 46         fort_hfp_builtins_|tanh_
    000773  5a   003763 0000 00
    000774  9a   777004 0000 46         fort_hfp_builtins_|sqrt_
    000775  5a   003762 0000 00
    000776  9a   777002 0000 46         fort_hfp_builtins_|dmod_
    000777  5a   003761 0000 00
    001000  9a   777000 0000 46         fort_hfp_builtins_|dexp_
    001001  5a   003760 0000 00
    001002  9a   776776 0000 46         fort_hfp_builtins_|dlog_
    001003  5a   003757 0000 00
    001004  9a   776774 0000 46         fort_hfp_builtins_|dlog10_
    001005  5a   003756 0000 00
    001006  9a   776772 0000 46         fort_hfp_builtins_|datan_
    001007  5a   003755 0000 00
    001010  9a   776770 0000 46         fort_hfp_builtins_|datan2_
    001011  5a   003754 0000 00
    001012  9a   776766 0000 46         fort_hfp_builtins_|dsin_
    001013  5a   003753 0000 00
    001014  9a   776764 0000 46         fort_hfp_builtins_|dcos_
    001015  5a   003752 0000 00
    001016  9a   776762 0000 46         fort_hfp_builtins_|dsqrt_
    001017  5a   003751 0000 00
    001020  9a   776760 0000 46         fort_hfp_builtins_|cabs_
    001021  5a   003750 0000 00
    001022  9a   776756 0000 46         fort_hfp_builtins_|cexp_
    001023  5a   003747 0000 00
    001024  9a   776754 0000 46         fort_hfp_builtins_|clog_
    001025  5a   003746 0000 00
    001026  9a   776752 0000 46         fort_hfp_builtins_|csin_
    001027  5a   003745 0000 00
    001030  9a   776750 0000 46         fort_hfp_builtins_|ccos_
    001031  5a   003744 0000 00
    001032  9a   776746 0000 46         fort_hfp_builtins_|csqrt_
    001033  5a   003743 0000 00
    001034  9a   776744 0000 46         fort_hfp_builtins_|cxp2_
    001035  5a   003742 0000 00
    001036  9a   776742 0000 46         fort_hfp_builtins_|tan_
    001037  5a   003741 0000 00
    001040  9a   776740 0000 46         fort_hfp_builtins_|dtan_
    001041  5a   003740 0000 00
    001042  9a   776736 0000 46         fort_hfp_builtins_|asin_
    001043  5a   003737 0000 00
    001044  9a   776734 0000 46         fort_hfp_builtins_|dasin_
    001045  5a   003736 0000 00
    001046  9a   776732 0000 46         fort_hfp_builtins_|acos_
    001047  5a   003735 0000 00
    001050  9a   776730 0000 46         fort_hfp_builtins_|dacos_
    001051  5a   003734 0000 00
    001052  9a   776726 0000 46         fort_hfp_builtins_|dtanh_
    001053  5a   003733 0000 00
    001054  9a   776724 0000 46         fort_hfp_builtins_|sinh_
    001055  5a   003732 0000 00
    001056  9a   776722 0000 46         fort_hfp_builtins_|dsinh_
    001057  5a   003731 0000 00
    001060  9a   776720 0000 46         fort_hfp_builtins_|cosh_
    001061  5a   003730 0000 00
    001062  9a   776716 0000 46         fort_hfp_builtins_|dcosh_
    001063  5a   003727 0000 00
    001064  9a   776714 0000 46         fort_hfp_builtins_|abs_
    001065  5a   003726 0000 00
    001066  9a   776712 0000 46         fort_hfp_builtins_|dabs_
    001067  5a   003725 0000 00
    001070  9a   776710 0000 46         fort_hfp_builtins_|dim_
    001071  5a   003724 0000 00
    001072  9a   776706 0000 46         fort_hfp_builtins_|ddim_
    001073  5a   003723 0000 00
    001074  9a   776704 0000 46         fort_hfp_builtins_|sign_
    001075  5a   003722 0000 00
    001076  9a   776702 0000 46         fort_hfp_builtins_|dsign_
    001077  5a   003721 0000 00
    001100  9a   776700 0000 46         fort_hfp_builtins_|aint_
    001101  5a   003720 0000 00
    001102  9a   776676 0000 46         fort_hfp_builtins_|aimag_
    001103  5a   003717 0000 00
    001104  9a   776674 0000 46         fort_hfp_builtins_|conjg_
    001105  5a   003716 0000 00
    001106  9a   776672 0000 46         fort_hfp_builtins_|dint_
    001107  5a   003715 0000 00
    001110  9a   776670 0000 46         fort_hfp_builtins_|anint_
    001111  5a   003714 0000 00
    001112  9a   776666 0000 46         fort_hfp_builtins_|dnint_
    001113  5a   003713 0000 00
    001114  9a   776664 0000 46         fort_hfp_builtins_|nint_
    001115  5a   003712 0000 00
    001116  9a   776662 0000 46         fort_hfp_builtins_|idnint_
    001117  5a   003711 0000 00
    001120  9a   776660 0000 46         fort_hfp_builtins_|dprod_
    001121  5a   003710 0000 00
    001122  9a   776656 0000 46         fort_hfp_builtins_|amod_
    001123  5a   003707 0000 00
    001124  9a   776654 0000 46         trace_catch_|catch_pl1_
    001125  5a   003706 0000 00
    001126  9a   776652 0000 46         cpu_time_and_paging_op_|cpu_time_and_paging_op_
    001127  5a   003705 0000 00
SYMBOL INFORMATION

SYMBOL TABLE HEADER

    000000  aa   000000 000001
    000001  aa   163171 155142
    000002  aa   164162 145145
    000003  aa   000000 000010
    000004  aa   000000 116575
    000005  aa   012137 773040
    000006  aa   000000 116603
    000007  aa   303345 252766
    000010  aa   141154 155040
    000011  aa   040040 040040
    000012  aa   000024 000040
    000013  aa   000034 000040
    000014  aa   000044 000100
    000015  aa   000002 000002
    000016  aa   000064 000000
    000017  aa   000000 002735
    000020  aa   000000 000320
    000021  aa   002321 002153
    000022  aa   002717 000320
    000023  aa   000064 000000
    000024  aa   101114 115040
    000025  aa   126145 162163
    000026  aa   151157 156040
    000027  aa   070056 061063
    000030  aa   040123 145160
    000031  aa   164145 155142
    000032  aa   145162 040061
    000033  aa   071070 070040
    000034  aa   110151 162156
    000035  aa   145151 163145
    000036  aa   156056 123171
    000037  aa   163115 141151
    000040  aa   156164 056141
    000041  aa   040040 040040
    000042  aa   040040 040040
    000043  aa   040040 040040
    000044  aa   154151 163164
    000045  aa   040163 171155
    000046  aa   142157 154163
    000047  aa   040040 040040
    000050  aa   040040 040040
    000051  aa   040040 040040
    000052  aa   040040 040040
    000053  aa   040040 040040
    000054  aa   040040 040040
    000055  aa   040040 040040
    000056  aa   040040 040040
    000057  aa   040040 040040
    000060  aa   040040 040040
    000061  aa   040040 040040
    000062  aa   040040 040040
    000063  aa   040040 040040
    000064  aa   000000 000001
    000065  aa   000000 000014
    000066  aa   000146 000054
    000067  aa   165772 247101
    000070  aa   000000 116603
    000071  aa   260740 000000
    000072  aa   000161 000042
    000073  aa   147777 464111
    000074  aa   000000 115000
    000075  aa   507463 000000
    000076  aa   000172 000041
    000077  aa   052721 247134
    000100  aa   000000 105272
    000101  aa   317215 400000
    000102  aa   000203 000036
    000103  aa   043243 127522
    000104  aa   000000 101621
    000105  aa   351621 000000
    000106  aa   000213 000033
    000107  aa   117041 401314
    000110  aa   000000 111707
    000111  aa   640170 400000
    000112  aa   000222 000037
    000113  aa   045741 160634
    000114  aa   000000 104574
    000115  aa   400471 200000
    000116  aa   000232 000036
    000117  aa   045741 160635
    000120  aa   000000 104574
    000121  aa   400471 200000
    000122  aa   000242 000040
    000123  aa   106701 741664
    000124  aa   000000 110670
    000125  aa   211305 400000
    000126  aa   000252 000047
    000127  aa   106701 740411
    000130  aa   000000 110670
    000131  aa   204075 200000
    000132  aa   000264 000052
    000133  aa   106701 740410
    000134  aa   000000 110670
    000135  aa   204075 200000
    000136  aa   000277 000035
    000137  aa   043243 130223
    000140  aa   000000 102727
    000141  aa   712743 600000
    000142  aa   000307 000042
    000143  aa   043243 130064
    000144  aa   000000 104240
    000145  aa   023625 000000
    000146  aa   076163 160145          >special_ldd>install>1178>pl1_operators_.alm
    000147  aa   143151 141154
    000150  aa   137154 144144
    000151  aa   076151 156163
    000152  aa   164141 154154
    000153  aa   076061 061067
    000154  aa   070076 160154
    000155  aa   061137 157160
    000156  aa   145162 141164
    000157  aa   157162 163137
    000160  aa   056141 154155
    000161  aa   076154 144144          >ldd>include>stack_header.incl.alm
    000162  aa   076151 156143
    000163  aa   154165 144145
    000164  aa   076163 164141
    000165  aa   143153 137150
    000166  aa   145141 144145
    000167  aa   162056 151156
    000170  aa   143154 056141
    000171  aa   154155 040040
    000172  aa   076154 144144          >ldd>include>stack_frame.incl.alm
    000173  aa   076151 156143
    000174  aa   154165 144145
    000175  aa   076163 164141
    000176  aa   143153 137146
    000177  aa   162141 155145
    000200  aa   056151 156143
    000201  aa   154056 141154
    000202  aa   155040 040040
    000203  aa   076154 144144          >ldd>include>eis_bits.incl.alm
    000204  aa   076151 156143
    000205  aa   154165 144145
    000206  aa   076145 151163
    000207  aa   137142 151164
    000210  aa   163056 151156
    000211  aa   143154 056141
    000212  aa   154155 040040
    000213  aa   076154 144144          >ldd>include>iocbx.incl.alm
    000214  aa   076151 156143
    000215  aa   154165 144145
    000216  aa   076151 157143
    000217  aa   142170 056151
    000220  aa   156143 154056
    000221  aa   141154 155040
    000222  aa   076154 144144          >ldd>include>plio2_fsb.incl.alm
    000223  aa   076151 156143
    000224  aa   154165 144145
    000225  aa   076160 154151
    000226  aa   157062 137146
    000227  aa   163142 056151
    000230  aa   156143 154056
    000231  aa   141154 155040
    000232  aa   076154 144144          >ldd>include>plio2_ps.incl.alm
    000233  aa   076151 156143
    000234  aa   154165 144145
    000235  aa   076160 154151
    000236  aa   157062 137160
    000237  aa   163056 151156
    000240  aa   143154 056141
    000241  aa   154155 040040
    000242  aa   076154 144144          >ldd>include>fortran_ps.incl.alm
    000243  aa   076151 156143
    000244  aa   154165 144145
    000245  aa   076146 157162
    000246  aa   164162 141156
    000247  aa   137160 163056
    000250  aa   151156 143154
    000251  aa   056141 154155
    000252  aa   076154 144144          >ldd>include>fortran_open_data.incl.alm
    000253  aa   076151 156143
    000254  aa   154165 144145
    000255  aa   076146 157162
    000256  aa   164162 141156
    000257  aa   137157 160145
    000260  aa   156137 144141
    000261  aa   164141 056151
    000262  aa   156143 154056
    000263  aa   141154 155040
    000264  aa   076154 144144          >ldd>include>fortran_inquire_data.incl.alm
    000265  aa   076151 156143
    000266  aa   154165 144145
    000267  aa   076146 157162
    000270  aa   164162 141156
    000271  aa   137151 156161
    000272  aa   165151 162145
    000273  aa   137144 141164
    000274  aa   141056 151156
    000275  aa   143154 056141
    000276  aa   154155 040040
    000277  aa   076154 144144          >ldd>include>on_unit.incl.alm
    000300  aa   076151 156143
    000301  aa   154165 144145
    000302  aa   076157 156137
    000303  aa   165156 151164
    000304  aa   056151 156143
    000305  aa   154056 141154
    000306  aa   155040 040040
    000307  aa   076154 144144          >ldd>include>long_profile.incl.alm
    000310  aa   076151 156143
    000311  aa   154165 144145
    000312  aa   076154 157156
    000313  aa   147137 160162
    000314  aa   157146 151154
    000315  aa   145056 151156
    000316  aa   143154 056141
    000317  aa   154155 040040
               MULTICS ASSEMBLY CROSS REFERENCE LISTING

   Value        Symbol                   Source file   Line number

           5    a                        pl1_operators_:    1713, 2160, 2187, 2273, 2299, 2321, 2340, 2602, 2614, 2679,
                                         eis_bits:       9.
                abs_                     pl1_operators_:    6334, 7202.
        3150    abt                      pl1_operators_:    1360, 1373.
                acos_                    pl1_operators_:    6326, 7194.
        3146    act                      pl1_operators_:    1358, 1370.
       10155    add_fort_cleanup         pl1_operators_:    5322, 5328.
       10124    add_on                   pl1_operators_:    5287, 5292.
                aimag_                   pl1_operators_:    6344, 7212.
                aint_                    pl1_operators_:    6343, 7211.
           5    al                       pl1_operators_:    3209, 3250,
                                         eis_bits:      10.
        3162    alloc                    pl1_operators_:     194, 1355, 1368, 1379, 2208, 2240, 2263, 2289, 3195, 3233.
       11213    allocation               pl1_operators_:    1328, 6168, 6176, 6964, 7389, 7460.
       11223    allocation_done          pl1_operators_:    6173, 6177.
                alloc_                   pl1_operators_:    1328, 6063, 6081, 6964, 7389, 7460.
        7301    alloc_auto_adj           pl1_operators_:    1328, 4653, 6964, 7389, 7460.
        3152    alloc_bit_temp           pl1_operators_:    1328, 1363, 6964, 7389, 7460.
       11107    alloc_block              pl1_operators_:    1328, 6068, 6964, 7389, 7460.
        3140    alloc_char_temp          pl1_operators_:    1328, 1350, 6964, 7389, 7460.
       11104    alloc_storage            pl1_operators_:    1328, 6060, 6964, 7389, 7460.
        3161    alloc_temp               pl1_operators_:    1328, 1372, 6964, 7389, 7460.
       12440    almost_one               pl1_operators_:    4675, 4693, 4748, 4755, 6933.
        7727    alm_call                 pl1_operators_:     195, 1328, 5099, 6964, 7389, 7460.
        7747    alm_entry                pl1_operators_:     196, 1328, 5119, 6964.
        7727    alm_operators_begin      pl1_operators_:     197, 5098.
        7771    alm_operators_end        pl1_operators_:     198, 5137.
        7733    alm_push                 pl1_operators_:     199, 1328, 5105, 6964, 7389, 7460.
        7757    alm_return               pl1_operators_:     200, 1328, 5121, 6964, 7389, 7460.
        7765    alm_return_no_pop        pl1_operators_:     201, 1328, 5131, 6964, 7389, 7460.
       24722    alm_trace_operators_begin      pl1_operators_:     202, 7465.
       24743    alm_trace_operators_end  pl1_operators_:     203, 7467.
                alog10_                  pl1_operators_:    6299, 7167.
                alog_                    pl1_operators_:    6298, 7166.
                amod_                    pl1_operators_:    6354, 7222.
        3627    ana_op                   pl1_operators_:    1751, 1890.
           1    and                      pl1_operators_:    1890,
                                         eis_bits:      23.
        3526    and_1                    pl1_operators_:    1738, 1742, 1746, 1751.
        3517    and_bits                 pl1_operators_:    1328, 1736, 6964, 7389, 7460.
        3525    and_bits_aligned         pl1_operators_:    1328, 1748, 6964, 7389, 7460.
        3521    and_bits_co              pl1_operators_:    1328, 1740, 6964, 7389, 7460.
        3523    and_bits_ho              pl1_operators_:    1328, 1744, 6964, 7389, 7460.
                anint_                   pl1_operators_:    6348, 7216.
                any_to_any_              pl1_operators_:    1328, 6964, 7389, 7460.
                any_to_any_round_        pl1_operators_:    1328, 6964, 7389, 7460.
                any_to_any_truncate_     pl1_operators_:    1328, 6964, 7389, 7460.
         100    ar                       pl1_operators_:    1608, 1645, 1659, 1698, 1713, 1824, 1889, 1890, 1891, 1892, 1893,
                                                            1921, 1948, 1984, 1998, 2039, 2078, 2106, 2130, 2160, 2187, 2216,
                                                            2248, 2273, 2299, 2321, 2340, 2399, 2422, 2473, 2499, 2524, 2538,
                                                            2576, 2602, 2614, 2665, 2679, 2737, 2827, 2864, 2875, 2909, 3102,
                                                            3135, 3159, 3172, 3203, 3209, 3214, 3242, 3250, 3255, 3260, 3280,
                                                            3330, 4439,
                                         eis_bits:       1.
                arc_cosine_degrees_      pl1_operators_:    1328, 7389.
                arc_cosine_radians_      pl1_operators_:    1328, 7389.
                arc_sine_                pl1_operators_:    1328, 6964, 7389, 7460.
                arc_sine_degrees_        pl1_operators_:    1328, 7389.
                arc_sine_radians_        pl1_operators_:    1328, 7389.
                arc_tangent_             pl1_operators_:    1328, 6964, 7389, 7460.
                arc_tangent_degrees_     pl1_operators_:    1328, 7389.
                arc_tangent_degrees_2_   pl1_operators_:    1328, 7389.
                arc_tangent_radians_     pl1_operators_:    1328, 7389.
                arc_tangent_radians_2_   pl1_operators_:    1328, 7389.
          70    arg_list                 pl1_operators_:     262, 3430, 3433, 3434, 4642, 4644, 4645, 5250, 5252, 5256, 5259,
                                                            5260, 5620, 5623, 5624, 5749, 5752, 5753, 6074, 6076, 6079, 6084,
                                                            6085, 6107, 6198, 6199, 6200, 6362, 6363, 6364, 6377, 6381, 6384,
                                                            6385, 6397, 6406, 6407, 6875, 6881.
                asin_                    pl1_operators_:    6324, 7192.
                atan2_                   pl1_operators_:    6301, 7169.
                atan_                    pl1_operators_:    6300, 7168.
           1    au                       eis_bits:       5.
        4416    bc_1                     pl1_operators_:    2482, 2486, 2490, 2495.
           0    begin_pl1_operators      pl1_operators_:     204, 1327, 7543.
        5572    begin_return_mac         pl1_operators_:    1328, 3443, 6964, 7389, 7460.
        6614    begin_return_main        pl1_operators_:    1328, 4225, 6964, 7389, 7460.
           0    bitno_to_charno_table    pl1_operators_:    1328.
        3755    bits_move                pl1_operators_:    1328, 2048, 6964, 7389, 7460.
        3766    bits_move_aligned        pl1_operators_:    1328, 2069, 6964, 7389, 7460.
        4021    bits_move_ck             pl1_operators_:    1328, 2111, 6964, 7389, 7460.
        4027    bits_move_ck_al          pl1_operators_:    1328, 2123, 6964, 7389, 7460.
        4023    bits_move_ck_co          pl1_operators_:    1328, 2115, 6964, 7389, 7460.
        4025    bits_move_ck_ho          pl1_operators_:    1328, 2119, 6964, 7389, 7460.
        3760    bits_move_co             pl1_operators_:    1328, 2055, 6964, 7389, 7460.
        3763    bits_move_ho             pl1_operators_:    1328, 2062, 6964, 7389, 7460.
        3754    bits_move_vt             pl1_operators_:    1328, 2045, 6964, 7389, 7460.
        3765    bits_move_vta            pl1_operators_:    1328, 2066, 6964, 7389, 7460.
        3757    bits_move_vt_co          pl1_operators_:    1328, 2052, 6964, 7389, 7460.
        3762    bits_move_vt_ho          pl1_operators_:    1328, 2059, 6964, 7389, 7460.
          62    bit_lg1                  pl1_operators_:     252, 1364, 1369, 1395, 1397, 1400, 1405, 1408, 1503, 1539, 1559,
                                                            1672, 1722, 1725, 1876, 1995, 2077, 2129, 2227, 2235, 2245, 2260,
                                                            2266, 2279, 2333, 2336, 2374, 2421, 2466, 2731, 2804, 2845, 2903,
                                                            2929, 3318, 3321, 3701, 3702, 3736, 3737, 4575, 4580, 4584, 4588,
                                                            4597, 4942, 4962.
        1426    bit_mask                 pl1_operators_:    1328, 1728, 2525, 3766, 4190, 4481, 4490, 4554, 4564, 4729, 4805,
                                                            4820, 4862, 4896, 4967, 5171, 5199.
       11633    bit_mask_one             pl1_operators_:    1578, 6541.
          65    bit_op                   pl1_operators_:     257, 1875, 1880.
          64    bit_or_char              pl1_operators_:     255, 1352, 1365, 1512, 1531, 1540, 1560, 2201.
          40    blank                    pl1_operators_:     292, 1645, 1713, 1921, 2039, 2106, 2399, 2499, 3214, 3255.
        2066    blanks                   pl1_operators_:    1328, 2432.
        4407    blank_chars              pl1_operators_:    1328, 2480, 6964, 7389, 7460.
        4415    blank_chars_aligned      pl1_operators_:    1328, 2492, 6964, 7389, 7460.
        4411    blank_chars_co           pl1_operators_:    1328, 2484, 6964, 7389, 7460.
        4413    blank_chars_ho           pl1_operators_:    1328, 2488, 6964, 7389, 7460.
        4030    bmk_1                    pl1_operators_:    2113, 2117, 2121, 2126.
        3767    bm_1                     pl1_operators_:    2050, 2057, 2064, 2072.
       10206    bound_ck_signal          pl1_operators_:    1328, 5366, 6964, 7389, 7460.
                cabs                     pl1_operators_:    1328, 6964, 7389, 7460.
                cabs_                    pl1_operators_:    6315, 7183.
       11111    call_alloc               pl1_operators_:    6072, 6129.
       11122    call_alloc_free          pl1_operators_:    6083, 6110, 6202.
        5610    call_ent_var             pl1_operators_:    1328, 3473, 6964, 7389, 7460.
        5607    call_ent_var_desc        pl1_operators_:    1328, 3470, 6964, 7389, 7460.
        5624    call_ext_in              pl1_operators_:    1328, 3496, 6964, 7389, 7460.
        5623    call_ext_in_desc         pl1_operators_:    1328, 3492, 6964, 7389, 7460.
        5624    call_ext_out             pl1_operators_:    1328, 3497, 6964, 7389, 7460.
        5623    call_ext_out_desc        pl1_operators_:    1328, 3493, 6964, 7389, 7460.
       11142    call_free                pl1_operators_:    6105, 6162.
        5646    call_int_other           pl1_operators_:    1328, 3538, 6964, 7389, 7460.
        5645    call_int_other_desc      pl1_operators_:    1328, 3535, 6964, 7389, 7460.
        5635    call_int_this            pl1_operators_:    1328, 3521, 6964, 7389, 7460.
        5634    call_int_this_desc       pl1_operators_:    1328, 3518, 6964, 7389, 7460.
        1170    call_offset              stack_header:        80.
       11557    call_set_hexfp_control   pl1_operators_:    6457, 6492, 7428.
       11243    call_signal_             pl1_operators_:     205, 2365, 4025, 4621, 5156, 5361, 5372, 6207, 6467, 7438.
           2    carry                    pl1_operators_:     280, 3921, 3929, 3933, 3947.
           3    carrya                   pl1_operators_:     281, 3922, 3935, 3941, 3946.
                catch_pl1_               pl1_operators_:    7446, 7448, 7450, 7452, 7466.
        4063    cat_bits                 pl1_operators_:    1328, 2168, 6964, 7389, 7460.
        4071    cat_bits_aligned         pl1_operators_:    1328, 2170, 2174, 2178, 2180, 6964, 7389, 7460.
        4065    cat_bits_co              pl1_operators_:    1328, 2172, 6964, 7389, 7460.
        4067    cat_bits_ho              pl1_operators_:    1328, 2176, 6964, 7389, 7460.
        4040    cat_chars                pl1_operators_:    1328, 2140, 6964, 7389, 7460.
        4046    cat_chars_aligned        pl1_operators_:    1328, 2142, 2146, 2150, 2152, 6964, 7389, 7460.
        4042    cat_chars_co             pl1_operators_:    1328, 2144, 6964, 7389, 7460.
        4044    cat_chars_ho             pl1_operators_:    1328, 2148, 6964, 7389, 7460.
        4061    cat_done                 pl1_operators_:    2155, 2164, 2183, 2190.
          66    cat_lg1                  pl1_operators_:     259, 1396, 1414, 1819, 1944, 2158, 2185.
        3552    cat_move_bits            pl1_operators_:    1328, 1804, 6964, 7389, 7460.
        3560    cat_move_bits_aligned    pl1_operators_:    1328, 1816, 6964, 7389, 7460.
        3554    cat_move_bits_co         pl1_operators_:    1328, 1808, 6964, 7389, 7460.
        3556    cat_move_bits_ho         pl1_operators_:    1328, 1812, 6964, 7389, 7460.
        3654    cat_move_chars           pl1_operators_:    1328, 1927, 6964, 7389, 7460.
        3662    cat_move_chars_aligned   pl1_operators_:    1328, 1939, 6964, 7389, 7460.
        3656    cat_move_chars_co        pl1_operators_:    1328, 1931, 6964, 7389, 7460.
        3660    cat_move_chars_ho        pl1_operators_:    1328, 1935, 6964, 7389, 7460.
        3177    cat_realloc_bits         pl1_operators_:    1328, 1394, 6964, 7389, 7460.
        3215    cat_realloc_chars        pl1_operators_:    1328, 1412, 6964, 7389, 7460.
                ccos                     pl1_operators_:    1328, 7389.
                ccos_                    pl1_operators_:    6319, 7187.
                ceil                     pl1_operators_:    1328, 6964, 7389, 7460.
        7415    ceil_fl                  pl1_operators_:    1328, 4753, 7389.
        7444    ceil_fx1                 pl1_operators_:    1328, 4783, 6964, 7389, 7460.
        7500    ceil_fx2                 pl1_operators_:    1328, 4819, 6964, 7389, 7460.
                cexp                     pl1_operators_:    1328, 7389.
                cexp_                    pl1_operators_:    6316, 7184.
                chain_entry              pl1_operators_:    6403.
        3727    chars_move               pl1_operators_:    1328, 2009, 6964, 7389, 7460.
        3740    chars_move_aligned       pl1_operators_:    1328, 2030, 6964, 7389, 7460.
        4002    chars_move_ck            pl1_operators_:    1328, 2087, 6964, 7389, 7460.
        4010    chars_move_ck_al         pl1_operators_:    1328, 2099, 6964, 7389, 7460.
        4004    chars_move_ck_co         pl1_operators_:    1328, 2091, 6964, 7389, 7460.
        4006    chars_move_ck_ho         pl1_operators_:    1328, 2095, 6964, 7389, 7460.
        3732    chars_move_co            pl1_operators_:    1328, 2016, 6964, 7389, 7460.
        3735    chars_move_ho            pl1_operators_:    1328, 2023, 6964, 7389, 7460.
        3726    chars_move_vt            pl1_operators_:    1328, 2006, 6964, 7389, 7460.
        3737    chars_move_vta           pl1_operators_:    1328, 2027, 6964, 7389, 7460.
        3731    chars_move_vt_co         pl1_operators_:    1328, 2013, 6964, 7389, 7460.
        3734    chars_move_vt_ho         pl1_operators_:    1328, 2020, 6964, 7389, 7460.
          63    char_lg1                 pl1_operators_:     253, 1351, 1356, 1413, 1417, 1420, 1505, 1511, 1530, 1618, 1657,
                                                            1709, 1711, 1918, 2038, 2105, 2203, 2213, 2226, 2286, 2292, 2305,
                                                            2314, 2317, 2354, 2398, 2570, 2571, 2632, 2635, 2687, 2826, 2840,
                                                            2860, 2956, 2960, 2962, 2969, 3001, 3005, 3007, 3015, 3065, 3066,
                                                            3088, 3097, 3100, 3154, 3157, 3170, 3182, 3192, 3199, 3230, 3237,
                                                            3358, 3361.
           0    clear                    eis_bits:      27.
                clock_                   pl1_operators_:    4189.
        6563    clock_mac                pl1_operators_:    1328, 4187, 6964, 7389, 7460.
                clog                     pl1_operators_:    1328, 7389.
                clog_                    pl1_operators_:    6317, 7185.
                close_                   pl1_operators_:    5646.
       10507    close_file               pl1_operators_:    1328, 5681, 6964, 7389, 7460.
        3561    cmb_1                    pl1_operators_:    1806, 1810, 1814, 1819.
        3663    cmc_1                    pl1_operators_:    1929, 1933, 1937, 1942.
        4011    cmk_1                    pl1_operators_:    2089, 2093, 2097, 2102.
                cmpx_p_cmpx              pl1_operators_:    1328, 7389.
        3741    cm_1                     pl1_operators_:    2011, 2018, 2025, 2033.
          70    complex                  pl1_operators_:     266, 4347, 4352, 4355, 4356, 4359, 4362, 4363, 4388, 4404, 4410,
                                                            4423, 4428.
        3717    comp_bits                pl1_operators_:    1328, 1994, 6964, 7389, 7460.
                conjg_                   pl1_operators_:    6345, 7213.
        5161    const_verify             pl1_operators_:    1328, 3049, 6964, 7389, 7460.
        5167    const_verify_al          pl1_operators_:    1328, 3061, 6964, 7389, 7460.
        5163    const_verify_co          pl1_operators_:    1328, 3053, 6964, 7389, 7460.
        5165    const_verify_ho          pl1_operators_:    1328, 3057, 6964, 7389, 7460.
          11    control_entry_offset     long_profile:        40.
        4445    copy_const               pl1_operators_:    1328, 2536, 6964, 7389, 7460.
        4444    copy_const_vt            pl1_operators_:    1328, 2533, 6964, 7389, 7460.
        7033    copy_double              pl1_operators_:    1328, 4448, 6964, 7389, 7460.
        7023    copy_words               pl1_operators_:    1328, 4435, 4450, 6964, 7389, 7460.
                cosh                     pl1_operators_:    1328, 7389.
                cosh_                    pl1_operators_:    6332, 7200.
                cosine_degrees_          pl1_operators_:    1328, 7389.
                cosine_radians_          pl1_operators_:    1328, 7389.
                cos_                     pl1_operators_:    6303, 7171.
          77    count                    pl1_operators_:     273, 2199, 2204, 2211, 2236, 2243, 2730, 2732, 2859, 2861, 2902,
                                                            2904, 3283, 3385, 3395, 3408, 3411, 3695, 3696.
        1264    co_to_bo                 pl1_operators_:    1328, 1521, 1549, 1595, 1631, 1685, 1741, 1763, 1785, 1809, 1840,
                                                            1863, 1906, 1932, 2017, 2056, 2092, 2116, 2145, 2173, 2386, 2410,
                                                            2456, 2485, 2511, 2553, 2712, 2757, 2789, 2944, 2989, 3032, 3054,
                                                            3304, 3344, 5489, 5514, 5535, 5579, 5600.
        4371    cpbs3                    pl1_operators_:    1328, 2451, 6964, 7389, 7460.
        4402    cpbs3a                   pl1_operators_:    2453, 2457, 2461, 2472.
        4401    cpbs3_aligned            pl1_operators_:    1328, 2469, 6964, 7389, 7460.
        4373    cpbs3_co                 pl1_operators_:    1328, 2455, 6964, 7389, 7460.
        4375    cpbs3_ho                 pl1_operators_:    1328, 2459, 6964, 7389, 7460.
        4377    cpbs4                    pl1_operators_:    1328, 2466, 6964, 7389, 7460.
        4350    cpbs_1                   pl1_operators_:    2420, 2447.
        4364    cpbs_ext1                pl1_operators_:    1328, 2440, 6964, 7389, 7460.
        4365    cpbs_ext2                pl1_operators_:    1328, 2443, 6964, 7389, 7460.
        4331    cpcs_1                   pl1_operators_:    2397, 2438.
        4357    cpcs_ext1                pl1_operators_:    1328, 2431, 6964, 7389, 7460.
        4360    cpcs_ext2                pl1_operators_:    1328, 2434, 6964, 7389, 7460.
                cplx_dec_ops_            pl1_operators_:    1328, 6964, 7389, 7460.
          56    cpu                      pl1_operators_:     248, 7494, 7510, 7517.
                cpu_time_and_paging_op_  pl1_operators_:    7492.
        4340    cp_bits                  pl1_operators_:    1328, 2405, 6964, 7389, 7460.
        4346    cp_bits_aligned          pl1_operators_:    1328, 2407, 2411, 2415, 2417, 6964, 7389, 7460.
        4342    cp_bits_co               pl1_operators_:    1328, 2409, 6964, 7389, 7460.
        4344    cp_bits_ho               pl1_operators_:    1328, 2413, 6964, 7389, 7460.
        4320    cp_chars                 pl1_operators_:    1328, 2381, 6964, 7389, 7460.
        4326    cp_chars_aligned         pl1_operators_:    1328, 2383, 2387, 2391, 2393, 6964, 7389, 7460.
        4322    cp_chars_co              pl1_operators_:    1328, 2385, 6964, 7389, 7460.
        4324    cp_chars_ho              pl1_operators_:    1328, 2389, 6964, 7389, 7460.
                create                   pl1_operators_:    5265.
                csin                     pl1_operators_:    1328, 7389.
                csin_                    pl1_operators_:    6318, 7186.
        1244    csl_vector               pl1_operators_:    1328.
                csqrt                    pl1_operators_:    1328, 7389.
                csqrt_                   pl1_operators_:    6320, 7188.
                cxp2_                    pl1_operators_:    6321, 7189.
                dabs_                    pl1_operators_:    6336, 7204.
                dacos_                   pl1_operators_:    6327, 7195.
                dasin_                   pl1_operators_:    6325, 7193.
                datan2_                  pl1_operators_:    6311, 7179.
                datan_                   pl1_operators_:    6310, 7178.
                dcosh                    pl1_operators_:    1328, 7389.
                dcosh_                   pl1_operators_:    6333, 7201.
                dcos_                    pl1_operators_:    6313, 7181.
                ddim_                    pl1_operators_:    6339, 7207.
                dec_ops_                 pl1_operators_:    1328, 6964, 7389, 7460.
        6205    dec_qhat                 pl1_operators_:    3893, 3914, 3918.
          42    descriptor_ptr           pl1_operators_:     239, 6779, 6875, 6879, 6881, 7448, 7452.
                dexp_                    pl1_operators_:    6307, 7175.
        5545    different_stack          pl1_operators_:    3403, 3407.
                dim_                     pl1_operators_:    6337, 7205.
                dint_                    pl1_operators_:    6347, 7215.
        5674    display_chase            pl1_operators_:    1328, 3567, 3577, 4634, 6964, 7389, 7460.
          40    display_ptr              pl1_operators_:     238, 3544, 3547, 3580, 6875, 6881, 6918, 6920.
        6102    divide1                  pl1_operators_:    3638, 3759, 3810.
        6112    divide2                  pl1_operators_:    3616, 3676, 3787, 3799, 3823.
          10    dividend                 pl1_operators_:     285, 3875, 3876, 3886, 3887, 3891, 3903, 3916, 3924, 3980, 3986,
                                                            3988, 3990, 4048, 4087, 4092, 4096, 4102, 4105, 4116, 4121, 4125.
        6431    divide_extension         pl1_operators_:    3810, 3823, 4061.
          40    divide_extension_size    pl1_operators_:     277, 4014, 4066.
        6042    divide_fx1               pl1_operators_:    1328, 3744, 6964, 7389, 7460.
        6061    divide_fx2               pl1_operators_:    1328, 3773, 6964, 7389, 7460.
        6044    divide_fx3               pl1_operators_:    1328, 3753, 6964, 7389, 7460.
        6063    divide_fx4               pl1_operators_:    1328, 3782, 6964, 7389, 7460.
          30    divide_lp                pl1_operators_:     288, 4011, 4070.
          16    divisor                  pl1_operators_:     286, 3843, 3844, 3856, 3859, 3861, 3868, 3882, 3888, 3898, 3905,
                                                            3910, 3923, 3927, 3942, 3962, 3967, 4039, 4050.
        6144    divisor_3                pl1_operators_:    3833, 3855.
        6071    div_4_cplx_ops           pl1_operators_:    1328, 3794, 6964, 7389, 7460.
        6215    div_less                 pl1_operators_:    3889, 3902.
        6241    div_loop                 pl1_operators_:    3925, 3943.
        6301    div_loop1                pl1_operators_:    3958, 3968.
        6406    div_single               pl1_operators_:    3817, 3831, 4038.
           6    div_temp                 pl1_operators_:     284, 3845, 3846, 3932, 3936, 4082, 4106, 4109, 4110, 4129, 4130.
                dlog10_                  pl1_operators_:    6309, 7177.
                dlog_                    pl1_operators_:    6308, 7176.
                dmod                     pl1_operators_:    1328, 7389.
                dmod_                    pl1_operators_:    6306, 7174.
                dnint_                   pl1_operators_:    6349, 7217.
        6327    done                     pl1_operators_:    3883, 3986.
                double_arc_cosine_degrees_     pl1_operators_:    1328, 7389.
                double_arc_cosine_radians_     pl1_operators_:    1328, 7389.
                double_arc_sine_         pl1_operators_:    1328, 6964, 7389, 7460.
                double_arc_sine_degrees_       pl1_operators_:    1328, 7389.
                double_arc_sine_radians_       pl1_operators_:    1328, 7389.
                double_arc_tangent_      pl1_operators_:    1328, 6964, 7389, 7460.
                double_arc_tan_degrees_  pl1_operators_:    1328, 7389.
                double_arc_tan_degrees_2_      pl1_operators_:    1328, 7389.
                double_arc_tan_radians_  pl1_operators_:    1328, 7389.
                double_arc_tan_radians_2_      pl1_operators_:    1328, 7389.
                double_cosine_degrees_   pl1_operators_:    1328, 7389.
                double_cosine_radians_   pl1_operators_:    1328, 7389.
                double_exponential_      pl1_operators_:    1328, 6964, 7389, 7460.
                double_logarithm_        pl1_operators_:    1328, 6964, 7389, 7460.
                double_log_base_10_      pl1_operators_:    1328, 7389.
                double_log_base_2_       pl1_operators_:    1328, 7389.
                double_log_base_e_       pl1_operators_:    1328, 7389.
                double_power_double_     pl1_operators_:    1328, 7389.
                double_power_integer_    pl1_operators_:    1328, 7389.
                double_power_single_     pl1_operators_:    1328, 7389.
                double_sine_             pl1_operators_:    1328, 6964, 7389, 7460.
                double_sine_degrees_     pl1_operators_:    1328, 7389.
                double_sine_radians_     pl1_operators_:    1328, 7389.
                double_square_root_      pl1_operators_:    1328, 6964, 7389, 7460.
                double_tangent_          pl1_operators_:    1328, 6964, 7389, 7460.
                double_tangent_degrees_  pl1_operators_:    1328, 7389.
                double_tangent_radians_  pl1_operators_:    1328, 7389.
          56    double_temp              pl1_operators_:     247, 1498, 1499, 1607, 1609, 2360, 2367, 2435, 2437, 2444, 2446,
                                                            3428, 3429, 4020, 4026, 5150, 5158, 5212, 5233, 5248, 5249, 5388,
                                                            5421, 6128, 6131, 6529.
                dprod_                   pl1_operators_:    6352, 7220.
                dsign_                   pl1_operators_:    6342, 7210.
                dsinh                    pl1_operators_:    1328, 7389.
                dsinh_                   pl1_operators_:    6331, 7199.
                dsin_                    pl1_operators_:    6312, 7180.
                dsqrt_                   pl1_operators_:    6314, 7182.
                dtanh                    pl1_operators_:    1328, 7389.
                dtanh_                   pl1_operators_:    6329, 7197.
                dtan_                    pl1_operators_:    6323, 7191.
           3    du                       eis_bits:       7.
           5    dummy_entry_offset       long_profile:        39.
                dvcdec                   pl1_operators_:    1328, 6964, 7389, 7460.
        6755    dvcfl1_1                 pl1_operators_:    1328, 4388, 6964, 7389, 7460.
        6756    dvcfl1_2                 pl1_operators_:    1328, 4390, 6964, 7389, 7460.
        7003    dvcfl1_else              pl1_operators_:    4393, 4413.
                dvrcdec                  pl1_operators_:    1328, 6964, 7389, 7460.
        6052    dv_done                  pl1_operators_:    3760, 3788.
       12112    eed                      pl1_operators_:    6779, 6875.
       10271    ef_1                     pl1_operators_:    5391, 5429.
                element                  pl1_operators_:    5652.
       10222    enable_file              pl1_operators_:    1328, 5384, 6964, 7389, 7460.
       10107    enable_op                pl1_operators_:    1328, 5277, 6964, 7389, 7460.
       12510    end_pl1_operators        pl1_operators_:     206, 6946.
       12364    enter_begin_block        pl1_operators_:    1328, 6918, 6964, 7389, 7460.
       11526    enter_BFP_mode           pl1_operators_:    1328, 6427, 6964.
       11532    enter_HFP_mode           pl1_operators_:    1328, 6450, 6468, 6964.
       11554    enter_HFP_mode.entered   pl1_operators_:    6455, 6462, 6470.
        1174    entry_offset             stack_header:        84.
        2473    entry_operators          pl1_operators_:     207, 1328.
       12426    entry_operators_end      pl1_operators_:     208, 6923.
        3631    era_op                   pl1_operators_:    1795, 1892.
           1    error1                   pl1_operators_:    7544.
           5    error_length             pl1_operators_:    6532, 6537.
       11631    error_name               pl1_operators_:    6531, 6535.
        3550    exor_1                   pl1_operators_:    1782, 1786, 1790, 1795.
        3541    exor_bits                pl1_operators_:    1328, 1780, 6964, 7389, 7460.
        3547    exor_bits_aligned        pl1_operators_:    1328, 1792, 6964, 7389, 7460.
        3543    exor_bits_co             pl1_operators_:    1328, 1784, 6964, 7389, 7460.
        3545    exor_bits_ho             pl1_operators_:    1328, 1788, 6964, 7389, 7460.
                exponential_             pl1_operators_:    1328, 6964, 7389, 7460.
                exp_                     pl1_operators_:    6297, 7165.
          61    extend_size              pl1_operators_:     251, 1385, 1431, 1436, 1437.
        3676    ext_and_1                pl1_operators_:    1328, 1958, 6964, 7389, 7460.
        3677    ext_and_2                pl1_operators_:    1328, 1965, 6964, 7389, 7460.
       12054    ext_entry                pl1_operators_:    1328, 6747, 6964.
       12100    ext_entry_desc           pl1_operators_:    1328, 6779, 6964.
                fast_related_data_       pl1_operators_:    6403.
        5117    fbt                      pl1_operators_:    2986, 2990, 2994, 2999.
        5130    fbt_1                    pl1_operators_:    3008, 3019, 3022.
        3451    fetch_bits               pl1_operators_:    1328, 1670, 6964, 7389, 7460.
        3416    fetch_chars              pl1_operators_:    1328, 1617, 6964, 7389, 7460.
        3441    fetch_chars_eis          pl1_operators_:    1328, 1656, 6964, 7389, 7460.
                file_control             pl1_operators_:    5650.
       10306    find_unit                pl1_operators_:    5429, 5447, 5461.
          11    fio_ps.element_count     fortran_ps:    26.
          10    fio_ps.element_desc      fortran_ps:    25.
          12    fio_ps.element_ptr       pl1_operators_:    5787,
                                         fortran_ps:    27.
          10    fio_ps.ele_desc_and_count      pl1_operators_:    5788,
                                               fortran_ps:    24.
           7    fio_ps.file_number       fortran_ps:    23.
           6    fio_ps.job_bits          fortran_ps:    22.
           6    fio_ps.job_bits_and_file       pl1_operators_:    5761,
                                               fortran_ps:    21.
           0    fio_ps.label_addr        pl1_operators_:    5774,
                                         fortran_ps:    18.
           4    fio_ps.label_index_addr  pl1_operators_:    5772,
                                         fortran_ps:    20.
           2    fio_ps.stack_frame_p     pl1_operators_:    5766,
                                         fortran_ps:    19.
        6532    fl2_to_fx1               pl1_operators_:    1328, 4142, 7389.
        6532    fl2_to_fx2               pl1_operators_:    1328, 4143, 7389.
        6542    fl2_to_fxscaled          pl1_operators_:    1328, 4156, 7389.
                floor                    pl1_operators_:    1328, 6964, 7389, 7460.
       12007    floor_ceil_mask          pl1_operators_:    4775, 4777, 4788, 4790, 6656.
        7405    floor_fl                 pl1_operators_:    1328, 4743, 7389.
        7425    floor_fx1                pl1_operators_:    1328, 4766, 6964, 7389, 7460.
        7463    floor_fx2                pl1_operators_:    1328, 4804, 6964, 7389, 7460.
        7574    fl_sign_change           pl1_operators_:    4897, 4900.
        5110    form_bit_table           pl1_operators_:    1328, 2984, 6964, 7389, 7460.
        5116    form_bit_table_al        pl1_operators_:    1328, 2996, 6964, 7389, 7460.
        5112    form_bit_table_co        pl1_operators_:    1328, 2988, 6964, 7389, 7460.
        5114    form_bit_table_ho        pl1_operators_:    1328, 2992, 6964, 7389, 7460.
       10547    fortran_array_xmit       pl1_operators_:    1328, 5782, 6964, 7389, 7460.
       11506    fortran_chain            pl1_operators_:    1328, 6396, 6964, 7389, 7460.
       11455    fortran_end              pl1_operators_:    1328, 6360, 6366, 6964, 7389, 7460.
                fortran_io_              pl1_operators_:    5649, 5650, 5651, 5652, 5659.
       10554    fortran_manip            pl1_operators_:    1328, 5794, 6964, 7389, 7460.
           6    fortran_open_data.access       pl1_operators_:    5858,
                                               fortran_open_data:   12.
           3    fortran_open_data.attach_desc  pl1_operators_:    5852,
                                               fortran_open_data:    9.
          11    fortran_open_data.binary       pl1_operators_:    5874,
                                               fortran_open_data:   15.
          15    fortran_open_data.blank  pl1_operators_:    5862,
                                         fortran_open_data:   19.
          13    fortran_open_data.carriage     pl1_operators_:    5878,
                                               fortran_open_data:   17.
          16    fortran_open_data.char_str     pl1_operators_:    5848, 5850, 5852, 5854, 5856, 5858, 5860, 5862,
                                               fortran_open_data:   20.
          14    fortran_open_data.defer  pl1_operators_:    5880,
                                         fortran_open_data:   18.
           4    fortran_open_data.filename     pl1_operators_:    5854,
                                               fortran_open_data:   10.
           7    fortran_open_data.form   pl1_operators_:    5860,
                                         fortran_open_data:   13.
           2    fortran_open_data.io_switch    pl1_operators_:    5850,
                                               fortran_open_data:    8.
          10    fortran_open_data.max_rec_len  pl1_operators_:    5865,
                                               fortran_open_data:   14.
           5    fortran_open_data.mode   pl1_operators_:    5856,
                                         fortran_open_data:   11.
          12    fortran_open_data.prompt       pl1_operators_:    5876,
                                               fortran_open_data:   16.
           0    fortran_open_data.specified    pl1_operators_:    5833,
                                               fortran_open_data:    6.
           1    fortran_open_data.status       pl1_operators_:    5848,
                                               fortran_open_data:    7.
       11463    fortran_pause            pl1_operators_:    1328, 6369, 6964, 7389, 7460.
                fortran_pause_           pl1_operators_:    6393.
       10511    fortran_read             pl1_operators_:    1328, 5738, 6964, 7389, 7460.
       10547    fortran_scalar_xmit      pl1_operators_:    1328, 5781, 6964, 7389, 7460.
       11465    fortran_stop             pl1_operators_:    1328, 6373, 6964, 7389, 7460.
                fortran_stop_            pl1_operators_:    6366, 6394.
                fortran_storage_         pl1_operators_:    5265.
                fortran_storage_manager_       pl1_operators_:    3438.
       10556    fortran_terminate        pl1_operators_:    1328, 5801, 6964, 7389, 7460.
       10511    fortran_write            pl1_operators_:    1328, 5739, 6964, 7389, 7460.
                fort_bfp_builtins_       pl1_operators_:    6297, 6298, 6299, 6300, 6301, 6302, 6303, 6304, 6305, 6306, 6307,
                                                            6308, 6309, 6310, 6311, 6312, 6313, 6314, 6315, 6316, 6317, 6318,
                                                            6319, 6320, 6321, 6322, 6323, 6324, 6325, 6326, 6327, 6329, 6330,
                                                            6331, 6332, 6333, 6334, 6336, 6337, 6339, 6340, 6342, 6343, 6344,
                                                            6345, 6347, 6348, 6349, 6350, 6351, 6352, 6354.
       10140    fort_cleanup             pl1_operators_:    1328, 5312, 6964, 7389, 7460.
                fort_cleanup_            pl1_operators_:    5338.
       10151    fort_cleanup_1           pl1_operators_:    5323, 5327.
           7    fort_cleanup_length      pl1_operators_:    5341, 5352.
       10200    fort_cleanup_name        pl1_operators_:    5335, 5349.
        6706    fort_dmod                pl1_operators_:    1328, 4312, 7389.
                fort_hfp_builtins_       pl1_operators_:    7165, 7166, 7167, 7168, 7169, 7170, 7171, 7172, 7173, 7174, 7175,
                                                            7176, 7177, 7178, 7179, 7180, 7181, 7182, 7183, 7184, 7185, 7186,
                                                            7187, 7188, 7189, 7190, 7191, 7192, 7193, 7194, 7195, 7197, 7198,
                                                            7199, 7200, 7201, 7202, 7204, 7205, 7207, 7208, 7210, 7211, 7212,
                                                            7213, 7215, 7216, 7217, 7218, 7219, 7220, 7222.
                fort_int_builtins_       pl1_operators_:    6328, 6335, 6338, 6341, 6346, 6353, 6355, 6356, 6357, 6358, 7196,
                                                            7203, 7206, 7209, 7214, 7221, 7223, 7224, 7225, 7226.
       11357    fort_math_names          pl1_operators_:     209, 6292, 6296.
                fort_math_ops_           pl1_operators_:    1328, 6964, 7389, 7460.
        6670    fort_mdfl1               pl1_operators_:    1328, 4292, 7389.
        5557    fort_return_mac          pl1_operators_:    1328, 3427, 6964, 7389, 7460.
       10065    fort_storage             pl1_operators_:    1328, 5247, 6964, 7389, 7460.
        5633    forward_call             pl1_operators_:     211, 3511.
                free                     pl1_operators_:    3438.
                freen_                   pl1_operators_:    6108.
       11134    free_block               pl1_operators_:    1328, 6097, 6964, 7389, 7460.
      400000    fsb.bit_string           plio2_fsb:     57.
           4    fsb.blc                  plio2_fsb:     78.
          10    fsb.bnc                  plio2_fsb:     81.
           6    fsb.bptr                 plio2_fsb:     80.
           5    fsb.bsize                plio2_fsb:     79.
          42    fsb.buffer               plio2_fsb:     92.
       20000    fsb.buffer_in_use        plio2_fsb:     40.
          40    fsb.console              plio2_fsb:     48.
       10000    fsb.copy                 plio2_fsb:     41.
         440    fsb.declared_attributes  plio2_fsb:     94.
       10000    fsb.delete               plio2_fsb:     62.
        4000    fsb.detach               plio2_fsb:     42.
          40    fsb.direct               plio2_fsb:     30.
          20    fsb.emptyline            plio2_fsb:     49.
          20    fsb.filename             plio2_fsb:     89.
          20    fsb.from                 plio2_fsb:     70.
         100    fsb.fsb_in_use           plio2_fsb:     47.
          40    fsb.fsb_thread           plio2_fsb:     91.
          40    fsb.ignore               plio2_fsb:     69.
      200000    fsb.implementation       plio2_fsb:     37.
       10000    fsb.input                plio2_fsb:     23.
          20    fsb.interactive          plio2_fsb:     31.
         400    fsb.internal             plio2_fsb:     45.
         100    fsb.into                 plio2_fsb:     68.
           3    fsb.iocb_p               plio2_fsb:     77.
          10    fsb.iox_close            plio2_fsb:     50.
        2000    fsb.key                  plio2_fsb:     64.
           1    fsb.keyed                plio2_fsb:     35.
         400    fsb.keyfrom              plio2_fsb:     66.
        1000    fsb.keyto                plio2_fsb:     65.
          11    fsb.kol                  plio2_fsb:     82.
          16    fsb.limit                plio2_fsb:     87.
          13    fsb.lineno               plio2_fsb:     84.
          17    fsb.lnzc                 plio2_fsb:     88.
        4000    fsb.locate               plio2_fsb:     63.
           2    fsb.lsep                 plio2_fsb:     76.
          12    fsb.lsize                plio2_fsb:     83.
      400000    fsb.namelist             plio2_fsb:     36.
          10    fsb.nofrom               plio2_fsb:     71.
           4    fsb.nokey                plio2_fsb:     72.
           2    fsb.nokeyfrom            plio2_fsb:     73.
           1    fsb.nolock               plio2_fsb:     74.
           1    fsb.nono                 plio2_fsb:     55.
         400    fsb.notkeyed             plio2_fsb:     27.
          10    fsb.not_used_1           plio2_fsb:     32.
           4    fsb.not_used_2           plio2_fsb:     33.
      200000    fsb.not_used_3           plio2_fsb:     58.
      100000    fsb.not_used_4           plio2_fsb:     38.
        1000    fsb.not_used_5           plio2_fsb:     44.
       40000    fsb.open                 plio2_fsb:     21.
        4000    fsb.output               plio2_fsb:     24.
          15    fsb.pageno               plio2_fsb:     86.
         366    fsb.path_name            plio2_fsb:     93.
       20000    fsb.print                plio2_fsb:     22.
          14    fsb.psize                plio2_fsb:     85.
      100000    fsb.read                 plio2_fsb:     59.
         200    fsb.record               plio2_fsb:     28.
       20000    fsb.rewrite              plio2_fsb:     61.
         100    fsb.sequential           plio2_fsb:     29.
         200    fsb.set                  plio2_fsb:     67.
        1000    fsb.stream               plio2_fsb:     26.
           2    fsb.stringvalue          plio2_fsb:     34.
           0    fsb.switch               plio2_fsb:     17.
        2000    fsb.te_hold              plio2_fsb:     43.
         200    fsb.threaded             plio2_fsb:     46.
          30    fsb.title                plio2_fsb:     90.
       40000    fsb.transmit_error       plio2_fsb:     39.
        2000    fsb.update               plio2_fsb:     25.
      100000    fsb.version_2            plio2_fsb:     20.
       40000    fsb.write                plio2_fsb:     60.
           4    fsb.xxx4                 plio2_fsb:     51.
           2    fsb.xxx5                 plio2_fsb:     52.
           1    fsb.xxx6                 plio2_fsb:     53.
      400000    fsb.zot                  plio2_fsb:     19.
      400000    fsb.zot1                 plio2_fsb:     97.
      200000    fsb.zot2                 plio2_fsb:     98.
         442    fsb_size                 plio2_fsb:     14.
       11025    ftn_get_area_ptr         pl1_operators_:    1328, 5985, 6964, 7389, 7460.
       10761    ftn_inquire_access       pl1_operators_:    5900, 5947.
       10767    ftn_inquire_blank        pl1_operators_:    5907, 5951.
          54    ftn_inquire_data.access  pl1_operators_:    5947,
                                         fortran_inquire_data:      11.
          61    ftn_inquire_data.blank   pl1_operators_:    5951,
                                         fortran_inquire_data:      14.
         100    ftn_inquire_data.direct  pl1_operators_:    5961,
                                         fortran_inquire_data:      24.
          63    ftn_inquire_data.exist   pl1_operators_:    5971,
                                         fortran_inquire_data:      15.
           2    ftn_inquire_data.filename      pl1_operators_:    5933,
                                               fortran_inquire_data:      10.
          56    ftn_inquire_data.form    pl1_operators_:    5949,
                                         fortran_inquire_data:      12.
          73    ftn_inquire_data.formatted     pl1_operators_:    5957,
                                               fortran_inquire_data:      21.
          67    ftn_inquire_data.name    pl1_operators_:    5953,
                                         fortran_inquire_data:      19.
          66    ftn_inquire_data.named   pl1_operators_:    5977,
                                         fortran_inquire_data:      18.
          77    ftn_inquire_data.nextrec       pl1_operators_:    5979,
                                               fortran_inquire_data:      23.
          65    ftn_inquire_data.number  pl1_operators_:    5975,
                                         fortran_inquire_data:      17.
          64    ftn_inquire_data.opened  pl1_operators_:    5973,
                                         fortran_inquire_data:      16.
          60    ftn_inquire_data.recl    pl1_operators_:    5969,
                                         fortran_inquire_data:      13.
          71    ftn_inquire_data.sequential    pl1_operators_:    5955,
                                               fortran_inquire_data:      20.
           0    ftn_inquire_data.specified     pl1_operators_:    5924,
                                               fortran_inquire_data:       8.
          75    ftn_inquire_data.unformatted   pl1_operators_:    5959,
                                               fortran_inquire_data:      22.
           1    ftn_inquire_data.unit    pl1_operators_:    5937,
                                         fortran_inquire_data:       9.
       11006    ftn_inquire_direct       pl1_operators_:    5920, 5961.
       10714    ftn_inquire_element      pl1_operators_:    1328, 5892, 6964, 7389, 7460.
       11013    ftn_inquire_exist        pl1_operators_:    5911, 5971.
       10753    ftn_inquire_filename     pl1_operators_:    5898, 5930.
       10764    ftn_inquire_form         pl1_operators_:    5901, 5949.
       11000    ftn_inquire_formatted    pl1_operators_:    5917, 5957.
       10750    ftn_inquire_indicators   pl1_operators_:    5894, 5923.
       10772    ftn_inquire_name         pl1_operators_:    5915, 5953.
       11021    ftn_inquire_named        pl1_operators_:    5914, 5977.
       11023    ftn_inquire_nextrec      pl1_operators_:    5919, 5979.
       10752    ftn_inquire_noop         pl1_operators_:    5895, 5896, 5897, 5899, 5903, 5904, 5905, 5906, 5909, 5910, 5927.
       11017    ftn_inquire_number       pl1_operators_:    5913, 5975.
       11015    ftn_inquire_opened       pl1_operators_:    5912, 5973.
       11011    ftn_inquire_recl         pl1_operators_:    5902, 5969.
       10775    ftn_inquire_sequential   pl1_operators_:    5916, 5955.
       11003    ftn_inquire_unformatted  pl1_operators_:    5918, 5959.
       10757    ftn_inquire_unit         pl1_operators_:    5908, 5936.
       10652    ftn_open_access          pl1_operators_:    5823, 5858.
       10622    ftn_open_attach_desc     pl1_operators_:    5820, 5852.
       10704    ftn_open_binary          pl1_operators_:    5826, 5874.
       10672    ftn_open_blank           pl1_operators_:    5830, 5862.
       10710    ftn_open_carriage        pl1_operators_:    5828, 5878.
       10712    ftn_open_defer           pl1_operators_:    5829, 5880.
       10561    ftn_open_element         pl1_operators_:    1328, 5815, 6964, 7389, 7460.
       10632    ftn_open_filename        pl1_operators_:    5821, 5854.
       10662    ftn_open_form            pl1_operators_:    5824, 5860.
       10600    ftn_open_indicators      pl1_operators_:    5817, 5832.
       10612    ftn_open_io_switch       pl1_operators_:    5819, 5850.
       10702    ftn_open_max_rec_len     pl1_operators_:    5825, 5864.
       10642    ftn_open_mode            pl1_operators_:    5822, 5856.
       10706    ftn_open_prompt          pl1_operators_:    5827, 5876.
       10602    ftn_open_status          pl1_operators_:    5818, 5848.
       10533    ft_fast_call             pl1_operators_:    5762, 5789, 5804, 5990.
       10531    ft_fast_read_or_write    pl1_operators_:    5743, 5759.
       10550    ft_fast_xmit             pl1_operators_:    5785.
       10512    ft_io                    pl1_operators_:    5742, 5796.
       10517    ft_io1                   pl1_operators_:    5748, 5988.
          34    ft_ps.data_words         fortran_ps:    14.
          27    ft_ps.element_count      fortran_ps:    12.
          26    ft_ps.element_desc       fortran_ps:    11.
          30    ft_ps.element_ptr        fortran_ps:    13.
          26    ft_ps.ele_desc_and_count       fortran_ps:    10.
          24    ft_ps.job_bits           pl1_operators_:    5746,
                                         fortran_ps:     9.
          10    ft_ps.unit               pl1_operators_:    5745,
                                         fortran_ps:     8.
       10312    fu_1                     pl1_operators_:    5467, 5471, 5474.
        2113    fx1_to_fl2               pl1_operators_:    1328.
        2110    fx1_to_fx2               pl1_operators_:    1328.
        2114    fx2_to_fl2               pl1_operators_:    1328.
        3464    gb_0                     pl1_operators_:    1682, 1686, 1690, 1695.
        3466    gb_1                     pl1_operators_:    1674, 1698.
        3430    gc_0                     pl1_operators_:    1628, 1632, 1636, 1641.
        3433    gc_1                     pl1_operators_:    1620, 1645.
        3455    get_bits                 pl1_operators_:    1328, 1680, 6964, 7389, 7460.
        3463    get_bits_aligned         pl1_operators_:    1328, 1692, 6964, 7389, 7460.
        3457    get_bits_co              pl1_operators_:    1328, 1684, 6964, 7389, 7460.
        3461    get_bits_ho              pl1_operators_:    1328, 1688, 6964, 7389, 7460.
        3421    get_chars                pl1_operators_:    1328, 1626, 6964, 7389, 7460.
        3427    get_chars_aligned        pl1_operators_:    1328, 1638, 6964, 7389, 7460.
        3423    get_chars_co             pl1_operators_:    1328, 1630, 6964, 7389, 7460.
        3425    get_chars_ho             pl1_operators_:    1328, 1634, 6964, 7389, 7460.
       10351    get_edit                 pl1_operators_:    1328, 5530, 6964, 7389, 7460.
       10357    get_edit_aligned         pl1_operators_:    1328, 5542, 6964, 7389, 7460.
       10353    get_edit_co              pl1_operators_:    1328, 5534, 6964, 7389, 7460.
                get_edit_eis             pl1_operators_:    1328, 6964, 7389, 7460.
       10355    get_edit_ho              pl1_operators_:    1328, 5538, 6964, 7389, 7460.
                get_io_area_ptr          pl1_operators_:    5659.
       10340    get_list                 pl1_operators_:    1328, 5509, 6964, 7389, 7460.
       10346    get_list_aligned         pl1_operators_:    1328, 5521, 6964, 7389, 7460.
       10342    get_list_co              pl1_operators_:    1328, 5513, 6964, 7389, 7460.
       10336    get_list_eis             pl1_operators_:    1328, 5505, 6964, 7389, 7460.
       10344    get_list_ho              pl1_operators_:    1328, 5517, 6964, 7389, 7460.
       11354    get_math_entry           pl1_operators_:    1328, 6290, 7389.
       11323    get_our_lp               pl1_operators_:     212, 3437, 4646, 5264, 5625, 5754, 6186, 6191, 6236, 6258, 6291,
                                                            6365, 6388, 6402, 6509, 7159.
                get_prep_                pl1_operators_:    5647.
        6176    get_qhat                 pl1_operators_:    3885, 3982.
       10501    get_terminate            pl1_operators_:    1328, 5663, 6964, 7389, 7460.
                get_terminate_           pl1_operators_:    5637.
                get_value_list_          pl1_operators_:    5640.
       10360    ge_1                     pl1_operators_:    5532, 5536, 5540, 5545.
       10347    gl_1                     pl1_operators_:    5511, 5515, 5519, 5524.
        6234    got_qhat                 pl1_operators_:    3899, 3913, 3917, 3919.
        6222    got_rhat                 pl1_operators_:    3901, 3908.
        6466    hard_shift               pl1_operators_:    4084, 4099.
       10161    have_fort_cleanup        pl1_operators_:    5325, 5333.
       10130    have_on                  pl1_operators_:    5289, 5296.
                hcs_                     pl1_operators_:    6513.
       12440    hfp_almost_one           pl1_operators_:    6934, 6977, 7089, 7247, 7279.
                hfp_arc_cosine_degrees_  pl1_operators_:    6964, 7460.
                hfp_arc_cosine_radians_  pl1_operators_:    6964, 7460.
                hfp_arc_sine_degrees_    pl1_operators_:    6964, 7460.
                hfp_arc_sine_radians_    pl1_operators_:    6964, 7460.
                hfp_arc_tangent_degrees_       pl1_operators_:    6964, 7460.
                hfp_arc_tangent_degrees_2_     pl1_operators_:    6964, 7460.
                hfp_arc_tangent_radians_       pl1_operators_:    6964, 7460.
                hfp_arc_tangent_radians_2_     pl1_operators_:    6964, 7460.
       12512    hfp_bitno_to_charno_table      pl1_operators_:    6964.
       14140    hfp_bit_mask             pl1_operators_:    6964.
       14600    hfp_blanks               pl1_operators_:    6964.
                hfp_cabs                 pl1_operators_:    6964, 7460.
                hfp_ccos                 pl1_operators_:    6964, 7460.
       15652    hfp_ceil_fl              pl1_operators_:    6964, 6975, 7460.
                hfp_cexp                 pl1_operators_:    6964, 7460.
                hfp_clog                 pl1_operators_:    6964, 7460.
                hfp_cmpx_p_cmpx          pl1_operators_:    6964, 7460.
                hfp_cosh                 pl1_operators_:    6964, 7460.
                hfp_cosine_degrees_      pl1_operators_:    6964, 7460.
                hfp_cosine_radians_      pl1_operators_:    6964, 7460.
       13776    hfp_co_to_bo             pl1_operators_:    6964.
                hfp_csin                 pl1_operators_:    6964, 7460.
       13756    hfp_csl_vector           pl1_operators_:    6964.
                hfp_csqrt                pl1_operators_:    6964, 7460.
                hfp_dcosh                pl1_operators_:    6964, 7460.
                hfp_dmod                 pl1_operators_:    6964, 7460.
                hfp_double_arc_cosine_degrees_       pl1_operators_:    6964, 7460.
                hfp_double_arc_cosine_radians_       pl1_operators_:    6964, 7460.
                hfp_double_arc_sine_degrees_   pl1_operators_:    6964, 7460.
                hfp_double_arc_sine_radians_   pl1_operators_:    6964, 7460.
                hfp_double_arc_tan_degrees_    pl1_operators_:    6964, 7460.
                hfp_double_arc_tan_degrees_2_  pl1_operators_:    6964, 7460.
                hfp_double_arc_tan_radians_    pl1_operators_:    6964, 7460.
                hfp_double_arc_tan_radians_2_  pl1_operators_:    6964, 7460.
                hfp_double_cosine_degrees_     pl1_operators_:    6964, 7460.
                hfp_double_cosine_radians_     pl1_operators_:    6964, 7460.
                hfp_double_exponential_  pl1_operators_:    6964, 7460.
                hfp_double_log_base_10_  pl1_operators_:    6964, 7460.
                hfp_double_log_base_2_   pl1_operators_:    6964, 7460.
                hfp_double_log_base_e_   pl1_operators_:    6964, 7460.
                hfp_double_power_double_       pl1_operators_:    6964, 7460.
                hfp_double_power_integer_      pl1_operators_:    6964, 7460.
                hfp_double_power_single_       pl1_operators_:    6964, 7460.
                hfp_double_sine_degrees_       pl1_operators_:    6964, 7460.
                hfp_double_sine_radians_       pl1_operators_:    6964, 7460.
                hfp_double_square_root_  pl1_operators_:    6964, 7460.
                hfp_double_tangent_degrees_    pl1_operators_:    6964, 7460.
                hfp_double_tangent_radians_    pl1_operators_:    6964, 7460.
                hfp_dsinh                pl1_operators_:    6964, 7460.
                hfp_dtanh                pl1_operators_:    6964, 7460.
       15205    hfp_entry_operators      pl1_operators_:    6964.
                hfp_exponential_         pl1_operators_:    6964, 7460.
       15664    hfp_fl2_to_fx1           pl1_operators_:    6964, 6997, 7460.
       15664    hfp_fl2_to_fx2           pl1_operators_:    6964, 6998, 7460.
       15675    hfp_fl2_to_fxscaled      pl1_operators_:    6964, 7046, 7460.
       15725    hfp_floor_fl             pl1_operators_:    6964, 7082, 7460.
       15737    hfp_fort_dmod            pl1_operators_:    6964, 7105, 7460.
       16000    hfp_fort_math_names      pl1_operators_:     210, 7160, 7164.
       15756    hfp_fort_mdfl1           pl1_operators_:    6964, 7132, 7460.
       14625    hfp_fx1_to_fl2           pl1_operators_:    6964.
       14622    hfp_fx1_to_fx2           pl1_operators_:    6964.
       14626    hfp_fx2_to_fl2           pl1_operators_:    6964.
       15775    hfp_get_math_entry       pl1_operators_:    6964, 7158, 7460.
       14002    hfp_ho_to_bo             pl1_operators_:    6964.
                hfp_integer_power_double_      pl1_operators_:    6964, 7460.
                hfp_integer_power_single_      pl1_operators_:    6964, 7460.
                hfp_log_base_10_         pl1_operators_:    6964, 7460.
                hfp_log_base_2_          pl1_operators_:    6964, 7460.
                hfp_log_base_e_          pl1_operators_:    6964, 7460.
          10    HFP_mask                 pl1_operators_:     296, 6451, 6458, 7422, 7429.
       14360    hfp_mask_bit             pl1_operators_:    6964.
       14472    hfp_max_single_value     pl1_operators_:    6964.
       16076    hfp_mdfl1                pl1_operators_:    6964, 7237, 7460.
       16116    hfp_mdfl1a               pl1_operators_:    7239, 7255.
       16120    hfp_mdfl2                pl1_operators_:    6964, 7269, 7460.
       16136    hfp_mdfl2a               pl1_operators_:    7272, 7285.
       14703    hfp_mod2_tab             pl1_operators_:    6964.
       14705    hfp_mod4_tab             pl1_operators_:    6964.
       16140    hfp_nearest_integer      pl1_operators_:    6964, 7298, 7460.
       16152    hfp_nearest_whole_number       pl1_operators_:    6964, 7320, 7460.
       14250    hfp_ones                 pl1_operators_:    6964.
       14140    hfp_operator_table       pl1_operators_:     213, 6471, 6964, 7442.
       14711    hfp_op_vector            pl1_operators_:    6964.
       14620    hfp_ptr_mask             pl1_operators_:    6964.
       14632    hfp_reset_stack          pl1_operators_:    6964.
       16165    hfp_rfb1_to_cflb1        pl1_operators_:    7343.
       16167    hfp_rfb2_to_cflb1        pl1_operators_:    6964, 7356, 7460.
       14652    hfp_r_e_as               pl1_operators_:    6964.
       14667    hfp_r_ge_a               pl1_operators_:    6964.
       14664    hfp_r_ge_s               pl1_operators_:    6964.
       14643    hfp_r_g_a                pl1_operators_:    6964.
       14637    hfp_r_g_s                pl1_operators_:    6964.
       14660    hfp_r_le_a               pl1_operators_:    6964.
       14672    hfp_r_le_s               pl1_operators_:    6964.
       14634    hfp_r_l_a                pl1_operators_:    6964.
       14647    hfp_r_l_s                pl1_operators_:    6964.
       14655    hfp_r_ne_as              pl1_operators_:    6964.
       14700    hfp_set_stack            pl1_operators_:    6964.
                hfp_sine_degrees_        pl1_operators_:    6964, 7460.
                hfp_sine_radians_        pl1_operators_:    6964, 7460.
                hfp_single_power_integer_      pl1_operators_:    6964, 7460.
                hfp_single_power_single_       pl1_operators_:    6964, 7460.
                hfp_sinh                 pl1_operators_:    6964, 7460.
                hfp_square_root_         pl1_operators_:    6964, 7460.
       14076    hfp_store_a6_ho          pl1_operators_:    6964.
       14004    hfp_store_a9_co          pl1_operators_:    6964.
       14050    hfp_store_a9_ho          pl1_operators_:    6964.
       14120    hfp_store_q6_ho          pl1_operators_:    6964.
       14030    hfp_store_q9_co          pl1_operators_:    6964.
       14064    hfp_store_q9_ho          pl1_operators_:    6964.
                hfp_tangent_degrees_     pl1_operators_:    6964, 7460.
                hfp_tangent_radians_     pl1_operators_:    6964, 7460.
                hfp_tanh                 pl1_operators_:    6964, 7460.
       12755    hfp_tct_byte_0           pl1_operators_:    6964.
       13155    hfp_tct_byte_1           pl1_operators_:    6964.
       13355    hfp_tct_byte_2           pl1_operators_:    6964.
       13555    hfp_tct_byte_3           pl1_operators_:    6964.
       12745    hfp_tct_octal_040        pl1_operators_:    6964.
       12741    hfp_tct_octal_060        pl1_operators_:    6964.
       14676    hfp_true                 pl1_operators_:    6964.
       16176    hfp_trunc_fl             pl1_operators_:    6964, 7374, 7460.
       13755    hfp_VLA_words_per_seg_   pl1_operators_:    6964.
        1270    ho_to_bo                 pl1_operators_:    1328, 1525, 1553, 1604, 1635, 1689, 1745, 1767, 1789, 1813, 1844,
                                                            1867, 1910, 1936, 2024, 2063, 2096, 2120, 2149, 2177, 2390, 2414,
                                                            2460, 2489, 2515, 2557, 2716, 2761, 2793, 2948, 2993, 3036, 3058,
                                                            3308, 3348, 5493, 5518, 5539, 5583, 5604.
                iabs_                    pl1_operators_:    6335, 7203.
           4    ic                       eis_bits:       8.
          20    id                       eis_bits:       3.
                idim_                    pl1_operators_:    6338, 7206.
                idnint_                  pl1_operators_:    6351, 7219.
                ilr_                     pl1_operators_:    6355, 7223.
                ils_                     pl1_operators_:    6356, 7224.
                index_                   pl1_operators_:    6328, 7196.
        5010    index_after_bs           pl1_operators_:    1328, 2894, 6964, 7389, 7460.
        5041    index_after_bs_1         pl1_operators_:    1328, 2924, 6964, 7389, 7460.
        4720    index_after_cs           pl1_operators_:    1328, 2819, 6964, 7389, 7460.
        5004    index_before_bs          pl1_operators_:    1328, 2888, 6964, 7389, 7460.
        5035    index_before_bs_1        pl1_operators_:    1328, 2918, 6964, 7389, 7460.
        4714    index_before_cs          pl1_operators_:    1328, 2813, 6964, 7389, 7460.
        4611    index_bits               pl1_operators_:    1328, 2707, 6964, 7389, 7460.
        4617    index_bits_aligned       pl1_operators_:    1328, 2719, 6964, 7389, 7460.
        4613    index_bits_co            pl1_operators_:    1328, 2711, 6964, 7389, 7460.
        4606    index_bits_eis           pl1_operators_:    1328, 2702, 6964, 7389, 7460.
        4615    index_bits_ho            pl1_operators_:    1328, 2715, 6964, 7389, 7460.
        4673    index_bs_1               pl1_operators_:    1328, 2784, 6964, 7389, 7460.
        4701    index_bs_1_aligned       pl1_operators_:    1328, 2796, 6964, 7389, 7460.
        4675    index_bs_1_co            pl1_operators_:    1328, 2788, 6964, 7389, 7460.
        4670    index_bs_1_eis           pl1_operators_:    1328, 2779, 6964, 7389, 7460.
        4677    index_bs_1_ho            pl1_operators_:    1328, 2792, 6964, 7389, 7460.
        4453    index_chars              pl1_operators_:    1328, 2548, 6964, 7389, 7460.
        4461    index_chars_aligned      pl1_operators_:    1328, 2560, 6964, 7389, 7460.
        4455    index_chars_co           pl1_operators_:    1328, 2552, 6964, 7389, 7460.
        4464    index_chars_eis          pl1_operators_:    1328, 2568, 6964, 7389, 7460.
        4457    index_chars_ho           pl1_operators_:    1328, 2556, 6964, 7389, 7460.
        4650    index_cs_1               pl1_operators_:    1328, 2752, 6964, 7389, 7460.
        4656    index_cs_1_aligned       pl1_operators_:    1328, 2764, 6964, 7389, 7460.
        4652    index_cs_1_co            pl1_operators_:    1328, 2756, 6964, 7389, 7460.
        4645    index_cs_1_eis           pl1_operators_:    1328, 2748, 6964, 7389, 7460.
        4654    index_cs_1_ho            pl1_operators_:    1328, 2760, 6964, 7389, 7460.
       12070    init_stack_join          pl1_operators_:    6747, 6918, 6920.
       10261    init_unit                pl1_operators_:    5419, 5430.
                integer_power_double_    pl1_operators_:    1328, 7389.
                integer_power_integer_   pl1_operators_:    1328, 6964, 7389, 7460.
                integer_power_single_    pl1_operators_:    1328, 7389.
       12121    int_entry                pl1_operators_:    1328, 6875, 6964, 7389, 7460.
       12137    int_entry_desc           pl1_operators_:    1328, 6875, 6964, 7389, 7460.
          14    invert                   pl1_operators_:    1893, 1998,
                                         eis_bits:      28.
          12    iocb.actual_iocb_ptr     iocbx:         20.
          16    iocb.attach_data_ptr     iocbx:         22.
          14    iocb.attach_descrip_ptr  iocbx:         21.
          36    iocb.close               iocbx:         28.
         132    iocb.close_file          iocbx:         43.
          66    iocb.control             iocbx:         34.
         106    iocb.delete_record       iocbx:         38.
         136    iocb.detach              iocbx:         44.
          26    iocb.detach_iocb         iocbx:         26.
          24    iocb.event_channel       iocbx:         25.
          46    iocb.get_chars           iocbx:         30.
          42    iocb.get_line            iocbx:         29.
         154    iocb.hash_chain_ptr      iocbx:         50.
         142    iocb.ios_compatibility   iocbx:         45.
          56    iocb.modes               iocbx:         32.
           1    iocb.name                iocbx:         19.
          32    iocb.open                iocbx:         27.
          22    iocb.open_data_ptr       iocbx:         24.
          20    iocb.open_descrip_ptr    iocbx:         23.
         126    iocb.open_file           iocbx:         42.
          62    iocb.position            iocbx:         33.
          52    iocb.put_chars           iocbx:         31.
         116    iocb.read_key            iocbx:         40.
         122    iocb.read_length         iocbx:         41.
          72    iocb.read_record         iocbx:         35.
         102    iocb.rewrite_record      iocbx:         37.
         112    iocb.seek_key            iocbx:         39.
         150    iocb.syn_brother         iocbx:         48.
         146    iocb.syn_father          iocbx:         47.
         144    iocb.syn_inhibits        iocbx:         46.
         152    iocb.syn_son             iocbx:         49.
           0    iocb.version             iocbx:         18.
          76    iocb.write_record        iocbx:         36.
         156    iocb_size                iocbx:         15.
       11327    io_signal                pl1_operators_:    1328, 6265, 6964, 7389, 7460.
                irl_                     pl1_operators_:    6357, 7225.
                irs_                     pl1_operators_:    6358, 7226.
                isign_                   pl1_operators_:    6341, 7209.
        4620    ixb                      pl1_operators_:    2709, 2713, 2717, 2722.
        4625    ixb1                     pl1_operators_:    2727, 2808.
        4624    ixb2                     pl1_operators_:    2705, 2726.
        4723    ixba                     pl1_operators_:    2817, 2823.
        5013    ixba_bs                  pl1_operators_:    2892, 2898.
        5014    ixba_bs1                 pl1_operators_:    2899, 2933.
        5044    ixba_bs2                 pl1_operators_:    2922, 2928.
        4743    ixba_bs_fail             pl1_operators_:    2844, 2906.
        5016    ixba_bs_loop             pl1_operators_:    2901, 2912.
        4740    ixba_fail                pl1_operators_:    2831, 2839, 2863, 2868, 2871.
        4750    ixba_long                pl1_operators_:    2825, 2855.
        4752    ixba_loop                pl1_operators_:    2858, 2878.
        4702    ixbs1_a                  pl1_operators_:    2786, 2790, 2794, 2799.
        4706    ixbs1_b                  pl1_operators_:    2782, 2803.
        4627    ixbs_loop                pl1_operators_:    2729, 2740.
        4462    ixc                      pl1_operators_:    2550, 2554, 2558, 2563.
        4473    ixc1                     pl1_operators_:    2576, 2775.
        4464    ixc2                     pl1_operators_:    2569.
        4657    ixcs1_a                  pl1_operators_:    2754, 2758, 2762, 2767.
        4663    ixcs1_b                  pl1_operators_:    2751, 2771.
        4507    ixcs_long                pl1_operators_:    2574, 2595.
        4513    ixcs_loop                pl1_operators_:    2600, 2620.
        4500    ixc_ret_ok               pl1_operators_:    2581, 2653.
        4535    ixc_ret_ok_1             pl1_operators_:    2617, 2623.
        4540    ix_rev_chars             pl1_operators_:    1328, 2631, 6964, 7389, 7460.
        4555    ix_rev_long              pl1_operators_:    2638, 2660.
        4560    ix_rev_loop              pl1_operators_:    2664, 2697.
        4602    ix_rev_more              pl1_operators_:    2682, 2693.
       12442    k71b25                   pl1_operators_:    4318, 4321, 4690, 4694, 6936.
        6417    l1                       pl1_operators_:    4048, 4055.
        6340    l2                       pl1_operators_:    3995, 4057.
        6210    l3h                      pl1_operators_:    3892, 3897.
          70    label_var                pl1_operators_:     265, 3566, 3568, 3569.
        5552    leave_begin_block        pl1_operators_:    1328, 3417, 6964, 7389, 7460.
                len_                     pl1_operators_:    6346, 7214.
          75    lg2                      pl1_operators_:     270, 2205, 2224, 2237, 2596, 2598, 2613, 2661, 2662, 2686, 2727,
                                                            2733, 2735, 2856, 2862, 2870, 2874, 2886, 2899, 2905, 2907, 3068,
                                                            3076, 3087, 3131, 3147.
          44    linkage_ptr              pl1_operators_:     240, 3484, 3504, 5251, 5340, 6747, 6877, 6918, 6920, 7446, 7450.
                logarithm_               pl1_operators_:    1328, 6964, 7389, 7460.
        3614    logical                  pl1_operators_:    1752, 1774, 1796, 1852, 1875.
                log_base_10_             pl1_operators_:    1328, 7389.
                log_base_2_              pl1_operators_:    1328, 7389.
                log_base_e_              pl1_operators_:    1328, 7389.
        3624    log_exit                 pl1_operators_:    1883, 2001, 2109, 2133, 2268, 2280, 2294, 2306, 2961, 2970, 3006,
                                                            3016, 3067, 3085, 3687.
        7636    longbs_to_bs18           pl1_operators_:    1328, 4960, 6964, 7389, 7460.
        7620    longbs_to_fx2            pl1_operators_:    1328, 4940, 6964, 7389, 7460.
        7634    longbs_to_fx2_short      pl1_operators_:    4947, 4953.
       24743    long_profile             pl1_operators_:    1328, 6964, 7389, 7460, 7484.
           1    long_profile_entry.count       pl1_operators_:    7509,
                                               long_profile:        35.
           0    long_profile_entry.map   long_profile:        32.
           3    long_profile_entry.pf    pl1_operators_:    7515,
                                         long_profile:        37.
           0    long_profile_entry.skip  long_profile:        33.
           2    long_profile_entry.vcpu  pl1_operators_:    7512,
                                         long_profile:        36.
           4    long_profile_entry_size  long_profile:        30.
          11    long_profile_header.control    long_profile:        24.
           5    long_profile_header.dummy      long_profile:        22.
           3    long_profile_header.last_offset      pl1_operators_:    7508, 7522,
                                                     long_profile:        20.
           2    long_profile_header.last_pf    pl1_operators_:    7514, 7520,
                                               long_profile:        19.
           0    long_profile_header.last_vcpu  pl1_operators_:    7511, 7518,
                                               long_profile:        18.
           4    long_profile_header.nentries   long_profile:        21.
          15    long_profile_header_size       long_profile:        15.
          74    lv                       pl1_operators_:     268, 4473, 4479, 4480, 4487, 4524, 4530, 4531, 4537, 4538, 4551,
                                                            4617, 4623, 4633, 4635, 4636, 4974, 4976.
        1400    M0.5H                    pl1_operators_:     298, 6985, 7092, 7113, 7140, 7245, 7277, 7305, 7328, 7331, 7383.
        3700    M2.0H                    pl1_operators_:     297, 6983, 7005, 7090, 7115, 7142, 7248, 7280, 7306, 7329, 7381.
        5052    make_bit_table           pl1_operators_:    1328, 2939, 6964, 7389, 7460.
        5060    make_bit_table_al        pl1_operators_:    1328, 2951, 6964, 7389, 7460.
        5054    make_bit_table_co        pl1_operators_:    1328, 2943, 6964, 7389, 7460.
        5056    make_bit_table_ho        pl1_operators_:    1328, 2947, 6964, 7389, 7460.
        5666    make_label_var           pl1_operators_:    1328, 3565, 6964, 7389, 7460.
       10233    make_unit                pl1_operators_:    5395, 5432.
        1646    mask_bit                 pl1_operators_:    1328, 3002, 4029, 4470, 4508, 4520, 4812, 4814, 4824, 4826, 5175, 5201.
       11677    mask_bit_one             pl1_operators_:    1381, 1438, 1488, 1572, 1978, 4656, 5147, 5189, 5396, 6038, 6209,
                                                            6243, 6268, 6494, 6516, 6579, 7487.
        1760    max_single_value         pl1_operators_:    1328, 3830, 3860, 3890.
        5061    mbt                      pl1_operators_:    2941, 2945, 2949, 2954.
        5072    mbt_1                    pl1_operators_:    2963, 2973, 2976.
        3613    mb_1                     pl1_operators_:    1860, 1864, 1868, 1873.
        3642    mc_1                     pl1_operators_:    1903, 1907, 1911, 1916.
        7314    mdfl1                    pl1_operators_:    1328, 4667, 7389.
        7333    mdfl1a                   pl1_operators_:    4668, 4682.
        7335    mdfl2                    pl1_operators_:    1328, 4685, 7389.
        7352    mdfl2a                   pl1_operators_:    4687, 4698.
        5701    mdfx1                    pl1_operators_:    1328, 3587, 6964, 7389, 7460.
        5714    mdfx1a                   pl1_operators_:    3594, 3596, 3598.
        5716    mdfx2                    pl1_operators_:    1328, 3604, 6964, 7389, 7460.
        5742    mdfx3                    pl1_operators_:    1328, 3632, 6964, 7389, 7460.
        5720    mdfx4                    pl1_operators_:    1328, 3610, 6964, 7389, 7460.
        5734    mdfx4a                   pl1_operators_:    3618, 3622, 3640, 3644.
       25020    missing_error            pl1_operators_:    7530, 7533.
          27    missing_error_length     pl1_operators_:    7531, 7535.
                mod                      pl1_operators_:    1328, 6964, 7389, 7460.
        2171    mod2_tab                 pl1_operators_:    1328.
        2173    mod4_tab                 pl1_operators_:    1328.
                mod_                     pl1_operators_:    6353, 7221.
           3    move                     pl1_operators_:    1608, 1698, 1824, 1889, 2078, 2130, 2187, 2248, 2273, 2340, 2524,
                                                            3330, 4944, 4963,
                                         eis_bits:      22.
        3604    move_bits                pl1_operators_:    1328, 1858, 6964, 7389, 7460.
        3612    move_bits_aligned        pl1_operators_:    1328, 1870, 6964, 7389, 7460.
        3606    move_bits_co             pl1_operators_:    1328, 1862, 6964, 7389, 7460.
        3610    move_bits_ho             pl1_operators_:    1328, 1866, 6964, 7389, 7460.
        3633    move_chars               pl1_operators_:    1328, 1901, 6964, 7389, 7460.
        3641    move_chars_aligned       pl1_operators_:    1328, 1913, 6964, 7389, 7460.
        3635    move_chars_co            pl1_operators_:    1328, 1905, 6964, 7389, 7460.
        3637    move_chars_ho            pl1_operators_:    1328, 1909, 6964, 7389, 7460.
        5660    move_label_var           pl1_operators_:    1328, 3553, 6964, 7389, 7460.
        3602    move_not_1               pl1_operators_:    1837, 1841, 1845, 1850.
        3573    move_not_bits            pl1_operators_:    1328, 1835, 6964, 7389, 7460.
        3601    move_not_bits_aligned    pl1_operators_:    1328, 1847, 6964, 7389, 7460.
        3575    move_not_bits_co         pl1_operators_:    1328, 1839, 6964, 7389, 7460.
        3577    move_not_bits_ho         pl1_operators_:    1328, 1843, 6964, 7389, 7460.
                mpcdec                   pl1_operators_:    1328, 6964, 7389, 7460.
        6734    mpcfl1_1                 pl1_operators_:    1328, 4347, 6964, 7389, 7460.
        6735    mpcfl1_2                 pl1_operators_:    1328, 4349, 6964, 7389, 7460.
        7035    mpfx2                    pl1_operators_:    1328, 4455, 6964, 7389, 7460.
        7104    mpfx3                    pl1_operators_:    1328, 4498, 6964, 7389, 7460.
       10037    mpy_overflow_check       pl1_operators_:    1328, 5208, 6964, 7389, 7460.
        7200    mult_overflow            pl1_operators_:    4477, 4486, 4528, 4535, 4548, 4550, 4559.
          16    nand                     eis_bits:      25.
        7607    nearest_integer          pl1_operators_:    1328, 4924, 7389.
        7613    nearest_integer_negative       pl1_operators_:    4925, 4930.
        7602    nearest_whole_negative   pl1_operators_:    4909, 4914.
        7576    nearest_whole_number     pl1_operators_:    1328, 4908, 7389.
                nint_                    pl1_operators_:    6350, 7218.
        5002    nop_adq                  pl1_operators_:    2880, 2884, 2914.
        4746    nop_adq_dl               pl1_operators_:    2833, 2849.
        3626    nop_op                   pl1_operators_:    1873, 1889.
           5    norm_shift               pl1_operators_:     283, 3866, 3993.
        3632    not_op                   pl1_operators_:    1851, 1893.
       12430    null                     pl1_operators_:    6000, 6001, 6017, 6099, 6149, 6171, 6218, 6918, 6920, 6928.
       12435    nullo                    pl1_operators_:    5998, 6014, 6034, 6931.
       12432    nullx                    pl1_operators_:    6032, 6929.
       12434    null_pk                  pl1_operators_:    6016, 6046, 6930.
          74    num                      pl1_operators_:     269, 3205, 3206, 3245, 3247, 4396, 4401, 4406, 4415, 4420, 4425.
       11063    oe                       pl1_operators_:    6034, 6047.
       11065    oe1                      pl1_operators_:    6036, 6053.
       11060    offset_easy              pl1_operators_:    1328, 6029, 6964, 7389, 7460.
       11074    offset_easy_pk           pl1_operators_:    1328, 6044, 6964, 7389, 7460.
       11060    offset_hard              pl1_operators_:    1328, 6030, 6964, 7389, 7460.
       11074    offset_hard_pk           pl1_operators_:    1328, 6045, 6964, 7389, 7460.
       11523    old_sys_name             pl1_operators_:    6399, 6416.
       12436    one                      pl1_operators_:    4867, 6932.
        1536    ones                     pl1_operators_:    1328, 3013, 3180.
       10120    on_1                     pl1_operators_:    5288, 5291.
           2    on_unit.body             pl1_operators_:    5297, 5339, 5426,
                                         on_unit:        5.
           6    on_unit.file             pl1_operators_:    5416,
                                         on_unit:        9.
          10    on_unit.file_copy        pl1_operators_:    5412, 5414, 5415, 5472,
                                         on_unit:       10.
           5    on_unit.flags            pl1_operators_:    5301, 5345, 5422,
                                         on_unit:        8.
           0    on_unit.name             pl1_operators_:    5296, 5336, 5409, 5469,
                                         on_unit:        4.
           5    on_unit.next             pl1_operators_:    5290, 5294, 5326, 5331, 5406, 5467,
                                         on_unit:        7.
           4    on_unit.size             pl1_operators_:    5298, 5299, 5342, 5343, 5417, 5420, 5448,
                                         on_unit:        6.
                open_explicit_           pl1_operators_:    5645.
       10505    open_file                pl1_operators_:    1328, 5675, 6964, 7389, 7460.
        1426    operator_table           pl1_operators_:     214, 1328, 6429, 6747, 6875, 6877, 6881, 7543.
        1426    optbl_abs                pl1_operators_:    7543, 7544.
                op_alloc_                pl1_operators_:    1328, 6964, 7389, 7460.
                op_empty_                pl1_operators_:    1328, 6964, 7389, 7460.
                op_freen_                pl1_operators_:    1328, 6964, 7389, 7460.
                op_storage_              pl1_operators_:    6063.
        2177    op_vector                pl1_operators_:    1328.
           7    or                       pl1_operators_:    1891,
                                         eis_bits:      24.
        3630    ora_op                   pl1_operators_:    1773, 1891.
        3537    or_1                     pl1_operators_:    1760, 1764, 1768, 1773.
        3530    or_bits                  pl1_operators_:    1328, 1758, 6964, 7389, 7460.
        3536    or_bits_aligned          pl1_operators_:    1328, 1770, 6964, 7389, 7460.
        3532    or_bits_co               pl1_operators_:    1328, 1762, 6964, 7389, 7460.
        3534    or_bits_ho               pl1_operators_:    1328, 1766, 6964, 7389, 7460.
          15    overflow_length          pl1_operators_:    4022, 4035, 5215.
        6402    overflow_name            pl1_operators_:    4021, 4032, 5213.
      400000    P0.0H                    pl1_operators_:     299, 6453, 6460, 6964, 6999, 7256, 7358, 7362, 7424, 7431, 7460.
         400    P0.5H                    pl1_operators_:     300, 6964, 6980, 7086, 7117, 7144, 7250, 7282, 7300, 7322, 7325,
                                                            7359, 7378, 7460.
        2040    P1.0H                    pl1_operators_:     301, 6452, 6459, 7423, 7430.
        2100    P2.0H                    pl1_operators_:     302, 6978, 7001, 7084, 7111, 7138, 7243, 7275, 7301, 7323, 7376.
        7663    packed_to_bp             pl1_operators_:    1328, 4995, 6964, 7389, 7460.
       11231    pack_picture             pl1_operators_:    1328, 6190, 6964, 7389, 7460.
                pack_picture_            pl1_operators_:    6192.
        3506    pad_bits                 pl1_operators_:    1328, 1721, 6964, 7389, 7460.
        3474    pad_chars                pl1_operators_:    1328, 1707, 6964, 7389, 7460.
          54    page                     pl1_operators_:     245, 7495, 7496, 7513, 7519.
       11466    pause_stop               pl1_operators_:    6371, 6376.
       11504    pause_stop_names         pl1_operators_:    6389, 6392.
       10334    pd_1                     pl1_operators_:    5486, 5490, 5494, 5499.
       10423    pe_1                     pl1_operators_:    5597, 5601, 5605, 5610.
       11233    picture_common           pl1_operators_:    6188, 6194.
        7646    pk_to_unpk               pl1_operators_:    1328, 4973, 6964, 7389, 7460.
                pl1_signal_from_ops_     pl1_operators_:    6240.
       10424    plio                     pl1_operators_:    5500, 5525, 5546, 5590, 5612.
       10452    plio2                    pl1_operators_:    5629, 5637, 5757.
                plio2_                   pl1_operators_:    5637, 5638, 5639, 5640, 5642, 5643, 5645, 5646, 5647, 5648, 5653, 5658.
                plio2_recio_             pl1_operators_:    5644.
       10432    plio4                    pl1_operators_:     215, 5572, 5619, 5665, 5671, 5677, 5683.
       10376    plio_eis                 pl1_operators_:    5482, 5507, 5567.
       10412    pl_1                     pl1_operators_:    5576, 5580, 5584, 5589.
       11032    pointer_easy             pl1_operators_:    1328, 5996, 6964, 7389, 7460.
       11045    pointer_easy_pk          pl1_operators_:    1328, 6012, 6964, 7389, 7460.
       11032    pointer_hard             pl1_operators_:    1328, 5997, 6964, 7389, 7460.
       11045    pointer_hard_pk          pl1_operators_:    1328, 6013, 6964, 7389, 7460.
       11173    pop_ctl_data             pl1_operators_:    1328, 6146, 6964, 7389, 7460.
       11173    pop_ctl_desc             pl1_operators_:    1328, 6147, 6964, 7389, 7460.
                power_                   pl1_operators_:    1328, 6964, 7389, 7460.
                power_integer_           pl1_operators_:    1328, 6964, 7389, 7460.
        6154    prepare_dividend         pl1_operators_:    3851, 3865.
          12    ps.abret                 plio2_ps:      24.
          12    ps.ab_return             plio2_ps:      22.
          44    ps.auxp                  plio2_ps:      81.
          56    ps.a_stored              plio2_ps:      89.
          20    ps.bit_string            plio2_ps:      43.
          10    ps.char_string           plio2_ps:      44.
         100    ps.copy                  plio2_ps:      41.
          24    ps.copy_file_p           plio2_ps:      27.
       40000    ps.data                  plio2_ps:      33.
      400000    ps.delete                plio2_ps:      48.
          54    ps.descr                 plio2_ps:      85.
          32    ps.descriptor            pl1_operators_:    5569, 5613,
                                         plio2_ps:      64.
       20000    ps.edit                  plio2_ps:      34.
      400000    ps.explicit_file         plio2_ps:      30.
          50    ps.fab2p                 plio2_ps:      83.
          46    ps.fabp                  plio2_ps:      82.
      200000    ps.file                  plio2_ps:      75.
          40    ps.file_p                plio2_ps:      79.
      400000    ps.first_field           plio2_ps:      74.
           6    ps.format_area_p         plio2_ps:      20.
        1000    ps.from                  plio2_ps:      56.
          42    ps.fsbp                  plio2_ps:      80.
        4000    ps.get                   plio2_ps:      36.
        2000    ps.ignore                plio2_ps:      55.
        4000    ps.into                  plio2_ps:      54.
          26    ps.job                   plio2_ps:      28.
      100000    ps.key                   plio2_ps:      50.
       20000    ps.keyfrom               plio2_ps:      52.
       40000    ps.keyto                 plio2_ps:      51.
          33    ps.length                plio2_ps:      65.
         400    ps.line                  plio2_ps:      39.
       10000    ps.list                  plio2_ps:      35.
      200000    ps.locate                plio2_ps:      49.
          36    ps.new_format            plio2_ps:      71.
           4    ps.not_byte_buffer       plio2_ps:      59.
          27    ps.number                plio2_ps:      62.
          34    ps.offset                pl1_operators_:    5570, 5614,
                                         plio2_ps:      68.
          40    ps.p1p2                  plio2_ps:      42.
           1    ps.packed_ptr            plio2_ps:      60.
        1000    ps.page                  plio2_ps:      38.
          35    ps.prep                  plio2_ps:      70.
        2000    ps.put                   plio2_ps:      37.
          56    ps.quick_stream_storage  plio2_ps:      87.
          57    ps.q_stored              plio2_ps:      90.
           4    ps.read                  plio2_ps:      45.
           1    ps.rewrite               plio2_ps:      47.
       40000    ps.semi_sep              plio2_ps:      77.
       10000    ps.set                   plio2_ps:      53.
         200    ps.skip                  plio2_ps:      40.
          20    ps.source_p              plio2_ps:      25.
          22    ps.special_list_p        plio2_ps:      26.
          10    ps.ss_list_p             plio2_ps:      21.
           0    ps.stack_frame_p         plio2_ps:      17.
          55    ps.start_copy            plio2_ps:      86.
      200000    ps.string                plio2_ps:      31.
           4    ps.ST_block_p            plio2_ps:      19.
           2    ps.ST_top_p              plio2_ps:      18.
          37    ps.switch                plio2_ps:      72.
          34    ps.top_half              plio2_ps:      67.
      100000    ps.transmit_error        plio2_ps:      76.
          30    ps.value_p               pl1_operators_:    5571, 5615, 5617,
                                         plio2_ps:      63.
      100000    ps.varying_string        plio2_ps:      32.
          77    ps.version_mask          plio2_ps:      58.
        7700    ps.version_mask_inplace  plio2_ps:      92.
           3    ps.version_shift         plio2_ps:      57.
          52    ps.vp                    plio2_ps:      84.
           2    ps.write                 plio2_ps:      46.
          52    ps_ptr                   pl1_operators_:     244, 5568, 5612, 5619, 5742, 5744, 5748, 5987.
          60    ps_size                  plio2_ps:      14.
        2106    ptr_mask                 pl1_operators_:    1328, 6031, 6100, 6150, 6172.
       11151    push_ctl_data            pl1_operators_:    1328, 6117, 6122, 6964, 7389, 7460.
       11147    push_ctl_desc            pl1_operators_:    1328, 6115, 6964, 7389, 7460.
        1171    push_offset              stack_header:        81.
                put_blanks_              pl1_operators_:    5658.
                put_control              pl1_operators_:    1328, 6964, 7389, 7460.
       10325    put_data                 pl1_operators_:    1328, 5484, 6964, 7389, 7460.
       10333    put_data_aligned         pl1_operators_:    1328, 5496, 6964, 7389, 7460.
       10327    put_data_co              pl1_operators_:    1328, 5488, 6964, 7389, 7460.
       10323    put_data_eis             pl1_operators_:    1328, 5480, 6964, 7389, 7460.
       10331    put_data_ho              pl1_operators_:    1328, 5492, 6964, 7389, 7460.
       10414    put_edit                 pl1_operators_:    1328, 5595, 6964, 7389, 7460.
       10422    put_edit_aligned         pl1_operators_:    1328, 5607, 6964, 7389, 7460.
       10416    put_edit_co              pl1_operators_:    1328, 5599, 6964, 7389, 7460.
                put_edit_eis             pl1_operators_:    1328, 6964, 7389, 7460.
       10420    put_edit_ho              pl1_operators_:    1328, 5603, 6964, 7389, 7460.
                put_field                pl1_operators_:    1328, 6964, 7389, 7460.
                put_field_               pl1_operators_:    1328, 5558, 5560, 5562, 5564, 5653, 6964, 7389, 7460.
                put_field_chk            pl1_operators_:    1328, 6964, 7389, 7460.
                put_field_str            pl1_operators_:    5558, 5560, 5562, 5564.
                put_format_              pl1_operators_:    1328, 6964, 7389, 7460.
       10403    put_list                 pl1_operators_:    1328, 5574, 6964, 7389, 7460.
       10411    put_list_aligned         pl1_operators_:    1328, 5586, 6964, 7389, 7460.
       10405    put_list_co              pl1_operators_:    1328, 5578, 6964, 7389, 7460.
       10362    put_list_eis             pl1_operators_:    1328, 5553, 6964, 7389, 7460.
       10407    put_list_ho              pl1_operators_:    1328, 5582, 6964, 7389, 7460.
                put_prep_                pl1_operators_:    5648.
       10446    put_return               pl1_operators_:     216, 5631.
       10503    put_terminate            pl1_operators_:    1328, 5669, 6964, 7389, 7460.
                put_terminate_           pl1_operators_:    5638.
                put_value_data_          pl1_operators_:    5639.
                put_value_edit_          pl1_operators_:    5643.
                put_value_list_          pl1_operators_:    5642.
           6    q                        pl1_operators_:    2273, 2299, 2665, 2737, 2864, 2875, 2909, 3102, 3135, 3159, 3172,
                                         eis_bits:      11.
           0    qhat                     pl1_operators_:     278, 3894, 3897, 3906, 3909, 3928, 3955, 3977.
           6    ql                       pl1_operators_:    3203, 3209, 3214, 3242, 3250, 3255, 3260,
                                         eis_bits:      12.
          67    qmask                    pl1_operators_:     261, 4012, 4063, 4064.
           2    qu                       eis_bits:       6.
          22    quotient                 pl1_operators_:     287, 3878, 3879, 3880, 3978, 3999, 4000, 4002, 4004, 4007, 4046,
                                                            4047, 4051.
        5451    rba                      pl1_operators_:    3301, 3305, 3309, 3314.
        5475    rca                      pl1_operators_:    3341, 3345, 3349, 3354.
                read_or_write            pl1_operators_:    5649.
        3225    realloc                  pl1_operators_:    1401, 1409, 1421, 1424.
        3207    realloc_bit_temp         pl1_operators_:    1328, 1404, 6964, 7389, 7460.
        3217    realloc_char_temp        pl1_operators_:    1328, 1416, 6964, 7389, 7460.
                real_to_real_round_      pl1_operators_:    1328, 6964, 7389, 7460.
                real_to_real_truncate_   pl1_operators_:    1328, 6964, 7389, 7460.
                record_io                pl1_operators_:    1328, 6964, 7389, 7460.
                record_io_               pl1_operators_:    1328, 6964, 7389, 7460.
          56    remainder                pl1_operators_:     249, 3619, 3622, 3625, 3641, 3679, 3682, 3686, 3998.
        4103    repeat                   pl1_operators_:    1328, 2195, 6964, 7389, 7460.
        4143    repeat_bs                pl1_operators_:    2202, 2234.
        4157    repeat_bs_loop           pl1_operators_:    2247, 2253.
        4126    repeat_cs_loop           pl1_operators_:    2215, 2221.
        4134    repeat_exit              pl1_operators_:    2212, 2214, 2222, 2244, 2246, 2254.
        2120    reset_stack              pl1_operators_:    1328.
        3274    restore_stack_quick      pl1_operators_:    1328, 1481, 6964, 7389, 7460.
        5442    return_bits              pl1_operators_:    1328, 3299, 6964, 7389, 7460.
        5450    return_bits_al           pl1_operators_:    1328, 3311, 6964, 7389, 7460.
        5444    return_bits_co           pl1_operators_:    1328, 3303, 6964, 7389, 7460.
        5453    return_bits_eis          pl1_operators_:    1328, 3317, 6964, 7389, 7460.
        5446    return_bits_ho           pl1_operators_:    1328, 3307, 6964, 7389, 7460.
        5466    return_chars             pl1_operators_:    1328, 3339, 6964, 7389, 7460.
        5474    return_chars_aligned     pl1_operators_:    1328, 3351, 6964, 7389, 7460.
        5470    return_chars_co          pl1_operators_:    1328, 3343, 6964, 7389, 7460.
        5477    return_chars_eis         pl1_operators_:    1328, 3357, 6964, 7389, 7460.
        5472    return_chars_ho          pl1_operators_:    1328, 3347, 6964, 7389, 7460.
        5600    return_mac               pl1_operators_:    1328, 3435, 3444, 3455, 4220, 4236, 6964, 7389, 7460.
        6610    return_main              pl1_operators_:    1328, 4217, 4226, 6964, 7389, 7460.
        1173    return_no_pop_offset     stack_header:        83.
        1172    return_offset            stack_header:        82.
        5506    return_pop               pl1_operators_:    3271, 3322, 3362, 3370.
        5422    return_words             pl1_operators_:    1328, 3270, 6964, 7389, 7460.
        4166    reverse_bs               pl1_operators_:    1328, 2258, 6964, 7389, 7460.
        4210    reverse_bs_exit          pl1_operators_:    2272, 2278.
        4201    reverse_bs_loop          pl1_operators_:    2270, 2277.
        4212    reverse_cs               pl1_operators_:    1328, 2284, 6964, 7389, 7460.
        4234    reverse_cs_exit          pl1_operators_:    2298, 2304.
        4225    reverse_cs_loop          pl1_operators_:    2296, 2303.
       10275    revert_file              pl1_operators_:    1328, 5440, 6964, 7389, 7460.
        5265    rev_search_done          pl1_operators_:    3143, 3144, 3145.
        5263    rev_ttf_ttn              pl1_operators_:    3139, 3142.
        6724    rfb1_to_cflb1            pl1_operators_:    1328, 4330, 6964, 7389, 7460.
        6726    rfb2_to_cflb1            pl1_operators_:    1328, 4334, 7389.
           1    rhat                     pl1_operators_:     279, 3896, 3900, 3907, 3912.
        6522    right_shift              pl1_operators_:    4081, 4128.
          40    rl                       pl1_operators_:    1608, 1645, 1659, 1698, 1713, 1824, 1889, 1890, 1891, 1892, 1893,
                                                            1921, 1948, 1984, 1998, 2039, 2078, 2106, 2130, 2160, 2187, 2216,
                                                            2248, 2321, 2340, 2399, 2422, 2473, 2499, 2524, 2538, 2576, 2602,
                                                            2614, 2665, 2679, 2737, 2827, 2864, 2875, 2909, 3102, 3135, 3159,
                                                            3172, 3242, 3280, 3330, 4439,
                                         eis_bits:       2.
           1    round                    eis_bits:      30.
        7553    round_fl                 pl1_operators_:    1328, 4881, 6964, 7389, 7460.
        7515    round_fx1                pl1_operators_:    1328, 4837, 6964, 7389, 7460.
        7520    round_fx1a               pl1_operators_:    4841, 4856.
        7532    round_fx1b               pl1_operators_:    4839, 4852.
        7536    round_fx2                pl1_operators_:    1328, 4861, 6964, 7389, 7460.
        7541    round_fx2a               pl1_operators_:    4865, 4876.
        7550    round_fx2b               pl1_operators_:    4863, 4873.
        1400    rpd_bits                 pl1_operators_:     290, 5009, 5022, 5035, 5048.
        7717    rpd_even_bp_lp           pl1_operators_:    1328, 5046, 6964, 7389, 7460.
        7707    rpd_even_lp_bp           pl1_operators_:    1328, 5033, 6964, 7389, 7460.
        7677    rpd_odd_bp_lp            pl1_operators_:    1328, 5020, 6964, 7389, 7460.
        7667    rpd_odd_lp_bp            pl1_operators_:    1328, 5007, 6964, 7389, 7460.
        5423    rw_0                     pl1_operators_:    3278, 3364.
        5430    rw_1                     pl1_operators_:    3279, 3283, 3329, 3333.
        2140    r_e_as                   pl1_operators_:    1328.
        2155    r_ge_a                   pl1_operators_:    1328.
        2152    r_ge_s                   pl1_operators_:    1328.
        2131    r_g_a                    pl1_operators_:    1328.
        2125    r_g_s                    pl1_operators_:    1328.
        2146    r_le_a                   pl1_operators_:    1328.
        2160    r_le_s                   pl1_operators_:    1328.
        2122    r_l_a                    pl1_operators_:    1328.
        2135    r_l_s                    pl1_operators_:    1328.
        2143    r_ne_as                  pl1_operators_:    1328.
        5543    same_stack               pl1_operators_:    3394, 3404.
        5617    save_display             pl1_operators_:    3481, 3546.
       12066    save_link                pl1_operators_:    6747, 6779, 6875.
          70    save_regs                pl1_operators_:     263, 3610, 3614, 3623, 3632, 3636, 3660, 3675, 3685, 3711, 3731,
                                                            3754, 3756, 3761, 3762, 3783, 3785, 3795, 3796, 3800, 3801, 4560,
                                                            4563, 4977, 4978.
        3270    save_stack_quick         pl1_operators_:    1328, 1471, 6964, 7389, 7460.
        3304    save_string              pl1_operators_:    1328, 1497, 6964, 7389, 7460.
          70    save_x01                 pl1_operators_:     264, 1424, 1428, 1443.
        3351    sba                      pl1_operators_:    1546, 1550, 1554, 1559.
        3330    sca                      pl1_operators_:    1518, 1522, 1526, 1530.
        3332    sca1                     pl1_operators_:    1533, 1561.
        6027    scaled_mod_fx1           pl1_operators_:    1328, 3721, 6964, 7389, 7460.
        5757    scaled_mod_fx2           pl1_operators_:    1328, 3650, 6964, 7389, 7460.
        6031    scaled_mod_fx3           pl1_operators_:    1328, 3729, 6964, 7389, 7460.
        5761    scaled_mod_fx4           pl1_operators_:    1328, 3658, 6964, 7389, 7460.
        5773    scmd1                    pl1_operators_:    3675, 3704.
        6003    scmd2                    pl1_operators_:    3678, 3680, 3683.
        6010    scmd3                    pl1_operators_:    3670, 3695.
        6022    scmd4                    pl1_operators_:    3700, 3711.
        5766    sc_mod_common            pl1_operators_:    3665, 3738.
        5241    search_done              pl1_operators_:    3112, 3117, 3118, 3158, 3163, 3588.
        5223    search_eis               pl1_operators_:    1328, 3095, 3122, 6964, 7389, 7460.
        5237    search_fail              pl1_operators_:    3101, 3109, 3134.
        5226    search_loop              pl1_operators_:    3099, 3108.
        5251    search_rev_chars         pl1_operators_:    1328, 3129, 6964, 7389, 7460.
        5253    search_rev_loop          pl1_operators_:    3132, 3140.
        3342    set_bits                 pl1_operators_:    1328, 1544, 6964, 7389, 7460.
        3350    set_bits_aligned         pl1_operators_:    1328, 1556, 6964, 7389, 7460.
        3344    set_bits_co              pl1_operators_:    1328, 1548, 6964, 7389, 7460.
        3336    set_bits_eis             pl1_operators_:    1328, 1538, 6964, 7389, 7460.
        3346    set_bits_ho              pl1_operators_:    1328, 1552, 6964, 7389, 7460.
        3321    set_chars                pl1_operators_:    1328, 1516, 6964, 7389, 7460.
        3327    set_chars_aligned        pl1_operators_:    1328, 1528, 6964, 7389, 7460.
        3323    set_chars_co             pl1_operators_:    1328, 1520, 6964, 7389, 7460.
        3315    set_chars_eis            pl1_operators_:    1328, 1510, 6964, 7389, 7460.
        3325    set_chars_ho             pl1_operators_:    1328, 1524, 6964, 7389, 7460.
       12133    set_display              pl1_operators_:    6875.
                set_hexfp_control        pl1_operators_:    6513.
        6626    set_main_flag            pl1_operators_:    1328, 4241, 6964, 7389, 7460.
        2166    set_stack                pl1_operators_:    1328.
        3276    set_stack_extend         pl1_operators_:    1328, 1487, 6964, 7389, 7460.
       11351    set_support              pl1_operators_:    1328, 6285, 6964, 7389, 7460.
           4    shift                    pl1_operators_:     282, 3811, 3824, 3867, 4080.
       12444    shift_bo                 pl1_operators_:    1328, 1534, 5616, 6938, 6964, 7389, 7460.
        6443    shift_dividend           pl1_operators_:    3873, 4044, 4079.
        3254    shorten_stack            pl1_operators_:    1328, 1448, 6964, 7389, 7460.
        3261    shorten_stack_protect_ind      pl1_operators_:    1328, 1458, 6964, 7389, 7460.
                sign                     pl1_operators_:    1328, 6964, 7389, 7460.
       11261    signal_common            pl1_operators_:    6220, 6281.
       25015    signal_error_missing     pl1_operators_:    5641, 5654, 5655, 5656, 5657, 7529.
       10202    signal_op                pl1_operators_:    1328, 5358, 6964, 7389, 7460, 7532.
        6367    signal_overflow          pl1_operators_:    3714, 4001, 4006, 4019, 4561.
       10050    signal_size              pl1_operators_:    1328, 5221, 6964, 7389, 7460.
        7775    signal_size_condition    pl1_operators_:    4952, 5149, 5176, 5188, 5191, 5200, 5203, 5223.
        7247    signal_stringrange       pl1_operators_:    1328, 4611, 6964, 7389, 7460.
       10053    signal_stringsize        pl1_operators_:    1328, 5231, 6964, 7389, 7460.
                sign_                    pl1_operators_:    6340, 7208.
        6530    sign_change              pl1_operators_:    4010, 4136, 4871.
        6642    sign_mac                 pl1_operators_:    1328, 4258, 6964, 7389, 7460.
                sine_                    pl1_operators_:    1328, 6964, 7389, 7460.
                sine_degrees_            pl1_operators_:    1328, 7389.
                sine_radians_            pl1_operators_:    1328, 7389.
       11743    single_bit               pl1_operators_:    2967, 3012, 6617.
                single_power_integer_    pl1_operators_:    1328, 7389.
                single_power_single_     pl1_operators_:    1328, 7389.
                sinh                     pl1_operators_:    1328, 7389.
                sinh_                    pl1_operators_:    6330, 7198.
                sin_                     pl1_operators_:    6302, 7170.
        7771    size_check_fx1           pl1_operators_:    1328, 5144, 6964, 7389, 7460.
       10013    size_check_fx2           pl1_operators_:    1328, 5170, 6964, 7389, 7460.
       10023    size_check_uns_fx1       pl1_operators_:    1328, 5185, 6964, 7389, 7460.
       10031    size_check_uns_fx2       pl1_operators_:    1328, 5197, 6964, 7389, 7460.
           4    size_length              pl1_operators_:    5153, 5227.
       10052    size_name                pl1_operators_:    5151, 5225.
       10010    size_ok_fx1              pl1_operators_:    5148, 5161, 5190.
       10021    size_ok_fx2              pl1_operators_:    5177, 5202, 5211.
        6503    sl                       pl1_operators_:    4108, 4112, 4113.
        6450    split                    pl1_operators_:    4085, 4132.
                sqrt_                    pl1_operators_:    6305, 7173.
                square_root_             pl1_operators_:    1328, 6964, 7389, 7460.
        7244    sr_2                     pl1_operators_:    4579, 4581, 4607.
        7232    sr_3                     pl1_operators_:    4583, 4586, 4590, 4596.
        7205    sr_check                 pl1_operators_:    1328, 4573, 6964, 7389, 7460.
       10002    ssc                      pl1_operators_:    5155, 5217, 5238, 6534.
        3410    ss_0                     pl1_operators_:    1587, 1596, 1606.
       12255    ss_eed                   pl1_operators_:    6879, 6881.
       12404    ss_enter_begin_block     pl1_operators_:    1328, 6920, 6964, 7389, 7460.
       12214    ss_ext_entry             pl1_operators_:    1328, 6877, 6964.
       12242    ss_ext_entry_desc        pl1_operators_:    1328, 6879, 6964.
       12232    ss_init_stack_join       pl1_operators_:    6877.
       12264    ss_int_entry             pl1_operators_:    1328, 6881, 6964, 7389, 7460.
       12303    ss_int_entry_desc        pl1_operators_:    1328, 6881, 6964, 7389, 7460.
       12227    ss_save_link             pl1_operators_:    6877, 6879, 6881.
       12277    ss_set_display           pl1_operators_:    6881.
       12323    ss_val_entry             pl1_operators_:    1328, 6881, 6964, 7389, 7460.
       12321    ss_val_entry_desc        pl1_operators_:    1328, 6881, 6964, 7389, 7460.
          73    stach_header.trace_top_ptr     stack_header:        62.
          32    stack_frame.arg_ptr      pl1_operators_:    3378, 5109, 6747, 6779, 6875, 6877, 6879, 6881, 6918, 6920, 7446,
                                                            7448, 7450, 7452,
                                         stack_frame:   16.
         100    stack_frame.condition_bit      stack_frame:   32.
          20    stack_frame.condition_word     pl1_operators_:    5390, 5393, 5442,
                                               stack_frame:    9.
        2000    stack_frame.crawl_out_bit      stack_frame:   28.
          26    stack_frame.entry_ptr    pl1_operators_:    5119, 6747, 6877, 6918, 6920, 7446, 7450, 7466,
                                         stack_frame:   13.
          20    stack_frame.flag_word    pl1_operators_:    4218, 4234, 4249, 4253, 6287,
                                         stack_frame:   24.
         400    stack_frame.link_trap_bit      stack_frame:   30.
          30    stack_frame.lp_ptr       pl1_operators_:    5102, 5110,
                                         stack_frame:   15.
       20000    stack_frame.main_proc_bit      pl1_operators_:    4219, 4235, 4248, 4252,
                                               stack_frame:   25.
          60    stack_frame.min_length   stack_frame:   23.
          22    stack_frame.next_sp      pl1_operators_:    1328, 1386, 1387, 1440, 1441, 1451, 1462, 1473, 1489, 3288, 3386,
                                                            3400, 3405, 3406, 4013, 4015, 4067, 4069, 4659, 5114, 5399, 5400,
                                                            5767, 5768, 5770, 6212, 6213, 6241, 6244, 6246, 6272, 6273, 6497,
                                                            6498, 6514, 6518, 6747, 6779, 6875, 6877, 6879, 6881, 6918, 6920,
                                                            6964, 7389, 7446, 7448, 7450, 7452, 7460,
                                         stack_frame:   10.
          36    stack_frame.on_unit_rel_ptrs   pl1_operators_:    5283, 5286, 5293, 5295, 5318, 5321, 5330, 5332, 5392, 5405,
                                                                  5407, 5464,
                                               stack_frame:   19.
          30    stack_frame.operator_ptr       pl1_operators_:    1648, 1662, 1701, 1716, 1827, 1884, 1924, 1951, 2042, 2081,
                                                                  2163, 2228, 2325, 2344, 2402, 2425, 2541, 2584, 2590, 2625,
                                                                  2691, 2742, 2834, 2841, 2846, 2881, 2915, 3086, 3220, 3290,
                                                                  3462, 3626, 3765, 3802, 4442, 5127, 5133, 5634, 6251, 6430,
                                                                  6472, 6523, 6747, 6875, 6877, 6881, 7401, 7443, 7446, 7450,
                                               stack_frame:   14.
          37    stack_frame.operator_ret_ptr   pl1_operators_:    2359, 2366, 4024, 4027, 4028, 4574, 4592, 4593, 4612, 5008,
                                                                  5021, 5034, 5047, 5155, 5159, 5160, 5278, 5302, 5313, 5346,
                                                                  5359, 5367, 5385, 5423, 5424, 5444, 6069, 6102, 6125, 6152,
                                                                  6195, 6228, 6269, 6747, 6877, 7446, 7450,
                                               stack_frame:   20.
          20    stack_frame.prev_sp      pl1_operators_:    3374, 3383, 3422, 3448, 3459, 4230, 5108, 5124, 5281, 5284, 5316,
                                                            5319, 6747, 6779, 6875, 6877, 6879, 6881, 6918, 6920, 7446, 7448,
                                                            7450, 7452,
                                         stack_frame:    8.
          40    stack_frame.regs         stack_frame:   22.
          24    stack_frame.return_ptr   pl1_operators_:    3291, 3292, 3436, 3463, 3464, 3474, 3478, 3498, 3502, 3522, 3526,
                                                            3539, 3543, 4198, 4199, 4211, 5100, 5101, 5128, 5129, 5134, 5135,
                                                            5262, 5263, 5627, 5628, 5633, 5755, 5756, 5763, 5764, 6087, 6088,
                                                            6092, 6238, 6239, 6250, 6386, 6387, 6412, 6413, 6511, 6512, 6522,
                                                            6747, 6875, 6877, 6881, 7446, 7450, 7491, 7500,
                                         stack_frame:   12.
       10000    stack_frame.run_unit_manager   stack_frame:   26.
        1000    stack_frame.signaller_bit      stack_frame:   29.
          22    stack_frame.signaller_word     stack_frame:   11.
        4000    stack_frame.signal_bit   stack_frame:   27.
          34    stack_frame.static_ptr   pl1_operators_:    5119, 6877, 6920, 7450, 7466,
                                         stack_frame:   17.
         200    stack_frame.support_bit  pl1_operators_:    6286,
                                         stack_frame:   31.
          35    stack_frame.support_ptr  pl1_operators_:    5760, 5786, 5803, 5989,
                                         stack_frame:   18.
          37    stack_frame.translator_id      pl1_operators_:    5116,
                                               stack_frame:   21.
          66    stack_header.assign_linkage_ptr      stack_header:        59.
          32    stack_header.bar_mode_sp       stack_header:        42.
          36    stack_header.call_op_ptr       stack_header:        44.
          10    stack_header.clr_ptr     stack_header:        27.
           6    stack_header.combined_stat_ptr       stack_header:        25.
           4    stack_header.cpm_data_ptr      stack_header:        24.
          13    stack_header.cpm_enabled       stack_header:        32.
          13    stack_header.cur_lot_size      stack_header:        31.
          64    stack_header.ect_ptr     stack_header:        58.
          46    stack_header.entry_op_ptr      stack_header:        49.
          70    stack_header.heap_header_ptr   stack_header:        60.
          74    stack_header.in_trace    stack_header:        63.
          52    stack_header.isot_ptr    pl1_operators_:    5119, 6877, 6879, 6881, 7450, 7452, 7466, 7505,
                                         stack_header:        52.
          26    stack_header.lot_ptr     pl1_operators_:    4188, 4197, 4210, 5119, 5337, 6259, 6747, 6779, 6875, 6877, 6879,
                                                            6881, 7446, 7448, 7450, 7452, 7466, 7490,
                                         stack_header:        39.
          12    stack_header.main_proc_invoked       pl1_operators_:    4243, 4247,
                                                     stack_header:        29.
          12    stack_header.max_lot_size      stack_header:        28.
          20    stack_header.parent_ptr  stack_header:        36.
          34    stack_header.pl1_operators_ptr       stack_header:        43.
          40    stack_header.push_op_ptr       stack_header:        46.
          42    stack_header.return_op_ptr     stack_header:        47.
          44    stack_header.ret_no_pop_op_ptr       stack_header:        48.
          62    stack_header.rnt_ptr     stack_header:        57.
          12    stack_header.run_unit_depth    stack_header:        30.
          54    stack_header.sct_ptr     stack_header:        53.
          30    stack_header.signal_ptr  stack_header:        41.
          22    stack_header.stack_begin_ptr   stack_header:        37.
          24    stack_header.stack_end_ptr     pl1_operators_:    1382, 1388, 1442, 1452, 1463, 1490, 3289, 3402, 3421, 3447,
                                                                  3458, 4016, 4065, 4068, 4229, 4660, 5106, 5107, 5113, 5119,
                                                                  5123, 5397, 5401, 6210, 6214, 6247, 6270, 6274, 6495, 6499,
                                                                  6519, 6747, 6779, 6875, 6877, 6879, 6881, 6918, 6920, 7446,
                                                                  7448, 7450, 7452, 7466, 7488, 7524,
                                               stack_header:        38.
          14    stack_header.system_free_ptr   stack_header:        33.
          60    stack_header.sys_link_info_ptr       stack_header:        56.
          72    stack_header.trace_frames      stack_header:        61.
          50    stack_header.trans_op_tv_ptr   stack_header:        51.
          56    stack_header.unwinder_ptr      stack_header:        54.
          16    stack_header.user_free_ptr     pl1_operators_:    6062, 6078,
                                               stack_header:        34.
         100    stack_header_end         stack_header:        64.
        6557    stacq_mac                pl1_operators_:    1328, 4178, 6964, 7389, 7460.
        6553    stac_mac                 pl1_operators_:    1328, 4170, 6964, 7389, 7460.
        6577    stop                     pl1_operators_:    1328, 4205, 4221, 4237, 6964, 7389, 7460.
                stop_run                 pl1_operators_:    4212.
                storage_                 pl1_operators_:    6081.
        1364    store_a6_ho              pl1_operators_:    1328.
        1272    store_a9_co              pl1_operators_:    1328.
        1336    store_a9_ho              pl1_operators_:    1328.
        6321    store_q                  pl1_operators_:    3953, 3976.
        1406    store_q6_ho              pl1_operators_:    1328.
        1316    store_q9_co              pl1_operators_:    1328.
        1352    store_q9_ho              pl1_operators_:    1328.
        3354    store_string             pl1_operators_:    1328, 1567, 6964, 7389, 7460.
                stream_prep              pl1_operators_:    1328, 6964, 7389, 7460.
        7262    strg                     pl1_operators_:    4619, 4625.
          12    stringsize_length        pl1_operators_:    2363, 5236, 5242.
       10062    stringsize_name          pl1_operators_:    2362, 5235, 5240.
        7251    string_signal            pl1_operators_:    4596, 4607, 4615.
        3371    string_store             pl1_operators_:    1328, 1585, 6964, 7389, 7460.
        3373    string_store_co          pl1_operators_:    1328, 1589, 6964, 7389, 7460.
        3402    string_store_ho          pl1_operators_:    1328, 1598, 6964, 7389, 7460.
       10216    subrg                    pl1_operators_:    5370, 5375.
        4254    suffix_bs                pl1_operators_:    1328, 2330, 6964, 7389, 7460.
        4260    suffix_bs_1              pl1_operators_:    2335, 2375, 2376.
        4312    suffix_bs_ck             pl1_operators_:    1328, 2371, 6964, 7389, 7460.
        4236    suffix_cs                pl1_operators_:    1328, 2311, 6964, 7389, 7460.
        4242    suffix_cs_1              pl1_operators_:    2316, 2355, 2356.
        4272    suffix_cs_ck             pl1_operators_:    1328, 2351, 6964, 7389, 7460.
        4277    suffix_error             pl1_operators_:    2358, 2377.
                sys_info                 pl1_operators_:    4189.
          64    t1                       pl1_operators_:     256, 4509, 4532, 4540.
          66    t2                       pl1_operators_:     260, 2599, 2618, 4510, 4523, 4526, 4546.
          63    t3                       pl1_operators_:     254, 4521, 4525, 4539.
          77    t4                       pl1_operators_:     272, 3105, 3138, 3162, 3175, 4522, 4533, 4543.
          65    t5                       pl1_operators_:     258, 4471, 4474.
                tangent_                 pl1_operators_:    1328, 6964, 7389, 7460.
                tangent_degrees_         pl1_operators_:    1328, 7389.
                tangent_radians_         pl1_operators_:    1328, 7389.
                tanh                     pl1_operators_:    1328, 7389.
                tanh_                    pl1_operators_:    6304, 7172.
                tan_                     pl1_operators_:    6322, 7190.
          46    tbp                      pl1_operators_:     242, 1328, 1361, 1402, 1422, 1454, 1466, 1475, 1483, 1491, 1506,
                                                            1514, 1536, 1542, 1580, 1611, 1650, 1664, 1703, 1710, 1717, 1724,
                                                            1730, 1821, 1828, 1877, 1885, 1919, 1925, 1946, 1952, 1981, 1988,
                                                            1996, 2034, 2043, 2073, 2082, 2166, 2229, 2313, 2318, 2326, 2332,
                                                            2337, 2345, 2403, 2426, 2476, 2496, 2502, 2522, 2527, 2537, 2542,
                                                            2585, 2591, 2626, 2692, 2704, 2723, 2743, 2750, 2768, 2781, 2800,
                                                            2815, 2821, 2835, 2842, 2847, 2882, 2890, 2896, 2916, 2920, 2926,
                                                            3063, 3090, 3111, 3114, 3149, 3169, 3183, 3221, 3423, 3559, 3571,
                                                            3599, 3627, 3667, 3758, 3767, 3786, 3803, 4147, 4151, 4159, 4161,
                                                            4163, 4173, 4182, 4191, 4250, 4254, 4258, 4261, 4263, 4275, 4286,
                                                            4288, 4294, 4306, 4314, 4326, 4340, 4364, 4411, 4429, 4437, 4443,
                                                            4491, 4493, 4555, 4557, 4565, 4594, 4662, 4681, 4683, 4699, 4706,
                                                            4710, 4718, 4724, 4732, 4736, 4746, 4751, 4757, 4761, 4770, 4781,
                                                            4792, 4798, 4808, 4817, 4828, 4832, 4848, 4851, 4872, 4883, 4912,
                                                            4919, 4928, 4935, 4955, 4968, 4980, 4991, 4998, 5164, 5179, 5253,
                                                            5279, 5314, 5387, 5425, 5443, 5446, 5632, 5635, 5834, 5848, 5850,
                                                            5852, 5854, 5856, 5858, 5860, 5862, 5866, 5874, 5876, 5878, 5880,
                                                            5925, 5928, 5934, 5938, 5947, 5949, 5951, 5953, 5955, 5957, 5959,
                                                            5961, 5969, 5971, 5973, 5975, 5977, 5979, 6002, 6008, 6018, 6035,
                                                            6042, 6091, 6101, 6151, 6180, 6230, 6249, 6288, 6293, 6431, 6473,
                                                            6521, 6964, 6981, 6986, 7003, 7008, 7048, 7070, 7087, 7093, 7107,
                                                            7120, 7134, 7147, 7161, 7253, 7257, 7287, 7303, 7309, 7326, 7332,
                                                            7363, 7379, 7384, 7389, 7402, 7444, 7460, 7499, 7528.
         243    tct_byte_0               pl1_operators_:     217, 1328.
         443    tct_byte_1               pl1_operators_:     218, 1328.
         643    tct_byte_2               pl1_operators_:     219, 1328.
        1043    tct_byte_3               pl1_operators_:     220, 1328.
         233    tct_octal_040            pl1_operators_:     221, 1328.
         227    tct_octal_060            pl1_operators_:     222, 1328.
          76    temp                     pl1_operators_:     271, 1435, 1439, 1459, 1464, 1568, 1574, 1647, 1649, 1661, 1663,
                                                            1700, 1702, 2361, 2368, 2579, 2582, 2605, 2611, 2612, 2619, 2651,
                                                            2668, 2675, 2830, 2832, 2867, 2869, 2872, 3146, 3148, 3189, 3207,
                                                            3227, 3241, 3248, 3391, 3393, 3589, 3592, 4295, 4305, 4315, 4325,
                                                            4337, 4338, 4349, 4350, 4353, 4357, 4360, 4390, 4400, 4402, 4405,
                                                            4408, 4419, 4421, 4424, 4426, 4460, 4472, 4475, 4484, 4616, 4622,
                                                            4669, 4680, 4685, 4688, 4698, 4719, 4720, 4722, 4723, 4771, 4772,
                                                            4779, 4780, 4793, 4794, 4796, 4797, 4842, 4845, 4849, 4850, 4853,
                                                            4854, 4866, 4869, 4890, 4894, 4943, 4946, 4954, 4965, 4966, 4996,
                                                            4997, 5145, 5162, 5163, 5172, 5178, 5186, 5198, 5209, 5222, 5232,
                                                            5368, 5373, 5386, 5410, 5445, 5463, 5555, 5565, 6003, 6004, 6005,
                                                            6006, 6007, 6019, 6020, 6021, 6022, 6023, 6379, 6380, 7047, 7060,
                                                            7108, 7119, 7135, 7146, 7240, 7252, 7270, 7286, 7360, 7361.
          72    temp2                    pl1_operators_:     267, 2772, 2773, 2805, 2806, 2930, 2931, 3190, 3219, 3228, 4399,
                                                            4403, 4409, 4418, 4422, 4427, 4975, 4979, 5152, 5157, 5214, 5234,
                                                            5431, 5462, 5470, 6036, 6040, 6530, 7059, 7062, 7066.
          55    temp_indicators          pl1_operators_:     246, 3837, 3841, 7485, 7527.
          50    temp_pt                  pl1_operators_:     243, 1360, 1426, 1502, 1513, 1533, 1535, 1541, 1619, 1658, 1671,
                                                            1712, 1727, 1729, 1823, 1879, 1920, 1947, 1966, 1987, 1997, 2037,
                                                            2076, 2104, 2128, 2159, 2165, 2186, 2200, 2210, 2223, 2242, 2259,
                                                            2265, 2285, 2291, 2319, 2338, 2397, 2420, 2467, 2569, 2634, 2726,
                                                            2823, 2898, 3196, 3198, 3234, 3236, 3554, 3557, 3570, 3613, 3624,
                                                            3635, 3663, 3666, 3683, 3684, 3734, 3755, 3764, 3784, 4438, 4941,
                                                            4961, 5254, 5255, 6126, 6130, 6154, 6161.
          60    temp_size                pl1_operators_:     250, 1380, 1425, 1430, 1980.
                terminate                pl1_operators_:    5651.
          46    text_base_ptr            pl1_operators_:     241, 6747, 6877, 7446, 7450.
        6427    thru                     pl1_operators_:    4053, 4056.
       24722    trace_alm_entry          pl1_operators_:     223, 7389, 7460, 7466.
       16210    trace_bitno_to_charno_table    pl1_operators_:    7389.
       17636    trace_bit_mask           pl1_operators_:    7389.
       20276    trace_blanks             pl1_operators_:    7389.
                trace_catch_             pl1_operators_:    7446, 7448, 7450, 7452, 7466.
       17474    trace_co_to_bo           pl1_operators_:    7389.
       17454    trace_csl_vector         pl1_operators_:    7389.
       21461    trace_eed                pl1_operators_:    7448.
       21350    trace_enter_BFP_mode     pl1_operators_:    7389, 7398, 7460.
       21354    trace_enter_HFP_mode     pl1_operators_:    7389, 7421, 7439, 7460.
       21376    trace_enter_HFP_mode.entered   pl1_operators_:    7426, 7433, 7441.
       20703    trace_entry_operators    pl1_operators_:     224, 7389.
       21562    trace_entry_operators_end      pl1_operators_:     225, 7454.
       21401    trace_ext_entry          pl1_operators_:    7389, 7446, 7460.
       21436    trace_ext_entry_desc     pl1_operators_:    7389, 7448, 7460.
           0    trace_frames.count       stack_header:        69.
           1    trace_frames.top_ptr     stack_header:        70.
       20323    trace_fx1_to_fl2         pl1_operators_:    7389.
       20320    trace_fx1_to_fx2         pl1_operators_:    7389.
       20324    trace_fx2_to_fl2         pl1_operators_:    7389.
       21562    trace_hfp_bitno_to_charno_table      pl1_operators_:    7460.
       23210    trace_hfp_bit_mask       pl1_operators_:    7460.
       23650    trace_hfp_blanks         pl1_operators_:    7460.
       23046    trace_hfp_co_to_bo       pl1_operators_:    7460.
       23026    trace_hfp_csl_vector     pl1_operators_:    7460.
       24255    trace_hfp_entry_operators      pl1_operators_:    7460.
       23675    trace_hfp_fx1_to_fl2     pl1_operators_:    7460.
       23672    trace_hfp_fx1_to_fx2     pl1_operators_:    7460.
       23676    trace_hfp_fx2_to_fl2     pl1_operators_:    7460.
       23052    trace_hfp_ho_to_bo       pl1_operators_:    7460.
       23430    trace_hfp_mask_bit       pl1_operators_:    7460.
       23542    trace_hfp_max_single_value     pl1_operators_:    7460.
       23753    trace_hfp_mod2_tab       pl1_operators_:    7460.
       23755    trace_hfp_mod4_tab       pl1_operators_:    7460.
       23320    trace_hfp_ones           pl1_operators_:    7460.
       23210    trace_hfp_operator_table       pl1_operators_:     227, 7460.
       23761    trace_hfp_op_vector      pl1_operators_:    7460.
       23670    trace_hfp_ptr_mask       pl1_operators_:    7460.
       23702    trace_hfp_reset_stack    pl1_operators_:    7460.
       23722    trace_hfp_r_e_as         pl1_operators_:    7460.
       23737    trace_hfp_r_ge_a         pl1_operators_:    7460.
       23734    trace_hfp_r_ge_s         pl1_operators_:    7460.
       23713    trace_hfp_r_g_a          pl1_operators_:    7460.
       23707    trace_hfp_r_g_s          pl1_operators_:    7460.
       23730    trace_hfp_r_le_a         pl1_operators_:    7460.
       23742    trace_hfp_r_le_s         pl1_operators_:    7460.
       23704    trace_hfp_r_l_a          pl1_operators_:    7460.
       23717    trace_hfp_r_l_s          pl1_operators_:    7460.
       23725    trace_hfp_r_ne_as        pl1_operators_:    7460.
       23750    trace_hfp_set_stack      pl1_operators_:    7460.
       23146    trace_hfp_store_a6_ho    pl1_operators_:    7460.
       23054    trace_hfp_store_a9_co    pl1_operators_:    7460.
       23120    trace_hfp_store_a9_ho    pl1_operators_:    7460.
       23170    trace_hfp_store_q6_ho    pl1_operators_:    7460.
       23100    trace_hfp_store_q9_co    pl1_operators_:    7460.
       23134    trace_hfp_store_q9_ho    pl1_operators_:    7460.
       22025    trace_hfp_tct_byte_0     pl1_operators_:    7460.
       22225    trace_hfp_tct_byte_1     pl1_operators_:    7460.
       22425    trace_hfp_tct_byte_2     pl1_operators_:    7460.
       22625    trace_hfp_tct_byte_3     pl1_operators_:    7460.
       22015    trace_hfp_tct_octal_040  pl1_operators_:    7460.
       22011    trace_hfp_tct_octal_060  pl1_operators_:    7460.
       23746    trace_hfp_true           pl1_operators_:    7460.
       23025    trace_hfp_VLA_words_per_seg_   pl1_operators_:    7460.
       17500    trace_ho_to_bo           pl1_operators_:    7389.
       21426    trace_init_stack_join    pl1_operators_:    7446.
       20056    trace_mask_bit           pl1_operators_:    7389.
       20170    trace_max_single_value   pl1_operators_:    7389.
       20401    trace_mod2_tab           pl1_operators_:    7389.
       20403    trace_mod4_tab           pl1_operators_:    7389.
       17746    trace_ones               pl1_operators_:    7389.
       17636    trace_operator_table     pl1_operators_:     226, 7389, 7400, 7446, 7450.
       20407    trace_op_vector          pl1_operators_:    7389.
       20316    trace_ptr_mask           pl1_operators_:    7389.
       20330    trace_reset_stack        pl1_operators_:    7389.
       20350    trace_r_e_as             pl1_operators_:    7389.
       20365    trace_r_ge_a             pl1_operators_:    7389.
       20362    trace_r_ge_s             pl1_operators_:    7389.
       20341    trace_r_g_a              pl1_operators_:    7389.
       20335    trace_r_g_s              pl1_operators_:    7389.
       20356    trace_r_le_a             pl1_operators_:    7389.
       20370    trace_r_le_s             pl1_operators_:    7389.
       20332    trace_r_l_a              pl1_operators_:    7389.
       20345    trace_r_l_s              pl1_operators_:    7389.
       20353    trace_r_ne_as            pl1_operators_:    7389.
       21424    trace_save_link          pl1_operators_:    7446, 7448.
       20376    trace_set_stack          pl1_operators_:    7389.
       21553    trace_ss_eed             pl1_operators_:    7452.
       21470    trace_ss_ext_entry       pl1_operators_:    7389, 7450, 7460.
       21527    trace_ss_ext_entry_desc  pl1_operators_:    7389, 7452, 7460.
       21517    trace_ss_init_stack_join       pl1_operators_:    7450.
       21514    trace_ss_save_link       pl1_operators_:    7450, 7452.
       17574    trace_store_a6_ho        pl1_operators_:    7389.
       17502    trace_store_a9_co        pl1_operators_:    7389.
       17546    trace_store_a9_ho        pl1_operators_:    7389.
       17616    trace_store_q6_ho        pl1_operators_:    7389.
       17526    trace_store_q9_co        pl1_operators_:    7389.
       17562    trace_store_q9_ho        pl1_operators_:    7389.
       16453    trace_tct_byte_0         pl1_operators_:    7389.
       16653    trace_tct_byte_1         pl1_operators_:    7389.
       17053    trace_tct_byte_2         pl1_operators_:    7389.
       17253    trace_tct_byte_3         pl1_operators_:    7389.
       16443    trace_tct_octal_040      pl1_operators_:    7389.
       16437    trace_tct_octal_060      pl1_operators_:    7389.
       20374    trace_true               pl1_operators_:    7389.
       17453    trace_VLA_words_per_seg_       pl1_operators_:    7389.
        5351    trans2_blank             pl1_operators_:    3208, 3213.
        5335    trans2_loop              pl1_operators_:    3200, 3212, 3217.
        5412    trans3_blank             pl1_operators_:    3249, 3254.
        5373    trans3_loop              pl1_operators_:    3238, 3253, 3258, 3263.
        5416    trans3_same              pl1_operators_:    3246, 3259.
        5322    translate_2              pl1_operators_:    1328, 3188, 6964, 7389, 7460.
        5360    translate_3              pl1_operators_:    1328, 3226, 6964, 7389, 7460.
        5355    trans_done               pl1_operators_:    3202, 3218, 3240.
        6660    trans_sign_fl            pl1_operators_:    1328, 4280, 6964, 7389, 7460.
        6650    trans_sign_fx1           pl1_operators_:    1328, 4267, 6964, 7389, 7460.
        7265    tra_ext_1                pl1_operators_:    1328, 4630, 6964, 7389, 7460.
        7273    tra_ext_2                pl1_operators_:    1328, 4641, 6964, 7389, 7460.
        2164    true                     pl1_operators_:    1328, 4171, 4180, 6964, 7389, 7460.
           1    truncate                 pl1_operators_:    1328, 6964, 7389, 7460,
                                         eis_bits:      31.
        7354    trunc_fl                 pl1_operators_:    1328, 4703, 7389.
        7363    trunc_fx1                pl1_operators_:    1328, 4714, 6964, 7389, 7460.
        7375    trunc_fx2                pl1_operators_:    1328, 4728, 6964, 7389, 7460.
        5243    ttf_ttn                  pl1_operators_:    3106, 3116.
         551    tv_offset                stack_header:        75,   80,   81,   82,   83,   84.
       11623    unimp                    pl1_operators_:    1328, 6529, 6964, 7389, 7460.
       11226    unpack_picture           pl1_operators_:    1328, 6185, 6964, 7389, 7460.
                unpack_picture_          pl1_operators_:    6187.
        7655    unpk_to_pk               pl1_operators_:    1328, 4985, 6024, 6964, 7389, 7460.
                unwinder_                pl1_operators_:    4647.
        7202    use_first                pl1_operators_:    3612, 3634, 3662, 3713, 3715, 3733, 4562.
       12156    val_entry                pl1_operators_:    1328, 6875, 6964, 7389, 7460.
       12154    val_entry_desc           pl1_operators_:    1328, 6875, 6964, 7389, 7460.
        5622    var_call                 pl1_operators_:     228, 3485.
        6571    vclock_mac               pl1_operators_:    1328, 4196, 6964, 7389, 7460.
        5147    verify                   pl1_operators_:    1328, 3028, 6964, 7389, 7460.
        5155    verify_al                pl1_operators_:    1328, 3039, 6964, 7389, 7460.
        5151    verify_co                pl1_operators_:    1328, 3031, 6964, 7389, 7460.
        5245    verify_eis               pl1_operators_:    1328, 3120, 6964, 7389, 7460.
        5271    verify_for_ltrim         pl1_operators_:    1328, 3153, 6964, 7389, 7460.
        5304    verify_for_rtrim         pl1_operators_:    1328, 3167, 6964, 7389, 7460.
        5153    verify_ho                pl1_operators_:    1328, 3035, 6964, 7389, 7460.
        5247    verify_rev_chars         pl1_operators_:    1328, 3126, 6964, 7389, 7460.
        5156    ver_1                    pl1_operators_:    3029, 3033, 3037, 3041.
        5170    ver_2                    pl1_operators_:    3051, 3055, 3059, 3063.
        5171    ver_3                    pl1_operators_:    3043, 3065.
        5175    ver_4                    pl1_operators_:    3069, 3080, 3083.
        5214    ver_done                 pl1_operators_:    3077, 3084.
        5216    ver_fail                 pl1_operators_:    3075, 3086.
        5273    vfl_loop                 pl1_operators_:    3156, 3165.
        5316    vfr_done                 pl1_operators_:    3176, 3179.
        5307    vfr_loop                 pl1_operators_:    3171, 3178.
                virtual_cpu_time_op_     pl1_operators_:    4200.
        1243    VLA_words_per_seg_       pl1_operators_:     229, 1328.
          10    x0                       eis_bits:      13.
          11    x1                       pl1_operators_:    1608, 1698, 1824, 1889, 1890, 1891, 1892, 1893, 2187, 2422, 2473,
                                                            2524,
                                         eis_bits:      14.
          12    x2                       eis_bits:      15.
          13    x3                       eis_bits:      16.
          14    x4                       eis_bits:      17.
          15    x5                       eis_bits:      18.
          16    x6                       eis_bits:      19.
          17    x7                       eis_bits:      20.
           6    xor                      pl1_operators_:    1892,
                                         eis_bits:      26.
        4435    zb_1                     pl1_operators_:    2508, 2512, 2516, 2521.
        4426    zero_bits                pl1_operators_:    1328, 2506, 6964, 7389, 7460.
        4434    zero_bits_aligned        pl1_operators_:    1328, 2518, 6964, 7389, 7460.
        4430    zero_bits_co             pl1_operators_:    1328, 2510, 6964, 7389, 7460.
        4432    zero_bits_ho             pl1_operators_:    1328, 2514, 6964, 7389, 7460.
        3703    zero_it                  pl1_operators_:    1410, 1977.
        6637    zero_main_flag           pl1_operators_:    4245, 4251.
        6526    zero_one                 pl1_operators_:    3961, 3971, 4134.
        4504    zix                      pl1_operators_:    2572, 2575, 2580, 2589, 2606, 2621, 2633, 2637, 2652, 2669, 2696, 2734.
        7227    z_done                   pl1_operators_:    4592, 4605, 4609, 4613, 5015, 5028, 5041, 5054, 5362, 5374, 5449,
                                                            6070, 6103, 6141, 6163, 6196, 6266.


NO FATAL ERRORS

