ASSEMBLY LISTING OF SEGMENT >spec>install>1112>sc_request_table_.alm
ASSEMBLED ON:	11/11/89  0928.0 mst Sat
OPTIONS USED:	-target l68                              list symbols
ASSEMBLED BY:	ALM Version 8.14 March 1989
ASSEMBLER CREATED:	06/09/89  1002.3 mst Fri

                                     1  " ***********************************************************
                                     2  " *                                                         *
                                     3  " * Copyright, (C) Honeywell Bull Inc., 1987                *
                                     4  " *                                                         *
                                     5  " * Copyright, (C) Honeywell Information Systems Inc., 1984 *
                                     6  " *                                                         *
                                     7  " ***********************************************************
                                     8
                                     9  " HISTORY COMMENTS:
                                    10  "  1) change(84-12-01,Margulies), approve(), audit(), install():
                                    11  "     Initially written.
                                    12  "  2) change(85-01-15,Swenson), approve(), audit(), install():
                                    13  "     Correct "no_start_up" request.
                                    14  "  3) change(85-04-01,Swenson), approve(), audit(), install():
                                    15  "     Have "." not require sign_on and not require the AS to be started for
                                    16  "     the stop_mpx command.
                                    17  "  4) change(85-04-17,Swenson), approve(), audit(), install():
                                    18  "     to fix masking problems.
                                    19  "  5) change(86-01-09,MSharpe), approve(87-06-10,MCR7690),
                                    20  "     audit(87-06-11,Parisek), install(87-08-04,MR12.1-1055):
                                    21  "     Changed to find mc commands, process commands, and com_channel commands
                                    22  "     in the newly created programs that hold them. (these commands were
                                    23  "     previously in admin_).
                                    24  "  6) change(86-01-09,Fawcett), approve(86-03-28,MCR7359),
                                    25  "     audit(86-04-25,Lippard), install(86-09-16,MR12.0-1159):
                                    26  "     Add requests lock_mca and unlock_mca.
                                    27  "  7) change(86-04-30,GDixon), approve(86-09-26,MCR7499),
                                    28  "     audit(86-10-10,Beattie), install(86-10-13,MR12.0-1182):
                                    29  "     Allow the abs request to work prior to starting of the Answering Service
                                    30  "     (ie, while at Standard level).
                                    31  "  8) change(86-12-02,Fawcett), approve(87-06-10,MCR7690),
                                    32  "     audit(87-06-11,Parisek), install(87-08-04,MR12.1-1055):
                                    33  "     Merged 6) & 7) into the code for 5, DSA to MR12 convertion.
                                    34  "  9) change(87-03-26,Lippard), approve(87-04-27,MCR7673),
                                    35  "     audit(87-05-15,Fawcett), install(87-05-26,MR12.1-1036):
                                    36  "     Add set_time_zone.
                                    37  " 10) change(88-04-14,Farley), approve(88-05-26,MCR7880),
                                    38  "     audit(88-05-31,Parisek), install(88-07-05,MR12.2-1052):
                                    39  "     Added list_lv_attachments (llva) request.
                                    40  "                                                      END HISTORY COMMENTS
                                    41
                                    42  " request table for system control environment
                                    43
    000000                          44            name      sc_request_table_
                                    45            include   ssu_request_macros
                                   1-1  " BEGIN INCLUDE FILE ... ssu_request_macros.incl.alm
                                   1-2  " Created:  5 May 1980 by W. Olin Sibert
                                   1-3  " Modified: 25 July 1980 by G. Palter to add multics_request macro
                                   1-4  " Modified: 1 December 1981 by G. Palter to remove user_flags
                                   1-5  " Modified: 12 February 1982 by G. Palter for version 4
                                   1-6  " Modified: 28 February 1982 by G. Palter to add dont_summarize and dont_list
                                   1-7  " Modified: 2 August 1982 by Jay Pattin to add unknown_request
                                   1-8  " Modified: 24 October 1984 by G. Palter to restore user flags and add the
                                   1-9  "    set_default_flags and set_default_multics_flags macros
                                  1-10
                                  1-11
                                  1-12  " ALM macros used to define subsystem request tables
                                  1-13
                                  1-14
                                  1-15  	macro	request_table_version
                              1   1-16  	aci	"srqt_4.0",8
                              2   1-17  	&end
                                  1-18
                                  1-19
                                  1-20  	macro	namelist
                              1   1-21  	maclist	off,save
                              2   1-22  	vfd	36/&K
                              3   1-23  &R&(	aci	@&i@,32
                              4   1-24  &)
                              5   1-25  	maclist	restore
                              6   1-26  	&end
                                  1-27
                                  1-28  " 
                                  1-29
                                  1-30  " System defined per-request flags
                                  1-31
                        400000    1-32  	bool	flags.allow_command,400000	" valid as a command
                        200000    1-33  	bool	flags.allow_af,200000	" valid as an active function
                        600000    1-34  	bool	flags.allow_both,600000	" valid as both
                                  1-35
                        100000    1-36  	bool	flags.unimplemented,100000	" request is not yet implemented
                        040000    1-37  	bool	flags.multics_request,040000	" request is actually a Multics command
                                  1-38
                        020000    1-39  	bool	flags.dont_summarize,020000	" summarize_requests won't list it
                        010000    1-40  	bool	flags.dont_list,010000	" list_requests won't show it without -all
                                  1-41
                        004000    1-42  	bool	flags.unknown,004000	" request is explicitly made unknown
                                  1-43
                                  1-44
                                  1-45  " Macros for setting per-request flags
                                  1-46
                                  1-47  	macro	set_flags_loop
                              1   1-48  	maclist	off,save
                              2   1-49  &(3
                              3   1-50  &=&i,default&[	set_flags_loop	&1,(0),(&2)
                              4   1-51  &;	set	&1,&1+&i
                              5   1-52  &]&)
                              6   1-53  	maclist	restore
                              7   1-54  	&end
                                  1-55
                                  1-56
                                  1-57  	macro	set_flags
                              1   1-58  	maclist	off,save
                              2   1-59  	set	&1,0
                              3   1-60  &=&3,&[	set_flags_loop	&1,(0),(&2)
                              4   1-61  &;	set_flags_loop	&1,(&2),(&3)
                              5   1-62  &]
                              6   1-63  	maclist	restore
                              7   1-64  	&end
                                  1-65
                                  1-66  " 
                                  1-67
                                  1-68  "	set_default_flags {(system-flags)},{(user-flags)}
                                  1-69
                                  1-70  " Sets the default system and/or user flags to be used for requests:
                                  1-71  "   system-flags: defines the default general nature of requests;" the default
                                  1-72  "      default is flags.allow_command
                                  1-73  "   user-flags:  defines the default setting for the subsystem specific flags
                                  1-74  "      associated with requests;" the default default is none (0)
                                  1-75  "   Note: If either system-flags or user-flags is ommitted, the default is not
                                  1-76  "      changed from its prior value.  This action allows the use of multiple
                                  1-77  "      set_default_flags macros within a table to change system or user
                                  1-78  "      flags without affecting the other defaults
                                  1-79
                                  1-80  	macro	set_default_flags
                              1   1-81  	maclist	off,save
                              2   1-82  &^=&1,&[	set_flags	.dft_sf,(flags.allow_command),(&1)
                              3   1-83  &]
                              4   1-84  &^=&2,&[	set_flags	.dft_uf,(0),(&2)
                              5   1-85  &]
                              6   1-86  	maclist	restore
                              7   1-87  	&end
                                  1-88
                                  1-89
                                  1-90  "	set_default_multics_flags {(system-flags)},{(user-flags)}
                                  1-91
                                  1-92  " Sets the default system and/or user flags to be used for Multics commands when used as requests:
                                  1-93  "   system-flags: defines the default general nature of Multics requests;" the
                                  1-94  "      default default is flags.allow_command+flags.allow_af
                                  1-95  "   user-flags:  defines the default setting for the subsystem specific flags
                                  1-96  "      associated with Multics requests;" the default default is none (0)
                                  1-97  "   Note: If either system-flags or user-flags is ommitted, the default is not
                                  1-98  "      changed from its prior value.  This action allows the use of multiple
                                  1-99  "      set_default_multics_flags macros within a table to change system or user
                                 1-100  "      flags without affecting the other defaults
                                 1-101
                                 1-102  	macro	set_default_multics_flags
                              1  1-103  	maclist	off,save
                              2  1-104  &^=&1,&[	set_flags	.dft_mrsf,(flags.allow_command,flags.allow_af),(&1)
                              3  1-105  &]
                              4  1-106  &^=&2,&[	set_flags	.dft_mruf,(0),(&2)
                              5  1-107  &]
                              6  1-108  	maclist	restore
                              7  1-109  	&end
                                 1-110
                                 1-111  " 
                                 1-112
                                 1-113  	macro	.multics_request_doc
                              1  1-114  	null
                              2  1-115  	&end
                                 1-116
                                 1-117
                                 1-118  	macro	dft_multics_doc_lth
                              1  1-119  	set	.multics_doc_lth,0
                              2  1-120  	&end
                                 1-121
                                 1-122
                                 1-123  "	set_default_multics_doc (string)
                                 1-124
                                 1-125  " Sets the default documentation to be used for Multics commands when used as requests:
                                 1-126  "   string: is the documentation string to be used for any subsequent requests defined by
                                 1-127  "      the multics_request_macro;" all occurences of "&1" in this string will be replaced by
                                 1-128  "      the actual name of the request;" Eg:
                                 1-129  "	set_default_multics_doc (Type '.. help &1' for more information.)
                                 1-130
                                 1-131  	macro	set_default_multics_doc
                              1  1-132  	maclist	off,save
                              2  1-133  	macro	.multics_request_doc
                              3  1-134  	aci	@&1@
                              4  1-135  	&&end
                              5  1-136  	macro	dft_multics_doc_lth
                              6  1-137  	macro	.compute
                              7  1-138  	set	.multics_doc_lth,&&&&l1
                              8  1-139  	&&&&end
                              9  1-140  	.compute (&1)
                             10  1-141  	&&end
                             11  1-142  	maclist	restore
                             12  1-143  	&end
                                 1-144
                                 1-145  " 
                                 1-146
                                 1-147  "	begin_table tablename
                                 1-148
                                 1-149  " Defines a subsystem request table (multiple tables may exist in a single object segment):
                                 1-150  "   tablename: the name by which this table may be referenced externally;" references to the
                                 1-151  "      table should be of the form segname$tablename where segname is the name of this
                                 1-152  "      object segment
                                 1-153
                                 1-154  	macro	begin_table
                              1  1-155  	segdef	&1
                              2  1-156  	maclist	object,save
                              3  1-157  	use	tables
                              4  1-158  &1:	request_table_version
                              5  1-159  	aci	@&1@,32
                              6  1-160  	dup	6
                              7  1-161  	vfd	36/0
                              8  1-162  	dupend
                              9  1-163  	vfd	36/&1.rc
                             10  1-164  	maclist	off
                             11  1-165  	set	.rc,0
                             12  1-166  	set_default_flags (default),(default)
                             13  1-167  	set_default_multics_flags (default),(default)
                             14  1-168  	maclist	restore
                             15  1-169  	&end
                                 1-170
                                 1-171
                                 1-172  "	end_table	tablename
                                 1-173
                                 1-174  " Indicates the end of a subsystem request table definition:
                                 1-175  "   tablename: the name of the table which has now been completely defined
                                 1-176
                                 1-177  	macro	end_table
                              1  1-178  	maclist	off,save
                              2  1-179  	set	&1.rc,.rc
                              3  1-180  	maclist	restore
                              4  1-181  	&end
                                 1-182
                                 1-183  " 
                                 1-184
                                 1-185  "	request	name,processor,({abbreviations}),{(documentation)},
                                 1-186  "		 {(system-flags)},{(user-flags)}
                                 1-187
                                 1-188  " Defines a subsystem request:
                                 1-189  "   name: the primary name of this request
                                 1-190  "   processor: the name of the procedure which actually executes this request;" it must be
                                 1-191  "      of the form segname$entryname
                                 1-192  "   abbreviations: is the list of defined abbreviations for this request
                                 1-193  "   documentation: a short string used by the list_requests request to explain this request
                                 1-194  "   system-flags: defines the general nature of this request;" the default is
                                 1-195  "      flags.allow_command
                                 1-196  "   user-flags: allows a subsystem to provide subsystem-specific information
                                 1-197  "      with the request's definition;" the default is none (0)
                                 1-198
                                 1-199  	macro	request
                              1  1-200  	maclist	off,save
                              2  1-201  	set	.rc,.rc+1
                              3  1-202  	maclist	object
                              4  1-203  	use	tables
                              5  1-204  	vfd	18/&U.call,18/&U.names
                              6  1-205  &=&4,&[	vfd	36/0
                              7  1-206  &;	vfd	18/&U.info,18/&l4
                              8  1-207  	maclist	off
                              9  1-208  	use	info
                             10  1-209  &U.info:	aci	@&4@
                             11  1-210  &]
                             12  1-211  	use	tables
                             13  1-212  	set_flags	.sf,(.dft_sf),(&5)
                             14  1-213  	set_flags	.uf,(.dft_uf),(&6)
                             15  1-214  	maclist	object
                             16  1-215  	vfd	18/.sf,18/.uf
                             17  1-216  	maclist	off
                             18  1-217  	use	calls
                             19  1-218  &U.call:	epaq	*
                             20  1-219  	lprp4	7|stack_header.lot_ptr,*au
                             21  1-220  	call6	&2
                             22  1-221  	use	names
                             23  1-222  &U.names:	namelist	&1&^=&3,&[,&3&]
                             24  1-223  	maclist	restore
                             25  1-224  	&end
                                 1-225
                                 1-226  " 
                                 1-227
                                 1-228  "	unknown_request name,(abbreviations)
                                 1-229
                                 1-230  " Defines an unknown request: used to make the utilities not recognize a request even though
                                 1-231  " it is defined in a later request table (such as ssu_request_tables_$standard_request):
                                 1-232  "   name: the primary name of the request to be marked as unknown
                                 1-233  "   abbreviations: is the list of defined abbreviations for this request
                                 1-234
                                 1-235  	macro	unknown_request
                              1  1-236  	maclist	off,save
                              2  1-237  	set	.rc,.rc+1
                              3  1-238  	maclist	object
                              4  1-239  	use	tables
                              5  1-240  	vfd	18/&U.call,18/&U.names
                              6  1-241  	vfd	36/0
                              7  1-242  	vfd	18/flags.unknown,18/0
                              8  1-243  	maclist	off
                              9  1-244  	use	calls
                             10  1-245  &U.call:	epaq	*
                             11  1-246  	lprp4	7|stack_header.lot_ptr,*au
                             12  1-247  	call6	ssu_$unknown_request
                             13  1-248  	use	names
                             14  1-249  &U.names: namelist	&1&^=&2,&[,&2&]
                             15  1-250  	maclist	restore
                             16  1-251  	&end
                                 1-252
                                 1-253  " 
                                 1-254
                                 1-255  "	multics_request name,({abbreviations}),({documenation}),{procedure},
                                 1-256  "		       {(system-flags)},{(user-flags)}
                                 1-257
                                 1-258  " Defines that a Multics command/AF may be used as a subsystem request:
                                 1-259  "   name: the primary name of this request (usually the name of the Multics command/AF)
                                 1-260  "   abbreviations: is the list of defined abbreviations for this request
                                 1-261  "   documentation: a short string used by the list_requests request to explain this request;
                                 1-262  "      if no documentation is provided, the documentation specified by a prior use of
                                 1-263  "      set_default_multics_doc is used
                                 1-264  "   procedure: the name of the Multics command/AF which is actually executed by this
                                 1-265  "      request;" it must be of the form segname$entryname;" if not given, the default is
                                 1-266  "      name$name
                                 1-267  "   system-flags: defines the general nature of this request;" the default is
                                 1-268  "      flags.allow_command+flags.allow_af
                                 1-269  "   user-flags: allows a subsystem to provide subsystem-specific information
                                 1-270  "      with the request's definition;" the default is none (0)
                                 1-271
                                 1-272  	macro	multics_request
                              1  1-273  	maclist	off,save
                              2  1-274  	set	.rc,.rc+1
                              3  1-275  	maclist	object
                              4  1-276  	use	tables
                              5  1-277  	vfd	18/&U.call,18/&U.names
                              6  1-278  &=&3,&[	dft_multics_doc_lth &1,(&2),(&3),(&4),(&5),(&6)
                              7  1-279  	vfd	18/&U.info,18/.multics_doc_lth
                              8  1-280  &;	vfd	18/&U.info,18/&l3
                              9  1-281  &]
                             10  1-282  	maclist	off
                             11  1-283  	use	info
                             12  1-284  &U.info:
                             13  1-285  &=&3,&[	.multics_request_doc &1,(&2),(&3),(&4),(&5),(&6)
                             14  1-286  &;	aci	@&3@
                             15  1-287  &]
                             16  1-288  	use	tables
                             17  1-289  	maclist	object
                             18  1-290  	set_flags	.sf,(.dft_mrsf),(&5)
                             19  1-291  	set_flags	.uf,(.dft_mruf),(&6)
                             20  1-292  	maclist	object
                             21  1-293  	vfd	18/.sf+flags.multics_request,18/.uf
                             22  1-294  	maclist	off
                             23  1-295  	use	calls
                             24  1-296  &U.call:	epaq	*
                             25  1-297  	lprp4	7|stack_header.lot_ptr,*au
                             26  1-298  &=&4,&[	call6	&1$&1
                             27  1-299  &;	call6	&4
                             28  1-300  &]
                             29  1-301  	use	names
                             30  1-302  &U.names:	namelist	&1&^=&2,&[,&2&]
                             31  1-303  	maclist	restore
                             32  1-304  	&end
                                 1-305
                                 1-306  " 
                                 1-307
                                 1-308  " Required ALM statements to make this all work
                                 1-309
                                 1-310  	use	tables
                                 1-311  	use	calls
                                 1-312  	use	names
                                 1-313  	use	info
                                 1-314  	join	/text/tables,calls,names,info
                                 1-315
                                 1-316  	include	stack_header
                                   2-1  "	BEGIN INCLUDE FILE ... stack_header.incl.alm  3/72  Bill Silver
                                   2-2  "
                                   2-3  "	modified 7/76 by M. Weaver for *system links and more system use of areas
                                   2-4  "	modified 3/77 by M. Weaver  to add rnt_ptr
                                   2-5  "	modified 7/77 by S. Webber to add run_unit_depth and assign_linkage_ptr
                                   2-6  "	modified 6/83 by J. Ives to add trace_frames and in_trace.
                                   2-7
                                   2-8  " HISTORY COMMENTS:
                                   2-9  "  1) change(86-06-24,DGHowe), approve(86-06-24,MCR7396),
                                  2-10  "     audit(86-08-05,Schroth), install(86-11-03,MR12.0-1206):
                                  2-11  "     added the heap_header_ptr definition
                                  2-12  "  2) change(86-08-12,Kissel), approve(86-08-12,MCR7473),
                                  2-13  "     audit(86-10-10,Fawcett), install(86-11-03,MR12.0-1206):
                                  2-14  "     Modified to support control point management.  These changes were
                                  2-15  "     actually made in February 1985 by G. Palter.
                                  2-16  "  3) change(86-10-22,Fawcett), approve(86-10-22,MCR7473),
                                  2-17  "     audit(86-10-22,Farley), install(86-11-03,MR12.0-1206):
                                  2-18  "     Remove the old_lot pointer and replace it with cpm_data_ptr. Use the 18
                                  2-19  "     bit pad after cur_lot_size for the cpm_enabled. This was done to save
                                  2-20  "     some space int the stack header and change the cpd_ptr unal to
                                  2-21  "     cpm_data_ptr (ITS pair).
                                  2-22  "                                                      END HISTORY COMMENTS
                                  2-23
                        000004    2-24  	equ	stack_header.cpm_data_ptr,4		ptr to control point for this stack
                        000006    2-25  	equ	stack_header.combined_stat_ptr,6	ptr to separate static area
                                  2-26
                        000010    2-27  	equ	stack_header.clr_ptr,8		ptr to area containing linkage sections
                        000012    2-28  	equ	stack_header.max_lot_size,10		number of words allowed in lot (DU)
                        000012    2-29  	equ	stack_header.main_proc_invoked,10	nonzero if main proc was invoked in run unit (DL)
                        000012    2-30  	equ	stack_header.run_unit_depth,10	number of active run units stacked (DL)
                        000013    2-31  	equ	stack_header.cur_lot_size,11		DU number of words (entries) in lot
                        000013    2-32            equ	stack_header.cpm_enabled,11		DL  non-zero if control point management is enabled
                        000014    2-33  	equ	stack_header.system_free_ptr,12	ptr to system storage area
                        000016    2-34  	equ	stack_header.user_free_ptr,14		ptr to user storage area
                                  2-35
                        000020    2-36  	equ	stack_header.parent_ptr,16		ptr to parent stack or null
                        000022    2-37  	equ	stack_header.stack_begin_ptr,18	ptr to first stack frame
                        000024    2-38  	equ	stack_header.stack_end_ptr,20		ptr to next useable stack frame
                        000026    2-39  	equ	stack_header.lot_ptr,22		ptr to the lot for the current ring
                                  2-40
                        000030    2-41  	equ	stack_header.signal_ptr,24		ptr to signal proc for current ring
                        000032    2-42  	equ	stack_header.bar_mode_sp,26		value of sp before entering bar mode
                        000034    2-43  	equ	stack_header.pl1_operators_ptr,28	ptr: pl1_operators_$operator_table
                        000036    2-44  	equ	stack_header.call_op_ptr,30		ptr to standard call operator
                                  2-45
                        000040    2-46  	equ	stack_header.push_op_ptr,32		ptr to standard push operator
                        000042    2-47  	equ	stack_header.return_op_ptr,34		ptr to standard return operator
                        000044    2-48  	equ	stack_header.ret_no_pop_op_ptr,36	ptr: stand. return/ no pop operator
                        000046    2-49  	equ	stack_header.entry_op_ptr,38		ptr to standard entry operator
                                  2-50
                        000050    2-51  	equ	stack_header.trans_op_tv_ptr,40	ptr to table of translator operator ptrs
                        000052    2-52  	equ	stack_header.isot_ptr,42		pointer to ISOT
                        000054    2-53  	equ	stack_header.sct_ptr,44		pointer to System Condition Table
                        000056    2-54  	equ	stack_header.unwinder_ptr,46		pointer to unwinder for current ring
                                  2-55
                        000060    2-56  	equ	stack_header.sys_link_info_ptr,48	ptr to *system link name table
                        000062    2-57  	equ	stack_header.rnt_ptr,50		ptr to reference name table
                        000064    2-58  	equ	stack_header.ect_ptr,52		ptr to event channel table
                        000066    2-59  	equ	stack_header.assign_linkage_ptr,54	ptr to area for hcs_$assign_linkage calls
                        000070    2-60  	equ	stack_header.heap_header_ptr,56	ptr to heap header.
                        000072    2-61  	equ	stack_header.trace_frames,58		stack of trace_catch_ frames
                        000073    2-62  	equ	stach_header.trace_top_ptr,59		trace pointer
                        000074    2-63  	equ	stack_header.in_trace,60		trace antirecurse bit
                        000100    2-64  	equ	stack_header_end,64			length of stack header
                                  2-65
                                  2-66
                                  2-67
                                  2-68
                        000000    2-69  	equ	trace_frames.count,0		number of trace frames on stack
                        000001    2-70  	equ	trace_frames.top_ptr,1		packed pointer to top one
                                  2-71
                                  2-72  "	The  following constant is an offset within the  pl1  operators table.
                                  2-73  "	It  references a  transfer vector table.
                                  2-74
                        000551    2-75  	bool	tv_offset,551
                                  2-76
                                  2-77
                                  2-78  "	The  following constants are offsets within this transfer vector table.
                                  2-79
                        001170    2-80  	equ	call_offset,tv_offset+271
                        001171    2-81  	equ	push_offset,tv_offset+272
                        001172    2-82  	equ	return_offset,tv_offset+273
                        001173    2-83  	equ	return_no_pop_offset,tv_offset+274
                        001174    2-84  	equ	entry_offset,tv_offset+275
                                  2-85
                                  2-86
                                  2-87  " 	END INCLUDE FILE stack_header.incl.alm
                                 1-317
                                 1-318  " END INCLUDE FILE ... ssu_request_macros.incl.alm
                                    46
                                    47            macro     obsolete_request
                              1     48
                              2     49            request   &1,&2,(&3),(),(flags.dont_summarize,flags.dont_list,flags.allow_command),(sc_flags.obsolete,&4)
                              3     50  &end
                                    51
                                    52            macro     obsolete_multics_request
                              1     53
                              2     54            multics_request     &1,(&2),(),&3,(flags.dont_summarize,flags.dont_list,flags.allow_command),(sc_flags.obsolete,&4)
                              3     55  &end
                                    56
                                    57  	macro	admin_request
                              1     58  multics_request	&1,(&3),(&4),&2,(&5),(&6)
                              2     59  &end
                                    60
                                    61
                                    62
                                    63  " see sc_subsystem_info_.incl.pl1 and mc_restriction_codes.incl.pl1
                                    64  " for definition of the following bits.
                                    65
                        400000      66            bool      sc_flags.dont_parse_arguments,400000
                        200000      67            bool      sc_flags.obsolete,200000
                        100000      68            bool      sc_flags.dont_mask_calls,100000
                        040000      69            bool      sc_flags.requires_as,040000
                        020000      70            bool      sc_flags.requires_no_as,020000
                        010000      71            bool      sc_flags.complete_disks_first,010000
                        004000      72            bool      sc_flags.no_login_needed,004000
                        000001      73            bool      sc_flags.r_master_console,000001
                        000002      74            bool      sc_flags.r_as_control,000002
                        000003      75            bool      sc_flags.r_reset_sc,000003
                        000004      76            bool      sc_flags.r_reply,000004
                        000005      77            bool      sc_flags.r_edit_motd,000005
                        000006      78            bool      sc_flags.r_intercom,000006
                        000007      79            bool      sc_flags.r_mpx_control,000007
                        000010      80  	bool	sc_flags.r_admin_mode,000010
                        000022      81            bool      sc_flags.r_rcp_control,000022
                        000023      82            bool      sc_flags.r_reconfig_system,000023
                        000024      83            bool      sc_flags.r_dump,000024
                        000025      84            bool      sc_flags.r_exec,000025
                        000026      85            bool      sc_flags.r_status,000026
                        000027      86            bool      sc_flags.r_daemon_control,000027
                        000030      87            bool      sc_flags.r_loginword,000030
                        000031      88            bool      sc_flags.r_mod_sysid,000031
                        000032      89            bool      sc_flags.r_down_ok,000032
                        000033      90            bool      sc_flags.r_warning,000033
                        000034      91            bool      sc_flags.r_set_maxu,000034
                        000035      92            bool      sc_flags.r_channel_control,000035
                        000036      93            bool      sc_flags.r_bump_user,000036
                        000037      94            bool      sc_flags.r_route_messages,000037
                        000040      95            bool      sc_flags.r_abs_control,000040
                                    96
                                    97
                                    98            begin_table         system_control_requests
                        000000          	segdef	system_control_requests
    000000  aa  163 162 161 164
    000001  aa  137 064 056 060
    000002  aa  163 171 163 164
    000003  aa  145 155 137 143
    000004  aa  157 156 164 162
    000005  aa  157 154 137 162
    000006  aa  145 161 165 145
    000007  aa  163 164 163 040
    000010  aa  040 040 040 040
    000011  aa  040 040 040 040
                        000006
    000012  aa   000000 000000
    000013  aa   000000 000000
    000014  aa   000000 000000
    000015  aa   000000 000000
    000016  aa   000000 000000
    000017  aa   000000 000000
    000020  aa   000000 000143
                                    99
                                   100            set_default_flags   (flags.allow_command),
                                   101                                (sc_flags.requires_as)
                                   102
                                   103            set_default_multics_flags (flags.allow_command),
                                   104                                (sc_flags.requires_as)
                                   105
                                   106
                                   107  admin_request abs,admin_$abs,(),
                                   108            (Control the absentee facility.),
                                   109            (default),
                                   110            (sc_flags.r_abs_control)
                                        multics_request	abs,(),(Control the absentee facility.),admin_$abs,(default),(sc_flags.r_abs_control)
    000021  00   000472 001143
    000022  0a   003276 000036
    000023  aa   440000 000040
                                   111
                                   112  admin_request accept,operator_mc_cmds_$accept,(),
                                   113            (Accept a channel as a message coordinator terminal.),
                                   114            (default),
                                   115            (default,sc_flags.r_route_messages)
                                        multics_request	accept,(),(Accept a channel as a message coordinator terminal.),operator_mc_cmds_$accept,(default),(default,sc_flags.r_route_messages)
    000024  00   000475 001154
    000025  0a   003306 000063
    000026  aa   440000 040037
                                   116
                                   117  admin_request accept_vchn,operator_mc_cmds_$accept_vchn,(),
                                   118            (Accept a message coordinator virtual channel.),
                                   119            (default),
                                   120            (default,sc_flags.r_route_messages)
                                        multics_request	accept_vchn,(),(Accept a message coordinator virtual channel.),operator_mc_cmds_$accept_vchn,(default),(default,sc_flags.r_route_messages)
    000027  00   000500 001165
    000030  0a   003323 000055
    000031  aa   440000 040037
                                   121
                                   122  multics_request     add_lv,(alv),
                                   123            (Mount a logical volume for use.),
                                   124            disk_table_$mount_hvol,
                                   125            (default),
                                   126            (sc_flags.r_master_console)
    000032  00   000503 001176
    000033  0a   003337 000037
    000034  aa   440000 000001
                                   127
                                   128  multics_request   add_vol,(av),
                                   129            (Inform the system of the location of a physical volume.),
                                   130            disk_table_$accept,
                                   131            (default),
                                   132            (sc_flags.r_master_console)
    000035  00   000506 001217
    000036  0a   003347 000067
    000037  aa   440000 000001
                                   133
                                   134  request   admin,sc_admin_mode_$sc_admin_mode_,(),
                                   135            (Enter admin mode.),
                                   136            (default),
                                   137            (sc_flags.r_admin_mode,sc_flags.dont_mask_calls)
    000040  00   000511 001240
    000041  0a   003365 000021
    000042  aa   400000 100010
                                   138
                                   139  admin_request attach,operator_com_channel_cmds_$attach,(),
                                   140            (Attach a communications channel for use.),
                                   141            (default),
                                   142            (default,sc_flags.r_channel_control)
                                        multics_request	attach,(),(Attach a communications channel for use.),operator_com_channel_cmds_$attach,(default),(default,sc_flags.r_channel_control)
    000043  00   000514 001251
    000044  0a   003372 000050
    000045  aa   440000 040035
                                   143
                                   144  request   bce,sc_requests_$bce,(),
                                   145            (Return to BCE.),
                                   146            (default),
                                   147            (sc_flags.r_master_console)
    000046  00   000517 001262
    000047  0a   003404 000016
    000050  aa   400000 000001
                                   148
                                   149  admin_request bump,operator_process_cmds_$bump,(),
                                   150            (Bump an interactive user from the system.),
                                   151            (default),
                                   152            (default,sc_flags.r_as_control)
                                        multics_request	bump,(),(Bump an interactive user from the system.),operator_process_cmds_$bump,(default),(default,sc_flags.r_as_control)
    000051  00   000522 001273
    000052  0a   003410 000051
    000053  aa   440000 040002
                                   153
                                   154  request   cripple,sc_requests_$cripple,(),
                                   155            (Stop the Answering Service in preparation for database reloads.),
                                   156            (default,flags.dont_summarize,flags.dont_list),
                                   157            (default,sc_flags.r_as_control)
    000054  00   000525 001304
    000055  0a   003423 000077
    000056  aa   430000 040002
                                   158
                                   159  multics_request     del_lv,(dlv),
                                   160            (Demount a logical volume.),
                                   161            disk_table_$demount_hvol,
                                   162            (default),
                                   163            (sc_flags.r_master_console)
    000057  00   000530 001315
    000060  0a   003443 000031
    000061  aa   440000 000001
                                   164
                                   165  multics_request     del_vol,(dv),
                                   166            (Demount a physical volume.),
                                   167            disk_table_$remove,
                                   168            (default),
                                   169  	(sc_flags.r_master_console)
    000062  00   000533 001336
    000063  0a   003452 000032
    000064  aa   440000 000001
                                   170
                                   171  admin_request define,operator_mc_cmds_$define,(),
                                   172            (Define a new virtual console, or add a disposition to an existing one.),
                                   173            (default),
                                   174            (default,sc_flags.r_route_messages)
                                        multics_request	define,(),(Define a new virtual console, or add a disposition to an existing one.),operator_mc_cmds_$define,(default),(default,sc_flags.r_route_messages)
    000065  00   000536 001357
    000066  0a   003461 000106
    000067  aa   440000 040037
                                   175
                                   176  admin_request deroute,operator_mc_cmds_$deroute,(),
                                   177            (Remove a routine of a source stream.),
                                   178            (default),
                                   179            (default,sc_flags.r_route_messages)
                                        multics_request	deroute,(),(Remove a routine of a source stream.),operator_mc_cmds_$deroute,(default),(default,sc_flags.r_route_messages)
    000070  00   000541 001370
    000071  0a   003503 000044
    000072  aa   440000 040037
                                   180
                                   181  admin_request detach,operator_process_cmds_$detach,(),
                                   182            (Forcibly detach a communications channel from a user.),
                                   183            (default),
                                   184            (default,sc_flags.r_channel_control)
                                        multics_request	detach,(),(Forcibly detach a communications channel from a user.),operator_process_cmds_$detach,(default),(default,sc_flags.r_channel_control)
    000073  00   000544 001401
    000074  0a   003514 000065
    000075  aa   440000 040035
                                   185
                                   186  admin_request down,admin_$down,(),
                                   187            (Sets, cancels, or prints the scheduled shutdown time.),
                                   188            (default),
                                   189            (default,sc_flags.r_down_ok)
                                        multics_request	down,(),(Sets, cancels, or prints the scheduled shutdown time.),admin_$down,(default),(default,sc_flags.r_down_ok)
    000076  00   000547 001412
    000077  0a   003532 000065
    000100  aa   440000 040032
                                   190
                                   191  admin_request drop,operator_mc_cmds_$drop,(),
                                   192            (Drop a channel from use as a message coordinator terminal.),
                                   193            (default),
                                   194            (default,sc_flags.r_route_messages)
                                        multics_request	drop,(),(Drop a channel from use as a message coordinator terminal.),operator_mc_cmds_$drop,(default),(default,sc_flags.r_route_messages)
    000101  00   000552 001423
    000102  0a   003550 000072
    000103  aa   440000 040037
                                   195
                                   196  request   exec,sc_exec_request_$sc_exec_request_,(x),
                                   197            (Executes an extended command.),
                                   198            (default),
                                   199            (sc_flags.r_exec)
    000104  00   000555 001434
    000105  0a   003567 000035
    000106  aa   400000 000025
                                   200
                                   201  request   force_reset,sc_requests_$force_reset,(),
                                   202            (Force reset Answering Service locks and masks.),
                                   203            (default),
                                   204            (sc_flags.r_reset_sc,sc_flags.dont_mask_calls)
    000107  00   000560 001455
    000110  0a   003577 000056
    000111  aa   400000 100003
                                   205
                                   206  request   go,sc_requests_$go,(),
                                   207            (Start answering lines.),
                                   208            (default),
                                   209            (default,sc_flags.r_as_control)
    000112  00   000563 001466
    000113  0a   003613 000026
    000114  aa   400000 040002
                                   210
                                   211  multics_request     hmu,(),
                                   212            (Prints the number of users logged in.),
                                   213            as_who$hmu,
                                   214            (default),
                                   215            (default,sc_flags.r_status)
    000115  00   000566 001477
    000116  0a   003621 000045
    000117  aa   440000 040026
                                   216
                                   217  multics_request     init_vol,(),
                                   218            (Initialize a new physical volume.),
                                   219            disk_table_$initialize_disk,
                                   220            (default),
                                   221            (sc_flags.r_master_console)
    000120  00   000571 001510
    000121  0a   003633 000041
    000122  aa   440000 000001
                                   222
                                   223  request   intercom,sc_requests_$intercom,(ic),
                                   224            (Send a message to another message coordinator terminal.),
                                   225            (default),
                                   226            (default,sc_flags.dont_parse_arguments,sc_flags.r_intercom)
    000123  00   000574 001521
    000124  0a   003644 000067
    000125  aa   400000 440006
                                   227
                                   228  multics_request     list_disks,(ld),
                                   229            (Status of all disk drives.),
                                   230            disk_table_$list,
                                   231            (default),
                                   232            (sc_flags.r_status)
    000126  00   000577 001542
    000127  0a   003662 000032
    000130  aa   440000 000026
                                   233
                                   234  multics_request     list_lv_attachments,(llva),
                                   235            (Status of logical volume attachments.),
                                   236            lv_request_$attach_list,
                                   237            (default),
                                   238            (sc_flags.r_status)
    000131  00   000602 001563
    000132  0a   003671 000045
    000133  aa   440000 000026
                                   239
                                   240  multics_request     list_vols,(lsv),
                                   241            (Status of storage system volumes.),
                                   242            list_vols$list_vols,
                                   243            (default),
                                   244            (sc_flags.r_status)
    000134  00   000605 001604
    000135  0a   003703 000041
    000136  aa   440000 000026
                                   245
                                   246  admin_request login,admin_$login,(logi),
                                   247            (Logs in a daemon process.),
                                   248            (default),
                                   249            (default,sc_flags.r_daemon_control)
                                        multics_request	login,(logi),(Logs in a daemon process.),admin_$login,(default),(default,sc_flags.r_daemon_control)
    000137  00   000610 001625
    000140  0a   003714 000031
    000141  aa   440000 040027
                                   250
                                   251  admin_request logout,admin_$logout,(logo),
                                   252            (Logs out a daemon process.),
                                   253            (default),
                                   254            (default,sc_flags.r_daemon_control)
                                        multics_request	logout,(logo),(Logs out a daemon process.),admin_$logout,(default),(default,sc_flags.r_daemon_control)
    000142  00   000613 001646
    000143  0a   003723 000032
    000144  aa   440000 040027
                                   255
                                   256  admin_request maxunits,admin_$maxunits,(maxu),
                                   257            (Set the maximum number of users who may login.),
                                   258            (default),
                                   259            (default,sc_flags.r_set_maxu)
                                        multics_request	maxunits,(maxu),(Set the maximum number of users who may login.),admin_$maxunits,(default),(default,sc_flags.r_set_maxu)
    000145  00   000616 001667
    000146  0a   003732 000056
    000147  aa   440000 040034
                                   260
                                   261  multics_request   mc_list,(),
                                   262            (Lists message coordinator information.),
                                   263            mc_list$mc_list,
                                   264            (default),
                                   265            (default,sc_flags.r_status)
    000150  00   000621 001710
    000151  0a   003746 000046
    000152  aa   440000 040026
                                   266
                                   267  request   message,sc_requests_$message,(motd),
                                   268            (Edit the message of the day.),
                                   269            (default),
                                   270            (sc_flags.r_edit_motd)
    000153  00   000624 001721
    000154  0a   003760 000034
    000155  aa   400000 000005
                                   271
                                   272  request   multics,sc_requests_$multics,(mult),
                                   273            (Initialize the Answering Service for a special session.),
                                   274            (default),
                                   275            (sc_flags.requires_no_as,sc_flags.complete_disks_first,sc_flags.r_master_console)
    000156  00   000627 001742
    000157  0a   003767 000067
    000160  aa   400000 030001
                                   276
                                   277  request   no_start_up,sc_requests_$no_start_up,(ns),
                                   278            (Disables execution of the system_start_up exec_com.),
                                   279            (default),
                                   280            (sc_flags.requires_no_as,sc_flags.r_master_console)
    000161  00   000632 001763
    000162  0a   004005 000063
    000163  aa   400000 020001
                                   281
                                   282  request	quit,sc_requests_$quit,(),
                                   283  	(Send a quit signal to a daemon process.),
                                   284  	(default),
                                   285  	(default,sc_flags.r_reply)
    000164  00   000635 002004
    000165  0a   004022 000047
    000166  aa   400000 040004
                                   286
                                   287  admin_request rcp,admin_$rcp,(),
                                   288            (Control RCP.),
                                   289            (default),
                                   290            (default,sc_flags.r_rcp_control)
                                        multics_request	rcp,(),(Control RCP.),admin_$rcp,(default),(default,sc_flags.r_rcp_control)
    000167  00   000640 002015
    000170  0a   004034 000014
    000171  aa   440000 040022
                                   291
                                   292  request   reply,sc_requests_$reply,(r),
                                   293            (Send input to a daemon process.),
                                   294            (default),
                                   295            (default,sc_flags.dont_parse_arguments+sc_flags.r_reply)
    000172  00   000643 002026
    000173  0a   004037 000037
    000174  aa   400000 440004
                                   296
                                   297  admin_request reroute,operator_mc_cmds_$reroute,(),
                                   298            (Change the routing of a source stream.),
                                   299            (default),
                                   300            (default,sc_flags.r_route_messages)
                                        multics_request	reroute,(),(Change the routing of a source stream.),operator_mc_cmds_$reroute,(default),(default,sc_flags.r_route_messages)
    000175  00   000646 002047
    000176  0a   004047 000046
    000177  aa   440000 040037
                                   301
                                   302  admin_request route,operator_mc_cmds_$route,(),
                                   303            (Route a source stream to a virtual console.),
                                   304            (default),
                                   305            (default,sc_flags.r_route_messages)
                                        multics_request	route,(),(Route a source stream to a virtual console.),operator_mc_cmds_$route,(default),(default,sc_flags.r_route_messages)
    000200  00   000651 002060
    000201  0a   004061 000053
    000202  aa   440000 040037
                                   306
                                   307  request	sign_off,sc_requests_$sign_off,(),
                                   308  	(Sign out as operator.),
                                   309  	(default),
                                   310  	(default)
    000203  00   000654 002071
    000204  0a   004074 000025
    000205  aa   400000 040000
                                   311
                                   312  request	sign_on,sc_requests_$sign_on,(),
                                   313  	(Sign in as operator.),
                                   314  	(default),
                                   315  	(default,sc_flags.no_login_needed,sc_flags.dont_mask_calls)
    000206  00   000657 002102
    000207  0a   004102 000024
    000210  aa   400000 144000
                                   316
                                   317  admin_request redefine,operator_mc_cmds_$redefine,(),
                                   318            (Replace the disposition of a virtual console.),
                                   319            (default),
                                   320            (default,sc_flags.r_route_messages)
                                        multics_request	redefine,(),(Replace the disposition of a virtual console.),operator_mc_cmds_$redefine,(default),(default,sc_flags.r_route_messages)
    000211  00   000662 002113
    000212  0a   004107 000055
    000213  aa   440000 040037
                                   321
                                   322  admin_request remove,operator_com_channel_cmds_$remove,(),
                                   323            (Remove a channel from use.),
                                   324            (default),
                                   325            (default,sc_flags.r_channel_control)
                                        multics_request	remove,(),(Remove a channel from use.),operator_com_channel_cmds_$remove,(default),(default,sc_flags.r_channel_control)
    000214  00   000665 002124
    000215  0a   004123 000032
    000216  aa   440000 040035
                                   326
                                   327  request   reset,sc_requests_$reset,(),
                                   328            (Reset some Answering Service locks and masks.),
                                   329            (default),
                                   330            (default,sc_flags.r_reset_sc)
    000217  00   000670 002135
    000220  0a   004132 000055
    000221  aa   400000 040003
                                   331
                                   332  multics_request     salvage_vol,(),
                                   333            (Physical volume salvage a volume.),
                                   334            salv_caller$packsalv,
                                   335            (default),
                                   336            (sc_flags.r_master_console)
    000222  00   000673 002146
    000223  0a   004146 000041
    000224  aa   440000 000001
                                   337
                                   338  request	set_time_zone,sc_requests_$set_time_zone,(stz),
                                   339  	(Set the system time zone.),
                                   340  	(default),
                                   341  	(sc_flags.r_master_console)
    000225  00   000676 002157
    000226  0a   004157 000031
    000227  aa   400000 000001
                                   342
                                   343  request   shutdown,sc_requests_$shutdown,(shut),
                                   344            (Shut down the system.),
                                   345            (default),
                                   346            (sc_flags.r_master_console,sc_flags.dont_mask_calls)
    000230  00   000701 002200
    000231  0a   004166 000025
    000232  aa   400000 100001
                                   347
                                   348  request   startup,sc_requests_$startup,(star),
                                   349            (Start the Answering Service and begin answering lines.),
                                   350            (default),
                                   351            (sc_flags.requires_no_as,sc_flags.complete_disks_first,sc_flags.r_master_console)
    000233  00   000704 002221
    000234  0a   004174 000066
    000235  aa   400000 030001
                                   352
                                   353  admin_request stop,admin_$stop,(),
                                   354            (Bump users in preparation for system shutdown.),
                                   355            (default),
                                   356            (default,sc_flags.r_down_ok)
                                        multics_request	stop,(),(Bump users in preparation for system shutdown.),admin_$stop,(default),(default,sc_flags.r_down_ok)
    000236  00   000707 002242
    000237  0a   004212 000056
    000240  aa   440000 040032
                                   357
                                   358  admin_request substty,operator_mc_cmds_$substty,(),
                                   359            (Substitute one message coordinator terminal for another.),
                                   360            (default),
                                   361            (default,sc_flags.r_route_messages)
                                        multics_request	substty,(),(Substitute one message coordinator terminal for another.),operator_mc_cmds_$substty,(default),(default,sc_flags.r_route_messages)
    000241  00   000712 002253
    000242  0a   004226 000070
    000243  aa   440000 040037
                                   362
                                   363  admin_request sysid,admin_$sysid,(),
                                   364            (Changes the system ID.),
                                   365            (default),
                                   366            (default,sc_flags.r_mod_sysid)
                                        multics_request	sysid,(),(Changes the system ID.),admin_$sysid,(default),(default,sc_flags.r_mod_sysid)
    000244  00   000715 002264
    000245  0a   004244 000026
    000246  aa   440000 040031
                                   367
                                   368  admin_request terminate,operator_process_cmds_$terminate,(),
                                   369            (Forcibly terminate a process.),
                                   370            (default),
                                   371            (default,sc_flags.r_as_control)
                                        multics_request	terminate,(),(Forcibly terminate a process.),operator_process_cmds_$terminate,(default),(default,sc_flags.r_as_control)
    000247  00   000720 002275
    000250  0a   004252 000035
    000251  aa   440000 040002
                                   372
                                   373  admin_request unbump,operator_process_cmds_$unbump,(),
                                   374            (Cancel a bump of an interactive user.),
                                   375            (default),
                                   376            (default,sc_flags.r_as_control)
                                        multics_request	unbump,(),(Cancel a bump of an interactive user.),operator_process_cmds_$unbump,(default),(default,sc_flags.r_as_control)
    000252  00   000723 002306
    000253  0a   004262 000045
    000254  aa   440000 040002
                                   377
                                   378  admin_request undefine,operator_mc_cmds_$undefine,(),
                                   379            (Remove a disposition from a virtual console.),
                                   380            (default),
                                   381            (default,sc_flags.r_route_messages)
                                        multics_request	undefine,(),(Remove a disposition from a virtual console.),operator_mc_cmds_$undefine,(default),(default,sc_flags.r_route_messages)
    000255  00   000726 002317
    000256  0a   004274 000054
    000257  aa   440000 040037
                                   382
                                   383  obsolete_multics_request    load_fnp,,admin_$load_fnp,
                                   384            (default,sc_flags.r_mpx_control)

                                                  multics_request     load_fnp,(),(),admin_$load_fnp,(flags.dont_summarize,flags.dont_list,flags.allow_command),(sc_flags.obsolete,default,sc_flags.r_mpx_control)
    000260  00   000731 002330
                        000000
    000261  0a   004307 000000
    000262  aa   470000 240007
                                   385
                                   386  obsolete_multics_request    fdump_fnp,,admin_$fdump_fnp,
                                   387            (default,sc_flags.r_mpx_control)

                                                  multics_request     fdump_fnp,(),(),admin_$fdump_fnp,(flags.dont_summarize,flags.dont_list,flags.allow_command),(sc_flags.obsolete,default,sc_flags.r_mpx_control)
    000263  00   000734 002341
                        000000
    000264  0a   004307 000000
    000265  aa   470000 240007
                                   388
                                   389  obsolete_multics_request    start_fnp,,admin_$start_fnp,
                                   390            (default,sc_flags.r_mpx_control)

                                                  multics_request     start_fnp,(),(),admin_$start_fnp,(flags.dont_summarize,flags.dont_list,flags.allow_command),(sc_flags.obsolete,default,sc_flags.r_mpx_control)
    000266  00   000737 002352
                        000000
    000267  0a   004307 000000
    000270  aa   470000 240007
                                   391
                                   392  obsolete_multics_request    stop_fnp,,admin_$stop_fnp,
                                   393            (default,sc_flags.r_mpx_control)

                                                  multics_request     stop_fnp,(),(),admin_$stop_fnp,(flags.dont_summarize,flags.dont_list,flags.allow_command),(sc_flags.obsolete,default,sc_flags.r_mpx_control)
    000271  00   000742 002363
                        000000
    000272  0a   004307 000000
    000273  aa   470000 240007
                                   394
                                   395  multics_request     set_drive_usage,(sdu),
                                   396            (Change a disk between user I/O and Storage System use.),
                                   397            disk_table_$io_ss_reconfig,
                                   398            (default),
                                   399            (sc_flags.r_master_console)
    000274  00   000745 002374
    000275  0a   004307 000066
    000276  aa   440000 000001
                                   400
                                   401  multics_request     preload,(),
                                   402            (Preload a disk or tape volume.),
                                   403            rcp_op_cmnd_$preload,
                                   404            (default),
                                   405            (sc_flags.r_rcp_control)
    000277  00   000750 002415
    000300  0a   004325 000036
    000301  aa   440000 000022
                                   406
                                   407  multics_request     unload,(),
                                   408            (Unload a disk or tape volume.),
                                   409            rcp_op_cmnd_$unload,
                                   410            (default),
                                   411            (sc_flags.r_rcp_control)
    000302  00   000753 002426
    000303  0a   004335 000035
    000304  aa   440000 000022
                                   412
                                   413  obsolete_multics_request    dump_fnp,,admin_$dump_fnp,
                                   414            (default,sc_flags.r_mpx_control)

                                                  multics_request     dump_fnp,(),(),admin_$dump_fnp,(flags.dont_summarize,flags.dont_list,flags.allow_command),(sc_flags.obsolete,default,sc_flags.r_mpx_control)
    000305  00   000756 002437
                        000000
    000306  0a   004345 000000
    000307  aa   470000 240007
                                   415
                                   416  admin_request load_mpx,admin_$load_mpx,(),
                                   417            (Loads a multiplexer.),
                                   418            (default),
                                   419            (default,sc_flags.r_mpx_control)
                                        multics_request	load_mpx,(),(Loads a multiplexer.),admin_$load_mpx,(default),(default,sc_flags.r_mpx_control)
    000310  00   000761 002450
    000311  0a   004345 000024
    000312  aa   440000 040007
                                   420
                                   421  admin_request dump_mpx,admin_$dump_mpx,(),
                                   422            (Dumps a multiplexer.),
                                   423            (default),
                                   424            (default,sc_flags.r_mpx_control)
                                        multics_request	dump_mpx,(),(Dumps a multiplexer.),admin_$dump_mpx,(default),(default,sc_flags.r_mpx_control)
    000313  00   000764 002461
    000314  0a   004352 000024
    000315  aa   440000 040007
                                   425
                                   426  admin_request start_mpx,admin_$start_mpx,(),
                                   427            (Starts a multiplexer.),
                                   428            (default),
                                   429            (default,sc_flags.r_mpx_control)
                                        multics_request	start_mpx,(),(Starts a multiplexer.),admin_$start_mpx,(default),(default,sc_flags.r_mpx_control)
    000316  00   000767 002472
    000317  0a   004357 000025
    000320  aa   440000 040007
                                   430
                                   431  admin_request stop_mpx,admin_$stop_mpx,(),
                                   432            (Stops a multiplexer from accepting new calls.),
                                   433            (default),
                                   434            (sc_flags.r_mpx_control)
                                        multics_request	stop_mpx,(),(Stops a multiplexer from accepting new calls.),admin_$stop_mpx,(default),(sc_flags.r_mpx_control)
    000321  00   000772 002503
    000322  0a   004365 000055
    000323  aa   440000 000007
                                   435
                                   436  multics_request     add_pdir_volume,(),
                                   437            (Adds a logical volume to the set of pdir volumes.),
                                   438            pdir_volume_manager_$add_pdv,
                                   439            (default),
                                   440            (sc_flags.r_master_console)
    000324  00   000775 002514
    000325  0a   004401 000061
    000326  aa   440000 000001
                                   441
                                   442  multics_request     del_pdir_volume,(),
                                   443            (Deletes a logical volume from the set of pdir volumes.),
                                   444            pdir_volume_manager_$del_pdv,
                                   445            (default),
                                   446            (sc_flags.r_master_console)
    000327  00   001000 002525
    000330  0a   004416 000066
    000331  aa   440000 000001
                                   447
                                   448  multics_request     set_pdir_volumes,(),
                                   449            (Specifies the set of pdir logical volumes.),
                                   450            pdir_volume_manager_$set_pdv,
                                   451            (default),
                                   452            (sc_flags.r_master_console)
    000332  00   001003 002536
    000333  0a   004434 000052
    000334  aa   440000 000001
                                   453
                                   454  admin_request log,admin_$log,(),
                                   455            (Adds a message to the system log.),
                                   456            (default),
                                   457            (0)
                                        multics_request	log,(),(Adds a message to the system log.),admin_$log,(default),(0)
    000335  00   001006 002547
    000336  0a   004447 000041
    000337  aa   440000 000000
                                   458
                                   459  admin_request shift,admin_$shift,(),
                                   460            (Changes the shift.),
                                   461            (default),
                                   462            (default,sc_flags.r_as_control)
                                        multics_request	shift,(),(Changes the shift.),admin_$shift,(default),(default,sc_flags.r_as_control)
    000340  00   001011 002560
    000341  0a   004460 000022
    000342  aa   440000 040002
                                   463
                                   464  admin_request disconnect,operator_process_cmds_$disconnect,(),
                                   465            (Forcibly disconnects a user from their terminal.),
                                   466            (default),
                                   467            (default,sc_flags.r_as_control)
                                        multics_request	disconnect,(),(Forcibly disconnects a user from their terminal.),operator_process_cmds_$disconnect,(default),(default,sc_flags.r_as_control)
    000343  00   001014 002571
    000344  0a   004465 000060
    000345  aa   440000 040002
                                   468
                                   469  multics_request     vacate_pdir_volume,(),
                                   470            (Moves all user process directories off of a logical volume.),
                                   471            pdir_volume_manager_$vac_pdv,
                                   472            (default),
                                   473            (default,sc_flags.r_master_console)
    000346  00   001017 002602
    000347  0a   004501 000073
    000350  aa   440000 040001
                                   474
                                   475  admin_request shutdown_mpx,admin_$shutdown_mpx,(),
                                   476            (Shuts down a multiplexer without dumping it.),
                                   477            (default),
                                   478            (default,sc_flags.r_mpx_control)
                                        multics_request	shutdown_mpx,(),(Shuts down a multiplexer without dumping it.),admin_$shutdown_mpx,(default),(default,sc_flags.r_mpx_control)
    000351  00   001022 002613
    000352  0a   004520 000054
    000353  aa   440000 040007
                                   479
                                   480  request   reconfigure,reconfigure$sc_reconfigure_request,(rcf),
                                   481  	(Reconfigures system hardware.),
                                   482  	(default),
                                   483  	(sc_flags.r_reconfig_system)
    000354  00   001025 002624
    000355  0a   004533 000035
    000356  aa   400000 000023
                                   484
                                   485
                                   486  request   lock_mca,lock_mca$sc_lock_mca,(),
                                   487  	(Disable input to the MCAs.),
                                   488  	(default),
                                   489  	(sc_flags.r_reconfig_system)
    000357  00   001030 002645
    000360  0a   004543 000032
    000361  aa   400000 000023
                                   490
                                   491  request   unlock_mca,lock_mca$sc_unlock_mca,(),
                                   492  	(Enable input to a selected MCA.),
                                   493  	(default),
                                   494  	(sc_flags.r_reconfig_system)
    000362  00   001033 002656
    000363  0a   004552 000037
    000364  aa   400000 000023
                                   495
                                   496  admin_request warn,admin_$warn,(w),
                                   497            (Sends a warning blast to a user.),
                                   498            (default),
                                   499            (default,sc_flags.r_as_control)
                                        multics_request	warn,(w),(Sends a warning blast to a user.),admin_$warn,(default),(default,sc_flags.r_as_control)
    000365  00   001036 002667
    000366  0a   004562 000040
    000367  aa   440000 040002
                                   500
                                   501  multics_request     who,(),
                                   502            (Lists logged in user.),
                                   503            as_who$long,
                                   504            (default),
                                   505            (default,sc_flags.r_status)
    000370  00   001041 002710
    000371  0a   004572 000025
    000372  aa   440000 040026
                                   506
                                   507  admin_request word,admin_$word,(),
                                   508            (Changes the login word and banner message.),
                                   509            (default),
                                   510            (default,sc_flags.r_loginword)
                                        multics_request	word,(),(Changes the login word and banner message.),admin_$word,(default),(default,sc_flags.r_loginword)
    000373  00   001044 002721
    000374  0a   004600 000052
    000375  aa   440000 040030
                                   511
                                   512  request	.,sc_requests_$self_identify,
                                   513  	(),
                                   514  	(Identify the signed-on operator.),
                                   515  	(default),
                                   516  	(sc_flags.no_login_needed)
    000376  00   001047 002732
    000377  0a   004613 000040
    000400  aa   400000 004000
                                   517
                                   518  request	help,ssu_requests_$help,
                                   519  	(),
                                   520  	(Obtain information on the operator commands.),
                                   521  	(default),
                                   522  	(sc_flags.dont_mask_calls)
    000401  00   001052 002743
    000402  0a   004623 000054
    000403  aa   400000 100000
                                   523
                                   524  obsolete_multics_request      addmain,,obs_reconfigure$addmain,
                                   525            (sc_flags.r_master_console)

                                                  multics_request     addmain,(),(),obs_reconfigure$addmain,(flags.dont_summarize,flags.dont_list,flags.allow_command),(sc_flags.obsolete,sc_flags.r_master_console)
    000404  00   001055 002754
                        000000
    000405  0a   004636 000000
    000406  aa   470000 200001
                                   526
                                   527  obsolete_multics_request      addcpu,,obs_reconfigure$addcpu,
                                   528            (sc_flags.r_master_console)

                                                  multics_request     addcpu,(),(),obs_reconfigure$addcpu,(flags.dont_summarize,flags.dont_list,flags.allow_command),(sc_flags.obsolete,sc_flags.r_master_console)
    000407  00   001060 002765
                        000000
    000410  0a   004636 000000
    000411  aa   470000 200001
                                   529
                                   530  obsolete_multics_request      addmem,,obs_reconfigure$addmem,
                                   531            (sc_flags.r_master_console)

                                                  multics_request     addmem,(),(),obs_reconfigure$addmem,(flags.dont_summarize,flags.dont_list,flags.allow_command),(sc_flags.obsolete,sc_flags.r_master_console)
    000412  00   001063 002776
                        000000
    000413  0a   004636 000000
    000414  aa   470000 200001
                                   532
                                   533  obsolete_multics_request      adddev,,reconfigure_rcp$add_device,
                                   534            (sc_flags.r_master_console)

                                                  multics_request     adddev,(),(),reconfigure_rcp$add_device,(flags.dont_summarize,flags.dont_list,flags.allow_command),(sc_flags.obsolete,sc_flags.r_master_console)
    000415  00   001066 003007
                        000000
    000416  0a   004636 000000
    000417  aa   470000 200001
                                   535
                                   536  obsolete_multics_request      delmain,,obs_reconfigure$delmain,
                                   537            (sc_flags.r_master_console)

                                                  multics_request     delmain,(),(),obs_reconfigure$delmain,(flags.dont_summarize,flags.dont_list,flags.allow_command),(sc_flags.obsolete,sc_flags.r_master_console)
    000420  00   001071 003020
                        000000
    000421  0a   004636 000000
    000422  aa   470000 200001
                                   538
                                   539  obsolete_multics_request      delcpu,,obs_reconfigure$delcpu,
                                   540            (sc_flags.r_master_console)

                                                  multics_request     delcpu,(),(),obs_reconfigure$delcpu,(flags.dont_summarize,flags.dont_list,flags.allow_command),(sc_flags.obsolete,sc_flags.r_master_console)
    000423  00   001074 003031
                        000000
    000424  0a   004636 000000
    000425  aa   470000 200001
                                   541
                                   542  obsolete_multics_request      delmem,,obs_reconfigure$delmem,
                                   543            (sc_flags.r_master_console)

                                                  multics_request     delmem,(),(),obs_reconfigure$delmem,(flags.dont_summarize,flags.dont_list,flags.allow_command),(sc_flags.obsolete,sc_flags.r_master_console)
    000426  00   001077 003042
                        000000
    000427  0a   004636 000000
    000430  aa   470000 200001
                                   544
                                   545  obsolete_multics_request      deldev,,reconfigure_rcp$del_device,
                                   546            (sc_flags.r_master_console)

                                                  multics_request     deldev,(),(),reconfigure_rcp$del_device,(flags.dont_summarize,flags.dont_list,flags.allow_command),(sc_flags.obsolete,sc_flags.r_master_console)
    000431  00   001102 003053
                        000000
    000432  0a   004636 000000
    000433  aa   470000 200001
                                   547
                                   548  	unknown_request	abbrev,(ab)
    000434  00   001105 003064
    000435  aa   000000 000000
    000436  aa   004000 000000
                                   549  	unknown_request	execute,(e)
    000437  00   001110 003105
    000440  aa   000000 000000
    000441  aa   004000 000000
                                   550  	unknown_request	exec_com,(ec)
    000442  00   001113 003126
    000443  aa   000000 000000
    000444  aa   004000 000000
                                   551  	unknown_request	if
    000445  00   001116 003147
    000446  aa   000000 000000
    000447  aa   004000 000000
                                   552  	unknown_request	ready,(rdy)
    000450  00   001121 003160
    000451  aa   000000 000000
    000452  aa   004000 000000
                                   553  	unknown_request	ready_on,(rdn)
    000453  00   001124 003201
    000454  aa   000000 000000
    000455  aa   004000 000000
                                   554  	unknown_request	ready_off,(rdf)
    000456  00   001127 003222
    000457  aa   000000 000000
    000460  aa   004000 000000
                                   555  	unknown_request     subsystem_name
    000461  00   001132 003243
    000462  aa   000000 000000
    000463  aa   004000 000000
                                   556  	unknown_request     subsystem_version
    000464  00   001135 003254
    000465  aa   000000 000000
    000466  aa   004000 000000
                                   557  	unknown_request	debug_mode
    000467  00   001140 003265
    000470  aa   000000 000000
    000471  aa   004000 000000
                                   558
                                   559            end_table system_control_requests
                                   560            end

NO LITERALS

NAME DEFINITIONS FOR ENTRY POINTS AND SEGDEFS

    004636  5a   000003 000000
    004637  5a   000033 600000
    004640  aa   000000 000000
    004641  55   000013 000002
    004642  5a   000002 400003
    004643  55   000006 000013
    004644  aa  021 163 143 137
    004645  aa  162 145 161 165
    004646  aa  145 163 164 137
    004647  aa  164 141 142 154
    004650  aa  145 137 000 000
    004651  55   000024 000003
    004652  0a   000000 400000
    004653  55   000016 000003
    004654  aa  027 163 171 163         system_control_requests
    004655  aa  164 145 155 137
    004656  aa  143 157 156 164
    004657  aa  162 157 154 137
    004660  aa  162 145 161 165
    004661  aa  145 163 164 163
    004662  55   000002 000013
    004663  6a   000000 400002
    004664  55   000027 000003
    004665  aa  014 163 171 155         symbol_table
    004666  aa  142 157 154 137
    004667  aa  164 141 142 154
    004670  aa  145 000 000 000

DEFINITIONS HASH TABLE

    004671  aa   000000 000015
    004672  aa   000000 000000
    004673  aa   000000 000000
    004674  aa   000000 000000
    004675  aa   000000 000000
    004676  aa   000000 000000
    004677  aa   000000 000000
    004700  5a   000024 000000
    004701  aa   000000 000000
    004702  aa   000000 000000
    004703  5a   000013 000000
    004704  aa   000000 000000
    004705  aa   000000 000000
    004706  aa   000000 000000

EXTERNAL NAMES

    004707  aa  017 165 156 153         unknown_request
    004710  aa  156 157 167 156
    004711  aa  137 162 145 161
    004712  aa  165 145 163 164
    004713  aa  004 163 163 165         ssu_
    004714  aa  137 000 000 000
    004715  aa  012 144 145 154         del_device
    004716  aa  137 144 145 166
    004717  aa  151 143 145 000
    004720  aa  006 144 145 154         delmem
    004721  aa  155 145 155 000
    004722  aa  006 144 145 154         delcpu
    004723  aa  143 160 165 000
    004724  aa  007 144 145 154         delmain
    004725  aa  155 141 151 156
    004726  aa  012 141 144 144         add_device
    004727  aa  137 144 145 166
    004730  aa  151 143 145 000
    004731  aa  017 162 145 143         reconfigure_rcp
    004732  aa  157 156 146 151
    004733  aa  147 165 162 145
    004734  aa  137 162 143 160
    004735  aa  006 141 144 144         addmem
    004736  aa  155 145 155 000
    004737  aa  006 141 144 144         addcpu
    004740  aa  143 160 165 000
    004741  aa  007 141 144 144         addmain
    004742  aa  155 141 151 156
    004743  aa  017 157 142 163         obs_reconfigure
    004744  aa  137 162 145 143
    004745  aa  157 156 146 151
    004746  aa  147 165 162 145
    004747  aa  004 150 145 154         help
    004750  aa  160 000 000 000
    004751  aa  015 163 163 165         ssu_requests_
    004752  aa  137 162 145 161
    004753  aa  165 145 163 164
    004754  aa  163 137 000 000
    004755  aa  015 163 145 154         self_identify
    004756  aa  146 137 151 144
    004757  aa  145 156 164 151
    004760  aa  146 171 000 000
    004761  aa  004 167 157 162         word
    004762  aa  144 000 000 000
    004763  aa  004 154 157 156         long
    004764  aa  147 000 000 000
    004765  aa  004 167 141 162         warn
    004766  aa  156 000 000 000
    004767  aa  015 163 143 137         sc_unlock_mca
    004770  aa  165 156 154 157
    004771  aa  143 153 137 155
    004772  aa  143 141 000 000
    004773  aa  013 163 143 137         sc_lock_mca
    004774  aa  154 157 143 153
    004775  aa  137 155 143 141
    004776  aa  010 154 157 143         lock_mca
    004777  aa  153 137 155 143
    005000  aa  141 000 000 000
    005001  aa  026 163 143 137         sc_reconfigure_request
    005002  aa  162 145 143 157
    005003  aa  156 146 151 147
    005004  aa  165 162 145 137
    005005  aa  162 145 161 165
    005006  aa  145 163 164 000
    005007  aa  013 162 145 143         reconfigure
    005010  aa  157 156 146 151
    005011  aa  147 165 162 145
    005012  aa  014 163 150 165         shutdown_mpx
    005013  aa  164 144 157 167
    005014  aa  156 137 155 160
    005015  aa  170 000 000 000
    005016  aa  007 166 141 143         vac_pdv
    005017  aa  137 160 144 166
    005020  aa  012 144 151 163         disconnect
    005021  aa  143 157 156 156
    005022  aa  145 143 164 000
    005023  aa  005 163 150 151         shift
    005024  aa  146 164 000 000
    005025  aa  003 154 157 147         log
    005026  aa  007 163 145 164         set_pdv
    005027  aa  137 160 144 166
    005030  aa  007 144 145 154         del_pdv
    005031  aa  137 160 144 166
    005032  aa  007 141 144 144         add_pdv
    005033  aa  137 160 144 166
    005034  aa  024 160 144 151         pdir_volume_manager_
    005035  aa  162 137 166 157
    005036  aa  154 165 155 145
    005037  aa  137 155 141 156
    005040  aa  141 147 145 162
    005041  aa  137 000 000 000
    005042  aa  010 163 164 157         stop_mpx
    005043  aa  160 137 155 160
    005044  aa  170 000 000 000
    005045  aa  011 163 164 141         start_mpx
    005046  aa  162 164 137 155
    005047  aa  160 170 000 000
    005050  aa  010 144 165 155         dump_mpx
    005051  aa  160 137 155 160
    005052  aa  170 000 000 000
    005053  aa  010 154 157 141         load_mpx
    005054  aa  144 137 155 160
    005055  aa  170 000 000 000
    005056  aa  010 144 165 155         dump_fnp
    005057  aa  160 137 146 156
    005060  aa  160 000 000 000
    005061  aa  006 165 156 154         unload
    005062  aa  157 141 144 000
    005063  aa  007 160 162 145         preload
    005064  aa  154 157 141 144
    005065  aa  014 162 143 160         rcp_op_cmnd_
    005066  aa  137 157 160 137
    005067  aa  143 155 156 144
    005070  aa  137 000 000 000
    005071  aa  016 151 157 137         io_ss_reconfig
    005072  aa  163 163 137 162
    005073  aa  145 143 157 156
    005074  aa  146 151 147 000
    005075  aa  010 163 164 157         stop_fnp
    005076  aa  160 137 146 156
    005077  aa  160 000 000 000
    005100  aa  011 163 164 141         start_fnp
    005101  aa  162 164 137 146
    005102  aa  156 160 000 000
    005103  aa  011 146 144 165         fdump_fnp
    005104  aa  155 160 137 146
    005105  aa  156 160 000 000
    005106  aa  010 154 157 141         load_fnp
    005107  aa  144 137 146 156
    005110  aa  160 000 000 000
    005111  aa  010 165 156 144         undefine
    005112  aa  145 146 151 156
    005113  aa  145 000 000 000
    005114  aa  006 165 156 142         unbump
    005115  aa  165 155 160 000
    005116  aa  011 164 145 162         terminate
    005117  aa  155 151 156 141
    005120  aa  164 145 000 000
    005121  aa  005 163 171 163         sysid
    005122  aa  151 144 000 000
    005123  aa  007 163 165 142         substty
    005124  aa  163 164 164 171
    005125  aa  004 163 164 157         stop
    005126  aa  160 000 000 000
    005127  aa  007 163 164 141         startup
    005130  aa  162 164 165 160
    005131  aa  010 163 150 165         shutdown
    005132  aa  164 144 157 167
    005133  aa  156 000 000 000
    005134  aa  015 163 145 164         set_time_zone
    005135  aa  137 164 151 155
    005136  aa  145 137 172 157
    005137  aa  156 145 000 000
    005140  aa  010 160 141 143         packsalv
    005141  aa  153 163 141 154
    005142  aa  166 000 000 000
    005143  aa  013 163 141 154         salv_caller
    005144  aa  166 137 143 141
    005145  aa  154 154 145 162
    005146  aa  005 162 145 163         reset
    005147  aa  145 164 000 000
    005150  aa  010 162 145 144         redefine
    005151  aa  145 146 151 156
    005152  aa  145 000 000 000
    005153  aa  007 163 151 147         sign_on
    005154  aa  156 137 157 156
    005155  aa  010 163 151 147         sign_off
    005156  aa  156 137 157 146
    005157  aa  146 000 000 000
    005160  aa  005 162 157 165         route
    005161  aa  164 145 000 000
    005162  aa  007 162 145 162         reroute
    005163  aa  157 165 164 145
    005164  aa  005 162 145 160         reply
    005165  aa  154 171 000 000
    005166  aa  003 162 143 160         rcp
    005167  aa  004 161 165 151         quit
    005170  aa  164 000 000 000
    005171  aa  013 156 157 137         no_start_up
    005172  aa  163 164 141 162
    005173  aa  164 137 165 160
    005174  aa  007 155 165 154         multics
    005175  aa  164 151 143 163
    005176  aa  007 155 145 163         message
    005177  aa  163 141 147 145
    005200  aa  007 155 143 137         mc_list
    005201  aa  154 151 163 164
    005202  aa  010 155 141 170         maxunits
    005203  aa  165 156 151 164
    005204  aa  163 000 000 000
    005205  aa  006 154 157 147         logout
    005206  aa  157 165 164 000
    005207  aa  005 154 157 147         login
    005210  aa  151 156 000 000
    005211  aa  011 154 151 163         list_vols
    005212  aa  164 137 166 157
    005213  aa  154 163 000 000
    005214  aa  013 141 164 164         attach_list
    005215  aa  141 143 150 137
    005216  aa  154 151 163 164
    005217  aa  013 154 166 137         lv_request_
    005220  aa  162 145 161 165
    005221  aa  145 163 164 137
    005222  aa  004 154 151 163         list
    005223  aa  164 000 000 000
    005224  aa  010 151 156 164         intercom
    005225  aa  145 162 143 157
    005226  aa  155 000 000 000
    005227  aa  017 151 156 151         initialize_disk
    005230  aa  164 151 141 154
    005231  aa  151 172 145 137
    005232  aa  144 151 163 153
    005233  aa  003 150 155 165         hmu
    005234  aa  006 141 163 137         as_who
    005235  aa  167 150 157 000
    005236  aa  002 147 157 000         go
    005237  aa  013 146 157 162         force_reset
    005240  aa  143 145 137 162
    005241  aa  145 163 145 164
    005242  aa  020 163 143 137         sc_exec_request_
    005243  aa  145 170 145 143
    005244  aa  137 162 145 161
    005245  aa  165 145 163 164
    005246  aa  137 000 000 000
    005247  aa  004 144 162 157         drop
    005250  aa  160 000 000 000
    005251  aa  004 144 157 167         down
    005252  aa  156 000 000 000
    005253  aa  006 144 145 164         detach
    005254  aa  141 143 150 000
    005255  aa  007 144 145 162         deroute
    005256  aa  157 165 164 145
    005257  aa  006 144 145 146         define
    005260  aa  151 156 145 000
    005261  aa  006 162 145 155         remove
    005262  aa  157 166 145 000
    005263  aa  014 144 145 155         demount_hvol
    005264  aa  157 165 156 164
    005265  aa  137 150 166 157
    005266  aa  154 000 000 000
    005267  aa  007 143 162 151         cripple
    005270  aa  160 160 154 145
    005271  aa  004 142 165 155         bump
    005272  aa  160 000 000 000
    005273  aa  026 157 160 145         operator_process_cmds_
    005274  aa  162 141 164 157
    005275  aa  162 137 160 162
    005276  aa  157 143 145 163
    005277  aa  163 137 143 155
    005300  aa  144 163 137 000
    005301  aa  003 142 143 145         bce
    005302  aa  014 163 143 137         sc_requests_
    005303  aa  162 145 161 165
    005304  aa  145 163 164 163
    005305  aa  137 000 000 000
    005306  aa  006 141 164 164         attach
    005307  aa  141 143 150 000
    005310  aa  032 157 160 145         operator_com_channel_cmds_
    005311  aa  162 141 164 157
    005312  aa  162 137 143 157
    005313  aa  155 137 143 150
    005314  aa  141 156 156 145
    005315  aa  154 137 143 155
    005316  aa  144 163 137 000
    005317  aa  016 163 143 137         sc_admin_mode_
    005320  aa  141 144 155 151
    005321  aa  156 137 155 157
    005322  aa  144 145 137 000
    005323  aa  012 155 157 165         mount_hvol
    005324  aa  156 164 137 150
    005325  aa  166 157 154 000
    005326  aa  013 144 151 163         disk_table_
    005327  aa  153 137 164 141
    005330  aa  142 154 145 137
    005331  aa  013 141 143 143         accept_vchn
    005332  aa  145 160 164 137
    005333  aa  166 143 150 156
    005334  aa  006 141 143 143         accept
    005335  aa  145 160 164 000
    005336  aa  021 157 160 145         operator_mc_cmds_
    005337  aa  162 141 164 157
    005340  aa  162 137 155 143
    005341  aa  137 143 155 144
    005342  aa  163 137 000 000
    005343  aa  003 141 142 163         abs
    005344  aa  006 141 144 155         admin_
    005345  aa  151 156 137 000

NO TRAP POINTER WORDS

TYPE PAIR BLOCKS

    005346  aa   000004 000000
    005347  55   000055 000051
    005350  aa   000004 000000
    005351  55   000073 000057
    005352  aa   000004 000000
    005353  55   000105 000062
    005354  aa   000004 000000
    005355  55   000105 000064
    005356  aa   000004 000000
    005357  55   000105 000066
    005360  aa   000004 000000
    005361  55   000073 000070
    005362  aa   000004 000000
    005363  55   000105 000077
    005364  aa   000004 000000
    005365  55   000105 000101
    005366  aa   000004 000000
    005367  55   000105 000103
    005370  aa   000004 000000
    005371  55   000113 000111
    005372  aa   000004 000000
    005373  55   000444 000117
    005374  aa   000004 000000
    005375  55   000506 000123
    005376  aa   000004 000000
    005377  55   000376 000125
    005400  aa   000004 000000
    005401  55   000506 000127
    005402  aa   000004 000000
    005403  55   000140 000131
    005404  aa   000004 000000
    005405  55   000140 000135
    005406  aa   000004 000000
    005407  55   000151 000143
    005410  aa   000004 000000
    005411  55   000506 000154
    005412  aa   000004 000000
    005413  55   000176 000160
    005414  aa   000004 000000
    005415  55   000435 000162
    005416  aa   000004 000000
    005417  55   000506 000165
    005420  aa   000004 000000
    005421  55   000506 000167
    005422  aa   000004 000000
    005423  55   000176 000170
    005424  aa   000004 000000
    005425  55   000176 000172
    005426  aa   000004 000000
    005427  55   000176 000174
    005430  aa   000004 000000
    005431  55   000506 000204
    005432  aa   000004 000000
    005433  55   000506 000207
    005434  aa   000004 000000
    005435  55   000506 000212
    005436  aa   000004 000000
    005437  55   000506 000215
    005440  aa   000004 000000
    005441  55   000506 000220
    005442  aa   000004 000000
    005443  55   000227 000223
    005444  aa   000004 000000
    005445  55   000227 000225
    005446  aa   000004 000000
    005447  55   000470 000233
    005450  aa   000004 000000
    005451  55   000506 000237
    005452  aa   000004 000000
    005453  55   000506 000242
    005454  aa   000004 000000
    005455  55   000506 000245
    005456  aa   000004 000000
    005457  55   000506 000250
    005460  aa   000004 000000
    005461  55   000500 000253
    005462  aa   000004 000000
    005463  55   000435 000256
    005464  aa   000004 000000
    005465  55   000435 000260
    005466  aa   000004 000000
    005467  55   000506 000263
    005470  aa   000004 000000
    005471  55   000500 000265
    005472  aa   000004 000000
    005473  55   000506 000267
    005474  aa   000004 000000
    005475  55   000444 000271
    005476  aa   000004 000000
    005477  55   000444 000273
    005500  aa   000004 000000
    005501  55   000444 000276
    005502  aa   000004 000000
    005503  55   000305 000302
    005504  aa   000004 000000
    005505  55   000444 000310
    005506  aa   000004 000000
    005507  55   000452 000423
    005510  aa   000004 000000
    005511  55   000500 000312
    005512  aa   000004 000000
    005513  55   000444 000315
    005514  aa   000004 000000
    005515  55   000444 000317
    005516  aa   000004 000000
    005517  55   000500 000322
    005520  aa   000004 000000
    005521  55   000500 000324
    005522  aa   000004 000000
    005523  55   000444 000326
    005524  aa   000004 000000
    005525  55   000506 000330
    005526  aa   000004 000000
    005527  55   000444 000331
    005530  aa   000004 000000
    005531  55   000444 000333
    005532  aa   000004 000000
    005533  55   000444 000336
    005534  aa   000004 000000
    005535  55   000444 000340
    005536  aa   000004 000000
    005537  55   000342 000342
    005540  aa   000004 000000
    005541  55   000506 000344
    005542  aa   000004 000000
    005543  55   000506 000347
    005544  aa   000004 000000
    005545  55   000506 000351
    005546  aa   000004 000000
    005547  55   000353 000353
    005550  aa   000004 000000
    005551  55   000361 000356
    005552  aa   000004 000000
    005553  55   000470 000364
    005554  aa   000004 000000
    005555  55   000444 000366
    005556  aa   000004 000000
    005557  55   000470 000371
    005560  aa   000004 000000
    005561  55   000376 000375
    005562  aa   000004 000000
    005563  55   000444 000400
    005564  aa   000004 000000
    005565  55   000444 000401
    005566  aa   000004 000000
    005567  55   000404 000404
    005570  aa   000004 000000
    005571  55   000500 000411
    005572  aa   000004 000000
    005573  55   000506 000413
    005574  aa   000004 000000
    005575  55   000435 000415
    005576  aa   000004 000000
    005577  55   000500 000417
    005600  aa   000004 000000
    005601  55   000500 000421
    005602  aa   000004 000000
    005603  55   000470 000423
    005604  aa   000004 000000
    005605  55   000470 000425
    005606  aa   000004 000000
    005607  55   000444 000431
    005610  aa   000004 000000
    005611  55   000435 000433
    005612  aa   000004 000000
    005613  55   000444 000443
    005614  aa   000004 000000
    005615  55   000452 000450
    005616  aa   000004 000000
    005617  55   000461 000461
    005620  aa   000004 000000
    005621  55   000470 000476
    005622  aa   000004 000000
    005623  55   000470 000465
    005624  aa   000004 000000
    005625  55   000500 000473
    005626  aa   000004 000000
    005627  55   000500 000476
    005630  aa   000004 000000
    005631  55   000506 000505
    005632  aa   000001 000000
    005633  aa   000000 000000

INTERNAL EXPRESSION WORDS

    005634  5a   000510 000000
    005635  5a   000512 000000
    005636  5a   000514 000000
    005637  5a   000516 000000
    005640  5a   000520 000000
    005641  5a   000522 000000
    005642  5a   000524 000000
    005643  5a   000526 000000
    005644  5a   000530 000000
    005645  5a   000532 000000
    005646  5a   000534 000000
    005647  5a   000536 000000
    005650  5a   000540 000000
    005651  5a   000542 000000
    005652  5a   000544 000000
    005653  5a   000546 000000
    005654  5a   000550 000000
    005655  5a   000552 000000
    005656  5a   000554 000000
    005657  5a   000556 000000
    005660  5a   000560 000000
    005661  5a   000562 000000
    005662  5a   000564 000000
    005663  5a   000566 000000
    005664  5a   000570 000000
    005665  5a   000572 000000
    005666  5a   000574 000000
    005667  5a   000576 000000
    005670  5a   000600 000000
    005671  5a   000602 000000
    005672  5a   000604 000000
    005673  5a   000606 000000
    005674  5a   000610 000000
    005675  5a   000612 000000
    005676  5a   000614 000000
    005677  5a   000616 000000
    005700  5a   000620 000000
    005701  5a   000622 000000
    005702  5a   000624 000000
    005703  5a   000626 000000
    005704  5a   000630 000000
    005705  5a   000632 000000
    005706  5a   000634 000000
    005707  5a   000636 000000
    005710  5a   000640 000000
    005711  5a   000642 000000
    005712  5a   000644 000000
    005713  5a   000646 000000
    005714  5a   000650 000000
    005715  5a   000652 000000
    005716  5a   000654 000000
    005717  5a   000656 000000
    005720  5a   000660 000000
    005721  5a   000662 000000
    005722  5a   000664 000000
    005723  5a   000666 000000
    005724  5a   000670 000000
    005725  5a   000672 000000
    005726  5a   000674 000000
    005727  5a   000676 000000
    005730  5a   000700 000000
    005731  5a   000702 000000
    005732  5a   000704 000000
    005733  5a   000706 000000
    005734  5a   000710 000000
    005735  5a   000712 000000
    005736  5a   000714 000000
    005737  5a   000716 000000
    005740  5a   000720 000000
    005741  5a   000722 000000
    005742  5a   000724 000000
    005743  5a   000726 000000
    005744  5a   000730 000000
    005745  5a   000732 000000
    005746  5a   000734 000000
    005747  5a   000736 000000
    005750  5a   000740 000000
    005751  5a   000742 000000
    005752  5a   000744 000000
    005753  5a   000746 000000
    005754  5a   000750 000000
    005755  5a   000752 000000
    005756  5a   000754 000000
    005757  5a   000756 000000
    005760  5a   000760 000000
    005761  5a   000762 000000
    005762  5a   000764 000000
    005763  5a   000766 000000
    005764  5a   000770 000000
    005765  5a   000772 000000
LINKAGE INFORMATION

    000000  aa   000000 000000
    000001  0a   004636 000000
    000002  aa   000000 000000
    000003  aa   000000 000000
    000004  aa   000000 000000
    000005  aa   000000 000000
    000006  22   000010 000274
    000007  a2   000000 000000
    000010  9a   777770 0000 46         admin_|abs
    000011  5a   001127 0000 00
    000012  9a   777766 0000 46         operator_mc_cmds_|accept
    000013  5a   001126 0000 00
    000014  9a   777764 0000 46         operator_mc_cmds_|accept_vchn
    000015  5a   001125 0000 00
    000016  9a   777762 0000 46         disk_table_|mount_hvol
    000017  5a   001124 0000 00
    000020  9a   777760 0000 46         disk_table_|accept
    000021  5a   001123 0000 00
    000022  9a   777756 0000 46         sc_admin_mode_|sc_admin_mode_
    000023  5a   001122 0000 00
    000024  9a   777754 0000 46         operator_com_channel_cmds_|attach
    000025  5a   001121 0000 00
    000026  9a   777752 0000 46         sc_requests_|bce
    000027  5a   001120 0000 00
    000030  9a   777750 0000 46         operator_process_cmds_|bump
    000031  5a   001117 0000 00
    000032  9a   777746 0000 46         sc_requests_|cripple
    000033  5a   001116 0000 00
    000034  9a   777744 0000 46         disk_table_|demount_hvol
    000035  5a   001115 0000 00
    000036  9a   777742 0000 46         disk_table_|remove
    000037  5a   001114 0000 00
    000040  9a   777740 0000 46         operator_mc_cmds_|define
    000041  5a   001113 0000 00
    000042  9a   777736 0000 46         operator_mc_cmds_|deroute
    000043  5a   001112 0000 00
    000044  9a   777734 0000 46         operator_process_cmds_|detach
    000045  5a   001111 0000 00
    000046  9a   777732 0000 46         admin_|down
    000047  5a   001110 0000 00
    000050  9a   777730 0000 46         operator_mc_cmds_|drop
    000051  5a   001107 0000 00
    000052  9a   777726 0000 46         sc_exec_request_|sc_exec_request_
    000053  5a   001106 0000 00
    000054  9a   777724 0000 46         sc_requests_|force_reset
    000055  5a   001105 0000 00
    000056  9a   777722 0000 46         sc_requests_|go
    000057  5a   001104 0000 00
    000060  9a   777720 0000 46         as_who|hmu
    000061  5a   001103 0000 00
    000062  9a   777716 0000 46         disk_table_|initialize_disk
    000063  5a   001102 0000 00
    000064  9a   777714 0000 46         sc_requests_|intercom
    000065  5a   001101 0000 00
    000066  9a   777712 0000 46         disk_table_|list
    000067  5a   001100 0000 00
    000070  9a   777710 0000 46         lv_request_|attach_list
    000071  5a   001077 0000 00
    000072  9a   777706 0000 46         list_vols|list_vols
    000073  5a   001076 0000 00
    000074  9a   777704 0000 46         admin_|login
    000075  5a   001075 0000 00
    000076  9a   777702 0000 46         admin_|logout
    000077  5a   001074 0000 00
    000100  9a   777700 0000 46         admin_|maxunits
    000101  5a   001073 0000 00
    000102  9a   777676 0000 46         mc_list|mc_list
    000103  5a   001072 0000 00
    000104  9a   777674 0000 46         sc_requests_|message
    000105  5a   001071 0000 00
    000106  9a   777672 0000 46         sc_requests_|multics
    000107  5a   001070 0000 00
    000110  9a   777670 0000 46         sc_requests_|no_start_up
    000111  5a   001067 0000 00
    000112  9a   777666 0000 46         sc_requests_|quit
    000113  5a   001066 0000 00
    000114  9a   777664 0000 46         admin_|rcp
    000115  5a   001065 0000 00
    000116  9a   777662 0000 46         sc_requests_|reply
    000117  5a   001064 0000 00
    000120  9a   777660 0000 46         operator_mc_cmds_|reroute
    000121  5a   001063 0000 00
    000122  9a   777656 0000 46         operator_mc_cmds_|route
    000123  5a   001062 0000 00
    000124  9a   777654 0000 46         sc_requests_|sign_off
    000125  5a   001061 0000 00
    000126  9a   777652 0000 46         sc_requests_|sign_on
    000127  5a   001060 0000 00
    000130  9a   777650 0000 46         operator_mc_cmds_|redefine
    000131  5a   001057 0000 00
    000132  9a   777646 0000 46         operator_com_channel_cmds_|remove
    000133  5a   001056 0000 00
    000134  9a   777644 0000 46         sc_requests_|reset
    000135  5a   001055 0000 00
    000136  9a   777642 0000 46         salv_caller|packsalv
    000137  5a   001054 0000 00
    000140  9a   777640 0000 46         sc_requests_|set_time_zone
    000141  5a   001053 0000 00
    000142  9a   777636 0000 46         sc_requests_|shutdown
    000143  5a   001052 0000 00
    000144  9a   777634 0000 46         sc_requests_|startup
    000145  5a   001051 0000 00
    000146  9a   777632 0000 46         admin_|stop
    000147  5a   001050 0000 00
    000150  9a   777630 0000 46         operator_mc_cmds_|substty
    000151  5a   001047 0000 00
    000152  9a   777626 0000 46         admin_|sysid
    000153  5a   001046 0000 00
    000154  9a   777624 0000 46         operator_process_cmds_|terminate
    000155  5a   001045 0000 00
    000156  9a   777622 0000 46         operator_process_cmds_|unbump
    000157  5a   001044 0000 00
    000160  9a   777620 0000 46         operator_mc_cmds_|undefine
    000161  5a   001043 0000 00
    000162  9a   777616 0000 46         admin_|load_fnp
    000163  5a   001042 0000 00
    000164  9a   777614 0000 46         admin_|fdump_fnp
    000165  5a   001041 0000 00
    000166  9a   777612 0000 46         admin_|start_fnp
    000167  5a   001040 0000 00
    000170  9a   777610 0000 46         admin_|stop_fnp
    000171  5a   001037 0000 00
    000172  9a   777606 0000 46         disk_table_|io_ss_reconfig
    000173  5a   001036 0000 00
    000174  9a   777604 0000 46         rcp_op_cmnd_|preload
    000175  5a   001035 0000 00
    000176  9a   777602 0000 46         rcp_op_cmnd_|unload
    000177  5a   001034 0000 00
    000200  9a   777600 0000 46         admin_|dump_fnp
    000201  5a   001033 0000 00
    000202  9a   777576 0000 46         admin_|load_mpx
    000203  5a   001032 0000 00
    000204  9a   777574 0000 46         admin_|dump_mpx
    000205  5a   001031 0000 00
    000206  9a   777572 0000 46         admin_|start_mpx
    000207  5a   001030 0000 00
    000210  9a   777570 0000 46         admin_|stop_mpx
    000211  5a   001027 0000 00
    000212  9a   777566 0000 46         pdir_volume_manager_|add_pdv
    000213  5a   001026 0000 00
    000214  9a   777564 0000 46         pdir_volume_manager_|del_pdv
    000215  5a   001025 0000 00
    000216  9a   777562 0000 46         pdir_volume_manager_|set_pdv
    000217  5a   001024 0000 00
    000220  9a   777560 0000 46         admin_|log
    000221  5a   001023 0000 00
    000222  9a   777556 0000 46         admin_|shift
    000223  5a   001022 0000 00
    000224  9a   777554 0000 46         operator_process_cmds_|disconnect
    000225  5a   001021 0000 00
    000226  9a   777552 0000 46         pdir_volume_manager_|vac_pdv
    000227  5a   001020 0000 00
    000230  9a   777550 0000 46         admin_|shutdown_mpx
    000231  5a   001017 0000 00
    000232  9a   777546 0000 46         reconfigure|sc_reconfigure_request
    000233  5a   001016 0000 00
    000234  9a   777544 0000 46         lock_mca|sc_lock_mca
    000235  5a   001015 0000 00
    000236  9a   777542 0000 46         lock_mca|sc_unlock_mca
    000237  5a   001014 0000 00
    000240  9a   777540 0000 46         admin_|warn
    000241  5a   001013 0000 00
    000242  9a   777536 0000 46         as_who|long
    000243  5a   001012 0000 00
    000244  9a   777534 0000 46         admin_|word
    000245  5a   001011 0000 00
    000246  9a   777532 0000 46         sc_requests_|self_identify
    000247  5a   001010 0000 00
    000250  9a   777530 0000 46         ssu_requests_|help
    000251  5a   001007 0000 00
    000252  9a   777526 0000 46         obs_reconfigure|addmain
    000253  5a   001006 0000 00
    000254  9a   777524 0000 46         obs_reconfigure|addcpu
    000255  5a   001005 0000 00
    000256  9a   777522 0000 46         obs_reconfigure|addmem
    000257  5a   001004 0000 00
    000260  9a   777520 0000 46         reconfigure_rcp|add_device
    000261  5a   001003 0000 00
    000262  9a   777516 0000 46         obs_reconfigure|delmain
    000263  5a   001002 0000 00
    000264  9a   777514 0000 46         obs_reconfigure|delcpu
    000265  5a   001001 0000 00
    000266  9a   777512 0000 46         obs_reconfigure|delmem
    000267  5a   001000 0000 00
    000270  9a   777510 0000 46         reconfigure_rcp|del_device
    000271  5a   000777 0000 00
    000272  9a   777506 0000 46         ssu_|unknown_request
    000273  5a   000776 0000 00
SYMBOL INFORMATION

SYMBOL TABLE HEADER

    000000  aa   000000 000001
    000001  aa   163171 155142
    000002  aa   164162 145145
    000003  aa   000000 000010
    000004  aa   000000 117244
    000005  aa   361023 525721
    000006  aa   000000 117547
    000007  aa   243702 301605
    000010  aa   141154 155040
    000011  aa   040040 040040
    000012  aa   000024 000040
    000013  aa   000034 000040
    000014  aa   000044 000100
    000015  aa   000002 000002
    000016  aa   000064 000000
    000017  aa   000000 000615
    000020  aa   000000 000137
    000021  aa   000501 000440
    000022  aa   000605 000137
    000023  aa   000064 000000
    000024  aa   101114 115040
    000025  aa   126145 162163
    000026  aa   151157 156040
    000027  aa   070056 061064
    000030  aa   040115 141162
    000031  aa   143150 040061
    000032  aa   071070 071040
    000033  aa   040040 040040
    000034  aa   110151 162156
    000035  aa   145151 163145
    000036  aa   156056 123171
    000037  aa   163115 141151
    000040  aa   156164 056141
    000041  aa   040040 040040
    000042  aa   040040 040040
    000043  aa   040040 040040
    000044  aa   055164 141162
    000045  aa   147145 164040
    000046  aa   154066 070040
    000047  aa   040040 040040
    000050  aa   040040 040040
    000051  aa   040040 040040
    000052  aa   040040 040040
    000053  aa   040040 040040
    000054  aa   040040 040040
    000055  aa   040040 040040
    000056  aa   040154 151163
    000057  aa   164040 163171
    000060  aa   155142 157154
    000061  aa   163040 040040
    000062  aa   040040 040040
    000063  aa   040040 040040
    000064  aa   000000 000001
    000065  aa   000000 000003
    000066  aa   000102 000050
    000067  aa   175453 020332
    000070  aa   000000 117547
    000071  aa   177661 400000
    000072  aa   000114 000050
    000073  aa   133055 020064
    000074  aa   000000 113310
    000075  aa   612334 200000
    000076  aa   000126 000042
    000077  aa   147777 464111
    000100  aa   000000 115000
    000101  aa   507463 000000
    000102  aa   076163 160145          >spec>install>1112>sc_request_table_.alm
    000103  aa   143076 151156
    000104  aa   163164 141154
    000105  aa   154076 061061
    000106  aa   061062 076163
    000107  aa   143137 162145
    000110  aa   161165 145163
    000111  aa   164137 164141
    000112  aa   142154 145137
    000113  aa   056141 154155
    000114  aa   076154 144144          >ldd>include>ssu_request_macros.incl.alm
    000115  aa   076151 156143
    000116  aa   154165 144145
    000117  aa   076163 163165
    000120  aa   137162 145161
    000121  aa   165145 163164
    000122  aa   137155 141143
    000123  aa   162157 163056
    000124  aa   151156 143154
    000125  aa   056141 154155
    000126  aa   076154 144144          >ldd>include>stack_header.incl.alm
    000127  aa   076151 156143
    000130  aa   154165 144145
    000131  aa   076163 164141
    000132  aa   143153 137150
    000133  aa   145141 144145
    000134  aa   162056 151156
    000135  aa   143154 056141
    000136  aa   154155 040040
               MULTICS ASSEMBLY CROSS REFERENCE LISTING

   Value        Symbol                   Source file   Line number

         472    .._00000.call            sc_request_table_:  110.
        3276    .._00000.info            sc_request_table_:  110.
        1143    .._00000.names           sc_request_table_:  110.
         475    .._00001.call            sc_request_table_:  115.
        3306    .._00001.info            sc_request_table_:  115.
        1154    .._00001.names           sc_request_table_:  115.
         500    .._00002.call            sc_request_table_:  120.
        3323    .._00002.info            sc_request_table_:  120.
        1165    .._00002.names           sc_request_table_:  120.
         503    .._00003.call            sc_request_table_:  126.
        3337    .._00003.info            sc_request_table_:  126.
        1176    .._00003.names           sc_request_table_:  126.
         506    .._00004.call            sc_request_table_:  132.
        3347    .._00004.info            sc_request_table_:  132.
        1217    .._00004.names           sc_request_table_:  132.
         511    .._00005.call            sc_request_table_:  137.
        3365    .._00005.info            sc_request_table_:  137.
        1240    .._00005.names           sc_request_table_:  137.
         514    .._00006.call            sc_request_table_:  142.
        3372    .._00006.info            sc_request_table_:  142.
        1251    .._00006.names           sc_request_table_:  142.
         517    .._00007.call            sc_request_table_:  147.
        3404    .._00007.info            sc_request_table_:  147.
        1262    .._00007.names           sc_request_table_:  147.
         522    .._00010.call            sc_request_table_:  152.
        3410    .._00010.info            sc_request_table_:  152.
        1273    .._00010.names           sc_request_table_:  152.
         525    .._00011.call            sc_request_table_:  157.
        3423    .._00011.info            sc_request_table_:  157.
        1304    .._00011.names           sc_request_table_:  157.
         530    .._00012.call            sc_request_table_:  163.
        3443    .._00012.info            sc_request_table_:  163.
        1315    .._00012.names           sc_request_table_:  163.
         533    .._00013.call            sc_request_table_:  169.
        3452    .._00013.info            sc_request_table_:  169.
        1336    .._00013.names           sc_request_table_:  169.
         536    .._00014.call            sc_request_table_:  174.
        3461    .._00014.info            sc_request_table_:  174.
        1357    .._00014.names           sc_request_table_:  174.
         541    .._00015.call            sc_request_table_:  179.
        3503    .._00015.info            sc_request_table_:  179.
        1370    .._00015.names           sc_request_table_:  179.
         544    .._00016.call            sc_request_table_:  184.
        3514    .._00016.info            sc_request_table_:  184.
        1401    .._00016.names           sc_request_table_:  184.
         547    .._00017.call            sc_request_table_:  189.
        3532    .._00017.info            sc_request_table_:  189.
        1412    .._00017.names           sc_request_table_:  189.
         552    .._00020.call            sc_request_table_:  194.
        3550    .._00020.info            sc_request_table_:  194.
        1423    .._00020.names           sc_request_table_:  194.
         555    .._00021.call            sc_request_table_:  199.
        3567    .._00021.info            sc_request_table_:  199.
        1434    .._00021.names           sc_request_table_:  199.
         560    .._00022.call            sc_request_table_:  204.
        3577    .._00022.info            sc_request_table_:  204.
        1455    .._00022.names           sc_request_table_:  204.
         563    .._00023.call            sc_request_table_:  209.
        3613    .._00023.info            sc_request_table_:  209.
        1466    .._00023.names           sc_request_table_:  209.
         566    .._00024.call            sc_request_table_:  215.
        3621    .._00024.info            sc_request_table_:  215.
        1477    .._00024.names           sc_request_table_:  215.
         571    .._00025.call            sc_request_table_:  221.
        3633    .._00025.info            sc_request_table_:  221.
        1510    .._00025.names           sc_request_table_:  221.
         574    .._00026.call            sc_request_table_:  226.
        3644    .._00026.info            sc_request_table_:  226.
        1521    .._00026.names           sc_request_table_:  226.
         577    .._00027.call            sc_request_table_:  232.
        3662    .._00027.info            sc_request_table_:  232.
        1542    .._00027.names           sc_request_table_:  232.
         602    .._00030.call            sc_request_table_:  238.
        3671    .._00030.info            sc_request_table_:  238.
        1563    .._00030.names           sc_request_table_:  238.
         605    .._00031.call            sc_request_table_:  244.
        3703    .._00031.info            sc_request_table_:  244.
        1604    .._00031.names           sc_request_table_:  244.
         610    .._00032.call            sc_request_table_:  249.
        3714    .._00032.info            sc_request_table_:  249.
        1625    .._00032.names           sc_request_table_:  249.
         613    .._00033.call            sc_request_table_:  254.
        3723    .._00033.info            sc_request_table_:  254.
        1646    .._00033.names           sc_request_table_:  254.
         616    .._00034.call            sc_request_table_:  259.
        3732    .._00034.info            sc_request_table_:  259.
        1667    .._00034.names           sc_request_table_:  259.
         621    .._00035.call            sc_request_table_:  265.
        3746    .._00035.info            sc_request_table_:  265.
        1710    .._00035.names           sc_request_table_:  265.
         624    .._00036.call            sc_request_table_:  270.
        3760    .._00036.info            sc_request_table_:  270.
        1721    .._00036.names           sc_request_table_:  270.
         627    .._00037.call            sc_request_table_:  275.
        3767    .._00037.info            sc_request_table_:  275.
        1742    .._00037.names           sc_request_table_:  275.
         632    .._00040.call            sc_request_table_:  280.
        4005    .._00040.info            sc_request_table_:  280.
        1763    .._00040.names           sc_request_table_:  280.
         635    .._00041.call            sc_request_table_:  285.
        4022    .._00041.info            sc_request_table_:  285.
        2004    .._00041.names           sc_request_table_:  285.
         640    .._00042.call            sc_request_table_:  290.
        4034    .._00042.info            sc_request_table_:  290.
        2015    .._00042.names           sc_request_table_:  290.
         643    .._00043.call            sc_request_table_:  295.
        4037    .._00043.info            sc_request_table_:  295.
        2026    .._00043.names           sc_request_table_:  295.
         646    .._00044.call            sc_request_table_:  300.
        4047    .._00044.info            sc_request_table_:  300.
        2047    .._00044.names           sc_request_table_:  300.
         651    .._00045.call            sc_request_table_:  305.
        4061    .._00045.info            sc_request_table_:  305.
        2060    .._00045.names           sc_request_table_:  305.
         654    .._00046.call            sc_request_table_:  310.
        4074    .._00046.info            sc_request_table_:  310.
        2071    .._00046.names           sc_request_table_:  310.
         657    .._00047.call            sc_request_table_:  315.
        4102    .._00047.info            sc_request_table_:  315.
        2102    .._00047.names           sc_request_table_:  315.
         662    .._00050.call            sc_request_table_:  320.
        4107    .._00050.info            sc_request_table_:  320.
        2113    .._00050.names           sc_request_table_:  320.
         665    .._00051.call            sc_request_table_:  325.
        4123    .._00051.info            sc_request_table_:  325.
        2124    .._00051.names           sc_request_table_:  325.
         670    .._00052.call            sc_request_table_:  330.
        4132    .._00052.info            sc_request_table_:  330.
        2135    .._00052.names           sc_request_table_:  330.
         673    .._00053.call            sc_request_table_:  336.
        4146    .._00053.info            sc_request_table_:  336.
        2146    .._00053.names           sc_request_table_:  336.
         676    .._00054.call            sc_request_table_:  341.
        4157    .._00054.info            sc_request_table_:  341.
        2157    .._00054.names           sc_request_table_:  341.
         701    .._00055.call            sc_request_table_:  346.
        4166    .._00055.info            sc_request_table_:  346.
        2200    .._00055.names           sc_request_table_:  346.
         704    .._00056.call            sc_request_table_:  351.
        4174    .._00056.info            sc_request_table_:  351.
        2221    .._00056.names           sc_request_table_:  351.
         707    .._00057.call            sc_request_table_:  356.
        4212    .._00057.info            sc_request_table_:  356.
        2242    .._00057.names           sc_request_table_:  356.
         712    .._00060.call            sc_request_table_:  361.
        4226    .._00060.info            sc_request_table_:  361.
        2253    .._00060.names           sc_request_table_:  361.
         715    .._00061.call            sc_request_table_:  366.
        4244    .._00061.info            sc_request_table_:  366.
        2264    .._00061.names           sc_request_table_:  366.
         720    .._00062.call            sc_request_table_:  371.
        4252    .._00062.info            sc_request_table_:  371.
        2275    .._00062.names           sc_request_table_:  371.
         723    .._00063.call            sc_request_table_:  376.
        4262    .._00063.info            sc_request_table_:  376.
        2306    .._00063.names           sc_request_table_:  376.
         726    .._00064.call            sc_request_table_:  381.
        4274    .._00064.info            sc_request_table_:  381.
        2317    .._00064.names           sc_request_table_:  381.
         731    .._00065.call            sc_request_table_:  384.
        4307    .._00065.info            sc_request_table_:  384.
        2330    .._00065.names           sc_request_table_:  384.
         734    .._00066.call            sc_request_table_:  387.
        4307    .._00066.info            sc_request_table_:  387.
        2341    .._00066.names           sc_request_table_:  387.
         737    .._00067.call            sc_request_table_:  390.
        4307    .._00067.info            sc_request_table_:  390.
        2352    .._00067.names           sc_request_table_:  390.
         742    .._00070.call            sc_request_table_:  393.
        4307    .._00070.info            sc_request_table_:  393.
        2363    .._00070.names           sc_request_table_:  393.
         745    .._00071.call            sc_request_table_:  399.
        4307    .._00071.info            sc_request_table_:  399.
        2374    .._00071.names           sc_request_table_:  399.
         750    .._00072.call            sc_request_table_:  405.
        4325    .._00072.info            sc_request_table_:  405.
        2415    .._00072.names           sc_request_table_:  405.
         753    .._00073.call            sc_request_table_:  411.
        4335    .._00073.info            sc_request_table_:  411.
        2426    .._00073.names           sc_request_table_:  411.
         756    .._00074.call            sc_request_table_:  414.
        4345    .._00074.info            sc_request_table_:  414.
        2437    .._00074.names           sc_request_table_:  414.
         761    .._00075.call            sc_request_table_:  419.
        4345    .._00075.info            sc_request_table_:  419.
        2450    .._00075.names           sc_request_table_:  419.
         764    .._00076.call            sc_request_table_:  424.
        4352    .._00076.info            sc_request_table_:  424.
        2461    .._00076.names           sc_request_table_:  424.
         767    .._00077.call            sc_request_table_:  429.
        4357    .._00077.info            sc_request_table_:  429.
        2472    .._00077.names           sc_request_table_:  429.
         772    .._00100.call            sc_request_table_:  434.
        4365    .._00100.info            sc_request_table_:  434.
        2503    .._00100.names           sc_request_table_:  434.
         775    .._00101.call            sc_request_table_:  440.
        4401    .._00101.info            sc_request_table_:  440.
        2514    .._00101.names           sc_request_table_:  440.
        1000    .._00102.call            sc_request_table_:  446.
        4416    .._00102.info            sc_request_table_:  446.
        2525    .._00102.names           sc_request_table_:  446.
        1003    .._00103.call            sc_request_table_:  452.
        4434    .._00103.info            sc_request_table_:  452.
        2536    .._00103.names           sc_request_table_:  452.
        1006    .._00104.call            sc_request_table_:  457.
        4447    .._00104.info            sc_request_table_:  457.
        2547    .._00104.names           sc_request_table_:  457.
        1011    .._00105.call            sc_request_table_:  462.
        4460    .._00105.info            sc_request_table_:  462.
        2560    .._00105.names           sc_request_table_:  462.
        1014    .._00106.call            sc_request_table_:  467.
        4465    .._00106.info            sc_request_table_:  467.
        2571    .._00106.names           sc_request_table_:  467.
        1017    .._00107.call            sc_request_table_:  473.
        4501    .._00107.info            sc_request_table_:  473.
        2602    .._00107.names           sc_request_table_:  473.
        1022    .._00110.call            sc_request_table_:  478.
        4520    .._00110.info            sc_request_table_:  478.
        2613    .._00110.names           sc_request_table_:  478.
        1025    .._00111.call            sc_request_table_:  483.
        4533    .._00111.info            sc_request_table_:  483.
        2624    .._00111.names           sc_request_table_:  483.
        1030    .._00112.call            sc_request_table_:  489.
        4543    .._00112.info            sc_request_table_:  489.
        2645    .._00112.names           sc_request_table_:  489.
        1033    .._00113.call            sc_request_table_:  494.
        4552    .._00113.info            sc_request_table_:  494.
        2656    .._00113.names           sc_request_table_:  494.
        1036    .._00114.call            sc_request_table_:  499.
        4562    .._00114.info            sc_request_table_:  499.
        2667    .._00114.names           sc_request_table_:  499.
        1041    .._00115.call            sc_request_table_:  505.
        4572    .._00115.info            sc_request_table_:  505.
        2710    .._00115.names           sc_request_table_:  505.
        1044    .._00116.call            sc_request_table_:  510.
        4600    .._00116.info            sc_request_table_:  510.
        2721    .._00116.names           sc_request_table_:  510.
        1047    .._00117.call            sc_request_table_:  516.
        4613    .._00117.info            sc_request_table_:  516.
        2732    .._00117.names           sc_request_table_:  516.
        1052    .._00120.call            sc_request_table_:  522.
        4623    .._00120.info            sc_request_table_:  522.
        2743    .._00120.names           sc_request_table_:  522.
        1055    .._00121.call            sc_request_table_:  525.
        4636    .._00121.info            sc_request_table_:  525.
        2754    .._00121.names           sc_request_table_:  525.
        1060    .._00122.call            sc_request_table_:  528.
        4636    .._00122.info            sc_request_table_:  528.
        2765    .._00122.names           sc_request_table_:  528.
        1063    .._00123.call            sc_request_table_:  531.
        4636    .._00123.info            sc_request_table_:  531.
        2776    .._00123.names           sc_request_table_:  531.
        1066    .._00124.call            sc_request_table_:  534.
        4636    .._00124.info            sc_request_table_:  534.
        3007    .._00124.names           sc_request_table_:  534.
        1071    .._00125.call            sc_request_table_:  537.
        4636    .._00125.info            sc_request_table_:  537.
        3020    .._00125.names           sc_request_table_:  537.
        1074    .._00126.call            sc_request_table_:  540.
        4636    .._00126.info            sc_request_table_:  540.
        3031    .._00126.names           sc_request_table_:  540.
        1077    .._00127.call            sc_request_table_:  543.
        4636    .._00127.info            sc_request_table_:  543.
        3042    .._00127.names           sc_request_table_:  543.
        1102    .._00130.call            sc_request_table_:  546.
        4636    .._00130.info            sc_request_table_:  546.
        3053    .._00130.names           sc_request_table_:  546.
        1105    .._00131.call            sc_request_table_:  548.
        3064    .._00131.names           sc_request_table_:  548.
        1110    .._00132.call            sc_request_table_:  549.
        3105    .._00132.names           sc_request_table_:  549.
        1113    .._00133.call            sc_request_table_:  550.
        3126    .._00133.names           sc_request_table_:  550.
        1116    .._00134.call            sc_request_table_:  551.
        3147    .._00134.names           sc_request_table_:  551.
        1121    .._00135.call            sc_request_table_:  552.
        3160    .._00135.names           sc_request_table_:  552.
        1124    .._00136.call            sc_request_table_:  553.
        3201    .._00136.names           sc_request_table_:  553.
        1127    .._00137.call            sc_request_table_:  554.
        3222    .._00137.names           sc_request_table_:  554.
        1132    .._00140.call            sc_request_table_:  555.
        3243    .._00140.names           sc_request_table_:  555.
        1135    .._00141.call            sc_request_table_:  556.
        3254    .._00141.names           sc_request_table_:  556.
        1140    .._00142.call            sc_request_table_:  557.
        3265    .._00142.names           sc_request_table_:  557.
      400000    .dft_mrsf                sc_request_table_:   98,  104,  110,  115,  120,  126,  132,  142,  152,  163,  169,
                                                             174,  179,  184,  189,  194,  215,  221,  232,  238,  244,  249,
                                                             254,  259,  265,  290,  300,  305,  320,  325,  336,  356,  361,
                                                             366,  371,  376,  381,  399,  405,  411,  419,  424,  429,  434,
                                                             440,  446,  452,  457,  462,  467,  473,  478,  499,  505,  510.
       40000    .dft_mruf                sc_request_table_:   98,  104,  115,  120,  142,  152,  174,  179,  184,  189,  194,
                                                             215,  249,  254,  259,  265,  290,  300,  305,  320,  325,  356,
                                                             361,  366,  371,  376,  381,  384,  387,  390,  393,  414,  419,
                                                             424,  429,  462,  467,  473,  478,  499,  505,  510.
      400000    .dft_sf                  sc_request_table_:   98,  101,  137,  147,  157,  199,  204,  209,  226,  270,  275,
                                                             280,  285,  295,  310,  315,  330,  341,  346,  351,  483,  489,
                                                             494,  516,  522.
       40000    .dft_uf                  sc_request_table_:   98,  101,  157,  209,  226,  285,  295,  310,  315,  330.
           0    .multics_doc_lth         sc_request_table_:  384,  387,  390,  393,  414,  525,  528,  531,  534,  537,  540,
                                                             543,  546.
       40203    .rc                      sc_request_table_:   98,  110,  115,  120,  126,  132,  137,  142,  147,  152,  157,
                                                             163,  169,  174,  179,  184,  189,  194,  199,  204,  209,  215,
                                                             221,  226,  232,  238,  244,  249,  254,  259,  265,  270,  275,
                                                             280,  285,  290,  295,  300,  305,  310,  315,  320,  325,  330,
                                                             336,  341,  346,  351,  356,  361,  366,  371,  376,  381,  384,
                                                             387,  390,  393,  399,  405,  411,  414,  419,  424,  429,  434,
                                                             440,  446,  452,  457,  462,  467,  473,  478,  483,  489,  494,
                                                             499,  505,  510,  516,  522,  525,  528,  531,  534,  537,  540,
                                                             543,  546,  548,  549,  550,  551,  552,  553,  554,  555,  556,
                                                             557,  559.
      430000    .sf                      sc_request_table_:  110,  115,  120,  126,  132,  137,  142,  147,  152,  157,  163,
                                                             169,  174,  179,  184,  189,  194,  199,  204,  209,  215,  221,
                                                             226,  232,  238,  244,  249,  254,  259,  265,  270,  275,  280,
                                                             285,  290,  295,  300,  305,  310,  315,  320,  325,  330,  336,
                                                             341,  346,  351,  356,  361,  366,  371,  376,  381,  384,  387,
                                                             390,  393,  399,  405,  411,  414,  419,  424,  429,  434,  440,
                                                             446,  452,  457,  462,  467,  473,  478,  483,  489,  494,  499,
                                                             505,  510,  516,  522,  525,  528,  531,  534,  537,  540,  543,  546.
      200001    .uf                      sc_request_table_:  110,  115,  120,  126,  132,  137,  142,  147,  152,  157,  163,
                                                             169,  174,  179,  184,  189,  194,  199,  204,  209,  215,  221,
                                                             226,  232,  238,  244,  249,  254,  259,  265,  270,  275,  280,
                                                             285,  290,  295,  300,  305,  310,  315,  320,  325,  330,  336,
                                                             341,  346,  351,  356,  361,  366,  371,  376,  381,  384,  387,
                                                             390,  393,  399,  405,  411,  414,  419,  424,  429,  434,  440,
                                                             446,  452,  457,  462,  467,  473,  478,  483,  489,  494,  499,
                                                             505,  510,  516,  522,  525,  528,  531,  534,  537,  540,  543,  546.
                abs                      sc_request_table_:  110.
                accept                   sc_request_table_:  115,  132.
                accept_vchn              sc_request_table_:  120.
                addcpu                   sc_request_table_:  528.
                addmain                  sc_request_table_:  525.
                addmem                   sc_request_table_:  531.
                add_device               sc_request_table_:  534.
                add_pdv                  sc_request_table_:  440.
                admin_                   sc_request_table_:  110,  189,  249,  254,  259,  290,  356,  366,  384,  387,  390,
                                                             393,  414,  419,  424,  429,  434,  457,  462,  478,  499,  510.
                as_who                   sc_request_table_:  215,  505.
                attach                   sc_request_table_:  142.
                attach_list              sc_request_table_:  238.
                bce                      sc_request_table_:  147.
                bump                     sc_request_table_:  152.
         472    calls                    sc_request_table_:  110,  115,  120,  126,  132,  137,  142,  147,  152,  157,  163,
                                                             169,  174,  179,  184,  189,  194,  199,  204,  209,  215,  221,
                                                             226,  232,  238,  244,  249,  254,  259,  265,  270,  275,  280,
                                                             285,  290,  295,  300,  305,  310,  315,  320,  325,  330,  336,
                                                             341,  346,  351,  356,  361,  366,  371,  376,  381,  384,  387,
                                                             390,  393,  399,  405,  411,  414,  419,  424,  429,  434,  440,
                                                             446,  452,  457,  462,  467,  473,  478,  483,  489,  494,  499,
                                                             505,  510,  516,  522,  525,  528,  531,  534,  537,  540,  543,
                                                             546,  548,  549,  550,  551,  552,  553,  554,  555,  556,  557,
                                         ssu_request_macros:       311,  314.
        1170    call_offset              stack_header:        80.
                cripple                  sc_request_table_:  157.
                define                   sc_request_table_:  174.
                delcpu                   sc_request_table_:  540.
                delmain                  sc_request_table_:  537.
                delmem                   sc_request_table_:  543.
                del_device               sc_request_table_:  546.
                del_pdv                  sc_request_table_:  446.
                demount_hvol             sc_request_table_:  163.
                deroute                  sc_request_table_:  179.
                detach                   sc_request_table_:  184.
                disconnect               sc_request_table_:  467.
                disk_table_              sc_request_table_:  126,  132,  163,  169,  221,  232,  399.
                down                     sc_request_table_:  189.
                drop                     sc_request_table_:  194.
                dump_fnp                 sc_request_table_:  414.
                dump_mpx                 sc_request_table_:  424.
        1174    entry_offset             stack_header:        84.
                fdump_fnp                sc_request_table_:  387.
      200000    flags.allow_af           sc_request_table_:   98,
                                         ssu_request_macros:        33.
      600000    flags.allow_both         ssu_request_macros:        34.
      400000    flags.allow_command      sc_request_table_:   98,  101,  104,  384,  387,  390,  393,  414,  525,  528,  531,
                                                             534,  537,  540,  543,  546,
                                         ssu_request_macros:        32.
       10000    flags.dont_list          sc_request_table_:  157,  384,  387,  390,  393,  414,  525,  528,  531,  534,  537,
                                                             540,  543,  546,
                                         ssu_request_macros:        40.
       20000    flags.dont_summarize     sc_request_table_:  157,  384,  387,  390,  393,  414,  525,  528,  531,  534,  537,
                                                             540,  543,  546,
                                         ssu_request_macros:        39.
       40000    flags.multics_request    sc_request_table_:  110,  115,  120,  126,  132,  142,  152,  163,  169,  174,  179,
                                                             184,  189,  194,  215,  221,  232,  238,  244,  249,  254,  259,
                                                             265,  290,  300,  305,  320,  325,  336,  356,  361,  366,  371,
                                                             376,  381,  384,  387,  390,  393,  399,  405,  411,  414,  419,
                                                             424,  429,  434,  440,  446,  452,  457,  462,  467,  473,  478,
                                                             499,  505,  510,  525,  528,  531,  534,  537,  540,  543,  546,
                                         ssu_request_macros:        37.
      100000    flags.unimplemented      ssu_request_macros:        36.
        4000    flags.unknown            sc_request_table_:  548,  549,  550,  551,  552,  553,  554,  555,  556,  557,
                                         ssu_request_macros:        42.
                force_reset              sc_request_table_:  204.
                go                       sc_request_table_:  209.
                help                     sc_request_table_:  522.
                hmu                      sc_request_table_:  215.
        3276    info                     sc_request_table_:  110,  115,  120,  126,  132,  137,  142,  147,  152,  157,  163,
                                                             169,  174,  179,  184,  189,  194,  199,  204,  209,  215,  221,
                                                             226,  232,  238,  244,  249,  254,  259,  265,  270,  275,  280,
                                                             285,  290,  295,  300,  305,  310,  315,  320,  325,  330,  336,
                                                             341,  346,  351,  356,  361,  366,  371,  376,  381,  384,  387,
                                                             390,  393,  399,  405,  411,  414,  419,  424,  429,  434,  440,
                                                             446,  452,  457,  462,  467,  473,  478,  483,  489,  494,  499,
                                                             505,  510,  516,  522,  525,  528,  531,  534,  537,  540,  543,
                                                             546,
                                         ssu_request_macros:       313,  314.
                initialize_disk          sc_request_table_:  221.
                intercom                 sc_request_table_:  226.
                io_ss_reconfig           sc_request_table_:  399.
                list                     sc_request_table_:  232.
                list_vols                sc_request_table_:  244.
                load_fnp                 sc_request_table_:  384.
                load_mpx                 sc_request_table_:  419.
                lock_mca                 sc_request_table_:  489,  494.
                log                      sc_request_table_:  457.
                login                    sc_request_table_:  249.
                logout                   sc_request_table_:  254.
                long                     sc_request_table_:  505.
                lv_request_              sc_request_table_:  238.
                maxunits                 sc_request_table_:  259.
                mc_list                  sc_request_table_:  265.
                message                  sc_request_table_:  270.
                mount_hvol               sc_request_table_:  126.
                multics                  sc_request_table_:  275.
        1143    names                    sc_request_table_:  110,  115,  120,  126,  132,  137,  142,  147,  152,  157,  163,
                                                             169,  174,  179,  184,  189,  194,  199,  204,  209,  215,  221,
                                                             226,  232,  238,  244,  249,  254,  259,  265,  270,  275,  280,
                                                             285,  290,  295,  300,  305,  310,  315,  320,  325,  330,  336,
                                                             341,  346,  351,  356,  361,  366,  371,  376,  381,  384,  387,
                                                             390,  393,  399,  405,  411,  414,  419,  424,  429,  434,  440,
                                                             446,  452,  457,  462,  467,  473,  478,  483,  489,  494,  499,
                                                             505,  510,  516,  522,  525,  528,  531,  534,  537,  540,  543,
                                                             546,  548,  549,  550,  551,  552,  553,  554,  555,  556,  557,
                                         ssu_request_macros:       312,  314.
                no_start_up              sc_request_table_:  280.
                obs_reconfigure          sc_request_table_:  525,  528,  531,  537,  540,  543.
                operator_com_channel_cmds_     sc_request_table_:  142,  325.
                operator_mc_cmds_        sc_request_table_:  115,  120,  174,  179,  194,  300,  305,  320,  361,  381.
                operator_process_cmds_   sc_request_table_:  152,  184,  371,  376,  467.
                packsalv                 sc_request_table_:  336.
                pdir_volume_manager_     sc_request_table_:  440,  446,  452,  473.
                preload                  sc_request_table_:  405.
        1171    push_offset              stack_header:        81.
                quit                     sc_request_table_:  285.
                rcp                      sc_request_table_:  290.
                rcp_op_cmnd_             sc_request_table_:  405,  411.
                reconfigure              sc_request_table_:  483.
                reconfigure_rcp          sc_request_table_:  534,  546.
                redefine                 sc_request_table_:  320.
                remove                   sc_request_table_:  169,  325.
                reply                    sc_request_table_:  295.
                reroute                  sc_request_table_:  300.
                reset                    sc_request_table_:  330.
        1173    return_no_pop_offset     stack_header:        83.
        1172    return_offset            stack_header:        82.
                route                    sc_request_table_:  305.
                salv_caller              sc_request_table_:  336.
                sc_admin_mode_           sc_request_table_:  137.
                sc_exec_request_         sc_request_table_:  199.
       10000    sc_flags.complete_disks_first  sc_request_table_:   71,  275,  351.
      100000    sc_flags.dont_mask_calls       sc_request_table_:   68,  137,  204,  315,  346,  522.
      400000    sc_flags.dont_parse_arguments  sc_request_table_:   66,  226,  295.
        4000    sc_flags.no_login_needed       sc_request_table_:   72,  315,  516.
      200000    sc_flags.obsolete        sc_request_table_:   67,  384,  387,  390,  393,  414,  525,  528,  531,  534,  537,
                                                             540,  543,  546.
       40000    sc_flags.requires_as     sc_request_table_:   69,  101,  104.
       20000    sc_flags.requires_no_as  sc_request_table_:   70,  275,  280,  351.
          40    sc_flags.r_abs_control   sc_request_table_:   95,  110.
          10    sc_flags.r_admin_mode    sc_request_table_:   80,  137.
           2    sc_flags.r_as_control    sc_request_table_:   74,  152,  157,  209,  371,  376,  462,  467,  499.
          36    sc_flags.r_bump_user     sc_request_table_:   93.
          35    sc_flags.r_channel_control     sc_request_table_:   92,  142,  184,  325.
          27    sc_flags.r_daemon_control      sc_request_table_:   86,  249,  254.
          32    sc_flags.r_down_ok       sc_request_table_:   89,  189,  356.
          24    sc_flags.r_dump          sc_request_table_:   83.
           5    sc_flags.r_edit_motd     sc_request_table_:   77,  270.
          25    sc_flags.r_exec          sc_request_table_:   84,  199.
           6    sc_flags.r_intercom      sc_request_table_:   78,  226.
          30    sc_flags.r_loginword     sc_request_table_:   87,  510.
           1    sc_flags.r_master_console      sc_request_table_:   73,  126,  132,  147,  163,  169,  221,  275,  280,  336,
                                                                   341,  346,  351,  399,  440,  446,  452,  473,  525,  528,
                                                                   531,  534,  537,  540,  543,  546.
          31    sc_flags.r_mod_sysid     sc_request_table_:   88,  366.
           7    sc_flags.r_mpx_control   sc_request_table_:   79,  384,  387,  390,  393,  414,  419,  424,  429,  434,  478.
          22    sc_flags.r_rcp_control   sc_request_table_:   81,  290,  405,  411.
          23    sc_flags.r_reconfig_system     sc_request_table_:   82,  483,  489,  494.
           4    sc_flags.r_reply         sc_request_table_:   76,  285,  295.
           3    sc_flags.r_reset_sc      sc_request_table_:   75,  204,  330.
          37    sc_flags.r_route_messages      sc_request_table_:   94,  115,  120,  174,  179,  194,  300,  305,  320,  361,  381.
          34    sc_flags.r_set_maxu      sc_request_table_:   91,  259.
          26    sc_flags.r_status        sc_request_table_:   85,  215,  232,  238,  244,  265,  505.
          33    sc_flags.r_warning       sc_request_table_:   90.
                sc_lock_mca              sc_request_table_:  489.
                sc_reconfigure_request   sc_request_table_:  483.
                sc_requests_             sc_request_table_:  147,  157,  204,  209,  226,  270,  275,  280,  285,  295,  310,
                                                             315,  330,  341,  346,  351,  516.
                sc_unlock_mca            sc_request_table_:  494.
                self_identify            sc_request_table_:  516.
                set_pdv                  sc_request_table_:  452.
                set_time_zone            sc_request_table_:  341.
                shift                    sc_request_table_:  462.
                shutdown                 sc_request_table_:  346.
                shutdown_mpx             sc_request_table_:  478.
                sign_off                 sc_request_table_:  310.
                sign_on                  sc_request_table_:  315.
                ssu_                     sc_request_table_:  548,  549,  550,  551,  552,  553,  554,  555,  556,  557.
                ssu_requests_            sc_request_table_:  522.
          73    stach_header.trace_top_ptr     stack_header:        62.
          66    stack_header.assign_linkage_ptr      stack_header:        59.
          32    stack_header.bar_mode_sp       stack_header:        42.
          36    stack_header.call_op_ptr       stack_header:        44.
          10    stack_header.clr_ptr     stack_header:        27.
           6    stack_header.combined_stat_ptr       stack_header:        25.
           4    stack_header.cpm_data_ptr      stack_header:        24.
          13    stack_header.cpm_enabled       stack_header:        32.
          13    stack_header.cur_lot_size      stack_header:        31.
          64    stack_header.ect_ptr     stack_header:        58.
          46    stack_header.entry_op_ptr      stack_header:        49.
          70    stack_header.heap_header_ptr   stack_header:        60.
          74    stack_header.in_trace    stack_header:        63.
          52    stack_header.isot_ptr    stack_header:        52.
          26    stack_header.lot_ptr     sc_request_table_:  110,  115,  120,  126,  132,  137,  142,  147,  152,  157,  163,
                                                             169,  174,  179,  184,  189,  194,  199,  204,  209,  215,  221,
                                                             226,  232,  238,  244,  249,  254,  259,  265,  270,  275,  280,
                                                             285,  290,  295,  300,  305,  310,  315,  320,  325,  330,  336,
                                                             341,  346,  351,  356,  361,  366,  371,  376,  381,  384,  387,
                                                             390,  393,  399,  405,  411,  414,  419,  424,  429,  434,  440,
                                                             446,  452,  457,  462,  467,  473,  478,  483,  489,  494,  499,
                                                             505,  510,  516,  522,  525,  528,  531,  534,  537,  540,  543,
                                                             546,  548,  549,  550,  551,  552,  553,  554,  555,  556,  557,
                                         stack_header:        39.
          12    stack_header.main_proc_invoked       stack_header:        29.
          12    stack_header.max_lot_size      stack_header:        28.
          20    stack_header.parent_ptr  stack_header:        36.
          34    stack_header.pl1_operators_ptr       stack_header:        43.
          40    stack_header.push_op_ptr       stack_header:        46.
          42    stack_header.return_op_ptr     stack_header:        47.
          44    stack_header.ret_no_pop_op_ptr       stack_header:        48.
          62    stack_header.rnt_ptr     stack_header:        57.
          12    stack_header.run_unit_depth    stack_header:        30.
          54    stack_header.sct_ptr     stack_header:        53.
          30    stack_header.signal_ptr  stack_header:        41.
          22    stack_header.stack_begin_ptr   stack_header:        37.
          24    stack_header.stack_end_ptr     stack_header:        38.
          14    stack_header.system_free_ptr   stack_header:        33.
          60    stack_header.sys_link_info_ptr       stack_header:        56.
          72    stack_header.trace_frames      stack_header:        61.
          50    stack_header.trans_op_tv_ptr   stack_header:        51.
          56    stack_header.unwinder_ptr      stack_header:        54.
          16    stack_header.user_free_ptr     stack_header:        34.
         100    stack_header_end         stack_header:        64.
                startup                  sc_request_table_:  351.
                start_fnp                sc_request_table_:  390.
                start_mpx                sc_request_table_:  429.
                stop                     sc_request_table_:  356.
                stop_fnp                 sc_request_table_:  393.
                stop_mpx                 sc_request_table_:  434.
                substty                  sc_request_table_:  361.
                sysid                    sc_request_table_:  366.
           0    system_control_requests  sc_request_table_:   98.
         143    system_control_requests.rc     sc_request_table_:   98,  559.
           0    tables                   sc_request_table_:   98,  110,  115,  120,  126,  132,  137,  142,  147,  152,  157,
                                                             163,  169,  174,  179,  184,  189,  194,  199,  204,  209,  215,
                                                             221,  226,  232,  238,  244,  249,  254,  259,  265,  270,  275,
                                                             280,  285,  290,  295,  300,  305,  310,  315,  320,  325,  330,
                                                             336,  341,  346,  351,  356,  361,  366,  371,  376,  381,  384,
                                                             387,  390,  393,  399,  405,  411,  414,  419,  424,  429,  434,
                                                             440,  446,  452,  457,  462,  467,  473,  478,  483,  489,  494,
                                                             499,  505,  510,  516,  522,  525,  528,  531,  534,  537,  540,
                                                             543,  546,  548,  549,  550,  551,  552,  553,  554,  555,  556,
                                                             557,
                                         ssu_request_macros:       310,  314.
                terminate                sc_request_table_:  371.
           0    trace_frames.count       stack_header:        69.
           1    trace_frames.top_ptr     stack_header:        70.
         551    tv_offset                stack_header:        75,   80,   81,   82,   83,   84.
                unbump                   sc_request_table_:  376.
                undefine                 sc_request_table_:  381.
                unknown_request          sc_request_table_:  548,  549,  550,  551,  552,  553,  554,  555,  556,  557.
                unload                   sc_request_table_:  411.
                vac_pdv                  sc_request_table_:  473.
                warn                     sc_request_table_:  499.
                word                     sc_request_table_:  510.


NO FATAL ERRORS


                                          -----------------------------------------------------------


Historical Background

This edition of the Multics software materials and documentation is provided and donated
to Massachusetts Institute of Technology by Group BULL including BULL HN Information Systems Inc.
as a contribution to computer science knowledge.
This donation is made also to give evidence of the common contributions of Massachusetts Institute of Technology,
Bell Laboratories, General Electric, Honeywell Information Systems Inc., Honeywell BULL Inc., Groupe BULL
and BULL HN Information Systems Inc. to the development of this operating system.
Multics development was initiated by Massachusetts Institute of Technology Project MAC (1963-1970),
renamed the MIT Laboratory for Computer Science and Artificial Intelligence in the mid 1970s, under the leadership
of Professor Fernando Jose Corbato. Users consider that Multics provided the best software architecture
for managing computer hardware properly and for executing programs. Many subsequent operating systems
incorporated Multics principles.
Multics was distributed in 1975 to 2000 by Group Bull in Europe , and in the U.S. by Bull HN Information Systems Inc.,
as successor in interest by change in name only to Honeywell Bull Inc. and Honeywell Information Systems Inc. .

                                          -----------------------------------------------------------

Permission to use, copy, modify, and distribute these programs and their documentation for any purpose and without
fee is hereby granted,provided that the below copyright notice and historical background appear in all copies
and that both the copyright notice and historical background and this permission notice appear in supporting
documentation, and that the names of MIT, HIS, BULL or BULL HN not be used in advertising or publicity pertaining
to distribution of the programs without specific prior written permission.
    Copyright 1972 by Massachusetts Institute of Technology and Honeywell Information Systems Inc.
    Copyright 2006 by BULL HN Information Systems Inc.
    Copyright 2006 by Bull SAS
    All Rights Reserved
