ASSEMBLY LISTING OF SEGMENT >spec>install>1112>sc_stat_.alm
ASSEMBLED ON:	11/11/89  0927.9 mst Sat
OPTIONS USED:	-target l68                              list symbols
ASSEMBLED BY:	ALM Version 8.14 March 1989
ASSEMBLER CREATED:	06/09/89  1002.3 mst Fri

                                     1  " ***********************************************************
                                     2  " *                                                         *
                                     3  " * Copyright, (C) Honeywell Bull Inc., 1987                *
                                     4  " *                                                         *
                                     5  " * Copyright, (C) Honeywell Information Systems Inc., 1982 *
                                     6  " *                                                         *
                                     7  " * Copyright (c) 1972 by Massachusetts Institute of        *
                                     8  " * Technology and Honeywell Information Systems, Inc.      *
                                     9  " *                                                         *
                                    10  " ***********************************************************
                                    11
                                    12  " These values are declared in sc_stat_.incl.pl1.
                                    13  " Changes herein should be reflected therein.
                                    14  " Written at an unknown time by the 12th Imam.
                                    15  " Modified 1984-10-08 BIM for more admin goodies.
                                    16  " Modified 1985-01-07 BIM for mc access control.
                                    17
                                    18
                                    19  " HISTORY COMMENTS:
                                    20  "  1) change(86-08-01,Cox), approve(87-05-28,MCR7690), audit(87-02-18,GDixon),
                                    21  "     install(87-08-04,MR12.1-1055):
                                    22  "     Added sc_stat_$vchn_requires_accept in support of virtual MC channels
                                    23  "     for use by DSA.
                                    24  "  2) change(87-02-18,GDixon), approve(87-05-28,MCR7680),
                                    25  "     audit(87-05-06,Parisek), install(87-08-04,MR12.1-1055):
                                    26  "     Reorganized by type of data to improve readability.
                                    27  "                                                      END HISTORY COMMENTS
                                    28
                                    29
                                    30  	use	statc
                                    31  	join	/link/statc
                                    32
                        000054      33  	segdef	Go		" segdefs are stored alphabetically
                        000055      34  	segdef	Go_typed
                        000056      35  	segdef	Multics
                        000057      36  	segdef	Multics_typed
                        000060      37  	segdef	Star_typed
                        000010      38  	segdef	admin_listener_exit_label
                        000061      39  	segdef	admin_listener_switch
                        000030      40  	segdef	admin_log_iocb
                        000024      41  	segdef	admin_log_write_ptr
                        000044      42  	segdef	admin_sci_ptr
                        000026      43  	segdef	as_log_write_ptr
                        000062      44  	segdef	did_part1
                        000063      45  	segdef	did_part2
                        000064      46  	segdef	did_part3
                        000072      47  	segdef	exec_access_name
                        000112      48  	segdef	info_dir
                        000050      49  	segdef	initzer_ttyp
                        000164      50  	segdef	log_dir
                        000014      51  	segdef	master_abort_label
                        000362      52  	segdef	master_channel
                        000032      53  	segdef	master_iocb
                        000046      54  	segdef	master_sci_ptr
                        000236      55  	segdef	mc_acs_dir
                        000052      56  	segdef	mc_ansp
                        000034      57  	segdef	mc_iocb
                        000065      58  	segdef	mc_is_on
                        000066      59  	segdef	no_operator_login
                        000067      60  	segdef	shutdown_typed
                        000036      61  	segdef	sv1_iocb
                        000040      62  	segdef	sv2_iocb
                        000042      63  	segdef	sv3_iocb
                        000310      64  	segdef	sysdir
                        000020      65  	segdef	system_shutdown_label
                        000070      66  	segdef	test_mode
                        000102      67  	segdef	unidentified_access_name
                        000071      68  	segdef	vchn_requires_accept
                                    69
                                    70  " Data is stored by type, with data types ordered with those needing
                                    71  " doubleword alignment appearing first:
                                    72  "   LABELS
                                    73  "   POINTERS
                                    74  "     to DATA for calling log_write_
                                    75  "     to IOCBS
                                    76  "     to SSU SUBSYSTEM CONTROL INFO
                                    77  "     to TABLES
                                    78  "   SWITCHES
                                    79  "   CHARACTER STRINGS
                                    80  "     ACCESS NAMES
                                    81  "     PATHNAMES
                                    82  "     OTHER TYPES
                                    83
                                    84  		even		"LABELS
    000010                          85  admin_listener_exit_label:
    000010  aa   077777 000043      86            	its	-1,1	" go here to leave admin listener
    000011  aa   000001 000000
    000012  aa   077777 000043      87  		its	-1,1
    000013  aa   000001 000000
    000014  aa   077777 000043      88  master_abort_label: its	-1,1   	" go here to return to system_control_
    000015  aa   000001 000000
    000016  aa   077777 000043      89  		its	-1,1	" request loop
    000017  aa   000001 000000
    000020                          90  system_shutdown_label:
    000020  aa   077777 000043      91  		its	-1,1	" go here to make system shutdown.
    000021  aa   000001 000000
    000022  aa   077777 000043      92  		its	-1,1
    000023  aa   000001 000000
                                    93
                                    94  				"POINTERS - DATA for calling log_write_
    000024  aa   077777 000043      95  admin_log_write_ptr:its	-1,1	" static for the admin log
    000025  aa   000001 000000
    000026  aa   077777 000043      96  as_log_write_ptr:   its	-1,1	" ext static for the AS log
    000027  aa   000001 000000
                                    97
                                    98  				"POINTERS - IOCBS
    000030  aa   077777 000043      99  admin_log_iocb:	its	-1,1	" IOCB for admin log
    000031  aa   000001 000000
    000032  aa   077777 000043     100  master_iocb:	its	-1,1	" IOCB for "master_i/o"
    000033  aa   000001 000000
    000034  aa   077777 000043     101  mc_iocb:		its	-1,1	" IOCB for "mc_i/o"
    000035  aa   000001 000000
    000036  aa   077777 000043     102  sv1_iocb:		its	-1,1	" IOCB for "severity1"
    000037  aa   000001 000000
    000040  aa   077777 000043     103  sv2_iocb:		its	-1,1	" IOCB for "severity2"
    000041  aa   000001 000000
    000042  aa   077777 000043     104  sv3_iocb:		its	-1,1	" IOCB for "severity3"
    000043  aa   000001 000000
                                   105
                                   106  				"POINTERS - SSU SUBSYSTEM CONTROL INFO
    000044  aa   077777 000043     107  admin_sci_ptr:	its	-1,1	" subsystem for current admin request
    000045  aa   000001 000000
    000046  aa   077777 000043     108  master_sci_ptr:	its	-1,1	" permanent subsystem for otw_
    000047  aa   000001 000000
                                   109
                                   110  				"POINTERS - TABLES
    000050  aa   077777 000043     111  initzer_ttyp:	its	-1,1	"ptr to mc_ate for initializer terminal
    000051  aa   000001 000000
    000052  aa   077777 000043     112  mc_ansp:		its	-1,1	"ptr to mc_anstbl, incl mc_ate array
    000053  aa   000001 000000
                                   113
                                   114  				"SWITCHES
                                   115  				" dcl XXX bit (1) aligned
                        000000     116  		bool	false,0
                 400000 000000     117  		bool	true,400000000000
    000054  aa   000000 000000     118  Go:		vfd	36o/false	" TRUE if AS listening  ('go'   done)
    000055  aa   000000 000000     119  Go_typed:		vfd	36o/false	" TRUE immediately after 'go'   typed
    000056  aa   000000 000000     120  Multics:		vfd	36o/false	" TRUE if AS started    ('mult' done)
    000057  aa   000000 000000     121  Multics_typed:	vfd	36o/false	" TRUE immediately after 'mult' typed
    000060  aa   000000 000000     122  Star_typed:	vfd	36o/false	" TRUE if Go & Multics done as a result
                                   123  				"  of 'star' being typed
    000061                         124  admin_listener_switch:
    000061  aa   000000 000000     125  		vfd	36o/false	" TRUE if listening for admin commands
    000062  aa   000000 000000     126  did_part1:	vfd	36o/false	" TRUE if part 1 system_startup.ec done
    000063  aa   000000 000000     127  did_part2:	vfd	36o/false	" TRUE if part 2 system_startup.ec done
    000064  aa   000000 000000     128  did_part3:	vfd	36o/false	" TRUE if part 3 system_startup.ec done
    000065  aa   000000 000000     129  mc_is_on:		vfd	36o/false	" TRUE if message coordinator running
    000066  aa   400000 000000     130  no_operator_login:  vfd	36o/true	" TRUE if not requiring login
    000067  aa   000000 000000     131  shutdown_typed:	vfd	36o/false	" TRUE if shutdown command is executing
    000070  aa   000000 000000     132  test_mode:	vfd	36o/false	" TRUE if in test environment
    000071                         133  vchn_requires_accept:
    000071  aa   400000 000000     134  		vfd	36o/true	" TRUE if operator must accept all
                                   135  				"  'login -op -vchn x' attempts
                                   136
                                   137  				"CHAR STRINGS - ACCESS NAMES
                                   138  				" dcl XXX char(32) aligned
    000072                         139  exec_access_name:			" Name used for executing x requests
    000072  aa  137 105 170 145    140  		aci	"_Exec_Command.Operator.o",32
    000073  aa  143 137 103 157
    000074  aa  155 155 141 156
    000075  aa  144 056 117 160
    000076  aa  145 162 141 164
    000077  aa  157 162 056 157
    000100  aa  040 040 040 040
    000101  aa  040 040 040 040
    000102                         141  unidentified_access_name:		" Name used for executing requests from
                                   142  				"  unidentified operators.
    000102  aa  137 125 156 151    143  		aci	"_Unidentified.Operator.o",32
    000103  aa  144 145 156 164
    000104  aa  151 146 151 145
    000105  aa  144 056 117 160
    000106  aa  145 162 141 164
    000107  aa  157 162 056 157
    000110  aa  040 040 040 040
    000111  aa  040 040 040 040
                                   144
                                   145  				"CHAR STRINGS - PATHNAMES
                                   146  				" dcl XXX char (168) aligned
    000112  aa  076 144 157 143    147  info_dir:		aci	">documentation>subsystem>operator",168
    000113  aa  165 155 145 156
    000114  aa  164 141 164 151
    000115  aa  157 156 076 163
    000116  aa  165 142 163 171
    000117  aa  163 164 145 155
    000120  aa  076 157 160 145
    000121  aa  162 141 164 157
    000122  aa  162 040 040 040
    000123  aa  040 040 040 040
    000124  aa  040 040 040 040
    000125  aa  040 040 040 040
    000126  aa  040 040 040 040
    000127  aa  040 040 040 040
    000130  aa  040 040 040 040
    000131  aa  040 040 040 040
    000132  aa  040 040 040 040
    000133  aa  040 040 040 040
    000134  aa  040 040 040 040
    000135  aa  040 040 040 040
    000136  aa  040 040 040 040
    000137  aa  040 040 040 040
    000140  aa  040 040 040 040
    000141  aa  040 040 040 040
    000142  aa  040 040 040 040
    000143  aa  040 040 040 040
    000144  aa  040 040 040 040
    000145  aa  040 040 040 040
    000146  aa  040 040 040 040
    000147  aa  040 040 040 040
    000150  aa  040 040 040 040
    000151  aa  040 040 040 040
    000152  aa  040 040 040 040
    000153  aa  040 040 040 040
    000154  aa  040 040 040 040
    000155  aa  040 040 040 040
    000156  aa  040 040 040 040
    000157  aa  040 040 040 040
    000160  aa  040 040 040 040
    000161  aa  040 040 040 040
    000162  aa  040 040 040 040
    000163  aa  040 040 040 040
    000164  aa  076 163 171 163    148  log_dir:		aci	">system_control_1>as_logs",168
    000165  aa  164 145 155 137
    000166  aa  143 157 156 164
    000167  aa  162 157 154 137
    000170  aa  061 076 141 163
    000171  aa  137 154 157 147
    000172  aa  163 040 040 040
    000173  aa  040 040 040 040
    000174  aa  040 040 040 040
    000175  aa  040 040 040 040
    000176  aa  040 040 040 040
    000177  aa  040 040 040 040
    000200  aa  040 040 040 040
    000201  aa  040 040 040 040
    000202  aa  040 040 040 040
    000203  aa  040 040 040 040
    000204  aa  040 040 040 040
    000205  aa  040 040 040 040
    000206  aa  040 040 040 040
    000207  aa  040 040 040 040
    000210  aa  040 040 040 040
    000211  aa  040 040 040 040
    000212  aa  040 040 040 040
    000213  aa  040 040 040 040
    000214  aa  040 040 040 040
    000215  aa  040 040 040 040
    000216  aa  040 040 040 040
    000217  aa  040 040 040 040
    000220  aa  040 040 040 040
    000221  aa  040 040 040 040
    000222  aa  040 040 040 040
    000223  aa  040 040 040 040
    000224  aa  040 040 040 040
    000225  aa  040 040 040 040
    000226  aa  040 040 040 040
    000227  aa  040 040 040 040
    000230  aa  040 040 040 040
    000231  aa  040 040 040 040
    000232  aa  040 040 040 040
    000233  aa  040 040 040 040
    000234  aa  040 040 040 040
    000235  aa  040 040 040 040
    000236  aa  076 163 171 163    149  mc_acs_dir:	aci	">system_control_1>mc_acs",168
    000237  aa  164 145 155 137
    000240  aa  143 157 156 164
    000241  aa  162 157 154 137
    000242  aa  061 076 155 143
    000243  aa  137 141 143 163
    000244  aa  040 040 040 040
    000245  aa  040 040 040 040
    000246  aa  040 040 040 040
    000247  aa  040 040 040 040
    000250  aa  040 040 040 040
    000251  aa  040 040 040 040
    000252  aa  040 040 040 040
    000253  aa  040 040 040 040
    000254  aa  040 040 040 040
    000255  aa  040 040 040 040
    000256  aa  040 040 040 040
    000257  aa  040 040 040 040
    000260  aa  040 040 040 040
    000261  aa  040 040 040 040
    000262  aa  040 040 040 040
    000263  aa  040 040 040 040
    000264  aa  040 040 040 040
    000265  aa  040 040 040 040
    000266  aa  040 040 040 040
    000267  aa  040 040 040 040
    000270  aa  040 040 040 040
    000271  aa  040 040 040 040
    000272  aa  040 040 040 040
    000273  aa  040 040 040 040
    000274  aa  040 040 040 040
    000275  aa  040 040 040 040
    000276  aa  040 040 040 040
    000277  aa  040 040 040 040
    000300  aa  040 040 040 040
    000301  aa  040 040 040 040
    000302  aa  040 040 040 040
    000303  aa  040 040 040 040
    000304  aa  040 040 040 040
    000305  aa  040 040 040 040
    000306  aa  040 040 040 040
    000307  aa  040 040 040 040
    000310  aa  076 163 171 163    150  sysdir:		aci	">system_control_1",168
    000311  aa  164 145 155 137
    000312  aa  143 157 156 164
    000313  aa  162 157 154 137
    000314  aa  061 040 040 040
    000315  aa  040 040 040 040
    000316  aa  040 040 040 040
    000317  aa  040 040 040 040
    000320  aa  040 040 040 040
    000321  aa  040 040 040 040
    000322  aa  040 040 040 040
    000323  aa  040 040 040 040
    000324  aa  040 040 040 040
    000325  aa  040 040 040 040
    000326  aa  040 040 040 040
    000327  aa  040 040 040 040
    000330  aa  040 040 040 040
    000331  aa  040 040 040 040
    000332  aa  040 040 040 040
    000333  aa  040 040 040 040
    000334  aa  040 040 040 040
    000335  aa  040 040 040 040
    000336  aa  040 040 040 040
    000337  aa  040 040 040 040
    000340  aa  040 040 040 040
    000341  aa  040 040 040 040
    000342  aa  040 040 040 040
    000343  aa  040 040 040 040
    000344  aa  040 040 040 040
    000345  aa  040 040 040 040
    000346  aa  040 040 040 040
    000347  aa  040 040 040 040
    000350  aa  040 040 040 040
    000351  aa  040 040 040 040
    000352  aa  040 040 040 040
    000353  aa  040 040 040 040
    000354  aa  040 040 040 040
    000355  aa  040 040 040 040
    000356  aa  040 040 040 040
    000357  aa  040 040 040 040
    000360  aa  040 040 040 040
    000361  aa  040 040 040 040
                                   151
                                   152  				"CHAR STRINGS - OTHER
    000362  aa  157 164 167 137    153  master_channel:	aci	"otw_  ",6
    000363  aa  040 040 000 000
                                   154  				" dcl XXX char (6) aligned
                                   155  				" Master TTY channel.
                                   156
                                   157  		end

NO LITERALS

NAME DEFINITIONS FOR ENTRY POINTS AND SEGDEFS

    000000  5a   000003 000000
    000001  5a   000403 600000
    000002  aa   000000 000000
    000003  55   000011 000002
    000004  5a   000002 400003
    000005  55   000006 000011
    000006  aa  010 163 143 137
    000007  aa  163 164 141 164
    000010  aa  137 000 000 000
    000011  55   000022 000003
    000012  2a   000071 400001
    000013  55   000014 000003
    000014  aa  024 166 143 150         vchn_requires_accept
    000015  aa  156 137 162 145
    000016  aa  161 165 151 162
    000017  aa  145 163 137 141
    000020  aa  143 143 145 160
    000021  aa  164 000 000 000
    000022  55   000034 000011
    000023  2a   000102 400001
    000024  55   000025 000003
    000025  aa  030 165 156 151         unidentified_access_name
    000026  aa  144 145 156 164
    000027  aa  151 146 151 145
    000030  aa  144 137 141 143
    000031  aa  143 145 163 163
    000032  aa  137 156 141 155
    000033  aa  145 000 000 000
    000034  55   000042 000022
    000035  2a   000070 400001
    000036  55   000037 000003
    000037  aa  011 164 145 163         test_mode
    000040  aa  164 137 155 157
    000041  aa  144 145 000 000
    000042  55   000053 000034
    000043  2a   000020 400001
    000044  55   000045 000003
    000045  aa  025 163 171 163         system_shutdown_label
    000046  aa  164 145 155 137
    000047  aa  163 150 165 164
    000050  aa  144 157 167 156
    000051  aa  137 154 141 142
    000052  aa  145 154 000 000
    000053  55   000060 000042
    000054  2a   000310 400001
    000055  55   000056 000003
    000056  aa  006 163 171 163         sysdir
    000057  aa  144 151 162 000
    000060  55   000066 000053
    000061  2a   000042 400001
    000062  55   000063 000003
    000063  aa  010 163 166 063         sv3_iocb
    000064  aa  137 151 157 143
    000065  aa  142 000 000 000
    000066  55   000074 000060
    000067  2a   000040 400001
    000070  55   000071 000003
    000071  aa  010 163 166 062         sv2_iocb
    000072  aa  137 151 157 143
    000073  aa  142 000 000 000
    000074  55   000102 000066
    000075  2a   000036 400001
    000076  55   000077 000003
    000077  aa  010 163 166 061         sv1_iocb
    000100  aa  137 151 157 143
    000101  aa  142 000 000 000
    000102  55   000111 000074
    000103  2a   000067 400001
    000104  55   000105 000003
    000105  aa  016 163 150 165         shutdown_typed
    000106  aa  164 144 157 167
    000107  aa  156 137 164 171
    000110  aa  160 145 144 000
    000111  55   000121 000102
    000112  2a   000066 400001
    000113  55   000114 000003
    000114  aa  021 156 157 137         no_operator_login
    000115  aa  157 160 145 162
    000116  aa  141 164 157 162
    000117  aa  137 154 157 147
    000120  aa  151 156 000 000
    000121  55   000127 000111
    000122  2a   000065 400001
    000123  55   000124 000003
    000124  aa  010 155 143 137         mc_is_on
    000125  aa  151 163 137 157
    000126  aa  156 000 000 000
    000127  55   000134 000121
    000130  2a   000034 400001
    000131  55   000132 000003
    000132  aa  007 155 143 137         mc_iocb
    000133  aa  151 157 143 142
    000134  55   000141 000127
    000135  2a   000052 400001
    000136  55   000137 000003
    000137  aa  007 155 143 137         mc_ansp
    000140  aa  141 156 163 160
    000141  55   000147 000134
    000142  2a   000236 400001
    000143  55   000144 000003
    000144  aa  012 155 143 137         mc_acs_dir
    000145  aa  141 143 163 137
    000146  aa  144 151 162 000
    000147  55   000156 000141
    000150  2a   000046 400001
    000151  55   000152 000003
    000152  aa  016 155 141 163         master_sci_ptr
    000153  aa  164 145 162 137
    000154  aa  163 143 151 137
    000155  aa  160 164 162 000
    000156  55   000164 000147
    000157  2a   000032 400001
    000160  55   000161 000003
    000161  aa  013 155 141 163         master_iocb
    000162  aa  164 145 162 137
    000163  aa  151 157 143 142
    000164  55   000173 000156
    000165  2a   000362 400001
    000166  55   000167 000003
    000167  aa  016 155 141 163         master_channel
    000170  aa  164 145 162 137
    000171  aa  143 150 141 156
    000172  aa  156 145 154 000
    000173  55   000203 000164
    000174  2a   000014 400001
    000175  55   000176 000003
    000176  aa  022 155 141 163         master_abort_label
    000177  aa  164 145 162 137
    000200  aa  141 142 157 162
    000201  aa  164 137 154 141
    000202  aa  142 145 154 000
    000203  55   000210 000173
    000204  2a   000164 400001
    000205  55   000206 000003
    000206  aa  007 154 157 147         log_dir
    000207  aa  137 144 151 162
    000210  55   000217 000203
    000211  2a   000050 400001
    000212  55   000213 000003
    000213  aa  014 151 156 151         initzer_ttyp
    000214  aa  164 172 145 162
    000215  aa  137 164 164 171
    000216  aa  160 000 000 000
    000217  55   000225 000210
    000220  2a   000112 400001
    000221  55   000222 000003
    000222  aa  010 151 156 146         info_dir
    000223  aa  157 137 144 151
    000224  aa  162 000 000 000
    000225  55   000235 000217
    000226  2a   000072 400001
    000227  55   000230 000003
    000230  aa  020 145 170 145         exec_access_name
    000231  aa  143 137 141 143
    000232  aa  143 145 163 163
    000233  aa  137 156 141 155
    000234  aa  145 000 000 000
    000235  55   000243 000225
    000236  2a   000064 400001
    000237  55   000240 000003
    000240  aa  011 144 151 144         did_part3
    000241  aa  137 160 141 162
    000242  aa  164 063 000 000
    000243  55   000251 000235
    000244  2a   000063 400001
    000245  55   000246 000003
    000246  aa  011 144 151 144         did_part2
    000247  aa  137 160 141 162
    000250  aa  164 062 000 000
    000251  55   000257 000243
    000252  2a   000062 400001
    000253  55   000254 000003
    000254  aa  011 144 151 144         did_part1
    000255  aa  137 160 141 162
    000256  aa  164 061 000 000
    000257  55   000267 000251
    000260  2a   000026 400001
    000261  55   000262 000003
    000262  aa  020 141 163 137         as_log_write_ptr
    000263  aa  154 157 147 137
    000264  aa  167 162 151 164
    000265  aa  145 137 160 164
    000266  aa  162 000 000 000
    000267  55   000276 000257
    000270  2a   000044 400001
    000271  55   000272 000003
    000272  aa  015 141 144 155         admin_sci_ptr
    000273  aa  151 156 137 163
    000274  aa  143 151 137 160
    000275  aa  164 162 000 000
    000276  55   000306 000267
    000277  2a   000024 400001
    000300  55   000301 000003
    000301  aa  023 141 144 155         admin_log_write_ptr
    000302  aa  151 156 137 154
    000303  aa  157 147 137 167
    000304  aa  162 151 164 145
    000305  aa  137 160 164 162
    000306  55   000315 000276
    000307  2a   000030 400001
    000310  55   000311 000003
    000311  aa  016 141 144 155         admin_log_iocb
    000312  aa  151 156 137 154
    000313  aa  157 147 137 151
    000314  aa  157 143 142 000
    000315  55   000326 000306
    000316  2a   000061 400001
    000317  55   000320 000003
    000320  aa  025 141 144 155         admin_listener_switch
    000321  aa  151 156 137 154
    000322  aa  151 163 164 145
    000323  aa  156 145 162 137
    000324  aa  163 167 151 164
    000325  aa  143 150 000 000
    000326  55   000340 000315
    000327  2a   000010 400001
    000330  55   000331 000003
    000331  aa  031 141 144 155         admin_listener_exit_label
    000332  aa  151 156 137 154
    000333  aa  151 163 164 145
    000334  aa  156 145 162 137
    000335  aa  145 170 151 164
    000336  aa  137 154 141 142
    000337  aa  145 154 000 000
    000340  55   000346 000326
    000341  2a   000060 400001
    000342  55   000343 000003
    000343  aa  012 123 164 141         Star_typed
    000344  aa  162 137 164 171
    000345  aa  160 145 144 000
    000346  55   000355 000340
    000347  2a   000057 400001
    000350  55   000351 000003
    000351  aa  015 115 165 154         Multics_typed
    000352  aa  164 151 143 163
    000353  aa  137 164 171 160
    000354  aa  145 144 000 000
    000355  55   000362 000346
    000356  2a   000056 400001
    000357  55   000360 000003
    000360  aa  007 115 165 154         Multics
    000361  aa  164 151 143 163
    000362  55   000370 000355
    000363  2a   000055 400001
    000364  55   000365 000003
    000365  aa  010 107 157 137         Go_typed
    000366  aa  164 171 160 145
    000367  aa  144 000 000 000
    000370  55   000374 000362
    000371  2a   000054 400001
    000372  55   000373 000003
    000373  aa  002 107 157 000         Go
    000374  55   000002 000370
    000375  6a   000000 400002
    000376  55   000377 000003
    000377  aa  014 163 171 155         symbol_table
    000400  aa  142 157 154 137
    000401  aa  164 141 142 154
    000402  aa  145 000 000 000

DEFINITIONS HASH TABLE

    000403  aa   000000 000065
    000404  aa   000000 000000
    000405  aa   000000 000000
    000406  5a   000147 000000
    000407  5a   000164 000000
    000410  5a   000210 000000
    000411  aa   000000 000000
    000412  5a   000257 000000
    000413  5a   000141 000000
    000414  5a   000156 000000
    000415  5a   000217 000000
    000416  5a   000326 000000
    000417  5a   000121 000000
    000420  5a   000203 000000
    000421  5a   000127 000000
    000422  5a   000134 000000
    000423  5a   000235 000000
    000424  5a   000042 000000
    000425  5a   000243 000000
    000426  5a   000251 000000
    000427  5a   000276 000000
    000430  5a   000102 000000
    000431  5a   000315 000000
    000432  5a   000370 000000
    000433  aa   000000 000000
    000434  5a   000340 000000
    000435  aa   000000 000000
    000436  aa   000000 000000
    000437  aa   000000 000000
    000440  5a   000346 000000
    000441  5a   000306 000000
    000442  5a   000074 000000
    000443  5a   000066 000000
    000444  5a   000060 000000
    000445  5a   000267 000000
    000446  5a   000374 000000
    000447  5a   000034 000000
    000450  aa   000000 000000
    000451  aa   000000 000000
    000452  aa   000000 000000
    000453  aa   000000 000000
    000454  5a   000355 000000
    000455  aa   000000 000000
    000456  aa   000000 000000
    000457  aa   000000 000000
    000460  5a   000362 000000
    000461  aa   000000 000000
    000462  5a   000053 000000
    000463  5a   000173 000000
    000464  5a   000111 000000
    000465  aa   000000 000000
    000466  5a   000011 000000
    000467  5a   000022 000000
    000470  5a   000225 000000

NO EXTERNAL NAMES

NO TRAP POINTER WORDS

TYPE PAIR BLOCKS

    000471  aa   000001 000000
    000472  aa   000000 000000

INTERNAL EXPRESSION WORDS

    000473  aa   000000 000000
LINKAGE INFORMATION

    000000  aa   000000 000000
    000001  0a   000000 000000
    000002  aa   000000 000000
    000003  aa   000000 000000
    000004  aa   000000 000000
    000005  aa   000000 000000
    000006  22   000364 000364
    000007  a2   000000 000354
SYMBOL INFORMATION

SYMBOL TABLE HEADER

    000000  aa   000000 000001
    000001  aa   163171 155142
    000002  aa   164162 145145
    000003  aa   000000 000010
    000004  aa   000000 117244
    000005  aa   361023 525721
    000006  aa   000000 117547
    000007  aa   243642 710453
    000010  aa   141154 155040
    000011  aa   040040 040040
    000012  aa   000024 000040
    000013  aa   000034 000040
    000014  aa   000044 000100
    000015  aa   000002 000002
    000016  aa   000064 000000
    000017  aa   000000 000207
    000020  aa   000000 000102
    000021  aa   000124 000104
    000022  aa   000201 000102
    000023  aa   000064 000000
    000024  aa   101114 115040
    000025  aa   126145 162163
    000026  aa   151157 156040
    000027  aa   070056 061064
    000030  aa   040115 141162
    000031  aa   143150 040061
    000032  aa   071070 071040
    000033  aa   040040 040040
    000034  aa   110151 162156
    000035  aa   145151 163145
    000036  aa   156056 123171
    000037  aa   163115 141151
    000040  aa   156164 056141
    000041  aa   040040 040040
    000042  aa   040040 040040
    000043  aa   040040 040040
    000044  aa   055164 141162
    000045  aa   147145 164040
    000046  aa   154066 070040
    000047  aa   040040 040040
    000050  aa   040040 040040
    000051  aa   040040 040040
    000052  aa   040040 040040
    000053  aa   040040 040040
    000054  aa   040040 040040
    000055  aa   040040 040040
    000056  aa   040154 151163
    000057  aa   164040 163171
    000060  aa   155142 157154
    000061  aa   163040 040040
    000062  aa   040040 040040
    000063  aa   040040 040040
    000064  aa   000000 000001
    000065  aa   000000 000001
    000066  aa   000072 000037
    000067  aa   175453 020352
    000070  aa   000000 117547
    000071  aa   177661 600000
    000072  aa   076163 160145          >spec>install>1112>sc_stat_.alm
    000073  aa   143076 151156
    000074  aa   163164 141154
    000075  aa   154076 061061
    000076  aa   061062 076163
    000077  aa   143137 163164
    000100  aa   141164 137056
    000101  aa   141154 155040
               MULTICS ASSEMBLY CROSS REFERENCE LISTING

   Value        Symbol                   Source file   Line number

          10    admin_listener_exit_label      sc_stat_:      38,   85.
          61    admin_listener_switch    sc_stat_:      39,  124.
          30    admin_log_iocb           sc_stat_:      40,   99.
          24    admin_log_write_ptr      sc_stat_:      41,   95.
          44    admin_sci_ptr            sc_stat_:      42,  107.
          26    as_log_write_ptr         sc_stat_:      43,   96.
          62    did_part1                sc_stat_:      44,  126.
          63    did_part2                sc_stat_:      45,  127.
          64    did_part3                sc_stat_:      46,  128.
          72    exec_access_name         sc_stat_:      47,  139.
           0    false                    sc_stat_:     116,  118,  119,  120,  121,  122,  125,  126,  127,  128,  129,  131,  132.
          54    Go                       sc_stat_:      33,  118.
          55    Go_typed                 sc_stat_:      34,  119.
         112    info_dir                 sc_stat_:      48,  147.
          50    initzer_ttyp             sc_stat_:      49,  111.
         164    log_dir                  sc_stat_:      50,  148.
          14    master_abort_label       sc_stat_:      51,   88.
         362    master_channel           sc_stat_:      52,  153.
          32    master_iocb              sc_stat_:      53,  100.
          46    master_sci_ptr           sc_stat_:      54,  108.
         236    mc_acs_dir               sc_stat_:      55,  149.
          52    mc_ansp                  sc_stat_:      56,  112.
          34    mc_iocb                  sc_stat_:      57,  101.
          65    mc_is_on                 sc_stat_:      58,  129.
          56    Multics                  sc_stat_:      35,  120.
          57    Multics_typed            sc_stat_:      36,  121.
          66    no_operator_login        sc_stat_:      59,  130.
          67    shutdown_typed           sc_stat_:      60,  131.
          60    Star_typed               sc_stat_:      37,  122.
          10    statc                    sc_stat_:      30,   31.
          36    sv1_iocb                 sc_stat_:      61,  102.
          40    sv2_iocb                 sc_stat_:      62,  103.
          42    sv3_iocb                 sc_stat_:      63,  104.
         310    sysdir                   sc_stat_:      64,  150.
          20    system_shutdown_label    sc_stat_:      65,   90.
          70    test_mode                sc_stat_:      66,  132.
           0    true                     sc_stat_:     117,  130,  134.
         102    unidentified_access_name       sc_stat_:      67,  141.
          71    vchn_requires_accept     sc_stat_:      68,  133.


NO FATAL ERRORS


                                          -----------------------------------------------------------


Historical Background

This edition of the Multics software materials and documentation is provided and donated
to Massachusetts Institute of Technology by Group BULL including BULL HN Information Systems Inc.
as a contribution to computer science knowledge.
This donation is made also to give evidence of the common contributions of Massachusetts Institute of Technology,
Bell Laboratories, General Electric, Honeywell Information Systems Inc., Honeywell BULL Inc., Groupe BULL
and BULL HN Information Systems Inc. to the development of this operating system.
Multics development was initiated by Massachusetts Institute of Technology Project MAC (1963-1970),
renamed the MIT Laboratory for Computer Science and Artificial Intelligence in the mid 1970s, under the leadership
of Professor Fernando Jose Corbato. Users consider that Multics provided the best software architecture
for managing computer hardware properly and for executing programs. Many subsequent operating systems
incorporated Multics principles.
Multics was distributed in 1975 to 2000 by Group Bull in Europe , and in the U.S. by Bull HN Information Systems Inc.,
as successor in interest by change in name only to Honeywell Bull Inc. and Honeywell Information Systems Inc. .

                                          -----------------------------------------------------------

Permission to use, copy, modify, and distribute these programs and their documentation for any purpose and without
fee is hereby granted,provided that the below copyright notice and historical background appear in all copies
and that both the copyright notice and historical background and this permission notice appear in supporting
documentation, and that the names of MIT, HIS, BULL or BULL HN not be used in advertising or publicity pertaining
to distribution of the programs without specific prior written permission.
    Copyright 1972 by Massachusetts Institute of Technology and Honeywell Information Systems Inc.
    Copyright 2006 by BULL HN Information Systems Inc.
    Copyright 2006 by Bull SAS
    All Rights Reserved
