ASSEMBLY LISTING OF SEGMENT >spec>install>1110>set_stack_ptr.alm
ASSEMBLED ON:	11/11/89  0953.6 mst Sat
OPTIONS USED:	-target l68                              list symbols
ASSEMBLED BY:	ALM Version 8.14 March 1989
ASSEMBLER CREATED:	06/09/89  1002.3 mst Fri

                                     1  " ***********************************************************
                                     2  " *                                                         *
                                     3  " * Copyright, (C) Honeywell Bull Inc., 1987                *
                                     4  " *                                                         *
                                     5  " * Copyright, (C) Honeywell Information Systems Inc., 1982 *
                                     6  " *                                                         *
                                     7  " * Copyright (c) 1972 by Massachusetts Institute of        *
                                     8  " * Technology and Honeywell Information Systems, Inc.      *
                                     9  " *                                                         *
                                    10  " ***********************************************************
                                    11
                                    12  " routine to set the value of pds$stacks(cur_val_level) to the specified value
                                    13  " required for tasking with separate linkage for each stack
                                    14
                        000000      15  	entry	set_stack_ptr
    000000                          16  set_stack_ptr:
    000000  aa  0 00002 3521 20     17  	eppbp	ap|2,*		bp<-->new_stack_pointer
    000001  aa  2 00000 3525 20     18  	epbpbp	bp|0,*		bp<-->base of new stack
    000002  4a  4 00010 2351 20     19  	lda	<pds>|[validation_level]	a<-current validation level
    000003  aa   000001 7350 00     20  	als	1		a<-2*cur_val_level (two words for each pointer)
    000004  4a  4 00012 2521 20     21  	spribp	<pds>|[stacks],al	place new value into appropriate slot
    000005  aa  7 00044 7101 20     22  	short_return
                                    23  	end
ENTRY SEQUENCES

    000006  5a   000012 0000 00
    000007  aa  7 00046 2721 20
    000010  0a   000000 7100 00

NO LITERALS

NAME DEFINITIONS FOR ENTRY POINTS AND SEGDEFS

    000012  5a   000003 000000
    000013  5a   000030 600000
    000014  aa   000000 000000
    000015  55   000012 000002
    000016  5a   000002 400003
    000017  55   000006 000012
    000020  aa  015 163 145 164
    000021  aa  137 163 164 141
    000022  aa  143 153 137 160
    000023  aa  164 162 000 000
    000024  55   000021 000003
    000025  0a   000007 500000
    000026  55   000015 000003
    000027  aa  015 163 145 164         set_stack_ptr
    000030  aa  137 163 164 141
    000031  aa  143 153 137 160
    000032  aa  164 162 000 000
    000033  55   000002 000012
    000034  6a   000000 400002
    000035  55   000024 000003
    000036  aa  014 163 171 155         symbol_table
    000037  aa  142 157 154 137
    000040  aa  164 141 142 154
    000041  aa  145 000 000 000

DEFINITIONS HASH TABLE

    000042  aa   000000 000015
    000043  aa   000000 000000
    000044  aa   000000 000000
    000045  aa   000000 000000
    000046  aa   000000 000000
    000047  aa   000000 000000
    000050  aa   000000 000000
    000051  5a   000021 000000
    000052  aa   000000 000000
    000053  aa   000000 000000
    000054  aa   000000 000000
    000055  aa   000000 000000
    000056  aa   000000 000000
    000057  5a   000012 000000

EXTERNAL NAMES

    000060  aa  006 163 164 141         stacks
    000061  aa  143 153 163 000
    000062  aa  020 166 141 154         validation_level
    000063  aa  151 144 141 164
    000064  aa  151 157 156 137
    000065  aa  154 145 166 145
    000066  aa  154 000 000 000
    000067  aa  003 160 144 163         pds

NO TRAP POINTER WORDS

TYPE PAIR BLOCKS

    000070  aa   000004 000000
    000071  55   000055 000046
    000072  aa   000004 000000
    000073  55   000055 000050
    000074  aa   000001 000000
    000075  aa   000000 000000

INTERNAL EXPRESSION WORDS

    000076  5a   000056 000000
    000077  5a   000060 000000
LINKAGE INFORMATION

    000000  aa   000000 000000
    000001  0a   000012 000000
    000002  aa   000000 000000
    000003  aa   000000 000000
    000004  aa   000000 000000
    000005  aa   000000 000000
    000006  22   000010 000014
    000007  a2   000000 000000
    000010  9a   777770 0000 46         pds|validation_level
    000011  5a   000065 0000 00
    000012  9a   777766 0000 46         pds|stacks
    000013  5a   000064 0000 05
SYMBOL INFORMATION

SYMBOL TABLE HEADER

    000000  aa   000000 000001
    000001  aa   163171 155142
    000002  aa   164162 145145
    000003  aa   000000 000010
    000004  aa   000000 117244
    000005  aa   361023 525721
    000006  aa   000000 117547
    000007  aa   257242 753473
    000010  aa   141154 155040
    000011  aa   040040 040040
    000012  aa   000024 000040
    000013  aa   000034 000040
    000014  aa   000044 000100
    000015  aa   000002 000002
    000016  aa   000064 000000
    000017  aa   000000 000130
    000020  aa   000000 000103
    000021  aa   000112 000106
    000022  aa   000122 000103
    000023  aa   000064 000000
    000024  aa   101114 115040
    000025  aa   126145 162163
    000026  aa   151157 156040
    000027  aa   070056 061064
    000030  aa   040115 141162
    000031  aa   143150 040061
    000032  aa   071070 071040
    000033  aa   040040 040040
    000034  aa   110151 162156
    000035  aa   145151 163145
    000036  aa   156056 123171
    000037  aa   163115 141151
    000040  aa   156164 056141
    000041  aa   040040 040040
    000042  aa   040040 040040
    000043  aa   040040 040040
    000044  aa   055164 141162
    000045  aa   147145 164040
    000046  aa   154066 070040
    000047  aa   040040 040040
    000050  aa   040040 040040
    000051  aa   040040 040040
    000052  aa   040040 040040
    000053  aa   040040 040040
    000054  aa   040040 040040
    000055  aa   040040 040040
    000056  aa   040154 151163
    000057  aa   164040 163171
    000060  aa   155142 157154
    000061  aa   163040 040040
    000062  aa   040040 040040
    000063  aa   040040 040040
    000064  aa   000000 000001
    000065  aa   000000 000001
    000066  aa   000072 000044
    000067  aa   175453 017224
    000070  aa   000000 117547
    000071  aa   174651 000000
    000072  aa   076163 160145          >spec>install>1110>set_stack_ptr.alm
    000073  aa   143076 151156
    000074  aa   163164 141154
    000075  aa   154076 061061
    000076  aa   061060 076163
    000077  aa   145164 137163
    000100  aa   164141 143153
    000101  aa   137160 164162
    000102  aa   056141 154155
               MULTICS ASSEMBLY CROSS REFERENCE LISTING

   Value        Symbol                   Source file   Line number

                pds                      set_stack_ptr:       19,   21.
           0    set_stack_ptr            set_stack_ptr:       15,   16.
                stacks                   set_stack_ptr:       21.
                validation_level         set_stack_ptr:       19.


NO FATAL ERRORS


                                          -----------------------------------------------------------


Historical Background

This edition of the Multics software materials and documentation is provided and donated
to Massachusetts Institute of Technology by Group BULL including BULL HN Information Systems Inc.
as a contribution to computer science knowledge.
This donation is made also to give evidence of the common contributions of Massachusetts Institute of Technology,
Bell Laboratories, General Electric, Honeywell Information Systems Inc., Honeywell BULL Inc., Groupe BULL
and BULL HN Information Systems Inc. to the development of this operating system.
Multics development was initiated by Massachusetts Institute of Technology Project MAC (1963-1970),
renamed the MIT Laboratory for Computer Science and Artificial Intelligence in the mid 1970s, under the leadership
of Professor Fernando Jose Corbato. Users consider that Multics provided the best software architecture
for managing computer hardware properly and for executing programs. Many subsequent operating systems
incorporated Multics principles.
Multics was distributed in 1975 to 2000 by Group Bull in Europe , and in the U.S. by Bull HN Information Systems Inc.,
as successor in interest by change in name only to Honeywell Bull Inc. and Honeywell Information Systems Inc. .

                                          -----------------------------------------------------------

Permission to use, copy, modify, and distribute these programs and their documentation for any purpose and without
fee is hereby granted,provided that the below copyright notice and historical background appear in all copies
and that both the copyright notice and historical background and this permission notice appear in supporting
documentation, and that the names of MIT, HIS, BULL or BULL HN not be used in advertising or publicity pertaining
to distribution of the programs without specific prior written permission.
    Copyright 1972 by Massachusetts Institute of Technology and Honeywell Information Systems Inc.
    Copyright 2006 by BULL HN Information Systems Inc.
    Copyright 2006 by Bull SAS
    All Rights Reserved
