ASSEMBLY LISTING OF SEGMENT >spec>install>1112>tape_dim_data_.alm
ASSEMBLED ON:	11/11/89  0927.2 mst Sat
OPTIONS USED:	-target l68                              list symbols
ASSEMBLED BY:	ALM Version 8.14 March 1989
ASSEMBLER CREATED:	06/09/89  1002.3 mst Fri

                                     1  " ***********************************************************
                                     2  " *                                                         *
                                     3  " * Copyright, (C) Honeywell Bull Inc., 1987                *
                                     4  " *                                                         *
                                     5  " * Copyright, (C) Honeywell Information Systems Inc., 1982 *
                                     6  " *                                                         *
                                     7  " * Copyright (c) 1972 by Massachusetts Institute of        *
                                     8  " * Technology and Honeywell Information Systems, Inc.      *
                                     9  " *                                                         *
                                    10  " ***********************************************************
                                    11
                                    12  "	This data segment is used to define the size of a tape record.  The value of the
                                    13  "	record_data_size variable is the number of WORDS in the data portion of a
                                    14  "	Multics standard record.  The two allowable values for this variable are:
                                    15  "		1024	the new standard
                                    16  "		256	the old standard which may be used temporarily.
                                    17  "	This segment is also used to define the size of the tdcm_ I/O buffer.
                                    18  "		2080	standard size = 2 1K Multics standard records
                                    19  "		4160	special  size = 4 1K Multics standard records
                                    20  "	These variables are defined in the linkage section so that each process
                                    21  "	will have its own copy.
                                    22
                                    23
    000000                          24  	name	tape_dim_data_
                                    25
                                    26
                                    27
                                    28  	use	linkage
                                    29  	join	/link/linkage
                                    30
                                    31
                                    32
                        000010      33  	segdef	record_data_size
                                    34
                        000011      35  	segdef	tdcm_buf_size
                                    36
    000010                          37  record_data_size:
    000010  aa   000000 002000      38  	dec	1024		Default is large records.
                                    39
    000011                          40  tdcm_buf_size:
    000011  aa   000000 004040      41  	dec	2080		Default is 2 large records.
                                    42
                                    43
                                    44  	end

NO LITERALS

NAME DEFINITIONS FOR ENTRY POINTS AND SEGDEFS

    000000  5a   000003 000000
    000001  5a   000040 600000
    000002  aa   000000 000000
    000003  55   000012 000002
    000004  5a   000002 400003
    000005  55   000006 000012
    000006  aa  016 164 141 160
    000007  aa  145 137 144 151
    000010  aa  155 137 144 141
    000011  aa  164 141 137 000
    000012  55   000021 000003
    000013  2a   000011 400001
    000014  55   000015 000003
    000015  aa  015 164 144 143         tdcm_buf_size
    000016  aa  155 137 142 165
    000017  aa  146 137 163 151
    000020  aa  172 145 000 000
    000021  55   000031 000012
    000022  2a   000010 400001
    000023  55   000024 000003
    000024  aa  020 162 145 143         record_data_size
    000025  aa  157 162 144 137
    000026  aa  144 141 164 141
    000027  aa  137 163 151 172
    000030  aa  145 000 000 000
    000031  55   000002 000021
    000032  6a   000000 400002
    000033  55   000034 000003
    000034  aa  014 163 171 155         symbol_table
    000035  aa  142 157 154 137
    000036  aa  164 141 142 154
    000037  aa  145 000 000 000

DEFINITIONS HASH TABLE

    000040  aa   000000 000015
    000041  aa   000000 000000
    000042  aa   000000 000000
    000043  5a   000012 000000
    000044  aa   000000 000000
    000045  aa   000000 000000
    000046  aa   000000 000000
    000047  5a   000031 000000
    000050  5a   000021 000000
    000051  aa   000000 000000
    000052  aa   000000 000000
    000053  aa   000000 000000
    000054  aa   000000 000000
    000055  aa   000000 000000

NO EXTERNAL NAMES

NO TRAP POINTER WORDS

TYPE PAIR BLOCKS

    000056  aa   000001 000000
    000057  aa   000000 000000

INTERNAL EXPRESSION WORDS

LINKAGE INFORMATION

    000000  aa   000000 000000
    000001  0a   000000 000000
    000002  aa   000000 000000
    000003  aa   000000 000000
    000004  aa   000000 000000
    000005  aa   000000 000000
    000006  22   000012 000012
    000007  a2   000000 000002
SYMBOL INFORMATION

SYMBOL TABLE HEADER

    000000  aa   000000 000001
    000001  aa   163171 155142
    000002  aa   164162 145145
    000003  aa   000000 000010
    000004  aa   000000 117244
    000005  aa   361023 525721
    000006  aa   000000 117547
    000007  aa   243423 154526
    000010  aa   141154 155040
    000011  aa   040040 040040
    000012  aa   000024 000040
    000013  aa   000034 000040
    000014  aa   000044 000100
    000015  aa   000002 000002
    000016  aa   000064 000000
    000017  aa   000000 000127
    000020  aa   000000 000104
    000021  aa   000111 000106
    000022  aa   000121 000104
    000023  aa   000064 000000
    000024  aa   101114 115040
    000025  aa   126145 162163
    000026  aa   151157 156040
    000027  aa   070056 061064
    000030  aa   040115 141162
    000031  aa   143150 040061
    000032  aa   071070 071040
    000033  aa   040040 040040
    000034  aa   110151 162156
    000035  aa   145151 163145
    000036  aa   156056 123171
    000037  aa   163115 141151
    000040  aa   156164 056141
    000041  aa   040040 040040
    000042  aa   040040 040040
    000043  aa   040040 040040
    000044  aa   055164 141162
    000045  aa   147145 164040
    000046  aa   154066 070040
    000047  aa   040040 040040
    000050  aa   040040 040040
    000051  aa   040040 040040
    000052  aa   040040 040040
    000053  aa   040040 040040
    000054  aa   040040 040040
    000055  aa   040040 040040
    000056  aa   040154 151163
    000057  aa   164040 163171
    000060  aa   155142 157154
    000061  aa   163040 040040
    000062  aa   040040 040040
    000063  aa   040040 040040
    000064  aa   000000 000001
    000065  aa   000000 000001
    000066  aa   000072 000045
    000067  aa   175453 020407
    000070  aa   000000 117547
    000071  aa   201451 600000
    000072  aa   076163 160145          >spec>install>1112>tape_dim_data_.alm
    000073  aa   143076 151156
    000074  aa   163164 141154
    000075  aa   154076 061061
    000076  aa   061062 076164
    000077  aa   141160 145137
    000100  aa   144151 155137
    000101  aa   144141 164141
    000102  aa   137056 141154
    000103  aa   155040 040040
               MULTICS ASSEMBLY CROSS REFERENCE LISTING

   Value        Symbol                   Source file   Line number

          10    linkage                  tape_dim_data_:      28,   29.
          10    record_data_size         tape_dim_data_:      33,   37.
          11    tdcm_buf_size            tape_dim_data_:      35,   40.


NO FATAL ERRORS


                                          -----------------------------------------------------------


Historical Background

This edition of the Multics software materials and documentation is provided and donated
to Massachusetts Institute of Technology by Group BULL including BULL HN Information Systems Inc.
as a contribution to computer science knowledge.
This donation is made also to give evidence of the common contributions of Massachusetts Institute of Technology,
Bell Laboratories, General Electric, Honeywell Information Systems Inc., Honeywell BULL Inc., Groupe BULL
and BULL HN Information Systems Inc. to the development of this operating system.
Multics development was initiated by Massachusetts Institute of Technology Project MAC (1963-1970),
renamed the MIT Laboratory for Computer Science and Artificial Intelligence in the mid 1970s, under the leadership
of Professor Fernando Jose Corbato. Users consider that Multics provided the best software architecture
for managing computer hardware properly and for executing programs. Many subsequent operating systems
incorporated Multics principles.
Multics was distributed in 1975 to 2000 by Group Bull in Europe , and in the U.S. by Bull HN Information Systems Inc.,
as successor in interest by change in name only to Honeywell Bull Inc. and Honeywell Information Systems Inc. .

                                          -----------------------------------------------------------

Permission to use, copy, modify, and distribute these programs and their documentation for any purpose and without
fee is hereby granted,provided that the below copyright notice and historical background appear in all copies
and that both the copyright notice and historical background and this permission notice appear in supporting
documentation, and that the names of MIT, HIS, BULL or BULL HN not be used in advertising or publicity pertaining
to distribution of the programs without specific prior written permission.
    Copyright 1972 by Massachusetts Institute of Technology and Honeywell Information Systems Inc.
    Copyright 2006 by BULL HN Information Systems Inc.
    Copyright 2006 by Bull SAS
    All Rights Reserved
