ASSEMBLY LISTING OF SEGMENT >dumps>old>h>time_data_.alm
ASSEMBLED ON:	07/02/84  1153.2 mst Mon
OPTIONS USED:	list
ASSEMBLED BY:	ALM Version  6.6  November 1982
ASSEMBLER CREATED:	09/21/83  1227.3 mst Wed

                                     1  "  ******************************************************
                                     2  "  *                                                    *
                                     3  "  *                                                    *
                                     4  "  * Copyright (c) 1972 by Massachusetts Institute of   *
                                     5  "  * Technology and Honeywell Information Systems, Inc. *
                                     6  "  *                                                    *
                                     7  "  *                                                    *
                                     8  "  ******************************************************
                                     9
    000000                          10  	name	time_data_
                                    11  "
                                    12  " time_data_: Information about per-process time zone interpretation.
                                    13  " Written by C. Hornig, Martch 1980.
                                    14  " Modified '82 to remove internal static
                                    15  "
                        000012      16  	segdef	time_zone
                        000010      17  	segdef	time_delta
                                    18  "
                        000000      19  	entry	time_data_init
                                    20  	use	data
                                    21  "
                                    22  	even
    000010                          23  time_delta:
    000010  aa   777777 777777      24  	dec	-1
    000011  aa   777777 777777      25  	dec	-1
    000012                          26  time_zone:
    000012  aa   000000 000000      27  	zero	0
                                    28  "
                                    29  	use	init
                                    30  "
    000000                          31  time_data_init:
    000000  4a  4 00014 2371 20     32  	ldaq	sys_info$time_correction_constant
    000001  9a  4 00010 7571 00     33  	staq	lp|time_delta
    000002  4a  4 00016 2351 20     34  	lda	sys_info$time_zone
    000003  9a  4 00012 7551 00     35  	sta	lp|time_zone
    000004  aa  7 00044 7101 20     36  	short_return
                                    37  "
                                    38  	join	/link/data
                                    39  	join	/text/init
                                    40  "
                                    41  	end	time_data_
ENTRY SEQUENCES

    000005  5a   000011 0000 00
    000006  aa  7 00046 2721 20
    000007  0a   000000 7100 00

NO LITERALS

NAME DEFINITIONS FOR ENTRY POINTS AND SEGDEFS

    000010  5a   000003 000000
    000011  5a   000043 600000
    000012  aa   000000 000000
    000013  55   000011 000002
    000014  5a   000002 400003
    000015  55   000006 000011
    000016  aa  012 164 151 155
    000017  aa  145 137 144 141
    000020  aa  164 141 137 000
    000021  55   000020 000003
    000022  0a   000006 500000
    000023  55   000014 000003
    000024  aa  016 164 151 155         time_data_init
    000025  aa  145 137 144 141
    000026  aa  164 141 137 151
    000027  aa  156 151 164 000
    000030  55   000026 000011
    000031  2a   000010 400001
    000032  55   000023 000003
    000033  aa  012 164 151 155         time_delta
    000034  aa  145 137 144 145
    000035  aa  154 164 141 000
    000036  55   000034 000020
    000037  2a   000012 400001
    000040  55   000031 000003
    000041  aa  011 164 151 155         time_zone
    000042  aa  145 137 172 157
    000043  aa  156 145 000 000
    000044  55   000002 000026
    000045  6a   000000 400002
    000046  55   000037 000003
    000047  aa  014 163 171 155         symbol_table
    000050  aa  142 157 154 137
    000051  aa  164 141 142 154
    000052  aa  145 000 000 000

DEFINITIONS HASH TABLE

    000053  aa   000000 000015
    000054  5a   000020 000000
    000055  aa   000000 000000
    000056  aa   000000 000000
    000057  aa   000000 000000
    000060  aa   000000 000000
    000061  5a   000026 000000
    000062  5a   000011 000000
    000063  5a   000034 000000
    000064  aa   000000 000000
    000065  aa   000000 000000
    000066  aa   000000 000000
    000067  aa   000000 000000
    000070  aa   000000 000000

EXTERNAL NAMES

    000071  aa  030 164 151 155         time_correction_constant
    000072  aa  145 137 143 157
    000073  aa  162 162 145 143
    000074  aa  164 151 157 156
    000075  aa  137 143 157 156
    000076  aa  163 164 141 156
    000077  aa  164 000 000 000
    000100  aa  010 163 171 163         sys_info
    000101  aa  137 151 156 146
    000102  aa  157 000 000 000

NO TRAP POINTER WORDS

TYPE PAIR BLOCKS

    000103  aa   000004 000000
    000104  55   000070 000031
    000105  aa   000004 000000
    000106  55   000070 000061
    000107  aa   000001 000000
    000110  aa   000000 000000

INTERNAL EXPRESSION WORDS

    000111  5a   000073 000000
    000112  5a   000075 000000
    000113  aa   000000 000000
LINKAGE INFORMATION

    000000  aa   000000 000000
    000001  0a   000010 000000
    000002  aa   000000 000000
    000003  aa   000000 000000
    000004  aa   000000 000000
    000005  aa   000000 000000
    000006  22   000014 000020
    000007  a2   000000 000004
    000014  9a   777764 0000 46         sys_info|time_correction_constant
    000015  5a   000102 0000 00
    000016  9a   777762 0000 46         sys_info|time_zone
    000017  5a   000101 0000 00
SYMBOL INFORMATION

SYMBOL TABLE HEADER

    000000  aa   000000 000001
    000001  aa   163171 155142
    000002  aa   164162 145145
    000003  aa   000000 000004
    000004  aa   000000 112143
    000005  aa   305203 523135
    000006  aa   000000 112711
    000007  aa   535106 605714
    000010  aa   141154 155040
    000011  aa   040040 040040
    000012  aa   000024 000040
    000013  aa   000034 000040
    000014  aa   000044 000100
    000015  aa   000002 000002
    000016  aa   000064 000000
    000017  aa   000000 000117
    000020  aa   000000 000101
    000021  aa   000000 000105
    000022  aa   000111 000101
    000023  aa   000064 000000
    000024  aa   101114 115040
    000025  aa   126145 162163
    000026  aa   151157 156040
    000027  aa   040066 056066
    000030  aa   040040 116157
    000031  aa   166145 155142
    000032  aa   145162 040061
    000033  aa   071070 062040
    000034  aa   107112 157150
    000035  aa   156163 157156
    000036  aa   056123 171163
    000037  aa   115141 151156
    000040  aa   164056 141040
    000041  aa   040040 040040
    000042  aa   040040 040040
    000043  aa   040040 040040
    000044  aa   154151 163164
    000045  aa   040040 040040
    000046  aa   040040 040040
    000047  aa   040040 040040
    000050  aa   040040 040040
    000051  aa   040040 040040
    000052  aa   040040 040040
    000053  aa   040040 040040
    000054  aa   040040 040040
    000055  aa   040040 040040
    000056  aa   040040 040040
    000057  aa   040040 040040
    000060  aa   040040 040040
    000061  aa   040040 040040
    000062  aa   040040 040040
    000063  aa   040040 040040
    000064  aa   000000 000001
    000065  aa   000000 000001
    000066  aa   000072 000033
    000067  aa   127065 646132
    000070  aa   000000 112711
    000071  aa   524477 200000
    000072  aa   076144 165155          >dumps>old>h>time_data_.alm
    000073  aa   160163 076157
    000074  aa   154144 076150
    000075  aa   076164 151155
    000076  aa   145137 144141
    000077  aa   164141 137056
    000100  aa   141154 155040
               MULTICS ASSEMBLY CROSS REFERENCE LISTING

   Value        Symbol                   Source file   Line number

          10    data                     time_data_:    20,   38.
           0    init                     time_data_:    29,   39.
                sys_info                 time_data_:    32,   34.
                time_correction_constant       time_data_:    32.
           0    time_data_init           time_data_:    19,   31.
          10    time_delta               time_data_:    17,   23,   33.
          12    time_zone                time_data_:    16,   26,   34,   35.


NO FATAL ERRORS


                                          -----------------------------------------------------------


Historical Background

This edition of the Multics software materials and documentation is provided and donated
to Massachusetts Institute of Technology by Group BULL including BULL HN Information Systems Inc.
as a contribution to computer science knowledge.
This donation is made also to give evidence of the common contributions of Massachusetts Institute of Technology,
Bell Laboratories, General Electric, Honeywell Information Systems Inc., Honeywell BULL Inc., Groupe BULL
and BULL HN Information Systems Inc. to the development of this operating system.
Multics development was initiated by Massachusetts Institute of Technology Project MAC (1963-1970),
renamed the MIT Laboratory for Computer Science and Artificial Intelligence in the mid 1970s, under the leadership
of Professor Fernando Jose Corbato. Users consider that Multics provided the best software architecture
for managing computer hardware properly and for executing programs. Many subsequent operating systems
incorporated Multics principles.
Multics was distributed in 1975 to 2000 by Group Bull in Europe , and in the U.S. by Bull HN Information Systems Inc.,
as successor in interest by change in name only to Honeywell Bull Inc. and Honeywell Information Systems Inc. .

                                          -----------------------------------------------------------

Permission to use, copy, modify, and distribute these programs and their documentation for any purpose and without
fee is hereby granted,provided that the below copyright notice and historical background appear in all copies
and that both the copyright notice and historical background and this permission notice appear in supporting
documentation, and that the names of MIT, HIS, BULL or BULL HN not be used in advertising or publicity pertaining
to distribution of the programs without specific prior written permission.
    Copyright 1972 by Massachusetts Institute of Technology and Honeywell Information Systems Inc.
    Copyright 2006 by BULL HN Information Systems Inc.
    Copyright 2006 by Bull SAS
    All Rights Reserved
