ASSEMBLY LISTING OF SEGMENT >special_ldd>install>MR12.3-1114>time_defaults_.alm
ASSEMBLED ON:	11/11/89  0933.7 mst Sat
OPTIONS USED:	-target l68                              list symbols
ASSEMBLED BY:	ALM Version 8.14 March 1989
ASSEMBLER CREATED:	06/09/89  1002.3 mst Fri

                                     1  " ***********************************************************
                                     2  " *                                                         *
                                     3  " * Copyright, (C) Honeywell Bull Inc., 1987                *
                                     4  " *                                                         *
                                     5  " * Copyright, (C) Honeywell Information Systems Inc., 1983 *
                                     6  " *                                                         *
                                     7  " ***********************************************************
                                     8
                                     9  "  *  *  *  *  *  *  *  *  *  *  *  *  *  *  *  *  *  *  *  *  *  *  *  *  *  "
                                    10  "							        "
                                    11  "  Name:  time_defaults_					        "
                                    12  "							        "
                                    13  "  This table defines user-settable, per-process default values for the time  "
                                    14  "  zone and time language in which dates and times are expressed.  The values "
                                    15  "  stored in this table must appear in the time_data_.  Refer to	        "
                                    16  "  time_names_.incl.pl1 for more information about the time_data_  Use this   "
                                    17  "  include file to reference values in this time_defaults_ table.	        "
                                    18  "							        "
                                    19  "  Values in this table can be set using the time_default command, or	        "
                                    20  "   the date_time_$set_(date_time date time lang zone) subroutines.	        "
                                    21  "							        "
                                    22  "  Entry:  time_defaults_$date_time				        "
                                    23  "							        "
                                    24  "  dcl time_defaults_$date_time  char(32)var;			        "
                                    25  "							        "
                                    26  "  The string to give to date_time_$format to get "standard" date/time        "
                                    27  "							        "
                                    28  "  Entry:  time_defaults_$date				        "
                                    29  "							        "
                                    30  "  dcl time_defaults_$date  char(32)var;			        "
                                    31  "							        "
                                    32  "  The string to give to date_time_$format to get "standard" time	        "
                                    33  "							        "
                                    34  "  Entry:  time_defaults_$time				        "
                                    35  "							        "
                                    36  "  dcl time_defaults_$time  char(32)var;			        "
                                    37  "							        "
                                    38  "  The string to give to date_time_$format to get "standard" time	        "
                                    39  "							        "
                                    40  "  Entry:  time_defaults_$language				        "
                                    41  "							        "
                                    42  "  dcl time_defaults_$language  char(32);			        "
                                    43  "							        "
                                    44  "  The name of the default time language in which day names and month names   "
                                    45  "  given in dates are expressed.  The value must be one of those given in     "
                                    46  "  time_data_$language_names.					        "
                                    47  "							        "
                                    48  "  Entry:  time_defaults_$language_index			        "
                                    49  "							        "
                                    50  "  dcl time_defaults_$language_index fixed bin;			        "
                                    51  "							        "
                                    52  "  The value of tt_language_names.index (from time_data_$language_names) for  "
                                    53  "  the default time language.  This can be used as an index into the other    "
                                    54  "  tables of time_data_ to find names in the default language.	        "
                                    55  "							        "
                                    56  
                                    57  "  Entry:  time_defaults_$zone_long				        "
                                    58  "							        "
                                    59  "  dcl time_defaults_$zone_long char(32) varying;			        "
                                    60  "							        "
                                    61  "  The full name of the default time zone associated with this process        "
                                    62  "  (eg, Mountain Standard Time).				        "
                                    63  "  Time character strings are, by default, expressed in this time zone.       "
                                    64  "							        "
                                    65  "  Entry:  time_defaults_$zone_short				        "
                                    66  "							        "
                                    67  "  dcl time_defaults_$zone_short char(4) varying;			        "
                                    68  "							        "
                                    69  "  The acronym for the default time zone (eg, mst for Mountain Standard Time) "
                                    70  "							        "
                                    71  "  Entry:  time_defaults_$zone_delta				        "
                                    72  "							        "
                                    73  "  dcl time_defaults_$zone_delta fixed bin(71);			        "
                                    74  "							        "
                                    75  "  The offset, in microseconds, of the default time zone from GMT.	        "
                                    76  "							        "
                                    77  "  Entry:  time_defaults_$zone_index				        "
                                    78  "							        "
                                    79  "  dcl time_defaults_$zone_index fixed bin;			        "
                                    80  "							        "
                                    81  "  The index (in time_data_$zone_names) of the default time zone.	        "
                                    82  "							        "
                                    83  "  Entry:  time_default_$debug				        "
                                    84  "							        "
                                    85  "  dcl time_defaults_$debug bit(1) aligned;			        "
                                    86  "							        "
                                    87  "  Status:						        "
                                    88  "							        "
                                    89  " 0) Created:  06/14/78- J. Falksen 				        "
                                    90  " 1) Modified: 07/04/78- G. Dixon	standardize names, add comments.      "
                                    91  " 2) Modified: 03/30/83- jaf		get ready to install	        "
                                    92  "							        "
                                    93  "  *  *  *  *  *  *  *  *  *  *  *  *  *  *  *  *  *  *  *  *  *  *  *  *  *  "
                                    94
                                    95
                                    96  " HISTORY COMMENTS:
                                    97  "  1) change(86-07-18,GDixon), approve(86-07-25,MCR7495),
                                    98  "     audit(86-07-25,Martinson), install(86-08-19,MR12.0-1120):
                                    99  "     Add time_default_$debug switch.
                                   100  "                                                      END HISTORY COMMENTS
                                   101
                                   102
                                   103  
                                   104
    000000                         105  	name	time_defaults_
                                   106
                        000042     107  	segdef	date_time,date,time
                        000113     108  	segdef	debug
                        000073     109  	segdef	language,language_index
                        000112     110  	segdef	zone_long,zone_short,zone_delta,zone_index
                        000107     111  	segdef	time_delta,time_zone
                                   112
                                   113  	use	static
                                   114  	join	/static/static
                                   115
    000000                         116  date_time:			"default date_time format string
    000000  aa   000000 000000     117  	dec	0
    000001  aa  040 040 040 040    118  	aci	" ",64
    000002  aa  040 040 040 040
    000003  aa  040 040 040 040
    000004  aa  040 040 040 040
    000005  aa  040 040 040 040
    000006  aa  040 040 040 040
    000007  aa  040 040 040 040
    000010  aa  040 040 040 040
    000011  aa  040 040 040 040
    000012  aa  040 040 040 040
    000013  aa  040 040 040 040
    000014  aa  040 040 040 040
    000015  aa  040 040 040 040
    000016  aa  040 040 040 040
    000017  aa  040 040 040 040
    000020  aa  040 040 040 040
                                   119
    000021                         120  date:				"default date format string
    000021  aa   000000 000000     121  	dec	0
    000022  aa  040 040 040 040    122  	aci	" ",64
    000023  aa  040 040 040 040
    000024  aa  040 040 040 040
    000025  aa  040 040 040 040
    000026  aa  040 040 040 040
    000027  aa  040 040 040 040
    000030  aa  040 040 040 040
    000031  aa  040 040 040 040
    000032  aa  040 040 040 040
    000033  aa  040 040 040 040
    000034  aa  040 040 040 040
    000035  aa  040 040 040 040
    000036  aa  040 040 040 040
    000037  aa  040 040 040 040
    000040  aa  040 040 040 040
    000041  aa  040 040 040 040
                                   123
    000042                         124  time:				"default time format string
    000042  aa   000000 000000     125  	dec	0
    000043  aa  040 040 040 040    126  	aci	" ",64
    000044  aa  040 040 040 040
    000045  aa  040 040 040 040
    000046  aa  040 040 040 040
    000047  aa  040 040 040 040
    000050  aa  040 040 040 040
    000051  aa  040 040 040 040
    000052  aa  040 040 040 040
    000053  aa  040 040 040 040
    000054  aa  040 040 040 040
    000055  aa  040 040 040 040
    000056  aa  040 040 040 040
    000057  aa  040 040 040 040
    000060  aa  040 040 040 040
    000061  aa  040 040 040 040
    000062  aa  040 040 040 040
                                   127
    000063                         128  language:				"default language name
    000063  aa  040 040 040 040    129  	aci " ",32
    000064  aa  040 040 040 040
    000065  aa  040 040 040 040
    000066  aa  040 040 040 040
    000067  aa  040 040 040 040
    000070  aa  040 040 040 040
    000071  aa  040 040 040 040
    000072  aa  040 040 040 040
                                   130
    000073                         131  language_index:			"default language index
    000073  aa   000000 000000     132  	dec 0
                                   133
    000074                         134  zone_long:			"default zone (full name)
    000074  aa   000000 000000     135  	dec	0
    000075  aa  040 040 040 040    136  	aci	" ",32
    000076  aa  040 040 040 040
    000077  aa  040 040 040 040
    000100  aa  040 040 040 040
    000101  aa  040 040 040 040
    000102  aa  040 040 040 040
    000103  aa  040 040 040 040
    000104  aa  040 040 040 040
                                   137
    000105                         138  zone_short:			"default zone (acronym)
    000105  aa   000000 000000     139  	dec	0
    000106  aa  040 040 040 040    140  	aci	" ",4
    000107                         141  time_zone:
    000107  aa  040 040 040 040    142  	aci	" ",4		"time_data_$time_zone
                                   143  		even
    000110                         144  time_delta:			"time_data_$time_delta
    000110                         145  zone_delta:			"time delta for default zone
    000110  aa   777777 777777     146  	dec	-1,-1
    000111  aa   777777 777777
                                   147
    000112                         148  zone_index:			"index in time_data_$zone_names of default zone
    000112  aa   000000 000000     149  	dec	0
                                   150
    000113  aa   000000 000000     151  debug:	dec	0		"debugging off by default
                                   152
                                   153  	end

NO LITERALS

NAME DEFINITIONS FOR ENTRY POINTS AND SEGDEFS

    000000  5a   000003 000000
    000001  5a   000127 600000
    000002  aa   000000 000000
    000003  55   000012 000002
    000004  5a   000002 400003
    000005  55   000006 000012
    000006  aa  016 164 151 155
    000007  aa  145 137 144 145
    000010  aa  146 141 165 154
    000011  aa  164 163 137 000
    000012  55   000020 000003
    000013  4a   000107 400004
    000014  55   000015 000003
    000015  aa  011 164 151 155         time_zone
    000016  aa  145 137 172 157
    000017  aa  156 145 000 000
    000020  55   000026 000012
    000021  4a   000110 400004
    000022  55   000023 000003
    000023  aa  012 164 151 155         time_delta
    000024  aa  145 137 144 145
    000025  aa  154 164 141 000
    000026  55   000034 000020
    000027  4a   000112 400004
    000030  55   000031 000003
    000031  aa  012 172 157 156         zone_index
    000032  aa  145 137 151 156
    000033  aa  144 145 170 000
    000034  55   000042 000026
    000035  4a   000110 400004
    000036  55   000037 000003
    000037  aa  012 172 157 156         zone_delta
    000040  aa  145 137 144 145
    000041  aa  154 164 141 000
    000042  55   000050 000034
    000043  4a   000105 400004
    000044  55   000045 000003
    000045  aa  012 172 157 156         zone_short
    000046  aa  145 137 163 150
    000047  aa  157 162 164 000
    000050  55   000056 000042
    000051  4a   000074 400004
    000052  55   000053 000003
    000053  aa  011 172 157 156         zone_long
    000054  aa  145 137 154 157
    000055  aa  156 147 000 000
    000056  55   000065 000050
    000057  4a   000073 400004
    000060  55   000061 000003
    000061  aa  016 154 141 156         language_index
    000062  aa  147 165 141 147
    000063  aa  145 137 151 156
    000064  aa  144 145 170 000
    000065  55   000073 000056
    000066  4a   000063 400004
    000067  55   000070 000003
    000070  aa  010 154 141 156         language
    000071  aa  147 165 141 147
    000072  aa  145 000 000 000
    000073  55   000100 000065
    000074  4a   000113 400004
    000075  55   000076 000003
    000076  aa  005 144 145 142         debug
    000077  aa  165 147 000 000
    000100  55   000105 000073
    000101  4a   000042 400004
    000102  55   000103 000003
    000103  aa  004 164 151 155         time
    000104  aa  145 000 000 000
    000105  55   000112 000100
    000106  4a   000021 400004
    000107  55   000110 000003
    000110  aa  004 144 141 164         date
    000111  aa  145 000 000 000
    000112  55   000120 000105
    000113  4a   000000 400004
    000114  55   000115 000003
    000115  aa  011 144 141 164         date_time
    000116  aa  145 137 164 151
    000117  aa  155 145 000 000
    000120  55   000002 000112
    000121  6a   000000 400002
    000122  55   000123 000003
    000123  aa  014 163 171 155         symbol_table
    000124  aa  142 157 154 137
    000125  aa  164 141 142 154
    000126  aa  145 000 000 000

DEFINITIONS HASH TABLE

    000127  aa   000000 000033
    000130  aa   000000 000000
    000131  aa   000000 000000
    000132  5a   000020 000000
    000133  5a   000012 000000
    000134  5a   000026 000000
    000135  5a   000034 000000
    000136  5a   000042 000000
    000137  5a   000050 000000
    000140  5a   000065 000000
    000141  5a   000100 000000
    000142  5a   000105 000000
    000143  5a   000073 000000
    000144  5a   000112 000000
    000145  5a   000120 000000
    000146  aa   000000 000000
    000147  aa   000000 000000
    000150  aa   000000 000000
    000151  aa   000000 000000
    000152  aa   000000 000000
    000153  aa   000000 000000
    000154  aa   000000 000000
    000155  aa   000000 000000
    000156  aa   000000 000000
    000157  aa   000000 000000
    000160  aa   000000 000000
    000161  aa   000000 000000
    000162  5a   000056 000000

NO EXTERNAL NAMES

NO TRAP POINTER WORDS

TYPE PAIR BLOCKS

    000163  aa   000001 000000
    000164  aa   000000 000000

INTERNAL EXPRESSION WORDS

    000165  aa   000000 000000
LINKAGE INFORMATION

    000114  aa   000000 000000
    000115  0a   000000 000000
    000116  aa   000000 000000
    000117  aa   000000 000000
    000120  aa   000000 000000
    000121  aa   000000 000000
    000122  22   000010 000010
    000123  a2   000000 000114
SYMBOL INFORMATION

SYMBOL TABLE HEADER

    000000  aa   000000 000001
    000001  aa   163171 155142
    000002  aa   164162 145145
    000003  aa   000000 000010
    000004  aa   000000 117244
    000005  aa   361023 525721
    000006  aa   000000 117547
    000007  aa   246347 311241
    000010  aa   141154 155040
    000011  aa   040040 040040
    000012  aa   000024 000040
    000013  aa   000034 000040
    000014  aa   000044 000100
    000015  aa   000002 000002
    000016  aa   000064 000000
    000017  aa   000000 000144
    000020  aa   000000 000107
    000021  aa   000114 000111
    000022  aa   000136 000107
    000023  aa   000064 000000
    000024  aa   101114 115040
    000025  aa   126145 162163
    000026  aa   151157 156040
    000027  aa   070056 061064
    000030  aa   040115 141162
    000031  aa   143150 040061
    000032  aa   071070 071040
    000033  aa   040040 040040
    000034  aa   110151 162156
    000035  aa   145151 163145
    000036  aa   156056 123171
    000037  aa   163115 141151
    000040  aa   156164 056141
    000041  aa   040040 040040
    000042  aa   040040 040040
    000043  aa   040040 040040
    000044  aa   055164 141162
    000045  aa   147145 164040
    000046  aa   154066 070040
    000047  aa   040040 040040
    000050  aa   040040 040040
    000051  aa   040040 040040
    000052  aa   040040 040040
    000053  aa   040040 040040
    000054  aa   040040 040040
    000055  aa   040040 040040
    000056  aa   040154 151163
    000057  aa   164040 163171
    000060  aa   155142 157154
    000061  aa   163040 040040
    000062  aa   040040 040040
    000063  aa   040040 040040
    000064  aa   000000 000001
    000065  aa   000000 000001
    000066  aa   000072 000063
    000067  aa   175453 021741
    000070  aa   000000 117547
    000071  aa   215335 000000
    000072  aa   076163 160145          >special_ldd>install>MR12.3-1114>time_defaults_.alm
    000073  aa   143151 141154
    000074  aa   137154 144144
    000075  aa   076151 156163
    000076  aa   164141 154154
    000077  aa   076115 122061
    000100  aa   062056 063055
    000101  aa   061061 061064
    000102  aa   076164 151155
    000103  aa   145137 144145
    000104  aa   146141 165154
    000105  aa   164163 137056
    000106  aa   141154 155040
               MULTICS ASSEMBLY CROSS REFERENCE LISTING

   Value        Symbol                   Source file   Line number

          21    date                     time_defaults_:     107,  120.
           0    date_time                time_defaults_:     107,  116.
         113    debug                    time_defaults_:     108,  151.
          63    language                 time_defaults_:     109,  128.
          73    language_index           time_defaults_:     109,  131.
           0    static                   time_defaults_:     113,  114.
          42    time                     time_defaults_:     107,  124.
         110    time_delta               time_defaults_:     111,  144.
         107    time_zone                time_defaults_:     111,  141.
         110    zone_delta               time_defaults_:     110,  145.
         112    zone_index               time_defaults_:     110,  148.
          74    zone_long                time_defaults_:     110,  134.
         105    zone_short               time_defaults_:     110,  138.


NO FATAL ERRORS


                                          -----------------------------------------------------------


Historical Background

This edition of the Multics software materials and documentation is provided and donated
to Massachusetts Institute of Technology by Group BULL including BULL HN Information Systems Inc.
as a contribution to computer science knowledge.
This donation is made also to give evidence of the common contributions of Massachusetts Institute of Technology,
Bell Laboratories, General Electric, Honeywell Information Systems Inc., Honeywell BULL Inc., Groupe BULL
and BULL HN Information Systems Inc. to the development of this operating system.
Multics development was initiated by Massachusetts Institute of Technology Project MAC (1963-1970),
renamed the MIT Laboratory for Computer Science and Artificial Intelligence in the mid 1970s, under the leadership
of Professor Fernando Jose Corbato. Users consider that Multics provided the best software architecture
for managing computer hardware properly and for executing programs. Many subsequent operating systems
incorporated Multics principles.
Multics was distributed in 1975 to 2000 by Group Bull in Europe , and in the U.S. by Bull HN Information Systems Inc.,
as successor in interest by change in name only to Honeywell Bull Inc. and Honeywell Information Systems Inc. .

                                          -----------------------------------------------------------

Permission to use, copy, modify, and distribute these programs and their documentation for any purpose and without
fee is hereby granted,provided that the below copyright notice and historical background appear in all copies
and that both the copyright notice and historical background and this permission notice appear in supporting
documentation, and that the names of MIT, HIS, BULL or BULL HN not be used in advertising or publicity pertaining
to distribution of the programs without specific prior written permission.
    Copyright 1972 by Massachusetts Institute of Technology and Honeywell Information Systems Inc.
    Copyright 2006 by BULL HN Information Systems Inc.
    Copyright 2006 by Bull SAS
    All Rights Reserved
