ASSEMBLY LISTING OF SEGMENT >dumps>old>recomp>x25_util.alm
ASSEMBLED ON:	10/28/82  1233.7 mst Thu
OPTIONS USED:	list
ASSEMBLED BY:	ALM Version  6.4  April 1981
ASSEMBLER CREATED:	07/17/81  1819.2 mst Fri

                                     1  " ***********************************************************
                                     2  " *                                                         *
                                     3  " * Copyright, (C) Honeywell Information Systems Inc., 1982 *
                                     4  " *                                                         *
                                     5  " ***********************************************************
    000000                           6  	name	x25_util
                                     7  "
                                     8  " Stupid program to do fast translate operations.
                                     9  " Written by C. Hornig, September 1982.
                                    10  "
                        000000      11  	entry	mvt
                                    12
                                    13  " dcl x25_util$mvt entry (ptr, fixed bin (21), ptr);
                                    14  " call x25_util$mvt (string, length, table);
                                    15
    000000  aa  0 00002 3515 20     16  mvt:	eppab	ap|2,*		" get ptr to string
    000001  aa  1 00000 3515 20     17  	eppab	ab|0,*
    000002  aa  0 00004 2361 20     18  	ldq	ap|4,*		" get length
    000003  aa  0 00006 3521 20     19  	eppbp	ap|6,*		" get ptr to table
    000004  aa  2 00000 3521 20     20  	eppbp	bp|0,*
    000005  aa  0 00140 1605 40     21  	mvt	(pr,rl),(pr,rl)	" translate away
    000006  aa   100000 000006      22  	desc9a	ab|0,ql
    000007  aa   100000 000006      23  	desc9a	ab|0,ql
    000010  aa  2 00000 0001 00     24  	arg	bp|0
    000011  aa  7 00044 7101 20     25  	short_return		" done
                                    26
                                    27  	end
ENTRY SEQUENCES

    000012  5a   000011 0000 00
    000013  aa  7 00046 2721 20
    000014  0a   000000 7100 00

NO LITERALS

NAME DEFINITIONS FOR ENTRY POINTS AND SEGDEFS

    000016  5a   000003 000000
    000017  5a   000024 600000
    000020  aa   000000 000000
    000021  55   000011 000002
    000022  5a   000002 400003
    000023  55   000006 000011
    000024  aa  010 170 062 065
    000025  aa  137 165 164 151
    000026  aa  154 000 000 000
    000027  55   000015 000003
    000030  0a   000013 500000
    000031  55   000014 000003
    000032  aa  003 155 166 164         mvt
    000033  55   000002 000011
    000034  6a   000000 400002
    000035  55   000020 000003
    000036  aa  014 163 171 155         symbol_table
    000037  aa  142 157 154 137
    000040  aa  164 141 142 154
    000041  aa  145 000 000 000

DEFINITIONS HASH TABLE

    000042  aa   000000 000015
    000043  aa   000000 000000
    000044  aa   000000 000000
    000045  aa   000000 000000
    000046  aa   000000 000000
    000047  aa   000000 000000
    000050  aa   000000 000000
    000051  5a   000015 000000
    000052  aa   000000 000000
    000053  aa   000000 000000
    000054  aa   000000 000000
    000055  5a   000011 000000
    000056  aa   000000 000000
    000057  aa   000000 000000

NO EXTERNAL NAMES

NO TRAP POINTER WORDS

TYPE PAIR BLOCKS

    000060  aa   000001 000000
    000061  aa   000000 000000

INTERNAL EXPRESSION WORDS

LINKAGE INFORMATION

    000000  aa   000000 000000
    000001  0a   000016 000000
    000002  aa   000000 000000
    000003  aa   000000 000000
    000004  aa   000000 000000
    000005  aa   000000 000000
    000006  22   000010 000010
    000007  a2   000000 000000
SYMBOL INFORMATION

SYMBOL TABLE HEADER

    000000  aa   000000 000001
    000001  aa   163171 155142
    000002  aa   164162 145145
    000003  aa   000000 000004
    000004  aa   000000 110172
    000005  aa   711315 365225
    000006  aa   000000 111307
    000007  aa   000522 251001
    000010  aa   141154 155040
    000011  aa   040040 040040
    000012  aa   000024 000040
    000013  aa   000034 000040
    000014  aa   000044 000100
    000015  aa   000002 000002
    000016  aa   000064 000000
    000017  aa   000000 000116
    000020  aa   000000 000102
    000021  aa   000000 000105
    000022  aa   000110 000102
    000023  aa   000064 000000
    000024  aa   101114 115040
    000025  aa   126145 162163
    000026  aa   151157 156040
    000027  aa   040066 056064
    000030  aa   040040 101160
    000031  aa   162151 154040
    000032  aa   061071 070061
    000033  aa   040040 040040
    000034  aa   110157 154155
    000035  aa   163164 145144
    000036  aa   164056 123171
    000037  aa   163115 141151
    000040  aa   156164 056155
    000041  aa   040040 040040
    000042  aa   040040 040040
    000043  aa   040040 040040
    000044  aa   154151 163164
    000045  aa   040040 040040
    000046  aa   040040 040040
    000047  aa   040040 040040
    000050  aa   040040 040040
    000051  aa   040040 040040
    000052  aa   040040 040040
    000053  aa   040040 040040
    000054  aa   040040 040040
    000055  aa   040040 040040
    000056  aa   040040 040040
    000057  aa   040040 040040
    000060  aa   040040 040040
    000061  aa   040040 040040
    000062  aa   040040 040040
    000063  aa   040040 040040
    000064  aa   000000 000001
    000065  aa   000000 000001
    000066  aa   000072 000036
    000067  aa   113022 171001
    000070  aa   000000 111305
    000071  aa   524701 600000
    000072  aa   076144 165155          >dumps>old>recomp>x25_util.alm
    000073  aa   160163 076157
    000074  aa   154144 076162
    000075  aa   145143 157155
    000076  aa   160076 170062
    000077  aa   065137 165164
    000100  aa   151154 056141
    000101  aa   154155 040040
               MULTICS ASSEMBLY CROSS REFERENCE LISTING

   Value        Symbol                   Source file   Line number

           0    mvt                      x25_util:      11,   16.


NO FATAL ERRORS


                                          -----------------------------------------------------------


Historical Background

This edition of the Multics software materials and documentation is provided and donated
to Massachusetts Institute of Technology by Group BULL including BULL HN Information Systems Inc.
as a contribution to computer science knowledge.
This donation is made also to give evidence of the common contributions of Massachusetts Institute of Technology,
Bell Laboratories, General Electric, Honeywell Information Systems Inc., Honeywell BULL Inc., Groupe BULL
and BULL HN Information Systems Inc. to the development of this operating system.
Multics development was initiated by Massachusetts Institute of Technology Project MAC (1963-1970),
renamed the MIT Laboratory for Computer Science and Artificial Intelligence in the mid 1970s, under the leadership
of Professor Fernando Jose Corbato. Users consider that Multics provided the best software architecture
for managing computer hardware properly and for executing programs. Many subsequent operating systems
incorporated Multics principles.
Multics was distributed in 1975 to 2000 by Group Bull in Europe , and in the U.S. by Bull HN Information Systems Inc.,
as successor in interest by change in name only to Honeywell Bull Inc. and Honeywell Information Systems Inc. .

                                          -----------------------------------------------------------

Permission to use, copy, modify, and distribute these programs and their documentation for any purpose and without
fee is hereby granted,provided that the below copyright notice and historical background appear in all copies
and that both the copyright notice and historical background and this permission notice appear in supporting
documentation, and that the names of MIT, HIS, BULL or BULL HN not be used in advertising or publicity pertaining
to distribution of the programs without specific prior written permission.
    Copyright 1972 by Massachusetts Institute of Technology and Honeywell Information Systems Inc.
    Copyright 2006 by BULL HN Information Systems Inc.
    Copyright 2006 by Bull SAS
    All Rights Reserved
